{
	"NFT_market_contract.sol": {
		"ProxyWallet": {
			"abi": [
				{
					"inputs": [
						{
							"internalType": "address",
							"name": "_owner",
							"type": "address"
						}
					],
					"stateMutability": "nonpayable",
					"type": "constructor"
				},
				{
					"inputs": [
						{
							"components": [
								{
									"internalType": "address",
									"name": "seller",
									"type": "address"
								},
								{
									"internalType": "address",
									"name": "contractID",
									"type": "address"
								},
								{
									"internalType": "uint256",
									"name": "tokenID",
									"type": "uint256"
								},
								{
									"internalType": "uint256",
									"name": "price",
									"type": "uint256"
								},
								{
									"internalType": "bytes",
									"name": "signature",
									"type": "bytes"
								},
								{
									"internalType": "uint256",
									"name": "expirationTime",
									"type": "uint256"
								},
								{
									"internalType": "uint256",
									"name": "orderID",
									"type": "uint256"
								}
							],
							"internalType": "struct ProxyWallet.SellOrder",
							"name": "sellOrder",
							"type": "tuple"
						},
						{
							"internalType": "uint256",
							"name": "_value",
							"type": "uint256"
						}
					],
					"name": "AtomicTx",
					"outputs": [
						{
							"internalType": "bool",
							"name": "",
							"type": "bool"
						}
					],
					"stateMutability": "nonpayable",
					"type": "function"
				},
				{
					"inputs": [
						{
							"internalType": "bytes32",
							"name": "",
							"type": "bytes32"
						}
					],
					"name": "IsInvalid",
					"outputs": [
						{
							"internalType": "bool",
							"name": "",
							"type": "bool"
						}
					],
					"stateMutability": "view",
					"type": "function"
				},
				{
					"inputs": [
						{
							"components": [
								{
									"internalType": "address",
									"name": "seller",
									"type": "address"
								},
								{
									"internalType": "address",
									"name": "contractID",
									"type": "address"
								},
								{
									"internalType": "uint256",
									"name": "tokenID",
									"type": "uint256"
								},
								{
									"internalType": "uint256",
									"name": "price",
									"type": "uint256"
								},
								{
									"internalType": "bytes",
									"name": "signature",
									"type": "bytes"
								},
								{
									"internalType": "uint256",
									"name": "expirationTime",
									"type": "uint256"
								},
								{
									"internalType": "uint256",
									"name": "orderID",
									"type": "uint256"
								}
							],
							"internalType": "struct ProxyWallet.SellOrder",
							"name": "sellOrder",
							"type": "tuple"
						}
					],
					"name": "cancelOrder",
					"outputs": [],
					"stateMutability": "nonpayable",
					"type": "function"
				},
				{
					"inputs": [
						{
							"internalType": "bytes32",
							"name": "orderHash",
							"type": "bytes32"
						}
					],
					"name": "isOrderInvalid",
					"outputs": [
						{
							"internalType": "bool",
							"name": "",
							"type": "bool"
						}
					],
					"stateMutability": "view",
					"type": "function"
				}
			],
			"devdoc": {
				"kind": "dev",
				"methods": {},
				"version": 1
			},
			"evm": {
				"assembly": "    /* \"NFT_market_contract.sol\":9556:13925  contract ProxyWallet {... */\n  mstore(0x40, 0x80)\n    /* \"NFT_market_contract.sol\":10073:10134  constructor(address _owner) {... */\n  callvalue\n  dup1\n  iszero\n  tag_1\n  jumpi\n  0x00\n  dup1\n  revert\ntag_1:\n  pop\n  mload(0x40)\n  sub(codesize, bytecodeSize)\n  dup1\n  bytecodeSize\n  dup4\n  codecopy\n  dup2\n  dup2\n  add\n  0x40\n  mstore\n  dup2\n  add\n  swap1\n  tag_2\n  swap2\n  swap1\n  tag_3\n  jump\t// in\ntag_2:\n    /* \"NFT_market_contract.sol\":10120:10126  _owner */\n  dup1\n    /* \"NFT_market_contract.sol\":10112:10117  owner */\n  0x00\n  dup1\n    /* \"NFT_market_contract.sol\":10112:10126  owner = _owner */\n  0x0100\n  exp\n  dup2\n  sload\n  dup2\n  0xffffffffffffffffffffffffffffffffffffffff\n  mul\n  not\n  and\n  swap1\n  dup4\n  0xffffffffffffffffffffffffffffffffffffffff\n  and\n  mul\n  or\n  swap1\n  sstore\n  pop\n    /* \"NFT_market_contract.sol\":10073:10134  constructor(address _owner) {... */\n  pop\n    /* \"NFT_market_contract.sol\":9556:13925  contract ProxyWallet {... */\n  jump(tag_6)\n    /* \"#utility.yul\":88:205   */\ntag_8:\n    /* \"#utility.yul\":197:198   */\n  0x00\n    /* \"#utility.yul\":194:195   */\n  dup1\n    /* \"#utility.yul\":187:199   */\n  revert\n    /* \"#utility.yul\":334:460   */\ntag_10:\n    /* \"#utility.yul\":371:378   */\n  0x00\n    /* \"#utility.yul\":411:453   */\n  0xffffffffffffffffffffffffffffffffffffffff\n    /* \"#utility.yul\":404:409   */\n  dup3\n    /* \"#utility.yul\":400:454   */\n  and\n    /* \"#utility.yul\":389:454   */\n  swap1\n  pop\n    /* \"#utility.yul\":334:460   */\n  swap2\n  swap1\n  pop\n  jump\t// out\n    /* \"#utility.yul\":466:562   */\ntag_11:\n    /* \"#utility.yul\":503:510   */\n  0x00\n    /* \"#utility.yul\":532:556   */\n  tag_20\n    /* \"#utility.yul\":550:555   */\n  dup3\n    /* \"#utility.yul\":532:556   */\n  tag_10\n  jump\t// in\ntag_20:\n    /* \"#utility.yul\":521:556   */\n  swap1\n  pop\n    /* \"#utility.yul\":466:562   */\n  swap2\n  swap1\n  pop\n  jump\t// out\n    /* \"#utility.yul\":568:690   */\ntag_12:\n    /* \"#utility.yul\":641:665   */\n  tag_22\n    /* \"#utility.yul\":659:664   */\n  dup2\n    /* \"#utility.yul\":641:665   */\n  tag_11\n  jump\t// in\ntag_22:\n    /* \"#utility.yul\":634:639   */\n  dup2\n    /* \"#utility.yul\":631:666   */\n  eq\n    /* \"#utility.yul\":621:684   */\n  tag_23\n  jumpi\n    /* \"#utility.yul\":680:681   */\n  0x00\n    /* \"#utility.yul\":677:678   */\n  dup1\n    /* \"#utility.yul\":670:682   */\n  revert\n    /* \"#utility.yul\":621:684   */\ntag_23:\n    /* \"#utility.yul\":568:690   */\n  pop\n  jump\t// out\n    /* \"#utility.yul\":696:839   */\ntag_13:\n    /* \"#utility.yul\":753:758   */\n  0x00\n    /* \"#utility.yul\":784:790   */\n  dup2\n    /* \"#utility.yul\":778:791   */\n  mload\n    /* \"#utility.yul\":769:791   */\n  swap1\n  pop\n    /* \"#utility.yul\":800:833   */\n  tag_25\n    /* \"#utility.yul\":827:832   */\n  dup2\n    /* \"#utility.yul\":800:833   */\n  tag_12\n  jump\t// in\ntag_25:\n    /* \"#utility.yul\":696:839   */\n  swap3\n  swap2\n  pop\n  pop\n  jump\t// out\n    /* \"#utility.yul\":845:1196   */\ntag_3:\n    /* \"#utility.yul\":915:921   */\n  0x00\n    /* \"#utility.yul\":964:966   */\n  0x20\n    /* \"#utility.yul\":952:961   */\n  dup3\n    /* \"#utility.yul\":943:950   */\n  dup5\n    /* \"#utility.yul\":939:962   */\n  sub\n    /* \"#utility.yul\":935:967   */\n  slt\n    /* \"#utility.yul\":932:1051   */\n  iszero\n  tag_27\n  jumpi\n    /* \"#utility.yul\":970:1049   */\n  tag_28\n  tag_8\n  jump\t// in\ntag_28:\n    /* \"#utility.yul\":932:1051   */\ntag_27:\n    /* \"#utility.yul\":1090:1091   */\n  0x00\n    /* \"#utility.yul\":1115:1179   */\n  tag_29\n    /* \"#utility.yul\":1171:1178   */\n  dup5\n    /* \"#utility.yul\":1162:1168   */\n  dup3\n    /* \"#utility.yul\":1151:1160   */\n  dup6\n    /* \"#utility.yul\":1147:1169   */\n  add\n    /* \"#utility.yul\":1115:1179   */\n  tag_13\n  jump\t// in\ntag_29:\n    /* \"#utility.yul\":1105:1179   */\n  swap2\n  pop\n    /* \"#utility.yul\":1061:1189   */\n  pop\n    /* \"#utility.yul\":845:1196   */\n  swap3\n  swap2\n  pop\n  pop\n  jump\t// out\n    /* \"NFT_market_contract.sol\":9556:13925  contract ProxyWallet {... */\ntag_6:\n  dataSize(sub_0)\n  dup1\n  dataOffset(sub_0)\n  0x00\n  codecopy\n  0x00\n  return\nstop\n\nsub_0: assembly {\n        /* \"NFT_market_contract.sol\":9556:13925  contract ProxyWallet {... */\n      mstore(0x40, 0x80)\n      callvalue\n      dup1\n      iszero\n      tag_1\n      jumpi\n      0x00\n      dup1\n      revert\n    tag_1:\n      pop\n      jumpi(tag_2, lt(calldatasize, 0x04))\n      shr(0xe0, calldataload(0x00))\n      dup1\n      0x1885ae10\n      eq\n      tag_3\n      jumpi\n      dup1\n      0x8eb6a489\n      eq\n      tag_4\n      jumpi\n      dup1\n      0x9b3f3f1a\n      eq\n      tag_5\n      jumpi\n      dup1\n      0xeb41850d\n      eq\n      tag_6\n      jumpi\n    tag_2:\n      0x00\n      dup1\n      revert\n        /* \"NFT_market_contract.sol\":10469:12044  function AtomicTx(... */\n    tag_3:\n      tag_7\n      0x04\n      dup1\n      calldatasize\n      sub\n      dup2\n      add\n      swap1\n      tag_8\n      swap2\n      swap1\n      tag_9\n      jump\t// in\n    tag_8:\n      tag_10\n      jump\t// in\n    tag_7:\n      mload(0x40)\n      tag_11\n      swap2\n      swap1\n      tag_12\n      jump\t// in\n    tag_11:\n      mload(0x40)\n      dup1\n      swap2\n      sub\n      swap1\n      return\n        /* \"NFT_market_contract.sol\":9692:9733  mapping(bytes32 => bool) public IsInvalid */\n    tag_4:\n      tag_13\n      0x04\n      dup1\n      calldatasize\n      sub\n      dup2\n      add\n      swap1\n      tag_14\n      swap2\n      swap1\n      tag_15\n      jump\t// in\n    tag_14:\n      tag_16\n      jump\t// in\n    tag_13:\n      mload(0x40)\n      tag_17\n      swap2\n      swap1\n      tag_12\n      jump\t// in\n    tag_17:\n      mload(0x40)\n      dup1\n      swap2\n      sub\n      swap1\n      return\n        /* \"NFT_market_contract.sol\":12072:12876  function cancelOrder(SellOrder memory sellOrder) public {... */\n    tag_5:\n      tag_18\n      0x04\n      dup1\n      calldatasize\n      sub\n      dup2\n      add\n      swap1\n      tag_19\n      swap2\n      swap1\n      tag_20\n      jump\t// in\n    tag_19:\n      tag_21\n      jump\t// in\n    tag_18:\n      stop\n        /* \"NFT_market_contract.sol\":10345:10461  function isOrderInvalid(bytes32 orderHash) public view returns (bool) {... */\n    tag_6:\n      tag_22\n      0x04\n      dup1\n      calldatasize\n      sub\n      dup2\n      add\n      swap1\n      tag_23\n      swap2\n      swap1\n      tag_15\n      jump\t// in\n    tag_23:\n      tag_24\n      jump\t// in\n    tag_22:\n      mload(0x40)\n      tag_25\n      swap2\n      swap1\n      tag_12\n      jump\t// in\n    tag_25:\n      mload(0x40)\n      dup1\n      swap2\n      sub\n      swap1\n      return\n        /* \"NFT_market_contract.sol\":10469:12044  function AtomicTx(... */\n    tag_10:\n        /* \"NFT_market_contract.sol\":10572:10576  bool */\n      0x00\n        /* \"NFT_market_contract.sol\":10589:10601  bytes32 Hash */\n      dup1\n        /* \"NFT_market_contract.sol\":10663:10672  sellOrder */\n      dup4\n        /* \"NFT_market_contract.sol\":10663:10683  sellOrder.contractID */\n      0x20\n      add\n      mload\n        /* \"NFT_market_contract.sol\":10702:10711  sellOrder */\n      dup5\n        /* \"NFT_market_contract.sol\":10702:10719  sellOrder.tokenID */\n      0x40\n      add\n      mload\n        /* \"NFT_market_contract.sol\":10738:10747  sellOrder */\n      dup6\n        /* \"NFT_market_contract.sol\":10738:10753  sellOrder.price */\n      0x60\n      add\n      mload\n        /* \"NFT_market_contract.sol\":10772:10781  sellOrder */\n      dup7\n        /* \"NFT_market_contract.sol\":10772:10796  sellOrder.expirationTime */\n      0xa0\n      add\n      mload\n        /* \"NFT_market_contract.sol\":10815:10824  sellOrder */\n      dup8\n        /* \"NFT_market_contract.sol\":10815:10834  sellOrder.signature */\n      0x80\n      add\n      mload\n        /* \"NFT_market_contract.sol\":10628:10849  abi.encodePacked(... */\n      add(0x20, mload(0x40))\n      tag_27\n      swap6\n      swap5\n      swap4\n      swap3\n      swap2\n      swap1\n      tag_28\n      jump\t// in\n    tag_27:\n      mload(0x40)\n      0x20\n      dup2\n      dup4\n      sub\n      sub\n      dup2\n      mstore\n      swap1\n      0x40\n      mstore\n        /* \"NFT_market_contract.sol\":10604:10860  keccak256(... */\n      dup1\n      mload\n      swap1\n      0x20\n      add\n      keccak256\n        /* \"NFT_market_contract.sol\":10589:10860  bytes32 Hash = keccak256(... */\n      swap1\n      pop\n        /* \"NFT_market_contract.sol\":10944:10959  block.timestamp */\n      timestamp\n        /* \"NFT_market_contract.sol\":10917:10926  sellOrder */\n      dup5\n        /* \"NFT_market_contract.sol\":10917:10941  sellOrder.expirationTime */\n      0xa0\n      add\n      mload\n        /* \"NFT_market_contract.sol\":10917:10959  sellOrder.expirationTime < block.timestamp */\n      lt\n        /* \"NFT_market_contract.sol\":10913:11039  if (sellOrder.expirationTime < block.timestamp) {... */\n      iszero\n      tag_29\n      jumpi\n        /* \"NFT_market_contract.sol\":10976:11000  markOrderCancelled(Hash) */\n      tag_30\n        /* \"NFT_market_contract.sol\":10995:10999  Hash */\n      dup2\n        /* \"NFT_market_contract.sol\":10976:10994  markOrderCancelled */\n      tag_31\n        /* \"NFT_market_contract.sol\":10976:11000  markOrderCancelled(Hash) */\n      jump\t// in\n    tag_30:\n        /* \"NFT_market_contract.sol\":11022:11027  false */\n      0x00\n        /* \"NFT_market_contract.sol\":11015:11027  return false */\n      swap2\n      pop\n      pop\n      jump(tag_26)\n        /* \"NFT_market_contract.sol\":10913:11039  if (sellOrder.expirationTime < block.timestamp) {... */\n    tag_29:\n        /* \"NFT_market_contract.sol\":11103:11112  IsInvalid */\n      0x01\n        /* \"NFT_market_contract.sol\":11103:11118  IsInvalid[Hash] */\n      0x00\n        /* \"NFT_market_contract.sol\":11113:11117  Hash */\n      dup3\n        /* \"NFT_market_contract.sol\":11103:11118  IsInvalid[Hash] */\n      dup2\n      mstore\n      0x20\n      add\n      swap1\n      dup2\n      mstore\n      0x20\n      add\n      0x00\n      keccak256\n      0x00\n      swap1\n      sload\n      swap1\n      0x0100\n      exp\n      swap1\n      div\n      0xff\n      and\n        /* \"NFT_market_contract.sol\":11102:11118  !IsInvalid[Hash] */\n      iszero\n        /* \"NFT_market_contract.sol\":11094:11142  require(!IsInvalid[Hash], \"Order has been used\") */\n      tag_32\n      jumpi\n      mload(0x40)\n      0x08c379a000000000000000000000000000000000000000000000000000000000\n      dup2\n      mstore\n      0x04\n      add\n      tag_33\n      swap1\n      tag_34\n      jump\t// in\n    tag_33:\n      mload(0x40)\n      dup1\n      swap2\n      sub\n      swap1\n      revert\n    tag_32:\n        /* \"NFT_market_contract.sol\":11202:11457  verifySignature(... */\n      tag_35\n        /* \"NFT_market_contract.sol\":11236:11245  sellOrder */\n      dup5\n        /* \"NFT_market_contract.sol\":11236:11252  sellOrder.seller */\n      0x00\n      add\n      mload\n        /* \"NFT_market_contract.sol\":11271:11280  sellOrder */\n      dup6\n        /* \"NFT_market_contract.sol\":11271:11291  sellOrder.contractID */\n      0x20\n      add\n      mload\n        /* \"NFT_market_contract.sol\":11310:11319  sellOrder */\n      dup7\n        /* \"NFT_market_contract.sol\":11310:11327  sellOrder.tokenID */\n      0x40\n      add\n      mload\n        /* \"NFT_market_contract.sol\":11346:11355  sellOrder */\n      dup8\n        /* \"NFT_market_contract.sol\":11346:11361  sellOrder.price */\n      0x60\n      add\n      mload\n        /* \"NFT_market_contract.sol\":11380:11389  sellOrder */\n      dup9\n        /* \"NFT_market_contract.sol\":11380:11399  sellOrder.signature */\n      0x80\n      add\n      mload\n        /* \"NFT_market_contract.sol\":11418:11427  sellOrder */\n      dup10\n        /* \"NFT_market_contract.sol\":11418:11442  sellOrder.expirationTime */\n      0xa0\n      add\n      mload\n        /* \"NFT_market_contract.sol\":11202:11217  verifySignature */\n      tag_36\n        /* \"NFT_market_contract.sol\":11202:11457  verifySignature(... */\n      jump\t// in\n    tag_35:\n        /* \"NFT_market_contract.sol\":11180:11502  require(... */\n      tag_37\n      jumpi\n      mload(0x40)\n      0x08c379a000000000000000000000000000000000000000000000000000000000\n      dup2\n      mstore\n      0x04\n      add\n      tag_38\n      swap1\n      tag_39\n      jump\t// in\n    tag_38:\n      mload(0x40)\n      dup1\n      swap2\n      sub\n      swap1\n      revert\n    tag_37:\n        /* \"NFT_market_contract.sol\":11529:11538  sellOrder */\n      dup4\n        /* \"NFT_market_contract.sol\":11529:11544  sellOrder.price */\n      0x60\n      add\n      mload\n        /* \"NFT_market_contract.sol\":11519:11525  _value */\n      dup4\n        /* \"NFT_market_contract.sol\":11519:11544  _value >= sellOrder.price */\n      lt\n        /* \"NFT_market_contract.sol\":11515:12037  if (_value >= sellOrder.price) {... */\n      tag_40\n      jumpi\n        /* \"NFT_market_contract.sol\":11659:11668  sellOrder */\n      dup4\n        /* \"NFT_market_contract.sol\":11659:11679  sellOrder.contractID */\n      0x20\n      add\n      mload\n        /* \"NFT_market_contract.sol\":11651:11693  IERC721(sellOrder.contractID).transferFrom */\n      0xffffffffffffffffffffffffffffffffffffffff\n      and\n      0x23b872dd\n        /* \"NFT_market_contract.sol\":11716:11725  sellOrder */\n      dup6\n        /* \"NFT_market_contract.sol\":11716:11732  sellOrder.seller */\n      0x00\n      add\n      mload\n        /* \"NFT_market_contract.sol\":11755:11765  msg.sender */\n      caller\n        /* \"NFT_market_contract.sol\":11788:11797  sellOrder */\n      dup8\n        /* \"NFT_market_contract.sol\":11788:11805  sellOrder.tokenID */\n      0x40\n      add\n      mload\n        /* \"NFT_market_contract.sol\":11651:11824  IERC721(sellOrder.contractID).transferFrom(... */\n      mload(0x40)\n      dup5\n      0xffffffff\n      and\n      0xe0\n      shl\n      dup2\n      mstore\n      0x04\n      add\n      tag_41\n      swap4\n      swap3\n      swap2\n      swap1\n      tag_42\n      jump\t// in\n    tag_41:\n      0x00\n      mload(0x40)\n      dup1\n      dup4\n      sub\n      dup2\n      0x00\n      dup8\n      dup1\n      extcodesize\n      iszero\n      dup1\n      iszero\n      tag_43\n      jumpi\n      0x00\n      dup1\n      revert\n    tag_43:\n      pop\n      gas\n      call\n      swap3\n      pop\n      pop\n      pop\n      dup1\n      iszero\n      tag_44\n      jumpi\n      pop\n      0x01\n    tag_44:\n        /* \"NFT_market_contract.sol\":11630:11981  try... */\n      tag_45\n      jumpi\n        /* \"NFT_market_contract.sol\":11960:11965  false */\n      0x00\n        /* \"NFT_market_contract.sol\":11953:11965  return false */\n      swap2\n      pop\n      pop\n      jump(tag_26)\n        /* \"NFT_market_contract.sol\":11630:11981  try... */\n    tag_45:\n        /* \"NFT_market_contract.sol\":11857:11881  markOrderCancelled(Hash) */\n      tag_50\n        /* \"NFT_market_contract.sol\":11876:11880  Hash */\n      dup2\n        /* \"NFT_market_contract.sol\":11857:11875  markOrderCancelled */\n      tag_31\n        /* \"NFT_market_contract.sol\":11857:11881  markOrderCancelled(Hash) */\n      jump\t// in\n    tag_50:\n        /* \"NFT_market_contract.sol\":11907:11911  true */\n      0x01\n        /* \"NFT_market_contract.sol\":11900:11911  return true */\n      swap2\n      pop\n      pop\n      jump(tag_26)\n        /* \"NFT_market_contract.sol\":11515:12037  if (_value >= sellOrder.price) {... */\n    tag_40:\n        /* \"NFT_market_contract.sol\":12020:12025  false */\n      0x00\n        /* \"NFT_market_contract.sol\":12013:12025  return false */\n      swap2\n      pop\n      pop\n        /* \"NFT_market_contract.sol\":10469:12044  function AtomicTx(... */\n    tag_26:\n      swap3\n      swap2\n      pop\n      pop\n      jump\t// out\n        /* \"NFT_market_contract.sol\":9692:9733  mapping(bytes32 => bool) public IsInvalid */\n    tag_16:\n      mstore(0x20, 0x01)\n      dup1\n      0x00\n      mstore\n      keccak256(0x00, 0x40)\n      0x00\n      swap2\n      pop\n      sload\n      swap1\n      0x0100\n      exp\n      swap1\n      div\n      0xff\n      and\n      dup2\n      jump\t// out\n        /* \"NFT_market_contract.sol\":12072:12876  function cancelOrder(SellOrder memory sellOrder) public {... */\n    tag_21:\n        /* \"NFT_market_contract.sol\":12186:12441  verifySignature(... */\n      tag_53\n        /* \"NFT_market_contract.sol\":12220:12229  sellOrder */\n      dup2\n        /* \"NFT_market_contract.sol\":12220:12236  sellOrder.seller */\n      0x00\n      add\n      mload\n        /* \"NFT_market_contract.sol\":12255:12264  sellOrder */\n      dup3\n        /* \"NFT_market_contract.sol\":12255:12275  sellOrder.contractID */\n      0x20\n      add\n      mload\n        /* \"NFT_market_contract.sol\":12294:12303  sellOrder */\n      dup4\n        /* \"NFT_market_contract.sol\":12294:12311  sellOrder.tokenID */\n      0x40\n      add\n      mload\n        /* \"NFT_market_contract.sol\":12330:12339  sellOrder */\n      dup5\n        /* \"NFT_market_contract.sol\":12330:12345  sellOrder.price */\n      0x60\n      add\n      mload\n        /* \"NFT_market_contract.sol\":12364:12373  sellOrder */\n      dup6\n        /* \"NFT_market_contract.sol\":12364:12383  sellOrder.signature */\n      0x80\n      add\n      mload\n        /* \"NFT_market_contract.sol\":12402:12411  sellOrder */\n      dup7\n        /* \"NFT_market_contract.sol\":12402:12426  sellOrder.expirationTime */\n      0xa0\n      add\n      mload\n        /* \"NFT_market_contract.sol\":12186:12201  verifySignature */\n      tag_36\n        /* \"NFT_market_contract.sol\":12186:12441  verifySignature(... */\n      jump\t// in\n    tag_53:\n        /* \"NFT_market_contract.sol\":12164:12486  require(... */\n      tag_54\n      jumpi\n      mload(0x40)\n      0x08c379a000000000000000000000000000000000000000000000000000000000\n      dup2\n      mstore\n      0x04\n      add\n      tag_55\n      swap1\n      tag_39\n      jump\t// in\n    tag_55:\n      mload(0x40)\n      dup1\n      swap2\n      sub\n      swap1\n      revert\n    tag_54:\n        /* \"NFT_market_contract.sol\":12523:12535  bytes32 Hash */\n      0x00\n        /* \"NFT_market_contract.sol\":12597:12606  sellOrder */\n      dup2\n        /* \"NFT_market_contract.sol\":12597:12617  sellOrder.contractID */\n      0x20\n      add\n      mload\n        /* \"NFT_market_contract.sol\":12636:12645  sellOrder */\n      dup3\n        /* \"NFT_market_contract.sol\":12636:12653  sellOrder.tokenID */\n      0x40\n      add\n      mload\n        /* \"NFT_market_contract.sol\":12672:12681  sellOrder */\n      dup4\n        /* \"NFT_market_contract.sol\":12672:12687  sellOrder.price */\n      0x60\n      add\n      mload\n        /* \"NFT_market_contract.sol\":12706:12715  sellOrder */\n      dup5\n        /* \"NFT_market_contract.sol\":12706:12730  sellOrder.expirationTime */\n      0xa0\n      add\n      mload\n        /* \"NFT_market_contract.sol\":12749:12758  sellOrder */\n      dup6\n        /* \"NFT_market_contract.sol\":12749:12768  sellOrder.signature */\n      0x80\n      add\n      mload\n        /* \"NFT_market_contract.sol\":12562:12783  abi.encodePacked(... */\n      add(0x20, mload(0x40))\n      tag_56\n      swap6\n      swap5\n      swap4\n      swap3\n      swap2\n      swap1\n      tag_28\n      jump\t// in\n    tag_56:\n      mload(0x40)\n      0x20\n      dup2\n      dup4\n      sub\n      sub\n      dup2\n      mstore\n      swap1\n      0x40\n      mstore\n        /* \"NFT_market_contract.sol\":12538:12794  keccak256(... */\n      dup1\n      mload\n      swap1\n      0x20\n      add\n      keccak256\n        /* \"NFT_market_contract.sol\":12523:12794  bytes32 Hash = keccak256(... */\n      swap1\n      pop\n        /* \"NFT_market_contract.sol\":12844:12868  markOrderCancelled(Hash) */\n      tag_57\n        /* \"NFT_market_contract.sol\":12863:12867  Hash */\n      dup2\n        /* \"NFT_market_contract.sol\":12844:12862  markOrderCancelled */\n      tag_31\n        /* \"NFT_market_contract.sol\":12844:12868  markOrderCancelled(Hash) */\n      jump\t// in\n    tag_57:\n        /* \"NFT_market_contract.sol\":12128:12876  {... */\n      pop\n        /* \"NFT_market_contract.sol\":12072:12876  function cancelOrder(SellOrder memory sellOrder) public {... */\n      pop\n      jump\t// out\n        /* \"NFT_market_contract.sol\":10345:10461  function isOrderInvalid(bytes32 orderHash) public view returns (bool) {... */\n    tag_24:\n        /* \"NFT_market_contract.sol\":10409:10413  bool */\n      0x00\n        /* \"NFT_market_contract.sol\":10433:10442  IsInvalid */\n      0x01\n        /* \"NFT_market_contract.sol\":10433:10453  IsInvalid[orderHash] */\n      0x00\n        /* \"NFT_market_contract.sol\":10443:10452  orderHash */\n      dup4\n        /* \"NFT_market_contract.sol\":10433:10453  IsInvalid[orderHash] */\n      dup2\n      mstore\n      0x20\n      add\n      swap1\n      dup2\n      mstore\n      0x20\n      add\n      0x00\n      keccak256\n      0x00\n      swap1\n      sload\n      swap1\n      0x0100\n      exp\n      swap1\n      div\n      0xff\n      and\n        /* \"NFT_market_contract.sol\":10426:10453  return IsInvalid[orderHash] */\n      swap1\n      pop\n        /* \"NFT_market_contract.sol\":10345:10461  function isOrderInvalid(bytes32 orderHash) public view returns (bool) {... */\n      swap2\n      swap1\n      pop\n      jump\t// out\n        /* \"NFT_market_contract.sol\":10142:10281  function markOrderCancelled(bytes32 orderHash) internal {... */\n    tag_31:\n        /* \"NFT_market_contract.sol\":10269:10273  true */\n      0x01\n        /* \"NFT_market_contract.sol\":10246:10255  IsInvalid */\n      dup1\n        /* \"NFT_market_contract.sol\":10246:10266  IsInvalid[orderHash] */\n      0x00\n        /* \"NFT_market_contract.sol\":10256:10265  orderHash */\n      dup4\n        /* \"NFT_market_contract.sol\":10246:10266  IsInvalid[orderHash] */\n      dup2\n      mstore\n      0x20\n      add\n      swap1\n      dup2\n      mstore\n      0x20\n      add\n      0x00\n      keccak256\n      0x00\n        /* \"NFT_market_contract.sol\":10246:10273  IsInvalid[orderHash] = true */\n      0x0100\n      exp\n      dup2\n      sload\n      dup2\n      0xff\n      mul\n      not\n      and\n      swap1\n      dup4\n      iszero\n      iszero\n      mul\n      or\n      swap1\n      sstore\n      pop\n        /* \"NFT_market_contract.sol\":10142:10281  function markOrderCancelled(bytes32 orderHash) internal {... */\n      pop\n      jump\t// out\n        /* \"NFT_market_contract.sol\":12905:13454  function verifySignature(... */\n    tag_36:\n        /* \"NFT_market_contract.sol\":13130:13134  bool */\n      0x00\n        /* \"NFT_market_contract.sol\":13147:13159  bytes32 hash */\n      dup1\n        /* \"NFT_market_contract.sol\":13203:13213  contractID */\n      dup7\n        /* \"NFT_market_contract.sol\":13215:13222  tokenID */\n      dup7\n        /* \"NFT_market_contract.sol\":13224:13229  price */\n      dup7\n        /* \"NFT_market_contract.sol\":13231:13245  expirationTime */\n      dup6\n        /* \"NFT_market_contract.sol\":13186:13246  abi.encodePacked(contractID, tokenID, price, expirationTime) */\n      add(0x20, mload(0x40))\n      tag_61\n      swap5\n      swap4\n      swap3\n      swap2\n      swap1\n      tag_62\n      jump\t// in\n    tag_61:\n      mload(0x40)\n      0x20\n      dup2\n      dup4\n      sub\n      sub\n      dup2\n      mstore\n      swap1\n      0x40\n      mstore\n        /* \"NFT_market_contract.sol\":13162:13257  keccak256(... */\n      dup1\n      mload\n      swap1\n      0x20\n      add\n      keccak256\n        /* \"NFT_market_contract.sol\":13147:13257  bytes32 hash = keccak256(... */\n      swap1\n      pop\n        /* \"NFT_market_contract.sol\":13268:13285  bytes32 OrderHash */\n      0x00\n        /* \"NFT_market_contract.sol\":13365:13369  hash */\n      dup2\n        /* \"NFT_market_contract.sol\":13312:13370  abi.encodePacked(\"\\x19Ethereum Signed Message:\\n32\", hash) */\n      add(0x20, mload(0x40))\n      tag_63\n      swap2\n      swap1\n      tag_64\n      jump\t// in\n    tag_63:\n      mload(0x40)\n      0x20\n      dup2\n      dup4\n      sub\n      sub\n      dup2\n      mstore\n      swap1\n      0x40\n      mstore\n        /* \"NFT_market_contract.sol\":13288:13381  keccak256(... */\n      dup1\n      mload\n      swap1\n      0x20\n      add\n      keccak256\n        /* \"NFT_market_contract.sol\":13268:13381  bytes32 OrderHash = keccak256(... */\n      swap1\n      pop\n        /* \"NFT_market_contract.sol\":13440:13446  seller */\n      dup9\n        /* \"NFT_market_contract.sol\":13401:13446  recoverSigner(OrderHash, signature) == seller */\n      0xffffffffffffffffffffffffffffffffffffffff\n      and\n        /* \"NFT_market_contract.sol\":13401:13436  recoverSigner(OrderHash, signature) */\n      tag_65\n        /* \"NFT_market_contract.sol\":13415:13424  OrderHash */\n      dup3\n        /* \"NFT_market_contract.sol\":13426:13435  signature */\n      dup8\n        /* \"NFT_market_contract.sol\":13401:13414  recoverSigner */\n      tag_66\n        /* \"NFT_market_contract.sol\":13401:13436  recoverSigner(OrderHash, signature) */\n      jump\t// in\n    tag_65:\n        /* \"NFT_market_contract.sol\":13401:13446  recoverSigner(OrderHash, signature) == seller */\n      0xffffffffffffffffffffffffffffffffffffffff\n      and\n      eq\n        /* \"NFT_market_contract.sol\":13394:13446  return recoverSigner(OrderHash, signature) == seller */\n      swap3\n      pop\n      pop\n      pop\n        /* \"NFT_market_contract.sol\":12905:13454  function verifySignature(... */\n      swap7\n      swap6\n      pop\n      pop\n      pop\n      pop\n      pop\n      pop\n      jump\t// out\n        /* \"NFT_market_contract.sol\":13462:13922  function recoverSigner(... */\n    tag_66:\n        /* \"NFT_market_contract.sol\":13571:13578  address */\n      0x00\n        /* \"NFT_market_contract.sol\":13591:13600  bytes32 r */\n      dup1\n        /* \"NFT_market_contract.sol\":13611:13620  bytes32 s */\n      0x00\n        /* \"NFT_market_contract.sol\":13631:13638  uint8 v */\n      dup1\n        /* \"NFT_market_contract.sol\":13701:13703  32 */\n      0x20\n        /* \"NFT_market_contract.sol\":13690:13699  signature */\n      dup6\n        /* \"NFT_market_contract.sol\":13686:13704  add(signature, 32) */\n      add\n        /* \"NFT_market_contract.sol\":13680:13705  mload(add(signature, 32)) */\n      mload\n        /* \"NFT_market_contract.sol\":13675:13705  r := mload(add(signature, 32)) */\n      swap3\n      pop\n        /* \"NFT_market_contract.sol\":13745:13747  64 */\n      0x40\n        /* \"NFT_market_contract.sol\":13734:13743  signature */\n      dup6\n        /* \"NFT_market_contract.sol\":13730:13748  add(signature, 64) */\n      add\n        /* \"NFT_market_contract.sol\":13724:13749  mload(add(signature, 64)) */\n      mload\n        /* \"NFT_market_contract.sol\":13719:13749  s := mload(add(signature, 64)) */\n      swap2\n      pop\n        /* \"NFT_market_contract.sol\":13797:13799  96 */\n      0x60\n        /* \"NFT_market_contract.sol\":13786:13795  signature */\n      dup6\n        /* \"NFT_market_contract.sol\":13782:13800  add(signature, 96) */\n      add\n        /* \"NFT_market_contract.sol\":13776:13801  mload(add(signature, 96)) */\n      mload\n        /* \"NFT_market_contract.sol\":13773:13774  0 */\n      0x00\n        /* \"NFT_market_contract.sol\":13768:13802  byte(0, mload(add(signature, 96))) */\n      byte\n        /* \"NFT_market_contract.sol\":13763:13802  v := byte(0, mload(add(signature, 96))) */\n      swap1\n      pop\n        /* \"NFT_market_contract.sol\":13833:13835  27 */\n      0x1b\n        /* \"NFT_market_contract.sol\":13829:13830  v */\n      dup2\n        /* \"NFT_market_contract.sol\":13829:13835  v < 27 */\n      0xff\n      and\n      lt\n        /* \"NFT_market_contract.sol\":13825:13871  if (v < 27) {... */\n      iszero\n      tag_68\n      jumpi\n        /* \"NFT_market_contract.sol\":13857:13859  27 */\n      0x1b\n        /* \"NFT_market_contract.sol\":13852:13859  v += 27 */\n      dup2\n      tag_69\n      swap2\n      swap1\n      tag_70\n      jump\t// in\n    tag_69:\n      swap1\n      pop\n        /* \"NFT_market_contract.sol\":13825:13871  if (v < 27) {... */\n    tag_68:\n        /* \"NFT_market_contract.sol\":13890:13914  ecrecover(hash, v, r, s) */\n      0x01\n        /* \"NFT_market_contract.sol\":13900:13904  hash */\n      dup7\n        /* \"NFT_market_contract.sol\":13906:13907  v */\n      dup3\n        /* \"NFT_market_contract.sol\":13909:13910  r */\n      dup6\n        /* \"NFT_market_contract.sol\":13912:13913  s */\n      dup6\n        /* \"NFT_market_contract.sol\":13890:13914  ecrecover(hash, v, r, s) */\n      mload(0x40)\n      0x00\n      dup2\n      mstore\n      0x20\n      add\n      0x40\n      mstore\n      mload(0x40)\n      tag_71\n      swap5\n      swap4\n      swap3\n      swap2\n      swap1\n      tag_72\n      jump\t// in\n    tag_71:\n      0x20\n      mload(0x40)\n      0x20\n      dup2\n      sub\n      swap1\n      dup1\n      dup5\n      sub\n      swap1\n      dup6\n      gas\n      staticcall\n      iszero\n      dup1\n      iszero\n      tag_74\n      jumpi\n      returndatasize\n      0x00\n      dup1\n      returndatacopy\n      revert(0x00, returndatasize)\n    tag_74:\n      pop\n      pop\n      pop\n      mload(sub(mload(0x40), 0x20))\n        /* \"NFT_market_contract.sol\":13883:13914  return ecrecover(hash, v, r, s) */\n      swap4\n      pop\n      pop\n      pop\n      pop\n        /* \"NFT_market_contract.sol\":13462:13922  function recoverSigner(... */\n      swap3\n      swap2\n      pop\n      pop\n      jump\t// out\n        /* \"#utility.yul\":7:82   */\n    tag_75:\n        /* \"#utility.yul\":40:46   */\n      0x00\n        /* \"#utility.yul\":73:75   */\n      0x40\n        /* \"#utility.yul\":67:76   */\n      mload\n        /* \"#utility.yul\":57:76   */\n      swap1\n      pop\n        /* \"#utility.yul\":7:82   */\n      swap1\n      jump\t// out\n        /* \"#utility.yul\":88:205   */\n    tag_76:\n        /* \"#utility.yul\":197:198   */\n      0x00\n        /* \"#utility.yul\":194:195   */\n      dup1\n        /* \"#utility.yul\":187:199   */\n      revert\n        /* \"#utility.yul\":211:328   */\n    tag_77:\n        /* \"#utility.yul\":320:321   */\n      0x00\n        /* \"#utility.yul\":317:318   */\n      dup1\n        /* \"#utility.yul\":310:322   */\n      revert\n        /* \"#utility.yul\":334:451   */\n    tag_78:\n        /* \"#utility.yul\":443:444   */\n      0x00\n        /* \"#utility.yul\":440:441   */\n      dup1\n        /* \"#utility.yul\":433:445   */\n      revert\n        /* \"#utility.yul\":457:559   */\n    tag_79:\n        /* \"#utility.yul\":498:504   */\n      0x00\n        /* \"#utility.yul\":549:551   */\n      0x1f\n        /* \"#utility.yul\":545:552   */\n      not\n        /* \"#utility.yul\":540:542   */\n      0x1f\n        /* \"#utility.yul\":533:538   */\n      dup4\n        /* \"#utility.yul\":529:543   */\n      add\n        /* \"#utility.yul\":525:553   */\n      and\n        /* \"#utility.yul\":515:553   */\n      swap1\n      pop\n        /* \"#utility.yul\":457:559   */\n      swap2\n      swap1\n      pop\n      jump\t// out\n        /* \"#utility.yul\":565:745   */\n    tag_80:\n        /* \"#utility.yul\":613:690   */\n      0x4e487b7100000000000000000000000000000000000000000000000000000000\n        /* \"#utility.yul\":610:611   */\n      0x00\n        /* \"#utility.yul\":603:691   */\n      mstore\n        /* \"#utility.yul\":710:714   */\n      0x41\n        /* \"#utility.yul\":707:708   */\n      0x04\n        /* \"#utility.yul\":700:715   */\n      mstore\n        /* \"#utility.yul\":734:738   */\n      0x24\n        /* \"#utility.yul\":731:732   */\n      0x00\n        /* \"#utility.yul\":724:739   */\n      revert\n        /* \"#utility.yul\":751:1032   */\n    tag_81:\n        /* \"#utility.yul\":834:861   */\n      tag_137\n        /* \"#utility.yul\":856:860   */\n      dup3\n        /* \"#utility.yul\":834:861   */\n      tag_79\n      jump\t// in\n    tag_137:\n        /* \"#utility.yul\":826:832   */\n      dup2\n        /* \"#utility.yul\":822:862   */\n      add\n        /* \"#utility.yul\":964:970   */\n      dup2\n        /* \"#utility.yul\":952:962   */\n      dup2\n        /* \"#utility.yul\":949:971   */\n      lt\n        /* \"#utility.yul\":928:946   */\n      0xffffffffffffffff\n        /* \"#utility.yul\":916:926   */\n      dup3\n        /* \"#utility.yul\":913:947   */\n      gt\n        /* \"#utility.yul\":910:972   */\n      or\n        /* \"#utility.yul\":907:995   */\n      iszero\n      tag_138\n      jumpi\n        /* \"#utility.yul\":975:993   */\n      tag_139\n      tag_80\n      jump\t// in\n    tag_139:\n        /* \"#utility.yul\":907:995   */\n    tag_138:\n        /* \"#utility.yul\":1015:1025   */\n      dup1\n        /* \"#utility.yul\":1011:1013   */\n      0x40\n        /* \"#utility.yul\":1004:1026   */\n      mstore\n        /* \"#utility.yul\":794:1032   */\n      pop\n        /* \"#utility.yul\":751:1032   */\n      pop\n      pop\n      jump\t// out\n        /* \"#utility.yul\":1038:1167   */\n    tag_82:\n        /* \"#utility.yul\":1072:1078   */\n      0x00\n        /* \"#utility.yul\":1099:1119   */\n      tag_141\n      tag_75\n      jump\t// in\n    tag_141:\n        /* \"#utility.yul\":1089:1119   */\n      swap1\n      pop\n        /* \"#utility.yul\":1128:1161   */\n      tag_142\n        /* \"#utility.yul\":1156:1160   */\n      dup3\n        /* \"#utility.yul\":1148:1154   */\n      dup3\n        /* \"#utility.yul\":1128:1161   */\n      tag_81\n      jump\t// in\n    tag_142:\n        /* \"#utility.yul\":1038:1167   */\n      swap2\n      swap1\n      pop\n      jump\t// out\n        /* \"#utility.yul\":1173:1290   */\n    tag_83:\n        /* \"#utility.yul\":1282:1283   */\n      0x00\n        /* \"#utility.yul\":1279:1280   */\n      dup1\n        /* \"#utility.yul\":1272:1284   */\n      revert\n        /* \"#utility.yul\":1296:1422   */\n    tag_84:\n        /* \"#utility.yul\":1333:1340   */\n      0x00\n        /* \"#utility.yul\":1373:1415   */\n      0xffffffffffffffffffffffffffffffffffffffff\n        /* \"#utility.yul\":1366:1371   */\n      dup3\n        /* \"#utility.yul\":1362:1416   */\n      and\n        /* \"#utility.yul\":1351:1416   */\n      swap1\n      pop\n        /* \"#utility.yul\":1296:1422   */\n      swap2\n      swap1\n      pop\n      jump\t// out\n        /* \"#utility.yul\":1428:1524   */\n    tag_85:\n        /* \"#utility.yul\":1465:1472   */\n      0x00\n        /* \"#utility.yul\":1494:1518   */\n      tag_146\n        /* \"#utility.yul\":1512:1517   */\n      dup3\n        /* \"#utility.yul\":1494:1518   */\n      tag_84\n      jump\t// in\n    tag_146:\n        /* \"#utility.yul\":1483:1518   */\n      swap1\n      pop\n        /* \"#utility.yul\":1428:1524   */\n      swap2\n      swap1\n      pop\n      jump\t// out\n        /* \"#utility.yul\":1530:1652   */\n    tag_86:\n        /* \"#utility.yul\":1603:1627   */\n      tag_148\n        /* \"#utility.yul\":1621:1626   */\n      dup2\n        /* \"#utility.yul\":1603:1627   */\n      tag_85\n      jump\t// in\n    tag_148:\n        /* \"#utility.yul\":1596:1601   */\n      dup2\n        /* \"#utility.yul\":1593:1628   */\n      eq\n        /* \"#utility.yul\":1583:1646   */\n      tag_149\n      jumpi\n        /* \"#utility.yul\":1642:1643   */\n      0x00\n        /* \"#utility.yul\":1639:1640   */\n      dup1\n        /* \"#utility.yul\":1632:1644   */\n      revert\n        /* \"#utility.yul\":1583:1646   */\n    tag_149:\n        /* \"#utility.yul\":1530:1652   */\n      pop\n      jump\t// out\n        /* \"#utility.yul\":1658:1797   */\n    tag_87:\n        /* \"#utility.yul\":1704:1709   */\n      0x00\n        /* \"#utility.yul\":1742:1748   */\n      dup2\n        /* \"#utility.yul\":1729:1749   */\n      calldataload\n        /* \"#utility.yul\":1720:1749   */\n      swap1\n      pop\n        /* \"#utility.yul\":1758:1791   */\n      tag_151\n        /* \"#utility.yul\":1785:1790   */\n      dup2\n        /* \"#utility.yul\":1758:1791   */\n      tag_86\n      jump\t// in\n    tag_151:\n        /* \"#utility.yul\":1658:1797   */\n      swap3\n      swap2\n      pop\n      pop\n      jump\t// out\n        /* \"#utility.yul\":1803:1880   */\n    tag_88:\n        /* \"#utility.yul\":1840:1847   */\n      0x00\n        /* \"#utility.yul\":1869:1874   */\n      dup2\n        /* \"#utility.yul\":1858:1874   */\n      swap1\n      pop\n        /* \"#utility.yul\":1803:1880   */\n      swap2\n      swap1\n      pop\n      jump\t// out\n        /* \"#utility.yul\":1886:2008   */\n    tag_89:\n        /* \"#utility.yul\":1959:1983   */\n      tag_154\n        /* \"#utility.yul\":1977:1982   */\n      dup2\n        /* \"#utility.yul\":1959:1983   */\n      tag_88\n      jump\t// in\n    tag_154:\n        /* \"#utility.yul\":1952:1957   */\n      dup2\n        /* \"#utility.yul\":1949:1984   */\n      eq\n        /* \"#utility.yul\":1939:2002   */\n      tag_155\n      jumpi\n        /* \"#utility.yul\":1998:1999   */\n      0x00\n        /* \"#utility.yul\":1995:1996   */\n      dup1\n        /* \"#utility.yul\":1988:2000   */\n      revert\n        /* \"#utility.yul\":1939:2002   */\n    tag_155:\n        /* \"#utility.yul\":1886:2008   */\n      pop\n      jump\t// out\n        /* \"#utility.yul\":2014:2153   */\n    tag_90:\n        /* \"#utility.yul\":2060:2065   */\n      0x00\n        /* \"#utility.yul\":2098:2104   */\n      dup2\n        /* \"#utility.yul\":2085:2105   */\n      calldataload\n        /* \"#utility.yul\":2076:2105   */\n      swap1\n      pop\n        /* \"#utility.yul\":2114:2147   */\n      tag_157\n        /* \"#utility.yul\":2141:2146   */\n      dup2\n        /* \"#utility.yul\":2114:2147   */\n      tag_89\n      jump\t// in\n    tag_157:\n        /* \"#utility.yul\":2014:2153   */\n      swap3\n      swap2\n      pop\n      pop\n      jump\t// out\n        /* \"#utility.yul\":2159:2276   */\n    tag_91:\n        /* \"#utility.yul\":2268:2269   */\n      0x00\n        /* \"#utility.yul\":2265:2266   */\n      dup1\n        /* \"#utility.yul\":2258:2270   */\n      revert\n        /* \"#utility.yul\":2282:2399   */\n    tag_92:\n        /* \"#utility.yul\":2391:2392   */\n      0x00\n        /* \"#utility.yul\":2388:2389   */\n      dup1\n        /* \"#utility.yul\":2381:2393   */\n      revert\n        /* \"#utility.yul\":2405:2712   */\n    tag_93:\n        /* \"#utility.yul\":2466:2470   */\n      0x00\n        /* \"#utility.yul\":2556:2574   */\n      0xffffffffffffffff\n        /* \"#utility.yul\":2548:2554   */\n      dup3\n        /* \"#utility.yul\":2545:2575   */\n      gt\n        /* \"#utility.yul\":2542:2598   */\n      iszero\n      tag_161\n      jumpi\n        /* \"#utility.yul\":2578:2596   */\n      tag_162\n      tag_80\n      jump\t// in\n    tag_162:\n        /* \"#utility.yul\":2542:2598   */\n    tag_161:\n        /* \"#utility.yul\":2616:2645   */\n      tag_163\n        /* \"#utility.yul\":2638:2644   */\n      dup3\n        /* \"#utility.yul\":2616:2645   */\n      tag_79\n      jump\t// in\n    tag_163:\n        /* \"#utility.yul\":2608:2645   */\n      swap1\n      pop\n        /* \"#utility.yul\":2700:2704   */\n      0x20\n        /* \"#utility.yul\":2694:2698   */\n      dup2\n        /* \"#utility.yul\":2690:2705   */\n      add\n        /* \"#utility.yul\":2682:2705   */\n      swap1\n      pop\n        /* \"#utility.yul\":2405:2712   */\n      swap2\n      swap1\n      pop\n      jump\t// out\n        /* \"#utility.yul\":2718:2864   */\n    tag_94:\n        /* \"#utility.yul\":2815:2821   */\n      dup3\n        /* \"#utility.yul\":2810:2813   */\n      dup2\n        /* \"#utility.yul\":2805:2808   */\n      dup4\n        /* \"#utility.yul\":2792:2822   */\n      calldatacopy\n        /* \"#utility.yul\":2856:2857   */\n      0x00\n        /* \"#utility.yul\":2847:2853   */\n      dup4\n        /* \"#utility.yul\":2842:2845   */\n      dup4\n        /* \"#utility.yul\":2838:2854   */\n      add\n        /* \"#utility.yul\":2831:2858   */\n      mstore\n        /* \"#utility.yul\":2718:2864   */\n      pop\n      pop\n      pop\n      jump\t// out\n        /* \"#utility.yul\":2870:3293   */\n    tag_95:\n        /* \"#utility.yul\":2947:2952   */\n      0x00\n        /* \"#utility.yul\":2972:3037   */\n      tag_166\n        /* \"#utility.yul\":2988:3036   */\n      tag_167\n        /* \"#utility.yul\":3029:3035   */\n      dup5\n        /* \"#utility.yul\":2988:3036   */\n      tag_93\n      jump\t// in\n    tag_167:\n        /* \"#utility.yul\":2972:3037   */\n      tag_82\n      jump\t// in\n    tag_166:\n        /* \"#utility.yul\":2963:3037   */\n      swap1\n      pop\n        /* \"#utility.yul\":3060:3066   */\n      dup3\n        /* \"#utility.yul\":3053:3058   */\n      dup2\n        /* \"#utility.yul\":3046:3067   */\n      mstore\n        /* \"#utility.yul\":3098:3102   */\n      0x20\n        /* \"#utility.yul\":3091:3096   */\n      dup2\n        /* \"#utility.yul\":3087:3103   */\n      add\n        /* \"#utility.yul\":3136:3139   */\n      dup5\n        /* \"#utility.yul\":3127:3133   */\n      dup5\n        /* \"#utility.yul\":3122:3125   */\n      dup5\n        /* \"#utility.yul\":3118:3134   */\n      add\n        /* \"#utility.yul\":3115:3140   */\n      gt\n        /* \"#utility.yul\":3112:3224   */\n      iszero\n      tag_168\n      jumpi\n        /* \"#utility.yul\":3143:3222   */\n      tag_169\n      tag_92\n      jump\t// in\n    tag_169:\n        /* \"#utility.yul\":3112:3224   */\n    tag_168:\n        /* \"#utility.yul\":3233:3287   */\n      tag_170\n        /* \"#utility.yul\":3280:3286   */\n      dup5\n        /* \"#utility.yul\":3275:3278   */\n      dup3\n        /* \"#utility.yul\":3270:3273   */\n      dup6\n        /* \"#utility.yul\":3233:3287   */\n      tag_94\n      jump\t// in\n    tag_170:\n        /* \"#utility.yul\":2953:3293   */\n      pop\n        /* \"#utility.yul\":2870:3293   */\n      swap4\n      swap3\n      pop\n      pop\n      pop\n      jump\t// out\n        /* \"#utility.yul\":3312:3650   */\n    tag_96:\n        /* \"#utility.yul\":3367:3372   */\n      0x00\n        /* \"#utility.yul\":3416:3419   */\n      dup3\n        /* \"#utility.yul\":3409:3413   */\n      0x1f\n        /* \"#utility.yul\":3401:3407   */\n      dup4\n        /* \"#utility.yul\":3397:3414   */\n      add\n        /* \"#utility.yul\":3393:3420   */\n      slt\n        /* \"#utility.yul\":3383:3505   */\n      tag_172\n      jumpi\n        /* \"#utility.yul\":3424:3503   */\n      tag_173\n      tag_91\n      jump\t// in\n    tag_173:\n        /* \"#utility.yul\":3383:3505   */\n    tag_172:\n        /* \"#utility.yul\":3541:3547   */\n      dup2\n        /* \"#utility.yul\":3528:3548   */\n      calldataload\n        /* \"#utility.yul\":3566:3644   */\n      tag_174\n        /* \"#utility.yul\":3640:3643   */\n      dup5\n        /* \"#utility.yul\":3632:3638   */\n      dup3\n        /* \"#utility.yul\":3625:3629   */\n      0x20\n        /* \"#utility.yul\":3617:3623   */\n      dup7\n        /* \"#utility.yul\":3613:3630   */\n      add\n        /* \"#utility.yul\":3566:3644   */\n      tag_95\n      jump\t// in\n    tag_174:\n        /* \"#utility.yul\":3557:3644   */\n      swap2\n      pop\n        /* \"#utility.yul\":3373:3650   */\n      pop\n        /* \"#utility.yul\":3312:3650   */\n      swap3\n      swap2\n      pop\n      pop\n      jump\t// out\n        /* \"#utility.yul\":3692:5275   */\n    tag_97:\n        /* \"#utility.yul\":3768:3773   */\n      0x00\n        /* \"#utility.yul\":3812:3816   */\n      0xe0\n        /* \"#utility.yul\":3800:3809   */\n      dup3\n        /* \"#utility.yul\":3795:3798   */\n      dup5\n        /* \"#utility.yul\":3791:3810   */\n      sub\n        /* \"#utility.yul\":3787:3817   */\n      slt\n        /* \"#utility.yul\":3784:3901   */\n      iszero\n      tag_176\n      jumpi\n        /* \"#utility.yul\":3820:3899   */\n      tag_177\n      tag_78\n      jump\t// in\n    tag_177:\n        /* \"#utility.yul\":3784:3901   */\n    tag_176:\n        /* \"#utility.yul\":3919:3940   */\n      tag_178\n        /* \"#utility.yul\":3935:3939   */\n      0xe0\n        /* \"#utility.yul\":3919:3940   */\n      tag_82\n      jump\t// in\n    tag_178:\n        /* \"#utility.yul\":3910:3940   */\n      swap1\n      pop\n        /* \"#utility.yul\":4001:4002   */\n      0x00\n        /* \"#utility.yul\":4041:4090   */\n      tag_179\n        /* \"#utility.yul\":4086:4089   */\n      dup5\n        /* \"#utility.yul\":4077:4083   */\n      dup3\n        /* \"#utility.yul\":4066:4075   */\n      dup6\n        /* \"#utility.yul\":4062:4084   */\n      add\n        /* \"#utility.yul\":4041:4090   */\n      tag_87\n      jump\t// in\n    tag_179:\n        /* \"#utility.yul\":4034:4038   */\n      0x00\n        /* \"#utility.yul\":4027:4032   */\n      dup4\n        /* \"#utility.yul\":4023:4039   */\n      add\n        /* \"#utility.yul\":4016:4091   */\n      mstore\n        /* \"#utility.yul\":3950:4102   */\n      pop\n        /* \"#utility.yul\":4167:4169   */\n      0x20\n        /* \"#utility.yul\":4208:4257   */\n      tag_180\n        /* \"#utility.yul\":4253:4256   */\n      dup5\n        /* \"#utility.yul\":4244:4250   */\n      dup3\n        /* \"#utility.yul\":4233:4242   */\n      dup6\n        /* \"#utility.yul\":4229:4251   */\n      add\n        /* \"#utility.yul\":4208:4257   */\n      tag_87\n      jump\t// in\n    tag_180:\n        /* \"#utility.yul\":4201:4205   */\n      0x20\n        /* \"#utility.yul\":4194:4199   */\n      dup4\n        /* \"#utility.yul\":4190:4206   */\n      add\n        /* \"#utility.yul\":4183:4258   */\n      mstore\n        /* \"#utility.yul\":4112:4269   */\n      pop\n        /* \"#utility.yul\":4331:4333   */\n      0x40\n        /* \"#utility.yul\":4372:4421   */\n      tag_181\n        /* \"#utility.yul\":4417:4420   */\n      dup5\n        /* \"#utility.yul\":4408:4414   */\n      dup3\n        /* \"#utility.yul\":4397:4406   */\n      dup6\n        /* \"#utility.yul\":4393:4415   */\n      add\n        /* \"#utility.yul\":4372:4421   */\n      tag_90\n      jump\t// in\n    tag_181:\n        /* \"#utility.yul\":4365:4369   */\n      0x40\n        /* \"#utility.yul\":4358:4363   */\n      dup4\n        /* \"#utility.yul\":4354:4370   */\n      add\n        /* \"#utility.yul\":4347:4422   */\n      mstore\n        /* \"#utility.yul\":4279:4433   */\n      pop\n        /* \"#utility.yul\":4493:4495   */\n      0x60\n        /* \"#utility.yul\":4534:4583   */\n      tag_182\n        /* \"#utility.yul\":4579:4582   */\n      dup5\n        /* \"#utility.yul\":4570:4576   */\n      dup3\n        /* \"#utility.yul\":4559:4568   */\n      dup6\n        /* \"#utility.yul\":4555:4577   */\n      add\n        /* \"#utility.yul\":4534:4583   */\n      tag_90\n      jump\t// in\n    tag_182:\n        /* \"#utility.yul\":4527:4531   */\n      0x60\n        /* \"#utility.yul\":4520:4525   */\n      dup4\n        /* \"#utility.yul\":4516:4532   */\n      add\n        /* \"#utility.yul\":4509:4584   */\n      mstore\n        /* \"#utility.yul\":4443:4595   */\n      pop\n        /* \"#utility.yul\":4687:4690   */\n      0x80\n        /* \"#utility.yul\":4676:4685   */\n      dup3\n        /* \"#utility.yul\":4672:4691   */\n      add\n        /* \"#utility.yul\":4659:4692   */\n      calldataload\n        /* \"#utility.yul\":4719:4737   */\n      0xffffffffffffffff\n        /* \"#utility.yul\":4711:4717   */\n      dup2\n        /* \"#utility.yul\":4708:4738   */\n      gt\n        /* \"#utility.yul\":4705:4822   */\n      iszero\n      tag_183\n      jumpi\n        /* \"#utility.yul\":4741:4820   */\n      tag_184\n      tag_83\n      jump\t// in\n    tag_184:\n        /* \"#utility.yul\":4705:4822   */\n    tag_183:\n        /* \"#utility.yul\":4861:4919   */\n      tag_185\n        /* \"#utility.yul\":4915:4918   */\n      dup5\n        /* \"#utility.yul\":4906:4912   */\n      dup3\n        /* \"#utility.yul\":4895:4904   */\n      dup6\n        /* \"#utility.yul\":4891:4913   */\n      add\n        /* \"#utility.yul\":4861:4919   */\n      tag_96\n      jump\t// in\n    tag_185:\n        /* \"#utility.yul\":4854:4858   */\n      0x80\n        /* \"#utility.yul\":4847:4852   */\n      dup4\n        /* \"#utility.yul\":4843:4859   */\n      add\n        /* \"#utility.yul\":4836:4920   */\n      mstore\n        /* \"#utility.yul\":4605:4931   */\n      pop\n        /* \"#utility.yul\":5000:5003   */\n      0xa0\n        /* \"#utility.yul\":5042:5091   */\n      tag_186\n        /* \"#utility.yul\":5087:5090   */\n      dup5\n        /* \"#utility.yul\":5078:5084   */\n      dup3\n        /* \"#utility.yul\":5067:5076   */\n      dup6\n        /* \"#utility.yul\":5063:5085   */\n      add\n        /* \"#utility.yul\":5042:5091   */\n      tag_90\n      jump\t// in\n    tag_186:\n        /* \"#utility.yul\":5035:5039   */\n      0xa0\n        /* \"#utility.yul\":5028:5033   */\n      dup4\n        /* \"#utility.yul\":5024:5040   */\n      add\n        /* \"#utility.yul\":5017:5092   */\n      mstore\n        /* \"#utility.yul\":4941:5103   */\n      pop\n        /* \"#utility.yul\":5165:5168   */\n      0xc0\n        /* \"#utility.yul\":5207:5256   */\n      tag_187\n        /* \"#utility.yul\":5252:5255   */\n      dup5\n        /* \"#utility.yul\":5243:5249   */\n      dup3\n        /* \"#utility.yul\":5232:5241   */\n      dup6\n        /* \"#utility.yul\":5228:5250   */\n      add\n        /* \"#utility.yul\":5207:5256   */\n      tag_90\n      jump\t// in\n    tag_187:\n        /* \"#utility.yul\":5200:5204   */\n      0xc0\n        /* \"#utility.yul\":5193:5198   */\n      dup4\n        /* \"#utility.yul\":5189:5205   */\n      add\n        /* \"#utility.yul\":5182:5257   */\n      mstore\n        /* \"#utility.yul\":5113:5268   */\n      pop\n        /* \"#utility.yul\":3692:5275   */\n      swap3\n      swap2\n      pop\n      pop\n      jump\t// out\n        /* \"#utility.yul\":5281:5969   */\n    tag_9:\n        /* \"#utility.yul\":5376:5382   */\n      0x00\n        /* \"#utility.yul\":5384:5390   */\n      dup1\n        /* \"#utility.yul\":5433:5435   */\n      0x40\n        /* \"#utility.yul\":5421:5430   */\n      dup4\n        /* \"#utility.yul\":5412:5419   */\n      dup6\n        /* \"#utility.yul\":5408:5431   */\n      sub\n        /* \"#utility.yul\":5404:5436   */\n      slt\n        /* \"#utility.yul\":5401:5520   */\n      iszero\n      tag_189\n      jumpi\n        /* \"#utility.yul\":5439:5518   */\n      tag_190\n      tag_76\n      jump\t// in\n    tag_190:\n        /* \"#utility.yul\":5401:5520   */\n    tag_189:\n        /* \"#utility.yul\":5587:5588   */\n      0x00\n        /* \"#utility.yul\":5576:5585   */\n      dup4\n        /* \"#utility.yul\":5572:5589   */\n      add\n        /* \"#utility.yul\":5559:5590   */\n      calldataload\n        /* \"#utility.yul\":5617:5635   */\n      0xffffffffffffffff\n        /* \"#utility.yul\":5609:5615   */\n      dup2\n        /* \"#utility.yul\":5606:5636   */\n      gt\n        /* \"#utility.yul\":5603:5720   */\n      iszero\n      tag_191\n      jumpi\n        /* \"#utility.yul\":5639:5718   */\n      tag_192\n      tag_77\n      jump\t// in\n    tag_192:\n        /* \"#utility.yul\":5603:5720   */\n    tag_191:\n        /* \"#utility.yul\":5744:5824   */\n      tag_193\n        /* \"#utility.yul\":5816:5823   */\n      dup6\n        /* \"#utility.yul\":5807:5813   */\n      dup3\n        /* \"#utility.yul\":5796:5805   */\n      dup7\n        /* \"#utility.yul\":5792:5814   */\n      add\n        /* \"#utility.yul\":5744:5824   */\n      tag_97\n      jump\t// in\n    tag_193:\n        /* \"#utility.yul\":5734:5824   */\n      swap3\n      pop\n        /* \"#utility.yul\":5530:5834   */\n      pop\n        /* \"#utility.yul\":5873:5875   */\n      0x20\n        /* \"#utility.yul\":5899:5952   */\n      tag_194\n        /* \"#utility.yul\":5944:5951   */\n      dup6\n        /* \"#utility.yul\":5935:5941   */\n      dup3\n        /* \"#utility.yul\":5924:5933   */\n      dup7\n        /* \"#utility.yul\":5920:5942   */\n      add\n        /* \"#utility.yul\":5899:5952   */\n      tag_90\n      jump\t// in\n    tag_194:\n        /* \"#utility.yul\":5889:5952   */\n      swap2\n      pop\n        /* \"#utility.yul\":5844:5962   */\n      pop\n        /* \"#utility.yul\":5281:5969   */\n      swap3\n      pop\n      swap3\n      swap1\n      pop\n      jump\t// out\n        /* \"#utility.yul\":5975:6065   */\n    tag_98:\n        /* \"#utility.yul\":6009:6016   */\n      0x00\n        /* \"#utility.yul\":6052:6057   */\n      dup2\n        /* \"#utility.yul\":6045:6058   */\n      iszero\n        /* \"#utility.yul\":6038:6059   */\n      iszero\n        /* \"#utility.yul\":6027:6059   */\n      swap1\n      pop\n        /* \"#utility.yul\":5975:6065   */\n      swap2\n      swap1\n      pop\n      jump\t// out\n        /* \"#utility.yul\":6071:6180   */\n    tag_99:\n        /* \"#utility.yul\":6152:6173   */\n      tag_197\n        /* \"#utility.yul\":6167:6172   */\n      dup2\n        /* \"#utility.yul\":6152:6173   */\n      tag_98\n      jump\t// in\n    tag_197:\n        /* \"#utility.yul\":6147:6150   */\n      dup3\n        /* \"#utility.yul\":6140:6174   */\n      mstore\n        /* \"#utility.yul\":6071:6180   */\n      pop\n      pop\n      jump\t// out\n        /* \"#utility.yul\":6186:6396   */\n    tag_12:\n        /* \"#utility.yul\":6273:6277   */\n      0x00\n        /* \"#utility.yul\":6311:6313   */\n      0x20\n        /* \"#utility.yul\":6300:6309   */\n      dup3\n        /* \"#utility.yul\":6296:6314   */\n      add\n        /* \"#utility.yul\":6288:6314   */\n      swap1\n      pop\n        /* \"#utility.yul\":6324:6389   */\n      tag_199\n        /* \"#utility.yul\":6386:6387   */\n      0x00\n        /* \"#utility.yul\":6375:6384   */\n      dup4\n        /* \"#utility.yul\":6371:6388   */\n      add\n        /* \"#utility.yul\":6362:6368   */\n      dup5\n        /* \"#utility.yul\":6324:6389   */\n      tag_99\n      jump\t// in\n    tag_199:\n        /* \"#utility.yul\":6186:6396   */\n      swap3\n      swap2\n      pop\n      pop\n      jump\t// out\n        /* \"#utility.yul\":6402:6479   */\n    tag_100:\n        /* \"#utility.yul\":6439:6446   */\n      0x00\n        /* \"#utility.yul\":6468:6473   */\n      dup2\n        /* \"#utility.yul\":6457:6473   */\n      swap1\n      pop\n        /* \"#utility.yul\":6402:6479   */\n      swap2\n      swap1\n      pop\n      jump\t// out\n        /* \"#utility.yul\":6485:6607   */\n    tag_101:\n        /* \"#utility.yul\":6558:6582   */\n      tag_202\n        /* \"#utility.yul\":6576:6581   */\n      dup2\n        /* \"#utility.yul\":6558:6582   */\n      tag_100\n      jump\t// in\n    tag_202:\n        /* \"#utility.yul\":6551:6556   */\n      dup2\n        /* \"#utility.yul\":6548:6583   */\n      eq\n        /* \"#utility.yul\":6538:6601   */\n      tag_203\n      jumpi\n        /* \"#utility.yul\":6597:6598   */\n      0x00\n        /* \"#utility.yul\":6594:6595   */\n      dup1\n        /* \"#utility.yul\":6587:6599   */\n      revert\n        /* \"#utility.yul\":6538:6601   */\n    tag_203:\n        /* \"#utility.yul\":6485:6607   */\n      pop\n      jump\t// out\n        /* \"#utility.yul\":6613:6752   */\n    tag_102:\n        /* \"#utility.yul\":6659:6664   */\n      0x00\n        /* \"#utility.yul\":6697:6703   */\n      dup2\n        /* \"#utility.yul\":6684:6704   */\n      calldataload\n        /* \"#utility.yul\":6675:6704   */\n      swap1\n      pop\n        /* \"#utility.yul\":6713:6746   */\n      tag_205\n        /* \"#utility.yul\":6740:6745   */\n      dup2\n        /* \"#utility.yul\":6713:6746   */\n      tag_101\n      jump\t// in\n    tag_205:\n        /* \"#utility.yul\":6613:6752   */\n      swap3\n      swap2\n      pop\n      pop\n      jump\t// out\n        /* \"#utility.yul\":6758:7087   */\n    tag_15:\n        /* \"#utility.yul\":6817:6823   */\n      0x00\n        /* \"#utility.yul\":6866:6868   */\n      0x20\n        /* \"#utility.yul\":6854:6863   */\n      dup3\n        /* \"#utility.yul\":6845:6852   */\n      dup5\n        /* \"#utility.yul\":6841:6864   */\n      sub\n        /* \"#utility.yul\":6837:6869   */\n      slt\n        /* \"#utility.yul\":6834:6953   */\n      iszero\n      tag_207\n      jumpi\n        /* \"#utility.yul\":6872:6951   */\n      tag_208\n      tag_76\n      jump\t// in\n    tag_208:\n        /* \"#utility.yul\":6834:6953   */\n    tag_207:\n        /* \"#utility.yul\":6992:6993   */\n      0x00\n        /* \"#utility.yul\":7017:7070   */\n      tag_209\n        /* \"#utility.yul\":7062:7069   */\n      dup5\n        /* \"#utility.yul\":7053:7059   */\n      dup3\n        /* \"#utility.yul\":7042:7051   */\n      dup6\n        /* \"#utility.yul\":7038:7060   */\n      add\n        /* \"#utility.yul\":7017:7070   */\n      tag_102\n      jump\t// in\n    tag_209:\n        /* \"#utility.yul\":7007:7070   */\n      swap2\n      pop\n        /* \"#utility.yul\":6963:7080   */\n      pop\n        /* \"#utility.yul\":6758:7087   */\n      swap3\n      swap2\n      pop\n      pop\n      jump\t// out\n        /* \"#utility.yul\":7093:7636   */\n    tag_20:\n        /* \"#utility.yul\":7179:7185   */\n      0x00\n        /* \"#utility.yul\":7228:7230   */\n      0x20\n        /* \"#utility.yul\":7216:7225   */\n      dup3\n        /* \"#utility.yul\":7207:7214   */\n      dup5\n        /* \"#utility.yul\":7203:7226   */\n      sub\n        /* \"#utility.yul\":7199:7231   */\n      slt\n        /* \"#utility.yul\":7196:7315   */\n      iszero\n      tag_211\n      jumpi\n        /* \"#utility.yul\":7234:7313   */\n      tag_212\n      tag_76\n      jump\t// in\n    tag_212:\n        /* \"#utility.yul\":7196:7315   */\n    tag_211:\n        /* \"#utility.yul\":7382:7383   */\n      0x00\n        /* \"#utility.yul\":7371:7380   */\n      dup3\n        /* \"#utility.yul\":7367:7384   */\n      add\n        /* \"#utility.yul\":7354:7385   */\n      calldataload\n        /* \"#utility.yul\":7412:7430   */\n      0xffffffffffffffff\n        /* \"#utility.yul\":7404:7410   */\n      dup2\n        /* \"#utility.yul\":7401:7431   */\n      gt\n        /* \"#utility.yul\":7398:7515   */\n      iszero\n      tag_213\n      jumpi\n        /* \"#utility.yul\":7434:7513   */\n      tag_214\n      tag_77\n      jump\t// in\n    tag_214:\n        /* \"#utility.yul\":7398:7515   */\n    tag_213:\n        /* \"#utility.yul\":7539:7619   */\n      tag_215\n        /* \"#utility.yul\":7611:7618   */\n      dup5\n        /* \"#utility.yul\":7602:7608   */\n      dup3\n        /* \"#utility.yul\":7591:7600   */\n      dup6\n        /* \"#utility.yul\":7587:7609   */\n      add\n        /* \"#utility.yul\":7539:7619   */\n      tag_97\n      jump\t// in\n    tag_215:\n        /* \"#utility.yul\":7529:7619   */\n      swap2\n      pop\n        /* \"#utility.yul\":7325:7629   */\n      pop\n        /* \"#utility.yul\":7093:7636   */\n      swap3\n      swap2\n      pop\n      pop\n      jump\t// out\n        /* \"#utility.yul\":7642:7736   */\n    tag_103:\n        /* \"#utility.yul\":7675:7683   */\n      0x00\n        /* \"#utility.yul\":7723:7728   */\n      dup2\n        /* \"#utility.yul\":7719:7721   */\n      0x60\n        /* \"#utility.yul\":7715:7729   */\n      shl\n        /* \"#utility.yul\":7694:7729   */\n      swap1\n      pop\n        /* \"#utility.yul\":7642:7736   */\n      swap2\n      swap1\n      pop\n      jump\t// out\n        /* \"#utility.yul\":7742:7836   */\n    tag_104:\n        /* \"#utility.yul\":7781:7788   */\n      0x00\n        /* \"#utility.yul\":7810:7830   */\n      tag_218\n        /* \"#utility.yul\":7824:7829   */\n      dup3\n        /* \"#utility.yul\":7810:7830   */\n      tag_103\n      jump\t// in\n    tag_218:\n        /* \"#utility.yul\":7799:7830   */\n      swap1\n      pop\n        /* \"#utility.yul\":7742:7836   */\n      swap2\n      swap1\n      pop\n      jump\t// out\n        /* \"#utility.yul\":7842:7942   */\n    tag_105:\n        /* \"#utility.yul\":7881:7888   */\n      0x00\n        /* \"#utility.yul\":7910:7936   */\n      tag_220\n        /* \"#utility.yul\":7930:7935   */\n      dup3\n        /* \"#utility.yul\":7910:7936   */\n      tag_104\n      jump\t// in\n    tag_220:\n        /* \"#utility.yul\":7899:7936   */\n      swap1\n      pop\n        /* \"#utility.yul\":7842:7942   */\n      swap2\n      swap1\n      pop\n      jump\t// out\n        /* \"#utility.yul\":7948:8105   */\n    tag_106:\n        /* \"#utility.yul\":8053:8098   */\n      tag_222\n        /* \"#utility.yul\":8073:8097   */\n      tag_223\n        /* \"#utility.yul\":8091:8096   */\n      dup3\n        /* \"#utility.yul\":8073:8097   */\n      tag_85\n      jump\t// in\n    tag_223:\n        /* \"#utility.yul\":8053:8098   */\n      tag_105\n      jump\t// in\n    tag_222:\n        /* \"#utility.yul\":8048:8051   */\n      dup3\n        /* \"#utility.yul\":8041:8099   */\n      mstore\n        /* \"#utility.yul\":7948:8105   */\n      pop\n      pop\n      jump\t// out\n        /* \"#utility.yul\":8111:8190   */\n    tag_107:\n        /* \"#utility.yul\":8150:8157   */\n      0x00\n        /* \"#utility.yul\":8179:8184   */\n      dup2\n        /* \"#utility.yul\":8168:8184   */\n      swap1\n      pop\n        /* \"#utility.yul\":8111:8190   */\n      swap2\n      swap1\n      pop\n      jump\t// out\n        /* \"#utility.yul\":8196:8353   */\n    tag_108:\n        /* \"#utility.yul\":8301:8346   */\n      tag_226\n        /* \"#utility.yul\":8321:8345   */\n      tag_227\n        /* \"#utility.yul\":8339:8344   */\n      dup3\n        /* \"#utility.yul\":8321:8345   */\n      tag_88\n      jump\t// in\n    tag_227:\n        /* \"#utility.yul\":8301:8346   */\n      tag_107\n      jump\t// in\n    tag_226:\n        /* \"#utility.yul\":8296:8299   */\n      dup3\n        /* \"#utility.yul\":8289:8347   */\n      mstore\n        /* \"#utility.yul\":8196:8353   */\n      pop\n      pop\n      jump\t// out\n        /* \"#utility.yul\":8359:8457   */\n    tag_109:\n        /* \"#utility.yul\":8410:8416   */\n      0x00\n        /* \"#utility.yul\":8444:8449   */\n      dup2\n        /* \"#utility.yul\":8438:8450   */\n      mload\n        /* \"#utility.yul\":8428:8450   */\n      swap1\n      pop\n        /* \"#utility.yul\":8359:8457   */\n      swap2\n      swap1\n      pop\n      jump\t// out\n        /* \"#utility.yul\":8463:8610   */\n    tag_110:\n        /* \"#utility.yul\":8564:8575   */\n      0x00\n        /* \"#utility.yul\":8601:8604   */\n      dup2\n        /* \"#utility.yul\":8586:8604   */\n      swap1\n      pop\n        /* \"#utility.yul\":8463:8610   */\n      swap3\n      swap2\n      pop\n      pop\n      jump\t// out\n        /* \"#utility.yul\":8616:8862   */\n    tag_111:\n        /* \"#utility.yul\":8697:8698   */\n      0x00\n        /* \"#utility.yul\":8707:8820   */\n    tag_231:\n        /* \"#utility.yul\":8721:8727   */\n      dup4\n        /* \"#utility.yul\":8718:8719   */\n      dup2\n        /* \"#utility.yul\":8715:8728   */\n      lt\n        /* \"#utility.yul\":8707:8820   */\n      iszero\n      tag_233\n      jumpi\n        /* \"#utility.yul\":8806:8807   */\n      dup1\n        /* \"#utility.yul\":8801:8804   */\n      dup3\n        /* \"#utility.yul\":8797:8808   */\n      add\n        /* \"#utility.yul\":8791:8809   */\n      mload\n        /* \"#utility.yul\":8787:8788   */\n      dup2\n        /* \"#utility.yul\":8782:8785   */\n      dup5\n        /* \"#utility.yul\":8778:8789   */\n      add\n        /* \"#utility.yul\":8771:8810   */\n      mstore\n        /* \"#utility.yul\":8743:8745   */\n      0x20\n        /* \"#utility.yul\":8740:8741   */\n      dup2\n        /* \"#utility.yul\":8736:8746   */\n      add\n        /* \"#utility.yul\":8731:8746   */\n      swap1\n      pop\n        /* \"#utility.yul\":8707:8820   */\n      jump(tag_231)\n    tag_233:\n        /* \"#utility.yul\":8854:8855   */\n      0x00\n        /* \"#utility.yul\":8845:8851   */\n      dup5\n        /* \"#utility.yul\":8840:8843   */\n      dup5\n        /* \"#utility.yul\":8836:8852   */\n      add\n        /* \"#utility.yul\":8829:8856   */\n      mstore\n        /* \"#utility.yul\":8678:8862   */\n      pop\n        /* \"#utility.yul\":8616:8862   */\n      pop\n      pop\n      pop\n      jump\t// out\n        /* \"#utility.yul\":8868:9254   */\n    tag_112:\n        /* \"#utility.yul\":8972:8975   */\n      0x00\n        /* \"#utility.yul\":9000:9038   */\n      tag_235\n        /* \"#utility.yul\":9032:9037   */\n      dup3\n        /* \"#utility.yul\":9000:9038   */\n      tag_109\n      jump\t// in\n    tag_235:\n        /* \"#utility.yul\":9054:9142   */\n      tag_236\n        /* \"#utility.yul\":9135:9141   */\n      dup2\n        /* \"#utility.yul\":9130:9133   */\n      dup6\n        /* \"#utility.yul\":9054:9142   */\n      tag_110\n      jump\t// in\n    tag_236:\n        /* \"#utility.yul\":9047:9142   */\n      swap4\n      pop\n        /* \"#utility.yul\":9151:9216   */\n      tag_237\n        /* \"#utility.yul\":9209:9215   */\n      dup2\n        /* \"#utility.yul\":9204:9207   */\n      dup6\n        /* \"#utility.yul\":9197:9201   */\n      0x20\n        /* \"#utility.yul\":9190:9195   */\n      dup7\n        /* \"#utility.yul\":9186:9202   */\n      add\n        /* \"#utility.yul\":9151:9216   */\n      tag_111\n      jump\t// in\n    tag_237:\n        /* \"#utility.yul\":9241:9247   */\n      dup1\n        /* \"#utility.yul\":9236:9239   */\n      dup5\n        /* \"#utility.yul\":9232:9248   */\n      add\n        /* \"#utility.yul\":9225:9248   */\n      swap2\n      pop\n        /* \"#utility.yul\":8976:9254   */\n      pop\n        /* \"#utility.yul\":8868:9254   */\n      swap3\n      swap2\n      pop\n      pop\n      jump\t// out\n        /* \"#utility.yul\":9260:10095   */\n    tag_28:\n        /* \"#utility.yul\":9502:9505   */\n      0x00\n        /* \"#utility.yul\":9517:9592   */\n      tag_239\n        /* \"#utility.yul\":9588:9591   */\n      dup3\n        /* \"#utility.yul\":9579:9585   */\n      dup9\n        /* \"#utility.yul\":9517:9592   */\n      tag_106\n      jump\t// in\n    tag_239:\n        /* \"#utility.yul\":9617:9619   */\n      0x14\n        /* \"#utility.yul\":9612:9615   */\n      dup3\n        /* \"#utility.yul\":9608:9620   */\n      add\n        /* \"#utility.yul\":9601:9620   */\n      swap2\n      pop\n        /* \"#utility.yul\":9630:9705   */\n      tag_240\n        /* \"#utility.yul\":9701:9704   */\n      dup3\n        /* \"#utility.yul\":9692:9698   */\n      dup8\n        /* \"#utility.yul\":9630:9705   */\n      tag_108\n      jump\t// in\n    tag_240:\n        /* \"#utility.yul\":9730:9732   */\n      0x20\n        /* \"#utility.yul\":9725:9728   */\n      dup3\n        /* \"#utility.yul\":9721:9733   */\n      add\n        /* \"#utility.yul\":9714:9733   */\n      swap2\n      pop\n        /* \"#utility.yul\":9743:9818   */\n      tag_241\n        /* \"#utility.yul\":9814:9817   */\n      dup3\n        /* \"#utility.yul\":9805:9811   */\n      dup7\n        /* \"#utility.yul\":9743:9818   */\n      tag_108\n      jump\t// in\n    tag_241:\n        /* \"#utility.yul\":9843:9845   */\n      0x20\n        /* \"#utility.yul\":9838:9841   */\n      dup3\n        /* \"#utility.yul\":9834:9846   */\n      add\n        /* \"#utility.yul\":9827:9846   */\n      swap2\n      pop\n        /* \"#utility.yul\":9856:9931   */\n      tag_242\n        /* \"#utility.yul\":9927:9930   */\n      dup3\n        /* \"#utility.yul\":9918:9924   */\n      dup6\n        /* \"#utility.yul\":9856:9931   */\n      tag_108\n      jump\t// in\n    tag_242:\n        /* \"#utility.yul\":9956:9958   */\n      0x20\n        /* \"#utility.yul\":9951:9954   */\n      dup3\n        /* \"#utility.yul\":9947:9959   */\n      add\n        /* \"#utility.yul\":9940:9959   */\n      swap2\n      pop\n        /* \"#utility.yul\":9976:10069   */\n      tag_243\n        /* \"#utility.yul\":10065:10068   */\n      dup3\n        /* \"#utility.yul\":10056:10062   */\n      dup5\n        /* \"#utility.yul\":9976:10069   */\n      tag_112\n      jump\t// in\n    tag_243:\n        /* \"#utility.yul\":9969:10069   */\n      swap2\n      pop\n        /* \"#utility.yul\":10086:10089   */\n      dup2\n        /* \"#utility.yul\":10079:10089   */\n      swap1\n      pop\n        /* \"#utility.yul\":9260:10095   */\n      swap7\n      swap6\n      pop\n      pop\n      pop\n      pop\n      pop\n      pop\n      jump\t// out\n        /* \"#utility.yul\":10101:10270   */\n    tag_113:\n        /* \"#utility.yul\":10185:10196   */\n      0x00\n        /* \"#utility.yul\":10219:10225   */\n      dup3\n        /* \"#utility.yul\":10214:10217   */\n      dup3\n        /* \"#utility.yul\":10207:10226   */\n      mstore\n        /* \"#utility.yul\":10259:10263   */\n      0x20\n        /* \"#utility.yul\":10254:10257   */\n      dup3\n        /* \"#utility.yul\":10250:10264   */\n      add\n        /* \"#utility.yul\":10235:10264   */\n      swap1\n      pop\n        /* \"#utility.yul\":10101:10270   */\n      swap3\n      swap2\n      pop\n      pop\n      jump\t// out\n        /* \"#utility.yul\":10276:10445   */\n    tag_114:\n        /* \"#utility.yul\":10416:10437   */\n      0x4f7264657220686173206265656e207573656400000000000000000000000000\n        /* \"#utility.yul\":10412:10413   */\n      0x00\n        /* \"#utility.yul\":10404:10410   */\n      dup3\n        /* \"#utility.yul\":10400:10414   */\n      add\n        /* \"#utility.yul\":10393:10438   */\n      mstore\n        /* \"#utility.yul\":10276:10445   */\n      pop\n      jump\t// out\n        /* \"#utility.yul\":10451:10817   */\n    tag_115:\n        /* \"#utility.yul\":10593:10596   */\n      0x00\n        /* \"#utility.yul\":10614:10681   */\n      tag_247\n        /* \"#utility.yul\":10678:10680   */\n      0x13\n        /* \"#utility.yul\":10673:10676   */\n      dup4\n        /* \"#utility.yul\":10614:10681   */\n      tag_113\n      jump\t// in\n    tag_247:\n        /* \"#utility.yul\":10607:10681   */\n      swap2\n      pop\n        /* \"#utility.yul\":10690:10783   */\n      tag_248\n        /* \"#utility.yul\":10779:10782   */\n      dup3\n        /* \"#utility.yul\":10690:10783   */\n      tag_114\n      jump\t// in\n    tag_248:\n        /* \"#utility.yul\":10808:10810   */\n      0x20\n        /* \"#utility.yul\":10803:10806   */\n      dup3\n        /* \"#utility.yul\":10799:10811   */\n      add\n        /* \"#utility.yul\":10792:10811   */\n      swap1\n      pop\n        /* \"#utility.yul\":10451:10817   */\n      swap2\n      swap1\n      pop\n      jump\t// out\n        /* \"#utility.yul\":10823:11242   */\n    tag_34:\n        /* \"#utility.yul\":10989:10993   */\n      0x00\n        /* \"#utility.yul\":11027:11029   */\n      0x20\n        /* \"#utility.yul\":11016:11025   */\n      dup3\n        /* \"#utility.yul\":11012:11030   */\n      add\n        /* \"#utility.yul\":11004:11030   */\n      swap1\n      pop\n        /* \"#utility.yul\":11076:11085   */\n      dup2\n        /* \"#utility.yul\":11070:11074   */\n      dup2\n        /* \"#utility.yul\":11066:11086   */\n      sub\n        /* \"#utility.yul\":11062:11063   */\n      0x00\n        /* \"#utility.yul\":11051:11060   */\n      dup4\n        /* \"#utility.yul\":11047:11064   */\n      add\n        /* \"#utility.yul\":11040:11087   */\n      mstore\n        /* \"#utility.yul\":11104:11235   */\n      tag_250\n        /* \"#utility.yul\":11230:11234   */\n      dup2\n        /* \"#utility.yul\":11104:11235   */\n      tag_115\n      jump\t// in\n    tag_250:\n        /* \"#utility.yul\":11096:11235   */\n      swap1\n      pop\n        /* \"#utility.yul\":10823:11242   */\n      swap2\n      swap1\n      pop\n      jump\t// out\n        /* \"#utility.yul\":11248:11415   */\n    tag_116:\n        /* \"#utility.yul\":11388:11407   */\n      0x496e76616c6964207369676e6174757265000000000000000000000000000000\n        /* \"#utility.yul\":11384:11385   */\n      0x00\n        /* \"#utility.yul\":11376:11382   */\n      dup3\n        /* \"#utility.yul\":11372:11386   */\n      add\n        /* \"#utility.yul\":11365:11408   */\n      mstore\n        /* \"#utility.yul\":11248:11415   */\n      pop\n      jump\t// out\n        /* \"#utility.yul\":11421:11787   */\n    tag_117:\n        /* \"#utility.yul\":11563:11566   */\n      0x00\n        /* \"#utility.yul\":11584:11651   */\n      tag_253\n        /* \"#utility.yul\":11648:11650   */\n      0x11\n        /* \"#utility.yul\":11643:11646   */\n      dup4\n        /* \"#utility.yul\":11584:11651   */\n      tag_113\n      jump\t// in\n    tag_253:\n        /* \"#utility.yul\":11577:11651   */\n      swap2\n      pop\n        /* \"#utility.yul\":11660:11753   */\n      tag_254\n        /* \"#utility.yul\":11749:11752   */\n      dup3\n        /* \"#utility.yul\":11660:11753   */\n      tag_116\n      jump\t// in\n    tag_254:\n        /* \"#utility.yul\":11778:11780   */\n      0x20\n        /* \"#utility.yul\":11773:11776   */\n      dup3\n        /* \"#utility.yul\":11769:11781   */\n      add\n        /* \"#utility.yul\":11762:11781   */\n      swap1\n      pop\n        /* \"#utility.yul\":11421:11787   */\n      swap2\n      swap1\n      pop\n      jump\t// out\n        /* \"#utility.yul\":11793:12212   */\n    tag_39:\n        /* \"#utility.yul\":11959:11963   */\n      0x00\n        /* \"#utility.yul\":11997:11999   */\n      0x20\n        /* \"#utility.yul\":11986:11995   */\n      dup3\n        /* \"#utility.yul\":11982:12000   */\n      add\n        /* \"#utility.yul\":11974:12000   */\n      swap1\n      pop\n        /* \"#utility.yul\":12046:12055   */\n      dup2\n        /* \"#utility.yul\":12040:12044   */\n      dup2\n        /* \"#utility.yul\":12036:12056   */\n      sub\n        /* \"#utility.yul\":12032:12033   */\n      0x00\n        /* \"#utility.yul\":12021:12030   */\n      dup4\n        /* \"#utility.yul\":12017:12034   */\n      add\n        /* \"#utility.yul\":12010:12057   */\n      mstore\n        /* \"#utility.yul\":12074:12205   */\n      tag_256\n        /* \"#utility.yul\":12200:12204   */\n      dup2\n        /* \"#utility.yul\":12074:12205   */\n      tag_117\n      jump\t// in\n    tag_256:\n        /* \"#utility.yul\":12066:12205   */\n      swap1\n      pop\n        /* \"#utility.yul\":11793:12212   */\n      swap2\n      swap1\n      pop\n      jump\t// out\n        /* \"#utility.yul\":12218:12336   */\n    tag_118:\n        /* \"#utility.yul\":12305:12329   */\n      tag_258\n        /* \"#utility.yul\":12323:12328   */\n      dup2\n        /* \"#utility.yul\":12305:12329   */\n      tag_85\n      jump\t// in\n    tag_258:\n        /* \"#utility.yul\":12300:12303   */\n      dup3\n        /* \"#utility.yul\":12293:12330   */\n      mstore\n        /* \"#utility.yul\":12218:12336   */\n      pop\n      pop\n      jump\t// out\n        /* \"#utility.yul\":12342:12460   */\n    tag_119:\n        /* \"#utility.yul\":12429:12453   */\n      tag_260\n        /* \"#utility.yul\":12447:12452   */\n      dup2\n        /* \"#utility.yul\":12429:12453   */\n      tag_88\n      jump\t// in\n    tag_260:\n        /* \"#utility.yul\":12424:12427   */\n      dup3\n        /* \"#utility.yul\":12417:12454   */\n      mstore\n        /* \"#utility.yul\":12342:12460   */\n      pop\n      pop\n      jump\t// out\n        /* \"#utility.yul\":12466:12908   */\n    tag_42:\n        /* \"#utility.yul\":12615:12619   */\n      0x00\n        /* \"#utility.yul\":12653:12655   */\n      0x60\n        /* \"#utility.yul\":12642:12651   */\n      dup3\n        /* \"#utility.yul\":12638:12656   */\n      add\n        /* \"#utility.yul\":12630:12656   */\n      swap1\n      pop\n        /* \"#utility.yul\":12666:12737   */\n      tag_262\n        /* \"#utility.yul\":12734:12735   */\n      0x00\n        /* \"#utility.yul\":12723:12732   */\n      dup4\n        /* \"#utility.yul\":12719:12736   */\n      add\n        /* \"#utility.yul\":12710:12716   */\n      dup7\n        /* \"#utility.yul\":12666:12737   */\n      tag_118\n      jump\t// in\n    tag_262:\n        /* \"#utility.yul\":12747:12819   */\n      tag_263\n        /* \"#utility.yul\":12815:12817   */\n      0x20\n        /* \"#utility.yul\":12804:12813   */\n      dup4\n        /* \"#utility.yul\":12800:12818   */\n      add\n        /* \"#utility.yul\":12791:12797   */\n      dup6\n        /* \"#utility.yul\":12747:12819   */\n      tag_118\n      jump\t// in\n    tag_263:\n        /* \"#utility.yul\":12829:12901   */\n      tag_264\n        /* \"#utility.yul\":12897:12899   */\n      0x40\n        /* \"#utility.yul\":12886:12895   */\n      dup4\n        /* \"#utility.yul\":12882:12900   */\n      add\n        /* \"#utility.yul\":12873:12879   */\n      dup5\n        /* \"#utility.yul\":12829:12901   */\n      tag_119\n      jump\t// in\n    tag_264:\n        /* \"#utility.yul\":12466:12908   */\n      swap5\n      swap4\n      pop\n      pop\n      pop\n      pop\n      jump\t// out\n        /* \"#utility.yul\":12914:13593   */\n    tag_62:\n        /* \"#utility.yul\":13110:13113   */\n      0x00\n        /* \"#utility.yul\":13125:13200   */\n      tag_266\n        /* \"#utility.yul\":13196:13199   */\n      dup3\n        /* \"#utility.yul\":13187:13193   */\n      dup8\n        /* \"#utility.yul\":13125:13200   */\n      tag_106\n      jump\t// in\n    tag_266:\n        /* \"#utility.yul\":13225:13227   */\n      0x14\n        /* \"#utility.yul\":13220:13223   */\n      dup3\n        /* \"#utility.yul\":13216:13228   */\n      add\n        /* \"#utility.yul\":13209:13228   */\n      swap2\n      pop\n        /* \"#utility.yul\":13238:13313   */\n      tag_267\n        /* \"#utility.yul\":13309:13312   */\n      dup3\n        /* \"#utility.yul\":13300:13306   */\n      dup7\n        /* \"#utility.yul\":13238:13313   */\n      tag_108\n      jump\t// in\n    tag_267:\n        /* \"#utility.yul\":13338:13340   */\n      0x20\n        /* \"#utility.yul\":13333:13336   */\n      dup3\n        /* \"#utility.yul\":13329:13341   */\n      add\n        /* \"#utility.yul\":13322:13341   */\n      swap2\n      pop\n        /* \"#utility.yul\":13351:13426   */\n      tag_268\n        /* \"#utility.yul\":13422:13425   */\n      dup3\n        /* \"#utility.yul\":13413:13419   */\n      dup6\n        /* \"#utility.yul\":13351:13426   */\n      tag_108\n      jump\t// in\n    tag_268:\n        /* \"#utility.yul\":13451:13453   */\n      0x20\n        /* \"#utility.yul\":13446:13449   */\n      dup3\n        /* \"#utility.yul\":13442:13454   */\n      add\n        /* \"#utility.yul\":13435:13454   */\n      swap2\n      pop\n        /* \"#utility.yul\":13464:13539   */\n      tag_269\n        /* \"#utility.yul\":13535:13538   */\n      dup3\n        /* \"#utility.yul\":13526:13532   */\n      dup5\n        /* \"#utility.yul\":13464:13539   */\n      tag_108\n      jump\t// in\n    tag_269:\n        /* \"#utility.yul\":13564:13566   */\n      0x20\n        /* \"#utility.yul\":13559:13562   */\n      dup3\n        /* \"#utility.yul\":13555:13567   */\n      add\n        /* \"#utility.yul\":13548:13567   */\n      swap2\n      pop\n        /* \"#utility.yul\":13584:13587   */\n      dup2\n        /* \"#utility.yul\":13577:13587   */\n      swap1\n      pop\n        /* \"#utility.yul\":12914:13593   */\n      swap6\n      swap5\n      pop\n      pop\n      pop\n      pop\n      pop\n      jump\t// out\n        /* \"#utility.yul\":13599:13747   */\n    tag_120:\n        /* \"#utility.yul\":13701:13712   */\n      0x00\n        /* \"#utility.yul\":13738:13741   */\n      dup2\n        /* \"#utility.yul\":13723:13741   */\n      swap1\n      pop\n        /* \"#utility.yul\":13599:13747   */\n      swap3\n      swap2\n      pop\n      pop\n      jump\t// out\n        /* \"#utility.yul\":13753:13967   */\n    tag_121:\n        /* \"#utility.yul\":13893:13959   */\n      0x19457468657265756d205369676e6564204d6573736167653a0a333200000000\n        /* \"#utility.yul\":13889:13890   */\n      0x00\n        /* \"#utility.yul\":13881:13887   */\n      dup3\n        /* \"#utility.yul\":13877:13891   */\n      add\n        /* \"#utility.yul\":13870:13960   */\n      mstore\n        /* \"#utility.yul\":13753:13967   */\n      pop\n      jump\t// out\n        /* \"#utility.yul\":13973:14375   */\n    tag_122:\n        /* \"#utility.yul\":14133:14136   */\n      0x00\n        /* \"#utility.yul\":14154:14239   */\n      tag_273\n        /* \"#utility.yul\":14236:14238   */\n      0x1c\n        /* \"#utility.yul\":14231:14234   */\n      dup4\n        /* \"#utility.yul\":14154:14239   */\n      tag_120\n      jump\t// in\n    tag_273:\n        /* \"#utility.yul\":14147:14239   */\n      swap2\n      pop\n        /* \"#utility.yul\":14248:14341   */\n      tag_274\n        /* \"#utility.yul\":14337:14340   */\n      dup3\n        /* \"#utility.yul\":14248:14341   */\n      tag_121\n      jump\t// in\n    tag_274:\n        /* \"#utility.yul\":14366:14368   */\n      0x1c\n        /* \"#utility.yul\":14361:14364   */\n      dup3\n        /* \"#utility.yul\":14357:14369   */\n      add\n        /* \"#utility.yul\":14350:14369   */\n      swap1\n      pop\n        /* \"#utility.yul\":13973:14375   */\n      swap2\n      swap1\n      pop\n      jump\t// out\n        /* \"#utility.yul\":14381:14460   */\n    tag_123:\n        /* \"#utility.yul\":14420:14427   */\n      0x00\n        /* \"#utility.yul\":14449:14454   */\n      dup2\n        /* \"#utility.yul\":14438:14454   */\n      swap1\n      pop\n        /* \"#utility.yul\":14381:14460   */\n      swap2\n      swap1\n      pop\n      jump\t// out\n        /* \"#utility.yul\":14466:14623   */\n    tag_124:\n        /* \"#utility.yul\":14571:14616   */\n      tag_277\n        /* \"#utility.yul\":14591:14615   */\n      tag_278\n        /* \"#utility.yul\":14609:14614   */\n      dup3\n        /* \"#utility.yul\":14591:14615   */\n      tag_100\n      jump\t// in\n    tag_278:\n        /* \"#utility.yul\":14571:14616   */\n      tag_123\n      jump\t// in\n    tag_277:\n        /* \"#utility.yul\":14566:14569   */\n      dup3\n        /* \"#utility.yul\":14559:14617   */\n      mstore\n        /* \"#utility.yul\":14466:14623   */\n      pop\n      pop\n      jump\t// out\n        /* \"#utility.yul\":14629:15151   */\n    tag_64:\n        /* \"#utility.yul\":14842:14845   */\n      0x00\n        /* \"#utility.yul\":14864:15012   */\n      tag_280\n        /* \"#utility.yul\":15008:15011   */\n      dup3\n        /* \"#utility.yul\":14864:15012   */\n      tag_122\n      jump\t// in\n    tag_280:\n        /* \"#utility.yul\":14857:15012   */\n      swap2\n      pop\n        /* \"#utility.yul\":15022:15097   */\n      tag_281\n        /* \"#utility.yul\":15093:15096   */\n      dup3\n        /* \"#utility.yul\":15084:15090   */\n      dup5\n        /* \"#utility.yul\":15022:15097   */\n      tag_124\n      jump\t// in\n    tag_281:\n        /* \"#utility.yul\":15122:15124   */\n      0x20\n        /* \"#utility.yul\":15117:15120   */\n      dup3\n        /* \"#utility.yul\":15113:15125   */\n      add\n        /* \"#utility.yul\":15106:15125   */\n      swap2\n      pop\n        /* \"#utility.yul\":15142:15145   */\n      dup2\n        /* \"#utility.yul\":15135:15145   */\n      swap1\n      pop\n        /* \"#utility.yul\":14629:15151   */\n      swap3\n      swap2\n      pop\n      pop\n      jump\t// out\n        /* \"#utility.yul\":15157:15243   */\n    tag_125:\n        /* \"#utility.yul\":15192:15199   */\n      0x00\n        /* \"#utility.yul\":15232:15236   */\n      0xff\n        /* \"#utility.yul\":15225:15230   */\n      dup3\n        /* \"#utility.yul\":15221:15237   */\n      and\n        /* \"#utility.yul\":15210:15237   */\n      swap1\n      pop\n        /* \"#utility.yul\":15157:15243   */\n      swap2\n      swap1\n      pop\n      jump\t// out\n        /* \"#utility.yul\":15249:15429   */\n    tag_126:\n        /* \"#utility.yul\":15297:15374   */\n      0x4e487b7100000000000000000000000000000000000000000000000000000000\n        /* \"#utility.yul\":15294:15295   */\n      0x00\n        /* \"#utility.yul\":15287:15375   */\n      mstore\n        /* \"#utility.yul\":15394:15398   */\n      0x11\n        /* \"#utility.yul\":15391:15392   */\n      0x04\n        /* \"#utility.yul\":15384:15399   */\n      mstore\n        /* \"#utility.yul\":15418:15422   */\n      0x24\n        /* \"#utility.yul\":15415:15416   */\n      0x00\n        /* \"#utility.yul\":15408:15423   */\n      revert\n        /* \"#utility.yul\":15435:15623   */\n    tag_70:\n        /* \"#utility.yul\":15473:15476   */\n      0x00\n        /* \"#utility.yul\":15492:15510   */\n      tag_285\n        /* \"#utility.yul\":15508:15509   */\n      dup3\n        /* \"#utility.yul\":15492:15510   */\n      tag_125\n      jump\t// in\n    tag_285:\n        /* \"#utility.yul\":15487:15510   */\n      swap2\n      pop\n        /* \"#utility.yul\":15524:15542   */\n      tag_286\n        /* \"#utility.yul\":15540:15541   */\n      dup4\n        /* \"#utility.yul\":15524:15542   */\n      tag_125\n      jump\t// in\n    tag_286:\n        /* \"#utility.yul\":15519:15542   */\n      swap3\n      pop\n        /* \"#utility.yul\":15565:15566   */\n      dup3\n        /* \"#utility.yul\":15562:15563   */\n      dup3\n        /* \"#utility.yul\":15558:15567   */\n      add\n        /* \"#utility.yul\":15551:15567   */\n      swap1\n      pop\n        /* \"#utility.yul\":15588:15592   */\n      0xff\n        /* \"#utility.yul\":15583:15586   */\n      dup2\n        /* \"#utility.yul\":15580:15593   */\n      gt\n        /* \"#utility.yul\":15577:15616   */\n      iszero\n      tag_287\n      jumpi\n        /* \"#utility.yul\":15596:15614   */\n      tag_288\n      tag_126\n      jump\t// in\n    tag_288:\n        /* \"#utility.yul\":15577:15616   */\n    tag_287:\n        /* \"#utility.yul\":15435:15623   */\n      swap3\n      swap2\n      pop\n      pop\n      jump\t// out\n        /* \"#utility.yul\":15629:15747   */\n    tag_127:\n        /* \"#utility.yul\":15716:15740   */\n      tag_290\n        /* \"#utility.yul\":15734:15739   */\n      dup2\n        /* \"#utility.yul\":15716:15740   */\n      tag_100\n      jump\t// in\n    tag_290:\n        /* \"#utility.yul\":15711:15714   */\n      dup3\n        /* \"#utility.yul\":15704:15741   */\n      mstore\n        /* \"#utility.yul\":15629:15747   */\n      pop\n      pop\n      jump\t// out\n        /* \"#utility.yul\":15753:15865   */\n    tag_128:\n        /* \"#utility.yul\":15836:15858   */\n      tag_292\n        /* \"#utility.yul\":15852:15857   */\n      dup2\n        /* \"#utility.yul\":15836:15858   */\n      tag_125\n      jump\t// in\n    tag_292:\n        /* \"#utility.yul\":15831:15834   */\n      dup3\n        /* \"#utility.yul\":15824:15859   */\n      mstore\n        /* \"#utility.yul\":15753:15865   */\n      pop\n      pop\n      jump\t// out\n        /* \"#utility.yul\":15871:16416   */\n    tag_72:\n        /* \"#utility.yul\":16044:16048   */\n      0x00\n        /* \"#utility.yul\":16082:16085   */\n      0x80\n        /* \"#utility.yul\":16071:16080   */\n      dup3\n        /* \"#utility.yul\":16067:16086   */\n      add\n        /* \"#utility.yul\":16059:16086   */\n      swap1\n      pop\n        /* \"#utility.yul\":16096:16167   */\n      tag_294\n        /* \"#utility.yul\":16164:16165   */\n      0x00\n        /* \"#utility.yul\":16153:16162   */\n      dup4\n        /* \"#utility.yul\":16149:16166   */\n      add\n        /* \"#utility.yul\":16140:16146   */\n      dup8\n        /* \"#utility.yul\":16096:16167   */\n      tag_127\n      jump\t// in\n    tag_294:\n        /* \"#utility.yul\":16177:16245   */\n      tag_295\n        /* \"#utility.yul\":16241:16243   */\n      0x20\n        /* \"#utility.yul\":16230:16239   */\n      dup4\n        /* \"#utility.yul\":16226:16244   */\n      add\n        /* \"#utility.yul\":16217:16223   */\n      dup7\n        /* \"#utility.yul\":16177:16245   */\n      tag_128\n      jump\t// in\n    tag_295:\n        /* \"#utility.yul\":16255:16327   */\n      tag_296\n        /* \"#utility.yul\":16323:16325   */\n      0x40\n        /* \"#utility.yul\":16312:16321   */\n      dup4\n        /* \"#utility.yul\":16308:16326   */\n      add\n        /* \"#utility.yul\":16299:16305   */\n      dup6\n        /* \"#utility.yul\":16255:16327   */\n      tag_127\n      jump\t// in\n    tag_296:\n        /* \"#utility.yul\":16337:16409   */\n      tag_297\n        /* \"#utility.yul\":16405:16407   */\n      0x60\n        /* \"#utility.yul\":16394:16403   */\n      dup4\n        /* \"#utility.yul\":16390:16408   */\n      add\n        /* \"#utility.yul\":16381:16387   */\n      dup5\n        /* \"#utility.yul\":16337:16409   */\n      tag_127\n      jump\t// in\n    tag_297:\n        /* \"#utility.yul\":15871:16416   */\n      swap6\n      swap5\n      pop\n      pop\n      pop\n      pop\n      pop\n      jump\t// out\n\n    auxdata: 0xa2646970667358221220261e60164feed93a4824982c82c9cbbbf96fd045e99baca432b1e2e14ab55e1164736f6c63430008120033\n}\n",
				"bytecode": {
					"linkReferences": {},
					"object": "608060405234801561001057600080fd5b50604051610ec4380380610ec4833981810160405281019061003291906100db565b806000806101000a81548173ffffffffffffffffffffffffffffffffffffffff021916908373ffffffffffffffffffffffffffffffffffffffff16021790555050610108565b600080fd5b600073ffffffffffffffffffffffffffffffffffffffff82169050919050565b60006100a88261007d565b9050919050565b6100b88161009d565b81146100c357600080fd5b50565b6000815190506100d5816100af565b92915050565b6000602082840312156100f1576100f0610078565b5b60006100ff848285016100c6565b91505092915050565b610dad806101176000396000f3fe608060405234801561001057600080fd5b506004361061004c5760003560e01c80631885ae10146100515780638eb6a489146100815780639b3f3f1a146100b1578063eb41850d146100cd575b600080fd5b61006b60048036038101906100669190610806565b6100fd565b604051610078919061087d565b60405180910390f35b61009b600480360381019061009691906108ce565b6102d6565b6040516100a8919061087d565b60405180910390f35b6100cb60048036038101906100c691906108fb565b6102f6565b005b6100e760048036038101906100e291906108ce565b6103af565b6040516100f4919061087d565b60405180910390f35b6000808360200151846040015185606001518660a00151876080015160405160200161012d959493929190610a1e565b604051602081830303815290604052805190602001209050428460a0015110156101645761015a816103d9565b60009150506102d0565b6001600082815260200190815260200160002060009054906101000a900460ff16156101c5576040517f08c379a00000000000000000000000000000000000000000000000000000000081526004016101bc90610ad6565b60405180910390fd5b6101eb846000015185602001518660400151876060015188608001518960a00151610407565b61022a576040517f08c379a000000000000000000000000000000000000000000000000000000000815260040161022190610b42565b60405180910390fd5b836060015183106102ca57836020015173ffffffffffffffffffffffffffffffffffffffff166323b872dd85600001513387604001516040518463ffffffff1660e01b815260040161027e93929190610b80565b600060405180830381600087803b15801561029857600080fd5b505af19250505080156102a9575060015b6102b75760009150506102d0565b6102c0816103d9565b60019150506102d0565b60009150505b92915050565b60016020528060005260406000206000915054906101000a900460ff1681565b61031c816000015182602001518360400151846060015185608001518660a00151610407565b61035b576040517f08c379a000000000000000000000000000000000000000000000000000000000815260040161035290610b42565b60405180910390fd5b60008160200151826040015183606001518460a00151856080015160405160200161038a959493929190610a1e565b6040516020818303038152906040528051906020012090506103ab816103d9565b5050565b60006001600083815260200190815260200160002060009054906101000a900460ff169050919050565b600180600083815260200190815260200160002060006101000a81548160ff02191690831515021790555050565b600080868686856040516020016104219493929190610bb7565b60405160208183030381529060405280519060200120905060008160405160200161044c9190610c7d565b6040516020818303038152906040528051906020012090508873ffffffffffffffffffffffffffffffffffffffff1661048582876104aa565b73ffffffffffffffffffffffffffffffffffffffff1614925050509695505050505050565b6000806000806020850151925060408501519150606085015160001a9050601b8160ff1610156104e457601b816104e19190610cdf565b90505b600186828585604051600081526020016040526040516105079493929190610d32565b6020604051602081039080840390855afa158015610529573d6000803e3d6000fd5b50505060206040510351935050505092915050565b6000604051905090565b600080fd5b600080fd5b600080fd5b6000601f19601f8301169050919050565b7f4e487b7100000000000000000000000000000000000000000000000000000000600052604160045260246000fd5b6105a082610557565b810181811067ffffffffffffffff821117156105bf576105be610568565b5b80604052505050565b60006105d261053e565b90506105de8282610597565b919050565b600080fd5b600073ffffffffffffffffffffffffffffffffffffffff82169050919050565b6000610613826105e8565b9050919050565b61062381610608565b811461062e57600080fd5b50565b6000813590506106408161061a565b92915050565b6000819050919050565b61065981610646565b811461066457600080fd5b50565b60008135905061067681610650565b92915050565b600080fd5b600080fd5b600067ffffffffffffffff8211156106a1576106a0610568565b5b6106aa82610557565b9050602081019050919050565b82818337600083830152505050565b60006106d96106d484610686565b6105c8565b9050828152602081018484840111156106f5576106f4610681565b5b6107008482856106b7565b509392505050565b600082601f83011261071d5761071c61067c565b5b813561072d8482602086016106c6565b91505092915050565b600060e0828403121561074c5761074b610552565b5b61075660e06105c8565b9050600061076684828501610631565b600083015250602061077a84828501610631565b602083015250604061078e84828501610667565b60408301525060606107a284828501610667565b606083015250608082013567ffffffffffffffff8111156107c6576107c56105e3565b5b6107d284828501610708565b60808301525060a06107e684828501610667565b60a08301525060c06107fa84828501610667565b60c08301525092915050565b6000806040838503121561081d5761081c610548565b5b600083013567ffffffffffffffff81111561083b5761083a61054d565b5b61084785828601610736565b925050602061085885828601610667565b9150509250929050565b60008115159050919050565b61087781610862565b82525050565b6000602082019050610892600083018461086e565b92915050565b6000819050919050565b6108ab81610898565b81146108b657600080fd5b50565b6000813590506108c8816108a2565b92915050565b6000602082840312156108e4576108e3610548565b5b60006108f2848285016108b9565b91505092915050565b60006020828403121561091157610910610548565b5b600082013567ffffffffffffffff81111561092f5761092e61054d565b5b61093b84828501610736565b91505092915050565b60008160601b9050919050565b600061095c82610944565b9050919050565b600061096e82610951565b9050919050565b61098661098182610608565b610963565b82525050565b6000819050919050565b6109a76109a282610646565b61098c565b82525050565b600081519050919050565b600081905092915050565b60005b838110156109e15780820151818401526020810190506109c6565b60008484015250505050565b60006109f8826109ad565b610a0281856109b8565b9350610a128185602086016109c3565b80840191505092915050565b6000610a2a8288610975565b601482019150610a3a8287610996565b602082019150610a4a8286610996565b602082019150610a5a8285610996565b602082019150610a6a82846109ed565b91508190509695505050505050565b600082825260208201905092915050565b7f4f7264657220686173206265656e207573656400000000000000000000000000600082015250565b6000610ac0601383610a79565b9150610acb82610a8a565b602082019050919050565b60006020820190508181036000830152610aef81610ab3565b9050919050565b7f496e76616c6964207369676e6174757265000000000000000000000000000000600082015250565b6000610b2c601183610a79565b9150610b3782610af6565b602082019050919050565b60006020820190508181036000830152610b5b81610b1f565b9050919050565b610b6b81610608565b82525050565b610b7a81610646565b82525050565b6000606082019050610b956000830186610b62565b610ba26020830185610b62565b610baf6040830184610b71565b949350505050565b6000610bc38287610975565b601482019150610bd38286610996565b602082019150610be38285610996565b602082019150610bf38284610996565b60208201915081905095945050505050565b600081905092915050565b7f19457468657265756d205369676e6564204d6573736167653a0a333200000000600082015250565b6000610c46601c83610c05565b9150610c5182610c10565b601c82019050919050565b6000819050919050565b610c77610c7282610898565b610c5c565b82525050565b6000610c8882610c39565b9150610c948284610c66565b60208201915081905092915050565b600060ff82169050919050565b7f4e487b7100000000000000000000000000000000000000000000000000000000600052601160045260246000fd5b6000610cea82610ca3565b9150610cf583610ca3565b9250828201905060ff811115610d0e57610d0d610cb0565b5b92915050565b610d1d81610898565b82525050565b610d2c81610ca3565b82525050565b6000608082019050610d476000830187610d14565b610d546020830186610d23565b610d616040830185610d14565b610d6e6060830184610d14565b9594505050505056fea2646970667358221220261e60164feed93a4824982c82c9cbbbf96fd045e99baca432b1e2e14ab55e1164736f6c63430008120033",
					"opcodes": "PUSH1 0x80 PUSH1 0x40 MSTORE CALLVALUE DUP1 ISZERO PUSH2 0x10 JUMPI PUSH1 0x0 DUP1 REVERT JUMPDEST POP PUSH1 0x40 MLOAD PUSH2 0xEC4 CODESIZE SUB DUP1 PUSH2 0xEC4 DUP4 CODECOPY DUP2 DUP2 ADD PUSH1 0x40 MSTORE DUP2 ADD SWAP1 PUSH2 0x32 SWAP2 SWAP1 PUSH2 0xDB JUMP JUMPDEST DUP1 PUSH1 0x0 DUP1 PUSH2 0x100 EXP DUP2 SLOAD DUP2 PUSH20 0xFFFFFFFFFFFFFFFFFFFFFFFFFFFFFFFFFFFFFFFF MUL NOT AND SWAP1 DUP4 PUSH20 0xFFFFFFFFFFFFFFFFFFFFFFFFFFFFFFFFFFFFFFFF AND MUL OR SWAP1 SSTORE POP POP PUSH2 0x108 JUMP JUMPDEST PUSH1 0x0 DUP1 REVERT JUMPDEST PUSH1 0x0 PUSH20 0xFFFFFFFFFFFFFFFFFFFFFFFFFFFFFFFFFFFFFFFF DUP3 AND SWAP1 POP SWAP2 SWAP1 POP JUMP JUMPDEST PUSH1 0x0 PUSH2 0xA8 DUP3 PUSH2 0x7D JUMP JUMPDEST SWAP1 POP SWAP2 SWAP1 POP JUMP JUMPDEST PUSH2 0xB8 DUP2 PUSH2 0x9D JUMP JUMPDEST DUP2 EQ PUSH2 0xC3 JUMPI PUSH1 0x0 DUP1 REVERT JUMPDEST POP JUMP JUMPDEST PUSH1 0x0 DUP2 MLOAD SWAP1 POP PUSH2 0xD5 DUP2 PUSH2 0xAF JUMP JUMPDEST SWAP3 SWAP2 POP POP JUMP JUMPDEST PUSH1 0x0 PUSH1 0x20 DUP3 DUP5 SUB SLT ISZERO PUSH2 0xF1 JUMPI PUSH2 0xF0 PUSH2 0x78 JUMP JUMPDEST JUMPDEST PUSH1 0x0 PUSH2 0xFF DUP5 DUP3 DUP6 ADD PUSH2 0xC6 JUMP JUMPDEST SWAP2 POP POP SWAP3 SWAP2 POP POP JUMP JUMPDEST PUSH2 0xDAD DUP1 PUSH2 0x117 PUSH1 0x0 CODECOPY PUSH1 0x0 RETURN INVALID PUSH1 0x80 PUSH1 0x40 MSTORE CALLVALUE DUP1 ISZERO PUSH2 0x10 JUMPI PUSH1 0x0 DUP1 REVERT JUMPDEST POP PUSH1 0x4 CALLDATASIZE LT PUSH2 0x4C JUMPI PUSH1 0x0 CALLDATALOAD PUSH1 0xE0 SHR DUP1 PUSH4 0x1885AE10 EQ PUSH2 0x51 JUMPI DUP1 PUSH4 0x8EB6A489 EQ PUSH2 0x81 JUMPI DUP1 PUSH4 0x9B3F3F1A EQ PUSH2 0xB1 JUMPI DUP1 PUSH4 0xEB41850D EQ PUSH2 0xCD JUMPI JUMPDEST PUSH1 0x0 DUP1 REVERT JUMPDEST PUSH2 0x6B PUSH1 0x4 DUP1 CALLDATASIZE SUB DUP2 ADD SWAP1 PUSH2 0x66 SWAP2 SWAP1 PUSH2 0x806 JUMP JUMPDEST PUSH2 0xFD JUMP JUMPDEST PUSH1 0x40 MLOAD PUSH2 0x78 SWAP2 SWAP1 PUSH2 0x87D JUMP JUMPDEST PUSH1 0x40 MLOAD DUP1 SWAP2 SUB SWAP1 RETURN JUMPDEST PUSH2 0x9B PUSH1 0x4 DUP1 CALLDATASIZE SUB DUP2 ADD SWAP1 PUSH2 0x96 SWAP2 SWAP1 PUSH2 0x8CE JUMP JUMPDEST PUSH2 0x2D6 JUMP JUMPDEST PUSH1 0x40 MLOAD PUSH2 0xA8 SWAP2 SWAP1 PUSH2 0x87D JUMP JUMPDEST PUSH1 0x40 MLOAD DUP1 SWAP2 SUB SWAP1 RETURN JUMPDEST PUSH2 0xCB PUSH1 0x4 DUP1 CALLDATASIZE SUB DUP2 ADD SWAP1 PUSH2 0xC6 SWAP2 SWAP1 PUSH2 0x8FB JUMP JUMPDEST PUSH2 0x2F6 JUMP JUMPDEST STOP JUMPDEST PUSH2 0xE7 PUSH1 0x4 DUP1 CALLDATASIZE SUB DUP2 ADD SWAP1 PUSH2 0xE2 SWAP2 SWAP1 PUSH2 0x8CE JUMP JUMPDEST PUSH2 0x3AF JUMP JUMPDEST PUSH1 0x40 MLOAD PUSH2 0xF4 SWAP2 SWAP1 PUSH2 0x87D JUMP JUMPDEST PUSH1 0x40 MLOAD DUP1 SWAP2 SUB SWAP1 RETURN JUMPDEST PUSH1 0x0 DUP1 DUP4 PUSH1 0x20 ADD MLOAD DUP5 PUSH1 0x40 ADD MLOAD DUP6 PUSH1 0x60 ADD MLOAD DUP7 PUSH1 0xA0 ADD MLOAD DUP8 PUSH1 0x80 ADD MLOAD PUSH1 0x40 MLOAD PUSH1 0x20 ADD PUSH2 0x12D SWAP6 SWAP5 SWAP4 SWAP3 SWAP2 SWAP1 PUSH2 0xA1E JUMP JUMPDEST PUSH1 0x40 MLOAD PUSH1 0x20 DUP2 DUP4 SUB SUB DUP2 MSTORE SWAP1 PUSH1 0x40 MSTORE DUP1 MLOAD SWAP1 PUSH1 0x20 ADD KECCAK256 SWAP1 POP TIMESTAMP DUP5 PUSH1 0xA0 ADD MLOAD LT ISZERO PUSH2 0x164 JUMPI PUSH2 0x15A DUP2 PUSH2 0x3D9 JUMP JUMPDEST PUSH1 0x0 SWAP2 POP POP PUSH2 0x2D0 JUMP JUMPDEST PUSH1 0x1 PUSH1 0x0 DUP3 DUP2 MSTORE PUSH1 0x20 ADD SWAP1 DUP2 MSTORE PUSH1 0x20 ADD PUSH1 0x0 KECCAK256 PUSH1 0x0 SWAP1 SLOAD SWAP1 PUSH2 0x100 EXP SWAP1 DIV PUSH1 0xFF AND ISZERO PUSH2 0x1C5 JUMPI PUSH1 0x40 MLOAD PUSH32 0x8C379A000000000000000000000000000000000000000000000000000000000 DUP2 MSTORE PUSH1 0x4 ADD PUSH2 0x1BC SWAP1 PUSH2 0xAD6 JUMP JUMPDEST PUSH1 0x40 MLOAD DUP1 SWAP2 SUB SWAP1 REVERT JUMPDEST PUSH2 0x1EB DUP5 PUSH1 0x0 ADD MLOAD DUP6 PUSH1 0x20 ADD MLOAD DUP7 PUSH1 0x40 ADD MLOAD DUP8 PUSH1 0x60 ADD MLOAD DUP9 PUSH1 0x80 ADD MLOAD DUP10 PUSH1 0xA0 ADD MLOAD PUSH2 0x407 JUMP JUMPDEST PUSH2 0x22A JUMPI PUSH1 0x40 MLOAD PUSH32 0x8C379A000000000000000000000000000000000000000000000000000000000 DUP2 MSTORE PUSH1 0x4 ADD PUSH2 0x221 SWAP1 PUSH2 0xB42 JUMP JUMPDEST PUSH1 0x40 MLOAD DUP1 SWAP2 SUB SWAP1 REVERT JUMPDEST DUP4 PUSH1 0x60 ADD MLOAD DUP4 LT PUSH2 0x2CA JUMPI DUP4 PUSH1 0x20 ADD MLOAD PUSH20 0xFFFFFFFFFFFFFFFFFFFFFFFFFFFFFFFFFFFFFFFF AND PUSH4 0x23B872DD DUP6 PUSH1 0x0 ADD MLOAD CALLER DUP8 PUSH1 0x40 ADD MLOAD PUSH1 0x40 MLOAD DUP5 PUSH4 0xFFFFFFFF AND PUSH1 0xE0 SHL DUP2 MSTORE PUSH1 0x4 ADD PUSH2 0x27E SWAP4 SWAP3 SWAP2 SWAP1 PUSH2 0xB80 JUMP JUMPDEST PUSH1 0x0 PUSH1 0x40 MLOAD DUP1 DUP4 SUB DUP2 PUSH1 0x0 DUP8 DUP1 EXTCODESIZE ISZERO DUP1 ISZERO PUSH2 0x298 JUMPI PUSH1 0x0 DUP1 REVERT JUMPDEST POP GAS CALL SWAP3 POP POP POP DUP1 ISZERO PUSH2 0x2A9 JUMPI POP PUSH1 0x1 JUMPDEST PUSH2 0x2B7 JUMPI PUSH1 0x0 SWAP2 POP POP PUSH2 0x2D0 JUMP JUMPDEST PUSH2 0x2C0 DUP2 PUSH2 0x3D9 JUMP JUMPDEST PUSH1 0x1 SWAP2 POP POP PUSH2 0x2D0 JUMP JUMPDEST PUSH1 0x0 SWAP2 POP POP JUMPDEST SWAP3 SWAP2 POP POP JUMP JUMPDEST PUSH1 0x1 PUSH1 0x20 MSTORE DUP1 PUSH1 0x0 MSTORE PUSH1 0x40 PUSH1 0x0 KECCAK256 PUSH1 0x0 SWAP2 POP SLOAD SWAP1 PUSH2 0x100 EXP SWAP1 DIV PUSH1 0xFF AND DUP2 JUMP JUMPDEST PUSH2 0x31C DUP2 PUSH1 0x0 ADD MLOAD DUP3 PUSH1 0x20 ADD MLOAD DUP4 PUSH1 0x40 ADD MLOAD DUP5 PUSH1 0x60 ADD MLOAD DUP6 PUSH1 0x80 ADD MLOAD DUP7 PUSH1 0xA0 ADD MLOAD PUSH2 0x407 JUMP JUMPDEST PUSH2 0x35B JUMPI PUSH1 0x40 MLOAD PUSH32 0x8C379A000000000000000000000000000000000000000000000000000000000 DUP2 MSTORE PUSH1 0x4 ADD PUSH2 0x352 SWAP1 PUSH2 0xB42 JUMP JUMPDEST PUSH1 0x40 MLOAD DUP1 SWAP2 SUB SWAP1 REVERT JUMPDEST PUSH1 0x0 DUP2 PUSH1 0x20 ADD MLOAD DUP3 PUSH1 0x40 ADD MLOAD DUP4 PUSH1 0x60 ADD MLOAD DUP5 PUSH1 0xA0 ADD MLOAD DUP6 PUSH1 0x80 ADD MLOAD PUSH1 0x40 MLOAD PUSH1 0x20 ADD PUSH2 0x38A SWAP6 SWAP5 SWAP4 SWAP3 SWAP2 SWAP1 PUSH2 0xA1E JUMP JUMPDEST PUSH1 0x40 MLOAD PUSH1 0x20 DUP2 DUP4 SUB SUB DUP2 MSTORE SWAP1 PUSH1 0x40 MSTORE DUP1 MLOAD SWAP1 PUSH1 0x20 ADD KECCAK256 SWAP1 POP PUSH2 0x3AB DUP2 PUSH2 0x3D9 JUMP JUMPDEST POP POP JUMP JUMPDEST PUSH1 0x0 PUSH1 0x1 PUSH1 0x0 DUP4 DUP2 MSTORE PUSH1 0x20 ADD SWAP1 DUP2 MSTORE PUSH1 0x20 ADD PUSH1 0x0 KECCAK256 PUSH1 0x0 SWAP1 SLOAD SWAP1 PUSH2 0x100 EXP SWAP1 DIV PUSH1 0xFF AND SWAP1 POP SWAP2 SWAP1 POP JUMP JUMPDEST PUSH1 0x1 DUP1 PUSH1 0x0 DUP4 DUP2 MSTORE PUSH1 0x20 ADD SWAP1 DUP2 MSTORE PUSH1 0x20 ADD PUSH1 0x0 KECCAK256 PUSH1 0x0 PUSH2 0x100 EXP DUP2 SLOAD DUP2 PUSH1 0xFF MUL NOT AND SWAP1 DUP4 ISZERO ISZERO MUL OR SWAP1 SSTORE POP POP JUMP JUMPDEST PUSH1 0x0 DUP1 DUP7 DUP7 DUP7 DUP6 PUSH1 0x40 MLOAD PUSH1 0x20 ADD PUSH2 0x421 SWAP5 SWAP4 SWAP3 SWAP2 SWAP1 PUSH2 0xBB7 JUMP JUMPDEST PUSH1 0x40 MLOAD PUSH1 0x20 DUP2 DUP4 SUB SUB DUP2 MSTORE SWAP1 PUSH1 0x40 MSTORE DUP1 MLOAD SWAP1 PUSH1 0x20 ADD KECCAK256 SWAP1 POP PUSH1 0x0 DUP2 PUSH1 0x40 MLOAD PUSH1 0x20 ADD PUSH2 0x44C SWAP2 SWAP1 PUSH2 0xC7D JUMP JUMPDEST PUSH1 0x40 MLOAD PUSH1 0x20 DUP2 DUP4 SUB SUB DUP2 MSTORE SWAP1 PUSH1 0x40 MSTORE DUP1 MLOAD SWAP1 PUSH1 0x20 ADD KECCAK256 SWAP1 POP DUP9 PUSH20 0xFFFFFFFFFFFFFFFFFFFFFFFFFFFFFFFFFFFFFFFF AND PUSH2 0x485 DUP3 DUP8 PUSH2 0x4AA JUMP JUMPDEST PUSH20 0xFFFFFFFFFFFFFFFFFFFFFFFFFFFFFFFFFFFFFFFF AND EQ SWAP3 POP POP POP SWAP7 SWAP6 POP POP POP POP POP POP JUMP JUMPDEST PUSH1 0x0 DUP1 PUSH1 0x0 DUP1 PUSH1 0x20 DUP6 ADD MLOAD SWAP3 POP PUSH1 0x40 DUP6 ADD MLOAD SWAP2 POP PUSH1 0x60 DUP6 ADD MLOAD PUSH1 0x0 BYTE SWAP1 POP PUSH1 0x1B DUP2 PUSH1 0xFF AND LT ISZERO PUSH2 0x4E4 JUMPI PUSH1 0x1B DUP2 PUSH2 0x4E1 SWAP2 SWAP1 PUSH2 0xCDF JUMP JUMPDEST SWAP1 POP JUMPDEST PUSH1 0x1 DUP7 DUP3 DUP6 DUP6 PUSH1 0x40 MLOAD PUSH1 0x0 DUP2 MSTORE PUSH1 0x20 ADD PUSH1 0x40 MSTORE PUSH1 0x40 MLOAD PUSH2 0x507 SWAP5 SWAP4 SWAP3 SWAP2 SWAP1 PUSH2 0xD32 JUMP JUMPDEST PUSH1 0x20 PUSH1 0x40 MLOAD PUSH1 0x20 DUP2 SUB SWAP1 DUP1 DUP5 SUB SWAP1 DUP6 GAS STATICCALL ISZERO DUP1 ISZERO PUSH2 0x529 JUMPI RETURNDATASIZE PUSH1 0x0 DUP1 RETURNDATACOPY RETURNDATASIZE PUSH1 0x0 REVERT JUMPDEST POP POP POP PUSH1 0x20 PUSH1 0x40 MLOAD SUB MLOAD SWAP4 POP POP POP POP SWAP3 SWAP2 POP POP JUMP JUMPDEST PUSH1 0x0 PUSH1 0x40 MLOAD SWAP1 POP SWAP1 JUMP JUMPDEST PUSH1 0x0 DUP1 REVERT JUMPDEST PUSH1 0x0 DUP1 REVERT JUMPDEST PUSH1 0x0 DUP1 REVERT JUMPDEST PUSH1 0x0 PUSH1 0x1F NOT PUSH1 0x1F DUP4 ADD AND SWAP1 POP SWAP2 SWAP1 POP JUMP JUMPDEST PUSH32 0x4E487B7100000000000000000000000000000000000000000000000000000000 PUSH1 0x0 MSTORE PUSH1 0x41 PUSH1 0x4 MSTORE PUSH1 0x24 PUSH1 0x0 REVERT JUMPDEST PUSH2 0x5A0 DUP3 PUSH2 0x557 JUMP JUMPDEST DUP2 ADD DUP2 DUP2 LT PUSH8 0xFFFFFFFFFFFFFFFF DUP3 GT OR ISZERO PUSH2 0x5BF JUMPI PUSH2 0x5BE PUSH2 0x568 JUMP JUMPDEST JUMPDEST DUP1 PUSH1 0x40 MSTORE POP POP POP JUMP JUMPDEST PUSH1 0x0 PUSH2 0x5D2 PUSH2 0x53E JUMP JUMPDEST SWAP1 POP PUSH2 0x5DE DUP3 DUP3 PUSH2 0x597 JUMP JUMPDEST SWAP2 SWAP1 POP JUMP JUMPDEST PUSH1 0x0 DUP1 REVERT JUMPDEST PUSH1 0x0 PUSH20 0xFFFFFFFFFFFFFFFFFFFFFFFFFFFFFFFFFFFFFFFF DUP3 AND SWAP1 POP SWAP2 SWAP1 POP JUMP JUMPDEST PUSH1 0x0 PUSH2 0x613 DUP3 PUSH2 0x5E8 JUMP JUMPDEST SWAP1 POP SWAP2 SWAP1 POP JUMP JUMPDEST PUSH2 0x623 DUP2 PUSH2 0x608 JUMP JUMPDEST DUP2 EQ PUSH2 0x62E JUMPI PUSH1 0x0 DUP1 REVERT JUMPDEST POP JUMP JUMPDEST PUSH1 0x0 DUP2 CALLDATALOAD SWAP1 POP PUSH2 0x640 DUP2 PUSH2 0x61A JUMP JUMPDEST SWAP3 SWAP2 POP POP JUMP JUMPDEST PUSH1 0x0 DUP2 SWAP1 POP SWAP2 SWAP1 POP JUMP JUMPDEST PUSH2 0x659 DUP2 PUSH2 0x646 JUMP JUMPDEST DUP2 EQ PUSH2 0x664 JUMPI PUSH1 0x0 DUP1 REVERT JUMPDEST POP JUMP JUMPDEST PUSH1 0x0 DUP2 CALLDATALOAD SWAP1 POP PUSH2 0x676 DUP2 PUSH2 0x650 JUMP JUMPDEST SWAP3 SWAP2 POP POP JUMP JUMPDEST PUSH1 0x0 DUP1 REVERT JUMPDEST PUSH1 0x0 DUP1 REVERT JUMPDEST PUSH1 0x0 PUSH8 0xFFFFFFFFFFFFFFFF DUP3 GT ISZERO PUSH2 0x6A1 JUMPI PUSH2 0x6A0 PUSH2 0x568 JUMP JUMPDEST JUMPDEST PUSH2 0x6AA DUP3 PUSH2 0x557 JUMP JUMPDEST SWAP1 POP PUSH1 0x20 DUP2 ADD SWAP1 POP SWAP2 SWAP1 POP JUMP JUMPDEST DUP3 DUP2 DUP4 CALLDATACOPY PUSH1 0x0 DUP4 DUP4 ADD MSTORE POP POP POP JUMP JUMPDEST PUSH1 0x0 PUSH2 0x6D9 PUSH2 0x6D4 DUP5 PUSH2 0x686 JUMP JUMPDEST PUSH2 0x5C8 JUMP JUMPDEST SWAP1 POP DUP3 DUP2 MSTORE PUSH1 0x20 DUP2 ADD DUP5 DUP5 DUP5 ADD GT ISZERO PUSH2 0x6F5 JUMPI PUSH2 0x6F4 PUSH2 0x681 JUMP JUMPDEST JUMPDEST PUSH2 0x700 DUP5 DUP3 DUP6 PUSH2 0x6B7 JUMP JUMPDEST POP SWAP4 SWAP3 POP POP POP JUMP JUMPDEST PUSH1 0x0 DUP3 PUSH1 0x1F DUP4 ADD SLT PUSH2 0x71D JUMPI PUSH2 0x71C PUSH2 0x67C JUMP JUMPDEST JUMPDEST DUP2 CALLDATALOAD PUSH2 0x72D DUP5 DUP3 PUSH1 0x20 DUP7 ADD PUSH2 0x6C6 JUMP JUMPDEST SWAP2 POP POP SWAP3 SWAP2 POP POP JUMP JUMPDEST PUSH1 0x0 PUSH1 0xE0 DUP3 DUP5 SUB SLT ISZERO PUSH2 0x74C JUMPI PUSH2 0x74B PUSH2 0x552 JUMP JUMPDEST JUMPDEST PUSH2 0x756 PUSH1 0xE0 PUSH2 0x5C8 JUMP JUMPDEST SWAP1 POP PUSH1 0x0 PUSH2 0x766 DUP5 DUP3 DUP6 ADD PUSH2 0x631 JUMP JUMPDEST PUSH1 0x0 DUP4 ADD MSTORE POP PUSH1 0x20 PUSH2 0x77A DUP5 DUP3 DUP6 ADD PUSH2 0x631 JUMP JUMPDEST PUSH1 0x20 DUP4 ADD MSTORE POP PUSH1 0x40 PUSH2 0x78E DUP5 DUP3 DUP6 ADD PUSH2 0x667 JUMP JUMPDEST PUSH1 0x40 DUP4 ADD MSTORE POP PUSH1 0x60 PUSH2 0x7A2 DUP5 DUP3 DUP6 ADD PUSH2 0x667 JUMP JUMPDEST PUSH1 0x60 DUP4 ADD MSTORE POP PUSH1 0x80 DUP3 ADD CALLDATALOAD PUSH8 0xFFFFFFFFFFFFFFFF DUP2 GT ISZERO PUSH2 0x7C6 JUMPI PUSH2 0x7C5 PUSH2 0x5E3 JUMP JUMPDEST JUMPDEST PUSH2 0x7D2 DUP5 DUP3 DUP6 ADD PUSH2 0x708 JUMP JUMPDEST PUSH1 0x80 DUP4 ADD MSTORE POP PUSH1 0xA0 PUSH2 0x7E6 DUP5 DUP3 DUP6 ADD PUSH2 0x667 JUMP JUMPDEST PUSH1 0xA0 DUP4 ADD MSTORE POP PUSH1 0xC0 PUSH2 0x7FA DUP5 DUP3 DUP6 ADD PUSH2 0x667 JUMP JUMPDEST PUSH1 0xC0 DUP4 ADD MSTORE POP SWAP3 SWAP2 POP POP JUMP JUMPDEST PUSH1 0x0 DUP1 PUSH1 0x40 DUP4 DUP6 SUB SLT ISZERO PUSH2 0x81D JUMPI PUSH2 0x81C PUSH2 0x548 JUMP JUMPDEST JUMPDEST PUSH1 0x0 DUP4 ADD CALLDATALOAD PUSH8 0xFFFFFFFFFFFFFFFF DUP2 GT ISZERO PUSH2 0x83B JUMPI PUSH2 0x83A PUSH2 0x54D JUMP JUMPDEST JUMPDEST PUSH2 0x847 DUP6 DUP3 DUP7 ADD PUSH2 0x736 JUMP JUMPDEST SWAP3 POP POP PUSH1 0x20 PUSH2 0x858 DUP6 DUP3 DUP7 ADD PUSH2 0x667 JUMP JUMPDEST SWAP2 POP POP SWAP3 POP SWAP3 SWAP1 POP JUMP JUMPDEST PUSH1 0x0 DUP2 ISZERO ISZERO SWAP1 POP SWAP2 SWAP1 POP JUMP JUMPDEST PUSH2 0x877 DUP2 PUSH2 0x862 JUMP JUMPDEST DUP3 MSTORE POP POP JUMP JUMPDEST PUSH1 0x0 PUSH1 0x20 DUP3 ADD SWAP1 POP PUSH2 0x892 PUSH1 0x0 DUP4 ADD DUP5 PUSH2 0x86E JUMP JUMPDEST SWAP3 SWAP2 POP POP JUMP JUMPDEST PUSH1 0x0 DUP2 SWAP1 POP SWAP2 SWAP1 POP JUMP JUMPDEST PUSH2 0x8AB DUP2 PUSH2 0x898 JUMP JUMPDEST DUP2 EQ PUSH2 0x8B6 JUMPI PUSH1 0x0 DUP1 REVERT JUMPDEST POP JUMP JUMPDEST PUSH1 0x0 DUP2 CALLDATALOAD SWAP1 POP PUSH2 0x8C8 DUP2 PUSH2 0x8A2 JUMP JUMPDEST SWAP3 SWAP2 POP POP JUMP JUMPDEST PUSH1 0x0 PUSH1 0x20 DUP3 DUP5 SUB SLT ISZERO PUSH2 0x8E4 JUMPI PUSH2 0x8E3 PUSH2 0x548 JUMP JUMPDEST JUMPDEST PUSH1 0x0 PUSH2 0x8F2 DUP5 DUP3 DUP6 ADD PUSH2 0x8B9 JUMP JUMPDEST SWAP2 POP POP SWAP3 SWAP2 POP POP JUMP JUMPDEST PUSH1 0x0 PUSH1 0x20 DUP3 DUP5 SUB SLT ISZERO PUSH2 0x911 JUMPI PUSH2 0x910 PUSH2 0x548 JUMP JUMPDEST JUMPDEST PUSH1 0x0 DUP3 ADD CALLDATALOAD PUSH8 0xFFFFFFFFFFFFFFFF DUP2 GT ISZERO PUSH2 0x92F JUMPI PUSH2 0x92E PUSH2 0x54D JUMP JUMPDEST JUMPDEST PUSH2 0x93B DUP5 DUP3 DUP6 ADD PUSH2 0x736 JUMP JUMPDEST SWAP2 POP POP SWAP3 SWAP2 POP POP JUMP JUMPDEST PUSH1 0x0 DUP2 PUSH1 0x60 SHL SWAP1 POP SWAP2 SWAP1 POP JUMP JUMPDEST PUSH1 0x0 PUSH2 0x95C DUP3 PUSH2 0x944 JUMP JUMPDEST SWAP1 POP SWAP2 SWAP1 POP JUMP JUMPDEST PUSH1 0x0 PUSH2 0x96E DUP3 PUSH2 0x951 JUMP JUMPDEST SWAP1 POP SWAP2 SWAP1 POP JUMP JUMPDEST PUSH2 0x986 PUSH2 0x981 DUP3 PUSH2 0x608 JUMP JUMPDEST PUSH2 0x963 JUMP JUMPDEST DUP3 MSTORE POP POP JUMP JUMPDEST PUSH1 0x0 DUP2 SWAP1 POP SWAP2 SWAP1 POP JUMP JUMPDEST PUSH2 0x9A7 PUSH2 0x9A2 DUP3 PUSH2 0x646 JUMP JUMPDEST PUSH2 0x98C JUMP JUMPDEST DUP3 MSTORE POP POP JUMP JUMPDEST PUSH1 0x0 DUP2 MLOAD SWAP1 POP SWAP2 SWAP1 POP JUMP JUMPDEST PUSH1 0x0 DUP2 SWAP1 POP SWAP3 SWAP2 POP POP JUMP JUMPDEST PUSH1 0x0 JUMPDEST DUP4 DUP2 LT ISZERO PUSH2 0x9E1 JUMPI DUP1 DUP3 ADD MLOAD DUP2 DUP5 ADD MSTORE PUSH1 0x20 DUP2 ADD SWAP1 POP PUSH2 0x9C6 JUMP JUMPDEST PUSH1 0x0 DUP5 DUP5 ADD MSTORE POP POP POP POP JUMP JUMPDEST PUSH1 0x0 PUSH2 0x9F8 DUP3 PUSH2 0x9AD JUMP JUMPDEST PUSH2 0xA02 DUP2 DUP6 PUSH2 0x9B8 JUMP JUMPDEST SWAP4 POP PUSH2 0xA12 DUP2 DUP6 PUSH1 0x20 DUP7 ADD PUSH2 0x9C3 JUMP JUMPDEST DUP1 DUP5 ADD SWAP2 POP POP SWAP3 SWAP2 POP POP JUMP JUMPDEST PUSH1 0x0 PUSH2 0xA2A DUP3 DUP9 PUSH2 0x975 JUMP JUMPDEST PUSH1 0x14 DUP3 ADD SWAP2 POP PUSH2 0xA3A DUP3 DUP8 PUSH2 0x996 JUMP JUMPDEST PUSH1 0x20 DUP3 ADD SWAP2 POP PUSH2 0xA4A DUP3 DUP7 PUSH2 0x996 JUMP JUMPDEST PUSH1 0x20 DUP3 ADD SWAP2 POP PUSH2 0xA5A DUP3 DUP6 PUSH2 0x996 JUMP JUMPDEST PUSH1 0x20 DUP3 ADD SWAP2 POP PUSH2 0xA6A DUP3 DUP5 PUSH2 0x9ED JUMP JUMPDEST SWAP2 POP DUP2 SWAP1 POP SWAP7 SWAP6 POP POP POP POP POP POP JUMP JUMPDEST PUSH1 0x0 DUP3 DUP3 MSTORE PUSH1 0x20 DUP3 ADD SWAP1 POP SWAP3 SWAP2 POP POP JUMP JUMPDEST PUSH32 0x4F7264657220686173206265656E207573656400000000000000000000000000 PUSH1 0x0 DUP3 ADD MSTORE POP JUMP JUMPDEST PUSH1 0x0 PUSH2 0xAC0 PUSH1 0x13 DUP4 PUSH2 0xA79 JUMP JUMPDEST SWAP2 POP PUSH2 0xACB DUP3 PUSH2 0xA8A JUMP JUMPDEST PUSH1 0x20 DUP3 ADD SWAP1 POP SWAP2 SWAP1 POP JUMP JUMPDEST PUSH1 0x0 PUSH1 0x20 DUP3 ADD SWAP1 POP DUP2 DUP2 SUB PUSH1 0x0 DUP4 ADD MSTORE PUSH2 0xAEF DUP2 PUSH2 0xAB3 JUMP JUMPDEST SWAP1 POP SWAP2 SWAP1 POP JUMP JUMPDEST PUSH32 0x496E76616C6964207369676E6174757265000000000000000000000000000000 PUSH1 0x0 DUP3 ADD MSTORE POP JUMP JUMPDEST PUSH1 0x0 PUSH2 0xB2C PUSH1 0x11 DUP4 PUSH2 0xA79 JUMP JUMPDEST SWAP2 POP PUSH2 0xB37 DUP3 PUSH2 0xAF6 JUMP JUMPDEST PUSH1 0x20 DUP3 ADD SWAP1 POP SWAP2 SWAP1 POP JUMP JUMPDEST PUSH1 0x0 PUSH1 0x20 DUP3 ADD SWAP1 POP DUP2 DUP2 SUB PUSH1 0x0 DUP4 ADD MSTORE PUSH2 0xB5B DUP2 PUSH2 0xB1F JUMP JUMPDEST SWAP1 POP SWAP2 SWAP1 POP JUMP JUMPDEST PUSH2 0xB6B DUP2 PUSH2 0x608 JUMP JUMPDEST DUP3 MSTORE POP POP JUMP JUMPDEST PUSH2 0xB7A DUP2 PUSH2 0x646 JUMP JUMPDEST DUP3 MSTORE POP POP JUMP JUMPDEST PUSH1 0x0 PUSH1 0x60 DUP3 ADD SWAP1 POP PUSH2 0xB95 PUSH1 0x0 DUP4 ADD DUP7 PUSH2 0xB62 JUMP JUMPDEST PUSH2 0xBA2 PUSH1 0x20 DUP4 ADD DUP6 PUSH2 0xB62 JUMP JUMPDEST PUSH2 0xBAF PUSH1 0x40 DUP4 ADD DUP5 PUSH2 0xB71 JUMP JUMPDEST SWAP5 SWAP4 POP POP POP POP JUMP JUMPDEST PUSH1 0x0 PUSH2 0xBC3 DUP3 DUP8 PUSH2 0x975 JUMP JUMPDEST PUSH1 0x14 DUP3 ADD SWAP2 POP PUSH2 0xBD3 DUP3 DUP7 PUSH2 0x996 JUMP JUMPDEST PUSH1 0x20 DUP3 ADD SWAP2 POP PUSH2 0xBE3 DUP3 DUP6 PUSH2 0x996 JUMP JUMPDEST PUSH1 0x20 DUP3 ADD SWAP2 POP PUSH2 0xBF3 DUP3 DUP5 PUSH2 0x996 JUMP JUMPDEST PUSH1 0x20 DUP3 ADD SWAP2 POP DUP2 SWAP1 POP SWAP6 SWAP5 POP POP POP POP POP JUMP JUMPDEST PUSH1 0x0 DUP2 SWAP1 POP SWAP3 SWAP2 POP POP JUMP JUMPDEST PUSH32 0x19457468657265756D205369676E6564204D6573736167653A0A333200000000 PUSH1 0x0 DUP3 ADD MSTORE POP JUMP JUMPDEST PUSH1 0x0 PUSH2 0xC46 PUSH1 0x1C DUP4 PUSH2 0xC05 JUMP JUMPDEST SWAP2 POP PUSH2 0xC51 DUP3 PUSH2 0xC10 JUMP JUMPDEST PUSH1 0x1C DUP3 ADD SWAP1 POP SWAP2 SWAP1 POP JUMP JUMPDEST PUSH1 0x0 DUP2 SWAP1 POP SWAP2 SWAP1 POP JUMP JUMPDEST PUSH2 0xC77 PUSH2 0xC72 DUP3 PUSH2 0x898 JUMP JUMPDEST PUSH2 0xC5C JUMP JUMPDEST DUP3 MSTORE POP POP JUMP JUMPDEST PUSH1 0x0 PUSH2 0xC88 DUP3 PUSH2 0xC39 JUMP JUMPDEST SWAP2 POP PUSH2 0xC94 DUP3 DUP5 PUSH2 0xC66 JUMP JUMPDEST PUSH1 0x20 DUP3 ADD SWAP2 POP DUP2 SWAP1 POP SWAP3 SWAP2 POP POP JUMP JUMPDEST PUSH1 0x0 PUSH1 0xFF DUP3 AND SWAP1 POP SWAP2 SWAP1 POP JUMP JUMPDEST PUSH32 0x4E487B7100000000000000000000000000000000000000000000000000000000 PUSH1 0x0 MSTORE PUSH1 0x11 PUSH1 0x4 MSTORE PUSH1 0x24 PUSH1 0x0 REVERT JUMPDEST PUSH1 0x0 PUSH2 0xCEA DUP3 PUSH2 0xCA3 JUMP JUMPDEST SWAP2 POP PUSH2 0xCF5 DUP4 PUSH2 0xCA3 JUMP JUMPDEST SWAP3 POP DUP3 DUP3 ADD SWAP1 POP PUSH1 0xFF DUP2 GT ISZERO PUSH2 0xD0E JUMPI PUSH2 0xD0D PUSH2 0xCB0 JUMP JUMPDEST JUMPDEST SWAP3 SWAP2 POP POP JUMP JUMPDEST PUSH2 0xD1D DUP2 PUSH2 0x898 JUMP JUMPDEST DUP3 MSTORE POP POP JUMP JUMPDEST PUSH2 0xD2C DUP2 PUSH2 0xCA3 JUMP JUMPDEST DUP3 MSTORE POP POP JUMP JUMPDEST PUSH1 0x0 PUSH1 0x80 DUP3 ADD SWAP1 POP PUSH2 0xD47 PUSH1 0x0 DUP4 ADD DUP8 PUSH2 0xD14 JUMP JUMPDEST PUSH2 0xD54 PUSH1 0x20 DUP4 ADD DUP7 PUSH2 0xD23 JUMP JUMPDEST PUSH2 0xD61 PUSH1 0x40 DUP4 ADD DUP6 PUSH2 0xD14 JUMP JUMPDEST PUSH2 0xD6E PUSH1 0x60 DUP4 ADD DUP5 PUSH2 0xD14 JUMP JUMPDEST SWAP6 SWAP5 POP POP POP POP POP JUMP INVALID LOG2 PUSH5 0x6970667358 0x22 SLT KECCAK256 0x26 0x1E PUSH1 0x16 0x4F 0xEE 0xD9 GASPRICE BASEFEE 0x24 SWAP9 0x2C DUP3 0xC9 0xCB 0xBB 0xF9 PUSH16 0xD045E99BACA432B1E2E14AB55E116473 PUSH16 0x6C634300081200330000000000000000 "
				},
				"gasEstimates": {
					"creation": {
						"codeDepositCost": "700200",
						"executionCost": "infinite",
						"totalCost": "infinite"
					},
					"external": {
						"AtomicTx((address,address,uint256,uint256,bytes,uint256,uint256),uint256)": "infinite",
						"IsInvalid(bytes32)": "2796",
						"cancelOrder((address,address,uint256,uint256,bytes,uint256,uint256))": "infinite",
						"isOrderInvalid(bytes32)": "2866"
					},
					"internal": {
						"markOrderCancelled(bytes32)": "24362",
						"recoverSigner(bytes32,bytes memory)": "infinite",
						"verifySignature(address,address,uint256,uint256,bytes memory,uint256)": "infinite"
					}
				},
				"methodIdentifiers": {
					"AtomicTx((address,address,uint256,uint256,bytes,uint256,uint256),uint256)": "1885ae10",
					"IsInvalid(bytes32)": "8eb6a489",
					"cancelOrder((address,address,uint256,uint256,bytes,uint256,uint256))": "9b3f3f1a",
					"isOrderInvalid(bytes32)": "eb41850d"
				}
			},
			"storageLayout": {
				"storage": [
					{
						"astId": 1237,
						"contract": "NFT_market_contract.sol:ProxyWallet",
						"label": "owner",
						"offset": 0,
						"slot": "0",
						"type": "t_address"
					},
					{
						"astId": 1241,
						"contract": "NFT_market_contract.sol:ProxyWallet",
						"label": "IsInvalid",
						"offset": 0,
						"slot": "1",
						"type": "t_mapping(t_bytes32,t_bool)"
					}
				],
				"types": {
					"t_address": {
						"encoding": "inplace",
						"label": "address",
						"numberOfBytes": "20"
					},
					"t_bool": {
						"encoding": "inplace",
						"label": "bool",
						"numberOfBytes": "1"
					},
					"t_bytes32": {
						"encoding": "inplace",
						"label": "bytes32",
						"numberOfBytes": "32"
					},
					"t_mapping(t_bytes32,t_bool)": {
						"encoding": "mapping",
						"key": "t_bytes32",
						"label": "mapping(bytes32 => bool)",
						"numberOfBytes": "32",
						"value": "t_bool"
					}
				}
			},
			"userdoc": {
				"kind": "user",
				"methods": {},
				"version": 1
			}
		}
	}
}