{
	"NFT_market_contract.sol": {
		"MarketContract": {
			"abi": [
				{
					"inputs": [
						{
							"internalType": "address",
							"name": "_owner",
							"type": "address"
						}
					],
					"stateMutability": "nonpayable",
					"type": "constructor"
				},
				{
					"anonymous": false,
					"inputs": [
						{
							"indexed": true,
							"internalType": "address",
							"name": "seller",
							"type": "address"
						},
						{
							"indexed": true,
							"internalType": "address",
							"name": "buyer",
							"type": "address"
						},
						{
							"indexed": true,
							"internalType": "address",
							"name": "contractID",
							"type": "address"
						},
						{
							"indexed": false,
							"internalType": "uint256",
							"name": "tokenID",
							"type": "uint256"
						},
						{
							"indexed": false,
							"internalType": "bytes32",
							"name": "orderID",
							"type": "bytes32"
						},
						{
							"indexed": false,
							"internalType": "uint256",
							"name": "price",
							"type": "uint256"
						}
					],
					"name": "MatchFail",
					"type": "event"
				},
				{
					"anonymous": false,
					"inputs": [
						{
							"indexed": true,
							"internalType": "address",
							"name": "seller",
							"type": "address"
						},
						{
							"indexed": true,
							"internalType": "address",
							"name": "buyer",
							"type": "address"
						},
						{
							"indexed": true,
							"internalType": "address",
							"name": "contractID",
							"type": "address"
						},
						{
							"indexed": false,
							"internalType": "uint256",
							"name": "tokenID",
							"type": "uint256"
						},
						{
							"indexed": false,
							"internalType": "bytes32",
							"name": "orderID",
							"type": "bytes32"
						},
						{
							"indexed": false,
							"internalType": "uint256",
							"name": "price",
							"type": "uint256"
						}
					],
					"name": "MatchSuccess",
					"type": "event"
				},
				{
					"anonymous": false,
					"inputs": [
						{
							"indexed": true,
							"internalType": "address",
							"name": "seller",
							"type": "address"
						},
						{
							"indexed": true,
							"internalType": "address",
							"name": "contractID",
							"type": "address"
						},
						{
							"indexed": false,
							"internalType": "bytes32",
							"name": "orderID",
							"type": "bytes32"
						},
						{
							"indexed": false,
							"internalType": "uint256",
							"name": "tokenID",
							"type": "uint256"
						}
					],
					"name": "OrderExpired",
					"type": "event"
				},
				{
					"anonymous": false,
					"inputs": [
						{
							"indexed": true,
							"internalType": "address",
							"name": "seller",
							"type": "address"
						},
						{
							"indexed": true,
							"internalType": "address",
							"name": "contractID",
							"type": "address"
						},
						{
							"indexed": false,
							"internalType": "bytes32",
							"name": "orderID",
							"type": "bytes32"
						},
						{
							"indexed": false,
							"internalType": "uint256",
							"name": "tokenID",
							"type": "uint256"
						}
					],
					"name": "SellOrderCancelled",
					"type": "event"
				},
				{
					"anonymous": false,
					"inputs": [
						{
							"indexed": true,
							"internalType": "address",
							"name": "seller",
							"type": "address"
						},
						{
							"indexed": true,
							"internalType": "address",
							"name": "buyer",
							"type": "address"
						},
						{
							"indexed": true,
							"internalType": "address",
							"name": "contractID",
							"type": "address"
						},
						{
							"indexed": false,
							"internalType": "bytes32",
							"name": "orderID",
							"type": "bytes32"
						},
						{
							"indexed": false,
							"internalType": "uint256",
							"name": "tokenID",
							"type": "uint256"
						},
						{
							"indexed": false,
							"internalType": "uint256",
							"name": "price",
							"type": "uint256"
						}
					],
					"name": "TradeFail",
					"type": "event"
				},
				{
					"anonymous": false,
					"inputs": [
						{
							"indexed": true,
							"internalType": "address",
							"name": "seller",
							"type": "address"
						},
						{
							"indexed": true,
							"internalType": "address",
							"name": "buyer",
							"type": "address"
						},
						{
							"indexed": true,
							"internalType": "address",
							"name": "contractID",
							"type": "address"
						},
						{
							"indexed": false,
							"internalType": "bytes32",
							"name": "orderID",
							"type": "bytes32"
						},
						{
							"indexed": false,
							"internalType": "uint256",
							"name": "tokenID",
							"type": "uint256"
						},
						{
							"indexed": false,
							"internalType": "uint256",
							"name": "price",
							"type": "uint256"
						}
					],
					"name": "TradeSuccess",
					"type": "event"
				},
				{
					"anonymous": false,
					"inputs": [
						{
							"indexed": false,
							"internalType": "uint256",
							"name": "oldFeeRate",
							"type": "uint256"
						},
						{
							"indexed": false,
							"internalType": "uint256",
							"name": "newFeeRate",
							"type": "uint256"
						}
					],
					"name": "UpdateFeeRate",
					"type": "event"
				},
				{
					"inputs": [
						{
							"components": [
								{
									"internalType": "address",
									"name": "seller",
									"type": "address"
								},
								{
									"internalType": "address",
									"name": "contractID",
									"type": "address"
								},
								{
									"internalType": "uint256",
									"name": "tokenID",
									"type": "uint256"
								},
								{
									"internalType": "uint256",
									"name": "price",
									"type": "uint256"
								},
								{
									"internalType": "bytes",
									"name": "signature",
									"type": "bytes"
								},
								{
									"internalType": "uint256",
									"name": "expirationTime",
									"type": "uint256"
								},
								{
									"internalType": "bytes32",
									"name": "orderID",
									"type": "bytes32"
								}
							],
							"internalType": "struct MarketContract.SellOrder",
							"name": "sellOrder",
							"type": "tuple"
						}
					],
					"name": "CancelSellOrder",
					"outputs": [],
					"stateMutability": "nonpayable",
					"type": "function"
				},
				{
					"inputs": [
						{
							"internalType": "address",
							"name": "collectionAddress",
							"type": "address"
						}
					],
					"name": "approveCollection",
					"outputs": [],
					"stateMutability": "nonpayable",
					"type": "function"
				},
				{
					"inputs": [],
					"name": "createProxyWallet",
					"outputs": [],
					"stateMutability": "nonpayable",
					"type": "function"
				},
				{
					"inputs": [],
					"name": "getFeeRate",
					"outputs": [
						{
							"internalType": "uint256",
							"name": "",
							"type": "uint256"
						}
					],
					"stateMutability": "view",
					"type": "function"
				},
				{
					"inputs": [
						{
							"internalType": "address",
							"name": "user",
							"type": "address"
						}
					],
					"name": "getProxyWallet",
					"outputs": [
						{
							"internalType": "address",
							"name": "",
							"type": "address"
						}
					],
					"stateMutability": "view",
					"type": "function"
				},
				{
					"inputs": [
						{
							"internalType": "address",
							"name": "seller",
							"type": "address"
						},
						{
							"internalType": "address",
							"name": "contractID",
							"type": "address"
						},
						{
							"internalType": "uint256",
							"name": "tokenID",
							"type": "uint256"
						},
						{
							"internalType": "uint256",
							"name": "price",
							"type": "uint256"
						},
						{
							"internalType": "bytes",
							"name": "signature",
							"type": "bytes"
						},
						{
							"internalType": "uint256",
							"name": "expirationTime",
							"type": "uint256"
						},
						{
							"internalType": "bytes32",
							"name": "orderID",
							"type": "bytes32"
						}
					],
					"name": "matchOrder",
					"outputs": [],
					"stateMutability": "payable",
					"type": "function"
				},
				{
					"inputs": [
						{
							"internalType": "address",
							"name": "_mall",
							"type": "address"
						}
					],
					"name": "setMall",
					"outputs": [],
					"stateMutability": "nonpayable",
					"type": "function"
				},
				{
					"inputs": [
						{
							"internalType": "uint256",
							"name": "newFeeRate",
							"type": "uint256"
						}
					],
					"name": "updateFeeRate",
					"outputs": [],
					"stateMutability": "nonpayable",
					"type": "function"
				}
			],
			"devdoc": {
				"kind": "dev",
				"methods": {},
				"version": 1
			},
			"evm": {
				"assembly": "    /* \"NFT_market_contract.sol\":345:9552  contract MarketContract is Imarket {... */\n  mstore(0x40, 0x80)\n    /* \"NFT_market_contract.sol\":928:929  2 */\n  0x02\n    /* \"NFT_market_contract.sol\":902:929  uint256 private feeRate = 2 */\n  dup1\n  sstore\n    /* \"NFT_market_contract.sol\":1109:1170  constructor(address _owner) {... */\n  callvalue\n  dup1\n  iszero\n  tag_1\n  jumpi\n  0x00\n  dup1\n  revert\ntag_1:\n  pop\n  mload(0x40)\n  sub(codesize, bytecodeSize)\n  dup1\n  bytecodeSize\n  dup4\n  codecopy\n  dup2\n  dup2\n  add\n  0x40\n  mstore\n  dup2\n  add\n  swap1\n  tag_2\n  swap2\n  swap1\n  tag_3\n  jump\t// in\ntag_2:\n    /* \"NFT_market_contract.sol\":1156:1162  _owner */\n  dup1\n    /* \"NFT_market_contract.sol\":1148:1153  owner */\n  0x03\n  0x00\n    /* \"NFT_market_contract.sol\":1148:1162  owner = _owner */\n  0x0100\n  exp\n  dup2\n  sload\n  dup2\n  0xffffffffffffffffffffffffffffffffffffffff\n  mul\n  not\n  and\n  swap1\n  dup4\n  0xffffffffffffffffffffffffffffffffffffffff\n  and\n  mul\n  or\n  swap1\n  sstore\n  pop\n    /* \"NFT_market_contract.sol\":1109:1170  constructor(address _owner) {... */\n  pop\n    /* \"NFT_market_contract.sol\":345:9552  contract MarketContract is Imarket {... */\n  jump(tag_6)\n    /* \"#utility.yul\":88:205   */\ntag_8:\n    /* \"#utility.yul\":197:198   */\n  0x00\n    /* \"#utility.yul\":194:195   */\n  dup1\n    /* \"#utility.yul\":187:199   */\n  revert\n    /* \"#utility.yul\":334:460   */\ntag_10:\n    /* \"#utility.yul\":371:378   */\n  0x00\n    /* \"#utility.yul\":411:453   */\n  0xffffffffffffffffffffffffffffffffffffffff\n    /* \"#utility.yul\":404:409   */\n  dup3\n    /* \"#utility.yul\":400:454   */\n  and\n    /* \"#utility.yul\":389:454   */\n  swap1\n  pop\n    /* \"#utility.yul\":334:460   */\n  swap2\n  swap1\n  pop\n  jump\t// out\n    /* \"#utility.yul\":466:562   */\ntag_11:\n    /* \"#utility.yul\":503:510   */\n  0x00\n    /* \"#utility.yul\":532:556   */\n  tag_20\n    /* \"#utility.yul\":550:555   */\n  dup3\n    /* \"#utility.yul\":532:556   */\n  tag_10\n  jump\t// in\ntag_20:\n    /* \"#utility.yul\":521:556   */\n  swap1\n  pop\n    /* \"#utility.yul\":466:562   */\n  swap2\n  swap1\n  pop\n  jump\t// out\n    /* \"#utility.yul\":568:690   */\ntag_12:\n    /* \"#utility.yul\":641:665   */\n  tag_22\n    /* \"#utility.yul\":659:664   */\n  dup2\n    /* \"#utility.yul\":641:665   */\n  tag_11\n  jump\t// in\ntag_22:\n    /* \"#utility.yul\":634:639   */\n  dup2\n    /* \"#utility.yul\":631:666   */\n  eq\n    /* \"#utility.yul\":621:684   */\n  tag_23\n  jumpi\n    /* \"#utility.yul\":680:681   */\n  0x00\n    /* \"#utility.yul\":677:678   */\n  dup1\n    /* \"#utility.yul\":670:682   */\n  revert\n    /* \"#utility.yul\":621:684   */\ntag_23:\n    /* \"#utility.yul\":568:690   */\n  pop\n  jump\t// out\n    /* \"#utility.yul\":696:839   */\ntag_13:\n    /* \"#utility.yul\":753:758   */\n  0x00\n    /* \"#utility.yul\":784:790   */\n  dup2\n    /* \"#utility.yul\":778:791   */\n  mload\n    /* \"#utility.yul\":769:791   */\n  swap1\n  pop\n    /* \"#utility.yul\":800:833   */\n  tag_25\n    /* \"#utility.yul\":827:832   */\n  dup2\n    /* \"#utility.yul\":800:833   */\n  tag_12\n  jump\t// in\ntag_25:\n    /* \"#utility.yul\":696:839   */\n  swap3\n  swap2\n  pop\n  pop\n  jump\t// out\n    /* \"#utility.yul\":845:1196   */\ntag_3:\n    /* \"#utility.yul\":915:921   */\n  0x00\n    /* \"#utility.yul\":964:966   */\n  0x20\n    /* \"#utility.yul\":952:961   */\n  dup3\n    /* \"#utility.yul\":943:950   */\n  dup5\n    /* \"#utility.yul\":939:962   */\n  sub\n    /* \"#utility.yul\":935:967   */\n  slt\n    /* \"#utility.yul\":932:1051   */\n  iszero\n  tag_27\n  jumpi\n    /* \"#utility.yul\":970:1049   */\n  tag_28\n  tag_8\n  jump\t// in\ntag_28:\n    /* \"#utility.yul\":932:1051   */\ntag_27:\n    /* \"#utility.yul\":1090:1091   */\n  0x00\n    /* \"#utility.yul\":1115:1179   */\n  tag_29\n    /* \"#utility.yul\":1171:1178   */\n  dup5\n    /* \"#utility.yul\":1162:1168   */\n  dup3\n    /* \"#utility.yul\":1151:1160   */\n  dup6\n    /* \"#utility.yul\":1147:1169   */\n  add\n    /* \"#utility.yul\":1115:1179   */\n  tag_13\n  jump\t// in\ntag_29:\n    /* \"#utility.yul\":1105:1179   */\n  swap2\n  pop\n    /* \"#utility.yul\":1061:1189   */\n  pop\n    /* \"#utility.yul\":845:1196   */\n  swap3\n  swap2\n  pop\n  pop\n  jump\t// out\n    /* \"NFT_market_contract.sol\":345:9552  contract MarketContract is Imarket {... */\ntag_6:\n  dataSize(sub_0)\n  dup1\n  dataOffset(sub_0)\n  0x00\n  codecopy\n  0x00\n  return\nstop\n\nsub_0: assembly {\n        /* \"NFT_market_contract.sol\":345:9552  contract MarketContract is Imarket {... */\n      mstore(0x40, 0x80)\n      jumpi(tag_1, lt(calldatasize, 0x04))\n      shr(0xe0, calldataload(0x00))\n      dup1\n      0x7b84fda5\n      gt\n      tag_10\n      jumpi\n      dup1\n      0x7b84fda5\n      eq\n      tag_6\n      jumpi\n      dup1\n      0x84e5eed0\n      eq\n      tag_7\n      jumpi\n      dup1\n      0xc2a1d6c9\n      eq\n      tag_8\n      jumpi\n      dup1\n      0xc465db0a\n      eq\n      tag_9\n      jumpi\n      jump(tag_1)\n    tag_10:\n      dup1\n      0x07e4ac72\n      eq\n      tag_2\n      jumpi\n      dup1\n      0x1b5ea502\n      eq\n      tag_3\n      jumpi\n      dup1\n      0x38813781\n      eq\n      tag_4\n      jumpi\n      dup1\n      0x6aae5cda\n      eq\n      tag_5\n      jumpi\n    tag_1:\n      0x00\n      dup1\n      revert\n        /* \"NFT_market_contract.sol\":2131:2268  function setMall(address _mall) public {... */\n    tag_2:\n      callvalue\n      dup1\n      iszero\n      tag_11\n      jumpi\n      0x00\n      dup1\n      revert\n    tag_11:\n      pop\n      tag_12\n      0x04\n      dup1\n      calldatasize\n      sub\n      dup2\n      add\n      swap1\n      tag_13\n      swap2\n      swap1\n      tag_14\n      jump\t// in\n    tag_13:\n      tag_15\n      jump\t// in\n    tag_12:\n      stop\n        /* \"NFT_market_contract.sol\":2611:2762  function CancelSellOrder(... */\n    tag_3:\n      callvalue\n      dup1\n      iszero\n      tag_16\n      jumpi\n      0x00\n      dup1\n      revert\n    tag_16:\n      pop\n      tag_17\n      0x04\n      dup1\n      calldatasize\n      sub\n      dup2\n      add\n      swap1\n      tag_18\n      swap2\n      swap1\n      tag_19\n      jump\t// in\n    tag_18:\n      tag_20\n      jump\t// in\n    tag_17:\n      stop\n        /* \"NFT_market_contract.sol\":3404:7085  function matchOrder(... */\n    tag_4:\n      tag_21\n      0x04\n      dup1\n      calldatasize\n      sub\n      dup2\n      add\n      swap1\n      tag_22\n      swap2\n      swap1\n      tag_23\n      jump\t// in\n    tag_22:\n      tag_24\n      jump\t// in\n    tag_21:\n      stop\n        /* \"NFT_market_contract.sol\":7762:8497  function approveCollection(address collectionAddress) public {... */\n    tag_5:\n      callvalue\n      dup1\n      iszero\n      tag_25\n      jumpi\n      0x00\n      dup1\n      revert\n    tag_25:\n      pop\n      tag_26\n      0x04\n      dup1\n      calldatasize\n      sub\n      dup2\n      add\n      swap1\n      tag_27\n      swap2\n      swap1\n      tag_14\n      jump\t// in\n    tag_27:\n      tag_28\n      jump\t// in\n    tag_26:\n      stop\n        /* \"NFT_market_contract.sol\":1710:1958  function updateFeeRate(uint256 newFeeRate) public {... */\n    tag_6:\n      callvalue\n      dup1\n      iszero\n      tag_29\n      jumpi\n      0x00\n      dup1\n      revert\n    tag_29:\n      pop\n      tag_30\n      0x04\n      dup1\n      calldatasize\n      sub\n      dup2\n      add\n      swap1\n      tag_31\n      swap2\n      swap1\n      tag_32\n      jump\t// in\n    tag_31:\n      tag_33\n      jump\t// in\n    tag_30:\n      stop\n        /* \"NFT_market_contract.sol\":1986:2071  function getFeeRate() public view returns (uint256) {... */\n    tag_7:\n      callvalue\n      dup1\n      iszero\n      tag_34\n      jumpi\n      0x00\n      dup1\n      revert\n    tag_34:\n      pop\n      tag_35\n      tag_36\n      jump\t// in\n    tag_35:\n      mload(0x40)\n      tag_37\n      swap2\n      swap1\n      tag_38\n      jump\t// in\n    tag_37:\n      mload(0x40)\n      dup1\n      swap2\n      sub\n      swap1\n      return\n        /* \"NFT_market_contract.sol\":1205:1668  function createProxyWallet() public {... */\n    tag_8:\n      callvalue\n      dup1\n      iszero\n      tag_39\n      jumpi\n      0x00\n      dup1\n      revert\n    tag_39:\n      pop\n      tag_40\n      tag_41\n      jump\t// in\n    tag_40:\n      stop\n        /* \"NFT_market_contract.sol\":2318:2435  function getProxyWallet(address user) public view returns (address) {... */\n    tag_9:\n      callvalue\n      dup1\n      iszero\n      tag_42\n      jumpi\n      0x00\n      dup1\n      revert\n    tag_42:\n      pop\n      tag_43\n      0x04\n      dup1\n      calldatasize\n      sub\n      dup2\n      add\n      swap1\n      tag_44\n      swap2\n      swap1\n      tag_14\n      jump\t// in\n    tag_44:\n      tag_45\n      jump\t// in\n    tag_43:\n      mload(0x40)\n      tag_46\n      swap2\n      swap1\n      tag_47\n      jump\t// in\n    tag_46:\n      mload(0x40)\n      dup1\n      swap2\n      sub\n      swap1\n      return\n        /* \"NFT_market_contract.sol\":2131:2268  function setMall(address _mall) public {... */\n    tag_15:\n        /* \"NFT_market_contract.sol\":2203:2208  owner */\n      0x03\n      0x00\n      swap1\n      sload\n      swap1\n      0x0100\n      exp\n      swap1\n      div\n      0xffffffffffffffffffffffffffffffffffffffff\n      and\n        /* \"NFT_market_contract.sol\":2189:2208  msg.sender == owner */\n      0xffffffffffffffffffffffffffffffffffffffff\n      and\n        /* \"NFT_market_contract.sol\":2189:2199  msg.sender */\n      caller\n        /* \"NFT_market_contract.sol\":2189:2208  msg.sender == owner */\n      0xffffffffffffffffffffffffffffffffffffffff\n      and\n      eq\n        /* \"NFT_market_contract.sol\":2181:2237  require(msg.sender == owner, \"only owner can call this\") */\n      tag_49\n      jumpi\n      mload(0x40)\n      0x08c379a000000000000000000000000000000000000000000000000000000000\n      dup2\n      mstore\n      0x04\n      add\n      tag_50\n      swap1\n      tag_51\n      jump\t// in\n    tag_50:\n      mload(0x40)\n      dup1\n      swap2\n      sub\n      swap1\n      revert\n    tag_49:\n        /* \"NFT_market_contract.sol\":2255:2260  _mall */\n      dup1\n        /* \"NFT_market_contract.sol\":2248:2252  mall */\n      0x01\n      0x00\n        /* \"NFT_market_contract.sol\":2248:2260  mall = _mall */\n      0x0100\n      exp\n      dup2\n      sload\n      dup2\n      0xffffffffffffffffffffffffffffffffffffffff\n      mul\n      not\n      and\n      swap1\n      dup4\n      0xffffffffffffffffffffffffffffffffffffffff\n      and\n      mul\n      or\n      swap1\n      sstore\n      pop\n        /* \"NFT_market_contract.sol\":2131:2268  function setMall(address _mall) public {... */\n      pop\n      jump\t// out\n        /* \"NFT_market_contract.sol\":2611:2762  function CancelSellOrder(... */\n    tag_20:\n        /* \"NFT_market_contract.sol\":2698:2707  sellOrder */\n      dup1\n        /* \"NFT_market_contract.sol\":2698:2714  sellOrder.seller */\n      0x00\n      add\n      mload\n        /* \"NFT_market_contract.sol\":2538:2544  seller */\n      dup1\n        /* \"NFT_market_contract.sol\":2524:2544  msg.sender == seller */\n      0xffffffffffffffffffffffffffffffffffffffff\n      and\n        /* \"NFT_market_contract.sol\":2524:2534  msg.sender */\n      caller\n        /* \"NFT_market_contract.sol\":2524:2544  msg.sender == seller */\n      0xffffffffffffffffffffffffffffffffffffffff\n      and\n      eq\n        /* \"NFT_market_contract.sol\":2516:2583  require(msg.sender == seller, \"Only seller can call this function\") */\n      tag_53\n      jumpi\n      mload(0x40)\n      0x08c379a000000000000000000000000000000000000000000000000000000000\n      dup2\n      mstore\n      0x04\n      add\n      tag_54\n      swap1\n      tag_55\n      jump\t// in\n    tag_54:\n      mload(0x40)\n      dup1\n      swap2\n      sub\n      swap1\n      revert\n    tag_53:\n        /* \"NFT_market_contract.sol\":2727:2754  _cancelSellOrder(sellOrder) */\n      tag_57\n        /* \"NFT_market_contract.sol\":2744:2753  sellOrder */\n      dup3\n        /* \"NFT_market_contract.sol\":2727:2743  _cancelSellOrder */\n      tag_58\n        /* \"NFT_market_contract.sol\":2727:2754  _cancelSellOrder(sellOrder) */\n      jump\t// in\n    tag_57:\n        /* \"NFT_market_contract.sol\":2611:2762  function CancelSellOrder(... */\n      pop\n      pop\n      jump\t// out\n        /* \"NFT_market_contract.sol\":3404:7085  function matchOrder(... */\n    tag_24:\n        /* \"NFT_market_contract.sol\":3794:3820  SellOrder memory sellOrder */\n      0x00\n        /* \"NFT_market_contract.sol\":3823:4006  SellOrder(... */\n      mload(0x40)\n      dup1\n      0xe0\n      add\n      0x40\n      mstore\n      dup1\n        /* \"NFT_market_contract.sol\":3847:3853  seller */\n      dup10\n        /* \"NFT_market_contract.sol\":3823:4006  SellOrder(... */\n      0xffffffffffffffffffffffffffffffffffffffff\n      and\n      dup2\n      mstore\n      0x20\n      add\n        /* \"NFT_market_contract.sol\":3868:3878  contractID */\n      dup9\n        /* \"NFT_market_contract.sol\":3823:4006  SellOrder(... */\n      0xffffffffffffffffffffffffffffffffffffffff\n      and\n      dup2\n      mstore\n      0x20\n      add\n        /* \"NFT_market_contract.sol\":3893:3900  tokenID */\n      dup8\n        /* \"NFT_market_contract.sol\":3823:4006  SellOrder(... */\n      dup2\n      mstore\n      0x20\n      add\n        /* \"NFT_market_contract.sol\":3915:3920  price */\n      dup7\n        /* \"NFT_market_contract.sol\":3823:4006  SellOrder(... */\n      dup2\n      mstore\n      0x20\n      add\n        /* \"NFT_market_contract.sol\":3935:3944  signature */\n      dup6\n        /* \"NFT_market_contract.sol\":3823:4006  SellOrder(... */\n      dup2\n      mstore\n      0x20\n      add\n        /* \"NFT_market_contract.sol\":3959:3973  expirationTime */\n      dup5\n        /* \"NFT_market_contract.sol\":3823:4006  SellOrder(... */\n      dup2\n      mstore\n      0x20\n      add\n        /* \"NFT_market_contract.sol\":3988:3995  orderID */\n      dup4\n        /* \"NFT_market_contract.sol\":3823:4006  SellOrder(... */\n      dup2\n      mstore\n      pop\n        /* \"NFT_market_contract.sol\":3794:4006  SellOrder memory sellOrder = SellOrder(... */\n      swap1\n      pop\n        /* \"NFT_market_contract.sol\":4017:4031  uint256 _value */\n      0x00\n        /* \"NFT_market_contract.sol\":4034:4043  msg.value */\n      callvalue\n        /* \"NFT_market_contract.sol\":4017:4043  uint256 _value = msg.value */\n      swap1\n      pop\n        /* \"NFT_market_contract.sol\":4054:4065  uint256 fee */\n      0x00\n        /* \"NFT_market_contract.sol\":4068:4105  sellOrder.price.mul(feeRate).div(100) */\n      tag_60\n        /* \"NFT_market_contract.sol\":4101:4104  100 */\n      0x64\n        /* \"NFT_market_contract.sol\":4068:4096  sellOrder.price.mul(feeRate) */\n      tag_61\n        /* \"NFT_market_contract.sol\":4088:4095  feeRate */\n      sload(0x02)\n        /* \"NFT_market_contract.sol\":4068:4077  sellOrder */\n      dup7\n        /* \"NFT_market_contract.sol\":4068:4083  sellOrder.price */\n      0x60\n      add\n      mload\n        /* \"NFT_market_contract.sol\":4068:4087  sellOrder.price.mul */\n      tag_62\n      swap1\n        /* \"NFT_market_contract.sol\":4068:4096  sellOrder.price.mul(feeRate) */\n      swap2\n      swap1\n      0xffffffff\n      and\n      jump\t// in\n    tag_61:\n        /* \"NFT_market_contract.sol\":4068:4100  sellOrder.price.mul(feeRate).div */\n      tag_63\n      swap1\n        /* \"NFT_market_contract.sol\":4068:4105  sellOrder.price.mul(feeRate).div(100) */\n      swap2\n      swap1\n      0xffffffff\n      and\n      jump\t// in\n    tag_60:\n        /* \"NFT_market_contract.sol\":4054:4105  uint256 fee = sellOrder.price.mul(feeRate).div(100) */\n      swap1\n      pop\n        /* \"NFT_market_contract.sol\":4177:4432  verifySignature(... */\n      tag_64\n        /* \"NFT_market_contract.sol\":4211:4220  sellOrder */\n      dup4\n        /* \"NFT_market_contract.sol\":4211:4227  sellOrder.seller */\n      0x00\n      add\n      mload\n        /* \"NFT_market_contract.sol\":4246:4255  sellOrder */\n      dup5\n        /* \"NFT_market_contract.sol\":4246:4266  sellOrder.contractID */\n      0x20\n      add\n      mload\n        /* \"NFT_market_contract.sol\":4285:4294  sellOrder */\n      dup6\n        /* \"NFT_market_contract.sol\":4285:4302  sellOrder.tokenID */\n      0x40\n      add\n      mload\n        /* \"NFT_market_contract.sol\":4321:4330  sellOrder */\n      dup7\n        /* \"NFT_market_contract.sol\":4321:4336  sellOrder.price */\n      0x60\n      add\n      mload\n        /* \"NFT_market_contract.sol\":4355:4364  sellOrder */\n      dup8\n        /* \"NFT_market_contract.sol\":4355:4374  sellOrder.signature */\n      0x80\n      add\n      mload\n        /* \"NFT_market_contract.sol\":4393:4402  sellOrder */\n      dup9\n        /* \"NFT_market_contract.sol\":4393:4417  sellOrder.expirationTime */\n      0xa0\n      add\n      mload\n        /* \"NFT_market_contract.sol\":4177:4192  verifySignature */\n      tag_65\n        /* \"NFT_market_contract.sol\":4177:4432  verifySignature(... */\n      jump\t// in\n    tag_64:\n        /* \"NFT_market_contract.sol\":4155:4477  require(... */\n      tag_66\n      jumpi\n      mload(0x40)\n      0x08c379a000000000000000000000000000000000000000000000000000000000\n      dup2\n      mstore\n      0x04\n      add\n      tag_67\n      swap1\n      tag_68\n      jump\t// in\n    tag_67:\n      mload(0x40)\n      dup1\n      swap2\n      sub\n      swap1\n      revert\n    tag_66:\n        /* \"NFT_market_contract.sol\":4534:4557  address proxyWallet_Buy */\n      0x00\n        /* \"NFT_market_contract.sol\":4560:4577  userToProxyWallet */\n      0x04\n        /* \"NFT_market_contract.sol\":4560:4589  userToProxyWallet[msg.sender] */\n      0x00\n        /* \"NFT_market_contract.sol\":4578:4588  msg.sender */\n      caller\n        /* \"NFT_market_contract.sol\":4560:4589  userToProxyWallet[msg.sender] */\n      0xffffffffffffffffffffffffffffffffffffffff\n      and\n      0xffffffffffffffffffffffffffffffffffffffff\n      and\n      dup2\n      mstore\n      0x20\n      add\n      swap1\n      dup2\n      mstore\n      0x20\n      add\n      0x00\n      keccak256\n      0x00\n      swap1\n      sload\n      swap1\n      0x0100\n      exp\n      swap1\n      div\n      0xffffffffffffffffffffffffffffffffffffffff\n      and\n        /* \"NFT_market_contract.sol\":4534:4589  address proxyWallet_Buy = userToProxyWallet[msg.sender] */\n      swap1\n      pop\n        /* \"NFT_market_contract.sol\":4600:4624  address proxyWallet_Sell */\n      0x00\n        /* \"NFT_market_contract.sol\":4627:4644  userToProxyWallet */\n      0x04\n        /* \"NFT_market_contract.sol\":4627:4662  userToProxyWallet[sellOrder.seller] */\n      0x00\n        /* \"NFT_market_contract.sol\":4645:4654  sellOrder */\n      dup7\n        /* \"NFT_market_contract.sol\":4645:4661  sellOrder.seller */\n      0x00\n      add\n      mload\n        /* \"NFT_market_contract.sol\":4627:4662  userToProxyWallet[sellOrder.seller] */\n      0xffffffffffffffffffffffffffffffffffffffff\n      and\n      0xffffffffffffffffffffffffffffffffffffffff\n      and\n      dup2\n      mstore\n      0x20\n      add\n      swap1\n      dup2\n      mstore\n      0x20\n      add\n      0x00\n      keccak256\n      0x00\n      swap1\n      sload\n      swap1\n      0x0100\n      exp\n      swap1\n      div\n      0xffffffffffffffffffffffffffffffffffffffff\n      and\n        /* \"NFT_market_contract.sol\":4600:4662  address proxyWallet_Sell = userToProxyWallet[sellOrder.seller] */\n      swap1\n      pop\n        /* \"NFT_market_contract.sol\":4738:4739  0 */\n      0x00\n        /* \"NFT_market_contract.sol\":4697:4740  userToProxyWallet[msg.sender] != address(0) */\n      0xffffffffffffffffffffffffffffffffffffffff\n      and\n        /* \"NFT_market_contract.sol\":4697:4714  userToProxyWallet */\n      0x04\n        /* \"NFT_market_contract.sol\":4697:4726  userToProxyWallet[msg.sender] */\n      0x00\n        /* \"NFT_market_contract.sol\":4715:4725  msg.sender */\n      caller\n        /* \"NFT_market_contract.sol\":4697:4726  userToProxyWallet[msg.sender] */\n      0xffffffffffffffffffffffffffffffffffffffff\n      and\n      0xffffffffffffffffffffffffffffffffffffffff\n      and\n      dup2\n      mstore\n      0x20\n      add\n      swap1\n      dup2\n      mstore\n      0x20\n      add\n      0x00\n      keccak256\n      0x00\n      swap1\n      sload\n      swap1\n      0x0100\n      exp\n      swap1\n      div\n      0xffffffffffffffffffffffffffffffffffffffff\n      and\n        /* \"NFT_market_contract.sol\":4697:4740  userToProxyWallet[msg.sender] != address(0) */\n      0xffffffffffffffffffffffffffffffffffffffff\n      and\n      sub\n        /* \"NFT_market_contract.sol\":4675:4790  require(... */\n      tag_69\n      jumpi\n      mload(0x40)\n      0x08c379a000000000000000000000000000000000000000000000000000000000\n      dup2\n      mstore\n      0x04\n      add\n      tag_70\n      swap1\n      tag_71\n      jump\t// in\n    tag_70:\n      mload(0x40)\n      dup1\n      swap2\n      sub\n      swap1\n      revert\n    tag_69:\n        /* \"NFT_market_contract.sol\":4870:4871  0 */\n      0x00\n        /* \"NFT_market_contract.sol\":4823:4872  userToProxyWallet[sellOrder.seller] != address(0) */\n      0xffffffffffffffffffffffffffffffffffffffff\n      and\n        /* \"NFT_market_contract.sol\":4823:4840  userToProxyWallet */\n      0x04\n        /* \"NFT_market_contract.sol\":4823:4858  userToProxyWallet[sellOrder.seller] */\n      0x00\n        /* \"NFT_market_contract.sol\":4841:4850  sellOrder */\n      dup8\n        /* \"NFT_market_contract.sol\":4841:4857  sellOrder.seller */\n      0x00\n      add\n      mload\n        /* \"NFT_market_contract.sol\":4823:4858  userToProxyWallet[sellOrder.seller] */\n      0xffffffffffffffffffffffffffffffffffffffff\n      and\n      0xffffffffffffffffffffffffffffffffffffffff\n      and\n      dup2\n      mstore\n      0x20\n      add\n      swap1\n      dup2\n      mstore\n      0x20\n      add\n      0x00\n      keccak256\n      0x00\n      swap1\n      sload\n      swap1\n      0x0100\n      exp\n      swap1\n      div\n      0xffffffffffffffffffffffffffffffffffffffff\n      and\n        /* \"NFT_market_contract.sol\":4823:4872  userToProxyWallet[sellOrder.seller] != address(0) */\n      0xffffffffffffffffffffffffffffffffffffffff\n      and\n      sub\n        /* \"NFT_market_contract.sol\":4801:4922  require(... */\n      tag_72\n      jumpi\n      mload(0x40)\n      0x08c379a000000000000000000000000000000000000000000000000000000000\n      dup2\n      mstore\n      0x04\n      add\n      tag_73\n      swap1\n      tag_71\n      jump\t// in\n    tag_73:\n      mload(0x40)\n      dup1\n      swap2\n      sub\n      swap1\n      revert\n    tag_72:\n        /* \"NFT_market_contract.sol\":5090:5099  sellOrder */\n      dup5\n        /* \"NFT_market_contract.sol\":5090:5106  sellOrder.seller */\n      0x00\n      add\n      mload\n        /* \"NFT_market_contract.sol\":5013:5106  IERC721(sellOrder.contractID).ownerOf(sellOrder.tokenID) ==... */\n      0xffffffffffffffffffffffffffffffffffffffff\n      and\n        /* \"NFT_market_contract.sol\":5021:5030  sellOrder */\n      dup6\n        /* \"NFT_market_contract.sol\":5021:5041  sellOrder.contractID */\n      0x20\n      add\n      mload\n        /* \"NFT_market_contract.sol\":5013:5050  IERC721(sellOrder.contractID).ownerOf */\n      0xffffffffffffffffffffffffffffffffffffffff\n      and\n      0x6352211e\n        /* \"NFT_market_contract.sol\":5051:5060  sellOrder */\n      dup8\n        /* \"NFT_market_contract.sol\":5051:5068  sellOrder.tokenID */\n      0x40\n      add\n      mload\n        /* \"NFT_market_contract.sol\":5013:5069  IERC721(sellOrder.contractID).ownerOf(sellOrder.tokenID) */\n      mload(0x40)\n      dup3\n      0xffffffff\n      and\n      0xe0\n      shl\n      dup2\n      mstore\n      0x04\n      add\n      tag_74\n      swap2\n      swap1\n      tag_38\n      jump\t// in\n    tag_74:\n      0x20\n      mload(0x40)\n      dup1\n      dup4\n      sub\n      dup2\n      dup7\n      gas\n      staticcall\n      iszero\n      dup1\n      iszero\n      tag_76\n      jumpi\n      returndatasize\n      0x00\n      dup1\n      returndatacopy\n      revert(0x00, returndatasize)\n    tag_76:\n      pop\n      pop\n      pop\n      pop\n      mload(0x40)\n      returndatasize\n      not(0x1f)\n      0x1f\n      dup3\n      add\n      and\n      dup3\n      add\n      dup1\n      0x40\n      mstore\n      pop\n      dup2\n      add\n      swap1\n      tag_77\n      swap2\n      swap1\n      tag_78\n      jump\t// in\n    tag_77:\n        /* \"NFT_market_contract.sol\":5013:5106  IERC721(sellOrder.contractID).ownerOf(sellOrder.tokenID) ==... */\n      0xffffffffffffffffffffffffffffffffffffffff\n      and\n      eq\n        /* \"NFT_market_contract.sol\":4991:5171  require(... */\n      tag_79\n      jumpi\n      mload(0x40)\n      0x08c379a000000000000000000000000000000000000000000000000000000000\n      dup2\n      mstore\n      0x04\n      add\n      tag_80\n      swap1\n      tag_81\n      jump\t// in\n    tag_80:\n      mload(0x40)\n      dup1\n      swap2\n      sub\n      swap1\n      revert\n    tag_79:\n        /* \"NFT_market_contract.sol\":5242:5251  sellOrder */\n      dup5\n        /* \"NFT_market_contract.sol\":5242:5266  sellOrder.expirationTime */\n      0xa0\n      add\n      mload\n        /* \"NFT_market_contract.sol\":5224:5239  block.timestamp */\n      timestamp\n        /* \"NFT_market_contract.sol\":5224:5266  block.timestamp > sellOrder.expirationTime */\n      gt\n        /* \"NFT_market_contract.sol\":5220:5536  if (block.timestamp > sellOrder.expirationTime) {... */\n      iszero\n      tag_82\n      jumpi\n        /* \"NFT_market_contract.sol\":5283:5310  _cancelSellOrder(sellOrder) */\n      tag_83\n        /* \"NFT_market_contract.sol\":5300:5309  sellOrder */\n      dup6\n        /* \"NFT_market_contract.sol\":5283:5299  _cancelSellOrder */\n      tag_58\n        /* \"NFT_market_contract.sol\":5283:5310  _cancelSellOrder(sellOrder) */\n      jump\t// in\n    tag_83:\n        /* \"NFT_market_contract.sol\":5396:5405  sellOrder */\n      dup5\n        /* \"NFT_market_contract.sol\":5396:5416  sellOrder.contractID */\n      0x20\n      add\n      mload\n        /* \"NFT_market_contract.sol\":5330:5503  OrderExpired(... */\n      0xffffffffffffffffffffffffffffffffffffffff\n      and\n        /* \"NFT_market_contract.sol\":5361:5370  sellOrder */\n      dup6\n        /* \"NFT_market_contract.sol\":5361:5377  sellOrder.seller */\n      0x00\n      add\n      mload\n        /* \"NFT_market_contract.sol\":5330:5503  OrderExpired(... */\n      0xffffffffffffffffffffffffffffffffffffffff\n      and\n      0x68138f0ee854a322025bc4fdf83bf151264d42cbc5930a3afc396a82980028d6\n        /* \"NFT_market_contract.sol\":5435:5444  sellOrder */\n      dup8\n        /* \"NFT_market_contract.sol\":5435:5452  sellOrder.orderID */\n      0xc0\n      add\n      mload\n        /* \"NFT_market_contract.sol\":5471:5480  sellOrder */\n      dup9\n        /* \"NFT_market_contract.sol\":5471:5488  sellOrder.tokenID */\n      0x40\n      add\n      mload\n        /* \"NFT_market_contract.sol\":5330:5503  OrderExpired(... */\n      mload(0x40)\n      tag_84\n      swap3\n      swap2\n      swap1\n      tag_85\n      jump\t// in\n    tag_84:\n      mload(0x40)\n      dup1\n      swap2\n      sub\n      swap1\n      log3\n        /* \"NFT_market_contract.sol\":5518:5525  return; */\n      pop\n      pop\n      pop\n      pop\n      pop\n      jump(tag_59)\n        /* \"NFT_market_contract.sol\":5220:5536  if (block.timestamp > sellOrder.expirationTime) {... */\n    tag_82:\n        /* \"NFT_market_contract.sol\":5624:5636  bytes32 Hash */\n      0x00\n        /* \"NFT_market_contract.sol\":5698:5707  sellOrder */\n      dup6\n        /* \"NFT_market_contract.sol\":5698:5718  sellOrder.contractID */\n      0x20\n      add\n      mload\n        /* \"NFT_market_contract.sol\":5737:5746  sellOrder */\n      dup7\n        /* \"NFT_market_contract.sol\":5737:5754  sellOrder.tokenID */\n      0x40\n      add\n      mload\n        /* \"NFT_market_contract.sol\":5773:5782  sellOrder */\n      dup8\n        /* \"NFT_market_contract.sol\":5773:5788  sellOrder.price */\n      0x60\n      add\n      mload\n        /* \"NFT_market_contract.sol\":5807:5816  sellOrder */\n      dup9\n        /* \"NFT_market_contract.sol\":5807:5831  sellOrder.expirationTime */\n      0xa0\n      add\n      mload\n        /* \"NFT_market_contract.sol\":5850:5859  sellOrder */\n      dup10\n        /* \"NFT_market_contract.sol\":5850:5869  sellOrder.signature */\n      0x80\n      add\n      mload\n        /* \"NFT_market_contract.sol\":5663:5884  abi.encodePacked(... */\n      add(0x20, mload(0x40))\n      tag_86\n      swap6\n      swap5\n      swap4\n      swap3\n      swap2\n      swap1\n      tag_87\n      jump\t// in\n    tag_86:\n      mload(0x40)\n      0x20\n      dup2\n      dup4\n      sub\n      sub\n      dup2\n      mstore\n      swap1\n      0x40\n      mstore\n        /* \"NFT_market_contract.sol\":5639:5895  keccak256(... */\n      dup1\n      mload\n      swap1\n      0x20\n      add\n      keccak256\n        /* \"NFT_market_contract.sol\":5624:5895  bytes32 Hash = keccak256(... */\n      swap1\n      pop\n        /* \"NFT_market_contract.sol\":5907:5919  bool isValid */\n      0x00\n        /* \"NFT_market_contract.sol\":5921:5939  bytes memory datas */\n      dup1\n        /* \"NFT_market_contract.sol\":5943:5959  proxyWallet_Sell */\n      dup4\n        /* \"NFT_market_contract.sol\":5943:5972  proxyWallet_Sell.delegatecall */\n      0xffffffffffffffffffffffffffffffffffffffff\n      and\n        /* \"NFT_market_contract.sol\":6036:6040  Hash */\n      dup4\n        /* \"NFT_market_contract.sol\":5987:6041  abi.encodeWithSignature(\"isOrderValid(bytes32)\", Hash) */\n      add(0x24, mload(0x40))\n      tag_88\n      swap2\n      swap1\n      tag_89\n      jump\t// in\n    tag_88:\n      mload(0x40)\n      0x20\n      dup2\n      dup4\n      sub\n      sub\n      dup2\n      mstore\n      swap1\n      0x40\n      mstore\n      and(not(0xffffffffffffffffffffffffffffffffffffffffffffffffffffffff), 0xf099462000000000000000000000000000000000000000000000000000000000)\n      0x20\n      dup3\n      add\n      dup1\n      mload\n      0xffffffffffffffffffffffffffffffffffffffffffffffffffffffff\n      dup4\n      dup2\n      dup4\n      and\n      or\n      dup4\n      mstore\n      pop\n      pop\n      pop\n      pop\n        /* \"NFT_market_contract.sol\":5943:6052  proxyWallet_Sell.delegatecall(... */\n      mload(0x40)\n      tag_90\n      swap2\n      swap1\n      tag_91\n      jump\t// in\n    tag_90:\n      0x00\n      mload(0x40)\n      dup1\n      dup4\n      sub\n      dup2\n      dup6\n      gas\n      delegatecall\n      swap2\n      pop\n      pop\n      returndatasize\n      dup1\n      0x00\n      dup2\n      eq\n      tag_94\n      jumpi\n      mload(0x40)\n      swap2\n      pop\n      and(add(returndatasize, 0x3f), not(0x1f))\n      dup3\n      add\n      0x40\n      mstore\n      returndatasize\n      dup3\n      mstore\n      returndatasize\n      0x00\n      0x20\n      dup5\n      add\n      returndatacopy\n      jump(tag_93)\n    tag_94:\n      0x60\n      swap2\n      pop\n    tag_93:\n      pop\n        /* \"NFT_market_contract.sol\":5906:6052  (bool isValid, bytes memory datas) = proxyWallet_Sell.delegatecall(... */\n      swap2\n      pop\n      swap2\n      pop\n        /* \"NFT_market_contract.sol\":6098:6115  bool isOrderValid */\n      0x00\n        /* \"NFT_market_contract.sol\":6129:6134  datas */\n      dup2\n        /* \"NFT_market_contract.sol\":6118:6143  abi.decode(datas, (bool)) */\n      dup1\n      0x20\n      add\n      swap1\n      mload\n      dup2\n      add\n      swap1\n      tag_95\n      swap2\n      swap1\n      tag_96\n      jump\t// in\n    tag_95:\n        /* \"NFT_market_contract.sol\":6098:6143  bool isOrderValid = abi.decode(datas, (bool)) */\n      swap1\n      pop\n        /* \"NFT_market_contract.sol\":6162:6169  isValid */\n      dup3\n        /* \"NFT_market_contract.sol\":6162:6186  isValid && !isOrderValid */\n      dup1\n      iszero\n      tag_97\n      jumpi\n      pop\n        /* \"NFT_market_contract.sol\":6174:6186  isOrderValid */\n      dup1\n        /* \"NFT_market_contract.sol\":6173:6186  !isOrderValid */\n      iszero\n        /* \"NFT_market_contract.sol\":6162:6186  isValid && !isOrderValid */\n    tag_97:\n        /* \"NFT_market_contract.sol\":6154:6209  require(isValid && !isOrderValid, \"Order is not valid\") */\n      tag_98\n      jumpi\n      mload(0x40)\n      0x08c379a000000000000000000000000000000000000000000000000000000000\n      dup2\n      mstore\n      0x04\n      add\n      tag_99\n      swap1\n      tag_100\n      jump\t// in\n    tag_99:\n      mload(0x40)\n      dup1\n      swap2\n      sub\n      swap1\n      revert\n    tag_98:\n        /* \"NFT_market_contract.sol\":6290:6302  bool success */\n      0x00\n        /* \"NFT_market_contract.sol\":6304:6321  bytes memory data */\n      dup1\n        /* \"NFT_market_contract.sol\":6325:6341  proxyWallet_Sell */\n      dup7\n        /* \"NFT_market_contract.sol\":6325:6346  proxyWallet_Sell.call */\n      0xffffffffffffffffffffffffffffffffffffffff\n      and\n        /* \"NFT_market_contract.sol\":6451:6460  sellOrder */\n      dup12\n        /* \"NFT_market_contract.sol\":6488:6491  fee */\n      dup11\n        /* \"NFT_market_contract.sol\":6479:6485  _value */\n      dup13\n        /* \"NFT_market_contract.sol\":6479:6491  _value - fee */\n      tag_101\n      swap2\n      swap1\n      tag_102\n      jump\t// in\n    tag_101:\n        /* \"NFT_market_contract.sol\":6361:6506  abi.encodeWithSignature(... */\n      add(0x24, mload(0x40))\n      tag_103\n      swap3\n      swap2\n      swap1\n      tag_104\n      jump\t// in\n    tag_103:\n      mload(0x40)\n      0x20\n      dup2\n      dup4\n      sub\n      sub\n      dup2\n      mstore\n      swap1\n      0x40\n      mstore\n      and(not(0xffffffffffffffffffffffffffffffffffffffffffffffffffffffff), 0x508c70ea00000000000000000000000000000000000000000000000000000000)\n      0x20\n      dup3\n      add\n      dup1\n      mload\n      0xffffffffffffffffffffffffffffffffffffffffffffffffffffffff\n      dup4\n      dup2\n      dup4\n      and\n      or\n      dup4\n      mstore\n      pop\n      pop\n      pop\n      pop\n        /* \"NFT_market_contract.sol\":6325:6517  proxyWallet_Sell.call(... */\n      mload(0x40)\n      tag_105\n      swap2\n      swap1\n      tag_91\n      jump\t// in\n    tag_105:\n      0x00\n      mload(0x40)\n      dup1\n      dup4\n      sub\n      dup2\n      0x00\n      dup7\n      gas\n      call\n      swap2\n      pop\n      pop\n      returndatasize\n      dup1\n      0x00\n      dup2\n      eq\n      tag_108\n      jumpi\n      mload(0x40)\n      swap2\n      pop\n      and(add(returndatasize, 0x3f), not(0x1f))\n      dup3\n      add\n      0x40\n      mstore\n      returndatasize\n      dup3\n      mstore\n      returndatasize\n      0x00\n      0x20\n      dup5\n      add\n      returndatacopy\n      jump(tag_107)\n    tag_108:\n      0x60\n      swap2\n      pop\n    tag_107:\n      pop\n        /* \"NFT_market_contract.sol\":6289:6517  (bool success, bytes memory data) = proxyWallet_Sell.call(... */\n      swap2\n      pop\n      swap2\n      pop\n        /* \"NFT_market_contract.sol\":6530:6545  bool Istransfer */\n      0x00\n        /* \"NFT_market_contract.sol\":6559:6563  data */\n      dup2\n        /* \"NFT_market_contract.sol\":6548:6572  abi.decode(data, (bool)) */\n      dup1\n      0x20\n      add\n      swap1\n      mload\n      dup2\n      add\n      swap1\n      tag_109\n      swap2\n      swap1\n      tag_96\n      jump\t// in\n    tag_109:\n        /* \"NFT_market_contract.sol\":6530:6572  bool Istransfer = abi.decode(data, (bool)) */\n      swap1\n      pop\n        /* \"NFT_market_contract.sol\":6587:6594  success */\n      dup3\n        /* \"NFT_market_contract.sol\":6587:6608  success && Istransfer */\n      dup1\n      iszero\n      tag_110\n      jumpi\n      pop\n        /* \"NFT_market_contract.sol\":6598:6608  Istransfer */\n      dup1\n        /* \"NFT_market_contract.sol\":6587:6608  success && Istransfer */\n    tag_110:\n        /* \"NFT_market_contract.sol\":6583:7078  if (success && Istransfer) {... */\n      iszero\n      tag_111\n      jumpi\n        /* \"NFT_market_contract.sol\":6625:6648  matchsuccess(sellOrder) */\n      tag_112\n        /* \"NFT_market_contract.sol\":6638:6647  sellOrder */\n      dup13\n        /* \"NFT_market_contract.sol\":6625:6637  matchsuccess */\n      tag_113\n        /* \"NFT_market_contract.sol\":6625:6648  matchsuccess(sellOrder) */\n      jump\t// in\n    tag_112:\n        /* \"NFT_market_contract.sol\":6704:6708  mall */\n      0x01\n      0x00\n      swap1\n      sload\n      swap1\n      0x0100\n      exp\n      swap1\n      div\n      0xffffffffffffffffffffffffffffffffffffffff\n      and\n        /* \"NFT_market_contract.sol\":6696:6718  payable(mall).transfer */\n      0xffffffffffffffffffffffffffffffffffffffff\n      and\n        /* \"NFT_market_contract.sol\":6696:6723  payable(mall).transfer(fee) */\n      0x08fc\n        /* \"NFT_market_contract.sol\":6719:6722  fee */\n      dup12\n        /* \"NFT_market_contract.sol\":6696:6723  payable(mall).transfer(fee) */\n      swap1\n      dup2\n      iszero\n      mul\n      swap1\n      mload(0x40)\n      0x00\n      mload(0x40)\n      dup1\n      dup4\n      sub\n      dup2\n      dup6\n      dup9\n      dup9\n      call\n      swap4\n      pop\n      pop\n      pop\n      pop\n      iszero\n      dup1\n      iszero\n      tag_115\n      jumpi\n      returndatasize\n      0x00\n      dup1\n      returndatacopy\n      revert(0x00, returndatasize)\n    tag_115:\n      pop\n        /* \"NFT_market_contract.sol\":6819:6828  sellOrder */\n      dup12\n        /* \"NFT_market_contract.sol\":6819:6835  sellOrder.seller */\n      0x00\n      add\n      mload\n        /* \"NFT_market_contract.sol\":6811:6841  payable(sellOrder.seller).send */\n      0xffffffffffffffffffffffffffffffffffffffff\n      and\n        /* \"NFT_market_contract.sol\":6811:6855  payable(sellOrder.seller).send(_value - fee) */\n      0x08fc\n        /* \"NFT_market_contract.sol\":6851:6854  fee */\n      dup12\n        /* \"NFT_market_contract.sol\":6842:6848  _value */\n      dup14\n        /* \"NFT_market_contract.sol\":6842:6854  _value - fee */\n      tag_116\n      swap2\n      swap1\n      tag_102\n      jump\t// in\n    tag_116:\n        /* \"NFT_market_contract.sol\":6811:6855  payable(sellOrder.seller).send(_value - fee) */\n      swap1\n      dup2\n      iszero\n      mul\n      swap1\n      mload(0x40)\n      0x00\n      mload(0x40)\n      dup1\n      dup4\n      sub\n      dup2\n      dup6\n      dup9\n      dup9\n      call\n      swap4\n      pop\n      pop\n      pop\n      pop\n        /* \"NFT_market_contract.sol\":6806:6986  if (!payable(sellOrder.seller).send(_value - fee)) {... */\n      tag_118\n      jumpi\n        /* \"NFT_market_contract.sol\":6884:6894  msg.sender */\n      caller\n        /* \"NFT_market_contract.sol\":6876:6904  payable(msg.sender).transfer */\n      0xffffffffffffffffffffffffffffffffffffffff\n      and\n        /* \"NFT_market_contract.sol\":6876:6918  payable(msg.sender).transfer(_value - fee) */\n      0x08fc\n        /* \"NFT_market_contract.sol\":6914:6917  fee */\n      dup12\n        /* \"NFT_market_contract.sol\":6905:6911  _value */\n      dup14\n        /* \"NFT_market_contract.sol\":6905:6917  _value - fee */\n      tag_119\n      swap2\n      swap1\n      tag_102\n      jump\t// in\n    tag_119:\n        /* \"NFT_market_contract.sol\":6876:6918  payable(msg.sender).transfer(_value - fee) */\n      swap1\n      dup2\n      iszero\n      mul\n      swap1\n      mload(0x40)\n      0x00\n      mload(0x40)\n      dup1\n      dup4\n      sub\n      dup2\n      dup6\n      dup9\n      dup9\n      call\n      swap4\n      pop\n      pop\n      pop\n      pop\n      iszero\n      dup1\n      iszero\n      tag_121\n      jumpi\n      returndatasize\n      0x00\n      dup1\n      returndatacopy\n      revert(0x00, returndatasize)\n    tag_121:\n      pop\n        /* \"NFT_market_contract.sol\":6945:6955  msg.sender */\n      caller\n        /* \"NFT_market_contract.sol\":6937:6965  payable(msg.sender).transfer */\n      0xffffffffffffffffffffffffffffffffffffffff\n      and\n        /* \"NFT_market_contract.sol\":6937:6970  payable(msg.sender).transfer(fee) */\n      0x08fc\n        /* \"NFT_market_contract.sol\":6966:6969  fee */\n      dup12\n        /* \"NFT_market_contract.sol\":6937:6970  payable(msg.sender).transfer(fee) */\n      swap1\n      dup2\n      iszero\n      mul\n      swap1\n      mload(0x40)\n      0x00\n      mload(0x40)\n      dup1\n      dup4\n      sub\n      dup2\n      dup6\n      dup9\n      dup9\n      call\n      swap4\n      pop\n      pop\n      pop\n      pop\n      iszero\n      dup1\n      iszero\n      tag_123\n      jumpi\n      returndatasize\n      0x00\n      dup1\n      returndatacopy\n      revert(0x00, returndatasize)\n    tag_123:\n      pop\n        /* \"NFT_market_contract.sol\":6806:6986  if (!payable(sellOrder.seller).send(_value - fee)) {... */\n    tag_118:\n        /* \"NFT_market_contract.sol\":6583:7078  if (success && Istransfer) {... */\n      jump(tag_124)\n    tag_111:\n        /* \"NFT_market_contract.sol\":7046:7066  matchfail(sellOrder) */\n      tag_125\n        /* \"NFT_market_contract.sol\":7056:7065  sellOrder */\n      dup13\n        /* \"NFT_market_contract.sol\":7046:7055  matchfail */\n      tag_126\n        /* \"NFT_market_contract.sol\":7046:7066  matchfail(sellOrder) */\n      jump\t// in\n    tag_125:\n        /* \"NFT_market_contract.sol\":6583:7078  if (success && Istransfer) {... */\n    tag_124:\n        /* \"NFT_market_contract.sol\":3750:7085  {... */\n      pop\n      pop\n      pop\n      pop\n      pop\n      pop\n      pop\n      pop\n      pop\n      pop\n      pop\n      pop\n        /* \"NFT_market_contract.sol\":3404:7085  function matchOrder(... */\n    tag_59:\n      pop\n      pop\n      pop\n      pop\n      pop\n      pop\n      pop\n      jump\t// out\n        /* \"NFT_market_contract.sol\":7762:8497  function approveCollection(address collectionAddress) public {... */\n    tag_28:\n        /* \"NFT_market_contract.sol\":7883:7884  0 */\n      0x00\n        /* \"NFT_market_contract.sol\":7842:7885  userToProxyWallet[msg.sender] != address(0) */\n      0xffffffffffffffffffffffffffffffffffffffff\n      and\n        /* \"NFT_market_contract.sol\":7842:7859  userToProxyWallet */\n      0x04\n        /* \"NFT_market_contract.sol\":7842:7871  userToProxyWallet[msg.sender] */\n      0x00\n        /* \"NFT_market_contract.sol\":7860:7870  msg.sender */\n      caller\n        /* \"NFT_market_contract.sol\":7842:7871  userToProxyWallet[msg.sender] */\n      0xffffffffffffffffffffffffffffffffffffffff\n      and\n      0xffffffffffffffffffffffffffffffffffffffff\n      and\n      dup2\n      mstore\n      0x20\n      add\n      swap1\n      dup2\n      mstore\n      0x20\n      add\n      0x00\n      keccak256\n      0x00\n      swap1\n      sload\n      swap1\n      0x0100\n      exp\n      swap1\n      div\n      0xffffffffffffffffffffffffffffffffffffffff\n      and\n        /* \"NFT_market_contract.sol\":7842:7885  userToProxyWallet[msg.sender] != address(0) */\n      0xffffffffffffffffffffffffffffffffffffffff\n      and\n      sub\n        /* \"NFT_market_contract.sol\":7834:7905  require(userToProxyWallet[msg.sender] != address(0), \"no proxy wallet\") */\n      tag_128\n      jumpi\n      mload(0x40)\n      0x08c379a000000000000000000000000000000000000000000000000000000000\n      dup2\n      mstore\n      0x04\n      add\n      tag_129\n      swap1\n      tag_130\n      jump\t// in\n    tag_129:\n      mload(0x40)\n      dup1\n      swap2\n      sub\n      swap1\n      revert\n    tag_128:\n        /* \"NFT_market_contract.sol\":7916:7939  ProxyWallet proxyWallet */\n      0x00\n        /* \"NFT_market_contract.sol\":7954:7971  userToProxyWallet */\n      0x04\n        /* \"NFT_market_contract.sol\":7954:7983  userToProxyWallet[msg.sender] */\n      0x00\n        /* \"NFT_market_contract.sol\":7972:7982  msg.sender */\n      caller\n        /* \"NFT_market_contract.sol\":7954:7983  userToProxyWallet[msg.sender] */\n      0xffffffffffffffffffffffffffffffffffffffff\n      and\n      0xffffffffffffffffffffffffffffffffffffffff\n      and\n      dup2\n      mstore\n      0x20\n      add\n      swap1\n      dup2\n      mstore\n      0x20\n      add\n      0x00\n      keccak256\n      0x00\n      swap1\n      sload\n      swap1\n      0x0100\n      exp\n      swap1\n      div\n      0xffffffffffffffffffffffffffffffffffffffff\n      and\n        /* \"NFT_market_contract.sol\":7916:7984  ProxyWallet proxyWallet = ProxyWallet(userToProxyWallet[msg.sender]) */\n      swap1\n      pop\n        /* \"NFT_market_contract.sol\":8246:8258  bool success */\n      0x00\n        /* \"NFT_market_contract.sol\":8260:8277  bytes memory data */\n      dup1\n        /* \"NFT_market_contract.sol\":8281:8298  collectionAddress */\n      dup4\n        /* \"NFT_market_contract.sol\":8281:8311  collectionAddress.delegatecall */\n      0xffffffffffffffffffffffffffffffffffffffff\n      and\n        /* \"NFT_market_contract.sol\":8428:8439  proxyWallet */\n      dup4\n        /* \"NFT_market_contract.sol\":8459:8463  true */\n      0x01\n        /* \"NFT_market_contract.sol\":8326:8478  abi.encodeWithSignature(... */\n      add(0x24, mload(0x40))\n      tag_131\n      swap3\n      swap2\n      swap1\n      tag_132\n      jump\t// in\n    tag_131:\n      mload(0x40)\n      0x20\n      dup2\n      dup4\n      sub\n      sub\n      dup2\n      mstore\n      swap1\n      0x40\n      mstore\n      and(not(0xffffffffffffffffffffffffffffffffffffffffffffffffffffffff), 0x531ac34600000000000000000000000000000000000000000000000000000000)\n      0x20\n      dup3\n      add\n      dup1\n      mload\n      0xffffffffffffffffffffffffffffffffffffffffffffffffffffffff\n      dup4\n      dup2\n      dup4\n      and\n      or\n      dup4\n      mstore\n      pop\n      pop\n      pop\n      pop\n        /* \"NFT_market_contract.sol\":8281:8489  collectionAddress.delegatecall(... */\n      mload(0x40)\n      tag_133\n      swap2\n      swap1\n      tag_91\n      jump\t// in\n    tag_133:\n      0x00\n      mload(0x40)\n      dup1\n      dup4\n      sub\n      dup2\n      dup6\n      gas\n      delegatecall\n      swap2\n      pop\n      pop\n      returndatasize\n      dup1\n      0x00\n      dup2\n      eq\n      tag_136\n      jumpi\n      mload(0x40)\n      swap2\n      pop\n      and(add(returndatasize, 0x3f), not(0x1f))\n      dup3\n      add\n      0x40\n      mstore\n      returndatasize\n      dup3\n      mstore\n      returndatasize\n      0x00\n      0x20\n      dup5\n      add\n      returndatacopy\n      jump(tag_135)\n    tag_136:\n      0x60\n      swap2\n      pop\n    tag_135:\n      pop\n        /* \"NFT_market_contract.sol\":8245:8489  (bool success, bytes memory data) = collectionAddress.delegatecall(... */\n      swap2\n      pop\n      swap2\n      pop\n        /* \"NFT_market_contract.sol\":7823:8497  {... */\n      pop\n      pop\n      pop\n        /* \"NFT_market_contract.sol\":7762:8497  function approveCollection(address collectionAddress) public {... */\n      pop\n      jump\t// out\n        /* \"NFT_market_contract.sol\":1710:1958  function updateFeeRate(uint256 newFeeRate) public {... */\n    tag_33:\n        /* \"NFT_market_contract.sol\":1793:1798  owner */\n      0x03\n      0x00\n      swap1\n      sload\n      swap1\n      0x0100\n      exp\n      swap1\n      div\n      0xffffffffffffffffffffffffffffffffffffffff\n      and\n        /* \"NFT_market_contract.sol\":1779:1798  msg.sender == owner */\n      0xffffffffffffffffffffffffffffffffffffffff\n      and\n        /* \"NFT_market_contract.sol\":1779:1789  msg.sender */\n      caller\n        /* \"NFT_market_contract.sol\":1779:1798  msg.sender == owner */\n      0xffffffffffffffffffffffffffffffffffffffff\n      and\n      eq\n        /* \"NFT_market_contract.sol\":1771:1827  require(msg.sender == owner, \"only owner can call this\") */\n      tag_138\n      jumpi\n      mload(0x40)\n      0x08c379a000000000000000000000000000000000000000000000000000000000\n      dup2\n      mstore\n      0x04\n      add\n      tag_139\n      swap1\n      tag_51\n      jump\t// in\n    tag_139:\n      mload(0x40)\n      dup1\n      swap2\n      sub\n      swap1\n      revert\n    tag_138:\n        /* \"NFT_market_contract.sol\":1838:1856  uint256 oldFeeRate */\n      0x00\n        /* \"NFT_market_contract.sol\":1859:1866  feeRate */\n      sload(0x02)\n        /* \"NFT_market_contract.sol\":1838:1866  uint256 oldFeeRate = feeRate */\n      swap1\n      pop\n        /* \"NFT_market_contract.sol\":1887:1897  newFeeRate */\n      dup2\n        /* \"NFT_market_contract.sol\":1877:1884  feeRate */\n      0x02\n        /* \"NFT_market_contract.sol\":1877:1897  feeRate = newFeeRate */\n      dup2\n      swap1\n      sstore\n      pop\n        /* \"NFT_market_contract.sol\":1913:1950  UpdateFeeRate(oldFeeRate, newFeeRate) */\n      0x8d10d6dd6545b059182e4bf9534308bf75d7de65cdd8a68c12b7b74f139e58ae\n        /* \"NFT_market_contract.sol\":1927:1937  oldFeeRate */\n      dup2\n        /* \"NFT_market_contract.sol\":1939:1949  newFeeRate */\n      dup4\n        /* \"NFT_market_contract.sol\":1913:1950  UpdateFeeRate(oldFeeRate, newFeeRate) */\n      mload(0x40)\n      tag_140\n      swap3\n      swap2\n      swap1\n      tag_141\n      jump\t// in\n    tag_140:\n      mload(0x40)\n      dup1\n      swap2\n      sub\n      swap1\n      log1\n        /* \"NFT_market_contract.sol\":1760:1958  {... */\n      pop\n        /* \"NFT_market_contract.sol\":1710:1958  function updateFeeRate(uint256 newFeeRate) public {... */\n      pop\n      jump\t// out\n        /* \"NFT_market_contract.sol\":1986:2071  function getFeeRate() public view returns (uint256) {... */\n    tag_36:\n        /* \"NFT_market_contract.sol\":2029:2036  uint256 */\n      0x00\n        /* \"NFT_market_contract.sol\":2056:2063  feeRate */\n      sload(0x02)\n        /* \"NFT_market_contract.sol\":2049:2063  return feeRate */\n      swap1\n      pop\n        /* \"NFT_market_contract.sol\":1986:2071  function getFeeRate() public view returns (uint256) {... */\n      swap1\n      jump\t// out\n        /* \"NFT_market_contract.sol\":1205:1668  function createProxyWallet() public {... */\n    tag_41:\n        /* \"NFT_market_contract.sol\":1364:1365  0 */\n      0x00\n        /* \"NFT_market_contract.sol\":1323:1366  userToProxyWallet[msg.sender] == address(0) */\n      0xffffffffffffffffffffffffffffffffffffffff\n      and\n        /* \"NFT_market_contract.sol\":1323:1340  userToProxyWallet */\n      0x04\n        /* \"NFT_market_contract.sol\":1323:1352  userToProxyWallet[msg.sender] */\n      0x00\n        /* \"NFT_market_contract.sol\":1341:1351  msg.sender */\n      caller\n        /* \"NFT_market_contract.sol\":1323:1352  userToProxyWallet[msg.sender] */\n      0xffffffffffffffffffffffffffffffffffffffff\n      and\n      0xffffffffffffffffffffffffffffffffffffffff\n      and\n      dup2\n      mstore\n      0x20\n      add\n      swap1\n      dup2\n      mstore\n      0x20\n      add\n      0x00\n      keccak256\n      0x00\n      swap1\n      sload\n      swap1\n      0x0100\n      exp\n      swap1\n      div\n      0xffffffffffffffffffffffffffffffffffffffff\n      and\n        /* \"NFT_market_contract.sol\":1323:1366  userToProxyWallet[msg.sender] == address(0) */\n      0xffffffffffffffffffffffffffffffffffffffff\n      and\n      eq\n        /* \"NFT_market_contract.sol\":1301:1421  require(... */\n      tag_144\n      jumpi\n      mload(0x40)\n      0x08c379a000000000000000000000000000000000000000000000000000000000\n      dup2\n      mstore\n      0x04\n      add\n      tag_145\n      swap1\n      tag_146\n      jump\t// in\n    tag_145:\n      mload(0x40)\n      dup1\n      swap2\n      sub\n      swap1\n      revert\n    tag_144:\n        /* \"NFT_market_contract.sol\":1517:1527  msg.sender */\n      caller\n        /* \"NFT_market_contract.sol\":1501:1528  new ProxyWallet(msg.sender) */\n      mload(0x40)\n      tag_147\n      swap1\n      tag_148\n      jump\t// in\n    tag_147:\n      tag_149\n      swap2\n      swap1\n      tag_47\n      jump\t// in\n    tag_149:\n      mload(0x40)\n      dup1\n      swap2\n      sub\n      swap1\n      0x00\n      create\n      dup1\n      iszero\n      dup1\n      iszero\n      tag_150\n      jumpi\n      returndatasize\n      0x00\n      dup1\n      returndatacopy\n      revert(0x00, returndatasize)\n    tag_150:\n      pop\n        /* \"NFT_market_contract.sol\":1471:1490  proxyWalletContract */\n      0x00\n      dup1\n        /* \"NFT_market_contract.sol\":1471:1529  proxyWalletContract = address(new ProxyWallet(msg.sender)) */\n      0x0100\n      exp\n      dup2\n      sload\n      dup2\n      0xffffffffffffffffffffffffffffffffffffffff\n      mul\n      not\n      and\n      swap1\n      dup4\n      0xffffffffffffffffffffffffffffffffffffffff\n      and\n      mul\n      or\n      swap1\n      sstore\n      pop\n        /* \"NFT_market_contract.sol\":1641:1660  proxyWalletContract */\n      0x00\n      dup1\n      sload\n      swap1\n      0x0100\n      exp\n      swap1\n      div\n      0xffffffffffffffffffffffffffffffffffffffff\n      and\n        /* \"NFT_market_contract.sol\":1609:1626  userToProxyWallet */\n      0x04\n        /* \"NFT_market_contract.sol\":1609:1638  userToProxyWallet[msg.sender] */\n      0x00\n        /* \"NFT_market_contract.sol\":1627:1637  msg.sender */\n      caller\n        /* \"NFT_market_contract.sol\":1609:1638  userToProxyWallet[msg.sender] */\n      0xffffffffffffffffffffffffffffffffffffffff\n      and\n      0xffffffffffffffffffffffffffffffffffffffff\n      and\n      dup2\n      mstore\n      0x20\n      add\n      swap1\n      dup2\n      mstore\n      0x20\n      add\n      0x00\n      keccak256\n      0x00\n        /* \"NFT_market_contract.sol\":1609:1660  userToProxyWallet[msg.sender] = proxyWalletContract */\n      0x0100\n      exp\n      dup2\n      sload\n      dup2\n      0xffffffffffffffffffffffffffffffffffffffff\n      mul\n      not\n      and\n      swap1\n      dup4\n      0xffffffffffffffffffffffffffffffffffffffff\n      and\n      mul\n      or\n      swap1\n      sstore\n      pop\n        /* \"NFT_market_contract.sol\":1205:1668  function createProxyWallet() public {... */\n      jump\t// out\n        /* \"NFT_market_contract.sol\":2318:2435  function getProxyWallet(address user) public view returns (address) {... */\n    tag_45:\n        /* \"NFT_market_contract.sol\":2377:2384  address */\n      0x00\n        /* \"NFT_market_contract.sol\":2404:2421  userToProxyWallet */\n      0x04\n        /* \"NFT_market_contract.sol\":2404:2427  userToProxyWallet[user] */\n      0x00\n        /* \"NFT_market_contract.sol\":2422:2426  user */\n      dup4\n        /* \"NFT_market_contract.sol\":2404:2427  userToProxyWallet[user] */\n      0xffffffffffffffffffffffffffffffffffffffff\n      and\n      0xffffffffffffffffffffffffffffffffffffffff\n      and\n      dup2\n      mstore\n      0x20\n      add\n      swap1\n      dup2\n      mstore\n      0x20\n      add\n      0x00\n      keccak256\n      0x00\n      swap1\n      sload\n      swap1\n      0x0100\n      exp\n      swap1\n      div\n      0xffffffffffffffffffffffffffffffffffffffff\n      and\n        /* \"NFT_market_contract.sol\":2397:2427  return userToProxyWallet[user] */\n      swap1\n      pop\n        /* \"NFT_market_contract.sol\":2318:2435  function getProxyWallet(address user) public view returns (address) {... */\n      swap2\n      swap1\n      pop\n      jump\t// out\n        /* \"NFT_market_contract.sol\":2790:3396  function _cancelSellOrder(SellOrder memory sellOrder) internal {... */\n    tag_58:\n        /* \"NFT_market_contract.sol\":2937:2950  bool success1 */\n      0x00\n        /* \"NFT_market_contract.sol\":2952:2969  bytes memory data */\n      dup1\n        /* \"NFT_market_contract.sol\":2973:2990  userToProxyWallet */\n      0x04\n        /* \"NFT_market_contract.sol\":2973:3008  userToProxyWallet[sellOrder.seller] */\n      0x00\n        /* \"NFT_market_contract.sol\":2991:3000  sellOrder */\n      dup5\n        /* \"NFT_market_contract.sol\":2991:3007  sellOrder.seller */\n      0x00\n      add\n      mload\n        /* \"NFT_market_contract.sol\":2973:3008  userToProxyWallet[sellOrder.seller] */\n      0xffffffffffffffffffffffffffffffffffffffff\n      and\n      0xffffffffffffffffffffffffffffffffffffffff\n      and\n      dup2\n      mstore\n      0x20\n      add\n      swap1\n      dup2\n      mstore\n      0x20\n      add\n      0x00\n      keccak256\n      0x00\n      swap1\n      sload\n      swap1\n      0x0100\n      exp\n      swap1\n      div\n      0xffffffffffffffffffffffffffffffffffffffff\n      and\n        /* \"NFT_market_contract.sol\":2973:3035  userToProxyWallet[sellOrder.seller]... */\n      0xffffffffffffffffffffffffffffffffffffffff\n      and\n        /* \"NFT_market_contract.sol\":3108:3117  sellOrder */\n      dup4\n        /* \"NFT_market_contract.sol\":3054:3118  abi.encodeWithSignature(\"cancelSellOrder(SellOrder)\", sellOrder) */\n      add(0x24, mload(0x40))\n      tag_153\n      swap2\n      swap1\n      tag_154\n      jump\t// in\n    tag_153:\n      mload(0x40)\n      0x20\n      dup2\n      dup4\n      sub\n      sub\n      dup2\n      mstore\n      swap1\n      0x40\n      mstore\n      and(not(0xffffffffffffffffffffffffffffffffffffffffffffffffffffffff), 0x2c7ade5e00000000000000000000000000000000000000000000000000000000)\n      0x20\n      dup3\n      add\n      dup1\n      mload\n      0xffffffffffffffffffffffffffffffffffffffffffffffffffffffff\n      dup4\n      dup2\n      dup4\n      and\n      or\n      dup4\n      mstore\n      pop\n      pop\n      pop\n      pop\n        /* \"NFT_market_contract.sol\":2973:3133  userToProxyWallet[sellOrder.seller]... */\n      mload(0x40)\n      tag_155\n      swap2\n      swap1\n      tag_91\n      jump\t// in\n    tag_155:\n      0x00\n      mload(0x40)\n      dup1\n      dup4\n      sub\n      dup2\n      dup6\n      gas\n      delegatecall\n      swap2\n      pop\n      pop\n      returndatasize\n      dup1\n      0x00\n      dup2\n      eq\n      tag_158\n      jumpi\n      mload(0x40)\n      swap2\n      pop\n      and(add(returndatasize, 0x3f), not(0x1f))\n      dup3\n      add\n      0x40\n      mstore\n      returndatasize\n      dup3\n      mstore\n      returndatasize\n      0x00\n      0x20\n      dup5\n      add\n      returndatacopy\n      jump(tag_157)\n    tag_158:\n      0x60\n      swap2\n      pop\n    tag_157:\n      pop\n        /* \"NFT_market_contract.sol\":2936:3133  (bool success1, bytes memory data) = userToProxyWallet[sellOrder.seller]... */\n      swap2\n      pop\n      swap2\n      pop\n        /* \"NFT_market_contract.sol\":3152:3160  success1 */\n      dup2\n        /* \"NFT_market_contract.sol\":3144:3189  require(success1, \"Cancel sell order failed\") */\n      tag_159\n      jumpi\n      mload(0x40)\n      0x08c379a000000000000000000000000000000000000000000000000000000000\n      dup2\n      mstore\n      0x04\n      add\n      tag_160\n      swap1\n      tag_161\n      jump\t// in\n    tag_160:\n      mload(0x40)\n      dup1\n      swap2\n      sub\n      swap1\n      revert\n    tag_159:\n        /* \"NFT_market_contract.sol\":3293:3302  sellOrder */\n      dup3\n        /* \"NFT_market_contract.sol\":3293:3313  sellOrder.contractID */\n      0x20\n      add\n      mload\n        /* \"NFT_market_contract.sol\":3229:3388  SellOrderCancelled(... */\n      0xffffffffffffffffffffffffffffffffffffffff\n      and\n        /* \"NFT_market_contract.sol\":3262:3271  sellOrder */\n      dup4\n        /* \"NFT_market_contract.sol\":3262:3278  sellOrder.seller */\n      0x00\n      add\n      mload\n        /* \"NFT_market_contract.sol\":3229:3388  SellOrderCancelled(... */\n      0xffffffffffffffffffffffffffffffffffffffff\n      and\n      0x9b3260990101a9c5eb670b44ba2f4ec1048ddaf533a012abff3841ef15307fec\n        /* \"NFT_market_contract.sol\":3328:3337  sellOrder */\n      dup6\n        /* \"NFT_market_contract.sol\":3328:3345  sellOrder.orderID */\n      0xc0\n      add\n      mload\n        /* \"NFT_market_contract.sol\":3360:3369  sellOrder */\n      dup7\n        /* \"NFT_market_contract.sol\":3360:3377  sellOrder.tokenID */\n      0x40\n      add\n      mload\n        /* \"NFT_market_contract.sol\":3229:3388  SellOrderCancelled(... */\n      mload(0x40)\n      tag_162\n      swap3\n      swap2\n      swap1\n      tag_85\n      jump\t// in\n    tag_162:\n      mload(0x40)\n      dup1\n      swap2\n      sub\n      swap1\n      log3\n        /* \"NFT_market_contract.sol\":2853:3396  {... */\n      pop\n      pop\n        /* \"NFT_market_contract.sol\":2790:3396  function _cancelSellOrder(SellOrder memory sellOrder) internal {... */\n      pop\n      jump\t// out\n        /* \"@openzeppelin/contracts/utils/math/SafeMath.sol\":3465:3561  function mul(uint256 a, uint256 b) internal pure returns (uint256) {... */\n    tag_62:\n        /* \"@openzeppelin/contracts/utils/math/SafeMath.sol\":3523:3530  uint256 */\n      0x00\n        /* \"@openzeppelin/contracts/utils/math/SafeMath.sol\":3553:3554  b */\n      dup2\n        /* \"@openzeppelin/contracts/utils/math/SafeMath.sol\":3549:3550  a */\n      dup4\n        /* \"@openzeppelin/contracts/utils/math/SafeMath.sol\":3549:3554  a * b */\n      tag_164\n      swap2\n      swap1\n      tag_165\n      jump\t// in\n    tag_164:\n        /* \"@openzeppelin/contracts/utils/math/SafeMath.sol\":3542:3554  return a * b */\n      swap1\n      pop\n        /* \"@openzeppelin/contracts/utils/math/SafeMath.sol\":3465:3561  function mul(uint256 a, uint256 b) internal pure returns (uint256) {... */\n      swap3\n      swap2\n      pop\n      pop\n      jump\t// out\n        /* \"@openzeppelin/contracts/utils/math/SafeMath.sol\":3850:3946  function div(uint256 a, uint256 b) internal pure returns (uint256) {... */\n    tag_63:\n        /* \"@openzeppelin/contracts/utils/math/SafeMath.sol\":3908:3915  uint256 */\n      0x00\n        /* \"@openzeppelin/contracts/utils/math/SafeMath.sol\":3938:3939  b */\n      dup2\n        /* \"@openzeppelin/contracts/utils/math/SafeMath.sol\":3934:3935  a */\n      dup4\n        /* \"@openzeppelin/contracts/utils/math/SafeMath.sol\":3934:3939  a / b */\n      tag_167\n      swap2\n      swap1\n      tag_168\n      jump\t// in\n    tag_167:\n        /* \"@openzeppelin/contracts/utils/math/SafeMath.sol\":3927:3939  return a / b */\n      swap1\n      pop\n        /* \"@openzeppelin/contracts/utils/math/SafeMath.sol\":3850:3946  function div(uint256 a, uint256 b) internal pure returns (uint256) {... */\n      swap3\n      swap2\n      pop\n      pop\n      jump\t// out\n        /* \"NFT_market_contract.sol\":8526:9075  function verifySignature(... */\n    tag_65:\n        /* \"NFT_market_contract.sol\":8751:8755  bool */\n      0x00\n        /* \"NFT_market_contract.sol\":8768:8780  bytes32 hash */\n      dup1\n        /* \"NFT_market_contract.sol\":8824:8834  contractID */\n      dup7\n        /* \"NFT_market_contract.sol\":8836:8843  tokenID */\n      dup7\n        /* \"NFT_market_contract.sol\":8845:8850  price */\n      dup7\n        /* \"NFT_market_contract.sol\":8852:8866  expirationTime */\n      dup6\n        /* \"NFT_market_contract.sol\":8807:8867  abi.encodePacked(contractID, tokenID, price, expirationTime) */\n      add(0x20, mload(0x40))\n      tag_170\n      swap5\n      swap4\n      swap3\n      swap2\n      swap1\n      tag_171\n      jump\t// in\n    tag_170:\n      mload(0x40)\n      0x20\n      dup2\n      dup4\n      sub\n      sub\n      dup2\n      mstore\n      swap1\n      0x40\n      mstore\n        /* \"NFT_market_contract.sol\":8783:8878  keccak256(... */\n      dup1\n      mload\n      swap1\n      0x20\n      add\n      keccak256\n        /* \"NFT_market_contract.sol\":8768:8878  bytes32 hash = keccak256(... */\n      swap1\n      pop\n        /* \"NFT_market_contract.sol\":8889:8906  bytes32 OrderHash */\n      0x00\n        /* \"NFT_market_contract.sol\":8986:8990  hash */\n      dup2\n        /* \"NFT_market_contract.sol\":8933:8991  abi.encodePacked(\"\\x19Ethereum Signed Message:\\n32\", hash) */\n      add(0x20, mload(0x40))\n      tag_172\n      swap2\n      swap1\n      tag_173\n      jump\t// in\n    tag_172:\n      mload(0x40)\n      0x20\n      dup2\n      dup4\n      sub\n      sub\n      dup2\n      mstore\n      swap1\n      0x40\n      mstore\n        /* \"NFT_market_contract.sol\":8909:9002  keccak256(... */\n      dup1\n      mload\n      swap1\n      0x20\n      add\n      keccak256\n        /* \"NFT_market_contract.sol\":8889:9002  bytes32 OrderHash = keccak256(... */\n      swap1\n      pop\n        /* \"NFT_market_contract.sol\":9061:9067  seller */\n      dup9\n        /* \"NFT_market_contract.sol\":9022:9067  recoverSigner(OrderHash, signature) == seller */\n      0xffffffffffffffffffffffffffffffffffffffff\n      and\n        /* \"NFT_market_contract.sol\":9022:9057  recoverSigner(OrderHash, signature) */\n      tag_174\n        /* \"NFT_market_contract.sol\":9036:9045  OrderHash */\n      dup3\n        /* \"NFT_market_contract.sol\":9047:9056  signature */\n      dup8\n        /* \"NFT_market_contract.sol\":9022:9035  recoverSigner */\n      tag_175\n        /* \"NFT_market_contract.sol\":9022:9057  recoverSigner(OrderHash, signature) */\n      jump\t// in\n    tag_174:\n        /* \"NFT_market_contract.sol\":9022:9067  recoverSigner(OrderHash, signature) == seller */\n      0xffffffffffffffffffffffffffffffffffffffff\n      and\n      eq\n        /* \"NFT_market_contract.sol\":9015:9067  return recoverSigner(OrderHash, signature) == seller */\n      swap3\n      pop\n      pop\n      pop\n        /* \"NFT_market_contract.sol\":8526:9075  function verifySignature(... */\n      swap7\n      swap6\n      pop\n      pop\n      pop\n      pop\n      pop\n      pop\n      jump\t// out\n        /* \"NFT_market_contract.sol\":7093:7423  function matchsuccess(SellOrder memory sellOrder) internal {... */\n    tag_113:\n        /* \"NFT_market_contract.sol\":7290:7299  sellOrder */\n      dup1\n        /* \"NFT_market_contract.sol\":7290:7310  sellOrder.contractID */\n      0x20\n      add\n      mload\n        /* \"NFT_market_contract.sol\":7207:7415  MatchSuccess(... */\n      0xffffffffffffffffffffffffffffffffffffffff\n      and\n        /* \"NFT_market_contract.sol\":7265:7275  msg.sender */\n      caller\n        /* \"NFT_market_contract.sol\":7207:7415  MatchSuccess(... */\n      0xffffffffffffffffffffffffffffffffffffffff\n      and\n        /* \"NFT_market_contract.sol\":7234:7243  sellOrder */\n      dup3\n        /* \"NFT_market_contract.sol\":7234:7250  sellOrder.seller */\n      0x00\n      add\n      mload\n        /* \"NFT_market_contract.sol\":7207:7415  MatchSuccess(... */\n      0xffffffffffffffffffffffffffffffffffffffff\n      and\n      0x467f50bd8d1547cf60e60dba76ab3ff7f8b3a07ceba26c2268e160a7df30230e\n        /* \"NFT_market_contract.sol\":7325:7334  sellOrder */\n      dup5\n        /* \"NFT_market_contract.sol\":7325:7342  sellOrder.tokenID */\n      0x40\n      add\n      mload\n        /* \"NFT_market_contract.sol\":7357:7366  sellOrder */\n      dup6\n        /* \"NFT_market_contract.sol\":7357:7374  sellOrder.orderID */\n      0xc0\n      add\n      mload\n        /* \"NFT_market_contract.sol\":7389:7398  sellOrder */\n      dup7\n        /* \"NFT_market_contract.sol\":7389:7404  sellOrder.price */\n      0x60\n      add\n      mload\n        /* \"NFT_market_contract.sol\":7207:7415  MatchSuccess(... */\n      mload(0x40)\n      tag_177\n      swap4\n      swap3\n      swap2\n      swap1\n      tag_178\n      jump\t// in\n    tag_177:\n      mload(0x40)\n      dup1\n      swap2\n      sub\n      swap1\n      log4\n        /* \"NFT_market_contract.sol\":7093:7423  function matchsuccess(SellOrder memory sellOrder) internal {... */\n      pop\n      jump\t// out\n        /* \"NFT_market_contract.sol\":7431:7716  function matchfail(SellOrder memory sellOrder) internal {... */\n    tag_126:\n        /* \"NFT_market_contract.sol\":7583:7592  sellOrder */\n      dup1\n        /* \"NFT_market_contract.sol\":7583:7603  sellOrder.contractID */\n      0x20\n      add\n      mload\n        /* \"NFT_market_contract.sol\":7503:7708  MatchFail(... */\n      0xffffffffffffffffffffffffffffffffffffffff\n      and\n        /* \"NFT_market_contract.sol\":7558:7568  msg.sender */\n      caller\n        /* \"NFT_market_contract.sol\":7503:7708  MatchFail(... */\n      0xffffffffffffffffffffffffffffffffffffffff\n      and\n        /* \"NFT_market_contract.sol\":7527:7536  sellOrder */\n      dup3\n        /* \"NFT_market_contract.sol\":7527:7543  sellOrder.seller */\n      0x00\n      add\n      mload\n        /* \"NFT_market_contract.sol\":7503:7708  MatchFail(... */\n      0xffffffffffffffffffffffffffffffffffffffff\n      and\n      0x9bd8cc9f795935d6f423445d18dd997edfeec3d962973fadffeac5740e876b5f\n        /* \"NFT_market_contract.sol\":7618:7627  sellOrder */\n      dup5\n        /* \"NFT_market_contract.sol\":7618:7635  sellOrder.tokenID */\n      0x40\n      add\n      mload\n        /* \"NFT_market_contract.sol\":7650:7659  sellOrder */\n      dup6\n        /* \"NFT_market_contract.sol\":7650:7667  sellOrder.orderID */\n      0xc0\n      add\n      mload\n        /* \"NFT_market_contract.sol\":7682:7691  sellOrder */\n      dup7\n        /* \"NFT_market_contract.sol\":7682:7697  sellOrder.price */\n      0x60\n      add\n      mload\n        /* \"NFT_market_contract.sol\":7503:7708  MatchFail(... */\n      mload(0x40)\n      tag_180\n      swap4\n      swap3\n      swap2\n      swap1\n      tag_178\n      jump\t// in\n    tag_180:\n      mload(0x40)\n      dup1\n      swap2\n      sub\n      swap1\n      log4\n        /* \"NFT_market_contract.sol\":7431:7716  function matchfail(SellOrder memory sellOrder) internal {... */\n      pop\n      jump\t// out\n        /* \"NFT_market_contract.sol\":9083:9549  function recoverSigner(... */\n    tag_175:\n        /* \"NFT_market_contract.sol\":9192:9199  address */\n      0x00\n        /* \"NFT_market_contract.sol\":9212:9221  bytes32 r */\n      dup1\n        /* \"NFT_market_contract.sol\":9232:9241  bytes32 s */\n      0x00\n        /* \"NFT_market_contract.sol\":9252:9259  uint8 v */\n      dup1\n        /* \"NFT_market_contract.sol\":9322:9326  0x20 */\n      0x20\n        /* \"NFT_market_contract.sol\":9311:9320  signature */\n      dup6\n        /* \"NFT_market_contract.sol\":9307:9327  add(signature, 0x20) */\n      add\n        /* \"NFT_market_contract.sol\":9301:9328  mload(add(signature, 0x20)) */\n      mload\n        /* \"NFT_market_contract.sol\":9296:9328  r := mload(add(signature, 0x20)) */\n      swap3\n      pop\n        /* \"NFT_market_contract.sol\":9368:9372  0x40 */\n      0x40\n        /* \"NFT_market_contract.sol\":9357:9366  signature */\n      dup6\n        /* \"NFT_market_contract.sol\":9353:9373  add(signature, 0x40) */\n      add\n        /* \"NFT_market_contract.sol\":9347:9374  mload(add(signature, 0x40)) */\n      mload\n        /* \"NFT_market_contract.sol\":9342:9374  s := mload(add(signature, 0x40)) */\n      swap2\n      pop\n        /* \"NFT_market_contract.sol\":9422:9426  0x60 */\n      0x60\n        /* \"NFT_market_contract.sol\":9411:9420  signature */\n      dup6\n        /* \"NFT_market_contract.sol\":9407:9427  add(signature, 0x60) */\n      add\n        /* \"NFT_market_contract.sol\":9401:9428  mload(add(signature, 0x60)) */\n      mload\n        /* \"NFT_market_contract.sol\":9398:9399  0 */\n      0x00\n        /* \"NFT_market_contract.sol\":9393:9429  byte(0, mload(add(signature, 0x60))) */\n      byte\n        /* \"NFT_market_contract.sol\":9388:9429  v := byte(0, mload(add(signature, 0x60))) */\n      swap1\n      pop\n        /* \"NFT_market_contract.sol\":9460:9462  27 */\n      0x1b\n        /* \"NFT_market_contract.sol\":9456:9457  v */\n      dup2\n        /* \"NFT_market_contract.sol\":9456:9462  v < 27 */\n      0xff\n      and\n      lt\n        /* \"NFT_market_contract.sol\":9452:9498  if (v < 27) {... */\n      iszero\n      tag_182\n      jumpi\n        /* \"NFT_market_contract.sol\":9484:9486  27 */\n      0x1b\n        /* \"NFT_market_contract.sol\":9479:9486  v += 27 */\n      dup2\n      tag_183\n      swap2\n      swap1\n      tag_184\n      jump\t// in\n    tag_183:\n      swap1\n      pop\n        /* \"NFT_market_contract.sol\":9452:9498  if (v < 27) {... */\n    tag_182:\n        /* \"NFT_market_contract.sol\":9517:9541  ecrecover(hash, v, r, s) */\n      0x01\n        /* \"NFT_market_contract.sol\":9527:9531  hash */\n      dup7\n        /* \"NFT_market_contract.sol\":9533:9534  v */\n      dup3\n        /* \"NFT_market_contract.sol\":9536:9537  r */\n      dup6\n        /* \"NFT_market_contract.sol\":9539:9540  s */\n      dup6\n        /* \"NFT_market_contract.sol\":9517:9541  ecrecover(hash, v, r, s) */\n      mload(0x40)\n      0x00\n      dup2\n      mstore\n      0x20\n      add\n      0x40\n      mstore\n      mload(0x40)\n      tag_185\n      swap5\n      swap4\n      swap3\n      swap2\n      swap1\n      tag_186\n      jump\t// in\n    tag_185:\n      0x20\n      mload(0x40)\n      0x20\n      dup2\n      sub\n      swap1\n      dup1\n      dup5\n      sub\n      swap1\n      dup6\n      gas\n      staticcall\n      iszero\n      dup1\n      iszero\n      tag_188\n      jumpi\n      returndatasize\n      0x00\n      dup1\n      returndatacopy\n      revert(0x00, returndatasize)\n    tag_188:\n      pop\n      pop\n      pop\n      mload(sub(mload(0x40), 0x20))\n        /* \"NFT_market_contract.sol\":9510:9541  return ecrecover(hash, v, r, s) */\n      swap4\n      pop\n      pop\n      pop\n      pop\n        /* \"NFT_market_contract.sol\":9083:9549  function recoverSigner(... */\n      swap3\n      swap2\n      pop\n      pop\n      jump\t// out\n    tag_148:\n      dataSize(sub_0)\n      dup1\n      dataOffset(sub_0)\n      dup4\n      codecopy\n      add\n      swap1\n      jump\t// out\n        /* \"#utility.yul\":7:82   */\n    tag_189:\n        /* \"#utility.yul\":40:46   */\n      0x00\n        /* \"#utility.yul\":73:75   */\n      0x40\n        /* \"#utility.yul\":67:76   */\n      mload\n        /* \"#utility.yul\":57:76   */\n      swap1\n      pop\n        /* \"#utility.yul\":7:82   */\n      swap1\n      jump\t// out\n        /* \"#utility.yul\":88:205   */\n    tag_190:\n        /* \"#utility.yul\":197:198   */\n      0x00\n        /* \"#utility.yul\":194:195   */\n      dup1\n        /* \"#utility.yul\":187:199   */\n      revert\n        /* \"#utility.yul\":211:328   */\n    tag_191:\n        /* \"#utility.yul\":320:321   */\n      0x00\n        /* \"#utility.yul\":317:318   */\n      dup1\n        /* \"#utility.yul\":310:322   */\n      revert\n        /* \"#utility.yul\":334:460   */\n    tag_192:\n        /* \"#utility.yul\":371:378   */\n      0x00\n        /* \"#utility.yul\":411:453   */\n      0xffffffffffffffffffffffffffffffffffffffff\n        /* \"#utility.yul\":404:409   */\n      dup3\n        /* \"#utility.yul\":400:454   */\n      and\n        /* \"#utility.yul\":389:454   */\n      swap1\n      pop\n        /* \"#utility.yul\":334:460   */\n      swap2\n      swap1\n      pop\n      jump\t// out\n        /* \"#utility.yul\":466:562   */\n    tag_193:\n        /* \"#utility.yul\":503:510   */\n      0x00\n        /* \"#utility.yul\":532:556   */\n      tag_273\n        /* \"#utility.yul\":550:555   */\n      dup3\n        /* \"#utility.yul\":532:556   */\n      tag_192\n      jump\t// in\n    tag_273:\n        /* \"#utility.yul\":521:556   */\n      swap1\n      pop\n        /* \"#utility.yul\":466:562   */\n      swap2\n      swap1\n      pop\n      jump\t// out\n        /* \"#utility.yul\":568:690   */\n    tag_194:\n        /* \"#utility.yul\":641:665   */\n      tag_275\n        /* \"#utility.yul\":659:664   */\n      dup2\n        /* \"#utility.yul\":641:665   */\n      tag_193\n      jump\t// in\n    tag_275:\n        /* \"#utility.yul\":634:639   */\n      dup2\n        /* \"#utility.yul\":631:666   */\n      eq\n        /* \"#utility.yul\":621:684   */\n      tag_276\n      jumpi\n        /* \"#utility.yul\":680:681   */\n      0x00\n        /* \"#utility.yul\":677:678   */\n      dup1\n        /* \"#utility.yul\":670:682   */\n      revert\n        /* \"#utility.yul\":621:684   */\n    tag_276:\n        /* \"#utility.yul\":568:690   */\n      pop\n      jump\t// out\n        /* \"#utility.yul\":696:835   */\n    tag_195:\n        /* \"#utility.yul\":742:747   */\n      0x00\n        /* \"#utility.yul\":780:786   */\n      dup2\n        /* \"#utility.yul\":767:787   */\n      calldataload\n        /* \"#utility.yul\":758:787   */\n      swap1\n      pop\n        /* \"#utility.yul\":796:829   */\n      tag_278\n        /* \"#utility.yul\":823:828   */\n      dup2\n        /* \"#utility.yul\":796:829   */\n      tag_194\n      jump\t// in\n    tag_278:\n        /* \"#utility.yul\":696:835   */\n      swap3\n      swap2\n      pop\n      pop\n      jump\t// out\n        /* \"#utility.yul\":841:1170   */\n    tag_14:\n        /* \"#utility.yul\":900:906   */\n      0x00\n        /* \"#utility.yul\":949:951   */\n      0x20\n        /* \"#utility.yul\":937:946   */\n      dup3\n        /* \"#utility.yul\":928:935   */\n      dup5\n        /* \"#utility.yul\":924:947   */\n      sub\n        /* \"#utility.yul\":920:952   */\n      slt\n        /* \"#utility.yul\":917:1036   */\n      iszero\n      tag_280\n      jumpi\n        /* \"#utility.yul\":955:1034   */\n      tag_281\n      tag_190\n      jump\t// in\n    tag_281:\n        /* \"#utility.yul\":917:1036   */\n    tag_280:\n        /* \"#utility.yul\":1075:1076   */\n      0x00\n        /* \"#utility.yul\":1100:1153   */\n      tag_282\n        /* \"#utility.yul\":1145:1152   */\n      dup5\n        /* \"#utility.yul\":1136:1142   */\n      dup3\n        /* \"#utility.yul\":1125:1134   */\n      dup6\n        /* \"#utility.yul\":1121:1143   */\n      add\n        /* \"#utility.yul\":1100:1153   */\n      tag_195\n      jump\t// in\n    tag_282:\n        /* \"#utility.yul\":1090:1153   */\n      swap2\n      pop\n        /* \"#utility.yul\":1046:1163   */\n      pop\n        /* \"#utility.yul\":841:1170   */\n      swap3\n      swap2\n      pop\n      pop\n      jump\t// out\n        /* \"#utility.yul\":1176:1293   */\n    tag_196:\n        /* \"#utility.yul\":1285:1286   */\n      0x00\n        /* \"#utility.yul\":1282:1283   */\n      dup1\n        /* \"#utility.yul\":1275:1287   */\n      revert\n        /* \"#utility.yul\":1299:1401   */\n    tag_197:\n        /* \"#utility.yul\":1340:1346   */\n      0x00\n        /* \"#utility.yul\":1391:1393   */\n      0x1f\n        /* \"#utility.yul\":1387:1394   */\n      not\n        /* \"#utility.yul\":1382:1384   */\n      0x1f\n        /* \"#utility.yul\":1375:1380   */\n      dup4\n        /* \"#utility.yul\":1371:1385   */\n      add\n        /* \"#utility.yul\":1367:1395   */\n      and\n        /* \"#utility.yul\":1357:1395   */\n      swap1\n      pop\n        /* \"#utility.yul\":1299:1401   */\n      swap2\n      swap1\n      pop\n      jump\t// out\n        /* \"#utility.yul\":1407:1587   */\n    tag_198:\n        /* \"#utility.yul\":1455:1532   */\n      0x4e487b7100000000000000000000000000000000000000000000000000000000\n        /* \"#utility.yul\":1452:1453   */\n      0x00\n        /* \"#utility.yul\":1445:1533   */\n      mstore\n        /* \"#utility.yul\":1552:1556   */\n      0x41\n        /* \"#utility.yul\":1549:1550   */\n      0x04\n        /* \"#utility.yul\":1542:1557   */\n      mstore\n        /* \"#utility.yul\":1576:1580   */\n      0x24\n        /* \"#utility.yul\":1573:1574   */\n      0x00\n        /* \"#utility.yul\":1566:1581   */\n      revert\n        /* \"#utility.yul\":1593:1874   */\n    tag_199:\n        /* \"#utility.yul\":1676:1703   */\n      tag_287\n        /* \"#utility.yul\":1698:1702   */\n      dup3\n        /* \"#utility.yul\":1676:1703   */\n      tag_197\n      jump\t// in\n    tag_287:\n        /* \"#utility.yul\":1668:1674   */\n      dup2\n        /* \"#utility.yul\":1664:1704   */\n      add\n        /* \"#utility.yul\":1806:1812   */\n      dup2\n        /* \"#utility.yul\":1794:1804   */\n      dup2\n        /* \"#utility.yul\":1791:1813   */\n      lt\n        /* \"#utility.yul\":1770:1788   */\n      0xffffffffffffffff\n        /* \"#utility.yul\":1758:1768   */\n      dup3\n        /* \"#utility.yul\":1755:1789   */\n      gt\n        /* \"#utility.yul\":1752:1814   */\n      or\n        /* \"#utility.yul\":1749:1837   */\n      iszero\n      tag_288\n      jumpi\n        /* \"#utility.yul\":1817:1835   */\n      tag_289\n      tag_198\n      jump\t// in\n    tag_289:\n        /* \"#utility.yul\":1749:1837   */\n    tag_288:\n        /* \"#utility.yul\":1857:1867   */\n      dup1\n        /* \"#utility.yul\":1853:1855   */\n      0x40\n        /* \"#utility.yul\":1846:1868   */\n      mstore\n        /* \"#utility.yul\":1636:1874   */\n      pop\n        /* \"#utility.yul\":1593:1874   */\n      pop\n      pop\n      jump\t// out\n        /* \"#utility.yul\":1880:2009   */\n    tag_200:\n        /* \"#utility.yul\":1914:1920   */\n      0x00\n        /* \"#utility.yul\":1941:1961   */\n      tag_291\n      tag_189\n      jump\t// in\n    tag_291:\n        /* \"#utility.yul\":1931:1961   */\n      swap1\n      pop\n        /* \"#utility.yul\":1970:2003   */\n      tag_292\n        /* \"#utility.yul\":1998:2002   */\n      dup3\n        /* \"#utility.yul\":1990:1996   */\n      dup3\n        /* \"#utility.yul\":1970:2003   */\n      tag_199\n      jump\t// in\n    tag_292:\n        /* \"#utility.yul\":1880:2009   */\n      swap2\n      swap1\n      pop\n      jump\t// out\n        /* \"#utility.yul\":2015:2132   */\n    tag_201:\n        /* \"#utility.yul\":2124:2125   */\n      0x00\n        /* \"#utility.yul\":2121:2122   */\n      dup1\n        /* \"#utility.yul\":2114:2126   */\n      revert\n        /* \"#utility.yul\":2138:2215   */\n    tag_202:\n        /* \"#utility.yul\":2175:2182   */\n      0x00\n        /* \"#utility.yul\":2204:2209   */\n      dup2\n        /* \"#utility.yul\":2193:2209   */\n      swap1\n      pop\n        /* \"#utility.yul\":2138:2215   */\n      swap2\n      swap1\n      pop\n      jump\t// out\n        /* \"#utility.yul\":2221:2343   */\n    tag_203:\n        /* \"#utility.yul\":2294:2318   */\n      tag_296\n        /* \"#utility.yul\":2312:2317   */\n      dup2\n        /* \"#utility.yul\":2294:2318   */\n      tag_202\n      jump\t// in\n    tag_296:\n        /* \"#utility.yul\":2287:2292   */\n      dup2\n        /* \"#utility.yul\":2284:2319   */\n      eq\n        /* \"#utility.yul\":2274:2337   */\n      tag_297\n      jumpi\n        /* \"#utility.yul\":2333:2334   */\n      0x00\n        /* \"#utility.yul\":2330:2331   */\n      dup1\n        /* \"#utility.yul\":2323:2335   */\n      revert\n        /* \"#utility.yul\":2274:2337   */\n    tag_297:\n        /* \"#utility.yul\":2221:2343   */\n      pop\n      jump\t// out\n        /* \"#utility.yul\":2349:2488   */\n    tag_204:\n        /* \"#utility.yul\":2395:2400   */\n      0x00\n        /* \"#utility.yul\":2433:2439   */\n      dup2\n        /* \"#utility.yul\":2420:2440   */\n      calldataload\n        /* \"#utility.yul\":2411:2440   */\n      swap1\n      pop\n        /* \"#utility.yul\":2449:2482   */\n      tag_299\n        /* \"#utility.yul\":2476:2481   */\n      dup2\n        /* \"#utility.yul\":2449:2482   */\n      tag_203\n      jump\t// in\n    tag_299:\n        /* \"#utility.yul\":2349:2488   */\n      swap3\n      swap2\n      pop\n      pop\n      jump\t// out\n        /* \"#utility.yul\":2494:2611   */\n    tag_205:\n        /* \"#utility.yul\":2603:2604   */\n      0x00\n        /* \"#utility.yul\":2600:2601   */\n      dup1\n        /* \"#utility.yul\":2593:2605   */\n      revert\n        /* \"#utility.yul\":2617:2734   */\n    tag_206:\n        /* \"#utility.yul\":2726:2727   */\n      0x00\n        /* \"#utility.yul\":2723:2724   */\n      dup1\n        /* \"#utility.yul\":2716:2728   */\n      revert\n        /* \"#utility.yul\":2740:3047   */\n    tag_207:\n        /* \"#utility.yul\":2801:2805   */\n      0x00\n        /* \"#utility.yul\":2891:2909   */\n      0xffffffffffffffff\n        /* \"#utility.yul\":2883:2889   */\n      dup3\n        /* \"#utility.yul\":2880:2910   */\n      gt\n        /* \"#utility.yul\":2877:2933   */\n      iszero\n      tag_303\n      jumpi\n        /* \"#utility.yul\":2913:2931   */\n      tag_304\n      tag_198\n      jump\t// in\n    tag_304:\n        /* \"#utility.yul\":2877:2933   */\n    tag_303:\n        /* \"#utility.yul\":2951:2980   */\n      tag_305\n        /* \"#utility.yul\":2973:2979   */\n      dup3\n        /* \"#utility.yul\":2951:2980   */\n      tag_197\n      jump\t// in\n    tag_305:\n        /* \"#utility.yul\":2943:2980   */\n      swap1\n      pop\n        /* \"#utility.yul\":3035:3039   */\n      0x20\n        /* \"#utility.yul\":3029:3033   */\n      dup2\n        /* \"#utility.yul\":3025:3040   */\n      add\n        /* \"#utility.yul\":3017:3040   */\n      swap1\n      pop\n        /* \"#utility.yul\":2740:3047   */\n      swap2\n      swap1\n      pop\n      jump\t// out\n        /* \"#utility.yul\":3053:3199   */\n    tag_208:\n        /* \"#utility.yul\":3150:3156   */\n      dup3\n        /* \"#utility.yul\":3145:3148   */\n      dup2\n        /* \"#utility.yul\":3140:3143   */\n      dup4\n        /* \"#utility.yul\":3127:3157   */\n      calldatacopy\n        /* \"#utility.yul\":3191:3192   */\n      0x00\n        /* \"#utility.yul\":3182:3188   */\n      dup4\n        /* \"#utility.yul\":3177:3180   */\n      dup4\n        /* \"#utility.yul\":3173:3189   */\n      add\n        /* \"#utility.yul\":3166:3193   */\n      mstore\n        /* \"#utility.yul\":3053:3199   */\n      pop\n      pop\n      pop\n      jump\t// out\n        /* \"#utility.yul\":3205:3628   */\n    tag_209:\n        /* \"#utility.yul\":3282:3287   */\n      0x00\n        /* \"#utility.yul\":3307:3372   */\n      tag_308\n        /* \"#utility.yul\":3323:3371   */\n      tag_309\n        /* \"#utility.yul\":3364:3370   */\n      dup5\n        /* \"#utility.yul\":3323:3371   */\n      tag_207\n      jump\t// in\n    tag_309:\n        /* \"#utility.yul\":3307:3372   */\n      tag_200\n      jump\t// in\n    tag_308:\n        /* \"#utility.yul\":3298:3372   */\n      swap1\n      pop\n        /* \"#utility.yul\":3395:3401   */\n      dup3\n        /* \"#utility.yul\":3388:3393   */\n      dup2\n        /* \"#utility.yul\":3381:3402   */\n      mstore\n        /* \"#utility.yul\":3433:3437   */\n      0x20\n        /* \"#utility.yul\":3426:3431   */\n      dup2\n        /* \"#utility.yul\":3422:3438   */\n      add\n        /* \"#utility.yul\":3471:3474   */\n      dup5\n        /* \"#utility.yul\":3462:3468   */\n      dup5\n        /* \"#utility.yul\":3457:3460   */\n      dup5\n        /* \"#utility.yul\":3453:3469   */\n      add\n        /* \"#utility.yul\":3450:3475   */\n      gt\n        /* \"#utility.yul\":3447:3559   */\n      iszero\n      tag_310\n      jumpi\n        /* \"#utility.yul\":3478:3557   */\n      tag_311\n      tag_206\n      jump\t// in\n    tag_311:\n        /* \"#utility.yul\":3447:3559   */\n    tag_310:\n        /* \"#utility.yul\":3568:3622   */\n      tag_312\n        /* \"#utility.yul\":3615:3621   */\n      dup5\n        /* \"#utility.yul\":3610:3613   */\n      dup3\n        /* \"#utility.yul\":3605:3608   */\n      dup6\n        /* \"#utility.yul\":3568:3622   */\n      tag_208\n      jump\t// in\n    tag_312:\n        /* \"#utility.yul\":3288:3628   */\n      pop\n        /* \"#utility.yul\":3205:3628   */\n      swap4\n      swap3\n      pop\n      pop\n      pop\n      jump\t// out\n        /* \"#utility.yul\":3647:3985   */\n    tag_210:\n        /* \"#utility.yul\":3702:3707   */\n      0x00\n        /* \"#utility.yul\":3751:3754   */\n      dup3\n        /* \"#utility.yul\":3744:3748   */\n      0x1f\n        /* \"#utility.yul\":3736:3742   */\n      dup4\n        /* \"#utility.yul\":3732:3749   */\n      add\n        /* \"#utility.yul\":3728:3755   */\n      slt\n        /* \"#utility.yul\":3718:3840   */\n      tag_314\n      jumpi\n        /* \"#utility.yul\":3759:3838   */\n      tag_315\n      tag_205\n      jump\t// in\n    tag_315:\n        /* \"#utility.yul\":3718:3840   */\n    tag_314:\n        /* \"#utility.yul\":3876:3882   */\n      dup2\n        /* \"#utility.yul\":3863:3883   */\n      calldataload\n        /* \"#utility.yul\":3901:3979   */\n      tag_316\n        /* \"#utility.yul\":3975:3978   */\n      dup5\n        /* \"#utility.yul\":3967:3973   */\n      dup3\n        /* \"#utility.yul\":3960:3964   */\n      0x20\n        /* \"#utility.yul\":3952:3958   */\n      dup7\n        /* \"#utility.yul\":3948:3965   */\n      add\n        /* \"#utility.yul\":3901:3979   */\n      tag_209\n      jump\t// in\n    tag_316:\n        /* \"#utility.yul\":3892:3979   */\n      swap2\n      pop\n        /* \"#utility.yul\":3708:3985   */\n      pop\n        /* \"#utility.yul\":3647:3985   */\n      swap3\n      swap2\n      pop\n      pop\n      jump\t// out\n        /* \"#utility.yul\":3991:4068   */\n    tag_211:\n        /* \"#utility.yul\":4028:4035   */\n      0x00\n        /* \"#utility.yul\":4057:4062   */\n      dup2\n        /* \"#utility.yul\":4046:4062   */\n      swap1\n      pop\n        /* \"#utility.yul\":3991:4068   */\n      swap2\n      swap1\n      pop\n      jump\t// out\n        /* \"#utility.yul\":4074:4196   */\n    tag_212:\n        /* \"#utility.yul\":4147:4171   */\n      tag_319\n        /* \"#utility.yul\":4165:4170   */\n      dup2\n        /* \"#utility.yul\":4147:4171   */\n      tag_211\n      jump\t// in\n    tag_319:\n        /* \"#utility.yul\":4140:4145   */\n      dup2\n        /* \"#utility.yul\":4137:4172   */\n      eq\n        /* \"#utility.yul\":4127:4190   */\n      tag_320\n      jumpi\n        /* \"#utility.yul\":4186:4187   */\n      0x00\n        /* \"#utility.yul\":4183:4184   */\n      dup1\n        /* \"#utility.yul\":4176:4188   */\n      revert\n        /* \"#utility.yul\":4127:4190   */\n    tag_320:\n        /* \"#utility.yul\":4074:4196   */\n      pop\n      jump\t// out\n        /* \"#utility.yul\":4202:4341   */\n    tag_213:\n        /* \"#utility.yul\":4248:4253   */\n      0x00\n        /* \"#utility.yul\":4286:4292   */\n      dup2\n        /* \"#utility.yul\":4273:4293   */\n      calldataload\n        /* \"#utility.yul\":4264:4293   */\n      swap1\n      pop\n        /* \"#utility.yul\":4302:4335   */\n      tag_322\n        /* \"#utility.yul\":4329:4334   */\n      dup2\n        /* \"#utility.yul\":4302:4335   */\n      tag_212\n      jump\t// in\n    tag_322:\n        /* \"#utility.yul\":4202:4341   */\n      swap3\n      swap2\n      pop\n      pop\n      jump\t// out\n        /* \"#utility.yul\":4386:5968   */\n    tag_214:\n        /* \"#utility.yul\":4461:4466   */\n      0x00\n        /* \"#utility.yul\":4505:4509   */\n      0xe0\n        /* \"#utility.yul\":4493:4502   */\n      dup3\n        /* \"#utility.yul\":4488:4491   */\n      dup5\n        /* \"#utility.yul\":4484:4503   */\n      sub\n        /* \"#utility.yul\":4480:4510   */\n      slt\n        /* \"#utility.yul\":4477:4594   */\n      iszero\n      tag_324\n      jumpi\n        /* \"#utility.yul\":4513:4592   */\n      tag_325\n      tag_196\n      jump\t// in\n    tag_325:\n        /* \"#utility.yul\":4477:4594   */\n    tag_324:\n        /* \"#utility.yul\":4612:4633   */\n      tag_326\n        /* \"#utility.yul\":4628:4632   */\n      0xe0\n        /* \"#utility.yul\":4612:4633   */\n      tag_200\n      jump\t// in\n    tag_326:\n        /* \"#utility.yul\":4603:4633   */\n      swap1\n      pop\n        /* \"#utility.yul\":4694:4695   */\n      0x00\n        /* \"#utility.yul\":4734:4783   */\n      tag_327\n        /* \"#utility.yul\":4779:4782   */\n      dup5\n        /* \"#utility.yul\":4770:4776   */\n      dup3\n        /* \"#utility.yul\":4759:4768   */\n      dup6\n        /* \"#utility.yul\":4755:4777   */\n      add\n        /* \"#utility.yul\":4734:4783   */\n      tag_195\n      jump\t// in\n    tag_327:\n        /* \"#utility.yul\":4727:4731   */\n      0x00\n        /* \"#utility.yul\":4720:4725   */\n      dup4\n        /* \"#utility.yul\":4716:4732   */\n      add\n        /* \"#utility.yul\":4709:4784   */\n      mstore\n        /* \"#utility.yul\":4643:4795   */\n      pop\n        /* \"#utility.yul\":4860:4862   */\n      0x20\n        /* \"#utility.yul\":4901:4950   */\n      tag_328\n        /* \"#utility.yul\":4946:4949   */\n      dup5\n        /* \"#utility.yul\":4937:4943   */\n      dup3\n        /* \"#utility.yul\":4926:4935   */\n      dup6\n        /* \"#utility.yul\":4922:4944   */\n      add\n        /* \"#utility.yul\":4901:4950   */\n      tag_195\n      jump\t// in\n    tag_328:\n        /* \"#utility.yul\":4894:4898   */\n      0x20\n        /* \"#utility.yul\":4887:4892   */\n      dup4\n        /* \"#utility.yul\":4883:4899   */\n      add\n        /* \"#utility.yul\":4876:4951   */\n      mstore\n        /* \"#utility.yul\":4805:4962   */\n      pop\n        /* \"#utility.yul\":5024:5026   */\n      0x40\n        /* \"#utility.yul\":5065:5114   */\n      tag_329\n        /* \"#utility.yul\":5110:5113   */\n      dup5\n        /* \"#utility.yul\":5101:5107   */\n      dup3\n        /* \"#utility.yul\":5090:5099   */\n      dup6\n        /* \"#utility.yul\":5086:5108   */\n      add\n        /* \"#utility.yul\":5065:5114   */\n      tag_204\n      jump\t// in\n    tag_329:\n        /* \"#utility.yul\":5058:5062   */\n      0x40\n        /* \"#utility.yul\":5051:5056   */\n      dup4\n        /* \"#utility.yul\":5047:5063   */\n      add\n        /* \"#utility.yul\":5040:5115   */\n      mstore\n        /* \"#utility.yul\":4972:5126   */\n      pop\n        /* \"#utility.yul\":5186:5188   */\n      0x60\n        /* \"#utility.yul\":5227:5276   */\n      tag_330\n        /* \"#utility.yul\":5272:5275   */\n      dup5\n        /* \"#utility.yul\":5263:5269   */\n      dup3\n        /* \"#utility.yul\":5252:5261   */\n      dup6\n        /* \"#utility.yul\":5248:5270   */\n      add\n        /* \"#utility.yul\":5227:5276   */\n      tag_204\n      jump\t// in\n    tag_330:\n        /* \"#utility.yul\":5220:5224   */\n      0x60\n        /* \"#utility.yul\":5213:5218   */\n      dup4\n        /* \"#utility.yul\":5209:5225   */\n      add\n        /* \"#utility.yul\":5202:5277   */\n      mstore\n        /* \"#utility.yul\":5136:5288   */\n      pop\n        /* \"#utility.yul\":5380:5383   */\n      0x80\n        /* \"#utility.yul\":5369:5378   */\n      dup3\n        /* \"#utility.yul\":5365:5384   */\n      add\n        /* \"#utility.yul\":5352:5385   */\n      calldataload\n        /* \"#utility.yul\":5412:5430   */\n      0xffffffffffffffff\n        /* \"#utility.yul\":5404:5410   */\n      dup2\n        /* \"#utility.yul\":5401:5431   */\n      gt\n        /* \"#utility.yul\":5398:5515   */\n      iszero\n      tag_331\n      jumpi\n        /* \"#utility.yul\":5434:5513   */\n      tag_332\n      tag_201\n      jump\t// in\n    tag_332:\n        /* \"#utility.yul\":5398:5515   */\n    tag_331:\n        /* \"#utility.yul\":5554:5612   */\n      tag_333\n        /* \"#utility.yul\":5608:5611   */\n      dup5\n        /* \"#utility.yul\":5599:5605   */\n      dup3\n        /* \"#utility.yul\":5588:5597   */\n      dup6\n        /* \"#utility.yul\":5584:5606   */\n      add\n        /* \"#utility.yul\":5554:5612   */\n      tag_210\n      jump\t// in\n    tag_333:\n        /* \"#utility.yul\":5547:5551   */\n      0x80\n        /* \"#utility.yul\":5540:5545   */\n      dup4\n        /* \"#utility.yul\":5536:5552   */\n      add\n        /* \"#utility.yul\":5529:5613   */\n      mstore\n        /* \"#utility.yul\":5298:5624   */\n      pop\n        /* \"#utility.yul\":5693:5696   */\n      0xa0\n        /* \"#utility.yul\":5735:5784   */\n      tag_334\n        /* \"#utility.yul\":5780:5783   */\n      dup5\n        /* \"#utility.yul\":5771:5777   */\n      dup3\n        /* \"#utility.yul\":5760:5769   */\n      dup6\n        /* \"#utility.yul\":5756:5778   */\n      add\n        /* \"#utility.yul\":5735:5784   */\n      tag_204\n      jump\t// in\n    tag_334:\n        /* \"#utility.yul\":5728:5732   */\n      0xa0\n        /* \"#utility.yul\":5721:5726   */\n      dup4\n        /* \"#utility.yul\":5717:5733   */\n      add\n        /* \"#utility.yul\":5710:5785   */\n      mstore\n        /* \"#utility.yul\":5634:5796   */\n      pop\n        /* \"#utility.yul\":5858:5861   */\n      0xc0\n        /* \"#utility.yul\":5900:5949   */\n      tag_335\n        /* \"#utility.yul\":5945:5948   */\n      dup5\n        /* \"#utility.yul\":5936:5942   */\n      dup3\n        /* \"#utility.yul\":5925:5934   */\n      dup6\n        /* \"#utility.yul\":5921:5943   */\n      add\n        /* \"#utility.yul\":5900:5949   */\n      tag_213\n      jump\t// in\n    tag_335:\n        /* \"#utility.yul\":5893:5897   */\n      0xc0\n        /* \"#utility.yul\":5886:5891   */\n      dup4\n        /* \"#utility.yul\":5882:5898   */\n      add\n        /* \"#utility.yul\":5875:5950   */\n      mstore\n        /* \"#utility.yul\":5806:5961   */\n      pop\n        /* \"#utility.yul\":4386:5968   */\n      swap3\n      swap2\n      pop\n      pop\n      jump\t// out\n        /* \"#utility.yul\":5974:6515   */\n    tag_19:\n        /* \"#utility.yul\":6059:6065   */\n      0x00\n        /* \"#utility.yul\":6108:6110   */\n      0x20\n        /* \"#utility.yul\":6096:6105   */\n      dup3\n        /* \"#utility.yul\":6087:6094   */\n      dup5\n        /* \"#utility.yul\":6083:6106   */\n      sub\n        /* \"#utility.yul\":6079:6111   */\n      slt\n        /* \"#utility.yul\":6076:6195   */\n      iszero\n      tag_337\n      jumpi\n        /* \"#utility.yul\":6114:6193   */\n      tag_338\n      tag_190\n      jump\t// in\n    tag_338:\n        /* \"#utility.yul\":6076:6195   */\n    tag_337:\n        /* \"#utility.yul\":6262:6263   */\n      0x00\n        /* \"#utility.yul\":6251:6260   */\n      dup3\n        /* \"#utility.yul\":6247:6264   */\n      add\n        /* \"#utility.yul\":6234:6265   */\n      calldataload\n        /* \"#utility.yul\":6292:6310   */\n      0xffffffffffffffff\n        /* \"#utility.yul\":6284:6290   */\n      dup2\n        /* \"#utility.yul\":6281:6311   */\n      gt\n        /* \"#utility.yul\":6278:6395   */\n      iszero\n      tag_339\n      jumpi\n        /* \"#utility.yul\":6314:6393   */\n      tag_340\n      tag_191\n      jump\t// in\n    tag_340:\n        /* \"#utility.yul\":6278:6395   */\n    tag_339:\n        /* \"#utility.yul\":6419:6498   */\n      tag_341\n        /* \"#utility.yul\":6490:6497   */\n      dup5\n        /* \"#utility.yul\":6481:6487   */\n      dup3\n        /* \"#utility.yul\":6470:6479   */\n      dup6\n        /* \"#utility.yul\":6466:6488   */\n      add\n        /* \"#utility.yul\":6419:6498   */\n      tag_214\n      jump\t// in\n    tag_341:\n        /* \"#utility.yul\":6409:6498   */\n      swap2\n      pop\n        /* \"#utility.yul\":6205:6508   */\n      pop\n        /* \"#utility.yul\":5974:6515   */\n      swap3\n      swap2\n      pop\n      pop\n      jump\t// out\n        /* \"#utility.yul\":6521:7902   */\n    tag_23:\n        /* \"#utility.yul\":6643:6649   */\n      0x00\n        /* \"#utility.yul\":6651:6657   */\n      dup1\n        /* \"#utility.yul\":6659:6665   */\n      0x00\n        /* \"#utility.yul\":6667:6673   */\n      dup1\n        /* \"#utility.yul\":6675:6681   */\n      0x00\n        /* \"#utility.yul\":6683:6689   */\n      dup1\n        /* \"#utility.yul\":6691:6697   */\n      0x00\n        /* \"#utility.yul\":6740:6743   */\n      0xe0\n        /* \"#utility.yul\":6728:6737   */\n      dup9\n        /* \"#utility.yul\":6719:6726   */\n      dup11\n        /* \"#utility.yul\":6715:6738   */\n      sub\n        /* \"#utility.yul\":6711:6744   */\n      slt\n        /* \"#utility.yul\":6708:6828   */\n      iszero\n      tag_343\n      jumpi\n        /* \"#utility.yul\":6747:6826   */\n      tag_344\n      tag_190\n      jump\t// in\n    tag_344:\n        /* \"#utility.yul\":6708:6828   */\n    tag_343:\n        /* \"#utility.yul\":6867:6868   */\n      0x00\n        /* \"#utility.yul\":6892:6945   */\n      tag_345\n        /* \"#utility.yul\":6937:6944   */\n      dup11\n        /* \"#utility.yul\":6928:6934   */\n      dup3\n        /* \"#utility.yul\":6917:6926   */\n      dup12\n        /* \"#utility.yul\":6913:6935   */\n      add\n        /* \"#utility.yul\":6892:6945   */\n      tag_195\n      jump\t// in\n    tag_345:\n        /* \"#utility.yul\":6882:6945   */\n      swap8\n      pop\n        /* \"#utility.yul\":6838:6955   */\n      pop\n        /* \"#utility.yul\":6994:6996   */\n      0x20\n        /* \"#utility.yul\":7020:7073   */\n      tag_346\n        /* \"#utility.yul\":7065:7072   */\n      dup11\n        /* \"#utility.yul\":7056:7062   */\n      dup3\n        /* \"#utility.yul\":7045:7054   */\n      dup12\n        /* \"#utility.yul\":7041:7063   */\n      add\n        /* \"#utility.yul\":7020:7073   */\n      tag_195\n      jump\t// in\n    tag_346:\n        /* \"#utility.yul\":7010:7073   */\n      swap7\n      pop\n        /* \"#utility.yul\":6965:7083   */\n      pop\n        /* \"#utility.yul\":7122:7124   */\n      0x40\n        /* \"#utility.yul\":7148:7201   */\n      tag_347\n        /* \"#utility.yul\":7193:7200   */\n      dup11\n        /* \"#utility.yul\":7184:7190   */\n      dup3\n        /* \"#utility.yul\":7173:7182   */\n      dup12\n        /* \"#utility.yul\":7169:7191   */\n      add\n        /* \"#utility.yul\":7148:7201   */\n      tag_204\n      jump\t// in\n    tag_347:\n        /* \"#utility.yul\":7138:7201   */\n      swap6\n      pop\n        /* \"#utility.yul\":7093:7211   */\n      pop\n        /* \"#utility.yul\":7250:7252   */\n      0x60\n        /* \"#utility.yul\":7276:7329   */\n      tag_348\n        /* \"#utility.yul\":7321:7328   */\n      dup11\n        /* \"#utility.yul\":7312:7318   */\n      dup3\n        /* \"#utility.yul\":7301:7310   */\n      dup12\n        /* \"#utility.yul\":7297:7319   */\n      add\n        /* \"#utility.yul\":7276:7329   */\n      tag_204\n      jump\t// in\n    tag_348:\n        /* \"#utility.yul\":7266:7329   */\n      swap5\n      pop\n        /* \"#utility.yul\":7221:7339   */\n      pop\n        /* \"#utility.yul\":7406:7409   */\n      0x80\n        /* \"#utility.yul\":7395:7404   */\n      dup9\n        /* \"#utility.yul\":7391:7410   */\n      add\n        /* \"#utility.yul\":7378:7411   */\n      calldataload\n        /* \"#utility.yul\":7438:7456   */\n      0xffffffffffffffff\n        /* \"#utility.yul\":7430:7436   */\n      dup2\n        /* \"#utility.yul\":7427:7457   */\n      gt\n        /* \"#utility.yul\":7424:7541   */\n      iszero\n      tag_349\n      jumpi\n        /* \"#utility.yul\":7460:7539   */\n      tag_350\n      tag_191\n      jump\t// in\n    tag_350:\n        /* \"#utility.yul\":7424:7541   */\n    tag_349:\n        /* \"#utility.yul\":7565:7627   */\n      tag_351\n        /* \"#utility.yul\":7619:7626   */\n      dup11\n        /* \"#utility.yul\":7610:7616   */\n      dup3\n        /* \"#utility.yul\":7599:7608   */\n      dup12\n        /* \"#utility.yul\":7595:7617   */\n      add\n        /* \"#utility.yul\":7565:7627   */\n      tag_210\n      jump\t// in\n    tag_351:\n        /* \"#utility.yul\":7555:7627   */\n      swap4\n      pop\n        /* \"#utility.yul\":7349:7637   */\n      pop\n        /* \"#utility.yul\":7676:7679   */\n      0xa0\n        /* \"#utility.yul\":7703:7756   */\n      tag_352\n        /* \"#utility.yul\":7748:7755   */\n      dup11\n        /* \"#utility.yul\":7739:7745   */\n      dup3\n        /* \"#utility.yul\":7728:7737   */\n      dup12\n        /* \"#utility.yul\":7724:7746   */\n      add\n        /* \"#utility.yul\":7703:7756   */\n      tag_204\n      jump\t// in\n    tag_352:\n        /* \"#utility.yul\":7693:7756   */\n      swap3\n      pop\n        /* \"#utility.yul\":7647:7766   */\n      pop\n        /* \"#utility.yul\":7805:7808   */\n      0xc0\n        /* \"#utility.yul\":7832:7885   */\n      tag_353\n        /* \"#utility.yul\":7877:7884   */\n      dup11\n        /* \"#utility.yul\":7868:7874   */\n      dup3\n        /* \"#utility.yul\":7857:7866   */\n      dup12\n        /* \"#utility.yul\":7853:7875   */\n      add\n        /* \"#utility.yul\":7832:7885   */\n      tag_213\n      jump\t// in\n    tag_353:\n        /* \"#utility.yul\":7822:7885   */\n      swap2\n      pop\n        /* \"#utility.yul\":7776:7895   */\n      pop\n        /* \"#utility.yul\":6521:7902   */\n      swap3\n      swap6\n      swap9\n      swap2\n      swap5\n      swap8\n      pop\n      swap3\n      swap6\n      pop\n      jump\t// out\n        /* \"#utility.yul\":7908:8237   */\n    tag_32:\n        /* \"#utility.yul\":7967:7973   */\n      0x00\n        /* \"#utility.yul\":8016:8018   */\n      0x20\n        /* \"#utility.yul\":8004:8013   */\n      dup3\n        /* \"#utility.yul\":7995:8002   */\n      dup5\n        /* \"#utility.yul\":7991:8014   */\n      sub\n        /* \"#utility.yul\":7987:8019   */\n      slt\n        /* \"#utility.yul\":7984:8103   */\n      iszero\n      tag_355\n      jumpi\n        /* \"#utility.yul\":8022:8101   */\n      tag_356\n      tag_190\n      jump\t// in\n    tag_356:\n        /* \"#utility.yul\":7984:8103   */\n    tag_355:\n        /* \"#utility.yul\":8142:8143   */\n      0x00\n        /* \"#utility.yul\":8167:8220   */\n      tag_357\n        /* \"#utility.yul\":8212:8219   */\n      dup5\n        /* \"#utility.yul\":8203:8209   */\n      dup3\n        /* \"#utility.yul\":8192:8201   */\n      dup6\n        /* \"#utility.yul\":8188:8210   */\n      add\n        /* \"#utility.yul\":8167:8220   */\n      tag_204\n      jump\t// in\n    tag_357:\n        /* \"#utility.yul\":8157:8220   */\n      swap2\n      pop\n        /* \"#utility.yul\":8113:8230   */\n      pop\n        /* \"#utility.yul\":7908:8237   */\n      swap3\n      swap2\n      pop\n      pop\n      jump\t// out\n        /* \"#utility.yul\":8243:8361   */\n    tag_215:\n        /* \"#utility.yul\":8330:8354   */\n      tag_359\n        /* \"#utility.yul\":8348:8353   */\n      dup2\n        /* \"#utility.yul\":8330:8354   */\n      tag_202\n      jump\t// in\n    tag_359:\n        /* \"#utility.yul\":8325:8328   */\n      dup3\n        /* \"#utility.yul\":8318:8355   */\n      mstore\n        /* \"#utility.yul\":8243:8361   */\n      pop\n      pop\n      jump\t// out\n        /* \"#utility.yul\":8367:8589   */\n    tag_38:\n        /* \"#utility.yul\":8460:8464   */\n      0x00\n        /* \"#utility.yul\":8498:8500   */\n      0x20\n        /* \"#utility.yul\":8487:8496   */\n      dup3\n        /* \"#utility.yul\":8483:8501   */\n      add\n        /* \"#utility.yul\":8475:8501   */\n      swap1\n      pop\n        /* \"#utility.yul\":8511:8582   */\n      tag_361\n        /* \"#utility.yul\":8579:8580   */\n      0x00\n        /* \"#utility.yul\":8568:8577   */\n      dup4\n        /* \"#utility.yul\":8564:8581   */\n      add\n        /* \"#utility.yul\":8555:8561   */\n      dup5\n        /* \"#utility.yul\":8511:8582   */\n      tag_215\n      jump\t// in\n    tag_361:\n        /* \"#utility.yul\":8367:8589   */\n      swap3\n      swap2\n      pop\n      pop\n      jump\t// out\n        /* \"#utility.yul\":8595:8713   */\n    tag_216:\n        /* \"#utility.yul\":8682:8706   */\n      tag_363\n        /* \"#utility.yul\":8700:8705   */\n      dup2\n        /* \"#utility.yul\":8682:8706   */\n      tag_193\n      jump\t// in\n    tag_363:\n        /* \"#utility.yul\":8677:8680   */\n      dup3\n        /* \"#utility.yul\":8670:8707   */\n      mstore\n        /* \"#utility.yul\":8595:8713   */\n      pop\n      pop\n      jump\t// out\n        /* \"#utility.yul\":8719:8941   */\n    tag_47:\n        /* \"#utility.yul\":8812:8816   */\n      0x00\n        /* \"#utility.yul\":8850:8852   */\n      0x20\n        /* \"#utility.yul\":8839:8848   */\n      dup3\n        /* \"#utility.yul\":8835:8853   */\n      add\n        /* \"#utility.yul\":8827:8853   */\n      swap1\n      pop\n        /* \"#utility.yul\":8863:8934   */\n      tag_365\n        /* \"#utility.yul\":8931:8932   */\n      0x00\n        /* \"#utility.yul\":8920:8929   */\n      dup4\n        /* \"#utility.yul\":8916:8933   */\n      add\n        /* \"#utility.yul\":8907:8913   */\n      dup5\n        /* \"#utility.yul\":8863:8934   */\n      tag_216\n      jump\t// in\n    tag_365:\n        /* \"#utility.yul\":8719:8941   */\n      swap3\n      swap2\n      pop\n      pop\n      jump\t// out\n        /* \"#utility.yul\":8947:9116   */\n    tag_217:\n        /* \"#utility.yul\":9031:9042   */\n      0x00\n        /* \"#utility.yul\":9065:9071   */\n      dup3\n        /* \"#utility.yul\":9060:9063   */\n      dup3\n        /* \"#utility.yul\":9053:9072   */\n      mstore\n        /* \"#utility.yul\":9105:9109   */\n      0x20\n        /* \"#utility.yul\":9100:9103   */\n      dup3\n        /* \"#utility.yul\":9096:9110   */\n      add\n        /* \"#utility.yul\":9081:9110   */\n      swap1\n      pop\n        /* \"#utility.yul\":8947:9116   */\n      swap3\n      swap2\n      pop\n      pop\n      jump\t// out\n        /* \"#utility.yul\":9122:9296   */\n    tag_218:\n        /* \"#utility.yul\":9262:9288   */\n      0x6f6e6c79206f776e65722063616e2063616c6c20746869730000000000000000\n        /* \"#utility.yul\":9258:9259   */\n      0x00\n        /* \"#utility.yul\":9250:9256   */\n      dup3\n        /* \"#utility.yul\":9246:9260   */\n      add\n        /* \"#utility.yul\":9239:9289   */\n      mstore\n        /* \"#utility.yul\":9122:9296   */\n      pop\n      jump\t// out\n        /* \"#utility.yul\":9302:9668   */\n    tag_219:\n        /* \"#utility.yul\":9444:9447   */\n      0x00\n        /* \"#utility.yul\":9465:9532   */\n      tag_369\n        /* \"#utility.yul\":9529:9531   */\n      0x18\n        /* \"#utility.yul\":9524:9527   */\n      dup4\n        /* \"#utility.yul\":9465:9532   */\n      tag_217\n      jump\t// in\n    tag_369:\n        /* \"#utility.yul\":9458:9532   */\n      swap2\n      pop\n        /* \"#utility.yul\":9541:9634   */\n      tag_370\n        /* \"#utility.yul\":9630:9633   */\n      dup3\n        /* \"#utility.yul\":9541:9634   */\n      tag_218\n      jump\t// in\n    tag_370:\n        /* \"#utility.yul\":9659:9661   */\n      0x20\n        /* \"#utility.yul\":9654:9657   */\n      dup3\n        /* \"#utility.yul\":9650:9662   */\n      add\n        /* \"#utility.yul\":9643:9662   */\n      swap1\n      pop\n        /* \"#utility.yul\":9302:9668   */\n      swap2\n      swap1\n      pop\n      jump\t// out\n        /* \"#utility.yul\":9674:10093   */\n    tag_51:\n        /* \"#utility.yul\":9840:9844   */\n      0x00\n        /* \"#utility.yul\":9878:9880   */\n      0x20\n        /* \"#utility.yul\":9867:9876   */\n      dup3\n        /* \"#utility.yul\":9863:9881   */\n      add\n        /* \"#utility.yul\":9855:9881   */\n      swap1\n      pop\n        /* \"#utility.yul\":9927:9936   */\n      dup2\n        /* \"#utility.yul\":9921:9925   */\n      dup2\n        /* \"#utility.yul\":9917:9937   */\n      sub\n        /* \"#utility.yul\":9913:9914   */\n      0x00\n        /* \"#utility.yul\":9902:9911   */\n      dup4\n        /* \"#utility.yul\":9898:9915   */\n      add\n        /* \"#utility.yul\":9891:9938   */\n      mstore\n        /* \"#utility.yul\":9955:10086   */\n      tag_372\n        /* \"#utility.yul\":10081:10085   */\n      dup2\n        /* \"#utility.yul\":9955:10086   */\n      tag_219\n      jump\t// in\n    tag_372:\n        /* \"#utility.yul\":9947:10086   */\n      swap1\n      pop\n        /* \"#utility.yul\":9674:10093   */\n      swap2\n      swap1\n      pop\n      jump\t// out\n        /* \"#utility.yul\":10099:10320   */\n    tag_220:\n        /* \"#utility.yul\":10239:10273   */\n      0x4f6e6c792073656c6c65722063616e2063616c6c20746869732066756e637469\n        /* \"#utility.yul\":10235:10236   */\n      0x00\n        /* \"#utility.yul\":10227:10233   */\n      dup3\n        /* \"#utility.yul\":10223:10237   */\n      add\n        /* \"#utility.yul\":10216:10274   */\n      mstore\n        /* \"#utility.yul\":10308:10312   */\n      0x6f6e000000000000000000000000000000000000000000000000000000000000\n        /* \"#utility.yul\":10303:10305   */\n      0x20\n        /* \"#utility.yul\":10295:10301   */\n      dup3\n        /* \"#utility.yul\":10291:10306   */\n      add\n        /* \"#utility.yul\":10284:10313   */\n      mstore\n        /* \"#utility.yul\":10099:10320   */\n      pop\n      jump\t// out\n        /* \"#utility.yul\":10326:10692   */\n    tag_221:\n        /* \"#utility.yul\":10468:10471   */\n      0x00\n        /* \"#utility.yul\":10489:10556   */\n      tag_375\n        /* \"#utility.yul\":10553:10555   */\n      0x22\n        /* \"#utility.yul\":10548:10551   */\n      dup4\n        /* \"#utility.yul\":10489:10556   */\n      tag_217\n      jump\t// in\n    tag_375:\n        /* \"#utility.yul\":10482:10556   */\n      swap2\n      pop\n        /* \"#utility.yul\":10565:10658   */\n      tag_376\n        /* \"#utility.yul\":10654:10657   */\n      dup3\n        /* \"#utility.yul\":10565:10658   */\n      tag_220\n      jump\t// in\n    tag_376:\n        /* \"#utility.yul\":10683:10685   */\n      0x40\n        /* \"#utility.yul\":10678:10681   */\n      dup3\n        /* \"#utility.yul\":10674:10686   */\n      add\n        /* \"#utility.yul\":10667:10686   */\n      swap1\n      pop\n        /* \"#utility.yul\":10326:10692   */\n      swap2\n      swap1\n      pop\n      jump\t// out\n        /* \"#utility.yul\":10698:11117   */\n    tag_55:\n        /* \"#utility.yul\":10864:10868   */\n      0x00\n        /* \"#utility.yul\":10902:10904   */\n      0x20\n        /* \"#utility.yul\":10891:10900   */\n      dup3\n        /* \"#utility.yul\":10887:10905   */\n      add\n        /* \"#utility.yul\":10879:10905   */\n      swap1\n      pop\n        /* \"#utility.yul\":10951:10960   */\n      dup2\n        /* \"#utility.yul\":10945:10949   */\n      dup2\n        /* \"#utility.yul\":10941:10961   */\n      sub\n        /* \"#utility.yul\":10937:10938   */\n      0x00\n        /* \"#utility.yul\":10926:10935   */\n      dup4\n        /* \"#utility.yul\":10922:10939   */\n      add\n        /* \"#utility.yul\":10915:10962   */\n      mstore\n        /* \"#utility.yul\":10979:11110   */\n      tag_378\n        /* \"#utility.yul\":11105:11109   */\n      dup2\n        /* \"#utility.yul\":10979:11110   */\n      tag_221\n      jump\t// in\n    tag_378:\n        /* \"#utility.yul\":10971:11110   */\n      swap1\n      pop\n        /* \"#utility.yul\":10698:11117   */\n      swap2\n      swap1\n      pop\n      jump\t// out\n        /* \"#utility.yul\":11123:11290   */\n    tag_222:\n        /* \"#utility.yul\":11263:11282   */\n      0x496e76616c6964207369676e6174757265000000000000000000000000000000\n        /* \"#utility.yul\":11259:11260   */\n      0x00\n        /* \"#utility.yul\":11251:11257   */\n      dup3\n        /* \"#utility.yul\":11247:11261   */\n      add\n        /* \"#utility.yul\":11240:11283   */\n      mstore\n        /* \"#utility.yul\":11123:11290   */\n      pop\n      jump\t// out\n        /* \"#utility.yul\":11296:11662   */\n    tag_223:\n        /* \"#utility.yul\":11438:11441   */\n      0x00\n        /* \"#utility.yul\":11459:11526   */\n      tag_381\n        /* \"#utility.yul\":11523:11525   */\n      0x11\n        /* \"#utility.yul\":11518:11521   */\n      dup4\n        /* \"#utility.yul\":11459:11526   */\n      tag_217\n      jump\t// in\n    tag_381:\n        /* \"#utility.yul\":11452:11526   */\n      swap2\n      pop\n        /* \"#utility.yul\":11535:11628   */\n      tag_382\n        /* \"#utility.yul\":11624:11627   */\n      dup3\n        /* \"#utility.yul\":11535:11628   */\n      tag_222\n      jump\t// in\n    tag_382:\n        /* \"#utility.yul\":11653:11655   */\n      0x20\n        /* \"#utility.yul\":11648:11651   */\n      dup3\n        /* \"#utility.yul\":11644:11656   */\n      add\n        /* \"#utility.yul\":11637:11656   */\n      swap1\n      pop\n        /* \"#utility.yul\":11296:11662   */\n      swap2\n      swap1\n      pop\n      jump\t// out\n        /* \"#utility.yul\":11668:12087   */\n    tag_68:\n        /* \"#utility.yul\":11834:11838   */\n      0x00\n        /* \"#utility.yul\":11872:11874   */\n      0x20\n        /* \"#utility.yul\":11861:11870   */\n      dup3\n        /* \"#utility.yul\":11857:11875   */\n      add\n        /* \"#utility.yul\":11849:11875   */\n      swap1\n      pop\n        /* \"#utility.yul\":11921:11930   */\n      dup2\n        /* \"#utility.yul\":11915:11919   */\n      dup2\n        /* \"#utility.yul\":11911:11931   */\n      sub\n        /* \"#utility.yul\":11907:11908   */\n      0x00\n        /* \"#utility.yul\":11896:11905   */\n      dup4\n        /* \"#utility.yul\":11892:11909   */\n      add\n        /* \"#utility.yul\":11885:11932   */\n      mstore\n        /* \"#utility.yul\":11949:12080   */\n      tag_384\n        /* \"#utility.yul\":12075:12079   */\n      dup2\n        /* \"#utility.yul\":11949:12080   */\n      tag_223\n      jump\t// in\n    tag_384:\n        /* \"#utility.yul\":11941:12080   */\n      swap1\n      pop\n        /* \"#utility.yul\":11668:12087   */\n      swap2\n      swap1\n      pop\n      jump\t// out\n        /* \"#utility.yul\":12093:12265   */\n    tag_224:\n        /* \"#utility.yul\":12233:12257   */\n      0x50726f78792077616c6c6574206e6f7420666f756e6400000000000000000000\n        /* \"#utility.yul\":12229:12230   */\n      0x00\n        /* \"#utility.yul\":12221:12227   */\n      dup3\n        /* \"#utility.yul\":12217:12231   */\n      add\n        /* \"#utility.yul\":12210:12258   */\n      mstore\n        /* \"#utility.yul\":12093:12265   */\n      pop\n      jump\t// out\n        /* \"#utility.yul\":12271:12637   */\n    tag_225:\n        /* \"#utility.yul\":12413:12416   */\n      0x00\n        /* \"#utility.yul\":12434:12501   */\n      tag_387\n        /* \"#utility.yul\":12498:12500   */\n      0x16\n        /* \"#utility.yul\":12493:12496   */\n      dup4\n        /* \"#utility.yul\":12434:12501   */\n      tag_217\n      jump\t// in\n    tag_387:\n        /* \"#utility.yul\":12427:12501   */\n      swap2\n      pop\n        /* \"#utility.yul\":12510:12603   */\n      tag_388\n        /* \"#utility.yul\":12599:12602   */\n      dup3\n        /* \"#utility.yul\":12510:12603   */\n      tag_224\n      jump\t// in\n    tag_388:\n        /* \"#utility.yul\":12628:12630   */\n      0x20\n        /* \"#utility.yul\":12623:12626   */\n      dup3\n        /* \"#utility.yul\":12619:12631   */\n      add\n        /* \"#utility.yul\":12612:12631   */\n      swap1\n      pop\n        /* \"#utility.yul\":12271:12637   */\n      swap2\n      swap1\n      pop\n      jump\t// out\n        /* \"#utility.yul\":12643:13062   */\n    tag_71:\n        /* \"#utility.yul\":12809:12813   */\n      0x00\n        /* \"#utility.yul\":12847:12849   */\n      0x20\n        /* \"#utility.yul\":12836:12845   */\n      dup3\n        /* \"#utility.yul\":12832:12850   */\n      add\n        /* \"#utility.yul\":12824:12850   */\n      swap1\n      pop\n        /* \"#utility.yul\":12896:12905   */\n      dup2\n        /* \"#utility.yul\":12890:12894   */\n      dup2\n        /* \"#utility.yul\":12886:12906   */\n      sub\n        /* \"#utility.yul\":12882:12883   */\n      0x00\n        /* \"#utility.yul\":12871:12880   */\n      dup4\n        /* \"#utility.yul\":12867:12884   */\n      add\n        /* \"#utility.yul\":12860:12907   */\n      mstore\n        /* \"#utility.yul\":12924:13055   */\n      tag_390\n        /* \"#utility.yul\":13050:13054   */\n      dup2\n        /* \"#utility.yul\":12924:13055   */\n      tag_225\n      jump\t// in\n    tag_390:\n        /* \"#utility.yul\":12916:13055   */\n      swap1\n      pop\n        /* \"#utility.yul\":12643:13062   */\n      swap2\n      swap1\n      pop\n      jump\t// out\n        /* \"#utility.yul\":13068:13211   */\n    tag_226:\n        /* \"#utility.yul\":13125:13130   */\n      0x00\n        /* \"#utility.yul\":13156:13162   */\n      dup2\n        /* \"#utility.yul\":13150:13163   */\n      mload\n        /* \"#utility.yul\":13141:13163   */\n      swap1\n      pop\n        /* \"#utility.yul\":13172:13205   */\n      tag_392\n        /* \"#utility.yul\":13199:13204   */\n      dup2\n        /* \"#utility.yul\":13172:13205   */\n      tag_194\n      jump\t// in\n    tag_392:\n        /* \"#utility.yul\":13068:13211   */\n      swap3\n      swap2\n      pop\n      pop\n      jump\t// out\n        /* \"#utility.yul\":13217:13568   */\n    tag_78:\n        /* \"#utility.yul\":13287:13293   */\n      0x00\n        /* \"#utility.yul\":13336:13338   */\n      0x20\n        /* \"#utility.yul\":13324:13333   */\n      dup3\n        /* \"#utility.yul\":13315:13322   */\n      dup5\n        /* \"#utility.yul\":13311:13334   */\n      sub\n        /* \"#utility.yul\":13307:13339   */\n      slt\n        /* \"#utility.yul\":13304:13423   */\n      iszero\n      tag_394\n      jumpi\n        /* \"#utility.yul\":13342:13421   */\n      tag_395\n      tag_190\n      jump\t// in\n    tag_395:\n        /* \"#utility.yul\":13304:13423   */\n    tag_394:\n        /* \"#utility.yul\":13462:13463   */\n      0x00\n        /* \"#utility.yul\":13487:13551   */\n      tag_396\n        /* \"#utility.yul\":13543:13550   */\n      dup5\n        /* \"#utility.yul\":13534:13540   */\n      dup3\n        /* \"#utility.yul\":13523:13532   */\n      dup6\n        /* \"#utility.yul\":13519:13541   */\n      add\n        /* \"#utility.yul\":13487:13551   */\n      tag_226\n      jump\t// in\n    tag_396:\n        /* \"#utility.yul\":13477:13551   */\n      swap2\n      pop\n        /* \"#utility.yul\":13433:13561   */\n      pop\n        /* \"#utility.yul\":13217:13568   */\n      swap3\n      swap2\n      pop\n      pop\n      jump\t// out\n        /* \"#utility.yul\":13574:13798   */\n    tag_227:\n        /* \"#utility.yul\":13714:13748   */\n      0x53656c6c6572206973206e6f7420746865206f776e6572206f66207468697320\n        /* \"#utility.yul\":13710:13711   */\n      0x00\n        /* \"#utility.yul\":13702:13708   */\n      dup3\n        /* \"#utility.yul\":13698:13712   */\n      add\n        /* \"#utility.yul\":13691:13749   */\n      mstore\n        /* \"#utility.yul\":13783:13790   */\n      0x746f6b656e000000000000000000000000000000000000000000000000000000\n        /* \"#utility.yul\":13778:13780   */\n      0x20\n        /* \"#utility.yul\":13770:13776   */\n      dup3\n        /* \"#utility.yul\":13766:13781   */\n      add\n        /* \"#utility.yul\":13759:13791   */\n      mstore\n        /* \"#utility.yul\":13574:13798   */\n      pop\n      jump\t// out\n        /* \"#utility.yul\":13804:14170   */\n    tag_228:\n        /* \"#utility.yul\":13946:13949   */\n      0x00\n        /* \"#utility.yul\":13967:14034   */\n      tag_399\n        /* \"#utility.yul\":14031:14033   */\n      0x25\n        /* \"#utility.yul\":14026:14029   */\n      dup4\n        /* \"#utility.yul\":13967:14034   */\n      tag_217\n      jump\t// in\n    tag_399:\n        /* \"#utility.yul\":13960:14034   */\n      swap2\n      pop\n        /* \"#utility.yul\":14043:14136   */\n      tag_400\n        /* \"#utility.yul\":14132:14135   */\n      dup3\n        /* \"#utility.yul\":14043:14136   */\n      tag_227\n      jump\t// in\n    tag_400:\n        /* \"#utility.yul\":14161:14163   */\n      0x40\n        /* \"#utility.yul\":14156:14159   */\n      dup3\n        /* \"#utility.yul\":14152:14164   */\n      add\n        /* \"#utility.yul\":14145:14164   */\n      swap1\n      pop\n        /* \"#utility.yul\":13804:14170   */\n      swap2\n      swap1\n      pop\n      jump\t// out\n        /* \"#utility.yul\":14176:14595   */\n    tag_81:\n        /* \"#utility.yul\":14342:14346   */\n      0x00\n        /* \"#utility.yul\":14380:14382   */\n      0x20\n        /* \"#utility.yul\":14369:14378   */\n      dup3\n        /* \"#utility.yul\":14365:14383   */\n      add\n        /* \"#utility.yul\":14357:14383   */\n      swap1\n      pop\n        /* \"#utility.yul\":14429:14438   */\n      dup2\n        /* \"#utility.yul\":14423:14427   */\n      dup2\n        /* \"#utility.yul\":14419:14439   */\n      sub\n        /* \"#utility.yul\":14415:14416   */\n      0x00\n        /* \"#utility.yul\":14404:14413   */\n      dup4\n        /* \"#utility.yul\":14400:14417   */\n      add\n        /* \"#utility.yul\":14393:14440   */\n      mstore\n        /* \"#utility.yul\":14457:14588   */\n      tag_402\n        /* \"#utility.yul\":14583:14587   */\n      dup2\n        /* \"#utility.yul\":14457:14588   */\n      tag_228\n      jump\t// in\n    tag_402:\n        /* \"#utility.yul\":14449:14588   */\n      swap1\n      pop\n        /* \"#utility.yul\":14176:14595   */\n      swap2\n      swap1\n      pop\n      jump\t// out\n        /* \"#utility.yul\":14601:14719   */\n    tag_229:\n        /* \"#utility.yul\":14688:14712   */\n      tag_404\n        /* \"#utility.yul\":14706:14711   */\n      dup2\n        /* \"#utility.yul\":14688:14712   */\n      tag_211\n      jump\t// in\n    tag_404:\n        /* \"#utility.yul\":14683:14686   */\n      dup3\n        /* \"#utility.yul\":14676:14713   */\n      mstore\n        /* \"#utility.yul\":14601:14719   */\n      pop\n      pop\n      jump\t// out\n        /* \"#utility.yul\":14725:15057   */\n    tag_85:\n        /* \"#utility.yul\":14846:14850   */\n      0x00\n        /* \"#utility.yul\":14884:14886   */\n      0x40\n        /* \"#utility.yul\":14873:14882   */\n      dup3\n        /* \"#utility.yul\":14869:14887   */\n      add\n        /* \"#utility.yul\":14861:14887   */\n      swap1\n      pop\n        /* \"#utility.yul\":14897:14968   */\n      tag_406\n        /* \"#utility.yul\":14965:14966   */\n      0x00\n        /* \"#utility.yul\":14954:14963   */\n      dup4\n        /* \"#utility.yul\":14950:14967   */\n      add\n        /* \"#utility.yul\":14941:14947   */\n      dup6\n        /* \"#utility.yul\":14897:14968   */\n      tag_229\n      jump\t// in\n    tag_406:\n        /* \"#utility.yul\":14978:15050   */\n      tag_407\n        /* \"#utility.yul\":15046:15048   */\n      0x20\n        /* \"#utility.yul\":15035:15044   */\n      dup4\n        /* \"#utility.yul\":15031:15049   */\n      add\n        /* \"#utility.yul\":15022:15028   */\n      dup5\n        /* \"#utility.yul\":14978:15050   */\n      tag_215\n      jump\t// in\n    tag_407:\n        /* \"#utility.yul\":14725:15057   */\n      swap4\n      swap3\n      pop\n      pop\n      pop\n      jump\t// out\n        /* \"#utility.yul\":15063:15157   */\n    tag_230:\n        /* \"#utility.yul\":15096:15104   */\n      0x00\n        /* \"#utility.yul\":15144:15149   */\n      dup2\n        /* \"#utility.yul\":15140:15142   */\n      0x60\n        /* \"#utility.yul\":15136:15150   */\n      shl\n        /* \"#utility.yul\":15115:15150   */\n      swap1\n      pop\n        /* \"#utility.yul\":15063:15157   */\n      swap2\n      swap1\n      pop\n      jump\t// out\n        /* \"#utility.yul\":15163:15257   */\n    tag_231:\n        /* \"#utility.yul\":15202:15209   */\n      0x00\n        /* \"#utility.yul\":15231:15251   */\n      tag_410\n        /* \"#utility.yul\":15245:15250   */\n      dup3\n        /* \"#utility.yul\":15231:15251   */\n      tag_230\n      jump\t// in\n    tag_410:\n        /* \"#utility.yul\":15220:15251   */\n      swap1\n      pop\n        /* \"#utility.yul\":15163:15257   */\n      swap2\n      swap1\n      pop\n      jump\t// out\n        /* \"#utility.yul\":15263:15363   */\n    tag_232:\n        /* \"#utility.yul\":15302:15309   */\n      0x00\n        /* \"#utility.yul\":15331:15357   */\n      tag_412\n        /* \"#utility.yul\":15351:15356   */\n      dup3\n        /* \"#utility.yul\":15331:15357   */\n      tag_231\n      jump\t// in\n    tag_412:\n        /* \"#utility.yul\":15320:15357   */\n      swap1\n      pop\n        /* \"#utility.yul\":15263:15363   */\n      swap2\n      swap1\n      pop\n      jump\t// out\n        /* \"#utility.yul\":15369:15526   */\n    tag_233:\n        /* \"#utility.yul\":15474:15519   */\n      tag_414\n        /* \"#utility.yul\":15494:15518   */\n      tag_415\n        /* \"#utility.yul\":15512:15517   */\n      dup3\n        /* \"#utility.yul\":15494:15518   */\n      tag_193\n      jump\t// in\n    tag_415:\n        /* \"#utility.yul\":15474:15519   */\n      tag_232\n      jump\t// in\n    tag_414:\n        /* \"#utility.yul\":15469:15472   */\n      dup3\n        /* \"#utility.yul\":15462:15520   */\n      mstore\n        /* \"#utility.yul\":15369:15526   */\n      pop\n      pop\n      jump\t// out\n        /* \"#utility.yul\":15532:15611   */\n    tag_234:\n        /* \"#utility.yul\":15571:15578   */\n      0x00\n        /* \"#utility.yul\":15600:15605   */\n      dup2\n        /* \"#utility.yul\":15589:15605   */\n      swap1\n      pop\n        /* \"#utility.yul\":15532:15611   */\n      swap2\n      swap1\n      pop\n      jump\t// out\n        /* \"#utility.yul\":15617:15774   */\n    tag_235:\n        /* \"#utility.yul\":15722:15767   */\n      tag_418\n        /* \"#utility.yul\":15742:15766   */\n      tag_419\n        /* \"#utility.yul\":15760:15765   */\n      dup3\n        /* \"#utility.yul\":15742:15766   */\n      tag_202\n      jump\t// in\n    tag_419:\n        /* \"#utility.yul\":15722:15767   */\n      tag_234\n      jump\t// in\n    tag_418:\n        /* \"#utility.yul\":15717:15720   */\n      dup3\n        /* \"#utility.yul\":15710:15768   */\n      mstore\n        /* \"#utility.yul\":15617:15774   */\n      pop\n      pop\n      jump\t// out\n        /* \"#utility.yul\":15780:15878   */\n    tag_236:\n        /* \"#utility.yul\":15831:15837   */\n      0x00\n        /* \"#utility.yul\":15865:15870   */\n      dup2\n        /* \"#utility.yul\":15859:15871   */\n      mload\n        /* \"#utility.yul\":15849:15871   */\n      swap1\n      pop\n        /* \"#utility.yul\":15780:15878   */\n      swap2\n      swap1\n      pop\n      jump\t// out\n        /* \"#utility.yul\":15884:16031   */\n    tag_237:\n        /* \"#utility.yul\":15985:15996   */\n      0x00\n        /* \"#utility.yul\":16022:16025   */\n      dup2\n        /* \"#utility.yul\":16007:16025   */\n      swap1\n      pop\n        /* \"#utility.yul\":15884:16031   */\n      swap3\n      swap2\n      pop\n      pop\n      jump\t// out\n        /* \"#utility.yul\":16037:16283   */\n    tag_238:\n        /* \"#utility.yul\":16118:16119   */\n      0x00\n        /* \"#utility.yul\":16128:16241   */\n    tag_423:\n        /* \"#utility.yul\":16142:16148   */\n      dup4\n        /* \"#utility.yul\":16139:16140   */\n      dup2\n        /* \"#utility.yul\":16136:16149   */\n      lt\n        /* \"#utility.yul\":16128:16241   */\n      iszero\n      tag_425\n      jumpi\n        /* \"#utility.yul\":16227:16228   */\n      dup1\n        /* \"#utility.yul\":16222:16225   */\n      dup3\n        /* \"#utility.yul\":16218:16229   */\n      add\n        /* \"#utility.yul\":16212:16230   */\n      mload\n        /* \"#utility.yul\":16208:16209   */\n      dup2\n        /* \"#utility.yul\":16203:16206   */\n      dup5\n        /* \"#utility.yul\":16199:16210   */\n      add\n        /* \"#utility.yul\":16192:16231   */\n      mstore\n        /* \"#utility.yul\":16164:16166   */\n      0x20\n        /* \"#utility.yul\":16161:16162   */\n      dup2\n        /* \"#utility.yul\":16157:16167   */\n      add\n        /* \"#utility.yul\":16152:16167   */\n      swap1\n      pop\n        /* \"#utility.yul\":16128:16241   */\n      jump(tag_423)\n    tag_425:\n        /* \"#utility.yul\":16275:16276   */\n      0x00\n        /* \"#utility.yul\":16266:16272   */\n      dup5\n        /* \"#utility.yul\":16261:16264   */\n      dup5\n        /* \"#utility.yul\":16257:16273   */\n      add\n        /* \"#utility.yul\":16250:16277   */\n      mstore\n        /* \"#utility.yul\":16099:16283   */\n      pop\n        /* \"#utility.yul\":16037:16283   */\n      pop\n      pop\n      pop\n      jump\t// out\n        /* \"#utility.yul\":16289:16675   */\n    tag_239:\n        /* \"#utility.yul\":16393:16396   */\n      0x00\n        /* \"#utility.yul\":16421:16459   */\n      tag_427\n        /* \"#utility.yul\":16453:16458   */\n      dup3\n        /* \"#utility.yul\":16421:16459   */\n      tag_236\n      jump\t// in\n    tag_427:\n        /* \"#utility.yul\":16475:16563   */\n      tag_428\n        /* \"#utility.yul\":16556:16562   */\n      dup2\n        /* \"#utility.yul\":16551:16554   */\n      dup6\n        /* \"#utility.yul\":16475:16563   */\n      tag_237\n      jump\t// in\n    tag_428:\n        /* \"#utility.yul\":16468:16563   */\n      swap4\n      pop\n        /* \"#utility.yul\":16572:16637   */\n      tag_429\n        /* \"#utility.yul\":16630:16636   */\n      dup2\n        /* \"#utility.yul\":16625:16628   */\n      dup6\n        /* \"#utility.yul\":16618:16622   */\n      0x20\n        /* \"#utility.yul\":16611:16616   */\n      dup7\n        /* \"#utility.yul\":16607:16623   */\n      add\n        /* \"#utility.yul\":16572:16637   */\n      tag_238\n      jump\t// in\n    tag_429:\n        /* \"#utility.yul\":16662:16668   */\n      dup1\n        /* \"#utility.yul\":16657:16660   */\n      dup5\n        /* \"#utility.yul\":16653:16669   */\n      add\n        /* \"#utility.yul\":16646:16669   */\n      swap2\n      pop\n        /* \"#utility.yul\":16397:16675   */\n      pop\n        /* \"#utility.yul\":16289:16675   */\n      swap3\n      swap2\n      pop\n      pop\n      jump\t// out\n        /* \"#utility.yul\":16681:17516   */\n    tag_87:\n        /* \"#utility.yul\":16923:16926   */\n      0x00\n        /* \"#utility.yul\":16938:17013   */\n      tag_431\n        /* \"#utility.yul\":17009:17012   */\n      dup3\n        /* \"#utility.yul\":17000:17006   */\n      dup9\n        /* \"#utility.yul\":16938:17013   */\n      tag_233\n      jump\t// in\n    tag_431:\n        /* \"#utility.yul\":17038:17040   */\n      0x14\n        /* \"#utility.yul\":17033:17036   */\n      dup3\n        /* \"#utility.yul\":17029:17041   */\n      add\n        /* \"#utility.yul\":17022:17041   */\n      swap2\n      pop\n        /* \"#utility.yul\":17051:17126   */\n      tag_432\n        /* \"#utility.yul\":17122:17125   */\n      dup3\n        /* \"#utility.yul\":17113:17119   */\n      dup8\n        /* \"#utility.yul\":17051:17126   */\n      tag_235\n      jump\t// in\n    tag_432:\n        /* \"#utility.yul\":17151:17153   */\n      0x20\n        /* \"#utility.yul\":17146:17149   */\n      dup3\n        /* \"#utility.yul\":17142:17154   */\n      add\n        /* \"#utility.yul\":17135:17154   */\n      swap2\n      pop\n        /* \"#utility.yul\":17164:17239   */\n      tag_433\n        /* \"#utility.yul\":17235:17238   */\n      dup3\n        /* \"#utility.yul\":17226:17232   */\n      dup7\n        /* \"#utility.yul\":17164:17239   */\n      tag_235\n      jump\t// in\n    tag_433:\n        /* \"#utility.yul\":17264:17266   */\n      0x20\n        /* \"#utility.yul\":17259:17262   */\n      dup3\n        /* \"#utility.yul\":17255:17267   */\n      add\n        /* \"#utility.yul\":17248:17267   */\n      swap2\n      pop\n        /* \"#utility.yul\":17277:17352   */\n      tag_434\n        /* \"#utility.yul\":17348:17351   */\n      dup3\n        /* \"#utility.yul\":17339:17345   */\n      dup6\n        /* \"#utility.yul\":17277:17352   */\n      tag_235\n      jump\t// in\n    tag_434:\n        /* \"#utility.yul\":17377:17379   */\n      0x20\n        /* \"#utility.yul\":17372:17375   */\n      dup3\n        /* \"#utility.yul\":17368:17380   */\n      add\n        /* \"#utility.yul\":17361:17380   */\n      swap2\n      pop\n        /* \"#utility.yul\":17397:17490   */\n      tag_435\n        /* \"#utility.yul\":17486:17489   */\n      dup3\n        /* \"#utility.yul\":17477:17483   */\n      dup5\n        /* \"#utility.yul\":17397:17490   */\n      tag_239\n      jump\t// in\n    tag_435:\n        /* \"#utility.yul\":17390:17490   */\n      swap2\n      pop\n        /* \"#utility.yul\":17507:17510   */\n      dup2\n        /* \"#utility.yul\":17500:17510   */\n      swap1\n      pop\n        /* \"#utility.yul\":16681:17516   */\n      swap7\n      swap6\n      pop\n      pop\n      pop\n      pop\n      pop\n      pop\n      jump\t// out\n        /* \"#utility.yul\":17522:17744   */\n    tag_89:\n        /* \"#utility.yul\":17615:17619   */\n      0x00\n        /* \"#utility.yul\":17653:17655   */\n      0x20\n        /* \"#utility.yul\":17642:17651   */\n      dup3\n        /* \"#utility.yul\":17638:17656   */\n      add\n        /* \"#utility.yul\":17630:17656   */\n      swap1\n      pop\n        /* \"#utility.yul\":17666:17737   */\n      tag_437\n        /* \"#utility.yul\":17734:17735   */\n      0x00\n        /* \"#utility.yul\":17723:17732   */\n      dup4\n        /* \"#utility.yul\":17719:17736   */\n      add\n        /* \"#utility.yul\":17710:17716   */\n      dup5\n        /* \"#utility.yul\":17666:17737   */\n      tag_229\n      jump\t// in\n    tag_437:\n        /* \"#utility.yul\":17522:17744   */\n      swap3\n      swap2\n      pop\n      pop\n      jump\t// out\n        /* \"#utility.yul\":17750:18021   */\n    tag_91:\n        /* \"#utility.yul\":17880:17883   */\n      0x00\n        /* \"#utility.yul\":17902:17995   */\n      tag_439\n        /* \"#utility.yul\":17991:17994   */\n      dup3\n        /* \"#utility.yul\":17982:17988   */\n      dup5\n        /* \"#utility.yul\":17902:17995   */\n      tag_239\n      jump\t// in\n    tag_439:\n        /* \"#utility.yul\":17895:17995   */\n      swap2\n      pop\n        /* \"#utility.yul\":18012:18015   */\n      dup2\n        /* \"#utility.yul\":18005:18015   */\n      swap1\n      pop\n        /* \"#utility.yul\":17750:18021   */\n      swap3\n      swap2\n      pop\n      pop\n      jump\t// out\n        /* \"#utility.yul\":18027:18117   */\n    tag_240:\n        /* \"#utility.yul\":18061:18068   */\n      0x00\n        /* \"#utility.yul\":18104:18109   */\n      dup2\n        /* \"#utility.yul\":18097:18110   */\n      iszero\n        /* \"#utility.yul\":18090:18111   */\n      iszero\n        /* \"#utility.yul\":18079:18111   */\n      swap1\n      pop\n        /* \"#utility.yul\":18027:18117   */\n      swap2\n      swap1\n      pop\n      jump\t// out\n        /* \"#utility.yul\":18123:18239   */\n    tag_241:\n        /* \"#utility.yul\":18193:18214   */\n      tag_442\n        /* \"#utility.yul\":18208:18213   */\n      dup2\n        /* \"#utility.yul\":18193:18214   */\n      tag_240\n      jump\t// in\n    tag_442:\n        /* \"#utility.yul\":18186:18191   */\n      dup2\n        /* \"#utility.yul\":18183:18215   */\n      eq\n        /* \"#utility.yul\":18173:18233   */\n      tag_443\n      jumpi\n        /* \"#utility.yul\":18229:18230   */\n      0x00\n        /* \"#utility.yul\":18226:18227   */\n      dup1\n        /* \"#utility.yul\":18219:18231   */\n      revert\n        /* \"#utility.yul\":18173:18233   */\n    tag_443:\n        /* \"#utility.yul\":18123:18239   */\n      pop\n      jump\t// out\n        /* \"#utility.yul\":18245:18382   */\n    tag_242:\n        /* \"#utility.yul\":18299:18304   */\n      0x00\n        /* \"#utility.yul\":18330:18336   */\n      dup2\n        /* \"#utility.yul\":18324:18337   */\n      mload\n        /* \"#utility.yul\":18315:18337   */\n      swap1\n      pop\n        /* \"#utility.yul\":18346:18376   */\n      tag_445\n        /* \"#utility.yul\":18370:18375   */\n      dup2\n        /* \"#utility.yul\":18346:18376   */\n      tag_241\n      jump\t// in\n    tag_445:\n        /* \"#utility.yul\":18245:18382   */\n      swap3\n      swap2\n      pop\n      pop\n      jump\t// out\n        /* \"#utility.yul\":18388:18733   */\n    tag_96:\n        /* \"#utility.yul\":18455:18461   */\n      0x00\n        /* \"#utility.yul\":18504:18506   */\n      0x20\n        /* \"#utility.yul\":18492:18501   */\n      dup3\n        /* \"#utility.yul\":18483:18490   */\n      dup5\n        /* \"#utility.yul\":18479:18502   */\n      sub\n        /* \"#utility.yul\":18475:18507   */\n      slt\n        /* \"#utility.yul\":18472:18591   */\n      iszero\n      tag_447\n      jumpi\n        /* \"#utility.yul\":18510:18589   */\n      tag_448\n      tag_190\n      jump\t// in\n    tag_448:\n        /* \"#utility.yul\":18472:18591   */\n    tag_447:\n        /* \"#utility.yul\":18630:18631   */\n      0x00\n        /* \"#utility.yul\":18655:18716   */\n      tag_449\n        /* \"#utility.yul\":18708:18715   */\n      dup5\n        /* \"#utility.yul\":18699:18705   */\n      dup3\n        /* \"#utility.yul\":18688:18697   */\n      dup6\n        /* \"#utility.yul\":18684:18706   */\n      add\n        /* \"#utility.yul\":18655:18716   */\n      tag_242\n      jump\t// in\n    tag_449:\n        /* \"#utility.yul\":18645:18716   */\n      swap2\n      pop\n        /* \"#utility.yul\":18601:18726   */\n      pop\n        /* \"#utility.yul\":18388:18733   */\n      swap3\n      swap2\n      pop\n      pop\n      jump\t// out\n        /* \"#utility.yul\":18739:18907   */\n    tag_243:\n        /* \"#utility.yul\":18879:18899   */\n      0x4f72646572206973206e6f742076616c69640000000000000000000000000000\n        /* \"#utility.yul\":18875:18876   */\n      0x00\n        /* \"#utility.yul\":18867:18873   */\n      dup3\n        /* \"#utility.yul\":18863:18877   */\n      add\n        /* \"#utility.yul\":18856:18900   */\n      mstore\n        /* \"#utility.yul\":18739:18907   */\n      pop\n      jump\t// out\n        /* \"#utility.yul\":18913:19279   */\n    tag_244:\n        /* \"#utility.yul\":19055:19058   */\n      0x00\n        /* \"#utility.yul\":19076:19143   */\n      tag_452\n        /* \"#utility.yul\":19140:19142   */\n      0x12\n        /* \"#utility.yul\":19135:19138   */\n      dup4\n        /* \"#utility.yul\":19076:19143   */\n      tag_217\n      jump\t// in\n    tag_452:\n        /* \"#utility.yul\":19069:19143   */\n      swap2\n      pop\n        /* \"#utility.yul\":19152:19245   */\n      tag_453\n        /* \"#utility.yul\":19241:19244   */\n      dup3\n        /* \"#utility.yul\":19152:19245   */\n      tag_243\n      jump\t// in\n    tag_453:\n        /* \"#utility.yul\":19270:19272   */\n      0x20\n        /* \"#utility.yul\":19265:19268   */\n      dup3\n        /* \"#utility.yul\":19261:19273   */\n      add\n        /* \"#utility.yul\":19254:19273   */\n      swap1\n      pop\n        /* \"#utility.yul\":18913:19279   */\n      swap2\n      swap1\n      pop\n      jump\t// out\n        /* \"#utility.yul\":19285:19704   */\n    tag_100:\n        /* \"#utility.yul\":19451:19455   */\n      0x00\n        /* \"#utility.yul\":19489:19491   */\n      0x20\n        /* \"#utility.yul\":19478:19487   */\n      dup3\n        /* \"#utility.yul\":19474:19492   */\n      add\n        /* \"#utility.yul\":19466:19492   */\n      swap1\n      pop\n        /* \"#utility.yul\":19538:19547   */\n      dup2\n        /* \"#utility.yul\":19532:19536   */\n      dup2\n        /* \"#utility.yul\":19528:19548   */\n      sub\n        /* \"#utility.yul\":19524:19525   */\n      0x00\n        /* \"#utility.yul\":19513:19522   */\n      dup4\n        /* \"#utility.yul\":19509:19526   */\n      add\n        /* \"#utility.yul\":19502:19549   */\n      mstore\n        /* \"#utility.yul\":19566:19697   */\n      tag_455\n        /* \"#utility.yul\":19692:19696   */\n      dup2\n        /* \"#utility.yul\":19566:19697   */\n      tag_244\n      jump\t// in\n    tag_455:\n        /* \"#utility.yul\":19558:19697   */\n      swap1\n      pop\n        /* \"#utility.yul\":19285:19704   */\n      swap2\n      swap1\n      pop\n      jump\t// out\n        /* \"#utility.yul\":19710:19890   */\n    tag_245:\n        /* \"#utility.yul\":19758:19835   */\n      0x4e487b7100000000000000000000000000000000000000000000000000000000\n        /* \"#utility.yul\":19755:19756   */\n      0x00\n        /* \"#utility.yul\":19748:19836   */\n      mstore\n        /* \"#utility.yul\":19855:19859   */\n      0x11\n        /* \"#utility.yul\":19852:19853   */\n      0x04\n        /* \"#utility.yul\":19845:19860   */\n      mstore\n        /* \"#utility.yul\":19879:19883   */\n      0x24\n        /* \"#utility.yul\":19876:19877   */\n      0x00\n        /* \"#utility.yul\":19869:19884   */\n      revert\n        /* \"#utility.yul\":19896:20090   */\n    tag_102:\n        /* \"#utility.yul\":19936:19940   */\n      0x00\n        /* \"#utility.yul\":19956:19976   */\n      tag_458\n        /* \"#utility.yul\":19974:19975   */\n      dup3\n        /* \"#utility.yul\":19956:19976   */\n      tag_202\n      jump\t// in\n    tag_458:\n        /* \"#utility.yul\":19951:19976   */\n      swap2\n      pop\n        /* \"#utility.yul\":19990:20010   */\n      tag_459\n        /* \"#utility.yul\":20008:20009   */\n      dup4\n        /* \"#utility.yul\":19990:20010   */\n      tag_202\n      jump\t// in\n    tag_459:\n        /* \"#utility.yul\":19985:20010   */\n      swap3\n      pop\n        /* \"#utility.yul\":20034:20035   */\n      dup3\n        /* \"#utility.yul\":20031:20032   */\n      dup3\n        /* \"#utility.yul\":20027:20036   */\n      sub\n        /* \"#utility.yul\":20019:20036   */\n      swap1\n      pop\n        /* \"#utility.yul\":20058:20059   */\n      dup2\n        /* \"#utility.yul\":20052:20056   */\n      dup2\n        /* \"#utility.yul\":20049:20060   */\n      gt\n        /* \"#utility.yul\":20046:20083   */\n      iszero\n      tag_460\n      jumpi\n        /* \"#utility.yul\":20063:20081   */\n      tag_461\n      tag_245\n      jump\t// in\n    tag_461:\n        /* \"#utility.yul\":20046:20083   */\n    tag_460:\n        /* \"#utility.yul\":19896:20090   */\n      swap3\n      swap2\n      pop\n      pop\n      jump\t// out\n        /* \"#utility.yul\":20096:20204   */\n    tag_246:\n        /* \"#utility.yul\":20173:20197   */\n      tag_463\n        /* \"#utility.yul\":20191:20196   */\n      dup2\n        /* \"#utility.yul\":20173:20197   */\n      tag_193\n      jump\t// in\n    tag_463:\n        /* \"#utility.yul\":20168:20171   */\n      dup3\n        /* \"#utility.yul\":20161:20198   */\n      mstore\n        /* \"#utility.yul\":20096:20204   */\n      pop\n      pop\n      jump\t// out\n        /* \"#utility.yul\":20210:20318   */\n    tag_247:\n        /* \"#utility.yul\":20287:20311   */\n      tag_465\n        /* \"#utility.yul\":20305:20310   */\n      dup2\n        /* \"#utility.yul\":20287:20311   */\n      tag_202\n      jump\t// in\n    tag_465:\n        /* \"#utility.yul\":20282:20285   */\n      dup3\n        /* \"#utility.yul\":20275:20312   */\n      mstore\n        /* \"#utility.yul\":20210:20318   */\n      pop\n      pop\n      jump\t// out\n        /* \"#utility.yul\":20324:20482   */\n    tag_248:\n        /* \"#utility.yul\":20397:20408   */\n      0x00\n        /* \"#utility.yul\":20431:20437   */\n      dup3\n        /* \"#utility.yul\":20426:20429   */\n      dup3\n        /* \"#utility.yul\":20419:20438   */\n      mstore\n        /* \"#utility.yul\":20471:20475   */\n      0x20\n        /* \"#utility.yul\":20466:20469   */\n      dup3\n        /* \"#utility.yul\":20462:20476   */\n      add\n        /* \"#utility.yul\":20447:20476   */\n      swap1\n      pop\n        /* \"#utility.yul\":20324:20482   */\n      swap3\n      swap2\n      pop\n      pop\n      jump\t// out\n        /* \"#utility.yul\":20488:20841   */\n    tag_249:\n        /* \"#utility.yul\":20564:20567   */\n      0x00\n        /* \"#utility.yul\":20592:20630   */\n      tag_468\n        /* \"#utility.yul\":20624:20629   */\n      dup3\n        /* \"#utility.yul\":20592:20630   */\n      tag_236\n      jump\t// in\n    tag_468:\n        /* \"#utility.yul\":20646:20706   */\n      tag_469\n        /* \"#utility.yul\":20699:20705   */\n      dup2\n        /* \"#utility.yul\":20694:20697   */\n      dup6\n        /* \"#utility.yul\":20646:20706   */\n      tag_248\n      jump\t// in\n    tag_469:\n        /* \"#utility.yul\":20639:20706   */\n      swap4\n      pop\n        /* \"#utility.yul\":20715:20780   */\n      tag_470\n        /* \"#utility.yul\":20773:20779   */\n      dup2\n        /* \"#utility.yul\":20768:20771   */\n      dup6\n        /* \"#utility.yul\":20761:20765   */\n      0x20\n        /* \"#utility.yul\":20754:20759   */\n      dup7\n        /* \"#utility.yul\":20750:20766   */\n      add\n        /* \"#utility.yul\":20715:20780   */\n      tag_238\n      jump\t// in\n    tag_470:\n        /* \"#utility.yul\":20805:20834   */\n      tag_471\n        /* \"#utility.yul\":20827:20833   */\n      dup2\n        /* \"#utility.yul\":20805:20834   */\n      tag_197\n      jump\t// in\n    tag_471:\n        /* \"#utility.yul\":20800:20803   */\n      dup5\n        /* \"#utility.yul\":20796:20835   */\n      add\n        /* \"#utility.yul\":20789:20835   */\n      swap2\n      pop\n        /* \"#utility.yul\":20568:20841   */\n      pop\n        /* \"#utility.yul\":20488:20841   */\n      swap3\n      swap2\n      pop\n      pop\n      jump\t// out\n        /* \"#utility.yul\":20847:20955   */\n    tag_250:\n        /* \"#utility.yul\":20924:20948   */\n      tag_473\n        /* \"#utility.yul\":20942:20947   */\n      dup2\n        /* \"#utility.yul\":20924:20948   */\n      tag_211\n      jump\t// in\n    tag_473:\n        /* \"#utility.yul\":20919:20922   */\n      dup3\n        /* \"#utility.yul\":20912:20949   */\n      mstore\n        /* \"#utility.yul\":20847:20955   */\n      pop\n      pop\n      jump\t// out\n        /* \"#utility.yul\":21035:22541   */\n    tag_251:\n        /* \"#utility.yul\":21156:21159   */\n      0x00\n        /* \"#utility.yul\":21192:21196   */\n      0xe0\n        /* \"#utility.yul\":21187:21190   */\n      dup4\n        /* \"#utility.yul\":21183:21197   */\n      add\n        /* \"#utility.yul\":21281:21285   */\n      0x00\n        /* \"#utility.yul\":21274:21279   */\n      dup4\n        /* \"#utility.yul\":21270:21286   */\n      add\n        /* \"#utility.yul\":21264:21287   */\n      mload\n        /* \"#utility.yul\":21300:21363   */\n      tag_475\n        /* \"#utility.yul\":21357:21361   */\n      0x00\n        /* \"#utility.yul\":21352:21355   */\n      dup7\n        /* \"#utility.yul\":21348:21362   */\n      add\n        /* \"#utility.yul\":21334:21346   */\n      dup3\n        /* \"#utility.yul\":21300:21363   */\n      tag_246\n      jump\t// in\n    tag_475:\n        /* \"#utility.yul\":21207:21373   */\n      pop\n        /* \"#utility.yul\":21461:21465   */\n      0x20\n        /* \"#utility.yul\":21454:21459   */\n      dup4\n        /* \"#utility.yul\":21450:21466   */\n      add\n        /* \"#utility.yul\":21444:21467   */\n      mload\n        /* \"#utility.yul\":21480:21543   */\n      tag_476\n        /* \"#utility.yul\":21537:21541   */\n      0x20\n        /* \"#utility.yul\":21532:21535   */\n      dup7\n        /* \"#utility.yul\":21528:21542   */\n      add\n        /* \"#utility.yul\":21514:21526   */\n      dup3\n        /* \"#utility.yul\":21480:21543   */\n      tag_246\n      jump\t// in\n    tag_476:\n        /* \"#utility.yul\":21383:21553   */\n      pop\n        /* \"#utility.yul\":21638:21642   */\n      0x40\n        /* \"#utility.yul\":21631:21636   */\n      dup4\n        /* \"#utility.yul\":21627:21643   */\n      add\n        /* \"#utility.yul\":21621:21644   */\n      mload\n        /* \"#utility.yul\":21657:21720   */\n      tag_477\n        /* \"#utility.yul\":21714:21718   */\n      0x40\n        /* \"#utility.yul\":21709:21712   */\n      dup7\n        /* \"#utility.yul\":21705:21719   */\n      add\n        /* \"#utility.yul\":21691:21703   */\n      dup3\n        /* \"#utility.yul\":21657:21720   */\n      tag_247\n      jump\t// in\n    tag_477:\n        /* \"#utility.yul\":21563:21730   */\n      pop\n        /* \"#utility.yul\":21813:21817   */\n      0x60\n        /* \"#utility.yul\":21806:21811   */\n      dup4\n        /* \"#utility.yul\":21802:21818   */\n      add\n        /* \"#utility.yul\":21796:21819   */\n      mload\n        /* \"#utility.yul\":21832:21895   */\n      tag_478\n        /* \"#utility.yul\":21889:21893   */\n      0x60\n        /* \"#utility.yul\":21884:21887   */\n      dup7\n        /* \"#utility.yul\":21880:21894   */\n      add\n        /* \"#utility.yul\":21866:21878   */\n      dup3\n        /* \"#utility.yul\":21832:21895   */\n      tag_247\n      jump\t// in\n    tag_478:\n        /* \"#utility.yul\":21740:21905   */\n      pop\n        /* \"#utility.yul\":21992:21996   */\n      0x80\n        /* \"#utility.yul\":21985:21990   */\n      dup4\n        /* \"#utility.yul\":21981:21997   */\n      add\n        /* \"#utility.yul\":21975:21998   */\n      mload\n        /* \"#utility.yul\":22045:22048   */\n      dup5\n        /* \"#utility.yul\":22039:22043   */\n      dup3\n        /* \"#utility.yul\":22035:22049   */\n      sub\n        /* \"#utility.yul\":22028:22032   */\n      0x80\n        /* \"#utility.yul\":22023:22026   */\n      dup7\n        /* \"#utility.yul\":22019:22033   */\n      add\n        /* \"#utility.yul\":22012:22050   */\n      mstore\n        /* \"#utility.yul\":22071:22142   */\n      tag_479\n        /* \"#utility.yul\":22137:22141   */\n      dup3\n        /* \"#utility.yul\":22123:22135   */\n      dup3\n        /* \"#utility.yul\":22071:22142   */\n      tag_249\n      jump\t// in\n    tag_479:\n        /* \"#utility.yul\":22063:22142   */\n      swap2\n      pop\n        /* \"#utility.yul\":21915:22153   */\n      pop\n        /* \"#utility.yul\":22245:22249   */\n      0xa0\n        /* \"#utility.yul\":22238:22243   */\n      dup4\n        /* \"#utility.yul\":22234:22250   */\n      add\n        /* \"#utility.yul\":22228:22251   */\n      mload\n        /* \"#utility.yul\":22264:22327   */\n      tag_480\n        /* \"#utility.yul\":22321:22325   */\n      0xa0\n        /* \"#utility.yul\":22316:22319   */\n      dup7\n        /* \"#utility.yul\":22312:22326   */\n      add\n        /* \"#utility.yul\":22298:22310   */\n      dup3\n        /* \"#utility.yul\":22264:22327   */\n      tag_247\n      jump\t// in\n    tag_480:\n        /* \"#utility.yul\":22163:22337   */\n      pop\n        /* \"#utility.yul\":22422:22426   */\n      0xc0\n        /* \"#utility.yul\":22415:22420   */\n      dup4\n        /* \"#utility.yul\":22411:22427   */\n      add\n        /* \"#utility.yul\":22405:22428   */\n      mload\n        /* \"#utility.yul\":22441:22504   */\n      tag_481\n        /* \"#utility.yul\":22498:22502   */\n      0xc0\n        /* \"#utility.yul\":22493:22496   */\n      dup7\n        /* \"#utility.yul\":22489:22503   */\n      add\n        /* \"#utility.yul\":22475:22487   */\n      dup3\n        /* \"#utility.yul\":22441:22504   */\n      tag_250\n      jump\t// in\n    tag_481:\n        /* \"#utility.yul\":22347:22514   */\n      pop\n        /* \"#utility.yul\":22531:22535   */\n      dup1\n        /* \"#utility.yul\":22524:22535   */\n      swap2\n      pop\n        /* \"#utility.yul\":21161:22541   */\n      pop\n        /* \"#utility.yul\":21035:22541   */\n      swap3\n      swap2\n      pop\n      pop\n      jump\t// out\n        /* \"#utility.yul\":22547:23034   */\n    tag_104:\n        /* \"#utility.yul\":22720:22724   */\n      0x00\n        /* \"#utility.yul\":22758:22760   */\n      0x40\n        /* \"#utility.yul\":22747:22756   */\n      dup3\n        /* \"#utility.yul\":22743:22761   */\n      add\n        /* \"#utility.yul\":22735:22761   */\n      swap1\n      pop\n        /* \"#utility.yul\":22807:22816   */\n      dup2\n        /* \"#utility.yul\":22801:22805   */\n      dup2\n        /* \"#utility.yul\":22797:22817   */\n      sub\n        /* \"#utility.yul\":22793:22794   */\n      0x00\n        /* \"#utility.yul\":22782:22791   */\n      dup4\n        /* \"#utility.yul\":22778:22795   */\n      add\n        /* \"#utility.yul\":22771:22818   */\n      mstore\n        /* \"#utility.yul\":22835:22945   */\n      tag_483\n        /* \"#utility.yul\":22940:22944   */\n      dup2\n        /* \"#utility.yul\":22931:22937   */\n      dup6\n        /* \"#utility.yul\":22835:22945   */\n      tag_251\n      jump\t// in\n    tag_483:\n        /* \"#utility.yul\":22827:22945   */\n      swap1\n      pop\n        /* \"#utility.yul\":22955:23027   */\n      tag_484\n        /* \"#utility.yul\":23023:23025   */\n      0x20\n        /* \"#utility.yul\":23012:23021   */\n      dup4\n        /* \"#utility.yul\":23008:23026   */\n      add\n        /* \"#utility.yul\":22999:23005   */\n      dup5\n        /* \"#utility.yul\":22955:23027   */\n      tag_215\n      jump\t// in\n    tag_484:\n        /* \"#utility.yul\":22547:23034   */\n      swap4\n      swap3\n      pop\n      pop\n      pop\n      jump\t// out\n        /* \"#utility.yul\":23040:23205   */\n    tag_252:\n        /* \"#utility.yul\":23180:23197   */\n      0x6e6f2070726f78792077616c6c65740000000000000000000000000000000000\n        /* \"#utility.yul\":23176:23177   */\n      0x00\n        /* \"#utility.yul\":23168:23174   */\n      dup3\n        /* \"#utility.yul\":23164:23178   */\n      add\n        /* \"#utility.yul\":23157:23198   */\n      mstore\n        /* \"#utility.yul\":23040:23205   */\n      pop\n      jump\t// out\n        /* \"#utility.yul\":23211:23577   */\n    tag_253:\n        /* \"#utility.yul\":23353:23356   */\n      0x00\n        /* \"#utility.yul\":23374:23441   */\n      tag_487\n        /* \"#utility.yul\":23438:23440   */\n      0x0f\n        /* \"#utility.yul\":23433:23436   */\n      dup4\n        /* \"#utility.yul\":23374:23441   */\n      tag_217\n      jump\t// in\n    tag_487:\n        /* \"#utility.yul\":23367:23441   */\n      swap2\n      pop\n        /* \"#utility.yul\":23450:23543   */\n      tag_488\n        /* \"#utility.yul\":23539:23542   */\n      dup3\n        /* \"#utility.yul\":23450:23543   */\n      tag_252\n      jump\t// in\n    tag_488:\n        /* \"#utility.yul\":23568:23570   */\n      0x20\n        /* \"#utility.yul\":23563:23566   */\n      dup3\n        /* \"#utility.yul\":23559:23571   */\n      add\n        /* \"#utility.yul\":23552:23571   */\n      swap1\n      pop\n        /* \"#utility.yul\":23211:23577   */\n      swap2\n      swap1\n      pop\n      jump\t// out\n        /* \"#utility.yul\":23583:24002   */\n    tag_130:\n        /* \"#utility.yul\":23749:23753   */\n      0x00\n        /* \"#utility.yul\":23787:23789   */\n      0x20\n        /* \"#utility.yul\":23776:23785   */\n      dup3\n        /* \"#utility.yul\":23772:23790   */\n      add\n        /* \"#utility.yul\":23764:23790   */\n      swap1\n      pop\n        /* \"#utility.yul\":23836:23845   */\n      dup2\n        /* \"#utility.yul\":23830:23834   */\n      dup2\n        /* \"#utility.yul\":23826:23846   */\n      sub\n        /* \"#utility.yul\":23822:23823   */\n      0x00\n        /* \"#utility.yul\":23811:23820   */\n      dup4\n        /* \"#utility.yul\":23807:23824   */\n      add\n        /* \"#utility.yul\":23800:23847   */\n      mstore\n        /* \"#utility.yul\":23864:23995   */\n      tag_490\n        /* \"#utility.yul\":23990:23994   */\n      dup2\n        /* \"#utility.yul\":23864:23995   */\n      tag_253\n      jump\t// in\n    tag_490:\n        /* \"#utility.yul\":23856:23995   */\n      swap1\n      pop\n        /* \"#utility.yul\":23583:24002   */\n      swap2\n      swap1\n      pop\n      jump\t// out\n        /* \"#utility.yul\":24008:24117   */\n    tag_254:\n        /* \"#utility.yul\":24089:24110   */\n      tag_492\n        /* \"#utility.yul\":24104:24109   */\n      dup2\n        /* \"#utility.yul\":24089:24110   */\n      tag_240\n      jump\t// in\n    tag_492:\n        /* \"#utility.yul\":24084:24087   */\n      dup3\n        /* \"#utility.yul\":24077:24111   */\n      mstore\n        /* \"#utility.yul\":24008:24117   */\n      pop\n      pop\n      jump\t// out\n        /* \"#utility.yul\":24123:24443   */\n    tag_132:\n        /* \"#utility.yul\":24238:24242   */\n      0x00\n        /* \"#utility.yul\":24276:24278   */\n      0x40\n        /* \"#utility.yul\":24265:24274   */\n      dup3\n        /* \"#utility.yul\":24261:24279   */\n      add\n        /* \"#utility.yul\":24253:24279   */\n      swap1\n      pop\n        /* \"#utility.yul\":24289:24360   */\n      tag_494\n        /* \"#utility.yul\":24357:24358   */\n      0x00\n        /* \"#utility.yul\":24346:24355   */\n      dup4\n        /* \"#utility.yul\":24342:24359   */\n      add\n        /* \"#utility.yul\":24333:24339   */\n      dup6\n        /* \"#utility.yul\":24289:24360   */\n      tag_216\n      jump\t// in\n    tag_494:\n        /* \"#utility.yul\":24370:24436   */\n      tag_495\n        /* \"#utility.yul\":24432:24434   */\n      0x20\n        /* \"#utility.yul\":24421:24430   */\n      dup4\n        /* \"#utility.yul\":24417:24435   */\n      add\n        /* \"#utility.yul\":24408:24414   */\n      dup5\n        /* \"#utility.yul\":24370:24436   */\n      tag_254\n      jump\t// in\n    tag_495:\n        /* \"#utility.yul\":24123:24443   */\n      swap4\n      swap3\n      pop\n      pop\n      pop\n      jump\t// out\n        /* \"#utility.yul\":24449:24781   */\n    tag_141:\n        /* \"#utility.yul\":24570:24574   */\n      0x00\n        /* \"#utility.yul\":24608:24610   */\n      0x40\n        /* \"#utility.yul\":24597:24606   */\n      dup3\n        /* \"#utility.yul\":24593:24611   */\n      add\n        /* \"#utility.yul\":24585:24611   */\n      swap1\n      pop\n        /* \"#utility.yul\":24621:24692   */\n      tag_497\n        /* \"#utility.yul\":24689:24690   */\n      0x00\n        /* \"#utility.yul\":24678:24687   */\n      dup4\n        /* \"#utility.yul\":24674:24691   */\n      add\n        /* \"#utility.yul\":24665:24671   */\n      dup6\n        /* \"#utility.yul\":24621:24692   */\n      tag_215\n      jump\t// in\n    tag_497:\n        /* \"#utility.yul\":24702:24774   */\n      tag_498\n        /* \"#utility.yul\":24770:24772   */\n      0x20\n        /* \"#utility.yul\":24759:24768   */\n      dup4\n        /* \"#utility.yul\":24755:24773   */\n      add\n        /* \"#utility.yul\":24746:24752   */\n      dup5\n        /* \"#utility.yul\":24702:24774   */\n      tag_215\n      jump\t// in\n    tag_498:\n        /* \"#utility.yul\":24449:24781   */\n      swap4\n      swap3\n      pop\n      pop\n      pop\n      jump\t// out\n        /* \"#utility.yul\":24787:24964   */\n    tag_255:\n        /* \"#utility.yul\":24927:24956   */\n      0x50726f78792077616c6c657420616c7265616479206578697374730000000000\n        /* \"#utility.yul\":24923:24924   */\n      0x00\n        /* \"#utility.yul\":24915:24921   */\n      dup3\n        /* \"#utility.yul\":24911:24925   */\n      add\n        /* \"#utility.yul\":24904:24957   */\n      mstore\n        /* \"#utility.yul\":24787:24964   */\n      pop\n      jump\t// out\n        /* \"#utility.yul\":24970:25336   */\n    tag_256:\n        /* \"#utility.yul\":25112:25115   */\n      0x00\n        /* \"#utility.yul\":25133:25200   */\n      tag_501\n        /* \"#utility.yul\":25197:25199   */\n      0x1b\n        /* \"#utility.yul\":25192:25195   */\n      dup4\n        /* \"#utility.yul\":25133:25200   */\n      tag_217\n      jump\t// in\n    tag_501:\n        /* \"#utility.yul\":25126:25200   */\n      swap2\n      pop\n        /* \"#utility.yul\":25209:25302   */\n      tag_502\n        /* \"#utility.yul\":25298:25301   */\n      dup3\n        /* \"#utility.yul\":25209:25302   */\n      tag_255\n      jump\t// in\n    tag_502:\n        /* \"#utility.yul\":25327:25329   */\n      0x20\n        /* \"#utility.yul\":25322:25325   */\n      dup3\n        /* \"#utility.yul\":25318:25330   */\n      add\n        /* \"#utility.yul\":25311:25330   */\n      swap1\n      pop\n        /* \"#utility.yul\":24970:25336   */\n      swap2\n      swap1\n      pop\n      jump\t// out\n        /* \"#utility.yul\":25342:25761   */\n    tag_146:\n        /* \"#utility.yul\":25508:25512   */\n      0x00\n        /* \"#utility.yul\":25546:25548   */\n      0x20\n        /* \"#utility.yul\":25535:25544   */\n      dup3\n        /* \"#utility.yul\":25531:25549   */\n      add\n        /* \"#utility.yul\":25523:25549   */\n      swap1\n      pop\n        /* \"#utility.yul\":25595:25604   */\n      dup2\n        /* \"#utility.yul\":25589:25593   */\n      dup2\n        /* \"#utility.yul\":25585:25605   */\n      sub\n        /* \"#utility.yul\":25581:25582   */\n      0x00\n        /* \"#utility.yul\":25570:25579   */\n      dup4\n        /* \"#utility.yul\":25566:25583   */\n      add\n        /* \"#utility.yul\":25559:25606   */\n      mstore\n        /* \"#utility.yul\":25623:25754   */\n      tag_504\n        /* \"#utility.yul\":25749:25753   */\n      dup2\n        /* \"#utility.yul\":25623:25754   */\n      tag_256\n      jump\t// in\n    tag_504:\n        /* \"#utility.yul\":25615:25754   */\n      swap1\n      pop\n        /* \"#utility.yul\":25342:25761   */\n      swap2\n      swap1\n      pop\n      jump\t// out\n        /* \"#utility.yul\":25767:26144   */\n    tag_154:\n        /* \"#utility.yul\":25912:25916   */\n      0x00\n        /* \"#utility.yul\":25950:25952   */\n      0x20\n        /* \"#utility.yul\":25939:25948   */\n      dup3\n        /* \"#utility.yul\":25935:25953   */\n      add\n        /* \"#utility.yul\":25927:25953   */\n      swap1\n      pop\n        /* \"#utility.yul\":25999:26008   */\n      dup2\n        /* \"#utility.yul\":25993:25997   */\n      dup2\n        /* \"#utility.yul\":25989:26009   */\n      sub\n        /* \"#utility.yul\":25985:25986   */\n      0x00\n        /* \"#utility.yul\":25974:25983   */\n      dup4\n        /* \"#utility.yul\":25970:25987   */\n      add\n        /* \"#utility.yul\":25963:26010   */\n      mstore\n        /* \"#utility.yul\":26027:26137   */\n      tag_506\n        /* \"#utility.yul\":26132:26136   */\n      dup2\n        /* \"#utility.yul\":26123:26129   */\n      dup5\n        /* \"#utility.yul\":26027:26137   */\n      tag_251\n      jump\t// in\n    tag_506:\n        /* \"#utility.yul\":26019:26137   */\n      swap1\n      pop\n        /* \"#utility.yul\":25767:26144   */\n      swap3\n      swap2\n      pop\n      pop\n      jump\t// out\n        /* \"#utility.yul\":26150:26324   */\n    tag_257:\n        /* \"#utility.yul\":26290:26316   */\n      0x43616e63656c2073656c6c206f72646572206661696c65640000000000000000\n        /* \"#utility.yul\":26286:26287   */\n      0x00\n        /* \"#utility.yul\":26278:26284   */\n      dup3\n        /* \"#utility.yul\":26274:26288   */\n      add\n        /* \"#utility.yul\":26267:26317   */\n      mstore\n        /* \"#utility.yul\":26150:26324   */\n      pop\n      jump\t// out\n        /* \"#utility.yul\":26330:26696   */\n    tag_258:\n        /* \"#utility.yul\":26472:26475   */\n      0x00\n        /* \"#utility.yul\":26493:26560   */\n      tag_509\n        /* \"#utility.yul\":26557:26559   */\n      0x18\n        /* \"#utility.yul\":26552:26555   */\n      dup4\n        /* \"#utility.yul\":26493:26560   */\n      tag_217\n      jump\t// in\n    tag_509:\n        /* \"#utility.yul\":26486:26560   */\n      swap2\n      pop\n        /* \"#utility.yul\":26569:26662   */\n      tag_510\n        /* \"#utility.yul\":26658:26661   */\n      dup3\n        /* \"#utility.yul\":26569:26662   */\n      tag_257\n      jump\t// in\n    tag_510:\n        /* \"#utility.yul\":26687:26689   */\n      0x20\n        /* \"#utility.yul\":26682:26685   */\n      dup3\n        /* \"#utility.yul\":26678:26690   */\n      add\n        /* \"#utility.yul\":26671:26690   */\n      swap1\n      pop\n        /* \"#utility.yul\":26330:26696   */\n      swap2\n      swap1\n      pop\n      jump\t// out\n        /* \"#utility.yul\":26702:27121   */\n    tag_161:\n        /* \"#utility.yul\":26868:26872   */\n      0x00\n        /* \"#utility.yul\":26906:26908   */\n      0x20\n        /* \"#utility.yul\":26895:26904   */\n      dup3\n        /* \"#utility.yul\":26891:26909   */\n      add\n        /* \"#utility.yul\":26883:26909   */\n      swap1\n      pop\n        /* \"#utility.yul\":26955:26964   */\n      dup2\n        /* \"#utility.yul\":26949:26953   */\n      dup2\n        /* \"#utility.yul\":26945:26965   */\n      sub\n        /* \"#utility.yul\":26941:26942   */\n      0x00\n        /* \"#utility.yul\":26930:26939   */\n      dup4\n        /* \"#utility.yul\":26926:26943   */\n      add\n        /* \"#utility.yul\":26919:26966   */\n      mstore\n        /* \"#utility.yul\":26983:27114   */\n      tag_512\n        /* \"#utility.yul\":27109:27113   */\n      dup2\n        /* \"#utility.yul\":26983:27114   */\n      tag_258\n      jump\t// in\n    tag_512:\n        /* \"#utility.yul\":26975:27114   */\n      swap1\n      pop\n        /* \"#utility.yul\":26702:27121   */\n      swap2\n      swap1\n      pop\n      jump\t// out\n        /* \"#utility.yul\":27127:27537   */\n    tag_165:\n        /* \"#utility.yul\":27167:27174   */\n      0x00\n        /* \"#utility.yul\":27190:27210   */\n      tag_514\n        /* \"#utility.yul\":27208:27209   */\n      dup3\n        /* \"#utility.yul\":27190:27210   */\n      tag_202\n      jump\t// in\n    tag_514:\n        /* \"#utility.yul\":27185:27210   */\n      swap2\n      pop\n        /* \"#utility.yul\":27224:27244   */\n      tag_515\n        /* \"#utility.yul\":27242:27243   */\n      dup4\n        /* \"#utility.yul\":27224:27244   */\n      tag_202\n      jump\t// in\n    tag_515:\n        /* \"#utility.yul\":27219:27244   */\n      swap3\n      pop\n        /* \"#utility.yul\":27279:27280   */\n      dup3\n        /* \"#utility.yul\":27276:27277   */\n      dup3\n        /* \"#utility.yul\":27272:27281   */\n      mul\n        /* \"#utility.yul\":27301:27331   */\n      tag_516\n        /* \"#utility.yul\":27319:27330   */\n      dup2\n        /* \"#utility.yul\":27301:27331   */\n      tag_202\n      jump\t// in\n    tag_516:\n        /* \"#utility.yul\":27290:27331   */\n      swap2\n      pop\n        /* \"#utility.yul\":27480:27481   */\n      dup3\n        /* \"#utility.yul\":27471:27478   */\n      dup3\n        /* \"#utility.yul\":27467:27482   */\n      div\n        /* \"#utility.yul\":27464:27465   */\n      dup5\n        /* \"#utility.yul\":27461:27483   */\n      eq\n        /* \"#utility.yul\":27441:27442   */\n      dup4\n        /* \"#utility.yul\":27434:27443   */\n      iszero\n        /* \"#utility.yul\":27414:27497   */\n      or\n        /* \"#utility.yul\":27391:27530   */\n      tag_517\n      jumpi\n        /* \"#utility.yul\":27510:27528   */\n      tag_518\n      tag_245\n      jump\t// in\n    tag_518:\n        /* \"#utility.yul\":27391:27530   */\n    tag_517:\n        /* \"#utility.yul\":27175:27537   */\n      pop\n        /* \"#utility.yul\":27127:27537   */\n      swap3\n      swap2\n      pop\n      pop\n      jump\t// out\n        /* \"#utility.yul\":27543:27723   */\n    tag_259:\n        /* \"#utility.yul\":27591:27668   */\n      0x4e487b7100000000000000000000000000000000000000000000000000000000\n        /* \"#utility.yul\":27588:27589   */\n      0x00\n        /* \"#utility.yul\":27581:27669   */\n      mstore\n        /* \"#utility.yul\":27688:27692   */\n      0x12\n        /* \"#utility.yul\":27685:27686   */\n      0x04\n        /* \"#utility.yul\":27678:27693   */\n      mstore\n        /* \"#utility.yul\":27712:27716   */\n      0x24\n        /* \"#utility.yul\":27709:27710   */\n      0x00\n        /* \"#utility.yul\":27702:27717   */\n      revert\n        /* \"#utility.yul\":27729:27914   */\n    tag_168:\n        /* \"#utility.yul\":27769:27770   */\n      0x00\n        /* \"#utility.yul\":27786:27806   */\n      tag_521\n        /* \"#utility.yul\":27804:27805   */\n      dup3\n        /* \"#utility.yul\":27786:27806   */\n      tag_202\n      jump\t// in\n    tag_521:\n        /* \"#utility.yul\":27781:27806   */\n      swap2\n      pop\n        /* \"#utility.yul\":27820:27840   */\n      tag_522\n        /* \"#utility.yul\":27838:27839   */\n      dup4\n        /* \"#utility.yul\":27820:27840   */\n      tag_202\n      jump\t// in\n    tag_522:\n        /* \"#utility.yul\":27815:27840   */\n      swap3\n      pop\n        /* \"#utility.yul\":27859:27860   */\n      dup3\n        /* \"#utility.yul\":27849:27884   */\n      tag_523\n      jumpi\n        /* \"#utility.yul\":27864:27882   */\n      tag_524\n      tag_259\n      jump\t// in\n    tag_524:\n        /* \"#utility.yul\":27849:27884   */\n    tag_523:\n        /* \"#utility.yul\":27906:27907   */\n      dup3\n        /* \"#utility.yul\":27903:27904   */\n      dup3\n        /* \"#utility.yul\":27899:27908   */\n      div\n        /* \"#utility.yul\":27894:27908   */\n      swap1\n      pop\n        /* \"#utility.yul\":27729:27914   */\n      swap3\n      swap2\n      pop\n      pop\n      jump\t// out\n        /* \"#utility.yul\":27920:28599   */\n    tag_171:\n        /* \"#utility.yul\":28116:28119   */\n      0x00\n        /* \"#utility.yul\":28131:28206   */\n      tag_526\n        /* \"#utility.yul\":28202:28205   */\n      dup3\n        /* \"#utility.yul\":28193:28199   */\n      dup8\n        /* \"#utility.yul\":28131:28206   */\n      tag_233\n      jump\t// in\n    tag_526:\n        /* \"#utility.yul\":28231:28233   */\n      0x14\n        /* \"#utility.yul\":28226:28229   */\n      dup3\n        /* \"#utility.yul\":28222:28234   */\n      add\n        /* \"#utility.yul\":28215:28234   */\n      swap2\n      pop\n        /* \"#utility.yul\":28244:28319   */\n      tag_527\n        /* \"#utility.yul\":28315:28318   */\n      dup3\n        /* \"#utility.yul\":28306:28312   */\n      dup7\n        /* \"#utility.yul\":28244:28319   */\n      tag_235\n      jump\t// in\n    tag_527:\n        /* \"#utility.yul\":28344:28346   */\n      0x20\n        /* \"#utility.yul\":28339:28342   */\n      dup3\n        /* \"#utility.yul\":28335:28347   */\n      add\n        /* \"#utility.yul\":28328:28347   */\n      swap2\n      pop\n        /* \"#utility.yul\":28357:28432   */\n      tag_528\n        /* \"#utility.yul\":28428:28431   */\n      dup3\n        /* \"#utility.yul\":28419:28425   */\n      dup6\n        /* \"#utility.yul\":28357:28432   */\n      tag_235\n      jump\t// in\n    tag_528:\n        /* \"#utility.yul\":28457:28459   */\n      0x20\n        /* \"#utility.yul\":28452:28455   */\n      dup3\n        /* \"#utility.yul\":28448:28460   */\n      add\n        /* \"#utility.yul\":28441:28460   */\n      swap2\n      pop\n        /* \"#utility.yul\":28470:28545   */\n      tag_529\n        /* \"#utility.yul\":28541:28544   */\n      dup3\n        /* \"#utility.yul\":28532:28538   */\n      dup5\n        /* \"#utility.yul\":28470:28545   */\n      tag_235\n      jump\t// in\n    tag_529:\n        /* \"#utility.yul\":28570:28572   */\n      0x20\n        /* \"#utility.yul\":28565:28568   */\n      dup3\n        /* \"#utility.yul\":28561:28573   */\n      add\n        /* \"#utility.yul\":28554:28573   */\n      swap2\n      pop\n        /* \"#utility.yul\":28590:28593   */\n      dup2\n        /* \"#utility.yul\":28583:28593   */\n      swap1\n      pop\n        /* \"#utility.yul\":27920:28599   */\n      swap6\n      swap5\n      pop\n      pop\n      pop\n      pop\n      pop\n      jump\t// out\n        /* \"#utility.yul\":28605:28753   */\n    tag_260:\n        /* \"#utility.yul\":28707:28718   */\n      0x00\n        /* \"#utility.yul\":28744:28747   */\n      dup2\n        /* \"#utility.yul\":28729:28747   */\n      swap1\n      pop\n        /* \"#utility.yul\":28605:28753   */\n      swap3\n      swap2\n      pop\n      pop\n      jump\t// out\n        /* \"#utility.yul\":28759:28973   */\n    tag_261:\n        /* \"#utility.yul\":28899:28965   */\n      0x19457468657265756d205369676e6564204d6573736167653a0a333200000000\n        /* \"#utility.yul\":28895:28896   */\n      0x00\n        /* \"#utility.yul\":28887:28893   */\n      dup3\n        /* \"#utility.yul\":28883:28897   */\n      add\n        /* \"#utility.yul\":28876:28966   */\n      mstore\n        /* \"#utility.yul\":28759:28973   */\n      pop\n      jump\t// out\n        /* \"#utility.yul\":28979:29381   */\n    tag_262:\n        /* \"#utility.yul\":29139:29142   */\n      0x00\n        /* \"#utility.yul\":29160:29245   */\n      tag_533\n        /* \"#utility.yul\":29242:29244   */\n      0x1c\n        /* \"#utility.yul\":29237:29240   */\n      dup4\n        /* \"#utility.yul\":29160:29245   */\n      tag_260\n      jump\t// in\n    tag_533:\n        /* \"#utility.yul\":29153:29245   */\n      swap2\n      pop\n        /* \"#utility.yul\":29254:29347   */\n      tag_534\n        /* \"#utility.yul\":29343:29346   */\n      dup3\n        /* \"#utility.yul\":29254:29347   */\n      tag_261\n      jump\t// in\n    tag_534:\n        /* \"#utility.yul\":29372:29374   */\n      0x1c\n        /* \"#utility.yul\":29367:29370   */\n      dup3\n        /* \"#utility.yul\":29363:29375   */\n      add\n        /* \"#utility.yul\":29356:29375   */\n      swap1\n      pop\n        /* \"#utility.yul\":28979:29381   */\n      swap2\n      swap1\n      pop\n      jump\t// out\n        /* \"#utility.yul\":29387:29466   */\n    tag_263:\n        /* \"#utility.yul\":29426:29433   */\n      0x00\n        /* \"#utility.yul\":29455:29460   */\n      dup2\n        /* \"#utility.yul\":29444:29460   */\n      swap1\n      pop\n        /* \"#utility.yul\":29387:29466   */\n      swap2\n      swap1\n      pop\n      jump\t// out\n        /* \"#utility.yul\":29472:29629   */\n    tag_264:\n        /* \"#utility.yul\":29577:29622   */\n      tag_537\n        /* \"#utility.yul\":29597:29621   */\n      tag_538\n        /* \"#utility.yul\":29615:29620   */\n      dup3\n        /* \"#utility.yul\":29597:29621   */\n      tag_211\n      jump\t// in\n    tag_538:\n        /* \"#utility.yul\":29577:29622   */\n      tag_263\n      jump\t// in\n    tag_537:\n        /* \"#utility.yul\":29572:29575   */\n      dup3\n        /* \"#utility.yul\":29565:29623   */\n      mstore\n        /* \"#utility.yul\":29472:29629   */\n      pop\n      pop\n      jump\t// out\n        /* \"#utility.yul\":29635:30157   */\n    tag_173:\n        /* \"#utility.yul\":29848:29851   */\n      0x00\n        /* \"#utility.yul\":29870:30018   */\n      tag_540\n        /* \"#utility.yul\":30014:30017   */\n      dup3\n        /* \"#utility.yul\":29870:30018   */\n      tag_262\n      jump\t// in\n    tag_540:\n        /* \"#utility.yul\":29863:30018   */\n      swap2\n      pop\n        /* \"#utility.yul\":30028:30103   */\n      tag_541\n        /* \"#utility.yul\":30099:30102   */\n      dup3\n        /* \"#utility.yul\":30090:30096   */\n      dup5\n        /* \"#utility.yul\":30028:30103   */\n      tag_264\n      jump\t// in\n    tag_541:\n        /* \"#utility.yul\":30128:30130   */\n      0x20\n        /* \"#utility.yul\":30123:30126   */\n      dup3\n        /* \"#utility.yul\":30119:30131   */\n      add\n        /* \"#utility.yul\":30112:30131   */\n      swap2\n      pop\n        /* \"#utility.yul\":30148:30151   */\n      dup2\n        /* \"#utility.yul\":30141:30151   */\n      swap1\n      pop\n        /* \"#utility.yul\":29635:30157   */\n      swap3\n      swap2\n      pop\n      pop\n      jump\t// out\n        /* \"#utility.yul\":30163:30605   */\n    tag_178:\n        /* \"#utility.yul\":30312:30316   */\n      0x00\n        /* \"#utility.yul\":30350:30352   */\n      0x60\n        /* \"#utility.yul\":30339:30348   */\n      dup3\n        /* \"#utility.yul\":30335:30353   */\n      add\n        /* \"#utility.yul\":30327:30353   */\n      swap1\n      pop\n        /* \"#utility.yul\":30363:30434   */\n      tag_543\n        /* \"#utility.yul\":30431:30432   */\n      0x00\n        /* \"#utility.yul\":30420:30429   */\n      dup4\n        /* \"#utility.yul\":30416:30433   */\n      add\n        /* \"#utility.yul\":30407:30413   */\n      dup7\n        /* \"#utility.yul\":30363:30434   */\n      tag_215\n      jump\t// in\n    tag_543:\n        /* \"#utility.yul\":30444:30516   */\n      tag_544\n        /* \"#utility.yul\":30512:30514   */\n      0x20\n        /* \"#utility.yul\":30501:30510   */\n      dup4\n        /* \"#utility.yul\":30497:30515   */\n      add\n        /* \"#utility.yul\":30488:30494   */\n      dup6\n        /* \"#utility.yul\":30444:30516   */\n      tag_229\n      jump\t// in\n    tag_544:\n        /* \"#utility.yul\":30526:30598   */\n      tag_545\n        /* \"#utility.yul\":30594:30596   */\n      0x40\n        /* \"#utility.yul\":30583:30592   */\n      dup4\n        /* \"#utility.yul\":30579:30597   */\n      add\n        /* \"#utility.yul\":30570:30576   */\n      dup5\n        /* \"#utility.yul\":30526:30598   */\n      tag_215\n      jump\t// in\n    tag_545:\n        /* \"#utility.yul\":30163:30605   */\n      swap5\n      swap4\n      pop\n      pop\n      pop\n      pop\n      jump\t// out\n        /* \"#utility.yul\":30611:30697   */\n    tag_265:\n        /* \"#utility.yul\":30646:30653   */\n      0x00\n        /* \"#utility.yul\":30686:30690   */\n      0xff\n        /* \"#utility.yul\":30679:30684   */\n      dup3\n        /* \"#utility.yul\":30675:30691   */\n      and\n        /* \"#utility.yul\":30664:30691   */\n      swap1\n      pop\n        /* \"#utility.yul\":30611:30697   */\n      swap2\n      swap1\n      pop\n      jump\t// out\n        /* \"#utility.yul\":30703:30891   */\n    tag_184:\n        /* \"#utility.yul\":30741:30744   */\n      0x00\n        /* \"#utility.yul\":30760:30778   */\n      tag_548\n        /* \"#utility.yul\":30776:30777   */\n      dup3\n        /* \"#utility.yul\":30760:30778   */\n      tag_265\n      jump\t// in\n    tag_548:\n        /* \"#utility.yul\":30755:30778   */\n      swap2\n      pop\n        /* \"#utility.yul\":30792:30810   */\n      tag_549\n        /* \"#utility.yul\":30808:30809   */\n      dup4\n        /* \"#utility.yul\":30792:30810   */\n      tag_265\n      jump\t// in\n    tag_549:\n        /* \"#utility.yul\":30787:30810   */\n      swap3\n      pop\n        /* \"#utility.yul\":30833:30834   */\n      dup3\n        /* \"#utility.yul\":30830:30831   */\n      dup3\n        /* \"#utility.yul\":30826:30835   */\n      add\n        /* \"#utility.yul\":30819:30835   */\n      swap1\n      pop\n        /* \"#utility.yul\":30856:30860   */\n      0xff\n        /* \"#utility.yul\":30851:30854   */\n      dup2\n        /* \"#utility.yul\":30848:30861   */\n      gt\n        /* \"#utility.yul\":30845:30884   */\n      iszero\n      tag_550\n      jumpi\n        /* \"#utility.yul\":30864:30882   */\n      tag_551\n      tag_245\n      jump\t// in\n    tag_551:\n        /* \"#utility.yul\":30845:30884   */\n    tag_550:\n        /* \"#utility.yul\":30703:30891   */\n      swap3\n      swap2\n      pop\n      pop\n      jump\t// out\n        /* \"#utility.yul\":30897:31009   */\n    tag_266:\n        /* \"#utility.yul\":30980:31002   */\n      tag_553\n        /* \"#utility.yul\":30996:31001   */\n      dup2\n        /* \"#utility.yul\":30980:31002   */\n      tag_265\n      jump\t// in\n    tag_553:\n        /* \"#utility.yul\":30975:30978   */\n      dup3\n        /* \"#utility.yul\":30968:31003   */\n      mstore\n        /* \"#utility.yul\":30897:31009   */\n      pop\n      pop\n      jump\t// out\n        /* \"#utility.yul\":31015:31560   */\n    tag_186:\n        /* \"#utility.yul\":31188:31192   */\n      0x00\n        /* \"#utility.yul\":31226:31229   */\n      0x80\n        /* \"#utility.yul\":31215:31224   */\n      dup3\n        /* \"#utility.yul\":31211:31230   */\n      add\n        /* \"#utility.yul\":31203:31230   */\n      swap1\n      pop\n        /* \"#utility.yul\":31240:31311   */\n      tag_555\n        /* \"#utility.yul\":31308:31309   */\n      0x00\n        /* \"#utility.yul\":31297:31306   */\n      dup4\n        /* \"#utility.yul\":31293:31310   */\n      add\n        /* \"#utility.yul\":31284:31290   */\n      dup8\n        /* \"#utility.yul\":31240:31311   */\n      tag_229\n      jump\t// in\n    tag_555:\n        /* \"#utility.yul\":31321:31389   */\n      tag_556\n        /* \"#utility.yul\":31385:31387   */\n      0x20\n        /* \"#utility.yul\":31374:31383   */\n      dup4\n        /* \"#utility.yul\":31370:31388   */\n      add\n        /* \"#utility.yul\":31361:31367   */\n      dup7\n        /* \"#utility.yul\":31321:31389   */\n      tag_266\n      jump\t// in\n    tag_556:\n        /* \"#utility.yul\":31399:31471   */\n      tag_557\n        /* \"#utility.yul\":31467:31469   */\n      0x40\n        /* \"#utility.yul\":31456:31465   */\n      dup4\n        /* \"#utility.yul\":31452:31470   */\n      add\n        /* \"#utility.yul\":31443:31449   */\n      dup6\n        /* \"#utility.yul\":31399:31471   */\n      tag_229\n      jump\t// in\n    tag_557:\n        /* \"#utility.yul\":31481:31553   */\n      tag_558\n        /* \"#utility.yul\":31549:31551   */\n      0x60\n        /* \"#utility.yul\":31538:31547   */\n      dup4\n        /* \"#utility.yul\":31534:31552   */\n      add\n        /* \"#utility.yul\":31525:31531   */\n      dup5\n        /* \"#utility.yul\":31481:31553   */\n      tag_229\n      jump\t// in\n    tag_558:\n        /* \"#utility.yul\":31015:31560   */\n      swap6\n      swap5\n      pop\n      pop\n      pop\n      pop\n      pop\n      jump\t// out\n    stop\n\n    sub_0: assembly {\n            /* \"NFT_market_contract.sol\":9556:13925  contract ProxyWallet {... */\n          mstore(0x40, 0x80)\n            /* \"NFT_market_contract.sol\":10073:10134  constructor(address _owner) {... */\n          callvalue\n          dup1\n          iszero\n          tag_1\n          jumpi\n          0x00\n          dup1\n          revert\n        tag_1:\n          pop\n          mload(0x40)\n          sub(codesize, bytecodeSize)\n          dup1\n          bytecodeSize\n          dup4\n          codecopy\n          dup2\n          dup2\n          add\n          0x40\n          mstore\n          dup2\n          add\n          swap1\n          tag_2\n          swap2\n          swap1\n          tag_3\n          jump\t// in\n        tag_2:\n            /* \"NFT_market_contract.sol\":10120:10126  _owner */\n          dup1\n            /* \"NFT_market_contract.sol\":10112:10117  owner */\n          0x00\n          dup1\n            /* \"NFT_market_contract.sol\":10112:10126  owner = _owner */\n          0x0100\n          exp\n          dup2\n          sload\n          dup2\n          0xffffffffffffffffffffffffffffffffffffffff\n          mul\n          not\n          and\n          swap1\n          dup4\n          0xffffffffffffffffffffffffffffffffffffffff\n          and\n          mul\n          or\n          swap1\n          sstore\n          pop\n            /* \"NFT_market_contract.sol\":10073:10134  constructor(address _owner) {... */\n          pop\n            /* \"NFT_market_contract.sol\":9556:13925  contract ProxyWallet {... */\n          jump(tag_6)\n            /* \"#utility.yul\":88:205   */\n        tag_8:\n            /* \"#utility.yul\":197:198   */\n          0x00\n            /* \"#utility.yul\":194:195   */\n          dup1\n            /* \"#utility.yul\":187:199   */\n          revert\n            /* \"#utility.yul\":334:460   */\n        tag_10:\n            /* \"#utility.yul\":371:378   */\n          0x00\n            /* \"#utility.yul\":411:453   */\n          0xffffffffffffffffffffffffffffffffffffffff\n            /* \"#utility.yul\":404:409   */\n          dup3\n            /* \"#utility.yul\":400:454   */\n          and\n            /* \"#utility.yul\":389:454   */\n          swap1\n          pop\n            /* \"#utility.yul\":334:460   */\n          swap2\n          swap1\n          pop\n          jump\t// out\n            /* \"#utility.yul\":466:562   */\n        tag_11:\n            /* \"#utility.yul\":503:510   */\n          0x00\n            /* \"#utility.yul\":532:556   */\n          tag_20\n            /* \"#utility.yul\":550:555   */\n          dup3\n            /* \"#utility.yul\":532:556   */\n          tag_10\n          jump\t// in\n        tag_20:\n            /* \"#utility.yul\":521:556   */\n          swap1\n          pop\n            /* \"#utility.yul\":466:562   */\n          swap2\n          swap1\n          pop\n          jump\t// out\n            /* \"#utility.yul\":568:690   */\n        tag_12:\n            /* \"#utility.yul\":641:665   */\n          tag_22\n            /* \"#utility.yul\":659:664   */\n          dup2\n            /* \"#utility.yul\":641:665   */\n          tag_11\n          jump\t// in\n        tag_22:\n            /* \"#utility.yul\":634:639   */\n          dup2\n            /* \"#utility.yul\":631:666   */\n          eq\n            /* \"#utility.yul\":621:684   */\n          tag_23\n          jumpi\n            /* \"#utility.yul\":680:681   */\n          0x00\n            /* \"#utility.yul\":677:678   */\n          dup1\n            /* \"#utility.yul\":670:682   */\n          revert\n            /* \"#utility.yul\":621:684   */\n        tag_23:\n            /* \"#utility.yul\":568:690   */\n          pop\n          jump\t// out\n            /* \"#utility.yul\":696:839   */\n        tag_13:\n            /* \"#utility.yul\":753:758   */\n          0x00\n            /* \"#utility.yul\":784:790   */\n          dup2\n            /* \"#utility.yul\":778:791   */\n          mload\n            /* \"#utility.yul\":769:791   */\n          swap1\n          pop\n            /* \"#utility.yul\":800:833   */\n          tag_25\n            /* \"#utility.yul\":827:832   */\n          dup2\n            /* \"#utility.yul\":800:833   */\n          tag_12\n          jump\t// in\n        tag_25:\n            /* \"#utility.yul\":696:839   */\n          swap3\n          swap2\n          pop\n          pop\n          jump\t// out\n            /* \"#utility.yul\":845:1196   */\n        tag_3:\n            /* \"#utility.yul\":915:921   */\n          0x00\n            /* \"#utility.yul\":964:966   */\n          0x20\n            /* \"#utility.yul\":952:961   */\n          dup3\n            /* \"#utility.yul\":943:950   */\n          dup5\n            /* \"#utility.yul\":939:962   */\n          sub\n            /* \"#utility.yul\":935:967   */\n          slt\n            /* \"#utility.yul\":932:1051   */\n          iszero\n          tag_27\n          jumpi\n            /* \"#utility.yul\":970:1049   */\n          tag_28\n          tag_8\n          jump\t// in\n        tag_28:\n            /* \"#utility.yul\":932:1051   */\n        tag_27:\n            /* \"#utility.yul\":1090:1091   */\n          0x00\n            /* \"#utility.yul\":1115:1179   */\n          tag_29\n            /* \"#utility.yul\":1171:1178   */\n          dup5\n            /* \"#utility.yul\":1162:1168   */\n          dup3\n            /* \"#utility.yul\":1151:1160   */\n          dup6\n            /* \"#utility.yul\":1147:1169   */\n          add\n            /* \"#utility.yul\":1115:1179   */\n          tag_13\n          jump\t// in\n        tag_29:\n            /* \"#utility.yul\":1105:1179   */\n          swap2\n          pop\n            /* \"#utility.yul\":1061:1189   */\n          pop\n            /* \"#utility.yul\":845:1196   */\n          swap3\n          swap2\n          pop\n          pop\n          jump\t// out\n            /* \"NFT_market_contract.sol\":9556:13925  contract ProxyWallet {... */\n        tag_6:\n          dataSize(sub_0)\n          dup1\n          dataOffset(sub_0)\n          0x00\n          codecopy\n          0x00\n          return\n        stop\n\n        sub_0: assembly {\n                /* \"NFT_market_contract.sol\":9556:13925  contract ProxyWallet {... */\n              mstore(0x40, 0x80)\n              callvalue\n              dup1\n              iszero\n              tag_1\n              jumpi\n              0x00\n              dup1\n              revert\n            tag_1:\n              pop\n              jumpi(tag_2, lt(calldatasize, 0x04))\n              shr(0xe0, calldataload(0x00))\n              dup1\n              0x1885ae10\n              eq\n              tag_3\n              jumpi\n              dup1\n              0x8eb6a489\n              eq\n              tag_4\n              jumpi\n              dup1\n              0x9b3f3f1a\n              eq\n              tag_5\n              jumpi\n              dup1\n              0xeb41850d\n              eq\n              tag_6\n              jumpi\n            tag_2:\n              0x00\n              dup1\n              revert\n                /* \"NFT_market_contract.sol\":10469:12044  function AtomicTx(... */\n            tag_3:\n              tag_7\n              0x04\n              dup1\n              calldatasize\n              sub\n              dup2\n              add\n              swap1\n              tag_8\n              swap2\n              swap1\n              tag_9\n              jump\t// in\n            tag_8:\n              tag_10\n              jump\t// in\n            tag_7:\n              mload(0x40)\n              tag_11\n              swap2\n              swap1\n              tag_12\n              jump\t// in\n            tag_11:\n              mload(0x40)\n              dup1\n              swap2\n              sub\n              swap1\n              return\n                /* \"NFT_market_contract.sol\":9692:9733  mapping(bytes32 => bool) public IsInvalid */\n            tag_4:\n              tag_13\n              0x04\n              dup1\n              calldatasize\n              sub\n              dup2\n              add\n              swap1\n              tag_14\n              swap2\n              swap1\n              tag_15\n              jump\t// in\n            tag_14:\n              tag_16\n              jump\t// in\n            tag_13:\n              mload(0x40)\n              tag_17\n              swap2\n              swap1\n              tag_12\n              jump\t// in\n            tag_17:\n              mload(0x40)\n              dup1\n              swap2\n              sub\n              swap1\n              return\n                /* \"NFT_market_contract.sol\":12072:12876  function cancelOrder(SellOrder memory sellOrder) public {... */\n            tag_5:\n              tag_18\n              0x04\n              dup1\n              calldatasize\n              sub\n              dup2\n              add\n              swap1\n              tag_19\n              swap2\n              swap1\n              tag_20\n              jump\t// in\n            tag_19:\n              tag_21\n              jump\t// in\n            tag_18:\n              stop\n                /* \"NFT_market_contract.sol\":10345:10461  function isOrderInvalid(bytes32 orderHash) public view returns (bool) {... */\n            tag_6:\n              tag_22\n              0x04\n              dup1\n              calldatasize\n              sub\n              dup2\n              add\n              swap1\n              tag_23\n              swap2\n              swap1\n              tag_15\n              jump\t// in\n            tag_23:\n              tag_24\n              jump\t// in\n            tag_22:\n              mload(0x40)\n              tag_25\n              swap2\n              swap1\n              tag_12\n              jump\t// in\n            tag_25:\n              mload(0x40)\n              dup1\n              swap2\n              sub\n              swap1\n              return\n                /* \"NFT_market_contract.sol\":10469:12044  function AtomicTx(... */\n            tag_10:\n                /* \"NFT_market_contract.sol\":10572:10576  bool */\n              0x00\n                /* \"NFT_market_contract.sol\":10589:10601  bytes32 Hash */\n              dup1\n                /* \"NFT_market_contract.sol\":10663:10672  sellOrder */\n              dup4\n                /* \"NFT_market_contract.sol\":10663:10683  sellOrder.contractID */\n              0x20\n              add\n              mload\n                /* \"NFT_market_contract.sol\":10702:10711  sellOrder */\n              dup5\n                /* \"NFT_market_contract.sol\":10702:10719  sellOrder.tokenID */\n              0x40\n              add\n              mload\n                /* \"NFT_market_contract.sol\":10738:10747  sellOrder */\n              dup6\n                /* \"NFT_market_contract.sol\":10738:10753  sellOrder.price */\n              0x60\n              add\n              mload\n                /* \"NFT_market_contract.sol\":10772:10781  sellOrder */\n              dup7\n                /* \"NFT_market_contract.sol\":10772:10796  sellOrder.expirationTime */\n              0xa0\n              add\n              mload\n                /* \"NFT_market_contract.sol\":10815:10824  sellOrder */\n              dup8\n                /* \"NFT_market_contract.sol\":10815:10834  sellOrder.signature */\n              0x80\n              add\n              mload\n                /* \"NFT_market_contract.sol\":10628:10849  abi.encodePacked(... */\n              add(0x20, mload(0x40))\n              tag_27\n              swap6\n              swap5\n              swap4\n              swap3\n              swap2\n              swap1\n              tag_28\n              jump\t// in\n            tag_27:\n              mload(0x40)\n              0x20\n              dup2\n              dup4\n              sub\n              sub\n              dup2\n              mstore\n              swap1\n              0x40\n              mstore\n                /* \"NFT_market_contract.sol\":10604:10860  keccak256(... */\n              dup1\n              mload\n              swap1\n              0x20\n              add\n              keccak256\n                /* \"NFT_market_contract.sol\":10589:10860  bytes32 Hash = keccak256(... */\n              swap1\n              pop\n                /* \"NFT_market_contract.sol\":10944:10959  block.timestamp */\n              timestamp\n                /* \"NFT_market_contract.sol\":10917:10926  sellOrder */\n              dup5\n                /* \"NFT_market_contract.sol\":10917:10941  sellOrder.expirationTime */\n              0xa0\n              add\n              mload\n                /* \"NFT_market_contract.sol\":10917:10959  sellOrder.expirationTime < block.timestamp */\n              lt\n                /* \"NFT_market_contract.sol\":10913:11039  if (sellOrder.expirationTime < block.timestamp) {... */\n              iszero\n              tag_29\n              jumpi\n                /* \"NFT_market_contract.sol\":10976:11000  markOrderCancelled(Hash) */\n              tag_30\n                /* \"NFT_market_contract.sol\":10995:10999  Hash */\n              dup2\n                /* \"NFT_market_contract.sol\":10976:10994  markOrderCancelled */\n              tag_31\n                /* \"NFT_market_contract.sol\":10976:11000  markOrderCancelled(Hash) */\n              jump\t// in\n            tag_30:\n                /* \"NFT_market_contract.sol\":11022:11027  false */\n              0x00\n                /* \"NFT_market_contract.sol\":11015:11027  return false */\n              swap2\n              pop\n              pop\n              jump(tag_26)\n                /* \"NFT_market_contract.sol\":10913:11039  if (sellOrder.expirationTime < block.timestamp) {... */\n            tag_29:\n                /* \"NFT_market_contract.sol\":11103:11112  IsInvalid */\n              0x01\n                /* \"NFT_market_contract.sol\":11103:11118  IsInvalid[Hash] */\n              0x00\n                /* \"NFT_market_contract.sol\":11113:11117  Hash */\n              dup3\n                /* \"NFT_market_contract.sol\":11103:11118  IsInvalid[Hash] */\n              dup2\n              mstore\n              0x20\n              add\n              swap1\n              dup2\n              mstore\n              0x20\n              add\n              0x00\n              keccak256\n              0x00\n              swap1\n              sload\n              swap1\n              0x0100\n              exp\n              swap1\n              div\n              0xff\n              and\n                /* \"NFT_market_contract.sol\":11102:11118  !IsInvalid[Hash] */\n              iszero\n                /* \"NFT_market_contract.sol\":11094:11142  require(!IsInvalid[Hash], \"Order has been used\") */\n              tag_32\n              jumpi\n              mload(0x40)\n              0x08c379a000000000000000000000000000000000000000000000000000000000\n              dup2\n              mstore\n              0x04\n              add\n              tag_33\n              swap1\n              tag_34\n              jump\t// in\n            tag_33:\n              mload(0x40)\n              dup1\n              swap2\n              sub\n              swap1\n              revert\n            tag_32:\n                /* \"NFT_market_contract.sol\":11202:11457  verifySignature(... */\n              tag_35\n                /* \"NFT_market_contract.sol\":11236:11245  sellOrder */\n              dup5\n                /* \"NFT_market_contract.sol\":11236:11252  sellOrder.seller */\n              0x00\n              add\n              mload\n                /* \"NFT_market_contract.sol\":11271:11280  sellOrder */\n              dup6\n                /* \"NFT_market_contract.sol\":11271:11291  sellOrder.contractID */\n              0x20\n              add\n              mload\n                /* \"NFT_market_contract.sol\":11310:11319  sellOrder */\n              dup7\n                /* \"NFT_market_contract.sol\":11310:11327  sellOrder.tokenID */\n              0x40\n              add\n              mload\n                /* \"NFT_market_contract.sol\":11346:11355  sellOrder */\n              dup8\n                /* \"NFT_market_contract.sol\":11346:11361  sellOrder.price */\n              0x60\n              add\n              mload\n                /* \"NFT_market_contract.sol\":11380:11389  sellOrder */\n              dup9\n                /* \"NFT_market_contract.sol\":11380:11399  sellOrder.signature */\n              0x80\n              add\n              mload\n                /* \"NFT_market_contract.sol\":11418:11427  sellOrder */\n              dup10\n                /* \"NFT_market_contract.sol\":11418:11442  sellOrder.expirationTime */\n              0xa0\n              add\n              mload\n                /* \"NFT_market_contract.sol\":11202:11217  verifySignature */\n              tag_36\n                /* \"NFT_market_contract.sol\":11202:11457  verifySignature(... */\n              jump\t// in\n            tag_35:\n                /* \"NFT_market_contract.sol\":11180:11502  require(... */\n              tag_37\n              jumpi\n              mload(0x40)\n              0x08c379a000000000000000000000000000000000000000000000000000000000\n              dup2\n              mstore\n              0x04\n              add\n              tag_38\n              swap1\n              tag_39\n              jump\t// in\n            tag_38:\n              mload(0x40)\n              dup1\n              swap2\n              sub\n              swap1\n              revert\n            tag_37:\n                /* \"NFT_market_contract.sol\":11529:11538  sellOrder */\n              dup4\n                /* \"NFT_market_contract.sol\":11529:11544  sellOrder.price */\n              0x60\n              add\n              mload\n                /* \"NFT_market_contract.sol\":11519:11525  _value */\n              dup4\n                /* \"NFT_market_contract.sol\":11519:11544  _value >= sellOrder.price */\n              lt\n                /* \"NFT_market_contract.sol\":11515:12037  if (_value >= sellOrder.price) {... */\n              tag_40\n              jumpi\n                /* \"NFT_market_contract.sol\":11659:11668  sellOrder */\n              dup4\n                /* \"NFT_market_contract.sol\":11659:11679  sellOrder.contractID */\n              0x20\n              add\n              mload\n                /* \"NFT_market_contract.sol\":11651:11693  IERC721(sellOrder.contractID).transferFrom */\n              0xffffffffffffffffffffffffffffffffffffffff\n              and\n              0x23b872dd\n                /* \"NFT_market_contract.sol\":11716:11725  sellOrder */\n              dup6\n                /* \"NFT_market_contract.sol\":11716:11732  sellOrder.seller */\n              0x00\n              add\n              mload\n                /* \"NFT_market_contract.sol\":11755:11765  msg.sender */\n              caller\n                /* \"NFT_market_contract.sol\":11788:11797  sellOrder */\n              dup8\n                /* \"NFT_market_contract.sol\":11788:11805  sellOrder.tokenID */\n              0x40\n              add\n              mload\n                /* \"NFT_market_contract.sol\":11651:11824  IERC721(sellOrder.contractID).transferFrom(... */\n              mload(0x40)\n              dup5\n              0xffffffff\n              and\n              0xe0\n              shl\n              dup2\n              mstore\n              0x04\n              add\n              tag_41\n              swap4\n              swap3\n              swap2\n              swap1\n              tag_42\n              jump\t// in\n            tag_41:\n              0x00\n              mload(0x40)\n              dup1\n              dup4\n              sub\n              dup2\n              0x00\n              dup8\n              dup1\n              extcodesize\n              iszero\n              dup1\n              iszero\n              tag_43\n              jumpi\n              0x00\n              dup1\n              revert\n            tag_43:\n              pop\n              gas\n              call\n              swap3\n              pop\n              pop\n              pop\n              dup1\n              iszero\n              tag_44\n              jumpi\n              pop\n              0x01\n            tag_44:\n                /* \"NFT_market_contract.sol\":11630:11981  try... */\n              tag_45\n              jumpi\n                /* \"NFT_market_contract.sol\":11960:11965  false */\n              0x00\n                /* \"NFT_market_contract.sol\":11953:11965  return false */\n              swap2\n              pop\n              pop\n              jump(tag_26)\n                /* \"NFT_market_contract.sol\":11630:11981  try... */\n            tag_45:\n                /* \"NFT_market_contract.sol\":11857:11881  markOrderCancelled(Hash) */\n              tag_50\n                /* \"NFT_market_contract.sol\":11876:11880  Hash */\n              dup2\n                /* \"NFT_market_contract.sol\":11857:11875  markOrderCancelled */\n              tag_31\n                /* \"NFT_market_contract.sol\":11857:11881  markOrderCancelled(Hash) */\n              jump\t// in\n            tag_50:\n                /* \"NFT_market_contract.sol\":11907:11911  true */\n              0x01\n                /* \"NFT_market_contract.sol\":11900:11911  return true */\n              swap2\n              pop\n              pop\n              jump(tag_26)\n                /* \"NFT_market_contract.sol\":11515:12037  if (_value >= sellOrder.price) {... */\n            tag_40:\n                /* \"NFT_market_contract.sol\":12020:12025  false */\n              0x00\n                /* \"NFT_market_contract.sol\":12013:12025  return false */\n              swap2\n              pop\n              pop\n                /* \"NFT_market_contract.sol\":10469:12044  function AtomicTx(... */\n            tag_26:\n              swap3\n              swap2\n              pop\n              pop\n              jump\t// out\n                /* \"NFT_market_contract.sol\":9692:9733  mapping(bytes32 => bool) public IsInvalid */\n            tag_16:\n              mstore(0x20, 0x01)\n              dup1\n              0x00\n              mstore\n              keccak256(0x00, 0x40)\n              0x00\n              swap2\n              pop\n              sload\n              swap1\n              0x0100\n              exp\n              swap1\n              div\n              0xff\n              and\n              dup2\n              jump\t// out\n                /* \"NFT_market_contract.sol\":12072:12876  function cancelOrder(SellOrder memory sellOrder) public {... */\n            tag_21:\n                /* \"NFT_market_contract.sol\":12186:12441  verifySignature(... */\n              tag_53\n                /* \"NFT_market_contract.sol\":12220:12229  sellOrder */\n              dup2\n                /* \"NFT_market_contract.sol\":12220:12236  sellOrder.seller */\n              0x00\n              add\n              mload\n                /* \"NFT_market_contract.sol\":12255:12264  sellOrder */\n              dup3\n                /* \"NFT_market_contract.sol\":12255:12275  sellOrder.contractID */\n              0x20\n              add\n              mload\n                /* \"NFT_market_contract.sol\":12294:12303  sellOrder */\n              dup4\n                /* \"NFT_market_contract.sol\":12294:12311  sellOrder.tokenID */\n              0x40\n              add\n              mload\n                /* \"NFT_market_contract.sol\":12330:12339  sellOrder */\n              dup5\n                /* \"NFT_market_contract.sol\":12330:12345  sellOrder.price */\n              0x60\n              add\n              mload\n                /* \"NFT_market_contract.sol\":12364:12373  sellOrder */\n              dup6\n                /* \"NFT_market_contract.sol\":12364:12383  sellOrder.signature */\n              0x80\n              add\n              mload\n                /* \"NFT_market_contract.sol\":12402:12411  sellOrder */\n              dup7\n                /* \"NFT_market_contract.sol\":12402:12426  sellOrder.expirationTime */\n              0xa0\n              add\n              mload\n                /* \"NFT_market_contract.sol\":12186:12201  verifySignature */\n              tag_36\n                /* \"NFT_market_contract.sol\":12186:12441  verifySignature(... */\n              jump\t// in\n            tag_53:\n                /* \"NFT_market_contract.sol\":12164:12486  require(... */\n              tag_54\n              jumpi\n              mload(0x40)\n              0x08c379a000000000000000000000000000000000000000000000000000000000\n              dup2\n              mstore\n              0x04\n              add\n              tag_55\n              swap1\n              tag_39\n              jump\t// in\n            tag_55:\n              mload(0x40)\n              dup1\n              swap2\n              sub\n              swap1\n              revert\n            tag_54:\n                /* \"NFT_market_contract.sol\":12523:12535  bytes32 Hash */\n              0x00\n                /* \"NFT_market_contract.sol\":12597:12606  sellOrder */\n              dup2\n                /* \"NFT_market_contract.sol\":12597:12617  sellOrder.contractID */\n              0x20\n              add\n              mload\n                /* \"NFT_market_contract.sol\":12636:12645  sellOrder */\n              dup3\n                /* \"NFT_market_contract.sol\":12636:12653  sellOrder.tokenID */\n              0x40\n              add\n              mload\n                /* \"NFT_market_contract.sol\":12672:12681  sellOrder */\n              dup4\n                /* \"NFT_market_contract.sol\":12672:12687  sellOrder.price */\n              0x60\n              add\n              mload\n                /* \"NFT_market_contract.sol\":12706:12715  sellOrder */\n              dup5\n                /* \"NFT_market_contract.sol\":12706:12730  sellOrder.expirationTime */\n              0xa0\n              add\n              mload\n                /* \"NFT_market_contract.sol\":12749:12758  sellOrder */\n              dup6\n                /* \"NFT_market_contract.sol\":12749:12768  sellOrder.signature */\n              0x80\n              add\n              mload\n                /* \"NFT_market_contract.sol\":12562:12783  abi.encodePacked(... */\n              add(0x20, mload(0x40))\n              tag_56\n              swap6\n              swap5\n              swap4\n              swap3\n              swap2\n              swap1\n              tag_28\n              jump\t// in\n            tag_56:\n              mload(0x40)\n              0x20\n              dup2\n              dup4\n              sub\n              sub\n              dup2\n              mstore\n              swap1\n              0x40\n              mstore\n                /* \"NFT_market_contract.sol\":12538:12794  keccak256(... */\n              dup1\n              mload\n              swap1\n              0x20\n              add\n              keccak256\n                /* \"NFT_market_contract.sol\":12523:12794  bytes32 Hash = keccak256(... */\n              swap1\n              pop\n                /* \"NFT_market_contract.sol\":12844:12868  markOrderCancelled(Hash) */\n              tag_57\n                /* \"NFT_market_contract.sol\":12863:12867  Hash */\n              dup2\n                /* \"NFT_market_contract.sol\":12844:12862  markOrderCancelled */\n              tag_31\n                /* \"NFT_market_contract.sol\":12844:12868  markOrderCancelled(Hash) */\n              jump\t// in\n            tag_57:\n                /* \"NFT_market_contract.sol\":12128:12876  {... */\n              pop\n                /* \"NFT_market_contract.sol\":12072:12876  function cancelOrder(SellOrder memory sellOrder) public {... */\n              pop\n              jump\t// out\n                /* \"NFT_market_contract.sol\":10345:10461  function isOrderInvalid(bytes32 orderHash) public view returns (bool) {... */\n            tag_24:\n                /* \"NFT_market_contract.sol\":10409:10413  bool */\n              0x00\n                /* \"NFT_market_contract.sol\":10433:10442  IsInvalid */\n              0x01\n                /* \"NFT_market_contract.sol\":10433:10453  IsInvalid[orderHash] */\n              0x00\n                /* \"NFT_market_contract.sol\":10443:10452  orderHash */\n              dup4\n                /* \"NFT_market_contract.sol\":10433:10453  IsInvalid[orderHash] */\n              dup2\n              mstore\n              0x20\n              add\n              swap1\n              dup2\n              mstore\n              0x20\n              add\n              0x00\n              keccak256\n              0x00\n              swap1\n              sload\n              swap1\n              0x0100\n              exp\n              swap1\n              div\n              0xff\n              and\n                /* \"NFT_market_contract.sol\":10426:10453  return IsInvalid[orderHash] */\n              swap1\n              pop\n                /* \"NFT_market_contract.sol\":10345:10461  function isOrderInvalid(bytes32 orderHash) public view returns (bool) {... */\n              swap2\n              swap1\n              pop\n              jump\t// out\n                /* \"NFT_market_contract.sol\":10142:10281  function markOrderCancelled(bytes32 orderHash) internal {... */\n            tag_31:\n                /* \"NFT_market_contract.sol\":10269:10273  true */\n              0x01\n                /* \"NFT_market_contract.sol\":10246:10255  IsInvalid */\n              dup1\n                /* \"NFT_market_contract.sol\":10246:10266  IsInvalid[orderHash] */\n              0x00\n                /* \"NFT_market_contract.sol\":10256:10265  orderHash */\n              dup4\n                /* \"NFT_market_contract.sol\":10246:10266  IsInvalid[orderHash] */\n              dup2\n              mstore\n              0x20\n              add\n              swap1\n              dup2\n              mstore\n              0x20\n              add\n              0x00\n              keccak256\n              0x00\n                /* \"NFT_market_contract.sol\":10246:10273  IsInvalid[orderHash] = true */\n              0x0100\n              exp\n              dup2\n              sload\n              dup2\n              0xff\n              mul\n              not\n              and\n              swap1\n              dup4\n              iszero\n              iszero\n              mul\n              or\n              swap1\n              sstore\n              pop\n                /* \"NFT_market_contract.sol\":10142:10281  function markOrderCancelled(bytes32 orderHash) internal {... */\n              pop\n              jump\t// out\n                /* \"NFT_market_contract.sol\":12905:13454  function verifySignature(... */\n            tag_36:\n                /* \"NFT_market_contract.sol\":13130:13134  bool */\n              0x00\n                /* \"NFT_market_contract.sol\":13147:13159  bytes32 hash */\n              dup1\n                /* \"NFT_market_contract.sol\":13203:13213  contractID */\n              dup7\n                /* \"NFT_market_contract.sol\":13215:13222  tokenID */\n              dup7\n                /* \"NFT_market_contract.sol\":13224:13229  price */\n              dup7\n                /* \"NFT_market_contract.sol\":13231:13245  expirationTime */\n              dup6\n                /* \"NFT_market_contract.sol\":13186:13246  abi.encodePacked(contractID, tokenID, price, expirationTime) */\n              add(0x20, mload(0x40))\n              tag_61\n              swap5\n              swap4\n              swap3\n              swap2\n              swap1\n              tag_62\n              jump\t// in\n            tag_61:\n              mload(0x40)\n              0x20\n              dup2\n              dup4\n              sub\n              sub\n              dup2\n              mstore\n              swap1\n              0x40\n              mstore\n                /* \"NFT_market_contract.sol\":13162:13257  keccak256(... */\n              dup1\n              mload\n              swap1\n              0x20\n              add\n              keccak256\n                /* \"NFT_market_contract.sol\":13147:13257  bytes32 hash = keccak256(... */\n              swap1\n              pop\n                /* \"NFT_market_contract.sol\":13268:13285  bytes32 OrderHash */\n              0x00\n                /* \"NFT_market_contract.sol\":13365:13369  hash */\n              dup2\n                /* \"NFT_market_contract.sol\":13312:13370  abi.encodePacked(\"\\x19Ethereum Signed Message:\\n32\", hash) */\n              add(0x20, mload(0x40))\n              tag_63\n              swap2\n              swap1\n              tag_64\n              jump\t// in\n            tag_63:\n              mload(0x40)\n              0x20\n              dup2\n              dup4\n              sub\n              sub\n              dup2\n              mstore\n              swap1\n              0x40\n              mstore\n                /* \"NFT_market_contract.sol\":13288:13381  keccak256(... */\n              dup1\n              mload\n              swap1\n              0x20\n              add\n              keccak256\n                /* \"NFT_market_contract.sol\":13268:13381  bytes32 OrderHash = keccak256(... */\n              swap1\n              pop\n                /* \"NFT_market_contract.sol\":13440:13446  seller */\n              dup9\n                /* \"NFT_market_contract.sol\":13401:13446  recoverSigner(OrderHash, signature) == seller */\n              0xffffffffffffffffffffffffffffffffffffffff\n              and\n                /* \"NFT_market_contract.sol\":13401:13436  recoverSigner(OrderHash, signature) */\n              tag_65\n                /* \"NFT_market_contract.sol\":13415:13424  OrderHash */\n              dup3\n                /* \"NFT_market_contract.sol\":13426:13435  signature */\n              dup8\n                /* \"NFT_market_contract.sol\":13401:13414  recoverSigner */\n              tag_66\n                /* \"NFT_market_contract.sol\":13401:13436  recoverSigner(OrderHash, signature) */\n              jump\t// in\n            tag_65:\n                /* \"NFT_market_contract.sol\":13401:13446  recoverSigner(OrderHash, signature) == seller */\n              0xffffffffffffffffffffffffffffffffffffffff\n              and\n              eq\n                /* \"NFT_market_contract.sol\":13394:13446  return recoverSigner(OrderHash, signature) == seller */\n              swap3\n              pop\n              pop\n              pop\n                /* \"NFT_market_contract.sol\":12905:13454  function verifySignature(... */\n              swap7\n              swap6\n              pop\n              pop\n              pop\n              pop\n              pop\n              pop\n              jump\t// out\n                /* \"NFT_market_contract.sol\":13462:13922  function recoverSigner(... */\n            tag_66:\n                /* \"NFT_market_contract.sol\":13571:13578  address */\n              0x00\n                /* \"NFT_market_contract.sol\":13591:13600  bytes32 r */\n              dup1\n                /* \"NFT_market_contract.sol\":13611:13620  bytes32 s */\n              0x00\n                /* \"NFT_market_contract.sol\":13631:13638  uint8 v */\n              dup1\n                /* \"NFT_market_contract.sol\":13701:13703  32 */\n              0x20\n                /* \"NFT_market_contract.sol\":13690:13699  signature */\n              dup6\n                /* \"NFT_market_contract.sol\":13686:13704  add(signature, 32) */\n              add\n                /* \"NFT_market_contract.sol\":13680:13705  mload(add(signature, 32)) */\n              mload\n                /* \"NFT_market_contract.sol\":13675:13705  r := mload(add(signature, 32)) */\n              swap3\n              pop\n                /* \"NFT_market_contract.sol\":13745:13747  64 */\n              0x40\n                /* \"NFT_market_contract.sol\":13734:13743  signature */\n              dup6\n                /* \"NFT_market_contract.sol\":13730:13748  add(signature, 64) */\n              add\n                /* \"NFT_market_contract.sol\":13724:13749  mload(add(signature, 64)) */\n              mload\n                /* \"NFT_market_contract.sol\":13719:13749  s := mload(add(signature, 64)) */\n              swap2\n              pop\n                /* \"NFT_market_contract.sol\":13797:13799  96 */\n              0x60\n                /* \"NFT_market_contract.sol\":13786:13795  signature */\n              dup6\n                /* \"NFT_market_contract.sol\":13782:13800  add(signature, 96) */\n              add\n                /* \"NFT_market_contract.sol\":13776:13801  mload(add(signature, 96)) */\n              mload\n                /* \"NFT_market_contract.sol\":13773:13774  0 */\n              0x00\n                /* \"NFT_market_contract.sol\":13768:13802  byte(0, mload(add(signature, 96))) */\n              byte\n                /* \"NFT_market_contract.sol\":13763:13802  v := byte(0, mload(add(signature, 96))) */\n              swap1\n              pop\n                /* \"NFT_market_contract.sol\":13833:13835  27 */\n              0x1b\n                /* \"NFT_market_contract.sol\":13829:13830  v */\n              dup2\n                /* \"NFT_market_contract.sol\":13829:13835  v < 27 */\n              0xff\n              and\n              lt\n                /* \"NFT_market_contract.sol\":13825:13871  if (v < 27) {... */\n              iszero\n              tag_68\n              jumpi\n                /* \"NFT_market_contract.sol\":13857:13859  27 */\n              0x1b\n                /* \"NFT_market_contract.sol\":13852:13859  v += 27 */\n              dup2\n              tag_69\n              swap2\n              swap1\n              tag_70\n              jump\t// in\n            tag_69:\n              swap1\n              pop\n                /* \"NFT_market_contract.sol\":13825:13871  if (v < 27) {... */\n            tag_68:\n                /* \"NFT_market_contract.sol\":13890:13914  ecrecover(hash, v, r, s) */\n              0x01\n                /* \"NFT_market_contract.sol\":13900:13904  hash */\n              dup7\n                /* \"NFT_market_contract.sol\":13906:13907  v */\n              dup3\n                /* \"NFT_market_contract.sol\":13909:13910  r */\n              dup6\n                /* \"NFT_market_contract.sol\":13912:13913  s */\n              dup6\n                /* \"NFT_market_contract.sol\":13890:13914  ecrecover(hash, v, r, s) */\n              mload(0x40)\n              0x00\n              dup2\n              mstore\n              0x20\n              add\n              0x40\n              mstore\n              mload(0x40)\n              tag_71\n              swap5\n              swap4\n              swap3\n              swap2\n              swap1\n              tag_72\n              jump\t// in\n            tag_71:\n              0x20\n              mload(0x40)\n              0x20\n              dup2\n              sub\n              swap1\n              dup1\n              dup5\n              sub\n              swap1\n              dup6\n              gas\n              staticcall\n              iszero\n              dup1\n              iszero\n              tag_74\n              jumpi\n              returndatasize\n              0x00\n              dup1\n              returndatacopy\n              revert(0x00, returndatasize)\n            tag_74:\n              pop\n              pop\n              pop\n              mload(sub(mload(0x40), 0x20))\n                /* \"NFT_market_contract.sol\":13883:13914  return ecrecover(hash, v, r, s) */\n              swap4\n              pop\n              pop\n              pop\n              pop\n                /* \"NFT_market_contract.sol\":13462:13922  function recoverSigner(... */\n              swap3\n              swap2\n              pop\n              pop\n              jump\t// out\n                /* \"#utility.yul\":7:82   */\n            tag_75:\n                /* \"#utility.yul\":40:46   */\n              0x00\n                /* \"#utility.yul\":73:75   */\n              0x40\n                /* \"#utility.yul\":67:76   */\n              mload\n                /* \"#utility.yul\":57:76   */\n              swap1\n              pop\n                /* \"#utility.yul\":7:82   */\n              swap1\n              jump\t// out\n                /* \"#utility.yul\":88:205   */\n            tag_76:\n                /* \"#utility.yul\":197:198   */\n              0x00\n                /* \"#utility.yul\":194:195   */\n              dup1\n                /* \"#utility.yul\":187:199   */\n              revert\n                /* \"#utility.yul\":211:328   */\n            tag_77:\n                /* \"#utility.yul\":320:321   */\n              0x00\n                /* \"#utility.yul\":317:318   */\n              dup1\n                /* \"#utility.yul\":310:322   */\n              revert\n                /* \"#utility.yul\":334:451   */\n            tag_78:\n                /* \"#utility.yul\":443:444   */\n              0x00\n                /* \"#utility.yul\":440:441   */\n              dup1\n                /* \"#utility.yul\":433:445   */\n              revert\n                /* \"#utility.yul\":457:559   */\n            tag_79:\n                /* \"#utility.yul\":498:504   */\n              0x00\n                /* \"#utility.yul\":549:551   */\n              0x1f\n                /* \"#utility.yul\":545:552   */\n              not\n                /* \"#utility.yul\":540:542   */\n              0x1f\n                /* \"#utility.yul\":533:538   */\n              dup4\n                /* \"#utility.yul\":529:543   */\n              add\n                /* \"#utility.yul\":525:553   */\n              and\n                /* \"#utility.yul\":515:553   */\n              swap1\n              pop\n                /* \"#utility.yul\":457:559   */\n              swap2\n              swap1\n              pop\n              jump\t// out\n                /* \"#utility.yul\":565:745   */\n            tag_80:\n                /* \"#utility.yul\":613:690   */\n              0x4e487b7100000000000000000000000000000000000000000000000000000000\n                /* \"#utility.yul\":610:611   */\n              0x00\n                /* \"#utility.yul\":603:691   */\n              mstore\n                /* \"#utility.yul\":710:714   */\n              0x41\n                /* \"#utility.yul\":707:708   */\n              0x04\n                /* \"#utility.yul\":700:715   */\n              mstore\n                /* \"#utility.yul\":734:738   */\n              0x24\n                /* \"#utility.yul\":731:732   */\n              0x00\n                /* \"#utility.yul\":724:739   */\n              revert\n                /* \"#utility.yul\":751:1032   */\n            tag_81:\n                /* \"#utility.yul\":834:861   */\n              tag_137\n                /* \"#utility.yul\":856:860   */\n              dup3\n                /* \"#utility.yul\":834:861   */\n              tag_79\n              jump\t// in\n            tag_137:\n                /* \"#utility.yul\":826:832   */\n              dup2\n                /* \"#utility.yul\":822:862   */\n              add\n                /* \"#utility.yul\":964:970   */\n              dup2\n                /* \"#utility.yul\":952:962   */\n              dup2\n                /* \"#utility.yul\":949:971   */\n              lt\n                /* \"#utility.yul\":928:946   */\n              0xffffffffffffffff\n                /* \"#utility.yul\":916:926   */\n              dup3\n                /* \"#utility.yul\":913:947   */\n              gt\n                /* \"#utility.yul\":910:972   */\n              or\n                /* \"#utility.yul\":907:995   */\n              iszero\n              tag_138\n              jumpi\n                /* \"#utility.yul\":975:993   */\n              tag_139\n              tag_80\n              jump\t// in\n            tag_139:\n                /* \"#utility.yul\":907:995   */\n            tag_138:\n                /* \"#utility.yul\":1015:1025   */\n              dup1\n                /* \"#utility.yul\":1011:1013   */\n              0x40\n                /* \"#utility.yul\":1004:1026   */\n              mstore\n                /* \"#utility.yul\":794:1032   */\n              pop\n                /* \"#utility.yul\":751:1032   */\n              pop\n              pop\n              jump\t// out\n                /* \"#utility.yul\":1038:1167   */\n            tag_82:\n                /* \"#utility.yul\":1072:1078   */\n              0x00\n                /* \"#utility.yul\":1099:1119   */\n              tag_141\n              tag_75\n              jump\t// in\n            tag_141:\n                /* \"#utility.yul\":1089:1119   */\n              swap1\n              pop\n                /* \"#utility.yul\":1128:1161   */\n              tag_142\n                /* \"#utility.yul\":1156:1160   */\n              dup3\n                /* \"#utility.yul\":1148:1154   */\n              dup3\n                /* \"#utility.yul\":1128:1161   */\n              tag_81\n              jump\t// in\n            tag_142:\n                /* \"#utility.yul\":1038:1167   */\n              swap2\n              swap1\n              pop\n              jump\t// out\n                /* \"#utility.yul\":1173:1290   */\n            tag_83:\n                /* \"#utility.yul\":1282:1283   */\n              0x00\n                /* \"#utility.yul\":1279:1280   */\n              dup1\n                /* \"#utility.yul\":1272:1284   */\n              revert\n                /* \"#utility.yul\":1296:1422   */\n            tag_84:\n                /* \"#utility.yul\":1333:1340   */\n              0x00\n                /* \"#utility.yul\":1373:1415   */\n              0xffffffffffffffffffffffffffffffffffffffff\n                /* \"#utility.yul\":1366:1371   */\n              dup3\n                /* \"#utility.yul\":1362:1416   */\n              and\n                /* \"#utility.yul\":1351:1416   */\n              swap1\n              pop\n                /* \"#utility.yul\":1296:1422   */\n              swap2\n              swap1\n              pop\n              jump\t// out\n                /* \"#utility.yul\":1428:1524   */\n            tag_85:\n                /* \"#utility.yul\":1465:1472   */\n              0x00\n                /* \"#utility.yul\":1494:1518   */\n              tag_146\n                /* \"#utility.yul\":1512:1517   */\n              dup3\n                /* \"#utility.yul\":1494:1518   */\n              tag_84\n              jump\t// in\n            tag_146:\n                /* \"#utility.yul\":1483:1518   */\n              swap1\n              pop\n                /* \"#utility.yul\":1428:1524   */\n              swap2\n              swap1\n              pop\n              jump\t// out\n                /* \"#utility.yul\":1530:1652   */\n            tag_86:\n                /* \"#utility.yul\":1603:1627   */\n              tag_148\n                /* \"#utility.yul\":1621:1626   */\n              dup2\n                /* \"#utility.yul\":1603:1627   */\n              tag_85\n              jump\t// in\n            tag_148:\n                /* \"#utility.yul\":1596:1601   */\n              dup2\n                /* \"#utility.yul\":1593:1628   */\n              eq\n                /* \"#utility.yul\":1583:1646   */\n              tag_149\n              jumpi\n                /* \"#utility.yul\":1642:1643   */\n              0x00\n                /* \"#utility.yul\":1639:1640   */\n              dup1\n                /* \"#utility.yul\":1632:1644   */\n              revert\n                /* \"#utility.yul\":1583:1646   */\n            tag_149:\n                /* \"#utility.yul\":1530:1652   */\n              pop\n              jump\t// out\n                /* \"#utility.yul\":1658:1797   */\n            tag_87:\n                /* \"#utility.yul\":1704:1709   */\n              0x00\n                /* \"#utility.yul\":1742:1748   */\n              dup2\n                /* \"#utility.yul\":1729:1749   */\n              calldataload\n                /* \"#utility.yul\":1720:1749   */\n              swap1\n              pop\n                /* \"#utility.yul\":1758:1791   */\n              tag_151\n                /* \"#utility.yul\":1785:1790   */\n              dup2\n                /* \"#utility.yul\":1758:1791   */\n              tag_86\n              jump\t// in\n            tag_151:\n                /* \"#utility.yul\":1658:1797   */\n              swap3\n              swap2\n              pop\n              pop\n              jump\t// out\n                /* \"#utility.yul\":1803:1880   */\n            tag_88:\n                /* \"#utility.yul\":1840:1847   */\n              0x00\n                /* \"#utility.yul\":1869:1874   */\n              dup2\n                /* \"#utility.yul\":1858:1874   */\n              swap1\n              pop\n                /* \"#utility.yul\":1803:1880   */\n              swap2\n              swap1\n              pop\n              jump\t// out\n                /* \"#utility.yul\":1886:2008   */\n            tag_89:\n                /* \"#utility.yul\":1959:1983   */\n              tag_154\n                /* \"#utility.yul\":1977:1982   */\n              dup2\n                /* \"#utility.yul\":1959:1983   */\n              tag_88\n              jump\t// in\n            tag_154:\n                /* \"#utility.yul\":1952:1957   */\n              dup2\n                /* \"#utility.yul\":1949:1984   */\n              eq\n                /* \"#utility.yul\":1939:2002   */\n              tag_155\n              jumpi\n                /* \"#utility.yul\":1998:1999   */\n              0x00\n                /* \"#utility.yul\":1995:1996   */\n              dup1\n                /* \"#utility.yul\":1988:2000   */\n              revert\n                /* \"#utility.yul\":1939:2002   */\n            tag_155:\n                /* \"#utility.yul\":1886:2008   */\n              pop\n              jump\t// out\n                /* \"#utility.yul\":2014:2153   */\n            tag_90:\n                /* \"#utility.yul\":2060:2065   */\n              0x00\n                /* \"#utility.yul\":2098:2104   */\n              dup2\n                /* \"#utility.yul\":2085:2105   */\n              calldataload\n                /* \"#utility.yul\":2076:2105   */\n              swap1\n              pop\n                /* \"#utility.yul\":2114:2147   */\n              tag_157\n                /* \"#utility.yul\":2141:2146   */\n              dup2\n                /* \"#utility.yul\":2114:2147   */\n              tag_89\n              jump\t// in\n            tag_157:\n                /* \"#utility.yul\":2014:2153   */\n              swap3\n              swap2\n              pop\n              pop\n              jump\t// out\n                /* \"#utility.yul\":2159:2276   */\n            tag_91:\n                /* \"#utility.yul\":2268:2269   */\n              0x00\n                /* \"#utility.yul\":2265:2266   */\n              dup1\n                /* \"#utility.yul\":2258:2270   */\n              revert\n                /* \"#utility.yul\":2282:2399   */\n            tag_92:\n                /* \"#utility.yul\":2391:2392   */\n              0x00\n                /* \"#utility.yul\":2388:2389   */\n              dup1\n                /* \"#utility.yul\":2381:2393   */\n              revert\n                /* \"#utility.yul\":2405:2712   */\n            tag_93:\n                /* \"#utility.yul\":2466:2470   */\n              0x00\n                /* \"#utility.yul\":2556:2574   */\n              0xffffffffffffffff\n                /* \"#utility.yul\":2548:2554   */\n              dup3\n                /* \"#utility.yul\":2545:2575   */\n              gt\n                /* \"#utility.yul\":2542:2598   */\n              iszero\n              tag_161\n              jumpi\n                /* \"#utility.yul\":2578:2596   */\n              tag_162\n              tag_80\n              jump\t// in\n            tag_162:\n                /* \"#utility.yul\":2542:2598   */\n            tag_161:\n                /* \"#utility.yul\":2616:2645   */\n              tag_163\n                /* \"#utility.yul\":2638:2644   */\n              dup3\n                /* \"#utility.yul\":2616:2645   */\n              tag_79\n              jump\t// in\n            tag_163:\n                /* \"#utility.yul\":2608:2645   */\n              swap1\n              pop\n                /* \"#utility.yul\":2700:2704   */\n              0x20\n                /* \"#utility.yul\":2694:2698   */\n              dup2\n                /* \"#utility.yul\":2690:2705   */\n              add\n                /* \"#utility.yul\":2682:2705   */\n              swap1\n              pop\n                /* \"#utility.yul\":2405:2712   */\n              swap2\n              swap1\n              pop\n              jump\t// out\n                /* \"#utility.yul\":2718:2864   */\n            tag_94:\n                /* \"#utility.yul\":2815:2821   */\n              dup3\n                /* \"#utility.yul\":2810:2813   */\n              dup2\n                /* \"#utility.yul\":2805:2808   */\n              dup4\n                /* \"#utility.yul\":2792:2822   */\n              calldatacopy\n                /* \"#utility.yul\":2856:2857   */\n              0x00\n                /* \"#utility.yul\":2847:2853   */\n              dup4\n                /* \"#utility.yul\":2842:2845   */\n              dup4\n                /* \"#utility.yul\":2838:2854   */\n              add\n                /* \"#utility.yul\":2831:2858   */\n              mstore\n                /* \"#utility.yul\":2718:2864   */\n              pop\n              pop\n              pop\n              jump\t// out\n                /* \"#utility.yul\":2870:3293   */\n            tag_95:\n                /* \"#utility.yul\":2947:2952   */\n              0x00\n                /* \"#utility.yul\":2972:3037   */\n              tag_166\n                /* \"#utility.yul\":2988:3036   */\n              tag_167\n                /* \"#utility.yul\":3029:3035   */\n              dup5\n                /* \"#utility.yul\":2988:3036   */\n              tag_93\n              jump\t// in\n            tag_167:\n                /* \"#utility.yul\":2972:3037   */\n              tag_82\n              jump\t// in\n            tag_166:\n                /* \"#utility.yul\":2963:3037   */\n              swap1\n              pop\n                /* \"#utility.yul\":3060:3066   */\n              dup3\n                /* \"#utility.yul\":3053:3058   */\n              dup2\n                /* \"#utility.yul\":3046:3067   */\n              mstore\n                /* \"#utility.yul\":3098:3102   */\n              0x20\n                /* \"#utility.yul\":3091:3096   */\n              dup2\n                /* \"#utility.yul\":3087:3103   */\n              add\n                /* \"#utility.yul\":3136:3139   */\n              dup5\n                /* \"#utility.yul\":3127:3133   */\n              dup5\n                /* \"#utility.yul\":3122:3125   */\n              dup5\n                /* \"#utility.yul\":3118:3134   */\n              add\n                /* \"#utility.yul\":3115:3140   */\n              gt\n                /* \"#utility.yul\":3112:3224   */\n              iszero\n              tag_168\n              jumpi\n                /* \"#utility.yul\":3143:3222   */\n              tag_169\n              tag_92\n              jump\t// in\n            tag_169:\n                /* \"#utility.yul\":3112:3224   */\n            tag_168:\n                /* \"#utility.yul\":3233:3287   */\n              tag_170\n                /* \"#utility.yul\":3280:3286   */\n              dup5\n                /* \"#utility.yul\":3275:3278   */\n              dup3\n                /* \"#utility.yul\":3270:3273   */\n              dup6\n                /* \"#utility.yul\":3233:3287   */\n              tag_94\n              jump\t// in\n            tag_170:\n                /* \"#utility.yul\":2953:3293   */\n              pop\n                /* \"#utility.yul\":2870:3293   */\n              swap4\n              swap3\n              pop\n              pop\n              pop\n              jump\t// out\n                /* \"#utility.yul\":3312:3650   */\n            tag_96:\n                /* \"#utility.yul\":3367:3372   */\n              0x00\n                /* \"#utility.yul\":3416:3419   */\n              dup3\n                /* \"#utility.yul\":3409:3413   */\n              0x1f\n                /* \"#utility.yul\":3401:3407   */\n              dup4\n                /* \"#utility.yul\":3397:3414   */\n              add\n                /* \"#utility.yul\":3393:3420   */\n              slt\n                /* \"#utility.yul\":3383:3505   */\n              tag_172\n              jumpi\n                /* \"#utility.yul\":3424:3503   */\n              tag_173\n              tag_91\n              jump\t// in\n            tag_173:\n                /* \"#utility.yul\":3383:3505   */\n            tag_172:\n                /* \"#utility.yul\":3541:3547   */\n              dup2\n                /* \"#utility.yul\":3528:3548   */\n              calldataload\n                /* \"#utility.yul\":3566:3644   */\n              tag_174\n                /* \"#utility.yul\":3640:3643   */\n              dup5\n                /* \"#utility.yul\":3632:3638   */\n              dup3\n                /* \"#utility.yul\":3625:3629   */\n              0x20\n                /* \"#utility.yul\":3617:3623   */\n              dup7\n                /* \"#utility.yul\":3613:3630   */\n              add\n                /* \"#utility.yul\":3566:3644   */\n              tag_95\n              jump\t// in\n            tag_174:\n                /* \"#utility.yul\":3557:3644   */\n              swap2\n              pop\n                /* \"#utility.yul\":3373:3650   */\n              pop\n                /* \"#utility.yul\":3312:3650   */\n              swap3\n              swap2\n              pop\n              pop\n              jump\t// out\n                /* \"#utility.yul\":3692:5275   */\n            tag_97:\n                /* \"#utility.yul\":3768:3773   */\n              0x00\n                /* \"#utility.yul\":3812:3816   */\n              0xe0\n                /* \"#utility.yul\":3800:3809   */\n              dup3\n                /* \"#utility.yul\":3795:3798   */\n              dup5\n                /* \"#utility.yul\":3791:3810   */\n              sub\n                /* \"#utility.yul\":3787:3817   */\n              slt\n                /* \"#utility.yul\":3784:3901   */\n              iszero\n              tag_176\n              jumpi\n                /* \"#utility.yul\":3820:3899   */\n              tag_177\n              tag_78\n              jump\t// in\n            tag_177:\n                /* \"#utility.yul\":3784:3901   */\n            tag_176:\n                /* \"#utility.yul\":3919:3940   */\n              tag_178\n                /* \"#utility.yul\":3935:3939   */\n              0xe0\n                /* \"#utility.yul\":3919:3940   */\n              tag_82\n              jump\t// in\n            tag_178:\n                /* \"#utility.yul\":3910:3940   */\n              swap1\n              pop\n                /* \"#utility.yul\":4001:4002   */\n              0x00\n                /* \"#utility.yul\":4041:4090   */\n              tag_179\n                /* \"#utility.yul\":4086:4089   */\n              dup5\n                /* \"#utility.yul\":4077:4083   */\n              dup3\n                /* \"#utility.yul\":4066:4075   */\n              dup6\n                /* \"#utility.yul\":4062:4084   */\n              add\n                /* \"#utility.yul\":4041:4090   */\n              tag_87\n              jump\t// in\n            tag_179:\n                /* \"#utility.yul\":4034:4038   */\n              0x00\n                /* \"#utility.yul\":4027:4032   */\n              dup4\n                /* \"#utility.yul\":4023:4039   */\n              add\n                /* \"#utility.yul\":4016:4091   */\n              mstore\n                /* \"#utility.yul\":3950:4102   */\n              pop\n                /* \"#utility.yul\":4167:4169   */\n              0x20\n                /* \"#utility.yul\":4208:4257   */\n              tag_180\n                /* \"#utility.yul\":4253:4256   */\n              dup5\n                /* \"#utility.yul\":4244:4250   */\n              dup3\n                /* \"#utility.yul\":4233:4242   */\n              dup6\n                /* \"#utility.yul\":4229:4251   */\n              add\n                /* \"#utility.yul\":4208:4257   */\n              tag_87\n              jump\t// in\n            tag_180:\n                /* \"#utility.yul\":4201:4205   */\n              0x20\n                /* \"#utility.yul\":4194:4199   */\n              dup4\n                /* \"#utility.yul\":4190:4206   */\n              add\n                /* \"#utility.yul\":4183:4258   */\n              mstore\n                /* \"#utility.yul\":4112:4269   */\n              pop\n                /* \"#utility.yul\":4331:4333   */\n              0x40\n                /* \"#utility.yul\":4372:4421   */\n              tag_181\n                /* \"#utility.yul\":4417:4420   */\n              dup5\n                /* \"#utility.yul\":4408:4414   */\n              dup3\n                /* \"#utility.yul\":4397:4406   */\n              dup6\n                /* \"#utility.yul\":4393:4415   */\n              add\n                /* \"#utility.yul\":4372:4421   */\n              tag_90\n              jump\t// in\n            tag_181:\n                /* \"#utility.yul\":4365:4369   */\n              0x40\n                /* \"#utility.yul\":4358:4363   */\n              dup4\n                /* \"#utility.yul\":4354:4370   */\n              add\n                /* \"#utility.yul\":4347:4422   */\n              mstore\n                /* \"#utility.yul\":4279:4433   */\n              pop\n                /* \"#utility.yul\":4493:4495   */\n              0x60\n                /* \"#utility.yul\":4534:4583   */\n              tag_182\n                /* \"#utility.yul\":4579:4582   */\n              dup5\n                /* \"#utility.yul\":4570:4576   */\n              dup3\n                /* \"#utility.yul\":4559:4568   */\n              dup6\n                /* \"#utility.yul\":4555:4577   */\n              add\n                /* \"#utility.yul\":4534:4583   */\n              tag_90\n              jump\t// in\n            tag_182:\n                /* \"#utility.yul\":4527:4531   */\n              0x60\n                /* \"#utility.yul\":4520:4525   */\n              dup4\n                /* \"#utility.yul\":4516:4532   */\n              add\n                /* \"#utility.yul\":4509:4584   */\n              mstore\n                /* \"#utility.yul\":4443:4595   */\n              pop\n                /* \"#utility.yul\":4687:4690   */\n              0x80\n                /* \"#utility.yul\":4676:4685   */\n              dup3\n                /* \"#utility.yul\":4672:4691   */\n              add\n                /* \"#utility.yul\":4659:4692   */\n              calldataload\n                /* \"#utility.yul\":4719:4737   */\n              0xffffffffffffffff\n                /* \"#utility.yul\":4711:4717   */\n              dup2\n                /* \"#utility.yul\":4708:4738   */\n              gt\n                /* \"#utility.yul\":4705:4822   */\n              iszero\n              tag_183\n              jumpi\n                /* \"#utility.yul\":4741:4820   */\n              tag_184\n              tag_83\n              jump\t// in\n            tag_184:\n                /* \"#utility.yul\":4705:4822   */\n            tag_183:\n                /* \"#utility.yul\":4861:4919   */\n              tag_185\n                /* \"#utility.yul\":4915:4918   */\n              dup5\n                /* \"#utility.yul\":4906:4912   */\n              dup3\n                /* \"#utility.yul\":4895:4904   */\n              dup6\n                /* \"#utility.yul\":4891:4913   */\n              add\n                /* \"#utility.yul\":4861:4919   */\n              tag_96\n              jump\t// in\n            tag_185:\n                /* \"#utility.yul\":4854:4858   */\n              0x80\n                /* \"#utility.yul\":4847:4852   */\n              dup4\n                /* \"#utility.yul\":4843:4859   */\n              add\n                /* \"#utility.yul\":4836:4920   */\n              mstore\n                /* \"#utility.yul\":4605:4931   */\n              pop\n                /* \"#utility.yul\":5000:5003   */\n              0xa0\n                /* \"#utility.yul\":5042:5091   */\n              tag_186\n                /* \"#utility.yul\":5087:5090   */\n              dup5\n                /* \"#utility.yul\":5078:5084   */\n              dup3\n                /* \"#utility.yul\":5067:5076   */\n              dup6\n                /* \"#utility.yul\":5063:5085   */\n              add\n                /* \"#utility.yul\":5042:5091   */\n              tag_90\n              jump\t// in\n            tag_186:\n                /* \"#utility.yul\":5035:5039   */\n              0xa0\n                /* \"#utility.yul\":5028:5033   */\n              dup4\n                /* \"#utility.yul\":5024:5040   */\n              add\n                /* \"#utility.yul\":5017:5092   */\n              mstore\n                /* \"#utility.yul\":4941:5103   */\n              pop\n                /* \"#utility.yul\":5165:5168   */\n              0xc0\n                /* \"#utility.yul\":5207:5256   */\n              tag_187\n                /* \"#utility.yul\":5252:5255   */\n              dup5\n                /* \"#utility.yul\":5243:5249   */\n              dup3\n                /* \"#utility.yul\":5232:5241   */\n              dup6\n                /* \"#utility.yul\":5228:5250   */\n              add\n                /* \"#utility.yul\":5207:5256   */\n              tag_90\n              jump\t// in\n            tag_187:\n                /* \"#utility.yul\":5200:5204   */\n              0xc0\n                /* \"#utility.yul\":5193:5198   */\n              dup4\n                /* \"#utility.yul\":5189:5205   */\n              add\n                /* \"#utility.yul\":5182:5257   */\n              mstore\n                /* \"#utility.yul\":5113:5268   */\n              pop\n                /* \"#utility.yul\":3692:5275   */\n              swap3\n              swap2\n              pop\n              pop\n              jump\t// out\n                /* \"#utility.yul\":5281:5969   */\n            tag_9:\n                /* \"#utility.yul\":5376:5382   */\n              0x00\n                /* \"#utility.yul\":5384:5390   */\n              dup1\n                /* \"#utility.yul\":5433:5435   */\n              0x40\n                /* \"#utility.yul\":5421:5430   */\n              dup4\n                /* \"#utility.yul\":5412:5419   */\n              dup6\n                /* \"#utility.yul\":5408:5431   */\n              sub\n                /* \"#utility.yul\":5404:5436   */\n              slt\n                /* \"#utility.yul\":5401:5520   */\n              iszero\n              tag_189\n              jumpi\n                /* \"#utility.yul\":5439:5518   */\n              tag_190\n              tag_76\n              jump\t// in\n            tag_190:\n                /* \"#utility.yul\":5401:5520   */\n            tag_189:\n                /* \"#utility.yul\":5587:5588   */\n              0x00\n                /* \"#utility.yul\":5576:5585   */\n              dup4\n                /* \"#utility.yul\":5572:5589   */\n              add\n                /* \"#utility.yul\":5559:5590   */\n              calldataload\n                /* \"#utility.yul\":5617:5635   */\n              0xffffffffffffffff\n                /* \"#utility.yul\":5609:5615   */\n              dup2\n                /* \"#utility.yul\":5606:5636   */\n              gt\n                /* \"#utility.yul\":5603:5720   */\n              iszero\n              tag_191\n              jumpi\n                /* \"#utility.yul\":5639:5718   */\n              tag_192\n              tag_77\n              jump\t// in\n            tag_192:\n                /* \"#utility.yul\":5603:5720   */\n            tag_191:\n                /* \"#utility.yul\":5744:5824   */\n              tag_193\n                /* \"#utility.yul\":5816:5823   */\n              dup6\n                /* \"#utility.yul\":5807:5813   */\n              dup3\n                /* \"#utility.yul\":5796:5805   */\n              dup7\n                /* \"#utility.yul\":5792:5814   */\n              add\n                /* \"#utility.yul\":5744:5824   */\n              tag_97\n              jump\t// in\n            tag_193:\n                /* \"#utility.yul\":5734:5824   */\n              swap3\n              pop\n                /* \"#utility.yul\":5530:5834   */\n              pop\n                /* \"#utility.yul\":5873:5875   */\n              0x20\n                /* \"#utility.yul\":5899:5952   */\n              tag_194\n                /* \"#utility.yul\":5944:5951   */\n              dup6\n                /* \"#utility.yul\":5935:5941   */\n              dup3\n                /* \"#utility.yul\":5924:5933   */\n              dup7\n                /* \"#utility.yul\":5920:5942   */\n              add\n                /* \"#utility.yul\":5899:5952   */\n              tag_90\n              jump\t// in\n            tag_194:\n                /* \"#utility.yul\":5889:5952   */\n              swap2\n              pop\n                /* \"#utility.yul\":5844:5962   */\n              pop\n                /* \"#utility.yul\":5281:5969   */\n              swap3\n              pop\n              swap3\n              swap1\n              pop\n              jump\t// out\n                /* \"#utility.yul\":5975:6065   */\n            tag_98:\n                /* \"#utility.yul\":6009:6016   */\n              0x00\n                /* \"#utility.yul\":6052:6057   */\n              dup2\n                /* \"#utility.yul\":6045:6058   */\n              iszero\n                /* \"#utility.yul\":6038:6059   */\n              iszero\n                /* \"#utility.yul\":6027:6059   */\n              swap1\n              pop\n                /* \"#utility.yul\":5975:6065   */\n              swap2\n              swap1\n              pop\n              jump\t// out\n                /* \"#utility.yul\":6071:6180   */\n            tag_99:\n                /* \"#utility.yul\":6152:6173   */\n              tag_197\n                /* \"#utility.yul\":6167:6172   */\n              dup2\n                /* \"#utility.yul\":6152:6173   */\n              tag_98\n              jump\t// in\n            tag_197:\n                /* \"#utility.yul\":6147:6150   */\n              dup3\n                /* \"#utility.yul\":6140:6174   */\n              mstore\n                /* \"#utility.yul\":6071:6180   */\n              pop\n              pop\n              jump\t// out\n                /* \"#utility.yul\":6186:6396   */\n            tag_12:\n                /* \"#utility.yul\":6273:6277   */\n              0x00\n                /* \"#utility.yul\":6311:6313   */\n              0x20\n                /* \"#utility.yul\":6300:6309   */\n              dup3\n                /* \"#utility.yul\":6296:6314   */\n              add\n                /* \"#utility.yul\":6288:6314   */\n              swap1\n              pop\n                /* \"#utility.yul\":6324:6389   */\n              tag_199\n                /* \"#utility.yul\":6386:6387   */\n              0x00\n                /* \"#utility.yul\":6375:6384   */\n              dup4\n                /* \"#utility.yul\":6371:6388   */\n              add\n                /* \"#utility.yul\":6362:6368   */\n              dup5\n                /* \"#utility.yul\":6324:6389   */\n              tag_99\n              jump\t// in\n            tag_199:\n                /* \"#utility.yul\":6186:6396   */\n              swap3\n              swap2\n              pop\n              pop\n              jump\t// out\n                /* \"#utility.yul\":6402:6479   */\n            tag_100:\n                /* \"#utility.yul\":6439:6446   */\n              0x00\n                /* \"#utility.yul\":6468:6473   */\n              dup2\n                /* \"#utility.yul\":6457:6473   */\n              swap1\n              pop\n                /* \"#utility.yul\":6402:6479   */\n              swap2\n              swap1\n              pop\n              jump\t// out\n                /* \"#utility.yul\":6485:6607   */\n            tag_101:\n                /* \"#utility.yul\":6558:6582   */\n              tag_202\n                /* \"#utility.yul\":6576:6581   */\n              dup2\n                /* \"#utility.yul\":6558:6582   */\n              tag_100\n              jump\t// in\n            tag_202:\n                /* \"#utility.yul\":6551:6556   */\n              dup2\n                /* \"#utility.yul\":6548:6583   */\n              eq\n                /* \"#utility.yul\":6538:6601   */\n              tag_203\n              jumpi\n                /* \"#utility.yul\":6597:6598   */\n              0x00\n                /* \"#utility.yul\":6594:6595   */\n              dup1\n                /* \"#utility.yul\":6587:6599   */\n              revert\n                /* \"#utility.yul\":6538:6601   */\n            tag_203:\n                /* \"#utility.yul\":6485:6607   */\n              pop\n              jump\t// out\n                /* \"#utility.yul\":6613:6752   */\n            tag_102:\n                /* \"#utility.yul\":6659:6664   */\n              0x00\n                /* \"#utility.yul\":6697:6703   */\n              dup2\n                /* \"#utility.yul\":6684:6704   */\n              calldataload\n                /* \"#utility.yul\":6675:6704   */\n              swap1\n              pop\n                /* \"#utility.yul\":6713:6746   */\n              tag_205\n                /* \"#utility.yul\":6740:6745   */\n              dup2\n                /* \"#utility.yul\":6713:6746   */\n              tag_101\n              jump\t// in\n            tag_205:\n                /* \"#utility.yul\":6613:6752   */\n              swap3\n              swap2\n              pop\n              pop\n              jump\t// out\n                /* \"#utility.yul\":6758:7087   */\n            tag_15:\n                /* \"#utility.yul\":6817:6823   */\n              0x00\n                /* \"#utility.yul\":6866:6868   */\n              0x20\n                /* \"#utility.yul\":6854:6863   */\n              dup3\n                /* \"#utility.yul\":6845:6852   */\n              dup5\n                /* \"#utility.yul\":6841:6864   */\n              sub\n                /* \"#utility.yul\":6837:6869   */\n              slt\n                /* \"#utility.yul\":6834:6953   */\n              iszero\n              tag_207\n              jumpi\n                /* \"#utility.yul\":6872:6951   */\n              tag_208\n              tag_76\n              jump\t// in\n            tag_208:\n                /* \"#utility.yul\":6834:6953   */\n            tag_207:\n                /* \"#utility.yul\":6992:6993   */\n              0x00\n                /* \"#utility.yul\":7017:7070   */\n              tag_209\n                /* \"#utility.yul\":7062:7069   */\n              dup5\n                /* \"#utility.yul\":7053:7059   */\n              dup3\n                /* \"#utility.yul\":7042:7051   */\n              dup6\n                /* \"#utility.yul\":7038:7060   */\n              add\n                /* \"#utility.yul\":7017:7070   */\n              tag_102\n              jump\t// in\n            tag_209:\n                /* \"#utility.yul\":7007:7070   */\n              swap2\n              pop\n                /* \"#utility.yul\":6963:7080   */\n              pop\n                /* \"#utility.yul\":6758:7087   */\n              swap3\n              swap2\n              pop\n              pop\n              jump\t// out\n                /* \"#utility.yul\":7093:7636   */\n            tag_20:\n                /* \"#utility.yul\":7179:7185   */\n              0x00\n                /* \"#utility.yul\":7228:7230   */\n              0x20\n                /* \"#utility.yul\":7216:7225   */\n              dup3\n                /* \"#utility.yul\":7207:7214   */\n              dup5\n                /* \"#utility.yul\":7203:7226   */\n              sub\n                /* \"#utility.yul\":7199:7231   */\n              slt\n                /* \"#utility.yul\":7196:7315   */\n              iszero\n              tag_211\n              jumpi\n                /* \"#utility.yul\":7234:7313   */\n              tag_212\n              tag_76\n              jump\t// in\n            tag_212:\n                /* \"#utility.yul\":7196:7315   */\n            tag_211:\n                /* \"#utility.yul\":7382:7383   */\n              0x00\n                /* \"#utility.yul\":7371:7380   */\n              dup3\n                /* \"#utility.yul\":7367:7384   */\n              add\n                /* \"#utility.yul\":7354:7385   */\n              calldataload\n                /* \"#utility.yul\":7412:7430   */\n              0xffffffffffffffff\n                /* \"#utility.yul\":7404:7410   */\n              dup2\n                /* \"#utility.yul\":7401:7431   */\n              gt\n                /* \"#utility.yul\":7398:7515   */\n              iszero\n              tag_213\n              jumpi\n                /* \"#utility.yul\":7434:7513   */\n              tag_214\n              tag_77\n              jump\t// in\n            tag_214:\n                /* \"#utility.yul\":7398:7515   */\n            tag_213:\n                /* \"#utility.yul\":7539:7619   */\n              tag_215\n                /* \"#utility.yul\":7611:7618   */\n              dup5\n                /* \"#utility.yul\":7602:7608   */\n              dup3\n                /* \"#utility.yul\":7591:7600   */\n              dup6\n                /* \"#utility.yul\":7587:7609   */\n              add\n                /* \"#utility.yul\":7539:7619   */\n              tag_97\n              jump\t// in\n            tag_215:\n                /* \"#utility.yul\":7529:7619   */\n              swap2\n              pop\n                /* \"#utility.yul\":7325:7629   */\n              pop\n                /* \"#utility.yul\":7093:7636   */\n              swap3\n              swap2\n              pop\n              pop\n              jump\t// out\n                /* \"#utility.yul\":7642:7736   */\n            tag_103:\n                /* \"#utility.yul\":7675:7683   */\n              0x00\n                /* \"#utility.yul\":7723:7728   */\n              dup2\n                /* \"#utility.yul\":7719:7721   */\n              0x60\n                /* \"#utility.yul\":7715:7729   */\n              shl\n                /* \"#utility.yul\":7694:7729   */\n              swap1\n              pop\n                /* \"#utility.yul\":7642:7736   */\n              swap2\n              swap1\n              pop\n              jump\t// out\n                /* \"#utility.yul\":7742:7836   */\n            tag_104:\n                /* \"#utility.yul\":7781:7788   */\n              0x00\n                /* \"#utility.yul\":7810:7830   */\n              tag_218\n                /* \"#utility.yul\":7824:7829   */\n              dup3\n                /* \"#utility.yul\":7810:7830   */\n              tag_103\n              jump\t// in\n            tag_218:\n                /* \"#utility.yul\":7799:7830   */\n              swap1\n              pop\n                /* \"#utility.yul\":7742:7836   */\n              swap2\n              swap1\n              pop\n              jump\t// out\n                /* \"#utility.yul\":7842:7942   */\n            tag_105:\n                /* \"#utility.yul\":7881:7888   */\n              0x00\n                /* \"#utility.yul\":7910:7936   */\n              tag_220\n                /* \"#utility.yul\":7930:7935   */\n              dup3\n                /* \"#utility.yul\":7910:7936   */\n              tag_104\n              jump\t// in\n            tag_220:\n                /* \"#utility.yul\":7899:7936   */\n              swap1\n              pop\n                /* \"#utility.yul\":7842:7942   */\n              swap2\n              swap1\n              pop\n              jump\t// out\n                /* \"#utility.yul\":7948:8105   */\n            tag_106:\n                /* \"#utility.yul\":8053:8098   */\n              tag_222\n                /* \"#utility.yul\":8073:8097   */\n              tag_223\n                /* \"#utility.yul\":8091:8096   */\n              dup3\n                /* \"#utility.yul\":8073:8097   */\n              tag_85\n              jump\t// in\n            tag_223:\n                /* \"#utility.yul\":8053:8098   */\n              tag_105\n              jump\t// in\n            tag_222:\n                /* \"#utility.yul\":8048:8051   */\n              dup3\n                /* \"#utility.yul\":8041:8099   */\n              mstore\n                /* \"#utility.yul\":7948:8105   */\n              pop\n              pop\n              jump\t// out\n                /* \"#utility.yul\":8111:8190   */\n            tag_107:\n                /* \"#utility.yul\":8150:8157   */\n              0x00\n                /* \"#utility.yul\":8179:8184   */\n              dup2\n                /* \"#utility.yul\":8168:8184   */\n              swap1\n              pop\n                /* \"#utility.yul\":8111:8190   */\n              swap2\n              swap1\n              pop\n              jump\t// out\n                /* \"#utility.yul\":8196:8353   */\n            tag_108:\n                /* \"#utility.yul\":8301:8346   */\n              tag_226\n                /* \"#utility.yul\":8321:8345   */\n              tag_227\n                /* \"#utility.yul\":8339:8344   */\n              dup3\n                /* \"#utility.yul\":8321:8345   */\n              tag_88\n              jump\t// in\n            tag_227:\n                /* \"#utility.yul\":8301:8346   */\n              tag_107\n              jump\t// in\n            tag_226:\n                /* \"#utility.yul\":8296:8299   */\n              dup3\n                /* \"#utility.yul\":8289:8347   */\n              mstore\n                /* \"#utility.yul\":8196:8353   */\n              pop\n              pop\n              jump\t// out\n                /* \"#utility.yul\":8359:8457   */\n            tag_109:\n                /* \"#utility.yul\":8410:8416   */\n              0x00\n                /* \"#utility.yul\":8444:8449   */\n              dup2\n                /* \"#utility.yul\":8438:8450   */\n              mload\n                /* \"#utility.yul\":8428:8450   */\n              swap1\n              pop\n                /* \"#utility.yul\":8359:8457   */\n              swap2\n              swap1\n              pop\n              jump\t// out\n                /* \"#utility.yul\":8463:8610   */\n            tag_110:\n                /* \"#utility.yul\":8564:8575   */\n              0x00\n                /* \"#utility.yul\":8601:8604   */\n              dup2\n                /* \"#utility.yul\":8586:8604   */\n              swap1\n              pop\n                /* \"#utility.yul\":8463:8610   */\n              swap3\n              swap2\n              pop\n              pop\n              jump\t// out\n                /* \"#utility.yul\":8616:8862   */\n            tag_111:\n                /* \"#utility.yul\":8697:8698   */\n              0x00\n                /* \"#utility.yul\":8707:8820   */\n            tag_231:\n                /* \"#utility.yul\":8721:8727   */\n              dup4\n                /* \"#utility.yul\":8718:8719   */\n              dup2\n                /* \"#utility.yul\":8715:8728   */\n              lt\n                /* \"#utility.yul\":8707:8820   */\n              iszero\n              tag_233\n              jumpi\n                /* \"#utility.yul\":8806:8807   */\n              dup1\n                /* \"#utility.yul\":8801:8804   */\n              dup3\n                /* \"#utility.yul\":8797:8808   */\n              add\n                /* \"#utility.yul\":8791:8809   */\n              mload\n                /* \"#utility.yul\":8787:8788   */\n              dup2\n                /* \"#utility.yul\":8782:8785   */\n              dup5\n                /* \"#utility.yul\":8778:8789   */\n              add\n                /* \"#utility.yul\":8771:8810   */\n              mstore\n                /* \"#utility.yul\":8743:8745   */\n              0x20\n                /* \"#utility.yul\":8740:8741   */\n              dup2\n                /* \"#utility.yul\":8736:8746   */\n              add\n                /* \"#utility.yul\":8731:8746   */\n              swap1\n              pop\n                /* \"#utility.yul\":8707:8820   */\n              jump(tag_231)\n            tag_233:\n                /* \"#utility.yul\":8854:8855   */\n              0x00\n                /* \"#utility.yul\":8845:8851   */\n              dup5\n                /* \"#utility.yul\":8840:8843   */\n              dup5\n                /* \"#utility.yul\":8836:8852   */\n              add\n                /* \"#utility.yul\":8829:8856   */\n              mstore\n                /* \"#utility.yul\":8678:8862   */\n              pop\n                /* \"#utility.yul\":8616:8862   */\n              pop\n              pop\n              pop\n              jump\t// out\n                /* \"#utility.yul\":8868:9254   */\n            tag_112:\n                /* \"#utility.yul\":8972:8975   */\n              0x00\n                /* \"#utility.yul\":9000:9038   */\n              tag_235\n                /* \"#utility.yul\":9032:9037   */\n              dup3\n                /* \"#utility.yul\":9000:9038   */\n              tag_109\n              jump\t// in\n            tag_235:\n                /* \"#utility.yul\":9054:9142   */\n              tag_236\n                /* \"#utility.yul\":9135:9141   */\n              dup2\n                /* \"#utility.yul\":9130:9133   */\n              dup6\n                /* \"#utility.yul\":9054:9142   */\n              tag_110\n              jump\t// in\n            tag_236:\n                /* \"#utility.yul\":9047:9142   */\n              swap4\n              pop\n                /* \"#utility.yul\":9151:9216   */\n              tag_237\n                /* \"#utility.yul\":9209:9215   */\n              dup2\n                /* \"#utility.yul\":9204:9207   */\n              dup6\n                /* \"#utility.yul\":9197:9201   */\n              0x20\n                /* \"#utility.yul\":9190:9195   */\n              dup7\n                /* \"#utility.yul\":9186:9202   */\n              add\n                /* \"#utility.yul\":9151:9216   */\n              tag_111\n              jump\t// in\n            tag_237:\n                /* \"#utility.yul\":9241:9247   */\n              dup1\n                /* \"#utility.yul\":9236:9239   */\n              dup5\n                /* \"#utility.yul\":9232:9248   */\n              add\n                /* \"#utility.yul\":9225:9248   */\n              swap2\n              pop\n                /* \"#utility.yul\":8976:9254   */\n              pop\n                /* \"#utility.yul\":8868:9254   */\n              swap3\n              swap2\n              pop\n              pop\n              jump\t// out\n                /* \"#utility.yul\":9260:10095   */\n            tag_28:\n                /* \"#utility.yul\":9502:9505   */\n              0x00\n                /* \"#utility.yul\":9517:9592   */\n              tag_239\n                /* \"#utility.yul\":9588:9591   */\n              dup3\n                /* \"#utility.yul\":9579:9585   */\n              dup9\n                /* \"#utility.yul\":9517:9592   */\n              tag_106\n              jump\t// in\n            tag_239:\n                /* \"#utility.yul\":9617:9619   */\n              0x14\n                /* \"#utility.yul\":9612:9615   */\n              dup3\n                /* \"#utility.yul\":9608:9620   */\n              add\n                /* \"#utility.yul\":9601:9620   */\n              swap2\n              pop\n                /* \"#utility.yul\":9630:9705   */\n              tag_240\n                /* \"#utility.yul\":9701:9704   */\n              dup3\n                /* \"#utility.yul\":9692:9698   */\n              dup8\n                /* \"#utility.yul\":9630:9705   */\n              tag_108\n              jump\t// in\n            tag_240:\n                /* \"#utility.yul\":9730:9732   */\n              0x20\n                /* \"#utility.yul\":9725:9728   */\n              dup3\n                /* \"#utility.yul\":9721:9733   */\n              add\n                /* \"#utility.yul\":9714:9733   */\n              swap2\n              pop\n                /* \"#utility.yul\":9743:9818   */\n              tag_241\n                /* \"#utility.yul\":9814:9817   */\n              dup3\n                /* \"#utility.yul\":9805:9811   */\n              dup7\n                /* \"#utility.yul\":9743:9818   */\n              tag_108\n              jump\t// in\n            tag_241:\n                /* \"#utility.yul\":9843:9845   */\n              0x20\n                /* \"#utility.yul\":9838:9841   */\n              dup3\n                /* \"#utility.yul\":9834:9846   */\n              add\n                /* \"#utility.yul\":9827:9846   */\n              swap2\n              pop\n                /* \"#utility.yul\":9856:9931   */\n              tag_242\n                /* \"#utility.yul\":9927:9930   */\n              dup3\n                /* \"#utility.yul\":9918:9924   */\n              dup6\n                /* \"#utility.yul\":9856:9931   */\n              tag_108\n              jump\t// in\n            tag_242:\n                /* \"#utility.yul\":9956:9958   */\n              0x20\n                /* \"#utility.yul\":9951:9954   */\n              dup3\n                /* \"#utility.yul\":9947:9959   */\n              add\n                /* \"#utility.yul\":9940:9959   */\n              swap2\n              pop\n                /* \"#utility.yul\":9976:10069   */\n              tag_243\n                /* \"#utility.yul\":10065:10068   */\n              dup3\n                /* \"#utility.yul\":10056:10062   */\n              dup5\n                /* \"#utility.yul\":9976:10069   */\n              tag_112\n              jump\t// in\n            tag_243:\n                /* \"#utility.yul\":9969:10069   */\n              swap2\n              pop\n                /* \"#utility.yul\":10086:10089   */\n              dup2\n                /* \"#utility.yul\":10079:10089   */\n              swap1\n              pop\n                /* \"#utility.yul\":9260:10095   */\n              swap7\n              swap6\n              pop\n              pop\n              pop\n              pop\n              pop\n              pop\n              jump\t// out\n                /* \"#utility.yul\":10101:10270   */\n            tag_113:\n                /* \"#utility.yul\":10185:10196   */\n              0x00\n                /* \"#utility.yul\":10219:10225   */\n              dup3\n                /* \"#utility.yul\":10214:10217   */\n              dup3\n                /* \"#utility.yul\":10207:10226   */\n              mstore\n                /* \"#utility.yul\":10259:10263   */\n              0x20\n                /* \"#utility.yul\":10254:10257   */\n              dup3\n                /* \"#utility.yul\":10250:10264   */\n              add\n                /* \"#utility.yul\":10235:10264   */\n              swap1\n              pop\n                /* \"#utility.yul\":10101:10270   */\n              swap3\n              swap2\n              pop\n              pop\n              jump\t// out\n                /* \"#utility.yul\":10276:10445   */\n            tag_114:\n                /* \"#utility.yul\":10416:10437   */\n              0x4f7264657220686173206265656e207573656400000000000000000000000000\n                /* \"#utility.yul\":10412:10413   */\n              0x00\n                /* \"#utility.yul\":10404:10410   */\n              dup3\n                /* \"#utility.yul\":10400:10414   */\n              add\n                /* \"#utility.yul\":10393:10438   */\n              mstore\n                /* \"#utility.yul\":10276:10445   */\n              pop\n              jump\t// out\n                /* \"#utility.yul\":10451:10817   */\n            tag_115:\n                /* \"#utility.yul\":10593:10596   */\n              0x00\n                /* \"#utility.yul\":10614:10681   */\n              tag_247\n                /* \"#utility.yul\":10678:10680   */\n              0x13\n                /* \"#utility.yul\":10673:10676   */\n              dup4\n                /* \"#utility.yul\":10614:10681   */\n              tag_113\n              jump\t// in\n            tag_247:\n                /* \"#utility.yul\":10607:10681   */\n              swap2\n              pop\n                /* \"#utility.yul\":10690:10783   */\n              tag_248\n                /* \"#utility.yul\":10779:10782   */\n              dup3\n                /* \"#utility.yul\":10690:10783   */\n              tag_114\n              jump\t// in\n            tag_248:\n                /* \"#utility.yul\":10808:10810   */\n              0x20\n                /* \"#utility.yul\":10803:10806   */\n              dup3\n                /* \"#utility.yul\":10799:10811   */\n              add\n                /* \"#utility.yul\":10792:10811   */\n              swap1\n              pop\n                /* \"#utility.yul\":10451:10817   */\n              swap2\n              swap1\n              pop\n              jump\t// out\n                /* \"#utility.yul\":10823:11242   */\n            tag_34:\n                /* \"#utility.yul\":10989:10993   */\n              0x00\n                /* \"#utility.yul\":11027:11029   */\n              0x20\n                /* \"#utility.yul\":11016:11025   */\n              dup3\n                /* \"#utility.yul\":11012:11030   */\n              add\n                /* \"#utility.yul\":11004:11030   */\n              swap1\n              pop\n                /* \"#utility.yul\":11076:11085   */\n              dup2\n                /* \"#utility.yul\":11070:11074   */\n              dup2\n                /* \"#utility.yul\":11066:11086   */\n              sub\n                /* \"#utility.yul\":11062:11063   */\n              0x00\n                /* \"#utility.yul\":11051:11060   */\n              dup4\n                /* \"#utility.yul\":11047:11064   */\n              add\n                /* \"#utility.yul\":11040:11087   */\n              mstore\n                /* \"#utility.yul\":11104:11235   */\n              tag_250\n                /* \"#utility.yul\":11230:11234   */\n              dup2\n                /* \"#utility.yul\":11104:11235   */\n              tag_115\n              jump\t// in\n            tag_250:\n                /* \"#utility.yul\":11096:11235   */\n              swap1\n              pop\n                /* \"#utility.yul\":10823:11242   */\n              swap2\n              swap1\n              pop\n              jump\t// out\n                /* \"#utility.yul\":11248:11415   */\n            tag_116:\n                /* \"#utility.yul\":11388:11407   */\n              0x496e76616c6964207369676e6174757265000000000000000000000000000000\n                /* \"#utility.yul\":11384:11385   */\n              0x00\n                /* \"#utility.yul\":11376:11382   */\n              dup3\n                /* \"#utility.yul\":11372:11386   */\n              add\n                /* \"#utility.yul\":11365:11408   */\n              mstore\n                /* \"#utility.yul\":11248:11415   */\n              pop\n              jump\t// out\n                /* \"#utility.yul\":11421:11787   */\n            tag_117:\n                /* \"#utility.yul\":11563:11566   */\n              0x00\n                /* \"#utility.yul\":11584:11651   */\n              tag_253\n                /* \"#utility.yul\":11648:11650   */\n              0x11\n                /* \"#utility.yul\":11643:11646   */\n              dup4\n                /* \"#utility.yul\":11584:11651   */\n              tag_113\n              jump\t// in\n            tag_253:\n                /* \"#utility.yul\":11577:11651   */\n              swap2\n              pop\n                /* \"#utility.yul\":11660:11753   */\n              tag_254\n                /* \"#utility.yul\":11749:11752   */\n              dup3\n                /* \"#utility.yul\":11660:11753   */\n              tag_116\n              jump\t// in\n            tag_254:\n                /* \"#utility.yul\":11778:11780   */\n              0x20\n                /* \"#utility.yul\":11773:11776   */\n              dup3\n                /* \"#utility.yul\":11769:11781   */\n              add\n                /* \"#utility.yul\":11762:11781   */\n              swap1\n              pop\n                /* \"#utility.yul\":11421:11787   */\n              swap2\n              swap1\n              pop\n              jump\t// out\n                /* \"#utility.yul\":11793:12212   */\n            tag_39:\n                /* \"#utility.yul\":11959:11963   */\n              0x00\n                /* \"#utility.yul\":11997:11999   */\n              0x20\n                /* \"#utility.yul\":11986:11995   */\n              dup3\n                /* \"#utility.yul\":11982:12000   */\n              add\n                /* \"#utility.yul\":11974:12000   */\n              swap1\n              pop\n                /* \"#utility.yul\":12046:12055   */\n              dup2\n                /* \"#utility.yul\":12040:12044   */\n              dup2\n                /* \"#utility.yul\":12036:12056   */\n              sub\n                /* \"#utility.yul\":12032:12033   */\n              0x00\n                /* \"#utility.yul\":12021:12030   */\n              dup4\n                /* \"#utility.yul\":12017:12034   */\n              add\n                /* \"#utility.yul\":12010:12057   */\n              mstore\n                /* \"#utility.yul\":12074:12205   */\n              tag_256\n                /* \"#utility.yul\":12200:12204   */\n              dup2\n                /* \"#utility.yul\":12074:12205   */\n              tag_117\n              jump\t// in\n            tag_256:\n                /* \"#utility.yul\":12066:12205   */\n              swap1\n              pop\n                /* \"#utility.yul\":11793:12212   */\n              swap2\n              swap1\n              pop\n              jump\t// out\n                /* \"#utility.yul\":12218:12336   */\n            tag_118:\n                /* \"#utility.yul\":12305:12329   */\n              tag_258\n                /* \"#utility.yul\":12323:12328   */\n              dup2\n                /* \"#utility.yul\":12305:12329   */\n              tag_85\n              jump\t// in\n            tag_258:\n                /* \"#utility.yul\":12300:12303   */\n              dup3\n                /* \"#utility.yul\":12293:12330   */\n              mstore\n                /* \"#utility.yul\":12218:12336   */\n              pop\n              pop\n              jump\t// out\n                /* \"#utility.yul\":12342:12460   */\n            tag_119:\n                /* \"#utility.yul\":12429:12453   */\n              tag_260\n                /* \"#utility.yul\":12447:12452   */\n              dup2\n                /* \"#utility.yul\":12429:12453   */\n              tag_88\n              jump\t// in\n            tag_260:\n                /* \"#utility.yul\":12424:12427   */\n              dup3\n                /* \"#utility.yul\":12417:12454   */\n              mstore\n                /* \"#utility.yul\":12342:12460   */\n              pop\n              pop\n              jump\t// out\n                /* \"#utility.yul\":12466:12908   */\n            tag_42:\n                /* \"#utility.yul\":12615:12619   */\n              0x00\n                /* \"#utility.yul\":12653:12655   */\n              0x60\n                /* \"#utility.yul\":12642:12651   */\n              dup3\n                /* \"#utility.yul\":12638:12656   */\n              add\n                /* \"#utility.yul\":12630:12656   */\n              swap1\n              pop\n                /* \"#utility.yul\":12666:12737   */\n              tag_262\n                /* \"#utility.yul\":12734:12735   */\n              0x00\n                /* \"#utility.yul\":12723:12732   */\n              dup4\n                /* \"#utility.yul\":12719:12736   */\n              add\n                /* \"#utility.yul\":12710:12716   */\n              dup7\n                /* \"#utility.yul\":12666:12737   */\n              tag_118\n              jump\t// in\n            tag_262:\n                /* \"#utility.yul\":12747:12819   */\n              tag_263\n                /* \"#utility.yul\":12815:12817   */\n              0x20\n                /* \"#utility.yul\":12804:12813   */\n              dup4\n                /* \"#utility.yul\":12800:12818   */\n              add\n                /* \"#utility.yul\":12791:12797   */\n              dup6\n                /* \"#utility.yul\":12747:12819   */\n              tag_118\n              jump\t// in\n            tag_263:\n                /* \"#utility.yul\":12829:12901   */\n              tag_264\n                /* \"#utility.yul\":12897:12899   */\n              0x40\n                /* \"#utility.yul\":12886:12895   */\n              dup4\n                /* \"#utility.yul\":12882:12900   */\n              add\n                /* \"#utility.yul\":12873:12879   */\n              dup5\n                /* \"#utility.yul\":12829:12901   */\n              tag_119\n              jump\t// in\n            tag_264:\n                /* \"#utility.yul\":12466:12908   */\n              swap5\n              swap4\n              pop\n              pop\n              pop\n              pop\n              jump\t// out\n                /* \"#utility.yul\":12914:13593   */\n            tag_62:\n                /* \"#utility.yul\":13110:13113   */\n              0x00\n                /* \"#utility.yul\":13125:13200   */\n              tag_266\n                /* \"#utility.yul\":13196:13199   */\n              dup3\n                /* \"#utility.yul\":13187:13193   */\n              dup8\n                /* \"#utility.yul\":13125:13200   */\n              tag_106\n              jump\t// in\n            tag_266:\n                /* \"#utility.yul\":13225:13227   */\n              0x14\n                /* \"#utility.yul\":13220:13223   */\n              dup3\n                /* \"#utility.yul\":13216:13228   */\n              add\n                /* \"#utility.yul\":13209:13228   */\n              swap2\n              pop\n                /* \"#utility.yul\":13238:13313   */\n              tag_267\n                /* \"#utility.yul\":13309:13312   */\n              dup3\n                /* \"#utility.yul\":13300:13306   */\n              dup7\n                /* \"#utility.yul\":13238:13313   */\n              tag_108\n              jump\t// in\n            tag_267:\n                /* \"#utility.yul\":13338:13340   */\n              0x20\n                /* \"#utility.yul\":13333:13336   */\n              dup3\n                /* \"#utility.yul\":13329:13341   */\n              add\n                /* \"#utility.yul\":13322:13341   */\n              swap2\n              pop\n                /* \"#utility.yul\":13351:13426   */\n              tag_268\n                /* \"#utility.yul\":13422:13425   */\n              dup3\n                /* \"#utility.yul\":13413:13419   */\n              dup6\n                /* \"#utility.yul\":13351:13426   */\n              tag_108\n              jump\t// in\n            tag_268:\n                /* \"#utility.yul\":13451:13453   */\n              0x20\n                /* \"#utility.yul\":13446:13449   */\n              dup3\n                /* \"#utility.yul\":13442:13454   */\n              add\n                /* \"#utility.yul\":13435:13454   */\n              swap2\n              pop\n                /* \"#utility.yul\":13464:13539   */\n              tag_269\n                /* \"#utility.yul\":13535:13538   */\n              dup3\n                /* \"#utility.yul\":13526:13532   */\n              dup5\n                /* \"#utility.yul\":13464:13539   */\n              tag_108\n              jump\t// in\n            tag_269:\n                /* \"#utility.yul\":13564:13566   */\n              0x20\n                /* \"#utility.yul\":13559:13562   */\n              dup3\n                /* \"#utility.yul\":13555:13567   */\n              add\n                /* \"#utility.yul\":13548:13567   */\n              swap2\n              pop\n                /* \"#utility.yul\":13584:13587   */\n              dup2\n                /* \"#utility.yul\":13577:13587   */\n              swap1\n              pop\n                /* \"#utility.yul\":12914:13593   */\n              swap6\n              swap5\n              pop\n              pop\n              pop\n              pop\n              pop\n              jump\t// out\n                /* \"#utility.yul\":13599:13747   */\n            tag_120:\n                /* \"#utility.yul\":13701:13712   */\n              0x00\n                /* \"#utility.yul\":13738:13741   */\n              dup2\n                /* \"#utility.yul\":13723:13741   */\n              swap1\n              pop\n                /* \"#utility.yul\":13599:13747   */\n              swap3\n              swap2\n              pop\n              pop\n              jump\t// out\n                /* \"#utility.yul\":13753:13967   */\n            tag_121:\n                /* \"#utility.yul\":13893:13959   */\n              0x19457468657265756d205369676e6564204d6573736167653a0a333200000000\n                /* \"#utility.yul\":13889:13890   */\n              0x00\n                /* \"#utility.yul\":13881:13887   */\n              dup3\n                /* \"#utility.yul\":13877:13891   */\n              add\n                /* \"#utility.yul\":13870:13960   */\n              mstore\n                /* \"#utility.yul\":13753:13967   */\n              pop\n              jump\t// out\n                /* \"#utility.yul\":13973:14375   */\n            tag_122:\n                /* \"#utility.yul\":14133:14136   */\n              0x00\n                /* \"#utility.yul\":14154:14239   */\n              tag_273\n                /* \"#utility.yul\":14236:14238   */\n              0x1c\n                /* \"#utility.yul\":14231:14234   */\n              dup4\n                /* \"#utility.yul\":14154:14239   */\n              tag_120\n              jump\t// in\n            tag_273:\n                /* \"#utility.yul\":14147:14239   */\n              swap2\n              pop\n                /* \"#utility.yul\":14248:14341   */\n              tag_274\n                /* \"#utility.yul\":14337:14340   */\n              dup3\n                /* \"#utility.yul\":14248:14341   */\n              tag_121\n              jump\t// in\n            tag_274:\n                /* \"#utility.yul\":14366:14368   */\n              0x1c\n                /* \"#utility.yul\":14361:14364   */\n              dup3\n                /* \"#utility.yul\":14357:14369   */\n              add\n                /* \"#utility.yul\":14350:14369   */\n              swap1\n              pop\n                /* \"#utility.yul\":13973:14375   */\n              swap2\n              swap1\n              pop\n              jump\t// out\n                /* \"#utility.yul\":14381:14460   */\n            tag_123:\n                /* \"#utility.yul\":14420:14427   */\n              0x00\n                /* \"#utility.yul\":14449:14454   */\n              dup2\n                /* \"#utility.yul\":14438:14454   */\n              swap1\n              pop\n                /* \"#utility.yul\":14381:14460   */\n              swap2\n              swap1\n              pop\n              jump\t// out\n                /* \"#utility.yul\":14466:14623   */\n            tag_124:\n                /* \"#utility.yul\":14571:14616   */\n              tag_277\n                /* \"#utility.yul\":14591:14615   */\n              tag_278\n                /* \"#utility.yul\":14609:14614   */\n              dup3\n                /* \"#utility.yul\":14591:14615   */\n              tag_100\n              jump\t// in\n            tag_278:\n                /* \"#utility.yul\":14571:14616   */\n              tag_123\n              jump\t// in\n            tag_277:\n                /* \"#utility.yul\":14566:14569   */\n              dup3\n                /* \"#utility.yul\":14559:14617   */\n              mstore\n                /* \"#utility.yul\":14466:14623   */\n              pop\n              pop\n              jump\t// out\n                /* \"#utility.yul\":14629:15151   */\n            tag_64:\n                /* \"#utility.yul\":14842:14845   */\n              0x00\n                /* \"#utility.yul\":14864:15012   */\n              tag_280\n                /* \"#utility.yul\":15008:15011   */\n              dup3\n                /* \"#utility.yul\":14864:15012   */\n              tag_122\n              jump\t// in\n            tag_280:\n                /* \"#utility.yul\":14857:15012   */\n              swap2\n              pop\n                /* \"#utility.yul\":15022:15097   */\n              tag_281\n                /* \"#utility.yul\":15093:15096   */\n              dup3\n                /* \"#utility.yul\":15084:15090   */\n              dup5\n                /* \"#utility.yul\":15022:15097   */\n              tag_124\n              jump\t// in\n            tag_281:\n                /* \"#utility.yul\":15122:15124   */\n              0x20\n                /* \"#utility.yul\":15117:15120   */\n              dup3\n                /* \"#utility.yul\":15113:15125   */\n              add\n                /* \"#utility.yul\":15106:15125   */\n              swap2\n              pop\n                /* \"#utility.yul\":15142:15145   */\n              dup2\n                /* \"#utility.yul\":15135:15145   */\n              swap1\n              pop\n                /* \"#utility.yul\":14629:15151   */\n              swap3\n              swap2\n              pop\n              pop\n              jump\t// out\n                /* \"#utility.yul\":15157:15243   */\n            tag_125:\n                /* \"#utility.yul\":15192:15199   */\n              0x00\n                /* \"#utility.yul\":15232:15236   */\n              0xff\n                /* \"#utility.yul\":15225:15230   */\n              dup3\n                /* \"#utility.yul\":15221:15237   */\n              and\n                /* \"#utility.yul\":15210:15237   */\n              swap1\n              pop\n                /* \"#utility.yul\":15157:15243   */\n              swap2\n              swap1\n              pop\n              jump\t// out\n                /* \"#utility.yul\":15249:15429   */\n            tag_126:\n                /* \"#utility.yul\":15297:15374   */\n              0x4e487b7100000000000000000000000000000000000000000000000000000000\n                /* \"#utility.yul\":15294:15295   */\n              0x00\n                /* \"#utility.yul\":15287:15375   */\n              mstore\n                /* \"#utility.yul\":15394:15398   */\n              0x11\n                /* \"#utility.yul\":15391:15392   */\n              0x04\n                /* \"#utility.yul\":15384:15399   */\n              mstore\n                /* \"#utility.yul\":15418:15422   */\n              0x24\n                /* \"#utility.yul\":15415:15416   */\n              0x00\n                /* \"#utility.yul\":15408:15423   */\n              revert\n                /* \"#utility.yul\":15435:15623   */\n            tag_70:\n                /* \"#utility.yul\":15473:15476   */\n              0x00\n                /* \"#utility.yul\":15492:15510   */\n              tag_285\n                /* \"#utility.yul\":15508:15509   */\n              dup3\n                /* \"#utility.yul\":15492:15510   */\n              tag_125\n              jump\t// in\n            tag_285:\n                /* \"#utility.yul\":15487:15510   */\n              swap2\n              pop\n                /* \"#utility.yul\":15524:15542   */\n              tag_286\n                /* \"#utility.yul\":15540:15541   */\n              dup4\n                /* \"#utility.yul\":15524:15542   */\n              tag_125\n              jump\t// in\n            tag_286:\n                /* \"#utility.yul\":15519:15542   */\n              swap3\n              pop\n                /* \"#utility.yul\":15565:15566   */\n              dup3\n                /* \"#utility.yul\":15562:15563   */\n              dup3\n                /* \"#utility.yul\":15558:15567   */\n              add\n                /* \"#utility.yul\":15551:15567   */\n              swap1\n              pop\n                /* \"#utility.yul\":15588:15592   */\n              0xff\n                /* \"#utility.yul\":15583:15586   */\n              dup2\n                /* \"#utility.yul\":15580:15593   */\n              gt\n                /* \"#utility.yul\":15577:15616   */\n              iszero\n              tag_287\n              jumpi\n                /* \"#utility.yul\":15596:15614   */\n              tag_288\n              tag_126\n              jump\t// in\n            tag_288:\n                /* \"#utility.yul\":15577:15616   */\n            tag_287:\n                /* \"#utility.yul\":15435:15623   */\n              swap3\n              swap2\n              pop\n              pop\n              jump\t// out\n                /* \"#utility.yul\":15629:15747   */\n            tag_127:\n                /* \"#utility.yul\":15716:15740   */\n              tag_290\n                /* \"#utility.yul\":15734:15739   */\n              dup2\n                /* \"#utility.yul\":15716:15740   */\n              tag_100\n              jump\t// in\n            tag_290:\n                /* \"#utility.yul\":15711:15714   */\n              dup3\n                /* \"#utility.yul\":15704:15741   */\n              mstore\n                /* \"#utility.yul\":15629:15747   */\n              pop\n              pop\n              jump\t// out\n                /* \"#utility.yul\":15753:15865   */\n            tag_128:\n                /* \"#utility.yul\":15836:15858   */\n              tag_292\n                /* \"#utility.yul\":15852:15857   */\n              dup2\n                /* \"#utility.yul\":15836:15858   */\n              tag_125\n              jump\t// in\n            tag_292:\n                /* \"#utility.yul\":15831:15834   */\n              dup3\n                /* \"#utility.yul\":15824:15859   */\n              mstore\n                /* \"#utility.yul\":15753:15865   */\n              pop\n              pop\n              jump\t// out\n                /* \"#utility.yul\":15871:16416   */\n            tag_72:\n                /* \"#utility.yul\":16044:16048   */\n              0x00\n                /* \"#utility.yul\":16082:16085   */\n              0x80\n                /* \"#utility.yul\":16071:16080   */\n              dup3\n                /* \"#utility.yul\":16067:16086   */\n              add\n                /* \"#utility.yul\":16059:16086   */\n              swap1\n              pop\n                /* \"#utility.yul\":16096:16167   */\n              tag_294\n                /* \"#utility.yul\":16164:16165   */\n              0x00\n                /* \"#utility.yul\":16153:16162   */\n              dup4\n                /* \"#utility.yul\":16149:16166   */\n              add\n                /* \"#utility.yul\":16140:16146   */\n              dup8\n                /* \"#utility.yul\":16096:16167   */\n              tag_127\n              jump\t// in\n            tag_294:\n                /* \"#utility.yul\":16177:16245   */\n              tag_295\n                /* \"#utility.yul\":16241:16243   */\n              0x20\n                /* \"#utility.yul\":16230:16239   */\n              dup4\n                /* \"#utility.yul\":16226:16244   */\n              add\n                /* \"#utility.yul\":16217:16223   */\n              dup7\n                /* \"#utility.yul\":16177:16245   */\n              tag_128\n              jump\t// in\n            tag_295:\n                /* \"#utility.yul\":16255:16327   */\n              tag_296\n                /* \"#utility.yul\":16323:16325   */\n              0x40\n                /* \"#utility.yul\":16312:16321   */\n              dup4\n                /* \"#utility.yul\":16308:16326   */\n              add\n                /* \"#utility.yul\":16299:16305   */\n              dup6\n                /* \"#utility.yul\":16255:16327   */\n              tag_127\n              jump\t// in\n            tag_296:\n                /* \"#utility.yul\":16337:16409   */\n              tag_297\n                /* \"#utility.yul\":16405:16407   */\n              0x60\n                /* \"#utility.yul\":16394:16403   */\n              dup4\n                /* \"#utility.yul\":16390:16408   */\n              add\n                /* \"#utility.yul\":16381:16387   */\n              dup5\n                /* \"#utility.yul\":16337:16409   */\n              tag_127\n              jump\t// in\n            tag_297:\n                /* \"#utility.yul\":15871:16416   */\n              swap6\n              swap5\n              pop\n              pop\n              pop\n              pop\n              pop\n              jump\t// out\n\n            auxdata: 0xa2646970667358221220261e60164feed93a4824982c82c9cbbbf96fd045e99baca432b1e2e14ab55e1164736f6c63430008120033\n        }\n    }\n\n    auxdata: 0xa2646970667358221220902f0448907563c792e77f75cd130254cdf60c239d47ef04ecfd50c669bc4a3964736f6c63430008120033\n}\n",
				"bytecode": {
					"linkReferences": {},
					"object": "6080604052600280553480156200001557600080fd5b506040516200383d3803806200383d83398181016040528101906200003b9190620000ed565b80600360006101000a81548173ffffffffffffffffffffffffffffffffffffffff021916908373ffffffffffffffffffffffffffffffffffffffff160217905550506200011f565b600080fd5b600073ffffffffffffffffffffffffffffffffffffffff82169050919050565b6000620000b58262000088565b9050919050565b620000c781620000a8565b8114620000d357600080fd5b50565b600081519050620000e781620000bc565b92915050565b60006020828403121562000106576200010562000083565b5b60006200011684828501620000d6565b91505092915050565b61370e806200012f6000396000f3fe608060405260043610620000865760003560e01c80637b84fda511620000555780637b84fda5146200013557806384e5eed01462000163578063c2a1d6c91462000193578063c465db0a14620001ad5762000086565b806307e4ac72146200008b5780631b5ea50214620000b95780633881378114620000e75780636aae5cda1462000107575b600080fd5b3480156200009857600080fd5b50620000b76004803603810190620000b1919062001799565b620001f1565b005b348015620000c657600080fd5b50620000e56004803603810190620000df919062001a93565b620002c8565b005b620001056004803603810190620000ff919062001ae4565b6200034d565b005b3480156200011457600080fd5b506200013360048036038101906200012d919062001799565b62000ccf565b005b3480156200014257600080fd5b506200016160048036038101906200015b919062001bb6565b62000f0d565b005b3480156200017057600080fd5b506200017b62000fed565b6040516200018a919062001bf9565b60405180910390f35b348015620001a057600080fd5b50620001ab62000ff7565b005b348015620001ba57600080fd5b50620001d96004803603810190620001d3919062001799565b620011e0565b604051620001e8919062001c27565b60405180910390f35b600360009054906101000a900473ffffffffffffffffffffffffffffffffffffffff1673ffffffffffffffffffffffffffffffffffffffff163373ffffffffffffffffffffffffffffffffffffffff161462000284576040517f08c379a00000000000000000000000000000000000000000000000000000000081526004016200027b9062001ca5565b60405180910390fd5b80600160006101000a81548173ffffffffffffffffffffffffffffffffffffffff021916908373ffffffffffffffffffffffffffffffffffffffff16021790555050565b80600001518073ffffffffffffffffffffffffffffffffffffffff163373ffffffffffffffffffffffffffffffffffffffff16146200033e576040517f08c379a0000000000000000000000000000000000000000000000000000000008152600401620003359062001d3d565b60405180910390fd5b620003498262001249565b5050565b60006040518060e001604052808973ffffffffffffffffffffffffffffffffffffffff1681526020018873ffffffffffffffffffffffffffffffffffffffff16815260200187815260200186815260200185815260200184815260200183815250905060003490506000620003e76064620003d860025486606001516200146d90919063ffffffff16565b6200148590919063ffffffff16565b905062000411836000015184602001518560400151866060015187608001518860a001516200149d565b62000453576040517f08c379a00000000000000000000000000000000000000000000000000000000081526004016200044a9062001daf565b60405180910390fd5b6000600460003373ffffffffffffffffffffffffffffffffffffffff1673ffffffffffffffffffffffffffffffffffffffff16815260200190815260200160002060009054906101000a900473ffffffffffffffffffffffffffffffffffffffff169050600060046000866000015173ffffffffffffffffffffffffffffffffffffffff1673ffffffffffffffffffffffffffffffffffffffff16815260200190815260200160002060009054906101000a900473ffffffffffffffffffffffffffffffffffffffff169050600073ffffffffffffffffffffffffffffffffffffffff16600460003373ffffffffffffffffffffffffffffffffffffffff1673ffffffffffffffffffffffffffffffffffffffff16815260200190815260200160002060009054906101000a900473ffffffffffffffffffffffffffffffffffffffff1673ffffffffffffffffffffffffffffffffffffffff1603620005f0576040517f08c379a0000000000000000000000000000000000000000000000000000000008152600401620005e79062001e21565b60405180910390fd5b600073ffffffffffffffffffffffffffffffffffffffff1660046000876000015173ffffffffffffffffffffffffffffffffffffffff1673ffffffffffffffffffffffffffffffffffffffff16815260200190815260200160002060009054906101000a900473ffffffffffffffffffffffffffffffffffffffff1673ffffffffffffffffffffffffffffffffffffffff1603620006c5576040517f08c379a0000000000000000000000000000000000000000000000000000000008152600401620006bc9062001e21565b60405180910390fd5b846000015173ffffffffffffffffffffffffffffffffffffffff16856020015173ffffffffffffffffffffffffffffffffffffffff16636352211e87604001516040518263ffffffff1660e01b815260040162000723919062001bf9565b602060405180830381865afa15801562000741573d6000803e3d6000fd5b505050506040513d601f19601f8201168201806040525081019062000767919062001e5a565b73ffffffffffffffffffffffffffffffffffffffff1614620007c0576040517f08c379a0000000000000000000000000000000000000000000000000000000008152600401620007b79062001f02565b60405180910390fd5b8460a001514211156200085c57620007d88562001249565b846020015173ffffffffffffffffffffffffffffffffffffffff16856000015173ffffffffffffffffffffffffffffffffffffffff167f68138f0ee854a322025bc4fdf83bf151264d42cbc5930a3afc396a82980028d68760c0015188604001516040516200084992919062001f35565b60405180910390a3505050505062000cc6565b60008560200151866040015187606001518860a0015189608001516040516020016200088d95949392919062002050565b6040516020818303038152906040528051906020012090506000808373ffffffffffffffffffffffffffffffffffffffff1683604051602401620008d29190620020b5565b6040516020818303038152906040527ff0994620000000000000000000000000000000000000000000000000000000007bffffffffffffffffffffffffffffffffffffffffffffffffffffffff19166020820180517bffffffffffffffffffffffffffffffffffffffffffffffffffffffff83818316178352505050506040516200095e9190620020d2565b600060405180830381855af49150503d80600081146200099b576040519150601f19603f3d011682016040523d82523d6000602084013e620009a0565b606091505b5091509150600081806020019051810190620009bd919062002128565b9050828015620009cb575080155b62000a0d576040517f08c379a000000000000000000000000000000000000000000000000000000000815260040162000a0490620021aa565b60405180910390fd5b6000808673ffffffffffffffffffffffffffffffffffffffff168b8a8c62000a369190620021fb565b60405160240162000a4992919062002365565b6040516020818303038152906040527f508c70ea000000000000000000000000000000000000000000000000000000007bffffffffffffffffffffffffffffffffffffffffffffffffffffffff19166020820180517bffffffffffffffffffffffffffffffffffffffffffffffffffffffff838183161783525050505060405162000ad59190620020d2565b6000604051808303816000865af19150503d806000811462000b14576040519150601f19603f3d011682016040523d82523d6000602084013e62000b19565b606091505b509150915060008180602001905181019062000b36919062002128565b905082801562000b435750805b1562000cad5762000b548c62001546565b600160009054906101000a900473ffffffffffffffffffffffffffffffffffffffff1673ffffffffffffffffffffffffffffffffffffffff166108fc8b9081150290604051600060405180830381858888f1935050505015801562000bbd573d6000803e3d6000fd5b508b6000015173ffffffffffffffffffffffffffffffffffffffff166108fc8b8d62000bea9190620021fb565b9081150290604051600060405180830381858888f1935050505062000ca7573373ffffffffffffffffffffffffffffffffffffffff166108fc8b8d62000c319190620021fb565b9081150290604051600060405180830381858888f1935050505015801562000c5d573d6000803e3d6000fd5b503373ffffffffffffffffffffffffffffffffffffffff166108fc8b9081150290604051600060405180830381858888f1935050505015801562000ca5573d6000803e3d6000fd5b505b62000cb9565b62000cb88c620015df565b5b5050505050505050505050505b50505050505050565b600073ffffffffffffffffffffffffffffffffffffffff16600460003373ffffffffffffffffffffffffffffffffffffffff1673ffffffffffffffffffffffffffffffffffffffff16815260200190815260200160002060009054906101000a900473ffffffffffffffffffffffffffffffffffffffff1673ffffffffffffffffffffffffffffffffffffffff160362000da0576040517f08c379a000000000000000000000000000000000000000000000000000000000815260040162000d9790620023e9565b60405180910390fd5b6000600460003373ffffffffffffffffffffffffffffffffffffffff1673ffffffffffffffffffffffffffffffffffffffff16815260200190815260200160002060009054906101000a900473ffffffffffffffffffffffffffffffffffffffff1690506000808373ffffffffffffffffffffffffffffffffffffffff1683600160405160240162000e349291906200241c565b6040516020818303038152906040527f531ac346000000000000000000000000000000000000000000000000000000007bffffffffffffffffffffffffffffffffffffffffffffffffffffffff19166020820180517bffffffffffffffffffffffffffffffffffffffffffffffffffffffff838183161783525050505060405162000ec09190620020d2565b600060405180830381855af49150503d806000811462000efd576040519150601f19603f3d011682016040523d82523d6000602084013e62000f02565b606091505b509150915050505050565b600360009054906101000a900473ffffffffffffffffffffffffffffffffffffffff1673ffffffffffffffffffffffffffffffffffffffff163373ffffffffffffffffffffffffffffffffffffffff161462000fa0576040517f08c379a000000000000000000000000000000000000000000000000000000000815260040162000f979062001ca5565b60405180910390fd5b60006002549050816002819055507f8d10d6dd6545b059182e4bf9534308bf75d7de65cdd8a68c12b7b74f139e58ae818360405162000fe192919062002449565b60405180910390a15050565b6000600254905090565b600073ffffffffffffffffffffffffffffffffffffffff16600460003373ffffffffffffffffffffffffffffffffffffffff1673ffffffffffffffffffffffffffffffffffffffff16815260200190815260200160002060009054906101000a900473ffffffffffffffffffffffffffffffffffffffff1673ffffffffffffffffffffffffffffffffffffffff1614620010c8576040517f08c379a0000000000000000000000000000000000000000000000000000000008152600401620010bf90620024c6565b60405180910390fd5b33604051620010d79062001712565b620010e3919062001c27565b604051809103906000f08015801562001100573d6000803e3d6000fd5b506000806101000a81548173ffffffffffffffffffffffffffffffffffffffff021916908373ffffffffffffffffffffffffffffffffffffffff16021790555060008054906101000a900473ffffffffffffffffffffffffffffffffffffffff16600460003373ffffffffffffffffffffffffffffffffffffffff1673ffffffffffffffffffffffffffffffffffffffff16815260200190815260200160002060006101000a81548173ffffffffffffffffffffffffffffffffffffffff021916908373ffffffffffffffffffffffffffffffffffffffff160217905550565b6000600460008373ffffffffffffffffffffffffffffffffffffffff1673ffffffffffffffffffffffffffffffffffffffff16815260200190815260200160002060009054906101000a900473ffffffffffffffffffffffffffffffffffffffff169050919050565b60008060046000846000015173ffffffffffffffffffffffffffffffffffffffff1673ffffffffffffffffffffffffffffffffffffffff16815260200190815260200160002060009054906101000a900473ffffffffffffffffffffffffffffffffffffffff1673ffffffffffffffffffffffffffffffffffffffff1683604051602401620012d99190620024e8565b6040516020818303038152906040527f2c7ade5e000000000000000000000000000000000000000000000000000000007bffffffffffffffffffffffffffffffffffffffffffffffffffffffff19166020820180517bffffffffffffffffffffffffffffffffffffffffffffffffffffffff8381831617835250505050604051620013659190620020d2565b600060405180830381855af49150503d8060008114620013a2576040519150601f19603f3d011682016040523d82523d6000602084013e620013a7565b606091505b509150915081620013ef576040517f08c379a0000000000000000000000000000000000000000000000000000000008152600401620013e6906200255c565b60405180910390fd5b826020015173ffffffffffffffffffffffffffffffffffffffff16836000015173ffffffffffffffffffffffffffffffffffffffff167f9b3260990101a9c5eb670b44ba2f4ec1048ddaf533a012abff3841ef15307fec8560c0015186604001516040516200146092919062001f35565b60405180910390a3505050565b600081836200147d91906200257e565b905092915050565b60008183620014959190620025f8565b905092915050565b60008086868685604051602001620014b9949392919062002630565b604051602081830303815290604052805190602001209050600081604051602001620014e6919062002706565b6040516020818303038152906040528051906020012090508873ffffffffffffffffffffffffffffffffffffffff1662001521828762001678565b73ffffffffffffffffffffffffffffffffffffffff1614925050509695505050505050565b806020015173ffffffffffffffffffffffffffffffffffffffff163373ffffffffffffffffffffffffffffffffffffffff16826000015173ffffffffffffffffffffffffffffffffffffffff167f467f50bd8d1547cf60e60dba76ab3ff7f8b3a07ceba26c2268e160a7df30230e84604001518560c001518660600151604051620015d49392919062002730565b60405180910390a450565b806020015173ffffffffffffffffffffffffffffffffffffffff163373ffffffffffffffffffffffffffffffffffffffff16826000015173ffffffffffffffffffffffffffffffffffffffff167f9bd8cc9f795935d6f423445d18dd997edfeec3d962973fadffeac5740e876b5f84604001518560c0015186606001516040516200166d9392919062002730565b60405180910390a450565b6000806000806020850151925060408501519150606085015160001a9050601b8160ff161015620016b557601b81620016b291906200277a565b90505b60018682858560405160008152602001604052604051620016da9493929190620027c7565b6020604051602081039080840390855afa158015620016fd573d6000803e3d6000fd5b50505060206040510351935050505092915050565b610ec4806200281583390190565b6000604051905090565b600080fd5b600080fd5b600073ffffffffffffffffffffffffffffffffffffffff82169050919050565b6000620017618262001734565b9050919050565b620017738162001754565b81146200177f57600080fd5b50565b600081359050620017938162001768565b92915050565b600060208284031215620017b257620017b16200172a565b5b6000620017c28482850162001782565b91505092915050565b600080fd5b6000601f19601f8301169050919050565b7f4e487b7100000000000000000000000000000000000000000000000000000000600052604160045260246000fd5b6200181b82620017d0565b810181811067ffffffffffffffff821117156200183d576200183c620017e1565b5b80604052505050565b60006200185262001720565b905062001860828262001810565b919050565b600080fd5b6000819050919050565b6200187f816200186a565b81146200188b57600080fd5b50565b6000813590506200189f8162001874565b92915050565b600080fd5b600080fd5b600067ffffffffffffffff821115620018cd57620018cc620017e1565b5b620018d882620017d0565b9050602081019050919050565b82818337600083830152505050565b60006200190b6200190584620018af565b62001846565b9050828152602081018484840111156200192a5762001929620018aa565b5b62001937848285620018e5565b509392505050565b600082601f830112620019575762001956620018a5565b5b813562001969848260208601620018f4565b91505092915050565b6000819050919050565b620019878162001972565b81146200199357600080fd5b50565b600081359050620019a7816200197c565b92915050565b600060e08284031215620019c657620019c5620017cb565b5b620019d260e062001846565b90506000620019e48482850162001782565b6000830152506020620019fa8482850162001782565b602083015250604062001a10848285016200188e565b604083015250606062001a26848285016200188e565b606083015250608082013567ffffffffffffffff81111562001a4d5762001a4c62001865565b5b62001a5b848285016200193f565b60808301525060a062001a71848285016200188e565b60a08301525060c062001a878482850162001996565b60c08301525092915050565b60006020828403121562001aac5762001aab6200172a565b5b600082013567ffffffffffffffff81111562001acd5762001acc6200172f565b5b62001adb84828501620019ad565b91505092915050565b600080600080600080600060e0888a03121562001b065762001b056200172a565b5b600062001b168a828b0162001782565b975050602062001b298a828b0162001782565b965050604062001b3c8a828b016200188e565b955050606062001b4f8a828b016200188e565b945050608088013567ffffffffffffffff81111562001b735762001b726200172f565b5b62001b818a828b016200193f565b93505060a062001b948a828b016200188e565b92505060c062001ba78a828b0162001996565b91505092959891949750929550565b60006020828403121562001bcf5762001bce6200172a565b5b600062001bdf848285016200188e565b91505092915050565b62001bf3816200186a565b82525050565b600060208201905062001c10600083018462001be8565b92915050565b62001c218162001754565b82525050565b600060208201905062001c3e600083018462001c16565b92915050565b600082825260208201905092915050565b7f6f6e6c79206f776e65722063616e2063616c6c20746869730000000000000000600082015250565b600062001c8d60188362001c44565b915062001c9a8262001c55565b602082019050919050565b6000602082019050818103600083015262001cc08162001c7e565b9050919050565b7f4f6e6c792073656c6c65722063616e2063616c6c20746869732066756e63746960008201527f6f6e000000000000000000000000000000000000000000000000000000000000602082015250565b600062001d2560228362001c44565b915062001d328262001cc7565b604082019050919050565b6000602082019050818103600083015262001d588162001d16565b9050919050565b7f496e76616c6964207369676e6174757265000000000000000000000000000000600082015250565b600062001d9760118362001c44565b915062001da48262001d5f565b602082019050919050565b6000602082019050818103600083015262001dca8162001d88565b9050919050565b7f50726f78792077616c6c6574206e6f7420666f756e6400000000000000000000600082015250565b600062001e0960168362001c44565b915062001e168262001dd1565b602082019050919050565b6000602082019050818103600083015262001e3c8162001dfa565b9050919050565b60008151905062001e548162001768565b92915050565b60006020828403121562001e735762001e726200172a565b5b600062001e838482850162001e43565b91505092915050565b7f53656c6c6572206973206e6f7420746865206f776e6572206f6620746869732060008201527f746f6b656e000000000000000000000000000000000000000000000000000000602082015250565b600062001eea60258362001c44565b915062001ef78262001e8c565b604082019050919050565b6000602082019050818103600083015262001f1d8162001edb565b9050919050565b62001f2f8162001972565b82525050565b600060408201905062001f4c600083018562001f24565b62001f5b602083018462001be8565b9392505050565b60008160601b9050919050565b600062001f7c8262001f62565b9050919050565b600062001f908262001f6f565b9050919050565b62001fac62001fa68262001754565b62001f83565b82525050565b6000819050919050565b62001fd162001fcb826200186a565b62001fb2565b82525050565b600081519050919050565b600081905092915050565b60005b838110156200200d57808201518184015260208101905062001ff0565b60008484015250505050565b6000620020268262001fd7565b62002032818562001fe2565b93506200204481856020860162001fed565b80840191505092915050565b60006200205e828862001f97565b60148201915062002070828762001fbc565b60208201915062002082828662001fbc565b60208201915062002094828562001fbc565b602082019150620020a6828462002019565b91508190509695505050505050565b6000602082019050620020cc600083018462001f24565b92915050565b6000620020e0828462002019565b915081905092915050565b60008115159050919050565b6200210281620020eb565b81146200210e57600080fd5b50565b6000815190506200212281620020f7565b92915050565b6000602082840312156200214157620021406200172a565b5b6000620021518482850162002111565b91505092915050565b7f4f72646572206973206e6f742076616c69640000000000000000000000000000600082015250565b60006200219260128362001c44565b91506200219f826200215a565b602082019050919050565b60006020820190508181036000830152620021c58162002183565b9050919050565b7f4e487b7100000000000000000000000000000000000000000000000000000000600052601160045260246000fd5b600062002208826200186a565b915062002215836200186a565b925082820390508181111562002230576200222f620021cc565b5b92915050565b620022418162001754565b82525050565b62002252816200186a565b82525050565b600082825260208201905092915050565b6000620022768262001fd7565b62002282818562002258565b93506200229481856020860162001fed565b6200229f81620017d0565b840191505092915050565b620022b58162001972565b82525050565b600060e083016000830151620022d5600086018262002236565b506020830151620022ea602086018262002236565b506040830151620022ff604086018262002247565b50606083015162002314606086018262002247565b50608083015184820360808601526200232e828262002269565b91505060a08301516200234560a086018262002247565b5060c08301516200235a60c0860182620022aa565b508091505092915050565b60006040820190508181036000830152620023818185620022bb565b905062002392602083018462001be8565b9392505050565b7f6e6f2070726f78792077616c6c65740000000000000000000000000000000000600082015250565b6000620023d1600f8362001c44565b9150620023de8262002399565b602082019050919050565b600060208201905081810360008301526200240481620023c2565b9050919050565b6200241681620020eb565b82525050565b600060408201905062002433600083018562001c16565b6200244260208301846200240b565b9392505050565b600060408201905062002460600083018562001be8565b6200246f602083018462001be8565b9392505050565b7f50726f78792077616c6c657420616c7265616479206578697374730000000000600082015250565b6000620024ae601b8362001c44565b9150620024bb8262002476565b602082019050919050565b60006020820190508181036000830152620024e1816200249f565b9050919050565b60006020820190508181036000830152620025048184620022bb565b905092915050565b7f43616e63656c2073656c6c206f72646572206661696c65640000000000000000600082015250565b60006200254460188362001c44565b915062002551826200250c565b602082019050919050565b60006020820190508181036000830152620025778162002535565b9050919050565b60006200258b826200186a565b915062002598836200186a565b9250828202620025a8816200186a565b91508282048414831517620025c257620025c1620021cc565b5b5092915050565b7f4e487b7100000000000000000000000000000000000000000000000000000000600052601260045260246000fd5b600062002605826200186a565b915062002612836200186a565b925082620026255762002624620025c9565b5b828204905092915050565b60006200263e828762001f97565b60148201915062002650828662001fbc565b60208201915062002662828562001fbc565b60208201915062002674828462001fbc565b60208201915081905095945050505050565b600081905092915050565b7f19457468657265756d205369676e6564204d6573736167653a0a333200000000600082015250565b6000620026c9601c8362002686565b9150620026d68262002691565b601c82019050919050565b6000819050919050565b62002700620026fa8262001972565b620026e1565b82525050565b60006200271382620026ba565b9150620027218284620026eb565b60208201915081905092915050565b600060608201905062002747600083018662001be8565b62002756602083018562001f24565b62002765604083018462001be8565b949350505050565b600060ff82169050919050565b600062002787826200276d565b915062002794836200276d565b9250828201905060ff811115620027b057620027af620021cc565b5b92915050565b620027c1816200276d565b82525050565b6000608082019050620027de600083018762001f24565b620027ed6020830186620027b6565b620027fc604083018562001f24565b6200280b606083018462001f24565b9594505050505056fe608060405234801561001057600080fd5b50604051610ec4380380610ec4833981810160405281019061003291906100db565b806000806101000a81548173ffffffffffffffffffffffffffffffffffffffff021916908373ffffffffffffffffffffffffffffffffffffffff16021790555050610108565b600080fd5b600073ffffffffffffffffffffffffffffffffffffffff82169050919050565b60006100a88261007d565b9050919050565b6100b88161009d565b81146100c357600080fd5b50565b6000815190506100d5816100af565b92915050565b6000602082840312156100f1576100f0610078565b5b60006100ff848285016100c6565b91505092915050565b610dad806101176000396000f3fe608060405234801561001057600080fd5b506004361061004c5760003560e01c80631885ae10146100515780638eb6a489146100815780639b3f3f1a146100b1578063eb41850d146100cd575b600080fd5b61006b60048036038101906100669190610806565b6100fd565b604051610078919061087d565b60405180910390f35b61009b600480360381019061009691906108ce565b6102d6565b6040516100a8919061087d565b60405180910390f35b6100cb60048036038101906100c691906108fb565b6102f6565b005b6100e760048036038101906100e291906108ce565b6103af565b6040516100f4919061087d565b60405180910390f35b6000808360200151846040015185606001518660a00151876080015160405160200161012d959493929190610a1e565b604051602081830303815290604052805190602001209050428460a0015110156101645761015a816103d9565b60009150506102d0565b6001600082815260200190815260200160002060009054906101000a900460ff16156101c5576040517f08c379a00000000000000000000000000000000000000000000000000000000081526004016101bc90610ad6565b60405180910390fd5b6101eb846000015185602001518660400151876060015188608001518960a00151610407565b61022a576040517f08c379a000000000000000000000000000000000000000000000000000000000815260040161022190610b42565b60405180910390fd5b836060015183106102ca57836020015173ffffffffffffffffffffffffffffffffffffffff166323b872dd85600001513387604001516040518463ffffffff1660e01b815260040161027e93929190610b80565b600060405180830381600087803b15801561029857600080fd5b505af19250505080156102a9575060015b6102b75760009150506102d0565b6102c0816103d9565b60019150506102d0565b60009150505b92915050565b60016020528060005260406000206000915054906101000a900460ff1681565b61031c816000015182602001518360400151846060015185608001518660a00151610407565b61035b576040517f08c379a000000000000000000000000000000000000000000000000000000000815260040161035290610b42565b60405180910390fd5b60008160200151826040015183606001518460a00151856080015160405160200161038a959493929190610a1e565b6040516020818303038152906040528051906020012090506103ab816103d9565b5050565b60006001600083815260200190815260200160002060009054906101000a900460ff169050919050565b600180600083815260200190815260200160002060006101000a81548160ff02191690831515021790555050565b600080868686856040516020016104219493929190610bb7565b60405160208183030381529060405280519060200120905060008160405160200161044c9190610c7d565b6040516020818303038152906040528051906020012090508873ffffffffffffffffffffffffffffffffffffffff1661048582876104aa565b73ffffffffffffffffffffffffffffffffffffffff1614925050509695505050505050565b6000806000806020850151925060408501519150606085015160001a9050601b8160ff1610156104e457601b816104e19190610cdf565b90505b600186828585604051600081526020016040526040516105079493929190610d32565b6020604051602081039080840390855afa158015610529573d6000803e3d6000fd5b50505060206040510351935050505092915050565b6000604051905090565b600080fd5b600080fd5b600080fd5b6000601f19601f8301169050919050565b7f4e487b7100000000000000000000000000000000000000000000000000000000600052604160045260246000fd5b6105a082610557565b810181811067ffffffffffffffff821117156105bf576105be610568565b5b80604052505050565b60006105d261053e565b90506105de8282610597565b919050565b600080fd5b600073ffffffffffffffffffffffffffffffffffffffff82169050919050565b6000610613826105e8565b9050919050565b61062381610608565b811461062e57600080fd5b50565b6000813590506106408161061a565b92915050565b6000819050919050565b61065981610646565b811461066457600080fd5b50565b60008135905061067681610650565b92915050565b600080fd5b600080fd5b600067ffffffffffffffff8211156106a1576106a0610568565b5b6106aa82610557565b9050602081019050919050565b82818337600083830152505050565b60006106d96106d484610686565b6105c8565b9050828152602081018484840111156106f5576106f4610681565b5b6107008482856106b7565b509392505050565b600082601f83011261071d5761071c61067c565b5b813561072d8482602086016106c6565b91505092915050565b600060e0828403121561074c5761074b610552565b5b61075660e06105c8565b9050600061076684828501610631565b600083015250602061077a84828501610631565b602083015250604061078e84828501610667565b60408301525060606107a284828501610667565b606083015250608082013567ffffffffffffffff8111156107c6576107c56105e3565b5b6107d284828501610708565b60808301525060a06107e684828501610667565b60a08301525060c06107fa84828501610667565b60c08301525092915050565b6000806040838503121561081d5761081c610548565b5b600083013567ffffffffffffffff81111561083b5761083a61054d565b5b61084785828601610736565b925050602061085885828601610667565b9150509250929050565b60008115159050919050565b61087781610862565b82525050565b6000602082019050610892600083018461086e565b92915050565b6000819050919050565b6108ab81610898565b81146108b657600080fd5b50565b6000813590506108c8816108a2565b92915050565b6000602082840312156108e4576108e3610548565b5b60006108f2848285016108b9565b91505092915050565b60006020828403121561091157610910610548565b5b600082013567ffffffffffffffff81111561092f5761092e61054d565b5b61093b84828501610736565b91505092915050565b60008160601b9050919050565b600061095c82610944565b9050919050565b600061096e82610951565b9050919050565b61098661098182610608565b610963565b82525050565b6000819050919050565b6109a76109a282610646565b61098c565b82525050565b600081519050919050565b600081905092915050565b60005b838110156109e15780820151818401526020810190506109c6565b60008484015250505050565b60006109f8826109ad565b610a0281856109b8565b9350610a128185602086016109c3565b80840191505092915050565b6000610a2a8288610975565b601482019150610a3a8287610996565b602082019150610a4a8286610996565b602082019150610a5a8285610996565b602082019150610a6a82846109ed565b91508190509695505050505050565b600082825260208201905092915050565b7f4f7264657220686173206265656e207573656400000000000000000000000000600082015250565b6000610ac0601383610a79565b9150610acb82610a8a565b602082019050919050565b60006020820190508181036000830152610aef81610ab3565b9050919050565b7f496e76616c6964207369676e6174757265000000000000000000000000000000600082015250565b6000610b2c601183610a79565b9150610b3782610af6565b602082019050919050565b60006020820190508181036000830152610b5b81610b1f565b9050919050565b610b6b81610608565b82525050565b610b7a81610646565b82525050565b6000606082019050610b956000830186610b62565b610ba26020830185610b62565b610baf6040830184610b71565b949350505050565b6000610bc38287610975565b601482019150610bd38286610996565b602082019150610be38285610996565b602082019150610bf38284610996565b60208201915081905095945050505050565b600081905092915050565b7f19457468657265756d205369676e6564204d6573736167653a0a333200000000600082015250565b6000610c46601c83610c05565b9150610c5182610c10565b601c82019050919050565b6000819050919050565b610c77610c7282610898565b610c5c565b82525050565b6000610c8882610c39565b9150610c948284610c66565b60208201915081905092915050565b600060ff82169050919050565b7f4e487b7100000000000000000000000000000000000000000000000000000000600052601160045260246000fd5b6000610cea82610ca3565b9150610cf583610ca3565b9250828201905060ff811115610d0e57610d0d610cb0565b5b92915050565b610d1d81610898565b82525050565b610d2c81610ca3565b82525050565b6000608082019050610d476000830187610d14565b610d546020830186610d23565b610d616040830185610d14565b610d6e6060830184610d14565b9594505050505056fea2646970667358221220261e60164feed93a4824982c82c9cbbbf96fd045e99baca432b1e2e14ab55e1164736f6c63430008120033a2646970667358221220902f0448907563c792e77f75cd130254cdf60c239d47ef04ecfd50c669bc4a3964736f6c63430008120033",
					"opcodes": "PUSH1 0x80 PUSH1 0x40 MSTORE PUSH1 0x2 DUP1 SSTORE CALLVALUE DUP1 ISZERO PUSH3 0x15 JUMPI PUSH1 0x0 DUP1 REVERT JUMPDEST POP PUSH1 0x40 MLOAD PUSH3 0x383D CODESIZE SUB DUP1 PUSH3 0x383D DUP4 CODECOPY DUP2 DUP2 ADD PUSH1 0x40 MSTORE DUP2 ADD SWAP1 PUSH3 0x3B SWAP2 SWAP1 PUSH3 0xED JUMP JUMPDEST DUP1 PUSH1 0x3 PUSH1 0x0 PUSH2 0x100 EXP DUP2 SLOAD DUP2 PUSH20 0xFFFFFFFFFFFFFFFFFFFFFFFFFFFFFFFFFFFFFFFF MUL NOT AND SWAP1 DUP4 PUSH20 0xFFFFFFFFFFFFFFFFFFFFFFFFFFFFFFFFFFFFFFFF AND MUL OR SWAP1 SSTORE POP POP PUSH3 0x11F JUMP JUMPDEST PUSH1 0x0 DUP1 REVERT JUMPDEST PUSH1 0x0 PUSH20 0xFFFFFFFFFFFFFFFFFFFFFFFFFFFFFFFFFFFFFFFF DUP3 AND SWAP1 POP SWAP2 SWAP1 POP JUMP JUMPDEST PUSH1 0x0 PUSH3 0xB5 DUP3 PUSH3 0x88 JUMP JUMPDEST SWAP1 POP SWAP2 SWAP1 POP JUMP JUMPDEST PUSH3 0xC7 DUP2 PUSH3 0xA8 JUMP JUMPDEST DUP2 EQ PUSH3 0xD3 JUMPI PUSH1 0x0 DUP1 REVERT JUMPDEST POP JUMP JUMPDEST PUSH1 0x0 DUP2 MLOAD SWAP1 POP PUSH3 0xE7 DUP2 PUSH3 0xBC JUMP JUMPDEST SWAP3 SWAP2 POP POP JUMP JUMPDEST PUSH1 0x0 PUSH1 0x20 DUP3 DUP5 SUB SLT ISZERO PUSH3 0x106 JUMPI PUSH3 0x105 PUSH3 0x83 JUMP JUMPDEST JUMPDEST PUSH1 0x0 PUSH3 0x116 DUP5 DUP3 DUP6 ADD PUSH3 0xD6 JUMP JUMPDEST SWAP2 POP POP SWAP3 SWAP2 POP POP JUMP JUMPDEST PUSH2 0x370E DUP1 PUSH3 0x12F PUSH1 0x0 CODECOPY PUSH1 0x0 RETURN INVALID PUSH1 0x80 PUSH1 0x40 MSTORE PUSH1 0x4 CALLDATASIZE LT PUSH3 0x86 JUMPI PUSH1 0x0 CALLDATALOAD PUSH1 0xE0 SHR DUP1 PUSH4 0x7B84FDA5 GT PUSH3 0x55 JUMPI DUP1 PUSH4 0x7B84FDA5 EQ PUSH3 0x135 JUMPI DUP1 PUSH4 0x84E5EED0 EQ PUSH3 0x163 JUMPI DUP1 PUSH4 0xC2A1D6C9 EQ PUSH3 0x193 JUMPI DUP1 PUSH4 0xC465DB0A EQ PUSH3 0x1AD JUMPI PUSH3 0x86 JUMP JUMPDEST DUP1 PUSH4 0x7E4AC72 EQ PUSH3 0x8B JUMPI DUP1 PUSH4 0x1B5EA502 EQ PUSH3 0xB9 JUMPI DUP1 PUSH4 0x38813781 EQ PUSH3 0xE7 JUMPI DUP1 PUSH4 0x6AAE5CDA EQ PUSH3 0x107 JUMPI JUMPDEST PUSH1 0x0 DUP1 REVERT JUMPDEST CALLVALUE DUP1 ISZERO PUSH3 0x98 JUMPI PUSH1 0x0 DUP1 REVERT JUMPDEST POP PUSH3 0xB7 PUSH1 0x4 DUP1 CALLDATASIZE SUB DUP2 ADD SWAP1 PUSH3 0xB1 SWAP2 SWAP1 PUSH3 0x1799 JUMP JUMPDEST PUSH3 0x1F1 JUMP JUMPDEST STOP JUMPDEST CALLVALUE DUP1 ISZERO PUSH3 0xC6 JUMPI PUSH1 0x0 DUP1 REVERT JUMPDEST POP PUSH3 0xE5 PUSH1 0x4 DUP1 CALLDATASIZE SUB DUP2 ADD SWAP1 PUSH3 0xDF SWAP2 SWAP1 PUSH3 0x1A93 JUMP JUMPDEST PUSH3 0x2C8 JUMP JUMPDEST STOP JUMPDEST PUSH3 0x105 PUSH1 0x4 DUP1 CALLDATASIZE SUB DUP2 ADD SWAP1 PUSH3 0xFF SWAP2 SWAP1 PUSH3 0x1AE4 JUMP JUMPDEST PUSH3 0x34D JUMP JUMPDEST STOP JUMPDEST CALLVALUE DUP1 ISZERO PUSH3 0x114 JUMPI PUSH1 0x0 DUP1 REVERT JUMPDEST POP PUSH3 0x133 PUSH1 0x4 DUP1 CALLDATASIZE SUB DUP2 ADD SWAP1 PUSH3 0x12D SWAP2 SWAP1 PUSH3 0x1799 JUMP JUMPDEST PUSH3 0xCCF JUMP JUMPDEST STOP JUMPDEST CALLVALUE DUP1 ISZERO PUSH3 0x142 JUMPI PUSH1 0x0 DUP1 REVERT JUMPDEST POP PUSH3 0x161 PUSH1 0x4 DUP1 CALLDATASIZE SUB DUP2 ADD SWAP1 PUSH3 0x15B SWAP2 SWAP1 PUSH3 0x1BB6 JUMP JUMPDEST PUSH3 0xF0D JUMP JUMPDEST STOP JUMPDEST CALLVALUE DUP1 ISZERO PUSH3 0x170 JUMPI PUSH1 0x0 DUP1 REVERT JUMPDEST POP PUSH3 0x17B PUSH3 0xFED JUMP JUMPDEST PUSH1 0x40 MLOAD PUSH3 0x18A SWAP2 SWAP1 PUSH3 0x1BF9 JUMP JUMPDEST PUSH1 0x40 MLOAD DUP1 SWAP2 SUB SWAP1 RETURN JUMPDEST CALLVALUE DUP1 ISZERO PUSH3 0x1A0 JUMPI PUSH1 0x0 DUP1 REVERT JUMPDEST POP PUSH3 0x1AB PUSH3 0xFF7 JUMP JUMPDEST STOP JUMPDEST CALLVALUE DUP1 ISZERO PUSH3 0x1BA JUMPI PUSH1 0x0 DUP1 REVERT JUMPDEST POP PUSH3 0x1D9 PUSH1 0x4 DUP1 CALLDATASIZE SUB DUP2 ADD SWAP1 PUSH3 0x1D3 SWAP2 SWAP1 PUSH3 0x1799 JUMP JUMPDEST PUSH3 0x11E0 JUMP JUMPDEST PUSH1 0x40 MLOAD PUSH3 0x1E8 SWAP2 SWAP1 PUSH3 0x1C27 JUMP JUMPDEST PUSH1 0x40 MLOAD DUP1 SWAP2 SUB SWAP1 RETURN JUMPDEST PUSH1 0x3 PUSH1 0x0 SWAP1 SLOAD SWAP1 PUSH2 0x100 EXP SWAP1 DIV PUSH20 0xFFFFFFFFFFFFFFFFFFFFFFFFFFFFFFFFFFFFFFFF AND PUSH20 0xFFFFFFFFFFFFFFFFFFFFFFFFFFFFFFFFFFFFFFFF AND CALLER PUSH20 0xFFFFFFFFFFFFFFFFFFFFFFFFFFFFFFFFFFFFFFFF AND EQ PUSH3 0x284 JUMPI PUSH1 0x40 MLOAD PUSH32 0x8C379A000000000000000000000000000000000000000000000000000000000 DUP2 MSTORE PUSH1 0x4 ADD PUSH3 0x27B SWAP1 PUSH3 0x1CA5 JUMP JUMPDEST PUSH1 0x40 MLOAD DUP1 SWAP2 SUB SWAP1 REVERT JUMPDEST DUP1 PUSH1 0x1 PUSH1 0x0 PUSH2 0x100 EXP DUP2 SLOAD DUP2 PUSH20 0xFFFFFFFFFFFFFFFFFFFFFFFFFFFFFFFFFFFFFFFF MUL NOT AND SWAP1 DUP4 PUSH20 0xFFFFFFFFFFFFFFFFFFFFFFFFFFFFFFFFFFFFFFFF AND MUL OR SWAP1 SSTORE POP POP JUMP JUMPDEST DUP1 PUSH1 0x0 ADD MLOAD DUP1 PUSH20 0xFFFFFFFFFFFFFFFFFFFFFFFFFFFFFFFFFFFFFFFF AND CALLER PUSH20 0xFFFFFFFFFFFFFFFFFFFFFFFFFFFFFFFFFFFFFFFF AND EQ PUSH3 0x33E JUMPI PUSH1 0x40 MLOAD PUSH32 0x8C379A000000000000000000000000000000000000000000000000000000000 DUP2 MSTORE PUSH1 0x4 ADD PUSH3 0x335 SWAP1 PUSH3 0x1D3D JUMP JUMPDEST PUSH1 0x40 MLOAD DUP1 SWAP2 SUB SWAP1 REVERT JUMPDEST PUSH3 0x349 DUP3 PUSH3 0x1249 JUMP JUMPDEST POP POP JUMP JUMPDEST PUSH1 0x0 PUSH1 0x40 MLOAD DUP1 PUSH1 0xE0 ADD PUSH1 0x40 MSTORE DUP1 DUP10 PUSH20 0xFFFFFFFFFFFFFFFFFFFFFFFFFFFFFFFFFFFFFFFF AND DUP2 MSTORE PUSH1 0x20 ADD DUP9 PUSH20 0xFFFFFFFFFFFFFFFFFFFFFFFFFFFFFFFFFFFFFFFF AND DUP2 MSTORE PUSH1 0x20 ADD DUP8 DUP2 MSTORE PUSH1 0x20 ADD DUP7 DUP2 MSTORE PUSH1 0x20 ADD DUP6 DUP2 MSTORE PUSH1 0x20 ADD DUP5 DUP2 MSTORE PUSH1 0x20 ADD DUP4 DUP2 MSTORE POP SWAP1 POP PUSH1 0x0 CALLVALUE SWAP1 POP PUSH1 0x0 PUSH3 0x3E7 PUSH1 0x64 PUSH3 0x3D8 PUSH1 0x2 SLOAD DUP7 PUSH1 0x60 ADD MLOAD PUSH3 0x146D SWAP1 SWAP2 SWAP1 PUSH4 0xFFFFFFFF AND JUMP JUMPDEST PUSH3 0x1485 SWAP1 SWAP2 SWAP1 PUSH4 0xFFFFFFFF AND JUMP JUMPDEST SWAP1 POP PUSH3 0x411 DUP4 PUSH1 0x0 ADD MLOAD DUP5 PUSH1 0x20 ADD MLOAD DUP6 PUSH1 0x40 ADD MLOAD DUP7 PUSH1 0x60 ADD MLOAD DUP8 PUSH1 0x80 ADD MLOAD DUP9 PUSH1 0xA0 ADD MLOAD PUSH3 0x149D JUMP JUMPDEST PUSH3 0x453 JUMPI PUSH1 0x40 MLOAD PUSH32 0x8C379A000000000000000000000000000000000000000000000000000000000 DUP2 MSTORE PUSH1 0x4 ADD PUSH3 0x44A SWAP1 PUSH3 0x1DAF JUMP JUMPDEST PUSH1 0x40 MLOAD DUP1 SWAP2 SUB SWAP1 REVERT JUMPDEST PUSH1 0x0 PUSH1 0x4 PUSH1 0x0 CALLER PUSH20 0xFFFFFFFFFFFFFFFFFFFFFFFFFFFFFFFFFFFFFFFF AND PUSH20 0xFFFFFFFFFFFFFFFFFFFFFFFFFFFFFFFFFFFFFFFF AND DUP2 MSTORE PUSH1 0x20 ADD SWAP1 DUP2 MSTORE PUSH1 0x20 ADD PUSH1 0x0 KECCAK256 PUSH1 0x0 SWAP1 SLOAD SWAP1 PUSH2 0x100 EXP SWAP1 DIV PUSH20 0xFFFFFFFFFFFFFFFFFFFFFFFFFFFFFFFFFFFFFFFF AND SWAP1 POP PUSH1 0x0 PUSH1 0x4 PUSH1 0x0 DUP7 PUSH1 0x0 ADD MLOAD PUSH20 0xFFFFFFFFFFFFFFFFFFFFFFFFFFFFFFFFFFFFFFFF AND PUSH20 0xFFFFFFFFFFFFFFFFFFFFFFFFFFFFFFFFFFFFFFFF AND DUP2 MSTORE PUSH1 0x20 ADD SWAP1 DUP2 MSTORE PUSH1 0x20 ADD PUSH1 0x0 KECCAK256 PUSH1 0x0 SWAP1 SLOAD SWAP1 PUSH2 0x100 EXP SWAP1 DIV PUSH20 0xFFFFFFFFFFFFFFFFFFFFFFFFFFFFFFFFFFFFFFFF AND SWAP1 POP PUSH1 0x0 PUSH20 0xFFFFFFFFFFFFFFFFFFFFFFFFFFFFFFFFFFFFFFFF AND PUSH1 0x4 PUSH1 0x0 CALLER PUSH20 0xFFFFFFFFFFFFFFFFFFFFFFFFFFFFFFFFFFFFFFFF AND PUSH20 0xFFFFFFFFFFFFFFFFFFFFFFFFFFFFFFFFFFFFFFFF AND DUP2 MSTORE PUSH1 0x20 ADD SWAP1 DUP2 MSTORE PUSH1 0x20 ADD PUSH1 0x0 KECCAK256 PUSH1 0x0 SWAP1 SLOAD SWAP1 PUSH2 0x100 EXP SWAP1 DIV PUSH20 0xFFFFFFFFFFFFFFFFFFFFFFFFFFFFFFFFFFFFFFFF AND PUSH20 0xFFFFFFFFFFFFFFFFFFFFFFFFFFFFFFFFFFFFFFFF AND SUB PUSH3 0x5F0 JUMPI PUSH1 0x40 MLOAD PUSH32 0x8C379A000000000000000000000000000000000000000000000000000000000 DUP2 MSTORE PUSH1 0x4 ADD PUSH3 0x5E7 SWAP1 PUSH3 0x1E21 JUMP JUMPDEST PUSH1 0x40 MLOAD DUP1 SWAP2 SUB SWAP1 REVERT JUMPDEST PUSH1 0x0 PUSH20 0xFFFFFFFFFFFFFFFFFFFFFFFFFFFFFFFFFFFFFFFF AND PUSH1 0x4 PUSH1 0x0 DUP8 PUSH1 0x0 ADD MLOAD PUSH20 0xFFFFFFFFFFFFFFFFFFFFFFFFFFFFFFFFFFFFFFFF AND PUSH20 0xFFFFFFFFFFFFFFFFFFFFFFFFFFFFFFFFFFFFFFFF AND DUP2 MSTORE PUSH1 0x20 ADD SWAP1 DUP2 MSTORE PUSH1 0x20 ADD PUSH1 0x0 KECCAK256 PUSH1 0x0 SWAP1 SLOAD SWAP1 PUSH2 0x100 EXP SWAP1 DIV PUSH20 0xFFFFFFFFFFFFFFFFFFFFFFFFFFFFFFFFFFFFFFFF AND PUSH20 0xFFFFFFFFFFFFFFFFFFFFFFFFFFFFFFFFFFFFFFFF AND SUB PUSH3 0x6C5 JUMPI PUSH1 0x40 MLOAD PUSH32 0x8C379A000000000000000000000000000000000000000000000000000000000 DUP2 MSTORE PUSH1 0x4 ADD PUSH3 0x6BC SWAP1 PUSH3 0x1E21 JUMP JUMPDEST PUSH1 0x40 MLOAD DUP1 SWAP2 SUB SWAP1 REVERT JUMPDEST DUP5 PUSH1 0x0 ADD MLOAD PUSH20 0xFFFFFFFFFFFFFFFFFFFFFFFFFFFFFFFFFFFFFFFF AND DUP6 PUSH1 0x20 ADD MLOAD PUSH20 0xFFFFFFFFFFFFFFFFFFFFFFFFFFFFFFFFFFFFFFFF AND PUSH4 0x6352211E DUP8 PUSH1 0x40 ADD MLOAD PUSH1 0x40 MLOAD DUP3 PUSH4 0xFFFFFFFF AND PUSH1 0xE0 SHL DUP2 MSTORE PUSH1 0x4 ADD PUSH3 0x723 SWAP2 SWAP1 PUSH3 0x1BF9 JUMP JUMPDEST PUSH1 0x20 PUSH1 0x40 MLOAD DUP1 DUP4 SUB DUP2 DUP7 GAS STATICCALL ISZERO DUP1 ISZERO PUSH3 0x741 JUMPI RETURNDATASIZE PUSH1 0x0 DUP1 RETURNDATACOPY RETURNDATASIZE PUSH1 0x0 REVERT JUMPDEST POP POP POP POP PUSH1 0x40 MLOAD RETURNDATASIZE PUSH1 0x1F NOT PUSH1 0x1F DUP3 ADD AND DUP3 ADD DUP1 PUSH1 0x40 MSTORE POP DUP2 ADD SWAP1 PUSH3 0x767 SWAP2 SWAP1 PUSH3 0x1E5A JUMP JUMPDEST PUSH20 0xFFFFFFFFFFFFFFFFFFFFFFFFFFFFFFFFFFFFFFFF AND EQ PUSH3 0x7C0 JUMPI PUSH1 0x40 MLOAD PUSH32 0x8C379A000000000000000000000000000000000000000000000000000000000 DUP2 MSTORE PUSH1 0x4 ADD PUSH3 0x7B7 SWAP1 PUSH3 0x1F02 JUMP JUMPDEST PUSH1 0x40 MLOAD DUP1 SWAP2 SUB SWAP1 REVERT JUMPDEST DUP5 PUSH1 0xA0 ADD MLOAD TIMESTAMP GT ISZERO PUSH3 0x85C JUMPI PUSH3 0x7D8 DUP6 PUSH3 0x1249 JUMP JUMPDEST DUP5 PUSH1 0x20 ADD MLOAD PUSH20 0xFFFFFFFFFFFFFFFFFFFFFFFFFFFFFFFFFFFFFFFF AND DUP6 PUSH1 0x0 ADD MLOAD PUSH20 0xFFFFFFFFFFFFFFFFFFFFFFFFFFFFFFFFFFFFFFFF AND PUSH32 0x68138F0EE854A322025BC4FDF83BF151264D42CBC5930A3AFC396A82980028D6 DUP8 PUSH1 0xC0 ADD MLOAD DUP9 PUSH1 0x40 ADD MLOAD PUSH1 0x40 MLOAD PUSH3 0x849 SWAP3 SWAP2 SWAP1 PUSH3 0x1F35 JUMP JUMPDEST PUSH1 0x40 MLOAD DUP1 SWAP2 SUB SWAP1 LOG3 POP POP POP POP POP PUSH3 0xCC6 JUMP JUMPDEST PUSH1 0x0 DUP6 PUSH1 0x20 ADD MLOAD DUP7 PUSH1 0x40 ADD MLOAD DUP8 PUSH1 0x60 ADD MLOAD DUP9 PUSH1 0xA0 ADD MLOAD DUP10 PUSH1 0x80 ADD MLOAD PUSH1 0x40 MLOAD PUSH1 0x20 ADD PUSH3 0x88D SWAP6 SWAP5 SWAP4 SWAP3 SWAP2 SWAP1 PUSH3 0x2050 JUMP JUMPDEST PUSH1 0x40 MLOAD PUSH1 0x20 DUP2 DUP4 SUB SUB DUP2 MSTORE SWAP1 PUSH1 0x40 MSTORE DUP1 MLOAD SWAP1 PUSH1 0x20 ADD KECCAK256 SWAP1 POP PUSH1 0x0 DUP1 DUP4 PUSH20 0xFFFFFFFFFFFFFFFFFFFFFFFFFFFFFFFFFFFFFFFF AND DUP4 PUSH1 0x40 MLOAD PUSH1 0x24 ADD PUSH3 0x8D2 SWAP2 SWAP1 PUSH3 0x20B5 JUMP JUMPDEST PUSH1 0x40 MLOAD PUSH1 0x20 DUP2 DUP4 SUB SUB DUP2 MSTORE SWAP1 PUSH1 0x40 MSTORE PUSH32 0xF099462000000000000000000000000000000000000000000000000000000000 PUSH28 0xFFFFFFFFFFFFFFFFFFFFFFFFFFFFFFFFFFFFFFFFFFFFFFFFFFFFFFFF NOT AND PUSH1 0x20 DUP3 ADD DUP1 MLOAD PUSH28 0xFFFFFFFFFFFFFFFFFFFFFFFFFFFFFFFFFFFFFFFFFFFFFFFFFFFFFFFF DUP4 DUP2 DUP4 AND OR DUP4 MSTORE POP POP POP POP PUSH1 0x40 MLOAD PUSH3 0x95E SWAP2 SWAP1 PUSH3 0x20D2 JUMP JUMPDEST PUSH1 0x0 PUSH1 0x40 MLOAD DUP1 DUP4 SUB DUP2 DUP6 GAS DELEGATECALL SWAP2 POP POP RETURNDATASIZE DUP1 PUSH1 0x0 DUP2 EQ PUSH3 0x99B JUMPI PUSH1 0x40 MLOAD SWAP2 POP PUSH1 0x1F NOT PUSH1 0x3F RETURNDATASIZE ADD AND DUP3 ADD PUSH1 0x40 MSTORE RETURNDATASIZE DUP3 MSTORE RETURNDATASIZE PUSH1 0x0 PUSH1 0x20 DUP5 ADD RETURNDATACOPY PUSH3 0x9A0 JUMP JUMPDEST PUSH1 0x60 SWAP2 POP JUMPDEST POP SWAP2 POP SWAP2 POP PUSH1 0x0 DUP2 DUP1 PUSH1 0x20 ADD SWAP1 MLOAD DUP2 ADD SWAP1 PUSH3 0x9BD SWAP2 SWAP1 PUSH3 0x2128 JUMP JUMPDEST SWAP1 POP DUP3 DUP1 ISZERO PUSH3 0x9CB JUMPI POP DUP1 ISZERO JUMPDEST PUSH3 0xA0D JUMPI PUSH1 0x40 MLOAD PUSH32 0x8C379A000000000000000000000000000000000000000000000000000000000 DUP2 MSTORE PUSH1 0x4 ADD PUSH3 0xA04 SWAP1 PUSH3 0x21AA JUMP JUMPDEST PUSH1 0x40 MLOAD DUP1 SWAP2 SUB SWAP1 REVERT JUMPDEST PUSH1 0x0 DUP1 DUP7 PUSH20 0xFFFFFFFFFFFFFFFFFFFFFFFFFFFFFFFFFFFFFFFF AND DUP12 DUP11 DUP13 PUSH3 0xA36 SWAP2 SWAP1 PUSH3 0x21FB JUMP JUMPDEST PUSH1 0x40 MLOAD PUSH1 0x24 ADD PUSH3 0xA49 SWAP3 SWAP2 SWAP1 PUSH3 0x2365 JUMP JUMPDEST PUSH1 0x40 MLOAD PUSH1 0x20 DUP2 DUP4 SUB SUB DUP2 MSTORE SWAP1 PUSH1 0x40 MSTORE PUSH32 0x508C70EA00000000000000000000000000000000000000000000000000000000 PUSH28 0xFFFFFFFFFFFFFFFFFFFFFFFFFFFFFFFFFFFFFFFFFFFFFFFFFFFFFFFF NOT AND PUSH1 0x20 DUP3 ADD DUP1 MLOAD PUSH28 0xFFFFFFFFFFFFFFFFFFFFFFFFFFFFFFFFFFFFFFFFFFFFFFFFFFFFFFFF DUP4 DUP2 DUP4 AND OR DUP4 MSTORE POP POP POP POP PUSH1 0x40 MLOAD PUSH3 0xAD5 SWAP2 SWAP1 PUSH3 0x20D2 JUMP JUMPDEST PUSH1 0x0 PUSH1 0x40 MLOAD DUP1 DUP4 SUB DUP2 PUSH1 0x0 DUP7 GAS CALL SWAP2 POP POP RETURNDATASIZE DUP1 PUSH1 0x0 DUP2 EQ PUSH3 0xB14 JUMPI PUSH1 0x40 MLOAD SWAP2 POP PUSH1 0x1F NOT PUSH1 0x3F RETURNDATASIZE ADD AND DUP3 ADD PUSH1 0x40 MSTORE RETURNDATASIZE DUP3 MSTORE RETURNDATASIZE PUSH1 0x0 PUSH1 0x20 DUP5 ADD RETURNDATACOPY PUSH3 0xB19 JUMP JUMPDEST PUSH1 0x60 SWAP2 POP JUMPDEST POP SWAP2 POP SWAP2 POP PUSH1 0x0 DUP2 DUP1 PUSH1 0x20 ADD SWAP1 MLOAD DUP2 ADD SWAP1 PUSH3 0xB36 SWAP2 SWAP1 PUSH3 0x2128 JUMP JUMPDEST SWAP1 POP DUP3 DUP1 ISZERO PUSH3 0xB43 JUMPI POP DUP1 JUMPDEST ISZERO PUSH3 0xCAD JUMPI PUSH3 0xB54 DUP13 PUSH3 0x1546 JUMP JUMPDEST PUSH1 0x1 PUSH1 0x0 SWAP1 SLOAD SWAP1 PUSH2 0x100 EXP SWAP1 DIV PUSH20 0xFFFFFFFFFFFFFFFFFFFFFFFFFFFFFFFFFFFFFFFF AND PUSH20 0xFFFFFFFFFFFFFFFFFFFFFFFFFFFFFFFFFFFFFFFF AND PUSH2 0x8FC DUP12 SWAP1 DUP2 ISZERO MUL SWAP1 PUSH1 0x40 MLOAD PUSH1 0x0 PUSH1 0x40 MLOAD DUP1 DUP4 SUB DUP2 DUP6 DUP9 DUP9 CALL SWAP4 POP POP POP POP ISZERO DUP1 ISZERO PUSH3 0xBBD JUMPI RETURNDATASIZE PUSH1 0x0 DUP1 RETURNDATACOPY RETURNDATASIZE PUSH1 0x0 REVERT JUMPDEST POP DUP12 PUSH1 0x0 ADD MLOAD PUSH20 0xFFFFFFFFFFFFFFFFFFFFFFFFFFFFFFFFFFFFFFFF AND PUSH2 0x8FC DUP12 DUP14 PUSH3 0xBEA SWAP2 SWAP1 PUSH3 0x21FB JUMP JUMPDEST SWAP1 DUP2 ISZERO MUL SWAP1 PUSH1 0x40 MLOAD PUSH1 0x0 PUSH1 0x40 MLOAD DUP1 DUP4 SUB DUP2 DUP6 DUP9 DUP9 CALL SWAP4 POP POP POP POP PUSH3 0xCA7 JUMPI CALLER PUSH20 0xFFFFFFFFFFFFFFFFFFFFFFFFFFFFFFFFFFFFFFFF AND PUSH2 0x8FC DUP12 DUP14 PUSH3 0xC31 SWAP2 SWAP1 PUSH3 0x21FB JUMP JUMPDEST SWAP1 DUP2 ISZERO MUL SWAP1 PUSH1 0x40 MLOAD PUSH1 0x0 PUSH1 0x40 MLOAD DUP1 DUP4 SUB DUP2 DUP6 DUP9 DUP9 CALL SWAP4 POP POP POP POP ISZERO DUP1 ISZERO PUSH3 0xC5D JUMPI RETURNDATASIZE PUSH1 0x0 DUP1 RETURNDATACOPY RETURNDATASIZE PUSH1 0x0 REVERT JUMPDEST POP CALLER PUSH20 0xFFFFFFFFFFFFFFFFFFFFFFFFFFFFFFFFFFFFFFFF AND PUSH2 0x8FC DUP12 SWAP1 DUP2 ISZERO MUL SWAP1 PUSH1 0x40 MLOAD PUSH1 0x0 PUSH1 0x40 MLOAD DUP1 DUP4 SUB DUP2 DUP6 DUP9 DUP9 CALL SWAP4 POP POP POP POP ISZERO DUP1 ISZERO PUSH3 0xCA5 JUMPI RETURNDATASIZE PUSH1 0x0 DUP1 RETURNDATACOPY RETURNDATASIZE PUSH1 0x0 REVERT JUMPDEST POP JUMPDEST PUSH3 0xCB9 JUMP JUMPDEST PUSH3 0xCB8 DUP13 PUSH3 0x15DF JUMP JUMPDEST JUMPDEST POP POP POP POP POP POP POP POP POP POP POP POP JUMPDEST POP POP POP POP POP POP POP JUMP JUMPDEST PUSH1 0x0 PUSH20 0xFFFFFFFFFFFFFFFFFFFFFFFFFFFFFFFFFFFFFFFF AND PUSH1 0x4 PUSH1 0x0 CALLER PUSH20 0xFFFFFFFFFFFFFFFFFFFFFFFFFFFFFFFFFFFFFFFF AND PUSH20 0xFFFFFFFFFFFFFFFFFFFFFFFFFFFFFFFFFFFFFFFF AND DUP2 MSTORE PUSH1 0x20 ADD SWAP1 DUP2 MSTORE PUSH1 0x20 ADD PUSH1 0x0 KECCAK256 PUSH1 0x0 SWAP1 SLOAD SWAP1 PUSH2 0x100 EXP SWAP1 DIV PUSH20 0xFFFFFFFFFFFFFFFFFFFFFFFFFFFFFFFFFFFFFFFF AND PUSH20 0xFFFFFFFFFFFFFFFFFFFFFFFFFFFFFFFFFFFFFFFF AND SUB PUSH3 0xDA0 JUMPI PUSH1 0x40 MLOAD PUSH32 0x8C379A000000000000000000000000000000000000000000000000000000000 DUP2 MSTORE PUSH1 0x4 ADD PUSH3 0xD97 SWAP1 PUSH3 0x23E9 JUMP JUMPDEST PUSH1 0x40 MLOAD DUP1 SWAP2 SUB SWAP1 REVERT JUMPDEST PUSH1 0x0 PUSH1 0x4 PUSH1 0x0 CALLER PUSH20 0xFFFFFFFFFFFFFFFFFFFFFFFFFFFFFFFFFFFFFFFF AND PUSH20 0xFFFFFFFFFFFFFFFFFFFFFFFFFFFFFFFFFFFFFFFF AND DUP2 MSTORE PUSH1 0x20 ADD SWAP1 DUP2 MSTORE PUSH1 0x20 ADD PUSH1 0x0 KECCAK256 PUSH1 0x0 SWAP1 SLOAD SWAP1 PUSH2 0x100 EXP SWAP1 DIV PUSH20 0xFFFFFFFFFFFFFFFFFFFFFFFFFFFFFFFFFFFFFFFF AND SWAP1 POP PUSH1 0x0 DUP1 DUP4 PUSH20 0xFFFFFFFFFFFFFFFFFFFFFFFFFFFFFFFFFFFFFFFF AND DUP4 PUSH1 0x1 PUSH1 0x40 MLOAD PUSH1 0x24 ADD PUSH3 0xE34 SWAP3 SWAP2 SWAP1 PUSH3 0x241C JUMP JUMPDEST PUSH1 0x40 MLOAD PUSH1 0x20 DUP2 DUP4 SUB SUB DUP2 MSTORE SWAP1 PUSH1 0x40 MSTORE PUSH32 0x531AC34600000000000000000000000000000000000000000000000000000000 PUSH28 0xFFFFFFFFFFFFFFFFFFFFFFFFFFFFFFFFFFFFFFFFFFFFFFFFFFFFFFFF NOT AND PUSH1 0x20 DUP3 ADD DUP1 MLOAD PUSH28 0xFFFFFFFFFFFFFFFFFFFFFFFFFFFFFFFFFFFFFFFFFFFFFFFFFFFFFFFF DUP4 DUP2 DUP4 AND OR DUP4 MSTORE POP POP POP POP PUSH1 0x40 MLOAD PUSH3 0xEC0 SWAP2 SWAP1 PUSH3 0x20D2 JUMP JUMPDEST PUSH1 0x0 PUSH1 0x40 MLOAD DUP1 DUP4 SUB DUP2 DUP6 GAS DELEGATECALL SWAP2 POP POP RETURNDATASIZE DUP1 PUSH1 0x0 DUP2 EQ PUSH3 0xEFD JUMPI PUSH1 0x40 MLOAD SWAP2 POP PUSH1 0x1F NOT PUSH1 0x3F RETURNDATASIZE ADD AND DUP3 ADD PUSH1 0x40 MSTORE RETURNDATASIZE DUP3 MSTORE RETURNDATASIZE PUSH1 0x0 PUSH1 0x20 DUP5 ADD RETURNDATACOPY PUSH3 0xF02 JUMP JUMPDEST PUSH1 0x60 SWAP2 POP JUMPDEST POP SWAP2 POP SWAP2 POP POP POP POP POP JUMP JUMPDEST PUSH1 0x3 PUSH1 0x0 SWAP1 SLOAD SWAP1 PUSH2 0x100 EXP SWAP1 DIV PUSH20 0xFFFFFFFFFFFFFFFFFFFFFFFFFFFFFFFFFFFFFFFF AND PUSH20 0xFFFFFFFFFFFFFFFFFFFFFFFFFFFFFFFFFFFFFFFF AND CALLER PUSH20 0xFFFFFFFFFFFFFFFFFFFFFFFFFFFFFFFFFFFFFFFF AND EQ PUSH3 0xFA0 JUMPI PUSH1 0x40 MLOAD PUSH32 0x8C379A000000000000000000000000000000000000000000000000000000000 DUP2 MSTORE PUSH1 0x4 ADD PUSH3 0xF97 SWAP1 PUSH3 0x1CA5 JUMP JUMPDEST PUSH1 0x40 MLOAD DUP1 SWAP2 SUB SWAP1 REVERT JUMPDEST PUSH1 0x0 PUSH1 0x2 SLOAD SWAP1 POP DUP2 PUSH1 0x2 DUP2 SWAP1 SSTORE POP PUSH32 0x8D10D6DD6545B059182E4BF9534308BF75D7DE65CDD8A68C12B7B74F139E58AE DUP2 DUP4 PUSH1 0x40 MLOAD PUSH3 0xFE1 SWAP3 SWAP2 SWAP1 PUSH3 0x2449 JUMP JUMPDEST PUSH1 0x40 MLOAD DUP1 SWAP2 SUB SWAP1 LOG1 POP POP JUMP JUMPDEST PUSH1 0x0 PUSH1 0x2 SLOAD SWAP1 POP SWAP1 JUMP JUMPDEST PUSH1 0x0 PUSH20 0xFFFFFFFFFFFFFFFFFFFFFFFFFFFFFFFFFFFFFFFF AND PUSH1 0x4 PUSH1 0x0 CALLER PUSH20 0xFFFFFFFFFFFFFFFFFFFFFFFFFFFFFFFFFFFFFFFF AND PUSH20 0xFFFFFFFFFFFFFFFFFFFFFFFFFFFFFFFFFFFFFFFF AND DUP2 MSTORE PUSH1 0x20 ADD SWAP1 DUP2 MSTORE PUSH1 0x20 ADD PUSH1 0x0 KECCAK256 PUSH1 0x0 SWAP1 SLOAD SWAP1 PUSH2 0x100 EXP SWAP1 DIV PUSH20 0xFFFFFFFFFFFFFFFFFFFFFFFFFFFFFFFFFFFFFFFF AND PUSH20 0xFFFFFFFFFFFFFFFFFFFFFFFFFFFFFFFFFFFFFFFF AND EQ PUSH3 0x10C8 JUMPI PUSH1 0x40 MLOAD PUSH32 0x8C379A000000000000000000000000000000000000000000000000000000000 DUP2 MSTORE PUSH1 0x4 ADD PUSH3 0x10BF SWAP1 PUSH3 0x24C6 JUMP JUMPDEST PUSH1 0x40 MLOAD DUP1 SWAP2 SUB SWAP1 REVERT JUMPDEST CALLER PUSH1 0x40 MLOAD PUSH3 0x10D7 SWAP1 PUSH3 0x1712 JUMP JUMPDEST PUSH3 0x10E3 SWAP2 SWAP1 PUSH3 0x1C27 JUMP JUMPDEST PUSH1 0x40 MLOAD DUP1 SWAP2 SUB SWAP1 PUSH1 0x0 CREATE DUP1 ISZERO DUP1 ISZERO PUSH3 0x1100 JUMPI RETURNDATASIZE PUSH1 0x0 DUP1 RETURNDATACOPY RETURNDATASIZE PUSH1 0x0 REVERT JUMPDEST POP PUSH1 0x0 DUP1 PUSH2 0x100 EXP DUP2 SLOAD DUP2 PUSH20 0xFFFFFFFFFFFFFFFFFFFFFFFFFFFFFFFFFFFFFFFF MUL NOT AND SWAP1 DUP4 PUSH20 0xFFFFFFFFFFFFFFFFFFFFFFFFFFFFFFFFFFFFFFFF AND MUL OR SWAP1 SSTORE POP PUSH1 0x0 DUP1 SLOAD SWAP1 PUSH2 0x100 EXP SWAP1 DIV PUSH20 0xFFFFFFFFFFFFFFFFFFFFFFFFFFFFFFFFFFFFFFFF AND PUSH1 0x4 PUSH1 0x0 CALLER PUSH20 0xFFFFFFFFFFFFFFFFFFFFFFFFFFFFFFFFFFFFFFFF AND PUSH20 0xFFFFFFFFFFFFFFFFFFFFFFFFFFFFFFFFFFFFFFFF AND DUP2 MSTORE PUSH1 0x20 ADD SWAP1 DUP2 MSTORE PUSH1 0x20 ADD PUSH1 0x0 KECCAK256 PUSH1 0x0 PUSH2 0x100 EXP DUP2 SLOAD DUP2 PUSH20 0xFFFFFFFFFFFFFFFFFFFFFFFFFFFFFFFFFFFFFFFF MUL NOT AND SWAP1 DUP4 PUSH20 0xFFFFFFFFFFFFFFFFFFFFFFFFFFFFFFFFFFFFFFFF AND MUL OR SWAP1 SSTORE POP JUMP JUMPDEST PUSH1 0x0 PUSH1 0x4 PUSH1 0x0 DUP4 PUSH20 0xFFFFFFFFFFFFFFFFFFFFFFFFFFFFFFFFFFFFFFFF AND PUSH20 0xFFFFFFFFFFFFFFFFFFFFFFFFFFFFFFFFFFFFFFFF AND DUP2 MSTORE PUSH1 0x20 ADD SWAP1 DUP2 MSTORE PUSH1 0x20 ADD PUSH1 0x0 KECCAK256 PUSH1 0x0 SWAP1 SLOAD SWAP1 PUSH2 0x100 EXP SWAP1 DIV PUSH20 0xFFFFFFFFFFFFFFFFFFFFFFFFFFFFFFFFFFFFFFFF AND SWAP1 POP SWAP2 SWAP1 POP JUMP JUMPDEST PUSH1 0x0 DUP1 PUSH1 0x4 PUSH1 0x0 DUP5 PUSH1 0x0 ADD MLOAD PUSH20 0xFFFFFFFFFFFFFFFFFFFFFFFFFFFFFFFFFFFFFFFF AND PUSH20 0xFFFFFFFFFFFFFFFFFFFFFFFFFFFFFFFFFFFFFFFF AND DUP2 MSTORE PUSH1 0x20 ADD SWAP1 DUP2 MSTORE PUSH1 0x20 ADD PUSH1 0x0 KECCAK256 PUSH1 0x0 SWAP1 SLOAD SWAP1 PUSH2 0x100 EXP SWAP1 DIV PUSH20 0xFFFFFFFFFFFFFFFFFFFFFFFFFFFFFFFFFFFFFFFF AND PUSH20 0xFFFFFFFFFFFFFFFFFFFFFFFFFFFFFFFFFFFFFFFF AND DUP4 PUSH1 0x40 MLOAD PUSH1 0x24 ADD PUSH3 0x12D9 SWAP2 SWAP1 PUSH3 0x24E8 JUMP JUMPDEST PUSH1 0x40 MLOAD PUSH1 0x20 DUP2 DUP4 SUB SUB DUP2 MSTORE SWAP1 PUSH1 0x40 MSTORE PUSH32 0x2C7ADE5E00000000000000000000000000000000000000000000000000000000 PUSH28 0xFFFFFFFFFFFFFFFFFFFFFFFFFFFFFFFFFFFFFFFFFFFFFFFFFFFFFFFF NOT AND PUSH1 0x20 DUP3 ADD DUP1 MLOAD PUSH28 0xFFFFFFFFFFFFFFFFFFFFFFFFFFFFFFFFFFFFFFFFFFFFFFFFFFFFFFFF DUP4 DUP2 DUP4 AND OR DUP4 MSTORE POP POP POP POP PUSH1 0x40 MLOAD PUSH3 0x1365 SWAP2 SWAP1 PUSH3 0x20D2 JUMP JUMPDEST PUSH1 0x0 PUSH1 0x40 MLOAD DUP1 DUP4 SUB DUP2 DUP6 GAS DELEGATECALL SWAP2 POP POP RETURNDATASIZE DUP1 PUSH1 0x0 DUP2 EQ PUSH3 0x13A2 JUMPI PUSH1 0x40 MLOAD SWAP2 POP PUSH1 0x1F NOT PUSH1 0x3F RETURNDATASIZE ADD AND DUP3 ADD PUSH1 0x40 MSTORE RETURNDATASIZE DUP3 MSTORE RETURNDATASIZE PUSH1 0x0 PUSH1 0x20 DUP5 ADD RETURNDATACOPY PUSH3 0x13A7 JUMP JUMPDEST PUSH1 0x60 SWAP2 POP JUMPDEST POP SWAP2 POP SWAP2 POP DUP2 PUSH3 0x13EF JUMPI PUSH1 0x40 MLOAD PUSH32 0x8C379A000000000000000000000000000000000000000000000000000000000 DUP2 MSTORE PUSH1 0x4 ADD PUSH3 0x13E6 SWAP1 PUSH3 0x255C JUMP JUMPDEST PUSH1 0x40 MLOAD DUP1 SWAP2 SUB SWAP1 REVERT JUMPDEST DUP3 PUSH1 0x20 ADD MLOAD PUSH20 0xFFFFFFFFFFFFFFFFFFFFFFFFFFFFFFFFFFFFFFFF AND DUP4 PUSH1 0x0 ADD MLOAD PUSH20 0xFFFFFFFFFFFFFFFFFFFFFFFFFFFFFFFFFFFFFFFF AND PUSH32 0x9B3260990101A9C5EB670B44BA2F4EC1048DDAF533A012ABFF3841EF15307FEC DUP6 PUSH1 0xC0 ADD MLOAD DUP7 PUSH1 0x40 ADD MLOAD PUSH1 0x40 MLOAD PUSH3 0x1460 SWAP3 SWAP2 SWAP1 PUSH3 0x1F35 JUMP JUMPDEST PUSH1 0x40 MLOAD DUP1 SWAP2 SUB SWAP1 LOG3 POP POP POP JUMP JUMPDEST PUSH1 0x0 DUP2 DUP4 PUSH3 0x147D SWAP2 SWAP1 PUSH3 0x257E JUMP JUMPDEST SWAP1 POP SWAP3 SWAP2 POP POP JUMP JUMPDEST PUSH1 0x0 DUP2 DUP4 PUSH3 0x1495 SWAP2 SWAP1 PUSH3 0x25F8 JUMP JUMPDEST SWAP1 POP SWAP3 SWAP2 POP POP JUMP JUMPDEST PUSH1 0x0 DUP1 DUP7 DUP7 DUP7 DUP6 PUSH1 0x40 MLOAD PUSH1 0x20 ADD PUSH3 0x14B9 SWAP5 SWAP4 SWAP3 SWAP2 SWAP1 PUSH3 0x2630 JUMP JUMPDEST PUSH1 0x40 MLOAD PUSH1 0x20 DUP2 DUP4 SUB SUB DUP2 MSTORE SWAP1 PUSH1 0x40 MSTORE DUP1 MLOAD SWAP1 PUSH1 0x20 ADD KECCAK256 SWAP1 POP PUSH1 0x0 DUP2 PUSH1 0x40 MLOAD PUSH1 0x20 ADD PUSH3 0x14E6 SWAP2 SWAP1 PUSH3 0x2706 JUMP JUMPDEST PUSH1 0x40 MLOAD PUSH1 0x20 DUP2 DUP4 SUB SUB DUP2 MSTORE SWAP1 PUSH1 0x40 MSTORE DUP1 MLOAD SWAP1 PUSH1 0x20 ADD KECCAK256 SWAP1 POP DUP9 PUSH20 0xFFFFFFFFFFFFFFFFFFFFFFFFFFFFFFFFFFFFFFFF AND PUSH3 0x1521 DUP3 DUP8 PUSH3 0x1678 JUMP JUMPDEST PUSH20 0xFFFFFFFFFFFFFFFFFFFFFFFFFFFFFFFFFFFFFFFF AND EQ SWAP3 POP POP POP SWAP7 SWAP6 POP POP POP POP POP POP JUMP JUMPDEST DUP1 PUSH1 0x20 ADD MLOAD PUSH20 0xFFFFFFFFFFFFFFFFFFFFFFFFFFFFFFFFFFFFFFFF AND CALLER PUSH20 0xFFFFFFFFFFFFFFFFFFFFFFFFFFFFFFFFFFFFFFFF AND DUP3 PUSH1 0x0 ADD MLOAD PUSH20 0xFFFFFFFFFFFFFFFFFFFFFFFFFFFFFFFFFFFFFFFF AND PUSH32 0x467F50BD8D1547CF60E60DBA76AB3FF7F8B3A07CEBA26C2268E160A7DF30230E DUP5 PUSH1 0x40 ADD MLOAD DUP6 PUSH1 0xC0 ADD MLOAD DUP7 PUSH1 0x60 ADD MLOAD PUSH1 0x40 MLOAD PUSH3 0x15D4 SWAP4 SWAP3 SWAP2 SWAP1 PUSH3 0x2730 JUMP JUMPDEST PUSH1 0x40 MLOAD DUP1 SWAP2 SUB SWAP1 LOG4 POP JUMP JUMPDEST DUP1 PUSH1 0x20 ADD MLOAD PUSH20 0xFFFFFFFFFFFFFFFFFFFFFFFFFFFFFFFFFFFFFFFF AND CALLER PUSH20 0xFFFFFFFFFFFFFFFFFFFFFFFFFFFFFFFFFFFFFFFF AND DUP3 PUSH1 0x0 ADD MLOAD PUSH20 0xFFFFFFFFFFFFFFFFFFFFFFFFFFFFFFFFFFFFFFFF AND PUSH32 0x9BD8CC9F795935D6F423445D18DD997EDFEEC3D962973FADFFEAC5740E876B5F DUP5 PUSH1 0x40 ADD MLOAD DUP6 PUSH1 0xC0 ADD MLOAD DUP7 PUSH1 0x60 ADD MLOAD PUSH1 0x40 MLOAD PUSH3 0x166D SWAP4 SWAP3 SWAP2 SWAP1 PUSH3 0x2730 JUMP JUMPDEST PUSH1 0x40 MLOAD DUP1 SWAP2 SUB SWAP1 LOG4 POP JUMP JUMPDEST PUSH1 0x0 DUP1 PUSH1 0x0 DUP1 PUSH1 0x20 DUP6 ADD MLOAD SWAP3 POP PUSH1 0x40 DUP6 ADD MLOAD SWAP2 POP PUSH1 0x60 DUP6 ADD MLOAD PUSH1 0x0 BYTE SWAP1 POP PUSH1 0x1B DUP2 PUSH1 0xFF AND LT ISZERO PUSH3 0x16B5 JUMPI PUSH1 0x1B DUP2 PUSH3 0x16B2 SWAP2 SWAP1 PUSH3 0x277A JUMP JUMPDEST SWAP1 POP JUMPDEST PUSH1 0x1 DUP7 DUP3 DUP6 DUP6 PUSH1 0x40 MLOAD PUSH1 0x0 DUP2 MSTORE PUSH1 0x20 ADD PUSH1 0x40 MSTORE PUSH1 0x40 MLOAD PUSH3 0x16DA SWAP5 SWAP4 SWAP3 SWAP2 SWAP1 PUSH3 0x27C7 JUMP JUMPDEST PUSH1 0x20 PUSH1 0x40 MLOAD PUSH1 0x20 DUP2 SUB SWAP1 DUP1 DUP5 SUB SWAP1 DUP6 GAS STATICCALL ISZERO DUP1 ISZERO PUSH3 0x16FD JUMPI RETURNDATASIZE PUSH1 0x0 DUP1 RETURNDATACOPY RETURNDATASIZE PUSH1 0x0 REVERT JUMPDEST POP POP POP PUSH1 0x20 PUSH1 0x40 MLOAD SUB MLOAD SWAP4 POP POP POP POP SWAP3 SWAP2 POP POP JUMP JUMPDEST PUSH2 0xEC4 DUP1 PUSH3 0x2815 DUP4 CODECOPY ADD SWAP1 JUMP JUMPDEST PUSH1 0x0 PUSH1 0x40 MLOAD SWAP1 POP SWAP1 JUMP JUMPDEST PUSH1 0x0 DUP1 REVERT JUMPDEST PUSH1 0x0 DUP1 REVERT JUMPDEST PUSH1 0x0 PUSH20 0xFFFFFFFFFFFFFFFFFFFFFFFFFFFFFFFFFFFFFFFF DUP3 AND SWAP1 POP SWAP2 SWAP1 POP JUMP JUMPDEST PUSH1 0x0 PUSH3 0x1761 DUP3 PUSH3 0x1734 JUMP JUMPDEST SWAP1 POP SWAP2 SWAP1 POP JUMP JUMPDEST PUSH3 0x1773 DUP2 PUSH3 0x1754 JUMP JUMPDEST DUP2 EQ PUSH3 0x177F JUMPI PUSH1 0x0 DUP1 REVERT JUMPDEST POP JUMP JUMPDEST PUSH1 0x0 DUP2 CALLDATALOAD SWAP1 POP PUSH3 0x1793 DUP2 PUSH3 0x1768 JUMP JUMPDEST SWAP3 SWAP2 POP POP JUMP JUMPDEST PUSH1 0x0 PUSH1 0x20 DUP3 DUP5 SUB SLT ISZERO PUSH3 0x17B2 JUMPI PUSH3 0x17B1 PUSH3 0x172A JUMP JUMPDEST JUMPDEST PUSH1 0x0 PUSH3 0x17C2 DUP5 DUP3 DUP6 ADD PUSH3 0x1782 JUMP JUMPDEST SWAP2 POP POP SWAP3 SWAP2 POP POP JUMP JUMPDEST PUSH1 0x0 DUP1 REVERT JUMPDEST PUSH1 0x0 PUSH1 0x1F NOT PUSH1 0x1F DUP4 ADD AND SWAP1 POP SWAP2 SWAP1 POP JUMP JUMPDEST PUSH32 0x4E487B7100000000000000000000000000000000000000000000000000000000 PUSH1 0x0 MSTORE PUSH1 0x41 PUSH1 0x4 MSTORE PUSH1 0x24 PUSH1 0x0 REVERT JUMPDEST PUSH3 0x181B DUP3 PUSH3 0x17D0 JUMP JUMPDEST DUP2 ADD DUP2 DUP2 LT PUSH8 0xFFFFFFFFFFFFFFFF DUP3 GT OR ISZERO PUSH3 0x183D JUMPI PUSH3 0x183C PUSH3 0x17E1 JUMP JUMPDEST JUMPDEST DUP1 PUSH1 0x40 MSTORE POP POP POP JUMP JUMPDEST PUSH1 0x0 PUSH3 0x1852 PUSH3 0x1720 JUMP JUMPDEST SWAP1 POP PUSH3 0x1860 DUP3 DUP3 PUSH3 0x1810 JUMP JUMPDEST SWAP2 SWAP1 POP JUMP JUMPDEST PUSH1 0x0 DUP1 REVERT JUMPDEST PUSH1 0x0 DUP2 SWAP1 POP SWAP2 SWAP1 POP JUMP JUMPDEST PUSH3 0x187F DUP2 PUSH3 0x186A JUMP JUMPDEST DUP2 EQ PUSH3 0x188B JUMPI PUSH1 0x0 DUP1 REVERT JUMPDEST POP JUMP JUMPDEST PUSH1 0x0 DUP2 CALLDATALOAD SWAP1 POP PUSH3 0x189F DUP2 PUSH3 0x1874 JUMP JUMPDEST SWAP3 SWAP2 POP POP JUMP JUMPDEST PUSH1 0x0 DUP1 REVERT JUMPDEST PUSH1 0x0 DUP1 REVERT JUMPDEST PUSH1 0x0 PUSH8 0xFFFFFFFFFFFFFFFF DUP3 GT ISZERO PUSH3 0x18CD JUMPI PUSH3 0x18CC PUSH3 0x17E1 JUMP JUMPDEST JUMPDEST PUSH3 0x18D8 DUP3 PUSH3 0x17D0 JUMP JUMPDEST SWAP1 POP PUSH1 0x20 DUP2 ADD SWAP1 POP SWAP2 SWAP1 POP JUMP JUMPDEST DUP3 DUP2 DUP4 CALLDATACOPY PUSH1 0x0 DUP4 DUP4 ADD MSTORE POP POP POP JUMP JUMPDEST PUSH1 0x0 PUSH3 0x190B PUSH3 0x1905 DUP5 PUSH3 0x18AF JUMP JUMPDEST PUSH3 0x1846 JUMP JUMPDEST SWAP1 POP DUP3 DUP2 MSTORE PUSH1 0x20 DUP2 ADD DUP5 DUP5 DUP5 ADD GT ISZERO PUSH3 0x192A JUMPI PUSH3 0x1929 PUSH3 0x18AA JUMP JUMPDEST JUMPDEST PUSH3 0x1937 DUP5 DUP3 DUP6 PUSH3 0x18E5 JUMP JUMPDEST POP SWAP4 SWAP3 POP POP POP JUMP JUMPDEST PUSH1 0x0 DUP3 PUSH1 0x1F DUP4 ADD SLT PUSH3 0x1957 JUMPI PUSH3 0x1956 PUSH3 0x18A5 JUMP JUMPDEST JUMPDEST DUP2 CALLDATALOAD PUSH3 0x1969 DUP5 DUP3 PUSH1 0x20 DUP7 ADD PUSH3 0x18F4 JUMP JUMPDEST SWAP2 POP POP SWAP3 SWAP2 POP POP JUMP JUMPDEST PUSH1 0x0 DUP2 SWAP1 POP SWAP2 SWAP1 POP JUMP JUMPDEST PUSH3 0x1987 DUP2 PUSH3 0x1972 JUMP JUMPDEST DUP2 EQ PUSH3 0x1993 JUMPI PUSH1 0x0 DUP1 REVERT JUMPDEST POP JUMP JUMPDEST PUSH1 0x0 DUP2 CALLDATALOAD SWAP1 POP PUSH3 0x19A7 DUP2 PUSH3 0x197C JUMP JUMPDEST SWAP3 SWAP2 POP POP JUMP JUMPDEST PUSH1 0x0 PUSH1 0xE0 DUP3 DUP5 SUB SLT ISZERO PUSH3 0x19C6 JUMPI PUSH3 0x19C5 PUSH3 0x17CB JUMP JUMPDEST JUMPDEST PUSH3 0x19D2 PUSH1 0xE0 PUSH3 0x1846 JUMP JUMPDEST SWAP1 POP PUSH1 0x0 PUSH3 0x19E4 DUP5 DUP3 DUP6 ADD PUSH3 0x1782 JUMP JUMPDEST PUSH1 0x0 DUP4 ADD MSTORE POP PUSH1 0x20 PUSH3 0x19FA DUP5 DUP3 DUP6 ADD PUSH3 0x1782 JUMP JUMPDEST PUSH1 0x20 DUP4 ADD MSTORE POP PUSH1 0x40 PUSH3 0x1A10 DUP5 DUP3 DUP6 ADD PUSH3 0x188E JUMP JUMPDEST PUSH1 0x40 DUP4 ADD MSTORE POP PUSH1 0x60 PUSH3 0x1A26 DUP5 DUP3 DUP6 ADD PUSH3 0x188E JUMP JUMPDEST PUSH1 0x60 DUP4 ADD MSTORE POP PUSH1 0x80 DUP3 ADD CALLDATALOAD PUSH8 0xFFFFFFFFFFFFFFFF DUP2 GT ISZERO PUSH3 0x1A4D JUMPI PUSH3 0x1A4C PUSH3 0x1865 JUMP JUMPDEST JUMPDEST PUSH3 0x1A5B DUP5 DUP3 DUP6 ADD PUSH3 0x193F JUMP JUMPDEST PUSH1 0x80 DUP4 ADD MSTORE POP PUSH1 0xA0 PUSH3 0x1A71 DUP5 DUP3 DUP6 ADD PUSH3 0x188E JUMP JUMPDEST PUSH1 0xA0 DUP4 ADD MSTORE POP PUSH1 0xC0 PUSH3 0x1A87 DUP5 DUP3 DUP6 ADD PUSH3 0x1996 JUMP JUMPDEST PUSH1 0xC0 DUP4 ADD MSTORE POP SWAP3 SWAP2 POP POP JUMP JUMPDEST PUSH1 0x0 PUSH1 0x20 DUP3 DUP5 SUB SLT ISZERO PUSH3 0x1AAC JUMPI PUSH3 0x1AAB PUSH3 0x172A JUMP JUMPDEST JUMPDEST PUSH1 0x0 DUP3 ADD CALLDATALOAD PUSH8 0xFFFFFFFFFFFFFFFF DUP2 GT ISZERO PUSH3 0x1ACD JUMPI PUSH3 0x1ACC PUSH3 0x172F JUMP JUMPDEST JUMPDEST PUSH3 0x1ADB DUP5 DUP3 DUP6 ADD PUSH3 0x19AD JUMP JUMPDEST SWAP2 POP POP SWAP3 SWAP2 POP POP JUMP JUMPDEST PUSH1 0x0 DUP1 PUSH1 0x0 DUP1 PUSH1 0x0 DUP1 PUSH1 0x0 PUSH1 0xE0 DUP9 DUP11 SUB SLT ISZERO PUSH3 0x1B06 JUMPI PUSH3 0x1B05 PUSH3 0x172A JUMP JUMPDEST JUMPDEST PUSH1 0x0 PUSH3 0x1B16 DUP11 DUP3 DUP12 ADD PUSH3 0x1782 JUMP JUMPDEST SWAP8 POP POP PUSH1 0x20 PUSH3 0x1B29 DUP11 DUP3 DUP12 ADD PUSH3 0x1782 JUMP JUMPDEST SWAP7 POP POP PUSH1 0x40 PUSH3 0x1B3C DUP11 DUP3 DUP12 ADD PUSH3 0x188E JUMP JUMPDEST SWAP6 POP POP PUSH1 0x60 PUSH3 0x1B4F DUP11 DUP3 DUP12 ADD PUSH3 0x188E JUMP JUMPDEST SWAP5 POP POP PUSH1 0x80 DUP9 ADD CALLDATALOAD PUSH8 0xFFFFFFFFFFFFFFFF DUP2 GT ISZERO PUSH3 0x1B73 JUMPI PUSH3 0x1B72 PUSH3 0x172F JUMP JUMPDEST JUMPDEST PUSH3 0x1B81 DUP11 DUP3 DUP12 ADD PUSH3 0x193F JUMP JUMPDEST SWAP4 POP POP PUSH1 0xA0 PUSH3 0x1B94 DUP11 DUP3 DUP12 ADD PUSH3 0x188E JUMP JUMPDEST SWAP3 POP POP PUSH1 0xC0 PUSH3 0x1BA7 DUP11 DUP3 DUP12 ADD PUSH3 0x1996 JUMP JUMPDEST SWAP2 POP POP SWAP3 SWAP6 SWAP9 SWAP2 SWAP5 SWAP8 POP SWAP3 SWAP6 POP JUMP JUMPDEST PUSH1 0x0 PUSH1 0x20 DUP3 DUP5 SUB SLT ISZERO PUSH3 0x1BCF JUMPI PUSH3 0x1BCE PUSH3 0x172A JUMP JUMPDEST JUMPDEST PUSH1 0x0 PUSH3 0x1BDF DUP5 DUP3 DUP6 ADD PUSH3 0x188E JUMP JUMPDEST SWAP2 POP POP SWAP3 SWAP2 POP POP JUMP JUMPDEST PUSH3 0x1BF3 DUP2 PUSH3 0x186A JUMP JUMPDEST DUP3 MSTORE POP POP JUMP JUMPDEST PUSH1 0x0 PUSH1 0x20 DUP3 ADD SWAP1 POP PUSH3 0x1C10 PUSH1 0x0 DUP4 ADD DUP5 PUSH3 0x1BE8 JUMP JUMPDEST SWAP3 SWAP2 POP POP JUMP JUMPDEST PUSH3 0x1C21 DUP2 PUSH3 0x1754 JUMP JUMPDEST DUP3 MSTORE POP POP JUMP JUMPDEST PUSH1 0x0 PUSH1 0x20 DUP3 ADD SWAP1 POP PUSH3 0x1C3E PUSH1 0x0 DUP4 ADD DUP5 PUSH3 0x1C16 JUMP JUMPDEST SWAP3 SWAP2 POP POP JUMP JUMPDEST PUSH1 0x0 DUP3 DUP3 MSTORE PUSH1 0x20 DUP3 ADD SWAP1 POP SWAP3 SWAP2 POP POP JUMP JUMPDEST PUSH32 0x6F6E6C79206F776E65722063616E2063616C6C20746869730000000000000000 PUSH1 0x0 DUP3 ADD MSTORE POP JUMP JUMPDEST PUSH1 0x0 PUSH3 0x1C8D PUSH1 0x18 DUP4 PUSH3 0x1C44 JUMP JUMPDEST SWAP2 POP PUSH3 0x1C9A DUP3 PUSH3 0x1C55 JUMP JUMPDEST PUSH1 0x20 DUP3 ADD SWAP1 POP SWAP2 SWAP1 POP JUMP JUMPDEST PUSH1 0x0 PUSH1 0x20 DUP3 ADD SWAP1 POP DUP2 DUP2 SUB PUSH1 0x0 DUP4 ADD MSTORE PUSH3 0x1CC0 DUP2 PUSH3 0x1C7E JUMP JUMPDEST SWAP1 POP SWAP2 SWAP1 POP JUMP JUMPDEST PUSH32 0x4F6E6C792073656C6C65722063616E2063616C6C20746869732066756E637469 PUSH1 0x0 DUP3 ADD MSTORE PUSH32 0x6F6E000000000000000000000000000000000000000000000000000000000000 PUSH1 0x20 DUP3 ADD MSTORE POP JUMP JUMPDEST PUSH1 0x0 PUSH3 0x1D25 PUSH1 0x22 DUP4 PUSH3 0x1C44 JUMP JUMPDEST SWAP2 POP PUSH3 0x1D32 DUP3 PUSH3 0x1CC7 JUMP JUMPDEST PUSH1 0x40 DUP3 ADD SWAP1 POP SWAP2 SWAP1 POP JUMP JUMPDEST PUSH1 0x0 PUSH1 0x20 DUP3 ADD SWAP1 POP DUP2 DUP2 SUB PUSH1 0x0 DUP4 ADD MSTORE PUSH3 0x1D58 DUP2 PUSH3 0x1D16 JUMP JUMPDEST SWAP1 POP SWAP2 SWAP1 POP JUMP JUMPDEST PUSH32 0x496E76616C6964207369676E6174757265000000000000000000000000000000 PUSH1 0x0 DUP3 ADD MSTORE POP JUMP JUMPDEST PUSH1 0x0 PUSH3 0x1D97 PUSH1 0x11 DUP4 PUSH3 0x1C44 JUMP JUMPDEST SWAP2 POP PUSH3 0x1DA4 DUP3 PUSH3 0x1D5F JUMP JUMPDEST PUSH1 0x20 DUP3 ADD SWAP1 POP SWAP2 SWAP1 POP JUMP JUMPDEST PUSH1 0x0 PUSH1 0x20 DUP3 ADD SWAP1 POP DUP2 DUP2 SUB PUSH1 0x0 DUP4 ADD MSTORE PUSH3 0x1DCA DUP2 PUSH3 0x1D88 JUMP JUMPDEST SWAP1 POP SWAP2 SWAP1 POP JUMP JUMPDEST PUSH32 0x50726F78792077616C6C6574206E6F7420666F756E6400000000000000000000 PUSH1 0x0 DUP3 ADD MSTORE POP JUMP JUMPDEST PUSH1 0x0 PUSH3 0x1E09 PUSH1 0x16 DUP4 PUSH3 0x1C44 JUMP JUMPDEST SWAP2 POP PUSH3 0x1E16 DUP3 PUSH3 0x1DD1 JUMP JUMPDEST PUSH1 0x20 DUP3 ADD SWAP1 POP SWAP2 SWAP1 POP JUMP JUMPDEST PUSH1 0x0 PUSH1 0x20 DUP3 ADD SWAP1 POP DUP2 DUP2 SUB PUSH1 0x0 DUP4 ADD MSTORE PUSH3 0x1E3C DUP2 PUSH3 0x1DFA JUMP JUMPDEST SWAP1 POP SWAP2 SWAP1 POP JUMP JUMPDEST PUSH1 0x0 DUP2 MLOAD SWAP1 POP PUSH3 0x1E54 DUP2 PUSH3 0x1768 JUMP JUMPDEST SWAP3 SWAP2 POP POP JUMP JUMPDEST PUSH1 0x0 PUSH1 0x20 DUP3 DUP5 SUB SLT ISZERO PUSH3 0x1E73 JUMPI PUSH3 0x1E72 PUSH3 0x172A JUMP JUMPDEST JUMPDEST PUSH1 0x0 PUSH3 0x1E83 DUP5 DUP3 DUP6 ADD PUSH3 0x1E43 JUMP JUMPDEST SWAP2 POP POP SWAP3 SWAP2 POP POP JUMP JUMPDEST PUSH32 0x53656C6C6572206973206E6F7420746865206F776E6572206F66207468697320 PUSH1 0x0 DUP3 ADD MSTORE PUSH32 0x746F6B656E000000000000000000000000000000000000000000000000000000 PUSH1 0x20 DUP3 ADD MSTORE POP JUMP JUMPDEST PUSH1 0x0 PUSH3 0x1EEA PUSH1 0x25 DUP4 PUSH3 0x1C44 JUMP JUMPDEST SWAP2 POP PUSH3 0x1EF7 DUP3 PUSH3 0x1E8C JUMP JUMPDEST PUSH1 0x40 DUP3 ADD SWAP1 POP SWAP2 SWAP1 POP JUMP JUMPDEST PUSH1 0x0 PUSH1 0x20 DUP3 ADD SWAP1 POP DUP2 DUP2 SUB PUSH1 0x0 DUP4 ADD MSTORE PUSH3 0x1F1D DUP2 PUSH3 0x1EDB JUMP JUMPDEST SWAP1 POP SWAP2 SWAP1 POP JUMP JUMPDEST PUSH3 0x1F2F DUP2 PUSH3 0x1972 JUMP JUMPDEST DUP3 MSTORE POP POP JUMP JUMPDEST PUSH1 0x0 PUSH1 0x40 DUP3 ADD SWAP1 POP PUSH3 0x1F4C PUSH1 0x0 DUP4 ADD DUP6 PUSH3 0x1F24 JUMP JUMPDEST PUSH3 0x1F5B PUSH1 0x20 DUP4 ADD DUP5 PUSH3 0x1BE8 JUMP JUMPDEST SWAP4 SWAP3 POP POP POP JUMP JUMPDEST PUSH1 0x0 DUP2 PUSH1 0x60 SHL SWAP1 POP SWAP2 SWAP1 POP JUMP JUMPDEST PUSH1 0x0 PUSH3 0x1F7C DUP3 PUSH3 0x1F62 JUMP JUMPDEST SWAP1 POP SWAP2 SWAP1 POP JUMP JUMPDEST PUSH1 0x0 PUSH3 0x1F90 DUP3 PUSH3 0x1F6F JUMP JUMPDEST SWAP1 POP SWAP2 SWAP1 POP JUMP JUMPDEST PUSH3 0x1FAC PUSH3 0x1FA6 DUP3 PUSH3 0x1754 JUMP JUMPDEST PUSH3 0x1F83 JUMP JUMPDEST DUP3 MSTORE POP POP JUMP JUMPDEST PUSH1 0x0 DUP2 SWAP1 POP SWAP2 SWAP1 POP JUMP JUMPDEST PUSH3 0x1FD1 PUSH3 0x1FCB DUP3 PUSH3 0x186A JUMP JUMPDEST PUSH3 0x1FB2 JUMP JUMPDEST DUP3 MSTORE POP POP JUMP JUMPDEST PUSH1 0x0 DUP2 MLOAD SWAP1 POP SWAP2 SWAP1 POP JUMP JUMPDEST PUSH1 0x0 DUP2 SWAP1 POP SWAP3 SWAP2 POP POP JUMP JUMPDEST PUSH1 0x0 JUMPDEST DUP4 DUP2 LT ISZERO PUSH3 0x200D JUMPI DUP1 DUP3 ADD MLOAD DUP2 DUP5 ADD MSTORE PUSH1 0x20 DUP2 ADD SWAP1 POP PUSH3 0x1FF0 JUMP JUMPDEST PUSH1 0x0 DUP5 DUP5 ADD MSTORE POP POP POP POP JUMP JUMPDEST PUSH1 0x0 PUSH3 0x2026 DUP3 PUSH3 0x1FD7 JUMP JUMPDEST PUSH3 0x2032 DUP2 DUP6 PUSH3 0x1FE2 JUMP JUMPDEST SWAP4 POP PUSH3 0x2044 DUP2 DUP6 PUSH1 0x20 DUP7 ADD PUSH3 0x1FED JUMP JUMPDEST DUP1 DUP5 ADD SWAP2 POP POP SWAP3 SWAP2 POP POP JUMP JUMPDEST PUSH1 0x0 PUSH3 0x205E DUP3 DUP9 PUSH3 0x1F97 JUMP JUMPDEST PUSH1 0x14 DUP3 ADD SWAP2 POP PUSH3 0x2070 DUP3 DUP8 PUSH3 0x1FBC JUMP JUMPDEST PUSH1 0x20 DUP3 ADD SWAP2 POP PUSH3 0x2082 DUP3 DUP7 PUSH3 0x1FBC JUMP JUMPDEST PUSH1 0x20 DUP3 ADD SWAP2 POP PUSH3 0x2094 DUP3 DUP6 PUSH3 0x1FBC JUMP JUMPDEST PUSH1 0x20 DUP3 ADD SWAP2 POP PUSH3 0x20A6 DUP3 DUP5 PUSH3 0x2019 JUMP JUMPDEST SWAP2 POP DUP2 SWAP1 POP SWAP7 SWAP6 POP POP POP POP POP POP JUMP JUMPDEST PUSH1 0x0 PUSH1 0x20 DUP3 ADD SWAP1 POP PUSH3 0x20CC PUSH1 0x0 DUP4 ADD DUP5 PUSH3 0x1F24 JUMP JUMPDEST SWAP3 SWAP2 POP POP JUMP JUMPDEST PUSH1 0x0 PUSH3 0x20E0 DUP3 DUP5 PUSH3 0x2019 JUMP JUMPDEST SWAP2 POP DUP2 SWAP1 POP SWAP3 SWAP2 POP POP JUMP JUMPDEST PUSH1 0x0 DUP2 ISZERO ISZERO SWAP1 POP SWAP2 SWAP1 POP JUMP JUMPDEST PUSH3 0x2102 DUP2 PUSH3 0x20EB JUMP JUMPDEST DUP2 EQ PUSH3 0x210E JUMPI PUSH1 0x0 DUP1 REVERT JUMPDEST POP JUMP JUMPDEST PUSH1 0x0 DUP2 MLOAD SWAP1 POP PUSH3 0x2122 DUP2 PUSH3 0x20F7 JUMP JUMPDEST SWAP3 SWAP2 POP POP JUMP JUMPDEST PUSH1 0x0 PUSH1 0x20 DUP3 DUP5 SUB SLT ISZERO PUSH3 0x2141 JUMPI PUSH3 0x2140 PUSH3 0x172A JUMP JUMPDEST JUMPDEST PUSH1 0x0 PUSH3 0x2151 DUP5 DUP3 DUP6 ADD PUSH3 0x2111 JUMP JUMPDEST SWAP2 POP POP SWAP3 SWAP2 POP POP JUMP JUMPDEST PUSH32 0x4F72646572206973206E6F742076616C69640000000000000000000000000000 PUSH1 0x0 DUP3 ADD MSTORE POP JUMP JUMPDEST PUSH1 0x0 PUSH3 0x2192 PUSH1 0x12 DUP4 PUSH3 0x1C44 JUMP JUMPDEST SWAP2 POP PUSH3 0x219F DUP3 PUSH3 0x215A JUMP JUMPDEST PUSH1 0x20 DUP3 ADD SWAP1 POP SWAP2 SWAP1 POP JUMP JUMPDEST PUSH1 0x0 PUSH1 0x20 DUP3 ADD SWAP1 POP DUP2 DUP2 SUB PUSH1 0x0 DUP4 ADD MSTORE PUSH3 0x21C5 DUP2 PUSH3 0x2183 JUMP JUMPDEST SWAP1 POP SWAP2 SWAP1 POP JUMP JUMPDEST PUSH32 0x4E487B7100000000000000000000000000000000000000000000000000000000 PUSH1 0x0 MSTORE PUSH1 0x11 PUSH1 0x4 MSTORE PUSH1 0x24 PUSH1 0x0 REVERT JUMPDEST PUSH1 0x0 PUSH3 0x2208 DUP3 PUSH3 0x186A JUMP JUMPDEST SWAP2 POP PUSH3 0x2215 DUP4 PUSH3 0x186A JUMP JUMPDEST SWAP3 POP DUP3 DUP3 SUB SWAP1 POP DUP2 DUP2 GT ISZERO PUSH3 0x2230 JUMPI PUSH3 0x222F PUSH3 0x21CC JUMP JUMPDEST JUMPDEST SWAP3 SWAP2 POP POP JUMP JUMPDEST PUSH3 0x2241 DUP2 PUSH3 0x1754 JUMP JUMPDEST DUP3 MSTORE POP POP JUMP JUMPDEST PUSH3 0x2252 DUP2 PUSH3 0x186A JUMP JUMPDEST DUP3 MSTORE POP POP JUMP JUMPDEST PUSH1 0x0 DUP3 DUP3 MSTORE PUSH1 0x20 DUP3 ADD SWAP1 POP SWAP3 SWAP2 POP POP JUMP JUMPDEST PUSH1 0x0 PUSH3 0x2276 DUP3 PUSH3 0x1FD7 JUMP JUMPDEST PUSH3 0x2282 DUP2 DUP6 PUSH3 0x2258 JUMP JUMPDEST SWAP4 POP PUSH3 0x2294 DUP2 DUP6 PUSH1 0x20 DUP7 ADD PUSH3 0x1FED JUMP JUMPDEST PUSH3 0x229F DUP2 PUSH3 0x17D0 JUMP JUMPDEST DUP5 ADD SWAP2 POP POP SWAP3 SWAP2 POP POP JUMP JUMPDEST PUSH3 0x22B5 DUP2 PUSH3 0x1972 JUMP JUMPDEST DUP3 MSTORE POP POP JUMP JUMPDEST PUSH1 0x0 PUSH1 0xE0 DUP4 ADD PUSH1 0x0 DUP4 ADD MLOAD PUSH3 0x22D5 PUSH1 0x0 DUP7 ADD DUP3 PUSH3 0x2236 JUMP JUMPDEST POP PUSH1 0x20 DUP4 ADD MLOAD PUSH3 0x22EA PUSH1 0x20 DUP7 ADD DUP3 PUSH3 0x2236 JUMP JUMPDEST POP PUSH1 0x40 DUP4 ADD MLOAD PUSH3 0x22FF PUSH1 0x40 DUP7 ADD DUP3 PUSH3 0x2247 JUMP JUMPDEST POP PUSH1 0x60 DUP4 ADD MLOAD PUSH3 0x2314 PUSH1 0x60 DUP7 ADD DUP3 PUSH3 0x2247 JUMP JUMPDEST POP PUSH1 0x80 DUP4 ADD MLOAD DUP5 DUP3 SUB PUSH1 0x80 DUP7 ADD MSTORE PUSH3 0x232E DUP3 DUP3 PUSH3 0x2269 JUMP JUMPDEST SWAP2 POP POP PUSH1 0xA0 DUP4 ADD MLOAD PUSH3 0x2345 PUSH1 0xA0 DUP7 ADD DUP3 PUSH3 0x2247 JUMP JUMPDEST POP PUSH1 0xC0 DUP4 ADD MLOAD PUSH3 0x235A PUSH1 0xC0 DUP7 ADD DUP3 PUSH3 0x22AA JUMP JUMPDEST POP DUP1 SWAP2 POP POP SWAP3 SWAP2 POP POP JUMP JUMPDEST PUSH1 0x0 PUSH1 0x40 DUP3 ADD SWAP1 POP DUP2 DUP2 SUB PUSH1 0x0 DUP4 ADD MSTORE PUSH3 0x2381 DUP2 DUP6 PUSH3 0x22BB JUMP JUMPDEST SWAP1 POP PUSH3 0x2392 PUSH1 0x20 DUP4 ADD DUP5 PUSH3 0x1BE8 JUMP JUMPDEST SWAP4 SWAP3 POP POP POP JUMP JUMPDEST PUSH32 0x6E6F2070726F78792077616C6C65740000000000000000000000000000000000 PUSH1 0x0 DUP3 ADD MSTORE POP JUMP JUMPDEST PUSH1 0x0 PUSH3 0x23D1 PUSH1 0xF DUP4 PUSH3 0x1C44 JUMP JUMPDEST SWAP2 POP PUSH3 0x23DE DUP3 PUSH3 0x2399 JUMP JUMPDEST PUSH1 0x20 DUP3 ADD SWAP1 POP SWAP2 SWAP1 POP JUMP JUMPDEST PUSH1 0x0 PUSH1 0x20 DUP3 ADD SWAP1 POP DUP2 DUP2 SUB PUSH1 0x0 DUP4 ADD MSTORE PUSH3 0x2404 DUP2 PUSH3 0x23C2 JUMP JUMPDEST SWAP1 POP SWAP2 SWAP1 POP JUMP JUMPDEST PUSH3 0x2416 DUP2 PUSH3 0x20EB JUMP JUMPDEST DUP3 MSTORE POP POP JUMP JUMPDEST PUSH1 0x0 PUSH1 0x40 DUP3 ADD SWAP1 POP PUSH3 0x2433 PUSH1 0x0 DUP4 ADD DUP6 PUSH3 0x1C16 JUMP JUMPDEST PUSH3 0x2442 PUSH1 0x20 DUP4 ADD DUP5 PUSH3 0x240B JUMP JUMPDEST SWAP4 SWAP3 POP POP POP JUMP JUMPDEST PUSH1 0x0 PUSH1 0x40 DUP3 ADD SWAP1 POP PUSH3 0x2460 PUSH1 0x0 DUP4 ADD DUP6 PUSH3 0x1BE8 JUMP JUMPDEST PUSH3 0x246F PUSH1 0x20 DUP4 ADD DUP5 PUSH3 0x1BE8 JUMP JUMPDEST SWAP4 SWAP3 POP POP POP JUMP JUMPDEST PUSH32 0x50726F78792077616C6C657420616C7265616479206578697374730000000000 PUSH1 0x0 DUP3 ADD MSTORE POP JUMP JUMPDEST PUSH1 0x0 PUSH3 0x24AE PUSH1 0x1B DUP4 PUSH3 0x1C44 JUMP JUMPDEST SWAP2 POP PUSH3 0x24BB DUP3 PUSH3 0x2476 JUMP JUMPDEST PUSH1 0x20 DUP3 ADD SWAP1 POP SWAP2 SWAP1 POP JUMP JUMPDEST PUSH1 0x0 PUSH1 0x20 DUP3 ADD SWAP1 POP DUP2 DUP2 SUB PUSH1 0x0 DUP4 ADD MSTORE PUSH3 0x24E1 DUP2 PUSH3 0x249F JUMP JUMPDEST SWAP1 POP SWAP2 SWAP1 POP JUMP JUMPDEST PUSH1 0x0 PUSH1 0x20 DUP3 ADD SWAP1 POP DUP2 DUP2 SUB PUSH1 0x0 DUP4 ADD MSTORE PUSH3 0x2504 DUP2 DUP5 PUSH3 0x22BB JUMP JUMPDEST SWAP1 POP SWAP3 SWAP2 POP POP JUMP JUMPDEST PUSH32 0x43616E63656C2073656C6C206F72646572206661696C65640000000000000000 PUSH1 0x0 DUP3 ADD MSTORE POP JUMP JUMPDEST PUSH1 0x0 PUSH3 0x2544 PUSH1 0x18 DUP4 PUSH3 0x1C44 JUMP JUMPDEST SWAP2 POP PUSH3 0x2551 DUP3 PUSH3 0x250C JUMP JUMPDEST PUSH1 0x20 DUP3 ADD SWAP1 POP SWAP2 SWAP1 POP JUMP JUMPDEST PUSH1 0x0 PUSH1 0x20 DUP3 ADD SWAP1 POP DUP2 DUP2 SUB PUSH1 0x0 DUP4 ADD MSTORE PUSH3 0x2577 DUP2 PUSH3 0x2535 JUMP JUMPDEST SWAP1 POP SWAP2 SWAP1 POP JUMP JUMPDEST PUSH1 0x0 PUSH3 0x258B DUP3 PUSH3 0x186A JUMP JUMPDEST SWAP2 POP PUSH3 0x2598 DUP4 PUSH3 0x186A JUMP JUMPDEST SWAP3 POP DUP3 DUP3 MUL PUSH3 0x25A8 DUP2 PUSH3 0x186A JUMP JUMPDEST SWAP2 POP DUP3 DUP3 DIV DUP5 EQ DUP4 ISZERO OR PUSH3 0x25C2 JUMPI PUSH3 0x25C1 PUSH3 0x21CC JUMP JUMPDEST JUMPDEST POP SWAP3 SWAP2 POP POP JUMP JUMPDEST PUSH32 0x4E487B7100000000000000000000000000000000000000000000000000000000 PUSH1 0x0 MSTORE PUSH1 0x12 PUSH1 0x4 MSTORE PUSH1 0x24 PUSH1 0x0 REVERT JUMPDEST PUSH1 0x0 PUSH3 0x2605 DUP3 PUSH3 0x186A JUMP JUMPDEST SWAP2 POP PUSH3 0x2612 DUP4 PUSH3 0x186A JUMP JUMPDEST SWAP3 POP DUP3 PUSH3 0x2625 JUMPI PUSH3 0x2624 PUSH3 0x25C9 JUMP JUMPDEST JUMPDEST DUP3 DUP3 DIV SWAP1 POP SWAP3 SWAP2 POP POP JUMP JUMPDEST PUSH1 0x0 PUSH3 0x263E DUP3 DUP8 PUSH3 0x1F97 JUMP JUMPDEST PUSH1 0x14 DUP3 ADD SWAP2 POP PUSH3 0x2650 DUP3 DUP7 PUSH3 0x1FBC JUMP JUMPDEST PUSH1 0x20 DUP3 ADD SWAP2 POP PUSH3 0x2662 DUP3 DUP6 PUSH3 0x1FBC JUMP JUMPDEST PUSH1 0x20 DUP3 ADD SWAP2 POP PUSH3 0x2674 DUP3 DUP5 PUSH3 0x1FBC JUMP JUMPDEST PUSH1 0x20 DUP3 ADD SWAP2 POP DUP2 SWAP1 POP SWAP6 SWAP5 POP POP POP POP POP JUMP JUMPDEST PUSH1 0x0 DUP2 SWAP1 POP SWAP3 SWAP2 POP POP JUMP JUMPDEST PUSH32 0x19457468657265756D205369676E6564204D6573736167653A0A333200000000 PUSH1 0x0 DUP3 ADD MSTORE POP JUMP JUMPDEST PUSH1 0x0 PUSH3 0x26C9 PUSH1 0x1C DUP4 PUSH3 0x2686 JUMP JUMPDEST SWAP2 POP PUSH3 0x26D6 DUP3 PUSH3 0x2691 JUMP JUMPDEST PUSH1 0x1C DUP3 ADD SWAP1 POP SWAP2 SWAP1 POP JUMP JUMPDEST PUSH1 0x0 DUP2 SWAP1 POP SWAP2 SWAP1 POP JUMP JUMPDEST PUSH3 0x2700 PUSH3 0x26FA DUP3 PUSH3 0x1972 JUMP JUMPDEST PUSH3 0x26E1 JUMP JUMPDEST DUP3 MSTORE POP POP JUMP JUMPDEST PUSH1 0x0 PUSH3 0x2713 DUP3 PUSH3 0x26BA JUMP JUMPDEST SWAP2 POP PUSH3 0x2721 DUP3 DUP5 PUSH3 0x26EB JUMP JUMPDEST PUSH1 0x20 DUP3 ADD SWAP2 POP DUP2 SWAP1 POP SWAP3 SWAP2 POP POP JUMP JUMPDEST PUSH1 0x0 PUSH1 0x60 DUP3 ADD SWAP1 POP PUSH3 0x2747 PUSH1 0x0 DUP4 ADD DUP7 PUSH3 0x1BE8 JUMP JUMPDEST PUSH3 0x2756 PUSH1 0x20 DUP4 ADD DUP6 PUSH3 0x1F24 JUMP JUMPDEST PUSH3 0x2765 PUSH1 0x40 DUP4 ADD DUP5 PUSH3 0x1BE8 JUMP JUMPDEST SWAP5 SWAP4 POP POP POP POP JUMP JUMPDEST PUSH1 0x0 PUSH1 0xFF DUP3 AND SWAP1 POP SWAP2 SWAP1 POP JUMP JUMPDEST PUSH1 0x0 PUSH3 0x2787 DUP3 PUSH3 0x276D JUMP JUMPDEST SWAP2 POP PUSH3 0x2794 DUP4 PUSH3 0x276D JUMP JUMPDEST SWAP3 POP DUP3 DUP3 ADD SWAP1 POP PUSH1 0xFF DUP2 GT ISZERO PUSH3 0x27B0 JUMPI PUSH3 0x27AF PUSH3 0x21CC JUMP JUMPDEST JUMPDEST SWAP3 SWAP2 POP POP JUMP JUMPDEST PUSH3 0x27C1 DUP2 PUSH3 0x276D JUMP JUMPDEST DUP3 MSTORE POP POP JUMP JUMPDEST PUSH1 0x0 PUSH1 0x80 DUP3 ADD SWAP1 POP PUSH3 0x27DE PUSH1 0x0 DUP4 ADD DUP8 PUSH3 0x1F24 JUMP JUMPDEST PUSH3 0x27ED PUSH1 0x20 DUP4 ADD DUP7 PUSH3 0x27B6 JUMP JUMPDEST PUSH3 0x27FC PUSH1 0x40 DUP4 ADD DUP6 PUSH3 0x1F24 JUMP JUMPDEST PUSH3 0x280B PUSH1 0x60 DUP4 ADD DUP5 PUSH3 0x1F24 JUMP JUMPDEST SWAP6 SWAP5 POP POP POP POP POP JUMP INVALID PUSH1 0x80 PUSH1 0x40 MSTORE CALLVALUE DUP1 ISZERO PUSH2 0x10 JUMPI PUSH1 0x0 DUP1 REVERT JUMPDEST POP PUSH1 0x40 MLOAD PUSH2 0xEC4 CODESIZE SUB DUP1 PUSH2 0xEC4 DUP4 CODECOPY DUP2 DUP2 ADD PUSH1 0x40 MSTORE DUP2 ADD SWAP1 PUSH2 0x32 SWAP2 SWAP1 PUSH2 0xDB JUMP JUMPDEST DUP1 PUSH1 0x0 DUP1 PUSH2 0x100 EXP DUP2 SLOAD DUP2 PUSH20 0xFFFFFFFFFFFFFFFFFFFFFFFFFFFFFFFFFFFFFFFF MUL NOT AND SWAP1 DUP4 PUSH20 0xFFFFFFFFFFFFFFFFFFFFFFFFFFFFFFFFFFFFFFFF AND MUL OR SWAP1 SSTORE POP POP PUSH2 0x108 JUMP JUMPDEST PUSH1 0x0 DUP1 REVERT JUMPDEST PUSH1 0x0 PUSH20 0xFFFFFFFFFFFFFFFFFFFFFFFFFFFFFFFFFFFFFFFF DUP3 AND SWAP1 POP SWAP2 SWAP1 POP JUMP JUMPDEST PUSH1 0x0 PUSH2 0xA8 DUP3 PUSH2 0x7D JUMP JUMPDEST SWAP1 POP SWAP2 SWAP1 POP JUMP JUMPDEST PUSH2 0xB8 DUP2 PUSH2 0x9D JUMP JUMPDEST DUP2 EQ PUSH2 0xC3 JUMPI PUSH1 0x0 DUP1 REVERT JUMPDEST POP JUMP JUMPDEST PUSH1 0x0 DUP2 MLOAD SWAP1 POP PUSH2 0xD5 DUP2 PUSH2 0xAF JUMP JUMPDEST SWAP3 SWAP2 POP POP JUMP JUMPDEST PUSH1 0x0 PUSH1 0x20 DUP3 DUP5 SUB SLT ISZERO PUSH2 0xF1 JUMPI PUSH2 0xF0 PUSH2 0x78 JUMP JUMPDEST JUMPDEST PUSH1 0x0 PUSH2 0xFF DUP5 DUP3 DUP6 ADD PUSH2 0xC6 JUMP JUMPDEST SWAP2 POP POP SWAP3 SWAP2 POP POP JUMP JUMPDEST PUSH2 0xDAD DUP1 PUSH2 0x117 PUSH1 0x0 CODECOPY PUSH1 0x0 RETURN INVALID PUSH1 0x80 PUSH1 0x40 MSTORE CALLVALUE DUP1 ISZERO PUSH2 0x10 JUMPI PUSH1 0x0 DUP1 REVERT JUMPDEST POP PUSH1 0x4 CALLDATASIZE LT PUSH2 0x4C JUMPI PUSH1 0x0 CALLDATALOAD PUSH1 0xE0 SHR DUP1 PUSH4 0x1885AE10 EQ PUSH2 0x51 JUMPI DUP1 PUSH4 0x8EB6A489 EQ PUSH2 0x81 JUMPI DUP1 PUSH4 0x9B3F3F1A EQ PUSH2 0xB1 JUMPI DUP1 PUSH4 0xEB41850D EQ PUSH2 0xCD JUMPI JUMPDEST PUSH1 0x0 DUP1 REVERT JUMPDEST PUSH2 0x6B PUSH1 0x4 DUP1 CALLDATASIZE SUB DUP2 ADD SWAP1 PUSH2 0x66 SWAP2 SWAP1 PUSH2 0x806 JUMP JUMPDEST PUSH2 0xFD JUMP JUMPDEST PUSH1 0x40 MLOAD PUSH2 0x78 SWAP2 SWAP1 PUSH2 0x87D JUMP JUMPDEST PUSH1 0x40 MLOAD DUP1 SWAP2 SUB SWAP1 RETURN JUMPDEST PUSH2 0x9B PUSH1 0x4 DUP1 CALLDATASIZE SUB DUP2 ADD SWAP1 PUSH2 0x96 SWAP2 SWAP1 PUSH2 0x8CE JUMP JUMPDEST PUSH2 0x2D6 JUMP JUMPDEST PUSH1 0x40 MLOAD PUSH2 0xA8 SWAP2 SWAP1 PUSH2 0x87D JUMP JUMPDEST PUSH1 0x40 MLOAD DUP1 SWAP2 SUB SWAP1 RETURN JUMPDEST PUSH2 0xCB PUSH1 0x4 DUP1 CALLDATASIZE SUB DUP2 ADD SWAP1 PUSH2 0xC6 SWAP2 SWAP1 PUSH2 0x8FB JUMP JUMPDEST PUSH2 0x2F6 JUMP JUMPDEST STOP JUMPDEST PUSH2 0xE7 PUSH1 0x4 DUP1 CALLDATASIZE SUB DUP2 ADD SWAP1 PUSH2 0xE2 SWAP2 SWAP1 PUSH2 0x8CE JUMP JUMPDEST PUSH2 0x3AF JUMP JUMPDEST PUSH1 0x40 MLOAD PUSH2 0xF4 SWAP2 SWAP1 PUSH2 0x87D JUMP JUMPDEST PUSH1 0x40 MLOAD DUP1 SWAP2 SUB SWAP1 RETURN JUMPDEST PUSH1 0x0 DUP1 DUP4 PUSH1 0x20 ADD MLOAD DUP5 PUSH1 0x40 ADD MLOAD DUP6 PUSH1 0x60 ADD MLOAD DUP7 PUSH1 0xA0 ADD MLOAD DUP8 PUSH1 0x80 ADD MLOAD PUSH1 0x40 MLOAD PUSH1 0x20 ADD PUSH2 0x12D SWAP6 SWAP5 SWAP4 SWAP3 SWAP2 SWAP1 PUSH2 0xA1E JUMP JUMPDEST PUSH1 0x40 MLOAD PUSH1 0x20 DUP2 DUP4 SUB SUB DUP2 MSTORE SWAP1 PUSH1 0x40 MSTORE DUP1 MLOAD SWAP1 PUSH1 0x20 ADD KECCAK256 SWAP1 POP TIMESTAMP DUP5 PUSH1 0xA0 ADD MLOAD LT ISZERO PUSH2 0x164 JUMPI PUSH2 0x15A DUP2 PUSH2 0x3D9 JUMP JUMPDEST PUSH1 0x0 SWAP2 POP POP PUSH2 0x2D0 JUMP JUMPDEST PUSH1 0x1 PUSH1 0x0 DUP3 DUP2 MSTORE PUSH1 0x20 ADD SWAP1 DUP2 MSTORE PUSH1 0x20 ADD PUSH1 0x0 KECCAK256 PUSH1 0x0 SWAP1 SLOAD SWAP1 PUSH2 0x100 EXP SWAP1 DIV PUSH1 0xFF AND ISZERO PUSH2 0x1C5 JUMPI PUSH1 0x40 MLOAD PUSH32 0x8C379A000000000000000000000000000000000000000000000000000000000 DUP2 MSTORE PUSH1 0x4 ADD PUSH2 0x1BC SWAP1 PUSH2 0xAD6 JUMP JUMPDEST PUSH1 0x40 MLOAD DUP1 SWAP2 SUB SWAP1 REVERT JUMPDEST PUSH2 0x1EB DUP5 PUSH1 0x0 ADD MLOAD DUP6 PUSH1 0x20 ADD MLOAD DUP7 PUSH1 0x40 ADD MLOAD DUP8 PUSH1 0x60 ADD MLOAD DUP9 PUSH1 0x80 ADD MLOAD DUP10 PUSH1 0xA0 ADD MLOAD PUSH2 0x407 JUMP JUMPDEST PUSH2 0x22A JUMPI PUSH1 0x40 MLOAD PUSH32 0x8C379A000000000000000000000000000000000000000000000000000000000 DUP2 MSTORE PUSH1 0x4 ADD PUSH2 0x221 SWAP1 PUSH2 0xB42 JUMP JUMPDEST PUSH1 0x40 MLOAD DUP1 SWAP2 SUB SWAP1 REVERT JUMPDEST DUP4 PUSH1 0x60 ADD MLOAD DUP4 LT PUSH2 0x2CA JUMPI DUP4 PUSH1 0x20 ADD MLOAD PUSH20 0xFFFFFFFFFFFFFFFFFFFFFFFFFFFFFFFFFFFFFFFF AND PUSH4 0x23B872DD DUP6 PUSH1 0x0 ADD MLOAD CALLER DUP8 PUSH1 0x40 ADD MLOAD PUSH1 0x40 MLOAD DUP5 PUSH4 0xFFFFFFFF AND PUSH1 0xE0 SHL DUP2 MSTORE PUSH1 0x4 ADD PUSH2 0x27E SWAP4 SWAP3 SWAP2 SWAP1 PUSH2 0xB80 JUMP JUMPDEST PUSH1 0x0 PUSH1 0x40 MLOAD DUP1 DUP4 SUB DUP2 PUSH1 0x0 DUP8 DUP1 EXTCODESIZE ISZERO DUP1 ISZERO PUSH2 0x298 JUMPI PUSH1 0x0 DUP1 REVERT JUMPDEST POP GAS CALL SWAP3 POP POP POP DUP1 ISZERO PUSH2 0x2A9 JUMPI POP PUSH1 0x1 JUMPDEST PUSH2 0x2B7 JUMPI PUSH1 0x0 SWAP2 POP POP PUSH2 0x2D0 JUMP JUMPDEST PUSH2 0x2C0 DUP2 PUSH2 0x3D9 JUMP JUMPDEST PUSH1 0x1 SWAP2 POP POP PUSH2 0x2D0 JUMP JUMPDEST PUSH1 0x0 SWAP2 POP POP JUMPDEST SWAP3 SWAP2 POP POP JUMP JUMPDEST PUSH1 0x1 PUSH1 0x20 MSTORE DUP1 PUSH1 0x0 MSTORE PUSH1 0x40 PUSH1 0x0 KECCAK256 PUSH1 0x0 SWAP2 POP SLOAD SWAP1 PUSH2 0x100 EXP SWAP1 DIV PUSH1 0xFF AND DUP2 JUMP JUMPDEST PUSH2 0x31C DUP2 PUSH1 0x0 ADD MLOAD DUP3 PUSH1 0x20 ADD MLOAD DUP4 PUSH1 0x40 ADD MLOAD DUP5 PUSH1 0x60 ADD MLOAD DUP6 PUSH1 0x80 ADD MLOAD DUP7 PUSH1 0xA0 ADD MLOAD PUSH2 0x407 JUMP JUMPDEST PUSH2 0x35B JUMPI PUSH1 0x40 MLOAD PUSH32 0x8C379A000000000000000000000000000000000000000000000000000000000 DUP2 MSTORE PUSH1 0x4 ADD PUSH2 0x352 SWAP1 PUSH2 0xB42 JUMP JUMPDEST PUSH1 0x40 MLOAD DUP1 SWAP2 SUB SWAP1 REVERT JUMPDEST PUSH1 0x0 DUP2 PUSH1 0x20 ADD MLOAD DUP3 PUSH1 0x40 ADD MLOAD DUP4 PUSH1 0x60 ADD MLOAD DUP5 PUSH1 0xA0 ADD MLOAD DUP6 PUSH1 0x80 ADD MLOAD PUSH1 0x40 MLOAD PUSH1 0x20 ADD PUSH2 0x38A SWAP6 SWAP5 SWAP4 SWAP3 SWAP2 SWAP1 PUSH2 0xA1E JUMP JUMPDEST PUSH1 0x40 MLOAD PUSH1 0x20 DUP2 DUP4 SUB SUB DUP2 MSTORE SWAP1 PUSH1 0x40 MSTORE DUP1 MLOAD SWAP1 PUSH1 0x20 ADD KECCAK256 SWAP1 POP PUSH2 0x3AB DUP2 PUSH2 0x3D9 JUMP JUMPDEST POP POP JUMP JUMPDEST PUSH1 0x0 PUSH1 0x1 PUSH1 0x0 DUP4 DUP2 MSTORE PUSH1 0x20 ADD SWAP1 DUP2 MSTORE PUSH1 0x20 ADD PUSH1 0x0 KECCAK256 PUSH1 0x0 SWAP1 SLOAD SWAP1 PUSH2 0x100 EXP SWAP1 DIV PUSH1 0xFF AND SWAP1 POP SWAP2 SWAP1 POP JUMP JUMPDEST PUSH1 0x1 DUP1 PUSH1 0x0 DUP4 DUP2 MSTORE PUSH1 0x20 ADD SWAP1 DUP2 MSTORE PUSH1 0x20 ADD PUSH1 0x0 KECCAK256 PUSH1 0x0 PUSH2 0x100 EXP DUP2 SLOAD DUP2 PUSH1 0xFF MUL NOT AND SWAP1 DUP4 ISZERO ISZERO MUL OR SWAP1 SSTORE POP POP JUMP JUMPDEST PUSH1 0x0 DUP1 DUP7 DUP7 DUP7 DUP6 PUSH1 0x40 MLOAD PUSH1 0x20 ADD PUSH2 0x421 SWAP5 SWAP4 SWAP3 SWAP2 SWAP1 PUSH2 0xBB7 JUMP JUMPDEST PUSH1 0x40 MLOAD PUSH1 0x20 DUP2 DUP4 SUB SUB DUP2 MSTORE SWAP1 PUSH1 0x40 MSTORE DUP1 MLOAD SWAP1 PUSH1 0x20 ADD KECCAK256 SWAP1 POP PUSH1 0x0 DUP2 PUSH1 0x40 MLOAD PUSH1 0x20 ADD PUSH2 0x44C SWAP2 SWAP1 PUSH2 0xC7D JUMP JUMPDEST PUSH1 0x40 MLOAD PUSH1 0x20 DUP2 DUP4 SUB SUB DUP2 MSTORE SWAP1 PUSH1 0x40 MSTORE DUP1 MLOAD SWAP1 PUSH1 0x20 ADD KECCAK256 SWAP1 POP DUP9 PUSH20 0xFFFFFFFFFFFFFFFFFFFFFFFFFFFFFFFFFFFFFFFF AND PUSH2 0x485 DUP3 DUP8 PUSH2 0x4AA JUMP JUMPDEST PUSH20 0xFFFFFFFFFFFFFFFFFFFFFFFFFFFFFFFFFFFFFFFF AND EQ SWAP3 POP POP POP SWAP7 SWAP6 POP POP POP POP POP POP JUMP JUMPDEST PUSH1 0x0 DUP1 PUSH1 0x0 DUP1 PUSH1 0x20 DUP6 ADD MLOAD SWAP3 POP PUSH1 0x40 DUP6 ADD MLOAD SWAP2 POP PUSH1 0x60 DUP6 ADD MLOAD PUSH1 0x0 BYTE SWAP1 POP PUSH1 0x1B DUP2 PUSH1 0xFF AND LT ISZERO PUSH2 0x4E4 JUMPI PUSH1 0x1B DUP2 PUSH2 0x4E1 SWAP2 SWAP1 PUSH2 0xCDF JUMP JUMPDEST SWAP1 POP JUMPDEST PUSH1 0x1 DUP7 DUP3 DUP6 DUP6 PUSH1 0x40 MLOAD PUSH1 0x0 DUP2 MSTORE PUSH1 0x20 ADD PUSH1 0x40 MSTORE PUSH1 0x40 MLOAD PUSH2 0x507 SWAP5 SWAP4 SWAP3 SWAP2 SWAP1 PUSH2 0xD32 JUMP JUMPDEST PUSH1 0x20 PUSH1 0x40 MLOAD PUSH1 0x20 DUP2 SUB SWAP1 DUP1 DUP5 SUB SWAP1 DUP6 GAS STATICCALL ISZERO DUP1 ISZERO PUSH2 0x529 JUMPI RETURNDATASIZE PUSH1 0x0 DUP1 RETURNDATACOPY RETURNDATASIZE PUSH1 0x0 REVERT JUMPDEST POP POP POP PUSH1 0x20 PUSH1 0x40 MLOAD SUB MLOAD SWAP4 POP POP POP POP SWAP3 SWAP2 POP POP JUMP JUMPDEST PUSH1 0x0 PUSH1 0x40 MLOAD SWAP1 POP SWAP1 JUMP JUMPDEST PUSH1 0x0 DUP1 REVERT JUMPDEST PUSH1 0x0 DUP1 REVERT JUMPDEST PUSH1 0x0 DUP1 REVERT JUMPDEST PUSH1 0x0 PUSH1 0x1F NOT PUSH1 0x1F DUP4 ADD AND SWAP1 POP SWAP2 SWAP1 POP JUMP JUMPDEST PUSH32 0x4E487B7100000000000000000000000000000000000000000000000000000000 PUSH1 0x0 MSTORE PUSH1 0x41 PUSH1 0x4 MSTORE PUSH1 0x24 PUSH1 0x0 REVERT JUMPDEST PUSH2 0x5A0 DUP3 PUSH2 0x557 JUMP JUMPDEST DUP2 ADD DUP2 DUP2 LT PUSH8 0xFFFFFFFFFFFFFFFF DUP3 GT OR ISZERO PUSH2 0x5BF JUMPI PUSH2 0x5BE PUSH2 0x568 JUMP JUMPDEST JUMPDEST DUP1 PUSH1 0x40 MSTORE POP POP POP JUMP JUMPDEST PUSH1 0x0 PUSH2 0x5D2 PUSH2 0x53E JUMP JUMPDEST SWAP1 POP PUSH2 0x5DE DUP3 DUP3 PUSH2 0x597 JUMP JUMPDEST SWAP2 SWAP1 POP JUMP JUMPDEST PUSH1 0x0 DUP1 REVERT JUMPDEST PUSH1 0x0 PUSH20 0xFFFFFFFFFFFFFFFFFFFFFFFFFFFFFFFFFFFFFFFF DUP3 AND SWAP1 POP SWAP2 SWAP1 POP JUMP JUMPDEST PUSH1 0x0 PUSH2 0x613 DUP3 PUSH2 0x5E8 JUMP JUMPDEST SWAP1 POP SWAP2 SWAP1 POP JUMP JUMPDEST PUSH2 0x623 DUP2 PUSH2 0x608 JUMP JUMPDEST DUP2 EQ PUSH2 0x62E JUMPI PUSH1 0x0 DUP1 REVERT JUMPDEST POP JUMP JUMPDEST PUSH1 0x0 DUP2 CALLDATALOAD SWAP1 POP PUSH2 0x640 DUP2 PUSH2 0x61A JUMP JUMPDEST SWAP3 SWAP2 POP POP JUMP JUMPDEST PUSH1 0x0 DUP2 SWAP1 POP SWAP2 SWAP1 POP JUMP JUMPDEST PUSH2 0x659 DUP2 PUSH2 0x646 JUMP JUMPDEST DUP2 EQ PUSH2 0x664 JUMPI PUSH1 0x0 DUP1 REVERT JUMPDEST POP JUMP JUMPDEST PUSH1 0x0 DUP2 CALLDATALOAD SWAP1 POP PUSH2 0x676 DUP2 PUSH2 0x650 JUMP JUMPDEST SWAP3 SWAP2 POP POP JUMP JUMPDEST PUSH1 0x0 DUP1 REVERT JUMPDEST PUSH1 0x0 DUP1 REVERT JUMPDEST PUSH1 0x0 PUSH8 0xFFFFFFFFFFFFFFFF DUP3 GT ISZERO PUSH2 0x6A1 JUMPI PUSH2 0x6A0 PUSH2 0x568 JUMP JUMPDEST JUMPDEST PUSH2 0x6AA DUP3 PUSH2 0x557 JUMP JUMPDEST SWAP1 POP PUSH1 0x20 DUP2 ADD SWAP1 POP SWAP2 SWAP1 POP JUMP JUMPDEST DUP3 DUP2 DUP4 CALLDATACOPY PUSH1 0x0 DUP4 DUP4 ADD MSTORE POP POP POP JUMP JUMPDEST PUSH1 0x0 PUSH2 0x6D9 PUSH2 0x6D4 DUP5 PUSH2 0x686 JUMP JUMPDEST PUSH2 0x5C8 JUMP JUMPDEST SWAP1 POP DUP3 DUP2 MSTORE PUSH1 0x20 DUP2 ADD DUP5 DUP5 DUP5 ADD GT ISZERO PUSH2 0x6F5 JUMPI PUSH2 0x6F4 PUSH2 0x681 JUMP JUMPDEST JUMPDEST PUSH2 0x700 DUP5 DUP3 DUP6 PUSH2 0x6B7 JUMP JUMPDEST POP SWAP4 SWAP3 POP POP POP JUMP JUMPDEST PUSH1 0x0 DUP3 PUSH1 0x1F DUP4 ADD SLT PUSH2 0x71D JUMPI PUSH2 0x71C PUSH2 0x67C JUMP JUMPDEST JUMPDEST DUP2 CALLDATALOAD PUSH2 0x72D DUP5 DUP3 PUSH1 0x20 DUP7 ADD PUSH2 0x6C6 JUMP JUMPDEST SWAP2 POP POP SWAP3 SWAP2 POP POP JUMP JUMPDEST PUSH1 0x0 PUSH1 0xE0 DUP3 DUP5 SUB SLT ISZERO PUSH2 0x74C JUMPI PUSH2 0x74B PUSH2 0x552 JUMP JUMPDEST JUMPDEST PUSH2 0x756 PUSH1 0xE0 PUSH2 0x5C8 JUMP JUMPDEST SWAP1 POP PUSH1 0x0 PUSH2 0x766 DUP5 DUP3 DUP6 ADD PUSH2 0x631 JUMP JUMPDEST PUSH1 0x0 DUP4 ADD MSTORE POP PUSH1 0x20 PUSH2 0x77A DUP5 DUP3 DUP6 ADD PUSH2 0x631 JUMP JUMPDEST PUSH1 0x20 DUP4 ADD MSTORE POP PUSH1 0x40 PUSH2 0x78E DUP5 DUP3 DUP6 ADD PUSH2 0x667 JUMP JUMPDEST PUSH1 0x40 DUP4 ADD MSTORE POP PUSH1 0x60 PUSH2 0x7A2 DUP5 DUP3 DUP6 ADD PUSH2 0x667 JUMP JUMPDEST PUSH1 0x60 DUP4 ADD MSTORE POP PUSH1 0x80 DUP3 ADD CALLDATALOAD PUSH8 0xFFFFFFFFFFFFFFFF DUP2 GT ISZERO PUSH2 0x7C6 JUMPI PUSH2 0x7C5 PUSH2 0x5E3 JUMP JUMPDEST JUMPDEST PUSH2 0x7D2 DUP5 DUP3 DUP6 ADD PUSH2 0x708 JUMP JUMPDEST PUSH1 0x80 DUP4 ADD MSTORE POP PUSH1 0xA0 PUSH2 0x7E6 DUP5 DUP3 DUP6 ADD PUSH2 0x667 JUMP JUMPDEST PUSH1 0xA0 DUP4 ADD MSTORE POP PUSH1 0xC0 PUSH2 0x7FA DUP5 DUP3 DUP6 ADD PUSH2 0x667 JUMP JUMPDEST PUSH1 0xC0 DUP4 ADD MSTORE POP SWAP3 SWAP2 POP POP JUMP JUMPDEST PUSH1 0x0 DUP1 PUSH1 0x40 DUP4 DUP6 SUB SLT ISZERO PUSH2 0x81D JUMPI PUSH2 0x81C PUSH2 0x548 JUMP JUMPDEST JUMPDEST PUSH1 0x0 DUP4 ADD CALLDATALOAD PUSH8 0xFFFFFFFFFFFFFFFF DUP2 GT ISZERO PUSH2 0x83B JUMPI PUSH2 0x83A PUSH2 0x54D JUMP JUMPDEST JUMPDEST PUSH2 0x847 DUP6 DUP3 DUP7 ADD PUSH2 0x736 JUMP JUMPDEST SWAP3 POP POP PUSH1 0x20 PUSH2 0x858 DUP6 DUP3 DUP7 ADD PUSH2 0x667 JUMP JUMPDEST SWAP2 POP POP SWAP3 POP SWAP3 SWAP1 POP JUMP JUMPDEST PUSH1 0x0 DUP2 ISZERO ISZERO SWAP1 POP SWAP2 SWAP1 POP JUMP JUMPDEST PUSH2 0x877 DUP2 PUSH2 0x862 JUMP JUMPDEST DUP3 MSTORE POP POP JUMP JUMPDEST PUSH1 0x0 PUSH1 0x20 DUP3 ADD SWAP1 POP PUSH2 0x892 PUSH1 0x0 DUP4 ADD DUP5 PUSH2 0x86E JUMP JUMPDEST SWAP3 SWAP2 POP POP JUMP JUMPDEST PUSH1 0x0 DUP2 SWAP1 POP SWAP2 SWAP1 POP JUMP JUMPDEST PUSH2 0x8AB DUP2 PUSH2 0x898 JUMP JUMPDEST DUP2 EQ PUSH2 0x8B6 JUMPI PUSH1 0x0 DUP1 REVERT JUMPDEST POP JUMP JUMPDEST PUSH1 0x0 DUP2 CALLDATALOAD SWAP1 POP PUSH2 0x8C8 DUP2 PUSH2 0x8A2 JUMP JUMPDEST SWAP3 SWAP2 POP POP JUMP JUMPDEST PUSH1 0x0 PUSH1 0x20 DUP3 DUP5 SUB SLT ISZERO PUSH2 0x8E4 JUMPI PUSH2 0x8E3 PUSH2 0x548 JUMP JUMPDEST JUMPDEST PUSH1 0x0 PUSH2 0x8F2 DUP5 DUP3 DUP6 ADD PUSH2 0x8B9 JUMP JUMPDEST SWAP2 POP POP SWAP3 SWAP2 POP POP JUMP JUMPDEST PUSH1 0x0 PUSH1 0x20 DUP3 DUP5 SUB SLT ISZERO PUSH2 0x911 JUMPI PUSH2 0x910 PUSH2 0x548 JUMP JUMPDEST JUMPDEST PUSH1 0x0 DUP3 ADD CALLDATALOAD PUSH8 0xFFFFFFFFFFFFFFFF DUP2 GT ISZERO PUSH2 0x92F JUMPI PUSH2 0x92E PUSH2 0x54D JUMP JUMPDEST JUMPDEST PUSH2 0x93B DUP5 DUP3 DUP6 ADD PUSH2 0x736 JUMP JUMPDEST SWAP2 POP POP SWAP3 SWAP2 POP POP JUMP JUMPDEST PUSH1 0x0 DUP2 PUSH1 0x60 SHL SWAP1 POP SWAP2 SWAP1 POP JUMP JUMPDEST PUSH1 0x0 PUSH2 0x95C DUP3 PUSH2 0x944 JUMP JUMPDEST SWAP1 POP SWAP2 SWAP1 POP JUMP JUMPDEST PUSH1 0x0 PUSH2 0x96E DUP3 PUSH2 0x951 JUMP JUMPDEST SWAP1 POP SWAP2 SWAP1 POP JUMP JUMPDEST PUSH2 0x986 PUSH2 0x981 DUP3 PUSH2 0x608 JUMP JUMPDEST PUSH2 0x963 JUMP JUMPDEST DUP3 MSTORE POP POP JUMP JUMPDEST PUSH1 0x0 DUP2 SWAP1 POP SWAP2 SWAP1 POP JUMP JUMPDEST PUSH2 0x9A7 PUSH2 0x9A2 DUP3 PUSH2 0x646 JUMP JUMPDEST PUSH2 0x98C JUMP JUMPDEST DUP3 MSTORE POP POP JUMP JUMPDEST PUSH1 0x0 DUP2 MLOAD SWAP1 POP SWAP2 SWAP1 POP JUMP JUMPDEST PUSH1 0x0 DUP2 SWAP1 POP SWAP3 SWAP2 POP POP JUMP JUMPDEST PUSH1 0x0 JUMPDEST DUP4 DUP2 LT ISZERO PUSH2 0x9E1 JUMPI DUP1 DUP3 ADD MLOAD DUP2 DUP5 ADD MSTORE PUSH1 0x20 DUP2 ADD SWAP1 POP PUSH2 0x9C6 JUMP JUMPDEST PUSH1 0x0 DUP5 DUP5 ADD MSTORE POP POP POP POP JUMP JUMPDEST PUSH1 0x0 PUSH2 0x9F8 DUP3 PUSH2 0x9AD JUMP JUMPDEST PUSH2 0xA02 DUP2 DUP6 PUSH2 0x9B8 JUMP JUMPDEST SWAP4 POP PUSH2 0xA12 DUP2 DUP6 PUSH1 0x20 DUP7 ADD PUSH2 0x9C3 JUMP JUMPDEST DUP1 DUP5 ADD SWAP2 POP POP SWAP3 SWAP2 POP POP JUMP JUMPDEST PUSH1 0x0 PUSH2 0xA2A DUP3 DUP9 PUSH2 0x975 JUMP JUMPDEST PUSH1 0x14 DUP3 ADD SWAP2 POP PUSH2 0xA3A DUP3 DUP8 PUSH2 0x996 JUMP JUMPDEST PUSH1 0x20 DUP3 ADD SWAP2 POP PUSH2 0xA4A DUP3 DUP7 PUSH2 0x996 JUMP JUMPDEST PUSH1 0x20 DUP3 ADD SWAP2 POP PUSH2 0xA5A DUP3 DUP6 PUSH2 0x996 JUMP JUMPDEST PUSH1 0x20 DUP3 ADD SWAP2 POP PUSH2 0xA6A DUP3 DUP5 PUSH2 0x9ED JUMP JUMPDEST SWAP2 POP DUP2 SWAP1 POP SWAP7 SWAP6 POP POP POP POP POP POP JUMP JUMPDEST PUSH1 0x0 DUP3 DUP3 MSTORE PUSH1 0x20 DUP3 ADD SWAP1 POP SWAP3 SWAP2 POP POP JUMP JUMPDEST PUSH32 0x4F7264657220686173206265656E207573656400000000000000000000000000 PUSH1 0x0 DUP3 ADD MSTORE POP JUMP JUMPDEST PUSH1 0x0 PUSH2 0xAC0 PUSH1 0x13 DUP4 PUSH2 0xA79 JUMP JUMPDEST SWAP2 POP PUSH2 0xACB DUP3 PUSH2 0xA8A JUMP JUMPDEST PUSH1 0x20 DUP3 ADD SWAP1 POP SWAP2 SWAP1 POP JUMP JUMPDEST PUSH1 0x0 PUSH1 0x20 DUP3 ADD SWAP1 POP DUP2 DUP2 SUB PUSH1 0x0 DUP4 ADD MSTORE PUSH2 0xAEF DUP2 PUSH2 0xAB3 JUMP JUMPDEST SWAP1 POP SWAP2 SWAP1 POP JUMP JUMPDEST PUSH32 0x496E76616C6964207369676E6174757265000000000000000000000000000000 PUSH1 0x0 DUP3 ADD MSTORE POP JUMP JUMPDEST PUSH1 0x0 PUSH2 0xB2C PUSH1 0x11 DUP4 PUSH2 0xA79 JUMP JUMPDEST SWAP2 POP PUSH2 0xB37 DUP3 PUSH2 0xAF6 JUMP JUMPDEST PUSH1 0x20 DUP3 ADD SWAP1 POP SWAP2 SWAP1 POP JUMP JUMPDEST PUSH1 0x0 PUSH1 0x20 DUP3 ADD SWAP1 POP DUP2 DUP2 SUB PUSH1 0x0 DUP4 ADD MSTORE PUSH2 0xB5B DUP2 PUSH2 0xB1F JUMP JUMPDEST SWAP1 POP SWAP2 SWAP1 POP JUMP JUMPDEST PUSH2 0xB6B DUP2 PUSH2 0x608 JUMP JUMPDEST DUP3 MSTORE POP POP JUMP JUMPDEST PUSH2 0xB7A DUP2 PUSH2 0x646 JUMP JUMPDEST DUP3 MSTORE POP POP JUMP JUMPDEST PUSH1 0x0 PUSH1 0x60 DUP3 ADD SWAP1 POP PUSH2 0xB95 PUSH1 0x0 DUP4 ADD DUP7 PUSH2 0xB62 JUMP JUMPDEST PUSH2 0xBA2 PUSH1 0x20 DUP4 ADD DUP6 PUSH2 0xB62 JUMP JUMPDEST PUSH2 0xBAF PUSH1 0x40 DUP4 ADD DUP5 PUSH2 0xB71 JUMP JUMPDEST SWAP5 SWAP4 POP POP POP POP JUMP JUMPDEST PUSH1 0x0 PUSH2 0xBC3 DUP3 DUP8 PUSH2 0x975 JUMP JUMPDEST PUSH1 0x14 DUP3 ADD SWAP2 POP PUSH2 0xBD3 DUP3 DUP7 PUSH2 0x996 JUMP JUMPDEST PUSH1 0x20 DUP3 ADD SWAP2 POP PUSH2 0xBE3 DUP3 DUP6 PUSH2 0x996 JUMP JUMPDEST PUSH1 0x20 DUP3 ADD SWAP2 POP PUSH2 0xBF3 DUP3 DUP5 PUSH2 0x996 JUMP JUMPDEST PUSH1 0x20 DUP3 ADD SWAP2 POP DUP2 SWAP1 POP SWAP6 SWAP5 POP POP POP POP POP JUMP JUMPDEST PUSH1 0x0 DUP2 SWAP1 POP SWAP3 SWAP2 POP POP JUMP JUMPDEST PUSH32 0x19457468657265756D205369676E6564204D6573736167653A0A333200000000 PUSH1 0x0 DUP3 ADD MSTORE POP JUMP JUMPDEST PUSH1 0x0 PUSH2 0xC46 PUSH1 0x1C DUP4 PUSH2 0xC05 JUMP JUMPDEST SWAP2 POP PUSH2 0xC51 DUP3 PUSH2 0xC10 JUMP JUMPDEST PUSH1 0x1C DUP3 ADD SWAP1 POP SWAP2 SWAP1 POP JUMP JUMPDEST PUSH1 0x0 DUP2 SWAP1 POP SWAP2 SWAP1 POP JUMP JUMPDEST PUSH2 0xC77 PUSH2 0xC72 DUP3 PUSH2 0x898 JUMP JUMPDEST PUSH2 0xC5C JUMP JUMPDEST DUP3 MSTORE POP POP JUMP JUMPDEST PUSH1 0x0 PUSH2 0xC88 DUP3 PUSH2 0xC39 JUMP JUMPDEST SWAP2 POP PUSH2 0xC94 DUP3 DUP5 PUSH2 0xC66 JUMP JUMPDEST PUSH1 0x20 DUP3 ADD SWAP2 POP DUP2 SWAP1 POP SWAP3 SWAP2 POP POP JUMP JUMPDEST PUSH1 0x0 PUSH1 0xFF DUP3 AND SWAP1 POP SWAP2 SWAP1 POP JUMP JUMPDEST PUSH32 0x4E487B7100000000000000000000000000000000000000000000000000000000 PUSH1 0x0 MSTORE PUSH1 0x11 PUSH1 0x4 MSTORE PUSH1 0x24 PUSH1 0x0 REVERT JUMPDEST PUSH1 0x0 PUSH2 0xCEA DUP3 PUSH2 0xCA3 JUMP JUMPDEST SWAP2 POP PUSH2 0xCF5 DUP4 PUSH2 0xCA3 JUMP JUMPDEST SWAP3 POP DUP3 DUP3 ADD SWAP1 POP PUSH1 0xFF DUP2 GT ISZERO PUSH2 0xD0E JUMPI PUSH2 0xD0D PUSH2 0xCB0 JUMP JUMPDEST JUMPDEST SWAP3 SWAP2 POP POP JUMP JUMPDEST PUSH2 0xD1D DUP2 PUSH2 0x898 JUMP JUMPDEST DUP3 MSTORE POP POP JUMP JUMPDEST PUSH2 0xD2C DUP2 PUSH2 0xCA3 JUMP JUMPDEST DUP3 MSTORE POP POP JUMP JUMPDEST PUSH1 0x0 PUSH1 0x80 DUP3 ADD SWAP1 POP PUSH2 0xD47 PUSH1 0x0 DUP4 ADD DUP8 PUSH2 0xD14 JUMP JUMPDEST PUSH2 0xD54 PUSH1 0x20 DUP4 ADD DUP7 PUSH2 0xD23 JUMP JUMPDEST PUSH2 0xD61 PUSH1 0x40 DUP4 ADD DUP6 PUSH2 0xD14 JUMP JUMPDEST PUSH2 0xD6E PUSH1 0x60 DUP4 ADD DUP5 PUSH2 0xD14 JUMP JUMPDEST SWAP6 SWAP5 POP POP POP POP POP JUMP INVALID LOG2 PUSH5 0x6970667358 0x22 SLT KECCAK256 0x26 0x1E PUSH1 0x16 0x4F 0xEE 0xD9 GASPRICE BASEFEE 0x24 SWAP9 0x2C DUP3 0xC9 0xCB 0xBB 0xF9 PUSH16 0xD045E99BACA432B1E2E14AB55E116473 PUSH16 0x6C63430008120033A264697066735822 SLT KECCAK256 SWAP1 0x2F DIV BASEFEE SWAP1 PUSH22 0x63C792E77F75CD130254CDF60C239D47EF04ECFD50C6 PUSH10 0xBC4A3964736F6C634300 ADDMOD SLT STOP CALLER "
				},
				"gasEstimates": {
					"creation": {
						"codeDepositCost": "2818800",
						"executionCost": "infinite",
						"totalCost": "infinite"
					},
					"external": {
						"CancelSellOrder((address,address,uint256,uint256,bytes,uint256,bytes32))": "infinite",
						"approveCollection(address)": "infinite",
						"createProxyWallet()": "infinite",
						"getFeeRate()": "2459",
						"getProxyWallet(address)": "infinite",
						"matchOrder(address,address,uint256,uint256,bytes,uint256,bytes32)": "infinite",
						"setMall(address)": "26893",
						"updateFeeRate(uint256)": "infinite"
					},
					"internal": {
						"_cancelSellOrder(struct MarketContract.SellOrder memory)": "infinite",
						"matchfail(struct MarketContract.SellOrder memory)": "infinite",
						"matchsuccess(struct MarketContract.SellOrder memory)": "infinite",
						"recoverSigner(bytes32,bytes memory)": "infinite",
						"verifySignature(address,address,uint256,uint256,bytes memory,uint256)": "infinite"
					}
				},
				"methodIdentifiers": {
					"CancelSellOrder((address,address,uint256,uint256,bytes,uint256,bytes32))": "1b5ea502",
					"approveCollection(address)": "6aae5cda",
					"createProxyWallet()": "c2a1d6c9",
					"getFeeRate()": "84e5eed0",
					"getProxyWallet(address)": "c465db0a",
					"matchOrder(address,address,uint256,uint256,bytes,uint256,bytes32)": "38813781",
					"setMall(address)": "07e4ac72",
					"updateFeeRate(uint256)": "7b84fda5"
				}
			},
			"storageLayout": {
				"storage": [
					{
						"astId": 598,
						"contract": "NFT_market_contract.sol:MarketContract",
						"label": "proxyWalletContract",
						"offset": 0,
						"slot": "0",
						"type": "t_address"
					},
					{
						"astId": 600,
						"contract": "NFT_market_contract.sol:MarketContract",
						"label": "mall",
						"offset": 0,
						"slot": "1",
						"type": "t_address"
					},
					{
						"astId": 603,
						"contract": "NFT_market_contract.sol:MarketContract",
						"label": "feeRate",
						"offset": 0,
						"slot": "2",
						"type": "t_uint256"
					},
					{
						"astId": 605,
						"contract": "NFT_market_contract.sol:MarketContract",
						"label": "owner",
						"offset": 0,
						"slot": "3",
						"type": "t_address"
					},
					{
						"astId": 609,
						"contract": "NFT_market_contract.sol:MarketContract",
						"label": "userToProxyWallet",
						"offset": 0,
						"slot": "4",
						"type": "t_mapping(t_address,t_address)"
					}
				],
				"types": {
					"t_address": {
						"encoding": "inplace",
						"label": "address",
						"numberOfBytes": "20"
					},
					"t_mapping(t_address,t_address)": {
						"encoding": "mapping",
						"key": "t_address",
						"label": "mapping(address => address)",
						"numberOfBytes": "32",
						"value": "t_address"
					},
					"t_uint256": {
						"encoding": "inplace",
						"label": "uint256",
						"numberOfBytes": "32"
					}
				}
			},
			"userdoc": {
				"kind": "user",
				"methods": {},
				"version": 1
			}
		}
	}
}