{
	"NFT_market_contract.sol": {
		"ProxyWallet": {
			"abi": [
				{
					"inputs": [
						{
							"internalType": "address",
							"name": "_owner",
							"type": "address"
						}
					],
					"stateMutability": "payable",
					"type": "constructor"
				},
				{
					"inputs": [
						{
							"components": [
								{
									"internalType": "address",
									"name": "seller",
									"type": "address"
								},
								{
									"internalType": "address",
									"name": "contractID",
									"type": "address"
								},
								{
									"internalType": "uint256",
									"name": "tokenID",
									"type": "uint256"
								},
								{
									"internalType": "uint256",
									"name": "price",
									"type": "uint256"
								},
								{
									"internalType": "bytes",
									"name": "signature",
									"type": "bytes"
								},
								{
									"internalType": "uint256",
									"name": "expirationTime",
									"type": "uint256"
								},
								{
									"internalType": "uint256",
									"name": "nonce",
									"type": "uint256"
								}
							],
							"internalType": "struct ProxyWallet.SellOrder",
							"name": "sellOrder",
							"type": "tuple"
						},
						{
							"internalType": "address",
							"name": "buyer",
							"type": "address"
						}
					],
					"name": "AtomicTx",
					"outputs": [],
					"stateMutability": "payable",
					"type": "function"
				},
				{
					"inputs": [
						{
							"internalType": "bytes32",
							"name": "",
							"type": "bytes32"
						}
					],
					"name": "IsInvalid",
					"outputs": [
						{
							"internalType": "bool",
							"name": "",
							"type": "bool"
						}
					],
					"stateMutability": "view",
					"type": "function"
				},
				{
					"inputs": [
						{
							"components": [
								{
									"internalType": "address",
									"name": "seller",
									"type": "address"
								},
								{
									"internalType": "address",
									"name": "contractID",
									"type": "address"
								},
								{
									"internalType": "uint256",
									"name": "tokenID",
									"type": "uint256"
								},
								{
									"internalType": "uint256",
									"name": "price",
									"type": "uint256"
								},
								{
									"internalType": "bytes",
									"name": "signature",
									"type": "bytes"
								},
								{
									"internalType": "uint256",
									"name": "expirationTime",
									"type": "uint256"
								},
								{
									"internalType": "uint256",
									"name": "nonce",
									"type": "uint256"
								}
							],
							"internalType": "struct ProxyWallet.SellOrder",
							"name": "sellOrder",
							"type": "tuple"
						}
					],
					"name": "cancelOrder",
					"outputs": [],
					"stateMutability": "nonpayable",
					"type": "function"
				},
				{
					"inputs": [
						{
							"internalType": "bytes32",
							"name": "orderHash",
							"type": "bytes32"
						}
					],
					"name": "isOrderInvalid",
					"outputs": [
						{
							"internalType": "bool",
							"name": "",
							"type": "bool"
						}
					],
					"stateMutability": "view",
					"type": "function"
				}
			],
			"devdoc": {
				"kind": "dev",
				"methods": {},
				"version": 1
			},
			"evm": {
				"assembly": "    /* \"NFT_market_contract.sol\":9333:13423  contract ProxyWallet {... */\n  mstore(0x40, 0x80)\n    /* \"NFT_market_contract.sol\":9844:9913  constructor(address _owner) payable {... */\n  mload(0x40)\n  sub(codesize, bytecodeSize)\n  dup1\n  bytecodeSize\n  dup4\n  codecopy\n  dup2\n  dup2\n  add\n  0x40\n  mstore\n  dup2\n  add\n  swap1\n  tag_1\n  swap2\n  swap1\n  tag_2\n  jump\t// in\ntag_1:\n    /* \"NFT_market_contract.sol\":9899:9905  _owner */\n  dup1\n    /* \"NFT_market_contract.sol\":9891:9896  owner */\n  0x00\n  dup1\n    /* \"NFT_market_contract.sol\":9891:9905  owner = _owner */\n  0x0100\n  exp\n  dup2\n  sload\n  dup2\n  0xffffffffffffffffffffffffffffffffffffffff\n  mul\n  not\n  and\n  swap1\n  dup4\n  0xffffffffffffffffffffffffffffffffffffffff\n  and\n  mul\n  or\n  swap1\n  sstore\n  pop\n    /* \"NFT_market_contract.sol\":9844:9913  constructor(address _owner) payable {... */\n  pop\n    /* \"NFT_market_contract.sol\":9333:13423  contract ProxyWallet {... */\n  jump(tag_5)\n    /* \"#utility.yul\":88:205   */\ntag_7:\n    /* \"#utility.yul\":197:198   */\n  0x00\n    /* \"#utility.yul\":194:195   */\n  dup1\n    /* \"#utility.yul\":187:199   */\n  revert\n    /* \"#utility.yul\":334:460   */\ntag_9:\n    /* \"#utility.yul\":371:378   */\n  0x00\n    /* \"#utility.yul\":411:453   */\n  0xffffffffffffffffffffffffffffffffffffffff\n    /* \"#utility.yul\":404:409   */\n  dup3\n    /* \"#utility.yul\":400:454   */\n  and\n    /* \"#utility.yul\":389:454   */\n  swap1\n  pop\n    /* \"#utility.yul\":334:460   */\n  swap2\n  swap1\n  pop\n  jump\t// out\n    /* \"#utility.yul\":466:562   */\ntag_10:\n    /* \"#utility.yul\":503:510   */\n  0x00\n    /* \"#utility.yul\":532:556   */\n  tag_19\n    /* \"#utility.yul\":550:555   */\n  dup3\n    /* \"#utility.yul\":532:556   */\n  tag_9\n  jump\t// in\ntag_19:\n    /* \"#utility.yul\":521:556   */\n  swap1\n  pop\n    /* \"#utility.yul\":466:562   */\n  swap2\n  swap1\n  pop\n  jump\t// out\n    /* \"#utility.yul\":568:690   */\ntag_11:\n    /* \"#utility.yul\":641:665   */\n  tag_21\n    /* \"#utility.yul\":659:664   */\n  dup2\n    /* \"#utility.yul\":641:665   */\n  tag_10\n  jump\t// in\ntag_21:\n    /* \"#utility.yul\":634:639   */\n  dup2\n    /* \"#utility.yul\":631:666   */\n  eq\n    /* \"#utility.yul\":621:684   */\n  tag_22\n  jumpi\n    /* \"#utility.yul\":680:681   */\n  0x00\n    /* \"#utility.yul\":677:678   */\n  dup1\n    /* \"#utility.yul\":670:682   */\n  revert\n    /* \"#utility.yul\":621:684   */\ntag_22:\n    /* \"#utility.yul\":568:690   */\n  pop\n  jump\t// out\n    /* \"#utility.yul\":696:839   */\ntag_12:\n    /* \"#utility.yul\":753:758   */\n  0x00\n    /* \"#utility.yul\":784:790   */\n  dup2\n    /* \"#utility.yul\":778:791   */\n  mload\n    /* \"#utility.yul\":769:791   */\n  swap1\n  pop\n    /* \"#utility.yul\":800:833   */\n  tag_24\n    /* \"#utility.yul\":827:832   */\n  dup2\n    /* \"#utility.yul\":800:833   */\n  tag_11\n  jump\t// in\ntag_24:\n    /* \"#utility.yul\":696:839   */\n  swap3\n  swap2\n  pop\n  pop\n  jump\t// out\n    /* \"#utility.yul\":845:1196   */\ntag_2:\n    /* \"#utility.yul\":915:921   */\n  0x00\n    /* \"#utility.yul\":964:966   */\n  0x20\n    /* \"#utility.yul\":952:961   */\n  dup3\n    /* \"#utility.yul\":943:950   */\n  dup5\n    /* \"#utility.yul\":939:962   */\n  sub\n    /* \"#utility.yul\":935:967   */\n  slt\n    /* \"#utility.yul\":932:1051   */\n  iszero\n  tag_26\n  jumpi\n    /* \"#utility.yul\":970:1049   */\n  tag_27\n  tag_7\n  jump\t// in\ntag_27:\n    /* \"#utility.yul\":932:1051   */\ntag_26:\n    /* \"#utility.yul\":1090:1091   */\n  0x00\n    /* \"#utility.yul\":1115:1179   */\n  tag_28\n    /* \"#utility.yul\":1171:1178   */\n  dup5\n    /* \"#utility.yul\":1162:1168   */\n  dup3\n    /* \"#utility.yul\":1151:1160   */\n  dup6\n    /* \"#utility.yul\":1147:1169   */\n  add\n    /* \"#utility.yul\":1115:1179   */\n  tag_12\n  jump\t// in\ntag_28:\n    /* \"#utility.yul\":1105:1179   */\n  swap2\n  pop\n    /* \"#utility.yul\":1061:1189   */\n  pop\n    /* \"#utility.yul\":845:1196   */\n  swap3\n  swap2\n  pop\n  pop\n  jump\t// out\n    /* \"NFT_market_contract.sol\":9333:13423  contract ProxyWallet {... */\ntag_5:\n  dataSize(sub_0)\n  dup1\n  dataOffset(sub_0)\n  0x00\n  codecopy\n  0x00\n  return\nstop\n\nsub_0: assembly {\n        /* \"NFT_market_contract.sol\":9333:13423  contract ProxyWallet {... */\n      mstore(0x40, 0x80)\n      jumpi(tag_1, lt(calldatasize, 0x04))\n      shr(0xe0, calldataload(0x00))\n      dup1\n      0x8eb6a489\n      eq\n      tag_2\n      jumpi\n      dup1\n      0x9b3f3f1a\n      eq\n      tag_3\n      jumpi\n      dup1\n      0xc04d75dd\n      eq\n      tag_4\n      jumpi\n      dup1\n      0xeb41850d\n      eq\n      tag_5\n      jumpi\n    tag_1:\n      0x00\n      dup1\n      revert\n        /* \"NFT_market_contract.sol\":9469:9510  mapping(bytes32 => bool) public IsInvalid */\n    tag_2:\n      callvalue\n      dup1\n      iszero\n      tag_6\n      jumpi\n      0x00\n      dup1\n      revert\n    tag_6:\n      pop\n      tag_7\n      0x04\n      dup1\n      calldatasize\n      sub\n      dup2\n      add\n      swap1\n      tag_8\n      swap2\n      swap1\n      tag_9\n      jump\t// in\n    tag_8:\n      tag_10\n      jump\t// in\n    tag_7:\n      mload(0x40)\n      tag_11\n      swap2\n      swap1\n      tag_12\n      jump\t// in\n    tag_11:\n      mload(0x40)\n      dup1\n      swap2\n      sub\n      swap1\n      return\n        /* \"NFT_market_contract.sol\":11560:12241  function cancelOrder(SellOrder memory sellOrder) public {... */\n    tag_3:\n      callvalue\n      dup1\n      iszero\n      tag_13\n      jumpi\n      0x00\n      dup1\n      revert\n    tag_13:\n      pop\n      tag_14\n      0x04\n      dup1\n      calldatasize\n      sub\n      dup2\n      add\n      swap1\n      tag_15\n      swap2\n      swap1\n      tag_16\n      jump\t// in\n    tag_15:\n      tag_17\n      jump\t// in\n    tag_14:\n      stop\n        /* \"NFT_market_contract.sol\":10248:11532  function AtomicTx(... */\n    tag_4:\n      tag_18\n      0x04\n      dup1\n      calldatasize\n      sub\n      dup2\n      add\n      swap1\n      tag_19\n      swap2\n      swap1\n      tag_20\n      jump\t// in\n    tag_19:\n      tag_21\n      jump\t// in\n    tag_18:\n      stop\n        /* \"NFT_market_contract.sol\":10124:10240  function isOrderInvalid(bytes32 orderHash) public view returns (bool) {... */\n    tag_5:\n      callvalue\n      dup1\n      iszero\n      tag_22\n      jumpi\n      0x00\n      dup1\n      revert\n    tag_22:\n      pop\n      tag_23\n      0x04\n      dup1\n      calldatasize\n      sub\n      dup2\n      add\n      swap1\n      tag_24\n      swap2\n      swap1\n      tag_9\n      jump\t// in\n    tag_24:\n      tag_25\n      jump\t// in\n    tag_23:\n      mload(0x40)\n      tag_26\n      swap2\n      swap1\n      tag_12\n      jump\t// in\n    tag_26:\n      mload(0x40)\n      dup1\n      swap2\n      sub\n      swap1\n      return\n        /* \"NFT_market_contract.sol\":9469:9510  mapping(bytes32 => bool) public IsInvalid */\n    tag_10:\n      mstore(0x20, 0x01)\n      dup1\n      0x00\n      mstore\n      keccak256(0x00, 0x40)\n      0x00\n      swap2\n      pop\n      sload\n      swap1\n      0x0100\n      exp\n      swap1\n      div\n      0xff\n      and\n      dup2\n      jump\t// out\n        /* \"NFT_market_contract.sol\":11560:12241  function cancelOrder(SellOrder memory sellOrder) public {... */\n    tag_17:\n        /* \"NFT_market_contract.sol\":11627:11639  bytes32 Hash */\n      0x00\n        /* \"NFT_market_contract.sol\":11701:11710  sellOrder */\n      dup2\n        /* \"NFT_market_contract.sol\":11701:11717  sellOrder.seller */\n      0x00\n      add\n      mload\n        /* \"NFT_market_contract.sol\":11736:11745  sellOrder */\n      dup3\n        /* \"NFT_market_contract.sol\":11736:11756  sellOrder.contractID */\n      0x20\n      add\n      mload\n        /* \"NFT_market_contract.sol\":11775:11784  sellOrder */\n      dup4\n        /* \"NFT_market_contract.sol\":11775:11792  sellOrder.tokenID */\n      0x40\n      add\n      mload\n        /* \"NFT_market_contract.sol\":11811:11820  sellOrder */\n      dup5\n        /* \"NFT_market_contract.sol\":11811:11826  sellOrder.price */\n      0x60\n      add\n      mload\n        /* \"NFT_market_contract.sol\":11845:11854  sellOrder */\n      dup6\n        /* \"NFT_market_contract.sol\":11845:11869  sellOrder.expirationTime */\n      0xa0\n      add\n      mload\n        /* \"NFT_market_contract.sol\":11888:11897  sellOrder */\n      dup7\n        /* \"NFT_market_contract.sol\":11888:11903  sellOrder.nonce */\n      0xc0\n      add\n      mload\n        /* \"NFT_market_contract.sol\":11666:11918  abi.encodePacked(... */\n      add(0x20, mload(0x40))\n      tag_28\n      swap7\n      swap6\n      swap5\n      swap4\n      swap3\n      swap2\n      swap1\n      tag_29\n      jump\t// in\n    tag_28:\n      mload(0x40)\n      0x20\n      dup2\n      dup4\n      sub\n      sub\n      dup2\n      mstore\n      swap1\n      0x40\n      mstore\n        /* \"NFT_market_contract.sol\":11642:11929  keccak256(... */\n      dup1\n      mload\n      swap1\n      0x20\n      add\n      keccak256\n        /* \"NFT_market_contract.sol\":11627:11929  bytes32 Hash = keccak256(... */\n      swap1\n      pop\n        /* \"NFT_market_contract.sol\":11942:11959  bytes32 OrderHash */\n      0x00\n        /* \"NFT_market_contract.sol\":12039:12043  Hash */\n      dup2\n        /* \"NFT_market_contract.sol\":11986:12044  abi.encodePacked(\"\\x19Ethereum Signed Message:\\n32\", Hash) */\n      add(0x20, mload(0x40))\n      tag_30\n      swap2\n      swap1\n      tag_31\n      jump\t// in\n    tag_30:\n      mload(0x40)\n      0x20\n      dup2\n      dup4\n      sub\n      sub\n      dup2\n      mstore\n      swap1\n      0x40\n      mstore\n        /* \"NFT_market_contract.sol\":11962:12055  keccak256(... */\n      dup1\n      mload\n      swap1\n      0x20\n      add\n      keccak256\n        /* \"NFT_market_contract.sol\":11942:12055  bytes32 OrderHash = keccak256(... */\n      swap1\n      pop\n        /* \"NFT_market_contract.sol\":12122:12131  sellOrder */\n      dup3\n        /* \"NFT_market_contract.sol\":12122:12138  sellOrder.seller */\n      0x00\n      add\n      mload\n        /* \"NFT_market_contract.sol\":12073:12138  recoverSigner(OrderHash, sellOrder.signature) == sellOrder.seller */\n      0xffffffffffffffffffffffffffffffffffffffff\n      and\n        /* \"NFT_market_contract.sol\":12073:12118  recoverSigner(OrderHash, sellOrder.signature) */\n      tag_32\n        /* \"NFT_market_contract.sol\":12087:12096  OrderHash */\n      dup3\n        /* \"NFT_market_contract.sol\":12098:12107  sellOrder */\n      dup6\n        /* \"NFT_market_contract.sol\":12098:12117  sellOrder.signature */\n      0x80\n      add\n      mload\n        /* \"NFT_market_contract.sol\":12073:12086  recoverSigner */\n      tag_33\n        /* \"NFT_market_contract.sol\":12073:12118  recoverSigner(OrderHash, sellOrder.signature) */\n      jump\t// in\n    tag_32:\n        /* \"NFT_market_contract.sol\":12073:12138  recoverSigner(OrderHash, sellOrder.signature) == sellOrder.seller */\n      0xffffffffffffffffffffffffffffffffffffffff\n      and\n      eq\n        /* \"NFT_market_contract.sol\":12065:12159  require(recoverSigner(OrderHash, sellOrder.signature) == sellOrder.seller,\"Invalid signature\") */\n      tag_34\n      jumpi\n      mload(0x40)\n      0x08c379a000000000000000000000000000000000000000000000000000000000\n      dup2\n      mstore\n      0x04\n      add\n      tag_35\n      swap1\n      tag_36\n      jump\t// in\n    tag_35:\n      mload(0x40)\n      dup1\n      swap2\n      sub\n      swap1\n      revert\n    tag_34:\n        /* \"NFT_market_contract.sol\":12209:12233  markOrderCancelled(Hash) */\n      tag_37\n        /* \"NFT_market_contract.sol\":12228:12232  Hash */\n      dup3\n        /* \"NFT_market_contract.sol\":12209:12227  markOrderCancelled */\n      tag_38\n        /* \"NFT_market_contract.sol\":12209:12233  markOrderCancelled(Hash) */\n      jump\t// in\n    tag_37:\n        /* \"NFT_market_contract.sol\":11616:12241  {... */\n      pop\n      pop\n        /* \"NFT_market_contract.sol\":11560:12241  function cancelOrder(SellOrder memory sellOrder) public {... */\n      pop\n      jump\t// out\n        /* \"NFT_market_contract.sol\":10248:11532  function AtomicTx(... */\n    tag_21:\n        /* \"NFT_market_contract.sol\":10360:10372  bytes32 Hash */\n      0x00\n        /* \"NFT_market_contract.sol\":10434:10443  sellOrder */\n      dup3\n        /* \"NFT_market_contract.sol\":10434:10450  sellOrder.seller */\n      0x00\n      add\n      mload\n        /* \"NFT_market_contract.sol\":10469:10478  sellOrder */\n      dup4\n        /* \"NFT_market_contract.sol\":10469:10489  sellOrder.contractID */\n      0x20\n      add\n      mload\n        /* \"NFT_market_contract.sol\":10508:10517  sellOrder */\n      dup5\n        /* \"NFT_market_contract.sol\":10508:10525  sellOrder.tokenID */\n      0x40\n      add\n      mload\n        /* \"NFT_market_contract.sol\":10544:10553  sellOrder */\n      dup6\n        /* \"NFT_market_contract.sol\":10544:10559  sellOrder.price */\n      0x60\n      add\n      mload\n        /* \"NFT_market_contract.sol\":10578:10587  sellOrder */\n      dup7\n        /* \"NFT_market_contract.sol\":10578:10602  sellOrder.expirationTime */\n      0xa0\n      add\n      mload\n        /* \"NFT_market_contract.sol\":10621:10630  sellOrder */\n      dup8\n        /* \"NFT_market_contract.sol\":10621:10636  sellOrder.nonce */\n      0xc0\n      add\n      mload\n        /* \"NFT_market_contract.sol\":10399:10651  abi.encodePacked(... */\n      add(0x20, mload(0x40))\n      tag_40\n      swap7\n      swap6\n      swap5\n      swap4\n      swap3\n      swap2\n      swap1\n      tag_29\n      jump\t// in\n    tag_40:\n      mload(0x40)\n      0x20\n      dup2\n      dup4\n      sub\n      sub\n      dup2\n      mstore\n      swap1\n      0x40\n      mstore\n        /* \"NFT_market_contract.sol\":10375:10662  keccak256(... */\n      dup1\n      mload\n      swap1\n      0x20\n      add\n      keccak256\n        /* \"NFT_market_contract.sol\":10360:10662  bytes32 Hash = keccak256(... */\n      swap1\n      pop\n        /* \"NFT_market_contract.sol\":10724:10733  IsInvalid */\n      0x01\n        /* \"NFT_market_contract.sol\":10724:10739  IsInvalid[Hash] */\n      0x00\n        /* \"NFT_market_contract.sol\":10734:10738  Hash */\n      dup3\n        /* \"NFT_market_contract.sol\":10724:10739  IsInvalid[Hash] */\n      dup2\n      mstore\n      0x20\n      add\n      swap1\n      dup2\n      mstore\n      0x20\n      add\n      0x00\n      keccak256\n      0x00\n      swap1\n      sload\n      swap1\n      0x0100\n      exp\n      swap1\n      div\n      0xff\n      and\n        /* \"NFT_market_contract.sol\":10723:10739  !IsInvalid[Hash] */\n      iszero\n        /* \"NFT_market_contract.sol\":10715:10763  require(!IsInvalid[Hash], \"Order has been used\") */\n      tag_41\n      jumpi\n      mload(0x40)\n      0x08c379a000000000000000000000000000000000000000000000000000000000\n      dup2\n      mstore\n      0x04\n      add\n      tag_42\n      swap1\n      tag_43\n      jump\t// in\n    tag_42:\n      mload(0x40)\n      dup1\n      swap2\n      sub\n      swap1\n      revert\n    tag_41:\n        /* \"NFT_market_contract.sol\":10822:11111  verifySignature(... */\n      tag_44\n        /* \"NFT_market_contract.sol\":10856:10865  sellOrder */\n      dup4\n        /* \"NFT_market_contract.sol\":10856:10872  sellOrder.seller */\n      0x00\n      add\n      mload\n        /* \"NFT_market_contract.sol\":10891:10900  sellOrder */\n      dup5\n        /* \"NFT_market_contract.sol\":10891:10911  sellOrder.contractID */\n      0x20\n      add\n      mload\n        /* \"NFT_market_contract.sol\":10930:10939  sellOrder */\n      dup6\n        /* \"NFT_market_contract.sol\":10930:10947  sellOrder.tokenID */\n      0x40\n      add\n      mload\n        /* \"NFT_market_contract.sol\":10966:10975  sellOrder */\n      dup7\n        /* \"NFT_market_contract.sol\":10966:10981  sellOrder.price */\n      0x60\n      add\n      mload\n        /* \"NFT_market_contract.sol\":11000:11009  sellOrder */\n      dup8\n        /* \"NFT_market_contract.sol\":11000:11019  sellOrder.signature */\n      0x80\n      add\n      mload\n        /* \"NFT_market_contract.sol\":11038:11047  sellOrder */\n      dup9\n        /* \"NFT_market_contract.sol\":11038:11062  sellOrder.expirationTime */\n      0xa0\n      add\n      mload\n        /* \"NFT_market_contract.sol\":11081:11090  sellOrder */\n      dup10\n        /* \"NFT_market_contract.sol\":11081:11096  sellOrder.nonce */\n      0xc0\n      add\n      mload\n        /* \"NFT_market_contract.sol\":10822:10837  verifySignature */\n      tag_45\n        /* \"NFT_market_contract.sol\":10822:11111  verifySignature(... */\n      jump\t// in\n    tag_44:\n        /* \"NFT_market_contract.sol\":10800:11156  require(... */\n      tag_46\n      jumpi\n      mload(0x40)\n      0x08c379a000000000000000000000000000000000000000000000000000000000\n      dup2\n      mstore\n      0x04\n      add\n      tag_47\n      swap1\n      tag_36\n      jump\t// in\n    tag_47:\n      mload(0x40)\n      dup1\n      swap2\n      sub\n      swap1\n      revert\n    tag_46:\n        /* \"NFT_market_contract.sol\":11259:11268  sellOrder */\n      dup3\n        /* \"NFT_market_contract.sol\":11259:11279  sellOrder.contractID */\n      0x20\n      add\n      mload\n        /* \"NFT_market_contract.sol\":11251:11293  IERC721(sellOrder.contractID).transferFrom */\n      0xffffffffffffffffffffffffffffffffffffffff\n      and\n      0x23b872dd\n        /* \"NFT_market_contract.sol\":11312:11321  sellOrder */\n      dup5\n        /* \"NFT_market_contract.sol\":11312:11328  sellOrder.seller */\n      0x00\n      add\n      mload\n        /* \"NFT_market_contract.sol\":11347:11352  buyer */\n      dup5\n        /* \"NFT_market_contract.sol\":11371:11380  sellOrder */\n      dup7\n        /* \"NFT_market_contract.sol\":11371:11388  sellOrder.tokenID */\n      0x40\n      add\n      mload\n        /* \"NFT_market_contract.sol\":11251:11403  IERC721(sellOrder.contractID).transferFrom(... */\n      mload(0x40)\n      dup5\n      0xffffffff\n      and\n      0xe0\n      shl\n      dup2\n      mstore\n      0x04\n      add\n      tag_48\n      swap4\n      swap3\n      swap2\n      swap1\n      tag_49\n      jump\t// in\n    tag_48:\n      0x00\n      mload(0x40)\n      dup1\n      dup4\n      sub\n      dup2\n      0x00\n      dup8\n      dup1\n      extcodesize\n      iszero\n      dup1\n      iszero\n      tag_50\n      jumpi\n      0x00\n      dup1\n      revert\n    tag_50:\n      pop\n      gas\n      call\n      swap3\n      pop\n      pop\n      pop\n      dup1\n      iszero\n      tag_51\n      jumpi\n      pop\n      0x01\n    tag_51:\n        /* \"NFT_market_contract.sol\":11234:11525  try... */\n      tag_52\n      jumpi\n        /* \"NFT_market_contract.sol\":11507:11514  return; */\n      pop\n      jump(tag_39)\n        /* \"NFT_market_contract.sol\":11234:11525  try... */\n    tag_52:\n        /* \"NFT_market_contract.sol\":11428:11452  markOrderCancelled(Hash) */\n      tag_57\n        /* \"NFT_market_contract.sol\":11447:11451  Hash */\n      dup2\n        /* \"NFT_market_contract.sol\":11428:11446  markOrderCancelled */\n      tag_38\n        /* \"NFT_market_contract.sol\":11428:11452  markOrderCancelled(Hash) */\n      jump\t// in\n    tag_57:\n        /* \"NFT_market_contract.sol\":11467:11474  return; */\n      pop\n        /* \"NFT_market_contract.sol\":10248:11532  function AtomicTx(... */\n    tag_39:\n      pop\n      pop\n      jump\t// out\n        /* \"NFT_market_contract.sol\":10124:10240  function isOrderInvalid(bytes32 orderHash) public view returns (bool) {... */\n    tag_25:\n        /* \"NFT_market_contract.sol\":10188:10192  bool */\n      0x00\n        /* \"NFT_market_contract.sol\":10212:10221  IsInvalid */\n      0x01\n        /* \"NFT_market_contract.sol\":10212:10232  IsInvalid[orderHash] */\n      0x00\n        /* \"NFT_market_contract.sol\":10222:10231  orderHash */\n      dup4\n        /* \"NFT_market_contract.sol\":10212:10232  IsInvalid[orderHash] */\n      dup2\n      mstore\n      0x20\n      add\n      swap1\n      dup2\n      mstore\n      0x20\n      add\n      0x00\n      keccak256\n      0x00\n      swap1\n      sload\n      swap1\n      0x0100\n      exp\n      swap1\n      div\n      0xff\n      and\n        /* \"NFT_market_contract.sol\":10205:10232  return IsInvalid[orderHash] */\n      swap1\n      pop\n        /* \"NFT_market_contract.sol\":10124:10240  function isOrderInvalid(bytes32 orderHash) public view returns (bool) {... */\n      swap2\n      swap1\n      pop\n      jump\t// out\n        /* \"NFT_market_contract.sol\":12960:13420  function recoverSigner(... */\n    tag_33:\n        /* \"NFT_market_contract.sol\":13069:13076  address */\n      0x00\n        /* \"NFT_market_contract.sol\":13089:13098  bytes32 r */\n      dup1\n        /* \"NFT_market_contract.sol\":13109:13118  bytes32 s */\n      0x00\n        /* \"NFT_market_contract.sol\":13129:13136  uint8 v */\n      dup1\n        /* \"NFT_market_contract.sol\":13199:13201  32 */\n      0x20\n        /* \"NFT_market_contract.sol\":13188:13197  signature */\n      dup6\n        /* \"NFT_market_contract.sol\":13184:13202  add(signature, 32) */\n      add\n        /* \"NFT_market_contract.sol\":13178:13203  mload(add(signature, 32)) */\n      mload\n        /* \"NFT_market_contract.sol\":13173:13203  r := mload(add(signature, 32)) */\n      swap3\n      pop\n        /* \"NFT_market_contract.sol\":13243:13245  64 */\n      0x40\n        /* \"NFT_market_contract.sol\":13232:13241  signature */\n      dup6\n        /* \"NFT_market_contract.sol\":13228:13246  add(signature, 64) */\n      add\n        /* \"NFT_market_contract.sol\":13222:13247  mload(add(signature, 64)) */\n      mload\n        /* \"NFT_market_contract.sol\":13217:13247  s := mload(add(signature, 64)) */\n      swap2\n      pop\n        /* \"NFT_market_contract.sol\":13295:13297  96 */\n      0x60\n        /* \"NFT_market_contract.sol\":13284:13293  signature */\n      dup6\n        /* \"NFT_market_contract.sol\":13280:13298  add(signature, 96) */\n      add\n        /* \"NFT_market_contract.sol\":13274:13299  mload(add(signature, 96)) */\n      mload\n        /* \"NFT_market_contract.sol\":13271:13272  0 */\n      0x00\n        /* \"NFT_market_contract.sol\":13266:13300  byte(0, mload(add(signature, 96))) */\n      byte\n        /* \"NFT_market_contract.sol\":13261:13300  v := byte(0, mload(add(signature, 96))) */\n      swap1\n      pop\n        /* \"NFT_market_contract.sol\":13331:13333  27 */\n      0x1b\n        /* \"NFT_market_contract.sol\":13327:13328  v */\n      dup2\n        /* \"NFT_market_contract.sol\":13327:13333  v < 27 */\n      0xff\n      and\n      lt\n        /* \"NFT_market_contract.sol\":13323:13369  if (v < 27) {... */\n      iszero\n      tag_60\n      jumpi\n        /* \"NFT_market_contract.sol\":13355:13357  27 */\n      0x1b\n        /* \"NFT_market_contract.sol\":13350:13357  v += 27 */\n      dup2\n      tag_61\n      swap2\n      swap1\n      tag_62\n      jump\t// in\n    tag_61:\n      swap1\n      pop\n        /* \"NFT_market_contract.sol\":13323:13369  if (v < 27) {... */\n    tag_60:\n        /* \"NFT_market_contract.sol\":13388:13412  ecrecover(hash, v, r, s) */\n      0x01\n        /* \"NFT_market_contract.sol\":13398:13402  hash */\n      dup7\n        /* \"NFT_market_contract.sol\":13404:13405  v */\n      dup3\n        /* \"NFT_market_contract.sol\":13407:13408  r */\n      dup6\n        /* \"NFT_market_contract.sol\":13410:13411  s */\n      dup6\n        /* \"NFT_market_contract.sol\":13388:13412  ecrecover(hash, v, r, s) */\n      mload(0x40)\n      0x00\n      dup2\n      mstore\n      0x20\n      add\n      0x40\n      mstore\n      mload(0x40)\n      tag_63\n      swap5\n      swap4\n      swap3\n      swap2\n      swap1\n      tag_64\n      jump\t// in\n    tag_63:\n      0x20\n      mload(0x40)\n      0x20\n      dup2\n      sub\n      swap1\n      dup1\n      dup5\n      sub\n      swap1\n      dup6\n      gas\n      staticcall\n      iszero\n      dup1\n      iszero\n      tag_66\n      jumpi\n      returndatasize\n      0x00\n      dup1\n      returndatacopy\n      revert(0x00, returndatasize)\n    tag_66:\n      pop\n      pop\n      pop\n      mload(sub(mload(0x40), 0x20))\n        /* \"NFT_market_contract.sol\":13381:13412  return ecrecover(hash, v, r, s) */\n      swap4\n      pop\n      pop\n      pop\n      pop\n        /* \"NFT_market_contract.sol\":12960:13420  function recoverSigner(... */\n      swap3\n      swap2\n      pop\n      pop\n      jump\t// out\n        /* \"NFT_market_contract.sol\":9921:10060  function markOrderCancelled(bytes32 orderHash) internal {... */\n    tag_38:\n        /* \"NFT_market_contract.sol\":10048:10052  true */\n      0x01\n        /* \"NFT_market_contract.sol\":10025:10034  IsInvalid */\n      dup1\n        /* \"NFT_market_contract.sol\":10025:10045  IsInvalid[orderHash] */\n      0x00\n        /* \"NFT_market_contract.sol\":10035:10044  orderHash */\n      dup4\n        /* \"NFT_market_contract.sol\":10025:10045  IsInvalid[orderHash] */\n      dup2\n      mstore\n      0x20\n      add\n      swap1\n      dup2\n      mstore\n      0x20\n      add\n      0x00\n      keccak256\n      0x00\n        /* \"NFT_market_contract.sol\":10025:10052  IsInvalid[orderHash] = true */\n      0x0100\n      exp\n      dup2\n      sload\n      dup2\n      0xff\n      mul\n      not\n      and\n      swap1\n      dup4\n      iszero\n      iszero\n      mul\n      or\n      swap1\n      sstore\n      pop\n        /* \"NFT_market_contract.sol\":9921:10060  function markOrderCancelled(bytes32 orderHash) internal {... */\n      pop\n      jump\t// out\n        /* \"NFT_market_contract.sol\":12249:12952  function verifySignature(... */\n    tag_45:\n        /* \"NFT_market_contract.sol\":12498:12502  bool */\n      0x00\n        /* \"NFT_market_contract.sol\":12515:12527  bytes32 hash */\n      dup1\n        /* \"NFT_market_contract.sol\":12589:12595  seller */\n      dup9\n        /* \"NFT_market_contract.sol\":12614:12624  contractID */\n      dup9\n        /* \"NFT_market_contract.sol\":12643:12650  tokenID */\n      dup9\n        /* \"NFT_market_contract.sol\":12669:12674  price */\n      dup9\n        /* \"NFT_market_contract.sol\":12693:12707  expirationTime */\n      dup8\n        /* \"NFT_market_contract.sol\":12726:12731  nonce */\n      dup8\n        /* \"NFT_market_contract.sol\":12554:12746  abi.encodePacked(... */\n      add(0x20, mload(0x40))\n      tag_69\n      swap7\n      swap6\n      swap5\n      swap4\n      swap3\n      swap2\n      swap1\n      tag_29\n      jump\t// in\n    tag_69:\n      mload(0x40)\n      0x20\n      dup2\n      dup4\n      sub\n      sub\n      dup2\n      mstore\n      swap1\n      0x40\n      mstore\n        /* \"NFT_market_contract.sol\":12530:12757  keccak256(... */\n      dup1\n      mload\n      swap1\n      0x20\n      add\n      keccak256\n        /* \"NFT_market_contract.sol\":12515:12757  bytes32 hash = keccak256(... */\n      swap1\n      pop\n        /* \"NFT_market_contract.sol\":12768:12785  bytes32 OrderHash */\n      0x00\n        /* \"NFT_market_contract.sol\":12865:12869  hash */\n      dup2\n        /* \"NFT_market_contract.sol\":12812:12870  abi.encodePacked(\"\\x19Ethereum Signed Message:\\n32\", hash) */\n      add(0x20, mload(0x40))\n      tag_70\n      swap2\n      swap1\n      tag_31\n      jump\t// in\n    tag_70:\n      mload(0x40)\n      0x20\n      dup2\n      dup4\n      sub\n      sub\n      dup2\n      mstore\n      swap1\n      0x40\n      mstore\n        /* \"NFT_market_contract.sol\":12788:12881  keccak256(... */\n      dup1\n      mload\n      swap1\n      0x20\n      add\n      keccak256\n        /* \"NFT_market_contract.sol\":12768:12881  bytes32 OrderHash = keccak256(... */\n      swap1\n      pop\n        /* \"NFT_market_contract.sol\":12938:12944  seller */\n      dup10\n        /* \"NFT_market_contract.sol\":12899:12944  recoverSigner(OrderHash, signature) == seller */\n      0xffffffffffffffffffffffffffffffffffffffff\n      and\n        /* \"NFT_market_contract.sol\":12899:12934  recoverSigner(OrderHash, signature) */\n      tag_71\n        /* \"NFT_market_contract.sol\":12913:12922  OrderHash */\n      dup3\n        /* \"NFT_market_contract.sol\":12924:12933  signature */\n      dup9\n        /* \"NFT_market_contract.sol\":12899:12912  recoverSigner */\n      tag_33\n        /* \"NFT_market_contract.sol\":12899:12934  recoverSigner(OrderHash, signature) */\n      jump\t// in\n    tag_71:\n        /* \"NFT_market_contract.sol\":12899:12944  recoverSigner(OrderHash, signature) == seller */\n      0xffffffffffffffffffffffffffffffffffffffff\n      and\n      eq\n        /* \"NFT_market_contract.sol\":12892:12944  return recoverSigner(OrderHash, signature) == seller */\n      swap3\n      pop\n      pop\n      pop\n        /* \"NFT_market_contract.sol\":12249:12952  function verifySignature(... */\n      swap8\n      swap7\n      pop\n      pop\n      pop\n      pop\n      pop\n      pop\n      pop\n      jump\t// out\n        /* \"#utility.yul\":7:82   */\n    tag_72:\n        /* \"#utility.yul\":40:46   */\n      0x00\n        /* \"#utility.yul\":73:75   */\n      0x40\n        /* \"#utility.yul\":67:76   */\n      mload\n        /* \"#utility.yul\":57:76   */\n      swap1\n      pop\n        /* \"#utility.yul\":7:82   */\n      swap1\n      jump\t// out\n        /* \"#utility.yul\":88:205   */\n    tag_73:\n        /* \"#utility.yul\":197:198   */\n      0x00\n        /* \"#utility.yul\":194:195   */\n      dup1\n        /* \"#utility.yul\":187:199   */\n      revert\n        /* \"#utility.yul\":211:328   */\n    tag_74:\n        /* \"#utility.yul\":320:321   */\n      0x00\n        /* \"#utility.yul\":317:318   */\n      dup1\n        /* \"#utility.yul\":310:322   */\n      revert\n        /* \"#utility.yul\":334:411   */\n    tag_75:\n        /* \"#utility.yul\":371:378   */\n      0x00\n        /* \"#utility.yul\":400:405   */\n      dup2\n        /* \"#utility.yul\":389:405   */\n      swap1\n      pop\n        /* \"#utility.yul\":334:411   */\n      swap2\n      swap1\n      pop\n      jump\t// out\n        /* \"#utility.yul\":417:539   */\n    tag_76:\n        /* \"#utility.yul\":490:514   */\n      tag_128\n        /* \"#utility.yul\":508:513   */\n      dup2\n        /* \"#utility.yul\":490:514   */\n      tag_75\n      jump\t// in\n    tag_128:\n        /* \"#utility.yul\":483:488   */\n      dup2\n        /* \"#utility.yul\":480:515   */\n      eq\n        /* \"#utility.yul\":470:533   */\n      tag_129\n      jumpi\n        /* \"#utility.yul\":529:530   */\n      0x00\n        /* \"#utility.yul\":526:527   */\n      dup1\n        /* \"#utility.yul\":519:531   */\n      revert\n        /* \"#utility.yul\":470:533   */\n    tag_129:\n        /* \"#utility.yul\":417:539   */\n      pop\n      jump\t// out\n        /* \"#utility.yul\":545:684   */\n    tag_77:\n        /* \"#utility.yul\":591:596   */\n      0x00\n        /* \"#utility.yul\":629:635   */\n      dup2\n        /* \"#utility.yul\":616:636   */\n      calldataload\n        /* \"#utility.yul\":607:636   */\n      swap1\n      pop\n        /* \"#utility.yul\":645:678   */\n      tag_131\n        /* \"#utility.yul\":672:677   */\n      dup2\n        /* \"#utility.yul\":645:678   */\n      tag_76\n      jump\t// in\n    tag_131:\n        /* \"#utility.yul\":545:684   */\n      swap3\n      swap2\n      pop\n      pop\n      jump\t// out\n        /* \"#utility.yul\":690:1019   */\n    tag_9:\n        /* \"#utility.yul\":749:755   */\n      0x00\n        /* \"#utility.yul\":798:800   */\n      0x20\n        /* \"#utility.yul\":786:795   */\n      dup3\n        /* \"#utility.yul\":777:784   */\n      dup5\n        /* \"#utility.yul\":773:796   */\n      sub\n        /* \"#utility.yul\":769:801   */\n      slt\n        /* \"#utility.yul\":766:885   */\n      iszero\n      tag_133\n      jumpi\n        /* \"#utility.yul\":804:883   */\n      tag_134\n      tag_73\n      jump\t// in\n    tag_134:\n        /* \"#utility.yul\":766:885   */\n    tag_133:\n        /* \"#utility.yul\":924:925   */\n      0x00\n        /* \"#utility.yul\":949:1002   */\n      tag_135\n        /* \"#utility.yul\":994:1001   */\n      dup5\n        /* \"#utility.yul\":985:991   */\n      dup3\n        /* \"#utility.yul\":974:983   */\n      dup6\n        /* \"#utility.yul\":970:992   */\n      add\n        /* \"#utility.yul\":949:1002   */\n      tag_77\n      jump\t// in\n    tag_135:\n        /* \"#utility.yul\":939:1002   */\n      swap2\n      pop\n        /* \"#utility.yul\":895:1012   */\n      pop\n        /* \"#utility.yul\":690:1019   */\n      swap3\n      swap2\n      pop\n      pop\n      jump\t// out\n        /* \"#utility.yul\":1025:1115   */\n    tag_78:\n        /* \"#utility.yul\":1059:1066   */\n      0x00\n        /* \"#utility.yul\":1102:1107   */\n      dup2\n        /* \"#utility.yul\":1095:1108   */\n      iszero\n        /* \"#utility.yul\":1088:1109   */\n      iszero\n        /* \"#utility.yul\":1077:1109   */\n      swap1\n      pop\n        /* \"#utility.yul\":1025:1115   */\n      swap2\n      swap1\n      pop\n      jump\t// out\n        /* \"#utility.yul\":1121:1230   */\n    tag_79:\n        /* \"#utility.yul\":1202:1223   */\n      tag_138\n        /* \"#utility.yul\":1217:1222   */\n      dup2\n        /* \"#utility.yul\":1202:1223   */\n      tag_78\n      jump\t// in\n    tag_138:\n        /* \"#utility.yul\":1197:1200   */\n      dup3\n        /* \"#utility.yul\":1190:1224   */\n      mstore\n        /* \"#utility.yul\":1121:1230   */\n      pop\n      pop\n      jump\t// out\n        /* \"#utility.yul\":1236:1446   */\n    tag_12:\n        /* \"#utility.yul\":1323:1327   */\n      0x00\n        /* \"#utility.yul\":1361:1363   */\n      0x20\n        /* \"#utility.yul\":1350:1359   */\n      dup3\n        /* \"#utility.yul\":1346:1364   */\n      add\n        /* \"#utility.yul\":1338:1364   */\n      swap1\n      pop\n        /* \"#utility.yul\":1374:1439   */\n      tag_140\n        /* \"#utility.yul\":1436:1437   */\n      0x00\n        /* \"#utility.yul\":1425:1434   */\n      dup4\n        /* \"#utility.yul\":1421:1438   */\n      add\n        /* \"#utility.yul\":1412:1418   */\n      dup5\n        /* \"#utility.yul\":1374:1439   */\n      tag_79\n      jump\t// in\n    tag_140:\n        /* \"#utility.yul\":1236:1446   */\n      swap3\n      swap2\n      pop\n      pop\n      jump\t// out\n        /* \"#utility.yul\":1452:1569   */\n    tag_80:\n        /* \"#utility.yul\":1561:1562   */\n      0x00\n        /* \"#utility.yul\":1558:1559   */\n      dup1\n        /* \"#utility.yul\":1551:1563   */\n      revert\n        /* \"#utility.yul\":1575:1677   */\n    tag_81:\n        /* \"#utility.yul\":1616:1622   */\n      0x00\n        /* \"#utility.yul\":1667:1669   */\n      0x1f\n        /* \"#utility.yul\":1663:1670   */\n      not\n        /* \"#utility.yul\":1658:1660   */\n      0x1f\n        /* \"#utility.yul\":1651:1656   */\n      dup4\n        /* \"#utility.yul\":1647:1661   */\n      add\n        /* \"#utility.yul\":1643:1671   */\n      and\n        /* \"#utility.yul\":1633:1671   */\n      swap1\n      pop\n        /* \"#utility.yul\":1575:1677   */\n      swap2\n      swap1\n      pop\n      jump\t// out\n        /* \"#utility.yul\":1683:1863   */\n    tag_82:\n        /* \"#utility.yul\":1731:1808   */\n      0x4e487b7100000000000000000000000000000000000000000000000000000000\n        /* \"#utility.yul\":1728:1729   */\n      0x00\n        /* \"#utility.yul\":1721:1809   */\n      mstore\n        /* \"#utility.yul\":1828:1832   */\n      0x41\n        /* \"#utility.yul\":1825:1826   */\n      0x04\n        /* \"#utility.yul\":1818:1833   */\n      mstore\n        /* \"#utility.yul\":1852:1856   */\n      0x24\n        /* \"#utility.yul\":1849:1850   */\n      0x00\n        /* \"#utility.yul\":1842:1857   */\n      revert\n        /* \"#utility.yul\":1869:2150   */\n    tag_83:\n        /* \"#utility.yul\":1952:1979   */\n      tag_145\n        /* \"#utility.yul\":1974:1978   */\n      dup3\n        /* \"#utility.yul\":1952:1979   */\n      tag_81\n      jump\t// in\n    tag_145:\n        /* \"#utility.yul\":1944:1950   */\n      dup2\n        /* \"#utility.yul\":1940:1980   */\n      add\n        /* \"#utility.yul\":2082:2088   */\n      dup2\n        /* \"#utility.yul\":2070:2080   */\n      dup2\n        /* \"#utility.yul\":2067:2089   */\n      lt\n        /* \"#utility.yul\":2046:2064   */\n      0xffffffffffffffff\n        /* \"#utility.yul\":2034:2044   */\n      dup3\n        /* \"#utility.yul\":2031:2065   */\n      gt\n        /* \"#utility.yul\":2028:2090   */\n      or\n        /* \"#utility.yul\":2025:2113   */\n      iszero\n      tag_146\n      jumpi\n        /* \"#utility.yul\":2093:2111   */\n      tag_147\n      tag_82\n      jump\t// in\n    tag_147:\n        /* \"#utility.yul\":2025:2113   */\n    tag_146:\n        /* \"#utility.yul\":2133:2143   */\n      dup1\n        /* \"#utility.yul\":2129:2131   */\n      0x40\n        /* \"#utility.yul\":2122:2144   */\n      mstore\n        /* \"#utility.yul\":1912:2150   */\n      pop\n        /* \"#utility.yul\":1869:2150   */\n      pop\n      pop\n      jump\t// out\n        /* \"#utility.yul\":2156:2285   */\n    tag_84:\n        /* \"#utility.yul\":2190:2196   */\n      0x00\n        /* \"#utility.yul\":2217:2237   */\n      tag_149\n      tag_72\n      jump\t// in\n    tag_149:\n        /* \"#utility.yul\":2207:2237   */\n      swap1\n      pop\n        /* \"#utility.yul\":2246:2279   */\n      tag_150\n        /* \"#utility.yul\":2274:2278   */\n      dup3\n        /* \"#utility.yul\":2266:2272   */\n      dup3\n        /* \"#utility.yul\":2246:2279   */\n      tag_83\n      jump\t// in\n    tag_150:\n        /* \"#utility.yul\":2156:2285   */\n      swap2\n      swap1\n      pop\n      jump\t// out\n        /* \"#utility.yul\":2291:2408   */\n    tag_85:\n        /* \"#utility.yul\":2400:2401   */\n      0x00\n        /* \"#utility.yul\":2397:2398   */\n      dup1\n        /* \"#utility.yul\":2390:2402   */\n      revert\n        /* \"#utility.yul\":2414:2540   */\n    tag_86:\n        /* \"#utility.yul\":2451:2458   */\n      0x00\n        /* \"#utility.yul\":2491:2533   */\n      0xffffffffffffffffffffffffffffffffffffffff\n        /* \"#utility.yul\":2484:2489   */\n      dup3\n        /* \"#utility.yul\":2480:2534   */\n      and\n        /* \"#utility.yul\":2469:2534   */\n      swap1\n      pop\n        /* \"#utility.yul\":2414:2540   */\n      swap2\n      swap1\n      pop\n      jump\t// out\n        /* \"#utility.yul\":2546:2642   */\n    tag_87:\n        /* \"#utility.yul\":2583:2590   */\n      0x00\n        /* \"#utility.yul\":2612:2636   */\n      tag_154\n        /* \"#utility.yul\":2630:2635   */\n      dup3\n        /* \"#utility.yul\":2612:2636   */\n      tag_86\n      jump\t// in\n    tag_154:\n        /* \"#utility.yul\":2601:2636   */\n      swap1\n      pop\n        /* \"#utility.yul\":2546:2642   */\n      swap2\n      swap1\n      pop\n      jump\t// out\n        /* \"#utility.yul\":2648:2770   */\n    tag_88:\n        /* \"#utility.yul\":2721:2745   */\n      tag_156\n        /* \"#utility.yul\":2739:2744   */\n      dup2\n        /* \"#utility.yul\":2721:2745   */\n      tag_87\n      jump\t// in\n    tag_156:\n        /* \"#utility.yul\":2714:2719   */\n      dup2\n        /* \"#utility.yul\":2711:2746   */\n      eq\n        /* \"#utility.yul\":2701:2764   */\n      tag_157\n      jumpi\n        /* \"#utility.yul\":2760:2761   */\n      0x00\n        /* \"#utility.yul\":2757:2758   */\n      dup1\n        /* \"#utility.yul\":2750:2762   */\n      revert\n        /* \"#utility.yul\":2701:2764   */\n    tag_157:\n        /* \"#utility.yul\":2648:2770   */\n      pop\n      jump\t// out\n        /* \"#utility.yul\":2776:2915   */\n    tag_89:\n        /* \"#utility.yul\":2822:2827   */\n      0x00\n        /* \"#utility.yul\":2860:2866   */\n      dup2\n        /* \"#utility.yul\":2847:2867   */\n      calldataload\n        /* \"#utility.yul\":2838:2867   */\n      swap1\n      pop\n        /* \"#utility.yul\":2876:2909   */\n      tag_159\n        /* \"#utility.yul\":2903:2908   */\n      dup2\n        /* \"#utility.yul\":2876:2909   */\n      tag_88\n      jump\t// in\n    tag_159:\n        /* \"#utility.yul\":2776:2915   */\n      swap3\n      swap2\n      pop\n      pop\n      jump\t// out\n        /* \"#utility.yul\":2921:2998   */\n    tag_90:\n        /* \"#utility.yul\":2958:2965   */\n      0x00\n        /* \"#utility.yul\":2987:2992   */\n      dup2\n        /* \"#utility.yul\":2976:2992   */\n      swap1\n      pop\n        /* \"#utility.yul\":2921:2998   */\n      swap2\n      swap1\n      pop\n      jump\t// out\n        /* \"#utility.yul\":3004:3126   */\n    tag_91:\n        /* \"#utility.yul\":3077:3101   */\n      tag_162\n        /* \"#utility.yul\":3095:3100   */\n      dup2\n        /* \"#utility.yul\":3077:3101   */\n      tag_90\n      jump\t// in\n    tag_162:\n        /* \"#utility.yul\":3070:3075   */\n      dup2\n        /* \"#utility.yul\":3067:3102   */\n      eq\n        /* \"#utility.yul\":3057:3120   */\n      tag_163\n      jumpi\n        /* \"#utility.yul\":3116:3117   */\n      0x00\n        /* \"#utility.yul\":3113:3114   */\n      dup1\n        /* \"#utility.yul\":3106:3118   */\n      revert\n        /* \"#utility.yul\":3057:3120   */\n    tag_163:\n        /* \"#utility.yul\":3004:3126   */\n      pop\n      jump\t// out\n        /* \"#utility.yul\":3132:3271   */\n    tag_92:\n        /* \"#utility.yul\":3178:3183   */\n      0x00\n        /* \"#utility.yul\":3216:3222   */\n      dup2\n        /* \"#utility.yul\":3203:3223   */\n      calldataload\n        /* \"#utility.yul\":3194:3223   */\n      swap1\n      pop\n        /* \"#utility.yul\":3232:3265   */\n      tag_165\n        /* \"#utility.yul\":3259:3264   */\n      dup2\n        /* \"#utility.yul\":3232:3265   */\n      tag_91\n      jump\t// in\n    tag_165:\n        /* \"#utility.yul\":3132:3271   */\n      swap3\n      swap2\n      pop\n      pop\n      jump\t// out\n        /* \"#utility.yul\":3277:3394   */\n    tag_93:\n        /* \"#utility.yul\":3386:3387   */\n      0x00\n        /* \"#utility.yul\":3383:3384   */\n      dup1\n        /* \"#utility.yul\":3376:3388   */\n      revert\n        /* \"#utility.yul\":3400:3517   */\n    tag_94:\n        /* \"#utility.yul\":3509:3510   */\n      0x00\n        /* \"#utility.yul\":3506:3507   */\n      dup1\n        /* \"#utility.yul\":3499:3511   */\n      revert\n        /* \"#utility.yul\":3523:3830   */\n    tag_95:\n        /* \"#utility.yul\":3584:3588   */\n      0x00\n        /* \"#utility.yul\":3674:3692   */\n      0xffffffffffffffff\n        /* \"#utility.yul\":3666:3672   */\n      dup3\n        /* \"#utility.yul\":3663:3693   */\n      gt\n        /* \"#utility.yul\":3660:3716   */\n      iszero\n      tag_169\n      jumpi\n        /* \"#utility.yul\":3696:3714   */\n      tag_170\n      tag_82\n      jump\t// in\n    tag_170:\n        /* \"#utility.yul\":3660:3716   */\n    tag_169:\n        /* \"#utility.yul\":3734:3763   */\n      tag_171\n        /* \"#utility.yul\":3756:3762   */\n      dup3\n        /* \"#utility.yul\":3734:3763   */\n      tag_81\n      jump\t// in\n    tag_171:\n        /* \"#utility.yul\":3726:3763   */\n      swap1\n      pop\n        /* \"#utility.yul\":3818:3822   */\n      0x20\n        /* \"#utility.yul\":3812:3816   */\n      dup2\n        /* \"#utility.yul\":3808:3823   */\n      add\n        /* \"#utility.yul\":3800:3823   */\n      swap1\n      pop\n        /* \"#utility.yul\":3523:3830   */\n      swap2\n      swap1\n      pop\n      jump\t// out\n        /* \"#utility.yul\":3836:3982   */\n    tag_96:\n        /* \"#utility.yul\":3933:3939   */\n      dup3\n        /* \"#utility.yul\":3928:3931   */\n      dup2\n        /* \"#utility.yul\":3923:3926   */\n      dup4\n        /* \"#utility.yul\":3910:3940   */\n      calldatacopy\n        /* \"#utility.yul\":3974:3975   */\n      0x00\n        /* \"#utility.yul\":3965:3971   */\n      dup4\n        /* \"#utility.yul\":3960:3963   */\n      dup4\n        /* \"#utility.yul\":3956:3972   */\n      add\n        /* \"#utility.yul\":3949:3976   */\n      mstore\n        /* \"#utility.yul\":3836:3982   */\n      pop\n      pop\n      pop\n      jump\t// out\n        /* \"#utility.yul\":3988:4411   */\n    tag_97:\n        /* \"#utility.yul\":4065:4070   */\n      0x00\n        /* \"#utility.yul\":4090:4155   */\n      tag_174\n        /* \"#utility.yul\":4106:4154   */\n      tag_175\n        /* \"#utility.yul\":4147:4153   */\n      dup5\n        /* \"#utility.yul\":4106:4154   */\n      tag_95\n      jump\t// in\n    tag_175:\n        /* \"#utility.yul\":4090:4155   */\n      tag_84\n      jump\t// in\n    tag_174:\n        /* \"#utility.yul\":4081:4155   */\n      swap1\n      pop\n        /* \"#utility.yul\":4178:4184   */\n      dup3\n        /* \"#utility.yul\":4171:4176   */\n      dup2\n        /* \"#utility.yul\":4164:4185   */\n      mstore\n        /* \"#utility.yul\":4216:4220   */\n      0x20\n        /* \"#utility.yul\":4209:4214   */\n      dup2\n        /* \"#utility.yul\":4205:4221   */\n      add\n        /* \"#utility.yul\":4254:4257   */\n      dup5\n        /* \"#utility.yul\":4245:4251   */\n      dup5\n        /* \"#utility.yul\":4240:4243   */\n      dup5\n        /* \"#utility.yul\":4236:4252   */\n      add\n        /* \"#utility.yul\":4233:4258   */\n      gt\n        /* \"#utility.yul\":4230:4342   */\n      iszero\n      tag_176\n      jumpi\n        /* \"#utility.yul\":4261:4340   */\n      tag_177\n      tag_94\n      jump\t// in\n    tag_177:\n        /* \"#utility.yul\":4230:4342   */\n    tag_176:\n        /* \"#utility.yul\":4351:4405   */\n      tag_178\n        /* \"#utility.yul\":4398:4404   */\n      dup5\n        /* \"#utility.yul\":4393:4396   */\n      dup3\n        /* \"#utility.yul\":4388:4391   */\n      dup6\n        /* \"#utility.yul\":4351:4405   */\n      tag_96\n      jump\t// in\n    tag_178:\n        /* \"#utility.yul\":4071:4411   */\n      pop\n        /* \"#utility.yul\":3988:4411   */\n      swap4\n      swap3\n      pop\n      pop\n      pop\n      jump\t// out\n        /* \"#utility.yul\":4430:4768   */\n    tag_98:\n        /* \"#utility.yul\":4485:4490   */\n      0x00\n        /* \"#utility.yul\":4534:4537   */\n      dup3\n        /* \"#utility.yul\":4527:4531   */\n      0x1f\n        /* \"#utility.yul\":4519:4525   */\n      dup4\n        /* \"#utility.yul\":4515:4532   */\n      add\n        /* \"#utility.yul\":4511:4538   */\n      slt\n        /* \"#utility.yul\":4501:4623   */\n      tag_180\n      jumpi\n        /* \"#utility.yul\":4542:4621   */\n      tag_181\n      tag_93\n      jump\t// in\n    tag_181:\n        /* \"#utility.yul\":4501:4623   */\n    tag_180:\n        /* \"#utility.yul\":4659:4665   */\n      dup2\n        /* \"#utility.yul\":4646:4666   */\n      calldataload\n        /* \"#utility.yul\":4684:4762   */\n      tag_182\n        /* \"#utility.yul\":4758:4761   */\n      dup5\n        /* \"#utility.yul\":4750:4756   */\n      dup3\n        /* \"#utility.yul\":4743:4747   */\n      0x20\n        /* \"#utility.yul\":4735:4741   */\n      dup7\n        /* \"#utility.yul\":4731:4748   */\n      add\n        /* \"#utility.yul\":4684:4762   */\n      tag_97\n      jump\t// in\n    tag_182:\n        /* \"#utility.yul\":4675:4762   */\n      swap2\n      pop\n        /* \"#utility.yul\":4491:4768   */\n      pop\n        /* \"#utility.yul\":4430:4768   */\n      swap3\n      swap2\n      pop\n      pop\n      jump\t// out\n        /* \"#utility.yul\":4810:6391   */\n    tag_99:\n        /* \"#utility.yul\":4886:4891   */\n      0x00\n        /* \"#utility.yul\":4930:4934   */\n      0xe0\n        /* \"#utility.yul\":4918:4927   */\n      dup3\n        /* \"#utility.yul\":4913:4916   */\n      dup5\n        /* \"#utility.yul\":4909:4928   */\n      sub\n        /* \"#utility.yul\":4905:4935   */\n      slt\n        /* \"#utility.yul\":4902:5019   */\n      iszero\n      tag_184\n      jumpi\n        /* \"#utility.yul\":4938:5017   */\n      tag_185\n      tag_80\n      jump\t// in\n    tag_185:\n        /* \"#utility.yul\":4902:5019   */\n    tag_184:\n        /* \"#utility.yul\":5037:5058   */\n      tag_186\n        /* \"#utility.yul\":5053:5057   */\n      0xe0\n        /* \"#utility.yul\":5037:5058   */\n      tag_84\n      jump\t// in\n    tag_186:\n        /* \"#utility.yul\":5028:5058   */\n      swap1\n      pop\n        /* \"#utility.yul\":5119:5120   */\n      0x00\n        /* \"#utility.yul\":5159:5208   */\n      tag_187\n        /* \"#utility.yul\":5204:5207   */\n      dup5\n        /* \"#utility.yul\":5195:5201   */\n      dup3\n        /* \"#utility.yul\":5184:5193   */\n      dup6\n        /* \"#utility.yul\":5180:5202   */\n      add\n        /* \"#utility.yul\":5159:5208   */\n      tag_89\n      jump\t// in\n    tag_187:\n        /* \"#utility.yul\":5152:5156   */\n      0x00\n        /* \"#utility.yul\":5145:5150   */\n      dup4\n        /* \"#utility.yul\":5141:5157   */\n      add\n        /* \"#utility.yul\":5134:5209   */\n      mstore\n        /* \"#utility.yul\":5068:5220   */\n      pop\n        /* \"#utility.yul\":5285:5287   */\n      0x20\n        /* \"#utility.yul\":5326:5375   */\n      tag_188\n        /* \"#utility.yul\":5371:5374   */\n      dup5\n        /* \"#utility.yul\":5362:5368   */\n      dup3\n        /* \"#utility.yul\":5351:5360   */\n      dup6\n        /* \"#utility.yul\":5347:5369   */\n      add\n        /* \"#utility.yul\":5326:5375   */\n      tag_89\n      jump\t// in\n    tag_188:\n        /* \"#utility.yul\":5319:5323   */\n      0x20\n        /* \"#utility.yul\":5312:5317   */\n      dup4\n        /* \"#utility.yul\":5308:5324   */\n      add\n        /* \"#utility.yul\":5301:5376   */\n      mstore\n        /* \"#utility.yul\":5230:5387   */\n      pop\n        /* \"#utility.yul\":5449:5451   */\n      0x40\n        /* \"#utility.yul\":5490:5539   */\n      tag_189\n        /* \"#utility.yul\":5535:5538   */\n      dup5\n        /* \"#utility.yul\":5526:5532   */\n      dup3\n        /* \"#utility.yul\":5515:5524   */\n      dup6\n        /* \"#utility.yul\":5511:5533   */\n      add\n        /* \"#utility.yul\":5490:5539   */\n      tag_92\n      jump\t// in\n    tag_189:\n        /* \"#utility.yul\":5483:5487   */\n      0x40\n        /* \"#utility.yul\":5476:5481   */\n      dup4\n        /* \"#utility.yul\":5472:5488   */\n      add\n        /* \"#utility.yul\":5465:5540   */\n      mstore\n        /* \"#utility.yul\":5397:5551   */\n      pop\n        /* \"#utility.yul\":5611:5613   */\n      0x60\n        /* \"#utility.yul\":5652:5701   */\n      tag_190\n        /* \"#utility.yul\":5697:5700   */\n      dup5\n        /* \"#utility.yul\":5688:5694   */\n      dup3\n        /* \"#utility.yul\":5677:5686   */\n      dup6\n        /* \"#utility.yul\":5673:5695   */\n      add\n        /* \"#utility.yul\":5652:5701   */\n      tag_92\n      jump\t// in\n    tag_190:\n        /* \"#utility.yul\":5645:5649   */\n      0x60\n        /* \"#utility.yul\":5638:5643   */\n      dup4\n        /* \"#utility.yul\":5634:5650   */\n      add\n        /* \"#utility.yul\":5627:5702   */\n      mstore\n        /* \"#utility.yul\":5561:5713   */\n      pop\n        /* \"#utility.yul\":5805:5808   */\n      0x80\n        /* \"#utility.yul\":5794:5803   */\n      dup3\n        /* \"#utility.yul\":5790:5809   */\n      add\n        /* \"#utility.yul\":5777:5810   */\n      calldataload\n        /* \"#utility.yul\":5837:5855   */\n      0xffffffffffffffff\n        /* \"#utility.yul\":5829:5835   */\n      dup2\n        /* \"#utility.yul\":5826:5856   */\n      gt\n        /* \"#utility.yul\":5823:5940   */\n      iszero\n      tag_191\n      jumpi\n        /* \"#utility.yul\":5859:5938   */\n      tag_192\n      tag_85\n      jump\t// in\n    tag_192:\n        /* \"#utility.yul\":5823:5940   */\n    tag_191:\n        /* \"#utility.yul\":5979:6037   */\n      tag_193\n        /* \"#utility.yul\":6033:6036   */\n      dup5\n        /* \"#utility.yul\":6024:6030   */\n      dup3\n        /* \"#utility.yul\":6013:6022   */\n      dup6\n        /* \"#utility.yul\":6009:6031   */\n      add\n        /* \"#utility.yul\":5979:6037   */\n      tag_98\n      jump\t// in\n    tag_193:\n        /* \"#utility.yul\":5972:5976   */\n      0x80\n        /* \"#utility.yul\":5965:5970   */\n      dup4\n        /* \"#utility.yul\":5961:5977   */\n      add\n        /* \"#utility.yul\":5954:6038   */\n      mstore\n        /* \"#utility.yul\":5723:6049   */\n      pop\n        /* \"#utility.yul\":6118:6121   */\n      0xa0\n        /* \"#utility.yul\":6160:6209   */\n      tag_194\n        /* \"#utility.yul\":6205:6208   */\n      dup5\n        /* \"#utility.yul\":6196:6202   */\n      dup3\n        /* \"#utility.yul\":6185:6194   */\n      dup6\n        /* \"#utility.yul\":6181:6203   */\n      add\n        /* \"#utility.yul\":6160:6209   */\n      tag_92\n      jump\t// in\n    tag_194:\n        /* \"#utility.yul\":6153:6157   */\n      0xa0\n        /* \"#utility.yul\":6146:6151   */\n      dup4\n        /* \"#utility.yul\":6142:6158   */\n      add\n        /* \"#utility.yul\":6135:6210   */\n      mstore\n        /* \"#utility.yul\":6059:6221   */\n      pop\n        /* \"#utility.yul\":6281:6284   */\n      0xc0\n        /* \"#utility.yul\":6323:6372   */\n      tag_195\n        /* \"#utility.yul\":6368:6371   */\n      dup5\n        /* \"#utility.yul\":6359:6365   */\n      dup3\n        /* \"#utility.yul\":6348:6357   */\n      dup6\n        /* \"#utility.yul\":6344:6366   */\n      add\n        /* \"#utility.yul\":6323:6372   */\n      tag_92\n      jump\t// in\n    tag_195:\n        /* \"#utility.yul\":6316:6320   */\n      0xc0\n        /* \"#utility.yul\":6309:6314   */\n      dup4\n        /* \"#utility.yul\":6305:6321   */\n      add\n        /* \"#utility.yul\":6298:6373   */\n      mstore\n        /* \"#utility.yul\":6231:6384   */\n      pop\n        /* \"#utility.yul\":4810:6391   */\n      swap3\n      swap2\n      pop\n      pop\n      jump\t// out\n        /* \"#utility.yul\":6397:6940   */\n    tag_16:\n        /* \"#utility.yul\":6483:6489   */\n      0x00\n        /* \"#utility.yul\":6532:6534   */\n      0x20\n        /* \"#utility.yul\":6520:6529   */\n      dup3\n        /* \"#utility.yul\":6511:6518   */\n      dup5\n        /* \"#utility.yul\":6507:6530   */\n      sub\n        /* \"#utility.yul\":6503:6535   */\n      slt\n        /* \"#utility.yul\":6500:6619   */\n      iszero\n      tag_197\n      jumpi\n        /* \"#utility.yul\":6538:6617   */\n      tag_198\n      tag_73\n      jump\t// in\n    tag_198:\n        /* \"#utility.yul\":6500:6619   */\n    tag_197:\n        /* \"#utility.yul\":6686:6687   */\n      0x00\n        /* \"#utility.yul\":6675:6684   */\n      dup3\n        /* \"#utility.yul\":6671:6688   */\n      add\n        /* \"#utility.yul\":6658:6689   */\n      calldataload\n        /* \"#utility.yul\":6716:6734   */\n      0xffffffffffffffff\n        /* \"#utility.yul\":6708:6714   */\n      dup2\n        /* \"#utility.yul\":6705:6735   */\n      gt\n        /* \"#utility.yul\":6702:6819   */\n      iszero\n      tag_199\n      jumpi\n        /* \"#utility.yul\":6738:6817   */\n      tag_200\n      tag_74\n      jump\t// in\n    tag_200:\n        /* \"#utility.yul\":6702:6819   */\n    tag_199:\n        /* \"#utility.yul\":6843:6923   */\n      tag_201\n        /* \"#utility.yul\":6915:6922   */\n      dup5\n        /* \"#utility.yul\":6906:6912   */\n      dup3\n        /* \"#utility.yul\":6895:6904   */\n      dup6\n        /* \"#utility.yul\":6891:6913   */\n      add\n        /* \"#utility.yul\":6843:6923   */\n      tag_99\n      jump\t// in\n    tag_201:\n        /* \"#utility.yul\":6833:6923   */\n      swap2\n      pop\n        /* \"#utility.yul\":6629:6933   */\n      pop\n        /* \"#utility.yul\":6397:6940   */\n      swap3\n      swap2\n      pop\n      pop\n      jump\t// out\n        /* \"#utility.yul\":6946:7634   */\n    tag_20:\n        /* \"#utility.yul\":7041:7047   */\n      0x00\n        /* \"#utility.yul\":7049:7055   */\n      dup1\n        /* \"#utility.yul\":7098:7100   */\n      0x40\n        /* \"#utility.yul\":7086:7095   */\n      dup4\n        /* \"#utility.yul\":7077:7084   */\n      dup6\n        /* \"#utility.yul\":7073:7096   */\n      sub\n        /* \"#utility.yul\":7069:7101   */\n      slt\n        /* \"#utility.yul\":7066:7185   */\n      iszero\n      tag_203\n      jumpi\n        /* \"#utility.yul\":7104:7183   */\n      tag_204\n      tag_73\n      jump\t// in\n    tag_204:\n        /* \"#utility.yul\":7066:7185   */\n    tag_203:\n        /* \"#utility.yul\":7252:7253   */\n      0x00\n        /* \"#utility.yul\":7241:7250   */\n      dup4\n        /* \"#utility.yul\":7237:7254   */\n      add\n        /* \"#utility.yul\":7224:7255   */\n      calldataload\n        /* \"#utility.yul\":7282:7300   */\n      0xffffffffffffffff\n        /* \"#utility.yul\":7274:7280   */\n      dup2\n        /* \"#utility.yul\":7271:7301   */\n      gt\n        /* \"#utility.yul\":7268:7385   */\n      iszero\n      tag_205\n      jumpi\n        /* \"#utility.yul\":7304:7383   */\n      tag_206\n      tag_74\n      jump\t// in\n    tag_206:\n        /* \"#utility.yul\":7268:7385   */\n    tag_205:\n        /* \"#utility.yul\":7409:7489   */\n      tag_207\n        /* \"#utility.yul\":7481:7488   */\n      dup6\n        /* \"#utility.yul\":7472:7478   */\n      dup3\n        /* \"#utility.yul\":7461:7470   */\n      dup7\n        /* \"#utility.yul\":7457:7479   */\n      add\n        /* \"#utility.yul\":7409:7489   */\n      tag_99\n      jump\t// in\n    tag_207:\n        /* \"#utility.yul\":7399:7489   */\n      swap3\n      pop\n        /* \"#utility.yul\":7195:7499   */\n      pop\n        /* \"#utility.yul\":7538:7540   */\n      0x20\n        /* \"#utility.yul\":7564:7617   */\n      tag_208\n        /* \"#utility.yul\":7609:7616   */\n      dup6\n        /* \"#utility.yul\":7600:7606   */\n      dup3\n        /* \"#utility.yul\":7589:7598   */\n      dup7\n        /* \"#utility.yul\":7585:7607   */\n      add\n        /* \"#utility.yul\":7564:7617   */\n      tag_89\n      jump\t// in\n    tag_208:\n        /* \"#utility.yul\":7554:7617   */\n      swap2\n      pop\n        /* \"#utility.yul\":7509:7627   */\n      pop\n        /* \"#utility.yul\":6946:7634   */\n      swap3\n      pop\n      swap3\n      swap1\n      pop\n      jump\t// out\n        /* \"#utility.yul\":7640:7734   */\n    tag_100:\n        /* \"#utility.yul\":7673:7681   */\n      0x00\n        /* \"#utility.yul\":7721:7726   */\n      dup2\n        /* \"#utility.yul\":7717:7719   */\n      0x60\n        /* \"#utility.yul\":7713:7727   */\n      shl\n        /* \"#utility.yul\":7692:7727   */\n      swap1\n      pop\n        /* \"#utility.yul\":7640:7734   */\n      swap2\n      swap1\n      pop\n      jump\t// out\n        /* \"#utility.yul\":7740:7834   */\n    tag_101:\n        /* \"#utility.yul\":7779:7786   */\n      0x00\n        /* \"#utility.yul\":7808:7828   */\n      tag_211\n        /* \"#utility.yul\":7822:7827   */\n      dup3\n        /* \"#utility.yul\":7808:7828   */\n      tag_100\n      jump\t// in\n    tag_211:\n        /* \"#utility.yul\":7797:7828   */\n      swap1\n      pop\n        /* \"#utility.yul\":7740:7834   */\n      swap2\n      swap1\n      pop\n      jump\t// out\n        /* \"#utility.yul\":7840:7940   */\n    tag_102:\n        /* \"#utility.yul\":7879:7886   */\n      0x00\n        /* \"#utility.yul\":7908:7934   */\n      tag_213\n        /* \"#utility.yul\":7928:7933   */\n      dup3\n        /* \"#utility.yul\":7908:7934   */\n      tag_101\n      jump\t// in\n    tag_213:\n        /* \"#utility.yul\":7897:7934   */\n      swap1\n      pop\n        /* \"#utility.yul\":7840:7940   */\n      swap2\n      swap1\n      pop\n      jump\t// out\n        /* \"#utility.yul\":7946:8103   */\n    tag_103:\n        /* \"#utility.yul\":8051:8096   */\n      tag_215\n        /* \"#utility.yul\":8071:8095   */\n      tag_216\n        /* \"#utility.yul\":8089:8094   */\n      dup3\n        /* \"#utility.yul\":8071:8095   */\n      tag_87\n      jump\t// in\n    tag_216:\n        /* \"#utility.yul\":8051:8096   */\n      tag_102\n      jump\t// in\n    tag_215:\n        /* \"#utility.yul\":8046:8049   */\n      dup3\n        /* \"#utility.yul\":8039:8097   */\n      mstore\n        /* \"#utility.yul\":7946:8103   */\n      pop\n      pop\n      jump\t// out\n        /* \"#utility.yul\":8109:8188   */\n    tag_104:\n        /* \"#utility.yul\":8148:8155   */\n      0x00\n        /* \"#utility.yul\":8177:8182   */\n      dup2\n        /* \"#utility.yul\":8166:8182   */\n      swap1\n      pop\n        /* \"#utility.yul\":8109:8188   */\n      swap2\n      swap1\n      pop\n      jump\t// out\n        /* \"#utility.yul\":8194:8351   */\n    tag_105:\n        /* \"#utility.yul\":8299:8344   */\n      tag_219\n        /* \"#utility.yul\":8319:8343   */\n      tag_220\n        /* \"#utility.yul\":8337:8342   */\n      dup3\n        /* \"#utility.yul\":8319:8343   */\n      tag_90\n      jump\t// in\n    tag_220:\n        /* \"#utility.yul\":8299:8344   */\n      tag_104\n      jump\t// in\n    tag_219:\n        /* \"#utility.yul\":8294:8297   */\n      dup3\n        /* \"#utility.yul\":8287:8345   */\n      mstore\n        /* \"#utility.yul\":8194:8351   */\n      pop\n      pop\n      jump\t// out\n        /* \"#utility.yul\":8357:9318   */\n    tag_29:\n        /* \"#utility.yul\":8609:8612   */\n      0x00\n        /* \"#utility.yul\":8624:8699   */\n      tag_222\n        /* \"#utility.yul\":8695:8698   */\n      dup3\n        /* \"#utility.yul\":8686:8692   */\n      dup10\n        /* \"#utility.yul\":8624:8699   */\n      tag_103\n      jump\t// in\n    tag_222:\n        /* \"#utility.yul\":8724:8726   */\n      0x14\n        /* \"#utility.yul\":8719:8722   */\n      dup3\n        /* \"#utility.yul\":8715:8727   */\n      add\n        /* \"#utility.yul\":8708:8727   */\n      swap2\n      pop\n        /* \"#utility.yul\":8737:8812   */\n      tag_223\n        /* \"#utility.yul\":8808:8811   */\n      dup3\n        /* \"#utility.yul\":8799:8805   */\n      dup9\n        /* \"#utility.yul\":8737:8812   */\n      tag_103\n      jump\t// in\n    tag_223:\n        /* \"#utility.yul\":8837:8839   */\n      0x14\n        /* \"#utility.yul\":8832:8835   */\n      dup3\n        /* \"#utility.yul\":8828:8840   */\n      add\n        /* \"#utility.yul\":8821:8840   */\n      swap2\n      pop\n        /* \"#utility.yul\":8850:8925   */\n      tag_224\n        /* \"#utility.yul\":8921:8924   */\n      dup3\n        /* \"#utility.yul\":8912:8918   */\n      dup8\n        /* \"#utility.yul\":8850:8925   */\n      tag_105\n      jump\t// in\n    tag_224:\n        /* \"#utility.yul\":8950:8952   */\n      0x20\n        /* \"#utility.yul\":8945:8948   */\n      dup3\n        /* \"#utility.yul\":8941:8953   */\n      add\n        /* \"#utility.yul\":8934:8953   */\n      swap2\n      pop\n        /* \"#utility.yul\":8963:9038   */\n      tag_225\n        /* \"#utility.yul\":9034:9037   */\n      dup3\n        /* \"#utility.yul\":9025:9031   */\n      dup7\n        /* \"#utility.yul\":8963:9038   */\n      tag_105\n      jump\t// in\n    tag_225:\n        /* \"#utility.yul\":9063:9065   */\n      0x20\n        /* \"#utility.yul\":9058:9061   */\n      dup3\n        /* \"#utility.yul\":9054:9066   */\n      add\n        /* \"#utility.yul\":9047:9066   */\n      swap2\n      pop\n        /* \"#utility.yul\":9076:9151   */\n      tag_226\n        /* \"#utility.yul\":9147:9150   */\n      dup3\n        /* \"#utility.yul\":9138:9144   */\n      dup6\n        /* \"#utility.yul\":9076:9151   */\n      tag_105\n      jump\t// in\n    tag_226:\n        /* \"#utility.yul\":9176:9178   */\n      0x20\n        /* \"#utility.yul\":9171:9174   */\n      dup3\n        /* \"#utility.yul\":9167:9179   */\n      add\n        /* \"#utility.yul\":9160:9179   */\n      swap2\n      pop\n        /* \"#utility.yul\":9189:9264   */\n      tag_227\n        /* \"#utility.yul\":9260:9263   */\n      dup3\n        /* \"#utility.yul\":9251:9257   */\n      dup5\n        /* \"#utility.yul\":9189:9264   */\n      tag_105\n      jump\t// in\n    tag_227:\n        /* \"#utility.yul\":9289:9291   */\n      0x20\n        /* \"#utility.yul\":9284:9287   */\n      dup3\n        /* \"#utility.yul\":9280:9292   */\n      add\n        /* \"#utility.yul\":9273:9292   */\n      swap2\n      pop\n        /* \"#utility.yul\":9309:9312   */\n      dup2\n        /* \"#utility.yul\":9302:9312   */\n      swap1\n      pop\n        /* \"#utility.yul\":8357:9318   */\n      swap8\n      swap7\n      pop\n      pop\n      pop\n      pop\n      pop\n      pop\n      pop\n      jump\t// out\n        /* \"#utility.yul\":9324:9472   */\n    tag_106:\n        /* \"#utility.yul\":9426:9437   */\n      0x00\n        /* \"#utility.yul\":9463:9466   */\n      dup2\n        /* \"#utility.yul\":9448:9466   */\n      swap1\n      pop\n        /* \"#utility.yul\":9324:9472   */\n      swap3\n      swap2\n      pop\n      pop\n      jump\t// out\n        /* \"#utility.yul\":9478:9692   */\n    tag_107:\n        /* \"#utility.yul\":9618:9684   */\n      0x19457468657265756d205369676e6564204d6573736167653a0a333200000000\n        /* \"#utility.yul\":9614:9615   */\n      0x00\n        /* \"#utility.yul\":9606:9612   */\n      dup3\n        /* \"#utility.yul\":9602:9616   */\n      add\n        /* \"#utility.yul\":9595:9685   */\n      mstore\n        /* \"#utility.yul\":9478:9692   */\n      pop\n      jump\t// out\n        /* \"#utility.yul\":9698:10100   */\n    tag_108:\n        /* \"#utility.yul\":9858:9861   */\n      0x00\n        /* \"#utility.yul\":9879:9964   */\n      tag_231\n        /* \"#utility.yul\":9961:9963   */\n      0x1c\n        /* \"#utility.yul\":9956:9959   */\n      dup4\n        /* \"#utility.yul\":9879:9964   */\n      tag_106\n      jump\t// in\n    tag_231:\n        /* \"#utility.yul\":9872:9964   */\n      swap2\n      pop\n        /* \"#utility.yul\":9973:10066   */\n      tag_232\n        /* \"#utility.yul\":10062:10065   */\n      dup3\n        /* \"#utility.yul\":9973:10066   */\n      tag_107\n      jump\t// in\n    tag_232:\n        /* \"#utility.yul\":10091:10093   */\n      0x1c\n        /* \"#utility.yul\":10086:10089   */\n      dup3\n        /* \"#utility.yul\":10082:10094   */\n      add\n        /* \"#utility.yul\":10075:10094   */\n      swap1\n      pop\n        /* \"#utility.yul\":9698:10100   */\n      swap2\n      swap1\n      pop\n      jump\t// out\n        /* \"#utility.yul\":10106:10185   */\n    tag_109:\n        /* \"#utility.yul\":10145:10152   */\n      0x00\n        /* \"#utility.yul\":10174:10179   */\n      dup2\n        /* \"#utility.yul\":10163:10179   */\n      swap1\n      pop\n        /* \"#utility.yul\":10106:10185   */\n      swap2\n      swap1\n      pop\n      jump\t// out\n        /* \"#utility.yul\":10191:10348   */\n    tag_110:\n        /* \"#utility.yul\":10296:10341   */\n      tag_235\n        /* \"#utility.yul\":10316:10340   */\n      tag_236\n        /* \"#utility.yul\":10334:10339   */\n      dup3\n        /* \"#utility.yul\":10316:10340   */\n      tag_75\n      jump\t// in\n    tag_236:\n        /* \"#utility.yul\":10296:10341   */\n      tag_109\n      jump\t// in\n    tag_235:\n        /* \"#utility.yul\":10291:10294   */\n      dup3\n        /* \"#utility.yul\":10284:10342   */\n      mstore\n        /* \"#utility.yul\":10191:10348   */\n      pop\n      pop\n      jump\t// out\n        /* \"#utility.yul\":10354:10876   */\n    tag_31:\n        /* \"#utility.yul\":10567:10570   */\n      0x00\n        /* \"#utility.yul\":10589:10737   */\n      tag_238\n        /* \"#utility.yul\":10733:10736   */\n      dup3\n        /* \"#utility.yul\":10589:10737   */\n      tag_108\n      jump\t// in\n    tag_238:\n        /* \"#utility.yul\":10582:10737   */\n      swap2\n      pop\n        /* \"#utility.yul\":10747:10822   */\n      tag_239\n        /* \"#utility.yul\":10818:10821   */\n      dup3\n        /* \"#utility.yul\":10809:10815   */\n      dup5\n        /* \"#utility.yul\":10747:10822   */\n      tag_110\n      jump\t// in\n    tag_239:\n        /* \"#utility.yul\":10847:10849   */\n      0x20\n        /* \"#utility.yul\":10842:10845   */\n      dup3\n        /* \"#utility.yul\":10838:10850   */\n      add\n        /* \"#utility.yul\":10831:10850   */\n      swap2\n      pop\n        /* \"#utility.yul\":10867:10870   */\n      dup2\n        /* \"#utility.yul\":10860:10870   */\n      swap1\n      pop\n        /* \"#utility.yul\":10354:10876   */\n      swap3\n      swap2\n      pop\n      pop\n      jump\t// out\n        /* \"#utility.yul\":10882:11051   */\n    tag_111:\n        /* \"#utility.yul\":10966:10977   */\n      0x00\n        /* \"#utility.yul\":11000:11006   */\n      dup3\n        /* \"#utility.yul\":10995:10998   */\n      dup3\n        /* \"#utility.yul\":10988:11007   */\n      mstore\n        /* \"#utility.yul\":11040:11044   */\n      0x20\n        /* \"#utility.yul\":11035:11038   */\n      dup3\n        /* \"#utility.yul\":11031:11045   */\n      add\n        /* \"#utility.yul\":11016:11045   */\n      swap1\n      pop\n        /* \"#utility.yul\":10882:11051   */\n      swap3\n      swap2\n      pop\n      pop\n      jump\t// out\n        /* \"#utility.yul\":11057:11224   */\n    tag_112:\n        /* \"#utility.yul\":11197:11216   */\n      0x496e76616c6964207369676e6174757265000000000000000000000000000000\n        /* \"#utility.yul\":11193:11194   */\n      0x00\n        /* \"#utility.yul\":11185:11191   */\n      dup3\n        /* \"#utility.yul\":11181:11195   */\n      add\n        /* \"#utility.yul\":11174:11217   */\n      mstore\n        /* \"#utility.yul\":11057:11224   */\n      pop\n      jump\t// out\n        /* \"#utility.yul\":11230:11596   */\n    tag_113:\n        /* \"#utility.yul\":11372:11375   */\n      0x00\n        /* \"#utility.yul\":11393:11460   */\n      tag_243\n        /* \"#utility.yul\":11457:11459   */\n      0x11\n        /* \"#utility.yul\":11452:11455   */\n      dup4\n        /* \"#utility.yul\":11393:11460   */\n      tag_111\n      jump\t// in\n    tag_243:\n        /* \"#utility.yul\":11386:11460   */\n      swap2\n      pop\n        /* \"#utility.yul\":11469:11562   */\n      tag_244\n        /* \"#utility.yul\":11558:11561   */\n      dup3\n        /* \"#utility.yul\":11469:11562   */\n      tag_112\n      jump\t// in\n    tag_244:\n        /* \"#utility.yul\":11587:11589   */\n      0x20\n        /* \"#utility.yul\":11582:11585   */\n      dup3\n        /* \"#utility.yul\":11578:11590   */\n      add\n        /* \"#utility.yul\":11571:11590   */\n      swap1\n      pop\n        /* \"#utility.yul\":11230:11596   */\n      swap2\n      swap1\n      pop\n      jump\t// out\n        /* \"#utility.yul\":11602:12021   */\n    tag_36:\n        /* \"#utility.yul\":11768:11772   */\n      0x00\n        /* \"#utility.yul\":11806:11808   */\n      0x20\n        /* \"#utility.yul\":11795:11804   */\n      dup3\n        /* \"#utility.yul\":11791:11809   */\n      add\n        /* \"#utility.yul\":11783:11809   */\n      swap1\n      pop\n        /* \"#utility.yul\":11855:11864   */\n      dup2\n        /* \"#utility.yul\":11849:11853   */\n      dup2\n        /* \"#utility.yul\":11845:11865   */\n      sub\n        /* \"#utility.yul\":11841:11842   */\n      0x00\n        /* \"#utility.yul\":11830:11839   */\n      dup4\n        /* \"#utility.yul\":11826:11843   */\n      add\n        /* \"#utility.yul\":11819:11866   */\n      mstore\n        /* \"#utility.yul\":11883:12014   */\n      tag_246\n        /* \"#utility.yul\":12009:12013   */\n      dup2\n        /* \"#utility.yul\":11883:12014   */\n      tag_113\n      jump\t// in\n    tag_246:\n        /* \"#utility.yul\":11875:12014   */\n      swap1\n      pop\n        /* \"#utility.yul\":11602:12021   */\n      swap2\n      swap1\n      pop\n      jump\t// out\n        /* \"#utility.yul\":12027:12196   */\n    tag_114:\n        /* \"#utility.yul\":12167:12188   */\n      0x4f7264657220686173206265656e207573656400000000000000000000000000\n        /* \"#utility.yul\":12163:12164   */\n      0x00\n        /* \"#utility.yul\":12155:12161   */\n      dup3\n        /* \"#utility.yul\":12151:12165   */\n      add\n        /* \"#utility.yul\":12144:12189   */\n      mstore\n        /* \"#utility.yul\":12027:12196   */\n      pop\n      jump\t// out\n        /* \"#utility.yul\":12202:12568   */\n    tag_115:\n        /* \"#utility.yul\":12344:12347   */\n      0x00\n        /* \"#utility.yul\":12365:12432   */\n      tag_249\n        /* \"#utility.yul\":12429:12431   */\n      0x13\n        /* \"#utility.yul\":12424:12427   */\n      dup4\n        /* \"#utility.yul\":12365:12432   */\n      tag_111\n      jump\t// in\n    tag_249:\n        /* \"#utility.yul\":12358:12432   */\n      swap2\n      pop\n        /* \"#utility.yul\":12441:12534   */\n      tag_250\n        /* \"#utility.yul\":12530:12533   */\n      dup3\n        /* \"#utility.yul\":12441:12534   */\n      tag_114\n      jump\t// in\n    tag_250:\n        /* \"#utility.yul\":12559:12561   */\n      0x20\n        /* \"#utility.yul\":12554:12557   */\n      dup3\n        /* \"#utility.yul\":12550:12562   */\n      add\n        /* \"#utility.yul\":12543:12562   */\n      swap1\n      pop\n        /* \"#utility.yul\":12202:12568   */\n      swap2\n      swap1\n      pop\n      jump\t// out\n        /* \"#utility.yul\":12574:12993   */\n    tag_43:\n        /* \"#utility.yul\":12740:12744   */\n      0x00\n        /* \"#utility.yul\":12778:12780   */\n      0x20\n        /* \"#utility.yul\":12767:12776   */\n      dup3\n        /* \"#utility.yul\":12763:12781   */\n      add\n        /* \"#utility.yul\":12755:12781   */\n      swap1\n      pop\n        /* \"#utility.yul\":12827:12836   */\n      dup2\n        /* \"#utility.yul\":12821:12825   */\n      dup2\n        /* \"#utility.yul\":12817:12837   */\n      sub\n        /* \"#utility.yul\":12813:12814   */\n      0x00\n        /* \"#utility.yul\":12802:12811   */\n      dup4\n        /* \"#utility.yul\":12798:12815   */\n      add\n        /* \"#utility.yul\":12791:12838   */\n      mstore\n        /* \"#utility.yul\":12855:12986   */\n      tag_252\n        /* \"#utility.yul\":12981:12985   */\n      dup2\n        /* \"#utility.yul\":12855:12986   */\n      tag_115\n      jump\t// in\n    tag_252:\n        /* \"#utility.yul\":12847:12986   */\n      swap1\n      pop\n        /* \"#utility.yul\":12574:12993   */\n      swap2\n      swap1\n      pop\n      jump\t// out\n        /* \"#utility.yul\":12999:13117   */\n    tag_116:\n        /* \"#utility.yul\":13086:13110   */\n      tag_254\n        /* \"#utility.yul\":13104:13109   */\n      dup2\n        /* \"#utility.yul\":13086:13110   */\n      tag_87\n      jump\t// in\n    tag_254:\n        /* \"#utility.yul\":13081:13084   */\n      dup3\n        /* \"#utility.yul\":13074:13111   */\n      mstore\n        /* \"#utility.yul\":12999:13117   */\n      pop\n      pop\n      jump\t// out\n        /* \"#utility.yul\":13123:13241   */\n    tag_117:\n        /* \"#utility.yul\":13210:13234   */\n      tag_256\n        /* \"#utility.yul\":13228:13233   */\n      dup2\n        /* \"#utility.yul\":13210:13234   */\n      tag_90\n      jump\t// in\n    tag_256:\n        /* \"#utility.yul\":13205:13208   */\n      dup3\n        /* \"#utility.yul\":13198:13235   */\n      mstore\n        /* \"#utility.yul\":13123:13241   */\n      pop\n      pop\n      jump\t// out\n        /* \"#utility.yul\":13247:13689   */\n    tag_49:\n        /* \"#utility.yul\":13396:13400   */\n      0x00\n        /* \"#utility.yul\":13434:13436   */\n      0x60\n        /* \"#utility.yul\":13423:13432   */\n      dup3\n        /* \"#utility.yul\":13419:13437   */\n      add\n        /* \"#utility.yul\":13411:13437   */\n      swap1\n      pop\n        /* \"#utility.yul\":13447:13518   */\n      tag_258\n        /* \"#utility.yul\":13515:13516   */\n      0x00\n        /* \"#utility.yul\":13504:13513   */\n      dup4\n        /* \"#utility.yul\":13500:13517   */\n      add\n        /* \"#utility.yul\":13491:13497   */\n      dup7\n        /* \"#utility.yul\":13447:13518   */\n      tag_116\n      jump\t// in\n    tag_258:\n        /* \"#utility.yul\":13528:13600   */\n      tag_259\n        /* \"#utility.yul\":13596:13598   */\n      0x20\n        /* \"#utility.yul\":13585:13594   */\n      dup4\n        /* \"#utility.yul\":13581:13599   */\n      add\n        /* \"#utility.yul\":13572:13578   */\n      dup6\n        /* \"#utility.yul\":13528:13600   */\n      tag_116\n      jump\t// in\n    tag_259:\n        /* \"#utility.yul\":13610:13682   */\n      tag_260\n        /* \"#utility.yul\":13678:13680   */\n      0x40\n        /* \"#utility.yul\":13667:13676   */\n      dup4\n        /* \"#utility.yul\":13663:13681   */\n      add\n        /* \"#utility.yul\":13654:13660   */\n      dup5\n        /* \"#utility.yul\":13610:13682   */\n      tag_117\n      jump\t// in\n    tag_260:\n        /* \"#utility.yul\":13247:13689   */\n      swap5\n      swap4\n      pop\n      pop\n      pop\n      pop\n      jump\t// out\n        /* \"#utility.yul\":13695:13781   */\n    tag_118:\n        /* \"#utility.yul\":13730:13737   */\n      0x00\n        /* \"#utility.yul\":13770:13774   */\n      0xff\n        /* \"#utility.yul\":13763:13768   */\n      dup3\n        /* \"#utility.yul\":13759:13775   */\n      and\n        /* \"#utility.yul\":13748:13775   */\n      swap1\n      pop\n        /* \"#utility.yul\":13695:13781   */\n      swap2\n      swap1\n      pop\n      jump\t// out\n        /* \"#utility.yul\":13787:13967   */\n    tag_119:\n        /* \"#utility.yul\":13835:13912   */\n      0x4e487b7100000000000000000000000000000000000000000000000000000000\n        /* \"#utility.yul\":13832:13833   */\n      0x00\n        /* \"#utility.yul\":13825:13913   */\n      mstore\n        /* \"#utility.yul\":13932:13936   */\n      0x11\n        /* \"#utility.yul\":13929:13930   */\n      0x04\n        /* \"#utility.yul\":13922:13937   */\n      mstore\n        /* \"#utility.yul\":13956:13960   */\n      0x24\n        /* \"#utility.yul\":13953:13954   */\n      0x00\n        /* \"#utility.yul\":13946:13961   */\n      revert\n        /* \"#utility.yul\":13973:14161   */\n    tag_62:\n        /* \"#utility.yul\":14011:14014   */\n      0x00\n        /* \"#utility.yul\":14030:14048   */\n      tag_264\n        /* \"#utility.yul\":14046:14047   */\n      dup3\n        /* \"#utility.yul\":14030:14048   */\n      tag_118\n      jump\t// in\n    tag_264:\n        /* \"#utility.yul\":14025:14048   */\n      swap2\n      pop\n        /* \"#utility.yul\":14062:14080   */\n      tag_265\n        /* \"#utility.yul\":14078:14079   */\n      dup4\n        /* \"#utility.yul\":14062:14080   */\n      tag_118\n      jump\t// in\n    tag_265:\n        /* \"#utility.yul\":14057:14080   */\n      swap3\n      pop\n        /* \"#utility.yul\":14103:14104   */\n      dup3\n        /* \"#utility.yul\":14100:14101   */\n      dup3\n        /* \"#utility.yul\":14096:14105   */\n      add\n        /* \"#utility.yul\":14089:14105   */\n      swap1\n      pop\n        /* \"#utility.yul\":14126:14130   */\n      0xff\n        /* \"#utility.yul\":14121:14124   */\n      dup2\n        /* \"#utility.yul\":14118:14131   */\n      gt\n        /* \"#utility.yul\":14115:14154   */\n      iszero\n      tag_266\n      jumpi\n        /* \"#utility.yul\":14134:14152   */\n      tag_267\n      tag_119\n      jump\t// in\n    tag_267:\n        /* \"#utility.yul\":14115:14154   */\n    tag_266:\n        /* \"#utility.yul\":13973:14161   */\n      swap3\n      swap2\n      pop\n      pop\n      jump\t// out\n        /* \"#utility.yul\":14167:14285   */\n    tag_120:\n        /* \"#utility.yul\":14254:14278   */\n      tag_269\n        /* \"#utility.yul\":14272:14277   */\n      dup2\n        /* \"#utility.yul\":14254:14278   */\n      tag_75\n      jump\t// in\n    tag_269:\n        /* \"#utility.yul\":14249:14252   */\n      dup3\n        /* \"#utility.yul\":14242:14279   */\n      mstore\n        /* \"#utility.yul\":14167:14285   */\n      pop\n      pop\n      jump\t// out\n        /* \"#utility.yul\":14291:14403   */\n    tag_121:\n        /* \"#utility.yul\":14374:14396   */\n      tag_271\n        /* \"#utility.yul\":14390:14395   */\n      dup2\n        /* \"#utility.yul\":14374:14396   */\n      tag_118\n      jump\t// in\n    tag_271:\n        /* \"#utility.yul\":14369:14372   */\n      dup3\n        /* \"#utility.yul\":14362:14397   */\n      mstore\n        /* \"#utility.yul\":14291:14403   */\n      pop\n      pop\n      jump\t// out\n        /* \"#utility.yul\":14409:14954   */\n    tag_64:\n        /* \"#utility.yul\":14582:14586   */\n      0x00\n        /* \"#utility.yul\":14620:14623   */\n      0x80\n        /* \"#utility.yul\":14609:14618   */\n      dup3\n        /* \"#utility.yul\":14605:14624   */\n      add\n        /* \"#utility.yul\":14597:14624   */\n      swap1\n      pop\n        /* \"#utility.yul\":14634:14705   */\n      tag_273\n        /* \"#utility.yul\":14702:14703   */\n      0x00\n        /* \"#utility.yul\":14691:14700   */\n      dup4\n        /* \"#utility.yul\":14687:14704   */\n      add\n        /* \"#utility.yul\":14678:14684   */\n      dup8\n        /* \"#utility.yul\":14634:14705   */\n      tag_120\n      jump\t// in\n    tag_273:\n        /* \"#utility.yul\":14715:14783   */\n      tag_274\n        /* \"#utility.yul\":14779:14781   */\n      0x20\n        /* \"#utility.yul\":14768:14777   */\n      dup4\n        /* \"#utility.yul\":14764:14782   */\n      add\n        /* \"#utility.yul\":14755:14761   */\n      dup7\n        /* \"#utility.yul\":14715:14783   */\n      tag_121\n      jump\t// in\n    tag_274:\n        /* \"#utility.yul\":14793:14865   */\n      tag_275\n        /* \"#utility.yul\":14861:14863   */\n      0x40\n        /* \"#utility.yul\":14850:14859   */\n      dup4\n        /* \"#utility.yul\":14846:14864   */\n      add\n        /* \"#utility.yul\":14837:14843   */\n      dup6\n        /* \"#utility.yul\":14793:14865   */\n      tag_120\n      jump\t// in\n    tag_275:\n        /* \"#utility.yul\":14875:14947   */\n      tag_276\n        /* \"#utility.yul\":14943:14945   */\n      0x60\n        /* \"#utility.yul\":14932:14941   */\n      dup4\n        /* \"#utility.yul\":14928:14946   */\n      add\n        /* \"#utility.yul\":14919:14925   */\n      dup5\n        /* \"#utility.yul\":14875:14947   */\n      tag_120\n      jump\t// in\n    tag_276:\n        /* \"#utility.yul\":14409:14954   */\n      swap6\n      swap5\n      pop\n      pop\n      pop\n      pop\n      pop\n      jump\t// out\n\n    auxdata: 0xa26469706673582212200e2475f5927e54df33c5fcd45447f2ff2e8ed0d86612583c8e5da0e7862e2bc564736f6c63430008120033\n}\n",
				"bytecode": {
					"linkReferences": {},
					"object": "6080604052604051610e30380380610e30833981810160405281019061002591906100ce565b806000806101000a81548173ffffffffffffffffffffffffffffffffffffffff021916908373ffffffffffffffffffffffffffffffffffffffff160217905550506100fb565b600080fd5b600073ffffffffffffffffffffffffffffffffffffffff82169050919050565b600061009b82610070565b9050919050565b6100ab81610090565b81146100b657600080fd5b50565b6000815190506100c8816100a2565b92915050565b6000602082840312156100e4576100e361006b565b5b60006100f2848285016100b9565b91505092915050565b610d268061010a6000396000f3fe60806040526004361061003f5760003560e01c80638eb6a489146100445780639b3f3f1a14610081578063c04d75dd146100aa578063eb41850d146100c6575b600080fd5b34801561005057600080fd5b5061006b600480360381019061006691906105ab565b610103565b60405161007891906105f3565b60405180910390f35b34801561008d57600080fd5b506100a860048036038101906100a391906108c2565b610123565b005b6100c460048036038101906100bf919061090b565b610228565b005b3480156100d257600080fd5b506100ed60048036038101906100e891906105ab565b6103cd565b6040516100fa91906105f3565b60405180910390f35b60016020528060005260406000206000915054906101000a900460ff1681565b600081600001518260200151836040015184606001518560a001518660c00151604051602001610158969594939291906109d0565b6040516020818303038152906040528051906020012090506000816040516020016101839190610ab8565b604051602081830303815290604052805190602001209050826000015173ffffffffffffffffffffffffffffffffffffffff166101c48285608001516103f7565b73ffffffffffffffffffffffffffffffffffffffff161461021a576040517f08c379a000000000000000000000000000000000000000000000000000000000815260040161021190610b3b565b60405180910390fd5b6102238261048b565b505050565b600082600001518360200151846040015185606001518660a001518760c0015160405160200161025d969594939291906109d0565b6040516020818303038152906040528051906020012090506001600082815260200190815260200160002060009054906101000a900460ff16156102d6576040517f08c379a00000000000000000000000000000000000000000000000000000000081526004016102cd90610ba7565b60405180910390fd5b610301836000015184602001518560400151866060015187608001518860a001518960c001516104b9565b610340576040517f08c379a000000000000000000000000000000000000000000000000000000000815260040161033790610b3b565b60405180910390fd5b826020015173ffffffffffffffffffffffffffffffffffffffff166323b872dd84600001518486604001516040518463ffffffff1660e01b815260040161038993929190610be5565b600060405180830381600087803b1580156103a357600080fd5b505af19250505080156103b4575060015b6103be57506103c9565b6103c78161048b565b505b5050565b60006001600083815260200190815260200160002060009054906101000a900460ff169050919050565b6000806000806020850151925060408501519150606085015160001a9050601b8160ff16101561043157601b8161042e9190610c58565b90505b600186828585604051600081526020016040526040516104549493929190610cab565b6020604051602081039080840390855afa158015610476573d6000803e3d6000fd5b50505060206040510351935050505092915050565b600180600083815260200190815260200160002060006101000a81548160ff02191690831515021790555050565b6000808888888887876040516020016104d7969594939291906109d0565b6040516020818303038152906040528051906020012090506000816040516020016105029190610ab8565b6040516020818303038152906040528051906020012090508973ffffffffffffffffffffffffffffffffffffffff1661053b82886103f7565b73ffffffffffffffffffffffffffffffffffffffff161492505050979650505050505050565b6000604051905090565b600080fd5b600080fd5b6000819050919050565b61058881610575565b811461059357600080fd5b50565b6000813590506105a58161057f565b92915050565b6000602082840312156105c1576105c061056b565b5b60006105cf84828501610596565b91505092915050565b60008115159050919050565b6105ed816105d8565b82525050565b600060208201905061060860008301846105e4565b92915050565b600080fd5b6000601f19601f8301169050919050565b7f4e487b7100000000000000000000000000000000000000000000000000000000600052604160045260246000fd5b61065c82610613565b810181811067ffffffffffffffff8211171561067b5761067a610624565b5b80604052505050565b600061068e610561565b905061069a8282610653565b919050565b600080fd5b600073ffffffffffffffffffffffffffffffffffffffff82169050919050565b60006106cf826106a4565b9050919050565b6106df816106c4565b81146106ea57600080fd5b50565b6000813590506106fc816106d6565b92915050565b6000819050919050565b61071581610702565b811461072057600080fd5b50565b6000813590506107328161070c565b92915050565b600080fd5b600080fd5b600067ffffffffffffffff82111561075d5761075c610624565b5b61076682610613565b9050602081019050919050565b82818337600083830152505050565b600061079561079084610742565b610684565b9050828152602081018484840111156107b1576107b061073d565b5b6107bc848285610773565b509392505050565b600082601f8301126107d9576107d8610738565b5b81356107e9848260208601610782565b91505092915050565b600060e082840312156108085761080761060e565b5b61081260e0610684565b90506000610822848285016106ed565b6000830152506020610836848285016106ed565b602083015250604061084a84828501610723565b604083015250606061085e84828501610723565b606083015250608082013567ffffffffffffffff8111156108825761088161069f565b5b61088e848285016107c4565b60808301525060a06108a284828501610723565b60a08301525060c06108b684828501610723565b60c08301525092915050565b6000602082840312156108d8576108d761056b565b5b600082013567ffffffffffffffff8111156108f6576108f5610570565b5b610902848285016107f2565b91505092915050565b600080604083850312156109225761092161056b565b5b600083013567ffffffffffffffff8111156109405761093f610570565b5b61094c858286016107f2565b925050602061095d858286016106ed565b9150509250929050565b60008160601b9050919050565b600061097f82610967565b9050919050565b600061099182610974565b9050919050565b6109a96109a4826106c4565b610986565b82525050565b6000819050919050565b6109ca6109c582610702565b6109af565b82525050565b60006109dc8289610998565b6014820191506109ec8288610998565b6014820191506109fc82876109b9565b602082019150610a0c82866109b9565b602082019150610a1c82856109b9565b602082019150610a2c82846109b9565b602082019150819050979650505050505050565b600081905092915050565b7f19457468657265756d205369676e6564204d6573736167653a0a333200000000600082015250565b6000610a81601c83610a40565b9150610a8c82610a4b565b601c82019050919050565b6000819050919050565b610ab2610aad82610575565b610a97565b82525050565b6000610ac382610a74565b9150610acf8284610aa1565b60208201915081905092915050565b600082825260208201905092915050565b7f496e76616c6964207369676e6174757265000000000000000000000000000000600082015250565b6000610b25601183610ade565b9150610b3082610aef565b602082019050919050565b60006020820190508181036000830152610b5481610b18565b9050919050565b7f4f7264657220686173206265656e207573656400000000000000000000000000600082015250565b6000610b91601383610ade565b9150610b9c82610b5b565b602082019050919050565b60006020820190508181036000830152610bc081610b84565b9050919050565b610bd0816106c4565b82525050565b610bdf81610702565b82525050565b6000606082019050610bfa6000830186610bc7565b610c076020830185610bc7565b610c146040830184610bd6565b949350505050565b600060ff82169050919050565b7f4e487b7100000000000000000000000000000000000000000000000000000000600052601160045260246000fd5b6000610c6382610c1c565b9150610c6e83610c1c565b9250828201905060ff811115610c8757610c86610c29565b5b92915050565b610c9681610575565b82525050565b610ca581610c1c565b82525050565b6000608082019050610cc06000830187610c8d565b610ccd6020830186610c9c565b610cda6040830185610c8d565b610ce76060830184610c8d565b9594505050505056fea26469706673582212200e2475f5927e54df33c5fcd45447f2ff2e8ed0d86612583c8e5da0e7862e2bc564736f6c63430008120033",
					"opcodes": "PUSH1 0x80 PUSH1 0x40 MSTORE PUSH1 0x40 MLOAD PUSH2 0xE30 CODESIZE SUB DUP1 PUSH2 0xE30 DUP4 CODECOPY DUP2 DUP2 ADD PUSH1 0x40 MSTORE DUP2 ADD SWAP1 PUSH2 0x25 SWAP2 SWAP1 PUSH2 0xCE JUMP JUMPDEST DUP1 PUSH1 0x0 DUP1 PUSH2 0x100 EXP DUP2 SLOAD DUP2 PUSH20 0xFFFFFFFFFFFFFFFFFFFFFFFFFFFFFFFFFFFFFFFF MUL NOT AND SWAP1 DUP4 PUSH20 0xFFFFFFFFFFFFFFFFFFFFFFFFFFFFFFFFFFFFFFFF AND MUL OR SWAP1 SSTORE POP POP PUSH2 0xFB JUMP JUMPDEST PUSH1 0x0 DUP1 REVERT JUMPDEST PUSH1 0x0 PUSH20 0xFFFFFFFFFFFFFFFFFFFFFFFFFFFFFFFFFFFFFFFF DUP3 AND SWAP1 POP SWAP2 SWAP1 POP JUMP JUMPDEST PUSH1 0x0 PUSH2 0x9B DUP3 PUSH2 0x70 JUMP JUMPDEST SWAP1 POP SWAP2 SWAP1 POP JUMP JUMPDEST PUSH2 0xAB DUP2 PUSH2 0x90 JUMP JUMPDEST DUP2 EQ PUSH2 0xB6 JUMPI PUSH1 0x0 DUP1 REVERT JUMPDEST POP JUMP JUMPDEST PUSH1 0x0 DUP2 MLOAD SWAP1 POP PUSH2 0xC8 DUP2 PUSH2 0xA2 JUMP JUMPDEST SWAP3 SWAP2 POP POP JUMP JUMPDEST PUSH1 0x0 PUSH1 0x20 DUP3 DUP5 SUB SLT ISZERO PUSH2 0xE4 JUMPI PUSH2 0xE3 PUSH2 0x6B JUMP JUMPDEST JUMPDEST PUSH1 0x0 PUSH2 0xF2 DUP5 DUP3 DUP6 ADD PUSH2 0xB9 JUMP JUMPDEST SWAP2 POP POP SWAP3 SWAP2 POP POP JUMP JUMPDEST PUSH2 0xD26 DUP1 PUSH2 0x10A PUSH1 0x0 CODECOPY PUSH1 0x0 RETURN INVALID PUSH1 0x80 PUSH1 0x40 MSTORE PUSH1 0x4 CALLDATASIZE LT PUSH2 0x3F JUMPI PUSH1 0x0 CALLDATALOAD PUSH1 0xE0 SHR DUP1 PUSH4 0x8EB6A489 EQ PUSH2 0x44 JUMPI DUP1 PUSH4 0x9B3F3F1A EQ PUSH2 0x81 JUMPI DUP1 PUSH4 0xC04D75DD EQ PUSH2 0xAA JUMPI DUP1 PUSH4 0xEB41850D EQ PUSH2 0xC6 JUMPI JUMPDEST PUSH1 0x0 DUP1 REVERT JUMPDEST CALLVALUE DUP1 ISZERO PUSH2 0x50 JUMPI PUSH1 0x0 DUP1 REVERT JUMPDEST POP PUSH2 0x6B PUSH1 0x4 DUP1 CALLDATASIZE SUB DUP2 ADD SWAP1 PUSH2 0x66 SWAP2 SWAP1 PUSH2 0x5AB JUMP JUMPDEST PUSH2 0x103 JUMP JUMPDEST PUSH1 0x40 MLOAD PUSH2 0x78 SWAP2 SWAP1 PUSH2 0x5F3 JUMP JUMPDEST PUSH1 0x40 MLOAD DUP1 SWAP2 SUB SWAP1 RETURN JUMPDEST CALLVALUE DUP1 ISZERO PUSH2 0x8D JUMPI PUSH1 0x0 DUP1 REVERT JUMPDEST POP PUSH2 0xA8 PUSH1 0x4 DUP1 CALLDATASIZE SUB DUP2 ADD SWAP1 PUSH2 0xA3 SWAP2 SWAP1 PUSH2 0x8C2 JUMP JUMPDEST PUSH2 0x123 JUMP JUMPDEST STOP JUMPDEST PUSH2 0xC4 PUSH1 0x4 DUP1 CALLDATASIZE SUB DUP2 ADD SWAP1 PUSH2 0xBF SWAP2 SWAP1 PUSH2 0x90B JUMP JUMPDEST PUSH2 0x228 JUMP JUMPDEST STOP JUMPDEST CALLVALUE DUP1 ISZERO PUSH2 0xD2 JUMPI PUSH1 0x0 DUP1 REVERT JUMPDEST POP PUSH2 0xED PUSH1 0x4 DUP1 CALLDATASIZE SUB DUP2 ADD SWAP1 PUSH2 0xE8 SWAP2 SWAP1 PUSH2 0x5AB JUMP JUMPDEST PUSH2 0x3CD JUMP JUMPDEST PUSH1 0x40 MLOAD PUSH2 0xFA SWAP2 SWAP1 PUSH2 0x5F3 JUMP JUMPDEST PUSH1 0x40 MLOAD DUP1 SWAP2 SUB SWAP1 RETURN JUMPDEST PUSH1 0x1 PUSH1 0x20 MSTORE DUP1 PUSH1 0x0 MSTORE PUSH1 0x40 PUSH1 0x0 KECCAK256 PUSH1 0x0 SWAP2 POP SLOAD SWAP1 PUSH2 0x100 EXP SWAP1 DIV PUSH1 0xFF AND DUP2 JUMP JUMPDEST PUSH1 0x0 DUP2 PUSH1 0x0 ADD MLOAD DUP3 PUSH1 0x20 ADD MLOAD DUP4 PUSH1 0x40 ADD MLOAD DUP5 PUSH1 0x60 ADD MLOAD DUP6 PUSH1 0xA0 ADD MLOAD DUP7 PUSH1 0xC0 ADD MLOAD PUSH1 0x40 MLOAD PUSH1 0x20 ADD PUSH2 0x158 SWAP7 SWAP6 SWAP5 SWAP4 SWAP3 SWAP2 SWAP1 PUSH2 0x9D0 JUMP JUMPDEST PUSH1 0x40 MLOAD PUSH1 0x20 DUP2 DUP4 SUB SUB DUP2 MSTORE SWAP1 PUSH1 0x40 MSTORE DUP1 MLOAD SWAP1 PUSH1 0x20 ADD KECCAK256 SWAP1 POP PUSH1 0x0 DUP2 PUSH1 0x40 MLOAD PUSH1 0x20 ADD PUSH2 0x183 SWAP2 SWAP1 PUSH2 0xAB8 JUMP JUMPDEST PUSH1 0x40 MLOAD PUSH1 0x20 DUP2 DUP4 SUB SUB DUP2 MSTORE SWAP1 PUSH1 0x40 MSTORE DUP1 MLOAD SWAP1 PUSH1 0x20 ADD KECCAK256 SWAP1 POP DUP3 PUSH1 0x0 ADD MLOAD PUSH20 0xFFFFFFFFFFFFFFFFFFFFFFFFFFFFFFFFFFFFFFFF AND PUSH2 0x1C4 DUP3 DUP6 PUSH1 0x80 ADD MLOAD PUSH2 0x3F7 JUMP JUMPDEST PUSH20 0xFFFFFFFFFFFFFFFFFFFFFFFFFFFFFFFFFFFFFFFF AND EQ PUSH2 0x21A JUMPI PUSH1 0x40 MLOAD PUSH32 0x8C379A000000000000000000000000000000000000000000000000000000000 DUP2 MSTORE PUSH1 0x4 ADD PUSH2 0x211 SWAP1 PUSH2 0xB3B JUMP JUMPDEST PUSH1 0x40 MLOAD DUP1 SWAP2 SUB SWAP1 REVERT JUMPDEST PUSH2 0x223 DUP3 PUSH2 0x48B JUMP JUMPDEST POP POP POP JUMP JUMPDEST PUSH1 0x0 DUP3 PUSH1 0x0 ADD MLOAD DUP4 PUSH1 0x20 ADD MLOAD DUP5 PUSH1 0x40 ADD MLOAD DUP6 PUSH1 0x60 ADD MLOAD DUP7 PUSH1 0xA0 ADD MLOAD DUP8 PUSH1 0xC0 ADD MLOAD PUSH1 0x40 MLOAD PUSH1 0x20 ADD PUSH2 0x25D SWAP7 SWAP6 SWAP5 SWAP4 SWAP3 SWAP2 SWAP1 PUSH2 0x9D0 JUMP JUMPDEST PUSH1 0x40 MLOAD PUSH1 0x20 DUP2 DUP4 SUB SUB DUP2 MSTORE SWAP1 PUSH1 0x40 MSTORE DUP1 MLOAD SWAP1 PUSH1 0x20 ADD KECCAK256 SWAP1 POP PUSH1 0x1 PUSH1 0x0 DUP3 DUP2 MSTORE PUSH1 0x20 ADD SWAP1 DUP2 MSTORE PUSH1 0x20 ADD PUSH1 0x0 KECCAK256 PUSH1 0x0 SWAP1 SLOAD SWAP1 PUSH2 0x100 EXP SWAP1 DIV PUSH1 0xFF AND ISZERO PUSH2 0x2D6 JUMPI PUSH1 0x40 MLOAD PUSH32 0x8C379A000000000000000000000000000000000000000000000000000000000 DUP2 MSTORE PUSH1 0x4 ADD PUSH2 0x2CD SWAP1 PUSH2 0xBA7 JUMP JUMPDEST PUSH1 0x40 MLOAD DUP1 SWAP2 SUB SWAP1 REVERT JUMPDEST PUSH2 0x301 DUP4 PUSH1 0x0 ADD MLOAD DUP5 PUSH1 0x20 ADD MLOAD DUP6 PUSH1 0x40 ADD MLOAD DUP7 PUSH1 0x60 ADD MLOAD DUP8 PUSH1 0x80 ADD MLOAD DUP9 PUSH1 0xA0 ADD MLOAD DUP10 PUSH1 0xC0 ADD MLOAD PUSH2 0x4B9 JUMP JUMPDEST PUSH2 0x340 JUMPI PUSH1 0x40 MLOAD PUSH32 0x8C379A000000000000000000000000000000000000000000000000000000000 DUP2 MSTORE PUSH1 0x4 ADD PUSH2 0x337 SWAP1 PUSH2 0xB3B JUMP JUMPDEST PUSH1 0x40 MLOAD DUP1 SWAP2 SUB SWAP1 REVERT JUMPDEST DUP3 PUSH1 0x20 ADD MLOAD PUSH20 0xFFFFFFFFFFFFFFFFFFFFFFFFFFFFFFFFFFFFFFFF AND PUSH4 0x23B872DD DUP5 PUSH1 0x0 ADD MLOAD DUP5 DUP7 PUSH1 0x40 ADD MLOAD PUSH1 0x40 MLOAD DUP5 PUSH4 0xFFFFFFFF AND PUSH1 0xE0 SHL DUP2 MSTORE PUSH1 0x4 ADD PUSH2 0x389 SWAP4 SWAP3 SWAP2 SWAP1 PUSH2 0xBE5 JUMP JUMPDEST PUSH1 0x0 PUSH1 0x40 MLOAD DUP1 DUP4 SUB DUP2 PUSH1 0x0 DUP8 DUP1 EXTCODESIZE ISZERO DUP1 ISZERO PUSH2 0x3A3 JUMPI PUSH1 0x0 DUP1 REVERT JUMPDEST POP GAS CALL SWAP3 POP POP POP DUP1 ISZERO PUSH2 0x3B4 JUMPI POP PUSH1 0x1 JUMPDEST PUSH2 0x3BE JUMPI POP PUSH2 0x3C9 JUMP JUMPDEST PUSH2 0x3C7 DUP2 PUSH2 0x48B JUMP JUMPDEST POP JUMPDEST POP POP JUMP JUMPDEST PUSH1 0x0 PUSH1 0x1 PUSH1 0x0 DUP4 DUP2 MSTORE PUSH1 0x20 ADD SWAP1 DUP2 MSTORE PUSH1 0x20 ADD PUSH1 0x0 KECCAK256 PUSH1 0x0 SWAP1 SLOAD SWAP1 PUSH2 0x100 EXP SWAP1 DIV PUSH1 0xFF AND SWAP1 POP SWAP2 SWAP1 POP JUMP JUMPDEST PUSH1 0x0 DUP1 PUSH1 0x0 DUP1 PUSH1 0x20 DUP6 ADD MLOAD SWAP3 POP PUSH1 0x40 DUP6 ADD MLOAD SWAP2 POP PUSH1 0x60 DUP6 ADD MLOAD PUSH1 0x0 BYTE SWAP1 POP PUSH1 0x1B DUP2 PUSH1 0xFF AND LT ISZERO PUSH2 0x431 JUMPI PUSH1 0x1B DUP2 PUSH2 0x42E SWAP2 SWAP1 PUSH2 0xC58 JUMP JUMPDEST SWAP1 POP JUMPDEST PUSH1 0x1 DUP7 DUP3 DUP6 DUP6 PUSH1 0x40 MLOAD PUSH1 0x0 DUP2 MSTORE PUSH1 0x20 ADD PUSH1 0x40 MSTORE PUSH1 0x40 MLOAD PUSH2 0x454 SWAP5 SWAP4 SWAP3 SWAP2 SWAP1 PUSH2 0xCAB JUMP JUMPDEST PUSH1 0x20 PUSH1 0x40 MLOAD PUSH1 0x20 DUP2 SUB SWAP1 DUP1 DUP5 SUB SWAP1 DUP6 GAS STATICCALL ISZERO DUP1 ISZERO PUSH2 0x476 JUMPI RETURNDATASIZE PUSH1 0x0 DUP1 RETURNDATACOPY RETURNDATASIZE PUSH1 0x0 REVERT JUMPDEST POP POP POP PUSH1 0x20 PUSH1 0x40 MLOAD SUB MLOAD SWAP4 POP POP POP POP SWAP3 SWAP2 POP POP JUMP JUMPDEST PUSH1 0x1 DUP1 PUSH1 0x0 DUP4 DUP2 MSTORE PUSH1 0x20 ADD SWAP1 DUP2 MSTORE PUSH1 0x20 ADD PUSH1 0x0 KECCAK256 PUSH1 0x0 PUSH2 0x100 EXP DUP2 SLOAD DUP2 PUSH1 0xFF MUL NOT AND SWAP1 DUP4 ISZERO ISZERO MUL OR SWAP1 SSTORE POP POP JUMP JUMPDEST PUSH1 0x0 DUP1 DUP9 DUP9 DUP9 DUP9 DUP8 DUP8 PUSH1 0x40 MLOAD PUSH1 0x20 ADD PUSH2 0x4D7 SWAP7 SWAP6 SWAP5 SWAP4 SWAP3 SWAP2 SWAP1 PUSH2 0x9D0 JUMP JUMPDEST PUSH1 0x40 MLOAD PUSH1 0x20 DUP2 DUP4 SUB SUB DUP2 MSTORE SWAP1 PUSH1 0x40 MSTORE DUP1 MLOAD SWAP1 PUSH1 0x20 ADD KECCAK256 SWAP1 POP PUSH1 0x0 DUP2 PUSH1 0x40 MLOAD PUSH1 0x20 ADD PUSH2 0x502 SWAP2 SWAP1 PUSH2 0xAB8 JUMP JUMPDEST PUSH1 0x40 MLOAD PUSH1 0x20 DUP2 DUP4 SUB SUB DUP2 MSTORE SWAP1 PUSH1 0x40 MSTORE DUP1 MLOAD SWAP1 PUSH1 0x20 ADD KECCAK256 SWAP1 POP DUP10 PUSH20 0xFFFFFFFFFFFFFFFFFFFFFFFFFFFFFFFFFFFFFFFF AND PUSH2 0x53B DUP3 DUP9 PUSH2 0x3F7 JUMP JUMPDEST PUSH20 0xFFFFFFFFFFFFFFFFFFFFFFFFFFFFFFFFFFFFFFFF AND EQ SWAP3 POP POP POP SWAP8 SWAP7 POP POP POP POP POP POP POP JUMP JUMPDEST PUSH1 0x0 PUSH1 0x40 MLOAD SWAP1 POP SWAP1 JUMP JUMPDEST PUSH1 0x0 DUP1 REVERT JUMPDEST PUSH1 0x0 DUP1 REVERT JUMPDEST PUSH1 0x0 DUP2 SWAP1 POP SWAP2 SWAP1 POP JUMP JUMPDEST PUSH2 0x588 DUP2 PUSH2 0x575 JUMP JUMPDEST DUP2 EQ PUSH2 0x593 JUMPI PUSH1 0x0 DUP1 REVERT JUMPDEST POP JUMP JUMPDEST PUSH1 0x0 DUP2 CALLDATALOAD SWAP1 POP PUSH2 0x5A5 DUP2 PUSH2 0x57F JUMP JUMPDEST SWAP3 SWAP2 POP POP JUMP JUMPDEST PUSH1 0x0 PUSH1 0x20 DUP3 DUP5 SUB SLT ISZERO PUSH2 0x5C1 JUMPI PUSH2 0x5C0 PUSH2 0x56B JUMP JUMPDEST JUMPDEST PUSH1 0x0 PUSH2 0x5CF DUP5 DUP3 DUP6 ADD PUSH2 0x596 JUMP JUMPDEST SWAP2 POP POP SWAP3 SWAP2 POP POP JUMP JUMPDEST PUSH1 0x0 DUP2 ISZERO ISZERO SWAP1 POP SWAP2 SWAP1 POP JUMP JUMPDEST PUSH2 0x5ED DUP2 PUSH2 0x5D8 JUMP JUMPDEST DUP3 MSTORE POP POP JUMP JUMPDEST PUSH1 0x0 PUSH1 0x20 DUP3 ADD SWAP1 POP PUSH2 0x608 PUSH1 0x0 DUP4 ADD DUP5 PUSH2 0x5E4 JUMP JUMPDEST SWAP3 SWAP2 POP POP JUMP JUMPDEST PUSH1 0x0 DUP1 REVERT JUMPDEST PUSH1 0x0 PUSH1 0x1F NOT PUSH1 0x1F DUP4 ADD AND SWAP1 POP SWAP2 SWAP1 POP JUMP JUMPDEST PUSH32 0x4E487B7100000000000000000000000000000000000000000000000000000000 PUSH1 0x0 MSTORE PUSH1 0x41 PUSH1 0x4 MSTORE PUSH1 0x24 PUSH1 0x0 REVERT JUMPDEST PUSH2 0x65C DUP3 PUSH2 0x613 JUMP JUMPDEST DUP2 ADD DUP2 DUP2 LT PUSH8 0xFFFFFFFFFFFFFFFF DUP3 GT OR ISZERO PUSH2 0x67B JUMPI PUSH2 0x67A PUSH2 0x624 JUMP JUMPDEST JUMPDEST DUP1 PUSH1 0x40 MSTORE POP POP POP JUMP JUMPDEST PUSH1 0x0 PUSH2 0x68E PUSH2 0x561 JUMP JUMPDEST SWAP1 POP PUSH2 0x69A DUP3 DUP3 PUSH2 0x653 JUMP JUMPDEST SWAP2 SWAP1 POP JUMP JUMPDEST PUSH1 0x0 DUP1 REVERT JUMPDEST PUSH1 0x0 PUSH20 0xFFFFFFFFFFFFFFFFFFFFFFFFFFFFFFFFFFFFFFFF DUP3 AND SWAP1 POP SWAP2 SWAP1 POP JUMP JUMPDEST PUSH1 0x0 PUSH2 0x6CF DUP3 PUSH2 0x6A4 JUMP JUMPDEST SWAP1 POP SWAP2 SWAP1 POP JUMP JUMPDEST PUSH2 0x6DF DUP2 PUSH2 0x6C4 JUMP JUMPDEST DUP2 EQ PUSH2 0x6EA JUMPI PUSH1 0x0 DUP1 REVERT JUMPDEST POP JUMP JUMPDEST PUSH1 0x0 DUP2 CALLDATALOAD SWAP1 POP PUSH2 0x6FC DUP2 PUSH2 0x6D6 JUMP JUMPDEST SWAP3 SWAP2 POP POP JUMP JUMPDEST PUSH1 0x0 DUP2 SWAP1 POP SWAP2 SWAP1 POP JUMP JUMPDEST PUSH2 0x715 DUP2 PUSH2 0x702 JUMP JUMPDEST DUP2 EQ PUSH2 0x720 JUMPI PUSH1 0x0 DUP1 REVERT JUMPDEST POP JUMP JUMPDEST PUSH1 0x0 DUP2 CALLDATALOAD SWAP1 POP PUSH2 0x732 DUP2 PUSH2 0x70C JUMP JUMPDEST SWAP3 SWAP2 POP POP JUMP JUMPDEST PUSH1 0x0 DUP1 REVERT JUMPDEST PUSH1 0x0 DUP1 REVERT JUMPDEST PUSH1 0x0 PUSH8 0xFFFFFFFFFFFFFFFF DUP3 GT ISZERO PUSH2 0x75D JUMPI PUSH2 0x75C PUSH2 0x624 JUMP JUMPDEST JUMPDEST PUSH2 0x766 DUP3 PUSH2 0x613 JUMP JUMPDEST SWAP1 POP PUSH1 0x20 DUP2 ADD SWAP1 POP SWAP2 SWAP1 POP JUMP JUMPDEST DUP3 DUP2 DUP4 CALLDATACOPY PUSH1 0x0 DUP4 DUP4 ADD MSTORE POP POP POP JUMP JUMPDEST PUSH1 0x0 PUSH2 0x795 PUSH2 0x790 DUP5 PUSH2 0x742 JUMP JUMPDEST PUSH2 0x684 JUMP JUMPDEST SWAP1 POP DUP3 DUP2 MSTORE PUSH1 0x20 DUP2 ADD DUP5 DUP5 DUP5 ADD GT ISZERO PUSH2 0x7B1 JUMPI PUSH2 0x7B0 PUSH2 0x73D JUMP JUMPDEST JUMPDEST PUSH2 0x7BC DUP5 DUP3 DUP6 PUSH2 0x773 JUMP JUMPDEST POP SWAP4 SWAP3 POP POP POP JUMP JUMPDEST PUSH1 0x0 DUP3 PUSH1 0x1F DUP4 ADD SLT PUSH2 0x7D9 JUMPI PUSH2 0x7D8 PUSH2 0x738 JUMP JUMPDEST JUMPDEST DUP2 CALLDATALOAD PUSH2 0x7E9 DUP5 DUP3 PUSH1 0x20 DUP7 ADD PUSH2 0x782 JUMP JUMPDEST SWAP2 POP POP SWAP3 SWAP2 POP POP JUMP JUMPDEST PUSH1 0x0 PUSH1 0xE0 DUP3 DUP5 SUB SLT ISZERO PUSH2 0x808 JUMPI PUSH2 0x807 PUSH2 0x60E JUMP JUMPDEST JUMPDEST PUSH2 0x812 PUSH1 0xE0 PUSH2 0x684 JUMP JUMPDEST SWAP1 POP PUSH1 0x0 PUSH2 0x822 DUP5 DUP3 DUP6 ADD PUSH2 0x6ED JUMP JUMPDEST PUSH1 0x0 DUP4 ADD MSTORE POP PUSH1 0x20 PUSH2 0x836 DUP5 DUP3 DUP6 ADD PUSH2 0x6ED JUMP JUMPDEST PUSH1 0x20 DUP4 ADD MSTORE POP PUSH1 0x40 PUSH2 0x84A DUP5 DUP3 DUP6 ADD PUSH2 0x723 JUMP JUMPDEST PUSH1 0x40 DUP4 ADD MSTORE POP PUSH1 0x60 PUSH2 0x85E DUP5 DUP3 DUP6 ADD PUSH2 0x723 JUMP JUMPDEST PUSH1 0x60 DUP4 ADD MSTORE POP PUSH1 0x80 DUP3 ADD CALLDATALOAD PUSH8 0xFFFFFFFFFFFFFFFF DUP2 GT ISZERO PUSH2 0x882 JUMPI PUSH2 0x881 PUSH2 0x69F JUMP JUMPDEST JUMPDEST PUSH2 0x88E DUP5 DUP3 DUP6 ADD PUSH2 0x7C4 JUMP JUMPDEST PUSH1 0x80 DUP4 ADD MSTORE POP PUSH1 0xA0 PUSH2 0x8A2 DUP5 DUP3 DUP6 ADD PUSH2 0x723 JUMP JUMPDEST PUSH1 0xA0 DUP4 ADD MSTORE POP PUSH1 0xC0 PUSH2 0x8B6 DUP5 DUP3 DUP6 ADD PUSH2 0x723 JUMP JUMPDEST PUSH1 0xC0 DUP4 ADD MSTORE POP SWAP3 SWAP2 POP POP JUMP JUMPDEST PUSH1 0x0 PUSH1 0x20 DUP3 DUP5 SUB SLT ISZERO PUSH2 0x8D8 JUMPI PUSH2 0x8D7 PUSH2 0x56B JUMP JUMPDEST JUMPDEST PUSH1 0x0 DUP3 ADD CALLDATALOAD PUSH8 0xFFFFFFFFFFFFFFFF DUP2 GT ISZERO PUSH2 0x8F6 JUMPI PUSH2 0x8F5 PUSH2 0x570 JUMP JUMPDEST JUMPDEST PUSH2 0x902 DUP5 DUP3 DUP6 ADD PUSH2 0x7F2 JUMP JUMPDEST SWAP2 POP POP SWAP3 SWAP2 POP POP JUMP JUMPDEST PUSH1 0x0 DUP1 PUSH1 0x40 DUP4 DUP6 SUB SLT ISZERO PUSH2 0x922 JUMPI PUSH2 0x921 PUSH2 0x56B JUMP JUMPDEST JUMPDEST PUSH1 0x0 DUP4 ADD CALLDATALOAD PUSH8 0xFFFFFFFFFFFFFFFF DUP2 GT ISZERO PUSH2 0x940 JUMPI PUSH2 0x93F PUSH2 0x570 JUMP JUMPDEST JUMPDEST PUSH2 0x94C DUP6 DUP3 DUP7 ADD PUSH2 0x7F2 JUMP JUMPDEST SWAP3 POP POP PUSH1 0x20 PUSH2 0x95D DUP6 DUP3 DUP7 ADD PUSH2 0x6ED JUMP JUMPDEST SWAP2 POP POP SWAP3 POP SWAP3 SWAP1 POP JUMP JUMPDEST PUSH1 0x0 DUP2 PUSH1 0x60 SHL SWAP1 POP SWAP2 SWAP1 POP JUMP JUMPDEST PUSH1 0x0 PUSH2 0x97F DUP3 PUSH2 0x967 JUMP JUMPDEST SWAP1 POP SWAP2 SWAP1 POP JUMP JUMPDEST PUSH1 0x0 PUSH2 0x991 DUP3 PUSH2 0x974 JUMP JUMPDEST SWAP1 POP SWAP2 SWAP1 POP JUMP JUMPDEST PUSH2 0x9A9 PUSH2 0x9A4 DUP3 PUSH2 0x6C4 JUMP JUMPDEST PUSH2 0x986 JUMP JUMPDEST DUP3 MSTORE POP POP JUMP JUMPDEST PUSH1 0x0 DUP2 SWAP1 POP SWAP2 SWAP1 POP JUMP JUMPDEST PUSH2 0x9CA PUSH2 0x9C5 DUP3 PUSH2 0x702 JUMP JUMPDEST PUSH2 0x9AF JUMP JUMPDEST DUP3 MSTORE POP POP JUMP JUMPDEST PUSH1 0x0 PUSH2 0x9DC DUP3 DUP10 PUSH2 0x998 JUMP JUMPDEST PUSH1 0x14 DUP3 ADD SWAP2 POP PUSH2 0x9EC DUP3 DUP9 PUSH2 0x998 JUMP JUMPDEST PUSH1 0x14 DUP3 ADD SWAP2 POP PUSH2 0x9FC DUP3 DUP8 PUSH2 0x9B9 JUMP JUMPDEST PUSH1 0x20 DUP3 ADD SWAP2 POP PUSH2 0xA0C DUP3 DUP7 PUSH2 0x9B9 JUMP JUMPDEST PUSH1 0x20 DUP3 ADD SWAP2 POP PUSH2 0xA1C DUP3 DUP6 PUSH2 0x9B9 JUMP JUMPDEST PUSH1 0x20 DUP3 ADD SWAP2 POP PUSH2 0xA2C DUP3 DUP5 PUSH2 0x9B9 JUMP JUMPDEST PUSH1 0x20 DUP3 ADD SWAP2 POP DUP2 SWAP1 POP SWAP8 SWAP7 POP POP POP POP POP POP POP JUMP JUMPDEST PUSH1 0x0 DUP2 SWAP1 POP SWAP3 SWAP2 POP POP JUMP JUMPDEST PUSH32 0x19457468657265756D205369676E6564204D6573736167653A0A333200000000 PUSH1 0x0 DUP3 ADD MSTORE POP JUMP JUMPDEST PUSH1 0x0 PUSH2 0xA81 PUSH1 0x1C DUP4 PUSH2 0xA40 JUMP JUMPDEST SWAP2 POP PUSH2 0xA8C DUP3 PUSH2 0xA4B JUMP JUMPDEST PUSH1 0x1C DUP3 ADD SWAP1 POP SWAP2 SWAP1 POP JUMP JUMPDEST PUSH1 0x0 DUP2 SWAP1 POP SWAP2 SWAP1 POP JUMP JUMPDEST PUSH2 0xAB2 PUSH2 0xAAD DUP3 PUSH2 0x575 JUMP JUMPDEST PUSH2 0xA97 JUMP JUMPDEST DUP3 MSTORE POP POP JUMP JUMPDEST PUSH1 0x0 PUSH2 0xAC3 DUP3 PUSH2 0xA74 JUMP JUMPDEST SWAP2 POP PUSH2 0xACF DUP3 DUP5 PUSH2 0xAA1 JUMP JUMPDEST PUSH1 0x20 DUP3 ADD SWAP2 POP DUP2 SWAP1 POP SWAP3 SWAP2 POP POP JUMP JUMPDEST PUSH1 0x0 DUP3 DUP3 MSTORE PUSH1 0x20 DUP3 ADD SWAP1 POP SWAP3 SWAP2 POP POP JUMP JUMPDEST PUSH32 0x496E76616C6964207369676E6174757265000000000000000000000000000000 PUSH1 0x0 DUP3 ADD MSTORE POP JUMP JUMPDEST PUSH1 0x0 PUSH2 0xB25 PUSH1 0x11 DUP4 PUSH2 0xADE JUMP JUMPDEST SWAP2 POP PUSH2 0xB30 DUP3 PUSH2 0xAEF JUMP JUMPDEST PUSH1 0x20 DUP3 ADD SWAP1 POP SWAP2 SWAP1 POP JUMP JUMPDEST PUSH1 0x0 PUSH1 0x20 DUP3 ADD SWAP1 POP DUP2 DUP2 SUB PUSH1 0x0 DUP4 ADD MSTORE PUSH2 0xB54 DUP2 PUSH2 0xB18 JUMP JUMPDEST SWAP1 POP SWAP2 SWAP1 POP JUMP JUMPDEST PUSH32 0x4F7264657220686173206265656E207573656400000000000000000000000000 PUSH1 0x0 DUP3 ADD MSTORE POP JUMP JUMPDEST PUSH1 0x0 PUSH2 0xB91 PUSH1 0x13 DUP4 PUSH2 0xADE JUMP JUMPDEST SWAP2 POP PUSH2 0xB9C DUP3 PUSH2 0xB5B JUMP JUMPDEST PUSH1 0x20 DUP3 ADD SWAP1 POP SWAP2 SWAP1 POP JUMP JUMPDEST PUSH1 0x0 PUSH1 0x20 DUP3 ADD SWAP1 POP DUP2 DUP2 SUB PUSH1 0x0 DUP4 ADD MSTORE PUSH2 0xBC0 DUP2 PUSH2 0xB84 JUMP JUMPDEST SWAP1 POP SWAP2 SWAP1 POP JUMP JUMPDEST PUSH2 0xBD0 DUP2 PUSH2 0x6C4 JUMP JUMPDEST DUP3 MSTORE POP POP JUMP JUMPDEST PUSH2 0xBDF DUP2 PUSH2 0x702 JUMP JUMPDEST DUP3 MSTORE POP POP JUMP JUMPDEST PUSH1 0x0 PUSH1 0x60 DUP3 ADD SWAP1 POP PUSH2 0xBFA PUSH1 0x0 DUP4 ADD DUP7 PUSH2 0xBC7 JUMP JUMPDEST PUSH2 0xC07 PUSH1 0x20 DUP4 ADD DUP6 PUSH2 0xBC7 JUMP JUMPDEST PUSH2 0xC14 PUSH1 0x40 DUP4 ADD DUP5 PUSH2 0xBD6 JUMP JUMPDEST SWAP5 SWAP4 POP POP POP POP JUMP JUMPDEST PUSH1 0x0 PUSH1 0xFF DUP3 AND SWAP1 POP SWAP2 SWAP1 POP JUMP JUMPDEST PUSH32 0x4E487B7100000000000000000000000000000000000000000000000000000000 PUSH1 0x0 MSTORE PUSH1 0x11 PUSH1 0x4 MSTORE PUSH1 0x24 PUSH1 0x0 REVERT JUMPDEST PUSH1 0x0 PUSH2 0xC63 DUP3 PUSH2 0xC1C JUMP JUMPDEST SWAP2 POP PUSH2 0xC6E DUP4 PUSH2 0xC1C JUMP JUMPDEST SWAP3 POP DUP3 DUP3 ADD SWAP1 POP PUSH1 0xFF DUP2 GT ISZERO PUSH2 0xC87 JUMPI PUSH2 0xC86 PUSH2 0xC29 JUMP JUMPDEST JUMPDEST SWAP3 SWAP2 POP POP JUMP JUMPDEST PUSH2 0xC96 DUP2 PUSH2 0x575 JUMP JUMPDEST DUP3 MSTORE POP POP JUMP JUMPDEST PUSH2 0xCA5 DUP2 PUSH2 0xC1C JUMP JUMPDEST DUP3 MSTORE POP POP JUMP JUMPDEST PUSH1 0x0 PUSH1 0x80 DUP3 ADD SWAP1 POP PUSH2 0xCC0 PUSH1 0x0 DUP4 ADD DUP8 PUSH2 0xC8D JUMP JUMPDEST PUSH2 0xCCD PUSH1 0x20 DUP4 ADD DUP7 PUSH2 0xC9C JUMP JUMPDEST PUSH2 0xCDA PUSH1 0x40 DUP4 ADD DUP6 PUSH2 0xC8D JUMP JUMPDEST PUSH2 0xCE7 PUSH1 0x60 DUP4 ADD DUP5 PUSH2 0xC8D JUMP JUMPDEST SWAP6 SWAP5 POP POP POP POP POP JUMP INVALID LOG2 PUSH5 0x6970667358 0x22 SLT KECCAK256 0xE 0x24 PUSH22 0xF5927E54DF33C5FCD45447F2FF2E8ED0D86612583C8E 0x5D LOG0 0xE7 DUP7 0x2E 0x2B 0xC5 PUSH5 0x736F6C6343 STOP ADDMOD SLT STOP CALLER "
				},
				"gasEstimates": {
					"creation": {
						"codeDepositCost": "673200",
						"executionCost": "infinite",
						"totalCost": "infinite"
					},
					"external": {
						"AtomicTx((address,address,uint256,uint256,bytes,uint256,uint256),address)": "infinite",
						"IsInvalid(bytes32)": "2774",
						"cancelOrder((address,address,uint256,uint256,bytes,uint256,uint256))": "infinite",
						"isOrderInvalid(bytes32)": "2866"
					},
					"internal": {
						"markOrderCancelled(bytes32)": "24362",
						"recoverSigner(bytes32,bytes memory)": "infinite",
						"verifySignature(address,address,uint256,uint256,bytes memory,uint256,uint256)": "infinite"
					}
				},
				"methodIdentifiers": {
					"AtomicTx((address,address,uint256,uint256,bytes,uint256,uint256),address)": "c04d75dd",
					"IsInvalid(bytes32)": "8eb6a489",
					"cancelOrder((address,address,uint256,uint256,bytes,uint256,uint256))": "9b3f3f1a",
					"isOrderInvalid(bytes32)": "eb41850d"
				}
			},
			"storageLayout": {
				"storage": [
					{
						"astId": 1223,
						"contract": "NFT_market_contract.sol:ProxyWallet",
						"label": "owner",
						"offset": 0,
						"slot": "0",
						"type": "t_address"
					},
					{
						"astId": 1227,
						"contract": "NFT_market_contract.sol:ProxyWallet",
						"label": "IsInvalid",
						"offset": 0,
						"slot": "1",
						"type": "t_mapping(t_bytes32,t_bool)"
					}
				],
				"types": {
					"t_address": {
						"encoding": "inplace",
						"label": "address",
						"numberOfBytes": "20"
					},
					"t_bool": {
						"encoding": "inplace",
						"label": "bool",
						"numberOfBytes": "1"
					},
					"t_bytes32": {
						"encoding": "inplace",
						"label": "bytes32",
						"numberOfBytes": "32"
					},
					"t_mapping(t_bytes32,t_bool)": {
						"encoding": "mapping",
						"key": "t_bytes32",
						"label": "mapping(bytes32 => bool)",
						"numberOfBytes": "32",
						"value": "t_bool"
					}
				}
			},
			"userdoc": {
				"kind": "user",
				"methods": {},
				"version": 1
			}
		}
	}
}