{
	"NFT_market_contract.sol": {
		"MarketContract": {
			"abi": [
				{
					"inputs": [
						{
							"internalType": "address",
							"name": "_owner",
							"type": "address"
						}
					],
					"stateMutability": "payable",
					"type": "constructor"
				},
				{
					"anonymous": false,
					"inputs": [
						{
							"indexed": true,
							"internalType": "address",
							"name": "seller",
							"type": "address"
						},
						{
							"indexed": true,
							"internalType": "address",
							"name": "buyer",
							"type": "address"
						},
						{
							"indexed": true,
							"internalType": "address",
							"name": "contractID",
							"type": "address"
						},
						{
							"indexed": false,
							"internalType": "uint256",
							"name": "tokenID",
							"type": "uint256"
						},
						{
							"indexed": false,
							"internalType": "bytes32",
							"name": "orderID",
							"type": "bytes32"
						},
						{
							"indexed": false,
							"internalType": "uint256",
							"name": "price",
							"type": "uint256"
						}
					],
					"name": "MatchFail",
					"type": "event"
				},
				{
					"anonymous": false,
					"inputs": [
						{
							"indexed": true,
							"internalType": "address",
							"name": "seller",
							"type": "address"
						},
						{
							"indexed": true,
							"internalType": "address",
							"name": "buyer",
							"type": "address"
						},
						{
							"indexed": true,
							"internalType": "address",
							"name": "contractID",
							"type": "address"
						},
						{
							"indexed": false,
							"internalType": "uint256",
							"name": "tokenID",
							"type": "uint256"
						},
						{
							"indexed": false,
							"internalType": "bytes32",
							"name": "orderID",
							"type": "bytes32"
						},
						{
							"indexed": false,
							"internalType": "uint256",
							"name": "price",
							"type": "uint256"
						}
					],
					"name": "MatchSuccess",
					"type": "event"
				},
				{
					"anonymous": false,
					"inputs": [
						{
							"indexed": true,
							"internalType": "address",
							"name": "seller",
							"type": "address"
						},
						{
							"indexed": true,
							"internalType": "address",
							"name": "contractID",
							"type": "address"
						},
						{
							"indexed": false,
							"internalType": "bytes32",
							"name": "orderID",
							"type": "bytes32"
						},
						{
							"indexed": false,
							"internalType": "uint256",
							"name": "tokenID",
							"type": "uint256"
						}
					],
					"name": "OrderExpired",
					"type": "event"
				},
				{
					"anonymous": false,
					"inputs": [
						{
							"indexed": true,
							"internalType": "address",
							"name": "seller",
							"type": "address"
						},
						{
							"indexed": true,
							"internalType": "address",
							"name": "contractID",
							"type": "address"
						},
						{
							"indexed": false,
							"internalType": "bytes32",
							"name": "orderID",
							"type": "bytes32"
						},
						{
							"indexed": false,
							"internalType": "uint256",
							"name": "tokenID",
							"type": "uint256"
						}
					],
					"name": "SellOrderCancelled",
					"type": "event"
				},
				{
					"anonymous": false,
					"inputs": [
						{
							"indexed": true,
							"internalType": "address",
							"name": "seller",
							"type": "address"
						},
						{
							"indexed": true,
							"internalType": "address",
							"name": "buyer",
							"type": "address"
						},
						{
							"indexed": true,
							"internalType": "address",
							"name": "contractID",
							"type": "address"
						},
						{
							"indexed": false,
							"internalType": "bytes32",
							"name": "orderID",
							"type": "bytes32"
						},
						{
							"indexed": false,
							"internalType": "uint256",
							"name": "tokenID",
							"type": "uint256"
						},
						{
							"indexed": false,
							"internalType": "uint256",
							"name": "price",
							"type": "uint256"
						}
					],
					"name": "TradeFail",
					"type": "event"
				},
				{
					"anonymous": false,
					"inputs": [
						{
							"indexed": true,
							"internalType": "address",
							"name": "seller",
							"type": "address"
						},
						{
							"indexed": true,
							"internalType": "address",
							"name": "buyer",
							"type": "address"
						},
						{
							"indexed": true,
							"internalType": "address",
							"name": "contractID",
							"type": "address"
						},
						{
							"indexed": false,
							"internalType": "bytes32",
							"name": "orderID",
							"type": "bytes32"
						},
						{
							"indexed": false,
							"internalType": "uint256",
							"name": "tokenID",
							"type": "uint256"
						},
						{
							"indexed": false,
							"internalType": "uint256",
							"name": "price",
							"type": "uint256"
						}
					],
					"name": "TradeSuccess",
					"type": "event"
				},
				{
					"anonymous": false,
					"inputs": [
						{
							"indexed": false,
							"internalType": "uint256",
							"name": "oldFeeRate",
							"type": "uint256"
						},
						{
							"indexed": false,
							"internalType": "uint256",
							"name": "newFeeRate",
							"type": "uint256"
						}
					],
					"name": "UpdateFeeRate",
					"type": "event"
				},
				{
					"inputs": [
						{
							"internalType": "address",
							"name": "seller",
							"type": "address"
						},
						{
							"internalType": "address",
							"name": "contractID",
							"type": "address"
						},
						{
							"internalType": "uint256",
							"name": "tokenID",
							"type": "uint256"
						},
						{
							"internalType": "uint256",
							"name": "price",
							"type": "uint256"
						},
						{
							"internalType": "bytes",
							"name": "signature",
							"type": "bytes"
						},
						{
							"internalType": "uint256",
							"name": "expirationTime",
							"type": "uint256"
						},
						{
							"internalType": "uint256",
							"name": "nonce",
							"type": "uint256"
						}
					],
					"name": "CancelSellOrder",
					"outputs": [],
					"stateMutability": "nonpayable",
					"type": "function"
				},
				{
					"inputs": [],
					"name": "createProxyWallet",
					"outputs": [],
					"stateMutability": "nonpayable",
					"type": "function"
				},
				{
					"inputs": [],
					"name": "getFeeRate",
					"outputs": [
						{
							"internalType": "uint256",
							"name": "",
							"type": "uint256"
						}
					],
					"stateMutability": "view",
					"type": "function"
				},
				{
					"inputs": [
						{
							"internalType": "address",
							"name": "user",
							"type": "address"
						}
					],
					"name": "getProxyWallet",
					"outputs": [
						{
							"internalType": "address",
							"name": "",
							"type": "address"
						}
					],
					"stateMutability": "nonpayable",
					"type": "function"
				},
				{
					"inputs": [
						{
							"internalType": "address",
							"name": "seller",
							"type": "address"
						},
						{
							"internalType": "address",
							"name": "contractID",
							"type": "address"
						},
						{
							"internalType": "uint256",
							"name": "tokenID",
							"type": "uint256"
						},
						{
							"internalType": "uint256",
							"name": "price",
							"type": "uint256"
						},
						{
							"internalType": "bytes",
							"name": "signature",
							"type": "bytes"
						},
						{
							"internalType": "uint256",
							"name": "expirationTime",
							"type": "uint256"
						},
						{
							"internalType": "uint256",
							"name": "nonce",
							"type": "uint256"
						}
					],
					"name": "matchOrder",
					"outputs": [],
					"stateMutability": "payable",
					"type": "function"
				},
				{
					"inputs": [
						{
							"internalType": "address payable",
							"name": "_mall",
							"type": "address"
						}
					],
					"name": "setMall",
					"outputs": [],
					"stateMutability": "nonpayable",
					"type": "function"
				},
				{
					"inputs": [
						{
							"internalType": "uint256",
							"name": "newFeeRate",
							"type": "uint256"
						}
					],
					"name": "updateFeeRate",
					"outputs": [],
					"stateMutability": "nonpayable",
					"type": "function"
				}
			],
			"devdoc": {
				"kind": "dev",
				"methods": {},
				"version": 1
			},
			"evm": {
				"assembly": "    /* \"NFT_market_contract.sol\":345:9329  contract MarketContract is Imarket {... */\n  mstore(0x40, 0x80)\n    /* \"NFT_market_contract.sol\":924:925  2 */\n  0x02\n    /* \"NFT_market_contract.sol\":898:925  uint256 private feeRate = 2 */\n  dup1\n  sstore\n    /* \"NFT_market_contract.sol\":1105:1174  constructor(address _owner) payable {... */\n  mload(0x40)\n  sub(codesize, bytecodeSize)\n  dup1\n  bytecodeSize\n  dup4\n  codecopy\n  dup2\n  dup2\n  add\n  0x40\n  mstore\n  dup2\n  add\n  swap1\n  tag_1\n  swap2\n  swap1\n  tag_2\n  jump\t// in\ntag_1:\n    /* \"NFT_market_contract.sol\":1160:1166  _owner */\n  dup1\n    /* \"NFT_market_contract.sol\":1152:1157  owner */\n  0x03\n  0x00\n    /* \"NFT_market_contract.sol\":1152:1166  owner = _owner */\n  0x0100\n  exp\n  dup2\n  sload\n  dup2\n  0xffffffffffffffffffffffffffffffffffffffff\n  mul\n  not\n  and\n  swap1\n  dup4\n  0xffffffffffffffffffffffffffffffffffffffff\n  and\n  mul\n  or\n  swap1\n  sstore\n  pop\n    /* \"NFT_market_contract.sol\":1105:1174  constructor(address _owner) payable {... */\n  pop\n    /* \"NFT_market_contract.sol\":345:9329  contract MarketContract is Imarket {... */\n  jump(tag_5)\n    /* \"#utility.yul\":88:205   */\ntag_7:\n    /* \"#utility.yul\":197:198   */\n  0x00\n    /* \"#utility.yul\":194:195   */\n  dup1\n    /* \"#utility.yul\":187:199   */\n  revert\n    /* \"#utility.yul\":334:460   */\ntag_9:\n    /* \"#utility.yul\":371:378   */\n  0x00\n    /* \"#utility.yul\":411:453   */\n  0xffffffffffffffffffffffffffffffffffffffff\n    /* \"#utility.yul\":404:409   */\n  dup3\n    /* \"#utility.yul\":400:454   */\n  and\n    /* \"#utility.yul\":389:454   */\n  swap1\n  pop\n    /* \"#utility.yul\":334:460   */\n  swap2\n  swap1\n  pop\n  jump\t// out\n    /* \"#utility.yul\":466:562   */\ntag_10:\n    /* \"#utility.yul\":503:510   */\n  0x00\n    /* \"#utility.yul\":532:556   */\n  tag_19\n    /* \"#utility.yul\":550:555   */\n  dup3\n    /* \"#utility.yul\":532:556   */\n  tag_9\n  jump\t// in\ntag_19:\n    /* \"#utility.yul\":521:556   */\n  swap1\n  pop\n    /* \"#utility.yul\":466:562   */\n  swap2\n  swap1\n  pop\n  jump\t// out\n    /* \"#utility.yul\":568:690   */\ntag_11:\n    /* \"#utility.yul\":641:665   */\n  tag_21\n    /* \"#utility.yul\":659:664   */\n  dup2\n    /* \"#utility.yul\":641:665   */\n  tag_10\n  jump\t// in\ntag_21:\n    /* \"#utility.yul\":634:639   */\n  dup2\n    /* \"#utility.yul\":631:666   */\n  eq\n    /* \"#utility.yul\":621:684   */\n  tag_22\n  jumpi\n    /* \"#utility.yul\":680:681   */\n  0x00\n    /* \"#utility.yul\":677:678   */\n  dup1\n    /* \"#utility.yul\":670:682   */\n  revert\n    /* \"#utility.yul\":621:684   */\ntag_22:\n    /* \"#utility.yul\":568:690   */\n  pop\n  jump\t// out\n    /* \"#utility.yul\":696:839   */\ntag_12:\n    /* \"#utility.yul\":753:758   */\n  0x00\n    /* \"#utility.yul\":784:790   */\n  dup2\n    /* \"#utility.yul\":778:791   */\n  mload\n    /* \"#utility.yul\":769:791   */\n  swap1\n  pop\n    /* \"#utility.yul\":800:833   */\n  tag_24\n    /* \"#utility.yul\":827:832   */\n  dup2\n    /* \"#utility.yul\":800:833   */\n  tag_11\n  jump\t// in\ntag_24:\n    /* \"#utility.yul\":696:839   */\n  swap3\n  swap2\n  pop\n  pop\n  jump\t// out\n    /* \"#utility.yul\":845:1196   */\ntag_2:\n    /* \"#utility.yul\":915:921   */\n  0x00\n    /* \"#utility.yul\":964:966   */\n  0x20\n    /* \"#utility.yul\":952:961   */\n  dup3\n    /* \"#utility.yul\":943:950   */\n  dup5\n    /* \"#utility.yul\":939:962   */\n  sub\n    /* \"#utility.yul\":935:967   */\n  slt\n    /* \"#utility.yul\":932:1051   */\n  iszero\n  tag_26\n  jumpi\n    /* \"#utility.yul\":970:1049   */\n  tag_27\n  tag_7\n  jump\t// in\ntag_27:\n    /* \"#utility.yul\":932:1051   */\ntag_26:\n    /* \"#utility.yul\":1090:1091   */\n  0x00\n    /* \"#utility.yul\":1115:1179   */\n  tag_28\n    /* \"#utility.yul\":1171:1178   */\n  dup5\n    /* \"#utility.yul\":1162:1168   */\n  dup3\n    /* \"#utility.yul\":1151:1160   */\n  dup6\n    /* \"#utility.yul\":1147:1169   */\n  add\n    /* \"#utility.yul\":1115:1179   */\n  tag_12\n  jump\t// in\ntag_28:\n    /* \"#utility.yul\":1105:1179   */\n  swap2\n  pop\n    /* \"#utility.yul\":1061:1189   */\n  pop\n    /* \"#utility.yul\":845:1196   */\n  swap3\n  swap2\n  pop\n  pop\n  jump\t// out\n    /* \"NFT_market_contract.sol\":345:9329  contract MarketContract is Imarket {... */\ntag_5:\n  dataSize(sub_0)\n  dup1\n  dataOffset(sub_0)\n  0x00\n  codecopy\n  0x00\n  return\nstop\n\nsub_0: assembly {\n        /* \"NFT_market_contract.sol\":345:9329  contract MarketContract is Imarket {... */\n      mstore(0x40, 0x80)\n      jumpi(tag_1, lt(calldatasize, 0x04))\n      shr(0xe0, calldataload(0x00))\n      dup1\n      0x7b84fda5\n      gt\n      tag_9\n      jumpi\n      dup1\n      0x7b84fda5\n      eq\n      tag_5\n      jumpi\n      dup1\n      0x84e5eed0\n      eq\n      tag_6\n      jumpi\n      dup1\n      0xc2a1d6c9\n      eq\n      tag_7\n      jumpi\n      dup1\n      0xc465db0a\n      eq\n      tag_8\n      jumpi\n      jump(tag_1)\n    tag_9:\n      dup1\n      0x07e4ac72\n      eq\n      tag_2\n      jumpi\n      dup1\n      0x171ab662\n      eq\n      tag_3\n      jumpi\n      dup1\n      0x4aa2059f\n      eq\n      tag_4\n      jumpi\n    tag_1:\n      0x00\n      dup1\n      revert\n        /* \"NFT_market_contract.sol\":2203:2291  function setMall(address payable _mall) public onlyOwner {... */\n    tag_2:\n      callvalue\n      dup1\n      iszero\n      tag_10\n      jumpi\n      0x00\n      dup1\n      revert\n    tag_10:\n      pop\n      tag_11\n      0x04\n      dup1\n      calldatasize\n      sub\n      dup2\n      add\n      swap1\n      tag_12\n      swap2\n      swap1\n      tag_13\n      jump\t// in\n    tag_12:\n      tag_14\n      jump\t// in\n    tag_11:\n      stop\n        /* \"NFT_market_contract.sol\":4358:8118  function matchOrder(... */\n    tag_3:\n      tag_15\n      0x04\n      dup1\n      calldatasize\n      sub\n      dup2\n      add\n      swap1\n      tag_16\n      swap2\n      swap1\n      tag_17\n      jump\t// in\n    tag_16:\n      tag_18\n      jump\t// in\n    tag_15:\n      stop\n        /* \"NFT_market_contract.sol\":2752:3436  function CancelSellOrder(... */\n    tag_4:\n      callvalue\n      dup1\n      iszero\n      tag_19\n      jumpi\n      0x00\n      dup1\n      revert\n    tag_19:\n      pop\n      tag_20\n      0x04\n      dup1\n      calldatasize\n      sub\n      dup2\n      add\n      swap1\n      tag_21\n      swap2\n      swap1\n      tag_17\n      jump\t// in\n    tag_21:\n      tag_22\n      jump\t// in\n    tag_20:\n      stop\n        /* \"NFT_market_contract.sol\":1839:2030  function updateFeeRate(uint256 newFeeRate) public onlyOwner {... */\n    tag_5:\n      callvalue\n      dup1\n      iszero\n      tag_23\n      jumpi\n      0x00\n      dup1\n      revert\n    tag_23:\n      pop\n      tag_24\n      0x04\n      dup1\n      calldatasize\n      sub\n      dup2\n      add\n      swap1\n      tag_25\n      swap2\n      swap1\n      tag_26\n      jump\t// in\n    tag_25:\n      tag_27\n      jump\t// in\n    tag_24:\n      stop\n        /* \"NFT_market_contract.sol\":2058:2143  function getFeeRate() public view returns (uint256) {... */\n    tag_6:\n      callvalue\n      dup1\n      iszero\n      tag_28\n      jumpi\n      0x00\n      dup1\n      revert\n    tag_28:\n      pop\n      tag_29\n      tag_30\n      jump\t// in\n    tag_29:\n      mload(0x40)\n      tag_31\n      swap2\n      swap1\n      tag_32\n      jump\t// in\n    tag_31:\n      mload(0x40)\n      dup1\n      swap2\n      sub\n      swap1\n      return\n        /* \"NFT_market_contract.sol\":1209:1672  function createProxyWallet() public {... */\n    tag_7:\n      callvalue\n      dup1\n      iszero\n      tag_33\n      jumpi\n      0x00\n      dup1\n      revert\n    tag_33:\n      pop\n      tag_34\n      tag_35\n      jump\t// in\n    tag_34:\n      stop\n        /* \"NFT_market_contract.sol\":2341:2645  function getProxyWallet(address user) public returns (address) {... */\n    tag_8:\n      callvalue\n      dup1\n      iszero\n      tag_36\n      jumpi\n      0x00\n      dup1\n      revert\n    tag_36:\n      pop\n      tag_37\n      0x04\n      dup1\n      calldatasize\n      sub\n      dup2\n      add\n      swap1\n      tag_38\n      swap2\n      swap1\n      tag_39\n      jump\t// in\n    tag_38:\n      tag_40\n      jump\t// in\n    tag_37:\n      mload(0x40)\n      tag_41\n      swap2\n      swap1\n      tag_42\n      jump\t// in\n    tag_41:\n      mload(0x40)\n      dup1\n      swap2\n      sub\n      swap1\n      return\n        /* \"NFT_market_contract.sol\":2203:2291  function setMall(address payable _mall) public onlyOwner {... */\n    tag_14:\n        /* \"NFT_market_contract.sol\":1734:1739  owner */\n      0x03\n      0x00\n      swap1\n      sload\n      swap1\n      0x0100\n      exp\n      swap1\n      div\n      0xffffffffffffffffffffffffffffffffffffffff\n      and\n        /* \"NFT_market_contract.sol\":1720:1739  msg.sender == owner */\n      0xffffffffffffffffffffffffffffffffffffffff\n      and\n        /* \"NFT_market_contract.sol\":1720:1730  msg.sender */\n      caller\n        /* \"NFT_market_contract.sol\":1720:1739  msg.sender == owner */\n      0xffffffffffffffffffffffffffffffffffffffff\n      and\n      eq\n        /* \"NFT_market_contract.sol\":1712:1777  require(msg.sender == owner, \"Only owner can call this function\") */\n      tag_44\n      jumpi\n      mload(0x40)\n      0x08c379a000000000000000000000000000000000000000000000000000000000\n      dup2\n      mstore\n      0x04\n      add\n      tag_45\n      swap1\n      tag_46\n      jump\t// in\n    tag_45:\n      mload(0x40)\n      dup1\n      swap2\n      sub\n      swap1\n      revert\n    tag_44:\n        /* \"NFT_market_contract.sol\":2278:2283  _mall */\n      dup1\n        /* \"NFT_market_contract.sol\":2271:2275  mall */\n      0x01\n      0x00\n        /* \"NFT_market_contract.sol\":2271:2283  mall = _mall */\n      0x0100\n      exp\n      dup2\n      sload\n      dup2\n      0xffffffffffffffffffffffffffffffffffffffff\n      mul\n      not\n      and\n      swap1\n      dup4\n      0xffffffffffffffffffffffffffffffffffffffff\n      and\n      mul\n      or\n      swap1\n      sstore\n      pop\n        /* \"NFT_market_contract.sol\":2203:2291  function setMall(address payable _mall) public onlyOwner {... */\n      pop\n      jump\t// out\n        /* \"NFT_market_contract.sol\":4358:8118  function matchOrder(... */\n    tag_18:\n        /* \"NFT_market_contract.sol\":4744:4770  SellOrder memory sellOrder */\n      0x00\n        /* \"NFT_market_contract.sol\":4773:4954  SellOrder(... */\n      mload(0x40)\n      dup1\n      0xe0\n      add\n      0x40\n      mstore\n      dup1\n        /* \"NFT_market_contract.sol\":4797:4803  seller */\n      dup10\n        /* \"NFT_market_contract.sol\":4773:4954  SellOrder(... */\n      0xffffffffffffffffffffffffffffffffffffffff\n      and\n      dup2\n      mstore\n      0x20\n      add\n        /* \"NFT_market_contract.sol\":4818:4828  contractID */\n      dup9\n        /* \"NFT_market_contract.sol\":4773:4954  SellOrder(... */\n      0xffffffffffffffffffffffffffffffffffffffff\n      and\n      dup2\n      mstore\n      0x20\n      add\n        /* \"NFT_market_contract.sol\":4843:4850  tokenID */\n      dup8\n        /* \"NFT_market_contract.sol\":4773:4954  SellOrder(... */\n      dup2\n      mstore\n      0x20\n      add\n        /* \"NFT_market_contract.sol\":4865:4870  price */\n      dup7\n        /* \"NFT_market_contract.sol\":4773:4954  SellOrder(... */\n      dup2\n      mstore\n      0x20\n      add\n        /* \"NFT_market_contract.sol\":4885:4894  signature */\n      dup6\n        /* \"NFT_market_contract.sol\":4773:4954  SellOrder(... */\n      dup2\n      mstore\n      0x20\n      add\n        /* \"NFT_market_contract.sol\":4909:4923  expirationTime */\n      dup5\n        /* \"NFT_market_contract.sol\":4773:4954  SellOrder(... */\n      dup2\n      mstore\n      0x20\n      add\n        /* \"NFT_market_contract.sol\":4938:4943  nonce */\n      dup4\n        /* \"NFT_market_contract.sol\":4773:4954  SellOrder(... */\n      dup2\n      mstore\n      pop\n        /* \"NFT_market_contract.sol\":4744:4954  SellOrder memory sellOrder = SellOrder(... */\n      swap1\n      pop\n        /* \"NFT_market_contract.sol\":4965:4979  uint256 _value */\n      0x00\n        /* \"NFT_market_contract.sol\":4982:4991  msg.value */\n      callvalue\n        /* \"NFT_market_contract.sol\":4965:4991  uint256 _value = msg.value */\n      swap1\n      pop\n        /* \"NFT_market_contract.sol\":5002:5013  uint256 fee */\n      0x00\n        /* \"NFT_market_contract.sol\":5016:5053  sellOrder.price.mul(feeRate).div(100) */\n      tag_49\n        /* \"NFT_market_contract.sol\":5049:5052  100 */\n      0x64\n        /* \"NFT_market_contract.sol\":5016:5044  sellOrder.price.mul(feeRate) */\n      tag_50\n        /* \"NFT_market_contract.sol\":5036:5043  feeRate */\n      sload(0x02)\n        /* \"NFT_market_contract.sol\":5016:5025  sellOrder */\n      dup7\n        /* \"NFT_market_contract.sol\":5016:5031  sellOrder.price */\n      0x60\n      add\n      mload\n        /* \"NFT_market_contract.sol\":5016:5035  sellOrder.price.mul */\n      tag_51\n      swap1\n        /* \"NFT_market_contract.sol\":5016:5044  sellOrder.price.mul(feeRate) */\n      swap2\n      swap1\n      0xffffffff\n      and\n      jump\t// in\n    tag_50:\n        /* \"NFT_market_contract.sol\":5016:5048  sellOrder.price.mul(feeRate).div */\n      tag_52\n      swap1\n        /* \"NFT_market_contract.sol\":5016:5053  sellOrder.price.mul(feeRate).div(100) */\n      swap2\n      swap1\n      0xffffffff\n      and\n      jump\t// in\n    tag_49:\n        /* \"NFT_market_contract.sol\":5002:5053  uint256 fee = sellOrder.price.mul(feeRate).div(100) */\n      swap1\n      pop\n        /* \"NFT_market_contract.sol\":5112:5136  address proxyWallet_Sell */\n      0x00\n        /* \"NFT_market_contract.sol\":5139:5156  userToProxyWallet */\n      0x04\n        /* \"NFT_market_contract.sol\":5139:5174  userToProxyWallet[sellOrder.seller] */\n      0x00\n        /* \"NFT_market_contract.sol\":5157:5166  sellOrder */\n      dup6\n        /* \"NFT_market_contract.sol\":5157:5173  sellOrder.seller */\n      0x00\n      add\n      mload\n        /* \"NFT_market_contract.sol\":5139:5174  userToProxyWallet[sellOrder.seller] */\n      0xffffffffffffffffffffffffffffffffffffffff\n      and\n      0xffffffffffffffffffffffffffffffffffffffff\n      and\n      dup2\n      mstore\n      0x20\n      add\n      swap1\n      dup2\n      mstore\n      0x20\n      add\n      0x00\n      keccak256\n      0x00\n      swap1\n      sload\n      swap1\n      0x0100\n      exp\n      swap1\n      div\n      0xffffffffffffffffffffffffffffffffffffffff\n      and\n        /* \"NFT_market_contract.sol\":5112:5174  address proxyWallet_Sell = userToProxyWallet[sellOrder.seller] */\n      swap1\n      pop\n        /* \"NFT_market_contract.sol\":5221:5222  0 */\n      0x00\n        /* \"NFT_market_contract.sol\":5193:5223  proxyWallet_Sell != address(0) */\n      0xffffffffffffffffffffffffffffffffffffffff\n      and\n        /* \"NFT_market_contract.sol\":5193:5209  proxyWallet_Sell */\n      dup2\n        /* \"NFT_market_contract.sol\":5193:5223  proxyWallet_Sell != address(0) */\n      0xffffffffffffffffffffffffffffffffffffffff\n      and\n      sub\n        /* \"NFT_market_contract.sol\":5185:5250  require(proxyWallet_Sell != address(0), \"Proxy wallet not found\") */\n      tag_53\n      jumpi\n      mload(0x40)\n      0x08c379a000000000000000000000000000000000000000000000000000000000\n      dup2\n      mstore\n      0x04\n      add\n      tag_54\n      swap1\n      tag_55\n      jump\t// in\n    tag_54:\n      mload(0x40)\n      dup1\n      swap2\n      sub\n      swap1\n      revert\n    tag_53:\n        /* \"NFT_market_contract.sol\":5418:5427  sellOrder */\n      dup4\n        /* \"NFT_market_contract.sol\":5418:5434  sellOrder.seller */\n      0x00\n      add\n      mload\n        /* \"NFT_market_contract.sol\":5341:5434  IERC721(sellOrder.contractID).ownerOf(sellOrder.tokenID) ==... */\n      0xffffffffffffffffffffffffffffffffffffffff\n      and\n        /* \"NFT_market_contract.sol\":5349:5358  sellOrder */\n      dup5\n        /* \"NFT_market_contract.sol\":5349:5369  sellOrder.contractID */\n      0x20\n      add\n      mload\n        /* \"NFT_market_contract.sol\":5341:5378  IERC721(sellOrder.contractID).ownerOf */\n      0xffffffffffffffffffffffffffffffffffffffff\n      and\n      0x6352211e\n        /* \"NFT_market_contract.sol\":5379:5388  sellOrder */\n      dup7\n        /* \"NFT_market_contract.sol\":5379:5396  sellOrder.tokenID */\n      0x40\n      add\n      mload\n        /* \"NFT_market_contract.sol\":5341:5397  IERC721(sellOrder.contractID).ownerOf(sellOrder.tokenID) */\n      mload(0x40)\n      dup3\n      0xffffffff\n      and\n      0xe0\n      shl\n      dup2\n      mstore\n      0x04\n      add\n      tag_56\n      swap2\n      swap1\n      tag_32\n      jump\t// in\n    tag_56:\n      0x20\n      mload(0x40)\n      dup1\n      dup4\n      sub\n      dup2\n      dup7\n      gas\n      staticcall\n      iszero\n      dup1\n      iszero\n      tag_58\n      jumpi\n      returndatasize\n      0x00\n      dup1\n      returndatacopy\n      revert(0x00, returndatasize)\n    tag_58:\n      pop\n      pop\n      pop\n      pop\n      mload(0x40)\n      returndatasize\n      not(0x1f)\n      0x1f\n      dup3\n      add\n      and\n      dup3\n      add\n      dup1\n      0x40\n      mstore\n      pop\n      dup2\n      add\n      swap1\n      tag_59\n      swap2\n      swap1\n      tag_60\n      jump\t// in\n    tag_59:\n        /* \"NFT_market_contract.sol\":5341:5434  IERC721(sellOrder.contractID).ownerOf(sellOrder.tokenID) ==... */\n      0xffffffffffffffffffffffffffffffffffffffff\n      and\n      eq\n        /* \"NFT_market_contract.sol\":5319:5499  require(... */\n      tag_61\n      jumpi\n      mload(0x40)\n      0x08c379a000000000000000000000000000000000000000000000000000000000\n      dup2\n      mstore\n      0x04\n      add\n      tag_62\n      swap1\n      tag_63\n      jump\t// in\n    tag_62:\n      mload(0x40)\n      dup1\n      swap2\n      sub\n      swap1\n      revert\n    tag_61:\n        /* \"NFT_market_contract.sol\":5589:5601  bytes32 Hash */\n      0x00\n        /* \"NFT_market_contract.sol\":5663:5672  sellOrder */\n      dup5\n        /* \"NFT_market_contract.sol\":5663:5679  sellOrder.seller */\n      0x00\n      add\n      mload\n        /* \"NFT_market_contract.sol\":5698:5707  sellOrder */\n      dup6\n        /* \"NFT_market_contract.sol\":5698:5718  sellOrder.contractID */\n      0x20\n      add\n      mload\n        /* \"NFT_market_contract.sol\":5737:5746  sellOrder */\n      dup7\n        /* \"NFT_market_contract.sol\":5737:5754  sellOrder.tokenID */\n      0x40\n      add\n      mload\n        /* \"NFT_market_contract.sol\":5773:5782  sellOrder */\n      dup8\n        /* \"NFT_market_contract.sol\":5773:5788  sellOrder.price */\n      0x60\n      add\n      mload\n        /* \"NFT_market_contract.sol\":5807:5816  sellOrder */\n      dup9\n        /* \"NFT_market_contract.sol\":5807:5831  sellOrder.expirationTime */\n      0xa0\n      add\n      mload\n        /* \"NFT_market_contract.sol\":5850:5859  sellOrder */\n      dup10\n        /* \"NFT_market_contract.sol\":5850:5865  sellOrder.nonce */\n      0xc0\n      add\n      mload\n        /* \"NFT_market_contract.sol\":5628:5880  abi.encodePacked(... */\n      add(0x20, mload(0x40))\n      tag_64\n      swap7\n      swap6\n      swap5\n      swap4\n      swap3\n      swap2\n      swap1\n      tag_65\n      jump\t// in\n    tag_64:\n      mload(0x40)\n      0x20\n      dup2\n      dup4\n      sub\n      sub\n      dup2\n      mstore\n      swap1\n      0x40\n      mstore\n        /* \"NFT_market_contract.sol\":5604:5891  keccak256(... */\n      dup1\n      mload\n      swap1\n      0x20\n      add\n      keccak256\n        /* \"NFT_market_contract.sol\":5589:5891  bytes32 Hash = keccak256(... */\n      swap1\n      pop\n        /* \"NFT_market_contract.sol\":5960:5969  sellOrder */\n      dup5\n        /* \"NFT_market_contract.sol\":5960:5984  sellOrder.expirationTime */\n      0xa0\n      add\n      mload\n        /* \"NFT_market_contract.sol\":5942:5957  block.timestamp */\n      timestamp\n        /* \"NFT_market_contract.sol\":5942:5984  block.timestamp > sellOrder.expirationTime */\n      gt\n        /* \"NFT_market_contract.sol\":5938:6250  if (block.timestamp > sellOrder.expirationTime) {... */\n      iszero\n      tag_66\n      jumpi\n        /* \"NFT_market_contract.sol\":6001:6028  _cancelSellOrder(sellOrder) */\n      tag_67\n        /* \"NFT_market_contract.sol\":6018:6027  sellOrder */\n      dup6\n        /* \"NFT_market_contract.sol\":6001:6017  _cancelSellOrder */\n      tag_68\n        /* \"NFT_market_contract.sol\":6001:6028  _cancelSellOrder(sellOrder) */\n      jump\t// in\n    tag_67:\n        /* \"NFT_market_contract.sol\":6114:6123  sellOrder */\n      dup5\n        /* \"NFT_market_contract.sol\":6114:6134  sellOrder.contractID */\n      0x20\n      add\n      mload\n        /* \"NFT_market_contract.sol\":6048:6217  OrderExpired(... */\n      0xffffffffffffffffffffffffffffffffffffffff\n      and\n        /* \"NFT_market_contract.sol\":6079:6088  sellOrder */\n      dup6\n        /* \"NFT_market_contract.sol\":6079:6095  sellOrder.seller */\n      0x00\n      add\n      mload\n        /* \"NFT_market_contract.sol\":6048:6217  OrderExpired(... */\n      0xffffffffffffffffffffffffffffffffffffffff\n      and\n      0x68138f0ee854a322025bc4fdf83bf151264d42cbc5930a3afc396a82980028d6\n        /* \"NFT_market_contract.sol\":6153:6157  Hash */\n      dup4\n        /* \"NFT_market_contract.sol\":6185:6194  sellOrder */\n      dup9\n        /* \"NFT_market_contract.sol\":6185:6202  sellOrder.tokenID */\n      0x40\n      add\n      mload\n        /* \"NFT_market_contract.sol\":6048:6217  OrderExpired(... */\n      mload(0x40)\n      tag_69\n      swap3\n      swap2\n      swap1\n      tag_70\n      jump\t// in\n    tag_69:\n      mload(0x40)\n      dup1\n      swap2\n      sub\n      swap1\n      log3\n        /* \"NFT_market_contract.sol\":6232:6239  return; */\n      pop\n      pop\n      pop\n      pop\n      pop\n      jump(tag_48)\n        /* \"NFT_market_contract.sol\":5938:6250  if (block.timestamp > sellOrder.expirationTime) {... */\n    tag_66:\n        /* \"NFT_market_contract.sol\":6264:6276  bool isValid */\n      0x00\n        /* \"NFT_market_contract.sol\":6278:6296  bytes memory datas */\n      dup1\n        /* \"NFT_market_contract.sol\":6300:6316  proxyWallet_Sell */\n      dup4\n        /* \"NFT_market_contract.sol\":6300:6321  proxyWallet_Sell.call */\n      0xffffffffffffffffffffffffffffffffffffffff\n      and\n        /* \"NFT_market_contract.sol\":6387:6391  Hash */\n      dup4\n        /* \"NFT_market_contract.sol\":6336:6392  abi.encodeWithSignature(\"isOrderInvalid(bytes32)\", Hash) */\n      add(0x24, mload(0x40))\n      tag_71\n      swap2\n      swap1\n      tag_72\n      jump\t// in\n    tag_71:\n      mload(0x40)\n      0x20\n      dup2\n      dup4\n      sub\n      sub\n      dup2\n      mstore\n      swap1\n      0x40\n      mstore\n      and(not(0xffffffffffffffffffffffffffffffffffffffffffffffffffffffff), 0xeb41850d00000000000000000000000000000000000000000000000000000000)\n      0x20\n      dup3\n      add\n      dup1\n      mload\n      0xffffffffffffffffffffffffffffffffffffffffffffffffffffffff\n      dup4\n      dup2\n      dup4\n      and\n      or\n      dup4\n      mstore\n      pop\n      pop\n      pop\n      pop\n        /* \"NFT_market_contract.sol\":6300:6403  proxyWallet_Sell.call(... */\n      mload(0x40)\n      tag_73\n      swap2\n      swap1\n      tag_74\n      jump\t// in\n    tag_73:\n      0x00\n      mload(0x40)\n      dup1\n      dup4\n      sub\n      dup2\n      0x00\n      dup7\n      gas\n      call\n      swap2\n      pop\n      pop\n      returndatasize\n      dup1\n      0x00\n      dup2\n      eq\n      tag_77\n      jumpi\n      mload(0x40)\n      swap2\n      pop\n      and(add(returndatasize, 0x3f), not(0x1f))\n      dup3\n      add\n      0x40\n      mstore\n      returndatasize\n      dup3\n      mstore\n      returndatasize\n      0x00\n      0x20\n      dup5\n      add\n      returndatacopy\n      jump(tag_76)\n    tag_77:\n      0x60\n      swap2\n      pop\n    tag_76:\n      pop\n        /* \"NFT_market_contract.sol\":6263:6403  (bool isValid, bytes memory datas) = proxyWallet_Sell.call(... */\n      swap2\n      pop\n      swap2\n      pop\n        /* \"NFT_market_contract.sol\":6455:6472  bool isOrderValid */\n      0x00\n        /* \"NFT_market_contract.sol\":6486:6491  datas */\n      dup2\n        /* \"NFT_market_contract.sol\":6475:6500  abi.decode(datas, (bool)) */\n      dup1\n      0x20\n      add\n      swap1\n      mload\n      dup2\n      add\n      swap1\n      tag_78\n      swap2\n      swap1\n      tag_79\n      jump\t// in\n    tag_78:\n        /* \"NFT_market_contract.sol\":6455:6500  bool isOrderValid = abi.decode(datas, (bool)) */\n      swap1\n      pop\n        /* \"NFT_market_contract.sol\":6519:6526  isValid */\n      dup3\n        /* \"NFT_market_contract.sol\":6519:6543  isValid && !isOrderValid */\n      dup1\n      iszero\n      tag_80\n      jumpi\n      pop\n        /* \"NFT_market_contract.sol\":6531:6543  isOrderValid */\n      dup1\n        /* \"NFT_market_contract.sol\":6530:6543  !isOrderValid */\n      iszero\n        /* \"NFT_market_contract.sol\":6519:6543  isValid && !isOrderValid */\n    tag_80:\n        /* \"NFT_market_contract.sol\":6511:6566  require(isValid && !isOrderValid, \"Order is not valid\") */\n      tag_81\n      jumpi\n      mload(0x40)\n      0x08c379a000000000000000000000000000000000000000000000000000000000\n      dup2\n      mstore\n      0x04\n      add\n      tag_82\n      swap1\n      tag_83\n      jump\t// in\n    tag_82:\n      mload(0x40)\n      dup1\n      swap2\n      sub\n      swap1\n      revert\n    tag_81:\n        /* \"NFT_market_contract.sol\":6599:6608  sellOrder */\n      dup8\n        /* \"NFT_market_contract.sol\":6599:6614  sellOrder.price */\n      0x60\n      add\n      mload\n        /* \"NFT_market_contract.sol\":6592:6595  fee */\n      dup7\n        /* \"NFT_market_contract.sol\":6583:6589  _value */\n      dup9\n        /* \"NFT_market_contract.sol\":6583:6595  _value - fee */\n      tag_84\n      swap2\n      swap1\n      tag_85\n      jump\t// in\n    tag_84:\n        /* \"NFT_market_contract.sol\":6583:6614  _value - fee >= sellOrder.price */\n      lt\n        /* \"NFT_market_contract.sol\":6579:8111  if (_value - fee >= sellOrder.price) {... */\n      tag_86\n      jumpi\n        /* \"NFT_market_contract.sol\":6632:6644  bool success */\n      0x00\n        /* \"NFT_market_contract.sol\":6646:6663  bytes memory data */\n      dup1\n        /* \"NFT_market_contract.sol\":6667:6683  proxyWallet_Sell */\n      dup7\n        /* \"NFT_market_contract.sol\":6667:6688  proxyWallet_Sell.call */\n      0xffffffffffffffffffffffffffffffffffffffff\n      and\n        /* \"NFT_market_contract.sol\":6851:6860  sellOrder */\n      dup11\n        /* \"NFT_market_contract.sol\":6883:6893  msg.sender */\n      caller\n        /* \"NFT_market_contract.sol\":6707:6912  abi.encodeWithSignature(... */\n      add(0x24, mload(0x40))\n      tag_87\n      swap3\n      swap2\n      swap1\n      tag_88\n      jump\t// in\n    tag_87:\n      mload(0x40)\n      0x20\n      dup2\n      dup4\n      sub\n      sub\n      dup2\n      mstore\n      swap1\n      0x40\n      mstore\n      and(not(0xffffffffffffffffffffffffffffffffffffffffffffffffffffffff), 0xc04d75dd00000000000000000000000000000000000000000000000000000000)\n      0x20\n      dup3\n      add\n      dup1\n      mload\n      0xffffffffffffffffffffffffffffffffffffffffffffffffffffffff\n      dup4\n      dup2\n      dup4\n      and\n      or\n      dup4\n      mstore\n      pop\n      pop\n      pop\n      pop\n        /* \"NFT_market_contract.sol\":6667:6927  proxyWallet_Sell.call(... */\n      mload(0x40)\n      tag_89\n      swap2\n      swap1\n      tag_74\n      jump\t// in\n    tag_89:\n      0x00\n      mload(0x40)\n      dup1\n      dup4\n      sub\n      dup2\n      0x00\n      dup7\n      gas\n      call\n      swap2\n      pop\n      pop\n      returndatasize\n      dup1\n      0x00\n      dup2\n      eq\n      tag_92\n      jumpi\n      mload(0x40)\n      swap2\n      pop\n      and(add(returndatasize, 0x3f), not(0x1f))\n      dup3\n      add\n      0x40\n      mstore\n      returndatasize\n      dup3\n      mstore\n      returndatasize\n      0x00\n      0x20\n      dup5\n      add\n      returndatacopy\n      jump(tag_91)\n    tag_92:\n      0x60\n      swap2\n      pop\n    tag_91:\n      pop\n        /* \"NFT_market_contract.sol\":6631:6927  (bool success, bytes memory data) = proxyWallet_Sell.call(... */\n      swap2\n      pop\n      swap2\n      pop\n        /* \"NFT_market_contract.sol\":7083:7093  msg.sender */\n      caller\n        /* \"NFT_market_contract.sol\":7006:7093  IERC721(sellOrder.contractID).ownerOf(sellOrder.tokenID) ==... */\n      0xffffffffffffffffffffffffffffffffffffffff\n      and\n        /* \"NFT_market_contract.sol\":7014:7023  sellOrder */\n      dup11\n        /* \"NFT_market_contract.sol\":7014:7034  sellOrder.contractID */\n      0x20\n      add\n      mload\n        /* \"NFT_market_contract.sol\":7006:7043  IERC721(sellOrder.contractID).ownerOf */\n      0xffffffffffffffffffffffffffffffffffffffff\n      and\n      0x6352211e\n        /* \"NFT_market_contract.sol\":7044:7053  sellOrder */\n      dup13\n        /* \"NFT_market_contract.sol\":7044:7061  sellOrder.tokenID */\n      0x40\n      add\n      mload\n        /* \"NFT_market_contract.sol\":7006:7062  IERC721(sellOrder.contractID).ownerOf(sellOrder.tokenID) */\n      mload(0x40)\n      dup3\n      0xffffffff\n      and\n      0xe0\n      shl\n      dup2\n      mstore\n      0x04\n      add\n      tag_93\n      swap2\n      swap1\n      tag_32\n      jump\t// in\n    tag_93:\n      0x20\n      mload(0x40)\n      dup1\n      dup4\n      sub\n      dup2\n      dup7\n      gas\n      staticcall\n      iszero\n      dup1\n      iszero\n      tag_95\n      jumpi\n      returndatasize\n      0x00\n      dup1\n      returndatacopy\n      revert(0x00, returndatasize)\n    tag_95:\n      pop\n      pop\n      pop\n      pop\n      mload(0x40)\n      returndatasize\n      not(0x1f)\n      0x1f\n      dup3\n      add\n      and\n      dup3\n      add\n      dup1\n      0x40\n      mstore\n      pop\n      dup2\n      add\n      swap1\n      tag_96\n      swap2\n      swap1\n      tag_60\n      jump\t// in\n    tag_96:\n        /* \"NFT_market_contract.sol\":7006:7093  IERC721(sellOrder.contractID).ownerOf(sellOrder.tokenID) ==... */\n      0xffffffffffffffffffffffffffffffffffffffff\n      and\n      sub\n        /* \"NFT_market_contract.sol\":6984:8039  if (... */\n      tag_97\n      jumpi\n        /* \"NFT_market_contract.sol\":7208:7217  sellOrder */\n      dup10\n        /* \"NFT_market_contract.sol\":7208:7228  sellOrder.contractID */\n      0x20\n      add\n      mload\n        /* \"NFT_market_contract.sol\":7165:7271  MatchSuccess(sellOrder.seller, msg.sender, sellOrder.contractID,  sellOrder.tokenID,Hash, sellOrder.price) */\n      0xffffffffffffffffffffffffffffffffffffffff\n      and\n        /* \"NFT_market_contract.sol\":7196:7206  msg.sender */\n      caller\n        /* \"NFT_market_contract.sol\":7165:7271  MatchSuccess(sellOrder.seller, msg.sender, sellOrder.contractID,  sellOrder.tokenID,Hash, sellOrder.price) */\n      0xffffffffffffffffffffffffffffffffffffffff\n      and\n        /* \"NFT_market_contract.sol\":7178:7187  sellOrder */\n      dup12\n        /* \"NFT_market_contract.sol\":7178:7194  sellOrder.seller */\n      0x00\n      add\n      mload\n        /* \"NFT_market_contract.sol\":7165:7271  MatchSuccess(sellOrder.seller, msg.sender, sellOrder.contractID,  sellOrder.tokenID,Hash, sellOrder.price) */\n      0xffffffffffffffffffffffffffffffffffffffff\n      and\n      0x467f50bd8d1547cf60e60dba76ab3ff7f8b3a07ceba26c2268e160a7df30230e\n        /* \"NFT_market_contract.sol\":7231:7240  sellOrder */\n      dup14\n        /* \"NFT_market_contract.sol\":7231:7248  sellOrder.tokenID */\n      0x40\n      add\n      mload\n        /* \"NFT_market_contract.sol\":7249:7253  Hash */\n      dup11\n        /* \"NFT_market_contract.sol\":7255:7264  sellOrder */\n      dup16\n        /* \"NFT_market_contract.sol\":7255:7270  sellOrder.price */\n      0x60\n      add\n      mload\n        /* \"NFT_market_contract.sol\":7165:7271  MatchSuccess(sellOrder.seller, msg.sender, sellOrder.contractID,  sellOrder.tokenID,Hash, sellOrder.price) */\n      mload(0x40)\n      tag_98\n      swap4\n      swap3\n      swap2\n      swap1\n      tag_99\n      jump\t// in\n    tag_98:\n      mload(0x40)\n      dup1\n      swap2\n      sub\n      swap1\n      log4\n        /* \"NFT_market_contract.sol\":7298:7302  mall */\n      0x01\n      0x00\n      swap1\n      sload\n      swap1\n      0x0100\n      exp\n      swap1\n      div\n      0xffffffffffffffffffffffffffffffffffffffff\n      and\n        /* \"NFT_market_contract.sol\":7290:7312  payable(mall).transfer */\n      0xffffffffffffffffffffffffffffffffffffffff\n      and\n        /* \"NFT_market_contract.sol\":7290:7317  payable(mall).transfer(fee) */\n      0x08fc\n        /* \"NFT_market_contract.sol\":7313:7316  fee */\n      dup10\n        /* \"NFT_market_contract.sol\":7290:7317  payable(mall).transfer(fee) */\n      swap1\n      dup2\n      iszero\n      mul\n      swap1\n      mload(0x40)\n      0x00\n      mload(0x40)\n      dup1\n      dup4\n      sub\n      dup2\n      dup6\n      dup9\n      dup9\n      call\n      swap4\n      pop\n      pop\n      pop\n      pop\n      iszero\n      dup1\n      iszero\n      tag_101\n      jumpi\n      returndatasize\n      0x00\n      dup1\n      returndatacopy\n      revert(0x00, returndatasize)\n    tag_101:\n      pop\n        /* \"NFT_market_contract.sol\":7430:7439  sellOrder */\n      dup10\n        /* \"NFT_market_contract.sol\":7430:7446  sellOrder.seller */\n      0x00\n      add\n      mload\n        /* \"NFT_market_contract.sol\":7422:7452  payable(sellOrder.seller).send */\n      0xffffffffffffffffffffffffffffffffffffffff\n      and\n        /* \"NFT_market_contract.sol\":7422:7466  payable(sellOrder.seller).send(_value - fee) */\n      0x08fc\n        /* \"NFT_market_contract.sol\":7462:7465  fee */\n      dup10\n        /* \"NFT_market_contract.sol\":7453:7459  _value */\n      dup12\n        /* \"NFT_market_contract.sol\":7453:7465  _value - fee */\n      tag_102\n      swap2\n      swap1\n      tag_85\n      jump\t// in\n    tag_102:\n        /* \"NFT_market_contract.sol\":7422:7466  payable(sellOrder.seller).send(_value - fee) */\n      swap1\n      dup2\n      iszero\n      mul\n      swap1\n      mload(0x40)\n      0x00\n      mload(0x40)\n      dup1\n      dup4\n      sub\n      dup2\n      dup6\n      dup9\n      dup9\n      call\n      swap4\n      pop\n      pop\n      pop\n      pop\n        /* \"NFT_market_contract.sol\":7417:7675  if (!payable(sellOrder.seller).send(_value - fee)) {... */\n      tag_104\n      jumpi\n        /* \"NFT_market_contract.sol\":7499:7509  msg.sender */\n      caller\n        /* \"NFT_market_contract.sol\":7491:7519  payable(msg.sender).transfer */\n      0xffffffffffffffffffffffffffffffffffffffff\n      and\n        /* \"NFT_market_contract.sol\":7491:7524  payable(msg.sender).transfer(fee) */\n      0x08fc\n        /* \"NFT_market_contract.sol\":7520:7523  fee */\n      dup10\n        /* \"NFT_market_contract.sol\":7491:7524  payable(msg.sender).transfer(fee) */\n      swap1\n      dup2\n      iszero\n      mul\n      swap1\n      mload(0x40)\n      0x00\n      mload(0x40)\n      dup1\n      dup4\n      sub\n      dup2\n      dup6\n      dup9\n      dup9\n      call\n      swap4\n      pop\n      pop\n      pop\n      pop\n      iszero\n      dup1\n      iszero\n      tag_106\n      jumpi\n      returndatasize\n      0x00\n      dup1\n      returndatacopy\n      revert(0x00, returndatasize)\n    tag_106:\n      pop\n        /* \"NFT_market_contract.sol\":7592:7601  sellOrder */\n      dup10\n        /* \"NFT_market_contract.sol\":7592:7612  sellOrder.contractID */\n      0x20\n      add\n      mload\n        /* \"NFT_market_contract.sol\":7552:7655  TradeFail(sellOrder.seller, msg.sender, sellOrder.contractID, Hash, sellOrder.tokenID, sellOrder.price) */\n      0xffffffffffffffffffffffffffffffffffffffff\n      and\n        /* \"NFT_market_contract.sol\":7580:7590  msg.sender */\n      caller\n        /* \"NFT_market_contract.sol\":7552:7655  TradeFail(sellOrder.seller, msg.sender, sellOrder.contractID, Hash, sellOrder.tokenID, sellOrder.price) */\n      0xffffffffffffffffffffffffffffffffffffffff\n      and\n        /* \"NFT_market_contract.sol\":7562:7571  sellOrder */\n      dup12\n        /* \"NFT_market_contract.sol\":7562:7578  sellOrder.seller */\n      0x00\n      add\n      mload\n        /* \"NFT_market_contract.sol\":7552:7655  TradeFail(sellOrder.seller, msg.sender, sellOrder.contractID, Hash, sellOrder.tokenID, sellOrder.price) */\n      0xffffffffffffffffffffffffffffffffffffffff\n      and\n      0x6844bef6c3a28de7fdcbe3bc8d79cdba7844b79c4ddcf615a1deb95c5a7ec9d1\n        /* \"NFT_market_contract.sol\":7614:7618  Hash */\n      dup10\n        /* \"NFT_market_contract.sol\":7620:7629  sellOrder */\n      dup15\n        /* \"NFT_market_contract.sol\":7620:7637  sellOrder.tokenID */\n      0x40\n      add\n      mload\n        /* \"NFT_market_contract.sol\":7639:7648  sellOrder */\n      dup16\n        /* \"NFT_market_contract.sol\":7639:7654  sellOrder.price */\n      0x60\n      add\n      mload\n        /* \"NFT_market_contract.sol\":7552:7655  TradeFail(sellOrder.seller, msg.sender, sellOrder.contractID, Hash, sellOrder.tokenID, sellOrder.price) */\n      mload(0x40)\n      tag_107\n      swap4\n      swap3\n      swap2\n      swap1\n      tag_108\n      jump\t// in\n    tag_107:\n      mload(0x40)\n      dup1\n      swap2\n      sub\n      swap1\n      log4\n        /* \"NFT_market_contract.sol\":7417:7675  if (!payable(sellOrder.seller).send(_value - fee)) {... */\n    tag_104:\n        /* \"NFT_market_contract.sol\":7773:7782  sellOrder */\n      dup10\n        /* \"NFT_market_contract.sol\":7773:7793  sellOrder.contractID */\n      0x20\n      add\n      mload\n        /* \"NFT_market_contract.sol\":7730:7836  TradeSuccess(sellOrder.seller, msg.sender, sellOrder.contractID, Hash, sellOrder.tokenID, sellOrder.price) */\n      0xffffffffffffffffffffffffffffffffffffffff\n      and\n        /* \"NFT_market_contract.sol\":7761:7771  msg.sender */\n      caller\n        /* \"NFT_market_contract.sol\":7730:7836  TradeSuccess(sellOrder.seller, msg.sender, sellOrder.contractID, Hash, sellOrder.tokenID, sellOrder.price) */\n      0xffffffffffffffffffffffffffffffffffffffff\n      and\n        /* \"NFT_market_contract.sol\":7743:7752  sellOrder */\n      dup12\n        /* \"NFT_market_contract.sol\":7743:7759  sellOrder.seller */\n      0x00\n      add\n      mload\n        /* \"NFT_market_contract.sol\":7730:7836  TradeSuccess(sellOrder.seller, msg.sender, sellOrder.contractID, Hash, sellOrder.tokenID, sellOrder.price) */\n      0xffffffffffffffffffffffffffffffffffffffff\n      and\n      0x1df50a9fbb406a714ae50adb30851596a510c10eabcb5787f3130515da396493\n        /* \"NFT_market_contract.sol\":7795:7799  Hash */\n      dup10\n        /* \"NFT_market_contract.sol\":7801:7810  sellOrder */\n      dup15\n        /* \"NFT_market_contract.sol\":7801:7818  sellOrder.tokenID */\n      0x40\n      add\n      mload\n        /* \"NFT_market_contract.sol\":7820:7829  sellOrder */\n      dup16\n        /* \"NFT_market_contract.sol\":7820:7835  sellOrder.price */\n      0x60\n      add\n      mload\n        /* \"NFT_market_contract.sol\":7730:7836  TradeSuccess(sellOrder.seller, msg.sender, sellOrder.contractID, Hash, sellOrder.tokenID, sellOrder.price) */\n      mload(0x40)\n      tag_109\n      swap4\n      swap3\n      swap2\n      swap1\n      tag_108\n      jump\t// in\n    tag_109:\n      mload(0x40)\n      dup1\n      swap2\n      sub\n      swap1\n      log4\n        /* \"NFT_market_contract.sol\":6984:8039  if (... */\n      jump(tag_110)\n    tag_97:\n        /* \"NFT_market_contract.sol\":7922:7931  sellOrder */\n      dup10\n        /* \"NFT_market_contract.sol\":7922:7942  sellOrder.contractID */\n      0x20\n      add\n      mload\n        /* \"NFT_market_contract.sol\":7882:7985  MatchFail(sellOrder.seller, msg.sender, sellOrder.contractID,  sellOrder.tokenID,Hash, sellOrder.price) */\n      0xffffffffffffffffffffffffffffffffffffffff\n      and\n        /* \"NFT_market_contract.sol\":7910:7920  msg.sender */\n      caller\n        /* \"NFT_market_contract.sol\":7882:7985  MatchFail(sellOrder.seller, msg.sender, sellOrder.contractID,  sellOrder.tokenID,Hash, sellOrder.price) */\n      0xffffffffffffffffffffffffffffffffffffffff\n      and\n        /* \"NFT_market_contract.sol\":7892:7901  sellOrder */\n      dup12\n        /* \"NFT_market_contract.sol\":7892:7908  sellOrder.seller */\n      0x00\n      add\n      mload\n        /* \"NFT_market_contract.sol\":7882:7985  MatchFail(sellOrder.seller, msg.sender, sellOrder.contractID,  sellOrder.tokenID,Hash, sellOrder.price) */\n      0xffffffffffffffffffffffffffffffffffffffff\n      and\n      0x9bd8cc9f795935d6f423445d18dd997edfeec3d962973fadffeac5740e876b5f\n        /* \"NFT_market_contract.sol\":7945:7954  sellOrder */\n      dup14\n        /* \"NFT_market_contract.sol\":7945:7962  sellOrder.tokenID */\n      0x40\n      add\n      mload\n        /* \"NFT_market_contract.sol\":7963:7967  Hash */\n      dup11\n        /* \"NFT_market_contract.sol\":7969:7978  sellOrder */\n      dup16\n        /* \"NFT_market_contract.sol\":7969:7984  sellOrder.price */\n      0x60\n      add\n      mload\n        /* \"NFT_market_contract.sol\":7882:7985  MatchFail(sellOrder.seller, msg.sender, sellOrder.contractID,  sellOrder.tokenID,Hash, sellOrder.price) */\n      mload(0x40)\n      tag_111\n      swap4\n      swap3\n      swap2\n      swap1\n      tag_99\n      jump\t// in\n    tag_111:\n      mload(0x40)\n      dup1\n      swap2\n      sub\n      swap1\n      log4\n        /* \"NFT_market_contract.sol\":8004:8023  revert(\"matchfail\") */\n      mload(0x40)\n      0x08c379a000000000000000000000000000000000000000000000000000000000\n      dup2\n      mstore\n      0x04\n      add\n      tag_112\n      swap1\n      tag_113\n      jump\t// in\n    tag_112:\n      mload(0x40)\n      dup1\n      swap2\n      sub\n      swap1\n      revert\n        /* \"NFT_market_contract.sol\":6984:8039  if (... */\n    tag_110:\n        /* \"NFT_market_contract.sol\":6616:8050  {... */\n      pop\n      pop\n        /* \"NFT_market_contract.sol\":6579:8111  if (_value - fee >= sellOrder.price) {... */\n      jump(tag_114)\n    tag_86:\n        /* \"NFT_market_contract.sol\":8069:8099  revert(\"Insufficient payment\") */\n      mload(0x40)\n      0x08c379a000000000000000000000000000000000000000000000000000000000\n      dup2\n      mstore\n      0x04\n      add\n      tag_115\n      swap1\n      tag_116\n      jump\t// in\n    tag_115:\n      mload(0x40)\n      dup1\n      swap2\n      sub\n      swap1\n      revert\n        /* \"NFT_market_contract.sol\":6579:8111  if (_value - fee >= sellOrder.price) {... */\n    tag_114:\n        /* \"NFT_market_contract.sol\":4700:8118  {... */\n      pop\n      pop\n      pop\n      pop\n      pop\n      pop\n      pop\n      pop\n        /* \"NFT_market_contract.sol\":4358:8118  function matchOrder(... */\n    tag_48:\n      pop\n      pop\n      pop\n      pop\n      pop\n      pop\n      pop\n      jump\t// out\n        /* \"NFT_market_contract.sol\":2752:3436  function CancelSellOrder(... */\n    tag_22:\n        /* \"NFT_market_contract.sol\":3102:3128  SellOrder memory sellOrder */\n      0x00\n        /* \"NFT_market_contract.sol\":3131:3312  SellOrder(... */\n      mload(0x40)\n      dup1\n      0xe0\n      add\n      0x40\n      mstore\n      dup1\n        /* \"NFT_market_contract.sol\":3155:3161  seller */\n      dup10\n        /* \"NFT_market_contract.sol\":3131:3312  SellOrder(... */\n      0xffffffffffffffffffffffffffffffffffffffff\n      and\n      dup2\n      mstore\n      0x20\n      add\n        /* \"NFT_market_contract.sol\":3176:3186  contractID */\n      dup9\n        /* \"NFT_market_contract.sol\":3131:3312  SellOrder(... */\n      0xffffffffffffffffffffffffffffffffffffffff\n      and\n      dup2\n      mstore\n      0x20\n      add\n        /* \"NFT_market_contract.sol\":3201:3208  tokenID */\n      dup8\n        /* \"NFT_market_contract.sol\":3131:3312  SellOrder(... */\n      dup2\n      mstore\n      0x20\n      add\n        /* \"NFT_market_contract.sol\":3223:3228  price */\n      dup7\n        /* \"NFT_market_contract.sol\":3131:3312  SellOrder(... */\n      dup2\n      mstore\n      0x20\n      add\n        /* \"NFT_market_contract.sol\":3243:3252  signature */\n      dup6\n        /* \"NFT_market_contract.sol\":3131:3312  SellOrder(... */\n      dup2\n      mstore\n      0x20\n      add\n        /* \"NFT_market_contract.sol\":3267:3281  expirationTime */\n      dup5\n        /* \"NFT_market_contract.sol\":3131:3312  SellOrder(... */\n      dup2\n      mstore\n      0x20\n      add\n        /* \"NFT_market_contract.sol\":3296:3301  nonce */\n      dup4\n        /* \"NFT_market_contract.sol\":3131:3312  SellOrder(... */\n      dup2\n      mstore\n      pop\n        /* \"NFT_market_contract.sol\":3102:3312  SellOrder memory sellOrder = SellOrder(... */\n      swap1\n      pop\n        /* \"NFT_market_contract.sol\":3345:3351  seller */\n      dup8\n        /* \"NFT_market_contract.sol\":3331:3351  msg.sender == seller */\n      0xffffffffffffffffffffffffffffffffffffffff\n      and\n        /* \"NFT_market_contract.sol\":3331:3341  msg.sender */\n      caller\n        /* \"NFT_market_contract.sol\":3331:3351  msg.sender == seller */\n      0xffffffffffffffffffffffffffffffffffffffff\n      and\n      eq\n        /* \"NFT_market_contract.sol\":3323:3390  require(msg.sender == seller, \"Only seller can call this function\") */\n      tag_118\n      jumpi\n      mload(0x40)\n      0x08c379a000000000000000000000000000000000000000000000000000000000\n      dup2\n      mstore\n      0x04\n      add\n      tag_119\n      swap1\n      tag_120\n      jump\t// in\n    tag_119:\n      mload(0x40)\n      dup1\n      swap2\n      sub\n      swap1\n      revert\n    tag_118:\n        /* \"NFT_market_contract.sol\":3401:3428  _cancelSellOrder(sellOrder) */\n      tag_121\n        /* \"NFT_market_contract.sol\":3418:3427  sellOrder */\n      dup2\n        /* \"NFT_market_contract.sol\":3401:3417  _cancelSellOrder */\n      tag_68\n        /* \"NFT_market_contract.sol\":3401:3428  _cancelSellOrder(sellOrder) */\n      jump\t// in\n    tag_121:\n        /* \"NFT_market_contract.sol\":3091:3436  {... */\n      pop\n        /* \"NFT_market_contract.sol\":2752:3436  function CancelSellOrder(... */\n      pop\n      pop\n      pop\n      pop\n      pop\n      pop\n      pop\n      jump\t// out\n        /* \"NFT_market_contract.sol\":1839:2030  function updateFeeRate(uint256 newFeeRate) public onlyOwner {... */\n    tag_27:\n        /* \"NFT_market_contract.sol\":1734:1739  owner */\n      0x03\n      0x00\n      swap1\n      sload\n      swap1\n      0x0100\n      exp\n      swap1\n      div\n      0xffffffffffffffffffffffffffffffffffffffff\n      and\n        /* \"NFT_market_contract.sol\":1720:1739  msg.sender == owner */\n      0xffffffffffffffffffffffffffffffffffffffff\n      and\n        /* \"NFT_market_contract.sol\":1720:1730  msg.sender */\n      caller\n        /* \"NFT_market_contract.sol\":1720:1739  msg.sender == owner */\n      0xffffffffffffffffffffffffffffffffffffffff\n      and\n      eq\n        /* \"NFT_market_contract.sol\":1712:1777  require(msg.sender == owner, \"Only owner can call this function\") */\n      tag_123\n      jumpi\n      mload(0x40)\n      0x08c379a000000000000000000000000000000000000000000000000000000000\n      dup2\n      mstore\n      0x04\n      add\n      tag_124\n      swap1\n      tag_46\n      jump\t// in\n    tag_124:\n      mload(0x40)\n      dup1\n      swap2\n      sub\n      swap1\n      revert\n    tag_123:\n        /* \"NFT_market_contract.sol\":1910:1928  uint256 oldFeeRate */\n      0x00\n        /* \"NFT_market_contract.sol\":1931:1938  feeRate */\n      sload(0x02)\n        /* \"NFT_market_contract.sol\":1910:1938  uint256 oldFeeRate = feeRate */\n      swap1\n      pop\n        /* \"NFT_market_contract.sol\":1959:1969  newFeeRate */\n      dup2\n        /* \"NFT_market_contract.sol\":1949:1956  feeRate */\n      0x02\n        /* \"NFT_market_contract.sol\":1949:1969  feeRate = newFeeRate */\n      dup2\n      swap1\n      sstore\n      pop\n        /* \"NFT_market_contract.sol\":1985:2022  UpdateFeeRate(oldFeeRate, newFeeRate) */\n      0x8d10d6dd6545b059182e4bf9534308bf75d7de65cdd8a68c12b7b74f139e58ae\n        /* \"NFT_market_contract.sol\":1999:2009  oldFeeRate */\n      dup2\n        /* \"NFT_market_contract.sol\":2011:2021  newFeeRate */\n      dup4\n        /* \"NFT_market_contract.sol\":1985:2022  UpdateFeeRate(oldFeeRate, newFeeRate) */\n      mload(0x40)\n      tag_126\n      swap3\n      swap2\n      swap1\n      tag_127\n      jump\t// in\n    tag_126:\n      mload(0x40)\n      dup1\n      swap2\n      sub\n      swap1\n      log1\n        /* \"NFT_market_contract.sol\":1899:2030  {... */\n      pop\n        /* \"NFT_market_contract.sol\":1839:2030  function updateFeeRate(uint256 newFeeRate) public onlyOwner {... */\n      pop\n      jump\t// out\n        /* \"NFT_market_contract.sol\":2058:2143  function getFeeRate() public view returns (uint256) {... */\n    tag_30:\n        /* \"NFT_market_contract.sol\":2101:2108  uint256 */\n      0x00\n        /* \"NFT_market_contract.sol\":2128:2135  feeRate */\n      sload(0x02)\n        /* \"NFT_market_contract.sol\":2121:2135  return feeRate */\n      swap1\n      pop\n        /* \"NFT_market_contract.sol\":2058:2143  function getFeeRate() public view returns (uint256) {... */\n      swap1\n      jump\t// out\n        /* \"NFT_market_contract.sol\":1209:1672  function createProxyWallet() public {... */\n    tag_35:\n        /* \"NFT_market_contract.sol\":1368:1369  0 */\n      0x00\n        /* \"NFT_market_contract.sol\":1327:1370  userToProxyWallet[msg.sender] == address(0) */\n      0xffffffffffffffffffffffffffffffffffffffff\n      and\n        /* \"NFT_market_contract.sol\":1327:1344  userToProxyWallet */\n      0x04\n        /* \"NFT_market_contract.sol\":1327:1356  userToProxyWallet[msg.sender] */\n      0x00\n        /* \"NFT_market_contract.sol\":1345:1355  msg.sender */\n      caller\n        /* \"NFT_market_contract.sol\":1327:1356  userToProxyWallet[msg.sender] */\n      0xffffffffffffffffffffffffffffffffffffffff\n      and\n      0xffffffffffffffffffffffffffffffffffffffff\n      and\n      dup2\n      mstore\n      0x20\n      add\n      swap1\n      dup2\n      mstore\n      0x20\n      add\n      0x00\n      keccak256\n      0x00\n      swap1\n      sload\n      swap1\n      0x0100\n      exp\n      swap1\n      div\n      0xffffffffffffffffffffffffffffffffffffffff\n      and\n        /* \"NFT_market_contract.sol\":1327:1370  userToProxyWallet[msg.sender] == address(0) */\n      0xffffffffffffffffffffffffffffffffffffffff\n      and\n      eq\n        /* \"NFT_market_contract.sol\":1305:1425  require(... */\n      tag_130\n      jumpi\n      mload(0x40)\n      0x08c379a000000000000000000000000000000000000000000000000000000000\n      dup2\n      mstore\n      0x04\n      add\n      tag_131\n      swap1\n      tag_132\n      jump\t// in\n    tag_131:\n      mload(0x40)\n      dup1\n      swap2\n      sub\n      swap1\n      revert\n    tag_130:\n        /* \"NFT_market_contract.sol\":1521:1531  msg.sender */\n      caller\n        /* \"NFT_market_contract.sol\":1505:1532  new ProxyWallet(msg.sender) */\n      mload(0x40)\n      tag_133\n      swap1\n      tag_134\n      jump\t// in\n    tag_133:\n      tag_135\n      swap2\n      swap1\n      tag_42\n      jump\t// in\n    tag_135:\n      mload(0x40)\n      dup1\n      swap2\n      sub\n      swap1\n      0x00\n      create\n      dup1\n      iszero\n      dup1\n      iszero\n      tag_136\n      jumpi\n      returndatasize\n      0x00\n      dup1\n      returndatacopy\n      revert(0x00, returndatasize)\n    tag_136:\n      pop\n        /* \"NFT_market_contract.sol\":1475:1494  proxyWalletContract */\n      0x00\n      dup1\n        /* \"NFT_market_contract.sol\":1475:1533  proxyWalletContract = address(new ProxyWallet(msg.sender)) */\n      0x0100\n      exp\n      dup2\n      sload\n      dup2\n      0xffffffffffffffffffffffffffffffffffffffff\n      mul\n      not\n      and\n      swap1\n      dup4\n      0xffffffffffffffffffffffffffffffffffffffff\n      and\n      mul\n      or\n      swap1\n      sstore\n      pop\n        /* \"NFT_market_contract.sol\":1645:1664  proxyWalletContract */\n      0x00\n      dup1\n      sload\n      swap1\n      0x0100\n      exp\n      swap1\n      div\n      0xffffffffffffffffffffffffffffffffffffffff\n      and\n        /* \"NFT_market_contract.sol\":1613:1630  userToProxyWallet */\n      0x04\n        /* \"NFT_market_contract.sol\":1613:1642  userToProxyWallet[msg.sender] */\n      0x00\n        /* \"NFT_market_contract.sol\":1631:1641  msg.sender */\n      caller\n        /* \"NFT_market_contract.sol\":1613:1642  userToProxyWallet[msg.sender] */\n      0xffffffffffffffffffffffffffffffffffffffff\n      and\n      0xffffffffffffffffffffffffffffffffffffffff\n      and\n      dup2\n      mstore\n      0x20\n      add\n      swap1\n      dup2\n      mstore\n      0x20\n      add\n      0x00\n      keccak256\n      0x00\n        /* \"NFT_market_contract.sol\":1613:1664  userToProxyWallet[msg.sender] = proxyWalletContract */\n      0x0100\n      exp\n      dup2\n      sload\n      dup2\n      0xffffffffffffffffffffffffffffffffffffffff\n      mul\n      not\n      and\n      swap1\n      dup4\n      0xffffffffffffffffffffffffffffffffffffffff\n      and\n      mul\n      or\n      swap1\n      sstore\n      pop\n        /* \"NFT_market_contract.sol\":1209:1672  function createProxyWallet() public {... */\n      jump\t// out\n        /* \"NFT_market_contract.sol\":2341:2645  function getProxyWallet(address user) public returns (address) {... */\n    tag_40:\n        /* \"NFT_market_contract.sol\":2395:2402  address */\n      0x00\n        /* \"NFT_market_contract.sol\":2454:2455  0 */\n      dup1\n        /* \"NFT_market_contract.sol\":2419:2456  userToProxyWallet[user] == address(0) */\n      0xffffffffffffffffffffffffffffffffffffffff\n      and\n        /* \"NFT_market_contract.sol\":2419:2436  userToProxyWallet */\n      0x04\n        /* \"NFT_market_contract.sol\":2419:2442  userToProxyWallet[user] */\n      0x00\n        /* \"NFT_market_contract.sol\":2437:2441  user */\n      dup5\n        /* \"NFT_market_contract.sol\":2419:2442  userToProxyWallet[user] */\n      0xffffffffffffffffffffffffffffffffffffffff\n      and\n      0xffffffffffffffffffffffffffffffffffffffff\n      and\n      dup2\n      mstore\n      0x20\n      add\n      swap1\n      dup2\n      mstore\n      0x20\n      add\n      0x00\n      keccak256\n      0x00\n      swap1\n      sload\n      swap1\n      0x0100\n      exp\n      swap1\n      div\n      0xffffffffffffffffffffffffffffffffffffffff\n      and\n        /* \"NFT_market_contract.sol\":2419:2456  userToProxyWallet[user] == address(0) */\n      0xffffffffffffffffffffffffffffffffffffffff\n      and\n      sub\n        /* \"NFT_market_contract.sol\":2415:2597  if (userToProxyWallet[user] == address(0)) {... */\n      tag_138\n      jumpi\n        /* \"NFT_market_contract.sol\":2519:2523  user */\n      dup2\n        /* \"NFT_market_contract.sol\":2503:2524  new ProxyWallet(user) */\n      mload(0x40)\n      tag_139\n      swap1\n      tag_134\n      jump\t// in\n    tag_139:\n      tag_140\n      swap2\n      swap1\n      tag_42\n      jump\t// in\n    tag_140:\n      mload(0x40)\n      dup1\n      swap2\n      sub\n      swap1\n      0x00\n      create\n      dup1\n      iszero\n      dup1\n      iszero\n      tag_141\n      jumpi\n      returndatasize\n      0x00\n      dup1\n      returndatacopy\n      revert(0x00, returndatasize)\n    tag_141:\n      pop\n        /* \"NFT_market_contract.sol\":2473:2492  proxyWalletContract */\n      0x00\n      dup1\n        /* \"NFT_market_contract.sol\":2473:2525  proxyWalletContract = address(new ProxyWallet(user)) */\n      0x0100\n      exp\n      dup2\n      sload\n      dup2\n      0xffffffffffffffffffffffffffffffffffffffff\n      mul\n      not\n      and\n      swap1\n      dup4\n      0xffffffffffffffffffffffffffffffffffffffff\n      and\n      mul\n      or\n      swap1\n      sstore\n      pop\n        /* \"NFT_market_contract.sol\":2566:2585  proxyWalletContract */\n      0x00\n      dup1\n      sload\n      swap1\n      0x0100\n      exp\n      swap1\n      div\n      0xffffffffffffffffffffffffffffffffffffffff\n      and\n        /* \"NFT_market_contract.sol\":2540:2557  userToProxyWallet */\n      0x04\n        /* \"NFT_market_contract.sol\":2540:2563  userToProxyWallet[user] */\n      0x00\n        /* \"NFT_market_contract.sol\":2558:2562  user */\n      dup5\n        /* \"NFT_market_contract.sol\":2540:2563  userToProxyWallet[user] */\n      0xffffffffffffffffffffffffffffffffffffffff\n      and\n      0xffffffffffffffffffffffffffffffffffffffff\n      and\n      dup2\n      mstore\n      0x20\n      add\n      swap1\n      dup2\n      mstore\n      0x20\n      add\n      0x00\n      keccak256\n      0x00\n        /* \"NFT_market_contract.sol\":2540:2585  userToProxyWallet[user] = proxyWalletContract */\n      0x0100\n      exp\n      dup2\n      sload\n      dup2\n      0xffffffffffffffffffffffffffffffffffffffff\n      mul\n      not\n      and\n      swap1\n      dup4\n      0xffffffffffffffffffffffffffffffffffffffff\n      and\n      mul\n      or\n      swap1\n      sstore\n      pop\n        /* \"NFT_market_contract.sol\":2415:2597  if (userToProxyWallet[user] == address(0)) {... */\n    tag_138:\n        /* \"NFT_market_contract.sol\":2614:2631  userToProxyWallet */\n      0x04\n        /* \"NFT_market_contract.sol\":2614:2637  userToProxyWallet[user] */\n      0x00\n        /* \"NFT_market_contract.sol\":2632:2636  user */\n      dup4\n        /* \"NFT_market_contract.sol\":2614:2637  userToProxyWallet[user] */\n      0xffffffffffffffffffffffffffffffffffffffff\n      and\n      0xffffffffffffffffffffffffffffffffffffffff\n      and\n      dup2\n      mstore\n      0x20\n      add\n      swap1\n      dup2\n      mstore\n      0x20\n      add\n      0x00\n      keccak256\n      0x00\n      swap1\n      sload\n      swap1\n      0x0100\n      exp\n      swap1\n      div\n      0xffffffffffffffffffffffffffffffffffffffff\n      and\n        /* \"NFT_market_contract.sol\":2607:2637  return userToProxyWallet[user] */\n      swap1\n      pop\n        /* \"NFT_market_contract.sol\":2341:2645  function getProxyWallet(address user) public returns (address) {... */\n      swap2\n      swap1\n      pop\n      jump\t// out\n        /* \"@openzeppelin/contracts/utils/math/SafeMath.sol\":3465:3561  function mul(uint256 a, uint256 b) internal pure returns (uint256) {... */\n    tag_51:\n        /* \"@openzeppelin/contracts/utils/math/SafeMath.sol\":3523:3530  uint256 */\n      0x00\n        /* \"@openzeppelin/contracts/utils/math/SafeMath.sol\":3553:3554  b */\n      dup2\n        /* \"@openzeppelin/contracts/utils/math/SafeMath.sol\":3549:3550  a */\n      dup4\n        /* \"@openzeppelin/contracts/utils/math/SafeMath.sol\":3549:3554  a * b */\n      tag_143\n      swap2\n      swap1\n      tag_144\n      jump\t// in\n    tag_143:\n        /* \"@openzeppelin/contracts/utils/math/SafeMath.sol\":3542:3554  return a * b */\n      swap1\n      pop\n        /* \"@openzeppelin/contracts/utils/math/SafeMath.sol\":3465:3561  function mul(uint256 a, uint256 b) internal pure returns (uint256) {... */\n      swap3\n      swap2\n      pop\n      pop\n      jump\t// out\n        /* \"@openzeppelin/contracts/utils/math/SafeMath.sol\":3850:3946  function div(uint256 a, uint256 b) internal pure returns (uint256) {... */\n    tag_52:\n        /* \"@openzeppelin/contracts/utils/math/SafeMath.sol\":3908:3915  uint256 */\n      0x00\n        /* \"@openzeppelin/contracts/utils/math/SafeMath.sol\":3938:3939  b */\n      dup2\n        /* \"@openzeppelin/contracts/utils/math/SafeMath.sol\":3934:3935  a */\n      dup4\n        /* \"@openzeppelin/contracts/utils/math/SafeMath.sol\":3934:3939  a / b */\n      tag_146\n      swap2\n      swap1\n      tag_147\n      jump\t// in\n    tag_146:\n        /* \"@openzeppelin/contracts/utils/math/SafeMath.sol\":3927:3939  return a / b */\n      swap1\n      pop\n        /* \"@openzeppelin/contracts/utils/math/SafeMath.sol\":3850:3946  function div(uint256 a, uint256 b) internal pure returns (uint256) {... */\n      swap3\n      swap2\n      pop\n      pop\n      jump\t// out\n        /* \"NFT_market_contract.sol\":3464:4350  function _cancelSellOrder(SellOrder memory sellOrder) internal {... */\n    tag_68:\n        /* \"NFT_market_contract.sol\":3539:3552  bool success1 */\n      0x00\n        /* \"NFT_market_contract.sol\":3554:3571  bytes memory data */\n      dup1\n        /* \"NFT_market_contract.sol\":3575:3592  userToProxyWallet */\n      0x04\n        /* \"NFT_market_contract.sol\":3575:3610  userToProxyWallet[sellOrder.seller] */\n      0x00\n        /* \"NFT_market_contract.sol\":3593:3602  sellOrder */\n      dup5\n        /* \"NFT_market_contract.sol\":3593:3609  sellOrder.seller */\n      0x00\n      add\n      mload\n        /* \"NFT_market_contract.sol\":3575:3610  userToProxyWallet[sellOrder.seller] */\n      0xffffffffffffffffffffffffffffffffffffffff\n      and\n      0xffffffffffffffffffffffffffffffffffffffff\n      and\n      dup2\n      mstore\n      0x20\n      add\n      swap1\n      dup2\n      mstore\n      0x20\n      add\n      0x00\n      keccak256\n      0x00\n      swap1\n      sload\n      swap1\n      0x0100\n      exp\n      swap1\n      div\n      0xffffffffffffffffffffffffffffffffffffffff\n      and\n        /* \"NFT_market_contract.sol\":3575:3629  userToProxyWallet[sellOrder.seller]... */\n      0xffffffffffffffffffffffffffffffffffffffff\n      and\n        /* \"NFT_market_contract.sol\":3787:3796  sellOrder */\n      dup4\n        /* \"NFT_market_contract.sol\":3648:3815  abi.encodeWithSignature(... */\n      add(0x24, mload(0x40))\n      tag_149\n      swap2\n      swap1\n      tag_150\n      jump\t// in\n    tag_149:\n      mload(0x40)\n      0x20\n      dup2\n      dup4\n      sub\n      sub\n      dup2\n      mstore\n      swap1\n      0x40\n      mstore\n      and(not(0xffffffffffffffffffffffffffffffffffffffffffffffffffffffff), 0x9b3f3f1a00000000000000000000000000000000000000000000000000000000)\n      0x20\n      dup3\n      add\n      dup1\n      mload\n      0xffffffffffffffffffffffffffffffffffffffffffffffffffffffff\n      dup4\n      dup2\n      dup4\n      and\n      or\n      dup4\n      mstore\n      pop\n      pop\n      pop\n      pop\n        /* \"NFT_market_contract.sol\":3575:3830  userToProxyWallet[sellOrder.seller]... */\n      mload(0x40)\n      tag_151\n      swap2\n      swap1\n      tag_74\n      jump\t// in\n    tag_151:\n      0x00\n      mload(0x40)\n      dup1\n      dup4\n      sub\n      dup2\n      0x00\n      dup7\n      gas\n      call\n      swap2\n      pop\n      pop\n      returndatasize\n      dup1\n      0x00\n      dup2\n      eq\n      tag_154\n      jumpi\n      mload(0x40)\n      swap2\n      pop\n      and(add(returndatasize, 0x3f), not(0x1f))\n      dup3\n      add\n      0x40\n      mstore\n      returndatasize\n      dup3\n      mstore\n      returndatasize\n      0x00\n      0x20\n      dup5\n      add\n      returndatacopy\n      jump(tag_153)\n    tag_154:\n      0x60\n      swap2\n      pop\n    tag_153:\n      pop\n        /* \"NFT_market_contract.sol\":3538:3830  (bool success1, bytes memory data) = userToProxyWallet[sellOrder.seller]... */\n      swap2\n      pop\n      swap2\n      pop\n        /* \"NFT_market_contract.sol\":3845:3857  bytes32 Hash */\n      0x00\n        /* \"NFT_market_contract.sol\":3919:3928  sellOrder */\n      dup4\n        /* \"NFT_market_contract.sol\":3919:3935  sellOrder.seller */\n      0x00\n      add\n      mload\n        /* \"NFT_market_contract.sol\":3954:3963  sellOrder */\n      dup5\n        /* \"NFT_market_contract.sol\":3954:3974  sellOrder.contractID */\n      0x20\n      add\n      mload\n        /* \"NFT_market_contract.sol\":3993:4002  sellOrder */\n      dup6\n        /* \"NFT_market_contract.sol\":3993:4010  sellOrder.tokenID */\n      0x40\n      add\n      mload\n        /* \"NFT_market_contract.sol\":4029:4038  sellOrder */\n      dup7\n        /* \"NFT_market_contract.sol\":4029:4044  sellOrder.price */\n      0x60\n      add\n      mload\n        /* \"NFT_market_contract.sol\":4063:4072  sellOrder */\n      dup8\n        /* \"NFT_market_contract.sol\":4063:4087  sellOrder.expirationTime */\n      0xa0\n      add\n      mload\n        /* \"NFT_market_contract.sol\":4106:4115  sellOrder */\n      dup9\n        /* \"NFT_market_contract.sol\":4106:4121  sellOrder.nonce */\n      0xc0\n      add\n      mload\n        /* \"NFT_market_contract.sol\":3884:4136  abi.encodePacked(... */\n      add(0x20, mload(0x40))\n      tag_155\n      swap7\n      swap6\n      swap5\n      swap4\n      swap3\n      swap2\n      swap1\n      tag_65\n      jump\t// in\n    tag_155:\n      mload(0x40)\n      0x20\n      dup2\n      dup4\n      sub\n      sub\n      dup2\n      mstore\n      swap1\n      0x40\n      mstore\n        /* \"NFT_market_contract.sol\":3860:4147  keccak256(... */\n      dup1\n      mload\n      swap1\n      0x20\n      add\n      keccak256\n        /* \"NFT_market_contract.sol\":3845:4147  bytes32 Hash = keccak256(... */\n      swap1\n      pop\n        /* \"NFT_market_contract.sol\":4251:4260  sellOrder */\n      dup4\n        /* \"NFT_market_contract.sol\":4251:4271  sellOrder.contractID */\n      0x20\n      add\n      mload\n        /* \"NFT_market_contract.sol\":4187:4342  SellOrderCancelled(... */\n      0xffffffffffffffffffffffffffffffffffffffff\n      and\n        /* \"NFT_market_contract.sol\":4220:4229  sellOrder */\n      dup5\n        /* \"NFT_market_contract.sol\":4220:4236  sellOrder.seller */\n      0x00\n      add\n      mload\n        /* \"NFT_market_contract.sol\":4187:4342  SellOrderCancelled(... */\n      0xffffffffffffffffffffffffffffffffffffffff\n      and\n      0x9b3260990101a9c5eb670b44ba2f4ec1048ddaf533a012abff3841ef15307fec\n        /* \"NFT_market_contract.sol\":4286:4290  Hash */\n      dup4\n        /* \"NFT_market_contract.sol\":4314:4323  sellOrder */\n      dup8\n        /* \"NFT_market_contract.sol\":4314:4331  sellOrder.tokenID */\n      0x40\n      add\n      mload\n        /* \"NFT_market_contract.sol\":4187:4342  SellOrderCancelled(... */\n      mload(0x40)\n      tag_156\n      swap3\n      swap2\n      swap1\n      tag_70\n      jump\t// in\n    tag_156:\n      mload(0x40)\n      dup1\n      swap2\n      sub\n      swap1\n      log3\n        /* \"NFT_market_contract.sol\":3527:4350  {... */\n      pop\n      pop\n      pop\n        /* \"NFT_market_contract.sol\":3464:4350  function _cancelSellOrder(SellOrder memory sellOrder) internal {... */\n      pop\n      jump\t// out\n    tag_134:\n      dataSize(sub_0)\n      dup1\n      dataOffset(sub_0)\n      dup4\n      codecopy\n      add\n      swap1\n      jump\t// out\n        /* \"#utility.yul\":7:82   */\n    tag_157:\n        /* \"#utility.yul\":40:46   */\n      0x00\n        /* \"#utility.yul\":73:75   */\n      0x40\n        /* \"#utility.yul\":67:76   */\n      mload\n        /* \"#utility.yul\":57:76   */\n      swap1\n      pop\n        /* \"#utility.yul\":7:82   */\n      swap1\n      jump\t// out\n        /* \"#utility.yul\":88:205   */\n    tag_158:\n        /* \"#utility.yul\":197:198   */\n      0x00\n        /* \"#utility.yul\":194:195   */\n      dup1\n        /* \"#utility.yul\":187:199   */\n      revert\n        /* \"#utility.yul\":211:328   */\n    tag_159:\n        /* \"#utility.yul\":320:321   */\n      0x00\n        /* \"#utility.yul\":317:318   */\n      dup1\n        /* \"#utility.yul\":310:322   */\n      revert\n        /* \"#utility.yul\":334:460   */\n    tag_160:\n        /* \"#utility.yul\":371:378   */\n      0x00\n        /* \"#utility.yul\":411:453   */\n      0xffffffffffffffffffffffffffffffffffffffff\n        /* \"#utility.yul\":404:409   */\n      dup3\n        /* \"#utility.yul\":400:454   */\n      and\n        /* \"#utility.yul\":389:454   */\n      swap1\n      pop\n        /* \"#utility.yul\":334:460   */\n      swap2\n      swap1\n      pop\n      jump\t// out\n        /* \"#utility.yul\":466:570   */\n    tag_161:\n        /* \"#utility.yul\":511:518   */\n      0x00\n        /* \"#utility.yul\":540:564   */\n      tag_228\n        /* \"#utility.yul\":558:563   */\n      dup3\n        /* \"#utility.yul\":540:564   */\n      tag_160\n      jump\t// in\n    tag_228:\n        /* \"#utility.yul\":529:564   */\n      swap1\n      pop\n        /* \"#utility.yul\":466:570   */\n      swap2\n      swap1\n      pop\n      jump\t// out\n        /* \"#utility.yul\":576:714   */\n    tag_162:\n        /* \"#utility.yul\":657:689   */\n      tag_230\n        /* \"#utility.yul\":683:688   */\n      dup2\n        /* \"#utility.yul\":657:689   */\n      tag_161\n      jump\t// in\n    tag_230:\n        /* \"#utility.yul\":650:655   */\n      dup2\n        /* \"#utility.yul\":647:690   */\n      eq\n        /* \"#utility.yul\":637:708   */\n      tag_231\n      jumpi\n        /* \"#utility.yul\":704:705   */\n      0x00\n        /* \"#utility.yul\":701:702   */\n      dup1\n        /* \"#utility.yul\":694:706   */\n      revert\n        /* \"#utility.yul\":637:708   */\n    tag_231:\n        /* \"#utility.yul\":576:714   */\n      pop\n      jump\t// out\n        /* \"#utility.yul\":720:875   */\n    tag_163:\n        /* \"#utility.yul\":774:779   */\n      0x00\n        /* \"#utility.yul\":812:818   */\n      dup2\n        /* \"#utility.yul\":799:819   */\n      calldataload\n        /* \"#utility.yul\":790:819   */\n      swap1\n      pop\n        /* \"#utility.yul\":828:869   */\n      tag_233\n        /* \"#utility.yul\":863:868   */\n      dup2\n        /* \"#utility.yul\":828:869   */\n      tag_162\n      jump\t// in\n    tag_233:\n        /* \"#utility.yul\":720:875   */\n      swap3\n      swap2\n      pop\n      pop\n      jump\t// out\n        /* \"#utility.yul\":881:1226   */\n    tag_13:\n        /* \"#utility.yul\":948:954   */\n      0x00\n        /* \"#utility.yul\":997:999   */\n      0x20\n        /* \"#utility.yul\":985:994   */\n      dup3\n        /* \"#utility.yul\":976:983   */\n      dup5\n        /* \"#utility.yul\":972:995   */\n      sub\n        /* \"#utility.yul\":968:1000   */\n      slt\n        /* \"#utility.yul\":965:1084   */\n      iszero\n      tag_235\n      jumpi\n        /* \"#utility.yul\":1003:1082   */\n      tag_236\n      tag_158\n      jump\t// in\n    tag_236:\n        /* \"#utility.yul\":965:1084   */\n    tag_235:\n        /* \"#utility.yul\":1123:1124   */\n      0x00\n        /* \"#utility.yul\":1148:1209   */\n      tag_237\n        /* \"#utility.yul\":1201:1208   */\n      dup5\n        /* \"#utility.yul\":1192:1198   */\n      dup3\n        /* \"#utility.yul\":1181:1190   */\n      dup6\n        /* \"#utility.yul\":1177:1199   */\n      add\n        /* \"#utility.yul\":1148:1209   */\n      tag_163\n      jump\t// in\n    tag_237:\n        /* \"#utility.yul\":1138:1209   */\n      swap2\n      pop\n        /* \"#utility.yul\":1094:1219   */\n      pop\n        /* \"#utility.yul\":881:1226   */\n      swap3\n      swap2\n      pop\n      pop\n      jump\t// out\n        /* \"#utility.yul\":1232:1328   */\n    tag_164:\n        /* \"#utility.yul\":1269:1276   */\n      0x00\n        /* \"#utility.yul\":1298:1322   */\n      tag_239\n        /* \"#utility.yul\":1316:1321   */\n      dup3\n        /* \"#utility.yul\":1298:1322   */\n      tag_160\n      jump\t// in\n    tag_239:\n        /* \"#utility.yul\":1287:1322   */\n      swap1\n      pop\n        /* \"#utility.yul\":1232:1328   */\n      swap2\n      swap1\n      pop\n      jump\t// out\n        /* \"#utility.yul\":1334:1456   */\n    tag_165:\n        /* \"#utility.yul\":1407:1431   */\n      tag_241\n        /* \"#utility.yul\":1425:1430   */\n      dup2\n        /* \"#utility.yul\":1407:1431   */\n      tag_164\n      jump\t// in\n    tag_241:\n        /* \"#utility.yul\":1400:1405   */\n      dup2\n        /* \"#utility.yul\":1397:1432   */\n      eq\n        /* \"#utility.yul\":1387:1450   */\n      tag_242\n      jumpi\n        /* \"#utility.yul\":1446:1447   */\n      0x00\n        /* \"#utility.yul\":1443:1444   */\n      dup1\n        /* \"#utility.yul\":1436:1448   */\n      revert\n        /* \"#utility.yul\":1387:1450   */\n    tag_242:\n        /* \"#utility.yul\":1334:1456   */\n      pop\n      jump\t// out\n        /* \"#utility.yul\":1462:1601   */\n    tag_166:\n        /* \"#utility.yul\":1508:1513   */\n      0x00\n        /* \"#utility.yul\":1546:1552   */\n      dup2\n        /* \"#utility.yul\":1533:1553   */\n      calldataload\n        /* \"#utility.yul\":1524:1553   */\n      swap1\n      pop\n        /* \"#utility.yul\":1562:1595   */\n      tag_244\n        /* \"#utility.yul\":1589:1594   */\n      dup2\n        /* \"#utility.yul\":1562:1595   */\n      tag_165\n      jump\t// in\n    tag_244:\n        /* \"#utility.yul\":1462:1601   */\n      swap3\n      swap2\n      pop\n      pop\n      jump\t// out\n        /* \"#utility.yul\":1607:1684   */\n    tag_167:\n        /* \"#utility.yul\":1644:1651   */\n      0x00\n        /* \"#utility.yul\":1673:1678   */\n      dup2\n        /* \"#utility.yul\":1662:1678   */\n      swap1\n      pop\n        /* \"#utility.yul\":1607:1684   */\n      swap2\n      swap1\n      pop\n      jump\t// out\n        /* \"#utility.yul\":1690:1812   */\n    tag_168:\n        /* \"#utility.yul\":1763:1787   */\n      tag_247\n        /* \"#utility.yul\":1781:1786   */\n      dup2\n        /* \"#utility.yul\":1763:1787   */\n      tag_167\n      jump\t// in\n    tag_247:\n        /* \"#utility.yul\":1756:1761   */\n      dup2\n        /* \"#utility.yul\":1753:1788   */\n      eq\n        /* \"#utility.yul\":1743:1806   */\n      tag_248\n      jumpi\n        /* \"#utility.yul\":1802:1803   */\n      0x00\n        /* \"#utility.yul\":1799:1800   */\n      dup1\n        /* \"#utility.yul\":1792:1804   */\n      revert\n        /* \"#utility.yul\":1743:1806   */\n    tag_248:\n        /* \"#utility.yul\":1690:1812   */\n      pop\n      jump\t// out\n        /* \"#utility.yul\":1818:1957   */\n    tag_169:\n        /* \"#utility.yul\":1864:1869   */\n      0x00\n        /* \"#utility.yul\":1902:1908   */\n      dup2\n        /* \"#utility.yul\":1889:1909   */\n      calldataload\n        /* \"#utility.yul\":1880:1909   */\n      swap1\n      pop\n        /* \"#utility.yul\":1918:1951   */\n      tag_250\n        /* \"#utility.yul\":1945:1950   */\n      dup2\n        /* \"#utility.yul\":1918:1951   */\n      tag_168\n      jump\t// in\n    tag_250:\n        /* \"#utility.yul\":1818:1957   */\n      swap3\n      swap2\n      pop\n      pop\n      jump\t// out\n        /* \"#utility.yul\":1963:2080   */\n    tag_170:\n        /* \"#utility.yul\":2072:2073   */\n      0x00\n        /* \"#utility.yul\":2069:2070   */\n      dup1\n        /* \"#utility.yul\":2062:2074   */\n      revert\n        /* \"#utility.yul\":2086:2203   */\n    tag_171:\n        /* \"#utility.yul\":2195:2196   */\n      0x00\n        /* \"#utility.yul\":2192:2193   */\n      dup1\n        /* \"#utility.yul\":2185:2197   */\n      revert\n        /* \"#utility.yul\":2209:2311   */\n    tag_172:\n        /* \"#utility.yul\":2250:2256   */\n      0x00\n        /* \"#utility.yul\":2301:2303   */\n      0x1f\n        /* \"#utility.yul\":2297:2304   */\n      not\n        /* \"#utility.yul\":2292:2294   */\n      0x1f\n        /* \"#utility.yul\":2285:2290   */\n      dup4\n        /* \"#utility.yul\":2281:2295   */\n      add\n        /* \"#utility.yul\":2277:2305   */\n      and\n        /* \"#utility.yul\":2267:2305   */\n      swap1\n      pop\n        /* \"#utility.yul\":2209:2311   */\n      swap2\n      swap1\n      pop\n      jump\t// out\n        /* \"#utility.yul\":2317:2497   */\n    tag_173:\n        /* \"#utility.yul\":2365:2442   */\n      0x4e487b7100000000000000000000000000000000000000000000000000000000\n        /* \"#utility.yul\":2362:2363   */\n      0x00\n        /* \"#utility.yul\":2355:2443   */\n      mstore\n        /* \"#utility.yul\":2462:2466   */\n      0x41\n        /* \"#utility.yul\":2459:2460   */\n      0x04\n        /* \"#utility.yul\":2452:2467   */\n      mstore\n        /* \"#utility.yul\":2486:2490   */\n      0x24\n        /* \"#utility.yul\":2483:2484   */\n      0x00\n        /* \"#utility.yul\":2476:2491   */\n      revert\n        /* \"#utility.yul\":2503:2784   */\n    tag_174:\n        /* \"#utility.yul\":2586:2613   */\n      tag_256\n        /* \"#utility.yul\":2608:2612   */\n      dup3\n        /* \"#utility.yul\":2586:2613   */\n      tag_172\n      jump\t// in\n    tag_256:\n        /* \"#utility.yul\":2578:2584   */\n      dup2\n        /* \"#utility.yul\":2574:2614   */\n      add\n        /* \"#utility.yul\":2716:2722   */\n      dup2\n        /* \"#utility.yul\":2704:2714   */\n      dup2\n        /* \"#utility.yul\":2701:2723   */\n      lt\n        /* \"#utility.yul\":2680:2698   */\n      0xffffffffffffffff\n        /* \"#utility.yul\":2668:2678   */\n      dup3\n        /* \"#utility.yul\":2665:2699   */\n      gt\n        /* \"#utility.yul\":2662:2724   */\n      or\n        /* \"#utility.yul\":2659:2747   */\n      iszero\n      tag_257\n      jumpi\n        /* \"#utility.yul\":2727:2745   */\n      tag_258\n      tag_173\n      jump\t// in\n    tag_258:\n        /* \"#utility.yul\":2659:2747   */\n    tag_257:\n        /* \"#utility.yul\":2767:2777   */\n      dup1\n        /* \"#utility.yul\":2763:2765   */\n      0x40\n        /* \"#utility.yul\":2756:2778   */\n      mstore\n        /* \"#utility.yul\":2546:2784   */\n      pop\n        /* \"#utility.yul\":2503:2784   */\n      pop\n      pop\n      jump\t// out\n        /* \"#utility.yul\":2790:2919   */\n    tag_175:\n        /* \"#utility.yul\":2824:2830   */\n      0x00\n        /* \"#utility.yul\":2851:2871   */\n      tag_260\n      tag_157\n      jump\t// in\n    tag_260:\n        /* \"#utility.yul\":2841:2871   */\n      swap1\n      pop\n        /* \"#utility.yul\":2880:2913   */\n      tag_261\n        /* \"#utility.yul\":2908:2912   */\n      dup3\n        /* \"#utility.yul\":2900:2906   */\n      dup3\n        /* \"#utility.yul\":2880:2913   */\n      tag_174\n      jump\t// in\n    tag_261:\n        /* \"#utility.yul\":2790:2919   */\n      swap2\n      swap1\n      pop\n      jump\t// out\n        /* \"#utility.yul\":2925:3232   */\n    tag_176:\n        /* \"#utility.yul\":2986:2990   */\n      0x00\n        /* \"#utility.yul\":3076:3094   */\n      0xffffffffffffffff\n        /* \"#utility.yul\":3068:3074   */\n      dup3\n        /* \"#utility.yul\":3065:3095   */\n      gt\n        /* \"#utility.yul\":3062:3118   */\n      iszero\n      tag_263\n      jumpi\n        /* \"#utility.yul\":3098:3116   */\n      tag_264\n      tag_173\n      jump\t// in\n    tag_264:\n        /* \"#utility.yul\":3062:3118   */\n    tag_263:\n        /* \"#utility.yul\":3136:3165   */\n      tag_265\n        /* \"#utility.yul\":3158:3164   */\n      dup3\n        /* \"#utility.yul\":3136:3165   */\n      tag_172\n      jump\t// in\n    tag_265:\n        /* \"#utility.yul\":3128:3165   */\n      swap1\n      pop\n        /* \"#utility.yul\":3220:3224   */\n      0x20\n        /* \"#utility.yul\":3214:3218   */\n      dup2\n        /* \"#utility.yul\":3210:3225   */\n      add\n        /* \"#utility.yul\":3202:3225   */\n      swap1\n      pop\n        /* \"#utility.yul\":2925:3232   */\n      swap2\n      swap1\n      pop\n      jump\t// out\n        /* \"#utility.yul\":3238:3384   */\n    tag_177:\n        /* \"#utility.yul\":3335:3341   */\n      dup3\n        /* \"#utility.yul\":3330:3333   */\n      dup2\n        /* \"#utility.yul\":3325:3328   */\n      dup4\n        /* \"#utility.yul\":3312:3342   */\n      calldatacopy\n        /* \"#utility.yul\":3376:3377   */\n      0x00\n        /* \"#utility.yul\":3367:3373   */\n      dup4\n        /* \"#utility.yul\":3362:3365   */\n      dup4\n        /* \"#utility.yul\":3358:3374   */\n      add\n        /* \"#utility.yul\":3351:3378   */\n      mstore\n        /* \"#utility.yul\":3238:3384   */\n      pop\n      pop\n      pop\n      jump\t// out\n        /* \"#utility.yul\":3390:3813   */\n    tag_178:\n        /* \"#utility.yul\":3467:3472   */\n      0x00\n        /* \"#utility.yul\":3492:3557   */\n      tag_268\n        /* \"#utility.yul\":3508:3556   */\n      tag_269\n        /* \"#utility.yul\":3549:3555   */\n      dup5\n        /* \"#utility.yul\":3508:3556   */\n      tag_176\n      jump\t// in\n    tag_269:\n        /* \"#utility.yul\":3492:3557   */\n      tag_175\n      jump\t// in\n    tag_268:\n        /* \"#utility.yul\":3483:3557   */\n      swap1\n      pop\n        /* \"#utility.yul\":3580:3586   */\n      dup3\n        /* \"#utility.yul\":3573:3578   */\n      dup2\n        /* \"#utility.yul\":3566:3587   */\n      mstore\n        /* \"#utility.yul\":3618:3622   */\n      0x20\n        /* \"#utility.yul\":3611:3616   */\n      dup2\n        /* \"#utility.yul\":3607:3623   */\n      add\n        /* \"#utility.yul\":3656:3659   */\n      dup5\n        /* \"#utility.yul\":3647:3653   */\n      dup5\n        /* \"#utility.yul\":3642:3645   */\n      dup5\n        /* \"#utility.yul\":3638:3654   */\n      add\n        /* \"#utility.yul\":3635:3660   */\n      gt\n        /* \"#utility.yul\":3632:3744   */\n      iszero\n      tag_270\n      jumpi\n        /* \"#utility.yul\":3663:3742   */\n      tag_271\n      tag_171\n      jump\t// in\n    tag_271:\n        /* \"#utility.yul\":3632:3744   */\n    tag_270:\n        /* \"#utility.yul\":3753:3807   */\n      tag_272\n        /* \"#utility.yul\":3800:3806   */\n      dup5\n        /* \"#utility.yul\":3795:3798   */\n      dup3\n        /* \"#utility.yul\":3790:3793   */\n      dup6\n        /* \"#utility.yul\":3753:3807   */\n      tag_177\n      jump\t// in\n    tag_272:\n        /* \"#utility.yul\":3473:3813   */\n      pop\n        /* \"#utility.yul\":3390:3813   */\n      swap4\n      swap3\n      pop\n      pop\n      pop\n      jump\t// out\n        /* \"#utility.yul\":3832:4170   */\n    tag_179:\n        /* \"#utility.yul\":3887:3892   */\n      0x00\n        /* \"#utility.yul\":3936:3939   */\n      dup3\n        /* \"#utility.yul\":3929:3933   */\n      0x1f\n        /* \"#utility.yul\":3921:3927   */\n      dup4\n        /* \"#utility.yul\":3917:3934   */\n      add\n        /* \"#utility.yul\":3913:3940   */\n      slt\n        /* \"#utility.yul\":3903:4025   */\n      tag_274\n      jumpi\n        /* \"#utility.yul\":3944:4023   */\n      tag_275\n      tag_170\n      jump\t// in\n    tag_275:\n        /* \"#utility.yul\":3903:4025   */\n    tag_274:\n        /* \"#utility.yul\":4061:4067   */\n      dup2\n        /* \"#utility.yul\":4048:4068   */\n      calldataload\n        /* \"#utility.yul\":4086:4164   */\n      tag_276\n        /* \"#utility.yul\":4160:4163   */\n      dup5\n        /* \"#utility.yul\":4152:4158   */\n      dup3\n        /* \"#utility.yul\":4145:4149   */\n      0x20\n        /* \"#utility.yul\":4137:4143   */\n      dup7\n        /* \"#utility.yul\":4133:4150   */\n      add\n        /* \"#utility.yul\":4086:4164   */\n      tag_178\n      jump\t// in\n    tag_276:\n        /* \"#utility.yul\":4077:4164   */\n      swap2\n      pop\n        /* \"#utility.yul\":3893:4170   */\n      pop\n        /* \"#utility.yul\":3832:4170   */\n      swap3\n      swap2\n      pop\n      pop\n      jump\t// out\n        /* \"#utility.yul\":4176:5557   */\n    tag_17:\n        /* \"#utility.yul\":4298:4304   */\n      0x00\n        /* \"#utility.yul\":4306:4312   */\n      dup1\n        /* \"#utility.yul\":4314:4320   */\n      0x00\n        /* \"#utility.yul\":4322:4328   */\n      dup1\n        /* \"#utility.yul\":4330:4336   */\n      0x00\n        /* \"#utility.yul\":4338:4344   */\n      dup1\n        /* \"#utility.yul\":4346:4352   */\n      0x00\n        /* \"#utility.yul\":4395:4398   */\n      0xe0\n        /* \"#utility.yul\":4383:4392   */\n      dup9\n        /* \"#utility.yul\":4374:4381   */\n      dup11\n        /* \"#utility.yul\":4370:4393   */\n      sub\n        /* \"#utility.yul\":4366:4399   */\n      slt\n        /* \"#utility.yul\":4363:4483   */\n      iszero\n      tag_278\n      jumpi\n        /* \"#utility.yul\":4402:4481   */\n      tag_279\n      tag_158\n      jump\t// in\n    tag_279:\n        /* \"#utility.yul\":4363:4483   */\n    tag_278:\n        /* \"#utility.yul\":4522:4523   */\n      0x00\n        /* \"#utility.yul\":4547:4600   */\n      tag_280\n        /* \"#utility.yul\":4592:4599   */\n      dup11\n        /* \"#utility.yul\":4583:4589   */\n      dup3\n        /* \"#utility.yul\":4572:4581   */\n      dup12\n        /* \"#utility.yul\":4568:4590   */\n      add\n        /* \"#utility.yul\":4547:4600   */\n      tag_166\n      jump\t// in\n    tag_280:\n        /* \"#utility.yul\":4537:4600   */\n      swap8\n      pop\n        /* \"#utility.yul\":4493:4610   */\n      pop\n        /* \"#utility.yul\":4649:4651   */\n      0x20\n        /* \"#utility.yul\":4675:4728   */\n      tag_281\n        /* \"#utility.yul\":4720:4727   */\n      dup11\n        /* \"#utility.yul\":4711:4717   */\n      dup3\n        /* \"#utility.yul\":4700:4709   */\n      dup12\n        /* \"#utility.yul\":4696:4718   */\n      add\n        /* \"#utility.yul\":4675:4728   */\n      tag_166\n      jump\t// in\n    tag_281:\n        /* \"#utility.yul\":4665:4728   */\n      swap7\n      pop\n        /* \"#utility.yul\":4620:4738   */\n      pop\n        /* \"#utility.yul\":4777:4779   */\n      0x40\n        /* \"#utility.yul\":4803:4856   */\n      tag_282\n        /* \"#utility.yul\":4848:4855   */\n      dup11\n        /* \"#utility.yul\":4839:4845   */\n      dup3\n        /* \"#utility.yul\":4828:4837   */\n      dup12\n        /* \"#utility.yul\":4824:4846   */\n      add\n        /* \"#utility.yul\":4803:4856   */\n      tag_169\n      jump\t// in\n    tag_282:\n        /* \"#utility.yul\":4793:4856   */\n      swap6\n      pop\n        /* \"#utility.yul\":4748:4866   */\n      pop\n        /* \"#utility.yul\":4905:4907   */\n      0x60\n        /* \"#utility.yul\":4931:4984   */\n      tag_283\n        /* \"#utility.yul\":4976:4983   */\n      dup11\n        /* \"#utility.yul\":4967:4973   */\n      dup3\n        /* \"#utility.yul\":4956:4965   */\n      dup12\n        /* \"#utility.yul\":4952:4974   */\n      add\n        /* \"#utility.yul\":4931:4984   */\n      tag_169\n      jump\t// in\n    tag_283:\n        /* \"#utility.yul\":4921:4984   */\n      swap5\n      pop\n        /* \"#utility.yul\":4876:4994   */\n      pop\n        /* \"#utility.yul\":5061:5064   */\n      0x80\n        /* \"#utility.yul\":5050:5059   */\n      dup9\n        /* \"#utility.yul\":5046:5065   */\n      add\n        /* \"#utility.yul\":5033:5066   */\n      calldataload\n        /* \"#utility.yul\":5093:5111   */\n      0xffffffffffffffff\n        /* \"#utility.yul\":5085:5091   */\n      dup2\n        /* \"#utility.yul\":5082:5112   */\n      gt\n        /* \"#utility.yul\":5079:5196   */\n      iszero\n      tag_284\n      jumpi\n        /* \"#utility.yul\":5115:5194   */\n      tag_285\n      tag_159\n      jump\t// in\n    tag_285:\n        /* \"#utility.yul\":5079:5196   */\n    tag_284:\n        /* \"#utility.yul\":5220:5282   */\n      tag_286\n        /* \"#utility.yul\":5274:5281   */\n      dup11\n        /* \"#utility.yul\":5265:5271   */\n      dup3\n        /* \"#utility.yul\":5254:5263   */\n      dup12\n        /* \"#utility.yul\":5250:5272   */\n      add\n        /* \"#utility.yul\":5220:5282   */\n      tag_179\n      jump\t// in\n    tag_286:\n        /* \"#utility.yul\":5210:5282   */\n      swap4\n      pop\n        /* \"#utility.yul\":5004:5292   */\n      pop\n        /* \"#utility.yul\":5331:5334   */\n      0xa0\n        /* \"#utility.yul\":5358:5411   */\n      tag_287\n        /* \"#utility.yul\":5403:5410   */\n      dup11\n        /* \"#utility.yul\":5394:5400   */\n      dup3\n        /* \"#utility.yul\":5383:5392   */\n      dup12\n        /* \"#utility.yul\":5379:5401   */\n      add\n        /* \"#utility.yul\":5358:5411   */\n      tag_169\n      jump\t// in\n    tag_287:\n        /* \"#utility.yul\":5348:5411   */\n      swap3\n      pop\n        /* \"#utility.yul\":5302:5421   */\n      pop\n        /* \"#utility.yul\":5460:5463   */\n      0xc0\n        /* \"#utility.yul\":5487:5540   */\n      tag_288\n        /* \"#utility.yul\":5532:5539   */\n      dup11\n        /* \"#utility.yul\":5523:5529   */\n      dup3\n        /* \"#utility.yul\":5512:5521   */\n      dup12\n        /* \"#utility.yul\":5508:5530   */\n      add\n        /* \"#utility.yul\":5487:5540   */\n      tag_169\n      jump\t// in\n    tag_288:\n        /* \"#utility.yul\":5477:5540   */\n      swap2\n      pop\n        /* \"#utility.yul\":5431:5550   */\n      pop\n        /* \"#utility.yul\":4176:5557   */\n      swap3\n      swap6\n      swap9\n      swap2\n      swap5\n      swap8\n      pop\n      swap3\n      swap6\n      pop\n      jump\t// out\n        /* \"#utility.yul\":5563:5892   */\n    tag_26:\n        /* \"#utility.yul\":5622:5628   */\n      0x00\n        /* \"#utility.yul\":5671:5673   */\n      0x20\n        /* \"#utility.yul\":5659:5668   */\n      dup3\n        /* \"#utility.yul\":5650:5657   */\n      dup5\n        /* \"#utility.yul\":5646:5669   */\n      sub\n        /* \"#utility.yul\":5642:5674   */\n      slt\n        /* \"#utility.yul\":5639:5758   */\n      iszero\n      tag_290\n      jumpi\n        /* \"#utility.yul\":5677:5756   */\n      tag_291\n      tag_158\n      jump\t// in\n    tag_291:\n        /* \"#utility.yul\":5639:5758   */\n    tag_290:\n        /* \"#utility.yul\":5797:5798   */\n      0x00\n        /* \"#utility.yul\":5822:5875   */\n      tag_292\n        /* \"#utility.yul\":5867:5874   */\n      dup5\n        /* \"#utility.yul\":5858:5864   */\n      dup3\n        /* \"#utility.yul\":5847:5856   */\n      dup6\n        /* \"#utility.yul\":5843:5865   */\n      add\n        /* \"#utility.yul\":5822:5875   */\n      tag_169\n      jump\t// in\n    tag_292:\n        /* \"#utility.yul\":5812:5875   */\n      swap2\n      pop\n        /* \"#utility.yul\":5768:5885   */\n      pop\n        /* \"#utility.yul\":5563:5892   */\n      swap3\n      swap2\n      pop\n      pop\n      jump\t// out\n        /* \"#utility.yul\":5898:6016   */\n    tag_180:\n        /* \"#utility.yul\":5985:6009   */\n      tag_294\n        /* \"#utility.yul\":6003:6008   */\n      dup2\n        /* \"#utility.yul\":5985:6009   */\n      tag_167\n      jump\t// in\n    tag_294:\n        /* \"#utility.yul\":5980:5983   */\n      dup3\n        /* \"#utility.yul\":5973:6010   */\n      mstore\n        /* \"#utility.yul\":5898:6016   */\n      pop\n      pop\n      jump\t// out\n        /* \"#utility.yul\":6022:6244   */\n    tag_32:\n        /* \"#utility.yul\":6115:6119   */\n      0x00\n        /* \"#utility.yul\":6153:6155   */\n      0x20\n        /* \"#utility.yul\":6142:6151   */\n      dup3\n        /* \"#utility.yul\":6138:6156   */\n      add\n        /* \"#utility.yul\":6130:6156   */\n      swap1\n      pop\n        /* \"#utility.yul\":6166:6237   */\n      tag_296\n        /* \"#utility.yul\":6234:6235   */\n      0x00\n        /* \"#utility.yul\":6223:6232   */\n      dup4\n        /* \"#utility.yul\":6219:6236   */\n      add\n        /* \"#utility.yul\":6210:6216   */\n      dup5\n        /* \"#utility.yul\":6166:6237   */\n      tag_180\n      jump\t// in\n    tag_296:\n        /* \"#utility.yul\":6022:6244   */\n      swap3\n      swap2\n      pop\n      pop\n      jump\t// out\n        /* \"#utility.yul\":6250:6579   */\n    tag_39:\n        /* \"#utility.yul\":6309:6315   */\n      0x00\n        /* \"#utility.yul\":6358:6360   */\n      0x20\n        /* \"#utility.yul\":6346:6355   */\n      dup3\n        /* \"#utility.yul\":6337:6344   */\n      dup5\n        /* \"#utility.yul\":6333:6356   */\n      sub\n        /* \"#utility.yul\":6329:6361   */\n      slt\n        /* \"#utility.yul\":6326:6445   */\n      iszero\n      tag_298\n      jumpi\n        /* \"#utility.yul\":6364:6443   */\n      tag_299\n      tag_158\n      jump\t// in\n    tag_299:\n        /* \"#utility.yul\":6326:6445   */\n    tag_298:\n        /* \"#utility.yul\":6484:6485   */\n      0x00\n        /* \"#utility.yul\":6509:6562   */\n      tag_300\n        /* \"#utility.yul\":6554:6561   */\n      dup5\n        /* \"#utility.yul\":6545:6551   */\n      dup3\n        /* \"#utility.yul\":6534:6543   */\n      dup6\n        /* \"#utility.yul\":6530:6552   */\n      add\n        /* \"#utility.yul\":6509:6562   */\n      tag_166\n      jump\t// in\n    tag_300:\n        /* \"#utility.yul\":6499:6562   */\n      swap2\n      pop\n        /* \"#utility.yul\":6455:6572   */\n      pop\n        /* \"#utility.yul\":6250:6579   */\n      swap3\n      swap2\n      pop\n      pop\n      jump\t// out\n        /* \"#utility.yul\":6585:6703   */\n    tag_181:\n        /* \"#utility.yul\":6672:6696   */\n      tag_302\n        /* \"#utility.yul\":6690:6695   */\n      dup2\n        /* \"#utility.yul\":6672:6696   */\n      tag_164\n      jump\t// in\n    tag_302:\n        /* \"#utility.yul\":6667:6670   */\n      dup3\n        /* \"#utility.yul\":6660:6697   */\n      mstore\n        /* \"#utility.yul\":6585:6703   */\n      pop\n      pop\n      jump\t// out\n        /* \"#utility.yul\":6709:6931   */\n    tag_42:\n        /* \"#utility.yul\":6802:6806   */\n      0x00\n        /* \"#utility.yul\":6840:6842   */\n      0x20\n        /* \"#utility.yul\":6829:6838   */\n      dup3\n        /* \"#utility.yul\":6825:6843   */\n      add\n        /* \"#utility.yul\":6817:6843   */\n      swap1\n      pop\n        /* \"#utility.yul\":6853:6924   */\n      tag_304\n        /* \"#utility.yul\":6921:6922   */\n      0x00\n        /* \"#utility.yul\":6910:6919   */\n      dup4\n        /* \"#utility.yul\":6906:6923   */\n      add\n        /* \"#utility.yul\":6897:6903   */\n      dup5\n        /* \"#utility.yul\":6853:6924   */\n      tag_181\n      jump\t// in\n    tag_304:\n        /* \"#utility.yul\":6709:6931   */\n      swap3\n      swap2\n      pop\n      pop\n      jump\t// out\n        /* \"#utility.yul\":6937:7106   */\n    tag_182:\n        /* \"#utility.yul\":7021:7032   */\n      0x00\n        /* \"#utility.yul\":7055:7061   */\n      dup3\n        /* \"#utility.yul\":7050:7053   */\n      dup3\n        /* \"#utility.yul\":7043:7062   */\n      mstore\n        /* \"#utility.yul\":7095:7099   */\n      0x20\n        /* \"#utility.yul\":7090:7093   */\n      dup3\n        /* \"#utility.yul\":7086:7100   */\n      add\n        /* \"#utility.yul\":7071:7100   */\n      swap1\n      pop\n        /* \"#utility.yul\":6937:7106   */\n      swap3\n      swap2\n      pop\n      pop\n      jump\t// out\n        /* \"#utility.yul\":7112:7332   */\n    tag_183:\n        /* \"#utility.yul\":7252:7286   */\n      0x4f6e6c79206f776e65722063616e2063616c6c20746869732066756e6374696f\n        /* \"#utility.yul\":7248:7249   */\n      0x00\n        /* \"#utility.yul\":7240:7246   */\n      dup3\n        /* \"#utility.yul\":7236:7250   */\n      add\n        /* \"#utility.yul\":7229:7287   */\n      mstore\n        /* \"#utility.yul\":7321:7324   */\n      0x6e00000000000000000000000000000000000000000000000000000000000000\n        /* \"#utility.yul\":7316:7318   */\n      0x20\n        /* \"#utility.yul\":7308:7314   */\n      dup3\n        /* \"#utility.yul\":7304:7319   */\n      add\n        /* \"#utility.yul\":7297:7325   */\n      mstore\n        /* \"#utility.yul\":7112:7332   */\n      pop\n      jump\t// out\n        /* \"#utility.yul\":7338:7704   */\n    tag_184:\n        /* \"#utility.yul\":7480:7483   */\n      0x00\n        /* \"#utility.yul\":7501:7568   */\n      tag_308\n        /* \"#utility.yul\":7565:7567   */\n      0x21\n        /* \"#utility.yul\":7560:7563   */\n      dup4\n        /* \"#utility.yul\":7501:7568   */\n      tag_182\n      jump\t// in\n    tag_308:\n        /* \"#utility.yul\":7494:7568   */\n      swap2\n      pop\n        /* \"#utility.yul\":7577:7670   */\n      tag_309\n        /* \"#utility.yul\":7666:7669   */\n      dup3\n        /* \"#utility.yul\":7577:7670   */\n      tag_183\n      jump\t// in\n    tag_309:\n        /* \"#utility.yul\":7695:7697   */\n      0x40\n        /* \"#utility.yul\":7690:7693   */\n      dup3\n        /* \"#utility.yul\":7686:7698   */\n      add\n        /* \"#utility.yul\":7679:7698   */\n      swap1\n      pop\n        /* \"#utility.yul\":7338:7704   */\n      swap2\n      swap1\n      pop\n      jump\t// out\n        /* \"#utility.yul\":7710:8129   */\n    tag_46:\n        /* \"#utility.yul\":7876:7880   */\n      0x00\n        /* \"#utility.yul\":7914:7916   */\n      0x20\n        /* \"#utility.yul\":7903:7912   */\n      dup3\n        /* \"#utility.yul\":7899:7917   */\n      add\n        /* \"#utility.yul\":7891:7917   */\n      swap1\n      pop\n        /* \"#utility.yul\":7963:7972   */\n      dup2\n        /* \"#utility.yul\":7957:7961   */\n      dup2\n        /* \"#utility.yul\":7953:7973   */\n      sub\n        /* \"#utility.yul\":7949:7950   */\n      0x00\n        /* \"#utility.yul\":7938:7947   */\n      dup4\n        /* \"#utility.yul\":7934:7951   */\n      add\n        /* \"#utility.yul\":7927:7974   */\n      mstore\n        /* \"#utility.yul\":7991:8122   */\n      tag_311\n        /* \"#utility.yul\":8117:8121   */\n      dup2\n        /* \"#utility.yul\":7991:8122   */\n      tag_184\n      jump\t// in\n    tag_311:\n        /* \"#utility.yul\":7983:8122   */\n      swap1\n      pop\n        /* \"#utility.yul\":7710:8129   */\n      swap2\n      swap1\n      pop\n      jump\t// out\n        /* \"#utility.yul\":8135:8307   */\n    tag_185:\n        /* \"#utility.yul\":8275:8299   */\n      0x50726f78792077616c6c6574206e6f7420666f756e6400000000000000000000\n        /* \"#utility.yul\":8271:8272   */\n      0x00\n        /* \"#utility.yul\":8263:8269   */\n      dup3\n        /* \"#utility.yul\":8259:8273   */\n      add\n        /* \"#utility.yul\":8252:8300   */\n      mstore\n        /* \"#utility.yul\":8135:8307   */\n      pop\n      jump\t// out\n        /* \"#utility.yul\":8313:8679   */\n    tag_186:\n        /* \"#utility.yul\":8455:8458   */\n      0x00\n        /* \"#utility.yul\":8476:8543   */\n      tag_314\n        /* \"#utility.yul\":8540:8542   */\n      0x16\n        /* \"#utility.yul\":8535:8538   */\n      dup4\n        /* \"#utility.yul\":8476:8543   */\n      tag_182\n      jump\t// in\n    tag_314:\n        /* \"#utility.yul\":8469:8543   */\n      swap2\n      pop\n        /* \"#utility.yul\":8552:8645   */\n      tag_315\n        /* \"#utility.yul\":8641:8644   */\n      dup3\n        /* \"#utility.yul\":8552:8645   */\n      tag_185\n      jump\t// in\n    tag_315:\n        /* \"#utility.yul\":8670:8672   */\n      0x20\n        /* \"#utility.yul\":8665:8668   */\n      dup3\n        /* \"#utility.yul\":8661:8673   */\n      add\n        /* \"#utility.yul\":8654:8673   */\n      swap1\n      pop\n        /* \"#utility.yul\":8313:8679   */\n      swap2\n      swap1\n      pop\n      jump\t// out\n        /* \"#utility.yul\":8685:9104   */\n    tag_55:\n        /* \"#utility.yul\":8851:8855   */\n      0x00\n        /* \"#utility.yul\":8889:8891   */\n      0x20\n        /* \"#utility.yul\":8878:8887   */\n      dup3\n        /* \"#utility.yul\":8874:8892   */\n      add\n        /* \"#utility.yul\":8866:8892   */\n      swap1\n      pop\n        /* \"#utility.yul\":8938:8947   */\n      dup2\n        /* \"#utility.yul\":8932:8936   */\n      dup2\n        /* \"#utility.yul\":8928:8948   */\n      sub\n        /* \"#utility.yul\":8924:8925   */\n      0x00\n        /* \"#utility.yul\":8913:8922   */\n      dup4\n        /* \"#utility.yul\":8909:8926   */\n      add\n        /* \"#utility.yul\":8902:8949   */\n      mstore\n        /* \"#utility.yul\":8966:9097   */\n      tag_317\n        /* \"#utility.yul\":9092:9096   */\n      dup2\n        /* \"#utility.yul\":8966:9097   */\n      tag_186\n      jump\t// in\n    tag_317:\n        /* \"#utility.yul\":8958:9097   */\n      swap1\n      pop\n        /* \"#utility.yul\":8685:9104   */\n      swap2\n      swap1\n      pop\n      jump\t// out\n        /* \"#utility.yul\":9110:9253   */\n    tag_187:\n        /* \"#utility.yul\":9167:9172   */\n      0x00\n        /* \"#utility.yul\":9198:9204   */\n      dup2\n        /* \"#utility.yul\":9192:9205   */\n      mload\n        /* \"#utility.yul\":9183:9205   */\n      swap1\n      pop\n        /* \"#utility.yul\":9214:9247   */\n      tag_319\n        /* \"#utility.yul\":9241:9246   */\n      dup2\n        /* \"#utility.yul\":9214:9247   */\n      tag_165\n      jump\t// in\n    tag_319:\n        /* \"#utility.yul\":9110:9253   */\n      swap3\n      swap2\n      pop\n      pop\n      jump\t// out\n        /* \"#utility.yul\":9259:9610   */\n    tag_60:\n        /* \"#utility.yul\":9329:9335   */\n      0x00\n        /* \"#utility.yul\":9378:9380   */\n      0x20\n        /* \"#utility.yul\":9366:9375   */\n      dup3\n        /* \"#utility.yul\":9357:9364   */\n      dup5\n        /* \"#utility.yul\":9353:9376   */\n      sub\n        /* \"#utility.yul\":9349:9381   */\n      slt\n        /* \"#utility.yul\":9346:9465   */\n      iszero\n      tag_321\n      jumpi\n        /* \"#utility.yul\":9384:9463   */\n      tag_322\n      tag_158\n      jump\t// in\n    tag_322:\n        /* \"#utility.yul\":9346:9465   */\n    tag_321:\n        /* \"#utility.yul\":9504:9505   */\n      0x00\n        /* \"#utility.yul\":9529:9593   */\n      tag_323\n        /* \"#utility.yul\":9585:9592   */\n      dup5\n        /* \"#utility.yul\":9576:9582   */\n      dup3\n        /* \"#utility.yul\":9565:9574   */\n      dup6\n        /* \"#utility.yul\":9561:9583   */\n      add\n        /* \"#utility.yul\":9529:9593   */\n      tag_187\n      jump\t// in\n    tag_323:\n        /* \"#utility.yul\":9519:9593   */\n      swap2\n      pop\n        /* \"#utility.yul\":9475:9603   */\n      pop\n        /* \"#utility.yul\":9259:9610   */\n      swap3\n      swap2\n      pop\n      pop\n      jump\t// out\n        /* \"#utility.yul\":9616:9840   */\n    tag_188:\n        /* \"#utility.yul\":9756:9790   */\n      0x53656c6c6572206973206e6f7420746865206f776e6572206f66207468697320\n        /* \"#utility.yul\":9752:9753   */\n      0x00\n        /* \"#utility.yul\":9744:9750   */\n      dup3\n        /* \"#utility.yul\":9740:9754   */\n      add\n        /* \"#utility.yul\":9733:9791   */\n      mstore\n        /* \"#utility.yul\":9825:9832   */\n      0x746f6b656e000000000000000000000000000000000000000000000000000000\n        /* \"#utility.yul\":9820:9822   */\n      0x20\n        /* \"#utility.yul\":9812:9818   */\n      dup3\n        /* \"#utility.yul\":9808:9823   */\n      add\n        /* \"#utility.yul\":9801:9833   */\n      mstore\n        /* \"#utility.yul\":9616:9840   */\n      pop\n      jump\t// out\n        /* \"#utility.yul\":9846:10212   */\n    tag_189:\n        /* \"#utility.yul\":9988:9991   */\n      0x00\n        /* \"#utility.yul\":10009:10076   */\n      tag_326\n        /* \"#utility.yul\":10073:10075   */\n      0x25\n        /* \"#utility.yul\":10068:10071   */\n      dup4\n        /* \"#utility.yul\":10009:10076   */\n      tag_182\n      jump\t// in\n    tag_326:\n        /* \"#utility.yul\":10002:10076   */\n      swap2\n      pop\n        /* \"#utility.yul\":10085:10178   */\n      tag_327\n        /* \"#utility.yul\":10174:10177   */\n      dup3\n        /* \"#utility.yul\":10085:10178   */\n      tag_188\n      jump\t// in\n    tag_327:\n        /* \"#utility.yul\":10203:10205   */\n      0x40\n        /* \"#utility.yul\":10198:10201   */\n      dup3\n        /* \"#utility.yul\":10194:10206   */\n      add\n        /* \"#utility.yul\":10187:10206   */\n      swap1\n      pop\n        /* \"#utility.yul\":9846:10212   */\n      swap2\n      swap1\n      pop\n      jump\t// out\n        /* \"#utility.yul\":10218:10637   */\n    tag_63:\n        /* \"#utility.yul\":10384:10388   */\n      0x00\n        /* \"#utility.yul\":10422:10424   */\n      0x20\n        /* \"#utility.yul\":10411:10420   */\n      dup3\n        /* \"#utility.yul\":10407:10425   */\n      add\n        /* \"#utility.yul\":10399:10425   */\n      swap1\n      pop\n        /* \"#utility.yul\":10471:10480   */\n      dup2\n        /* \"#utility.yul\":10465:10469   */\n      dup2\n        /* \"#utility.yul\":10461:10481   */\n      sub\n        /* \"#utility.yul\":10457:10458   */\n      0x00\n        /* \"#utility.yul\":10446:10455   */\n      dup4\n        /* \"#utility.yul\":10442:10459   */\n      add\n        /* \"#utility.yul\":10435:10482   */\n      mstore\n        /* \"#utility.yul\":10499:10630   */\n      tag_329\n        /* \"#utility.yul\":10625:10629   */\n      dup2\n        /* \"#utility.yul\":10499:10630   */\n      tag_189\n      jump\t// in\n    tag_329:\n        /* \"#utility.yul\":10491:10630   */\n      swap1\n      pop\n        /* \"#utility.yul\":10218:10637   */\n      swap2\n      swap1\n      pop\n      jump\t// out\n        /* \"#utility.yul\":10643:10737   */\n    tag_190:\n        /* \"#utility.yul\":10676:10684   */\n      0x00\n        /* \"#utility.yul\":10724:10729   */\n      dup2\n        /* \"#utility.yul\":10720:10722   */\n      0x60\n        /* \"#utility.yul\":10716:10730   */\n      shl\n        /* \"#utility.yul\":10695:10730   */\n      swap1\n      pop\n        /* \"#utility.yul\":10643:10737   */\n      swap2\n      swap1\n      pop\n      jump\t// out\n        /* \"#utility.yul\":10743:10837   */\n    tag_191:\n        /* \"#utility.yul\":10782:10789   */\n      0x00\n        /* \"#utility.yul\":10811:10831   */\n      tag_332\n        /* \"#utility.yul\":10825:10830   */\n      dup3\n        /* \"#utility.yul\":10811:10831   */\n      tag_190\n      jump\t// in\n    tag_332:\n        /* \"#utility.yul\":10800:10831   */\n      swap1\n      pop\n        /* \"#utility.yul\":10743:10837   */\n      swap2\n      swap1\n      pop\n      jump\t// out\n        /* \"#utility.yul\":10843:10943   */\n    tag_192:\n        /* \"#utility.yul\":10882:10889   */\n      0x00\n        /* \"#utility.yul\":10911:10937   */\n      tag_334\n        /* \"#utility.yul\":10931:10936   */\n      dup3\n        /* \"#utility.yul\":10911:10937   */\n      tag_191\n      jump\t// in\n    tag_334:\n        /* \"#utility.yul\":10900:10937   */\n      swap1\n      pop\n        /* \"#utility.yul\":10843:10943   */\n      swap2\n      swap1\n      pop\n      jump\t// out\n        /* \"#utility.yul\":10949:11106   */\n    tag_193:\n        /* \"#utility.yul\":11054:11099   */\n      tag_336\n        /* \"#utility.yul\":11074:11098   */\n      tag_337\n        /* \"#utility.yul\":11092:11097   */\n      dup3\n        /* \"#utility.yul\":11074:11098   */\n      tag_164\n      jump\t// in\n    tag_337:\n        /* \"#utility.yul\":11054:11099   */\n      tag_192\n      jump\t// in\n    tag_336:\n        /* \"#utility.yul\":11049:11052   */\n      dup3\n        /* \"#utility.yul\":11042:11100   */\n      mstore\n        /* \"#utility.yul\":10949:11106   */\n      pop\n      pop\n      jump\t// out\n        /* \"#utility.yul\":11112:11191   */\n    tag_194:\n        /* \"#utility.yul\":11151:11158   */\n      0x00\n        /* \"#utility.yul\":11180:11185   */\n      dup2\n        /* \"#utility.yul\":11169:11185   */\n      swap1\n      pop\n        /* \"#utility.yul\":11112:11191   */\n      swap2\n      swap1\n      pop\n      jump\t// out\n        /* \"#utility.yul\":11197:11354   */\n    tag_195:\n        /* \"#utility.yul\":11302:11347   */\n      tag_340\n        /* \"#utility.yul\":11322:11346   */\n      tag_341\n        /* \"#utility.yul\":11340:11345   */\n      dup3\n        /* \"#utility.yul\":11322:11346   */\n      tag_167\n      jump\t// in\n    tag_341:\n        /* \"#utility.yul\":11302:11347   */\n      tag_194\n      jump\t// in\n    tag_340:\n        /* \"#utility.yul\":11297:11300   */\n      dup3\n        /* \"#utility.yul\":11290:11348   */\n      mstore\n        /* \"#utility.yul\":11197:11354   */\n      pop\n      pop\n      jump\t// out\n        /* \"#utility.yul\":11360:12321   */\n    tag_65:\n        /* \"#utility.yul\":11612:11615   */\n      0x00\n        /* \"#utility.yul\":11627:11702   */\n      tag_343\n        /* \"#utility.yul\":11698:11701   */\n      dup3\n        /* \"#utility.yul\":11689:11695   */\n      dup10\n        /* \"#utility.yul\":11627:11702   */\n      tag_193\n      jump\t// in\n    tag_343:\n        /* \"#utility.yul\":11727:11729   */\n      0x14\n        /* \"#utility.yul\":11722:11725   */\n      dup3\n        /* \"#utility.yul\":11718:11730   */\n      add\n        /* \"#utility.yul\":11711:11730   */\n      swap2\n      pop\n        /* \"#utility.yul\":11740:11815   */\n      tag_344\n        /* \"#utility.yul\":11811:11814   */\n      dup3\n        /* \"#utility.yul\":11802:11808   */\n      dup9\n        /* \"#utility.yul\":11740:11815   */\n      tag_193\n      jump\t// in\n    tag_344:\n        /* \"#utility.yul\":11840:11842   */\n      0x14\n        /* \"#utility.yul\":11835:11838   */\n      dup3\n        /* \"#utility.yul\":11831:11843   */\n      add\n        /* \"#utility.yul\":11824:11843   */\n      swap2\n      pop\n        /* \"#utility.yul\":11853:11928   */\n      tag_345\n        /* \"#utility.yul\":11924:11927   */\n      dup3\n        /* \"#utility.yul\":11915:11921   */\n      dup8\n        /* \"#utility.yul\":11853:11928   */\n      tag_195\n      jump\t// in\n    tag_345:\n        /* \"#utility.yul\":11953:11955   */\n      0x20\n        /* \"#utility.yul\":11948:11951   */\n      dup3\n        /* \"#utility.yul\":11944:11956   */\n      add\n        /* \"#utility.yul\":11937:11956   */\n      swap2\n      pop\n        /* \"#utility.yul\":11966:12041   */\n      tag_346\n        /* \"#utility.yul\":12037:12040   */\n      dup3\n        /* \"#utility.yul\":12028:12034   */\n      dup7\n        /* \"#utility.yul\":11966:12041   */\n      tag_195\n      jump\t// in\n    tag_346:\n        /* \"#utility.yul\":12066:12068   */\n      0x20\n        /* \"#utility.yul\":12061:12064   */\n      dup3\n        /* \"#utility.yul\":12057:12069   */\n      add\n        /* \"#utility.yul\":12050:12069   */\n      swap2\n      pop\n        /* \"#utility.yul\":12079:12154   */\n      tag_347\n        /* \"#utility.yul\":12150:12153   */\n      dup3\n        /* \"#utility.yul\":12141:12147   */\n      dup6\n        /* \"#utility.yul\":12079:12154   */\n      tag_195\n      jump\t// in\n    tag_347:\n        /* \"#utility.yul\":12179:12181   */\n      0x20\n        /* \"#utility.yul\":12174:12177   */\n      dup3\n        /* \"#utility.yul\":12170:12182   */\n      add\n        /* \"#utility.yul\":12163:12182   */\n      swap2\n      pop\n        /* \"#utility.yul\":12192:12267   */\n      tag_348\n        /* \"#utility.yul\":12263:12266   */\n      dup3\n        /* \"#utility.yul\":12254:12260   */\n      dup5\n        /* \"#utility.yul\":12192:12267   */\n      tag_195\n      jump\t// in\n    tag_348:\n        /* \"#utility.yul\":12292:12294   */\n      0x20\n        /* \"#utility.yul\":12287:12290   */\n      dup3\n        /* \"#utility.yul\":12283:12295   */\n      add\n        /* \"#utility.yul\":12276:12295   */\n      swap2\n      pop\n        /* \"#utility.yul\":12312:12315   */\n      dup2\n        /* \"#utility.yul\":12305:12315   */\n      swap1\n      pop\n        /* \"#utility.yul\":11360:12321   */\n      swap8\n      swap7\n      pop\n      pop\n      pop\n      pop\n      pop\n      pop\n      pop\n      jump\t// out\n        /* \"#utility.yul\":12327:12404   */\n    tag_196:\n        /* \"#utility.yul\":12364:12371   */\n      0x00\n        /* \"#utility.yul\":12393:12398   */\n      dup2\n        /* \"#utility.yul\":12382:12398   */\n      swap1\n      pop\n        /* \"#utility.yul\":12327:12404   */\n      swap2\n      swap1\n      pop\n      jump\t// out\n        /* \"#utility.yul\":12410:12528   */\n    tag_197:\n        /* \"#utility.yul\":12497:12521   */\n      tag_351\n        /* \"#utility.yul\":12515:12520   */\n      dup2\n        /* \"#utility.yul\":12497:12521   */\n      tag_196\n      jump\t// in\n    tag_351:\n        /* \"#utility.yul\":12492:12495   */\n      dup3\n        /* \"#utility.yul\":12485:12522   */\n      mstore\n        /* \"#utility.yul\":12410:12528   */\n      pop\n      pop\n      jump\t// out\n        /* \"#utility.yul\":12534:12866   */\n    tag_70:\n        /* \"#utility.yul\":12655:12659   */\n      0x00\n        /* \"#utility.yul\":12693:12695   */\n      0x40\n        /* \"#utility.yul\":12682:12691   */\n      dup3\n        /* \"#utility.yul\":12678:12696   */\n      add\n        /* \"#utility.yul\":12670:12696   */\n      swap1\n      pop\n        /* \"#utility.yul\":12706:12777   */\n      tag_353\n        /* \"#utility.yul\":12774:12775   */\n      0x00\n        /* \"#utility.yul\":12763:12772   */\n      dup4\n        /* \"#utility.yul\":12759:12776   */\n      add\n        /* \"#utility.yul\":12750:12756   */\n      dup6\n        /* \"#utility.yul\":12706:12777   */\n      tag_197\n      jump\t// in\n    tag_353:\n        /* \"#utility.yul\":12787:12859   */\n      tag_354\n        /* \"#utility.yul\":12855:12857   */\n      0x20\n        /* \"#utility.yul\":12844:12853   */\n      dup4\n        /* \"#utility.yul\":12840:12858   */\n      add\n        /* \"#utility.yul\":12831:12837   */\n      dup5\n        /* \"#utility.yul\":12787:12859   */\n      tag_180\n      jump\t// in\n    tag_354:\n        /* \"#utility.yul\":12534:12866   */\n      swap4\n      swap3\n      pop\n      pop\n      pop\n      jump\t// out\n        /* \"#utility.yul\":12872:13094   */\n    tag_72:\n        /* \"#utility.yul\":12965:12969   */\n      0x00\n        /* \"#utility.yul\":13003:13005   */\n      0x20\n        /* \"#utility.yul\":12992:13001   */\n      dup3\n        /* \"#utility.yul\":12988:13006   */\n      add\n        /* \"#utility.yul\":12980:13006   */\n      swap1\n      pop\n        /* \"#utility.yul\":13016:13087   */\n      tag_356\n        /* \"#utility.yul\":13084:13085   */\n      0x00\n        /* \"#utility.yul\":13073:13082   */\n      dup4\n        /* \"#utility.yul\":13069:13086   */\n      add\n        /* \"#utility.yul\":13060:13066   */\n      dup5\n        /* \"#utility.yul\":13016:13087   */\n      tag_197\n      jump\t// in\n    tag_356:\n        /* \"#utility.yul\":12872:13094   */\n      swap3\n      swap2\n      pop\n      pop\n      jump\t// out\n        /* \"#utility.yul\":13100:13198   */\n    tag_198:\n        /* \"#utility.yul\":13151:13157   */\n      0x00\n        /* \"#utility.yul\":13185:13190   */\n      dup2\n        /* \"#utility.yul\":13179:13191   */\n      mload\n        /* \"#utility.yul\":13169:13191   */\n      swap1\n      pop\n        /* \"#utility.yul\":13100:13198   */\n      swap2\n      swap1\n      pop\n      jump\t// out\n        /* \"#utility.yul\":13204:13351   */\n    tag_199:\n        /* \"#utility.yul\":13305:13316   */\n      0x00\n        /* \"#utility.yul\":13342:13345   */\n      dup2\n        /* \"#utility.yul\":13327:13345   */\n      swap1\n      pop\n        /* \"#utility.yul\":13204:13351   */\n      swap3\n      swap2\n      pop\n      pop\n      jump\t// out\n        /* \"#utility.yul\":13357:13603   */\n    tag_200:\n        /* \"#utility.yul\":13438:13439   */\n      0x00\n        /* \"#utility.yul\":13448:13561   */\n    tag_360:\n        /* \"#utility.yul\":13462:13468   */\n      dup4\n        /* \"#utility.yul\":13459:13460   */\n      dup2\n        /* \"#utility.yul\":13456:13469   */\n      lt\n        /* \"#utility.yul\":13448:13561   */\n      iszero\n      tag_362\n      jumpi\n        /* \"#utility.yul\":13547:13548   */\n      dup1\n        /* \"#utility.yul\":13542:13545   */\n      dup3\n        /* \"#utility.yul\":13538:13549   */\n      add\n        /* \"#utility.yul\":13532:13550   */\n      mload\n        /* \"#utility.yul\":13528:13529   */\n      dup2\n        /* \"#utility.yul\":13523:13526   */\n      dup5\n        /* \"#utility.yul\":13519:13530   */\n      add\n        /* \"#utility.yul\":13512:13551   */\n      mstore\n        /* \"#utility.yul\":13484:13486   */\n      0x20\n        /* \"#utility.yul\":13481:13482   */\n      dup2\n        /* \"#utility.yul\":13477:13487   */\n      add\n        /* \"#utility.yul\":13472:13487   */\n      swap1\n      pop\n        /* \"#utility.yul\":13448:13561   */\n      jump(tag_360)\n    tag_362:\n        /* \"#utility.yul\":13595:13596   */\n      0x00\n        /* \"#utility.yul\":13586:13592   */\n      dup5\n        /* \"#utility.yul\":13581:13584   */\n      dup5\n        /* \"#utility.yul\":13577:13593   */\n      add\n        /* \"#utility.yul\":13570:13597   */\n      mstore\n        /* \"#utility.yul\":13419:13603   */\n      pop\n        /* \"#utility.yul\":13357:13603   */\n      pop\n      pop\n      pop\n      jump\t// out\n        /* \"#utility.yul\":13609:13995   */\n    tag_201:\n        /* \"#utility.yul\":13713:13716   */\n      0x00\n        /* \"#utility.yul\":13741:13779   */\n      tag_364\n        /* \"#utility.yul\":13773:13778   */\n      dup3\n        /* \"#utility.yul\":13741:13779   */\n      tag_198\n      jump\t// in\n    tag_364:\n        /* \"#utility.yul\":13795:13883   */\n      tag_365\n        /* \"#utility.yul\":13876:13882   */\n      dup2\n        /* \"#utility.yul\":13871:13874   */\n      dup6\n        /* \"#utility.yul\":13795:13883   */\n      tag_199\n      jump\t// in\n    tag_365:\n        /* \"#utility.yul\":13788:13883   */\n      swap4\n      pop\n        /* \"#utility.yul\":13892:13957   */\n      tag_366\n        /* \"#utility.yul\":13950:13956   */\n      dup2\n        /* \"#utility.yul\":13945:13948   */\n      dup6\n        /* \"#utility.yul\":13938:13942   */\n      0x20\n        /* \"#utility.yul\":13931:13936   */\n      dup7\n        /* \"#utility.yul\":13927:13943   */\n      add\n        /* \"#utility.yul\":13892:13957   */\n      tag_200\n      jump\t// in\n    tag_366:\n        /* \"#utility.yul\":13982:13988   */\n      dup1\n        /* \"#utility.yul\":13977:13980   */\n      dup5\n        /* \"#utility.yul\":13973:13989   */\n      add\n        /* \"#utility.yul\":13966:13989   */\n      swap2\n      pop\n        /* \"#utility.yul\":13717:13995   */\n      pop\n        /* \"#utility.yul\":13609:13995   */\n      swap3\n      swap2\n      pop\n      pop\n      jump\t// out\n        /* \"#utility.yul\":14001:14272   */\n    tag_74:\n        /* \"#utility.yul\":14131:14134   */\n      0x00\n        /* \"#utility.yul\":14153:14246   */\n      tag_368\n        /* \"#utility.yul\":14242:14245   */\n      dup3\n        /* \"#utility.yul\":14233:14239   */\n      dup5\n        /* \"#utility.yul\":14153:14246   */\n      tag_201\n      jump\t// in\n    tag_368:\n        /* \"#utility.yul\":14146:14246   */\n      swap2\n      pop\n        /* \"#utility.yul\":14263:14266   */\n      dup2\n        /* \"#utility.yul\":14256:14266   */\n      swap1\n      pop\n        /* \"#utility.yul\":14001:14272   */\n      swap3\n      swap2\n      pop\n      pop\n      jump\t// out\n        /* \"#utility.yul\":14278:14368   */\n    tag_202:\n        /* \"#utility.yul\":14312:14319   */\n      0x00\n        /* \"#utility.yul\":14355:14360   */\n      dup2\n        /* \"#utility.yul\":14348:14361   */\n      iszero\n        /* \"#utility.yul\":14341:14362   */\n      iszero\n        /* \"#utility.yul\":14330:14362   */\n      swap1\n      pop\n        /* \"#utility.yul\":14278:14368   */\n      swap2\n      swap1\n      pop\n      jump\t// out\n        /* \"#utility.yul\":14374:14490   */\n    tag_203:\n        /* \"#utility.yul\":14444:14465   */\n      tag_371\n        /* \"#utility.yul\":14459:14464   */\n      dup2\n        /* \"#utility.yul\":14444:14465   */\n      tag_202\n      jump\t// in\n    tag_371:\n        /* \"#utility.yul\":14437:14442   */\n      dup2\n        /* \"#utility.yul\":14434:14466   */\n      eq\n        /* \"#utility.yul\":14424:14484   */\n      tag_372\n      jumpi\n        /* \"#utility.yul\":14480:14481   */\n      0x00\n        /* \"#utility.yul\":14477:14478   */\n      dup1\n        /* \"#utility.yul\":14470:14482   */\n      revert\n        /* \"#utility.yul\":14424:14484   */\n    tag_372:\n        /* \"#utility.yul\":14374:14490   */\n      pop\n      jump\t// out\n        /* \"#utility.yul\":14496:14633   */\n    tag_204:\n        /* \"#utility.yul\":14550:14555   */\n      0x00\n        /* \"#utility.yul\":14581:14587   */\n      dup2\n        /* \"#utility.yul\":14575:14588   */\n      mload\n        /* \"#utility.yul\":14566:14588   */\n      swap1\n      pop\n        /* \"#utility.yul\":14597:14627   */\n      tag_374\n        /* \"#utility.yul\":14621:14626   */\n      dup2\n        /* \"#utility.yul\":14597:14627   */\n      tag_203\n      jump\t// in\n    tag_374:\n        /* \"#utility.yul\":14496:14633   */\n      swap3\n      swap2\n      pop\n      pop\n      jump\t// out\n        /* \"#utility.yul\":14639:14984   */\n    tag_79:\n        /* \"#utility.yul\":14706:14712   */\n      0x00\n        /* \"#utility.yul\":14755:14757   */\n      0x20\n        /* \"#utility.yul\":14743:14752   */\n      dup3\n        /* \"#utility.yul\":14734:14741   */\n      dup5\n        /* \"#utility.yul\":14730:14753   */\n      sub\n        /* \"#utility.yul\":14726:14758   */\n      slt\n        /* \"#utility.yul\":14723:14842   */\n      iszero\n      tag_376\n      jumpi\n        /* \"#utility.yul\":14761:14840   */\n      tag_377\n      tag_158\n      jump\t// in\n    tag_377:\n        /* \"#utility.yul\":14723:14842   */\n    tag_376:\n        /* \"#utility.yul\":14881:14882   */\n      0x00\n        /* \"#utility.yul\":14906:14967   */\n      tag_378\n        /* \"#utility.yul\":14959:14966   */\n      dup5\n        /* \"#utility.yul\":14950:14956   */\n      dup3\n        /* \"#utility.yul\":14939:14948   */\n      dup6\n        /* \"#utility.yul\":14935:14957   */\n      add\n        /* \"#utility.yul\":14906:14967   */\n      tag_204\n      jump\t// in\n    tag_378:\n        /* \"#utility.yul\":14896:14967   */\n      swap2\n      pop\n        /* \"#utility.yul\":14852:14977   */\n      pop\n        /* \"#utility.yul\":14639:14984   */\n      swap3\n      swap2\n      pop\n      pop\n      jump\t// out\n        /* \"#utility.yul\":14990:15158   */\n    tag_205:\n        /* \"#utility.yul\":15130:15150   */\n      0x4f72646572206973206e6f742076616c69640000000000000000000000000000\n        /* \"#utility.yul\":15126:15127   */\n      0x00\n        /* \"#utility.yul\":15118:15124   */\n      dup3\n        /* \"#utility.yul\":15114:15128   */\n      add\n        /* \"#utility.yul\":15107:15151   */\n      mstore\n        /* \"#utility.yul\":14990:15158   */\n      pop\n      jump\t// out\n        /* \"#utility.yul\":15164:15530   */\n    tag_206:\n        /* \"#utility.yul\":15306:15309   */\n      0x00\n        /* \"#utility.yul\":15327:15394   */\n      tag_381\n        /* \"#utility.yul\":15391:15393   */\n      0x12\n        /* \"#utility.yul\":15386:15389   */\n      dup4\n        /* \"#utility.yul\":15327:15394   */\n      tag_182\n      jump\t// in\n    tag_381:\n        /* \"#utility.yul\":15320:15394   */\n      swap2\n      pop\n        /* \"#utility.yul\":15403:15496   */\n      tag_382\n        /* \"#utility.yul\":15492:15495   */\n      dup3\n        /* \"#utility.yul\":15403:15496   */\n      tag_205\n      jump\t// in\n    tag_382:\n        /* \"#utility.yul\":15521:15523   */\n      0x20\n        /* \"#utility.yul\":15516:15519   */\n      dup3\n        /* \"#utility.yul\":15512:15524   */\n      add\n        /* \"#utility.yul\":15505:15524   */\n      swap1\n      pop\n        /* \"#utility.yul\":15164:15530   */\n      swap2\n      swap1\n      pop\n      jump\t// out\n        /* \"#utility.yul\":15536:15955   */\n    tag_83:\n        /* \"#utility.yul\":15702:15706   */\n      0x00\n        /* \"#utility.yul\":15740:15742   */\n      0x20\n        /* \"#utility.yul\":15729:15738   */\n      dup3\n        /* \"#utility.yul\":15725:15743   */\n      add\n        /* \"#utility.yul\":15717:15743   */\n      swap1\n      pop\n        /* \"#utility.yul\":15789:15798   */\n      dup2\n        /* \"#utility.yul\":15783:15787   */\n      dup2\n        /* \"#utility.yul\":15779:15799   */\n      sub\n        /* \"#utility.yul\":15775:15776   */\n      0x00\n        /* \"#utility.yul\":15764:15773   */\n      dup4\n        /* \"#utility.yul\":15760:15777   */\n      add\n        /* \"#utility.yul\":15753:15800   */\n      mstore\n        /* \"#utility.yul\":15817:15948   */\n      tag_384\n        /* \"#utility.yul\":15943:15947   */\n      dup2\n        /* \"#utility.yul\":15817:15948   */\n      tag_206\n      jump\t// in\n    tag_384:\n        /* \"#utility.yul\":15809:15948   */\n      swap1\n      pop\n        /* \"#utility.yul\":15536:15955   */\n      swap2\n      swap1\n      pop\n      jump\t// out\n        /* \"#utility.yul\":15961:16141   */\n    tag_207:\n        /* \"#utility.yul\":16009:16086   */\n      0x4e487b7100000000000000000000000000000000000000000000000000000000\n        /* \"#utility.yul\":16006:16007   */\n      0x00\n        /* \"#utility.yul\":15999:16087   */\n      mstore\n        /* \"#utility.yul\":16106:16110   */\n      0x11\n        /* \"#utility.yul\":16103:16104   */\n      0x04\n        /* \"#utility.yul\":16096:16111   */\n      mstore\n        /* \"#utility.yul\":16130:16134   */\n      0x24\n        /* \"#utility.yul\":16127:16128   */\n      0x00\n        /* \"#utility.yul\":16120:16135   */\n      revert\n        /* \"#utility.yul\":16147:16341   */\n    tag_85:\n        /* \"#utility.yul\":16187:16191   */\n      0x00\n        /* \"#utility.yul\":16207:16227   */\n      tag_387\n        /* \"#utility.yul\":16225:16226   */\n      dup3\n        /* \"#utility.yul\":16207:16227   */\n      tag_167\n      jump\t// in\n    tag_387:\n        /* \"#utility.yul\":16202:16227   */\n      swap2\n      pop\n        /* \"#utility.yul\":16241:16261   */\n      tag_388\n        /* \"#utility.yul\":16259:16260   */\n      dup4\n        /* \"#utility.yul\":16241:16261   */\n      tag_167\n      jump\t// in\n    tag_388:\n        /* \"#utility.yul\":16236:16261   */\n      swap3\n      pop\n        /* \"#utility.yul\":16285:16286   */\n      dup3\n        /* \"#utility.yul\":16282:16283   */\n      dup3\n        /* \"#utility.yul\":16278:16287   */\n      sub\n        /* \"#utility.yul\":16270:16287   */\n      swap1\n      pop\n        /* \"#utility.yul\":16309:16310   */\n      dup2\n        /* \"#utility.yul\":16303:16307   */\n      dup2\n        /* \"#utility.yul\":16300:16311   */\n      gt\n        /* \"#utility.yul\":16297:16334   */\n      iszero\n      tag_389\n      jumpi\n        /* \"#utility.yul\":16314:16332   */\n      tag_390\n      tag_207\n      jump\t// in\n    tag_390:\n        /* \"#utility.yul\":16297:16334   */\n    tag_389:\n        /* \"#utility.yul\":16147:16341   */\n      swap3\n      swap2\n      pop\n      pop\n      jump\t// out\n        /* \"#utility.yul\":16347:16455   */\n    tag_208:\n        /* \"#utility.yul\":16424:16448   */\n      tag_392\n        /* \"#utility.yul\":16442:16447   */\n      dup2\n        /* \"#utility.yul\":16424:16448   */\n      tag_164\n      jump\t// in\n    tag_392:\n        /* \"#utility.yul\":16419:16422   */\n      dup3\n        /* \"#utility.yul\":16412:16449   */\n      mstore\n        /* \"#utility.yul\":16347:16455   */\n      pop\n      pop\n      jump\t// out\n        /* \"#utility.yul\":16461:16569   */\n    tag_209:\n        /* \"#utility.yul\":16538:16562   */\n      tag_394\n        /* \"#utility.yul\":16556:16561   */\n      dup2\n        /* \"#utility.yul\":16538:16562   */\n      tag_167\n      jump\t// in\n    tag_394:\n        /* \"#utility.yul\":16533:16536   */\n      dup3\n        /* \"#utility.yul\":16526:16563   */\n      mstore\n        /* \"#utility.yul\":16461:16569   */\n      pop\n      pop\n      jump\t// out\n        /* \"#utility.yul\":16575:16733   */\n    tag_210:\n        /* \"#utility.yul\":16648:16659   */\n      0x00\n        /* \"#utility.yul\":16682:16688   */\n      dup3\n        /* \"#utility.yul\":16677:16680   */\n      dup3\n        /* \"#utility.yul\":16670:16689   */\n      mstore\n        /* \"#utility.yul\":16722:16726   */\n      0x20\n        /* \"#utility.yul\":16717:16720   */\n      dup3\n        /* \"#utility.yul\":16713:16727   */\n      add\n        /* \"#utility.yul\":16698:16727   */\n      swap1\n      pop\n        /* \"#utility.yul\":16575:16733   */\n      swap3\n      swap2\n      pop\n      pop\n      jump\t// out\n        /* \"#utility.yul\":16739:17092   */\n    tag_211:\n        /* \"#utility.yul\":16815:16818   */\n      0x00\n        /* \"#utility.yul\":16843:16881   */\n      tag_397\n        /* \"#utility.yul\":16875:16880   */\n      dup3\n        /* \"#utility.yul\":16843:16881   */\n      tag_198\n      jump\t// in\n    tag_397:\n        /* \"#utility.yul\":16897:16957   */\n      tag_398\n        /* \"#utility.yul\":16950:16956   */\n      dup2\n        /* \"#utility.yul\":16945:16948   */\n      dup6\n        /* \"#utility.yul\":16897:16957   */\n      tag_210\n      jump\t// in\n    tag_398:\n        /* \"#utility.yul\":16890:16957   */\n      swap4\n      pop\n        /* \"#utility.yul\":16966:17031   */\n      tag_399\n        /* \"#utility.yul\":17024:17030   */\n      dup2\n        /* \"#utility.yul\":17019:17022   */\n      dup6\n        /* \"#utility.yul\":17012:17016   */\n      0x20\n        /* \"#utility.yul\":17005:17010   */\n      dup7\n        /* \"#utility.yul\":17001:17017   */\n      add\n        /* \"#utility.yul\":16966:17031   */\n      tag_200\n      jump\t// in\n    tag_399:\n        /* \"#utility.yul\":17056:17085   */\n      tag_400\n        /* \"#utility.yul\":17078:17084   */\n      dup2\n        /* \"#utility.yul\":17056:17085   */\n      tag_172\n      jump\t// in\n    tag_400:\n        /* \"#utility.yul\":17051:17054   */\n      dup5\n        /* \"#utility.yul\":17047:17086   */\n      add\n        /* \"#utility.yul\":17040:17086   */\n      swap2\n      pop\n        /* \"#utility.yul\":16819:17092   */\n      pop\n        /* \"#utility.yul\":16739:17092   */\n      swap3\n      swap2\n      pop\n      pop\n      jump\t// out\n        /* \"#utility.yul\":17172:18676   */\n    tag_212:\n        /* \"#utility.yul\":17293:17296   */\n      0x00\n        /* \"#utility.yul\":17329:17333   */\n      0xe0\n        /* \"#utility.yul\":17324:17327   */\n      dup4\n        /* \"#utility.yul\":17320:17334   */\n      add\n        /* \"#utility.yul\":17418:17422   */\n      0x00\n        /* \"#utility.yul\":17411:17416   */\n      dup4\n        /* \"#utility.yul\":17407:17423   */\n      add\n        /* \"#utility.yul\":17401:17424   */\n      mload\n        /* \"#utility.yul\":17437:17500   */\n      tag_402\n        /* \"#utility.yul\":17494:17498   */\n      0x00\n        /* \"#utility.yul\":17489:17492   */\n      dup7\n        /* \"#utility.yul\":17485:17499   */\n      add\n        /* \"#utility.yul\":17471:17483   */\n      dup3\n        /* \"#utility.yul\":17437:17500   */\n      tag_208\n      jump\t// in\n    tag_402:\n        /* \"#utility.yul\":17344:17510   */\n      pop\n        /* \"#utility.yul\":17598:17602   */\n      0x20\n        /* \"#utility.yul\":17591:17596   */\n      dup4\n        /* \"#utility.yul\":17587:17603   */\n      add\n        /* \"#utility.yul\":17581:17604   */\n      mload\n        /* \"#utility.yul\":17617:17680   */\n      tag_403\n        /* \"#utility.yul\":17674:17678   */\n      0x20\n        /* \"#utility.yul\":17669:17672   */\n      dup7\n        /* \"#utility.yul\":17665:17679   */\n      add\n        /* \"#utility.yul\":17651:17663   */\n      dup3\n        /* \"#utility.yul\":17617:17680   */\n      tag_208\n      jump\t// in\n    tag_403:\n        /* \"#utility.yul\":17520:17690   */\n      pop\n        /* \"#utility.yul\":17775:17779   */\n      0x40\n        /* \"#utility.yul\":17768:17773   */\n      dup4\n        /* \"#utility.yul\":17764:17780   */\n      add\n        /* \"#utility.yul\":17758:17781   */\n      mload\n        /* \"#utility.yul\":17794:17857   */\n      tag_404\n        /* \"#utility.yul\":17851:17855   */\n      0x40\n        /* \"#utility.yul\":17846:17849   */\n      dup7\n        /* \"#utility.yul\":17842:17856   */\n      add\n        /* \"#utility.yul\":17828:17840   */\n      dup3\n        /* \"#utility.yul\":17794:17857   */\n      tag_209\n      jump\t// in\n    tag_404:\n        /* \"#utility.yul\":17700:17867   */\n      pop\n        /* \"#utility.yul\":17950:17954   */\n      0x60\n        /* \"#utility.yul\":17943:17948   */\n      dup4\n        /* \"#utility.yul\":17939:17955   */\n      add\n        /* \"#utility.yul\":17933:17956   */\n      mload\n        /* \"#utility.yul\":17969:18032   */\n      tag_405\n        /* \"#utility.yul\":18026:18030   */\n      0x60\n        /* \"#utility.yul\":18021:18024   */\n      dup7\n        /* \"#utility.yul\":18017:18031   */\n      add\n        /* \"#utility.yul\":18003:18015   */\n      dup3\n        /* \"#utility.yul\":17969:18032   */\n      tag_209\n      jump\t// in\n    tag_405:\n        /* \"#utility.yul\":17877:18042   */\n      pop\n        /* \"#utility.yul\":18129:18133   */\n      0x80\n        /* \"#utility.yul\":18122:18127   */\n      dup4\n        /* \"#utility.yul\":18118:18134   */\n      add\n        /* \"#utility.yul\":18112:18135   */\n      mload\n        /* \"#utility.yul\":18182:18185   */\n      dup5\n        /* \"#utility.yul\":18176:18180   */\n      dup3\n        /* \"#utility.yul\":18172:18186   */\n      sub\n        /* \"#utility.yul\":18165:18169   */\n      0x80\n        /* \"#utility.yul\":18160:18163   */\n      dup7\n        /* \"#utility.yul\":18156:18170   */\n      add\n        /* \"#utility.yul\":18149:18187   */\n      mstore\n        /* \"#utility.yul\":18208:18279   */\n      tag_406\n        /* \"#utility.yul\":18274:18278   */\n      dup3\n        /* \"#utility.yul\":18260:18272   */\n      dup3\n        /* \"#utility.yul\":18208:18279   */\n      tag_211\n      jump\t// in\n    tag_406:\n        /* \"#utility.yul\":18200:18279   */\n      swap2\n      pop\n        /* \"#utility.yul\":18052:18290   */\n      pop\n        /* \"#utility.yul\":18382:18386   */\n      0xa0\n        /* \"#utility.yul\":18375:18380   */\n      dup4\n        /* \"#utility.yul\":18371:18387   */\n      add\n        /* \"#utility.yul\":18365:18388   */\n      mload\n        /* \"#utility.yul\":18401:18464   */\n      tag_407\n        /* \"#utility.yul\":18458:18462   */\n      0xa0\n        /* \"#utility.yul\":18453:18456   */\n      dup7\n        /* \"#utility.yul\":18449:18463   */\n      add\n        /* \"#utility.yul\":18435:18447   */\n      dup3\n        /* \"#utility.yul\":18401:18464   */\n      tag_209\n      jump\t// in\n    tag_407:\n        /* \"#utility.yul\":18300:18474   */\n      pop\n        /* \"#utility.yul\":18557:18561   */\n      0xc0\n        /* \"#utility.yul\":18550:18555   */\n      dup4\n        /* \"#utility.yul\":18546:18562   */\n      add\n        /* \"#utility.yul\":18540:18563   */\n      mload\n        /* \"#utility.yul\":18576:18639   */\n      tag_408\n        /* \"#utility.yul\":18633:18637   */\n      0xc0\n        /* \"#utility.yul\":18628:18631   */\n      dup7\n        /* \"#utility.yul\":18624:18638   */\n      add\n        /* \"#utility.yul\":18610:18622   */\n      dup3\n        /* \"#utility.yul\":18576:18639   */\n      tag_209\n      jump\t// in\n    tag_408:\n        /* \"#utility.yul\":18484:18649   */\n      pop\n        /* \"#utility.yul\":18666:18670   */\n      dup1\n        /* \"#utility.yul\":18659:18670   */\n      swap2\n      pop\n        /* \"#utility.yul\":17298:18676   */\n      pop\n        /* \"#utility.yul\":17172:18676   */\n      swap3\n      swap2\n      pop\n      pop\n      jump\t// out\n        /* \"#utility.yul\":18682:19169   */\n    tag_88:\n        /* \"#utility.yul\":18855:18859   */\n      0x00\n        /* \"#utility.yul\":18893:18895   */\n      0x40\n        /* \"#utility.yul\":18882:18891   */\n      dup3\n        /* \"#utility.yul\":18878:18896   */\n      add\n        /* \"#utility.yul\":18870:18896   */\n      swap1\n      pop\n        /* \"#utility.yul\":18942:18951   */\n      dup2\n        /* \"#utility.yul\":18936:18940   */\n      dup2\n        /* \"#utility.yul\":18932:18952   */\n      sub\n        /* \"#utility.yul\":18928:18929   */\n      0x00\n        /* \"#utility.yul\":18917:18926   */\n      dup4\n        /* \"#utility.yul\":18913:18930   */\n      add\n        /* \"#utility.yul\":18906:18953   */\n      mstore\n        /* \"#utility.yul\":18970:19080   */\n      tag_410\n        /* \"#utility.yul\":19075:19079   */\n      dup2\n        /* \"#utility.yul\":19066:19072   */\n      dup6\n        /* \"#utility.yul\":18970:19080   */\n      tag_212\n      jump\t// in\n    tag_410:\n        /* \"#utility.yul\":18962:19080   */\n      swap1\n      pop\n        /* \"#utility.yul\":19090:19162   */\n      tag_411\n        /* \"#utility.yul\":19158:19160   */\n      0x20\n        /* \"#utility.yul\":19147:19156   */\n      dup4\n        /* \"#utility.yul\":19143:19161   */\n      add\n        /* \"#utility.yul\":19134:19140   */\n      dup5\n        /* \"#utility.yul\":19090:19162   */\n      tag_181\n      jump\t// in\n    tag_411:\n        /* \"#utility.yul\":18682:19169   */\n      swap4\n      swap3\n      pop\n      pop\n      pop\n      jump\t// out\n        /* \"#utility.yul\":19175:19617   */\n    tag_99:\n        /* \"#utility.yul\":19324:19328   */\n      0x00\n        /* \"#utility.yul\":19362:19364   */\n      0x60\n        /* \"#utility.yul\":19351:19360   */\n      dup3\n        /* \"#utility.yul\":19347:19365   */\n      add\n        /* \"#utility.yul\":19339:19365   */\n      swap1\n      pop\n        /* \"#utility.yul\":19375:19446   */\n      tag_413\n        /* \"#utility.yul\":19443:19444   */\n      0x00\n        /* \"#utility.yul\":19432:19441   */\n      dup4\n        /* \"#utility.yul\":19428:19445   */\n      add\n        /* \"#utility.yul\":19419:19425   */\n      dup7\n        /* \"#utility.yul\":19375:19446   */\n      tag_180\n      jump\t// in\n    tag_413:\n        /* \"#utility.yul\":19456:19528   */\n      tag_414\n        /* \"#utility.yul\":19524:19526   */\n      0x20\n        /* \"#utility.yul\":19513:19522   */\n      dup4\n        /* \"#utility.yul\":19509:19527   */\n      add\n        /* \"#utility.yul\":19500:19506   */\n      dup6\n        /* \"#utility.yul\":19456:19528   */\n      tag_197\n      jump\t// in\n    tag_414:\n        /* \"#utility.yul\":19538:19610   */\n      tag_415\n        /* \"#utility.yul\":19606:19608   */\n      0x40\n        /* \"#utility.yul\":19595:19604   */\n      dup4\n        /* \"#utility.yul\":19591:19609   */\n      add\n        /* \"#utility.yul\":19582:19588   */\n      dup5\n        /* \"#utility.yul\":19538:19610   */\n      tag_180\n      jump\t// in\n    tag_415:\n        /* \"#utility.yul\":19175:19617   */\n      swap5\n      swap4\n      pop\n      pop\n      pop\n      pop\n      jump\t// out\n        /* \"#utility.yul\":19623:20065   */\n    tag_108:\n        /* \"#utility.yul\":19772:19776   */\n      0x00\n        /* \"#utility.yul\":19810:19812   */\n      0x60\n        /* \"#utility.yul\":19799:19808   */\n      dup3\n        /* \"#utility.yul\":19795:19813   */\n      add\n        /* \"#utility.yul\":19787:19813   */\n      swap1\n      pop\n        /* \"#utility.yul\":19823:19894   */\n      tag_417\n        /* \"#utility.yul\":19891:19892   */\n      0x00\n        /* \"#utility.yul\":19880:19889   */\n      dup4\n        /* \"#utility.yul\":19876:19893   */\n      add\n        /* \"#utility.yul\":19867:19873   */\n      dup7\n        /* \"#utility.yul\":19823:19894   */\n      tag_197\n      jump\t// in\n    tag_417:\n        /* \"#utility.yul\":19904:19976   */\n      tag_418\n        /* \"#utility.yul\":19972:19974   */\n      0x20\n        /* \"#utility.yul\":19961:19970   */\n      dup4\n        /* \"#utility.yul\":19957:19975   */\n      add\n        /* \"#utility.yul\":19948:19954   */\n      dup6\n        /* \"#utility.yul\":19904:19976   */\n      tag_180\n      jump\t// in\n    tag_418:\n        /* \"#utility.yul\":19986:20058   */\n      tag_419\n        /* \"#utility.yul\":20054:20056   */\n      0x40\n        /* \"#utility.yul\":20043:20052   */\n      dup4\n        /* \"#utility.yul\":20039:20057   */\n      add\n        /* \"#utility.yul\":20030:20036   */\n      dup5\n        /* \"#utility.yul\":19986:20058   */\n      tag_180\n      jump\t// in\n    tag_419:\n        /* \"#utility.yul\":19623:20065   */\n      swap5\n      swap4\n      pop\n      pop\n      pop\n      pop\n      jump\t// out\n        /* \"#utility.yul\":20071:20230   */\n    tag_213:\n        /* \"#utility.yul\":20211:20222   */\n      0x6d617463686661696c0000000000000000000000000000000000000000000000\n        /* \"#utility.yul\":20207:20208   */\n      0x00\n        /* \"#utility.yul\":20199:20205   */\n      dup3\n        /* \"#utility.yul\":20195:20209   */\n      add\n        /* \"#utility.yul\":20188:20223   */\n      mstore\n        /* \"#utility.yul\":20071:20230   */\n      pop\n      jump\t// out\n        /* \"#utility.yul\":20236:20601   */\n    tag_214:\n        /* \"#utility.yul\":20378:20381   */\n      0x00\n        /* \"#utility.yul\":20399:20465   */\n      tag_422\n        /* \"#utility.yul\":20463:20464   */\n      0x09\n        /* \"#utility.yul\":20458:20461   */\n      dup4\n        /* \"#utility.yul\":20399:20465   */\n      tag_182\n      jump\t// in\n    tag_422:\n        /* \"#utility.yul\":20392:20465   */\n      swap2\n      pop\n        /* \"#utility.yul\":20474:20567   */\n      tag_423\n        /* \"#utility.yul\":20563:20566   */\n      dup3\n        /* \"#utility.yul\":20474:20567   */\n      tag_213\n      jump\t// in\n    tag_423:\n        /* \"#utility.yul\":20592:20594   */\n      0x20\n        /* \"#utility.yul\":20587:20590   */\n      dup3\n        /* \"#utility.yul\":20583:20595   */\n      add\n        /* \"#utility.yul\":20576:20595   */\n      swap1\n      pop\n        /* \"#utility.yul\":20236:20601   */\n      swap2\n      swap1\n      pop\n      jump\t// out\n        /* \"#utility.yul\":20607:21026   */\n    tag_113:\n        /* \"#utility.yul\":20773:20777   */\n      0x00\n        /* \"#utility.yul\":20811:20813   */\n      0x20\n        /* \"#utility.yul\":20800:20809   */\n      dup3\n        /* \"#utility.yul\":20796:20814   */\n      add\n        /* \"#utility.yul\":20788:20814   */\n      swap1\n      pop\n        /* \"#utility.yul\":20860:20869   */\n      dup2\n        /* \"#utility.yul\":20854:20858   */\n      dup2\n        /* \"#utility.yul\":20850:20870   */\n      sub\n        /* \"#utility.yul\":20846:20847   */\n      0x00\n        /* \"#utility.yul\":20835:20844   */\n      dup4\n        /* \"#utility.yul\":20831:20848   */\n      add\n        /* \"#utility.yul\":20824:20871   */\n      mstore\n        /* \"#utility.yul\":20888:21019   */\n      tag_425\n        /* \"#utility.yul\":21014:21018   */\n      dup2\n        /* \"#utility.yul\":20888:21019   */\n      tag_214\n      jump\t// in\n    tag_425:\n        /* \"#utility.yul\":20880:21019   */\n      swap1\n      pop\n        /* \"#utility.yul\":20607:21026   */\n      swap2\n      swap1\n      pop\n      jump\t// out\n        /* \"#utility.yul\":21032:21202   */\n    tag_215:\n        /* \"#utility.yul\":21172:21194   */\n      0x496e73756666696369656e74207061796d656e74000000000000000000000000\n        /* \"#utility.yul\":21168:21169   */\n      0x00\n        /* \"#utility.yul\":21160:21166   */\n      dup3\n        /* \"#utility.yul\":21156:21170   */\n      add\n        /* \"#utility.yul\":21149:21195   */\n      mstore\n        /* \"#utility.yul\":21032:21202   */\n      pop\n      jump\t// out\n        /* \"#utility.yul\":21208:21574   */\n    tag_216:\n        /* \"#utility.yul\":21350:21353   */\n      0x00\n        /* \"#utility.yul\":21371:21438   */\n      tag_428\n        /* \"#utility.yul\":21435:21437   */\n      0x14\n        /* \"#utility.yul\":21430:21433   */\n      dup4\n        /* \"#utility.yul\":21371:21438   */\n      tag_182\n      jump\t// in\n    tag_428:\n        /* \"#utility.yul\":21364:21438   */\n      swap2\n      pop\n        /* \"#utility.yul\":21447:21540   */\n      tag_429\n        /* \"#utility.yul\":21536:21539   */\n      dup3\n        /* \"#utility.yul\":21447:21540   */\n      tag_215\n      jump\t// in\n    tag_429:\n        /* \"#utility.yul\":21565:21567   */\n      0x20\n        /* \"#utility.yul\":21560:21563   */\n      dup3\n        /* \"#utility.yul\":21556:21568   */\n      add\n        /* \"#utility.yul\":21549:21568   */\n      swap1\n      pop\n        /* \"#utility.yul\":21208:21574   */\n      swap2\n      swap1\n      pop\n      jump\t// out\n        /* \"#utility.yul\":21580:21999   */\n    tag_116:\n        /* \"#utility.yul\":21746:21750   */\n      0x00\n        /* \"#utility.yul\":21784:21786   */\n      0x20\n        /* \"#utility.yul\":21773:21782   */\n      dup3\n        /* \"#utility.yul\":21769:21787   */\n      add\n        /* \"#utility.yul\":21761:21787   */\n      swap1\n      pop\n        /* \"#utility.yul\":21833:21842   */\n      dup2\n        /* \"#utility.yul\":21827:21831   */\n      dup2\n        /* \"#utility.yul\":21823:21843   */\n      sub\n        /* \"#utility.yul\":21819:21820   */\n      0x00\n        /* \"#utility.yul\":21808:21817   */\n      dup4\n        /* \"#utility.yul\":21804:21821   */\n      add\n        /* \"#utility.yul\":21797:21844   */\n      mstore\n        /* \"#utility.yul\":21861:21992   */\n      tag_431\n        /* \"#utility.yul\":21987:21991   */\n      dup2\n        /* \"#utility.yul\":21861:21992   */\n      tag_216\n      jump\t// in\n    tag_431:\n        /* \"#utility.yul\":21853:21992   */\n      swap1\n      pop\n        /* \"#utility.yul\":21580:21999   */\n      swap2\n      swap1\n      pop\n      jump\t// out\n        /* \"#utility.yul\":22005:22226   */\n    tag_217:\n        /* \"#utility.yul\":22145:22179   */\n      0x4f6e6c792073656c6c65722063616e2063616c6c20746869732066756e637469\n        /* \"#utility.yul\":22141:22142   */\n      0x00\n        /* \"#utility.yul\":22133:22139   */\n      dup3\n        /* \"#utility.yul\":22129:22143   */\n      add\n        /* \"#utility.yul\":22122:22180   */\n      mstore\n        /* \"#utility.yul\":22214:22218   */\n      0x6f6e000000000000000000000000000000000000000000000000000000000000\n        /* \"#utility.yul\":22209:22211   */\n      0x20\n        /* \"#utility.yul\":22201:22207   */\n      dup3\n        /* \"#utility.yul\":22197:22212   */\n      add\n        /* \"#utility.yul\":22190:22219   */\n      mstore\n        /* \"#utility.yul\":22005:22226   */\n      pop\n      jump\t// out\n        /* \"#utility.yul\":22232:22598   */\n    tag_218:\n        /* \"#utility.yul\":22374:22377   */\n      0x00\n        /* \"#utility.yul\":22395:22462   */\n      tag_434\n        /* \"#utility.yul\":22459:22461   */\n      0x22\n        /* \"#utility.yul\":22454:22457   */\n      dup4\n        /* \"#utility.yul\":22395:22462   */\n      tag_182\n      jump\t// in\n    tag_434:\n        /* \"#utility.yul\":22388:22462   */\n      swap2\n      pop\n        /* \"#utility.yul\":22471:22564   */\n      tag_435\n        /* \"#utility.yul\":22560:22563   */\n      dup3\n        /* \"#utility.yul\":22471:22564   */\n      tag_217\n      jump\t// in\n    tag_435:\n        /* \"#utility.yul\":22589:22591   */\n      0x40\n        /* \"#utility.yul\":22584:22587   */\n      dup3\n        /* \"#utility.yul\":22580:22592   */\n      add\n        /* \"#utility.yul\":22573:22592   */\n      swap1\n      pop\n        /* \"#utility.yul\":22232:22598   */\n      swap2\n      swap1\n      pop\n      jump\t// out\n        /* \"#utility.yul\":22604:23023   */\n    tag_120:\n        /* \"#utility.yul\":22770:22774   */\n      0x00\n        /* \"#utility.yul\":22808:22810   */\n      0x20\n        /* \"#utility.yul\":22797:22806   */\n      dup3\n        /* \"#utility.yul\":22793:22811   */\n      add\n        /* \"#utility.yul\":22785:22811   */\n      swap1\n      pop\n        /* \"#utility.yul\":22857:22866   */\n      dup2\n        /* \"#utility.yul\":22851:22855   */\n      dup2\n        /* \"#utility.yul\":22847:22867   */\n      sub\n        /* \"#utility.yul\":22843:22844   */\n      0x00\n        /* \"#utility.yul\":22832:22841   */\n      dup4\n        /* \"#utility.yul\":22828:22845   */\n      add\n        /* \"#utility.yul\":22821:22868   */\n      mstore\n        /* \"#utility.yul\":22885:23016   */\n      tag_437\n        /* \"#utility.yul\":23011:23015   */\n      dup2\n        /* \"#utility.yul\":22885:23016   */\n      tag_218\n      jump\t// in\n    tag_437:\n        /* \"#utility.yul\":22877:23016   */\n      swap1\n      pop\n        /* \"#utility.yul\":22604:23023   */\n      swap2\n      swap1\n      pop\n      jump\t// out\n        /* \"#utility.yul\":23029:23361   */\n    tag_127:\n        /* \"#utility.yul\":23150:23154   */\n      0x00\n        /* \"#utility.yul\":23188:23190   */\n      0x40\n        /* \"#utility.yul\":23177:23186   */\n      dup3\n        /* \"#utility.yul\":23173:23191   */\n      add\n        /* \"#utility.yul\":23165:23191   */\n      swap1\n      pop\n        /* \"#utility.yul\":23201:23272   */\n      tag_439\n        /* \"#utility.yul\":23269:23270   */\n      0x00\n        /* \"#utility.yul\":23258:23267   */\n      dup4\n        /* \"#utility.yul\":23254:23271   */\n      add\n        /* \"#utility.yul\":23245:23251   */\n      dup6\n        /* \"#utility.yul\":23201:23272   */\n      tag_180\n      jump\t// in\n    tag_439:\n        /* \"#utility.yul\":23282:23354   */\n      tag_440\n        /* \"#utility.yul\":23350:23352   */\n      0x20\n        /* \"#utility.yul\":23339:23348   */\n      dup4\n        /* \"#utility.yul\":23335:23353   */\n      add\n        /* \"#utility.yul\":23326:23332   */\n      dup5\n        /* \"#utility.yul\":23282:23354   */\n      tag_180\n      jump\t// in\n    tag_440:\n        /* \"#utility.yul\":23029:23361   */\n      swap4\n      swap3\n      pop\n      pop\n      pop\n      jump\t// out\n        /* \"#utility.yul\":23367:23544   */\n    tag_219:\n        /* \"#utility.yul\":23507:23536   */\n      0x50726f78792077616c6c657420616c7265616479206578697374730000000000\n        /* \"#utility.yul\":23503:23504   */\n      0x00\n        /* \"#utility.yul\":23495:23501   */\n      dup3\n        /* \"#utility.yul\":23491:23505   */\n      add\n        /* \"#utility.yul\":23484:23537   */\n      mstore\n        /* \"#utility.yul\":23367:23544   */\n      pop\n      jump\t// out\n        /* \"#utility.yul\":23550:23916   */\n    tag_220:\n        /* \"#utility.yul\":23692:23695   */\n      0x00\n        /* \"#utility.yul\":23713:23780   */\n      tag_443\n        /* \"#utility.yul\":23777:23779   */\n      0x1b\n        /* \"#utility.yul\":23772:23775   */\n      dup4\n        /* \"#utility.yul\":23713:23780   */\n      tag_182\n      jump\t// in\n    tag_443:\n        /* \"#utility.yul\":23706:23780   */\n      swap2\n      pop\n        /* \"#utility.yul\":23789:23882   */\n      tag_444\n        /* \"#utility.yul\":23878:23881   */\n      dup3\n        /* \"#utility.yul\":23789:23882   */\n      tag_219\n      jump\t// in\n    tag_444:\n        /* \"#utility.yul\":23907:23909   */\n      0x20\n        /* \"#utility.yul\":23902:23905   */\n      dup3\n        /* \"#utility.yul\":23898:23910   */\n      add\n        /* \"#utility.yul\":23891:23910   */\n      swap1\n      pop\n        /* \"#utility.yul\":23550:23916   */\n      swap2\n      swap1\n      pop\n      jump\t// out\n        /* \"#utility.yul\":23922:24341   */\n    tag_132:\n        /* \"#utility.yul\":24088:24092   */\n      0x00\n        /* \"#utility.yul\":24126:24128   */\n      0x20\n        /* \"#utility.yul\":24115:24124   */\n      dup3\n        /* \"#utility.yul\":24111:24129   */\n      add\n        /* \"#utility.yul\":24103:24129   */\n      swap1\n      pop\n        /* \"#utility.yul\":24175:24184   */\n      dup2\n        /* \"#utility.yul\":24169:24173   */\n      dup2\n        /* \"#utility.yul\":24165:24185   */\n      sub\n        /* \"#utility.yul\":24161:24162   */\n      0x00\n        /* \"#utility.yul\":24150:24159   */\n      dup4\n        /* \"#utility.yul\":24146:24163   */\n      add\n        /* \"#utility.yul\":24139:24186   */\n      mstore\n        /* \"#utility.yul\":24203:24334   */\n      tag_446\n        /* \"#utility.yul\":24329:24333   */\n      dup2\n        /* \"#utility.yul\":24203:24334   */\n      tag_220\n      jump\t// in\n    tag_446:\n        /* \"#utility.yul\":24195:24334   */\n      swap1\n      pop\n        /* \"#utility.yul\":23922:24341   */\n      swap2\n      swap1\n      pop\n      jump\t// out\n        /* \"#utility.yul\":24347:24757   */\n    tag_144:\n        /* \"#utility.yul\":24387:24394   */\n      0x00\n        /* \"#utility.yul\":24410:24430   */\n      tag_448\n        /* \"#utility.yul\":24428:24429   */\n      dup3\n        /* \"#utility.yul\":24410:24430   */\n      tag_167\n      jump\t// in\n    tag_448:\n        /* \"#utility.yul\":24405:24430   */\n      swap2\n      pop\n        /* \"#utility.yul\":24444:24464   */\n      tag_449\n        /* \"#utility.yul\":24462:24463   */\n      dup4\n        /* \"#utility.yul\":24444:24464   */\n      tag_167\n      jump\t// in\n    tag_449:\n        /* \"#utility.yul\":24439:24464   */\n      swap3\n      pop\n        /* \"#utility.yul\":24499:24500   */\n      dup3\n        /* \"#utility.yul\":24496:24497   */\n      dup3\n        /* \"#utility.yul\":24492:24501   */\n      mul\n        /* \"#utility.yul\":24521:24551   */\n      tag_450\n        /* \"#utility.yul\":24539:24550   */\n      dup2\n        /* \"#utility.yul\":24521:24551   */\n      tag_167\n      jump\t// in\n    tag_450:\n        /* \"#utility.yul\":24510:24551   */\n      swap2\n      pop\n        /* \"#utility.yul\":24700:24701   */\n      dup3\n        /* \"#utility.yul\":24691:24698   */\n      dup3\n        /* \"#utility.yul\":24687:24702   */\n      div\n        /* \"#utility.yul\":24684:24685   */\n      dup5\n        /* \"#utility.yul\":24681:24703   */\n      eq\n        /* \"#utility.yul\":24661:24662   */\n      dup4\n        /* \"#utility.yul\":24654:24663   */\n      iszero\n        /* \"#utility.yul\":24634:24717   */\n      or\n        /* \"#utility.yul\":24611:24750   */\n      tag_451\n      jumpi\n        /* \"#utility.yul\":24730:24748   */\n      tag_452\n      tag_207\n      jump\t// in\n    tag_452:\n        /* \"#utility.yul\":24611:24750   */\n    tag_451:\n        /* \"#utility.yul\":24395:24757   */\n      pop\n        /* \"#utility.yul\":24347:24757   */\n      swap3\n      swap2\n      pop\n      pop\n      jump\t// out\n        /* \"#utility.yul\":24763:24943   */\n    tag_221:\n        /* \"#utility.yul\":24811:24888   */\n      0x4e487b7100000000000000000000000000000000000000000000000000000000\n        /* \"#utility.yul\":24808:24809   */\n      0x00\n        /* \"#utility.yul\":24801:24889   */\n      mstore\n        /* \"#utility.yul\":24908:24912   */\n      0x12\n        /* \"#utility.yul\":24905:24906   */\n      0x04\n        /* \"#utility.yul\":24898:24913   */\n      mstore\n        /* \"#utility.yul\":24932:24936   */\n      0x24\n        /* \"#utility.yul\":24929:24930   */\n      0x00\n        /* \"#utility.yul\":24922:24937   */\n      revert\n        /* \"#utility.yul\":24949:25134   */\n    tag_147:\n        /* \"#utility.yul\":24989:24990   */\n      0x00\n        /* \"#utility.yul\":25006:25026   */\n      tag_455\n        /* \"#utility.yul\":25024:25025   */\n      dup3\n        /* \"#utility.yul\":25006:25026   */\n      tag_167\n      jump\t// in\n    tag_455:\n        /* \"#utility.yul\":25001:25026   */\n      swap2\n      pop\n        /* \"#utility.yul\":25040:25060   */\n      tag_456\n        /* \"#utility.yul\":25058:25059   */\n      dup4\n        /* \"#utility.yul\":25040:25060   */\n      tag_167\n      jump\t// in\n    tag_456:\n        /* \"#utility.yul\":25035:25060   */\n      swap3\n      pop\n        /* \"#utility.yul\":25079:25080   */\n      dup3\n        /* \"#utility.yul\":25069:25104   */\n      tag_457\n      jumpi\n        /* \"#utility.yul\":25084:25102   */\n      tag_458\n      tag_221\n      jump\t// in\n    tag_458:\n        /* \"#utility.yul\":25069:25104   */\n    tag_457:\n        /* \"#utility.yul\":25126:25127   */\n      dup3\n        /* \"#utility.yul\":25123:25124   */\n      dup3\n        /* \"#utility.yul\":25119:25128   */\n      div\n        /* \"#utility.yul\":25114:25128   */\n      swap1\n      pop\n        /* \"#utility.yul\":24949:25134   */\n      swap3\n      swap2\n      pop\n      pop\n      jump\t// out\n        /* \"#utility.yul\":25140:25517   */\n    tag_150:\n        /* \"#utility.yul\":25285:25289   */\n      0x00\n        /* \"#utility.yul\":25323:25325   */\n      0x20\n        /* \"#utility.yul\":25312:25321   */\n      dup3\n        /* \"#utility.yul\":25308:25326   */\n      add\n        /* \"#utility.yul\":25300:25326   */\n      swap1\n      pop\n        /* \"#utility.yul\":25372:25381   */\n      dup2\n        /* \"#utility.yul\":25366:25370   */\n      dup2\n        /* \"#utility.yul\":25362:25382   */\n      sub\n        /* \"#utility.yul\":25358:25359   */\n      0x00\n        /* \"#utility.yul\":25347:25356   */\n      dup4\n        /* \"#utility.yul\":25343:25360   */\n      add\n        /* \"#utility.yul\":25336:25383   */\n      mstore\n        /* \"#utility.yul\":25400:25510   */\n      tag_460\n        /* \"#utility.yul\":25505:25509   */\n      dup2\n        /* \"#utility.yul\":25496:25502   */\n      dup5\n        /* \"#utility.yul\":25400:25510   */\n      tag_212\n      jump\t// in\n    tag_460:\n        /* \"#utility.yul\":25392:25510   */\n      swap1\n      pop\n        /* \"#utility.yul\":25140:25517   */\n      swap3\n      swap2\n      pop\n      pop\n      jump\t// out\n    stop\n\n    sub_0: assembly {\n            /* \"NFT_market_contract.sol\":9333:13423  contract ProxyWallet {... */\n          mstore(0x40, 0x80)\n            /* \"NFT_market_contract.sol\":9844:9913  constructor(address _owner) payable {... */\n          mload(0x40)\n          sub(codesize, bytecodeSize)\n          dup1\n          bytecodeSize\n          dup4\n          codecopy\n          dup2\n          dup2\n          add\n          0x40\n          mstore\n          dup2\n          add\n          swap1\n          tag_1\n          swap2\n          swap1\n          tag_2\n          jump\t// in\n        tag_1:\n            /* \"NFT_market_contract.sol\":9899:9905  _owner */\n          dup1\n            /* \"NFT_market_contract.sol\":9891:9896  owner */\n          0x00\n          dup1\n            /* \"NFT_market_contract.sol\":9891:9905  owner = _owner */\n          0x0100\n          exp\n          dup2\n          sload\n          dup2\n          0xffffffffffffffffffffffffffffffffffffffff\n          mul\n          not\n          and\n          swap1\n          dup4\n          0xffffffffffffffffffffffffffffffffffffffff\n          and\n          mul\n          or\n          swap1\n          sstore\n          pop\n            /* \"NFT_market_contract.sol\":9844:9913  constructor(address _owner) payable {... */\n          pop\n            /* \"NFT_market_contract.sol\":9333:13423  contract ProxyWallet {... */\n          jump(tag_5)\n            /* \"#utility.yul\":88:205   */\n        tag_7:\n            /* \"#utility.yul\":197:198   */\n          0x00\n            /* \"#utility.yul\":194:195   */\n          dup1\n            /* \"#utility.yul\":187:199   */\n          revert\n            /* \"#utility.yul\":334:460   */\n        tag_9:\n            /* \"#utility.yul\":371:378   */\n          0x00\n            /* \"#utility.yul\":411:453   */\n          0xffffffffffffffffffffffffffffffffffffffff\n            /* \"#utility.yul\":404:409   */\n          dup3\n            /* \"#utility.yul\":400:454   */\n          and\n            /* \"#utility.yul\":389:454   */\n          swap1\n          pop\n            /* \"#utility.yul\":334:460   */\n          swap2\n          swap1\n          pop\n          jump\t// out\n            /* \"#utility.yul\":466:562   */\n        tag_10:\n            /* \"#utility.yul\":503:510   */\n          0x00\n            /* \"#utility.yul\":532:556   */\n          tag_19\n            /* \"#utility.yul\":550:555   */\n          dup3\n            /* \"#utility.yul\":532:556   */\n          tag_9\n          jump\t// in\n        tag_19:\n            /* \"#utility.yul\":521:556   */\n          swap1\n          pop\n            /* \"#utility.yul\":466:562   */\n          swap2\n          swap1\n          pop\n          jump\t// out\n            /* \"#utility.yul\":568:690   */\n        tag_11:\n            /* \"#utility.yul\":641:665   */\n          tag_21\n            /* \"#utility.yul\":659:664   */\n          dup2\n            /* \"#utility.yul\":641:665   */\n          tag_10\n          jump\t// in\n        tag_21:\n            /* \"#utility.yul\":634:639   */\n          dup2\n            /* \"#utility.yul\":631:666   */\n          eq\n            /* \"#utility.yul\":621:684   */\n          tag_22\n          jumpi\n            /* \"#utility.yul\":680:681   */\n          0x00\n            /* \"#utility.yul\":677:678   */\n          dup1\n            /* \"#utility.yul\":670:682   */\n          revert\n            /* \"#utility.yul\":621:684   */\n        tag_22:\n            /* \"#utility.yul\":568:690   */\n          pop\n          jump\t// out\n            /* \"#utility.yul\":696:839   */\n        tag_12:\n            /* \"#utility.yul\":753:758   */\n          0x00\n            /* \"#utility.yul\":784:790   */\n          dup2\n            /* \"#utility.yul\":778:791   */\n          mload\n            /* \"#utility.yul\":769:791   */\n          swap1\n          pop\n            /* \"#utility.yul\":800:833   */\n          tag_24\n            /* \"#utility.yul\":827:832   */\n          dup2\n            /* \"#utility.yul\":800:833   */\n          tag_11\n          jump\t// in\n        tag_24:\n            /* \"#utility.yul\":696:839   */\n          swap3\n          swap2\n          pop\n          pop\n          jump\t// out\n            /* \"#utility.yul\":845:1196   */\n        tag_2:\n            /* \"#utility.yul\":915:921   */\n          0x00\n            /* \"#utility.yul\":964:966   */\n          0x20\n            /* \"#utility.yul\":952:961   */\n          dup3\n            /* \"#utility.yul\":943:950   */\n          dup5\n            /* \"#utility.yul\":939:962   */\n          sub\n            /* \"#utility.yul\":935:967   */\n          slt\n            /* \"#utility.yul\":932:1051   */\n          iszero\n          tag_26\n          jumpi\n            /* \"#utility.yul\":970:1049   */\n          tag_27\n          tag_7\n          jump\t// in\n        tag_27:\n            /* \"#utility.yul\":932:1051   */\n        tag_26:\n            /* \"#utility.yul\":1090:1091   */\n          0x00\n            /* \"#utility.yul\":1115:1179   */\n          tag_28\n            /* \"#utility.yul\":1171:1178   */\n          dup5\n            /* \"#utility.yul\":1162:1168   */\n          dup3\n            /* \"#utility.yul\":1151:1160   */\n          dup6\n            /* \"#utility.yul\":1147:1169   */\n          add\n            /* \"#utility.yul\":1115:1179   */\n          tag_12\n          jump\t// in\n        tag_28:\n            /* \"#utility.yul\":1105:1179   */\n          swap2\n          pop\n            /* \"#utility.yul\":1061:1189   */\n          pop\n            /* \"#utility.yul\":845:1196   */\n          swap3\n          swap2\n          pop\n          pop\n          jump\t// out\n            /* \"NFT_market_contract.sol\":9333:13423  contract ProxyWallet {... */\n        tag_5:\n          dataSize(sub_0)\n          dup1\n          dataOffset(sub_0)\n          0x00\n          codecopy\n          0x00\n          return\n        stop\n\n        sub_0: assembly {\n                /* \"NFT_market_contract.sol\":9333:13423  contract ProxyWallet {... */\n              mstore(0x40, 0x80)\n              jumpi(tag_1, lt(calldatasize, 0x04))\n              shr(0xe0, calldataload(0x00))\n              dup1\n              0x8eb6a489\n              eq\n              tag_2\n              jumpi\n              dup1\n              0x9b3f3f1a\n              eq\n              tag_3\n              jumpi\n              dup1\n              0xc04d75dd\n              eq\n              tag_4\n              jumpi\n              dup1\n              0xeb41850d\n              eq\n              tag_5\n              jumpi\n            tag_1:\n              0x00\n              dup1\n              revert\n                /* \"NFT_market_contract.sol\":9469:9510  mapping(bytes32 => bool) public IsInvalid */\n            tag_2:\n              callvalue\n              dup1\n              iszero\n              tag_6\n              jumpi\n              0x00\n              dup1\n              revert\n            tag_6:\n              pop\n              tag_7\n              0x04\n              dup1\n              calldatasize\n              sub\n              dup2\n              add\n              swap1\n              tag_8\n              swap2\n              swap1\n              tag_9\n              jump\t// in\n            tag_8:\n              tag_10\n              jump\t// in\n            tag_7:\n              mload(0x40)\n              tag_11\n              swap2\n              swap1\n              tag_12\n              jump\t// in\n            tag_11:\n              mload(0x40)\n              dup1\n              swap2\n              sub\n              swap1\n              return\n                /* \"NFT_market_contract.sol\":11560:12241  function cancelOrder(SellOrder memory sellOrder) public {... */\n            tag_3:\n              callvalue\n              dup1\n              iszero\n              tag_13\n              jumpi\n              0x00\n              dup1\n              revert\n            tag_13:\n              pop\n              tag_14\n              0x04\n              dup1\n              calldatasize\n              sub\n              dup2\n              add\n              swap1\n              tag_15\n              swap2\n              swap1\n              tag_16\n              jump\t// in\n            tag_15:\n              tag_17\n              jump\t// in\n            tag_14:\n              stop\n                /* \"NFT_market_contract.sol\":10248:11532  function AtomicTx(... */\n            tag_4:\n              tag_18\n              0x04\n              dup1\n              calldatasize\n              sub\n              dup2\n              add\n              swap1\n              tag_19\n              swap2\n              swap1\n              tag_20\n              jump\t// in\n            tag_19:\n              tag_21\n              jump\t// in\n            tag_18:\n              stop\n                /* \"NFT_market_contract.sol\":10124:10240  function isOrderInvalid(bytes32 orderHash) public view returns (bool) {... */\n            tag_5:\n              callvalue\n              dup1\n              iszero\n              tag_22\n              jumpi\n              0x00\n              dup1\n              revert\n            tag_22:\n              pop\n              tag_23\n              0x04\n              dup1\n              calldatasize\n              sub\n              dup2\n              add\n              swap1\n              tag_24\n              swap2\n              swap1\n              tag_9\n              jump\t// in\n            tag_24:\n              tag_25\n              jump\t// in\n            tag_23:\n              mload(0x40)\n              tag_26\n              swap2\n              swap1\n              tag_12\n              jump\t// in\n            tag_26:\n              mload(0x40)\n              dup1\n              swap2\n              sub\n              swap1\n              return\n                /* \"NFT_market_contract.sol\":9469:9510  mapping(bytes32 => bool) public IsInvalid */\n            tag_10:\n              mstore(0x20, 0x01)\n              dup1\n              0x00\n              mstore\n              keccak256(0x00, 0x40)\n              0x00\n              swap2\n              pop\n              sload\n              swap1\n              0x0100\n              exp\n              swap1\n              div\n              0xff\n              and\n              dup2\n              jump\t// out\n                /* \"NFT_market_contract.sol\":11560:12241  function cancelOrder(SellOrder memory sellOrder) public {... */\n            tag_17:\n                /* \"NFT_market_contract.sol\":11627:11639  bytes32 Hash */\n              0x00\n                /* \"NFT_market_contract.sol\":11701:11710  sellOrder */\n              dup2\n                /* \"NFT_market_contract.sol\":11701:11717  sellOrder.seller */\n              0x00\n              add\n              mload\n                /* \"NFT_market_contract.sol\":11736:11745  sellOrder */\n              dup3\n                /* \"NFT_market_contract.sol\":11736:11756  sellOrder.contractID */\n              0x20\n              add\n              mload\n                /* \"NFT_market_contract.sol\":11775:11784  sellOrder */\n              dup4\n                /* \"NFT_market_contract.sol\":11775:11792  sellOrder.tokenID */\n              0x40\n              add\n              mload\n                /* \"NFT_market_contract.sol\":11811:11820  sellOrder */\n              dup5\n                /* \"NFT_market_contract.sol\":11811:11826  sellOrder.price */\n              0x60\n              add\n              mload\n                /* \"NFT_market_contract.sol\":11845:11854  sellOrder */\n              dup6\n                /* \"NFT_market_contract.sol\":11845:11869  sellOrder.expirationTime */\n              0xa0\n              add\n              mload\n                /* \"NFT_market_contract.sol\":11888:11897  sellOrder */\n              dup7\n                /* \"NFT_market_contract.sol\":11888:11903  sellOrder.nonce */\n              0xc0\n              add\n              mload\n                /* \"NFT_market_contract.sol\":11666:11918  abi.encodePacked(... */\n              add(0x20, mload(0x40))\n              tag_28\n              swap7\n              swap6\n              swap5\n              swap4\n              swap3\n              swap2\n              swap1\n              tag_29\n              jump\t// in\n            tag_28:\n              mload(0x40)\n              0x20\n              dup2\n              dup4\n              sub\n              sub\n              dup2\n              mstore\n              swap1\n              0x40\n              mstore\n                /* \"NFT_market_contract.sol\":11642:11929  keccak256(... */\n              dup1\n              mload\n              swap1\n              0x20\n              add\n              keccak256\n                /* \"NFT_market_contract.sol\":11627:11929  bytes32 Hash = keccak256(... */\n              swap1\n              pop\n                /* \"NFT_market_contract.sol\":11942:11959  bytes32 OrderHash */\n              0x00\n                /* \"NFT_market_contract.sol\":12039:12043  Hash */\n              dup2\n                /* \"NFT_market_contract.sol\":11986:12044  abi.encodePacked(\"\\x19Ethereum Signed Message:\\n32\", Hash) */\n              add(0x20, mload(0x40))\n              tag_30\n              swap2\n              swap1\n              tag_31\n              jump\t// in\n            tag_30:\n              mload(0x40)\n              0x20\n              dup2\n              dup4\n              sub\n              sub\n              dup2\n              mstore\n              swap1\n              0x40\n              mstore\n                /* \"NFT_market_contract.sol\":11962:12055  keccak256(... */\n              dup1\n              mload\n              swap1\n              0x20\n              add\n              keccak256\n                /* \"NFT_market_contract.sol\":11942:12055  bytes32 OrderHash = keccak256(... */\n              swap1\n              pop\n                /* \"NFT_market_contract.sol\":12122:12131  sellOrder */\n              dup3\n                /* \"NFT_market_contract.sol\":12122:12138  sellOrder.seller */\n              0x00\n              add\n              mload\n                /* \"NFT_market_contract.sol\":12073:12138  recoverSigner(OrderHash, sellOrder.signature) == sellOrder.seller */\n              0xffffffffffffffffffffffffffffffffffffffff\n              and\n                /* \"NFT_market_contract.sol\":12073:12118  recoverSigner(OrderHash, sellOrder.signature) */\n              tag_32\n                /* \"NFT_market_contract.sol\":12087:12096  OrderHash */\n              dup3\n                /* \"NFT_market_contract.sol\":12098:12107  sellOrder */\n              dup6\n                /* \"NFT_market_contract.sol\":12098:12117  sellOrder.signature */\n              0x80\n              add\n              mload\n                /* \"NFT_market_contract.sol\":12073:12086  recoverSigner */\n              tag_33\n                /* \"NFT_market_contract.sol\":12073:12118  recoverSigner(OrderHash, sellOrder.signature) */\n              jump\t// in\n            tag_32:\n                /* \"NFT_market_contract.sol\":12073:12138  recoverSigner(OrderHash, sellOrder.signature) == sellOrder.seller */\n              0xffffffffffffffffffffffffffffffffffffffff\n              and\n              eq\n                /* \"NFT_market_contract.sol\":12065:12159  require(recoverSigner(OrderHash, sellOrder.signature) == sellOrder.seller,\"Invalid signature\") */\n              tag_34\n              jumpi\n              mload(0x40)\n              0x08c379a000000000000000000000000000000000000000000000000000000000\n              dup2\n              mstore\n              0x04\n              add\n              tag_35\n              swap1\n              tag_36\n              jump\t// in\n            tag_35:\n              mload(0x40)\n              dup1\n              swap2\n              sub\n              swap1\n              revert\n            tag_34:\n                /* \"NFT_market_contract.sol\":12209:12233  markOrderCancelled(Hash) */\n              tag_37\n                /* \"NFT_market_contract.sol\":12228:12232  Hash */\n              dup3\n                /* \"NFT_market_contract.sol\":12209:12227  markOrderCancelled */\n              tag_38\n                /* \"NFT_market_contract.sol\":12209:12233  markOrderCancelled(Hash) */\n              jump\t// in\n            tag_37:\n                /* \"NFT_market_contract.sol\":11616:12241  {... */\n              pop\n              pop\n                /* \"NFT_market_contract.sol\":11560:12241  function cancelOrder(SellOrder memory sellOrder) public {... */\n              pop\n              jump\t// out\n                /* \"NFT_market_contract.sol\":10248:11532  function AtomicTx(... */\n            tag_21:\n                /* \"NFT_market_contract.sol\":10360:10372  bytes32 Hash */\n              0x00\n                /* \"NFT_market_contract.sol\":10434:10443  sellOrder */\n              dup3\n                /* \"NFT_market_contract.sol\":10434:10450  sellOrder.seller */\n              0x00\n              add\n              mload\n                /* \"NFT_market_contract.sol\":10469:10478  sellOrder */\n              dup4\n                /* \"NFT_market_contract.sol\":10469:10489  sellOrder.contractID */\n              0x20\n              add\n              mload\n                /* \"NFT_market_contract.sol\":10508:10517  sellOrder */\n              dup5\n                /* \"NFT_market_contract.sol\":10508:10525  sellOrder.tokenID */\n              0x40\n              add\n              mload\n                /* \"NFT_market_contract.sol\":10544:10553  sellOrder */\n              dup6\n                /* \"NFT_market_contract.sol\":10544:10559  sellOrder.price */\n              0x60\n              add\n              mload\n                /* \"NFT_market_contract.sol\":10578:10587  sellOrder */\n              dup7\n                /* \"NFT_market_contract.sol\":10578:10602  sellOrder.expirationTime */\n              0xa0\n              add\n              mload\n                /* \"NFT_market_contract.sol\":10621:10630  sellOrder */\n              dup8\n                /* \"NFT_market_contract.sol\":10621:10636  sellOrder.nonce */\n              0xc0\n              add\n              mload\n                /* \"NFT_market_contract.sol\":10399:10651  abi.encodePacked(... */\n              add(0x20, mload(0x40))\n              tag_40\n              swap7\n              swap6\n              swap5\n              swap4\n              swap3\n              swap2\n              swap1\n              tag_29\n              jump\t// in\n            tag_40:\n              mload(0x40)\n              0x20\n              dup2\n              dup4\n              sub\n              sub\n              dup2\n              mstore\n              swap1\n              0x40\n              mstore\n                /* \"NFT_market_contract.sol\":10375:10662  keccak256(... */\n              dup1\n              mload\n              swap1\n              0x20\n              add\n              keccak256\n                /* \"NFT_market_contract.sol\":10360:10662  bytes32 Hash = keccak256(... */\n              swap1\n              pop\n                /* \"NFT_market_contract.sol\":10724:10733  IsInvalid */\n              0x01\n                /* \"NFT_market_contract.sol\":10724:10739  IsInvalid[Hash] */\n              0x00\n                /* \"NFT_market_contract.sol\":10734:10738  Hash */\n              dup3\n                /* \"NFT_market_contract.sol\":10724:10739  IsInvalid[Hash] */\n              dup2\n              mstore\n              0x20\n              add\n              swap1\n              dup2\n              mstore\n              0x20\n              add\n              0x00\n              keccak256\n              0x00\n              swap1\n              sload\n              swap1\n              0x0100\n              exp\n              swap1\n              div\n              0xff\n              and\n                /* \"NFT_market_contract.sol\":10723:10739  !IsInvalid[Hash] */\n              iszero\n                /* \"NFT_market_contract.sol\":10715:10763  require(!IsInvalid[Hash], \"Order has been used\") */\n              tag_41\n              jumpi\n              mload(0x40)\n              0x08c379a000000000000000000000000000000000000000000000000000000000\n              dup2\n              mstore\n              0x04\n              add\n              tag_42\n              swap1\n              tag_43\n              jump\t// in\n            tag_42:\n              mload(0x40)\n              dup1\n              swap2\n              sub\n              swap1\n              revert\n            tag_41:\n                /* \"NFT_market_contract.sol\":10822:11111  verifySignature(... */\n              tag_44\n                /* \"NFT_market_contract.sol\":10856:10865  sellOrder */\n              dup4\n                /* \"NFT_market_contract.sol\":10856:10872  sellOrder.seller */\n              0x00\n              add\n              mload\n                /* \"NFT_market_contract.sol\":10891:10900  sellOrder */\n              dup5\n                /* \"NFT_market_contract.sol\":10891:10911  sellOrder.contractID */\n              0x20\n              add\n              mload\n                /* \"NFT_market_contract.sol\":10930:10939  sellOrder */\n              dup6\n                /* \"NFT_market_contract.sol\":10930:10947  sellOrder.tokenID */\n              0x40\n              add\n              mload\n                /* \"NFT_market_contract.sol\":10966:10975  sellOrder */\n              dup7\n                /* \"NFT_market_contract.sol\":10966:10981  sellOrder.price */\n              0x60\n              add\n              mload\n                /* \"NFT_market_contract.sol\":11000:11009  sellOrder */\n              dup8\n                /* \"NFT_market_contract.sol\":11000:11019  sellOrder.signature */\n              0x80\n              add\n              mload\n                /* \"NFT_market_contract.sol\":11038:11047  sellOrder */\n              dup9\n                /* \"NFT_market_contract.sol\":11038:11062  sellOrder.expirationTime */\n              0xa0\n              add\n              mload\n                /* \"NFT_market_contract.sol\":11081:11090  sellOrder */\n              dup10\n                /* \"NFT_market_contract.sol\":11081:11096  sellOrder.nonce */\n              0xc0\n              add\n              mload\n                /* \"NFT_market_contract.sol\":10822:10837  verifySignature */\n              tag_45\n                /* \"NFT_market_contract.sol\":10822:11111  verifySignature(... */\n              jump\t// in\n            tag_44:\n                /* \"NFT_market_contract.sol\":10800:11156  require(... */\n              tag_46\n              jumpi\n              mload(0x40)\n              0x08c379a000000000000000000000000000000000000000000000000000000000\n              dup2\n              mstore\n              0x04\n              add\n              tag_47\n              swap1\n              tag_36\n              jump\t// in\n            tag_47:\n              mload(0x40)\n              dup1\n              swap2\n              sub\n              swap1\n              revert\n            tag_46:\n                /* \"NFT_market_contract.sol\":11259:11268  sellOrder */\n              dup3\n                /* \"NFT_market_contract.sol\":11259:11279  sellOrder.contractID */\n              0x20\n              add\n              mload\n                /* \"NFT_market_contract.sol\":11251:11293  IERC721(sellOrder.contractID).transferFrom */\n              0xffffffffffffffffffffffffffffffffffffffff\n              and\n              0x23b872dd\n                /* \"NFT_market_contract.sol\":11312:11321  sellOrder */\n              dup5\n                /* \"NFT_market_contract.sol\":11312:11328  sellOrder.seller */\n              0x00\n              add\n              mload\n                /* \"NFT_market_contract.sol\":11347:11352  buyer */\n              dup5\n                /* \"NFT_market_contract.sol\":11371:11380  sellOrder */\n              dup7\n                /* \"NFT_market_contract.sol\":11371:11388  sellOrder.tokenID */\n              0x40\n              add\n              mload\n                /* \"NFT_market_contract.sol\":11251:11403  IERC721(sellOrder.contractID).transferFrom(... */\n              mload(0x40)\n              dup5\n              0xffffffff\n              and\n              0xe0\n              shl\n              dup2\n              mstore\n              0x04\n              add\n              tag_48\n              swap4\n              swap3\n              swap2\n              swap1\n              tag_49\n              jump\t// in\n            tag_48:\n              0x00\n              mload(0x40)\n              dup1\n              dup4\n              sub\n              dup2\n              0x00\n              dup8\n              dup1\n              extcodesize\n              iszero\n              dup1\n              iszero\n              tag_50\n              jumpi\n              0x00\n              dup1\n              revert\n            tag_50:\n              pop\n              gas\n              call\n              swap3\n              pop\n              pop\n              pop\n              dup1\n              iszero\n              tag_51\n              jumpi\n              pop\n              0x01\n            tag_51:\n                /* \"NFT_market_contract.sol\":11234:11525  try... */\n              tag_52\n              jumpi\n                /* \"NFT_market_contract.sol\":11507:11514  return; */\n              pop\n              jump(tag_39)\n                /* \"NFT_market_contract.sol\":11234:11525  try... */\n            tag_52:\n                /* \"NFT_market_contract.sol\":11428:11452  markOrderCancelled(Hash) */\n              tag_57\n                /* \"NFT_market_contract.sol\":11447:11451  Hash */\n              dup2\n                /* \"NFT_market_contract.sol\":11428:11446  markOrderCancelled */\n              tag_38\n                /* \"NFT_market_contract.sol\":11428:11452  markOrderCancelled(Hash) */\n              jump\t// in\n            tag_57:\n                /* \"NFT_market_contract.sol\":11467:11474  return; */\n              pop\n                /* \"NFT_market_contract.sol\":10248:11532  function AtomicTx(... */\n            tag_39:\n              pop\n              pop\n              jump\t// out\n                /* \"NFT_market_contract.sol\":10124:10240  function isOrderInvalid(bytes32 orderHash) public view returns (bool) {... */\n            tag_25:\n                /* \"NFT_market_contract.sol\":10188:10192  bool */\n              0x00\n                /* \"NFT_market_contract.sol\":10212:10221  IsInvalid */\n              0x01\n                /* \"NFT_market_contract.sol\":10212:10232  IsInvalid[orderHash] */\n              0x00\n                /* \"NFT_market_contract.sol\":10222:10231  orderHash */\n              dup4\n                /* \"NFT_market_contract.sol\":10212:10232  IsInvalid[orderHash] */\n              dup2\n              mstore\n              0x20\n              add\n              swap1\n              dup2\n              mstore\n              0x20\n              add\n              0x00\n              keccak256\n              0x00\n              swap1\n              sload\n              swap1\n              0x0100\n              exp\n              swap1\n              div\n              0xff\n              and\n                /* \"NFT_market_contract.sol\":10205:10232  return IsInvalid[orderHash] */\n              swap1\n              pop\n                /* \"NFT_market_contract.sol\":10124:10240  function isOrderInvalid(bytes32 orderHash) public view returns (bool) {... */\n              swap2\n              swap1\n              pop\n              jump\t// out\n                /* \"NFT_market_contract.sol\":12960:13420  function recoverSigner(... */\n            tag_33:\n                /* \"NFT_market_contract.sol\":13069:13076  address */\n              0x00\n                /* \"NFT_market_contract.sol\":13089:13098  bytes32 r */\n              dup1\n                /* \"NFT_market_contract.sol\":13109:13118  bytes32 s */\n              0x00\n                /* \"NFT_market_contract.sol\":13129:13136  uint8 v */\n              dup1\n                /* \"NFT_market_contract.sol\":13199:13201  32 */\n              0x20\n                /* \"NFT_market_contract.sol\":13188:13197  signature */\n              dup6\n                /* \"NFT_market_contract.sol\":13184:13202  add(signature, 32) */\n              add\n                /* \"NFT_market_contract.sol\":13178:13203  mload(add(signature, 32)) */\n              mload\n                /* \"NFT_market_contract.sol\":13173:13203  r := mload(add(signature, 32)) */\n              swap3\n              pop\n                /* \"NFT_market_contract.sol\":13243:13245  64 */\n              0x40\n                /* \"NFT_market_contract.sol\":13232:13241  signature */\n              dup6\n                /* \"NFT_market_contract.sol\":13228:13246  add(signature, 64) */\n              add\n                /* \"NFT_market_contract.sol\":13222:13247  mload(add(signature, 64)) */\n              mload\n                /* \"NFT_market_contract.sol\":13217:13247  s := mload(add(signature, 64)) */\n              swap2\n              pop\n                /* \"NFT_market_contract.sol\":13295:13297  96 */\n              0x60\n                /* \"NFT_market_contract.sol\":13284:13293  signature */\n              dup6\n                /* \"NFT_market_contract.sol\":13280:13298  add(signature, 96) */\n              add\n                /* \"NFT_market_contract.sol\":13274:13299  mload(add(signature, 96)) */\n              mload\n                /* \"NFT_market_contract.sol\":13271:13272  0 */\n              0x00\n                /* \"NFT_market_contract.sol\":13266:13300  byte(0, mload(add(signature, 96))) */\n              byte\n                /* \"NFT_market_contract.sol\":13261:13300  v := byte(0, mload(add(signature, 96))) */\n              swap1\n              pop\n                /* \"NFT_market_contract.sol\":13331:13333  27 */\n              0x1b\n                /* \"NFT_market_contract.sol\":13327:13328  v */\n              dup2\n                /* \"NFT_market_contract.sol\":13327:13333  v < 27 */\n              0xff\n              and\n              lt\n                /* \"NFT_market_contract.sol\":13323:13369  if (v < 27) {... */\n              iszero\n              tag_60\n              jumpi\n                /* \"NFT_market_contract.sol\":13355:13357  27 */\n              0x1b\n                /* \"NFT_market_contract.sol\":13350:13357  v += 27 */\n              dup2\n              tag_61\n              swap2\n              swap1\n              tag_62\n              jump\t// in\n            tag_61:\n              swap1\n              pop\n                /* \"NFT_market_contract.sol\":13323:13369  if (v < 27) {... */\n            tag_60:\n                /* \"NFT_market_contract.sol\":13388:13412  ecrecover(hash, v, r, s) */\n              0x01\n                /* \"NFT_market_contract.sol\":13398:13402  hash */\n              dup7\n                /* \"NFT_market_contract.sol\":13404:13405  v */\n              dup3\n                /* \"NFT_market_contract.sol\":13407:13408  r */\n              dup6\n                /* \"NFT_market_contract.sol\":13410:13411  s */\n              dup6\n                /* \"NFT_market_contract.sol\":13388:13412  ecrecover(hash, v, r, s) */\n              mload(0x40)\n              0x00\n              dup2\n              mstore\n              0x20\n              add\n              0x40\n              mstore\n              mload(0x40)\n              tag_63\n              swap5\n              swap4\n              swap3\n              swap2\n              swap1\n              tag_64\n              jump\t// in\n            tag_63:\n              0x20\n              mload(0x40)\n              0x20\n              dup2\n              sub\n              swap1\n              dup1\n              dup5\n              sub\n              swap1\n              dup6\n              gas\n              staticcall\n              iszero\n              dup1\n              iszero\n              tag_66\n              jumpi\n              returndatasize\n              0x00\n              dup1\n              returndatacopy\n              revert(0x00, returndatasize)\n            tag_66:\n              pop\n              pop\n              pop\n              mload(sub(mload(0x40), 0x20))\n                /* \"NFT_market_contract.sol\":13381:13412  return ecrecover(hash, v, r, s) */\n              swap4\n              pop\n              pop\n              pop\n              pop\n                /* \"NFT_market_contract.sol\":12960:13420  function recoverSigner(... */\n              swap3\n              swap2\n              pop\n              pop\n              jump\t// out\n                /* \"NFT_market_contract.sol\":9921:10060  function markOrderCancelled(bytes32 orderHash) internal {... */\n            tag_38:\n                /* \"NFT_market_contract.sol\":10048:10052  true */\n              0x01\n                /* \"NFT_market_contract.sol\":10025:10034  IsInvalid */\n              dup1\n                /* \"NFT_market_contract.sol\":10025:10045  IsInvalid[orderHash] */\n              0x00\n                /* \"NFT_market_contract.sol\":10035:10044  orderHash */\n              dup4\n                /* \"NFT_market_contract.sol\":10025:10045  IsInvalid[orderHash] */\n              dup2\n              mstore\n              0x20\n              add\n              swap1\n              dup2\n              mstore\n              0x20\n              add\n              0x00\n              keccak256\n              0x00\n                /* \"NFT_market_contract.sol\":10025:10052  IsInvalid[orderHash] = true */\n              0x0100\n              exp\n              dup2\n              sload\n              dup2\n              0xff\n              mul\n              not\n              and\n              swap1\n              dup4\n              iszero\n              iszero\n              mul\n              or\n              swap1\n              sstore\n              pop\n                /* \"NFT_market_contract.sol\":9921:10060  function markOrderCancelled(bytes32 orderHash) internal {... */\n              pop\n              jump\t// out\n                /* \"NFT_market_contract.sol\":12249:12952  function verifySignature(... */\n            tag_45:\n                /* \"NFT_market_contract.sol\":12498:12502  bool */\n              0x00\n                /* \"NFT_market_contract.sol\":12515:12527  bytes32 hash */\n              dup1\n                /* \"NFT_market_contract.sol\":12589:12595  seller */\n              dup9\n                /* \"NFT_market_contract.sol\":12614:12624  contractID */\n              dup9\n                /* \"NFT_market_contract.sol\":12643:12650  tokenID */\n              dup9\n                /* \"NFT_market_contract.sol\":12669:12674  price */\n              dup9\n                /* \"NFT_market_contract.sol\":12693:12707  expirationTime */\n              dup8\n                /* \"NFT_market_contract.sol\":12726:12731  nonce */\n              dup8\n                /* \"NFT_market_contract.sol\":12554:12746  abi.encodePacked(... */\n              add(0x20, mload(0x40))\n              tag_69\n              swap7\n              swap6\n              swap5\n              swap4\n              swap3\n              swap2\n              swap1\n              tag_29\n              jump\t// in\n            tag_69:\n              mload(0x40)\n              0x20\n              dup2\n              dup4\n              sub\n              sub\n              dup2\n              mstore\n              swap1\n              0x40\n              mstore\n                /* \"NFT_market_contract.sol\":12530:12757  keccak256(... */\n              dup1\n              mload\n              swap1\n              0x20\n              add\n              keccak256\n                /* \"NFT_market_contract.sol\":12515:12757  bytes32 hash = keccak256(... */\n              swap1\n              pop\n                /* \"NFT_market_contract.sol\":12768:12785  bytes32 OrderHash */\n              0x00\n                /* \"NFT_market_contract.sol\":12865:12869  hash */\n              dup2\n                /* \"NFT_market_contract.sol\":12812:12870  abi.encodePacked(\"\\x19Ethereum Signed Message:\\n32\", hash) */\n              add(0x20, mload(0x40))\n              tag_70\n              swap2\n              swap1\n              tag_31\n              jump\t// in\n            tag_70:\n              mload(0x40)\n              0x20\n              dup2\n              dup4\n              sub\n              sub\n              dup2\n              mstore\n              swap1\n              0x40\n              mstore\n                /* \"NFT_market_contract.sol\":12788:12881  keccak256(... */\n              dup1\n              mload\n              swap1\n              0x20\n              add\n              keccak256\n                /* \"NFT_market_contract.sol\":12768:12881  bytes32 OrderHash = keccak256(... */\n              swap1\n              pop\n                /* \"NFT_market_contract.sol\":12938:12944  seller */\n              dup10\n                /* \"NFT_market_contract.sol\":12899:12944  recoverSigner(OrderHash, signature) == seller */\n              0xffffffffffffffffffffffffffffffffffffffff\n              and\n                /* \"NFT_market_contract.sol\":12899:12934  recoverSigner(OrderHash, signature) */\n              tag_71\n                /* \"NFT_market_contract.sol\":12913:12922  OrderHash */\n              dup3\n                /* \"NFT_market_contract.sol\":12924:12933  signature */\n              dup9\n                /* \"NFT_market_contract.sol\":12899:12912  recoverSigner */\n              tag_33\n                /* \"NFT_market_contract.sol\":12899:12934  recoverSigner(OrderHash, signature) */\n              jump\t// in\n            tag_71:\n                /* \"NFT_market_contract.sol\":12899:12944  recoverSigner(OrderHash, signature) == seller */\n              0xffffffffffffffffffffffffffffffffffffffff\n              and\n              eq\n                /* \"NFT_market_contract.sol\":12892:12944  return recoverSigner(OrderHash, signature) == seller */\n              swap3\n              pop\n              pop\n              pop\n                /* \"NFT_market_contract.sol\":12249:12952  function verifySignature(... */\n              swap8\n              swap7\n              pop\n              pop\n              pop\n              pop\n              pop\n              pop\n              pop\n              jump\t// out\n                /* \"#utility.yul\":7:82   */\n            tag_72:\n                /* \"#utility.yul\":40:46   */\n              0x00\n                /* \"#utility.yul\":73:75   */\n              0x40\n                /* \"#utility.yul\":67:76   */\n              mload\n                /* \"#utility.yul\":57:76   */\n              swap1\n              pop\n                /* \"#utility.yul\":7:82   */\n              swap1\n              jump\t// out\n                /* \"#utility.yul\":88:205   */\n            tag_73:\n                /* \"#utility.yul\":197:198   */\n              0x00\n                /* \"#utility.yul\":194:195   */\n              dup1\n                /* \"#utility.yul\":187:199   */\n              revert\n                /* \"#utility.yul\":211:328   */\n            tag_74:\n                /* \"#utility.yul\":320:321   */\n              0x00\n                /* \"#utility.yul\":317:318   */\n              dup1\n                /* \"#utility.yul\":310:322   */\n              revert\n                /* \"#utility.yul\":334:411   */\n            tag_75:\n                /* \"#utility.yul\":371:378   */\n              0x00\n                /* \"#utility.yul\":400:405   */\n              dup2\n                /* \"#utility.yul\":389:405   */\n              swap1\n              pop\n                /* \"#utility.yul\":334:411   */\n              swap2\n              swap1\n              pop\n              jump\t// out\n                /* \"#utility.yul\":417:539   */\n            tag_76:\n                /* \"#utility.yul\":490:514   */\n              tag_128\n                /* \"#utility.yul\":508:513   */\n              dup2\n                /* \"#utility.yul\":490:514   */\n              tag_75\n              jump\t// in\n            tag_128:\n                /* \"#utility.yul\":483:488   */\n              dup2\n                /* \"#utility.yul\":480:515   */\n              eq\n                /* \"#utility.yul\":470:533   */\n              tag_129\n              jumpi\n                /* \"#utility.yul\":529:530   */\n              0x00\n                /* \"#utility.yul\":526:527   */\n              dup1\n                /* \"#utility.yul\":519:531   */\n              revert\n                /* \"#utility.yul\":470:533   */\n            tag_129:\n                /* \"#utility.yul\":417:539   */\n              pop\n              jump\t// out\n                /* \"#utility.yul\":545:684   */\n            tag_77:\n                /* \"#utility.yul\":591:596   */\n              0x00\n                /* \"#utility.yul\":629:635   */\n              dup2\n                /* \"#utility.yul\":616:636   */\n              calldataload\n                /* \"#utility.yul\":607:636   */\n              swap1\n              pop\n                /* \"#utility.yul\":645:678   */\n              tag_131\n                /* \"#utility.yul\":672:677   */\n              dup2\n                /* \"#utility.yul\":645:678   */\n              tag_76\n              jump\t// in\n            tag_131:\n                /* \"#utility.yul\":545:684   */\n              swap3\n              swap2\n              pop\n              pop\n              jump\t// out\n                /* \"#utility.yul\":690:1019   */\n            tag_9:\n                /* \"#utility.yul\":749:755   */\n              0x00\n                /* \"#utility.yul\":798:800   */\n              0x20\n                /* \"#utility.yul\":786:795   */\n              dup3\n                /* \"#utility.yul\":777:784   */\n              dup5\n                /* \"#utility.yul\":773:796   */\n              sub\n                /* \"#utility.yul\":769:801   */\n              slt\n                /* \"#utility.yul\":766:885   */\n              iszero\n              tag_133\n              jumpi\n                /* \"#utility.yul\":804:883   */\n              tag_134\n              tag_73\n              jump\t// in\n            tag_134:\n                /* \"#utility.yul\":766:885   */\n            tag_133:\n                /* \"#utility.yul\":924:925   */\n              0x00\n                /* \"#utility.yul\":949:1002   */\n              tag_135\n                /* \"#utility.yul\":994:1001   */\n              dup5\n                /* \"#utility.yul\":985:991   */\n              dup3\n                /* \"#utility.yul\":974:983   */\n              dup6\n                /* \"#utility.yul\":970:992   */\n              add\n                /* \"#utility.yul\":949:1002   */\n              tag_77\n              jump\t// in\n            tag_135:\n                /* \"#utility.yul\":939:1002   */\n              swap2\n              pop\n                /* \"#utility.yul\":895:1012   */\n              pop\n                /* \"#utility.yul\":690:1019   */\n              swap3\n              swap2\n              pop\n              pop\n              jump\t// out\n                /* \"#utility.yul\":1025:1115   */\n            tag_78:\n                /* \"#utility.yul\":1059:1066   */\n              0x00\n                /* \"#utility.yul\":1102:1107   */\n              dup2\n                /* \"#utility.yul\":1095:1108   */\n              iszero\n                /* \"#utility.yul\":1088:1109   */\n              iszero\n                /* \"#utility.yul\":1077:1109   */\n              swap1\n              pop\n                /* \"#utility.yul\":1025:1115   */\n              swap2\n              swap1\n              pop\n              jump\t// out\n                /* \"#utility.yul\":1121:1230   */\n            tag_79:\n                /* \"#utility.yul\":1202:1223   */\n              tag_138\n                /* \"#utility.yul\":1217:1222   */\n              dup2\n                /* \"#utility.yul\":1202:1223   */\n              tag_78\n              jump\t// in\n            tag_138:\n                /* \"#utility.yul\":1197:1200   */\n              dup3\n                /* \"#utility.yul\":1190:1224   */\n              mstore\n                /* \"#utility.yul\":1121:1230   */\n              pop\n              pop\n              jump\t// out\n                /* \"#utility.yul\":1236:1446   */\n            tag_12:\n                /* \"#utility.yul\":1323:1327   */\n              0x00\n                /* \"#utility.yul\":1361:1363   */\n              0x20\n                /* \"#utility.yul\":1350:1359   */\n              dup3\n                /* \"#utility.yul\":1346:1364   */\n              add\n                /* \"#utility.yul\":1338:1364   */\n              swap1\n              pop\n                /* \"#utility.yul\":1374:1439   */\n              tag_140\n                /* \"#utility.yul\":1436:1437   */\n              0x00\n                /* \"#utility.yul\":1425:1434   */\n              dup4\n                /* \"#utility.yul\":1421:1438   */\n              add\n                /* \"#utility.yul\":1412:1418   */\n              dup5\n                /* \"#utility.yul\":1374:1439   */\n              tag_79\n              jump\t// in\n            tag_140:\n                /* \"#utility.yul\":1236:1446   */\n              swap3\n              swap2\n              pop\n              pop\n              jump\t// out\n                /* \"#utility.yul\":1452:1569   */\n            tag_80:\n                /* \"#utility.yul\":1561:1562   */\n              0x00\n                /* \"#utility.yul\":1558:1559   */\n              dup1\n                /* \"#utility.yul\":1551:1563   */\n              revert\n                /* \"#utility.yul\":1575:1677   */\n            tag_81:\n                /* \"#utility.yul\":1616:1622   */\n              0x00\n                /* \"#utility.yul\":1667:1669   */\n              0x1f\n                /* \"#utility.yul\":1663:1670   */\n              not\n                /* \"#utility.yul\":1658:1660   */\n              0x1f\n                /* \"#utility.yul\":1651:1656   */\n              dup4\n                /* \"#utility.yul\":1647:1661   */\n              add\n                /* \"#utility.yul\":1643:1671   */\n              and\n                /* \"#utility.yul\":1633:1671   */\n              swap1\n              pop\n                /* \"#utility.yul\":1575:1677   */\n              swap2\n              swap1\n              pop\n              jump\t// out\n                /* \"#utility.yul\":1683:1863   */\n            tag_82:\n                /* \"#utility.yul\":1731:1808   */\n              0x4e487b7100000000000000000000000000000000000000000000000000000000\n                /* \"#utility.yul\":1728:1729   */\n              0x00\n                /* \"#utility.yul\":1721:1809   */\n              mstore\n                /* \"#utility.yul\":1828:1832   */\n              0x41\n                /* \"#utility.yul\":1825:1826   */\n              0x04\n                /* \"#utility.yul\":1818:1833   */\n              mstore\n                /* \"#utility.yul\":1852:1856   */\n              0x24\n                /* \"#utility.yul\":1849:1850   */\n              0x00\n                /* \"#utility.yul\":1842:1857   */\n              revert\n                /* \"#utility.yul\":1869:2150   */\n            tag_83:\n                /* \"#utility.yul\":1952:1979   */\n              tag_145\n                /* \"#utility.yul\":1974:1978   */\n              dup3\n                /* \"#utility.yul\":1952:1979   */\n              tag_81\n              jump\t// in\n            tag_145:\n                /* \"#utility.yul\":1944:1950   */\n              dup2\n                /* \"#utility.yul\":1940:1980   */\n              add\n                /* \"#utility.yul\":2082:2088   */\n              dup2\n                /* \"#utility.yul\":2070:2080   */\n              dup2\n                /* \"#utility.yul\":2067:2089   */\n              lt\n                /* \"#utility.yul\":2046:2064   */\n              0xffffffffffffffff\n                /* \"#utility.yul\":2034:2044   */\n              dup3\n                /* \"#utility.yul\":2031:2065   */\n              gt\n                /* \"#utility.yul\":2028:2090   */\n              or\n                /* \"#utility.yul\":2025:2113   */\n              iszero\n              tag_146\n              jumpi\n                /* \"#utility.yul\":2093:2111   */\n              tag_147\n              tag_82\n              jump\t// in\n            tag_147:\n                /* \"#utility.yul\":2025:2113   */\n            tag_146:\n                /* \"#utility.yul\":2133:2143   */\n              dup1\n                /* \"#utility.yul\":2129:2131   */\n              0x40\n                /* \"#utility.yul\":2122:2144   */\n              mstore\n                /* \"#utility.yul\":1912:2150   */\n              pop\n                /* \"#utility.yul\":1869:2150   */\n              pop\n              pop\n              jump\t// out\n                /* \"#utility.yul\":2156:2285   */\n            tag_84:\n                /* \"#utility.yul\":2190:2196   */\n              0x00\n                /* \"#utility.yul\":2217:2237   */\n              tag_149\n              tag_72\n              jump\t// in\n            tag_149:\n                /* \"#utility.yul\":2207:2237   */\n              swap1\n              pop\n                /* \"#utility.yul\":2246:2279   */\n              tag_150\n                /* \"#utility.yul\":2274:2278   */\n              dup3\n                /* \"#utility.yul\":2266:2272   */\n              dup3\n                /* \"#utility.yul\":2246:2279   */\n              tag_83\n              jump\t// in\n            tag_150:\n                /* \"#utility.yul\":2156:2285   */\n              swap2\n              swap1\n              pop\n              jump\t// out\n                /* \"#utility.yul\":2291:2408   */\n            tag_85:\n                /* \"#utility.yul\":2400:2401   */\n              0x00\n                /* \"#utility.yul\":2397:2398   */\n              dup1\n                /* \"#utility.yul\":2390:2402   */\n              revert\n                /* \"#utility.yul\":2414:2540   */\n            tag_86:\n                /* \"#utility.yul\":2451:2458   */\n              0x00\n                /* \"#utility.yul\":2491:2533   */\n              0xffffffffffffffffffffffffffffffffffffffff\n                /* \"#utility.yul\":2484:2489   */\n              dup3\n                /* \"#utility.yul\":2480:2534   */\n              and\n                /* \"#utility.yul\":2469:2534   */\n              swap1\n              pop\n                /* \"#utility.yul\":2414:2540   */\n              swap2\n              swap1\n              pop\n              jump\t// out\n                /* \"#utility.yul\":2546:2642   */\n            tag_87:\n                /* \"#utility.yul\":2583:2590   */\n              0x00\n                /* \"#utility.yul\":2612:2636   */\n              tag_154\n                /* \"#utility.yul\":2630:2635   */\n              dup3\n                /* \"#utility.yul\":2612:2636   */\n              tag_86\n              jump\t// in\n            tag_154:\n                /* \"#utility.yul\":2601:2636   */\n              swap1\n              pop\n                /* \"#utility.yul\":2546:2642   */\n              swap2\n              swap1\n              pop\n              jump\t// out\n                /* \"#utility.yul\":2648:2770   */\n            tag_88:\n                /* \"#utility.yul\":2721:2745   */\n              tag_156\n                /* \"#utility.yul\":2739:2744   */\n              dup2\n                /* \"#utility.yul\":2721:2745   */\n              tag_87\n              jump\t// in\n            tag_156:\n                /* \"#utility.yul\":2714:2719   */\n              dup2\n                /* \"#utility.yul\":2711:2746   */\n              eq\n                /* \"#utility.yul\":2701:2764   */\n              tag_157\n              jumpi\n                /* \"#utility.yul\":2760:2761   */\n              0x00\n                /* \"#utility.yul\":2757:2758   */\n              dup1\n                /* \"#utility.yul\":2750:2762   */\n              revert\n                /* \"#utility.yul\":2701:2764   */\n            tag_157:\n                /* \"#utility.yul\":2648:2770   */\n              pop\n              jump\t// out\n                /* \"#utility.yul\":2776:2915   */\n            tag_89:\n                /* \"#utility.yul\":2822:2827   */\n              0x00\n                /* \"#utility.yul\":2860:2866   */\n              dup2\n                /* \"#utility.yul\":2847:2867   */\n              calldataload\n                /* \"#utility.yul\":2838:2867   */\n              swap1\n              pop\n                /* \"#utility.yul\":2876:2909   */\n              tag_159\n                /* \"#utility.yul\":2903:2908   */\n              dup2\n                /* \"#utility.yul\":2876:2909   */\n              tag_88\n              jump\t// in\n            tag_159:\n                /* \"#utility.yul\":2776:2915   */\n              swap3\n              swap2\n              pop\n              pop\n              jump\t// out\n                /* \"#utility.yul\":2921:2998   */\n            tag_90:\n                /* \"#utility.yul\":2958:2965   */\n              0x00\n                /* \"#utility.yul\":2987:2992   */\n              dup2\n                /* \"#utility.yul\":2976:2992   */\n              swap1\n              pop\n                /* \"#utility.yul\":2921:2998   */\n              swap2\n              swap1\n              pop\n              jump\t// out\n                /* \"#utility.yul\":3004:3126   */\n            tag_91:\n                /* \"#utility.yul\":3077:3101   */\n              tag_162\n                /* \"#utility.yul\":3095:3100   */\n              dup2\n                /* \"#utility.yul\":3077:3101   */\n              tag_90\n              jump\t// in\n            tag_162:\n                /* \"#utility.yul\":3070:3075   */\n              dup2\n                /* \"#utility.yul\":3067:3102   */\n              eq\n                /* \"#utility.yul\":3057:3120   */\n              tag_163\n              jumpi\n                /* \"#utility.yul\":3116:3117   */\n              0x00\n                /* \"#utility.yul\":3113:3114   */\n              dup1\n                /* \"#utility.yul\":3106:3118   */\n              revert\n                /* \"#utility.yul\":3057:3120   */\n            tag_163:\n                /* \"#utility.yul\":3004:3126   */\n              pop\n              jump\t// out\n                /* \"#utility.yul\":3132:3271   */\n            tag_92:\n                /* \"#utility.yul\":3178:3183   */\n              0x00\n                /* \"#utility.yul\":3216:3222   */\n              dup2\n                /* \"#utility.yul\":3203:3223   */\n              calldataload\n                /* \"#utility.yul\":3194:3223   */\n              swap1\n              pop\n                /* \"#utility.yul\":3232:3265   */\n              tag_165\n                /* \"#utility.yul\":3259:3264   */\n              dup2\n                /* \"#utility.yul\":3232:3265   */\n              tag_91\n              jump\t// in\n            tag_165:\n                /* \"#utility.yul\":3132:3271   */\n              swap3\n              swap2\n              pop\n              pop\n              jump\t// out\n                /* \"#utility.yul\":3277:3394   */\n            tag_93:\n                /* \"#utility.yul\":3386:3387   */\n              0x00\n                /* \"#utility.yul\":3383:3384   */\n              dup1\n                /* \"#utility.yul\":3376:3388   */\n              revert\n                /* \"#utility.yul\":3400:3517   */\n            tag_94:\n                /* \"#utility.yul\":3509:3510   */\n              0x00\n                /* \"#utility.yul\":3506:3507   */\n              dup1\n                /* \"#utility.yul\":3499:3511   */\n              revert\n                /* \"#utility.yul\":3523:3830   */\n            tag_95:\n                /* \"#utility.yul\":3584:3588   */\n              0x00\n                /* \"#utility.yul\":3674:3692   */\n              0xffffffffffffffff\n                /* \"#utility.yul\":3666:3672   */\n              dup3\n                /* \"#utility.yul\":3663:3693   */\n              gt\n                /* \"#utility.yul\":3660:3716   */\n              iszero\n              tag_169\n              jumpi\n                /* \"#utility.yul\":3696:3714   */\n              tag_170\n              tag_82\n              jump\t// in\n            tag_170:\n                /* \"#utility.yul\":3660:3716   */\n            tag_169:\n                /* \"#utility.yul\":3734:3763   */\n              tag_171\n                /* \"#utility.yul\":3756:3762   */\n              dup3\n                /* \"#utility.yul\":3734:3763   */\n              tag_81\n              jump\t// in\n            tag_171:\n                /* \"#utility.yul\":3726:3763   */\n              swap1\n              pop\n                /* \"#utility.yul\":3818:3822   */\n              0x20\n                /* \"#utility.yul\":3812:3816   */\n              dup2\n                /* \"#utility.yul\":3808:3823   */\n              add\n                /* \"#utility.yul\":3800:3823   */\n              swap1\n              pop\n                /* \"#utility.yul\":3523:3830   */\n              swap2\n              swap1\n              pop\n              jump\t// out\n                /* \"#utility.yul\":3836:3982   */\n            tag_96:\n                /* \"#utility.yul\":3933:3939   */\n              dup3\n                /* \"#utility.yul\":3928:3931   */\n              dup2\n                /* \"#utility.yul\":3923:3926   */\n              dup4\n                /* \"#utility.yul\":3910:3940   */\n              calldatacopy\n                /* \"#utility.yul\":3974:3975   */\n              0x00\n                /* \"#utility.yul\":3965:3971   */\n              dup4\n                /* \"#utility.yul\":3960:3963   */\n              dup4\n                /* \"#utility.yul\":3956:3972   */\n              add\n                /* \"#utility.yul\":3949:3976   */\n              mstore\n                /* \"#utility.yul\":3836:3982   */\n              pop\n              pop\n              pop\n              jump\t// out\n                /* \"#utility.yul\":3988:4411   */\n            tag_97:\n                /* \"#utility.yul\":4065:4070   */\n              0x00\n                /* \"#utility.yul\":4090:4155   */\n              tag_174\n                /* \"#utility.yul\":4106:4154   */\n              tag_175\n                /* \"#utility.yul\":4147:4153   */\n              dup5\n                /* \"#utility.yul\":4106:4154   */\n              tag_95\n              jump\t// in\n            tag_175:\n                /* \"#utility.yul\":4090:4155   */\n              tag_84\n              jump\t// in\n            tag_174:\n                /* \"#utility.yul\":4081:4155   */\n              swap1\n              pop\n                /* \"#utility.yul\":4178:4184   */\n              dup3\n                /* \"#utility.yul\":4171:4176   */\n              dup2\n                /* \"#utility.yul\":4164:4185   */\n              mstore\n                /* \"#utility.yul\":4216:4220   */\n              0x20\n                /* \"#utility.yul\":4209:4214   */\n              dup2\n                /* \"#utility.yul\":4205:4221   */\n              add\n                /* \"#utility.yul\":4254:4257   */\n              dup5\n                /* \"#utility.yul\":4245:4251   */\n              dup5\n                /* \"#utility.yul\":4240:4243   */\n              dup5\n                /* \"#utility.yul\":4236:4252   */\n              add\n                /* \"#utility.yul\":4233:4258   */\n              gt\n                /* \"#utility.yul\":4230:4342   */\n              iszero\n              tag_176\n              jumpi\n                /* \"#utility.yul\":4261:4340   */\n              tag_177\n              tag_94\n              jump\t// in\n            tag_177:\n                /* \"#utility.yul\":4230:4342   */\n            tag_176:\n                /* \"#utility.yul\":4351:4405   */\n              tag_178\n                /* \"#utility.yul\":4398:4404   */\n              dup5\n                /* \"#utility.yul\":4393:4396   */\n              dup3\n                /* \"#utility.yul\":4388:4391   */\n              dup6\n                /* \"#utility.yul\":4351:4405   */\n              tag_96\n              jump\t// in\n            tag_178:\n                /* \"#utility.yul\":4071:4411   */\n              pop\n                /* \"#utility.yul\":3988:4411   */\n              swap4\n              swap3\n              pop\n              pop\n              pop\n              jump\t// out\n                /* \"#utility.yul\":4430:4768   */\n            tag_98:\n                /* \"#utility.yul\":4485:4490   */\n              0x00\n                /* \"#utility.yul\":4534:4537   */\n              dup3\n                /* \"#utility.yul\":4527:4531   */\n              0x1f\n                /* \"#utility.yul\":4519:4525   */\n              dup4\n                /* \"#utility.yul\":4515:4532   */\n              add\n                /* \"#utility.yul\":4511:4538   */\n              slt\n                /* \"#utility.yul\":4501:4623   */\n              tag_180\n              jumpi\n                /* \"#utility.yul\":4542:4621   */\n              tag_181\n              tag_93\n              jump\t// in\n            tag_181:\n                /* \"#utility.yul\":4501:4623   */\n            tag_180:\n                /* \"#utility.yul\":4659:4665   */\n              dup2\n                /* \"#utility.yul\":4646:4666   */\n              calldataload\n                /* \"#utility.yul\":4684:4762   */\n              tag_182\n                /* \"#utility.yul\":4758:4761   */\n              dup5\n                /* \"#utility.yul\":4750:4756   */\n              dup3\n                /* \"#utility.yul\":4743:4747   */\n              0x20\n                /* \"#utility.yul\":4735:4741   */\n              dup7\n                /* \"#utility.yul\":4731:4748   */\n              add\n                /* \"#utility.yul\":4684:4762   */\n              tag_97\n              jump\t// in\n            tag_182:\n                /* \"#utility.yul\":4675:4762   */\n              swap2\n              pop\n                /* \"#utility.yul\":4491:4768   */\n              pop\n                /* \"#utility.yul\":4430:4768   */\n              swap3\n              swap2\n              pop\n              pop\n              jump\t// out\n                /* \"#utility.yul\":4810:6391   */\n            tag_99:\n                /* \"#utility.yul\":4886:4891   */\n              0x00\n                /* \"#utility.yul\":4930:4934   */\n              0xe0\n                /* \"#utility.yul\":4918:4927   */\n              dup3\n                /* \"#utility.yul\":4913:4916   */\n              dup5\n                /* \"#utility.yul\":4909:4928   */\n              sub\n                /* \"#utility.yul\":4905:4935   */\n              slt\n                /* \"#utility.yul\":4902:5019   */\n              iszero\n              tag_184\n              jumpi\n                /* \"#utility.yul\":4938:5017   */\n              tag_185\n              tag_80\n              jump\t// in\n            tag_185:\n                /* \"#utility.yul\":4902:5019   */\n            tag_184:\n                /* \"#utility.yul\":5037:5058   */\n              tag_186\n                /* \"#utility.yul\":5053:5057   */\n              0xe0\n                /* \"#utility.yul\":5037:5058   */\n              tag_84\n              jump\t// in\n            tag_186:\n                /* \"#utility.yul\":5028:5058   */\n              swap1\n              pop\n                /* \"#utility.yul\":5119:5120   */\n              0x00\n                /* \"#utility.yul\":5159:5208   */\n              tag_187\n                /* \"#utility.yul\":5204:5207   */\n              dup5\n                /* \"#utility.yul\":5195:5201   */\n              dup3\n                /* \"#utility.yul\":5184:5193   */\n              dup6\n                /* \"#utility.yul\":5180:5202   */\n              add\n                /* \"#utility.yul\":5159:5208   */\n              tag_89\n              jump\t// in\n            tag_187:\n                /* \"#utility.yul\":5152:5156   */\n              0x00\n                /* \"#utility.yul\":5145:5150   */\n              dup4\n                /* \"#utility.yul\":5141:5157   */\n              add\n                /* \"#utility.yul\":5134:5209   */\n              mstore\n                /* \"#utility.yul\":5068:5220   */\n              pop\n                /* \"#utility.yul\":5285:5287   */\n              0x20\n                /* \"#utility.yul\":5326:5375   */\n              tag_188\n                /* \"#utility.yul\":5371:5374   */\n              dup5\n                /* \"#utility.yul\":5362:5368   */\n              dup3\n                /* \"#utility.yul\":5351:5360   */\n              dup6\n                /* \"#utility.yul\":5347:5369   */\n              add\n                /* \"#utility.yul\":5326:5375   */\n              tag_89\n              jump\t// in\n            tag_188:\n                /* \"#utility.yul\":5319:5323   */\n              0x20\n                /* \"#utility.yul\":5312:5317   */\n              dup4\n                /* \"#utility.yul\":5308:5324   */\n              add\n                /* \"#utility.yul\":5301:5376   */\n              mstore\n                /* \"#utility.yul\":5230:5387   */\n              pop\n                /* \"#utility.yul\":5449:5451   */\n              0x40\n                /* \"#utility.yul\":5490:5539   */\n              tag_189\n                /* \"#utility.yul\":5535:5538   */\n              dup5\n                /* \"#utility.yul\":5526:5532   */\n              dup3\n                /* \"#utility.yul\":5515:5524   */\n              dup6\n                /* \"#utility.yul\":5511:5533   */\n              add\n                /* \"#utility.yul\":5490:5539   */\n              tag_92\n              jump\t// in\n            tag_189:\n                /* \"#utility.yul\":5483:5487   */\n              0x40\n                /* \"#utility.yul\":5476:5481   */\n              dup4\n                /* \"#utility.yul\":5472:5488   */\n              add\n                /* \"#utility.yul\":5465:5540   */\n              mstore\n                /* \"#utility.yul\":5397:5551   */\n              pop\n                /* \"#utility.yul\":5611:5613   */\n              0x60\n                /* \"#utility.yul\":5652:5701   */\n              tag_190\n                /* \"#utility.yul\":5697:5700   */\n              dup5\n                /* \"#utility.yul\":5688:5694   */\n              dup3\n                /* \"#utility.yul\":5677:5686   */\n              dup6\n                /* \"#utility.yul\":5673:5695   */\n              add\n                /* \"#utility.yul\":5652:5701   */\n              tag_92\n              jump\t// in\n            tag_190:\n                /* \"#utility.yul\":5645:5649   */\n              0x60\n                /* \"#utility.yul\":5638:5643   */\n              dup4\n                /* \"#utility.yul\":5634:5650   */\n              add\n                /* \"#utility.yul\":5627:5702   */\n              mstore\n                /* \"#utility.yul\":5561:5713   */\n              pop\n                /* \"#utility.yul\":5805:5808   */\n              0x80\n                /* \"#utility.yul\":5794:5803   */\n              dup3\n                /* \"#utility.yul\":5790:5809   */\n              add\n                /* \"#utility.yul\":5777:5810   */\n              calldataload\n                /* \"#utility.yul\":5837:5855   */\n              0xffffffffffffffff\n                /* \"#utility.yul\":5829:5835   */\n              dup2\n                /* \"#utility.yul\":5826:5856   */\n              gt\n                /* \"#utility.yul\":5823:5940   */\n              iszero\n              tag_191\n              jumpi\n                /* \"#utility.yul\":5859:5938   */\n              tag_192\n              tag_85\n              jump\t// in\n            tag_192:\n                /* \"#utility.yul\":5823:5940   */\n            tag_191:\n                /* \"#utility.yul\":5979:6037   */\n              tag_193\n                /* \"#utility.yul\":6033:6036   */\n              dup5\n                /* \"#utility.yul\":6024:6030   */\n              dup3\n                /* \"#utility.yul\":6013:6022   */\n              dup6\n                /* \"#utility.yul\":6009:6031   */\n              add\n                /* \"#utility.yul\":5979:6037   */\n              tag_98\n              jump\t// in\n            tag_193:\n                /* \"#utility.yul\":5972:5976   */\n              0x80\n                /* \"#utility.yul\":5965:5970   */\n              dup4\n                /* \"#utility.yul\":5961:5977   */\n              add\n                /* \"#utility.yul\":5954:6038   */\n              mstore\n                /* \"#utility.yul\":5723:6049   */\n              pop\n                /* \"#utility.yul\":6118:6121   */\n              0xa0\n                /* \"#utility.yul\":6160:6209   */\n              tag_194\n                /* \"#utility.yul\":6205:6208   */\n              dup5\n                /* \"#utility.yul\":6196:6202   */\n              dup3\n                /* \"#utility.yul\":6185:6194   */\n              dup6\n                /* \"#utility.yul\":6181:6203   */\n              add\n                /* \"#utility.yul\":6160:6209   */\n              tag_92\n              jump\t// in\n            tag_194:\n                /* \"#utility.yul\":6153:6157   */\n              0xa0\n                /* \"#utility.yul\":6146:6151   */\n              dup4\n                /* \"#utility.yul\":6142:6158   */\n              add\n                /* \"#utility.yul\":6135:6210   */\n              mstore\n                /* \"#utility.yul\":6059:6221   */\n              pop\n                /* \"#utility.yul\":6281:6284   */\n              0xc0\n                /* \"#utility.yul\":6323:6372   */\n              tag_195\n                /* \"#utility.yul\":6368:6371   */\n              dup5\n                /* \"#utility.yul\":6359:6365   */\n              dup3\n                /* \"#utility.yul\":6348:6357   */\n              dup6\n                /* \"#utility.yul\":6344:6366   */\n              add\n                /* \"#utility.yul\":6323:6372   */\n              tag_92\n              jump\t// in\n            tag_195:\n                /* \"#utility.yul\":6316:6320   */\n              0xc0\n                /* \"#utility.yul\":6309:6314   */\n              dup4\n                /* \"#utility.yul\":6305:6321   */\n              add\n                /* \"#utility.yul\":6298:6373   */\n              mstore\n                /* \"#utility.yul\":6231:6384   */\n              pop\n                /* \"#utility.yul\":4810:6391   */\n              swap3\n              swap2\n              pop\n              pop\n              jump\t// out\n                /* \"#utility.yul\":6397:6940   */\n            tag_16:\n                /* \"#utility.yul\":6483:6489   */\n              0x00\n                /* \"#utility.yul\":6532:6534   */\n              0x20\n                /* \"#utility.yul\":6520:6529   */\n              dup3\n                /* \"#utility.yul\":6511:6518   */\n              dup5\n                /* \"#utility.yul\":6507:6530   */\n              sub\n                /* \"#utility.yul\":6503:6535   */\n              slt\n                /* \"#utility.yul\":6500:6619   */\n              iszero\n              tag_197\n              jumpi\n                /* \"#utility.yul\":6538:6617   */\n              tag_198\n              tag_73\n              jump\t// in\n            tag_198:\n                /* \"#utility.yul\":6500:6619   */\n            tag_197:\n                /* \"#utility.yul\":6686:6687   */\n              0x00\n                /* \"#utility.yul\":6675:6684   */\n              dup3\n                /* \"#utility.yul\":6671:6688   */\n              add\n                /* \"#utility.yul\":6658:6689   */\n              calldataload\n                /* \"#utility.yul\":6716:6734   */\n              0xffffffffffffffff\n                /* \"#utility.yul\":6708:6714   */\n              dup2\n                /* \"#utility.yul\":6705:6735   */\n              gt\n                /* \"#utility.yul\":6702:6819   */\n              iszero\n              tag_199\n              jumpi\n                /* \"#utility.yul\":6738:6817   */\n              tag_200\n              tag_74\n              jump\t// in\n            tag_200:\n                /* \"#utility.yul\":6702:6819   */\n            tag_199:\n                /* \"#utility.yul\":6843:6923   */\n              tag_201\n                /* \"#utility.yul\":6915:6922   */\n              dup5\n                /* \"#utility.yul\":6906:6912   */\n              dup3\n                /* \"#utility.yul\":6895:6904   */\n              dup6\n                /* \"#utility.yul\":6891:6913   */\n              add\n                /* \"#utility.yul\":6843:6923   */\n              tag_99\n              jump\t// in\n            tag_201:\n                /* \"#utility.yul\":6833:6923   */\n              swap2\n              pop\n                /* \"#utility.yul\":6629:6933   */\n              pop\n                /* \"#utility.yul\":6397:6940   */\n              swap3\n              swap2\n              pop\n              pop\n              jump\t// out\n                /* \"#utility.yul\":6946:7634   */\n            tag_20:\n                /* \"#utility.yul\":7041:7047   */\n              0x00\n                /* \"#utility.yul\":7049:7055   */\n              dup1\n                /* \"#utility.yul\":7098:7100   */\n              0x40\n                /* \"#utility.yul\":7086:7095   */\n              dup4\n                /* \"#utility.yul\":7077:7084   */\n              dup6\n                /* \"#utility.yul\":7073:7096   */\n              sub\n                /* \"#utility.yul\":7069:7101   */\n              slt\n                /* \"#utility.yul\":7066:7185   */\n              iszero\n              tag_203\n              jumpi\n                /* \"#utility.yul\":7104:7183   */\n              tag_204\n              tag_73\n              jump\t// in\n            tag_204:\n                /* \"#utility.yul\":7066:7185   */\n            tag_203:\n                /* \"#utility.yul\":7252:7253   */\n              0x00\n                /* \"#utility.yul\":7241:7250   */\n              dup4\n                /* \"#utility.yul\":7237:7254   */\n              add\n                /* \"#utility.yul\":7224:7255   */\n              calldataload\n                /* \"#utility.yul\":7282:7300   */\n              0xffffffffffffffff\n                /* \"#utility.yul\":7274:7280   */\n              dup2\n                /* \"#utility.yul\":7271:7301   */\n              gt\n                /* \"#utility.yul\":7268:7385   */\n              iszero\n              tag_205\n              jumpi\n                /* \"#utility.yul\":7304:7383   */\n              tag_206\n              tag_74\n              jump\t// in\n            tag_206:\n                /* \"#utility.yul\":7268:7385   */\n            tag_205:\n                /* \"#utility.yul\":7409:7489   */\n              tag_207\n                /* \"#utility.yul\":7481:7488   */\n              dup6\n                /* \"#utility.yul\":7472:7478   */\n              dup3\n                /* \"#utility.yul\":7461:7470   */\n              dup7\n                /* \"#utility.yul\":7457:7479   */\n              add\n                /* \"#utility.yul\":7409:7489   */\n              tag_99\n              jump\t// in\n            tag_207:\n                /* \"#utility.yul\":7399:7489   */\n              swap3\n              pop\n                /* \"#utility.yul\":7195:7499   */\n              pop\n                /* \"#utility.yul\":7538:7540   */\n              0x20\n                /* \"#utility.yul\":7564:7617   */\n              tag_208\n                /* \"#utility.yul\":7609:7616   */\n              dup6\n                /* \"#utility.yul\":7600:7606   */\n              dup3\n                /* \"#utility.yul\":7589:7598   */\n              dup7\n                /* \"#utility.yul\":7585:7607   */\n              add\n                /* \"#utility.yul\":7564:7617   */\n              tag_89\n              jump\t// in\n            tag_208:\n                /* \"#utility.yul\":7554:7617   */\n              swap2\n              pop\n                /* \"#utility.yul\":7509:7627   */\n              pop\n                /* \"#utility.yul\":6946:7634   */\n              swap3\n              pop\n              swap3\n              swap1\n              pop\n              jump\t// out\n                /* \"#utility.yul\":7640:7734   */\n            tag_100:\n                /* \"#utility.yul\":7673:7681   */\n              0x00\n                /* \"#utility.yul\":7721:7726   */\n              dup2\n                /* \"#utility.yul\":7717:7719   */\n              0x60\n                /* \"#utility.yul\":7713:7727   */\n              shl\n                /* \"#utility.yul\":7692:7727   */\n              swap1\n              pop\n                /* \"#utility.yul\":7640:7734   */\n              swap2\n              swap1\n              pop\n              jump\t// out\n                /* \"#utility.yul\":7740:7834   */\n            tag_101:\n                /* \"#utility.yul\":7779:7786   */\n              0x00\n                /* \"#utility.yul\":7808:7828   */\n              tag_211\n                /* \"#utility.yul\":7822:7827   */\n              dup3\n                /* \"#utility.yul\":7808:7828   */\n              tag_100\n              jump\t// in\n            tag_211:\n                /* \"#utility.yul\":7797:7828   */\n              swap1\n              pop\n                /* \"#utility.yul\":7740:7834   */\n              swap2\n              swap1\n              pop\n              jump\t// out\n                /* \"#utility.yul\":7840:7940   */\n            tag_102:\n                /* \"#utility.yul\":7879:7886   */\n              0x00\n                /* \"#utility.yul\":7908:7934   */\n              tag_213\n                /* \"#utility.yul\":7928:7933   */\n              dup3\n                /* \"#utility.yul\":7908:7934   */\n              tag_101\n              jump\t// in\n            tag_213:\n                /* \"#utility.yul\":7897:7934   */\n              swap1\n              pop\n                /* \"#utility.yul\":7840:7940   */\n              swap2\n              swap1\n              pop\n              jump\t// out\n                /* \"#utility.yul\":7946:8103   */\n            tag_103:\n                /* \"#utility.yul\":8051:8096   */\n              tag_215\n                /* \"#utility.yul\":8071:8095   */\n              tag_216\n                /* \"#utility.yul\":8089:8094   */\n              dup3\n                /* \"#utility.yul\":8071:8095   */\n              tag_87\n              jump\t// in\n            tag_216:\n                /* \"#utility.yul\":8051:8096   */\n              tag_102\n              jump\t// in\n            tag_215:\n                /* \"#utility.yul\":8046:8049   */\n              dup3\n                /* \"#utility.yul\":8039:8097   */\n              mstore\n                /* \"#utility.yul\":7946:8103   */\n              pop\n              pop\n              jump\t// out\n                /* \"#utility.yul\":8109:8188   */\n            tag_104:\n                /* \"#utility.yul\":8148:8155   */\n              0x00\n                /* \"#utility.yul\":8177:8182   */\n              dup2\n                /* \"#utility.yul\":8166:8182   */\n              swap1\n              pop\n                /* \"#utility.yul\":8109:8188   */\n              swap2\n              swap1\n              pop\n              jump\t// out\n                /* \"#utility.yul\":8194:8351   */\n            tag_105:\n                /* \"#utility.yul\":8299:8344   */\n              tag_219\n                /* \"#utility.yul\":8319:8343   */\n              tag_220\n                /* \"#utility.yul\":8337:8342   */\n              dup3\n                /* \"#utility.yul\":8319:8343   */\n              tag_90\n              jump\t// in\n            tag_220:\n                /* \"#utility.yul\":8299:8344   */\n              tag_104\n              jump\t// in\n            tag_219:\n                /* \"#utility.yul\":8294:8297   */\n              dup3\n                /* \"#utility.yul\":8287:8345   */\n              mstore\n                /* \"#utility.yul\":8194:8351   */\n              pop\n              pop\n              jump\t// out\n                /* \"#utility.yul\":8357:9318   */\n            tag_29:\n                /* \"#utility.yul\":8609:8612   */\n              0x00\n                /* \"#utility.yul\":8624:8699   */\n              tag_222\n                /* \"#utility.yul\":8695:8698   */\n              dup3\n                /* \"#utility.yul\":8686:8692   */\n              dup10\n                /* \"#utility.yul\":8624:8699   */\n              tag_103\n              jump\t// in\n            tag_222:\n                /* \"#utility.yul\":8724:8726   */\n              0x14\n                /* \"#utility.yul\":8719:8722   */\n              dup3\n                /* \"#utility.yul\":8715:8727   */\n              add\n                /* \"#utility.yul\":8708:8727   */\n              swap2\n              pop\n                /* \"#utility.yul\":8737:8812   */\n              tag_223\n                /* \"#utility.yul\":8808:8811   */\n              dup3\n                /* \"#utility.yul\":8799:8805   */\n              dup9\n                /* \"#utility.yul\":8737:8812   */\n              tag_103\n              jump\t// in\n            tag_223:\n                /* \"#utility.yul\":8837:8839   */\n              0x14\n                /* \"#utility.yul\":8832:8835   */\n              dup3\n                /* \"#utility.yul\":8828:8840   */\n              add\n                /* \"#utility.yul\":8821:8840   */\n              swap2\n              pop\n                /* \"#utility.yul\":8850:8925   */\n              tag_224\n                /* \"#utility.yul\":8921:8924   */\n              dup3\n                /* \"#utility.yul\":8912:8918   */\n              dup8\n                /* \"#utility.yul\":8850:8925   */\n              tag_105\n              jump\t// in\n            tag_224:\n                /* \"#utility.yul\":8950:8952   */\n              0x20\n                /* \"#utility.yul\":8945:8948   */\n              dup3\n                /* \"#utility.yul\":8941:8953   */\n              add\n                /* \"#utility.yul\":8934:8953   */\n              swap2\n              pop\n                /* \"#utility.yul\":8963:9038   */\n              tag_225\n                /* \"#utility.yul\":9034:9037   */\n              dup3\n                /* \"#utility.yul\":9025:9031   */\n              dup7\n                /* \"#utility.yul\":8963:9038   */\n              tag_105\n              jump\t// in\n            tag_225:\n                /* \"#utility.yul\":9063:9065   */\n              0x20\n                /* \"#utility.yul\":9058:9061   */\n              dup3\n                /* \"#utility.yul\":9054:9066   */\n              add\n                /* \"#utility.yul\":9047:9066   */\n              swap2\n              pop\n                /* \"#utility.yul\":9076:9151   */\n              tag_226\n                /* \"#utility.yul\":9147:9150   */\n              dup3\n                /* \"#utility.yul\":9138:9144   */\n              dup6\n                /* \"#utility.yul\":9076:9151   */\n              tag_105\n              jump\t// in\n            tag_226:\n                /* \"#utility.yul\":9176:9178   */\n              0x20\n                /* \"#utility.yul\":9171:9174   */\n              dup3\n                /* \"#utility.yul\":9167:9179   */\n              add\n                /* \"#utility.yul\":9160:9179   */\n              swap2\n              pop\n                /* \"#utility.yul\":9189:9264   */\n              tag_227\n                /* \"#utility.yul\":9260:9263   */\n              dup3\n                /* \"#utility.yul\":9251:9257   */\n              dup5\n                /* \"#utility.yul\":9189:9264   */\n              tag_105\n              jump\t// in\n            tag_227:\n                /* \"#utility.yul\":9289:9291   */\n              0x20\n                /* \"#utility.yul\":9284:9287   */\n              dup3\n                /* \"#utility.yul\":9280:9292   */\n              add\n                /* \"#utility.yul\":9273:9292   */\n              swap2\n              pop\n                /* \"#utility.yul\":9309:9312   */\n              dup2\n                /* \"#utility.yul\":9302:9312   */\n              swap1\n              pop\n                /* \"#utility.yul\":8357:9318   */\n              swap8\n              swap7\n              pop\n              pop\n              pop\n              pop\n              pop\n              pop\n              pop\n              jump\t// out\n                /* \"#utility.yul\":9324:9472   */\n            tag_106:\n                /* \"#utility.yul\":9426:9437   */\n              0x00\n                /* \"#utility.yul\":9463:9466   */\n              dup2\n                /* \"#utility.yul\":9448:9466   */\n              swap1\n              pop\n                /* \"#utility.yul\":9324:9472   */\n              swap3\n              swap2\n              pop\n              pop\n              jump\t// out\n                /* \"#utility.yul\":9478:9692   */\n            tag_107:\n                /* \"#utility.yul\":9618:9684   */\n              0x19457468657265756d205369676e6564204d6573736167653a0a333200000000\n                /* \"#utility.yul\":9614:9615   */\n              0x00\n                /* \"#utility.yul\":9606:9612   */\n              dup3\n                /* \"#utility.yul\":9602:9616   */\n              add\n                /* \"#utility.yul\":9595:9685   */\n              mstore\n                /* \"#utility.yul\":9478:9692   */\n              pop\n              jump\t// out\n                /* \"#utility.yul\":9698:10100   */\n            tag_108:\n                /* \"#utility.yul\":9858:9861   */\n              0x00\n                /* \"#utility.yul\":9879:9964   */\n              tag_231\n                /* \"#utility.yul\":9961:9963   */\n              0x1c\n                /* \"#utility.yul\":9956:9959   */\n              dup4\n                /* \"#utility.yul\":9879:9964   */\n              tag_106\n              jump\t// in\n            tag_231:\n                /* \"#utility.yul\":9872:9964   */\n              swap2\n              pop\n                /* \"#utility.yul\":9973:10066   */\n              tag_232\n                /* \"#utility.yul\":10062:10065   */\n              dup3\n                /* \"#utility.yul\":9973:10066   */\n              tag_107\n              jump\t// in\n            tag_232:\n                /* \"#utility.yul\":10091:10093   */\n              0x1c\n                /* \"#utility.yul\":10086:10089   */\n              dup3\n                /* \"#utility.yul\":10082:10094   */\n              add\n                /* \"#utility.yul\":10075:10094   */\n              swap1\n              pop\n                /* \"#utility.yul\":9698:10100   */\n              swap2\n              swap1\n              pop\n              jump\t// out\n                /* \"#utility.yul\":10106:10185   */\n            tag_109:\n                /* \"#utility.yul\":10145:10152   */\n              0x00\n                /* \"#utility.yul\":10174:10179   */\n              dup2\n                /* \"#utility.yul\":10163:10179   */\n              swap1\n              pop\n                /* \"#utility.yul\":10106:10185   */\n              swap2\n              swap1\n              pop\n              jump\t// out\n                /* \"#utility.yul\":10191:10348   */\n            tag_110:\n                /* \"#utility.yul\":10296:10341   */\n              tag_235\n                /* \"#utility.yul\":10316:10340   */\n              tag_236\n                /* \"#utility.yul\":10334:10339   */\n              dup3\n                /* \"#utility.yul\":10316:10340   */\n              tag_75\n              jump\t// in\n            tag_236:\n                /* \"#utility.yul\":10296:10341   */\n              tag_109\n              jump\t// in\n            tag_235:\n                /* \"#utility.yul\":10291:10294   */\n              dup3\n                /* \"#utility.yul\":10284:10342   */\n              mstore\n                /* \"#utility.yul\":10191:10348   */\n              pop\n              pop\n              jump\t// out\n                /* \"#utility.yul\":10354:10876   */\n            tag_31:\n                /* \"#utility.yul\":10567:10570   */\n              0x00\n                /* \"#utility.yul\":10589:10737   */\n              tag_238\n                /* \"#utility.yul\":10733:10736   */\n              dup3\n                /* \"#utility.yul\":10589:10737   */\n              tag_108\n              jump\t// in\n            tag_238:\n                /* \"#utility.yul\":10582:10737   */\n              swap2\n              pop\n                /* \"#utility.yul\":10747:10822   */\n              tag_239\n                /* \"#utility.yul\":10818:10821   */\n              dup3\n                /* \"#utility.yul\":10809:10815   */\n              dup5\n                /* \"#utility.yul\":10747:10822   */\n              tag_110\n              jump\t// in\n            tag_239:\n                /* \"#utility.yul\":10847:10849   */\n              0x20\n                /* \"#utility.yul\":10842:10845   */\n              dup3\n                /* \"#utility.yul\":10838:10850   */\n              add\n                /* \"#utility.yul\":10831:10850   */\n              swap2\n              pop\n                /* \"#utility.yul\":10867:10870   */\n              dup2\n                /* \"#utility.yul\":10860:10870   */\n              swap1\n              pop\n                /* \"#utility.yul\":10354:10876   */\n              swap3\n              swap2\n              pop\n              pop\n              jump\t// out\n                /* \"#utility.yul\":10882:11051   */\n            tag_111:\n                /* \"#utility.yul\":10966:10977   */\n              0x00\n                /* \"#utility.yul\":11000:11006   */\n              dup3\n                /* \"#utility.yul\":10995:10998   */\n              dup3\n                /* \"#utility.yul\":10988:11007   */\n              mstore\n                /* \"#utility.yul\":11040:11044   */\n              0x20\n                /* \"#utility.yul\":11035:11038   */\n              dup3\n                /* \"#utility.yul\":11031:11045   */\n              add\n                /* \"#utility.yul\":11016:11045   */\n              swap1\n              pop\n                /* \"#utility.yul\":10882:11051   */\n              swap3\n              swap2\n              pop\n              pop\n              jump\t// out\n                /* \"#utility.yul\":11057:11224   */\n            tag_112:\n                /* \"#utility.yul\":11197:11216   */\n              0x496e76616c6964207369676e6174757265000000000000000000000000000000\n                /* \"#utility.yul\":11193:11194   */\n              0x00\n                /* \"#utility.yul\":11185:11191   */\n              dup3\n                /* \"#utility.yul\":11181:11195   */\n              add\n                /* \"#utility.yul\":11174:11217   */\n              mstore\n                /* \"#utility.yul\":11057:11224   */\n              pop\n              jump\t// out\n                /* \"#utility.yul\":11230:11596   */\n            tag_113:\n                /* \"#utility.yul\":11372:11375   */\n              0x00\n                /* \"#utility.yul\":11393:11460   */\n              tag_243\n                /* \"#utility.yul\":11457:11459   */\n              0x11\n                /* \"#utility.yul\":11452:11455   */\n              dup4\n                /* \"#utility.yul\":11393:11460   */\n              tag_111\n              jump\t// in\n            tag_243:\n                /* \"#utility.yul\":11386:11460   */\n              swap2\n              pop\n                /* \"#utility.yul\":11469:11562   */\n              tag_244\n                /* \"#utility.yul\":11558:11561   */\n              dup3\n                /* \"#utility.yul\":11469:11562   */\n              tag_112\n              jump\t// in\n            tag_244:\n                /* \"#utility.yul\":11587:11589   */\n              0x20\n                /* \"#utility.yul\":11582:11585   */\n              dup3\n                /* \"#utility.yul\":11578:11590   */\n              add\n                /* \"#utility.yul\":11571:11590   */\n              swap1\n              pop\n                /* \"#utility.yul\":11230:11596   */\n              swap2\n              swap1\n              pop\n              jump\t// out\n                /* \"#utility.yul\":11602:12021   */\n            tag_36:\n                /* \"#utility.yul\":11768:11772   */\n              0x00\n                /* \"#utility.yul\":11806:11808   */\n              0x20\n                /* \"#utility.yul\":11795:11804   */\n              dup3\n                /* \"#utility.yul\":11791:11809   */\n              add\n                /* \"#utility.yul\":11783:11809   */\n              swap1\n              pop\n                /* \"#utility.yul\":11855:11864   */\n              dup2\n                /* \"#utility.yul\":11849:11853   */\n              dup2\n                /* \"#utility.yul\":11845:11865   */\n              sub\n                /* \"#utility.yul\":11841:11842   */\n              0x00\n                /* \"#utility.yul\":11830:11839   */\n              dup4\n                /* \"#utility.yul\":11826:11843   */\n              add\n                /* \"#utility.yul\":11819:11866   */\n              mstore\n                /* \"#utility.yul\":11883:12014   */\n              tag_246\n                /* \"#utility.yul\":12009:12013   */\n              dup2\n                /* \"#utility.yul\":11883:12014   */\n              tag_113\n              jump\t// in\n            tag_246:\n                /* \"#utility.yul\":11875:12014   */\n              swap1\n              pop\n                /* \"#utility.yul\":11602:12021   */\n              swap2\n              swap1\n              pop\n              jump\t// out\n                /* \"#utility.yul\":12027:12196   */\n            tag_114:\n                /* \"#utility.yul\":12167:12188   */\n              0x4f7264657220686173206265656e207573656400000000000000000000000000\n                /* \"#utility.yul\":12163:12164   */\n              0x00\n                /* \"#utility.yul\":12155:12161   */\n              dup3\n                /* \"#utility.yul\":12151:12165   */\n              add\n                /* \"#utility.yul\":12144:12189   */\n              mstore\n                /* \"#utility.yul\":12027:12196   */\n              pop\n              jump\t// out\n                /* \"#utility.yul\":12202:12568   */\n            tag_115:\n                /* \"#utility.yul\":12344:12347   */\n              0x00\n                /* \"#utility.yul\":12365:12432   */\n              tag_249\n                /* \"#utility.yul\":12429:12431   */\n              0x13\n                /* \"#utility.yul\":12424:12427   */\n              dup4\n                /* \"#utility.yul\":12365:12432   */\n              tag_111\n              jump\t// in\n            tag_249:\n                /* \"#utility.yul\":12358:12432   */\n              swap2\n              pop\n                /* \"#utility.yul\":12441:12534   */\n              tag_250\n                /* \"#utility.yul\":12530:12533   */\n              dup3\n                /* \"#utility.yul\":12441:12534   */\n              tag_114\n              jump\t// in\n            tag_250:\n                /* \"#utility.yul\":12559:12561   */\n              0x20\n                /* \"#utility.yul\":12554:12557   */\n              dup3\n                /* \"#utility.yul\":12550:12562   */\n              add\n                /* \"#utility.yul\":12543:12562   */\n              swap1\n              pop\n                /* \"#utility.yul\":12202:12568   */\n              swap2\n              swap1\n              pop\n              jump\t// out\n                /* \"#utility.yul\":12574:12993   */\n            tag_43:\n                /* \"#utility.yul\":12740:12744   */\n              0x00\n                /* \"#utility.yul\":12778:12780   */\n              0x20\n                /* \"#utility.yul\":12767:12776   */\n              dup3\n                /* \"#utility.yul\":12763:12781   */\n              add\n                /* \"#utility.yul\":12755:12781   */\n              swap1\n              pop\n                /* \"#utility.yul\":12827:12836   */\n              dup2\n                /* \"#utility.yul\":12821:12825   */\n              dup2\n                /* \"#utility.yul\":12817:12837   */\n              sub\n                /* \"#utility.yul\":12813:12814   */\n              0x00\n                /* \"#utility.yul\":12802:12811   */\n              dup4\n                /* \"#utility.yul\":12798:12815   */\n              add\n                /* \"#utility.yul\":12791:12838   */\n              mstore\n                /* \"#utility.yul\":12855:12986   */\n              tag_252\n                /* \"#utility.yul\":12981:12985   */\n              dup2\n                /* \"#utility.yul\":12855:12986   */\n              tag_115\n              jump\t// in\n            tag_252:\n                /* \"#utility.yul\":12847:12986   */\n              swap1\n              pop\n                /* \"#utility.yul\":12574:12993   */\n              swap2\n              swap1\n              pop\n              jump\t// out\n                /* \"#utility.yul\":12999:13117   */\n            tag_116:\n                /* \"#utility.yul\":13086:13110   */\n              tag_254\n                /* \"#utility.yul\":13104:13109   */\n              dup2\n                /* \"#utility.yul\":13086:13110   */\n              tag_87\n              jump\t// in\n            tag_254:\n                /* \"#utility.yul\":13081:13084   */\n              dup3\n                /* \"#utility.yul\":13074:13111   */\n              mstore\n                /* \"#utility.yul\":12999:13117   */\n              pop\n              pop\n              jump\t// out\n                /* \"#utility.yul\":13123:13241   */\n            tag_117:\n                /* \"#utility.yul\":13210:13234   */\n              tag_256\n                /* \"#utility.yul\":13228:13233   */\n              dup2\n                /* \"#utility.yul\":13210:13234   */\n              tag_90\n              jump\t// in\n            tag_256:\n                /* \"#utility.yul\":13205:13208   */\n              dup3\n                /* \"#utility.yul\":13198:13235   */\n              mstore\n                /* \"#utility.yul\":13123:13241   */\n              pop\n              pop\n              jump\t// out\n                /* \"#utility.yul\":13247:13689   */\n            tag_49:\n                /* \"#utility.yul\":13396:13400   */\n              0x00\n                /* \"#utility.yul\":13434:13436   */\n              0x60\n                /* \"#utility.yul\":13423:13432   */\n              dup3\n                /* \"#utility.yul\":13419:13437   */\n              add\n                /* \"#utility.yul\":13411:13437   */\n              swap1\n              pop\n                /* \"#utility.yul\":13447:13518   */\n              tag_258\n                /* \"#utility.yul\":13515:13516   */\n              0x00\n                /* \"#utility.yul\":13504:13513   */\n              dup4\n                /* \"#utility.yul\":13500:13517   */\n              add\n                /* \"#utility.yul\":13491:13497   */\n              dup7\n                /* \"#utility.yul\":13447:13518   */\n              tag_116\n              jump\t// in\n            tag_258:\n                /* \"#utility.yul\":13528:13600   */\n              tag_259\n                /* \"#utility.yul\":13596:13598   */\n              0x20\n                /* \"#utility.yul\":13585:13594   */\n              dup4\n                /* \"#utility.yul\":13581:13599   */\n              add\n                /* \"#utility.yul\":13572:13578   */\n              dup6\n                /* \"#utility.yul\":13528:13600   */\n              tag_116\n              jump\t// in\n            tag_259:\n                /* \"#utility.yul\":13610:13682   */\n              tag_260\n                /* \"#utility.yul\":13678:13680   */\n              0x40\n                /* \"#utility.yul\":13667:13676   */\n              dup4\n                /* \"#utility.yul\":13663:13681   */\n              add\n                /* \"#utility.yul\":13654:13660   */\n              dup5\n                /* \"#utility.yul\":13610:13682   */\n              tag_117\n              jump\t// in\n            tag_260:\n                /* \"#utility.yul\":13247:13689   */\n              swap5\n              swap4\n              pop\n              pop\n              pop\n              pop\n              jump\t// out\n                /* \"#utility.yul\":13695:13781   */\n            tag_118:\n                /* \"#utility.yul\":13730:13737   */\n              0x00\n                /* \"#utility.yul\":13770:13774   */\n              0xff\n                /* \"#utility.yul\":13763:13768   */\n              dup3\n                /* \"#utility.yul\":13759:13775   */\n              and\n                /* \"#utility.yul\":13748:13775   */\n              swap1\n              pop\n                /* \"#utility.yul\":13695:13781   */\n              swap2\n              swap1\n              pop\n              jump\t// out\n                /* \"#utility.yul\":13787:13967   */\n            tag_119:\n                /* \"#utility.yul\":13835:13912   */\n              0x4e487b7100000000000000000000000000000000000000000000000000000000\n                /* \"#utility.yul\":13832:13833   */\n              0x00\n                /* \"#utility.yul\":13825:13913   */\n              mstore\n                /* \"#utility.yul\":13932:13936   */\n              0x11\n                /* \"#utility.yul\":13929:13930   */\n              0x04\n                /* \"#utility.yul\":13922:13937   */\n              mstore\n                /* \"#utility.yul\":13956:13960   */\n              0x24\n                /* \"#utility.yul\":13953:13954   */\n              0x00\n                /* \"#utility.yul\":13946:13961   */\n              revert\n                /* \"#utility.yul\":13973:14161   */\n            tag_62:\n                /* \"#utility.yul\":14011:14014   */\n              0x00\n                /* \"#utility.yul\":14030:14048   */\n              tag_264\n                /* \"#utility.yul\":14046:14047   */\n              dup3\n                /* \"#utility.yul\":14030:14048   */\n              tag_118\n              jump\t// in\n            tag_264:\n                /* \"#utility.yul\":14025:14048   */\n              swap2\n              pop\n                /* \"#utility.yul\":14062:14080   */\n              tag_265\n                /* \"#utility.yul\":14078:14079   */\n              dup4\n                /* \"#utility.yul\":14062:14080   */\n              tag_118\n              jump\t// in\n            tag_265:\n                /* \"#utility.yul\":14057:14080   */\n              swap3\n              pop\n                /* \"#utility.yul\":14103:14104   */\n              dup3\n                /* \"#utility.yul\":14100:14101   */\n              dup3\n                /* \"#utility.yul\":14096:14105   */\n              add\n                /* \"#utility.yul\":14089:14105   */\n              swap1\n              pop\n                /* \"#utility.yul\":14126:14130   */\n              0xff\n                /* \"#utility.yul\":14121:14124   */\n              dup2\n                /* \"#utility.yul\":14118:14131   */\n              gt\n                /* \"#utility.yul\":14115:14154   */\n              iszero\n              tag_266\n              jumpi\n                /* \"#utility.yul\":14134:14152   */\n              tag_267\n              tag_119\n              jump\t// in\n            tag_267:\n                /* \"#utility.yul\":14115:14154   */\n            tag_266:\n                /* \"#utility.yul\":13973:14161   */\n              swap3\n              swap2\n              pop\n              pop\n              jump\t// out\n                /* \"#utility.yul\":14167:14285   */\n            tag_120:\n                /* \"#utility.yul\":14254:14278   */\n              tag_269\n                /* \"#utility.yul\":14272:14277   */\n              dup2\n                /* \"#utility.yul\":14254:14278   */\n              tag_75\n              jump\t// in\n            tag_269:\n                /* \"#utility.yul\":14249:14252   */\n              dup3\n                /* \"#utility.yul\":14242:14279   */\n              mstore\n                /* \"#utility.yul\":14167:14285   */\n              pop\n              pop\n              jump\t// out\n                /* \"#utility.yul\":14291:14403   */\n            tag_121:\n                /* \"#utility.yul\":14374:14396   */\n              tag_271\n                /* \"#utility.yul\":14390:14395   */\n              dup2\n                /* \"#utility.yul\":14374:14396   */\n              tag_118\n              jump\t// in\n            tag_271:\n                /* \"#utility.yul\":14369:14372   */\n              dup3\n                /* \"#utility.yul\":14362:14397   */\n              mstore\n                /* \"#utility.yul\":14291:14403   */\n              pop\n              pop\n              jump\t// out\n                /* \"#utility.yul\":14409:14954   */\n            tag_64:\n                /* \"#utility.yul\":14582:14586   */\n              0x00\n                /* \"#utility.yul\":14620:14623   */\n              0x80\n                /* \"#utility.yul\":14609:14618   */\n              dup3\n                /* \"#utility.yul\":14605:14624   */\n              add\n                /* \"#utility.yul\":14597:14624   */\n              swap1\n              pop\n                /* \"#utility.yul\":14634:14705   */\n              tag_273\n                /* \"#utility.yul\":14702:14703   */\n              0x00\n                /* \"#utility.yul\":14691:14700   */\n              dup4\n                /* \"#utility.yul\":14687:14704   */\n              add\n                /* \"#utility.yul\":14678:14684   */\n              dup8\n                /* \"#utility.yul\":14634:14705   */\n              tag_120\n              jump\t// in\n            tag_273:\n                /* \"#utility.yul\":14715:14783   */\n              tag_274\n                /* \"#utility.yul\":14779:14781   */\n              0x20\n                /* \"#utility.yul\":14768:14777   */\n              dup4\n                /* \"#utility.yul\":14764:14782   */\n              add\n                /* \"#utility.yul\":14755:14761   */\n              dup7\n                /* \"#utility.yul\":14715:14783   */\n              tag_121\n              jump\t// in\n            tag_274:\n                /* \"#utility.yul\":14793:14865   */\n              tag_275\n                /* \"#utility.yul\":14861:14863   */\n              0x40\n                /* \"#utility.yul\":14850:14859   */\n              dup4\n                /* \"#utility.yul\":14846:14864   */\n              add\n                /* \"#utility.yul\":14837:14843   */\n              dup6\n                /* \"#utility.yul\":14793:14865   */\n              tag_120\n              jump\t// in\n            tag_275:\n                /* \"#utility.yul\":14875:14947   */\n              tag_276\n                /* \"#utility.yul\":14943:14945   */\n              0x60\n                /* \"#utility.yul\":14932:14941   */\n              dup4\n                /* \"#utility.yul\":14928:14946   */\n              add\n                /* \"#utility.yul\":14919:14925   */\n              dup5\n                /* \"#utility.yul\":14875:14947   */\n              tag_120\n              jump\t// in\n            tag_276:\n                /* \"#utility.yul\":14409:14954   */\n              swap6\n              swap5\n              pop\n              pop\n              pop\n              pop\n              pop\n              jump\t// out\n\n            auxdata: 0xa26469706673582212200e2475f5927e54df33c5fcd45447f2ff2e8ed0d86612583c8e5da0e7862e2bc564736f6c63430008120033\n        }\n    }\n\n    auxdata: 0xa2646970667358221220f3c500ec9b1b09b695a217c2184348f03b10a5a4bc12aee0ec0ccfac12e3cf9e64736f6c63430008120033\n}\n",
				"bytecode": {
					"linkReferences": {},
					"object": "608060405260028055604051620032d5380380620032d583398181016040528101906200002d9190620000df565b80600360006101000a81548173ffffffffffffffffffffffffffffffffffffffff021916908373ffffffffffffffffffffffffffffffffffffffff1602179055505062000111565b600080fd5b600073ffffffffffffffffffffffffffffffffffffffff82169050919050565b6000620000a7826200007a565b9050919050565b620000b9816200009a565b8114620000c557600080fd5b50565b600081519050620000d981620000ae565b92915050565b600060208284031215620000f857620000f762000075565b5b60006200010884828501620000c8565b91505092915050565b6131b480620001216000396000f3fe6080604052600436106200007a5760003560e01c80637b84fda511620000555780637b84fda514620000fb57806384e5eed01462000129578063c2a1d6c91462000159578063c465db0a1462000173576200007a565b806307e4ac72146200007f578063171ab66214620000ad5780634aa2059f14620000cd575b600080fd5b3480156200008c57600080fd5b50620000ab6004803603810190620000a59190620015bc565b620001b7565b005b620000cb6004803603810190620000c59190620017d0565b6200028e565b005b348015620000da57600080fd5b50620000f96004803603810190620000f39190620017d0565b62000d07565b005b3480156200010857600080fd5b50620001276004803603810190620001219190620018a2565b62000df0565b005b3480156200013657600080fd5b506200014162000ed0565b604051620001509190620018e5565b60405180910390f35b3480156200016657600080fd5b506200017162000eda565b005b3480156200018057600080fd5b506200019f600480360381019062000199919062001902565b620010c3565b604051620001ae919062001945565b60405180910390f35b600360009054906101000a900473ffffffffffffffffffffffffffffffffffffffff1673ffffffffffffffffffffffffffffffffffffffff163373ffffffffffffffffffffffffffffffffffffffff16146200024a576040517f08c379a00000000000000000000000000000000000000000000000000000000081526004016200024190620019e9565b60405180910390fd5b80600160006101000a81548173ffffffffffffffffffffffffffffffffffffffff021916908373ffffffffffffffffffffffffffffffffffffffff16021790555050565b60006040518060e001604052808973ffffffffffffffffffffffffffffffffffffffff1681526020018873ffffffffffffffffffffffffffffffffffffffff16815260200187815260200186815260200185815260200184815260200183815250905060003490506000620003286064620003196002548660600151620012d690919063ffffffff16565b620012ee90919063ffffffff16565b9050600060046000856000015173ffffffffffffffffffffffffffffffffffffffff1673ffffffffffffffffffffffffffffffffffffffff16815260200190815260200160002060009054906101000a900473ffffffffffffffffffffffffffffffffffffffff169050600073ffffffffffffffffffffffffffffffffffffffff168173ffffffffffffffffffffffffffffffffffffffff160362000404576040517f08c379a0000000000000000000000000000000000000000000000000000000008152600401620003fb9062001a5b565b60405180910390fd5b836000015173ffffffffffffffffffffffffffffffffffffffff16846020015173ffffffffffffffffffffffffffffffffffffffff16636352211e86604001516040518263ffffffff1660e01b8152600401620004629190620018e5565b602060405180830381865afa15801562000480573d6000803e3d6000fd5b505050506040513d601f19601f82011682018060405250810190620004a6919062001a94565b73ffffffffffffffffffffffffffffffffffffffff1614620004ff576040517f08c379a0000000000000000000000000000000000000000000000000000000008152600401620004f69062001b3c565b60405180910390fd5b600084600001518560200151866040015187606001518860a001518960c00151604051602001620005369695949392919062001bd3565b6040516020818303038152906040528051906020012090508460a00151421115620005e657620005668562001306565b846020015173ffffffffffffffffffffffffffffffffffffffff16856000015173ffffffffffffffffffffffffffffffffffffffff167f68138f0ee854a322025bc4fdf83bf151264d42cbc5930a3afc396a82980028d6838860400151604051620005d392919062001c6a565b60405180910390a3505050505062000cfe565b6000808373ffffffffffffffffffffffffffffffffffffffff168360405160240162000613919062001c97565b6040516020818303038152906040527feb41850d000000000000000000000000000000000000000000000000000000007bffffffffffffffffffffffffffffffffffffffffffffffffffffffff19166020820180517bffffffffffffffffffffffffffffffffffffffffffffffffffffffff83818316178352505050506040516200069f919062001d2d565b6000604051808303816000865af19150503d8060008114620006de576040519150601f19603f3d011682016040523d82523d6000602084013e620006e3565b606091505b509150915060008180602001905181019062000700919062001d83565b90508280156200070e575080155b62000750576040517f08c379a0000000000000000000000000000000000000000000000000000000008152600401620007479062001e05565b60405180910390fd5b8760600151868862000763919062001e56565b1062000cb8576000808673ffffffffffffffffffffffffffffffffffffffff168a336040516024016200079892919062001faf565b6040516020818303038152906040527fc04d75dd000000000000000000000000000000000000000000000000000000007bffffffffffffffffffffffffffffffffffffffffffffffffffffffff19166020820180517bffffffffffffffffffffffffffffffffffffffffffffffffffffffff838183161783525050505060405162000824919062001d2d565b6000604051808303816000865af19150503d806000811462000863576040519150601f19603f3d011682016040523d82523d6000602084013e62000868565b606091505b50915091503373ffffffffffffffffffffffffffffffffffffffff168a6020015173ffffffffffffffffffffffffffffffffffffffff16636352211e8c604001516040518263ffffffff1660e01b8152600401620008c79190620018e5565b602060405180830381865afa158015620008e5573d6000803e3d6000fd5b505050506040513d601f19601f820116820180604052508101906200090b919062001a94565b73ffffffffffffffffffffffffffffffffffffffff160362000be157896020015173ffffffffffffffffffffffffffffffffffffffff163373ffffffffffffffffffffffffffffffffffffffff168b6000015173ffffffffffffffffffffffffffffffffffffffff167f467f50bd8d1547cf60e60dba76ab3ff7f8b3a07ceba26c2268e160a7df30230e8d604001518a8f60600151604051620009b19392919062001fe3565b60405180910390a4600160009054906101000a900473ffffffffffffffffffffffffffffffffffffffff1673ffffffffffffffffffffffffffffffffffffffff166108fc899081150290604051600060405180830381858888f1935050505015801562000a22573d6000803e3d6000fd5b50896000015173ffffffffffffffffffffffffffffffffffffffff166108fc898b62000a4f919062001e56565b9081150290604051600060405180830381858888f1935050505062000b49573373ffffffffffffffffffffffffffffffffffffffff166108fc899081150290604051600060405180830381858888f1935050505015801562000ab5573d6000803e3d6000fd5b50896020015173ffffffffffffffffffffffffffffffffffffffff163373ffffffffffffffffffffffffffffffffffffffff168b6000015173ffffffffffffffffffffffffffffffffffffffff167f6844bef6c3a28de7fdcbe3bc8d79cdba7844b79c4ddcf615a1deb95c5a7ec9d1898e604001518f6060015160405162000b409392919062002020565b60405180910390a45b896020015173ffffffffffffffffffffffffffffffffffffffff163373ffffffffffffffffffffffffffffffffffffffff168b6000015173ffffffffffffffffffffffffffffffffffffffff167f1df50a9fbb406a714ae50adb30851596a510c10eabcb5787f3130515da396493898e604001518f6060015160405162000bd39392919062002020565b60405180910390a462000cb0565b896020015173ffffffffffffffffffffffffffffffffffffffff163373ffffffffffffffffffffffffffffffffffffffff168b6000015173ffffffffffffffffffffffffffffffffffffffff167f9bd8cc9f795935d6f423445d18dd997edfeec3d962973fadffeac5740e876b5f8d604001518a8f6060015160405162000c6b9392919062001fe3565b60405180910390a46040517f08c379a000000000000000000000000000000000000000000000000000000000815260040162000ca790620020ad565b60405180910390fd5b505062000cf5565b6040517f08c379a000000000000000000000000000000000000000000000000000000000815260040162000cec906200211f565b60405180910390fd5b50505050505050505b50505050505050565b60006040518060e001604052808973ffffffffffffffffffffffffffffffffffffffff1681526020018873ffffffffffffffffffffffffffffffffffffffff1681526020018781526020018681526020018581526020018481526020018381525090508773ffffffffffffffffffffffffffffffffffffffff163373ffffffffffffffffffffffffffffffffffffffff161462000ddb576040517f08c379a000000000000000000000000000000000000000000000000000000000815260040162000dd290620021b7565b60405180910390fd5b62000de68162001306565b5050505050505050565b600360009054906101000a900473ffffffffffffffffffffffffffffffffffffffff1673ffffffffffffffffffffffffffffffffffffffff163373ffffffffffffffffffffffffffffffffffffffff161462000e83576040517f08c379a000000000000000000000000000000000000000000000000000000000815260040162000e7a90620019e9565b60405180910390fd5b60006002549050816002819055507f8d10d6dd6545b059182e4bf9534308bf75d7de65cdd8a68c12b7b74f139e58ae818360405162000ec4929190620021d9565b60405180910390a15050565b6000600254905090565b600073ffffffffffffffffffffffffffffffffffffffff16600460003373ffffffffffffffffffffffffffffffffffffffff1673ffffffffffffffffffffffffffffffffffffffff16815260200190815260200160002060009054906101000a900473ffffffffffffffffffffffffffffffffffffffff1673ffffffffffffffffffffffffffffffffffffffff161462000fab576040517f08c379a000000000000000000000000000000000000000000000000000000000815260040162000fa29062002256565b60405180910390fd5b3360405162000fba9062001535565b62000fc6919062001945565b604051809103906000f08015801562000fe3573d6000803e3d6000fd5b506000806101000a81548173ffffffffffffffffffffffffffffffffffffffff021916908373ffffffffffffffffffffffffffffffffffffffff16021790555060008054906101000a900473ffffffffffffffffffffffffffffffffffffffff16600460003373ffffffffffffffffffffffffffffffffffffffff1673ffffffffffffffffffffffffffffffffffffffff16815260200190815260200160002060006101000a81548173ffffffffffffffffffffffffffffffffffffffff021916908373ffffffffffffffffffffffffffffffffffffffff160217905550565b60008073ffffffffffffffffffffffffffffffffffffffff16600460008473ffffffffffffffffffffffffffffffffffffffff1673ffffffffffffffffffffffffffffffffffffffff16815260200190815260200160002060009054906101000a900473ffffffffffffffffffffffffffffffffffffffff1673ffffffffffffffffffffffffffffffffffffffff16036200126f5781604051620011679062001535565b62001173919062001945565b604051809103906000f08015801562001190573d6000803e3d6000fd5b506000806101000a81548173ffffffffffffffffffffffffffffffffffffffff021916908373ffffffffffffffffffffffffffffffffffffffff16021790555060008054906101000a900473ffffffffffffffffffffffffffffffffffffffff16600460008473ffffffffffffffffffffffffffffffffffffffff1673ffffffffffffffffffffffffffffffffffffffff16815260200190815260200160002060006101000a81548173ffffffffffffffffffffffffffffffffffffffff021916908373ffffffffffffffffffffffffffffffffffffffff1602179055505b600460008373ffffffffffffffffffffffffffffffffffffffff1673ffffffffffffffffffffffffffffffffffffffff16815260200190815260200160002060009054906101000a900473ffffffffffffffffffffffffffffffffffffffff169050919050565b60008183620012e6919062002278565b905092915050565b60008183620012fe9190620022f2565b905092915050565b60008060046000846000015173ffffffffffffffffffffffffffffffffffffffff1673ffffffffffffffffffffffffffffffffffffffff16815260200190815260200160002060009054906101000a900473ffffffffffffffffffffffffffffffffffffffff1673ffffffffffffffffffffffffffffffffffffffff16836040516024016200139691906200232a565b6040516020818303038152906040527f9b3f3f1a000000000000000000000000000000000000000000000000000000007bffffffffffffffffffffffffffffffffffffffffffffffffffffffff19166020820180517bffffffffffffffffffffffffffffffffffffffffffffffffffffffff838183161783525050505060405162001422919062001d2d565b6000604051808303816000865af19150503d806000811462001461576040519150601f19603f3d011682016040523d82523d6000602084013e62001466565b606091505b5091509150600083600001518460200151856040015186606001518760a001518860c00151604051602001620014a29695949392919062001bd3565b604051602081830303815290604052805190602001209050836020015173ffffffffffffffffffffffffffffffffffffffff16846000015173ffffffffffffffffffffffffffffffffffffffff167f9b3260990101a9c5eb670b44ba2f4ec1048ddaf533a012abff3841ef15307fec8387604001516040516200152792919062001c6a565b60405180910390a350505050565b610e30806200234f83390190565b6000604051905090565b600080fd5b600080fd5b600073ffffffffffffffffffffffffffffffffffffffff82169050919050565b6000620015848262001557565b9050919050565b620015968162001577565b8114620015a257600080fd5b50565b600081359050620015b6816200158b565b92915050565b600060208284031215620015d557620015d46200154d565b5b6000620015e584828501620015a5565b91505092915050565b6000620015fb8262001557565b9050919050565b6200160d81620015ee565b81146200161957600080fd5b50565b6000813590506200162d8162001602565b92915050565b6000819050919050565b620016488162001633565b81146200165457600080fd5b50565b60008135905062001668816200163d565b92915050565b600080fd5b600080fd5b6000601f19601f8301169050919050565b7f4e487b7100000000000000000000000000000000000000000000000000000000600052604160045260246000fd5b620016c38262001678565b810181811067ffffffffffffffff82111715620016e557620016e462001689565b5b80604052505050565b6000620016fa62001543565b9050620017088282620016b8565b919050565b600067ffffffffffffffff8211156200172b576200172a62001689565b5b620017368262001678565b9050602081019050919050565b82818337600083830152505050565b60006200176962001763846200170d565b620016ee565b90508281526020810184848401111562001788576200178762001673565b5b6200179584828562001743565b509392505050565b600082601f830112620017b557620017b46200166e565b5b8135620017c784826020860162001752565b91505092915050565b600080600080600080600060e0888a031215620017f257620017f16200154d565b5b6000620018028a828b016200161c565b9750506020620018158a828b016200161c565b9650506040620018288a828b0162001657565b95505060606200183b8a828b0162001657565b945050608088013567ffffffffffffffff8111156200185f576200185e62001552565b5b6200186d8a828b016200179d565b93505060a0620018808a828b0162001657565b92505060c0620018938a828b0162001657565b91505092959891949750929550565b600060208284031215620018bb57620018ba6200154d565b5b6000620018cb8482850162001657565b91505092915050565b620018df8162001633565b82525050565b6000602082019050620018fc6000830184620018d4565b92915050565b6000602082840312156200191b576200191a6200154d565b5b60006200192b848285016200161c565b91505092915050565b6200193f81620015ee565b82525050565b60006020820190506200195c600083018462001934565b92915050565b600082825260208201905092915050565b7f4f6e6c79206f776e65722063616e2063616c6c20746869732066756e6374696f60008201527f6e00000000000000000000000000000000000000000000000000000000000000602082015250565b6000620019d160218362001962565b9150620019de8262001973565b604082019050919050565b6000602082019050818103600083015262001a0481620019c2565b9050919050565b7f50726f78792077616c6c6574206e6f7420666f756e6400000000000000000000600082015250565b600062001a4360168362001962565b915062001a508262001a0b565b602082019050919050565b6000602082019050818103600083015262001a768162001a34565b9050919050565b60008151905062001a8e8162001602565b92915050565b60006020828403121562001aad5762001aac6200154d565b5b600062001abd8482850162001a7d565b91505092915050565b7f53656c6c6572206973206e6f7420746865206f776e6572206f6620746869732060008201527f746f6b656e000000000000000000000000000000000000000000000000000000602082015250565b600062001b2460258362001962565b915062001b318262001ac6565b604082019050919050565b6000602082019050818103600083015262001b578162001b15565b9050919050565b60008160601b9050919050565b600062001b788262001b5e565b9050919050565b600062001b8c8262001b6b565b9050919050565b62001ba862001ba282620015ee565b62001b7f565b82525050565b6000819050919050565b62001bcd62001bc78262001633565b62001bae565b82525050565b600062001be1828962001b93565b60148201915062001bf3828862001b93565b60148201915062001c05828762001bb8565b60208201915062001c17828662001bb8565b60208201915062001c29828562001bb8565b60208201915062001c3b828462001bb8565b602082019150819050979650505050505050565b6000819050919050565b62001c648162001c4f565b82525050565b600060408201905062001c81600083018562001c59565b62001c906020830184620018d4565b9392505050565b600060208201905062001cae600083018462001c59565b92915050565b600081519050919050565b600081905092915050565b60005b8381101562001cea57808201518184015260208101905062001ccd565b60008484015250505050565b600062001d038262001cb4565b62001d0f818562001cbf565b935062001d2181856020860162001cca565b80840191505092915050565b600062001d3b828462001cf6565b915081905092915050565b60008115159050919050565b62001d5d8162001d46565b811462001d6957600080fd5b50565b60008151905062001d7d8162001d52565b92915050565b60006020828403121562001d9c5762001d9b6200154d565b5b600062001dac8482850162001d6c565b91505092915050565b7f4f72646572206973206e6f742076616c69640000000000000000000000000000600082015250565b600062001ded60128362001962565b915062001dfa8262001db5565b602082019050919050565b6000602082019050818103600083015262001e208162001dde565b9050919050565b7f4e487b7100000000000000000000000000000000000000000000000000000000600052601160045260246000fd5b600062001e638262001633565b915062001e708362001633565b925082820390508181111562001e8b5762001e8a62001e27565b5b92915050565b62001e9c81620015ee565b82525050565b62001ead8162001633565b82525050565b600082825260208201905092915050565b600062001ed18262001cb4565b62001edd818562001eb3565b935062001eef81856020860162001cca565b62001efa8162001678565b840191505092915050565b600060e08301600083015162001f1f600086018262001e91565b50602083015162001f34602086018262001e91565b50604083015162001f49604086018262001ea2565b50606083015162001f5e606086018262001ea2565b506080830151848203608086015262001f78828262001ec4565b91505060a083015162001f8f60a086018262001ea2565b5060c083015162001fa460c086018262001ea2565b508091505092915050565b6000604082019050818103600083015262001fcb818562001f05565b905062001fdc602083018462001934565b9392505050565b600060608201905062001ffa6000830186620018d4565b62002009602083018562001c59565b620020186040830184620018d4565b949350505050565b600060608201905062002037600083018662001c59565b620020466020830185620018d4565b620020556040830184620018d4565b949350505050565b7f6d617463686661696c0000000000000000000000000000000000000000000000600082015250565b60006200209560098362001962565b9150620020a2826200205d565b602082019050919050565b60006020820190508181036000830152620020c88162002086565b9050919050565b7f496e73756666696369656e74207061796d656e74000000000000000000000000600082015250565b60006200210760148362001962565b91506200211482620020cf565b602082019050919050565b600060208201905081810360008301526200213a81620020f8565b9050919050565b7f4f6e6c792073656c6c65722063616e2063616c6c20746869732066756e63746960008201527f6f6e000000000000000000000000000000000000000000000000000000000000602082015250565b60006200219f60228362001962565b9150620021ac8262002141565b604082019050919050565b60006020820190508181036000830152620021d28162002190565b9050919050565b6000604082019050620021f06000830185620018d4565b620021ff6020830184620018d4565b9392505050565b7f50726f78792077616c6c657420616c7265616479206578697374730000000000600082015250565b60006200223e601b8362001962565b91506200224b8262002206565b602082019050919050565b6000602082019050818103600083015262002271816200222f565b9050919050565b6000620022858262001633565b9150620022928362001633565b9250828202620022a28162001633565b91508282048414831517620022bc57620022bb62001e27565b5b5092915050565b7f4e487b7100000000000000000000000000000000000000000000000000000000600052601260045260246000fd5b6000620022ff8262001633565b91506200230c8362001633565b9250826200231f576200231e620022c3565b5b828204905092915050565b6000602082019050818103600083015262002346818462001f05565b90509291505056fe6080604052604051610e30380380610e30833981810160405281019061002591906100ce565b806000806101000a81548173ffffffffffffffffffffffffffffffffffffffff021916908373ffffffffffffffffffffffffffffffffffffffff160217905550506100fb565b600080fd5b600073ffffffffffffffffffffffffffffffffffffffff82169050919050565b600061009b82610070565b9050919050565b6100ab81610090565b81146100b657600080fd5b50565b6000815190506100c8816100a2565b92915050565b6000602082840312156100e4576100e361006b565b5b60006100f2848285016100b9565b91505092915050565b610d268061010a6000396000f3fe60806040526004361061003f5760003560e01c80638eb6a489146100445780639b3f3f1a14610081578063c04d75dd146100aa578063eb41850d146100c6575b600080fd5b34801561005057600080fd5b5061006b600480360381019061006691906105ab565b610103565b60405161007891906105f3565b60405180910390f35b34801561008d57600080fd5b506100a860048036038101906100a391906108c2565b610123565b005b6100c460048036038101906100bf919061090b565b610228565b005b3480156100d257600080fd5b506100ed60048036038101906100e891906105ab565b6103cd565b6040516100fa91906105f3565b60405180910390f35b60016020528060005260406000206000915054906101000a900460ff1681565b600081600001518260200151836040015184606001518560a001518660c00151604051602001610158969594939291906109d0565b6040516020818303038152906040528051906020012090506000816040516020016101839190610ab8565b604051602081830303815290604052805190602001209050826000015173ffffffffffffffffffffffffffffffffffffffff166101c48285608001516103f7565b73ffffffffffffffffffffffffffffffffffffffff161461021a576040517f08c379a000000000000000000000000000000000000000000000000000000000815260040161021190610b3b565b60405180910390fd5b6102238261048b565b505050565b600082600001518360200151846040015185606001518660a001518760c0015160405160200161025d969594939291906109d0565b6040516020818303038152906040528051906020012090506001600082815260200190815260200160002060009054906101000a900460ff16156102d6576040517f08c379a00000000000000000000000000000000000000000000000000000000081526004016102cd90610ba7565b60405180910390fd5b610301836000015184602001518560400151866060015187608001518860a001518960c001516104b9565b610340576040517f08c379a000000000000000000000000000000000000000000000000000000000815260040161033790610b3b565b60405180910390fd5b826020015173ffffffffffffffffffffffffffffffffffffffff166323b872dd84600001518486604001516040518463ffffffff1660e01b815260040161038993929190610be5565b600060405180830381600087803b1580156103a357600080fd5b505af19250505080156103b4575060015b6103be57506103c9565b6103c78161048b565b505b5050565b60006001600083815260200190815260200160002060009054906101000a900460ff169050919050565b6000806000806020850151925060408501519150606085015160001a9050601b8160ff16101561043157601b8161042e9190610c58565b90505b600186828585604051600081526020016040526040516104549493929190610cab565b6020604051602081039080840390855afa158015610476573d6000803e3d6000fd5b50505060206040510351935050505092915050565b600180600083815260200190815260200160002060006101000a81548160ff02191690831515021790555050565b6000808888888887876040516020016104d7969594939291906109d0565b6040516020818303038152906040528051906020012090506000816040516020016105029190610ab8565b6040516020818303038152906040528051906020012090508973ffffffffffffffffffffffffffffffffffffffff1661053b82886103f7565b73ffffffffffffffffffffffffffffffffffffffff161492505050979650505050505050565b6000604051905090565b600080fd5b600080fd5b6000819050919050565b61058881610575565b811461059357600080fd5b50565b6000813590506105a58161057f565b92915050565b6000602082840312156105c1576105c061056b565b5b60006105cf84828501610596565b91505092915050565b60008115159050919050565b6105ed816105d8565b82525050565b600060208201905061060860008301846105e4565b92915050565b600080fd5b6000601f19601f8301169050919050565b7f4e487b7100000000000000000000000000000000000000000000000000000000600052604160045260246000fd5b61065c82610613565b810181811067ffffffffffffffff8211171561067b5761067a610624565b5b80604052505050565b600061068e610561565b905061069a8282610653565b919050565b600080fd5b600073ffffffffffffffffffffffffffffffffffffffff82169050919050565b60006106cf826106a4565b9050919050565b6106df816106c4565b81146106ea57600080fd5b50565b6000813590506106fc816106d6565b92915050565b6000819050919050565b61071581610702565b811461072057600080fd5b50565b6000813590506107328161070c565b92915050565b600080fd5b600080fd5b600067ffffffffffffffff82111561075d5761075c610624565b5b61076682610613565b9050602081019050919050565b82818337600083830152505050565b600061079561079084610742565b610684565b9050828152602081018484840111156107b1576107b061073d565b5b6107bc848285610773565b509392505050565b600082601f8301126107d9576107d8610738565b5b81356107e9848260208601610782565b91505092915050565b600060e082840312156108085761080761060e565b5b61081260e0610684565b90506000610822848285016106ed565b6000830152506020610836848285016106ed565b602083015250604061084a84828501610723565b604083015250606061085e84828501610723565b606083015250608082013567ffffffffffffffff8111156108825761088161069f565b5b61088e848285016107c4565b60808301525060a06108a284828501610723565b60a08301525060c06108b684828501610723565b60c08301525092915050565b6000602082840312156108d8576108d761056b565b5b600082013567ffffffffffffffff8111156108f6576108f5610570565b5b610902848285016107f2565b91505092915050565b600080604083850312156109225761092161056b565b5b600083013567ffffffffffffffff8111156109405761093f610570565b5b61094c858286016107f2565b925050602061095d858286016106ed565b9150509250929050565b60008160601b9050919050565b600061097f82610967565b9050919050565b600061099182610974565b9050919050565b6109a96109a4826106c4565b610986565b82525050565b6000819050919050565b6109ca6109c582610702565b6109af565b82525050565b60006109dc8289610998565b6014820191506109ec8288610998565b6014820191506109fc82876109b9565b602082019150610a0c82866109b9565b602082019150610a1c82856109b9565b602082019150610a2c82846109b9565b602082019150819050979650505050505050565b600081905092915050565b7f19457468657265756d205369676e6564204d6573736167653a0a333200000000600082015250565b6000610a81601c83610a40565b9150610a8c82610a4b565b601c82019050919050565b6000819050919050565b610ab2610aad82610575565b610a97565b82525050565b6000610ac382610a74565b9150610acf8284610aa1565b60208201915081905092915050565b600082825260208201905092915050565b7f496e76616c6964207369676e6174757265000000000000000000000000000000600082015250565b6000610b25601183610ade565b9150610b3082610aef565b602082019050919050565b60006020820190508181036000830152610b5481610b18565b9050919050565b7f4f7264657220686173206265656e207573656400000000000000000000000000600082015250565b6000610b91601383610ade565b9150610b9c82610b5b565b602082019050919050565b60006020820190508181036000830152610bc081610b84565b9050919050565b610bd0816106c4565b82525050565b610bdf81610702565b82525050565b6000606082019050610bfa6000830186610bc7565b610c076020830185610bc7565b610c146040830184610bd6565b949350505050565b600060ff82169050919050565b7f4e487b7100000000000000000000000000000000000000000000000000000000600052601160045260246000fd5b6000610c6382610c1c565b9150610c6e83610c1c565b9250828201905060ff811115610c8757610c86610c29565b5b92915050565b610c9681610575565b82525050565b610ca581610c1c565b82525050565b6000608082019050610cc06000830187610c8d565b610ccd6020830186610c9c565b610cda6040830185610c8d565b610ce76060830184610c8d565b9594505050505056fea26469706673582212200e2475f5927e54df33c5fcd45447f2ff2e8ed0d86612583c8e5da0e7862e2bc564736f6c63430008120033a2646970667358221220f3c500ec9b1b09b695a217c2184348f03b10a5a4bc12aee0ec0ccfac12e3cf9e64736f6c63430008120033",
					"opcodes": "PUSH1 0x80 PUSH1 0x40 MSTORE PUSH1 0x2 DUP1 SSTORE PUSH1 0x40 MLOAD PUSH3 0x32D5 CODESIZE SUB DUP1 PUSH3 0x32D5 DUP4 CODECOPY DUP2 DUP2 ADD PUSH1 0x40 MSTORE DUP2 ADD SWAP1 PUSH3 0x2D SWAP2 SWAP1 PUSH3 0xDF JUMP JUMPDEST DUP1 PUSH1 0x3 PUSH1 0x0 PUSH2 0x100 EXP DUP2 SLOAD DUP2 PUSH20 0xFFFFFFFFFFFFFFFFFFFFFFFFFFFFFFFFFFFFFFFF MUL NOT AND SWAP1 DUP4 PUSH20 0xFFFFFFFFFFFFFFFFFFFFFFFFFFFFFFFFFFFFFFFF AND MUL OR SWAP1 SSTORE POP POP PUSH3 0x111 JUMP JUMPDEST PUSH1 0x0 DUP1 REVERT JUMPDEST PUSH1 0x0 PUSH20 0xFFFFFFFFFFFFFFFFFFFFFFFFFFFFFFFFFFFFFFFF DUP3 AND SWAP1 POP SWAP2 SWAP1 POP JUMP JUMPDEST PUSH1 0x0 PUSH3 0xA7 DUP3 PUSH3 0x7A JUMP JUMPDEST SWAP1 POP SWAP2 SWAP1 POP JUMP JUMPDEST PUSH3 0xB9 DUP2 PUSH3 0x9A JUMP JUMPDEST DUP2 EQ PUSH3 0xC5 JUMPI PUSH1 0x0 DUP1 REVERT JUMPDEST POP JUMP JUMPDEST PUSH1 0x0 DUP2 MLOAD SWAP1 POP PUSH3 0xD9 DUP2 PUSH3 0xAE JUMP JUMPDEST SWAP3 SWAP2 POP POP JUMP JUMPDEST PUSH1 0x0 PUSH1 0x20 DUP3 DUP5 SUB SLT ISZERO PUSH3 0xF8 JUMPI PUSH3 0xF7 PUSH3 0x75 JUMP JUMPDEST JUMPDEST PUSH1 0x0 PUSH3 0x108 DUP5 DUP3 DUP6 ADD PUSH3 0xC8 JUMP JUMPDEST SWAP2 POP POP SWAP3 SWAP2 POP POP JUMP JUMPDEST PUSH2 0x31B4 DUP1 PUSH3 0x121 PUSH1 0x0 CODECOPY PUSH1 0x0 RETURN INVALID PUSH1 0x80 PUSH1 0x40 MSTORE PUSH1 0x4 CALLDATASIZE LT PUSH3 0x7A JUMPI PUSH1 0x0 CALLDATALOAD PUSH1 0xE0 SHR DUP1 PUSH4 0x7B84FDA5 GT PUSH3 0x55 JUMPI DUP1 PUSH4 0x7B84FDA5 EQ PUSH3 0xFB JUMPI DUP1 PUSH4 0x84E5EED0 EQ PUSH3 0x129 JUMPI DUP1 PUSH4 0xC2A1D6C9 EQ PUSH3 0x159 JUMPI DUP1 PUSH4 0xC465DB0A EQ PUSH3 0x173 JUMPI PUSH3 0x7A JUMP JUMPDEST DUP1 PUSH4 0x7E4AC72 EQ PUSH3 0x7F JUMPI DUP1 PUSH4 0x171AB662 EQ PUSH3 0xAD JUMPI DUP1 PUSH4 0x4AA2059F EQ PUSH3 0xCD JUMPI JUMPDEST PUSH1 0x0 DUP1 REVERT JUMPDEST CALLVALUE DUP1 ISZERO PUSH3 0x8C JUMPI PUSH1 0x0 DUP1 REVERT JUMPDEST POP PUSH3 0xAB PUSH1 0x4 DUP1 CALLDATASIZE SUB DUP2 ADD SWAP1 PUSH3 0xA5 SWAP2 SWAP1 PUSH3 0x15BC JUMP JUMPDEST PUSH3 0x1B7 JUMP JUMPDEST STOP JUMPDEST PUSH3 0xCB PUSH1 0x4 DUP1 CALLDATASIZE SUB DUP2 ADD SWAP1 PUSH3 0xC5 SWAP2 SWAP1 PUSH3 0x17D0 JUMP JUMPDEST PUSH3 0x28E JUMP JUMPDEST STOP JUMPDEST CALLVALUE DUP1 ISZERO PUSH3 0xDA JUMPI PUSH1 0x0 DUP1 REVERT JUMPDEST POP PUSH3 0xF9 PUSH1 0x4 DUP1 CALLDATASIZE SUB DUP2 ADD SWAP1 PUSH3 0xF3 SWAP2 SWAP1 PUSH3 0x17D0 JUMP JUMPDEST PUSH3 0xD07 JUMP JUMPDEST STOP JUMPDEST CALLVALUE DUP1 ISZERO PUSH3 0x108 JUMPI PUSH1 0x0 DUP1 REVERT JUMPDEST POP PUSH3 0x127 PUSH1 0x4 DUP1 CALLDATASIZE SUB DUP2 ADD SWAP1 PUSH3 0x121 SWAP2 SWAP1 PUSH3 0x18A2 JUMP JUMPDEST PUSH3 0xDF0 JUMP JUMPDEST STOP JUMPDEST CALLVALUE DUP1 ISZERO PUSH3 0x136 JUMPI PUSH1 0x0 DUP1 REVERT JUMPDEST POP PUSH3 0x141 PUSH3 0xED0 JUMP JUMPDEST PUSH1 0x40 MLOAD PUSH3 0x150 SWAP2 SWAP1 PUSH3 0x18E5 JUMP JUMPDEST PUSH1 0x40 MLOAD DUP1 SWAP2 SUB SWAP1 RETURN JUMPDEST CALLVALUE DUP1 ISZERO PUSH3 0x166 JUMPI PUSH1 0x0 DUP1 REVERT JUMPDEST POP PUSH3 0x171 PUSH3 0xEDA JUMP JUMPDEST STOP JUMPDEST CALLVALUE DUP1 ISZERO PUSH3 0x180 JUMPI PUSH1 0x0 DUP1 REVERT JUMPDEST POP PUSH3 0x19F PUSH1 0x4 DUP1 CALLDATASIZE SUB DUP2 ADD SWAP1 PUSH3 0x199 SWAP2 SWAP1 PUSH3 0x1902 JUMP JUMPDEST PUSH3 0x10C3 JUMP JUMPDEST PUSH1 0x40 MLOAD PUSH3 0x1AE SWAP2 SWAP1 PUSH3 0x1945 JUMP JUMPDEST PUSH1 0x40 MLOAD DUP1 SWAP2 SUB SWAP1 RETURN JUMPDEST PUSH1 0x3 PUSH1 0x0 SWAP1 SLOAD SWAP1 PUSH2 0x100 EXP SWAP1 DIV PUSH20 0xFFFFFFFFFFFFFFFFFFFFFFFFFFFFFFFFFFFFFFFF AND PUSH20 0xFFFFFFFFFFFFFFFFFFFFFFFFFFFFFFFFFFFFFFFF AND CALLER PUSH20 0xFFFFFFFFFFFFFFFFFFFFFFFFFFFFFFFFFFFFFFFF AND EQ PUSH3 0x24A JUMPI PUSH1 0x40 MLOAD PUSH32 0x8C379A000000000000000000000000000000000000000000000000000000000 DUP2 MSTORE PUSH1 0x4 ADD PUSH3 0x241 SWAP1 PUSH3 0x19E9 JUMP JUMPDEST PUSH1 0x40 MLOAD DUP1 SWAP2 SUB SWAP1 REVERT JUMPDEST DUP1 PUSH1 0x1 PUSH1 0x0 PUSH2 0x100 EXP DUP2 SLOAD DUP2 PUSH20 0xFFFFFFFFFFFFFFFFFFFFFFFFFFFFFFFFFFFFFFFF MUL NOT AND SWAP1 DUP4 PUSH20 0xFFFFFFFFFFFFFFFFFFFFFFFFFFFFFFFFFFFFFFFF AND MUL OR SWAP1 SSTORE POP POP JUMP JUMPDEST PUSH1 0x0 PUSH1 0x40 MLOAD DUP1 PUSH1 0xE0 ADD PUSH1 0x40 MSTORE DUP1 DUP10 PUSH20 0xFFFFFFFFFFFFFFFFFFFFFFFFFFFFFFFFFFFFFFFF AND DUP2 MSTORE PUSH1 0x20 ADD DUP9 PUSH20 0xFFFFFFFFFFFFFFFFFFFFFFFFFFFFFFFFFFFFFFFF AND DUP2 MSTORE PUSH1 0x20 ADD DUP8 DUP2 MSTORE PUSH1 0x20 ADD DUP7 DUP2 MSTORE PUSH1 0x20 ADD DUP6 DUP2 MSTORE PUSH1 0x20 ADD DUP5 DUP2 MSTORE PUSH1 0x20 ADD DUP4 DUP2 MSTORE POP SWAP1 POP PUSH1 0x0 CALLVALUE SWAP1 POP PUSH1 0x0 PUSH3 0x328 PUSH1 0x64 PUSH3 0x319 PUSH1 0x2 SLOAD DUP7 PUSH1 0x60 ADD MLOAD PUSH3 0x12D6 SWAP1 SWAP2 SWAP1 PUSH4 0xFFFFFFFF AND JUMP JUMPDEST PUSH3 0x12EE SWAP1 SWAP2 SWAP1 PUSH4 0xFFFFFFFF AND JUMP JUMPDEST SWAP1 POP PUSH1 0x0 PUSH1 0x4 PUSH1 0x0 DUP6 PUSH1 0x0 ADD MLOAD PUSH20 0xFFFFFFFFFFFFFFFFFFFFFFFFFFFFFFFFFFFFFFFF AND PUSH20 0xFFFFFFFFFFFFFFFFFFFFFFFFFFFFFFFFFFFFFFFF AND DUP2 MSTORE PUSH1 0x20 ADD SWAP1 DUP2 MSTORE PUSH1 0x20 ADD PUSH1 0x0 KECCAK256 PUSH1 0x0 SWAP1 SLOAD SWAP1 PUSH2 0x100 EXP SWAP1 DIV PUSH20 0xFFFFFFFFFFFFFFFFFFFFFFFFFFFFFFFFFFFFFFFF AND SWAP1 POP PUSH1 0x0 PUSH20 0xFFFFFFFFFFFFFFFFFFFFFFFFFFFFFFFFFFFFFFFF AND DUP2 PUSH20 0xFFFFFFFFFFFFFFFFFFFFFFFFFFFFFFFFFFFFFFFF AND SUB PUSH3 0x404 JUMPI PUSH1 0x40 MLOAD PUSH32 0x8C379A000000000000000000000000000000000000000000000000000000000 DUP2 MSTORE PUSH1 0x4 ADD PUSH3 0x3FB SWAP1 PUSH3 0x1A5B JUMP JUMPDEST PUSH1 0x40 MLOAD DUP1 SWAP2 SUB SWAP1 REVERT JUMPDEST DUP4 PUSH1 0x0 ADD MLOAD PUSH20 0xFFFFFFFFFFFFFFFFFFFFFFFFFFFFFFFFFFFFFFFF AND DUP5 PUSH1 0x20 ADD MLOAD PUSH20 0xFFFFFFFFFFFFFFFFFFFFFFFFFFFFFFFFFFFFFFFF AND PUSH4 0x6352211E DUP7 PUSH1 0x40 ADD MLOAD PUSH1 0x40 MLOAD DUP3 PUSH4 0xFFFFFFFF AND PUSH1 0xE0 SHL DUP2 MSTORE PUSH1 0x4 ADD PUSH3 0x462 SWAP2 SWAP1 PUSH3 0x18E5 JUMP JUMPDEST PUSH1 0x20 PUSH1 0x40 MLOAD DUP1 DUP4 SUB DUP2 DUP7 GAS STATICCALL ISZERO DUP1 ISZERO PUSH3 0x480 JUMPI RETURNDATASIZE PUSH1 0x0 DUP1 RETURNDATACOPY RETURNDATASIZE PUSH1 0x0 REVERT JUMPDEST POP POP POP POP PUSH1 0x40 MLOAD RETURNDATASIZE PUSH1 0x1F NOT PUSH1 0x1F DUP3 ADD AND DUP3 ADD DUP1 PUSH1 0x40 MSTORE POP DUP2 ADD SWAP1 PUSH3 0x4A6 SWAP2 SWAP1 PUSH3 0x1A94 JUMP JUMPDEST PUSH20 0xFFFFFFFFFFFFFFFFFFFFFFFFFFFFFFFFFFFFFFFF AND EQ PUSH3 0x4FF JUMPI PUSH1 0x40 MLOAD PUSH32 0x8C379A000000000000000000000000000000000000000000000000000000000 DUP2 MSTORE PUSH1 0x4 ADD PUSH3 0x4F6 SWAP1 PUSH3 0x1B3C JUMP JUMPDEST PUSH1 0x40 MLOAD DUP1 SWAP2 SUB SWAP1 REVERT JUMPDEST PUSH1 0x0 DUP5 PUSH1 0x0 ADD MLOAD DUP6 PUSH1 0x20 ADD MLOAD DUP7 PUSH1 0x40 ADD MLOAD DUP8 PUSH1 0x60 ADD MLOAD DUP9 PUSH1 0xA0 ADD MLOAD DUP10 PUSH1 0xC0 ADD MLOAD PUSH1 0x40 MLOAD PUSH1 0x20 ADD PUSH3 0x536 SWAP7 SWAP6 SWAP5 SWAP4 SWAP3 SWAP2 SWAP1 PUSH3 0x1BD3 JUMP JUMPDEST PUSH1 0x40 MLOAD PUSH1 0x20 DUP2 DUP4 SUB SUB DUP2 MSTORE SWAP1 PUSH1 0x40 MSTORE DUP1 MLOAD SWAP1 PUSH1 0x20 ADD KECCAK256 SWAP1 POP DUP5 PUSH1 0xA0 ADD MLOAD TIMESTAMP GT ISZERO PUSH3 0x5E6 JUMPI PUSH3 0x566 DUP6 PUSH3 0x1306 JUMP JUMPDEST DUP5 PUSH1 0x20 ADD MLOAD PUSH20 0xFFFFFFFFFFFFFFFFFFFFFFFFFFFFFFFFFFFFFFFF AND DUP6 PUSH1 0x0 ADD MLOAD PUSH20 0xFFFFFFFFFFFFFFFFFFFFFFFFFFFFFFFFFFFFFFFF AND PUSH32 0x68138F0EE854A322025BC4FDF83BF151264D42CBC5930A3AFC396A82980028D6 DUP4 DUP9 PUSH1 0x40 ADD MLOAD PUSH1 0x40 MLOAD PUSH3 0x5D3 SWAP3 SWAP2 SWAP1 PUSH3 0x1C6A JUMP JUMPDEST PUSH1 0x40 MLOAD DUP1 SWAP2 SUB SWAP1 LOG3 POP POP POP POP POP PUSH3 0xCFE JUMP JUMPDEST PUSH1 0x0 DUP1 DUP4 PUSH20 0xFFFFFFFFFFFFFFFFFFFFFFFFFFFFFFFFFFFFFFFF AND DUP4 PUSH1 0x40 MLOAD PUSH1 0x24 ADD PUSH3 0x613 SWAP2 SWAP1 PUSH3 0x1C97 JUMP JUMPDEST PUSH1 0x40 MLOAD PUSH1 0x20 DUP2 DUP4 SUB SUB DUP2 MSTORE SWAP1 PUSH1 0x40 MSTORE PUSH32 0xEB41850D00000000000000000000000000000000000000000000000000000000 PUSH28 0xFFFFFFFFFFFFFFFFFFFFFFFFFFFFFFFFFFFFFFFFFFFFFFFFFFFFFFFF NOT AND PUSH1 0x20 DUP3 ADD DUP1 MLOAD PUSH28 0xFFFFFFFFFFFFFFFFFFFFFFFFFFFFFFFFFFFFFFFFFFFFFFFFFFFFFFFF DUP4 DUP2 DUP4 AND OR DUP4 MSTORE POP POP POP POP PUSH1 0x40 MLOAD PUSH3 0x69F SWAP2 SWAP1 PUSH3 0x1D2D JUMP JUMPDEST PUSH1 0x0 PUSH1 0x40 MLOAD DUP1 DUP4 SUB DUP2 PUSH1 0x0 DUP7 GAS CALL SWAP2 POP POP RETURNDATASIZE DUP1 PUSH1 0x0 DUP2 EQ PUSH3 0x6DE JUMPI PUSH1 0x40 MLOAD SWAP2 POP PUSH1 0x1F NOT PUSH1 0x3F RETURNDATASIZE ADD AND DUP3 ADD PUSH1 0x40 MSTORE RETURNDATASIZE DUP3 MSTORE RETURNDATASIZE PUSH1 0x0 PUSH1 0x20 DUP5 ADD RETURNDATACOPY PUSH3 0x6E3 JUMP JUMPDEST PUSH1 0x60 SWAP2 POP JUMPDEST POP SWAP2 POP SWAP2 POP PUSH1 0x0 DUP2 DUP1 PUSH1 0x20 ADD SWAP1 MLOAD DUP2 ADD SWAP1 PUSH3 0x700 SWAP2 SWAP1 PUSH3 0x1D83 JUMP JUMPDEST SWAP1 POP DUP3 DUP1 ISZERO PUSH3 0x70E JUMPI POP DUP1 ISZERO JUMPDEST PUSH3 0x750 JUMPI PUSH1 0x40 MLOAD PUSH32 0x8C379A000000000000000000000000000000000000000000000000000000000 DUP2 MSTORE PUSH1 0x4 ADD PUSH3 0x747 SWAP1 PUSH3 0x1E05 JUMP JUMPDEST PUSH1 0x40 MLOAD DUP1 SWAP2 SUB SWAP1 REVERT JUMPDEST DUP8 PUSH1 0x60 ADD MLOAD DUP7 DUP9 PUSH3 0x763 SWAP2 SWAP1 PUSH3 0x1E56 JUMP JUMPDEST LT PUSH3 0xCB8 JUMPI PUSH1 0x0 DUP1 DUP7 PUSH20 0xFFFFFFFFFFFFFFFFFFFFFFFFFFFFFFFFFFFFFFFF AND DUP11 CALLER PUSH1 0x40 MLOAD PUSH1 0x24 ADD PUSH3 0x798 SWAP3 SWAP2 SWAP1 PUSH3 0x1FAF JUMP JUMPDEST PUSH1 0x40 MLOAD PUSH1 0x20 DUP2 DUP4 SUB SUB DUP2 MSTORE SWAP1 PUSH1 0x40 MSTORE PUSH32 0xC04D75DD00000000000000000000000000000000000000000000000000000000 PUSH28 0xFFFFFFFFFFFFFFFFFFFFFFFFFFFFFFFFFFFFFFFFFFFFFFFFFFFFFFFF NOT AND PUSH1 0x20 DUP3 ADD DUP1 MLOAD PUSH28 0xFFFFFFFFFFFFFFFFFFFFFFFFFFFFFFFFFFFFFFFFFFFFFFFFFFFFFFFF DUP4 DUP2 DUP4 AND OR DUP4 MSTORE POP POP POP POP PUSH1 0x40 MLOAD PUSH3 0x824 SWAP2 SWAP1 PUSH3 0x1D2D JUMP JUMPDEST PUSH1 0x0 PUSH1 0x40 MLOAD DUP1 DUP4 SUB DUP2 PUSH1 0x0 DUP7 GAS CALL SWAP2 POP POP RETURNDATASIZE DUP1 PUSH1 0x0 DUP2 EQ PUSH3 0x863 JUMPI PUSH1 0x40 MLOAD SWAP2 POP PUSH1 0x1F NOT PUSH1 0x3F RETURNDATASIZE ADD AND DUP3 ADD PUSH1 0x40 MSTORE RETURNDATASIZE DUP3 MSTORE RETURNDATASIZE PUSH1 0x0 PUSH1 0x20 DUP5 ADD RETURNDATACOPY PUSH3 0x868 JUMP JUMPDEST PUSH1 0x60 SWAP2 POP JUMPDEST POP SWAP2 POP SWAP2 POP CALLER PUSH20 0xFFFFFFFFFFFFFFFFFFFFFFFFFFFFFFFFFFFFFFFF AND DUP11 PUSH1 0x20 ADD MLOAD PUSH20 0xFFFFFFFFFFFFFFFFFFFFFFFFFFFFFFFFFFFFFFFF AND PUSH4 0x6352211E DUP13 PUSH1 0x40 ADD MLOAD PUSH1 0x40 MLOAD DUP3 PUSH4 0xFFFFFFFF AND PUSH1 0xE0 SHL DUP2 MSTORE PUSH1 0x4 ADD PUSH3 0x8C7 SWAP2 SWAP1 PUSH3 0x18E5 JUMP JUMPDEST PUSH1 0x20 PUSH1 0x40 MLOAD DUP1 DUP4 SUB DUP2 DUP7 GAS STATICCALL ISZERO DUP1 ISZERO PUSH3 0x8E5 JUMPI RETURNDATASIZE PUSH1 0x0 DUP1 RETURNDATACOPY RETURNDATASIZE PUSH1 0x0 REVERT JUMPDEST POP POP POP POP PUSH1 0x40 MLOAD RETURNDATASIZE PUSH1 0x1F NOT PUSH1 0x1F DUP3 ADD AND DUP3 ADD DUP1 PUSH1 0x40 MSTORE POP DUP2 ADD SWAP1 PUSH3 0x90B SWAP2 SWAP1 PUSH3 0x1A94 JUMP JUMPDEST PUSH20 0xFFFFFFFFFFFFFFFFFFFFFFFFFFFFFFFFFFFFFFFF AND SUB PUSH3 0xBE1 JUMPI DUP10 PUSH1 0x20 ADD MLOAD PUSH20 0xFFFFFFFFFFFFFFFFFFFFFFFFFFFFFFFFFFFFFFFF AND CALLER PUSH20 0xFFFFFFFFFFFFFFFFFFFFFFFFFFFFFFFFFFFFFFFF AND DUP12 PUSH1 0x0 ADD MLOAD PUSH20 0xFFFFFFFFFFFFFFFFFFFFFFFFFFFFFFFFFFFFFFFF AND PUSH32 0x467F50BD8D1547CF60E60DBA76AB3FF7F8B3A07CEBA26C2268E160A7DF30230E DUP14 PUSH1 0x40 ADD MLOAD DUP11 DUP16 PUSH1 0x60 ADD MLOAD PUSH1 0x40 MLOAD PUSH3 0x9B1 SWAP4 SWAP3 SWAP2 SWAP1 PUSH3 0x1FE3 JUMP JUMPDEST PUSH1 0x40 MLOAD DUP1 SWAP2 SUB SWAP1 LOG4 PUSH1 0x1 PUSH1 0x0 SWAP1 SLOAD SWAP1 PUSH2 0x100 EXP SWAP1 DIV PUSH20 0xFFFFFFFFFFFFFFFFFFFFFFFFFFFFFFFFFFFFFFFF AND PUSH20 0xFFFFFFFFFFFFFFFFFFFFFFFFFFFFFFFFFFFFFFFF AND PUSH2 0x8FC DUP10 SWAP1 DUP2 ISZERO MUL SWAP1 PUSH1 0x40 MLOAD PUSH1 0x0 PUSH1 0x40 MLOAD DUP1 DUP4 SUB DUP2 DUP6 DUP9 DUP9 CALL SWAP4 POP POP POP POP ISZERO DUP1 ISZERO PUSH3 0xA22 JUMPI RETURNDATASIZE PUSH1 0x0 DUP1 RETURNDATACOPY RETURNDATASIZE PUSH1 0x0 REVERT JUMPDEST POP DUP10 PUSH1 0x0 ADD MLOAD PUSH20 0xFFFFFFFFFFFFFFFFFFFFFFFFFFFFFFFFFFFFFFFF AND PUSH2 0x8FC DUP10 DUP12 PUSH3 0xA4F SWAP2 SWAP1 PUSH3 0x1E56 JUMP JUMPDEST SWAP1 DUP2 ISZERO MUL SWAP1 PUSH1 0x40 MLOAD PUSH1 0x0 PUSH1 0x40 MLOAD DUP1 DUP4 SUB DUP2 DUP6 DUP9 DUP9 CALL SWAP4 POP POP POP POP PUSH3 0xB49 JUMPI CALLER PUSH20 0xFFFFFFFFFFFFFFFFFFFFFFFFFFFFFFFFFFFFFFFF AND PUSH2 0x8FC DUP10 SWAP1 DUP2 ISZERO MUL SWAP1 PUSH1 0x40 MLOAD PUSH1 0x0 PUSH1 0x40 MLOAD DUP1 DUP4 SUB DUP2 DUP6 DUP9 DUP9 CALL SWAP4 POP POP POP POP ISZERO DUP1 ISZERO PUSH3 0xAB5 JUMPI RETURNDATASIZE PUSH1 0x0 DUP1 RETURNDATACOPY RETURNDATASIZE PUSH1 0x0 REVERT JUMPDEST POP DUP10 PUSH1 0x20 ADD MLOAD PUSH20 0xFFFFFFFFFFFFFFFFFFFFFFFFFFFFFFFFFFFFFFFF AND CALLER PUSH20 0xFFFFFFFFFFFFFFFFFFFFFFFFFFFFFFFFFFFFFFFF AND DUP12 PUSH1 0x0 ADD MLOAD PUSH20 0xFFFFFFFFFFFFFFFFFFFFFFFFFFFFFFFFFFFFFFFF AND PUSH32 0x6844BEF6C3A28DE7FDCBE3BC8D79CDBA7844B79C4DDCF615A1DEB95C5A7EC9D1 DUP10 DUP15 PUSH1 0x40 ADD MLOAD DUP16 PUSH1 0x60 ADD MLOAD PUSH1 0x40 MLOAD PUSH3 0xB40 SWAP4 SWAP3 SWAP2 SWAP1 PUSH3 0x2020 JUMP JUMPDEST PUSH1 0x40 MLOAD DUP1 SWAP2 SUB SWAP1 LOG4 JUMPDEST DUP10 PUSH1 0x20 ADD MLOAD PUSH20 0xFFFFFFFFFFFFFFFFFFFFFFFFFFFFFFFFFFFFFFFF AND CALLER PUSH20 0xFFFFFFFFFFFFFFFFFFFFFFFFFFFFFFFFFFFFFFFF AND DUP12 PUSH1 0x0 ADD MLOAD PUSH20 0xFFFFFFFFFFFFFFFFFFFFFFFFFFFFFFFFFFFFFFFF AND PUSH32 0x1DF50A9FBB406A714AE50ADB30851596A510C10EABCB5787F3130515DA396493 DUP10 DUP15 PUSH1 0x40 ADD MLOAD DUP16 PUSH1 0x60 ADD MLOAD PUSH1 0x40 MLOAD PUSH3 0xBD3 SWAP4 SWAP3 SWAP2 SWAP1 PUSH3 0x2020 JUMP JUMPDEST PUSH1 0x40 MLOAD DUP1 SWAP2 SUB SWAP1 LOG4 PUSH3 0xCB0 JUMP JUMPDEST DUP10 PUSH1 0x20 ADD MLOAD PUSH20 0xFFFFFFFFFFFFFFFFFFFFFFFFFFFFFFFFFFFFFFFF AND CALLER PUSH20 0xFFFFFFFFFFFFFFFFFFFFFFFFFFFFFFFFFFFFFFFF AND DUP12 PUSH1 0x0 ADD MLOAD PUSH20 0xFFFFFFFFFFFFFFFFFFFFFFFFFFFFFFFFFFFFFFFF AND PUSH32 0x9BD8CC9F795935D6F423445D18DD997EDFEEC3D962973FADFFEAC5740E876B5F DUP14 PUSH1 0x40 ADD MLOAD DUP11 DUP16 PUSH1 0x60 ADD MLOAD PUSH1 0x40 MLOAD PUSH3 0xC6B SWAP4 SWAP3 SWAP2 SWAP1 PUSH3 0x1FE3 JUMP JUMPDEST PUSH1 0x40 MLOAD DUP1 SWAP2 SUB SWAP1 LOG4 PUSH1 0x40 MLOAD PUSH32 0x8C379A000000000000000000000000000000000000000000000000000000000 DUP2 MSTORE PUSH1 0x4 ADD PUSH3 0xCA7 SWAP1 PUSH3 0x20AD JUMP JUMPDEST PUSH1 0x40 MLOAD DUP1 SWAP2 SUB SWAP1 REVERT JUMPDEST POP POP PUSH3 0xCF5 JUMP JUMPDEST PUSH1 0x40 MLOAD PUSH32 0x8C379A000000000000000000000000000000000000000000000000000000000 DUP2 MSTORE PUSH1 0x4 ADD PUSH3 0xCEC SWAP1 PUSH3 0x211F JUMP JUMPDEST PUSH1 0x40 MLOAD DUP1 SWAP2 SUB SWAP1 REVERT JUMPDEST POP POP POP POP POP POP POP POP JUMPDEST POP POP POP POP POP POP POP JUMP JUMPDEST PUSH1 0x0 PUSH1 0x40 MLOAD DUP1 PUSH1 0xE0 ADD PUSH1 0x40 MSTORE DUP1 DUP10 PUSH20 0xFFFFFFFFFFFFFFFFFFFFFFFFFFFFFFFFFFFFFFFF AND DUP2 MSTORE PUSH1 0x20 ADD DUP9 PUSH20 0xFFFFFFFFFFFFFFFFFFFFFFFFFFFFFFFFFFFFFFFF AND DUP2 MSTORE PUSH1 0x20 ADD DUP8 DUP2 MSTORE PUSH1 0x20 ADD DUP7 DUP2 MSTORE PUSH1 0x20 ADD DUP6 DUP2 MSTORE PUSH1 0x20 ADD DUP5 DUP2 MSTORE PUSH1 0x20 ADD DUP4 DUP2 MSTORE POP SWAP1 POP DUP8 PUSH20 0xFFFFFFFFFFFFFFFFFFFFFFFFFFFFFFFFFFFFFFFF AND CALLER PUSH20 0xFFFFFFFFFFFFFFFFFFFFFFFFFFFFFFFFFFFFFFFF AND EQ PUSH3 0xDDB JUMPI PUSH1 0x40 MLOAD PUSH32 0x8C379A000000000000000000000000000000000000000000000000000000000 DUP2 MSTORE PUSH1 0x4 ADD PUSH3 0xDD2 SWAP1 PUSH3 0x21B7 JUMP JUMPDEST PUSH1 0x40 MLOAD DUP1 SWAP2 SUB SWAP1 REVERT JUMPDEST PUSH3 0xDE6 DUP2 PUSH3 0x1306 JUMP JUMPDEST POP POP POP POP POP POP POP POP JUMP JUMPDEST PUSH1 0x3 PUSH1 0x0 SWAP1 SLOAD SWAP1 PUSH2 0x100 EXP SWAP1 DIV PUSH20 0xFFFFFFFFFFFFFFFFFFFFFFFFFFFFFFFFFFFFFFFF AND PUSH20 0xFFFFFFFFFFFFFFFFFFFFFFFFFFFFFFFFFFFFFFFF AND CALLER PUSH20 0xFFFFFFFFFFFFFFFFFFFFFFFFFFFFFFFFFFFFFFFF AND EQ PUSH3 0xE83 JUMPI PUSH1 0x40 MLOAD PUSH32 0x8C379A000000000000000000000000000000000000000000000000000000000 DUP2 MSTORE PUSH1 0x4 ADD PUSH3 0xE7A SWAP1 PUSH3 0x19E9 JUMP JUMPDEST PUSH1 0x40 MLOAD DUP1 SWAP2 SUB SWAP1 REVERT JUMPDEST PUSH1 0x0 PUSH1 0x2 SLOAD SWAP1 POP DUP2 PUSH1 0x2 DUP2 SWAP1 SSTORE POP PUSH32 0x8D10D6DD6545B059182E4BF9534308BF75D7DE65CDD8A68C12B7B74F139E58AE DUP2 DUP4 PUSH1 0x40 MLOAD PUSH3 0xEC4 SWAP3 SWAP2 SWAP1 PUSH3 0x21D9 JUMP JUMPDEST PUSH1 0x40 MLOAD DUP1 SWAP2 SUB SWAP1 LOG1 POP POP JUMP JUMPDEST PUSH1 0x0 PUSH1 0x2 SLOAD SWAP1 POP SWAP1 JUMP JUMPDEST PUSH1 0x0 PUSH20 0xFFFFFFFFFFFFFFFFFFFFFFFFFFFFFFFFFFFFFFFF AND PUSH1 0x4 PUSH1 0x0 CALLER PUSH20 0xFFFFFFFFFFFFFFFFFFFFFFFFFFFFFFFFFFFFFFFF AND PUSH20 0xFFFFFFFFFFFFFFFFFFFFFFFFFFFFFFFFFFFFFFFF AND DUP2 MSTORE PUSH1 0x20 ADD SWAP1 DUP2 MSTORE PUSH1 0x20 ADD PUSH1 0x0 KECCAK256 PUSH1 0x0 SWAP1 SLOAD SWAP1 PUSH2 0x100 EXP SWAP1 DIV PUSH20 0xFFFFFFFFFFFFFFFFFFFFFFFFFFFFFFFFFFFFFFFF AND PUSH20 0xFFFFFFFFFFFFFFFFFFFFFFFFFFFFFFFFFFFFFFFF AND EQ PUSH3 0xFAB JUMPI PUSH1 0x40 MLOAD PUSH32 0x8C379A000000000000000000000000000000000000000000000000000000000 DUP2 MSTORE PUSH1 0x4 ADD PUSH3 0xFA2 SWAP1 PUSH3 0x2256 JUMP JUMPDEST PUSH1 0x40 MLOAD DUP1 SWAP2 SUB SWAP1 REVERT JUMPDEST CALLER PUSH1 0x40 MLOAD PUSH3 0xFBA SWAP1 PUSH3 0x1535 JUMP JUMPDEST PUSH3 0xFC6 SWAP2 SWAP1 PUSH3 0x1945 JUMP JUMPDEST PUSH1 0x40 MLOAD DUP1 SWAP2 SUB SWAP1 PUSH1 0x0 CREATE DUP1 ISZERO DUP1 ISZERO PUSH3 0xFE3 JUMPI RETURNDATASIZE PUSH1 0x0 DUP1 RETURNDATACOPY RETURNDATASIZE PUSH1 0x0 REVERT JUMPDEST POP PUSH1 0x0 DUP1 PUSH2 0x100 EXP DUP2 SLOAD DUP2 PUSH20 0xFFFFFFFFFFFFFFFFFFFFFFFFFFFFFFFFFFFFFFFF MUL NOT AND SWAP1 DUP4 PUSH20 0xFFFFFFFFFFFFFFFFFFFFFFFFFFFFFFFFFFFFFFFF AND MUL OR SWAP1 SSTORE POP PUSH1 0x0 DUP1 SLOAD SWAP1 PUSH2 0x100 EXP SWAP1 DIV PUSH20 0xFFFFFFFFFFFFFFFFFFFFFFFFFFFFFFFFFFFFFFFF AND PUSH1 0x4 PUSH1 0x0 CALLER PUSH20 0xFFFFFFFFFFFFFFFFFFFFFFFFFFFFFFFFFFFFFFFF AND PUSH20 0xFFFFFFFFFFFFFFFFFFFFFFFFFFFFFFFFFFFFFFFF AND DUP2 MSTORE PUSH1 0x20 ADD SWAP1 DUP2 MSTORE PUSH1 0x20 ADD PUSH1 0x0 KECCAK256 PUSH1 0x0 PUSH2 0x100 EXP DUP2 SLOAD DUP2 PUSH20 0xFFFFFFFFFFFFFFFFFFFFFFFFFFFFFFFFFFFFFFFF MUL NOT AND SWAP1 DUP4 PUSH20 0xFFFFFFFFFFFFFFFFFFFFFFFFFFFFFFFFFFFFFFFF AND MUL OR SWAP1 SSTORE POP JUMP JUMPDEST PUSH1 0x0 DUP1 PUSH20 0xFFFFFFFFFFFFFFFFFFFFFFFFFFFFFFFFFFFFFFFF AND PUSH1 0x4 PUSH1 0x0 DUP5 PUSH20 0xFFFFFFFFFFFFFFFFFFFFFFFFFFFFFFFFFFFFFFFF AND PUSH20 0xFFFFFFFFFFFFFFFFFFFFFFFFFFFFFFFFFFFFFFFF AND DUP2 MSTORE PUSH1 0x20 ADD SWAP1 DUP2 MSTORE PUSH1 0x20 ADD PUSH1 0x0 KECCAK256 PUSH1 0x0 SWAP1 SLOAD SWAP1 PUSH2 0x100 EXP SWAP1 DIV PUSH20 0xFFFFFFFFFFFFFFFFFFFFFFFFFFFFFFFFFFFFFFFF AND PUSH20 0xFFFFFFFFFFFFFFFFFFFFFFFFFFFFFFFFFFFFFFFF AND SUB PUSH3 0x126F JUMPI DUP2 PUSH1 0x40 MLOAD PUSH3 0x1167 SWAP1 PUSH3 0x1535 JUMP JUMPDEST PUSH3 0x1173 SWAP2 SWAP1 PUSH3 0x1945 JUMP JUMPDEST PUSH1 0x40 MLOAD DUP1 SWAP2 SUB SWAP1 PUSH1 0x0 CREATE DUP1 ISZERO DUP1 ISZERO PUSH3 0x1190 JUMPI RETURNDATASIZE PUSH1 0x0 DUP1 RETURNDATACOPY RETURNDATASIZE PUSH1 0x0 REVERT JUMPDEST POP PUSH1 0x0 DUP1 PUSH2 0x100 EXP DUP2 SLOAD DUP2 PUSH20 0xFFFFFFFFFFFFFFFFFFFFFFFFFFFFFFFFFFFFFFFF MUL NOT AND SWAP1 DUP4 PUSH20 0xFFFFFFFFFFFFFFFFFFFFFFFFFFFFFFFFFFFFFFFF AND MUL OR SWAP1 SSTORE POP PUSH1 0x0 DUP1 SLOAD SWAP1 PUSH2 0x100 EXP SWAP1 DIV PUSH20 0xFFFFFFFFFFFFFFFFFFFFFFFFFFFFFFFFFFFFFFFF AND PUSH1 0x4 PUSH1 0x0 DUP5 PUSH20 0xFFFFFFFFFFFFFFFFFFFFFFFFFFFFFFFFFFFFFFFF AND PUSH20 0xFFFFFFFFFFFFFFFFFFFFFFFFFFFFFFFFFFFFFFFF AND DUP2 MSTORE PUSH1 0x20 ADD SWAP1 DUP2 MSTORE PUSH1 0x20 ADD PUSH1 0x0 KECCAK256 PUSH1 0x0 PUSH2 0x100 EXP DUP2 SLOAD DUP2 PUSH20 0xFFFFFFFFFFFFFFFFFFFFFFFFFFFFFFFFFFFFFFFF MUL NOT AND SWAP1 DUP4 PUSH20 0xFFFFFFFFFFFFFFFFFFFFFFFFFFFFFFFFFFFFFFFF AND MUL OR SWAP1 SSTORE POP JUMPDEST PUSH1 0x4 PUSH1 0x0 DUP4 PUSH20 0xFFFFFFFFFFFFFFFFFFFFFFFFFFFFFFFFFFFFFFFF AND PUSH20 0xFFFFFFFFFFFFFFFFFFFFFFFFFFFFFFFFFFFFFFFF AND DUP2 MSTORE PUSH1 0x20 ADD SWAP1 DUP2 MSTORE PUSH1 0x20 ADD PUSH1 0x0 KECCAK256 PUSH1 0x0 SWAP1 SLOAD SWAP1 PUSH2 0x100 EXP SWAP1 DIV PUSH20 0xFFFFFFFFFFFFFFFFFFFFFFFFFFFFFFFFFFFFFFFF AND SWAP1 POP SWAP2 SWAP1 POP JUMP JUMPDEST PUSH1 0x0 DUP2 DUP4 PUSH3 0x12E6 SWAP2 SWAP1 PUSH3 0x2278 JUMP JUMPDEST SWAP1 POP SWAP3 SWAP2 POP POP JUMP JUMPDEST PUSH1 0x0 DUP2 DUP4 PUSH3 0x12FE SWAP2 SWAP1 PUSH3 0x22F2 JUMP JUMPDEST SWAP1 POP SWAP3 SWAP2 POP POP JUMP JUMPDEST PUSH1 0x0 DUP1 PUSH1 0x4 PUSH1 0x0 DUP5 PUSH1 0x0 ADD MLOAD PUSH20 0xFFFFFFFFFFFFFFFFFFFFFFFFFFFFFFFFFFFFFFFF AND PUSH20 0xFFFFFFFFFFFFFFFFFFFFFFFFFFFFFFFFFFFFFFFF AND DUP2 MSTORE PUSH1 0x20 ADD SWAP1 DUP2 MSTORE PUSH1 0x20 ADD PUSH1 0x0 KECCAK256 PUSH1 0x0 SWAP1 SLOAD SWAP1 PUSH2 0x100 EXP SWAP1 DIV PUSH20 0xFFFFFFFFFFFFFFFFFFFFFFFFFFFFFFFFFFFFFFFF AND PUSH20 0xFFFFFFFFFFFFFFFFFFFFFFFFFFFFFFFFFFFFFFFF AND DUP4 PUSH1 0x40 MLOAD PUSH1 0x24 ADD PUSH3 0x1396 SWAP2 SWAP1 PUSH3 0x232A JUMP JUMPDEST PUSH1 0x40 MLOAD PUSH1 0x20 DUP2 DUP4 SUB SUB DUP2 MSTORE SWAP1 PUSH1 0x40 MSTORE PUSH32 0x9B3F3F1A00000000000000000000000000000000000000000000000000000000 PUSH28 0xFFFFFFFFFFFFFFFFFFFFFFFFFFFFFFFFFFFFFFFFFFFFFFFFFFFFFFFF NOT AND PUSH1 0x20 DUP3 ADD DUP1 MLOAD PUSH28 0xFFFFFFFFFFFFFFFFFFFFFFFFFFFFFFFFFFFFFFFFFFFFFFFFFFFFFFFF DUP4 DUP2 DUP4 AND OR DUP4 MSTORE POP POP POP POP PUSH1 0x40 MLOAD PUSH3 0x1422 SWAP2 SWAP1 PUSH3 0x1D2D JUMP JUMPDEST PUSH1 0x0 PUSH1 0x40 MLOAD DUP1 DUP4 SUB DUP2 PUSH1 0x0 DUP7 GAS CALL SWAP2 POP POP RETURNDATASIZE DUP1 PUSH1 0x0 DUP2 EQ PUSH3 0x1461 JUMPI PUSH1 0x40 MLOAD SWAP2 POP PUSH1 0x1F NOT PUSH1 0x3F RETURNDATASIZE ADD AND DUP3 ADD PUSH1 0x40 MSTORE RETURNDATASIZE DUP3 MSTORE RETURNDATASIZE PUSH1 0x0 PUSH1 0x20 DUP5 ADD RETURNDATACOPY PUSH3 0x1466 JUMP JUMPDEST PUSH1 0x60 SWAP2 POP JUMPDEST POP SWAP2 POP SWAP2 POP PUSH1 0x0 DUP4 PUSH1 0x0 ADD MLOAD DUP5 PUSH1 0x20 ADD MLOAD DUP6 PUSH1 0x40 ADD MLOAD DUP7 PUSH1 0x60 ADD MLOAD DUP8 PUSH1 0xA0 ADD MLOAD DUP9 PUSH1 0xC0 ADD MLOAD PUSH1 0x40 MLOAD PUSH1 0x20 ADD PUSH3 0x14A2 SWAP7 SWAP6 SWAP5 SWAP4 SWAP3 SWAP2 SWAP1 PUSH3 0x1BD3 JUMP JUMPDEST PUSH1 0x40 MLOAD PUSH1 0x20 DUP2 DUP4 SUB SUB DUP2 MSTORE SWAP1 PUSH1 0x40 MSTORE DUP1 MLOAD SWAP1 PUSH1 0x20 ADD KECCAK256 SWAP1 POP DUP4 PUSH1 0x20 ADD MLOAD PUSH20 0xFFFFFFFFFFFFFFFFFFFFFFFFFFFFFFFFFFFFFFFF AND DUP5 PUSH1 0x0 ADD MLOAD PUSH20 0xFFFFFFFFFFFFFFFFFFFFFFFFFFFFFFFFFFFFFFFF AND PUSH32 0x9B3260990101A9C5EB670B44BA2F4EC1048DDAF533A012ABFF3841EF15307FEC DUP4 DUP8 PUSH1 0x40 ADD MLOAD PUSH1 0x40 MLOAD PUSH3 0x1527 SWAP3 SWAP2 SWAP1 PUSH3 0x1C6A JUMP JUMPDEST PUSH1 0x40 MLOAD DUP1 SWAP2 SUB SWAP1 LOG3 POP POP POP POP JUMP JUMPDEST PUSH2 0xE30 DUP1 PUSH3 0x234F DUP4 CODECOPY ADD SWAP1 JUMP JUMPDEST PUSH1 0x0 PUSH1 0x40 MLOAD SWAP1 POP SWAP1 JUMP JUMPDEST PUSH1 0x0 DUP1 REVERT JUMPDEST PUSH1 0x0 DUP1 REVERT JUMPDEST PUSH1 0x0 PUSH20 0xFFFFFFFFFFFFFFFFFFFFFFFFFFFFFFFFFFFFFFFF DUP3 AND SWAP1 POP SWAP2 SWAP1 POP JUMP JUMPDEST PUSH1 0x0 PUSH3 0x1584 DUP3 PUSH3 0x1557 JUMP JUMPDEST SWAP1 POP SWAP2 SWAP1 POP JUMP JUMPDEST PUSH3 0x1596 DUP2 PUSH3 0x1577 JUMP JUMPDEST DUP2 EQ PUSH3 0x15A2 JUMPI PUSH1 0x0 DUP1 REVERT JUMPDEST POP JUMP JUMPDEST PUSH1 0x0 DUP2 CALLDATALOAD SWAP1 POP PUSH3 0x15B6 DUP2 PUSH3 0x158B JUMP JUMPDEST SWAP3 SWAP2 POP POP JUMP JUMPDEST PUSH1 0x0 PUSH1 0x20 DUP3 DUP5 SUB SLT ISZERO PUSH3 0x15D5 JUMPI PUSH3 0x15D4 PUSH3 0x154D JUMP JUMPDEST JUMPDEST PUSH1 0x0 PUSH3 0x15E5 DUP5 DUP3 DUP6 ADD PUSH3 0x15A5 JUMP JUMPDEST SWAP2 POP POP SWAP3 SWAP2 POP POP JUMP JUMPDEST PUSH1 0x0 PUSH3 0x15FB DUP3 PUSH3 0x1557 JUMP JUMPDEST SWAP1 POP SWAP2 SWAP1 POP JUMP JUMPDEST PUSH3 0x160D DUP2 PUSH3 0x15EE JUMP JUMPDEST DUP2 EQ PUSH3 0x1619 JUMPI PUSH1 0x0 DUP1 REVERT JUMPDEST POP JUMP JUMPDEST PUSH1 0x0 DUP2 CALLDATALOAD SWAP1 POP PUSH3 0x162D DUP2 PUSH3 0x1602 JUMP JUMPDEST SWAP3 SWAP2 POP POP JUMP JUMPDEST PUSH1 0x0 DUP2 SWAP1 POP SWAP2 SWAP1 POP JUMP JUMPDEST PUSH3 0x1648 DUP2 PUSH3 0x1633 JUMP JUMPDEST DUP2 EQ PUSH3 0x1654 JUMPI PUSH1 0x0 DUP1 REVERT JUMPDEST POP JUMP JUMPDEST PUSH1 0x0 DUP2 CALLDATALOAD SWAP1 POP PUSH3 0x1668 DUP2 PUSH3 0x163D JUMP JUMPDEST SWAP3 SWAP2 POP POP JUMP JUMPDEST PUSH1 0x0 DUP1 REVERT JUMPDEST PUSH1 0x0 DUP1 REVERT JUMPDEST PUSH1 0x0 PUSH1 0x1F NOT PUSH1 0x1F DUP4 ADD AND SWAP1 POP SWAP2 SWAP1 POP JUMP JUMPDEST PUSH32 0x4E487B7100000000000000000000000000000000000000000000000000000000 PUSH1 0x0 MSTORE PUSH1 0x41 PUSH1 0x4 MSTORE PUSH1 0x24 PUSH1 0x0 REVERT JUMPDEST PUSH3 0x16C3 DUP3 PUSH3 0x1678 JUMP JUMPDEST DUP2 ADD DUP2 DUP2 LT PUSH8 0xFFFFFFFFFFFFFFFF DUP3 GT OR ISZERO PUSH3 0x16E5 JUMPI PUSH3 0x16E4 PUSH3 0x1689 JUMP JUMPDEST JUMPDEST DUP1 PUSH1 0x40 MSTORE POP POP POP JUMP JUMPDEST PUSH1 0x0 PUSH3 0x16FA PUSH3 0x1543 JUMP JUMPDEST SWAP1 POP PUSH3 0x1708 DUP3 DUP3 PUSH3 0x16B8 JUMP JUMPDEST SWAP2 SWAP1 POP JUMP JUMPDEST PUSH1 0x0 PUSH8 0xFFFFFFFFFFFFFFFF DUP3 GT ISZERO PUSH3 0x172B JUMPI PUSH3 0x172A PUSH3 0x1689 JUMP JUMPDEST JUMPDEST PUSH3 0x1736 DUP3 PUSH3 0x1678 JUMP JUMPDEST SWAP1 POP PUSH1 0x20 DUP2 ADD SWAP1 POP SWAP2 SWAP1 POP JUMP JUMPDEST DUP3 DUP2 DUP4 CALLDATACOPY PUSH1 0x0 DUP4 DUP4 ADD MSTORE POP POP POP JUMP JUMPDEST PUSH1 0x0 PUSH3 0x1769 PUSH3 0x1763 DUP5 PUSH3 0x170D JUMP JUMPDEST PUSH3 0x16EE JUMP JUMPDEST SWAP1 POP DUP3 DUP2 MSTORE PUSH1 0x20 DUP2 ADD DUP5 DUP5 DUP5 ADD GT ISZERO PUSH3 0x1788 JUMPI PUSH3 0x1787 PUSH3 0x1673 JUMP JUMPDEST JUMPDEST PUSH3 0x1795 DUP5 DUP3 DUP6 PUSH3 0x1743 JUMP JUMPDEST POP SWAP4 SWAP3 POP POP POP JUMP JUMPDEST PUSH1 0x0 DUP3 PUSH1 0x1F DUP4 ADD SLT PUSH3 0x17B5 JUMPI PUSH3 0x17B4 PUSH3 0x166E JUMP JUMPDEST JUMPDEST DUP2 CALLDATALOAD PUSH3 0x17C7 DUP5 DUP3 PUSH1 0x20 DUP7 ADD PUSH3 0x1752 JUMP JUMPDEST SWAP2 POP POP SWAP3 SWAP2 POP POP JUMP JUMPDEST PUSH1 0x0 DUP1 PUSH1 0x0 DUP1 PUSH1 0x0 DUP1 PUSH1 0x0 PUSH1 0xE0 DUP9 DUP11 SUB SLT ISZERO PUSH3 0x17F2 JUMPI PUSH3 0x17F1 PUSH3 0x154D JUMP JUMPDEST JUMPDEST PUSH1 0x0 PUSH3 0x1802 DUP11 DUP3 DUP12 ADD PUSH3 0x161C JUMP JUMPDEST SWAP8 POP POP PUSH1 0x20 PUSH3 0x1815 DUP11 DUP3 DUP12 ADD PUSH3 0x161C JUMP JUMPDEST SWAP7 POP POP PUSH1 0x40 PUSH3 0x1828 DUP11 DUP3 DUP12 ADD PUSH3 0x1657 JUMP JUMPDEST SWAP6 POP POP PUSH1 0x60 PUSH3 0x183B DUP11 DUP3 DUP12 ADD PUSH3 0x1657 JUMP JUMPDEST SWAP5 POP POP PUSH1 0x80 DUP9 ADD CALLDATALOAD PUSH8 0xFFFFFFFFFFFFFFFF DUP2 GT ISZERO PUSH3 0x185F JUMPI PUSH3 0x185E PUSH3 0x1552 JUMP JUMPDEST JUMPDEST PUSH3 0x186D DUP11 DUP3 DUP12 ADD PUSH3 0x179D JUMP JUMPDEST SWAP4 POP POP PUSH1 0xA0 PUSH3 0x1880 DUP11 DUP3 DUP12 ADD PUSH3 0x1657 JUMP JUMPDEST SWAP3 POP POP PUSH1 0xC0 PUSH3 0x1893 DUP11 DUP3 DUP12 ADD PUSH3 0x1657 JUMP JUMPDEST SWAP2 POP POP SWAP3 SWAP6 SWAP9 SWAP2 SWAP5 SWAP8 POP SWAP3 SWAP6 POP JUMP JUMPDEST PUSH1 0x0 PUSH1 0x20 DUP3 DUP5 SUB SLT ISZERO PUSH3 0x18BB JUMPI PUSH3 0x18BA PUSH3 0x154D JUMP JUMPDEST JUMPDEST PUSH1 0x0 PUSH3 0x18CB DUP5 DUP3 DUP6 ADD PUSH3 0x1657 JUMP JUMPDEST SWAP2 POP POP SWAP3 SWAP2 POP POP JUMP JUMPDEST PUSH3 0x18DF DUP2 PUSH3 0x1633 JUMP JUMPDEST DUP3 MSTORE POP POP JUMP JUMPDEST PUSH1 0x0 PUSH1 0x20 DUP3 ADD SWAP1 POP PUSH3 0x18FC PUSH1 0x0 DUP4 ADD DUP5 PUSH3 0x18D4 JUMP JUMPDEST SWAP3 SWAP2 POP POP JUMP JUMPDEST PUSH1 0x0 PUSH1 0x20 DUP3 DUP5 SUB SLT ISZERO PUSH3 0x191B JUMPI PUSH3 0x191A PUSH3 0x154D JUMP JUMPDEST JUMPDEST PUSH1 0x0 PUSH3 0x192B DUP5 DUP3 DUP6 ADD PUSH3 0x161C JUMP JUMPDEST SWAP2 POP POP SWAP3 SWAP2 POP POP JUMP JUMPDEST PUSH3 0x193F DUP2 PUSH3 0x15EE JUMP JUMPDEST DUP3 MSTORE POP POP JUMP JUMPDEST PUSH1 0x0 PUSH1 0x20 DUP3 ADD SWAP1 POP PUSH3 0x195C PUSH1 0x0 DUP4 ADD DUP5 PUSH3 0x1934 JUMP JUMPDEST SWAP3 SWAP2 POP POP JUMP JUMPDEST PUSH1 0x0 DUP3 DUP3 MSTORE PUSH1 0x20 DUP3 ADD SWAP1 POP SWAP3 SWAP2 POP POP JUMP JUMPDEST PUSH32 0x4F6E6C79206F776E65722063616E2063616C6C20746869732066756E6374696F PUSH1 0x0 DUP3 ADD MSTORE PUSH32 0x6E00000000000000000000000000000000000000000000000000000000000000 PUSH1 0x20 DUP3 ADD MSTORE POP JUMP JUMPDEST PUSH1 0x0 PUSH3 0x19D1 PUSH1 0x21 DUP4 PUSH3 0x1962 JUMP JUMPDEST SWAP2 POP PUSH3 0x19DE DUP3 PUSH3 0x1973 JUMP JUMPDEST PUSH1 0x40 DUP3 ADD SWAP1 POP SWAP2 SWAP1 POP JUMP JUMPDEST PUSH1 0x0 PUSH1 0x20 DUP3 ADD SWAP1 POP DUP2 DUP2 SUB PUSH1 0x0 DUP4 ADD MSTORE PUSH3 0x1A04 DUP2 PUSH3 0x19C2 JUMP JUMPDEST SWAP1 POP SWAP2 SWAP1 POP JUMP JUMPDEST PUSH32 0x50726F78792077616C6C6574206E6F7420666F756E6400000000000000000000 PUSH1 0x0 DUP3 ADD MSTORE POP JUMP JUMPDEST PUSH1 0x0 PUSH3 0x1A43 PUSH1 0x16 DUP4 PUSH3 0x1962 JUMP JUMPDEST SWAP2 POP PUSH3 0x1A50 DUP3 PUSH3 0x1A0B JUMP JUMPDEST PUSH1 0x20 DUP3 ADD SWAP1 POP SWAP2 SWAP1 POP JUMP JUMPDEST PUSH1 0x0 PUSH1 0x20 DUP3 ADD SWAP1 POP DUP2 DUP2 SUB PUSH1 0x0 DUP4 ADD MSTORE PUSH3 0x1A76 DUP2 PUSH3 0x1A34 JUMP JUMPDEST SWAP1 POP SWAP2 SWAP1 POP JUMP JUMPDEST PUSH1 0x0 DUP2 MLOAD SWAP1 POP PUSH3 0x1A8E DUP2 PUSH3 0x1602 JUMP JUMPDEST SWAP3 SWAP2 POP POP JUMP JUMPDEST PUSH1 0x0 PUSH1 0x20 DUP3 DUP5 SUB SLT ISZERO PUSH3 0x1AAD JUMPI PUSH3 0x1AAC PUSH3 0x154D JUMP JUMPDEST JUMPDEST PUSH1 0x0 PUSH3 0x1ABD DUP5 DUP3 DUP6 ADD PUSH3 0x1A7D JUMP JUMPDEST SWAP2 POP POP SWAP3 SWAP2 POP POP JUMP JUMPDEST PUSH32 0x53656C6C6572206973206E6F7420746865206F776E6572206F66207468697320 PUSH1 0x0 DUP3 ADD MSTORE PUSH32 0x746F6B656E000000000000000000000000000000000000000000000000000000 PUSH1 0x20 DUP3 ADD MSTORE POP JUMP JUMPDEST PUSH1 0x0 PUSH3 0x1B24 PUSH1 0x25 DUP4 PUSH3 0x1962 JUMP JUMPDEST SWAP2 POP PUSH3 0x1B31 DUP3 PUSH3 0x1AC6 JUMP JUMPDEST PUSH1 0x40 DUP3 ADD SWAP1 POP SWAP2 SWAP1 POP JUMP JUMPDEST PUSH1 0x0 PUSH1 0x20 DUP3 ADD SWAP1 POP DUP2 DUP2 SUB PUSH1 0x0 DUP4 ADD MSTORE PUSH3 0x1B57 DUP2 PUSH3 0x1B15 JUMP JUMPDEST SWAP1 POP SWAP2 SWAP1 POP JUMP JUMPDEST PUSH1 0x0 DUP2 PUSH1 0x60 SHL SWAP1 POP SWAP2 SWAP1 POP JUMP JUMPDEST PUSH1 0x0 PUSH3 0x1B78 DUP3 PUSH3 0x1B5E JUMP JUMPDEST SWAP1 POP SWAP2 SWAP1 POP JUMP JUMPDEST PUSH1 0x0 PUSH3 0x1B8C DUP3 PUSH3 0x1B6B JUMP JUMPDEST SWAP1 POP SWAP2 SWAP1 POP JUMP JUMPDEST PUSH3 0x1BA8 PUSH3 0x1BA2 DUP3 PUSH3 0x15EE JUMP JUMPDEST PUSH3 0x1B7F JUMP JUMPDEST DUP3 MSTORE POP POP JUMP JUMPDEST PUSH1 0x0 DUP2 SWAP1 POP SWAP2 SWAP1 POP JUMP JUMPDEST PUSH3 0x1BCD PUSH3 0x1BC7 DUP3 PUSH3 0x1633 JUMP JUMPDEST PUSH3 0x1BAE JUMP JUMPDEST DUP3 MSTORE POP POP JUMP JUMPDEST PUSH1 0x0 PUSH3 0x1BE1 DUP3 DUP10 PUSH3 0x1B93 JUMP JUMPDEST PUSH1 0x14 DUP3 ADD SWAP2 POP PUSH3 0x1BF3 DUP3 DUP9 PUSH3 0x1B93 JUMP JUMPDEST PUSH1 0x14 DUP3 ADD SWAP2 POP PUSH3 0x1C05 DUP3 DUP8 PUSH3 0x1BB8 JUMP JUMPDEST PUSH1 0x20 DUP3 ADD SWAP2 POP PUSH3 0x1C17 DUP3 DUP7 PUSH3 0x1BB8 JUMP JUMPDEST PUSH1 0x20 DUP3 ADD SWAP2 POP PUSH3 0x1C29 DUP3 DUP6 PUSH3 0x1BB8 JUMP JUMPDEST PUSH1 0x20 DUP3 ADD SWAP2 POP PUSH3 0x1C3B DUP3 DUP5 PUSH3 0x1BB8 JUMP JUMPDEST PUSH1 0x20 DUP3 ADD SWAP2 POP DUP2 SWAP1 POP SWAP8 SWAP7 POP POP POP POP POP POP POP JUMP JUMPDEST PUSH1 0x0 DUP2 SWAP1 POP SWAP2 SWAP1 POP JUMP JUMPDEST PUSH3 0x1C64 DUP2 PUSH3 0x1C4F JUMP JUMPDEST DUP3 MSTORE POP POP JUMP JUMPDEST PUSH1 0x0 PUSH1 0x40 DUP3 ADD SWAP1 POP PUSH3 0x1C81 PUSH1 0x0 DUP4 ADD DUP6 PUSH3 0x1C59 JUMP JUMPDEST PUSH3 0x1C90 PUSH1 0x20 DUP4 ADD DUP5 PUSH3 0x18D4 JUMP JUMPDEST SWAP4 SWAP3 POP POP POP JUMP JUMPDEST PUSH1 0x0 PUSH1 0x20 DUP3 ADD SWAP1 POP PUSH3 0x1CAE PUSH1 0x0 DUP4 ADD DUP5 PUSH3 0x1C59 JUMP JUMPDEST SWAP3 SWAP2 POP POP JUMP JUMPDEST PUSH1 0x0 DUP2 MLOAD SWAP1 POP SWAP2 SWAP1 POP JUMP JUMPDEST PUSH1 0x0 DUP2 SWAP1 POP SWAP3 SWAP2 POP POP JUMP JUMPDEST PUSH1 0x0 JUMPDEST DUP4 DUP2 LT ISZERO PUSH3 0x1CEA JUMPI DUP1 DUP3 ADD MLOAD DUP2 DUP5 ADD MSTORE PUSH1 0x20 DUP2 ADD SWAP1 POP PUSH3 0x1CCD JUMP JUMPDEST PUSH1 0x0 DUP5 DUP5 ADD MSTORE POP POP POP POP JUMP JUMPDEST PUSH1 0x0 PUSH3 0x1D03 DUP3 PUSH3 0x1CB4 JUMP JUMPDEST PUSH3 0x1D0F DUP2 DUP6 PUSH3 0x1CBF JUMP JUMPDEST SWAP4 POP PUSH3 0x1D21 DUP2 DUP6 PUSH1 0x20 DUP7 ADD PUSH3 0x1CCA JUMP JUMPDEST DUP1 DUP5 ADD SWAP2 POP POP SWAP3 SWAP2 POP POP JUMP JUMPDEST PUSH1 0x0 PUSH3 0x1D3B DUP3 DUP5 PUSH3 0x1CF6 JUMP JUMPDEST SWAP2 POP DUP2 SWAP1 POP SWAP3 SWAP2 POP POP JUMP JUMPDEST PUSH1 0x0 DUP2 ISZERO ISZERO SWAP1 POP SWAP2 SWAP1 POP JUMP JUMPDEST PUSH3 0x1D5D DUP2 PUSH3 0x1D46 JUMP JUMPDEST DUP2 EQ PUSH3 0x1D69 JUMPI PUSH1 0x0 DUP1 REVERT JUMPDEST POP JUMP JUMPDEST PUSH1 0x0 DUP2 MLOAD SWAP1 POP PUSH3 0x1D7D DUP2 PUSH3 0x1D52 JUMP JUMPDEST SWAP3 SWAP2 POP POP JUMP JUMPDEST PUSH1 0x0 PUSH1 0x20 DUP3 DUP5 SUB SLT ISZERO PUSH3 0x1D9C JUMPI PUSH3 0x1D9B PUSH3 0x154D JUMP JUMPDEST JUMPDEST PUSH1 0x0 PUSH3 0x1DAC DUP5 DUP3 DUP6 ADD PUSH3 0x1D6C JUMP JUMPDEST SWAP2 POP POP SWAP3 SWAP2 POP POP JUMP JUMPDEST PUSH32 0x4F72646572206973206E6F742076616C69640000000000000000000000000000 PUSH1 0x0 DUP3 ADD MSTORE POP JUMP JUMPDEST PUSH1 0x0 PUSH3 0x1DED PUSH1 0x12 DUP4 PUSH3 0x1962 JUMP JUMPDEST SWAP2 POP PUSH3 0x1DFA DUP3 PUSH3 0x1DB5 JUMP JUMPDEST PUSH1 0x20 DUP3 ADD SWAP1 POP SWAP2 SWAP1 POP JUMP JUMPDEST PUSH1 0x0 PUSH1 0x20 DUP3 ADD SWAP1 POP DUP2 DUP2 SUB PUSH1 0x0 DUP4 ADD MSTORE PUSH3 0x1E20 DUP2 PUSH3 0x1DDE JUMP JUMPDEST SWAP1 POP SWAP2 SWAP1 POP JUMP JUMPDEST PUSH32 0x4E487B7100000000000000000000000000000000000000000000000000000000 PUSH1 0x0 MSTORE PUSH1 0x11 PUSH1 0x4 MSTORE PUSH1 0x24 PUSH1 0x0 REVERT JUMPDEST PUSH1 0x0 PUSH3 0x1E63 DUP3 PUSH3 0x1633 JUMP JUMPDEST SWAP2 POP PUSH3 0x1E70 DUP4 PUSH3 0x1633 JUMP JUMPDEST SWAP3 POP DUP3 DUP3 SUB SWAP1 POP DUP2 DUP2 GT ISZERO PUSH3 0x1E8B JUMPI PUSH3 0x1E8A PUSH3 0x1E27 JUMP JUMPDEST JUMPDEST SWAP3 SWAP2 POP POP JUMP JUMPDEST PUSH3 0x1E9C DUP2 PUSH3 0x15EE JUMP JUMPDEST DUP3 MSTORE POP POP JUMP JUMPDEST PUSH3 0x1EAD DUP2 PUSH3 0x1633 JUMP JUMPDEST DUP3 MSTORE POP POP JUMP JUMPDEST PUSH1 0x0 DUP3 DUP3 MSTORE PUSH1 0x20 DUP3 ADD SWAP1 POP SWAP3 SWAP2 POP POP JUMP JUMPDEST PUSH1 0x0 PUSH3 0x1ED1 DUP3 PUSH3 0x1CB4 JUMP JUMPDEST PUSH3 0x1EDD DUP2 DUP6 PUSH3 0x1EB3 JUMP JUMPDEST SWAP4 POP PUSH3 0x1EEF DUP2 DUP6 PUSH1 0x20 DUP7 ADD PUSH3 0x1CCA JUMP JUMPDEST PUSH3 0x1EFA DUP2 PUSH3 0x1678 JUMP JUMPDEST DUP5 ADD SWAP2 POP POP SWAP3 SWAP2 POP POP JUMP JUMPDEST PUSH1 0x0 PUSH1 0xE0 DUP4 ADD PUSH1 0x0 DUP4 ADD MLOAD PUSH3 0x1F1F PUSH1 0x0 DUP7 ADD DUP3 PUSH3 0x1E91 JUMP JUMPDEST POP PUSH1 0x20 DUP4 ADD MLOAD PUSH3 0x1F34 PUSH1 0x20 DUP7 ADD DUP3 PUSH3 0x1E91 JUMP JUMPDEST POP PUSH1 0x40 DUP4 ADD MLOAD PUSH3 0x1F49 PUSH1 0x40 DUP7 ADD DUP3 PUSH3 0x1EA2 JUMP JUMPDEST POP PUSH1 0x60 DUP4 ADD MLOAD PUSH3 0x1F5E PUSH1 0x60 DUP7 ADD DUP3 PUSH3 0x1EA2 JUMP JUMPDEST POP PUSH1 0x80 DUP4 ADD MLOAD DUP5 DUP3 SUB PUSH1 0x80 DUP7 ADD MSTORE PUSH3 0x1F78 DUP3 DUP3 PUSH3 0x1EC4 JUMP JUMPDEST SWAP2 POP POP PUSH1 0xA0 DUP4 ADD MLOAD PUSH3 0x1F8F PUSH1 0xA0 DUP7 ADD DUP3 PUSH3 0x1EA2 JUMP JUMPDEST POP PUSH1 0xC0 DUP4 ADD MLOAD PUSH3 0x1FA4 PUSH1 0xC0 DUP7 ADD DUP3 PUSH3 0x1EA2 JUMP JUMPDEST POP DUP1 SWAP2 POP POP SWAP3 SWAP2 POP POP JUMP JUMPDEST PUSH1 0x0 PUSH1 0x40 DUP3 ADD SWAP1 POP DUP2 DUP2 SUB PUSH1 0x0 DUP4 ADD MSTORE PUSH3 0x1FCB DUP2 DUP6 PUSH3 0x1F05 JUMP JUMPDEST SWAP1 POP PUSH3 0x1FDC PUSH1 0x20 DUP4 ADD DUP5 PUSH3 0x1934 JUMP JUMPDEST SWAP4 SWAP3 POP POP POP JUMP JUMPDEST PUSH1 0x0 PUSH1 0x60 DUP3 ADD SWAP1 POP PUSH3 0x1FFA PUSH1 0x0 DUP4 ADD DUP7 PUSH3 0x18D4 JUMP JUMPDEST PUSH3 0x2009 PUSH1 0x20 DUP4 ADD DUP6 PUSH3 0x1C59 JUMP JUMPDEST PUSH3 0x2018 PUSH1 0x40 DUP4 ADD DUP5 PUSH3 0x18D4 JUMP JUMPDEST SWAP5 SWAP4 POP POP POP POP JUMP JUMPDEST PUSH1 0x0 PUSH1 0x60 DUP3 ADD SWAP1 POP PUSH3 0x2037 PUSH1 0x0 DUP4 ADD DUP7 PUSH3 0x1C59 JUMP JUMPDEST PUSH3 0x2046 PUSH1 0x20 DUP4 ADD DUP6 PUSH3 0x18D4 JUMP JUMPDEST PUSH3 0x2055 PUSH1 0x40 DUP4 ADD DUP5 PUSH3 0x18D4 JUMP JUMPDEST SWAP5 SWAP4 POP POP POP POP JUMP JUMPDEST PUSH32 0x6D617463686661696C0000000000000000000000000000000000000000000000 PUSH1 0x0 DUP3 ADD MSTORE POP JUMP JUMPDEST PUSH1 0x0 PUSH3 0x2095 PUSH1 0x9 DUP4 PUSH3 0x1962 JUMP JUMPDEST SWAP2 POP PUSH3 0x20A2 DUP3 PUSH3 0x205D JUMP JUMPDEST PUSH1 0x20 DUP3 ADD SWAP1 POP SWAP2 SWAP1 POP JUMP JUMPDEST PUSH1 0x0 PUSH1 0x20 DUP3 ADD SWAP1 POP DUP2 DUP2 SUB PUSH1 0x0 DUP4 ADD MSTORE PUSH3 0x20C8 DUP2 PUSH3 0x2086 JUMP JUMPDEST SWAP1 POP SWAP2 SWAP1 POP JUMP JUMPDEST PUSH32 0x496E73756666696369656E74207061796D656E74000000000000000000000000 PUSH1 0x0 DUP3 ADD MSTORE POP JUMP JUMPDEST PUSH1 0x0 PUSH3 0x2107 PUSH1 0x14 DUP4 PUSH3 0x1962 JUMP JUMPDEST SWAP2 POP PUSH3 0x2114 DUP3 PUSH3 0x20CF JUMP JUMPDEST PUSH1 0x20 DUP3 ADD SWAP1 POP SWAP2 SWAP1 POP JUMP JUMPDEST PUSH1 0x0 PUSH1 0x20 DUP3 ADD SWAP1 POP DUP2 DUP2 SUB PUSH1 0x0 DUP4 ADD MSTORE PUSH3 0x213A DUP2 PUSH3 0x20F8 JUMP JUMPDEST SWAP1 POP SWAP2 SWAP1 POP JUMP JUMPDEST PUSH32 0x4F6E6C792073656C6C65722063616E2063616C6C20746869732066756E637469 PUSH1 0x0 DUP3 ADD MSTORE PUSH32 0x6F6E000000000000000000000000000000000000000000000000000000000000 PUSH1 0x20 DUP3 ADD MSTORE POP JUMP JUMPDEST PUSH1 0x0 PUSH3 0x219F PUSH1 0x22 DUP4 PUSH3 0x1962 JUMP JUMPDEST SWAP2 POP PUSH3 0x21AC DUP3 PUSH3 0x2141 JUMP JUMPDEST PUSH1 0x40 DUP3 ADD SWAP1 POP SWAP2 SWAP1 POP JUMP JUMPDEST PUSH1 0x0 PUSH1 0x20 DUP3 ADD SWAP1 POP DUP2 DUP2 SUB PUSH1 0x0 DUP4 ADD MSTORE PUSH3 0x21D2 DUP2 PUSH3 0x2190 JUMP JUMPDEST SWAP1 POP SWAP2 SWAP1 POP JUMP JUMPDEST PUSH1 0x0 PUSH1 0x40 DUP3 ADD SWAP1 POP PUSH3 0x21F0 PUSH1 0x0 DUP4 ADD DUP6 PUSH3 0x18D4 JUMP JUMPDEST PUSH3 0x21FF PUSH1 0x20 DUP4 ADD DUP5 PUSH3 0x18D4 JUMP JUMPDEST SWAP4 SWAP3 POP POP POP JUMP JUMPDEST PUSH32 0x50726F78792077616C6C657420616C7265616479206578697374730000000000 PUSH1 0x0 DUP3 ADD MSTORE POP JUMP JUMPDEST PUSH1 0x0 PUSH3 0x223E PUSH1 0x1B DUP4 PUSH3 0x1962 JUMP JUMPDEST SWAP2 POP PUSH3 0x224B DUP3 PUSH3 0x2206 JUMP JUMPDEST PUSH1 0x20 DUP3 ADD SWAP1 POP SWAP2 SWAP1 POP JUMP JUMPDEST PUSH1 0x0 PUSH1 0x20 DUP3 ADD SWAP1 POP DUP2 DUP2 SUB PUSH1 0x0 DUP4 ADD MSTORE PUSH3 0x2271 DUP2 PUSH3 0x222F JUMP JUMPDEST SWAP1 POP SWAP2 SWAP1 POP JUMP JUMPDEST PUSH1 0x0 PUSH3 0x2285 DUP3 PUSH3 0x1633 JUMP JUMPDEST SWAP2 POP PUSH3 0x2292 DUP4 PUSH3 0x1633 JUMP JUMPDEST SWAP3 POP DUP3 DUP3 MUL PUSH3 0x22A2 DUP2 PUSH3 0x1633 JUMP JUMPDEST SWAP2 POP DUP3 DUP3 DIV DUP5 EQ DUP4 ISZERO OR PUSH3 0x22BC JUMPI PUSH3 0x22BB PUSH3 0x1E27 JUMP JUMPDEST JUMPDEST POP SWAP3 SWAP2 POP POP JUMP JUMPDEST PUSH32 0x4E487B7100000000000000000000000000000000000000000000000000000000 PUSH1 0x0 MSTORE PUSH1 0x12 PUSH1 0x4 MSTORE PUSH1 0x24 PUSH1 0x0 REVERT JUMPDEST PUSH1 0x0 PUSH3 0x22FF DUP3 PUSH3 0x1633 JUMP JUMPDEST SWAP2 POP PUSH3 0x230C DUP4 PUSH3 0x1633 JUMP JUMPDEST SWAP3 POP DUP3 PUSH3 0x231F JUMPI PUSH3 0x231E PUSH3 0x22C3 JUMP JUMPDEST JUMPDEST DUP3 DUP3 DIV SWAP1 POP SWAP3 SWAP2 POP POP JUMP JUMPDEST PUSH1 0x0 PUSH1 0x20 DUP3 ADD SWAP1 POP DUP2 DUP2 SUB PUSH1 0x0 DUP4 ADD MSTORE PUSH3 0x2346 DUP2 DUP5 PUSH3 0x1F05 JUMP JUMPDEST SWAP1 POP SWAP3 SWAP2 POP POP JUMP INVALID PUSH1 0x80 PUSH1 0x40 MSTORE PUSH1 0x40 MLOAD PUSH2 0xE30 CODESIZE SUB DUP1 PUSH2 0xE30 DUP4 CODECOPY DUP2 DUP2 ADD PUSH1 0x40 MSTORE DUP2 ADD SWAP1 PUSH2 0x25 SWAP2 SWAP1 PUSH2 0xCE JUMP JUMPDEST DUP1 PUSH1 0x0 DUP1 PUSH2 0x100 EXP DUP2 SLOAD DUP2 PUSH20 0xFFFFFFFFFFFFFFFFFFFFFFFFFFFFFFFFFFFFFFFF MUL NOT AND SWAP1 DUP4 PUSH20 0xFFFFFFFFFFFFFFFFFFFFFFFFFFFFFFFFFFFFFFFF AND MUL OR SWAP1 SSTORE POP POP PUSH2 0xFB JUMP JUMPDEST PUSH1 0x0 DUP1 REVERT JUMPDEST PUSH1 0x0 PUSH20 0xFFFFFFFFFFFFFFFFFFFFFFFFFFFFFFFFFFFFFFFF DUP3 AND SWAP1 POP SWAP2 SWAP1 POP JUMP JUMPDEST PUSH1 0x0 PUSH2 0x9B DUP3 PUSH2 0x70 JUMP JUMPDEST SWAP1 POP SWAP2 SWAP1 POP JUMP JUMPDEST PUSH2 0xAB DUP2 PUSH2 0x90 JUMP JUMPDEST DUP2 EQ PUSH2 0xB6 JUMPI PUSH1 0x0 DUP1 REVERT JUMPDEST POP JUMP JUMPDEST PUSH1 0x0 DUP2 MLOAD SWAP1 POP PUSH2 0xC8 DUP2 PUSH2 0xA2 JUMP JUMPDEST SWAP3 SWAP2 POP POP JUMP JUMPDEST PUSH1 0x0 PUSH1 0x20 DUP3 DUP5 SUB SLT ISZERO PUSH2 0xE4 JUMPI PUSH2 0xE3 PUSH2 0x6B JUMP JUMPDEST JUMPDEST PUSH1 0x0 PUSH2 0xF2 DUP5 DUP3 DUP6 ADD PUSH2 0xB9 JUMP JUMPDEST SWAP2 POP POP SWAP3 SWAP2 POP POP JUMP JUMPDEST PUSH2 0xD26 DUP1 PUSH2 0x10A PUSH1 0x0 CODECOPY PUSH1 0x0 RETURN INVALID PUSH1 0x80 PUSH1 0x40 MSTORE PUSH1 0x4 CALLDATASIZE LT PUSH2 0x3F JUMPI PUSH1 0x0 CALLDATALOAD PUSH1 0xE0 SHR DUP1 PUSH4 0x8EB6A489 EQ PUSH2 0x44 JUMPI DUP1 PUSH4 0x9B3F3F1A EQ PUSH2 0x81 JUMPI DUP1 PUSH4 0xC04D75DD EQ PUSH2 0xAA JUMPI DUP1 PUSH4 0xEB41850D EQ PUSH2 0xC6 JUMPI JUMPDEST PUSH1 0x0 DUP1 REVERT JUMPDEST CALLVALUE DUP1 ISZERO PUSH2 0x50 JUMPI PUSH1 0x0 DUP1 REVERT JUMPDEST POP PUSH2 0x6B PUSH1 0x4 DUP1 CALLDATASIZE SUB DUP2 ADD SWAP1 PUSH2 0x66 SWAP2 SWAP1 PUSH2 0x5AB JUMP JUMPDEST PUSH2 0x103 JUMP JUMPDEST PUSH1 0x40 MLOAD PUSH2 0x78 SWAP2 SWAP1 PUSH2 0x5F3 JUMP JUMPDEST PUSH1 0x40 MLOAD DUP1 SWAP2 SUB SWAP1 RETURN JUMPDEST CALLVALUE DUP1 ISZERO PUSH2 0x8D JUMPI PUSH1 0x0 DUP1 REVERT JUMPDEST POP PUSH2 0xA8 PUSH1 0x4 DUP1 CALLDATASIZE SUB DUP2 ADD SWAP1 PUSH2 0xA3 SWAP2 SWAP1 PUSH2 0x8C2 JUMP JUMPDEST PUSH2 0x123 JUMP JUMPDEST STOP JUMPDEST PUSH2 0xC4 PUSH1 0x4 DUP1 CALLDATASIZE SUB DUP2 ADD SWAP1 PUSH2 0xBF SWAP2 SWAP1 PUSH2 0x90B JUMP JUMPDEST PUSH2 0x228 JUMP JUMPDEST STOP JUMPDEST CALLVALUE DUP1 ISZERO PUSH2 0xD2 JUMPI PUSH1 0x0 DUP1 REVERT JUMPDEST POP PUSH2 0xED PUSH1 0x4 DUP1 CALLDATASIZE SUB DUP2 ADD SWAP1 PUSH2 0xE8 SWAP2 SWAP1 PUSH2 0x5AB JUMP JUMPDEST PUSH2 0x3CD JUMP JUMPDEST PUSH1 0x40 MLOAD PUSH2 0xFA SWAP2 SWAP1 PUSH2 0x5F3 JUMP JUMPDEST PUSH1 0x40 MLOAD DUP1 SWAP2 SUB SWAP1 RETURN JUMPDEST PUSH1 0x1 PUSH1 0x20 MSTORE DUP1 PUSH1 0x0 MSTORE PUSH1 0x40 PUSH1 0x0 KECCAK256 PUSH1 0x0 SWAP2 POP SLOAD SWAP1 PUSH2 0x100 EXP SWAP1 DIV PUSH1 0xFF AND DUP2 JUMP JUMPDEST PUSH1 0x0 DUP2 PUSH1 0x0 ADD MLOAD DUP3 PUSH1 0x20 ADD MLOAD DUP4 PUSH1 0x40 ADD MLOAD DUP5 PUSH1 0x60 ADD MLOAD DUP6 PUSH1 0xA0 ADD MLOAD DUP7 PUSH1 0xC0 ADD MLOAD PUSH1 0x40 MLOAD PUSH1 0x20 ADD PUSH2 0x158 SWAP7 SWAP6 SWAP5 SWAP4 SWAP3 SWAP2 SWAP1 PUSH2 0x9D0 JUMP JUMPDEST PUSH1 0x40 MLOAD PUSH1 0x20 DUP2 DUP4 SUB SUB DUP2 MSTORE SWAP1 PUSH1 0x40 MSTORE DUP1 MLOAD SWAP1 PUSH1 0x20 ADD KECCAK256 SWAP1 POP PUSH1 0x0 DUP2 PUSH1 0x40 MLOAD PUSH1 0x20 ADD PUSH2 0x183 SWAP2 SWAP1 PUSH2 0xAB8 JUMP JUMPDEST PUSH1 0x40 MLOAD PUSH1 0x20 DUP2 DUP4 SUB SUB DUP2 MSTORE SWAP1 PUSH1 0x40 MSTORE DUP1 MLOAD SWAP1 PUSH1 0x20 ADD KECCAK256 SWAP1 POP DUP3 PUSH1 0x0 ADD MLOAD PUSH20 0xFFFFFFFFFFFFFFFFFFFFFFFFFFFFFFFFFFFFFFFF AND PUSH2 0x1C4 DUP3 DUP6 PUSH1 0x80 ADD MLOAD PUSH2 0x3F7 JUMP JUMPDEST PUSH20 0xFFFFFFFFFFFFFFFFFFFFFFFFFFFFFFFFFFFFFFFF AND EQ PUSH2 0x21A JUMPI PUSH1 0x40 MLOAD PUSH32 0x8C379A000000000000000000000000000000000000000000000000000000000 DUP2 MSTORE PUSH1 0x4 ADD PUSH2 0x211 SWAP1 PUSH2 0xB3B JUMP JUMPDEST PUSH1 0x40 MLOAD DUP1 SWAP2 SUB SWAP1 REVERT JUMPDEST PUSH2 0x223 DUP3 PUSH2 0x48B JUMP JUMPDEST POP POP POP JUMP JUMPDEST PUSH1 0x0 DUP3 PUSH1 0x0 ADD MLOAD DUP4 PUSH1 0x20 ADD MLOAD DUP5 PUSH1 0x40 ADD MLOAD DUP6 PUSH1 0x60 ADD MLOAD DUP7 PUSH1 0xA0 ADD MLOAD DUP8 PUSH1 0xC0 ADD MLOAD PUSH1 0x40 MLOAD PUSH1 0x20 ADD PUSH2 0x25D SWAP7 SWAP6 SWAP5 SWAP4 SWAP3 SWAP2 SWAP1 PUSH2 0x9D0 JUMP JUMPDEST PUSH1 0x40 MLOAD PUSH1 0x20 DUP2 DUP4 SUB SUB DUP2 MSTORE SWAP1 PUSH1 0x40 MSTORE DUP1 MLOAD SWAP1 PUSH1 0x20 ADD KECCAK256 SWAP1 POP PUSH1 0x1 PUSH1 0x0 DUP3 DUP2 MSTORE PUSH1 0x20 ADD SWAP1 DUP2 MSTORE PUSH1 0x20 ADD PUSH1 0x0 KECCAK256 PUSH1 0x0 SWAP1 SLOAD SWAP1 PUSH2 0x100 EXP SWAP1 DIV PUSH1 0xFF AND ISZERO PUSH2 0x2D6 JUMPI PUSH1 0x40 MLOAD PUSH32 0x8C379A000000000000000000000000000000000000000000000000000000000 DUP2 MSTORE PUSH1 0x4 ADD PUSH2 0x2CD SWAP1 PUSH2 0xBA7 JUMP JUMPDEST PUSH1 0x40 MLOAD DUP1 SWAP2 SUB SWAP1 REVERT JUMPDEST PUSH2 0x301 DUP4 PUSH1 0x0 ADD MLOAD DUP5 PUSH1 0x20 ADD MLOAD DUP6 PUSH1 0x40 ADD MLOAD DUP7 PUSH1 0x60 ADD MLOAD DUP8 PUSH1 0x80 ADD MLOAD DUP9 PUSH1 0xA0 ADD MLOAD DUP10 PUSH1 0xC0 ADD MLOAD PUSH2 0x4B9 JUMP JUMPDEST PUSH2 0x340 JUMPI PUSH1 0x40 MLOAD PUSH32 0x8C379A000000000000000000000000000000000000000000000000000000000 DUP2 MSTORE PUSH1 0x4 ADD PUSH2 0x337 SWAP1 PUSH2 0xB3B JUMP JUMPDEST PUSH1 0x40 MLOAD DUP1 SWAP2 SUB SWAP1 REVERT JUMPDEST DUP3 PUSH1 0x20 ADD MLOAD PUSH20 0xFFFFFFFFFFFFFFFFFFFFFFFFFFFFFFFFFFFFFFFF AND PUSH4 0x23B872DD DUP5 PUSH1 0x0 ADD MLOAD DUP5 DUP7 PUSH1 0x40 ADD MLOAD PUSH1 0x40 MLOAD DUP5 PUSH4 0xFFFFFFFF AND PUSH1 0xE0 SHL DUP2 MSTORE PUSH1 0x4 ADD PUSH2 0x389 SWAP4 SWAP3 SWAP2 SWAP1 PUSH2 0xBE5 JUMP JUMPDEST PUSH1 0x0 PUSH1 0x40 MLOAD DUP1 DUP4 SUB DUP2 PUSH1 0x0 DUP8 DUP1 EXTCODESIZE ISZERO DUP1 ISZERO PUSH2 0x3A3 JUMPI PUSH1 0x0 DUP1 REVERT JUMPDEST POP GAS CALL SWAP3 POP POP POP DUP1 ISZERO PUSH2 0x3B4 JUMPI POP PUSH1 0x1 JUMPDEST PUSH2 0x3BE JUMPI POP PUSH2 0x3C9 JUMP JUMPDEST PUSH2 0x3C7 DUP2 PUSH2 0x48B JUMP JUMPDEST POP JUMPDEST POP POP JUMP JUMPDEST PUSH1 0x0 PUSH1 0x1 PUSH1 0x0 DUP4 DUP2 MSTORE PUSH1 0x20 ADD SWAP1 DUP2 MSTORE PUSH1 0x20 ADD PUSH1 0x0 KECCAK256 PUSH1 0x0 SWAP1 SLOAD SWAP1 PUSH2 0x100 EXP SWAP1 DIV PUSH1 0xFF AND SWAP1 POP SWAP2 SWAP1 POP JUMP JUMPDEST PUSH1 0x0 DUP1 PUSH1 0x0 DUP1 PUSH1 0x20 DUP6 ADD MLOAD SWAP3 POP PUSH1 0x40 DUP6 ADD MLOAD SWAP2 POP PUSH1 0x60 DUP6 ADD MLOAD PUSH1 0x0 BYTE SWAP1 POP PUSH1 0x1B DUP2 PUSH1 0xFF AND LT ISZERO PUSH2 0x431 JUMPI PUSH1 0x1B DUP2 PUSH2 0x42E SWAP2 SWAP1 PUSH2 0xC58 JUMP JUMPDEST SWAP1 POP JUMPDEST PUSH1 0x1 DUP7 DUP3 DUP6 DUP6 PUSH1 0x40 MLOAD PUSH1 0x0 DUP2 MSTORE PUSH1 0x20 ADD PUSH1 0x40 MSTORE PUSH1 0x40 MLOAD PUSH2 0x454 SWAP5 SWAP4 SWAP3 SWAP2 SWAP1 PUSH2 0xCAB JUMP JUMPDEST PUSH1 0x20 PUSH1 0x40 MLOAD PUSH1 0x20 DUP2 SUB SWAP1 DUP1 DUP5 SUB SWAP1 DUP6 GAS STATICCALL ISZERO DUP1 ISZERO PUSH2 0x476 JUMPI RETURNDATASIZE PUSH1 0x0 DUP1 RETURNDATACOPY RETURNDATASIZE PUSH1 0x0 REVERT JUMPDEST POP POP POP PUSH1 0x20 PUSH1 0x40 MLOAD SUB MLOAD SWAP4 POP POP POP POP SWAP3 SWAP2 POP POP JUMP JUMPDEST PUSH1 0x1 DUP1 PUSH1 0x0 DUP4 DUP2 MSTORE PUSH1 0x20 ADD SWAP1 DUP2 MSTORE PUSH1 0x20 ADD PUSH1 0x0 KECCAK256 PUSH1 0x0 PUSH2 0x100 EXP DUP2 SLOAD DUP2 PUSH1 0xFF MUL NOT AND SWAP1 DUP4 ISZERO ISZERO MUL OR SWAP1 SSTORE POP POP JUMP JUMPDEST PUSH1 0x0 DUP1 DUP9 DUP9 DUP9 DUP9 DUP8 DUP8 PUSH1 0x40 MLOAD PUSH1 0x20 ADD PUSH2 0x4D7 SWAP7 SWAP6 SWAP5 SWAP4 SWAP3 SWAP2 SWAP1 PUSH2 0x9D0 JUMP JUMPDEST PUSH1 0x40 MLOAD PUSH1 0x20 DUP2 DUP4 SUB SUB DUP2 MSTORE SWAP1 PUSH1 0x40 MSTORE DUP1 MLOAD SWAP1 PUSH1 0x20 ADD KECCAK256 SWAP1 POP PUSH1 0x0 DUP2 PUSH1 0x40 MLOAD PUSH1 0x20 ADD PUSH2 0x502 SWAP2 SWAP1 PUSH2 0xAB8 JUMP JUMPDEST PUSH1 0x40 MLOAD PUSH1 0x20 DUP2 DUP4 SUB SUB DUP2 MSTORE SWAP1 PUSH1 0x40 MSTORE DUP1 MLOAD SWAP1 PUSH1 0x20 ADD KECCAK256 SWAP1 POP DUP10 PUSH20 0xFFFFFFFFFFFFFFFFFFFFFFFFFFFFFFFFFFFFFFFF AND PUSH2 0x53B DUP3 DUP9 PUSH2 0x3F7 JUMP JUMPDEST PUSH20 0xFFFFFFFFFFFFFFFFFFFFFFFFFFFFFFFFFFFFFFFF AND EQ SWAP3 POP POP POP SWAP8 SWAP7 POP POP POP POP POP POP POP JUMP JUMPDEST PUSH1 0x0 PUSH1 0x40 MLOAD SWAP1 POP SWAP1 JUMP JUMPDEST PUSH1 0x0 DUP1 REVERT JUMPDEST PUSH1 0x0 DUP1 REVERT JUMPDEST PUSH1 0x0 DUP2 SWAP1 POP SWAP2 SWAP1 POP JUMP JUMPDEST PUSH2 0x588 DUP2 PUSH2 0x575 JUMP JUMPDEST DUP2 EQ PUSH2 0x593 JUMPI PUSH1 0x0 DUP1 REVERT JUMPDEST POP JUMP JUMPDEST PUSH1 0x0 DUP2 CALLDATALOAD SWAP1 POP PUSH2 0x5A5 DUP2 PUSH2 0x57F JUMP JUMPDEST SWAP3 SWAP2 POP POP JUMP JUMPDEST PUSH1 0x0 PUSH1 0x20 DUP3 DUP5 SUB SLT ISZERO PUSH2 0x5C1 JUMPI PUSH2 0x5C0 PUSH2 0x56B JUMP JUMPDEST JUMPDEST PUSH1 0x0 PUSH2 0x5CF DUP5 DUP3 DUP6 ADD PUSH2 0x596 JUMP JUMPDEST SWAP2 POP POP SWAP3 SWAP2 POP POP JUMP JUMPDEST PUSH1 0x0 DUP2 ISZERO ISZERO SWAP1 POP SWAP2 SWAP1 POP JUMP JUMPDEST PUSH2 0x5ED DUP2 PUSH2 0x5D8 JUMP JUMPDEST DUP3 MSTORE POP POP JUMP JUMPDEST PUSH1 0x0 PUSH1 0x20 DUP3 ADD SWAP1 POP PUSH2 0x608 PUSH1 0x0 DUP4 ADD DUP5 PUSH2 0x5E4 JUMP JUMPDEST SWAP3 SWAP2 POP POP JUMP JUMPDEST PUSH1 0x0 DUP1 REVERT JUMPDEST PUSH1 0x0 PUSH1 0x1F NOT PUSH1 0x1F DUP4 ADD AND SWAP1 POP SWAP2 SWAP1 POP JUMP JUMPDEST PUSH32 0x4E487B7100000000000000000000000000000000000000000000000000000000 PUSH1 0x0 MSTORE PUSH1 0x41 PUSH1 0x4 MSTORE PUSH1 0x24 PUSH1 0x0 REVERT JUMPDEST PUSH2 0x65C DUP3 PUSH2 0x613 JUMP JUMPDEST DUP2 ADD DUP2 DUP2 LT PUSH8 0xFFFFFFFFFFFFFFFF DUP3 GT OR ISZERO PUSH2 0x67B JUMPI PUSH2 0x67A PUSH2 0x624 JUMP JUMPDEST JUMPDEST DUP1 PUSH1 0x40 MSTORE POP POP POP JUMP JUMPDEST PUSH1 0x0 PUSH2 0x68E PUSH2 0x561 JUMP JUMPDEST SWAP1 POP PUSH2 0x69A DUP3 DUP3 PUSH2 0x653 JUMP JUMPDEST SWAP2 SWAP1 POP JUMP JUMPDEST PUSH1 0x0 DUP1 REVERT JUMPDEST PUSH1 0x0 PUSH20 0xFFFFFFFFFFFFFFFFFFFFFFFFFFFFFFFFFFFFFFFF DUP3 AND SWAP1 POP SWAP2 SWAP1 POP JUMP JUMPDEST PUSH1 0x0 PUSH2 0x6CF DUP3 PUSH2 0x6A4 JUMP JUMPDEST SWAP1 POP SWAP2 SWAP1 POP JUMP JUMPDEST PUSH2 0x6DF DUP2 PUSH2 0x6C4 JUMP JUMPDEST DUP2 EQ PUSH2 0x6EA JUMPI PUSH1 0x0 DUP1 REVERT JUMPDEST POP JUMP JUMPDEST PUSH1 0x0 DUP2 CALLDATALOAD SWAP1 POP PUSH2 0x6FC DUP2 PUSH2 0x6D6 JUMP JUMPDEST SWAP3 SWAP2 POP POP JUMP JUMPDEST PUSH1 0x0 DUP2 SWAP1 POP SWAP2 SWAP1 POP JUMP JUMPDEST PUSH2 0x715 DUP2 PUSH2 0x702 JUMP JUMPDEST DUP2 EQ PUSH2 0x720 JUMPI PUSH1 0x0 DUP1 REVERT JUMPDEST POP JUMP JUMPDEST PUSH1 0x0 DUP2 CALLDATALOAD SWAP1 POP PUSH2 0x732 DUP2 PUSH2 0x70C JUMP JUMPDEST SWAP3 SWAP2 POP POP JUMP JUMPDEST PUSH1 0x0 DUP1 REVERT JUMPDEST PUSH1 0x0 DUP1 REVERT JUMPDEST PUSH1 0x0 PUSH8 0xFFFFFFFFFFFFFFFF DUP3 GT ISZERO PUSH2 0x75D JUMPI PUSH2 0x75C PUSH2 0x624 JUMP JUMPDEST JUMPDEST PUSH2 0x766 DUP3 PUSH2 0x613 JUMP JUMPDEST SWAP1 POP PUSH1 0x20 DUP2 ADD SWAP1 POP SWAP2 SWAP1 POP JUMP JUMPDEST DUP3 DUP2 DUP4 CALLDATACOPY PUSH1 0x0 DUP4 DUP4 ADD MSTORE POP POP POP JUMP JUMPDEST PUSH1 0x0 PUSH2 0x795 PUSH2 0x790 DUP5 PUSH2 0x742 JUMP JUMPDEST PUSH2 0x684 JUMP JUMPDEST SWAP1 POP DUP3 DUP2 MSTORE PUSH1 0x20 DUP2 ADD DUP5 DUP5 DUP5 ADD GT ISZERO PUSH2 0x7B1 JUMPI PUSH2 0x7B0 PUSH2 0x73D JUMP JUMPDEST JUMPDEST PUSH2 0x7BC DUP5 DUP3 DUP6 PUSH2 0x773 JUMP JUMPDEST POP SWAP4 SWAP3 POP POP POP JUMP JUMPDEST PUSH1 0x0 DUP3 PUSH1 0x1F DUP4 ADD SLT PUSH2 0x7D9 JUMPI PUSH2 0x7D8 PUSH2 0x738 JUMP JUMPDEST JUMPDEST DUP2 CALLDATALOAD PUSH2 0x7E9 DUP5 DUP3 PUSH1 0x20 DUP7 ADD PUSH2 0x782 JUMP JUMPDEST SWAP2 POP POP SWAP3 SWAP2 POP POP JUMP JUMPDEST PUSH1 0x0 PUSH1 0xE0 DUP3 DUP5 SUB SLT ISZERO PUSH2 0x808 JUMPI PUSH2 0x807 PUSH2 0x60E JUMP JUMPDEST JUMPDEST PUSH2 0x812 PUSH1 0xE0 PUSH2 0x684 JUMP JUMPDEST SWAP1 POP PUSH1 0x0 PUSH2 0x822 DUP5 DUP3 DUP6 ADD PUSH2 0x6ED JUMP JUMPDEST PUSH1 0x0 DUP4 ADD MSTORE POP PUSH1 0x20 PUSH2 0x836 DUP5 DUP3 DUP6 ADD PUSH2 0x6ED JUMP JUMPDEST PUSH1 0x20 DUP4 ADD MSTORE POP PUSH1 0x40 PUSH2 0x84A DUP5 DUP3 DUP6 ADD PUSH2 0x723 JUMP JUMPDEST PUSH1 0x40 DUP4 ADD MSTORE POP PUSH1 0x60 PUSH2 0x85E DUP5 DUP3 DUP6 ADD PUSH2 0x723 JUMP JUMPDEST PUSH1 0x60 DUP4 ADD MSTORE POP PUSH1 0x80 DUP3 ADD CALLDATALOAD PUSH8 0xFFFFFFFFFFFFFFFF DUP2 GT ISZERO PUSH2 0x882 JUMPI PUSH2 0x881 PUSH2 0x69F JUMP JUMPDEST JUMPDEST PUSH2 0x88E DUP5 DUP3 DUP6 ADD PUSH2 0x7C4 JUMP JUMPDEST PUSH1 0x80 DUP4 ADD MSTORE POP PUSH1 0xA0 PUSH2 0x8A2 DUP5 DUP3 DUP6 ADD PUSH2 0x723 JUMP JUMPDEST PUSH1 0xA0 DUP4 ADD MSTORE POP PUSH1 0xC0 PUSH2 0x8B6 DUP5 DUP3 DUP6 ADD PUSH2 0x723 JUMP JUMPDEST PUSH1 0xC0 DUP4 ADD MSTORE POP SWAP3 SWAP2 POP POP JUMP JUMPDEST PUSH1 0x0 PUSH1 0x20 DUP3 DUP5 SUB SLT ISZERO PUSH2 0x8D8 JUMPI PUSH2 0x8D7 PUSH2 0x56B JUMP JUMPDEST JUMPDEST PUSH1 0x0 DUP3 ADD CALLDATALOAD PUSH8 0xFFFFFFFFFFFFFFFF DUP2 GT ISZERO PUSH2 0x8F6 JUMPI PUSH2 0x8F5 PUSH2 0x570 JUMP JUMPDEST JUMPDEST PUSH2 0x902 DUP5 DUP3 DUP6 ADD PUSH2 0x7F2 JUMP JUMPDEST SWAP2 POP POP SWAP3 SWAP2 POP POP JUMP JUMPDEST PUSH1 0x0 DUP1 PUSH1 0x40 DUP4 DUP6 SUB SLT ISZERO PUSH2 0x922 JUMPI PUSH2 0x921 PUSH2 0x56B JUMP JUMPDEST JUMPDEST PUSH1 0x0 DUP4 ADD CALLDATALOAD PUSH8 0xFFFFFFFFFFFFFFFF DUP2 GT ISZERO PUSH2 0x940 JUMPI PUSH2 0x93F PUSH2 0x570 JUMP JUMPDEST JUMPDEST PUSH2 0x94C DUP6 DUP3 DUP7 ADD PUSH2 0x7F2 JUMP JUMPDEST SWAP3 POP POP PUSH1 0x20 PUSH2 0x95D DUP6 DUP3 DUP7 ADD PUSH2 0x6ED JUMP JUMPDEST SWAP2 POP POP SWAP3 POP SWAP3 SWAP1 POP JUMP JUMPDEST PUSH1 0x0 DUP2 PUSH1 0x60 SHL SWAP1 POP SWAP2 SWAP1 POP JUMP JUMPDEST PUSH1 0x0 PUSH2 0x97F DUP3 PUSH2 0x967 JUMP JUMPDEST SWAP1 POP SWAP2 SWAP1 POP JUMP JUMPDEST PUSH1 0x0 PUSH2 0x991 DUP3 PUSH2 0x974 JUMP JUMPDEST SWAP1 POP SWAP2 SWAP1 POP JUMP JUMPDEST PUSH2 0x9A9 PUSH2 0x9A4 DUP3 PUSH2 0x6C4 JUMP JUMPDEST PUSH2 0x986 JUMP JUMPDEST DUP3 MSTORE POP POP JUMP JUMPDEST PUSH1 0x0 DUP2 SWAP1 POP SWAP2 SWAP1 POP JUMP JUMPDEST PUSH2 0x9CA PUSH2 0x9C5 DUP3 PUSH2 0x702 JUMP JUMPDEST PUSH2 0x9AF JUMP JUMPDEST DUP3 MSTORE POP POP JUMP JUMPDEST PUSH1 0x0 PUSH2 0x9DC DUP3 DUP10 PUSH2 0x998 JUMP JUMPDEST PUSH1 0x14 DUP3 ADD SWAP2 POP PUSH2 0x9EC DUP3 DUP9 PUSH2 0x998 JUMP JUMPDEST PUSH1 0x14 DUP3 ADD SWAP2 POP PUSH2 0x9FC DUP3 DUP8 PUSH2 0x9B9 JUMP JUMPDEST PUSH1 0x20 DUP3 ADD SWAP2 POP PUSH2 0xA0C DUP3 DUP7 PUSH2 0x9B9 JUMP JUMPDEST PUSH1 0x20 DUP3 ADD SWAP2 POP PUSH2 0xA1C DUP3 DUP6 PUSH2 0x9B9 JUMP JUMPDEST PUSH1 0x20 DUP3 ADD SWAP2 POP PUSH2 0xA2C DUP3 DUP5 PUSH2 0x9B9 JUMP JUMPDEST PUSH1 0x20 DUP3 ADD SWAP2 POP DUP2 SWAP1 POP SWAP8 SWAP7 POP POP POP POP POP POP POP JUMP JUMPDEST PUSH1 0x0 DUP2 SWAP1 POP SWAP3 SWAP2 POP POP JUMP JUMPDEST PUSH32 0x19457468657265756D205369676E6564204D6573736167653A0A333200000000 PUSH1 0x0 DUP3 ADD MSTORE POP JUMP JUMPDEST PUSH1 0x0 PUSH2 0xA81 PUSH1 0x1C DUP4 PUSH2 0xA40 JUMP JUMPDEST SWAP2 POP PUSH2 0xA8C DUP3 PUSH2 0xA4B JUMP JUMPDEST PUSH1 0x1C DUP3 ADD SWAP1 POP SWAP2 SWAP1 POP JUMP JUMPDEST PUSH1 0x0 DUP2 SWAP1 POP SWAP2 SWAP1 POP JUMP JUMPDEST PUSH2 0xAB2 PUSH2 0xAAD DUP3 PUSH2 0x575 JUMP JUMPDEST PUSH2 0xA97 JUMP JUMPDEST DUP3 MSTORE POP POP JUMP JUMPDEST PUSH1 0x0 PUSH2 0xAC3 DUP3 PUSH2 0xA74 JUMP JUMPDEST SWAP2 POP PUSH2 0xACF DUP3 DUP5 PUSH2 0xAA1 JUMP JUMPDEST PUSH1 0x20 DUP3 ADD SWAP2 POP DUP2 SWAP1 POP SWAP3 SWAP2 POP POP JUMP JUMPDEST PUSH1 0x0 DUP3 DUP3 MSTORE PUSH1 0x20 DUP3 ADD SWAP1 POP SWAP3 SWAP2 POP POP JUMP JUMPDEST PUSH32 0x496E76616C6964207369676E6174757265000000000000000000000000000000 PUSH1 0x0 DUP3 ADD MSTORE POP JUMP JUMPDEST PUSH1 0x0 PUSH2 0xB25 PUSH1 0x11 DUP4 PUSH2 0xADE JUMP JUMPDEST SWAP2 POP PUSH2 0xB30 DUP3 PUSH2 0xAEF JUMP JUMPDEST PUSH1 0x20 DUP3 ADD SWAP1 POP SWAP2 SWAP1 POP JUMP JUMPDEST PUSH1 0x0 PUSH1 0x20 DUP3 ADD SWAP1 POP DUP2 DUP2 SUB PUSH1 0x0 DUP4 ADD MSTORE PUSH2 0xB54 DUP2 PUSH2 0xB18 JUMP JUMPDEST SWAP1 POP SWAP2 SWAP1 POP JUMP JUMPDEST PUSH32 0x4F7264657220686173206265656E207573656400000000000000000000000000 PUSH1 0x0 DUP3 ADD MSTORE POP JUMP JUMPDEST PUSH1 0x0 PUSH2 0xB91 PUSH1 0x13 DUP4 PUSH2 0xADE JUMP JUMPDEST SWAP2 POP PUSH2 0xB9C DUP3 PUSH2 0xB5B JUMP JUMPDEST PUSH1 0x20 DUP3 ADD SWAP1 POP SWAP2 SWAP1 POP JUMP JUMPDEST PUSH1 0x0 PUSH1 0x20 DUP3 ADD SWAP1 POP DUP2 DUP2 SUB PUSH1 0x0 DUP4 ADD MSTORE PUSH2 0xBC0 DUP2 PUSH2 0xB84 JUMP JUMPDEST SWAP1 POP SWAP2 SWAP1 POP JUMP JUMPDEST PUSH2 0xBD0 DUP2 PUSH2 0x6C4 JUMP JUMPDEST DUP3 MSTORE POP POP JUMP JUMPDEST PUSH2 0xBDF DUP2 PUSH2 0x702 JUMP JUMPDEST DUP3 MSTORE POP POP JUMP JUMPDEST PUSH1 0x0 PUSH1 0x60 DUP3 ADD SWAP1 POP PUSH2 0xBFA PUSH1 0x0 DUP4 ADD DUP7 PUSH2 0xBC7 JUMP JUMPDEST PUSH2 0xC07 PUSH1 0x20 DUP4 ADD DUP6 PUSH2 0xBC7 JUMP JUMPDEST PUSH2 0xC14 PUSH1 0x40 DUP4 ADD DUP5 PUSH2 0xBD6 JUMP JUMPDEST SWAP5 SWAP4 POP POP POP POP JUMP JUMPDEST PUSH1 0x0 PUSH1 0xFF DUP3 AND SWAP1 POP SWAP2 SWAP1 POP JUMP JUMPDEST PUSH32 0x4E487B7100000000000000000000000000000000000000000000000000000000 PUSH1 0x0 MSTORE PUSH1 0x11 PUSH1 0x4 MSTORE PUSH1 0x24 PUSH1 0x0 REVERT JUMPDEST PUSH1 0x0 PUSH2 0xC63 DUP3 PUSH2 0xC1C JUMP JUMPDEST SWAP2 POP PUSH2 0xC6E DUP4 PUSH2 0xC1C JUMP JUMPDEST SWAP3 POP DUP3 DUP3 ADD SWAP1 POP PUSH1 0xFF DUP2 GT ISZERO PUSH2 0xC87 JUMPI PUSH2 0xC86 PUSH2 0xC29 JUMP JUMPDEST JUMPDEST SWAP3 SWAP2 POP POP JUMP JUMPDEST PUSH2 0xC96 DUP2 PUSH2 0x575 JUMP JUMPDEST DUP3 MSTORE POP POP JUMP JUMPDEST PUSH2 0xCA5 DUP2 PUSH2 0xC1C JUMP JUMPDEST DUP3 MSTORE POP POP JUMP JUMPDEST PUSH1 0x0 PUSH1 0x80 DUP3 ADD SWAP1 POP PUSH2 0xCC0 PUSH1 0x0 DUP4 ADD DUP8 PUSH2 0xC8D JUMP JUMPDEST PUSH2 0xCCD PUSH1 0x20 DUP4 ADD DUP7 PUSH2 0xC9C JUMP JUMPDEST PUSH2 0xCDA PUSH1 0x40 DUP4 ADD DUP6 PUSH2 0xC8D JUMP JUMPDEST PUSH2 0xCE7 PUSH1 0x60 DUP4 ADD DUP5 PUSH2 0xC8D JUMP JUMPDEST SWAP6 SWAP5 POP POP POP POP POP JUMP INVALID LOG2 PUSH5 0x6970667358 0x22 SLT KECCAK256 0xE 0x24 PUSH22 0xF5927E54DF33C5FCD45447F2FF2E8ED0D86612583C8E 0x5D LOG0 0xE7 DUP7 0x2E 0x2B 0xC5 PUSH5 0x736F6C6343 STOP ADDMOD SLT STOP CALLER LOG2 PUSH5 0x6970667358 0x22 SLT KECCAK256 RETURN 0xC5 STOP 0xEC SWAP12 SHL MULMOD 0xB6 SWAP6 LOG2 OR 0xC2 XOR NUMBER BASEFEE CREATE EXTCODESIZE LT 0xA5 LOG4 0xBC SLT 0xAE 0xE0 0xEC 0xC 0xCF 0xAC SLT 0xE3 0xCF SWAP15 PUSH5 0x736F6C6343 STOP ADDMOD SLT STOP CALLER "
				},
				"gasEstimates": {
					"creation": {
						"codeDepositCost": "2544800",
						"executionCost": "infinite",
						"totalCost": "infinite"
					},
					"external": {
						"CancelSellOrder(address,address,uint256,uint256,bytes,uint256,uint256)": "infinite",
						"createProxyWallet()": "infinite",
						"getFeeRate()": "2459",
						"getProxyWallet(address)": "infinite",
						"matchOrder(address,address,uint256,uint256,bytes,uint256,uint256)": "infinite",
						"setMall(address)": "26893",
						"updateFeeRate(uint256)": "infinite"
					},
					"internal": {
						"_cancelSellOrder(struct MarketContract.SellOrder memory)": "infinite",
						"recoverSigner(bytes32,bytes memory)": "infinite",
						"verifySignature(address,address,uint256,uint256,bytes memory,uint256,uint256)": "infinite"
					}
				},
				"methodIdentifiers": {
					"CancelSellOrder(address,address,uint256,uint256,bytes,uint256,uint256)": "4aa2059f",
					"createProxyWallet()": "c2a1d6c9",
					"getFeeRate()": "84e5eed0",
					"getProxyWallet(address)": "c465db0a",
					"matchOrder(address,address,uint256,uint256,bytes,uint256,uint256)": "171ab662",
					"setMall(address)": "07e4ac72",
					"updateFeeRate(uint256)": "7b84fda5"
				}
			},
			"storageLayout": {
				"storage": [
					{
						"astId": 598,
						"contract": "NFT_market_contract.sol:MarketContract",
						"label": "proxyWalletContract",
						"offset": 0,
						"slot": "0",
						"type": "t_address"
					},
					{
						"astId": 600,
						"contract": "NFT_market_contract.sol:MarketContract",
						"label": "mall",
						"offset": 0,
						"slot": "1",
						"type": "t_address"
					},
					{
						"astId": 603,
						"contract": "NFT_market_contract.sol:MarketContract",
						"label": "feeRate",
						"offset": 0,
						"slot": "2",
						"type": "t_uint256"
					},
					{
						"astId": 605,
						"contract": "NFT_market_contract.sol:MarketContract",
						"label": "owner",
						"offset": 0,
						"slot": "3",
						"type": "t_address"
					},
					{
						"astId": 609,
						"contract": "NFT_market_contract.sol:MarketContract",
						"label": "userToProxyWallet",
						"offset": 0,
						"slot": "4",
						"type": "t_mapping(t_address,t_address)"
					}
				],
				"types": {
					"t_address": {
						"encoding": "inplace",
						"label": "address",
						"numberOfBytes": "20"
					},
					"t_mapping(t_address,t_address)": {
						"encoding": "mapping",
						"key": "t_address",
						"label": "mapping(address => address)",
						"numberOfBytes": "32",
						"value": "t_address"
					},
					"t_uint256": {
						"encoding": "inplace",
						"label": "uint256",
						"numberOfBytes": "32"
					}
				}
			},
			"userdoc": {
				"kind": "user",
				"methods": {},
				"version": 1
			}
		}
	}
}