{
	"NFT_market_contract.sol": {
		"MarketContract": {
			"abi": [
				{
					"inputs": [
						{
							"internalType": "address",
							"name": "_owner",
							"type": "address"
						}
					],
					"stateMutability": "payable",
					"type": "constructor"
				},
				{
					"anonymous": false,
					"inputs": [
						{
							"indexed": true,
							"internalType": "address",
							"name": "seller",
							"type": "address"
						},
						{
							"indexed": true,
							"internalType": "address",
							"name": "buyer",
							"type": "address"
						},
						{
							"indexed": true,
							"internalType": "address",
							"name": "contractID",
							"type": "address"
						},
						{
							"indexed": false,
							"internalType": "uint256",
							"name": "tokenID",
							"type": "uint256"
						},
						{
							"indexed": false,
							"internalType": "bytes32",
							"name": "orderID",
							"type": "bytes32"
						},
						{
							"indexed": false,
							"internalType": "uint256",
							"name": "price",
							"type": "uint256"
						}
					],
					"name": "MatchFail",
					"type": "event"
				},
				{
					"anonymous": false,
					"inputs": [
						{
							"indexed": true,
							"internalType": "address",
							"name": "seller",
							"type": "address"
						},
						{
							"indexed": true,
							"internalType": "address",
							"name": "buyer",
							"type": "address"
						},
						{
							"indexed": true,
							"internalType": "address",
							"name": "contractID",
							"type": "address"
						},
						{
							"indexed": false,
							"internalType": "uint256",
							"name": "tokenID",
							"type": "uint256"
						},
						{
							"indexed": false,
							"internalType": "bytes32",
							"name": "orderID",
							"type": "bytes32"
						},
						{
							"indexed": false,
							"internalType": "uint256",
							"name": "price",
							"type": "uint256"
						}
					],
					"name": "MatchSuccess",
					"type": "event"
				},
				{
					"anonymous": false,
					"inputs": [
						{
							"indexed": true,
							"internalType": "address",
							"name": "seller",
							"type": "address"
						},
						{
							"indexed": true,
							"internalType": "address",
							"name": "contractID",
							"type": "address"
						},
						{
							"indexed": false,
							"internalType": "bytes32",
							"name": "orderID",
							"type": "bytes32"
						},
						{
							"indexed": false,
							"internalType": "uint256",
							"name": "tokenID",
							"type": "uint256"
						}
					],
					"name": "OrderExpired",
					"type": "event"
				},
				{
					"anonymous": false,
					"inputs": [
						{
							"indexed": true,
							"internalType": "address",
							"name": "seller",
							"type": "address"
						},
						{
							"indexed": true,
							"internalType": "address",
							"name": "contractID",
							"type": "address"
						},
						{
							"indexed": false,
							"internalType": "bytes32",
							"name": "orderID",
							"type": "bytes32"
						},
						{
							"indexed": false,
							"internalType": "uint256",
							"name": "tokenID",
							"type": "uint256"
						}
					],
					"name": "SellOrderCancelled",
					"type": "event"
				},
				{
					"anonymous": false,
					"inputs": [
						{
							"indexed": true,
							"internalType": "address",
							"name": "seller",
							"type": "address"
						},
						{
							"indexed": true,
							"internalType": "address",
							"name": "buyer",
							"type": "address"
						},
						{
							"indexed": true,
							"internalType": "address",
							"name": "contractID",
							"type": "address"
						},
						{
							"indexed": false,
							"internalType": "bytes32",
							"name": "orderID",
							"type": "bytes32"
						},
						{
							"indexed": false,
							"internalType": "uint256",
							"name": "tokenID",
							"type": "uint256"
						},
						{
							"indexed": false,
							"internalType": "uint256",
							"name": "price",
							"type": "uint256"
						}
					],
					"name": "TradeFail",
					"type": "event"
				},
				{
					"anonymous": false,
					"inputs": [
						{
							"indexed": true,
							"internalType": "address",
							"name": "seller",
							"type": "address"
						},
						{
							"indexed": true,
							"internalType": "address",
							"name": "buyer",
							"type": "address"
						},
						{
							"indexed": true,
							"internalType": "address",
							"name": "contractID",
							"type": "address"
						},
						{
							"indexed": false,
							"internalType": "bytes32",
							"name": "orderID",
							"type": "bytes32"
						},
						{
							"indexed": false,
							"internalType": "uint256",
							"name": "tokenID",
							"type": "uint256"
						},
						{
							"indexed": false,
							"internalType": "uint256",
							"name": "price",
							"type": "uint256"
						}
					],
					"name": "TradeSuccess",
					"type": "event"
				},
				{
					"anonymous": false,
					"inputs": [
						{
							"indexed": false,
							"internalType": "uint256",
							"name": "oldFeeRate",
							"type": "uint256"
						},
						{
							"indexed": false,
							"internalType": "uint256",
							"name": "newFeeRate",
							"type": "uint256"
						}
					],
					"name": "UpdateFeeRate",
					"type": "event"
				},
				{
					"inputs": [
						{
							"components": [
								{
									"internalType": "address",
									"name": "seller",
									"type": "address"
								},
								{
									"internalType": "address",
									"name": "contractID",
									"type": "address"
								},
								{
									"internalType": "uint256",
									"name": "tokenID",
									"type": "uint256"
								},
								{
									"internalType": "uint256",
									"name": "price",
									"type": "uint256"
								},
								{
									"internalType": "bytes",
									"name": "signature",
									"type": "bytes"
								},
								{
									"internalType": "uint256",
									"name": "expirationTime",
									"type": "uint256"
								},
								{
									"internalType": "uint256",
									"name": "nonce",
									"type": "uint256"
								}
							],
							"internalType": "struct MarketContract.SellOrder",
							"name": "sellOrder",
							"type": "tuple"
						}
					],
					"name": "CancelSellOrder",
					"outputs": [],
					"stateMutability": "nonpayable",
					"type": "function"
				},
				{
					"inputs": [],
					"name": "createProxyWallet",
					"outputs": [],
					"stateMutability": "nonpayable",
					"type": "function"
				},
				{
					"inputs": [],
					"name": "getFeeRate",
					"outputs": [
						{
							"internalType": "uint256",
							"name": "",
							"type": "uint256"
						}
					],
					"stateMutability": "view",
					"type": "function"
				},
				{
					"inputs": [
						{
							"internalType": "address",
							"name": "user",
							"type": "address"
						}
					],
					"name": "getProxyWallet",
					"outputs": [
						{
							"internalType": "address",
							"name": "",
							"type": "address"
						}
					],
					"stateMutability": "nonpayable",
					"type": "function"
				},
				{
					"inputs": [
						{
							"internalType": "address",
							"name": "seller",
							"type": "address"
						},
						{
							"internalType": "address",
							"name": "contractID",
							"type": "address"
						},
						{
							"internalType": "uint256",
							"name": "tokenID",
							"type": "uint256"
						},
						{
							"internalType": "uint256",
							"name": "price",
							"type": "uint256"
						},
						{
							"internalType": "bytes",
							"name": "signature",
							"type": "bytes"
						},
						{
							"internalType": "uint256",
							"name": "expirationTime",
							"type": "uint256"
						},
						{
							"internalType": "uint256",
							"name": "nonce",
							"type": "uint256"
						}
					],
					"name": "matchOrder",
					"outputs": [],
					"stateMutability": "payable",
					"type": "function"
				},
				{
					"inputs": [
						{
							"internalType": "address payable",
							"name": "_mall",
							"type": "address"
						}
					],
					"name": "setMall",
					"outputs": [],
					"stateMutability": "nonpayable",
					"type": "function"
				},
				{
					"inputs": [
						{
							"internalType": "uint256",
							"name": "newFeeRate",
							"type": "uint256"
						}
					],
					"name": "updateFeeRate",
					"outputs": [],
					"stateMutability": "nonpayable",
					"type": "function"
				}
			],
			"devdoc": {
				"kind": "dev",
				"methods": {},
				"version": 1
			},
			"evm": {
				"assembly": "    /* \"NFT_market_contract.sol\":345:10236  contract MarketContract is Imarket {... */\n  mstore(0x40, 0x80)\n    /* \"NFT_market_contract.sol\":924:925  2 */\n  0x02\n    /* \"NFT_market_contract.sol\":898:925  uint256 private feeRate = 2 */\n  dup1\n  sstore\n    /* \"NFT_market_contract.sol\":1105:1174  constructor(address _owner) payable {... */\n  mload(0x40)\n  sub(codesize, bytecodeSize)\n  dup1\n  bytecodeSize\n  dup4\n  codecopy\n  dup2\n  dup2\n  add\n  0x40\n  mstore\n  dup2\n  add\n  swap1\n  tag_1\n  swap2\n  swap1\n  tag_2\n  jump\t// in\ntag_1:\n    /* \"NFT_market_contract.sol\":1160:1166  _owner */\n  dup1\n    /* \"NFT_market_contract.sol\":1152:1157  owner */\n  0x03\n  0x00\n    /* \"NFT_market_contract.sol\":1152:1166  owner = _owner */\n  0x0100\n  exp\n  dup2\n  sload\n  dup2\n  0xffffffffffffffffffffffffffffffffffffffff\n  mul\n  not\n  and\n  swap1\n  dup4\n  0xffffffffffffffffffffffffffffffffffffffff\n  and\n  mul\n  or\n  swap1\n  sstore\n  pop\n    /* \"NFT_market_contract.sol\":1105:1174  constructor(address _owner) payable {... */\n  pop\n    /* \"NFT_market_contract.sol\":345:10236  contract MarketContract is Imarket {... */\n  jump(tag_5)\n    /* \"#utility.yul\":88:205   */\ntag_7:\n    /* \"#utility.yul\":197:198   */\n  0x00\n    /* \"#utility.yul\":194:195   */\n  dup1\n    /* \"#utility.yul\":187:199   */\n  revert\n    /* \"#utility.yul\":334:460   */\ntag_9:\n    /* \"#utility.yul\":371:378   */\n  0x00\n    /* \"#utility.yul\":411:453   */\n  0xffffffffffffffffffffffffffffffffffffffff\n    /* \"#utility.yul\":404:409   */\n  dup3\n    /* \"#utility.yul\":400:454   */\n  and\n    /* \"#utility.yul\":389:454   */\n  swap1\n  pop\n    /* \"#utility.yul\":334:460   */\n  swap2\n  swap1\n  pop\n  jump\t// out\n    /* \"#utility.yul\":466:562   */\ntag_10:\n    /* \"#utility.yul\":503:510   */\n  0x00\n    /* \"#utility.yul\":532:556   */\n  tag_19\n    /* \"#utility.yul\":550:555   */\n  dup3\n    /* \"#utility.yul\":532:556   */\n  tag_9\n  jump\t// in\ntag_19:\n    /* \"#utility.yul\":521:556   */\n  swap1\n  pop\n    /* \"#utility.yul\":466:562   */\n  swap2\n  swap1\n  pop\n  jump\t// out\n    /* \"#utility.yul\":568:690   */\ntag_11:\n    /* \"#utility.yul\":641:665   */\n  tag_21\n    /* \"#utility.yul\":659:664   */\n  dup2\n    /* \"#utility.yul\":641:665   */\n  tag_10\n  jump\t// in\ntag_21:\n    /* \"#utility.yul\":634:639   */\n  dup2\n    /* \"#utility.yul\":631:666   */\n  eq\n    /* \"#utility.yul\":621:684   */\n  tag_22\n  jumpi\n    /* \"#utility.yul\":680:681   */\n  0x00\n    /* \"#utility.yul\":677:678   */\n  dup1\n    /* \"#utility.yul\":670:682   */\n  revert\n    /* \"#utility.yul\":621:684   */\ntag_22:\n    /* \"#utility.yul\":568:690   */\n  pop\n  jump\t// out\n    /* \"#utility.yul\":696:839   */\ntag_12:\n    /* \"#utility.yul\":753:758   */\n  0x00\n    /* \"#utility.yul\":784:790   */\n  dup2\n    /* \"#utility.yul\":778:791   */\n  mload\n    /* \"#utility.yul\":769:791   */\n  swap1\n  pop\n    /* \"#utility.yul\":800:833   */\n  tag_24\n    /* \"#utility.yul\":827:832   */\n  dup2\n    /* \"#utility.yul\":800:833   */\n  tag_11\n  jump\t// in\ntag_24:\n    /* \"#utility.yul\":696:839   */\n  swap3\n  swap2\n  pop\n  pop\n  jump\t// out\n    /* \"#utility.yul\":845:1196   */\ntag_2:\n    /* \"#utility.yul\":915:921   */\n  0x00\n    /* \"#utility.yul\":964:966   */\n  0x20\n    /* \"#utility.yul\":952:961   */\n  dup3\n    /* \"#utility.yul\":943:950   */\n  dup5\n    /* \"#utility.yul\":939:962   */\n  sub\n    /* \"#utility.yul\":935:967   */\n  slt\n    /* \"#utility.yul\":932:1051   */\n  iszero\n  tag_26\n  jumpi\n    /* \"#utility.yul\":970:1049   */\n  tag_27\n  tag_7\n  jump\t// in\ntag_27:\n    /* \"#utility.yul\":932:1051   */\ntag_26:\n    /* \"#utility.yul\":1090:1091   */\n  0x00\n    /* \"#utility.yul\":1115:1179   */\n  tag_28\n    /* \"#utility.yul\":1171:1178   */\n  dup5\n    /* \"#utility.yul\":1162:1168   */\n  dup3\n    /* \"#utility.yul\":1151:1160   */\n  dup6\n    /* \"#utility.yul\":1147:1169   */\n  add\n    /* \"#utility.yul\":1115:1179   */\n  tag_12\n  jump\t// in\ntag_28:\n    /* \"#utility.yul\":1105:1179   */\n  swap2\n  pop\n    /* \"#utility.yul\":1061:1189   */\n  pop\n    /* \"#utility.yul\":845:1196   */\n  swap3\n  swap2\n  pop\n  pop\n  jump\t// out\n    /* \"NFT_market_contract.sol\":345:10236  contract MarketContract is Imarket {... */\ntag_5:\n  dataSize(sub_0)\n  dup1\n  dataOffset(sub_0)\n  0x00\n  codecopy\n  0x00\n  return\nstop\n\nsub_0: assembly {\n        /* \"NFT_market_contract.sol\":345:10236  contract MarketContract is Imarket {... */\n      mstore(0x40, 0x80)\n      jumpi(tag_1, lt(calldatasize, 0x04))\n      shr(0xe0, calldataload(0x00))\n      dup1\n      0x7b84fda5\n      gt\n      tag_9\n      jumpi\n      dup1\n      0x7b84fda5\n      eq\n      tag_5\n      jumpi\n      dup1\n      0x84e5eed0\n      eq\n      tag_6\n      jumpi\n      dup1\n      0xc2a1d6c9\n      eq\n      tag_7\n      jumpi\n      dup1\n      0xc465db0a\n      eq\n      tag_8\n      jumpi\n      jump(tag_1)\n    tag_9:\n      dup1\n      0x07e4ac72\n      eq\n      tag_2\n      jumpi\n      dup1\n      0x171ab662\n      eq\n      tag_3\n      jumpi\n      dup1\n      0x59be1362\n      eq\n      tag_4\n      jumpi\n    tag_1:\n      0x00\n      dup1\n      revert\n        /* \"NFT_market_contract.sol\":2135:2280  function setMall(address payable _mall) public {... */\n    tag_2:\n      callvalue\n      dup1\n      iszero\n      tag_10\n      jumpi\n      0x00\n      dup1\n      revert\n    tag_10:\n      pop\n      tag_11\n      0x04\n      dup1\n      calldatasize\n      sub\n      dup2\n      add\n      swap1\n      tag_12\n      swap2\n      swap1\n      tag_13\n      jump\t// in\n    tag_12:\n      tag_14\n      jump\t// in\n    tag_11:\n      stop\n        /* \"NFT_market_contract.sol\":3957:7733  function matchOrder(... */\n    tag_3:\n      tag_15\n      0x04\n      dup1\n      calldatasize\n      sub\n      dup2\n      add\n      swap1\n      tag_16\n      swap2\n      swap1\n      tag_17\n      jump\t// in\n    tag_16:\n      tag_18\n      jump\t// in\n    tag_15:\n      stop\n        /* \"NFT_market_contract.sol\":2810:2961  function CancelSellOrder(... */\n    tag_4:\n      callvalue\n      dup1\n      iszero\n      tag_19\n      jumpi\n      0x00\n      dup1\n      revert\n    tag_19:\n      pop\n      tag_20\n      0x04\n      dup1\n      calldatasize\n      sub\n      dup2\n      add\n      swap1\n      tag_21\n      swap2\n      swap1\n      tag_22\n      jump\t// in\n    tag_21:\n      tag_23\n      jump\t// in\n    tag_20:\n      stop\n        /* \"NFT_market_contract.sol\":1714:1962  function updateFeeRate(uint256 newFeeRate) public {... */\n    tag_5:\n      callvalue\n      dup1\n      iszero\n      tag_24\n      jumpi\n      0x00\n      dup1\n      revert\n    tag_24:\n      pop\n      tag_25\n      0x04\n      dup1\n      calldatasize\n      sub\n      dup2\n      add\n      swap1\n      tag_26\n      swap2\n      swap1\n      tag_27\n      jump\t// in\n    tag_26:\n      tag_28\n      jump\t// in\n    tag_25:\n      stop\n        /* \"NFT_market_contract.sol\":1990:2075  function getFeeRate() public view returns (uint256) {... */\n    tag_6:\n      callvalue\n      dup1\n      iszero\n      tag_29\n      jumpi\n      0x00\n      dup1\n      revert\n    tag_29:\n      pop\n      tag_30\n      tag_31\n      jump\t// in\n    tag_30:\n      mload(0x40)\n      tag_32\n      swap2\n      swap1\n      tag_33\n      jump\t// in\n    tag_32:\n      mload(0x40)\n      dup1\n      swap2\n      sub\n      swap1\n      return\n        /* \"NFT_market_contract.sol\":1209:1672  function createProxyWallet() public {... */\n    tag_7:\n      callvalue\n      dup1\n      iszero\n      tag_34\n      jumpi\n      0x00\n      dup1\n      revert\n    tag_34:\n      pop\n      tag_35\n      tag_36\n      jump\t// in\n    tag_35:\n      stop\n        /* \"NFT_market_contract.sol\":2330:2634  function getProxyWallet(address user) public returns (address) {... */\n    tag_8:\n      callvalue\n      dup1\n      iszero\n      tag_37\n      jumpi\n      0x00\n      dup1\n      revert\n    tag_37:\n      pop\n      tag_38\n      0x04\n      dup1\n      calldatasize\n      sub\n      dup2\n      add\n      swap1\n      tag_39\n      swap2\n      swap1\n      tag_40\n      jump\t// in\n    tag_39:\n      tag_41\n      jump\t// in\n    tag_38:\n      mload(0x40)\n      tag_42\n      swap2\n      swap1\n      tag_43\n      jump\t// in\n    tag_42:\n      mload(0x40)\n      dup1\n      swap2\n      sub\n      swap1\n      return\n        /* \"NFT_market_contract.sol\":2135:2280  function setMall(address payable _mall) public {... */\n    tag_14:\n        /* \"NFT_market_contract.sol\":2215:2220  owner */\n      0x03\n      0x00\n      swap1\n      sload\n      swap1\n      0x0100\n      exp\n      swap1\n      div\n      0xffffffffffffffffffffffffffffffffffffffff\n      and\n        /* \"NFT_market_contract.sol\":2201:2220  msg.sender == owner */\n      0xffffffffffffffffffffffffffffffffffffffff\n      and\n        /* \"NFT_market_contract.sol\":2201:2211  msg.sender */\n      caller\n        /* \"NFT_market_contract.sol\":2201:2220  msg.sender == owner */\n      0xffffffffffffffffffffffffffffffffffffffff\n      and\n      eq\n        /* \"NFT_market_contract.sol\":2193:2249  require(msg.sender == owner, \"only owner can call this\") */\n      tag_45\n      jumpi\n      mload(0x40)\n      0x08c379a000000000000000000000000000000000000000000000000000000000\n      dup2\n      mstore\n      0x04\n      add\n      tag_46\n      swap1\n      tag_47\n      jump\t// in\n    tag_46:\n      mload(0x40)\n      dup1\n      swap2\n      sub\n      swap1\n      revert\n    tag_45:\n        /* \"NFT_market_contract.sol\":2267:2272  _mall */\n      dup1\n        /* \"NFT_market_contract.sol\":2260:2264  mall */\n      0x01\n      0x00\n        /* \"NFT_market_contract.sol\":2260:2272  mall = _mall */\n      0x0100\n      exp\n      dup2\n      sload\n      dup2\n      0xffffffffffffffffffffffffffffffffffffffff\n      mul\n      not\n      and\n      swap1\n      dup4\n      0xffffffffffffffffffffffffffffffffffffffff\n      and\n      mul\n      or\n      swap1\n      sstore\n      pop\n        /* \"NFT_market_contract.sol\":2135:2280  function setMall(address payable _mall) public {... */\n      pop\n      jump\t// out\n        /* \"NFT_market_contract.sol\":3957:7733  function matchOrder(... */\n    tag_18:\n        /* \"NFT_market_contract.sol\":4343:4369  SellOrder memory sellOrder */\n      0x00\n        /* \"NFT_market_contract.sol\":4372:4553  SellOrder(... */\n      mload(0x40)\n      dup1\n      0xe0\n      add\n      0x40\n      mstore\n      dup1\n        /* \"NFT_market_contract.sol\":4396:4402  seller */\n      dup10\n        /* \"NFT_market_contract.sol\":4372:4553  SellOrder(... */\n      0xffffffffffffffffffffffffffffffffffffffff\n      and\n      dup2\n      mstore\n      0x20\n      add\n        /* \"NFT_market_contract.sol\":4417:4427  contractID */\n      dup9\n        /* \"NFT_market_contract.sol\":4372:4553  SellOrder(... */\n      0xffffffffffffffffffffffffffffffffffffffff\n      and\n      dup2\n      mstore\n      0x20\n      add\n        /* \"NFT_market_contract.sol\":4442:4449  tokenID */\n      dup8\n        /* \"NFT_market_contract.sol\":4372:4553  SellOrder(... */\n      dup2\n      mstore\n      0x20\n      add\n        /* \"NFT_market_contract.sol\":4464:4469  price */\n      dup7\n        /* \"NFT_market_contract.sol\":4372:4553  SellOrder(... */\n      dup2\n      mstore\n      0x20\n      add\n        /* \"NFT_market_contract.sol\":4484:4493  signature */\n      dup6\n        /* \"NFT_market_contract.sol\":4372:4553  SellOrder(... */\n      dup2\n      mstore\n      0x20\n      add\n        /* \"NFT_market_contract.sol\":4508:4522  expirationTime */\n      dup5\n        /* \"NFT_market_contract.sol\":4372:4553  SellOrder(... */\n      dup2\n      mstore\n      0x20\n      add\n        /* \"NFT_market_contract.sol\":4537:4542  nonce */\n      dup4\n        /* \"NFT_market_contract.sol\":4372:4553  SellOrder(... */\n      dup2\n      mstore\n      pop\n        /* \"NFT_market_contract.sol\":4343:4553  SellOrder memory sellOrder = SellOrder(... */\n      swap1\n      pop\n        /* \"NFT_market_contract.sol\":4564:4578  uint256 _value */\n      0x00\n        /* \"NFT_market_contract.sol\":4581:4590  msg.value */\n      callvalue\n        /* \"NFT_market_contract.sol\":4564:4590  uint256 _value = msg.value */\n      swap1\n      pop\n        /* \"NFT_market_contract.sol\":4601:4612  uint256 fee */\n      0x00\n        /* \"NFT_market_contract.sol\":4615:4652  sellOrder.price.mul(feeRate).div(100) */\n      tag_49\n        /* \"NFT_market_contract.sol\":4648:4651  100 */\n      0x64\n        /* \"NFT_market_contract.sol\":4615:4643  sellOrder.price.mul(feeRate) */\n      tag_50\n        /* \"NFT_market_contract.sol\":4635:4642  feeRate */\n      sload(0x02)\n        /* \"NFT_market_contract.sol\":4615:4624  sellOrder */\n      dup7\n        /* \"NFT_market_contract.sol\":4615:4630  sellOrder.price */\n      0x60\n      add\n      mload\n        /* \"NFT_market_contract.sol\":4615:4634  sellOrder.price.mul */\n      tag_51\n      swap1\n        /* \"NFT_market_contract.sol\":4615:4643  sellOrder.price.mul(feeRate) */\n      swap2\n      swap1\n      0xffffffff\n      and\n      jump\t// in\n    tag_50:\n        /* \"NFT_market_contract.sol\":4615:4647  sellOrder.price.mul(feeRate).div */\n      tag_52\n      swap1\n        /* \"NFT_market_contract.sol\":4615:4652  sellOrder.price.mul(feeRate).div(100) */\n      swap2\n      swap1\n      0xffffffff\n      and\n      jump\t// in\n    tag_49:\n        /* \"NFT_market_contract.sol\":4601:4652  uint256 fee = sellOrder.price.mul(feeRate).div(100) */\n      swap1\n      pop\n        /* \"NFT_market_contract.sol\":4687:4976  verifySignature(... */\n      tag_53\n        /* \"NFT_market_contract.sol\":4721:4730  sellOrder */\n      dup4\n        /* \"NFT_market_contract.sol\":4721:4737  sellOrder.seller */\n      0x00\n      add\n      mload\n        /* \"NFT_market_contract.sol\":4756:4765  sellOrder */\n      dup5\n        /* \"NFT_market_contract.sol\":4756:4776  sellOrder.contractID */\n      0x20\n      add\n      mload\n        /* \"NFT_market_contract.sol\":4795:4804  sellOrder */\n      dup6\n        /* \"NFT_market_contract.sol\":4795:4812  sellOrder.tokenID */\n      0x40\n      add\n      mload\n        /* \"NFT_market_contract.sol\":4831:4840  sellOrder */\n      dup7\n        /* \"NFT_market_contract.sol\":4831:4846  sellOrder.price */\n      0x60\n      add\n      mload\n        /* \"NFT_market_contract.sol\":4865:4874  sellOrder */\n      dup8\n        /* \"NFT_market_contract.sol\":4865:4884  sellOrder.signature */\n      0x80\n      add\n      mload\n        /* \"NFT_market_contract.sol\":4903:4912  sellOrder */\n      dup9\n        /* \"NFT_market_contract.sol\":4903:4927  sellOrder.expirationTime */\n      0xa0\n      add\n      mload\n        /* \"NFT_market_contract.sol\":4946:4955  sellOrder */\n      dup10\n        /* \"NFT_market_contract.sol\":4946:4961  sellOrder.nonce */\n      0xc0\n      add\n      mload\n        /* \"NFT_market_contract.sol\":4687:4702  verifySignature */\n      tag_54\n        /* \"NFT_market_contract.sol\":4687:4976  verifySignature(... */\n      jump\t// in\n    tag_53:\n        /* \"NFT_market_contract.sol\":4665:5021  require(... */\n      tag_55\n      jumpi\n      mload(0x40)\n      0x08c379a000000000000000000000000000000000000000000000000000000000\n      dup2\n      mstore\n      0x04\n      add\n      tag_56\n      swap1\n      tag_57\n      jump\t// in\n    tag_56:\n      mload(0x40)\n      dup1\n      swap2\n      sub\n      swap1\n      revert\n    tag_55:\n        /* \"NFT_market_contract.sol\":5080:5104  address proxyWallet_Sell */\n      0x00\n        /* \"NFT_market_contract.sol\":5107:5124  userToProxyWallet */\n      0x04\n        /* \"NFT_market_contract.sol\":5107:5142  userToProxyWallet[sellOrder.seller] */\n      0x00\n        /* \"NFT_market_contract.sol\":5125:5134  sellOrder */\n      dup6\n        /* \"NFT_market_contract.sol\":5125:5141  sellOrder.seller */\n      0x00\n      add\n      mload\n        /* \"NFT_market_contract.sol\":5107:5142  userToProxyWallet[sellOrder.seller] */\n      0xffffffffffffffffffffffffffffffffffffffff\n      and\n      0xffffffffffffffffffffffffffffffffffffffff\n      and\n      dup2\n      mstore\n      0x20\n      add\n      swap1\n      dup2\n      mstore\n      0x20\n      add\n      0x00\n      keccak256\n      0x00\n      swap1\n      sload\n      swap1\n      0x0100\n      exp\n      swap1\n      div\n      0xffffffffffffffffffffffffffffffffffffffff\n      and\n        /* \"NFT_market_contract.sol\":5080:5142  address proxyWallet_Sell = userToProxyWallet[sellOrder.seller] */\n      swap1\n      pop\n        /* \"NFT_market_contract.sol\":5189:5190  0 */\n      0x00\n        /* \"NFT_market_contract.sol\":5161:5191  proxyWallet_Sell != address(0) */\n      0xffffffffffffffffffffffffffffffffffffffff\n      and\n        /* \"NFT_market_contract.sol\":5161:5177  proxyWallet_Sell */\n      dup2\n        /* \"NFT_market_contract.sol\":5161:5191  proxyWallet_Sell != address(0) */\n      0xffffffffffffffffffffffffffffffffffffffff\n      and\n      sub\n        /* \"NFT_market_contract.sol\":5153:5218  require(proxyWallet_Sell != address(0), \"Proxy wallet not found\") */\n      tag_58\n      jumpi\n      mload(0x40)\n      0x08c379a000000000000000000000000000000000000000000000000000000000\n      dup2\n      mstore\n      0x04\n      add\n      tag_59\n      swap1\n      tag_60\n      jump\t// in\n    tag_59:\n      mload(0x40)\n      dup1\n      swap2\n      sub\n      swap1\n      revert\n    tag_58:\n        /* \"NFT_market_contract.sol\":5386:5395  sellOrder */\n      dup4\n        /* \"NFT_market_contract.sol\":5386:5402  sellOrder.seller */\n      0x00\n      add\n      mload\n        /* \"NFT_market_contract.sol\":5309:5402  IERC721(sellOrder.contractID).ownerOf(sellOrder.tokenID) ==... */\n      0xffffffffffffffffffffffffffffffffffffffff\n      and\n        /* \"NFT_market_contract.sol\":5317:5326  sellOrder */\n      dup5\n        /* \"NFT_market_contract.sol\":5317:5337  sellOrder.contractID */\n      0x20\n      add\n      mload\n        /* \"NFT_market_contract.sol\":5309:5346  IERC721(sellOrder.contractID).ownerOf */\n      0xffffffffffffffffffffffffffffffffffffffff\n      and\n      0x6352211e\n        /* \"NFT_market_contract.sol\":5347:5356  sellOrder */\n      dup7\n        /* \"NFT_market_contract.sol\":5347:5364  sellOrder.tokenID */\n      0x40\n      add\n      mload\n        /* \"NFT_market_contract.sol\":5309:5365  IERC721(sellOrder.contractID).ownerOf(sellOrder.tokenID) */\n      mload(0x40)\n      dup3\n      0xffffffff\n      and\n      0xe0\n      shl\n      dup2\n      mstore\n      0x04\n      add\n      tag_61\n      swap2\n      swap1\n      tag_33\n      jump\t// in\n    tag_61:\n      0x20\n      mload(0x40)\n      dup1\n      dup4\n      sub\n      dup2\n      dup7\n      gas\n      staticcall\n      iszero\n      dup1\n      iszero\n      tag_63\n      jumpi\n      returndatasize\n      0x00\n      dup1\n      returndatacopy\n      revert(0x00, returndatasize)\n    tag_63:\n      pop\n      pop\n      pop\n      pop\n      mload(0x40)\n      returndatasize\n      not(0x1f)\n      0x1f\n      dup3\n      add\n      and\n      dup3\n      add\n      dup1\n      0x40\n      mstore\n      pop\n      dup2\n      add\n      swap1\n      tag_64\n      swap2\n      swap1\n      tag_65\n      jump\t// in\n    tag_64:\n        /* \"NFT_market_contract.sol\":5309:5402  IERC721(sellOrder.contractID).ownerOf(sellOrder.tokenID) ==... */\n      0xffffffffffffffffffffffffffffffffffffffff\n      and\n      eq\n        /* \"NFT_market_contract.sol\":5287:5467  require(... */\n      tag_66\n      jumpi\n      mload(0x40)\n      0x08c379a000000000000000000000000000000000000000000000000000000000\n      dup2\n      mstore\n      0x04\n      add\n      tag_67\n      swap1\n      tag_68\n      jump\t// in\n    tag_67:\n      mload(0x40)\n      dup1\n      swap2\n      sub\n      swap1\n      revert\n    tag_66:\n        /* \"NFT_market_contract.sol\":5557:5569  bytes32 Hash */\n      0x00\n        /* \"NFT_market_contract.sol\":5631:5640  sellOrder */\n      dup5\n        /* \"NFT_market_contract.sol\":5631:5647  sellOrder.seller */\n      0x00\n      add\n      mload\n        /* \"NFT_market_contract.sol\":5666:5675  sellOrder */\n      dup6\n        /* \"NFT_market_contract.sol\":5666:5686  sellOrder.contractID */\n      0x20\n      add\n      mload\n        /* \"NFT_market_contract.sol\":5705:5714  sellOrder */\n      dup7\n        /* \"NFT_market_contract.sol\":5705:5722  sellOrder.tokenID */\n      0x40\n      add\n      mload\n        /* \"NFT_market_contract.sol\":5741:5750  sellOrder */\n      dup8\n        /* \"NFT_market_contract.sol\":5741:5756  sellOrder.price */\n      0x60\n      add\n      mload\n        /* \"NFT_market_contract.sol\":5775:5784  sellOrder */\n      dup9\n        /* \"NFT_market_contract.sol\":5775:5799  sellOrder.expirationTime */\n      0xa0\n      add\n      mload\n        /* \"NFT_market_contract.sol\":5818:5827  sellOrder */\n      dup10\n        /* \"NFT_market_contract.sol\":5818:5833  sellOrder.nonce */\n      0xc0\n      add\n      mload\n        /* \"NFT_market_contract.sol\":5596:5848  abi.encodePacked(... */\n      add(0x20, mload(0x40))\n      tag_69\n      swap7\n      swap6\n      swap5\n      swap4\n      swap3\n      swap2\n      swap1\n      tag_70\n      jump\t// in\n    tag_69:\n      mload(0x40)\n      0x20\n      dup2\n      dup4\n      sub\n      sub\n      dup2\n      mstore\n      swap1\n      0x40\n      mstore\n        /* \"NFT_market_contract.sol\":5572:5859  keccak256(... */\n      dup1\n      mload\n      swap1\n      0x20\n      add\n      keccak256\n        /* \"NFT_market_contract.sol\":5557:5859  bytes32 Hash = keccak256(... */\n      swap1\n      pop\n        /* \"NFT_market_contract.sol\":5928:5937  sellOrder */\n      dup5\n        /* \"NFT_market_contract.sol\":5928:5952  sellOrder.expirationTime */\n      0xa0\n      add\n      mload\n        /* \"NFT_market_contract.sol\":5910:5925  block.timestamp */\n      timestamp\n        /* \"NFT_market_contract.sol\":5910:5952  block.timestamp > sellOrder.expirationTime */\n      gt\n        /* \"NFT_market_contract.sol\":5906:6218  if (block.timestamp > sellOrder.expirationTime) {... */\n      iszero\n      tag_71\n      jumpi\n        /* \"NFT_market_contract.sol\":5969:5996  _cancelSellOrder(sellOrder) */\n      tag_72\n        /* \"NFT_market_contract.sol\":5986:5995  sellOrder */\n      dup6\n        /* \"NFT_market_contract.sol\":5969:5985  _cancelSellOrder */\n      tag_73\n        /* \"NFT_market_contract.sol\":5969:5996  _cancelSellOrder(sellOrder) */\n      jump\t// in\n    tag_72:\n        /* \"NFT_market_contract.sol\":6082:6091  sellOrder */\n      dup5\n        /* \"NFT_market_contract.sol\":6082:6102  sellOrder.contractID */\n      0x20\n      add\n      mload\n        /* \"NFT_market_contract.sol\":6016:6185  OrderExpired(... */\n      0xffffffffffffffffffffffffffffffffffffffff\n      and\n        /* \"NFT_market_contract.sol\":6047:6056  sellOrder */\n      dup6\n        /* \"NFT_market_contract.sol\":6047:6063  sellOrder.seller */\n      0x00\n      add\n      mload\n        /* \"NFT_market_contract.sol\":6016:6185  OrderExpired(... */\n      0xffffffffffffffffffffffffffffffffffffffff\n      and\n      0x68138f0ee854a322025bc4fdf83bf151264d42cbc5930a3afc396a82980028d6\n        /* \"NFT_market_contract.sol\":6121:6125  Hash */\n      dup4\n        /* \"NFT_market_contract.sol\":6153:6162  sellOrder */\n      dup9\n        /* \"NFT_market_contract.sol\":6153:6170  sellOrder.tokenID */\n      0x40\n      add\n      mload\n        /* \"NFT_market_contract.sol\":6016:6185  OrderExpired(... */\n      mload(0x40)\n      tag_74\n      swap3\n      swap2\n      swap1\n      tag_75\n      jump\t// in\n    tag_74:\n      mload(0x40)\n      dup1\n      swap2\n      sub\n      swap1\n      log3\n        /* \"NFT_market_contract.sol\":6200:6207  return; */\n      pop\n      pop\n      pop\n      pop\n      pop\n      jump(tag_48)\n        /* \"NFT_market_contract.sol\":5906:6218  if (block.timestamp > sellOrder.expirationTime) {... */\n    tag_71:\n        /* \"NFT_market_contract.sol\":6232:6244  bool isValid */\n      0x00\n        /* \"NFT_market_contract.sol\":6246:6264  bytes memory datas */\n      dup1\n        /* \"NFT_market_contract.sol\":6268:6284  proxyWallet_Sell */\n      dup4\n        /* \"NFT_market_contract.sol\":6268:6289  proxyWallet_Sell.call */\n      0xffffffffffffffffffffffffffffffffffffffff\n      and\n        /* \"NFT_market_contract.sol\":6355:6359  Hash */\n      dup4\n        /* \"NFT_market_contract.sol\":6304:6360  abi.encodeWithSignature(\"isOrderInvalid(bytes32)\", Hash) */\n      add(0x24, mload(0x40))\n      tag_76\n      swap2\n      swap1\n      tag_77\n      jump\t// in\n    tag_76:\n      mload(0x40)\n      0x20\n      dup2\n      dup4\n      sub\n      sub\n      dup2\n      mstore\n      swap1\n      0x40\n      mstore\n      and(not(0xffffffffffffffffffffffffffffffffffffffffffffffffffffffff), 0xeb41850d00000000000000000000000000000000000000000000000000000000)\n      0x20\n      dup3\n      add\n      dup1\n      mload\n      0xffffffffffffffffffffffffffffffffffffffffffffffffffffffff\n      dup4\n      dup2\n      dup4\n      and\n      or\n      dup4\n      mstore\n      pop\n      pop\n      pop\n      pop\n        /* \"NFT_market_contract.sol\":6268:6371  proxyWallet_Sell.call(... */\n      mload(0x40)\n      tag_78\n      swap2\n      swap1\n      tag_79\n      jump\t// in\n    tag_78:\n      0x00\n      mload(0x40)\n      dup1\n      dup4\n      sub\n      dup2\n      0x00\n      dup7\n      gas\n      call\n      swap2\n      pop\n      pop\n      returndatasize\n      dup1\n      0x00\n      dup2\n      eq\n      tag_82\n      jumpi\n      mload(0x40)\n      swap2\n      pop\n      and(add(returndatasize, 0x3f), not(0x1f))\n      dup3\n      add\n      0x40\n      mstore\n      returndatasize\n      dup3\n      mstore\n      returndatasize\n      0x00\n      0x20\n      dup5\n      add\n      returndatacopy\n      jump(tag_81)\n    tag_82:\n      0x60\n      swap2\n      pop\n    tag_81:\n      pop\n        /* \"NFT_market_contract.sol\":6231:6371  (bool isValid, bytes memory datas) = proxyWallet_Sell.call(... */\n      swap2\n      pop\n      swap2\n      pop\n        /* \"NFT_market_contract.sol\":6417:6434  bool isOrderValid */\n      0x00\n        /* \"NFT_market_contract.sol\":6448:6453  datas */\n      dup2\n        /* \"NFT_market_contract.sol\":6437:6462  abi.decode(datas, (bool)) */\n      dup1\n      0x20\n      add\n      swap1\n      mload\n      dup2\n      add\n      swap1\n      tag_83\n      swap2\n      swap1\n      tag_84\n      jump\t// in\n    tag_83:\n        /* \"NFT_market_contract.sol\":6417:6462  bool isOrderValid = abi.decode(datas, (bool)) */\n      swap1\n      pop\n        /* \"NFT_market_contract.sol\":6481:6488  isValid */\n      dup3\n        /* \"NFT_market_contract.sol\":6481:6505  isValid && !isOrderValid */\n      dup1\n      iszero\n      tag_85\n      jumpi\n      pop\n        /* \"NFT_market_contract.sol\":6493:6505  isOrderValid */\n      dup1\n        /* \"NFT_market_contract.sol\":6492:6505  !isOrderValid */\n      iszero\n        /* \"NFT_market_contract.sol\":6481:6505  isValid && !isOrderValid */\n    tag_85:\n        /* \"NFT_market_contract.sol\":6473:6528  require(isValid && !isOrderValid, \"Order is not valid\") */\n      tag_86\n      jumpi\n      mload(0x40)\n      0x08c379a000000000000000000000000000000000000000000000000000000000\n      dup2\n      mstore\n      0x04\n      add\n      tag_87\n      swap1\n      tag_88\n      jump\t// in\n    tag_87:\n      mload(0x40)\n      dup1\n      swap2\n      sub\n      swap1\n      revert\n    tag_86:\n        /* \"NFT_market_contract.sol\":6561:6570  sellOrder */\n      dup8\n        /* \"NFT_market_contract.sol\":6561:6576  sellOrder.price */\n      0x60\n      add\n      mload\n        /* \"NFT_market_contract.sol\":6554:6557  fee */\n      dup7\n        /* \"NFT_market_contract.sol\":6545:6551  _value */\n      dup9\n        /* \"NFT_market_contract.sol\":6545:6557  _value - fee */\n      tag_89\n      swap2\n      swap1\n      tag_90\n      jump\t// in\n    tag_89:\n        /* \"NFT_market_contract.sol\":6545:6576  _value - fee >= sellOrder.price */\n      lt\n        /* \"NFT_market_contract.sol\":6541:7726  if (_value - fee >= sellOrder.price) {... */\n      tag_91\n      jumpi\n        /* \"NFT_market_contract.sol\":6660:6672  bool success */\n      0x00\n        /* \"NFT_market_contract.sol\":6674:6691  bytes memory data */\n      dup1\n        /* \"NFT_market_contract.sol\":6695:6711  proxyWallet_Sell */\n      dup7\n        /* \"NFT_market_contract.sol\":6695:6716  proxyWallet_Sell.call */\n      0xffffffffffffffffffffffffffffffffffffffff\n      and\n        /* \"NFT_market_contract.sol\":6879:6888  sellOrder */\n      dup11\n        /* \"NFT_market_contract.sol\":6911:6921  msg.sender */\n      caller\n        /* \"NFT_market_contract.sol\":6735:6940  abi.encodeWithSignature(... */\n      add(0x24, mload(0x40))\n      tag_92\n      swap3\n      swap2\n      swap1\n      tag_93\n      jump\t// in\n    tag_92:\n      mload(0x40)\n      0x20\n      dup2\n      dup4\n      sub\n      sub\n      dup2\n      mstore\n      swap1\n      0x40\n      mstore\n      and(not(0xffffffffffffffffffffffffffffffffffffffffffffffffffffffff), 0xc04d75dd00000000000000000000000000000000000000000000000000000000)\n      0x20\n      dup3\n      add\n      dup1\n      mload\n      0xffffffffffffffffffffffffffffffffffffffffffffffffffffffff\n      dup4\n      dup2\n      dup4\n      and\n      or\n      dup4\n      mstore\n      pop\n      pop\n      pop\n      pop\n        /* \"NFT_market_contract.sol\":6695:6955  proxyWallet_Sell.call(... */\n      mload(0x40)\n      tag_94\n      swap2\n      swap1\n      tag_79\n      jump\t// in\n    tag_94:\n      0x00\n      mload(0x40)\n      dup1\n      dup4\n      sub\n      dup2\n      0x00\n      dup7\n      gas\n      call\n      swap2\n      pop\n      pop\n      returndatasize\n      dup1\n      0x00\n      dup2\n      eq\n      tag_97\n      jumpi\n      mload(0x40)\n      swap2\n      pop\n      and(add(returndatasize, 0x3f), not(0x1f))\n      dup3\n      add\n      0x40\n      mstore\n      returndatasize\n      dup3\n      mstore\n      returndatasize\n      0x00\n      0x20\n      dup5\n      add\n      returndatacopy\n      jump(tag_96)\n    tag_97:\n      0x60\n      swap2\n      pop\n    tag_96:\n      pop\n        /* \"NFT_market_contract.sol\":6659:6955  (bool success, bytes memory data) = proxyWallet_Sell.call(... */\n      swap2\n      pop\n      swap2\n      pop\n        /* \"NFT_market_contract.sol\":7111:7121  msg.sender */\n      caller\n        /* \"NFT_market_contract.sol\":7034:7121  IERC721(sellOrder.contractID).ownerOf(sellOrder.tokenID) ==... */\n      0xffffffffffffffffffffffffffffffffffffffff\n      and\n        /* \"NFT_market_contract.sol\":7042:7051  sellOrder */\n      dup11\n        /* \"NFT_market_contract.sol\":7042:7062  sellOrder.contractID */\n      0x20\n      add\n      mload\n        /* \"NFT_market_contract.sol\":7034:7071  IERC721(sellOrder.contractID).ownerOf */\n      0xffffffffffffffffffffffffffffffffffffffff\n      and\n      0x6352211e\n        /* \"NFT_market_contract.sol\":7072:7081  sellOrder */\n      dup13\n        /* \"NFT_market_contract.sol\":7072:7089  sellOrder.tokenID */\n      0x40\n      add\n      mload\n        /* \"NFT_market_contract.sol\":7034:7090  IERC721(sellOrder.contractID).ownerOf(sellOrder.tokenID) */\n      mload(0x40)\n      dup3\n      0xffffffff\n      and\n      0xe0\n      shl\n      dup2\n      mstore\n      0x04\n      add\n      tag_98\n      swap2\n      swap1\n      tag_33\n      jump\t// in\n    tag_98:\n      0x20\n      mload(0x40)\n      dup1\n      dup4\n      sub\n      dup2\n      dup7\n      gas\n      staticcall\n      iszero\n      dup1\n      iszero\n      tag_100\n      jumpi\n      returndatasize\n      0x00\n      dup1\n      returndatacopy\n      revert(0x00, returndatasize)\n    tag_100:\n      pop\n      pop\n      pop\n      pop\n      mload(0x40)\n      returndatasize\n      not(0x1f)\n      0x1f\n      dup3\n      add\n      and\n      dup3\n      add\n      dup1\n      0x40\n      mstore\n      pop\n      dup2\n      add\n      swap1\n      tag_101\n      swap2\n      swap1\n      tag_65\n      jump\t// in\n    tag_101:\n        /* \"NFT_market_contract.sol\":7034:7121  IERC721(sellOrder.contractID).ownerOf(sellOrder.tokenID) ==... */\n      0xffffffffffffffffffffffffffffffffffffffff\n      and\n      sub\n        /* \"NFT_market_contract.sol\":7012:7654  if (... */\n      tag_102\n      jumpi\n        /* \"NFT_market_contract.sol\":7188:7211  matchsuccess(sellOrder) */\n      tag_103\n        /* \"NFT_market_contract.sol\":7201:7210  sellOrder */\n      dup11\n        /* \"NFT_market_contract.sol\":7188:7200  matchsuccess */\n      tag_104\n        /* \"NFT_market_contract.sol\":7188:7211  matchsuccess(sellOrder) */\n      jump\t// in\n    tag_103:\n        /* \"NFT_market_contract.sol\":7238:7242  mall */\n      0x01\n      0x00\n      swap1\n      sload\n      swap1\n      0x0100\n      exp\n      swap1\n      div\n      0xffffffffffffffffffffffffffffffffffffffff\n      and\n        /* \"NFT_market_contract.sol\":7230:7252  payable(mall).transfer */\n      0xffffffffffffffffffffffffffffffffffffffff\n      and\n        /* \"NFT_market_contract.sol\":7230:7257  payable(mall).transfer(fee) */\n      0x08fc\n        /* \"NFT_market_contract.sol\":7253:7256  fee */\n      dup10\n        /* \"NFT_market_contract.sol\":7230:7257  payable(mall).transfer(fee) */\n      swap1\n      dup2\n      iszero\n      mul\n      swap1\n      mload(0x40)\n      0x00\n      mload(0x40)\n      dup1\n      dup4\n      sub\n      dup2\n      dup6\n      dup9\n      dup9\n      call\n      swap4\n      pop\n      pop\n      pop\n      pop\n      iszero\n      dup1\n      iszero\n      tag_106\n      jumpi\n      returndatasize\n      0x00\n      dup1\n      returndatacopy\n      revert(0x00, returndatasize)\n    tag_106:\n      pop\n        /* \"NFT_market_contract.sol\":7361:7370  sellOrder */\n      dup10\n        /* \"NFT_market_contract.sol\":7361:7377  sellOrder.seller */\n      0x00\n      add\n      mload\n        /* \"NFT_market_contract.sol\":7353:7383  payable(sellOrder.seller).send */\n      0xffffffffffffffffffffffffffffffffffffffff\n      and\n        /* \"NFT_market_contract.sol\":7353:7397  payable(sellOrder.seller).send(_value - fee) */\n      0x08fc\n        /* \"NFT_market_contract.sol\":7393:7396  fee */\n      dup10\n        /* \"NFT_market_contract.sol\":7384:7390  _value */\n      dup12\n        /* \"NFT_market_contract.sol\":7384:7396  _value - fee */\n      tag_107\n      swap2\n      swap1\n      tag_90\n      jump\t// in\n    tag_107:\n        /* \"NFT_market_contract.sol\":7353:7397  payable(sellOrder.seller).send(_value - fee) */\n      swap1\n      dup2\n      iszero\n      mul\n      swap1\n      mload(0x40)\n      0x00\n      mload(0x40)\n      dup1\n      dup4\n      sub\n      dup2\n      dup6\n      dup9\n      dup9\n      call\n      swap4\n      pop\n      pop\n      pop\n      pop\n        /* \"NFT_market_contract.sol\":7348:7540  if (!payable(sellOrder.seller).send(_value - fee)) {... */\n      tag_109\n      jumpi\n        /* \"NFT_market_contract.sol\":7430:7440  msg.sender */\n      caller\n        /* \"NFT_market_contract.sol\":7422:7450  payable(msg.sender).transfer */\n      0xffffffffffffffffffffffffffffffffffffffff\n      and\n        /* \"NFT_market_contract.sol\":7422:7464  payable(msg.sender).transfer(_value - fee) */\n      0x08fc\n        /* \"NFT_market_contract.sol\":7460:7463  fee */\n      dup10\n        /* \"NFT_market_contract.sol\":7451:7457  _value */\n      dup12\n        /* \"NFT_market_contract.sol\":7451:7463  _value - fee */\n      tag_110\n      swap2\n      swap1\n      tag_90\n      jump\t// in\n    tag_110:\n        /* \"NFT_market_contract.sol\":7422:7464  payable(msg.sender).transfer(_value - fee) */\n      swap1\n      dup2\n      iszero\n      mul\n      swap1\n      mload(0x40)\n      0x00\n      mload(0x40)\n      dup1\n      dup4\n      sub\n      dup2\n      dup6\n      dup9\n      dup9\n      call\n      swap4\n      pop\n      pop\n      pop\n      pop\n      iszero\n      dup1\n      iszero\n      tag_112\n      jumpi\n      returndatasize\n      0x00\n      dup1\n      returndatacopy\n      revert(0x00, returndatasize)\n    tag_112:\n      pop\n        /* \"NFT_market_contract.sol\":7495:7505  msg.sender */\n      caller\n        /* \"NFT_market_contract.sol\":7487:7515  payable(msg.sender).transfer */\n      0xffffffffffffffffffffffffffffffffffffffff\n      and\n        /* \"NFT_market_contract.sol\":7487:7520  payable(msg.sender).transfer(fee) */\n      0x08fc\n        /* \"NFT_market_contract.sol\":7516:7519  fee */\n      dup10\n        /* \"NFT_market_contract.sol\":7487:7520  payable(msg.sender).transfer(fee) */\n      swap1\n      dup2\n      iszero\n      mul\n      swap1\n      mload(0x40)\n      0x00\n      mload(0x40)\n      dup1\n      dup4\n      sub\n      dup2\n      dup6\n      dup9\n      dup9\n      call\n      swap4\n      pop\n      pop\n      pop\n      pop\n      iszero\n      dup1\n      iszero\n      tag_114\n      jumpi\n      returndatasize\n      0x00\n      dup1\n      returndatacopy\n      revert(0x00, returndatasize)\n    tag_114:\n      pop\n        /* \"NFT_market_contract.sol\":7348:7540  if (!payable(sellOrder.seller).send(_value - fee)) {... */\n    tag_109:\n        /* \"NFT_market_contract.sol\":7012:7654  if (... */\n      jump(tag_115)\n    tag_102:\n        /* \"NFT_market_contract.sol\":7580:7600  matchfail(sellOrder) */\n      tag_116\n        /* \"NFT_market_contract.sol\":7590:7599  sellOrder */\n      dup11\n        /* \"NFT_market_contract.sol\":7580:7589  matchfail */\n      tag_117\n        /* \"NFT_market_contract.sol\":7580:7600  matchfail(sellOrder) */\n      jump\t// in\n    tag_116:\n        /* \"NFT_market_contract.sol\":7619:7638  revert(\"matchfail\") */\n      mload(0x40)\n      0x08c379a000000000000000000000000000000000000000000000000000000000\n      dup2\n      mstore\n      0x04\n      add\n      tag_118\n      swap1\n      tag_119\n      jump\t// in\n    tag_118:\n      mload(0x40)\n      dup1\n      swap2\n      sub\n      swap1\n      revert\n        /* \"NFT_market_contract.sol\":7012:7654  if (... */\n    tag_115:\n        /* \"NFT_market_contract.sol\":6578:7665  {... */\n      pop\n      pop\n        /* \"NFT_market_contract.sol\":6541:7726  if (_value - fee >= sellOrder.price) {... */\n      jump(tag_120)\n    tag_91:\n        /* \"NFT_market_contract.sol\":7684:7714  revert(\"Insufficient payment\") */\n      mload(0x40)\n      0x08c379a000000000000000000000000000000000000000000000000000000000\n      dup2\n      mstore\n      0x04\n      add\n      tag_121\n      swap1\n      tag_122\n      jump\t// in\n    tag_121:\n      mload(0x40)\n      dup1\n      swap2\n      sub\n      swap1\n      revert\n        /* \"NFT_market_contract.sol\":6541:7726  if (_value - fee >= sellOrder.price) {... */\n    tag_120:\n        /* \"NFT_market_contract.sol\":4299:7733  {... */\n      pop\n      pop\n      pop\n      pop\n      pop\n      pop\n      pop\n      pop\n        /* \"NFT_market_contract.sol\":3957:7733  function matchOrder(... */\n    tag_48:\n      pop\n      pop\n      pop\n      pop\n      pop\n      pop\n      pop\n      jump\t// out\n        /* \"NFT_market_contract.sol\":2810:2961  function CancelSellOrder(... */\n    tag_23:\n        /* \"NFT_market_contract.sol\":2897:2906  sellOrder */\n      dup1\n        /* \"NFT_market_contract.sol\":2897:2913  sellOrder.seller */\n      0x00\n      add\n      mload\n        /* \"NFT_market_contract.sol\":2737:2743  seller */\n      dup1\n        /* \"NFT_market_contract.sol\":2723:2743  msg.sender == seller */\n      0xffffffffffffffffffffffffffffffffffffffff\n      and\n        /* \"NFT_market_contract.sol\":2723:2733  msg.sender */\n      caller\n        /* \"NFT_market_contract.sol\":2723:2743  msg.sender == seller */\n      0xffffffffffffffffffffffffffffffffffffffff\n      and\n      eq\n        /* \"NFT_market_contract.sol\":2715:2782  require(msg.sender == seller, \"Only seller can call this function\") */\n      tag_124\n      jumpi\n      mload(0x40)\n      0x08c379a000000000000000000000000000000000000000000000000000000000\n      dup2\n      mstore\n      0x04\n      add\n      tag_125\n      swap1\n      tag_126\n      jump\t// in\n    tag_125:\n      mload(0x40)\n      dup1\n      swap2\n      sub\n      swap1\n      revert\n    tag_124:\n        /* \"NFT_market_contract.sol\":2926:2953  _cancelSellOrder(sellOrder) */\n      tag_128\n        /* \"NFT_market_contract.sol\":2943:2952  sellOrder */\n      dup3\n        /* \"NFT_market_contract.sol\":2926:2942  _cancelSellOrder */\n      tag_73\n        /* \"NFT_market_contract.sol\":2926:2953  _cancelSellOrder(sellOrder) */\n      jump\t// in\n    tag_128:\n        /* \"NFT_market_contract.sol\":2810:2961  function CancelSellOrder(... */\n      pop\n      pop\n      jump\t// out\n        /* \"NFT_market_contract.sol\":1714:1962  function updateFeeRate(uint256 newFeeRate) public {... */\n    tag_28:\n        /* \"NFT_market_contract.sol\":1797:1802  owner */\n      0x03\n      0x00\n      swap1\n      sload\n      swap1\n      0x0100\n      exp\n      swap1\n      div\n      0xffffffffffffffffffffffffffffffffffffffff\n      and\n        /* \"NFT_market_contract.sol\":1783:1802  msg.sender == owner */\n      0xffffffffffffffffffffffffffffffffffffffff\n      and\n        /* \"NFT_market_contract.sol\":1783:1793  msg.sender */\n      caller\n        /* \"NFT_market_contract.sol\":1783:1802  msg.sender == owner */\n      0xffffffffffffffffffffffffffffffffffffffff\n      and\n      eq\n        /* \"NFT_market_contract.sol\":1775:1831  require(msg.sender == owner, \"only owner can call this\") */\n      tag_130\n      jumpi\n      mload(0x40)\n      0x08c379a000000000000000000000000000000000000000000000000000000000\n      dup2\n      mstore\n      0x04\n      add\n      tag_131\n      swap1\n      tag_47\n      jump\t// in\n    tag_131:\n      mload(0x40)\n      dup1\n      swap2\n      sub\n      swap1\n      revert\n    tag_130:\n        /* \"NFT_market_contract.sol\":1842:1860  uint256 oldFeeRate */\n      0x00\n        /* \"NFT_market_contract.sol\":1863:1870  feeRate */\n      sload(0x02)\n        /* \"NFT_market_contract.sol\":1842:1870  uint256 oldFeeRate = feeRate */\n      swap1\n      pop\n        /* \"NFT_market_contract.sol\":1891:1901  newFeeRate */\n      dup2\n        /* \"NFT_market_contract.sol\":1881:1888  feeRate */\n      0x02\n        /* \"NFT_market_contract.sol\":1881:1901  feeRate = newFeeRate */\n      dup2\n      swap1\n      sstore\n      pop\n        /* \"NFT_market_contract.sol\":1917:1954  UpdateFeeRate(oldFeeRate, newFeeRate) */\n      0x8d10d6dd6545b059182e4bf9534308bf75d7de65cdd8a68c12b7b74f139e58ae\n        /* \"NFT_market_contract.sol\":1931:1941  oldFeeRate */\n      dup2\n        /* \"NFT_market_contract.sol\":1943:1953  newFeeRate */\n      dup4\n        /* \"NFT_market_contract.sol\":1917:1954  UpdateFeeRate(oldFeeRate, newFeeRate) */\n      mload(0x40)\n      tag_132\n      swap3\n      swap2\n      swap1\n      tag_133\n      jump\t// in\n    tag_132:\n      mload(0x40)\n      dup1\n      swap2\n      sub\n      swap1\n      log1\n        /* \"NFT_market_contract.sol\":1764:1962  {... */\n      pop\n        /* \"NFT_market_contract.sol\":1714:1962  function updateFeeRate(uint256 newFeeRate) public {... */\n      pop\n      jump\t// out\n        /* \"NFT_market_contract.sol\":1990:2075  function getFeeRate() public view returns (uint256) {... */\n    tag_31:\n        /* \"NFT_market_contract.sol\":2033:2040  uint256 */\n      0x00\n        /* \"NFT_market_contract.sol\":2060:2067  feeRate */\n      sload(0x02)\n        /* \"NFT_market_contract.sol\":2053:2067  return feeRate */\n      swap1\n      pop\n        /* \"NFT_market_contract.sol\":1990:2075  function getFeeRate() public view returns (uint256) {... */\n      swap1\n      jump\t// out\n        /* \"NFT_market_contract.sol\":1209:1672  function createProxyWallet() public {... */\n    tag_36:\n        /* \"NFT_market_contract.sol\":1368:1369  0 */\n      0x00\n        /* \"NFT_market_contract.sol\":1327:1370  userToProxyWallet[msg.sender] == address(0) */\n      0xffffffffffffffffffffffffffffffffffffffff\n      and\n        /* \"NFT_market_contract.sol\":1327:1344  userToProxyWallet */\n      0x04\n        /* \"NFT_market_contract.sol\":1327:1356  userToProxyWallet[msg.sender] */\n      0x00\n        /* \"NFT_market_contract.sol\":1345:1355  msg.sender */\n      caller\n        /* \"NFT_market_contract.sol\":1327:1356  userToProxyWallet[msg.sender] */\n      0xffffffffffffffffffffffffffffffffffffffff\n      and\n      0xffffffffffffffffffffffffffffffffffffffff\n      and\n      dup2\n      mstore\n      0x20\n      add\n      swap1\n      dup2\n      mstore\n      0x20\n      add\n      0x00\n      keccak256\n      0x00\n      swap1\n      sload\n      swap1\n      0x0100\n      exp\n      swap1\n      div\n      0xffffffffffffffffffffffffffffffffffffffff\n      and\n        /* \"NFT_market_contract.sol\":1327:1370  userToProxyWallet[msg.sender] == address(0) */\n      0xffffffffffffffffffffffffffffffffffffffff\n      and\n      eq\n        /* \"NFT_market_contract.sol\":1305:1425  require(... */\n      tag_136\n      jumpi\n      mload(0x40)\n      0x08c379a000000000000000000000000000000000000000000000000000000000\n      dup2\n      mstore\n      0x04\n      add\n      tag_137\n      swap1\n      tag_138\n      jump\t// in\n    tag_137:\n      mload(0x40)\n      dup1\n      swap2\n      sub\n      swap1\n      revert\n    tag_136:\n        /* \"NFT_market_contract.sol\":1521:1531  msg.sender */\n      caller\n        /* \"NFT_market_contract.sol\":1505:1532  new ProxyWallet(msg.sender) */\n      mload(0x40)\n      tag_139\n      swap1\n      tag_140\n      jump\t// in\n    tag_139:\n      tag_141\n      swap2\n      swap1\n      tag_43\n      jump\t// in\n    tag_141:\n      mload(0x40)\n      dup1\n      swap2\n      sub\n      swap1\n      0x00\n      create\n      dup1\n      iszero\n      dup1\n      iszero\n      tag_142\n      jumpi\n      returndatasize\n      0x00\n      dup1\n      returndatacopy\n      revert(0x00, returndatasize)\n    tag_142:\n      pop\n        /* \"NFT_market_contract.sol\":1475:1494  proxyWalletContract */\n      0x00\n      dup1\n        /* \"NFT_market_contract.sol\":1475:1533  proxyWalletContract = address(new ProxyWallet(msg.sender)) */\n      0x0100\n      exp\n      dup2\n      sload\n      dup2\n      0xffffffffffffffffffffffffffffffffffffffff\n      mul\n      not\n      and\n      swap1\n      dup4\n      0xffffffffffffffffffffffffffffffffffffffff\n      and\n      mul\n      or\n      swap1\n      sstore\n      pop\n        /* \"NFT_market_contract.sol\":1645:1664  proxyWalletContract */\n      0x00\n      dup1\n      sload\n      swap1\n      0x0100\n      exp\n      swap1\n      div\n      0xffffffffffffffffffffffffffffffffffffffff\n      and\n        /* \"NFT_market_contract.sol\":1613:1630  userToProxyWallet */\n      0x04\n        /* \"NFT_market_contract.sol\":1613:1642  userToProxyWallet[msg.sender] */\n      0x00\n        /* \"NFT_market_contract.sol\":1631:1641  msg.sender */\n      caller\n        /* \"NFT_market_contract.sol\":1613:1642  userToProxyWallet[msg.sender] */\n      0xffffffffffffffffffffffffffffffffffffffff\n      and\n      0xffffffffffffffffffffffffffffffffffffffff\n      and\n      dup2\n      mstore\n      0x20\n      add\n      swap1\n      dup2\n      mstore\n      0x20\n      add\n      0x00\n      keccak256\n      0x00\n        /* \"NFT_market_contract.sol\":1613:1664  userToProxyWallet[msg.sender] = proxyWalletContract */\n      0x0100\n      exp\n      dup2\n      sload\n      dup2\n      0xffffffffffffffffffffffffffffffffffffffff\n      mul\n      not\n      and\n      swap1\n      dup4\n      0xffffffffffffffffffffffffffffffffffffffff\n      and\n      mul\n      or\n      swap1\n      sstore\n      pop\n        /* \"NFT_market_contract.sol\":1209:1672  function createProxyWallet() public {... */\n      jump\t// out\n        /* \"NFT_market_contract.sol\":2330:2634  function getProxyWallet(address user) public returns (address) {... */\n    tag_41:\n        /* \"NFT_market_contract.sol\":2384:2391  address */\n      0x00\n        /* \"NFT_market_contract.sol\":2443:2444  0 */\n      dup1\n        /* \"NFT_market_contract.sol\":2408:2445  userToProxyWallet[user] == address(0) */\n      0xffffffffffffffffffffffffffffffffffffffff\n      and\n        /* \"NFT_market_contract.sol\":2408:2425  userToProxyWallet */\n      0x04\n        /* \"NFT_market_contract.sol\":2408:2431  userToProxyWallet[user] */\n      0x00\n        /* \"NFT_market_contract.sol\":2426:2430  user */\n      dup5\n        /* \"NFT_market_contract.sol\":2408:2431  userToProxyWallet[user] */\n      0xffffffffffffffffffffffffffffffffffffffff\n      and\n      0xffffffffffffffffffffffffffffffffffffffff\n      and\n      dup2\n      mstore\n      0x20\n      add\n      swap1\n      dup2\n      mstore\n      0x20\n      add\n      0x00\n      keccak256\n      0x00\n      swap1\n      sload\n      swap1\n      0x0100\n      exp\n      swap1\n      div\n      0xffffffffffffffffffffffffffffffffffffffff\n      and\n        /* \"NFT_market_contract.sol\":2408:2445  userToProxyWallet[user] == address(0) */\n      0xffffffffffffffffffffffffffffffffffffffff\n      and\n      sub\n        /* \"NFT_market_contract.sol\":2404:2586  if (userToProxyWallet[user] == address(0)) {... */\n      tag_144\n      jumpi\n        /* \"NFT_market_contract.sol\":2508:2512  user */\n      dup2\n        /* \"NFT_market_contract.sol\":2492:2513  new ProxyWallet(user) */\n      mload(0x40)\n      tag_145\n      swap1\n      tag_140\n      jump\t// in\n    tag_145:\n      tag_146\n      swap2\n      swap1\n      tag_43\n      jump\t// in\n    tag_146:\n      mload(0x40)\n      dup1\n      swap2\n      sub\n      swap1\n      0x00\n      create\n      dup1\n      iszero\n      dup1\n      iszero\n      tag_147\n      jumpi\n      returndatasize\n      0x00\n      dup1\n      returndatacopy\n      revert(0x00, returndatasize)\n    tag_147:\n      pop\n        /* \"NFT_market_contract.sol\":2462:2481  proxyWalletContract */\n      0x00\n      dup1\n        /* \"NFT_market_contract.sol\":2462:2514  proxyWalletContract = address(new ProxyWallet(user)) */\n      0x0100\n      exp\n      dup2\n      sload\n      dup2\n      0xffffffffffffffffffffffffffffffffffffffff\n      mul\n      not\n      and\n      swap1\n      dup4\n      0xffffffffffffffffffffffffffffffffffffffff\n      and\n      mul\n      or\n      swap1\n      sstore\n      pop\n        /* \"NFT_market_contract.sol\":2555:2574  proxyWalletContract */\n      0x00\n      dup1\n      sload\n      swap1\n      0x0100\n      exp\n      swap1\n      div\n      0xffffffffffffffffffffffffffffffffffffffff\n      and\n        /* \"NFT_market_contract.sol\":2529:2546  userToProxyWallet */\n      0x04\n        /* \"NFT_market_contract.sol\":2529:2552  userToProxyWallet[user] */\n      0x00\n        /* \"NFT_market_contract.sol\":2547:2551  user */\n      dup5\n        /* \"NFT_market_contract.sol\":2529:2552  userToProxyWallet[user] */\n      0xffffffffffffffffffffffffffffffffffffffff\n      and\n      0xffffffffffffffffffffffffffffffffffffffff\n      and\n      dup2\n      mstore\n      0x20\n      add\n      swap1\n      dup2\n      mstore\n      0x20\n      add\n      0x00\n      keccak256\n      0x00\n        /* \"NFT_market_contract.sol\":2529:2574  userToProxyWallet[user] = proxyWalletContract */\n      0x0100\n      exp\n      dup2\n      sload\n      dup2\n      0xffffffffffffffffffffffffffffffffffffffff\n      mul\n      not\n      and\n      swap1\n      dup4\n      0xffffffffffffffffffffffffffffffffffffffff\n      and\n      mul\n      or\n      swap1\n      sstore\n      pop\n        /* \"NFT_market_contract.sol\":2404:2586  if (userToProxyWallet[user] == address(0)) {... */\n    tag_144:\n        /* \"NFT_market_contract.sol\":2603:2620  userToProxyWallet */\n      0x04\n        /* \"NFT_market_contract.sol\":2603:2626  userToProxyWallet[user] */\n      0x00\n        /* \"NFT_market_contract.sol\":2621:2625  user */\n      dup4\n        /* \"NFT_market_contract.sol\":2603:2626  userToProxyWallet[user] */\n      0xffffffffffffffffffffffffffffffffffffffff\n      and\n      0xffffffffffffffffffffffffffffffffffffffff\n      and\n      dup2\n      mstore\n      0x20\n      add\n      swap1\n      dup2\n      mstore\n      0x20\n      add\n      0x00\n      keccak256\n      0x00\n      swap1\n      sload\n      swap1\n      0x0100\n      exp\n      swap1\n      div\n      0xffffffffffffffffffffffffffffffffffffffff\n      and\n        /* \"NFT_market_contract.sol\":2596:2626  return userToProxyWallet[user] */\n      swap1\n      pop\n        /* \"NFT_market_contract.sol\":2330:2634  function getProxyWallet(address user) public returns (address) {... */\n      swap2\n      swap1\n      pop\n      jump\t// out\n        /* \"@openzeppelin/contracts/utils/math/SafeMath.sol\":3465:3561  function mul(uint256 a, uint256 b) internal pure returns (uint256) {... */\n    tag_51:\n        /* \"@openzeppelin/contracts/utils/math/SafeMath.sol\":3523:3530  uint256 */\n      0x00\n        /* \"@openzeppelin/contracts/utils/math/SafeMath.sol\":3553:3554  b */\n      dup2\n        /* \"@openzeppelin/contracts/utils/math/SafeMath.sol\":3549:3550  a */\n      dup4\n        /* \"@openzeppelin/contracts/utils/math/SafeMath.sol\":3549:3554  a * b */\n      tag_149\n      swap2\n      swap1\n      tag_150\n      jump\t// in\n    tag_149:\n        /* \"@openzeppelin/contracts/utils/math/SafeMath.sol\":3542:3554  return a * b */\n      swap1\n      pop\n        /* \"@openzeppelin/contracts/utils/math/SafeMath.sol\":3465:3561  function mul(uint256 a, uint256 b) internal pure returns (uint256) {... */\n      swap3\n      swap2\n      pop\n      pop\n      jump\t// out\n        /* \"@openzeppelin/contracts/utils/math/SafeMath.sol\":3850:3946  function div(uint256 a, uint256 b) internal pure returns (uint256) {... */\n    tag_52:\n        /* \"@openzeppelin/contracts/utils/math/SafeMath.sol\":3908:3915  uint256 */\n      0x00\n        /* \"@openzeppelin/contracts/utils/math/SafeMath.sol\":3938:3939  b */\n      dup2\n        /* \"@openzeppelin/contracts/utils/math/SafeMath.sol\":3934:3935  a */\n      dup4\n        /* \"@openzeppelin/contracts/utils/math/SafeMath.sol\":3934:3939  a / b */\n      tag_152\n      swap2\n      swap1\n      tag_153\n      jump\t// in\n    tag_152:\n        /* \"@openzeppelin/contracts/utils/math/SafeMath.sol\":3927:3939  return a / b */\n      swap1\n      pop\n        /* \"@openzeppelin/contracts/utils/math/SafeMath.sol\":3850:3946  function div(uint256 a, uint256 b) internal pure returns (uint256) {... */\n      swap3\n      swap2\n      pop\n      pop\n      jump\t// out\n        /* \"NFT_market_contract.sol\":9054:9759  function verifySignature(... */\n    tag_54:\n        /* \"NFT_market_contract.sol\":9303:9307  bool */\n      0x00\n        /* \"NFT_market_contract.sol\":9320:9332  bytes32 hash */\n      dup1\n        /* \"NFT_market_contract.sol\":9394:9400  seller */\n      dup9\n        /* \"NFT_market_contract.sol\":9419:9429  contractID */\n      dup9\n        /* \"NFT_market_contract.sol\":9448:9455  tokenID */\n      dup9\n        /* \"NFT_market_contract.sol\":9474:9479  price */\n      dup9\n        /* \"NFT_market_contract.sol\":9498:9512  expirationTime */\n      dup8\n        /* \"NFT_market_contract.sol\":9531:9536  nonce */\n      dup8\n        /* \"NFT_market_contract.sol\":9359:9551  abi.encodePacked(... */\n      add(0x20, mload(0x40))\n      tag_155\n      swap7\n      swap6\n      swap5\n      swap4\n      swap3\n      swap2\n      swap1\n      tag_70\n      jump\t// in\n    tag_155:\n      mload(0x40)\n      0x20\n      dup2\n      dup4\n      sub\n      sub\n      dup2\n      mstore\n      swap1\n      0x40\n      mstore\n        /* \"NFT_market_contract.sol\":9335:9562  keccak256(... */\n      dup1\n      mload\n      swap1\n      0x20\n      add\n      keccak256\n        /* \"NFT_market_contract.sol\":9320:9562  bytes32 hash = keccak256(... */\n      swap1\n      pop\n        /* \"NFT_market_contract.sol\":9573:9590  bytes32 OrderHash */\n      0x00\n        /* \"NFT_market_contract.sol\":9670:9674  hash */\n      dup2\n        /* \"NFT_market_contract.sol\":9617:9675  abi.encodePacked(\"\\x19Ethereum Signed Message:\\n32\", hash) */\n      add(0x20, mload(0x40))\n      tag_156\n      swap2\n      swap1\n      tag_157\n      jump\t// in\n    tag_156:\n      mload(0x40)\n      0x20\n      dup2\n      dup4\n      sub\n      sub\n      dup2\n      mstore\n      swap1\n      0x40\n      mstore\n        /* \"NFT_market_contract.sol\":9593:9686  keccak256(... */\n      dup1\n      mload\n      swap1\n      0x20\n      add\n      keccak256\n        /* \"NFT_market_contract.sol\":9573:9686  bytes32 OrderHash = keccak256(... */\n      swap1\n      pop\n        /* \"NFT_market_contract.sol\":9745:9751  seller */\n      dup10\n        /* \"NFT_market_contract.sol\":9706:9751  recoverSigner(OrderHash, signature) == seller */\n      0xffffffffffffffffffffffffffffffffffffffff\n      and\n        /* \"NFT_market_contract.sol\":9706:9741  recoverSigner(OrderHash, signature) */\n      tag_158\n        /* \"NFT_market_contract.sol\":9720:9729  OrderHash */\n      dup3\n        /* \"NFT_market_contract.sol\":9731:9740  signature */\n      dup9\n        /* \"NFT_market_contract.sol\":9706:9719  recoverSigner */\n      tag_159\n        /* \"NFT_market_contract.sol\":9706:9741  recoverSigner(OrderHash, signature) */\n      jump\t// in\n    tag_158:\n        /* \"NFT_market_contract.sol\":9706:9751  recoverSigner(OrderHash, signature) == seller */\n      0xffffffffffffffffffffffffffffffffffffffff\n      and\n      eq\n        /* \"NFT_market_contract.sol\":9699:9751  return recoverSigner(OrderHash, signature) == seller */\n      swap3\n      pop\n      pop\n      pop\n        /* \"NFT_market_contract.sol\":9054:9759  function verifySignature(... */\n      swap8\n      swap7\n      pop\n      pop\n      pop\n      pop\n      pop\n      pop\n      pop\n      jump\t// out\n        /* \"NFT_market_contract.sol\":2989:3949  function _cancelSellOrder(SellOrder memory sellOrder) internal {... */\n    tag_73:\n        /* \"NFT_market_contract.sol\":3136:3149  bool success1 */\n      0x00\n        /* \"NFT_market_contract.sol\":3151:3168  bytes memory data */\n      dup1\n        /* \"NFT_market_contract.sol\":3172:3189  userToProxyWallet */\n      0x04\n        /* \"NFT_market_contract.sol\":3172:3207  userToProxyWallet[sellOrder.seller] */\n      0x00\n        /* \"NFT_market_contract.sol\":3190:3199  sellOrder */\n      dup5\n        /* \"NFT_market_contract.sol\":3190:3206  sellOrder.seller */\n      0x00\n      add\n      mload\n        /* \"NFT_market_contract.sol\":3172:3207  userToProxyWallet[sellOrder.seller] */\n      0xffffffffffffffffffffffffffffffffffffffff\n      and\n      0xffffffffffffffffffffffffffffffffffffffff\n      and\n      dup2\n      mstore\n      0x20\n      add\n      swap1\n      dup2\n      mstore\n      0x20\n      add\n      0x00\n      keccak256\n      0x00\n      swap1\n      sload\n      swap1\n      0x0100\n      exp\n      swap1\n      div\n      0xffffffffffffffffffffffffffffffffffffffff\n      and\n        /* \"NFT_market_contract.sol\":3172:3226  userToProxyWallet[sellOrder.seller]... */\n      0xffffffffffffffffffffffffffffffffffffffff\n      and\n        /* \"NFT_market_contract.sol\":3384:3393  sellOrder */\n      dup4\n        /* \"NFT_market_contract.sol\":3245:3412  abi.encodeWithSignature(... */\n      add(0x24, mload(0x40))\n      tag_161\n      swap2\n      swap1\n      tag_162\n      jump\t// in\n    tag_161:\n      mload(0x40)\n      0x20\n      dup2\n      dup4\n      sub\n      sub\n      dup2\n      mstore\n      swap1\n      0x40\n      mstore\n      and(not(0xffffffffffffffffffffffffffffffffffffffffffffffffffffffff), 0x9b3f3f1a00000000000000000000000000000000000000000000000000000000)\n      0x20\n      dup3\n      add\n      dup1\n      mload\n      0xffffffffffffffffffffffffffffffffffffffffffffffffffffffff\n      dup4\n      dup2\n      dup4\n      and\n      or\n      dup4\n      mstore\n      pop\n      pop\n      pop\n      pop\n        /* \"NFT_market_contract.sol\":3172:3427  userToProxyWallet[sellOrder.seller]... */\n      mload(0x40)\n      tag_163\n      swap2\n      swap1\n      tag_79\n      jump\t// in\n    tag_163:\n      0x00\n      mload(0x40)\n      dup1\n      dup4\n      sub\n      dup2\n      0x00\n      dup7\n      gas\n      call\n      swap2\n      pop\n      pop\n      returndatasize\n      dup1\n      0x00\n      dup2\n      eq\n      tag_166\n      jumpi\n      mload(0x40)\n      swap2\n      pop\n      and(add(returndatasize, 0x3f), not(0x1f))\n      dup3\n      add\n      0x40\n      mstore\n      returndatasize\n      dup3\n      mstore\n      returndatasize\n      0x00\n      0x20\n      dup5\n      add\n      returndatacopy\n      jump(tag_165)\n    tag_166:\n      0x60\n      swap2\n      pop\n    tag_165:\n      pop\n        /* \"NFT_market_contract.sol\":3135:3427  (bool success1, bytes memory data) = userToProxyWallet[sellOrder.seller]... */\n      swap2\n      pop\n      swap2\n      pop\n        /* \"NFT_market_contract.sol\":3442:3454  bytes32 Hash */\n      0x00\n        /* \"NFT_market_contract.sol\":3516:3525  sellOrder */\n      dup4\n        /* \"NFT_market_contract.sol\":3516:3532  sellOrder.seller */\n      0x00\n      add\n      mload\n        /* \"NFT_market_contract.sol\":3551:3560  sellOrder */\n      dup5\n        /* \"NFT_market_contract.sol\":3551:3571  sellOrder.contractID */\n      0x20\n      add\n      mload\n        /* \"NFT_market_contract.sol\":3590:3599  sellOrder */\n      dup6\n        /* \"NFT_market_contract.sol\":3590:3607  sellOrder.tokenID */\n      0x40\n      add\n      mload\n        /* \"NFT_market_contract.sol\":3626:3635  sellOrder */\n      dup7\n        /* \"NFT_market_contract.sol\":3626:3641  sellOrder.price */\n      0x60\n      add\n      mload\n        /* \"NFT_market_contract.sol\":3660:3669  sellOrder */\n      dup8\n        /* \"NFT_market_contract.sol\":3660:3684  sellOrder.expirationTime */\n      0xa0\n      add\n      mload\n        /* \"NFT_market_contract.sol\":3703:3712  sellOrder */\n      dup9\n        /* \"NFT_market_contract.sol\":3703:3718  sellOrder.nonce */\n      0xc0\n      add\n      mload\n        /* \"NFT_market_contract.sol\":3481:3733  abi.encodePacked(... */\n      add(0x20, mload(0x40))\n      tag_167\n      swap7\n      swap6\n      swap5\n      swap4\n      swap3\n      swap2\n      swap1\n      tag_70\n      jump\t// in\n    tag_167:\n      mload(0x40)\n      0x20\n      dup2\n      dup4\n      sub\n      sub\n      dup2\n      mstore\n      swap1\n      0x40\n      mstore\n        /* \"NFT_market_contract.sol\":3457:3744  keccak256(... */\n      dup1\n      mload\n      swap1\n      0x20\n      add\n      keccak256\n        /* \"NFT_market_contract.sol\":3442:3744  bytes32 Hash = keccak256(... */\n      swap1\n      pop\n        /* \"NFT_market_contract.sol\":3850:3859  sellOrder */\n      dup4\n        /* \"NFT_market_contract.sol\":3850:3870  sellOrder.contractID */\n      0x20\n      add\n      mload\n        /* \"NFT_market_contract.sol\":3786:3941  SellOrderCancelled(... */\n      0xffffffffffffffffffffffffffffffffffffffff\n      and\n        /* \"NFT_market_contract.sol\":3819:3828  sellOrder */\n      dup5\n        /* \"NFT_market_contract.sol\":3819:3835  sellOrder.seller */\n      0x00\n      add\n      mload\n        /* \"NFT_market_contract.sol\":3786:3941  SellOrderCancelled(... */\n      0xffffffffffffffffffffffffffffffffffffffff\n      and\n      0x9b3260990101a9c5eb670b44ba2f4ec1048ddaf533a012abff3841ef15307fec\n        /* \"NFT_market_contract.sol\":3885:3889  Hash */\n      dup4\n        /* \"NFT_market_contract.sol\":3913:3922  sellOrder */\n      dup8\n        /* \"NFT_market_contract.sol\":3913:3930  sellOrder.tokenID */\n      0x40\n      add\n      mload\n        /* \"NFT_market_contract.sol\":3786:3941  SellOrderCancelled(... */\n      mload(0x40)\n      tag_168\n      swap3\n      swap2\n      swap1\n      tag_75\n      jump\t// in\n    tag_168:\n      mload(0x40)\n      dup1\n      swap2\n      sub\n      swap1\n      log3\n        /* \"NFT_market_contract.sol\":3052:3949  {... */\n      pop\n      pop\n      pop\n        /* \"NFT_market_contract.sol\":2989:3949  function _cancelSellOrder(SellOrder memory sellOrder) internal {... */\n      pop\n      jump\t// out\n        /* \"NFT_market_contract.sol\":7741:8382  function matchsuccess(SellOrder memory sellOrder) internal {... */\n    tag_104:\n        /* \"NFT_market_contract.sol\":7850:7862  bytes32 Hash */\n      0x00\n        /* \"NFT_market_contract.sol\":7925:7934  sellOrder */\n      dup2\n        /* \"NFT_market_contract.sol\":7925:7941  sellOrder.seller */\n      0x00\n      add\n      mload\n        /* \"NFT_market_contract.sol\":7960:7969  sellOrder */\n      dup3\n        /* \"NFT_market_contract.sol\":7960:7980  sellOrder.contractID */\n      0x20\n      add\n      mload\n        /* \"NFT_market_contract.sol\":7999:8008  sellOrder */\n      dup4\n        /* \"NFT_market_contract.sol\":7999:8016  sellOrder.tokenID */\n      0x40\n      add\n      mload\n        /* \"NFT_market_contract.sol\":8035:8044  sellOrder */\n      dup5\n        /* \"NFT_market_contract.sol\":8035:8050  sellOrder.price */\n      0x60\n      add\n      mload\n        /* \"NFT_market_contract.sol\":8069:8078  sellOrder */\n      dup6\n        /* \"NFT_market_contract.sol\":8069:8093  sellOrder.expirationTime */\n      0xa0\n      add\n      mload\n        /* \"NFT_market_contract.sol\":8112:8121  sellOrder */\n      dup7\n        /* \"NFT_market_contract.sol\":8112:8127  sellOrder.nonce */\n      0xc0\n      add\n      mload\n        /* \"NFT_market_contract.sol\":7890:8142  abi.encodePacked(... */\n      add(0x20, mload(0x40))\n      tag_170\n      swap7\n      swap6\n      swap5\n      swap4\n      swap3\n      swap2\n      swap1\n      tag_70\n      jump\t// in\n    tag_170:\n      mload(0x40)\n      0x20\n      dup2\n      dup4\n      sub\n      sub\n      dup2\n      mstore\n      swap1\n      0x40\n      mstore\n        /* \"NFT_market_contract.sol\":7865:8153  keccak256( ... */\n      dup1\n      mload\n      swap1\n      0x20\n      add\n      keccak256\n        /* \"NFT_market_contract.sol\":7850:8153  bytes32 Hash = keccak256( ... */\n      swap1\n      pop\n        /* \"NFT_market_contract.sol\":8252:8261  sellOrder */\n      dup2\n        /* \"NFT_market_contract.sol\":8252:8272  sellOrder.contractID */\n      0x20\n      add\n      mload\n        /* \"NFT_market_contract.sol\":8169:8374  MatchSuccess(... */\n      0xffffffffffffffffffffffffffffffffffffffff\n      and\n        /* \"NFT_market_contract.sol\":8227:8237  msg.sender */\n      caller\n        /* \"NFT_market_contract.sol\":8169:8374  MatchSuccess(... */\n      0xffffffffffffffffffffffffffffffffffffffff\n      and\n        /* \"NFT_market_contract.sol\":8196:8205  sellOrder */\n      dup4\n        /* \"NFT_market_contract.sol\":8196:8212  sellOrder.seller */\n      0x00\n      add\n      mload\n        /* \"NFT_market_contract.sol\":8169:8374  MatchSuccess(... */\n      0xffffffffffffffffffffffffffffffffffffffff\n      and\n      0x467f50bd8d1547cf60e60dba76ab3ff7f8b3a07ceba26c2268e160a7df30230e\n        /* \"NFT_market_contract.sol\":8287:8296  sellOrder */\n      dup6\n        /* \"NFT_market_contract.sol\":8287:8304  sellOrder.tokenID */\n      0x40\n      add\n      mload\n        /* \"NFT_market_contract.sol\":8319:8323  Hash */\n      dup6\n        /* \"NFT_market_contract.sol\":8348:8357  sellOrder */\n      dup8\n        /* \"NFT_market_contract.sol\":8348:8363  sellOrder.price */\n      0x60\n      add\n      mload\n        /* \"NFT_market_contract.sol\":8169:8374  MatchSuccess(... */\n      mload(0x40)\n      tag_171\n      swap4\n      swap3\n      swap2\n      swap1\n      tag_172\n      jump\t// in\n    tag_171:\n      mload(0x40)\n      dup1\n      swap2\n      sub\n      swap1\n      log4\n        /* \"NFT_market_contract.sol\":7800:8382  {... */\n      pop\n        /* \"NFT_market_contract.sol\":7741:8382  function matchsuccess(SellOrder memory sellOrder) internal {... */\n      pop\n      jump\t// out\n        /* \"NFT_market_contract.sol\":8390:9025  function matchfail(SellOrder memory sellOrder) internal {... */\n    tag_117:\n        /* \"NFT_market_contract.sol\":8497:8509  bytes32 Hash */\n      0x00\n        /* \"NFT_market_contract.sol\":8572:8581  sellOrder */\n      dup2\n        /* \"NFT_market_contract.sol\":8572:8588  sellOrder.seller */\n      0x00\n      add\n      mload\n        /* \"NFT_market_contract.sol\":8607:8616  sellOrder */\n      dup3\n        /* \"NFT_market_contract.sol\":8607:8627  sellOrder.contractID */\n      0x20\n      add\n      mload\n        /* \"NFT_market_contract.sol\":8646:8655  sellOrder */\n      dup4\n        /* \"NFT_market_contract.sol\":8646:8663  sellOrder.tokenID */\n      0x40\n      add\n      mload\n        /* \"NFT_market_contract.sol\":8682:8691  sellOrder */\n      dup5\n        /* \"NFT_market_contract.sol\":8682:8697  sellOrder.price */\n      0x60\n      add\n      mload\n        /* \"NFT_market_contract.sol\":8716:8725  sellOrder */\n      dup6\n        /* \"NFT_market_contract.sol\":8716:8740  sellOrder.expirationTime */\n      0xa0\n      add\n      mload\n        /* \"NFT_market_contract.sol\":8759:8768  sellOrder */\n      dup7\n        /* \"NFT_market_contract.sol\":8759:8774  sellOrder.nonce */\n      0xc0\n      add\n      mload\n        /* \"NFT_market_contract.sol\":8537:8789  abi.encodePacked(... */\n      add(0x20, mload(0x40))\n      tag_174\n      swap7\n      swap6\n      swap5\n      swap4\n      swap3\n      swap2\n      swap1\n      tag_70\n      jump\t// in\n    tag_174:\n      mload(0x40)\n      0x20\n      dup2\n      dup4\n      sub\n      sub\n      dup2\n      mstore\n      swap1\n      0x40\n      mstore\n        /* \"NFT_market_contract.sol\":8512:8800  keccak256( ... */\n      dup1\n      mload\n      swap1\n      0x20\n      add\n      keccak256\n        /* \"NFT_market_contract.sol\":8497:8800  bytes32 Hash = keccak256( ... */\n      swap1\n      pop\n        /* \"NFT_market_contract.sol\":8896:8905  sellOrder */\n      dup2\n        /* \"NFT_market_contract.sol\":8896:8916  sellOrder.contractID */\n      0x20\n      add\n      mload\n        /* \"NFT_market_contract.sol\":8816:9017  MatchFail(... */\n      0xffffffffffffffffffffffffffffffffffffffff\n      and\n        /* \"NFT_market_contract.sol\":8871:8881  msg.sender */\n      caller\n        /* \"NFT_market_contract.sol\":8816:9017  MatchFail(... */\n      0xffffffffffffffffffffffffffffffffffffffff\n      and\n        /* \"NFT_market_contract.sol\":8840:8849  sellOrder */\n      dup4\n        /* \"NFT_market_contract.sol\":8840:8856  sellOrder.seller */\n      0x00\n      add\n      mload\n        /* \"NFT_market_contract.sol\":8816:9017  MatchFail(... */\n      0xffffffffffffffffffffffffffffffffffffffff\n      and\n      0x9bd8cc9f795935d6f423445d18dd997edfeec3d962973fadffeac5740e876b5f\n        /* \"NFT_market_contract.sol\":8931:8940  sellOrder */\n      dup6\n        /* \"NFT_market_contract.sol\":8931:8948  sellOrder.tokenID */\n      0x40\n      add\n      mload\n        /* \"NFT_market_contract.sol\":8963:8967  Hash */\n      dup6\n        /* \"NFT_market_contract.sol\":8991:9000  sellOrder */\n      dup8\n        /* \"NFT_market_contract.sol\":8991:9006  sellOrder.price */\n      0x60\n      add\n      mload\n        /* \"NFT_market_contract.sol\":8816:9017  MatchFail(... */\n      mload(0x40)\n      tag_175\n      swap4\n      swap3\n      swap2\n      swap1\n      tag_172\n      jump\t// in\n    tag_175:\n      mload(0x40)\n      dup1\n      swap2\n      sub\n      swap1\n      log4\n        /* \"NFT_market_contract.sol\":8446:9025  {... */\n      pop\n        /* \"NFT_market_contract.sol\":8390:9025  function matchfail(SellOrder memory sellOrder) internal {... */\n      pop\n      jump\t// out\n        /* \"NFT_market_contract.sol\":9767:10233  function recoverSigner(... */\n    tag_159:\n        /* \"NFT_market_contract.sol\":9876:9883  address */\n      0x00\n        /* \"NFT_market_contract.sol\":9896:9905  bytes32 r */\n      dup1\n        /* \"NFT_market_contract.sol\":9916:9925  bytes32 s */\n      0x00\n        /* \"NFT_market_contract.sol\":9936:9943  uint8 v */\n      dup1\n        /* \"NFT_market_contract.sol\":10006:10010  0x20 */\n      0x20\n        /* \"NFT_market_contract.sol\":9995:10004  signature */\n      dup6\n        /* \"NFT_market_contract.sol\":9991:10011  add(signature, 0x20) */\n      add\n        /* \"NFT_market_contract.sol\":9985:10012  mload(add(signature, 0x20)) */\n      mload\n        /* \"NFT_market_contract.sol\":9980:10012  r := mload(add(signature, 0x20)) */\n      swap3\n      pop\n        /* \"NFT_market_contract.sol\":10052:10056  0x40 */\n      0x40\n        /* \"NFT_market_contract.sol\":10041:10050  signature */\n      dup6\n        /* \"NFT_market_contract.sol\":10037:10057  add(signature, 0x40) */\n      add\n        /* \"NFT_market_contract.sol\":10031:10058  mload(add(signature, 0x40)) */\n      mload\n        /* \"NFT_market_contract.sol\":10026:10058  s := mload(add(signature, 0x40)) */\n      swap2\n      pop\n        /* \"NFT_market_contract.sol\":10106:10110  0x60 */\n      0x60\n        /* \"NFT_market_contract.sol\":10095:10104  signature */\n      dup6\n        /* \"NFT_market_contract.sol\":10091:10111  add(signature, 0x60) */\n      add\n        /* \"NFT_market_contract.sol\":10085:10112  mload(add(signature, 0x60)) */\n      mload\n        /* \"NFT_market_contract.sol\":10082:10083  0 */\n      0x00\n        /* \"NFT_market_contract.sol\":10077:10113  byte(0, mload(add(signature, 0x60))) */\n      byte\n        /* \"NFT_market_contract.sol\":10072:10113  v := byte(0, mload(add(signature, 0x60))) */\n      swap1\n      pop\n        /* \"NFT_market_contract.sol\":10144:10146  27 */\n      0x1b\n        /* \"NFT_market_contract.sol\":10140:10141  v */\n      dup2\n        /* \"NFT_market_contract.sol\":10140:10146  v < 27 */\n      0xff\n      and\n      lt\n        /* \"NFT_market_contract.sol\":10136:10182  if (v < 27) {... */\n      iszero\n      tag_177\n      jumpi\n        /* \"NFT_market_contract.sol\":10168:10170  27 */\n      0x1b\n        /* \"NFT_market_contract.sol\":10163:10170  v += 27 */\n      dup2\n      tag_178\n      swap2\n      swap1\n      tag_179\n      jump\t// in\n    tag_178:\n      swap1\n      pop\n        /* \"NFT_market_contract.sol\":10136:10182  if (v < 27) {... */\n    tag_177:\n        /* \"NFT_market_contract.sol\":10201:10225  ecrecover(hash, v, r, s) */\n      0x01\n        /* \"NFT_market_contract.sol\":10211:10215  hash */\n      dup7\n        /* \"NFT_market_contract.sol\":10217:10218  v */\n      dup3\n        /* \"NFT_market_contract.sol\":10220:10221  r */\n      dup6\n        /* \"NFT_market_contract.sol\":10223:10224  s */\n      dup6\n        /* \"NFT_market_contract.sol\":10201:10225  ecrecover(hash, v, r, s) */\n      mload(0x40)\n      0x00\n      dup2\n      mstore\n      0x20\n      add\n      0x40\n      mstore\n      mload(0x40)\n      tag_180\n      swap5\n      swap4\n      swap3\n      swap2\n      swap1\n      tag_181\n      jump\t// in\n    tag_180:\n      0x20\n      mload(0x40)\n      0x20\n      dup2\n      sub\n      swap1\n      dup1\n      dup5\n      sub\n      swap1\n      dup6\n      gas\n      staticcall\n      iszero\n      dup1\n      iszero\n      tag_183\n      jumpi\n      returndatasize\n      0x00\n      dup1\n      returndatacopy\n      revert(0x00, returndatasize)\n    tag_183:\n      pop\n      pop\n      pop\n      mload(sub(mload(0x40), 0x20))\n        /* \"NFT_market_contract.sol\":10194:10225  return ecrecover(hash, v, r, s) */\n      swap4\n      pop\n      pop\n      pop\n      pop\n        /* \"NFT_market_contract.sol\":9767:10233  function recoverSigner(... */\n      swap3\n      swap2\n      pop\n      pop\n      jump\t// out\n    tag_140:\n      dataSize(sub_0)\n      dup1\n      dataOffset(sub_0)\n      dup4\n      codecopy\n      add\n      swap1\n      jump\t// out\n        /* \"#utility.yul\":7:82   */\n    tag_184:\n        /* \"#utility.yul\":40:46   */\n      0x00\n        /* \"#utility.yul\":73:75   */\n      0x40\n        /* \"#utility.yul\":67:76   */\n      mload\n        /* \"#utility.yul\":57:76   */\n      swap1\n      pop\n        /* \"#utility.yul\":7:82   */\n      swap1\n      jump\t// out\n        /* \"#utility.yul\":88:205   */\n    tag_185:\n        /* \"#utility.yul\":197:198   */\n      0x00\n        /* \"#utility.yul\":194:195   */\n      dup1\n        /* \"#utility.yul\":187:199   */\n      revert\n        /* \"#utility.yul\":211:328   */\n    tag_186:\n        /* \"#utility.yul\":320:321   */\n      0x00\n        /* \"#utility.yul\":317:318   */\n      dup1\n        /* \"#utility.yul\":310:322   */\n      revert\n        /* \"#utility.yul\":334:460   */\n    tag_187:\n        /* \"#utility.yul\":371:378   */\n      0x00\n        /* \"#utility.yul\":411:453   */\n      0xffffffffffffffffffffffffffffffffffffffff\n        /* \"#utility.yul\":404:409   */\n      dup3\n        /* \"#utility.yul\":400:454   */\n      and\n        /* \"#utility.yul\":389:454   */\n      swap1\n      pop\n        /* \"#utility.yul\":334:460   */\n      swap2\n      swap1\n      pop\n      jump\t// out\n        /* \"#utility.yul\":466:570   */\n    tag_188:\n        /* \"#utility.yul\":511:518   */\n      0x00\n        /* \"#utility.yul\":540:564   */\n      tag_267\n        /* \"#utility.yul\":558:563   */\n      dup3\n        /* \"#utility.yul\":540:564   */\n      tag_187\n      jump\t// in\n    tag_267:\n        /* \"#utility.yul\":529:564   */\n      swap1\n      pop\n        /* \"#utility.yul\":466:570   */\n      swap2\n      swap1\n      pop\n      jump\t// out\n        /* \"#utility.yul\":576:714   */\n    tag_189:\n        /* \"#utility.yul\":657:689   */\n      tag_269\n        /* \"#utility.yul\":683:688   */\n      dup2\n        /* \"#utility.yul\":657:689   */\n      tag_188\n      jump\t// in\n    tag_269:\n        /* \"#utility.yul\":650:655   */\n      dup2\n        /* \"#utility.yul\":647:690   */\n      eq\n        /* \"#utility.yul\":637:708   */\n      tag_270\n      jumpi\n        /* \"#utility.yul\":704:705   */\n      0x00\n        /* \"#utility.yul\":701:702   */\n      dup1\n        /* \"#utility.yul\":694:706   */\n      revert\n        /* \"#utility.yul\":637:708   */\n    tag_270:\n        /* \"#utility.yul\":576:714   */\n      pop\n      jump\t// out\n        /* \"#utility.yul\":720:875   */\n    tag_190:\n        /* \"#utility.yul\":774:779   */\n      0x00\n        /* \"#utility.yul\":812:818   */\n      dup2\n        /* \"#utility.yul\":799:819   */\n      calldataload\n        /* \"#utility.yul\":790:819   */\n      swap1\n      pop\n        /* \"#utility.yul\":828:869   */\n      tag_272\n        /* \"#utility.yul\":863:868   */\n      dup2\n        /* \"#utility.yul\":828:869   */\n      tag_189\n      jump\t// in\n    tag_272:\n        /* \"#utility.yul\":720:875   */\n      swap3\n      swap2\n      pop\n      pop\n      jump\t// out\n        /* \"#utility.yul\":881:1226   */\n    tag_13:\n        /* \"#utility.yul\":948:954   */\n      0x00\n        /* \"#utility.yul\":997:999   */\n      0x20\n        /* \"#utility.yul\":985:994   */\n      dup3\n        /* \"#utility.yul\":976:983   */\n      dup5\n        /* \"#utility.yul\":972:995   */\n      sub\n        /* \"#utility.yul\":968:1000   */\n      slt\n        /* \"#utility.yul\":965:1084   */\n      iszero\n      tag_274\n      jumpi\n        /* \"#utility.yul\":1003:1082   */\n      tag_275\n      tag_185\n      jump\t// in\n    tag_275:\n        /* \"#utility.yul\":965:1084   */\n    tag_274:\n        /* \"#utility.yul\":1123:1124   */\n      0x00\n        /* \"#utility.yul\":1148:1209   */\n      tag_276\n        /* \"#utility.yul\":1201:1208   */\n      dup5\n        /* \"#utility.yul\":1192:1198   */\n      dup3\n        /* \"#utility.yul\":1181:1190   */\n      dup6\n        /* \"#utility.yul\":1177:1199   */\n      add\n        /* \"#utility.yul\":1148:1209   */\n      tag_190\n      jump\t// in\n    tag_276:\n        /* \"#utility.yul\":1138:1209   */\n      swap2\n      pop\n        /* \"#utility.yul\":1094:1219   */\n      pop\n        /* \"#utility.yul\":881:1226   */\n      swap3\n      swap2\n      pop\n      pop\n      jump\t// out\n        /* \"#utility.yul\":1232:1328   */\n    tag_191:\n        /* \"#utility.yul\":1269:1276   */\n      0x00\n        /* \"#utility.yul\":1298:1322   */\n      tag_278\n        /* \"#utility.yul\":1316:1321   */\n      dup3\n        /* \"#utility.yul\":1298:1322   */\n      tag_187\n      jump\t// in\n    tag_278:\n        /* \"#utility.yul\":1287:1322   */\n      swap1\n      pop\n        /* \"#utility.yul\":1232:1328   */\n      swap2\n      swap1\n      pop\n      jump\t// out\n        /* \"#utility.yul\":1334:1456   */\n    tag_192:\n        /* \"#utility.yul\":1407:1431   */\n      tag_280\n        /* \"#utility.yul\":1425:1430   */\n      dup2\n        /* \"#utility.yul\":1407:1431   */\n      tag_191\n      jump\t// in\n    tag_280:\n        /* \"#utility.yul\":1400:1405   */\n      dup2\n        /* \"#utility.yul\":1397:1432   */\n      eq\n        /* \"#utility.yul\":1387:1450   */\n      tag_281\n      jumpi\n        /* \"#utility.yul\":1446:1447   */\n      0x00\n        /* \"#utility.yul\":1443:1444   */\n      dup1\n        /* \"#utility.yul\":1436:1448   */\n      revert\n        /* \"#utility.yul\":1387:1450   */\n    tag_281:\n        /* \"#utility.yul\":1334:1456   */\n      pop\n      jump\t// out\n        /* \"#utility.yul\":1462:1601   */\n    tag_193:\n        /* \"#utility.yul\":1508:1513   */\n      0x00\n        /* \"#utility.yul\":1546:1552   */\n      dup2\n        /* \"#utility.yul\":1533:1553   */\n      calldataload\n        /* \"#utility.yul\":1524:1553   */\n      swap1\n      pop\n        /* \"#utility.yul\":1562:1595   */\n      tag_283\n        /* \"#utility.yul\":1589:1594   */\n      dup2\n        /* \"#utility.yul\":1562:1595   */\n      tag_192\n      jump\t// in\n    tag_283:\n        /* \"#utility.yul\":1462:1601   */\n      swap3\n      swap2\n      pop\n      pop\n      jump\t// out\n        /* \"#utility.yul\":1607:1684   */\n    tag_194:\n        /* \"#utility.yul\":1644:1651   */\n      0x00\n        /* \"#utility.yul\":1673:1678   */\n      dup2\n        /* \"#utility.yul\":1662:1678   */\n      swap1\n      pop\n        /* \"#utility.yul\":1607:1684   */\n      swap2\n      swap1\n      pop\n      jump\t// out\n        /* \"#utility.yul\":1690:1812   */\n    tag_195:\n        /* \"#utility.yul\":1763:1787   */\n      tag_286\n        /* \"#utility.yul\":1781:1786   */\n      dup2\n        /* \"#utility.yul\":1763:1787   */\n      tag_194\n      jump\t// in\n    tag_286:\n        /* \"#utility.yul\":1756:1761   */\n      dup2\n        /* \"#utility.yul\":1753:1788   */\n      eq\n        /* \"#utility.yul\":1743:1806   */\n      tag_287\n      jumpi\n        /* \"#utility.yul\":1802:1803   */\n      0x00\n        /* \"#utility.yul\":1799:1800   */\n      dup1\n        /* \"#utility.yul\":1792:1804   */\n      revert\n        /* \"#utility.yul\":1743:1806   */\n    tag_287:\n        /* \"#utility.yul\":1690:1812   */\n      pop\n      jump\t// out\n        /* \"#utility.yul\":1818:1957   */\n    tag_196:\n        /* \"#utility.yul\":1864:1869   */\n      0x00\n        /* \"#utility.yul\":1902:1908   */\n      dup2\n        /* \"#utility.yul\":1889:1909   */\n      calldataload\n        /* \"#utility.yul\":1880:1909   */\n      swap1\n      pop\n        /* \"#utility.yul\":1918:1951   */\n      tag_289\n        /* \"#utility.yul\":1945:1950   */\n      dup2\n        /* \"#utility.yul\":1918:1951   */\n      tag_195\n      jump\t// in\n    tag_289:\n        /* \"#utility.yul\":1818:1957   */\n      swap3\n      swap2\n      pop\n      pop\n      jump\t// out\n        /* \"#utility.yul\":1963:2080   */\n    tag_197:\n        /* \"#utility.yul\":2072:2073   */\n      0x00\n        /* \"#utility.yul\":2069:2070   */\n      dup1\n        /* \"#utility.yul\":2062:2074   */\n      revert\n        /* \"#utility.yul\":2086:2203   */\n    tag_198:\n        /* \"#utility.yul\":2195:2196   */\n      0x00\n        /* \"#utility.yul\":2192:2193   */\n      dup1\n        /* \"#utility.yul\":2185:2197   */\n      revert\n        /* \"#utility.yul\":2209:2311   */\n    tag_199:\n        /* \"#utility.yul\":2250:2256   */\n      0x00\n        /* \"#utility.yul\":2301:2303   */\n      0x1f\n        /* \"#utility.yul\":2297:2304   */\n      not\n        /* \"#utility.yul\":2292:2294   */\n      0x1f\n        /* \"#utility.yul\":2285:2290   */\n      dup4\n        /* \"#utility.yul\":2281:2295   */\n      add\n        /* \"#utility.yul\":2277:2305   */\n      and\n        /* \"#utility.yul\":2267:2305   */\n      swap1\n      pop\n        /* \"#utility.yul\":2209:2311   */\n      swap2\n      swap1\n      pop\n      jump\t// out\n        /* \"#utility.yul\":2317:2497   */\n    tag_200:\n        /* \"#utility.yul\":2365:2442   */\n      0x4e487b7100000000000000000000000000000000000000000000000000000000\n        /* \"#utility.yul\":2362:2363   */\n      0x00\n        /* \"#utility.yul\":2355:2443   */\n      mstore\n        /* \"#utility.yul\":2462:2466   */\n      0x41\n        /* \"#utility.yul\":2459:2460   */\n      0x04\n        /* \"#utility.yul\":2452:2467   */\n      mstore\n        /* \"#utility.yul\":2486:2490   */\n      0x24\n        /* \"#utility.yul\":2483:2484   */\n      0x00\n        /* \"#utility.yul\":2476:2491   */\n      revert\n        /* \"#utility.yul\":2503:2784   */\n    tag_201:\n        /* \"#utility.yul\":2586:2613   */\n      tag_295\n        /* \"#utility.yul\":2608:2612   */\n      dup3\n        /* \"#utility.yul\":2586:2613   */\n      tag_199\n      jump\t// in\n    tag_295:\n        /* \"#utility.yul\":2578:2584   */\n      dup2\n        /* \"#utility.yul\":2574:2614   */\n      add\n        /* \"#utility.yul\":2716:2722   */\n      dup2\n        /* \"#utility.yul\":2704:2714   */\n      dup2\n        /* \"#utility.yul\":2701:2723   */\n      lt\n        /* \"#utility.yul\":2680:2698   */\n      0xffffffffffffffff\n        /* \"#utility.yul\":2668:2678   */\n      dup3\n        /* \"#utility.yul\":2665:2699   */\n      gt\n        /* \"#utility.yul\":2662:2724   */\n      or\n        /* \"#utility.yul\":2659:2747   */\n      iszero\n      tag_296\n      jumpi\n        /* \"#utility.yul\":2727:2745   */\n      tag_297\n      tag_200\n      jump\t// in\n    tag_297:\n        /* \"#utility.yul\":2659:2747   */\n    tag_296:\n        /* \"#utility.yul\":2767:2777   */\n      dup1\n        /* \"#utility.yul\":2763:2765   */\n      0x40\n        /* \"#utility.yul\":2756:2778   */\n      mstore\n        /* \"#utility.yul\":2546:2784   */\n      pop\n        /* \"#utility.yul\":2503:2784   */\n      pop\n      pop\n      jump\t// out\n        /* \"#utility.yul\":2790:2919   */\n    tag_202:\n        /* \"#utility.yul\":2824:2830   */\n      0x00\n        /* \"#utility.yul\":2851:2871   */\n      tag_299\n      tag_184\n      jump\t// in\n    tag_299:\n        /* \"#utility.yul\":2841:2871   */\n      swap1\n      pop\n        /* \"#utility.yul\":2880:2913   */\n      tag_300\n        /* \"#utility.yul\":2908:2912   */\n      dup3\n        /* \"#utility.yul\":2900:2906   */\n      dup3\n        /* \"#utility.yul\":2880:2913   */\n      tag_201\n      jump\t// in\n    tag_300:\n        /* \"#utility.yul\":2790:2919   */\n      swap2\n      swap1\n      pop\n      jump\t// out\n        /* \"#utility.yul\":2925:3232   */\n    tag_203:\n        /* \"#utility.yul\":2986:2990   */\n      0x00\n        /* \"#utility.yul\":3076:3094   */\n      0xffffffffffffffff\n        /* \"#utility.yul\":3068:3074   */\n      dup3\n        /* \"#utility.yul\":3065:3095   */\n      gt\n        /* \"#utility.yul\":3062:3118   */\n      iszero\n      tag_302\n      jumpi\n        /* \"#utility.yul\":3098:3116   */\n      tag_303\n      tag_200\n      jump\t// in\n    tag_303:\n        /* \"#utility.yul\":3062:3118   */\n    tag_302:\n        /* \"#utility.yul\":3136:3165   */\n      tag_304\n        /* \"#utility.yul\":3158:3164   */\n      dup3\n        /* \"#utility.yul\":3136:3165   */\n      tag_199\n      jump\t// in\n    tag_304:\n        /* \"#utility.yul\":3128:3165   */\n      swap1\n      pop\n        /* \"#utility.yul\":3220:3224   */\n      0x20\n        /* \"#utility.yul\":3214:3218   */\n      dup2\n        /* \"#utility.yul\":3210:3225   */\n      add\n        /* \"#utility.yul\":3202:3225   */\n      swap1\n      pop\n        /* \"#utility.yul\":2925:3232   */\n      swap2\n      swap1\n      pop\n      jump\t// out\n        /* \"#utility.yul\":3238:3384   */\n    tag_204:\n        /* \"#utility.yul\":3335:3341   */\n      dup3\n        /* \"#utility.yul\":3330:3333   */\n      dup2\n        /* \"#utility.yul\":3325:3328   */\n      dup4\n        /* \"#utility.yul\":3312:3342   */\n      calldatacopy\n        /* \"#utility.yul\":3376:3377   */\n      0x00\n        /* \"#utility.yul\":3367:3373   */\n      dup4\n        /* \"#utility.yul\":3362:3365   */\n      dup4\n        /* \"#utility.yul\":3358:3374   */\n      add\n        /* \"#utility.yul\":3351:3378   */\n      mstore\n        /* \"#utility.yul\":3238:3384   */\n      pop\n      pop\n      pop\n      jump\t// out\n        /* \"#utility.yul\":3390:3813   */\n    tag_205:\n        /* \"#utility.yul\":3467:3472   */\n      0x00\n        /* \"#utility.yul\":3492:3557   */\n      tag_307\n        /* \"#utility.yul\":3508:3556   */\n      tag_308\n        /* \"#utility.yul\":3549:3555   */\n      dup5\n        /* \"#utility.yul\":3508:3556   */\n      tag_203\n      jump\t// in\n    tag_308:\n        /* \"#utility.yul\":3492:3557   */\n      tag_202\n      jump\t// in\n    tag_307:\n        /* \"#utility.yul\":3483:3557   */\n      swap1\n      pop\n        /* \"#utility.yul\":3580:3586   */\n      dup3\n        /* \"#utility.yul\":3573:3578   */\n      dup2\n        /* \"#utility.yul\":3566:3587   */\n      mstore\n        /* \"#utility.yul\":3618:3622   */\n      0x20\n        /* \"#utility.yul\":3611:3616   */\n      dup2\n        /* \"#utility.yul\":3607:3623   */\n      add\n        /* \"#utility.yul\":3656:3659   */\n      dup5\n        /* \"#utility.yul\":3647:3653   */\n      dup5\n        /* \"#utility.yul\":3642:3645   */\n      dup5\n        /* \"#utility.yul\":3638:3654   */\n      add\n        /* \"#utility.yul\":3635:3660   */\n      gt\n        /* \"#utility.yul\":3632:3744   */\n      iszero\n      tag_309\n      jumpi\n        /* \"#utility.yul\":3663:3742   */\n      tag_310\n      tag_198\n      jump\t// in\n    tag_310:\n        /* \"#utility.yul\":3632:3744   */\n    tag_309:\n        /* \"#utility.yul\":3753:3807   */\n      tag_311\n        /* \"#utility.yul\":3800:3806   */\n      dup5\n        /* \"#utility.yul\":3795:3798   */\n      dup3\n        /* \"#utility.yul\":3790:3793   */\n      dup6\n        /* \"#utility.yul\":3753:3807   */\n      tag_204\n      jump\t// in\n    tag_311:\n        /* \"#utility.yul\":3473:3813   */\n      pop\n        /* \"#utility.yul\":3390:3813   */\n      swap4\n      swap3\n      pop\n      pop\n      pop\n      jump\t// out\n        /* \"#utility.yul\":3832:4170   */\n    tag_206:\n        /* \"#utility.yul\":3887:3892   */\n      0x00\n        /* \"#utility.yul\":3936:3939   */\n      dup3\n        /* \"#utility.yul\":3929:3933   */\n      0x1f\n        /* \"#utility.yul\":3921:3927   */\n      dup4\n        /* \"#utility.yul\":3917:3934   */\n      add\n        /* \"#utility.yul\":3913:3940   */\n      slt\n        /* \"#utility.yul\":3903:4025   */\n      tag_313\n      jumpi\n        /* \"#utility.yul\":3944:4023   */\n      tag_314\n      tag_197\n      jump\t// in\n    tag_314:\n        /* \"#utility.yul\":3903:4025   */\n    tag_313:\n        /* \"#utility.yul\":4061:4067   */\n      dup2\n        /* \"#utility.yul\":4048:4068   */\n      calldataload\n        /* \"#utility.yul\":4086:4164   */\n      tag_315\n        /* \"#utility.yul\":4160:4163   */\n      dup5\n        /* \"#utility.yul\":4152:4158   */\n      dup3\n        /* \"#utility.yul\":4145:4149   */\n      0x20\n        /* \"#utility.yul\":4137:4143   */\n      dup7\n        /* \"#utility.yul\":4133:4150   */\n      add\n        /* \"#utility.yul\":4086:4164   */\n      tag_205\n      jump\t// in\n    tag_315:\n        /* \"#utility.yul\":4077:4164   */\n      swap2\n      pop\n        /* \"#utility.yul\":3893:4170   */\n      pop\n        /* \"#utility.yul\":3832:4170   */\n      swap3\n      swap2\n      pop\n      pop\n      jump\t// out\n        /* \"#utility.yul\":4176:5557   */\n    tag_17:\n        /* \"#utility.yul\":4298:4304   */\n      0x00\n        /* \"#utility.yul\":4306:4312   */\n      dup1\n        /* \"#utility.yul\":4314:4320   */\n      0x00\n        /* \"#utility.yul\":4322:4328   */\n      dup1\n        /* \"#utility.yul\":4330:4336   */\n      0x00\n        /* \"#utility.yul\":4338:4344   */\n      dup1\n        /* \"#utility.yul\":4346:4352   */\n      0x00\n        /* \"#utility.yul\":4395:4398   */\n      0xe0\n        /* \"#utility.yul\":4383:4392   */\n      dup9\n        /* \"#utility.yul\":4374:4381   */\n      dup11\n        /* \"#utility.yul\":4370:4393   */\n      sub\n        /* \"#utility.yul\":4366:4399   */\n      slt\n        /* \"#utility.yul\":4363:4483   */\n      iszero\n      tag_317\n      jumpi\n        /* \"#utility.yul\":4402:4481   */\n      tag_318\n      tag_185\n      jump\t// in\n    tag_318:\n        /* \"#utility.yul\":4363:4483   */\n    tag_317:\n        /* \"#utility.yul\":4522:4523   */\n      0x00\n        /* \"#utility.yul\":4547:4600   */\n      tag_319\n        /* \"#utility.yul\":4592:4599   */\n      dup11\n        /* \"#utility.yul\":4583:4589   */\n      dup3\n        /* \"#utility.yul\":4572:4581   */\n      dup12\n        /* \"#utility.yul\":4568:4590   */\n      add\n        /* \"#utility.yul\":4547:4600   */\n      tag_193\n      jump\t// in\n    tag_319:\n        /* \"#utility.yul\":4537:4600   */\n      swap8\n      pop\n        /* \"#utility.yul\":4493:4610   */\n      pop\n        /* \"#utility.yul\":4649:4651   */\n      0x20\n        /* \"#utility.yul\":4675:4728   */\n      tag_320\n        /* \"#utility.yul\":4720:4727   */\n      dup11\n        /* \"#utility.yul\":4711:4717   */\n      dup3\n        /* \"#utility.yul\":4700:4709   */\n      dup12\n        /* \"#utility.yul\":4696:4718   */\n      add\n        /* \"#utility.yul\":4675:4728   */\n      tag_193\n      jump\t// in\n    tag_320:\n        /* \"#utility.yul\":4665:4728   */\n      swap7\n      pop\n        /* \"#utility.yul\":4620:4738   */\n      pop\n        /* \"#utility.yul\":4777:4779   */\n      0x40\n        /* \"#utility.yul\":4803:4856   */\n      tag_321\n        /* \"#utility.yul\":4848:4855   */\n      dup11\n        /* \"#utility.yul\":4839:4845   */\n      dup3\n        /* \"#utility.yul\":4828:4837   */\n      dup12\n        /* \"#utility.yul\":4824:4846   */\n      add\n        /* \"#utility.yul\":4803:4856   */\n      tag_196\n      jump\t// in\n    tag_321:\n        /* \"#utility.yul\":4793:4856   */\n      swap6\n      pop\n        /* \"#utility.yul\":4748:4866   */\n      pop\n        /* \"#utility.yul\":4905:4907   */\n      0x60\n        /* \"#utility.yul\":4931:4984   */\n      tag_322\n        /* \"#utility.yul\":4976:4983   */\n      dup11\n        /* \"#utility.yul\":4967:4973   */\n      dup3\n        /* \"#utility.yul\":4956:4965   */\n      dup12\n        /* \"#utility.yul\":4952:4974   */\n      add\n        /* \"#utility.yul\":4931:4984   */\n      tag_196\n      jump\t// in\n    tag_322:\n        /* \"#utility.yul\":4921:4984   */\n      swap5\n      pop\n        /* \"#utility.yul\":4876:4994   */\n      pop\n        /* \"#utility.yul\":5061:5064   */\n      0x80\n        /* \"#utility.yul\":5050:5059   */\n      dup9\n        /* \"#utility.yul\":5046:5065   */\n      add\n        /* \"#utility.yul\":5033:5066   */\n      calldataload\n        /* \"#utility.yul\":5093:5111   */\n      0xffffffffffffffff\n        /* \"#utility.yul\":5085:5091   */\n      dup2\n        /* \"#utility.yul\":5082:5112   */\n      gt\n        /* \"#utility.yul\":5079:5196   */\n      iszero\n      tag_323\n      jumpi\n        /* \"#utility.yul\":5115:5194   */\n      tag_324\n      tag_186\n      jump\t// in\n    tag_324:\n        /* \"#utility.yul\":5079:5196   */\n    tag_323:\n        /* \"#utility.yul\":5220:5282   */\n      tag_325\n        /* \"#utility.yul\":5274:5281   */\n      dup11\n        /* \"#utility.yul\":5265:5271   */\n      dup3\n        /* \"#utility.yul\":5254:5263   */\n      dup12\n        /* \"#utility.yul\":5250:5272   */\n      add\n        /* \"#utility.yul\":5220:5282   */\n      tag_206\n      jump\t// in\n    tag_325:\n        /* \"#utility.yul\":5210:5282   */\n      swap4\n      pop\n        /* \"#utility.yul\":5004:5292   */\n      pop\n        /* \"#utility.yul\":5331:5334   */\n      0xa0\n        /* \"#utility.yul\":5358:5411   */\n      tag_326\n        /* \"#utility.yul\":5403:5410   */\n      dup11\n        /* \"#utility.yul\":5394:5400   */\n      dup3\n        /* \"#utility.yul\":5383:5392   */\n      dup12\n        /* \"#utility.yul\":5379:5401   */\n      add\n        /* \"#utility.yul\":5358:5411   */\n      tag_196\n      jump\t// in\n    tag_326:\n        /* \"#utility.yul\":5348:5411   */\n      swap3\n      pop\n        /* \"#utility.yul\":5302:5421   */\n      pop\n        /* \"#utility.yul\":5460:5463   */\n      0xc0\n        /* \"#utility.yul\":5487:5540   */\n      tag_327\n        /* \"#utility.yul\":5532:5539   */\n      dup11\n        /* \"#utility.yul\":5523:5529   */\n      dup3\n        /* \"#utility.yul\":5512:5521   */\n      dup12\n        /* \"#utility.yul\":5508:5530   */\n      add\n        /* \"#utility.yul\":5487:5540   */\n      tag_196\n      jump\t// in\n    tag_327:\n        /* \"#utility.yul\":5477:5540   */\n      swap2\n      pop\n        /* \"#utility.yul\":5431:5550   */\n      pop\n        /* \"#utility.yul\":4176:5557   */\n      swap3\n      swap6\n      swap9\n      swap2\n      swap5\n      swap8\n      pop\n      swap3\n      swap6\n      pop\n      jump\t// out\n        /* \"#utility.yul\":5563:5680   */\n    tag_207:\n        /* \"#utility.yul\":5672:5673   */\n      0x00\n        /* \"#utility.yul\":5669:5670   */\n      dup1\n        /* \"#utility.yul\":5662:5674   */\n      revert\n        /* \"#utility.yul\":5686:5803   */\n    tag_208:\n        /* \"#utility.yul\":5795:5796   */\n      0x00\n        /* \"#utility.yul\":5792:5793   */\n      dup1\n        /* \"#utility.yul\":5785:5797   */\n      revert\n        /* \"#utility.yul\":5848:7428   */\n    tag_209:\n        /* \"#utility.yul\":5923:5928   */\n      0x00\n        /* \"#utility.yul\":5967:5971   */\n      0xe0\n        /* \"#utility.yul\":5955:5964   */\n      dup3\n        /* \"#utility.yul\":5950:5953   */\n      dup5\n        /* \"#utility.yul\":5946:5965   */\n      sub\n        /* \"#utility.yul\":5942:5972   */\n      slt\n        /* \"#utility.yul\":5939:6056   */\n      iszero\n      tag_331\n      jumpi\n        /* \"#utility.yul\":5975:6054   */\n      tag_332\n      tag_207\n      jump\t// in\n    tag_332:\n        /* \"#utility.yul\":5939:6056   */\n    tag_331:\n        /* \"#utility.yul\":6074:6095   */\n      tag_333\n        /* \"#utility.yul\":6090:6094   */\n      0xe0\n        /* \"#utility.yul\":6074:6095   */\n      tag_202\n      jump\t// in\n    tag_333:\n        /* \"#utility.yul\":6065:6095   */\n      swap1\n      pop\n        /* \"#utility.yul\":6156:6157   */\n      0x00\n        /* \"#utility.yul\":6196:6245   */\n      tag_334\n        /* \"#utility.yul\":6241:6244   */\n      dup5\n        /* \"#utility.yul\":6232:6238   */\n      dup3\n        /* \"#utility.yul\":6221:6230   */\n      dup6\n        /* \"#utility.yul\":6217:6239   */\n      add\n        /* \"#utility.yul\":6196:6245   */\n      tag_193\n      jump\t// in\n    tag_334:\n        /* \"#utility.yul\":6189:6193   */\n      0x00\n        /* \"#utility.yul\":6182:6187   */\n      dup4\n        /* \"#utility.yul\":6178:6194   */\n      add\n        /* \"#utility.yul\":6171:6246   */\n      mstore\n        /* \"#utility.yul\":6105:6257   */\n      pop\n        /* \"#utility.yul\":6322:6324   */\n      0x20\n        /* \"#utility.yul\":6363:6412   */\n      tag_335\n        /* \"#utility.yul\":6408:6411   */\n      dup5\n        /* \"#utility.yul\":6399:6405   */\n      dup3\n        /* \"#utility.yul\":6388:6397   */\n      dup6\n        /* \"#utility.yul\":6384:6406   */\n      add\n        /* \"#utility.yul\":6363:6412   */\n      tag_193\n      jump\t// in\n    tag_335:\n        /* \"#utility.yul\":6356:6360   */\n      0x20\n        /* \"#utility.yul\":6349:6354   */\n      dup4\n        /* \"#utility.yul\":6345:6361   */\n      add\n        /* \"#utility.yul\":6338:6413   */\n      mstore\n        /* \"#utility.yul\":6267:6424   */\n      pop\n        /* \"#utility.yul\":6486:6488   */\n      0x40\n        /* \"#utility.yul\":6527:6576   */\n      tag_336\n        /* \"#utility.yul\":6572:6575   */\n      dup5\n        /* \"#utility.yul\":6563:6569   */\n      dup3\n        /* \"#utility.yul\":6552:6561   */\n      dup6\n        /* \"#utility.yul\":6548:6570   */\n      add\n        /* \"#utility.yul\":6527:6576   */\n      tag_196\n      jump\t// in\n    tag_336:\n        /* \"#utility.yul\":6520:6524   */\n      0x40\n        /* \"#utility.yul\":6513:6518   */\n      dup4\n        /* \"#utility.yul\":6509:6525   */\n      add\n        /* \"#utility.yul\":6502:6577   */\n      mstore\n        /* \"#utility.yul\":6434:6588   */\n      pop\n        /* \"#utility.yul\":6648:6650   */\n      0x60\n        /* \"#utility.yul\":6689:6738   */\n      tag_337\n        /* \"#utility.yul\":6734:6737   */\n      dup5\n        /* \"#utility.yul\":6725:6731   */\n      dup3\n        /* \"#utility.yul\":6714:6723   */\n      dup6\n        /* \"#utility.yul\":6710:6732   */\n      add\n        /* \"#utility.yul\":6689:6738   */\n      tag_196\n      jump\t// in\n    tag_337:\n        /* \"#utility.yul\":6682:6686   */\n      0x60\n        /* \"#utility.yul\":6675:6680   */\n      dup4\n        /* \"#utility.yul\":6671:6687   */\n      add\n        /* \"#utility.yul\":6664:6739   */\n      mstore\n        /* \"#utility.yul\":6598:6750   */\n      pop\n        /* \"#utility.yul\":6842:6845   */\n      0x80\n        /* \"#utility.yul\":6831:6840   */\n      dup3\n        /* \"#utility.yul\":6827:6846   */\n      add\n        /* \"#utility.yul\":6814:6847   */\n      calldataload\n        /* \"#utility.yul\":6874:6892   */\n      0xffffffffffffffff\n        /* \"#utility.yul\":6866:6872   */\n      dup2\n        /* \"#utility.yul\":6863:6893   */\n      gt\n        /* \"#utility.yul\":6860:6977   */\n      iszero\n      tag_338\n      jumpi\n        /* \"#utility.yul\":6896:6975   */\n      tag_339\n      tag_208\n      jump\t// in\n    tag_339:\n        /* \"#utility.yul\":6860:6977   */\n    tag_338:\n        /* \"#utility.yul\":7016:7074   */\n      tag_340\n        /* \"#utility.yul\":7070:7073   */\n      dup5\n        /* \"#utility.yul\":7061:7067   */\n      dup3\n        /* \"#utility.yul\":7050:7059   */\n      dup6\n        /* \"#utility.yul\":7046:7068   */\n      add\n        /* \"#utility.yul\":7016:7074   */\n      tag_206\n      jump\t// in\n    tag_340:\n        /* \"#utility.yul\":7009:7013   */\n      0x80\n        /* \"#utility.yul\":7002:7007   */\n      dup4\n        /* \"#utility.yul\":6998:7014   */\n      add\n        /* \"#utility.yul\":6991:7075   */\n      mstore\n        /* \"#utility.yul\":6760:7086   */\n      pop\n        /* \"#utility.yul\":7155:7158   */\n      0xa0\n        /* \"#utility.yul\":7197:7246   */\n      tag_341\n        /* \"#utility.yul\":7242:7245   */\n      dup5\n        /* \"#utility.yul\":7233:7239   */\n      dup3\n        /* \"#utility.yul\":7222:7231   */\n      dup6\n        /* \"#utility.yul\":7218:7240   */\n      add\n        /* \"#utility.yul\":7197:7246   */\n      tag_196\n      jump\t// in\n    tag_341:\n        /* \"#utility.yul\":7190:7194   */\n      0xa0\n        /* \"#utility.yul\":7183:7188   */\n      dup4\n        /* \"#utility.yul\":7179:7195   */\n      add\n        /* \"#utility.yul\":7172:7247   */\n      mstore\n        /* \"#utility.yul\":7096:7258   */\n      pop\n        /* \"#utility.yul\":7318:7321   */\n      0xc0\n        /* \"#utility.yul\":7360:7409   */\n      tag_342\n        /* \"#utility.yul\":7405:7408   */\n      dup5\n        /* \"#utility.yul\":7396:7402   */\n      dup3\n        /* \"#utility.yul\":7385:7394   */\n      dup6\n        /* \"#utility.yul\":7381:7403   */\n      add\n        /* \"#utility.yul\":7360:7409   */\n      tag_196\n      jump\t// in\n    tag_342:\n        /* \"#utility.yul\":7353:7357   */\n      0xc0\n        /* \"#utility.yul\":7346:7351   */\n      dup4\n        /* \"#utility.yul\":7342:7358   */\n      add\n        /* \"#utility.yul\":7335:7410   */\n      mstore\n        /* \"#utility.yul\":7268:7421   */\n      pop\n        /* \"#utility.yul\":5848:7428   */\n      swap3\n      swap2\n      pop\n      pop\n      jump\t// out\n        /* \"#utility.yul\":7434:7975   */\n    tag_22:\n        /* \"#utility.yul\":7519:7525   */\n      0x00\n        /* \"#utility.yul\":7568:7570   */\n      0x20\n        /* \"#utility.yul\":7556:7565   */\n      dup3\n        /* \"#utility.yul\":7547:7554   */\n      dup5\n        /* \"#utility.yul\":7543:7566   */\n      sub\n        /* \"#utility.yul\":7539:7571   */\n      slt\n        /* \"#utility.yul\":7536:7655   */\n      iszero\n      tag_344\n      jumpi\n        /* \"#utility.yul\":7574:7653   */\n      tag_345\n      tag_185\n      jump\t// in\n    tag_345:\n        /* \"#utility.yul\":7536:7655   */\n    tag_344:\n        /* \"#utility.yul\":7722:7723   */\n      0x00\n        /* \"#utility.yul\":7711:7720   */\n      dup3\n        /* \"#utility.yul\":7707:7724   */\n      add\n        /* \"#utility.yul\":7694:7725   */\n      calldataload\n        /* \"#utility.yul\":7752:7770   */\n      0xffffffffffffffff\n        /* \"#utility.yul\":7744:7750   */\n      dup2\n        /* \"#utility.yul\":7741:7771   */\n      gt\n        /* \"#utility.yul\":7738:7855   */\n      iszero\n      tag_346\n      jumpi\n        /* \"#utility.yul\":7774:7853   */\n      tag_347\n      tag_186\n      jump\t// in\n    tag_347:\n        /* \"#utility.yul\":7738:7855   */\n    tag_346:\n        /* \"#utility.yul\":7879:7958   */\n      tag_348\n        /* \"#utility.yul\":7950:7957   */\n      dup5\n        /* \"#utility.yul\":7941:7947   */\n      dup3\n        /* \"#utility.yul\":7930:7939   */\n      dup6\n        /* \"#utility.yul\":7926:7948   */\n      add\n        /* \"#utility.yul\":7879:7958   */\n      tag_209\n      jump\t// in\n    tag_348:\n        /* \"#utility.yul\":7869:7958   */\n      swap2\n      pop\n        /* \"#utility.yul\":7665:7968   */\n      pop\n        /* \"#utility.yul\":7434:7975   */\n      swap3\n      swap2\n      pop\n      pop\n      jump\t// out\n        /* \"#utility.yul\":7981:8310   */\n    tag_27:\n        /* \"#utility.yul\":8040:8046   */\n      0x00\n        /* \"#utility.yul\":8089:8091   */\n      0x20\n        /* \"#utility.yul\":8077:8086   */\n      dup3\n        /* \"#utility.yul\":8068:8075   */\n      dup5\n        /* \"#utility.yul\":8064:8087   */\n      sub\n        /* \"#utility.yul\":8060:8092   */\n      slt\n        /* \"#utility.yul\":8057:8176   */\n      iszero\n      tag_350\n      jumpi\n        /* \"#utility.yul\":8095:8174   */\n      tag_351\n      tag_185\n      jump\t// in\n    tag_351:\n        /* \"#utility.yul\":8057:8176   */\n    tag_350:\n        /* \"#utility.yul\":8215:8216   */\n      0x00\n        /* \"#utility.yul\":8240:8293   */\n      tag_352\n        /* \"#utility.yul\":8285:8292   */\n      dup5\n        /* \"#utility.yul\":8276:8282   */\n      dup3\n        /* \"#utility.yul\":8265:8274   */\n      dup6\n        /* \"#utility.yul\":8261:8283   */\n      add\n        /* \"#utility.yul\":8240:8293   */\n      tag_196\n      jump\t// in\n    tag_352:\n        /* \"#utility.yul\":8230:8293   */\n      swap2\n      pop\n        /* \"#utility.yul\":8186:8303   */\n      pop\n        /* \"#utility.yul\":7981:8310   */\n      swap3\n      swap2\n      pop\n      pop\n      jump\t// out\n        /* \"#utility.yul\":8316:8434   */\n    tag_210:\n        /* \"#utility.yul\":8403:8427   */\n      tag_354\n        /* \"#utility.yul\":8421:8426   */\n      dup2\n        /* \"#utility.yul\":8403:8427   */\n      tag_194\n      jump\t// in\n    tag_354:\n        /* \"#utility.yul\":8398:8401   */\n      dup3\n        /* \"#utility.yul\":8391:8428   */\n      mstore\n        /* \"#utility.yul\":8316:8434   */\n      pop\n      pop\n      jump\t// out\n        /* \"#utility.yul\":8440:8662   */\n    tag_33:\n        /* \"#utility.yul\":8533:8537   */\n      0x00\n        /* \"#utility.yul\":8571:8573   */\n      0x20\n        /* \"#utility.yul\":8560:8569   */\n      dup3\n        /* \"#utility.yul\":8556:8574   */\n      add\n        /* \"#utility.yul\":8548:8574   */\n      swap1\n      pop\n        /* \"#utility.yul\":8584:8655   */\n      tag_356\n        /* \"#utility.yul\":8652:8653   */\n      0x00\n        /* \"#utility.yul\":8641:8650   */\n      dup4\n        /* \"#utility.yul\":8637:8654   */\n      add\n        /* \"#utility.yul\":8628:8634   */\n      dup5\n        /* \"#utility.yul\":8584:8655   */\n      tag_210\n      jump\t// in\n    tag_356:\n        /* \"#utility.yul\":8440:8662   */\n      swap3\n      swap2\n      pop\n      pop\n      jump\t// out\n        /* \"#utility.yul\":8668:8997   */\n    tag_40:\n        /* \"#utility.yul\":8727:8733   */\n      0x00\n        /* \"#utility.yul\":8776:8778   */\n      0x20\n        /* \"#utility.yul\":8764:8773   */\n      dup3\n        /* \"#utility.yul\":8755:8762   */\n      dup5\n        /* \"#utility.yul\":8751:8774   */\n      sub\n        /* \"#utility.yul\":8747:8779   */\n      slt\n        /* \"#utility.yul\":8744:8863   */\n      iszero\n      tag_358\n      jumpi\n        /* \"#utility.yul\":8782:8861   */\n      tag_359\n      tag_185\n      jump\t// in\n    tag_359:\n        /* \"#utility.yul\":8744:8863   */\n    tag_358:\n        /* \"#utility.yul\":8902:8903   */\n      0x00\n        /* \"#utility.yul\":8927:8980   */\n      tag_360\n        /* \"#utility.yul\":8972:8979   */\n      dup5\n        /* \"#utility.yul\":8963:8969   */\n      dup3\n        /* \"#utility.yul\":8952:8961   */\n      dup6\n        /* \"#utility.yul\":8948:8970   */\n      add\n        /* \"#utility.yul\":8927:8980   */\n      tag_193\n      jump\t// in\n    tag_360:\n        /* \"#utility.yul\":8917:8980   */\n      swap2\n      pop\n        /* \"#utility.yul\":8873:8990   */\n      pop\n        /* \"#utility.yul\":8668:8997   */\n      swap3\n      swap2\n      pop\n      pop\n      jump\t// out\n        /* \"#utility.yul\":9003:9121   */\n    tag_211:\n        /* \"#utility.yul\":9090:9114   */\n      tag_362\n        /* \"#utility.yul\":9108:9113   */\n      dup2\n        /* \"#utility.yul\":9090:9114   */\n      tag_191\n      jump\t// in\n    tag_362:\n        /* \"#utility.yul\":9085:9088   */\n      dup3\n        /* \"#utility.yul\":9078:9115   */\n      mstore\n        /* \"#utility.yul\":9003:9121   */\n      pop\n      pop\n      jump\t// out\n        /* \"#utility.yul\":9127:9349   */\n    tag_43:\n        /* \"#utility.yul\":9220:9224   */\n      0x00\n        /* \"#utility.yul\":9258:9260   */\n      0x20\n        /* \"#utility.yul\":9247:9256   */\n      dup3\n        /* \"#utility.yul\":9243:9261   */\n      add\n        /* \"#utility.yul\":9235:9261   */\n      swap1\n      pop\n        /* \"#utility.yul\":9271:9342   */\n      tag_364\n        /* \"#utility.yul\":9339:9340   */\n      0x00\n        /* \"#utility.yul\":9328:9337   */\n      dup4\n        /* \"#utility.yul\":9324:9341   */\n      add\n        /* \"#utility.yul\":9315:9321   */\n      dup5\n        /* \"#utility.yul\":9271:9342   */\n      tag_211\n      jump\t// in\n    tag_364:\n        /* \"#utility.yul\":9127:9349   */\n      swap3\n      swap2\n      pop\n      pop\n      jump\t// out\n        /* \"#utility.yul\":9355:9524   */\n    tag_212:\n        /* \"#utility.yul\":9439:9450   */\n      0x00\n        /* \"#utility.yul\":9473:9479   */\n      dup3\n        /* \"#utility.yul\":9468:9471   */\n      dup3\n        /* \"#utility.yul\":9461:9480   */\n      mstore\n        /* \"#utility.yul\":9513:9517   */\n      0x20\n        /* \"#utility.yul\":9508:9511   */\n      dup3\n        /* \"#utility.yul\":9504:9518   */\n      add\n        /* \"#utility.yul\":9489:9518   */\n      swap1\n      pop\n        /* \"#utility.yul\":9355:9524   */\n      swap3\n      swap2\n      pop\n      pop\n      jump\t// out\n        /* \"#utility.yul\":9530:9704   */\n    tag_213:\n        /* \"#utility.yul\":9670:9696   */\n      0x6f6e6c79206f776e65722063616e2063616c6c20746869730000000000000000\n        /* \"#utility.yul\":9666:9667   */\n      0x00\n        /* \"#utility.yul\":9658:9664   */\n      dup3\n        /* \"#utility.yul\":9654:9668   */\n      add\n        /* \"#utility.yul\":9647:9697   */\n      mstore\n        /* \"#utility.yul\":9530:9704   */\n      pop\n      jump\t// out\n        /* \"#utility.yul\":9710:10076   */\n    tag_214:\n        /* \"#utility.yul\":9852:9855   */\n      0x00\n        /* \"#utility.yul\":9873:9940   */\n      tag_368\n        /* \"#utility.yul\":9937:9939   */\n      0x18\n        /* \"#utility.yul\":9932:9935   */\n      dup4\n        /* \"#utility.yul\":9873:9940   */\n      tag_212\n      jump\t// in\n    tag_368:\n        /* \"#utility.yul\":9866:9940   */\n      swap2\n      pop\n        /* \"#utility.yul\":9949:10042   */\n      tag_369\n        /* \"#utility.yul\":10038:10041   */\n      dup3\n        /* \"#utility.yul\":9949:10042   */\n      tag_213\n      jump\t// in\n    tag_369:\n        /* \"#utility.yul\":10067:10069   */\n      0x20\n        /* \"#utility.yul\":10062:10065   */\n      dup3\n        /* \"#utility.yul\":10058:10070   */\n      add\n        /* \"#utility.yul\":10051:10070   */\n      swap1\n      pop\n        /* \"#utility.yul\":9710:10076   */\n      swap2\n      swap1\n      pop\n      jump\t// out\n        /* \"#utility.yul\":10082:10501   */\n    tag_47:\n        /* \"#utility.yul\":10248:10252   */\n      0x00\n        /* \"#utility.yul\":10286:10288   */\n      0x20\n        /* \"#utility.yul\":10275:10284   */\n      dup3\n        /* \"#utility.yul\":10271:10289   */\n      add\n        /* \"#utility.yul\":10263:10289   */\n      swap1\n      pop\n        /* \"#utility.yul\":10335:10344   */\n      dup2\n        /* \"#utility.yul\":10329:10333   */\n      dup2\n        /* \"#utility.yul\":10325:10345   */\n      sub\n        /* \"#utility.yul\":10321:10322   */\n      0x00\n        /* \"#utility.yul\":10310:10319   */\n      dup4\n        /* \"#utility.yul\":10306:10323   */\n      add\n        /* \"#utility.yul\":10299:10346   */\n      mstore\n        /* \"#utility.yul\":10363:10494   */\n      tag_371\n        /* \"#utility.yul\":10489:10493   */\n      dup2\n        /* \"#utility.yul\":10363:10494   */\n      tag_214\n      jump\t// in\n    tag_371:\n        /* \"#utility.yul\":10355:10494   */\n      swap1\n      pop\n        /* \"#utility.yul\":10082:10501   */\n      swap2\n      swap1\n      pop\n      jump\t// out\n        /* \"#utility.yul\":10507:10674   */\n    tag_215:\n        /* \"#utility.yul\":10647:10666   */\n      0x496e76616c6964207369676e6174757265000000000000000000000000000000\n        /* \"#utility.yul\":10643:10644   */\n      0x00\n        /* \"#utility.yul\":10635:10641   */\n      dup3\n        /* \"#utility.yul\":10631:10645   */\n      add\n        /* \"#utility.yul\":10624:10667   */\n      mstore\n        /* \"#utility.yul\":10507:10674   */\n      pop\n      jump\t// out\n        /* \"#utility.yul\":10680:11046   */\n    tag_216:\n        /* \"#utility.yul\":10822:10825   */\n      0x00\n        /* \"#utility.yul\":10843:10910   */\n      tag_374\n        /* \"#utility.yul\":10907:10909   */\n      0x11\n        /* \"#utility.yul\":10902:10905   */\n      dup4\n        /* \"#utility.yul\":10843:10910   */\n      tag_212\n      jump\t// in\n    tag_374:\n        /* \"#utility.yul\":10836:10910   */\n      swap2\n      pop\n        /* \"#utility.yul\":10919:11012   */\n      tag_375\n        /* \"#utility.yul\":11008:11011   */\n      dup3\n        /* \"#utility.yul\":10919:11012   */\n      tag_215\n      jump\t// in\n    tag_375:\n        /* \"#utility.yul\":11037:11039   */\n      0x20\n        /* \"#utility.yul\":11032:11035   */\n      dup3\n        /* \"#utility.yul\":11028:11040   */\n      add\n        /* \"#utility.yul\":11021:11040   */\n      swap1\n      pop\n        /* \"#utility.yul\":10680:11046   */\n      swap2\n      swap1\n      pop\n      jump\t// out\n        /* \"#utility.yul\":11052:11471   */\n    tag_57:\n        /* \"#utility.yul\":11218:11222   */\n      0x00\n        /* \"#utility.yul\":11256:11258   */\n      0x20\n        /* \"#utility.yul\":11245:11254   */\n      dup3\n        /* \"#utility.yul\":11241:11259   */\n      add\n        /* \"#utility.yul\":11233:11259   */\n      swap1\n      pop\n        /* \"#utility.yul\":11305:11314   */\n      dup2\n        /* \"#utility.yul\":11299:11303   */\n      dup2\n        /* \"#utility.yul\":11295:11315   */\n      sub\n        /* \"#utility.yul\":11291:11292   */\n      0x00\n        /* \"#utility.yul\":11280:11289   */\n      dup4\n        /* \"#utility.yul\":11276:11293   */\n      add\n        /* \"#utility.yul\":11269:11316   */\n      mstore\n        /* \"#utility.yul\":11333:11464   */\n      tag_377\n        /* \"#utility.yul\":11459:11463   */\n      dup2\n        /* \"#utility.yul\":11333:11464   */\n      tag_216\n      jump\t// in\n    tag_377:\n        /* \"#utility.yul\":11325:11464   */\n      swap1\n      pop\n        /* \"#utility.yul\":11052:11471   */\n      swap2\n      swap1\n      pop\n      jump\t// out\n        /* \"#utility.yul\":11477:11649   */\n    tag_217:\n        /* \"#utility.yul\":11617:11641   */\n      0x50726f78792077616c6c6574206e6f7420666f756e6400000000000000000000\n        /* \"#utility.yul\":11613:11614   */\n      0x00\n        /* \"#utility.yul\":11605:11611   */\n      dup3\n        /* \"#utility.yul\":11601:11615   */\n      add\n        /* \"#utility.yul\":11594:11642   */\n      mstore\n        /* \"#utility.yul\":11477:11649   */\n      pop\n      jump\t// out\n        /* \"#utility.yul\":11655:12021   */\n    tag_218:\n        /* \"#utility.yul\":11797:11800   */\n      0x00\n        /* \"#utility.yul\":11818:11885   */\n      tag_380\n        /* \"#utility.yul\":11882:11884   */\n      0x16\n        /* \"#utility.yul\":11877:11880   */\n      dup4\n        /* \"#utility.yul\":11818:11885   */\n      tag_212\n      jump\t// in\n    tag_380:\n        /* \"#utility.yul\":11811:11885   */\n      swap2\n      pop\n        /* \"#utility.yul\":11894:11987   */\n      tag_381\n        /* \"#utility.yul\":11983:11986   */\n      dup3\n        /* \"#utility.yul\":11894:11987   */\n      tag_217\n      jump\t// in\n    tag_381:\n        /* \"#utility.yul\":12012:12014   */\n      0x20\n        /* \"#utility.yul\":12007:12010   */\n      dup3\n        /* \"#utility.yul\":12003:12015   */\n      add\n        /* \"#utility.yul\":11996:12015   */\n      swap1\n      pop\n        /* \"#utility.yul\":11655:12021   */\n      swap2\n      swap1\n      pop\n      jump\t// out\n        /* \"#utility.yul\":12027:12446   */\n    tag_60:\n        /* \"#utility.yul\":12193:12197   */\n      0x00\n        /* \"#utility.yul\":12231:12233   */\n      0x20\n        /* \"#utility.yul\":12220:12229   */\n      dup3\n        /* \"#utility.yul\":12216:12234   */\n      add\n        /* \"#utility.yul\":12208:12234   */\n      swap1\n      pop\n        /* \"#utility.yul\":12280:12289   */\n      dup2\n        /* \"#utility.yul\":12274:12278   */\n      dup2\n        /* \"#utility.yul\":12270:12290   */\n      sub\n        /* \"#utility.yul\":12266:12267   */\n      0x00\n        /* \"#utility.yul\":12255:12264   */\n      dup4\n        /* \"#utility.yul\":12251:12268   */\n      add\n        /* \"#utility.yul\":12244:12291   */\n      mstore\n        /* \"#utility.yul\":12308:12439   */\n      tag_383\n        /* \"#utility.yul\":12434:12438   */\n      dup2\n        /* \"#utility.yul\":12308:12439   */\n      tag_218\n      jump\t// in\n    tag_383:\n        /* \"#utility.yul\":12300:12439   */\n      swap1\n      pop\n        /* \"#utility.yul\":12027:12446   */\n      swap2\n      swap1\n      pop\n      jump\t// out\n        /* \"#utility.yul\":12452:12595   */\n    tag_219:\n        /* \"#utility.yul\":12509:12514   */\n      0x00\n        /* \"#utility.yul\":12540:12546   */\n      dup2\n        /* \"#utility.yul\":12534:12547   */\n      mload\n        /* \"#utility.yul\":12525:12547   */\n      swap1\n      pop\n        /* \"#utility.yul\":12556:12589   */\n      tag_385\n        /* \"#utility.yul\":12583:12588   */\n      dup2\n        /* \"#utility.yul\":12556:12589   */\n      tag_192\n      jump\t// in\n    tag_385:\n        /* \"#utility.yul\":12452:12595   */\n      swap3\n      swap2\n      pop\n      pop\n      jump\t// out\n        /* \"#utility.yul\":12601:12952   */\n    tag_65:\n        /* \"#utility.yul\":12671:12677   */\n      0x00\n        /* \"#utility.yul\":12720:12722   */\n      0x20\n        /* \"#utility.yul\":12708:12717   */\n      dup3\n        /* \"#utility.yul\":12699:12706   */\n      dup5\n        /* \"#utility.yul\":12695:12718   */\n      sub\n        /* \"#utility.yul\":12691:12723   */\n      slt\n        /* \"#utility.yul\":12688:12807   */\n      iszero\n      tag_387\n      jumpi\n        /* \"#utility.yul\":12726:12805   */\n      tag_388\n      tag_185\n      jump\t// in\n    tag_388:\n        /* \"#utility.yul\":12688:12807   */\n    tag_387:\n        /* \"#utility.yul\":12846:12847   */\n      0x00\n        /* \"#utility.yul\":12871:12935   */\n      tag_389\n        /* \"#utility.yul\":12927:12934   */\n      dup5\n        /* \"#utility.yul\":12918:12924   */\n      dup3\n        /* \"#utility.yul\":12907:12916   */\n      dup6\n        /* \"#utility.yul\":12903:12925   */\n      add\n        /* \"#utility.yul\":12871:12935   */\n      tag_219\n      jump\t// in\n    tag_389:\n        /* \"#utility.yul\":12861:12935   */\n      swap2\n      pop\n        /* \"#utility.yul\":12817:12945   */\n      pop\n        /* \"#utility.yul\":12601:12952   */\n      swap3\n      swap2\n      pop\n      pop\n      jump\t// out\n        /* \"#utility.yul\":12958:13182   */\n    tag_220:\n        /* \"#utility.yul\":13098:13132   */\n      0x53656c6c6572206973206e6f7420746865206f776e6572206f66207468697320\n        /* \"#utility.yul\":13094:13095   */\n      0x00\n        /* \"#utility.yul\":13086:13092   */\n      dup3\n        /* \"#utility.yul\":13082:13096   */\n      add\n        /* \"#utility.yul\":13075:13133   */\n      mstore\n        /* \"#utility.yul\":13167:13174   */\n      0x746f6b656e000000000000000000000000000000000000000000000000000000\n        /* \"#utility.yul\":13162:13164   */\n      0x20\n        /* \"#utility.yul\":13154:13160   */\n      dup3\n        /* \"#utility.yul\":13150:13165   */\n      add\n        /* \"#utility.yul\":13143:13175   */\n      mstore\n        /* \"#utility.yul\":12958:13182   */\n      pop\n      jump\t// out\n        /* \"#utility.yul\":13188:13554   */\n    tag_221:\n        /* \"#utility.yul\":13330:13333   */\n      0x00\n        /* \"#utility.yul\":13351:13418   */\n      tag_392\n        /* \"#utility.yul\":13415:13417   */\n      0x25\n        /* \"#utility.yul\":13410:13413   */\n      dup4\n        /* \"#utility.yul\":13351:13418   */\n      tag_212\n      jump\t// in\n    tag_392:\n        /* \"#utility.yul\":13344:13418   */\n      swap2\n      pop\n        /* \"#utility.yul\":13427:13520   */\n      tag_393\n        /* \"#utility.yul\":13516:13519   */\n      dup3\n        /* \"#utility.yul\":13427:13520   */\n      tag_220\n      jump\t// in\n    tag_393:\n        /* \"#utility.yul\":13545:13547   */\n      0x40\n        /* \"#utility.yul\":13540:13543   */\n      dup3\n        /* \"#utility.yul\":13536:13548   */\n      add\n        /* \"#utility.yul\":13529:13548   */\n      swap1\n      pop\n        /* \"#utility.yul\":13188:13554   */\n      swap2\n      swap1\n      pop\n      jump\t// out\n        /* \"#utility.yul\":13560:13979   */\n    tag_68:\n        /* \"#utility.yul\":13726:13730   */\n      0x00\n        /* \"#utility.yul\":13764:13766   */\n      0x20\n        /* \"#utility.yul\":13753:13762   */\n      dup3\n        /* \"#utility.yul\":13749:13767   */\n      add\n        /* \"#utility.yul\":13741:13767   */\n      swap1\n      pop\n        /* \"#utility.yul\":13813:13822   */\n      dup2\n        /* \"#utility.yul\":13807:13811   */\n      dup2\n        /* \"#utility.yul\":13803:13823   */\n      sub\n        /* \"#utility.yul\":13799:13800   */\n      0x00\n        /* \"#utility.yul\":13788:13797   */\n      dup4\n        /* \"#utility.yul\":13784:13801   */\n      add\n        /* \"#utility.yul\":13777:13824   */\n      mstore\n        /* \"#utility.yul\":13841:13972   */\n      tag_395\n        /* \"#utility.yul\":13967:13971   */\n      dup2\n        /* \"#utility.yul\":13841:13972   */\n      tag_221\n      jump\t// in\n    tag_395:\n        /* \"#utility.yul\":13833:13972   */\n      swap1\n      pop\n        /* \"#utility.yul\":13560:13979   */\n      swap2\n      swap1\n      pop\n      jump\t// out\n        /* \"#utility.yul\":13985:14079   */\n    tag_222:\n        /* \"#utility.yul\":14018:14026   */\n      0x00\n        /* \"#utility.yul\":14066:14071   */\n      dup2\n        /* \"#utility.yul\":14062:14064   */\n      0x60\n        /* \"#utility.yul\":14058:14072   */\n      shl\n        /* \"#utility.yul\":14037:14072   */\n      swap1\n      pop\n        /* \"#utility.yul\":13985:14079   */\n      swap2\n      swap1\n      pop\n      jump\t// out\n        /* \"#utility.yul\":14085:14179   */\n    tag_223:\n        /* \"#utility.yul\":14124:14131   */\n      0x00\n        /* \"#utility.yul\":14153:14173   */\n      tag_398\n        /* \"#utility.yul\":14167:14172   */\n      dup3\n        /* \"#utility.yul\":14153:14173   */\n      tag_222\n      jump\t// in\n    tag_398:\n        /* \"#utility.yul\":14142:14173   */\n      swap1\n      pop\n        /* \"#utility.yul\":14085:14179   */\n      swap2\n      swap1\n      pop\n      jump\t// out\n        /* \"#utility.yul\":14185:14285   */\n    tag_224:\n        /* \"#utility.yul\":14224:14231   */\n      0x00\n        /* \"#utility.yul\":14253:14279   */\n      tag_400\n        /* \"#utility.yul\":14273:14278   */\n      dup3\n        /* \"#utility.yul\":14253:14279   */\n      tag_223\n      jump\t// in\n    tag_400:\n        /* \"#utility.yul\":14242:14279   */\n      swap1\n      pop\n        /* \"#utility.yul\":14185:14285   */\n      swap2\n      swap1\n      pop\n      jump\t// out\n        /* \"#utility.yul\":14291:14448   */\n    tag_225:\n        /* \"#utility.yul\":14396:14441   */\n      tag_402\n        /* \"#utility.yul\":14416:14440   */\n      tag_403\n        /* \"#utility.yul\":14434:14439   */\n      dup3\n        /* \"#utility.yul\":14416:14440   */\n      tag_191\n      jump\t// in\n    tag_403:\n        /* \"#utility.yul\":14396:14441   */\n      tag_224\n      jump\t// in\n    tag_402:\n        /* \"#utility.yul\":14391:14394   */\n      dup3\n        /* \"#utility.yul\":14384:14442   */\n      mstore\n        /* \"#utility.yul\":14291:14448   */\n      pop\n      pop\n      jump\t// out\n        /* \"#utility.yul\":14454:14533   */\n    tag_226:\n        /* \"#utility.yul\":14493:14500   */\n      0x00\n        /* \"#utility.yul\":14522:14527   */\n      dup2\n        /* \"#utility.yul\":14511:14527   */\n      swap1\n      pop\n        /* \"#utility.yul\":14454:14533   */\n      swap2\n      swap1\n      pop\n      jump\t// out\n        /* \"#utility.yul\":14539:14696   */\n    tag_227:\n        /* \"#utility.yul\":14644:14689   */\n      tag_406\n        /* \"#utility.yul\":14664:14688   */\n      tag_407\n        /* \"#utility.yul\":14682:14687   */\n      dup3\n        /* \"#utility.yul\":14664:14688   */\n      tag_194\n      jump\t// in\n    tag_407:\n        /* \"#utility.yul\":14644:14689   */\n      tag_226\n      jump\t// in\n    tag_406:\n        /* \"#utility.yul\":14639:14642   */\n      dup3\n        /* \"#utility.yul\":14632:14690   */\n      mstore\n        /* \"#utility.yul\":14539:14696   */\n      pop\n      pop\n      jump\t// out\n        /* \"#utility.yul\":14702:15663   */\n    tag_70:\n        /* \"#utility.yul\":14954:14957   */\n      0x00\n        /* \"#utility.yul\":14969:15044   */\n      tag_409\n        /* \"#utility.yul\":15040:15043   */\n      dup3\n        /* \"#utility.yul\":15031:15037   */\n      dup10\n        /* \"#utility.yul\":14969:15044   */\n      tag_225\n      jump\t// in\n    tag_409:\n        /* \"#utility.yul\":15069:15071   */\n      0x14\n        /* \"#utility.yul\":15064:15067   */\n      dup3\n        /* \"#utility.yul\":15060:15072   */\n      add\n        /* \"#utility.yul\":15053:15072   */\n      swap2\n      pop\n        /* \"#utility.yul\":15082:15157   */\n      tag_410\n        /* \"#utility.yul\":15153:15156   */\n      dup3\n        /* \"#utility.yul\":15144:15150   */\n      dup9\n        /* \"#utility.yul\":15082:15157   */\n      tag_225\n      jump\t// in\n    tag_410:\n        /* \"#utility.yul\":15182:15184   */\n      0x14\n        /* \"#utility.yul\":15177:15180   */\n      dup3\n        /* \"#utility.yul\":15173:15185   */\n      add\n        /* \"#utility.yul\":15166:15185   */\n      swap2\n      pop\n        /* \"#utility.yul\":15195:15270   */\n      tag_411\n        /* \"#utility.yul\":15266:15269   */\n      dup3\n        /* \"#utility.yul\":15257:15263   */\n      dup8\n        /* \"#utility.yul\":15195:15270   */\n      tag_227\n      jump\t// in\n    tag_411:\n        /* \"#utility.yul\":15295:15297   */\n      0x20\n        /* \"#utility.yul\":15290:15293   */\n      dup3\n        /* \"#utility.yul\":15286:15298   */\n      add\n        /* \"#utility.yul\":15279:15298   */\n      swap2\n      pop\n        /* \"#utility.yul\":15308:15383   */\n      tag_412\n        /* \"#utility.yul\":15379:15382   */\n      dup3\n        /* \"#utility.yul\":15370:15376   */\n      dup7\n        /* \"#utility.yul\":15308:15383   */\n      tag_227\n      jump\t// in\n    tag_412:\n        /* \"#utility.yul\":15408:15410   */\n      0x20\n        /* \"#utility.yul\":15403:15406   */\n      dup3\n        /* \"#utility.yul\":15399:15411   */\n      add\n        /* \"#utility.yul\":15392:15411   */\n      swap2\n      pop\n        /* \"#utility.yul\":15421:15496   */\n      tag_413\n        /* \"#utility.yul\":15492:15495   */\n      dup3\n        /* \"#utility.yul\":15483:15489   */\n      dup6\n        /* \"#utility.yul\":15421:15496   */\n      tag_227\n      jump\t// in\n    tag_413:\n        /* \"#utility.yul\":15521:15523   */\n      0x20\n        /* \"#utility.yul\":15516:15519   */\n      dup3\n        /* \"#utility.yul\":15512:15524   */\n      add\n        /* \"#utility.yul\":15505:15524   */\n      swap2\n      pop\n        /* \"#utility.yul\":15534:15609   */\n      tag_414\n        /* \"#utility.yul\":15605:15608   */\n      dup3\n        /* \"#utility.yul\":15596:15602   */\n      dup5\n        /* \"#utility.yul\":15534:15609   */\n      tag_227\n      jump\t// in\n    tag_414:\n        /* \"#utility.yul\":15634:15636   */\n      0x20\n        /* \"#utility.yul\":15629:15632   */\n      dup3\n        /* \"#utility.yul\":15625:15637   */\n      add\n        /* \"#utility.yul\":15618:15637   */\n      swap2\n      pop\n        /* \"#utility.yul\":15654:15657   */\n      dup2\n        /* \"#utility.yul\":15647:15657   */\n      swap1\n      pop\n        /* \"#utility.yul\":14702:15663   */\n      swap8\n      swap7\n      pop\n      pop\n      pop\n      pop\n      pop\n      pop\n      pop\n      jump\t// out\n        /* \"#utility.yul\":15669:15746   */\n    tag_228:\n        /* \"#utility.yul\":15706:15713   */\n      0x00\n        /* \"#utility.yul\":15735:15740   */\n      dup2\n        /* \"#utility.yul\":15724:15740   */\n      swap1\n      pop\n        /* \"#utility.yul\":15669:15746   */\n      swap2\n      swap1\n      pop\n      jump\t// out\n        /* \"#utility.yul\":15752:15870   */\n    tag_229:\n        /* \"#utility.yul\":15839:15863   */\n      tag_417\n        /* \"#utility.yul\":15857:15862   */\n      dup2\n        /* \"#utility.yul\":15839:15863   */\n      tag_228\n      jump\t// in\n    tag_417:\n        /* \"#utility.yul\":15834:15837   */\n      dup3\n        /* \"#utility.yul\":15827:15864   */\n      mstore\n        /* \"#utility.yul\":15752:15870   */\n      pop\n      pop\n      jump\t// out\n        /* \"#utility.yul\":15876:16208   */\n    tag_75:\n        /* \"#utility.yul\":15997:16001   */\n      0x00\n        /* \"#utility.yul\":16035:16037   */\n      0x40\n        /* \"#utility.yul\":16024:16033   */\n      dup3\n        /* \"#utility.yul\":16020:16038   */\n      add\n        /* \"#utility.yul\":16012:16038   */\n      swap1\n      pop\n        /* \"#utility.yul\":16048:16119   */\n      tag_419\n        /* \"#utility.yul\":16116:16117   */\n      0x00\n        /* \"#utility.yul\":16105:16114   */\n      dup4\n        /* \"#utility.yul\":16101:16118   */\n      add\n        /* \"#utility.yul\":16092:16098   */\n      dup6\n        /* \"#utility.yul\":16048:16119   */\n      tag_229\n      jump\t// in\n    tag_419:\n        /* \"#utility.yul\":16129:16201   */\n      tag_420\n        /* \"#utility.yul\":16197:16199   */\n      0x20\n        /* \"#utility.yul\":16186:16195   */\n      dup4\n        /* \"#utility.yul\":16182:16200   */\n      add\n        /* \"#utility.yul\":16173:16179   */\n      dup5\n        /* \"#utility.yul\":16129:16201   */\n      tag_210\n      jump\t// in\n    tag_420:\n        /* \"#utility.yul\":15876:16208   */\n      swap4\n      swap3\n      pop\n      pop\n      pop\n      jump\t// out\n        /* \"#utility.yul\":16214:16436   */\n    tag_77:\n        /* \"#utility.yul\":16307:16311   */\n      0x00\n        /* \"#utility.yul\":16345:16347   */\n      0x20\n        /* \"#utility.yul\":16334:16343   */\n      dup3\n        /* \"#utility.yul\":16330:16348   */\n      add\n        /* \"#utility.yul\":16322:16348   */\n      swap1\n      pop\n        /* \"#utility.yul\":16358:16429   */\n      tag_422\n        /* \"#utility.yul\":16426:16427   */\n      0x00\n        /* \"#utility.yul\":16415:16424   */\n      dup4\n        /* \"#utility.yul\":16411:16428   */\n      add\n        /* \"#utility.yul\":16402:16408   */\n      dup5\n        /* \"#utility.yul\":16358:16429   */\n      tag_229\n      jump\t// in\n    tag_422:\n        /* \"#utility.yul\":16214:16436   */\n      swap3\n      swap2\n      pop\n      pop\n      jump\t// out\n        /* \"#utility.yul\":16442:16540   */\n    tag_230:\n        /* \"#utility.yul\":16493:16499   */\n      0x00\n        /* \"#utility.yul\":16527:16532   */\n      dup2\n        /* \"#utility.yul\":16521:16533   */\n      mload\n        /* \"#utility.yul\":16511:16533   */\n      swap1\n      pop\n        /* \"#utility.yul\":16442:16540   */\n      swap2\n      swap1\n      pop\n      jump\t// out\n        /* \"#utility.yul\":16546:16693   */\n    tag_231:\n        /* \"#utility.yul\":16647:16658   */\n      0x00\n        /* \"#utility.yul\":16684:16687   */\n      dup2\n        /* \"#utility.yul\":16669:16687   */\n      swap1\n      pop\n        /* \"#utility.yul\":16546:16693   */\n      swap3\n      swap2\n      pop\n      pop\n      jump\t// out\n        /* \"#utility.yul\":16699:16945   */\n    tag_232:\n        /* \"#utility.yul\":16780:16781   */\n      0x00\n        /* \"#utility.yul\":16790:16903   */\n    tag_426:\n        /* \"#utility.yul\":16804:16810   */\n      dup4\n        /* \"#utility.yul\":16801:16802   */\n      dup2\n        /* \"#utility.yul\":16798:16811   */\n      lt\n        /* \"#utility.yul\":16790:16903   */\n      iszero\n      tag_428\n      jumpi\n        /* \"#utility.yul\":16889:16890   */\n      dup1\n        /* \"#utility.yul\":16884:16887   */\n      dup3\n        /* \"#utility.yul\":16880:16891   */\n      add\n        /* \"#utility.yul\":16874:16892   */\n      mload\n        /* \"#utility.yul\":16870:16871   */\n      dup2\n        /* \"#utility.yul\":16865:16868   */\n      dup5\n        /* \"#utility.yul\":16861:16872   */\n      add\n        /* \"#utility.yul\":16854:16893   */\n      mstore\n        /* \"#utility.yul\":16826:16828   */\n      0x20\n        /* \"#utility.yul\":16823:16824   */\n      dup2\n        /* \"#utility.yul\":16819:16829   */\n      add\n        /* \"#utility.yul\":16814:16829   */\n      swap1\n      pop\n        /* \"#utility.yul\":16790:16903   */\n      jump(tag_426)\n    tag_428:\n        /* \"#utility.yul\":16937:16938   */\n      0x00\n        /* \"#utility.yul\":16928:16934   */\n      dup5\n        /* \"#utility.yul\":16923:16926   */\n      dup5\n        /* \"#utility.yul\":16919:16935   */\n      add\n        /* \"#utility.yul\":16912:16939   */\n      mstore\n        /* \"#utility.yul\":16761:16945   */\n      pop\n        /* \"#utility.yul\":16699:16945   */\n      pop\n      pop\n      pop\n      jump\t// out\n        /* \"#utility.yul\":16951:17337   */\n    tag_233:\n        /* \"#utility.yul\":17055:17058   */\n      0x00\n        /* \"#utility.yul\":17083:17121   */\n      tag_430\n        /* \"#utility.yul\":17115:17120   */\n      dup3\n        /* \"#utility.yul\":17083:17121   */\n      tag_230\n      jump\t// in\n    tag_430:\n        /* \"#utility.yul\":17137:17225   */\n      tag_431\n        /* \"#utility.yul\":17218:17224   */\n      dup2\n        /* \"#utility.yul\":17213:17216   */\n      dup6\n        /* \"#utility.yul\":17137:17225   */\n      tag_231\n      jump\t// in\n    tag_431:\n        /* \"#utility.yul\":17130:17225   */\n      swap4\n      pop\n        /* \"#utility.yul\":17234:17299   */\n      tag_432\n        /* \"#utility.yul\":17292:17298   */\n      dup2\n        /* \"#utility.yul\":17287:17290   */\n      dup6\n        /* \"#utility.yul\":17280:17284   */\n      0x20\n        /* \"#utility.yul\":17273:17278   */\n      dup7\n        /* \"#utility.yul\":17269:17285   */\n      add\n        /* \"#utility.yul\":17234:17299   */\n      tag_232\n      jump\t// in\n    tag_432:\n        /* \"#utility.yul\":17324:17330   */\n      dup1\n        /* \"#utility.yul\":17319:17322   */\n      dup5\n        /* \"#utility.yul\":17315:17331   */\n      add\n        /* \"#utility.yul\":17308:17331   */\n      swap2\n      pop\n        /* \"#utility.yul\":17059:17337   */\n      pop\n        /* \"#utility.yul\":16951:17337   */\n      swap3\n      swap2\n      pop\n      pop\n      jump\t// out\n        /* \"#utility.yul\":17343:17614   */\n    tag_79:\n        /* \"#utility.yul\":17473:17476   */\n      0x00\n        /* \"#utility.yul\":17495:17588   */\n      tag_434\n        /* \"#utility.yul\":17584:17587   */\n      dup3\n        /* \"#utility.yul\":17575:17581   */\n      dup5\n        /* \"#utility.yul\":17495:17588   */\n      tag_233\n      jump\t// in\n    tag_434:\n        /* \"#utility.yul\":17488:17588   */\n      swap2\n      pop\n        /* \"#utility.yul\":17605:17608   */\n      dup2\n        /* \"#utility.yul\":17598:17608   */\n      swap1\n      pop\n        /* \"#utility.yul\":17343:17614   */\n      swap3\n      swap2\n      pop\n      pop\n      jump\t// out\n        /* \"#utility.yul\":17620:17710   */\n    tag_234:\n        /* \"#utility.yul\":17654:17661   */\n      0x00\n        /* \"#utility.yul\":17697:17702   */\n      dup2\n        /* \"#utility.yul\":17690:17703   */\n      iszero\n        /* \"#utility.yul\":17683:17704   */\n      iszero\n        /* \"#utility.yul\":17672:17704   */\n      swap1\n      pop\n        /* \"#utility.yul\":17620:17710   */\n      swap2\n      swap1\n      pop\n      jump\t// out\n        /* \"#utility.yul\":17716:17832   */\n    tag_235:\n        /* \"#utility.yul\":17786:17807   */\n      tag_437\n        /* \"#utility.yul\":17801:17806   */\n      dup2\n        /* \"#utility.yul\":17786:17807   */\n      tag_234\n      jump\t// in\n    tag_437:\n        /* \"#utility.yul\":17779:17784   */\n      dup2\n        /* \"#utility.yul\":17776:17808   */\n      eq\n        /* \"#utility.yul\":17766:17826   */\n      tag_438\n      jumpi\n        /* \"#utility.yul\":17822:17823   */\n      0x00\n        /* \"#utility.yul\":17819:17820   */\n      dup1\n        /* \"#utility.yul\":17812:17824   */\n      revert\n        /* \"#utility.yul\":17766:17826   */\n    tag_438:\n        /* \"#utility.yul\":17716:17832   */\n      pop\n      jump\t// out\n        /* \"#utility.yul\":17838:17975   */\n    tag_236:\n        /* \"#utility.yul\":17892:17897   */\n      0x00\n        /* \"#utility.yul\":17923:17929   */\n      dup2\n        /* \"#utility.yul\":17917:17930   */\n      mload\n        /* \"#utility.yul\":17908:17930   */\n      swap1\n      pop\n        /* \"#utility.yul\":17939:17969   */\n      tag_440\n        /* \"#utility.yul\":17963:17968   */\n      dup2\n        /* \"#utility.yul\":17939:17969   */\n      tag_235\n      jump\t// in\n    tag_440:\n        /* \"#utility.yul\":17838:17975   */\n      swap3\n      swap2\n      pop\n      pop\n      jump\t// out\n        /* \"#utility.yul\":17981:18326   */\n    tag_84:\n        /* \"#utility.yul\":18048:18054   */\n      0x00\n        /* \"#utility.yul\":18097:18099   */\n      0x20\n        /* \"#utility.yul\":18085:18094   */\n      dup3\n        /* \"#utility.yul\":18076:18083   */\n      dup5\n        /* \"#utility.yul\":18072:18095   */\n      sub\n        /* \"#utility.yul\":18068:18100   */\n      slt\n        /* \"#utility.yul\":18065:18184   */\n      iszero\n      tag_442\n      jumpi\n        /* \"#utility.yul\":18103:18182   */\n      tag_443\n      tag_185\n      jump\t// in\n    tag_443:\n        /* \"#utility.yul\":18065:18184   */\n    tag_442:\n        /* \"#utility.yul\":18223:18224   */\n      0x00\n        /* \"#utility.yul\":18248:18309   */\n      tag_444\n        /* \"#utility.yul\":18301:18308   */\n      dup5\n        /* \"#utility.yul\":18292:18298   */\n      dup3\n        /* \"#utility.yul\":18281:18290   */\n      dup6\n        /* \"#utility.yul\":18277:18299   */\n      add\n        /* \"#utility.yul\":18248:18309   */\n      tag_236\n      jump\t// in\n    tag_444:\n        /* \"#utility.yul\":18238:18309   */\n      swap2\n      pop\n        /* \"#utility.yul\":18194:18319   */\n      pop\n        /* \"#utility.yul\":17981:18326   */\n      swap3\n      swap2\n      pop\n      pop\n      jump\t// out\n        /* \"#utility.yul\":18332:18500   */\n    tag_237:\n        /* \"#utility.yul\":18472:18492   */\n      0x4f72646572206973206e6f742076616c69640000000000000000000000000000\n        /* \"#utility.yul\":18468:18469   */\n      0x00\n        /* \"#utility.yul\":18460:18466   */\n      dup3\n        /* \"#utility.yul\":18456:18470   */\n      add\n        /* \"#utility.yul\":18449:18493   */\n      mstore\n        /* \"#utility.yul\":18332:18500   */\n      pop\n      jump\t// out\n        /* \"#utility.yul\":18506:18872   */\n    tag_238:\n        /* \"#utility.yul\":18648:18651   */\n      0x00\n        /* \"#utility.yul\":18669:18736   */\n      tag_447\n        /* \"#utility.yul\":18733:18735   */\n      0x12\n        /* \"#utility.yul\":18728:18731   */\n      dup4\n        /* \"#utility.yul\":18669:18736   */\n      tag_212\n      jump\t// in\n    tag_447:\n        /* \"#utility.yul\":18662:18736   */\n      swap2\n      pop\n        /* \"#utility.yul\":18745:18838   */\n      tag_448\n        /* \"#utility.yul\":18834:18837   */\n      dup3\n        /* \"#utility.yul\":18745:18838   */\n      tag_237\n      jump\t// in\n    tag_448:\n        /* \"#utility.yul\":18863:18865   */\n      0x20\n        /* \"#utility.yul\":18858:18861   */\n      dup3\n        /* \"#utility.yul\":18854:18866   */\n      add\n        /* \"#utility.yul\":18847:18866   */\n      swap1\n      pop\n        /* \"#utility.yul\":18506:18872   */\n      swap2\n      swap1\n      pop\n      jump\t// out\n        /* \"#utility.yul\":18878:19297   */\n    tag_88:\n        /* \"#utility.yul\":19044:19048   */\n      0x00\n        /* \"#utility.yul\":19082:19084   */\n      0x20\n        /* \"#utility.yul\":19071:19080   */\n      dup3\n        /* \"#utility.yul\":19067:19085   */\n      add\n        /* \"#utility.yul\":19059:19085   */\n      swap1\n      pop\n        /* \"#utility.yul\":19131:19140   */\n      dup2\n        /* \"#utility.yul\":19125:19129   */\n      dup2\n        /* \"#utility.yul\":19121:19141   */\n      sub\n        /* \"#utility.yul\":19117:19118   */\n      0x00\n        /* \"#utility.yul\":19106:19115   */\n      dup4\n        /* \"#utility.yul\":19102:19119   */\n      add\n        /* \"#utility.yul\":19095:19142   */\n      mstore\n        /* \"#utility.yul\":19159:19290   */\n      tag_450\n        /* \"#utility.yul\":19285:19289   */\n      dup2\n        /* \"#utility.yul\":19159:19290   */\n      tag_238\n      jump\t// in\n    tag_450:\n        /* \"#utility.yul\":19151:19290   */\n      swap1\n      pop\n        /* \"#utility.yul\":18878:19297   */\n      swap2\n      swap1\n      pop\n      jump\t// out\n        /* \"#utility.yul\":19303:19483   */\n    tag_239:\n        /* \"#utility.yul\":19351:19428   */\n      0x4e487b7100000000000000000000000000000000000000000000000000000000\n        /* \"#utility.yul\":19348:19349   */\n      0x00\n        /* \"#utility.yul\":19341:19429   */\n      mstore\n        /* \"#utility.yul\":19448:19452   */\n      0x11\n        /* \"#utility.yul\":19445:19446   */\n      0x04\n        /* \"#utility.yul\":19438:19453   */\n      mstore\n        /* \"#utility.yul\":19472:19476   */\n      0x24\n        /* \"#utility.yul\":19469:19470   */\n      0x00\n        /* \"#utility.yul\":19462:19477   */\n      revert\n        /* \"#utility.yul\":19489:19683   */\n    tag_90:\n        /* \"#utility.yul\":19529:19533   */\n      0x00\n        /* \"#utility.yul\":19549:19569   */\n      tag_453\n        /* \"#utility.yul\":19567:19568   */\n      dup3\n        /* \"#utility.yul\":19549:19569   */\n      tag_194\n      jump\t// in\n    tag_453:\n        /* \"#utility.yul\":19544:19569   */\n      swap2\n      pop\n        /* \"#utility.yul\":19583:19603   */\n      tag_454\n        /* \"#utility.yul\":19601:19602   */\n      dup4\n        /* \"#utility.yul\":19583:19603   */\n      tag_194\n      jump\t// in\n    tag_454:\n        /* \"#utility.yul\":19578:19603   */\n      swap3\n      pop\n        /* \"#utility.yul\":19627:19628   */\n      dup3\n        /* \"#utility.yul\":19624:19625   */\n      dup3\n        /* \"#utility.yul\":19620:19629   */\n      sub\n        /* \"#utility.yul\":19612:19629   */\n      swap1\n      pop\n        /* \"#utility.yul\":19651:19652   */\n      dup2\n        /* \"#utility.yul\":19645:19649   */\n      dup2\n        /* \"#utility.yul\":19642:19653   */\n      gt\n        /* \"#utility.yul\":19639:19676   */\n      iszero\n      tag_455\n      jumpi\n        /* \"#utility.yul\":19656:19674   */\n      tag_456\n      tag_239\n      jump\t// in\n    tag_456:\n        /* \"#utility.yul\":19639:19676   */\n    tag_455:\n        /* \"#utility.yul\":19489:19683   */\n      swap3\n      swap2\n      pop\n      pop\n      jump\t// out\n        /* \"#utility.yul\":19689:19797   */\n    tag_240:\n        /* \"#utility.yul\":19766:19790   */\n      tag_458\n        /* \"#utility.yul\":19784:19789   */\n      dup2\n        /* \"#utility.yul\":19766:19790   */\n      tag_191\n      jump\t// in\n    tag_458:\n        /* \"#utility.yul\":19761:19764   */\n      dup3\n        /* \"#utility.yul\":19754:19791   */\n      mstore\n        /* \"#utility.yul\":19689:19797   */\n      pop\n      pop\n      jump\t// out\n        /* \"#utility.yul\":19803:19911   */\n    tag_241:\n        /* \"#utility.yul\":19880:19904   */\n      tag_460\n        /* \"#utility.yul\":19898:19903   */\n      dup2\n        /* \"#utility.yul\":19880:19904   */\n      tag_194\n      jump\t// in\n    tag_460:\n        /* \"#utility.yul\":19875:19878   */\n      dup3\n        /* \"#utility.yul\":19868:19905   */\n      mstore\n        /* \"#utility.yul\":19803:19911   */\n      pop\n      pop\n      jump\t// out\n        /* \"#utility.yul\":19917:20075   */\n    tag_242:\n        /* \"#utility.yul\":19990:20001   */\n      0x00\n        /* \"#utility.yul\":20024:20030   */\n      dup3\n        /* \"#utility.yul\":20019:20022   */\n      dup3\n        /* \"#utility.yul\":20012:20031   */\n      mstore\n        /* \"#utility.yul\":20064:20068   */\n      0x20\n        /* \"#utility.yul\":20059:20062   */\n      dup3\n        /* \"#utility.yul\":20055:20069   */\n      add\n        /* \"#utility.yul\":20040:20069   */\n      swap1\n      pop\n        /* \"#utility.yul\":19917:20075   */\n      swap3\n      swap2\n      pop\n      pop\n      jump\t// out\n        /* \"#utility.yul\":20081:20434   */\n    tag_243:\n        /* \"#utility.yul\":20157:20160   */\n      0x00\n        /* \"#utility.yul\":20185:20223   */\n      tag_463\n        /* \"#utility.yul\":20217:20222   */\n      dup3\n        /* \"#utility.yul\":20185:20223   */\n      tag_230\n      jump\t// in\n    tag_463:\n        /* \"#utility.yul\":20239:20299   */\n      tag_464\n        /* \"#utility.yul\":20292:20298   */\n      dup2\n        /* \"#utility.yul\":20287:20290   */\n      dup6\n        /* \"#utility.yul\":20239:20299   */\n      tag_242\n      jump\t// in\n    tag_464:\n        /* \"#utility.yul\":20232:20299   */\n      swap4\n      pop\n        /* \"#utility.yul\":20308:20373   */\n      tag_465\n        /* \"#utility.yul\":20366:20372   */\n      dup2\n        /* \"#utility.yul\":20361:20364   */\n      dup6\n        /* \"#utility.yul\":20354:20358   */\n      0x20\n        /* \"#utility.yul\":20347:20352   */\n      dup7\n        /* \"#utility.yul\":20343:20359   */\n      add\n        /* \"#utility.yul\":20308:20373   */\n      tag_232\n      jump\t// in\n    tag_465:\n        /* \"#utility.yul\":20398:20427   */\n      tag_466\n        /* \"#utility.yul\":20420:20426   */\n      dup2\n        /* \"#utility.yul\":20398:20427   */\n      tag_199\n      jump\t// in\n    tag_466:\n        /* \"#utility.yul\":20393:20396   */\n      dup5\n        /* \"#utility.yul\":20389:20428   */\n      add\n        /* \"#utility.yul\":20382:20428   */\n      swap2\n      pop\n        /* \"#utility.yul\":20161:20434   */\n      pop\n        /* \"#utility.yul\":20081:20434   */\n      swap3\n      swap2\n      pop\n      pop\n      jump\t// out\n        /* \"#utility.yul\":20514:22018   */\n    tag_244:\n        /* \"#utility.yul\":20635:20638   */\n      0x00\n        /* \"#utility.yul\":20671:20675   */\n      0xe0\n        /* \"#utility.yul\":20666:20669   */\n      dup4\n        /* \"#utility.yul\":20662:20676   */\n      add\n        /* \"#utility.yul\":20760:20764   */\n      0x00\n        /* \"#utility.yul\":20753:20758   */\n      dup4\n        /* \"#utility.yul\":20749:20765   */\n      add\n        /* \"#utility.yul\":20743:20766   */\n      mload\n        /* \"#utility.yul\":20779:20842   */\n      tag_468\n        /* \"#utility.yul\":20836:20840   */\n      0x00\n        /* \"#utility.yul\":20831:20834   */\n      dup7\n        /* \"#utility.yul\":20827:20841   */\n      add\n        /* \"#utility.yul\":20813:20825   */\n      dup3\n        /* \"#utility.yul\":20779:20842   */\n      tag_240\n      jump\t// in\n    tag_468:\n        /* \"#utility.yul\":20686:20852   */\n      pop\n        /* \"#utility.yul\":20940:20944   */\n      0x20\n        /* \"#utility.yul\":20933:20938   */\n      dup4\n        /* \"#utility.yul\":20929:20945   */\n      add\n        /* \"#utility.yul\":20923:20946   */\n      mload\n        /* \"#utility.yul\":20959:21022   */\n      tag_469\n        /* \"#utility.yul\":21016:21020   */\n      0x20\n        /* \"#utility.yul\":21011:21014   */\n      dup7\n        /* \"#utility.yul\":21007:21021   */\n      add\n        /* \"#utility.yul\":20993:21005   */\n      dup3\n        /* \"#utility.yul\":20959:21022   */\n      tag_240\n      jump\t// in\n    tag_469:\n        /* \"#utility.yul\":20862:21032   */\n      pop\n        /* \"#utility.yul\":21117:21121   */\n      0x40\n        /* \"#utility.yul\":21110:21115   */\n      dup4\n        /* \"#utility.yul\":21106:21122   */\n      add\n        /* \"#utility.yul\":21100:21123   */\n      mload\n        /* \"#utility.yul\":21136:21199   */\n      tag_470\n        /* \"#utility.yul\":21193:21197   */\n      0x40\n        /* \"#utility.yul\":21188:21191   */\n      dup7\n        /* \"#utility.yul\":21184:21198   */\n      add\n        /* \"#utility.yul\":21170:21182   */\n      dup3\n        /* \"#utility.yul\":21136:21199   */\n      tag_241\n      jump\t// in\n    tag_470:\n        /* \"#utility.yul\":21042:21209   */\n      pop\n        /* \"#utility.yul\":21292:21296   */\n      0x60\n        /* \"#utility.yul\":21285:21290   */\n      dup4\n        /* \"#utility.yul\":21281:21297   */\n      add\n        /* \"#utility.yul\":21275:21298   */\n      mload\n        /* \"#utility.yul\":21311:21374   */\n      tag_471\n        /* \"#utility.yul\":21368:21372   */\n      0x60\n        /* \"#utility.yul\":21363:21366   */\n      dup7\n        /* \"#utility.yul\":21359:21373   */\n      add\n        /* \"#utility.yul\":21345:21357   */\n      dup3\n        /* \"#utility.yul\":21311:21374   */\n      tag_241\n      jump\t// in\n    tag_471:\n        /* \"#utility.yul\":21219:21384   */\n      pop\n        /* \"#utility.yul\":21471:21475   */\n      0x80\n        /* \"#utility.yul\":21464:21469   */\n      dup4\n        /* \"#utility.yul\":21460:21476   */\n      add\n        /* \"#utility.yul\":21454:21477   */\n      mload\n        /* \"#utility.yul\":21524:21527   */\n      dup5\n        /* \"#utility.yul\":21518:21522   */\n      dup3\n        /* \"#utility.yul\":21514:21528   */\n      sub\n        /* \"#utility.yul\":21507:21511   */\n      0x80\n        /* \"#utility.yul\":21502:21505   */\n      dup7\n        /* \"#utility.yul\":21498:21512   */\n      add\n        /* \"#utility.yul\":21491:21529   */\n      mstore\n        /* \"#utility.yul\":21550:21621   */\n      tag_472\n        /* \"#utility.yul\":21616:21620   */\n      dup3\n        /* \"#utility.yul\":21602:21614   */\n      dup3\n        /* \"#utility.yul\":21550:21621   */\n      tag_243\n      jump\t// in\n    tag_472:\n        /* \"#utility.yul\":21542:21621   */\n      swap2\n      pop\n        /* \"#utility.yul\":21394:21632   */\n      pop\n        /* \"#utility.yul\":21724:21728   */\n      0xa0\n        /* \"#utility.yul\":21717:21722   */\n      dup4\n        /* \"#utility.yul\":21713:21729   */\n      add\n        /* \"#utility.yul\":21707:21730   */\n      mload\n        /* \"#utility.yul\":21743:21806   */\n      tag_473\n        /* \"#utility.yul\":21800:21804   */\n      0xa0\n        /* \"#utility.yul\":21795:21798   */\n      dup7\n        /* \"#utility.yul\":21791:21805   */\n      add\n        /* \"#utility.yul\":21777:21789   */\n      dup3\n        /* \"#utility.yul\":21743:21806   */\n      tag_241\n      jump\t// in\n    tag_473:\n        /* \"#utility.yul\":21642:21816   */\n      pop\n        /* \"#utility.yul\":21899:21903   */\n      0xc0\n        /* \"#utility.yul\":21892:21897   */\n      dup4\n        /* \"#utility.yul\":21888:21904   */\n      add\n        /* \"#utility.yul\":21882:21905   */\n      mload\n        /* \"#utility.yul\":21918:21981   */\n      tag_474\n        /* \"#utility.yul\":21975:21979   */\n      0xc0\n        /* \"#utility.yul\":21970:21973   */\n      dup7\n        /* \"#utility.yul\":21966:21980   */\n      add\n        /* \"#utility.yul\":21952:21964   */\n      dup3\n        /* \"#utility.yul\":21918:21981   */\n      tag_241\n      jump\t// in\n    tag_474:\n        /* \"#utility.yul\":21826:21991   */\n      pop\n        /* \"#utility.yul\":22008:22012   */\n      dup1\n        /* \"#utility.yul\":22001:22012   */\n      swap2\n      pop\n        /* \"#utility.yul\":20640:22018   */\n      pop\n        /* \"#utility.yul\":20514:22018   */\n      swap3\n      swap2\n      pop\n      pop\n      jump\t// out\n        /* \"#utility.yul\":22024:22511   */\n    tag_93:\n        /* \"#utility.yul\":22197:22201   */\n      0x00\n        /* \"#utility.yul\":22235:22237   */\n      0x40\n        /* \"#utility.yul\":22224:22233   */\n      dup3\n        /* \"#utility.yul\":22220:22238   */\n      add\n        /* \"#utility.yul\":22212:22238   */\n      swap1\n      pop\n        /* \"#utility.yul\":22284:22293   */\n      dup2\n        /* \"#utility.yul\":22278:22282   */\n      dup2\n        /* \"#utility.yul\":22274:22294   */\n      sub\n        /* \"#utility.yul\":22270:22271   */\n      0x00\n        /* \"#utility.yul\":22259:22268   */\n      dup4\n        /* \"#utility.yul\":22255:22272   */\n      add\n        /* \"#utility.yul\":22248:22295   */\n      mstore\n        /* \"#utility.yul\":22312:22422   */\n      tag_476\n        /* \"#utility.yul\":22417:22421   */\n      dup2\n        /* \"#utility.yul\":22408:22414   */\n      dup6\n        /* \"#utility.yul\":22312:22422   */\n      tag_244\n      jump\t// in\n    tag_476:\n        /* \"#utility.yul\":22304:22422   */\n      swap1\n      pop\n        /* \"#utility.yul\":22432:22504   */\n      tag_477\n        /* \"#utility.yul\":22500:22502   */\n      0x20\n        /* \"#utility.yul\":22489:22498   */\n      dup4\n        /* \"#utility.yul\":22485:22503   */\n      add\n        /* \"#utility.yul\":22476:22482   */\n      dup5\n        /* \"#utility.yul\":22432:22504   */\n      tag_211\n      jump\t// in\n    tag_477:\n        /* \"#utility.yul\":22024:22511   */\n      swap4\n      swap3\n      pop\n      pop\n      pop\n      jump\t// out\n        /* \"#utility.yul\":22517:22676   */\n    tag_245:\n        /* \"#utility.yul\":22657:22668   */\n      0x6d617463686661696c0000000000000000000000000000000000000000000000\n        /* \"#utility.yul\":22653:22654   */\n      0x00\n        /* \"#utility.yul\":22645:22651   */\n      dup3\n        /* \"#utility.yul\":22641:22655   */\n      add\n        /* \"#utility.yul\":22634:22669   */\n      mstore\n        /* \"#utility.yul\":22517:22676   */\n      pop\n      jump\t// out\n        /* \"#utility.yul\":22682:23047   */\n    tag_246:\n        /* \"#utility.yul\":22824:22827   */\n      0x00\n        /* \"#utility.yul\":22845:22911   */\n      tag_480\n        /* \"#utility.yul\":22909:22910   */\n      0x09\n        /* \"#utility.yul\":22904:22907   */\n      dup4\n        /* \"#utility.yul\":22845:22911   */\n      tag_212\n      jump\t// in\n    tag_480:\n        /* \"#utility.yul\":22838:22911   */\n      swap2\n      pop\n        /* \"#utility.yul\":22920:23013   */\n      tag_481\n        /* \"#utility.yul\":23009:23012   */\n      dup3\n        /* \"#utility.yul\":22920:23013   */\n      tag_245\n      jump\t// in\n    tag_481:\n        /* \"#utility.yul\":23038:23040   */\n      0x20\n        /* \"#utility.yul\":23033:23036   */\n      dup3\n        /* \"#utility.yul\":23029:23041   */\n      add\n        /* \"#utility.yul\":23022:23041   */\n      swap1\n      pop\n        /* \"#utility.yul\":22682:23047   */\n      swap2\n      swap1\n      pop\n      jump\t// out\n        /* \"#utility.yul\":23053:23472   */\n    tag_119:\n        /* \"#utility.yul\":23219:23223   */\n      0x00\n        /* \"#utility.yul\":23257:23259   */\n      0x20\n        /* \"#utility.yul\":23246:23255   */\n      dup3\n        /* \"#utility.yul\":23242:23260   */\n      add\n        /* \"#utility.yul\":23234:23260   */\n      swap1\n      pop\n        /* \"#utility.yul\":23306:23315   */\n      dup2\n        /* \"#utility.yul\":23300:23304   */\n      dup2\n        /* \"#utility.yul\":23296:23316   */\n      sub\n        /* \"#utility.yul\":23292:23293   */\n      0x00\n        /* \"#utility.yul\":23281:23290   */\n      dup4\n        /* \"#utility.yul\":23277:23294   */\n      add\n        /* \"#utility.yul\":23270:23317   */\n      mstore\n        /* \"#utility.yul\":23334:23465   */\n      tag_483\n        /* \"#utility.yul\":23460:23464   */\n      dup2\n        /* \"#utility.yul\":23334:23465   */\n      tag_246\n      jump\t// in\n    tag_483:\n        /* \"#utility.yul\":23326:23465   */\n      swap1\n      pop\n        /* \"#utility.yul\":23053:23472   */\n      swap2\n      swap1\n      pop\n      jump\t// out\n        /* \"#utility.yul\":23478:23648   */\n    tag_247:\n        /* \"#utility.yul\":23618:23640   */\n      0x496e73756666696369656e74207061796d656e74000000000000000000000000\n        /* \"#utility.yul\":23614:23615   */\n      0x00\n        /* \"#utility.yul\":23606:23612   */\n      dup3\n        /* \"#utility.yul\":23602:23616   */\n      add\n        /* \"#utility.yul\":23595:23641   */\n      mstore\n        /* \"#utility.yul\":23478:23648   */\n      pop\n      jump\t// out\n        /* \"#utility.yul\":23654:24020   */\n    tag_248:\n        /* \"#utility.yul\":23796:23799   */\n      0x00\n        /* \"#utility.yul\":23817:23884   */\n      tag_486\n        /* \"#utility.yul\":23881:23883   */\n      0x14\n        /* \"#utility.yul\":23876:23879   */\n      dup4\n        /* \"#utility.yul\":23817:23884   */\n      tag_212\n      jump\t// in\n    tag_486:\n        /* \"#utility.yul\":23810:23884   */\n      swap2\n      pop\n        /* \"#utility.yul\":23893:23986   */\n      tag_487\n        /* \"#utility.yul\":23982:23985   */\n      dup3\n        /* \"#utility.yul\":23893:23986   */\n      tag_247\n      jump\t// in\n    tag_487:\n        /* \"#utility.yul\":24011:24013   */\n      0x20\n        /* \"#utility.yul\":24006:24009   */\n      dup3\n        /* \"#utility.yul\":24002:24014   */\n      add\n        /* \"#utility.yul\":23995:24014   */\n      swap1\n      pop\n        /* \"#utility.yul\":23654:24020   */\n      swap2\n      swap1\n      pop\n      jump\t// out\n        /* \"#utility.yul\":24026:24445   */\n    tag_122:\n        /* \"#utility.yul\":24192:24196   */\n      0x00\n        /* \"#utility.yul\":24230:24232   */\n      0x20\n        /* \"#utility.yul\":24219:24228   */\n      dup3\n        /* \"#utility.yul\":24215:24233   */\n      add\n        /* \"#utility.yul\":24207:24233   */\n      swap1\n      pop\n        /* \"#utility.yul\":24279:24288   */\n      dup2\n        /* \"#utility.yul\":24273:24277   */\n      dup2\n        /* \"#utility.yul\":24269:24289   */\n      sub\n        /* \"#utility.yul\":24265:24266   */\n      0x00\n        /* \"#utility.yul\":24254:24263   */\n      dup4\n        /* \"#utility.yul\":24250:24267   */\n      add\n        /* \"#utility.yul\":24243:24290   */\n      mstore\n        /* \"#utility.yul\":24307:24438   */\n      tag_489\n        /* \"#utility.yul\":24433:24437   */\n      dup2\n        /* \"#utility.yul\":24307:24438   */\n      tag_248\n      jump\t// in\n    tag_489:\n        /* \"#utility.yul\":24299:24438   */\n      swap1\n      pop\n        /* \"#utility.yul\":24026:24445   */\n      swap2\n      swap1\n      pop\n      jump\t// out\n        /* \"#utility.yul\":24451:24672   */\n    tag_249:\n        /* \"#utility.yul\":24591:24625   */\n      0x4f6e6c792073656c6c65722063616e2063616c6c20746869732066756e637469\n        /* \"#utility.yul\":24587:24588   */\n      0x00\n        /* \"#utility.yul\":24579:24585   */\n      dup3\n        /* \"#utility.yul\":24575:24589   */\n      add\n        /* \"#utility.yul\":24568:24626   */\n      mstore\n        /* \"#utility.yul\":24660:24664   */\n      0x6f6e000000000000000000000000000000000000000000000000000000000000\n        /* \"#utility.yul\":24655:24657   */\n      0x20\n        /* \"#utility.yul\":24647:24653   */\n      dup3\n        /* \"#utility.yul\":24643:24658   */\n      add\n        /* \"#utility.yul\":24636:24665   */\n      mstore\n        /* \"#utility.yul\":24451:24672   */\n      pop\n      jump\t// out\n        /* \"#utility.yul\":24678:25044   */\n    tag_250:\n        /* \"#utility.yul\":24820:24823   */\n      0x00\n        /* \"#utility.yul\":24841:24908   */\n      tag_492\n        /* \"#utility.yul\":24905:24907   */\n      0x22\n        /* \"#utility.yul\":24900:24903   */\n      dup4\n        /* \"#utility.yul\":24841:24908   */\n      tag_212\n      jump\t// in\n    tag_492:\n        /* \"#utility.yul\":24834:24908   */\n      swap2\n      pop\n        /* \"#utility.yul\":24917:25010   */\n      tag_493\n        /* \"#utility.yul\":25006:25009   */\n      dup3\n        /* \"#utility.yul\":24917:25010   */\n      tag_249\n      jump\t// in\n    tag_493:\n        /* \"#utility.yul\":25035:25037   */\n      0x40\n        /* \"#utility.yul\":25030:25033   */\n      dup3\n        /* \"#utility.yul\":25026:25038   */\n      add\n        /* \"#utility.yul\":25019:25038   */\n      swap1\n      pop\n        /* \"#utility.yul\":24678:25044   */\n      swap2\n      swap1\n      pop\n      jump\t// out\n        /* \"#utility.yul\":25050:25469   */\n    tag_126:\n        /* \"#utility.yul\":25216:25220   */\n      0x00\n        /* \"#utility.yul\":25254:25256   */\n      0x20\n        /* \"#utility.yul\":25243:25252   */\n      dup3\n        /* \"#utility.yul\":25239:25257   */\n      add\n        /* \"#utility.yul\":25231:25257   */\n      swap1\n      pop\n        /* \"#utility.yul\":25303:25312   */\n      dup2\n        /* \"#utility.yul\":25297:25301   */\n      dup2\n        /* \"#utility.yul\":25293:25313   */\n      sub\n        /* \"#utility.yul\":25289:25290   */\n      0x00\n        /* \"#utility.yul\":25278:25287   */\n      dup4\n        /* \"#utility.yul\":25274:25291   */\n      add\n        /* \"#utility.yul\":25267:25314   */\n      mstore\n        /* \"#utility.yul\":25331:25462   */\n      tag_495\n        /* \"#utility.yul\":25457:25461   */\n      dup2\n        /* \"#utility.yul\":25331:25462   */\n      tag_250\n      jump\t// in\n    tag_495:\n        /* \"#utility.yul\":25323:25462   */\n      swap1\n      pop\n        /* \"#utility.yul\":25050:25469   */\n      swap2\n      swap1\n      pop\n      jump\t// out\n        /* \"#utility.yul\":25475:25807   */\n    tag_133:\n        /* \"#utility.yul\":25596:25600   */\n      0x00\n        /* \"#utility.yul\":25634:25636   */\n      0x40\n        /* \"#utility.yul\":25623:25632   */\n      dup3\n        /* \"#utility.yul\":25619:25637   */\n      add\n        /* \"#utility.yul\":25611:25637   */\n      swap1\n      pop\n        /* \"#utility.yul\":25647:25718   */\n      tag_497\n        /* \"#utility.yul\":25715:25716   */\n      0x00\n        /* \"#utility.yul\":25704:25713   */\n      dup4\n        /* \"#utility.yul\":25700:25717   */\n      add\n        /* \"#utility.yul\":25691:25697   */\n      dup6\n        /* \"#utility.yul\":25647:25718   */\n      tag_210\n      jump\t// in\n    tag_497:\n        /* \"#utility.yul\":25728:25800   */\n      tag_498\n        /* \"#utility.yul\":25796:25798   */\n      0x20\n        /* \"#utility.yul\":25785:25794   */\n      dup4\n        /* \"#utility.yul\":25781:25799   */\n      add\n        /* \"#utility.yul\":25772:25778   */\n      dup5\n        /* \"#utility.yul\":25728:25800   */\n      tag_210\n      jump\t// in\n    tag_498:\n        /* \"#utility.yul\":25475:25807   */\n      swap4\n      swap3\n      pop\n      pop\n      pop\n      jump\t// out\n        /* \"#utility.yul\":25813:25990   */\n    tag_251:\n        /* \"#utility.yul\":25953:25982   */\n      0x50726f78792077616c6c657420616c7265616479206578697374730000000000\n        /* \"#utility.yul\":25949:25950   */\n      0x00\n        /* \"#utility.yul\":25941:25947   */\n      dup3\n        /* \"#utility.yul\":25937:25951   */\n      add\n        /* \"#utility.yul\":25930:25983   */\n      mstore\n        /* \"#utility.yul\":25813:25990   */\n      pop\n      jump\t// out\n        /* \"#utility.yul\":25996:26362   */\n    tag_252:\n        /* \"#utility.yul\":26138:26141   */\n      0x00\n        /* \"#utility.yul\":26159:26226   */\n      tag_501\n        /* \"#utility.yul\":26223:26225   */\n      0x1b\n        /* \"#utility.yul\":26218:26221   */\n      dup4\n        /* \"#utility.yul\":26159:26226   */\n      tag_212\n      jump\t// in\n    tag_501:\n        /* \"#utility.yul\":26152:26226   */\n      swap2\n      pop\n        /* \"#utility.yul\":26235:26328   */\n      tag_502\n        /* \"#utility.yul\":26324:26327   */\n      dup3\n        /* \"#utility.yul\":26235:26328   */\n      tag_251\n      jump\t// in\n    tag_502:\n        /* \"#utility.yul\":26353:26355   */\n      0x20\n        /* \"#utility.yul\":26348:26351   */\n      dup3\n        /* \"#utility.yul\":26344:26356   */\n      add\n        /* \"#utility.yul\":26337:26356   */\n      swap1\n      pop\n        /* \"#utility.yul\":25996:26362   */\n      swap2\n      swap1\n      pop\n      jump\t// out\n        /* \"#utility.yul\":26368:26787   */\n    tag_138:\n        /* \"#utility.yul\":26534:26538   */\n      0x00\n        /* \"#utility.yul\":26572:26574   */\n      0x20\n        /* \"#utility.yul\":26561:26570   */\n      dup3\n        /* \"#utility.yul\":26557:26575   */\n      add\n        /* \"#utility.yul\":26549:26575   */\n      swap1\n      pop\n        /* \"#utility.yul\":26621:26630   */\n      dup2\n        /* \"#utility.yul\":26615:26619   */\n      dup2\n        /* \"#utility.yul\":26611:26631   */\n      sub\n        /* \"#utility.yul\":26607:26608   */\n      0x00\n        /* \"#utility.yul\":26596:26605   */\n      dup4\n        /* \"#utility.yul\":26592:26609   */\n      add\n        /* \"#utility.yul\":26585:26632   */\n      mstore\n        /* \"#utility.yul\":26649:26780   */\n      tag_504\n        /* \"#utility.yul\":26775:26779   */\n      dup2\n        /* \"#utility.yul\":26649:26780   */\n      tag_252\n      jump\t// in\n    tag_504:\n        /* \"#utility.yul\":26641:26780   */\n      swap1\n      pop\n        /* \"#utility.yul\":26368:26787   */\n      swap2\n      swap1\n      pop\n      jump\t// out\n        /* \"#utility.yul\":26793:27203   */\n    tag_150:\n        /* \"#utility.yul\":26833:26840   */\n      0x00\n        /* \"#utility.yul\":26856:26876   */\n      tag_506\n        /* \"#utility.yul\":26874:26875   */\n      dup3\n        /* \"#utility.yul\":26856:26876   */\n      tag_194\n      jump\t// in\n    tag_506:\n        /* \"#utility.yul\":26851:26876   */\n      swap2\n      pop\n        /* \"#utility.yul\":26890:26910   */\n      tag_507\n        /* \"#utility.yul\":26908:26909   */\n      dup4\n        /* \"#utility.yul\":26890:26910   */\n      tag_194\n      jump\t// in\n    tag_507:\n        /* \"#utility.yul\":26885:26910   */\n      swap3\n      pop\n        /* \"#utility.yul\":26945:26946   */\n      dup3\n        /* \"#utility.yul\":26942:26943   */\n      dup3\n        /* \"#utility.yul\":26938:26947   */\n      mul\n        /* \"#utility.yul\":26967:26997   */\n      tag_508\n        /* \"#utility.yul\":26985:26996   */\n      dup2\n        /* \"#utility.yul\":26967:26997   */\n      tag_194\n      jump\t// in\n    tag_508:\n        /* \"#utility.yul\":26956:26997   */\n      swap2\n      pop\n        /* \"#utility.yul\":27146:27147   */\n      dup3\n        /* \"#utility.yul\":27137:27144   */\n      dup3\n        /* \"#utility.yul\":27133:27148   */\n      div\n        /* \"#utility.yul\":27130:27131   */\n      dup5\n        /* \"#utility.yul\":27127:27149   */\n      eq\n        /* \"#utility.yul\":27107:27108   */\n      dup4\n        /* \"#utility.yul\":27100:27109   */\n      iszero\n        /* \"#utility.yul\":27080:27163   */\n      or\n        /* \"#utility.yul\":27057:27196   */\n      tag_509\n      jumpi\n        /* \"#utility.yul\":27176:27194   */\n      tag_510\n      tag_239\n      jump\t// in\n    tag_510:\n        /* \"#utility.yul\":27057:27196   */\n    tag_509:\n        /* \"#utility.yul\":26841:27203   */\n      pop\n        /* \"#utility.yul\":26793:27203   */\n      swap3\n      swap2\n      pop\n      pop\n      jump\t// out\n        /* \"#utility.yul\":27209:27389   */\n    tag_253:\n        /* \"#utility.yul\":27257:27334   */\n      0x4e487b7100000000000000000000000000000000000000000000000000000000\n        /* \"#utility.yul\":27254:27255   */\n      0x00\n        /* \"#utility.yul\":27247:27335   */\n      mstore\n        /* \"#utility.yul\":27354:27358   */\n      0x12\n        /* \"#utility.yul\":27351:27352   */\n      0x04\n        /* \"#utility.yul\":27344:27359   */\n      mstore\n        /* \"#utility.yul\":27378:27382   */\n      0x24\n        /* \"#utility.yul\":27375:27376   */\n      0x00\n        /* \"#utility.yul\":27368:27383   */\n      revert\n        /* \"#utility.yul\":27395:27580   */\n    tag_153:\n        /* \"#utility.yul\":27435:27436   */\n      0x00\n        /* \"#utility.yul\":27452:27472   */\n      tag_513\n        /* \"#utility.yul\":27470:27471   */\n      dup3\n        /* \"#utility.yul\":27452:27472   */\n      tag_194\n      jump\t// in\n    tag_513:\n        /* \"#utility.yul\":27447:27472   */\n      swap2\n      pop\n        /* \"#utility.yul\":27486:27506   */\n      tag_514\n        /* \"#utility.yul\":27504:27505   */\n      dup4\n        /* \"#utility.yul\":27486:27506   */\n      tag_194\n      jump\t// in\n    tag_514:\n        /* \"#utility.yul\":27481:27506   */\n      swap3\n      pop\n        /* \"#utility.yul\":27525:27526   */\n      dup3\n        /* \"#utility.yul\":27515:27550   */\n      tag_515\n      jumpi\n        /* \"#utility.yul\":27530:27548   */\n      tag_516\n      tag_253\n      jump\t// in\n    tag_516:\n        /* \"#utility.yul\":27515:27550   */\n    tag_515:\n        /* \"#utility.yul\":27572:27573   */\n      dup3\n        /* \"#utility.yul\":27569:27570   */\n      dup3\n        /* \"#utility.yul\":27565:27574   */\n      div\n        /* \"#utility.yul\":27560:27574   */\n      swap1\n      pop\n        /* \"#utility.yul\":27395:27580   */\n      swap3\n      swap2\n      pop\n      pop\n      jump\t// out\n        /* \"#utility.yul\":27586:27734   */\n    tag_254:\n        /* \"#utility.yul\":27688:27699   */\n      0x00\n        /* \"#utility.yul\":27725:27728   */\n      dup2\n        /* \"#utility.yul\":27710:27728   */\n      swap1\n      pop\n        /* \"#utility.yul\":27586:27734   */\n      swap3\n      swap2\n      pop\n      pop\n      jump\t// out\n        /* \"#utility.yul\":27740:27954   */\n    tag_255:\n        /* \"#utility.yul\":27880:27946   */\n      0x19457468657265756d205369676e6564204d6573736167653a0a333200000000\n        /* \"#utility.yul\":27876:27877   */\n      0x00\n        /* \"#utility.yul\":27868:27874   */\n      dup3\n        /* \"#utility.yul\":27864:27878   */\n      add\n        /* \"#utility.yul\":27857:27947   */\n      mstore\n        /* \"#utility.yul\":27740:27954   */\n      pop\n      jump\t// out\n        /* \"#utility.yul\":27960:28362   */\n    tag_256:\n        /* \"#utility.yul\":28120:28123   */\n      0x00\n        /* \"#utility.yul\":28141:28226   */\n      tag_520\n        /* \"#utility.yul\":28223:28225   */\n      0x1c\n        /* \"#utility.yul\":28218:28221   */\n      dup4\n        /* \"#utility.yul\":28141:28226   */\n      tag_254\n      jump\t// in\n    tag_520:\n        /* \"#utility.yul\":28134:28226   */\n      swap2\n      pop\n        /* \"#utility.yul\":28235:28328   */\n      tag_521\n        /* \"#utility.yul\":28324:28327   */\n      dup3\n        /* \"#utility.yul\":28235:28328   */\n      tag_255\n      jump\t// in\n    tag_521:\n        /* \"#utility.yul\":28353:28355   */\n      0x1c\n        /* \"#utility.yul\":28348:28351   */\n      dup3\n        /* \"#utility.yul\":28344:28356   */\n      add\n        /* \"#utility.yul\":28337:28356   */\n      swap1\n      pop\n        /* \"#utility.yul\":27960:28362   */\n      swap2\n      swap1\n      pop\n      jump\t// out\n        /* \"#utility.yul\":28368:28447   */\n    tag_257:\n        /* \"#utility.yul\":28407:28414   */\n      0x00\n        /* \"#utility.yul\":28436:28441   */\n      dup2\n        /* \"#utility.yul\":28425:28441   */\n      swap1\n      pop\n        /* \"#utility.yul\":28368:28447   */\n      swap2\n      swap1\n      pop\n      jump\t// out\n        /* \"#utility.yul\":28453:28610   */\n    tag_258:\n        /* \"#utility.yul\":28558:28603   */\n      tag_524\n        /* \"#utility.yul\":28578:28602   */\n      tag_525\n        /* \"#utility.yul\":28596:28601   */\n      dup3\n        /* \"#utility.yul\":28578:28602   */\n      tag_228\n      jump\t// in\n    tag_525:\n        /* \"#utility.yul\":28558:28603   */\n      tag_257\n      jump\t// in\n    tag_524:\n        /* \"#utility.yul\":28553:28556   */\n      dup3\n        /* \"#utility.yul\":28546:28604   */\n      mstore\n        /* \"#utility.yul\":28453:28610   */\n      pop\n      pop\n      jump\t// out\n        /* \"#utility.yul\":28616:29138   */\n    tag_157:\n        /* \"#utility.yul\":28829:28832   */\n      0x00\n        /* \"#utility.yul\":28851:28999   */\n      tag_527\n        /* \"#utility.yul\":28995:28998   */\n      dup3\n        /* \"#utility.yul\":28851:28999   */\n      tag_256\n      jump\t// in\n    tag_527:\n        /* \"#utility.yul\":28844:28999   */\n      swap2\n      pop\n        /* \"#utility.yul\":29009:29084   */\n      tag_528\n        /* \"#utility.yul\":29080:29083   */\n      dup3\n        /* \"#utility.yul\":29071:29077   */\n      dup5\n        /* \"#utility.yul\":29009:29084   */\n      tag_258\n      jump\t// in\n    tag_528:\n        /* \"#utility.yul\":29109:29111   */\n      0x20\n        /* \"#utility.yul\":29104:29107   */\n      dup3\n        /* \"#utility.yul\":29100:29112   */\n      add\n        /* \"#utility.yul\":29093:29112   */\n      swap2\n      pop\n        /* \"#utility.yul\":29129:29132   */\n      dup2\n        /* \"#utility.yul\":29122:29132   */\n      swap1\n      pop\n        /* \"#utility.yul\":28616:29138   */\n      swap3\n      swap2\n      pop\n      pop\n      jump\t// out\n        /* \"#utility.yul\":29144:29521   */\n    tag_162:\n        /* \"#utility.yul\":29289:29293   */\n      0x00\n        /* \"#utility.yul\":29327:29329   */\n      0x20\n        /* \"#utility.yul\":29316:29325   */\n      dup3\n        /* \"#utility.yul\":29312:29330   */\n      add\n        /* \"#utility.yul\":29304:29330   */\n      swap1\n      pop\n        /* \"#utility.yul\":29376:29385   */\n      dup2\n        /* \"#utility.yul\":29370:29374   */\n      dup2\n        /* \"#utility.yul\":29366:29386   */\n      sub\n        /* \"#utility.yul\":29362:29363   */\n      0x00\n        /* \"#utility.yul\":29351:29360   */\n      dup4\n        /* \"#utility.yul\":29347:29364   */\n      add\n        /* \"#utility.yul\":29340:29387   */\n      mstore\n        /* \"#utility.yul\":29404:29514   */\n      tag_530\n        /* \"#utility.yul\":29509:29513   */\n      dup2\n        /* \"#utility.yul\":29500:29506   */\n      dup5\n        /* \"#utility.yul\":29404:29514   */\n      tag_244\n      jump\t// in\n    tag_530:\n        /* \"#utility.yul\":29396:29514   */\n      swap1\n      pop\n        /* \"#utility.yul\":29144:29521   */\n      swap3\n      swap2\n      pop\n      pop\n      jump\t// out\n        /* \"#utility.yul\":29527:29969   */\n    tag_172:\n        /* \"#utility.yul\":29676:29680   */\n      0x00\n        /* \"#utility.yul\":29714:29716   */\n      0x60\n        /* \"#utility.yul\":29703:29712   */\n      dup3\n        /* \"#utility.yul\":29699:29717   */\n      add\n        /* \"#utility.yul\":29691:29717   */\n      swap1\n      pop\n        /* \"#utility.yul\":29727:29798   */\n      tag_532\n        /* \"#utility.yul\":29795:29796   */\n      0x00\n        /* \"#utility.yul\":29784:29793   */\n      dup4\n        /* \"#utility.yul\":29780:29797   */\n      add\n        /* \"#utility.yul\":29771:29777   */\n      dup7\n        /* \"#utility.yul\":29727:29798   */\n      tag_210\n      jump\t// in\n    tag_532:\n        /* \"#utility.yul\":29808:29880   */\n      tag_533\n        /* \"#utility.yul\":29876:29878   */\n      0x20\n        /* \"#utility.yul\":29865:29874   */\n      dup4\n        /* \"#utility.yul\":29861:29879   */\n      add\n        /* \"#utility.yul\":29852:29858   */\n      dup6\n        /* \"#utility.yul\":29808:29880   */\n      tag_229\n      jump\t// in\n    tag_533:\n        /* \"#utility.yul\":29890:29962   */\n      tag_534\n        /* \"#utility.yul\":29958:29960   */\n      0x40\n        /* \"#utility.yul\":29947:29956   */\n      dup4\n        /* \"#utility.yul\":29943:29961   */\n      add\n        /* \"#utility.yul\":29934:29940   */\n      dup5\n        /* \"#utility.yul\":29890:29962   */\n      tag_210\n      jump\t// in\n    tag_534:\n        /* \"#utility.yul\":29527:29969   */\n      swap5\n      swap4\n      pop\n      pop\n      pop\n      pop\n      jump\t// out\n        /* \"#utility.yul\":29975:30061   */\n    tag_259:\n        /* \"#utility.yul\":30010:30017   */\n      0x00\n        /* \"#utility.yul\":30050:30054   */\n      0xff\n        /* \"#utility.yul\":30043:30048   */\n      dup3\n        /* \"#utility.yul\":30039:30055   */\n      and\n        /* \"#utility.yul\":30028:30055   */\n      swap1\n      pop\n        /* \"#utility.yul\":29975:30061   */\n      swap2\n      swap1\n      pop\n      jump\t// out\n        /* \"#utility.yul\":30067:30255   */\n    tag_179:\n        /* \"#utility.yul\":30105:30108   */\n      0x00\n        /* \"#utility.yul\":30124:30142   */\n      tag_537\n        /* \"#utility.yul\":30140:30141   */\n      dup3\n        /* \"#utility.yul\":30124:30142   */\n      tag_259\n      jump\t// in\n    tag_537:\n        /* \"#utility.yul\":30119:30142   */\n      swap2\n      pop\n        /* \"#utility.yul\":30156:30174   */\n      tag_538\n        /* \"#utility.yul\":30172:30173   */\n      dup4\n        /* \"#utility.yul\":30156:30174   */\n      tag_259\n      jump\t// in\n    tag_538:\n        /* \"#utility.yul\":30151:30174   */\n      swap3\n      pop\n        /* \"#utility.yul\":30197:30198   */\n      dup3\n        /* \"#utility.yul\":30194:30195   */\n      dup3\n        /* \"#utility.yul\":30190:30199   */\n      add\n        /* \"#utility.yul\":30183:30199   */\n      swap1\n      pop\n        /* \"#utility.yul\":30220:30224   */\n      0xff\n        /* \"#utility.yul\":30215:30218   */\n      dup2\n        /* \"#utility.yul\":30212:30225   */\n      gt\n        /* \"#utility.yul\":30209:30248   */\n      iszero\n      tag_539\n      jumpi\n        /* \"#utility.yul\":30228:30246   */\n      tag_540\n      tag_239\n      jump\t// in\n    tag_540:\n        /* \"#utility.yul\":30209:30248   */\n    tag_539:\n        /* \"#utility.yul\":30067:30255   */\n      swap3\n      swap2\n      pop\n      pop\n      jump\t// out\n        /* \"#utility.yul\":30261:30373   */\n    tag_260:\n        /* \"#utility.yul\":30344:30366   */\n      tag_542\n        /* \"#utility.yul\":30360:30365   */\n      dup2\n        /* \"#utility.yul\":30344:30366   */\n      tag_259\n      jump\t// in\n    tag_542:\n        /* \"#utility.yul\":30339:30342   */\n      dup3\n        /* \"#utility.yul\":30332:30367   */\n      mstore\n        /* \"#utility.yul\":30261:30373   */\n      pop\n      pop\n      jump\t// out\n        /* \"#utility.yul\":30379:30924   */\n    tag_181:\n        /* \"#utility.yul\":30552:30556   */\n      0x00\n        /* \"#utility.yul\":30590:30593   */\n      0x80\n        /* \"#utility.yul\":30579:30588   */\n      dup3\n        /* \"#utility.yul\":30575:30594   */\n      add\n        /* \"#utility.yul\":30567:30594   */\n      swap1\n      pop\n        /* \"#utility.yul\":30604:30675   */\n      tag_544\n        /* \"#utility.yul\":30672:30673   */\n      0x00\n        /* \"#utility.yul\":30661:30670   */\n      dup4\n        /* \"#utility.yul\":30657:30674   */\n      add\n        /* \"#utility.yul\":30648:30654   */\n      dup8\n        /* \"#utility.yul\":30604:30675   */\n      tag_229\n      jump\t// in\n    tag_544:\n        /* \"#utility.yul\":30685:30753   */\n      tag_545\n        /* \"#utility.yul\":30749:30751   */\n      0x20\n        /* \"#utility.yul\":30738:30747   */\n      dup4\n        /* \"#utility.yul\":30734:30752   */\n      add\n        /* \"#utility.yul\":30725:30731   */\n      dup7\n        /* \"#utility.yul\":30685:30753   */\n      tag_260\n      jump\t// in\n    tag_545:\n        /* \"#utility.yul\":30763:30835   */\n      tag_546\n        /* \"#utility.yul\":30831:30833   */\n      0x40\n        /* \"#utility.yul\":30820:30829   */\n      dup4\n        /* \"#utility.yul\":30816:30834   */\n      add\n        /* \"#utility.yul\":30807:30813   */\n      dup6\n        /* \"#utility.yul\":30763:30835   */\n      tag_229\n      jump\t// in\n    tag_546:\n        /* \"#utility.yul\":30845:30917   */\n      tag_547\n        /* \"#utility.yul\":30913:30915   */\n      0x60\n        /* \"#utility.yul\":30902:30911   */\n      dup4\n        /* \"#utility.yul\":30898:30916   */\n      add\n        /* \"#utility.yul\":30889:30895   */\n      dup5\n        /* \"#utility.yul\":30845:30917   */\n      tag_229\n      jump\t// in\n    tag_547:\n        /* \"#utility.yul\":30379:30924   */\n      swap6\n      swap5\n      pop\n      pop\n      pop\n      pop\n      pop\n      jump\t// out\n    stop\n\n    sub_0: assembly {\n            /* \"NFT_market_contract.sol\":10240:14535  contract ProxyWallet {... */\n          mstore(0x40, 0x80)\n            /* \"NFT_market_contract.sol\":10751:10820  constructor(address _owner) payable {... */\n          mload(0x40)\n          sub(codesize, bytecodeSize)\n          dup1\n          bytecodeSize\n          dup4\n          codecopy\n          dup2\n          dup2\n          add\n          0x40\n          mstore\n          dup2\n          add\n          swap1\n          tag_1\n          swap2\n          swap1\n          tag_2\n          jump\t// in\n        tag_1:\n            /* \"NFT_market_contract.sol\":10806:10812  _owner */\n          dup1\n            /* \"NFT_market_contract.sol\":10798:10803  owner */\n          0x00\n          dup1\n            /* \"NFT_market_contract.sol\":10798:10812  owner = _owner */\n          0x0100\n          exp\n          dup2\n          sload\n          dup2\n          0xffffffffffffffffffffffffffffffffffffffff\n          mul\n          not\n          and\n          swap1\n          dup4\n          0xffffffffffffffffffffffffffffffffffffffff\n          and\n          mul\n          or\n          swap1\n          sstore\n          pop\n            /* \"NFT_market_contract.sol\":10751:10820  constructor(address _owner) payable {... */\n          pop\n            /* \"NFT_market_contract.sol\":10240:14535  contract ProxyWallet {... */\n          jump(tag_5)\n            /* \"#utility.yul\":88:205   */\n        tag_7:\n            /* \"#utility.yul\":197:198   */\n          0x00\n            /* \"#utility.yul\":194:195   */\n          dup1\n            /* \"#utility.yul\":187:199   */\n          revert\n            /* \"#utility.yul\":334:460   */\n        tag_9:\n            /* \"#utility.yul\":371:378   */\n          0x00\n            /* \"#utility.yul\":411:453   */\n          0xffffffffffffffffffffffffffffffffffffffff\n            /* \"#utility.yul\":404:409   */\n          dup3\n            /* \"#utility.yul\":400:454   */\n          and\n            /* \"#utility.yul\":389:454   */\n          swap1\n          pop\n            /* \"#utility.yul\":334:460   */\n          swap2\n          swap1\n          pop\n          jump\t// out\n            /* \"#utility.yul\":466:562   */\n        tag_10:\n            /* \"#utility.yul\":503:510   */\n          0x00\n            /* \"#utility.yul\":532:556   */\n          tag_19\n            /* \"#utility.yul\":550:555   */\n          dup3\n            /* \"#utility.yul\":532:556   */\n          tag_9\n          jump\t// in\n        tag_19:\n            /* \"#utility.yul\":521:556   */\n          swap1\n          pop\n            /* \"#utility.yul\":466:562   */\n          swap2\n          swap1\n          pop\n          jump\t// out\n            /* \"#utility.yul\":568:690   */\n        tag_11:\n            /* \"#utility.yul\":641:665   */\n          tag_21\n            /* \"#utility.yul\":659:664   */\n          dup2\n            /* \"#utility.yul\":641:665   */\n          tag_10\n          jump\t// in\n        tag_21:\n            /* \"#utility.yul\":634:639   */\n          dup2\n            /* \"#utility.yul\":631:666   */\n          eq\n            /* \"#utility.yul\":621:684   */\n          tag_22\n          jumpi\n            /* \"#utility.yul\":680:681   */\n          0x00\n            /* \"#utility.yul\":677:678   */\n          dup1\n            /* \"#utility.yul\":670:682   */\n          revert\n            /* \"#utility.yul\":621:684   */\n        tag_22:\n            /* \"#utility.yul\":568:690   */\n          pop\n          jump\t// out\n            /* \"#utility.yul\":696:839   */\n        tag_12:\n            /* \"#utility.yul\":753:758   */\n          0x00\n            /* \"#utility.yul\":784:790   */\n          dup2\n            /* \"#utility.yul\":778:791   */\n          mload\n            /* \"#utility.yul\":769:791   */\n          swap1\n          pop\n            /* \"#utility.yul\":800:833   */\n          tag_24\n            /* \"#utility.yul\":827:832   */\n          dup2\n            /* \"#utility.yul\":800:833   */\n          tag_11\n          jump\t// in\n        tag_24:\n            /* \"#utility.yul\":696:839   */\n          swap3\n          swap2\n          pop\n          pop\n          jump\t// out\n            /* \"#utility.yul\":845:1196   */\n        tag_2:\n            /* \"#utility.yul\":915:921   */\n          0x00\n            /* \"#utility.yul\":964:966   */\n          0x20\n            /* \"#utility.yul\":952:961   */\n          dup3\n            /* \"#utility.yul\":943:950   */\n          dup5\n            /* \"#utility.yul\":939:962   */\n          sub\n            /* \"#utility.yul\":935:967   */\n          slt\n            /* \"#utility.yul\":932:1051   */\n          iszero\n          tag_26\n          jumpi\n            /* \"#utility.yul\":970:1049   */\n          tag_27\n          tag_7\n          jump\t// in\n        tag_27:\n            /* \"#utility.yul\":932:1051   */\n        tag_26:\n            /* \"#utility.yul\":1090:1091   */\n          0x00\n            /* \"#utility.yul\":1115:1179   */\n          tag_28\n            /* \"#utility.yul\":1171:1178   */\n          dup5\n            /* \"#utility.yul\":1162:1168   */\n          dup3\n            /* \"#utility.yul\":1151:1160   */\n          dup6\n            /* \"#utility.yul\":1147:1169   */\n          add\n            /* \"#utility.yul\":1115:1179   */\n          tag_12\n          jump\t// in\n        tag_28:\n            /* \"#utility.yul\":1105:1179   */\n          swap2\n          pop\n            /* \"#utility.yul\":1061:1189   */\n          pop\n            /* \"#utility.yul\":845:1196   */\n          swap3\n          swap2\n          pop\n          pop\n          jump\t// out\n            /* \"NFT_market_contract.sol\":10240:14535  contract ProxyWallet {... */\n        tag_5:\n          dataSize(sub_0)\n          dup1\n          dataOffset(sub_0)\n          0x00\n          codecopy\n          0x00\n          return\n        stop\n\n        sub_0: assembly {\n                /* \"NFT_market_contract.sol\":10240:14535  contract ProxyWallet {... */\n              mstore(0x40, 0x80)\n              jumpi(tag_1, lt(calldatasize, 0x04))\n              shr(0xe0, calldataload(0x00))\n              dup1\n              0x8eb6a489\n              eq\n              tag_2\n              jumpi\n              dup1\n              0x9b3f3f1a\n              eq\n              tag_3\n              jumpi\n              dup1\n              0xc04d75dd\n              eq\n              tag_4\n              jumpi\n              dup1\n              0xeb41850d\n              eq\n              tag_5\n              jumpi\n            tag_1:\n              0x00\n              dup1\n              revert\n                /* \"NFT_market_contract.sol\":10376:10417  mapping(bytes32 => bool) public IsInvalid */\n            tag_2:\n              callvalue\n              dup1\n              iszero\n              tag_6\n              jumpi\n              0x00\n              dup1\n              revert\n            tag_6:\n              pop\n              tag_7\n              0x04\n              dup1\n              calldatasize\n              sub\n              dup2\n              add\n              swap1\n              tag_8\n              swap2\n              swap1\n              tag_9\n              jump\t// in\n            tag_8:\n              tag_10\n              jump\t// in\n            tag_7:\n              mload(0x40)\n              tag_11\n              swap2\n              swap1\n              tag_12\n              jump\t// in\n            tag_11:\n              mload(0x40)\n              dup1\n              swap2\n              sub\n              swap1\n              return\n                /* \"NFT_market_contract.sol\":12469:13312  function cancelOrder(SellOrder memory sellOrder) public {... */\n            tag_3:\n              callvalue\n              dup1\n              iszero\n              tag_13\n              jumpi\n              0x00\n              dup1\n              revert\n            tag_13:\n              pop\n              tag_14\n              0x04\n              dup1\n              calldatasize\n              sub\n              dup2\n              add\n              swap1\n              tag_15\n              swap2\n              swap1\n              tag_16\n              jump\t// in\n            tag_15:\n              tag_17\n              jump\t// in\n            tag_14:\n              stop\n                /* \"NFT_market_contract.sol\":11155:12441  function AtomicTx(... */\n            tag_4:\n              tag_18\n              0x04\n              dup1\n              calldatasize\n              sub\n              dup2\n              add\n              swap1\n              tag_19\n              swap2\n              swap1\n              tag_20\n              jump\t// in\n            tag_19:\n              tag_21\n              jump\t// in\n            tag_18:\n              stop\n                /* \"NFT_market_contract.sol\":11031:11147  function isOrderInvalid(bytes32 orderHash) public view returns (bool) {... */\n            tag_5:\n              callvalue\n              dup1\n              iszero\n              tag_22\n              jumpi\n              0x00\n              dup1\n              revert\n            tag_22:\n              pop\n              tag_23\n              0x04\n              dup1\n              calldatasize\n              sub\n              dup2\n              add\n              swap1\n              tag_24\n              swap2\n              swap1\n              tag_9\n              jump\t// in\n            tag_24:\n              tag_25\n              jump\t// in\n            tag_23:\n              mload(0x40)\n              tag_26\n              swap2\n              swap1\n              tag_12\n              jump\t// in\n            tag_26:\n              mload(0x40)\n              dup1\n              swap2\n              sub\n              swap1\n              return\n                /* \"NFT_market_contract.sol\":10376:10417  mapping(bytes32 => bool) public IsInvalid */\n            tag_10:\n              mstore(0x20, 0x01)\n              dup1\n              0x00\n              mstore\n              keccak256(0x00, 0x40)\n              0x00\n              swap2\n              pop\n              sload\n              swap1\n              0x0100\n              exp\n              swap1\n              div\n              0xff\n              and\n              dup2\n              jump\t// out\n                /* \"NFT_market_contract.sol\":12469:13312  function cancelOrder(SellOrder memory sellOrder) public {... */\n            tag_17:\n                /* \"NFT_market_contract.sol\":12583:12872  verifySignature(... */\n              tag_28\n                /* \"NFT_market_contract.sol\":12617:12626  sellOrder */\n              dup2\n                /* \"NFT_market_contract.sol\":12617:12633  sellOrder.seller */\n              0x00\n              add\n              mload\n                /* \"NFT_market_contract.sol\":12652:12661  sellOrder */\n              dup3\n                /* \"NFT_market_contract.sol\":12652:12672  sellOrder.contractID */\n              0x20\n              add\n              mload\n                /* \"NFT_market_contract.sol\":12691:12700  sellOrder */\n              dup4\n                /* \"NFT_market_contract.sol\":12691:12708  sellOrder.tokenID */\n              0x40\n              add\n              mload\n                /* \"NFT_market_contract.sol\":12727:12736  sellOrder */\n              dup5\n                /* \"NFT_market_contract.sol\":12727:12742  sellOrder.price */\n              0x60\n              add\n              mload\n                /* \"NFT_market_contract.sol\":12761:12770  sellOrder */\n              dup6\n                /* \"NFT_market_contract.sol\":12761:12780  sellOrder.signature */\n              0x80\n              add\n              mload\n                /* \"NFT_market_contract.sol\":12799:12808  sellOrder */\n              dup7\n                /* \"NFT_market_contract.sol\":12799:12823  sellOrder.expirationTime */\n              0xa0\n              add\n              mload\n                /* \"NFT_market_contract.sol\":12842:12851  sellOrder */\n              dup8\n                /* \"NFT_market_contract.sol\":12842:12857  sellOrder.nonce */\n              0xc0\n              add\n              mload\n                /* \"NFT_market_contract.sol\":12583:12598  verifySignature */\n              tag_29\n                /* \"NFT_market_contract.sol\":12583:12872  verifySignature(... */\n              jump\t// in\n            tag_28:\n                /* \"NFT_market_contract.sol\":12561:12917  require(... */\n              tag_30\n              jumpi\n              mload(0x40)\n              0x08c379a000000000000000000000000000000000000000000000000000000000\n              dup2\n              mstore\n              0x04\n              add\n              tag_31\n              swap1\n              tag_32\n              jump\t// in\n            tag_31:\n              mload(0x40)\n              dup1\n              swap2\n              sub\n              swap1\n              revert\n            tag_30:\n                /* \"NFT_market_contract.sol\":12928:12940  bytes32 Hash */\n              0x00\n                /* \"NFT_market_contract.sol\":13002:13011  sellOrder */\n              dup2\n                /* \"NFT_market_contract.sol\":13002:13018  sellOrder.seller */\n              0x00\n              add\n              mload\n                /* \"NFT_market_contract.sol\":13037:13046  sellOrder */\n              dup3\n                /* \"NFT_market_contract.sol\":13037:13057  sellOrder.contractID */\n              0x20\n              add\n              mload\n                /* \"NFT_market_contract.sol\":13076:13085  sellOrder */\n              dup4\n                /* \"NFT_market_contract.sol\":13076:13093  sellOrder.tokenID */\n              0x40\n              add\n              mload\n                /* \"NFT_market_contract.sol\":13112:13121  sellOrder */\n              dup5\n                /* \"NFT_market_contract.sol\":13112:13127  sellOrder.price */\n              0x60\n              add\n              mload\n                /* \"NFT_market_contract.sol\":13146:13155  sellOrder */\n              dup6\n                /* \"NFT_market_contract.sol\":13146:13170  sellOrder.expirationTime */\n              0xa0\n              add\n              mload\n                /* \"NFT_market_contract.sol\":13189:13198  sellOrder */\n              dup7\n                /* \"NFT_market_contract.sol\":13189:13204  sellOrder.nonce */\n              0xc0\n              add\n              mload\n                /* \"NFT_market_contract.sol\":12967:13219  abi.encodePacked(... */\n              add(0x20, mload(0x40))\n              tag_33\n              swap7\n              swap6\n              swap5\n              swap4\n              swap3\n              swap2\n              swap1\n              tag_34\n              jump\t// in\n            tag_33:\n              mload(0x40)\n              0x20\n              dup2\n              dup4\n              sub\n              sub\n              dup2\n              mstore\n              swap1\n              0x40\n              mstore\n                /* \"NFT_market_contract.sol\":12943:13230  keccak256(... */\n              dup1\n              mload\n              swap1\n              0x20\n              add\n              keccak256\n                /* \"NFT_market_contract.sol\":12928:13230  bytes32 Hash = keccak256(... */\n              swap1\n              pop\n                /* \"NFT_market_contract.sol\":13280:13304  markOrderCancelled(Hash) */\n              tag_35\n                /* \"NFT_market_contract.sol\":13299:13303  Hash */\n              dup2\n                /* \"NFT_market_contract.sol\":13280:13298  markOrderCancelled */\n              tag_36\n                /* \"NFT_market_contract.sol\":13280:13304  markOrderCancelled(Hash) */\n              jump\t// in\n            tag_35:\n                /* \"NFT_market_contract.sol\":12525:13312  {... */\n              pop\n                /* \"NFT_market_contract.sol\":12469:13312  function cancelOrder(SellOrder memory sellOrder) public {... */\n              pop\n              jump\t// out\n                /* \"NFT_market_contract.sol\":11155:12441  function AtomicTx(... */\n            tag_21:\n                /* \"NFT_market_contract.sol\":11267:11279  bytes32 Hash */\n              0x00\n                /* \"NFT_market_contract.sol\":11341:11350  sellOrder */\n              dup3\n                /* \"NFT_market_contract.sol\":11341:11357  sellOrder.seller */\n              0x00\n              add\n              mload\n                /* \"NFT_market_contract.sol\":11376:11385  sellOrder */\n              dup4\n                /* \"NFT_market_contract.sol\":11376:11396  sellOrder.contractID */\n              0x20\n              add\n              mload\n                /* \"NFT_market_contract.sol\":11415:11424  sellOrder */\n              dup5\n                /* \"NFT_market_contract.sol\":11415:11432  sellOrder.tokenID */\n              0x40\n              add\n              mload\n                /* \"NFT_market_contract.sol\":11451:11460  sellOrder */\n              dup6\n                /* \"NFT_market_contract.sol\":11451:11466  sellOrder.price */\n              0x60\n              add\n              mload\n                /* \"NFT_market_contract.sol\":11485:11494  sellOrder */\n              dup7\n                /* \"NFT_market_contract.sol\":11485:11509  sellOrder.expirationTime */\n              0xa0\n              add\n              mload\n                /* \"NFT_market_contract.sol\":11528:11537  sellOrder */\n              dup8\n                /* \"NFT_market_contract.sol\":11528:11543  sellOrder.nonce */\n              0xc0\n              add\n              mload\n                /* \"NFT_market_contract.sol\":11306:11558  abi.encodePacked(... */\n              add(0x20, mload(0x40))\n              tag_38\n              swap7\n              swap6\n              swap5\n              swap4\n              swap3\n              swap2\n              swap1\n              tag_34\n              jump\t// in\n            tag_38:\n              mload(0x40)\n              0x20\n              dup2\n              dup4\n              sub\n              sub\n              dup2\n              mstore\n              swap1\n              0x40\n              mstore\n                /* \"NFT_market_contract.sol\":11282:11569  keccak256(... */\n              dup1\n              mload\n              swap1\n              0x20\n              add\n              keccak256\n                /* \"NFT_market_contract.sol\":11267:11569  bytes32 Hash = keccak256(... */\n              swap1\n              pop\n                /* \"NFT_market_contract.sol\":11633:11642  IsInvalid */\n              0x01\n                /* \"NFT_market_contract.sol\":11633:11648  IsInvalid[Hash] */\n              0x00\n                /* \"NFT_market_contract.sol\":11643:11647  Hash */\n              dup3\n                /* \"NFT_market_contract.sol\":11633:11648  IsInvalid[Hash] */\n              dup2\n              mstore\n              0x20\n              add\n              swap1\n              dup2\n              mstore\n              0x20\n              add\n              0x00\n              keccak256\n              0x00\n              swap1\n              sload\n              swap1\n              0x0100\n              exp\n              swap1\n              div\n              0xff\n              and\n                /* \"NFT_market_contract.sol\":11632:11648  !IsInvalid[Hash] */\n              iszero\n                /* \"NFT_market_contract.sol\":11624:11672  require(!IsInvalid[Hash], \"Order has been used\") */\n              tag_39\n              jumpi\n              mload(0x40)\n              0x08c379a000000000000000000000000000000000000000000000000000000000\n              dup2\n              mstore\n              0x04\n              add\n              tag_40\n              swap1\n              tag_41\n              jump\t// in\n            tag_40:\n              mload(0x40)\n              dup1\n              swap2\n              sub\n              swap1\n              revert\n            tag_39:\n                /* \"NFT_market_contract.sol\":11731:12020  verifySignature(... */\n              tag_42\n                /* \"NFT_market_contract.sol\":11765:11774  sellOrder */\n              dup4\n                /* \"NFT_market_contract.sol\":11765:11781  sellOrder.seller */\n              0x00\n              add\n              mload\n                /* \"NFT_market_contract.sol\":11800:11809  sellOrder */\n              dup5\n                /* \"NFT_market_contract.sol\":11800:11820  sellOrder.contractID */\n              0x20\n              add\n              mload\n                /* \"NFT_market_contract.sol\":11839:11848  sellOrder */\n              dup6\n                /* \"NFT_market_contract.sol\":11839:11856  sellOrder.tokenID */\n              0x40\n              add\n              mload\n                /* \"NFT_market_contract.sol\":11875:11884  sellOrder */\n              dup7\n                /* \"NFT_market_contract.sol\":11875:11890  sellOrder.price */\n              0x60\n              add\n              mload\n                /* \"NFT_market_contract.sol\":11909:11918  sellOrder */\n              dup8\n                /* \"NFT_market_contract.sol\":11909:11928  sellOrder.signature */\n              0x80\n              add\n              mload\n                /* \"NFT_market_contract.sol\":11947:11956  sellOrder */\n              dup9\n                /* \"NFT_market_contract.sol\":11947:11971  sellOrder.expirationTime */\n              0xa0\n              add\n              mload\n                /* \"NFT_market_contract.sol\":11990:11999  sellOrder */\n              dup10\n                /* \"NFT_market_contract.sol\":11990:12005  sellOrder.nonce */\n              0xc0\n              add\n              mload\n                /* \"NFT_market_contract.sol\":11731:11746  verifySignature */\n              tag_29\n                /* \"NFT_market_contract.sol\":11731:12020  verifySignature(... */\n              jump\t// in\n            tag_42:\n                /* \"NFT_market_contract.sol\":11709:12065  require(... */\n              tag_43\n              jumpi\n              mload(0x40)\n              0x08c379a000000000000000000000000000000000000000000000000000000000\n              dup2\n              mstore\n              0x04\n              add\n              tag_44\n              swap1\n              tag_32\n              jump\t// in\n            tag_44:\n              mload(0x40)\n              dup1\n              swap2\n              sub\n              swap1\n              revert\n            tag_43:\n                /* \"NFT_market_contract.sol\":12168:12177  sellOrder */\n              dup3\n                /* \"NFT_market_contract.sol\":12168:12188  sellOrder.contractID */\n              0x20\n              add\n              mload\n                /* \"NFT_market_contract.sol\":12160:12202  IERC721(sellOrder.contractID).transferFrom */\n              0xffffffffffffffffffffffffffffffffffffffff\n              and\n              0x23b872dd\n                /* \"NFT_market_contract.sol\":12221:12230  sellOrder */\n              dup5\n                /* \"NFT_market_contract.sol\":12221:12237  sellOrder.seller */\n              0x00\n              add\n              mload\n                /* \"NFT_market_contract.sol\":12256:12261  buyer */\n              dup5\n                /* \"NFT_market_contract.sol\":12280:12289  sellOrder */\n              dup7\n                /* \"NFT_market_contract.sol\":12280:12297  sellOrder.tokenID */\n              0x40\n              add\n              mload\n                /* \"NFT_market_contract.sol\":12160:12312  IERC721(sellOrder.contractID).transferFrom(... */\n              mload(0x40)\n              dup5\n              0xffffffff\n              and\n              0xe0\n              shl\n              dup2\n              mstore\n              0x04\n              add\n              tag_45\n              swap4\n              swap3\n              swap2\n              swap1\n              tag_46\n              jump\t// in\n            tag_45:\n              0x00\n              mload(0x40)\n              dup1\n              dup4\n              sub\n              dup2\n              0x00\n              dup8\n              dup1\n              extcodesize\n              iszero\n              dup1\n              iszero\n              tag_47\n              jumpi\n              0x00\n              dup1\n              revert\n            tag_47:\n              pop\n              gas\n              call\n              swap3\n              pop\n              pop\n              pop\n              dup1\n              iszero\n              tag_48\n              jumpi\n              pop\n              0x01\n            tag_48:\n                /* \"NFT_market_contract.sol\":12143:12434  try... */\n              tag_49\n              jumpi\n                /* \"NFT_market_contract.sol\":12416:12423  return; */\n              pop\n              jump(tag_37)\n                /* \"NFT_market_contract.sol\":12143:12434  try... */\n            tag_49:\n                /* \"NFT_market_contract.sol\":12337:12361  markOrderCancelled(Hash) */\n              tag_54\n                /* \"NFT_market_contract.sol\":12356:12360  Hash */\n              dup2\n                /* \"NFT_market_contract.sol\":12337:12355  markOrderCancelled */\n              tag_36\n                /* \"NFT_market_contract.sol\":12337:12361  markOrderCancelled(Hash) */\n              jump\t// in\n            tag_54:\n                /* \"NFT_market_contract.sol\":12376:12383  return; */\n              pop\n                /* \"NFT_market_contract.sol\":11155:12441  function AtomicTx(... */\n            tag_37:\n              pop\n              pop\n              jump\t// out\n                /* \"NFT_market_contract.sol\":11031:11147  function isOrderInvalid(bytes32 orderHash) public view returns (bool) {... */\n            tag_25:\n                /* \"NFT_market_contract.sol\":11095:11099  bool */\n              0x00\n                /* \"NFT_market_contract.sol\":11119:11128  IsInvalid */\n              0x01\n                /* \"NFT_market_contract.sol\":11119:11139  IsInvalid[orderHash] */\n              0x00\n                /* \"NFT_market_contract.sol\":11129:11138  orderHash */\n              dup4\n                /* \"NFT_market_contract.sol\":11119:11139  IsInvalid[orderHash] */\n              dup2\n              mstore\n              0x20\n              add\n              swap1\n              dup2\n              mstore\n              0x20\n              add\n              0x00\n              keccak256\n              0x00\n              swap1\n              sload\n              swap1\n              0x0100\n              exp\n              swap1\n              div\n              0xff\n              and\n                /* \"NFT_market_contract.sol\":11112:11139  return IsInvalid[orderHash] */\n              swap1\n              pop\n                /* \"NFT_market_contract.sol\":11031:11147  function isOrderInvalid(bytes32 orderHash) public view returns (bool) {... */\n              swap2\n              swap1\n              pop\n              jump\t// out\n                /* \"NFT_market_contract.sol\":13361:14064  function verifySignature(... */\n            tag_29:\n                /* \"NFT_market_contract.sol\":13610:13614  bool */\n              0x00\n                /* \"NFT_market_contract.sol\":13627:13639  bytes32 hash */\n              dup1\n                /* \"NFT_market_contract.sol\":13701:13707  seller */\n              dup9\n                /* \"NFT_market_contract.sol\":13726:13736  contractID */\n              dup9\n                /* \"NFT_market_contract.sol\":13755:13762  tokenID */\n              dup9\n                /* \"NFT_market_contract.sol\":13781:13786  price */\n              dup9\n                /* \"NFT_market_contract.sol\":13805:13819  expirationTime */\n              dup8\n                /* \"NFT_market_contract.sol\":13838:13843  nonce */\n              dup8\n                /* \"NFT_market_contract.sol\":13666:13858  abi.encodePacked(... */\n              add(0x20, mload(0x40))\n              tag_57\n              swap7\n              swap6\n              swap5\n              swap4\n              swap3\n              swap2\n              swap1\n              tag_34\n              jump\t// in\n            tag_57:\n              mload(0x40)\n              0x20\n              dup2\n              dup4\n              sub\n              sub\n              dup2\n              mstore\n              swap1\n              0x40\n              mstore\n                /* \"NFT_market_contract.sol\":13642:13869  keccak256(... */\n              dup1\n              mload\n              swap1\n              0x20\n              add\n              keccak256\n                /* \"NFT_market_contract.sol\":13627:13869  bytes32 hash = keccak256(... */\n              swap1\n              pop\n                /* \"NFT_market_contract.sol\":13880:13897  bytes32 OrderHash */\n              0x00\n                /* \"NFT_market_contract.sol\":13977:13981  hash */\n              dup2\n                /* \"NFT_market_contract.sol\":13924:13982  abi.encodePacked(\"\\x19Ethereum Signed Message:\\n32\", hash) */\n              add(0x20, mload(0x40))\n              tag_58\n              swap2\n              swap1\n              tag_59\n              jump\t// in\n            tag_58:\n              mload(0x40)\n              0x20\n              dup2\n              dup4\n              sub\n              sub\n              dup2\n              mstore\n              swap1\n              0x40\n              mstore\n                /* \"NFT_market_contract.sol\":13900:13993  keccak256(... */\n              dup1\n              mload\n              swap1\n              0x20\n              add\n              keccak256\n                /* \"NFT_market_contract.sol\":13880:13993  bytes32 OrderHash = keccak256(... */\n              swap1\n              pop\n                /* \"NFT_market_contract.sol\":14050:14056  seller */\n              dup10\n                /* \"NFT_market_contract.sol\":14011:14056  recoverSigner(OrderHash, signature) == seller */\n              0xffffffffffffffffffffffffffffffffffffffff\n              and\n                /* \"NFT_market_contract.sol\":14011:14046  recoverSigner(OrderHash, signature) */\n              tag_60\n                /* \"NFT_market_contract.sol\":14025:14034  OrderHash */\n              dup3\n                /* \"NFT_market_contract.sol\":14036:14045  signature */\n              dup9\n                /* \"NFT_market_contract.sol\":14011:14024  recoverSigner */\n              tag_61\n                /* \"NFT_market_contract.sol\":14011:14046  recoverSigner(OrderHash, signature) */\n              jump\t// in\n            tag_60:\n                /* \"NFT_market_contract.sol\":14011:14056  recoverSigner(OrderHash, signature) == seller */\n              0xffffffffffffffffffffffffffffffffffffffff\n              and\n              eq\n                /* \"NFT_market_contract.sol\":14004:14056  return recoverSigner(OrderHash, signature) == seller */\n              swap3\n              pop\n              pop\n              pop\n                /* \"NFT_market_contract.sol\":13361:14064  function verifySignature(... */\n              swap8\n              swap7\n              pop\n              pop\n              pop\n              pop\n              pop\n              pop\n              pop\n              jump\t// out\n                /* \"NFT_market_contract.sol\":10828:10967  function markOrderCancelled(bytes32 orderHash) internal {... */\n            tag_36:\n                /* \"NFT_market_contract.sol\":10955:10959  true */\n              0x01\n                /* \"NFT_market_contract.sol\":10932:10941  IsInvalid */\n              dup1\n                /* \"NFT_market_contract.sol\":10932:10952  IsInvalid[orderHash] */\n              0x00\n                /* \"NFT_market_contract.sol\":10942:10951  orderHash */\n              dup4\n                /* \"NFT_market_contract.sol\":10932:10952  IsInvalid[orderHash] */\n              dup2\n              mstore\n              0x20\n              add\n              swap1\n              dup2\n              mstore\n              0x20\n              add\n              0x00\n              keccak256\n              0x00\n                /* \"NFT_market_contract.sol\":10932:10959  IsInvalid[orderHash] = true */\n              0x0100\n              exp\n              dup2\n              sload\n              dup2\n              0xff\n              mul\n              not\n              and\n              swap1\n              dup4\n              iszero\n              iszero\n              mul\n              or\n              swap1\n              sstore\n              pop\n                /* \"NFT_market_contract.sol\":10828:10967  function markOrderCancelled(bytes32 orderHash) internal {... */\n              pop\n              jump\t// out\n                /* \"NFT_market_contract.sol\":14072:14532  function recoverSigner(... */\n            tag_61:\n                /* \"NFT_market_contract.sol\":14181:14188  address */\n              0x00\n                /* \"NFT_market_contract.sol\":14201:14210  bytes32 r */\n              dup1\n                /* \"NFT_market_contract.sol\":14221:14230  bytes32 s */\n              0x00\n                /* \"NFT_market_contract.sol\":14241:14248  uint8 v */\n              dup1\n                /* \"NFT_market_contract.sol\":14311:14313  32 */\n              0x20\n                /* \"NFT_market_contract.sol\":14300:14309  signature */\n              dup6\n                /* \"NFT_market_contract.sol\":14296:14314  add(signature, 32) */\n              add\n                /* \"NFT_market_contract.sol\":14290:14315  mload(add(signature, 32)) */\n              mload\n                /* \"NFT_market_contract.sol\":14285:14315  r := mload(add(signature, 32)) */\n              swap3\n              pop\n                /* \"NFT_market_contract.sol\":14355:14357  64 */\n              0x40\n                /* \"NFT_market_contract.sol\":14344:14353  signature */\n              dup6\n                /* \"NFT_market_contract.sol\":14340:14358  add(signature, 64) */\n              add\n                /* \"NFT_market_contract.sol\":14334:14359  mload(add(signature, 64)) */\n              mload\n                /* \"NFT_market_contract.sol\":14329:14359  s := mload(add(signature, 64)) */\n              swap2\n              pop\n                /* \"NFT_market_contract.sol\":14407:14409  96 */\n              0x60\n                /* \"NFT_market_contract.sol\":14396:14405  signature */\n              dup6\n                /* \"NFT_market_contract.sol\":14392:14410  add(signature, 96) */\n              add\n                /* \"NFT_market_contract.sol\":14386:14411  mload(add(signature, 96)) */\n              mload\n                /* \"NFT_market_contract.sol\":14383:14384  0 */\n              0x00\n                /* \"NFT_market_contract.sol\":14378:14412  byte(0, mload(add(signature, 96))) */\n              byte\n                /* \"NFT_market_contract.sol\":14373:14412  v := byte(0, mload(add(signature, 96))) */\n              swap1\n              pop\n                /* \"NFT_market_contract.sol\":14443:14445  27 */\n              0x1b\n                /* \"NFT_market_contract.sol\":14439:14440  v */\n              dup2\n                /* \"NFT_market_contract.sol\":14439:14445  v < 27 */\n              0xff\n              and\n              lt\n                /* \"NFT_market_contract.sol\":14435:14481  if (v < 27) {... */\n              iszero\n              tag_64\n              jumpi\n                /* \"NFT_market_contract.sol\":14467:14469  27 */\n              0x1b\n                /* \"NFT_market_contract.sol\":14462:14469  v += 27 */\n              dup2\n              tag_65\n              swap2\n              swap1\n              tag_66\n              jump\t// in\n            tag_65:\n              swap1\n              pop\n                /* \"NFT_market_contract.sol\":14435:14481  if (v < 27) {... */\n            tag_64:\n                /* \"NFT_market_contract.sol\":14500:14524  ecrecover(hash, v, r, s) */\n              0x01\n                /* \"NFT_market_contract.sol\":14510:14514  hash */\n              dup7\n                /* \"NFT_market_contract.sol\":14516:14517  v */\n              dup3\n                /* \"NFT_market_contract.sol\":14519:14520  r */\n              dup6\n                /* \"NFT_market_contract.sol\":14522:14523  s */\n              dup6\n                /* \"NFT_market_contract.sol\":14500:14524  ecrecover(hash, v, r, s) */\n              mload(0x40)\n              0x00\n              dup2\n              mstore\n              0x20\n              add\n              0x40\n              mstore\n              mload(0x40)\n              tag_67\n              swap5\n              swap4\n              swap3\n              swap2\n              swap1\n              tag_68\n              jump\t// in\n            tag_67:\n              0x20\n              mload(0x40)\n              0x20\n              dup2\n              sub\n              swap1\n              dup1\n              dup5\n              sub\n              swap1\n              dup6\n              gas\n              staticcall\n              iszero\n              dup1\n              iszero\n              tag_70\n              jumpi\n              returndatasize\n              0x00\n              dup1\n              returndatacopy\n              revert(0x00, returndatasize)\n            tag_70:\n              pop\n              pop\n              pop\n              mload(sub(mload(0x40), 0x20))\n                /* \"NFT_market_contract.sol\":14493:14524  return ecrecover(hash, v, r, s) */\n              swap4\n              pop\n              pop\n              pop\n              pop\n                /* \"NFT_market_contract.sol\":14072:14532  function recoverSigner(... */\n              swap3\n              swap2\n              pop\n              pop\n              jump\t// out\n                /* \"#utility.yul\":7:82   */\n            tag_71:\n                /* \"#utility.yul\":40:46   */\n              0x00\n                /* \"#utility.yul\":73:75   */\n              0x40\n                /* \"#utility.yul\":67:76   */\n              mload\n                /* \"#utility.yul\":57:76   */\n              swap1\n              pop\n                /* \"#utility.yul\":7:82   */\n              swap1\n              jump\t// out\n                /* \"#utility.yul\":88:205   */\n            tag_72:\n                /* \"#utility.yul\":197:198   */\n              0x00\n                /* \"#utility.yul\":194:195   */\n              dup1\n                /* \"#utility.yul\":187:199   */\n              revert\n                /* \"#utility.yul\":211:328   */\n            tag_73:\n                /* \"#utility.yul\":320:321   */\n              0x00\n                /* \"#utility.yul\":317:318   */\n              dup1\n                /* \"#utility.yul\":310:322   */\n              revert\n                /* \"#utility.yul\":334:411   */\n            tag_74:\n                /* \"#utility.yul\":371:378   */\n              0x00\n                /* \"#utility.yul\":400:405   */\n              dup2\n                /* \"#utility.yul\":389:405   */\n              swap1\n              pop\n                /* \"#utility.yul\":334:411   */\n              swap2\n              swap1\n              pop\n              jump\t// out\n                /* \"#utility.yul\":417:539   */\n            tag_75:\n                /* \"#utility.yul\":490:514   */\n              tag_127\n                /* \"#utility.yul\":508:513   */\n              dup2\n                /* \"#utility.yul\":490:514   */\n              tag_74\n              jump\t// in\n            tag_127:\n                /* \"#utility.yul\":483:488   */\n              dup2\n                /* \"#utility.yul\":480:515   */\n              eq\n                /* \"#utility.yul\":470:533   */\n              tag_128\n              jumpi\n                /* \"#utility.yul\":529:530   */\n              0x00\n                /* \"#utility.yul\":526:527   */\n              dup1\n                /* \"#utility.yul\":519:531   */\n              revert\n                /* \"#utility.yul\":470:533   */\n            tag_128:\n                /* \"#utility.yul\":417:539   */\n              pop\n              jump\t// out\n                /* \"#utility.yul\":545:684   */\n            tag_76:\n                /* \"#utility.yul\":591:596   */\n              0x00\n                /* \"#utility.yul\":629:635   */\n              dup2\n                /* \"#utility.yul\":616:636   */\n              calldataload\n                /* \"#utility.yul\":607:636   */\n              swap1\n              pop\n                /* \"#utility.yul\":645:678   */\n              tag_130\n                /* \"#utility.yul\":672:677   */\n              dup2\n                /* \"#utility.yul\":645:678   */\n              tag_75\n              jump\t// in\n            tag_130:\n                /* \"#utility.yul\":545:684   */\n              swap3\n              swap2\n              pop\n              pop\n              jump\t// out\n                /* \"#utility.yul\":690:1019   */\n            tag_9:\n                /* \"#utility.yul\":749:755   */\n              0x00\n                /* \"#utility.yul\":798:800   */\n              0x20\n                /* \"#utility.yul\":786:795   */\n              dup3\n                /* \"#utility.yul\":777:784   */\n              dup5\n                /* \"#utility.yul\":773:796   */\n              sub\n                /* \"#utility.yul\":769:801   */\n              slt\n                /* \"#utility.yul\":766:885   */\n              iszero\n              tag_132\n              jumpi\n                /* \"#utility.yul\":804:883   */\n              tag_133\n              tag_72\n              jump\t// in\n            tag_133:\n                /* \"#utility.yul\":766:885   */\n            tag_132:\n                /* \"#utility.yul\":924:925   */\n              0x00\n                /* \"#utility.yul\":949:1002   */\n              tag_134\n                /* \"#utility.yul\":994:1001   */\n              dup5\n                /* \"#utility.yul\":985:991   */\n              dup3\n                /* \"#utility.yul\":974:983   */\n              dup6\n                /* \"#utility.yul\":970:992   */\n              add\n                /* \"#utility.yul\":949:1002   */\n              tag_76\n              jump\t// in\n            tag_134:\n                /* \"#utility.yul\":939:1002   */\n              swap2\n              pop\n                /* \"#utility.yul\":895:1012   */\n              pop\n                /* \"#utility.yul\":690:1019   */\n              swap3\n              swap2\n              pop\n              pop\n              jump\t// out\n                /* \"#utility.yul\":1025:1115   */\n            tag_77:\n                /* \"#utility.yul\":1059:1066   */\n              0x00\n                /* \"#utility.yul\":1102:1107   */\n              dup2\n                /* \"#utility.yul\":1095:1108   */\n              iszero\n                /* \"#utility.yul\":1088:1109   */\n              iszero\n                /* \"#utility.yul\":1077:1109   */\n              swap1\n              pop\n                /* \"#utility.yul\":1025:1115   */\n              swap2\n              swap1\n              pop\n              jump\t// out\n                /* \"#utility.yul\":1121:1230   */\n            tag_78:\n                /* \"#utility.yul\":1202:1223   */\n              tag_137\n                /* \"#utility.yul\":1217:1222   */\n              dup2\n                /* \"#utility.yul\":1202:1223   */\n              tag_77\n              jump\t// in\n            tag_137:\n                /* \"#utility.yul\":1197:1200   */\n              dup3\n                /* \"#utility.yul\":1190:1224   */\n              mstore\n                /* \"#utility.yul\":1121:1230   */\n              pop\n              pop\n              jump\t// out\n                /* \"#utility.yul\":1236:1446   */\n            tag_12:\n                /* \"#utility.yul\":1323:1327   */\n              0x00\n                /* \"#utility.yul\":1361:1363   */\n              0x20\n                /* \"#utility.yul\":1350:1359   */\n              dup3\n                /* \"#utility.yul\":1346:1364   */\n              add\n                /* \"#utility.yul\":1338:1364   */\n              swap1\n              pop\n                /* \"#utility.yul\":1374:1439   */\n              tag_139\n                /* \"#utility.yul\":1436:1437   */\n              0x00\n                /* \"#utility.yul\":1425:1434   */\n              dup4\n                /* \"#utility.yul\":1421:1438   */\n              add\n                /* \"#utility.yul\":1412:1418   */\n              dup5\n                /* \"#utility.yul\":1374:1439   */\n              tag_78\n              jump\t// in\n            tag_139:\n                /* \"#utility.yul\":1236:1446   */\n              swap3\n              swap2\n              pop\n              pop\n              jump\t// out\n                /* \"#utility.yul\":1452:1569   */\n            tag_79:\n                /* \"#utility.yul\":1561:1562   */\n              0x00\n                /* \"#utility.yul\":1558:1559   */\n              dup1\n                /* \"#utility.yul\":1551:1563   */\n              revert\n                /* \"#utility.yul\":1575:1677   */\n            tag_80:\n                /* \"#utility.yul\":1616:1622   */\n              0x00\n                /* \"#utility.yul\":1667:1669   */\n              0x1f\n                /* \"#utility.yul\":1663:1670   */\n              not\n                /* \"#utility.yul\":1658:1660   */\n              0x1f\n                /* \"#utility.yul\":1651:1656   */\n              dup4\n                /* \"#utility.yul\":1647:1661   */\n              add\n                /* \"#utility.yul\":1643:1671   */\n              and\n                /* \"#utility.yul\":1633:1671   */\n              swap1\n              pop\n                /* \"#utility.yul\":1575:1677   */\n              swap2\n              swap1\n              pop\n              jump\t// out\n                /* \"#utility.yul\":1683:1863   */\n            tag_81:\n                /* \"#utility.yul\":1731:1808   */\n              0x4e487b7100000000000000000000000000000000000000000000000000000000\n                /* \"#utility.yul\":1728:1729   */\n              0x00\n                /* \"#utility.yul\":1721:1809   */\n              mstore\n                /* \"#utility.yul\":1828:1832   */\n              0x41\n                /* \"#utility.yul\":1825:1826   */\n              0x04\n                /* \"#utility.yul\":1818:1833   */\n              mstore\n                /* \"#utility.yul\":1852:1856   */\n              0x24\n                /* \"#utility.yul\":1849:1850   */\n              0x00\n                /* \"#utility.yul\":1842:1857   */\n              revert\n                /* \"#utility.yul\":1869:2150   */\n            tag_82:\n                /* \"#utility.yul\":1952:1979   */\n              tag_144\n                /* \"#utility.yul\":1974:1978   */\n              dup3\n                /* \"#utility.yul\":1952:1979   */\n              tag_80\n              jump\t// in\n            tag_144:\n                /* \"#utility.yul\":1944:1950   */\n              dup2\n                /* \"#utility.yul\":1940:1980   */\n              add\n                /* \"#utility.yul\":2082:2088   */\n              dup2\n                /* \"#utility.yul\":2070:2080   */\n              dup2\n                /* \"#utility.yul\":2067:2089   */\n              lt\n                /* \"#utility.yul\":2046:2064   */\n              0xffffffffffffffff\n                /* \"#utility.yul\":2034:2044   */\n              dup3\n                /* \"#utility.yul\":2031:2065   */\n              gt\n                /* \"#utility.yul\":2028:2090   */\n              or\n                /* \"#utility.yul\":2025:2113   */\n              iszero\n              tag_145\n              jumpi\n                /* \"#utility.yul\":2093:2111   */\n              tag_146\n              tag_81\n              jump\t// in\n            tag_146:\n                /* \"#utility.yul\":2025:2113   */\n            tag_145:\n                /* \"#utility.yul\":2133:2143   */\n              dup1\n                /* \"#utility.yul\":2129:2131   */\n              0x40\n                /* \"#utility.yul\":2122:2144   */\n              mstore\n                /* \"#utility.yul\":1912:2150   */\n              pop\n                /* \"#utility.yul\":1869:2150   */\n              pop\n              pop\n              jump\t// out\n                /* \"#utility.yul\":2156:2285   */\n            tag_83:\n                /* \"#utility.yul\":2190:2196   */\n              0x00\n                /* \"#utility.yul\":2217:2237   */\n              tag_148\n              tag_71\n              jump\t// in\n            tag_148:\n                /* \"#utility.yul\":2207:2237   */\n              swap1\n              pop\n                /* \"#utility.yul\":2246:2279   */\n              tag_149\n                /* \"#utility.yul\":2274:2278   */\n              dup3\n                /* \"#utility.yul\":2266:2272   */\n              dup3\n                /* \"#utility.yul\":2246:2279   */\n              tag_82\n              jump\t// in\n            tag_149:\n                /* \"#utility.yul\":2156:2285   */\n              swap2\n              swap1\n              pop\n              jump\t// out\n                /* \"#utility.yul\":2291:2408   */\n            tag_84:\n                /* \"#utility.yul\":2400:2401   */\n              0x00\n                /* \"#utility.yul\":2397:2398   */\n              dup1\n                /* \"#utility.yul\":2390:2402   */\n              revert\n                /* \"#utility.yul\":2414:2540   */\n            tag_85:\n                /* \"#utility.yul\":2451:2458   */\n              0x00\n                /* \"#utility.yul\":2491:2533   */\n              0xffffffffffffffffffffffffffffffffffffffff\n                /* \"#utility.yul\":2484:2489   */\n              dup3\n                /* \"#utility.yul\":2480:2534   */\n              and\n                /* \"#utility.yul\":2469:2534   */\n              swap1\n              pop\n                /* \"#utility.yul\":2414:2540   */\n              swap2\n              swap1\n              pop\n              jump\t// out\n                /* \"#utility.yul\":2546:2642   */\n            tag_86:\n                /* \"#utility.yul\":2583:2590   */\n              0x00\n                /* \"#utility.yul\":2612:2636   */\n              tag_153\n                /* \"#utility.yul\":2630:2635   */\n              dup3\n                /* \"#utility.yul\":2612:2636   */\n              tag_85\n              jump\t// in\n            tag_153:\n                /* \"#utility.yul\":2601:2636   */\n              swap1\n              pop\n                /* \"#utility.yul\":2546:2642   */\n              swap2\n              swap1\n              pop\n              jump\t// out\n                /* \"#utility.yul\":2648:2770   */\n            tag_87:\n                /* \"#utility.yul\":2721:2745   */\n              tag_155\n                /* \"#utility.yul\":2739:2744   */\n              dup2\n                /* \"#utility.yul\":2721:2745   */\n              tag_86\n              jump\t// in\n            tag_155:\n                /* \"#utility.yul\":2714:2719   */\n              dup2\n                /* \"#utility.yul\":2711:2746   */\n              eq\n                /* \"#utility.yul\":2701:2764   */\n              tag_156\n              jumpi\n                /* \"#utility.yul\":2760:2761   */\n              0x00\n                /* \"#utility.yul\":2757:2758   */\n              dup1\n                /* \"#utility.yul\":2750:2762   */\n              revert\n                /* \"#utility.yul\":2701:2764   */\n            tag_156:\n                /* \"#utility.yul\":2648:2770   */\n              pop\n              jump\t// out\n                /* \"#utility.yul\":2776:2915   */\n            tag_88:\n                /* \"#utility.yul\":2822:2827   */\n              0x00\n                /* \"#utility.yul\":2860:2866   */\n              dup2\n                /* \"#utility.yul\":2847:2867   */\n              calldataload\n                /* \"#utility.yul\":2838:2867   */\n              swap1\n              pop\n                /* \"#utility.yul\":2876:2909   */\n              tag_158\n                /* \"#utility.yul\":2903:2908   */\n              dup2\n                /* \"#utility.yul\":2876:2909   */\n              tag_87\n              jump\t// in\n            tag_158:\n                /* \"#utility.yul\":2776:2915   */\n              swap3\n              swap2\n              pop\n              pop\n              jump\t// out\n                /* \"#utility.yul\":2921:2998   */\n            tag_89:\n                /* \"#utility.yul\":2958:2965   */\n              0x00\n                /* \"#utility.yul\":2987:2992   */\n              dup2\n                /* \"#utility.yul\":2976:2992   */\n              swap1\n              pop\n                /* \"#utility.yul\":2921:2998   */\n              swap2\n              swap1\n              pop\n              jump\t// out\n                /* \"#utility.yul\":3004:3126   */\n            tag_90:\n                /* \"#utility.yul\":3077:3101   */\n              tag_161\n                /* \"#utility.yul\":3095:3100   */\n              dup2\n                /* \"#utility.yul\":3077:3101   */\n              tag_89\n              jump\t// in\n            tag_161:\n                /* \"#utility.yul\":3070:3075   */\n              dup2\n                /* \"#utility.yul\":3067:3102   */\n              eq\n                /* \"#utility.yul\":3057:3120   */\n              tag_162\n              jumpi\n                /* \"#utility.yul\":3116:3117   */\n              0x00\n                /* \"#utility.yul\":3113:3114   */\n              dup1\n                /* \"#utility.yul\":3106:3118   */\n              revert\n                /* \"#utility.yul\":3057:3120   */\n            tag_162:\n                /* \"#utility.yul\":3004:3126   */\n              pop\n              jump\t// out\n                /* \"#utility.yul\":3132:3271   */\n            tag_91:\n                /* \"#utility.yul\":3178:3183   */\n              0x00\n                /* \"#utility.yul\":3216:3222   */\n              dup2\n                /* \"#utility.yul\":3203:3223   */\n              calldataload\n                /* \"#utility.yul\":3194:3223   */\n              swap1\n              pop\n                /* \"#utility.yul\":3232:3265   */\n              tag_164\n                /* \"#utility.yul\":3259:3264   */\n              dup2\n                /* \"#utility.yul\":3232:3265   */\n              tag_90\n              jump\t// in\n            tag_164:\n                /* \"#utility.yul\":3132:3271   */\n              swap3\n              swap2\n              pop\n              pop\n              jump\t// out\n                /* \"#utility.yul\":3277:3394   */\n            tag_92:\n                /* \"#utility.yul\":3386:3387   */\n              0x00\n                /* \"#utility.yul\":3383:3384   */\n              dup1\n                /* \"#utility.yul\":3376:3388   */\n              revert\n                /* \"#utility.yul\":3400:3517   */\n            tag_93:\n                /* \"#utility.yul\":3509:3510   */\n              0x00\n                /* \"#utility.yul\":3506:3507   */\n              dup1\n                /* \"#utility.yul\":3499:3511   */\n              revert\n                /* \"#utility.yul\":3523:3830   */\n            tag_94:\n                /* \"#utility.yul\":3584:3588   */\n              0x00\n                /* \"#utility.yul\":3674:3692   */\n              0xffffffffffffffff\n                /* \"#utility.yul\":3666:3672   */\n              dup3\n                /* \"#utility.yul\":3663:3693   */\n              gt\n                /* \"#utility.yul\":3660:3716   */\n              iszero\n              tag_168\n              jumpi\n                /* \"#utility.yul\":3696:3714   */\n              tag_169\n              tag_81\n              jump\t// in\n            tag_169:\n                /* \"#utility.yul\":3660:3716   */\n            tag_168:\n                /* \"#utility.yul\":3734:3763   */\n              tag_170\n                /* \"#utility.yul\":3756:3762   */\n              dup3\n                /* \"#utility.yul\":3734:3763   */\n              tag_80\n              jump\t// in\n            tag_170:\n                /* \"#utility.yul\":3726:3763   */\n              swap1\n              pop\n                /* \"#utility.yul\":3818:3822   */\n              0x20\n                /* \"#utility.yul\":3812:3816   */\n              dup2\n                /* \"#utility.yul\":3808:3823   */\n              add\n                /* \"#utility.yul\":3800:3823   */\n              swap1\n              pop\n                /* \"#utility.yul\":3523:3830   */\n              swap2\n              swap1\n              pop\n              jump\t// out\n                /* \"#utility.yul\":3836:3982   */\n            tag_95:\n                /* \"#utility.yul\":3933:3939   */\n              dup3\n                /* \"#utility.yul\":3928:3931   */\n              dup2\n                /* \"#utility.yul\":3923:3926   */\n              dup4\n                /* \"#utility.yul\":3910:3940   */\n              calldatacopy\n                /* \"#utility.yul\":3974:3975   */\n              0x00\n                /* \"#utility.yul\":3965:3971   */\n              dup4\n                /* \"#utility.yul\":3960:3963   */\n              dup4\n                /* \"#utility.yul\":3956:3972   */\n              add\n                /* \"#utility.yul\":3949:3976   */\n              mstore\n                /* \"#utility.yul\":3836:3982   */\n              pop\n              pop\n              pop\n              jump\t// out\n                /* \"#utility.yul\":3988:4411   */\n            tag_96:\n                /* \"#utility.yul\":4065:4070   */\n              0x00\n                /* \"#utility.yul\":4090:4155   */\n              tag_173\n                /* \"#utility.yul\":4106:4154   */\n              tag_174\n                /* \"#utility.yul\":4147:4153   */\n              dup5\n                /* \"#utility.yul\":4106:4154   */\n              tag_94\n              jump\t// in\n            tag_174:\n                /* \"#utility.yul\":4090:4155   */\n              tag_83\n              jump\t// in\n            tag_173:\n                /* \"#utility.yul\":4081:4155   */\n              swap1\n              pop\n                /* \"#utility.yul\":4178:4184   */\n              dup3\n                /* \"#utility.yul\":4171:4176   */\n              dup2\n                /* \"#utility.yul\":4164:4185   */\n              mstore\n                /* \"#utility.yul\":4216:4220   */\n              0x20\n                /* \"#utility.yul\":4209:4214   */\n              dup2\n                /* \"#utility.yul\":4205:4221   */\n              add\n                /* \"#utility.yul\":4254:4257   */\n              dup5\n                /* \"#utility.yul\":4245:4251   */\n              dup5\n                /* \"#utility.yul\":4240:4243   */\n              dup5\n                /* \"#utility.yul\":4236:4252   */\n              add\n                /* \"#utility.yul\":4233:4258   */\n              gt\n                /* \"#utility.yul\":4230:4342   */\n              iszero\n              tag_175\n              jumpi\n                /* \"#utility.yul\":4261:4340   */\n              tag_176\n              tag_93\n              jump\t// in\n            tag_176:\n                /* \"#utility.yul\":4230:4342   */\n            tag_175:\n                /* \"#utility.yul\":4351:4405   */\n              tag_177\n                /* \"#utility.yul\":4398:4404   */\n              dup5\n                /* \"#utility.yul\":4393:4396   */\n              dup3\n                /* \"#utility.yul\":4388:4391   */\n              dup6\n                /* \"#utility.yul\":4351:4405   */\n              tag_95\n              jump\t// in\n            tag_177:\n                /* \"#utility.yul\":4071:4411   */\n              pop\n                /* \"#utility.yul\":3988:4411   */\n              swap4\n              swap3\n              pop\n              pop\n              pop\n              jump\t// out\n                /* \"#utility.yul\":4430:4768   */\n            tag_97:\n                /* \"#utility.yul\":4485:4490   */\n              0x00\n                /* \"#utility.yul\":4534:4537   */\n              dup3\n                /* \"#utility.yul\":4527:4531   */\n              0x1f\n                /* \"#utility.yul\":4519:4525   */\n              dup4\n                /* \"#utility.yul\":4515:4532   */\n              add\n                /* \"#utility.yul\":4511:4538   */\n              slt\n                /* \"#utility.yul\":4501:4623   */\n              tag_179\n              jumpi\n                /* \"#utility.yul\":4542:4621   */\n              tag_180\n              tag_92\n              jump\t// in\n            tag_180:\n                /* \"#utility.yul\":4501:4623   */\n            tag_179:\n                /* \"#utility.yul\":4659:4665   */\n              dup2\n                /* \"#utility.yul\":4646:4666   */\n              calldataload\n                /* \"#utility.yul\":4684:4762   */\n              tag_181\n                /* \"#utility.yul\":4758:4761   */\n              dup5\n                /* \"#utility.yul\":4750:4756   */\n              dup3\n                /* \"#utility.yul\":4743:4747   */\n              0x20\n                /* \"#utility.yul\":4735:4741   */\n              dup7\n                /* \"#utility.yul\":4731:4748   */\n              add\n                /* \"#utility.yul\":4684:4762   */\n              tag_96\n              jump\t// in\n            tag_181:\n                /* \"#utility.yul\":4675:4762   */\n              swap2\n              pop\n                /* \"#utility.yul\":4491:4768   */\n              pop\n                /* \"#utility.yul\":4430:4768   */\n              swap3\n              swap2\n              pop\n              pop\n              jump\t// out\n                /* \"#utility.yul\":4810:6391   */\n            tag_98:\n                /* \"#utility.yul\":4886:4891   */\n              0x00\n                /* \"#utility.yul\":4930:4934   */\n              0xe0\n                /* \"#utility.yul\":4918:4927   */\n              dup3\n                /* \"#utility.yul\":4913:4916   */\n              dup5\n                /* \"#utility.yul\":4909:4928   */\n              sub\n                /* \"#utility.yul\":4905:4935   */\n              slt\n                /* \"#utility.yul\":4902:5019   */\n              iszero\n              tag_183\n              jumpi\n                /* \"#utility.yul\":4938:5017   */\n              tag_184\n              tag_79\n              jump\t// in\n            tag_184:\n                /* \"#utility.yul\":4902:5019   */\n            tag_183:\n                /* \"#utility.yul\":5037:5058   */\n              tag_185\n                /* \"#utility.yul\":5053:5057   */\n              0xe0\n                /* \"#utility.yul\":5037:5058   */\n              tag_83\n              jump\t// in\n            tag_185:\n                /* \"#utility.yul\":5028:5058   */\n              swap1\n              pop\n                /* \"#utility.yul\":5119:5120   */\n              0x00\n                /* \"#utility.yul\":5159:5208   */\n              tag_186\n                /* \"#utility.yul\":5204:5207   */\n              dup5\n                /* \"#utility.yul\":5195:5201   */\n              dup3\n                /* \"#utility.yul\":5184:5193   */\n              dup6\n                /* \"#utility.yul\":5180:5202   */\n              add\n                /* \"#utility.yul\":5159:5208   */\n              tag_88\n              jump\t// in\n            tag_186:\n                /* \"#utility.yul\":5152:5156   */\n              0x00\n                /* \"#utility.yul\":5145:5150   */\n              dup4\n                /* \"#utility.yul\":5141:5157   */\n              add\n                /* \"#utility.yul\":5134:5209   */\n              mstore\n                /* \"#utility.yul\":5068:5220   */\n              pop\n                /* \"#utility.yul\":5285:5287   */\n              0x20\n                /* \"#utility.yul\":5326:5375   */\n              tag_187\n                /* \"#utility.yul\":5371:5374   */\n              dup5\n                /* \"#utility.yul\":5362:5368   */\n              dup3\n                /* \"#utility.yul\":5351:5360   */\n              dup6\n                /* \"#utility.yul\":5347:5369   */\n              add\n                /* \"#utility.yul\":5326:5375   */\n              tag_88\n              jump\t// in\n            tag_187:\n                /* \"#utility.yul\":5319:5323   */\n              0x20\n                /* \"#utility.yul\":5312:5317   */\n              dup4\n                /* \"#utility.yul\":5308:5324   */\n              add\n                /* \"#utility.yul\":5301:5376   */\n              mstore\n                /* \"#utility.yul\":5230:5387   */\n              pop\n                /* \"#utility.yul\":5449:5451   */\n              0x40\n                /* \"#utility.yul\":5490:5539   */\n              tag_188\n                /* \"#utility.yul\":5535:5538   */\n              dup5\n                /* \"#utility.yul\":5526:5532   */\n              dup3\n                /* \"#utility.yul\":5515:5524   */\n              dup6\n                /* \"#utility.yul\":5511:5533   */\n              add\n                /* \"#utility.yul\":5490:5539   */\n              tag_91\n              jump\t// in\n            tag_188:\n                /* \"#utility.yul\":5483:5487   */\n              0x40\n                /* \"#utility.yul\":5476:5481   */\n              dup4\n                /* \"#utility.yul\":5472:5488   */\n              add\n                /* \"#utility.yul\":5465:5540   */\n              mstore\n                /* \"#utility.yul\":5397:5551   */\n              pop\n                /* \"#utility.yul\":5611:5613   */\n              0x60\n                /* \"#utility.yul\":5652:5701   */\n              tag_189\n                /* \"#utility.yul\":5697:5700   */\n              dup5\n                /* \"#utility.yul\":5688:5694   */\n              dup3\n                /* \"#utility.yul\":5677:5686   */\n              dup6\n                /* \"#utility.yul\":5673:5695   */\n              add\n                /* \"#utility.yul\":5652:5701   */\n              tag_91\n              jump\t// in\n            tag_189:\n                /* \"#utility.yul\":5645:5649   */\n              0x60\n                /* \"#utility.yul\":5638:5643   */\n              dup4\n                /* \"#utility.yul\":5634:5650   */\n              add\n                /* \"#utility.yul\":5627:5702   */\n              mstore\n                /* \"#utility.yul\":5561:5713   */\n              pop\n                /* \"#utility.yul\":5805:5808   */\n              0x80\n                /* \"#utility.yul\":5794:5803   */\n              dup3\n                /* \"#utility.yul\":5790:5809   */\n              add\n                /* \"#utility.yul\":5777:5810   */\n              calldataload\n                /* \"#utility.yul\":5837:5855   */\n              0xffffffffffffffff\n                /* \"#utility.yul\":5829:5835   */\n              dup2\n                /* \"#utility.yul\":5826:5856   */\n              gt\n                /* \"#utility.yul\":5823:5940   */\n              iszero\n              tag_190\n              jumpi\n                /* \"#utility.yul\":5859:5938   */\n              tag_191\n              tag_84\n              jump\t// in\n            tag_191:\n                /* \"#utility.yul\":5823:5940   */\n            tag_190:\n                /* \"#utility.yul\":5979:6037   */\n              tag_192\n                /* \"#utility.yul\":6033:6036   */\n              dup5\n                /* \"#utility.yul\":6024:6030   */\n              dup3\n                /* \"#utility.yul\":6013:6022   */\n              dup6\n                /* \"#utility.yul\":6009:6031   */\n              add\n                /* \"#utility.yul\":5979:6037   */\n              tag_97\n              jump\t// in\n            tag_192:\n                /* \"#utility.yul\":5972:5976   */\n              0x80\n                /* \"#utility.yul\":5965:5970   */\n              dup4\n                /* \"#utility.yul\":5961:5977   */\n              add\n                /* \"#utility.yul\":5954:6038   */\n              mstore\n                /* \"#utility.yul\":5723:6049   */\n              pop\n                /* \"#utility.yul\":6118:6121   */\n              0xa0\n                /* \"#utility.yul\":6160:6209   */\n              tag_193\n                /* \"#utility.yul\":6205:6208   */\n              dup5\n                /* \"#utility.yul\":6196:6202   */\n              dup3\n                /* \"#utility.yul\":6185:6194   */\n              dup6\n                /* \"#utility.yul\":6181:6203   */\n              add\n                /* \"#utility.yul\":6160:6209   */\n              tag_91\n              jump\t// in\n            tag_193:\n                /* \"#utility.yul\":6153:6157   */\n              0xa0\n                /* \"#utility.yul\":6146:6151   */\n              dup4\n                /* \"#utility.yul\":6142:6158   */\n              add\n                /* \"#utility.yul\":6135:6210   */\n              mstore\n                /* \"#utility.yul\":6059:6221   */\n              pop\n                /* \"#utility.yul\":6281:6284   */\n              0xc0\n                /* \"#utility.yul\":6323:6372   */\n              tag_194\n                /* \"#utility.yul\":6368:6371   */\n              dup5\n                /* \"#utility.yul\":6359:6365   */\n              dup3\n                /* \"#utility.yul\":6348:6357   */\n              dup6\n                /* \"#utility.yul\":6344:6366   */\n              add\n                /* \"#utility.yul\":6323:6372   */\n              tag_91\n              jump\t// in\n            tag_194:\n                /* \"#utility.yul\":6316:6320   */\n              0xc0\n                /* \"#utility.yul\":6309:6314   */\n              dup4\n                /* \"#utility.yul\":6305:6321   */\n              add\n                /* \"#utility.yul\":6298:6373   */\n              mstore\n                /* \"#utility.yul\":6231:6384   */\n              pop\n                /* \"#utility.yul\":4810:6391   */\n              swap3\n              swap2\n              pop\n              pop\n              jump\t// out\n                /* \"#utility.yul\":6397:6940   */\n            tag_16:\n                /* \"#utility.yul\":6483:6489   */\n              0x00\n                /* \"#utility.yul\":6532:6534   */\n              0x20\n                /* \"#utility.yul\":6520:6529   */\n              dup3\n                /* \"#utility.yul\":6511:6518   */\n              dup5\n                /* \"#utility.yul\":6507:6530   */\n              sub\n                /* \"#utility.yul\":6503:6535   */\n              slt\n                /* \"#utility.yul\":6500:6619   */\n              iszero\n              tag_196\n              jumpi\n                /* \"#utility.yul\":6538:6617   */\n              tag_197\n              tag_72\n              jump\t// in\n            tag_197:\n                /* \"#utility.yul\":6500:6619   */\n            tag_196:\n                /* \"#utility.yul\":6686:6687   */\n              0x00\n                /* \"#utility.yul\":6675:6684   */\n              dup3\n                /* \"#utility.yul\":6671:6688   */\n              add\n                /* \"#utility.yul\":6658:6689   */\n              calldataload\n                /* \"#utility.yul\":6716:6734   */\n              0xffffffffffffffff\n                /* \"#utility.yul\":6708:6714   */\n              dup2\n                /* \"#utility.yul\":6705:6735   */\n              gt\n                /* \"#utility.yul\":6702:6819   */\n              iszero\n              tag_198\n              jumpi\n                /* \"#utility.yul\":6738:6817   */\n              tag_199\n              tag_73\n              jump\t// in\n            tag_199:\n                /* \"#utility.yul\":6702:6819   */\n            tag_198:\n                /* \"#utility.yul\":6843:6923   */\n              tag_200\n                /* \"#utility.yul\":6915:6922   */\n              dup5\n                /* \"#utility.yul\":6906:6912   */\n              dup3\n                /* \"#utility.yul\":6895:6904   */\n              dup6\n                /* \"#utility.yul\":6891:6913   */\n              add\n                /* \"#utility.yul\":6843:6923   */\n              tag_98\n              jump\t// in\n            tag_200:\n                /* \"#utility.yul\":6833:6923   */\n              swap2\n              pop\n                /* \"#utility.yul\":6629:6933   */\n              pop\n                /* \"#utility.yul\":6397:6940   */\n              swap3\n              swap2\n              pop\n              pop\n              jump\t// out\n                /* \"#utility.yul\":6946:7634   */\n            tag_20:\n                /* \"#utility.yul\":7041:7047   */\n              0x00\n                /* \"#utility.yul\":7049:7055   */\n              dup1\n                /* \"#utility.yul\":7098:7100   */\n              0x40\n                /* \"#utility.yul\":7086:7095   */\n              dup4\n                /* \"#utility.yul\":7077:7084   */\n              dup6\n                /* \"#utility.yul\":7073:7096   */\n              sub\n                /* \"#utility.yul\":7069:7101   */\n              slt\n                /* \"#utility.yul\":7066:7185   */\n              iszero\n              tag_202\n              jumpi\n                /* \"#utility.yul\":7104:7183   */\n              tag_203\n              tag_72\n              jump\t// in\n            tag_203:\n                /* \"#utility.yul\":7066:7185   */\n            tag_202:\n                /* \"#utility.yul\":7252:7253   */\n              0x00\n                /* \"#utility.yul\":7241:7250   */\n              dup4\n                /* \"#utility.yul\":7237:7254   */\n              add\n                /* \"#utility.yul\":7224:7255   */\n              calldataload\n                /* \"#utility.yul\":7282:7300   */\n              0xffffffffffffffff\n                /* \"#utility.yul\":7274:7280   */\n              dup2\n                /* \"#utility.yul\":7271:7301   */\n              gt\n                /* \"#utility.yul\":7268:7385   */\n              iszero\n              tag_204\n              jumpi\n                /* \"#utility.yul\":7304:7383   */\n              tag_205\n              tag_73\n              jump\t// in\n            tag_205:\n                /* \"#utility.yul\":7268:7385   */\n            tag_204:\n                /* \"#utility.yul\":7409:7489   */\n              tag_206\n                /* \"#utility.yul\":7481:7488   */\n              dup6\n                /* \"#utility.yul\":7472:7478   */\n              dup3\n                /* \"#utility.yul\":7461:7470   */\n              dup7\n                /* \"#utility.yul\":7457:7479   */\n              add\n                /* \"#utility.yul\":7409:7489   */\n              tag_98\n              jump\t// in\n            tag_206:\n                /* \"#utility.yul\":7399:7489   */\n              swap3\n              pop\n                /* \"#utility.yul\":7195:7499   */\n              pop\n                /* \"#utility.yul\":7538:7540   */\n              0x20\n                /* \"#utility.yul\":7564:7617   */\n              tag_207\n                /* \"#utility.yul\":7609:7616   */\n              dup6\n                /* \"#utility.yul\":7600:7606   */\n              dup3\n                /* \"#utility.yul\":7589:7598   */\n              dup7\n                /* \"#utility.yul\":7585:7607   */\n              add\n                /* \"#utility.yul\":7564:7617   */\n              tag_88\n              jump\t// in\n            tag_207:\n                /* \"#utility.yul\":7554:7617   */\n              swap2\n              pop\n                /* \"#utility.yul\":7509:7627   */\n              pop\n                /* \"#utility.yul\":6946:7634   */\n              swap3\n              pop\n              swap3\n              swap1\n              pop\n              jump\t// out\n                /* \"#utility.yul\":7640:7809   */\n            tag_99:\n                /* \"#utility.yul\":7724:7735   */\n              0x00\n                /* \"#utility.yul\":7758:7764   */\n              dup3\n                /* \"#utility.yul\":7753:7756   */\n              dup3\n                /* \"#utility.yul\":7746:7765   */\n              mstore\n                /* \"#utility.yul\":7798:7802   */\n              0x20\n                /* \"#utility.yul\":7793:7796   */\n              dup3\n                /* \"#utility.yul\":7789:7803   */\n              add\n                /* \"#utility.yul\":7774:7803   */\n              swap1\n              pop\n                /* \"#utility.yul\":7640:7809   */\n              swap3\n              swap2\n              pop\n              pop\n              jump\t// out\n                /* \"#utility.yul\":7815:7982   */\n            tag_100:\n                /* \"#utility.yul\":7955:7974   */\n              0x496e76616c6964207369676e6174757265000000000000000000000000000000\n                /* \"#utility.yul\":7951:7952   */\n              0x00\n                /* \"#utility.yul\":7943:7949   */\n              dup3\n                /* \"#utility.yul\":7939:7953   */\n              add\n                /* \"#utility.yul\":7932:7975   */\n              mstore\n                /* \"#utility.yul\":7815:7982   */\n              pop\n              jump\t// out\n                /* \"#utility.yul\":7988:8354   */\n            tag_101:\n                /* \"#utility.yul\":8130:8133   */\n              0x00\n                /* \"#utility.yul\":8151:8218   */\n              tag_211\n                /* \"#utility.yul\":8215:8217   */\n              0x11\n                /* \"#utility.yul\":8210:8213   */\n              dup4\n                /* \"#utility.yul\":8151:8218   */\n              tag_99\n              jump\t// in\n            tag_211:\n                /* \"#utility.yul\":8144:8218   */\n              swap2\n              pop\n                /* \"#utility.yul\":8227:8320   */\n              tag_212\n                /* \"#utility.yul\":8316:8319   */\n              dup3\n                /* \"#utility.yul\":8227:8320   */\n              tag_100\n              jump\t// in\n            tag_212:\n                /* \"#utility.yul\":8345:8347   */\n              0x20\n                /* \"#utility.yul\":8340:8343   */\n              dup3\n                /* \"#utility.yul\":8336:8348   */\n              add\n                /* \"#utility.yul\":8329:8348   */\n              swap1\n              pop\n                /* \"#utility.yul\":7988:8354   */\n              swap2\n              swap1\n              pop\n              jump\t// out\n                /* \"#utility.yul\":8360:8779   */\n            tag_32:\n                /* \"#utility.yul\":8526:8530   */\n              0x00\n                /* \"#utility.yul\":8564:8566   */\n              0x20\n                /* \"#utility.yul\":8553:8562   */\n              dup3\n                /* \"#utility.yul\":8549:8567   */\n              add\n                /* \"#utility.yul\":8541:8567   */\n              swap1\n              pop\n                /* \"#utility.yul\":8613:8622   */\n              dup2\n                /* \"#utility.yul\":8607:8611   */\n              dup2\n                /* \"#utility.yul\":8603:8623   */\n              sub\n                /* \"#utility.yul\":8599:8600   */\n              0x00\n                /* \"#utility.yul\":8588:8597   */\n              dup4\n                /* \"#utility.yul\":8584:8601   */\n              add\n                /* \"#utility.yul\":8577:8624   */\n              mstore\n                /* \"#utility.yul\":8641:8772   */\n              tag_214\n                /* \"#utility.yul\":8767:8771   */\n              dup2\n                /* \"#utility.yul\":8641:8772   */\n              tag_101\n              jump\t// in\n            tag_214:\n                /* \"#utility.yul\":8633:8772   */\n              swap1\n              pop\n                /* \"#utility.yul\":8360:8779   */\n              swap2\n              swap1\n              pop\n              jump\t// out\n                /* \"#utility.yul\":8785:8879   */\n            tag_102:\n                /* \"#utility.yul\":8818:8826   */\n              0x00\n                /* \"#utility.yul\":8866:8871   */\n              dup2\n                /* \"#utility.yul\":8862:8864   */\n              0x60\n                /* \"#utility.yul\":8858:8872   */\n              shl\n                /* \"#utility.yul\":8837:8872   */\n              swap1\n              pop\n                /* \"#utility.yul\":8785:8879   */\n              swap2\n              swap1\n              pop\n              jump\t// out\n                /* \"#utility.yul\":8885:8979   */\n            tag_103:\n                /* \"#utility.yul\":8924:8931   */\n              0x00\n                /* \"#utility.yul\":8953:8973   */\n              tag_217\n                /* \"#utility.yul\":8967:8972   */\n              dup3\n                /* \"#utility.yul\":8953:8973   */\n              tag_102\n              jump\t// in\n            tag_217:\n                /* \"#utility.yul\":8942:8973   */\n              swap1\n              pop\n                /* \"#utility.yul\":8885:8979   */\n              swap2\n              swap1\n              pop\n              jump\t// out\n                /* \"#utility.yul\":8985:9085   */\n            tag_104:\n                /* \"#utility.yul\":9024:9031   */\n              0x00\n                /* \"#utility.yul\":9053:9079   */\n              tag_219\n                /* \"#utility.yul\":9073:9078   */\n              dup3\n                /* \"#utility.yul\":9053:9079   */\n              tag_103\n              jump\t// in\n            tag_219:\n                /* \"#utility.yul\":9042:9079   */\n              swap1\n              pop\n                /* \"#utility.yul\":8985:9085   */\n              swap2\n              swap1\n              pop\n              jump\t// out\n                /* \"#utility.yul\":9091:9248   */\n            tag_105:\n                /* \"#utility.yul\":9196:9241   */\n              tag_221\n                /* \"#utility.yul\":9216:9240   */\n              tag_222\n                /* \"#utility.yul\":9234:9239   */\n              dup3\n                /* \"#utility.yul\":9216:9240   */\n              tag_86\n              jump\t// in\n            tag_222:\n                /* \"#utility.yul\":9196:9241   */\n              tag_104\n              jump\t// in\n            tag_221:\n                /* \"#utility.yul\":9191:9194   */\n              dup3\n                /* \"#utility.yul\":9184:9242   */\n              mstore\n                /* \"#utility.yul\":9091:9248   */\n              pop\n              pop\n              jump\t// out\n                /* \"#utility.yul\":9254:9333   */\n            tag_106:\n                /* \"#utility.yul\":9293:9300   */\n              0x00\n                /* \"#utility.yul\":9322:9327   */\n              dup2\n                /* \"#utility.yul\":9311:9327   */\n              swap1\n              pop\n                /* \"#utility.yul\":9254:9333   */\n              swap2\n              swap1\n              pop\n              jump\t// out\n                /* \"#utility.yul\":9339:9496   */\n            tag_107:\n                /* \"#utility.yul\":9444:9489   */\n              tag_225\n                /* \"#utility.yul\":9464:9488   */\n              tag_226\n                /* \"#utility.yul\":9482:9487   */\n              dup3\n                /* \"#utility.yul\":9464:9488   */\n              tag_89\n              jump\t// in\n            tag_226:\n                /* \"#utility.yul\":9444:9489   */\n              tag_106\n              jump\t// in\n            tag_225:\n                /* \"#utility.yul\":9439:9442   */\n              dup3\n                /* \"#utility.yul\":9432:9490   */\n              mstore\n                /* \"#utility.yul\":9339:9496   */\n              pop\n              pop\n              jump\t// out\n                /* \"#utility.yul\":9502:10463   */\n            tag_34:\n                /* \"#utility.yul\":9754:9757   */\n              0x00\n                /* \"#utility.yul\":9769:9844   */\n              tag_228\n                /* \"#utility.yul\":9840:9843   */\n              dup3\n                /* \"#utility.yul\":9831:9837   */\n              dup10\n                /* \"#utility.yul\":9769:9844   */\n              tag_105\n              jump\t// in\n            tag_228:\n                /* \"#utility.yul\":9869:9871   */\n              0x14\n                /* \"#utility.yul\":9864:9867   */\n              dup3\n                /* \"#utility.yul\":9860:9872   */\n              add\n                /* \"#utility.yul\":9853:9872   */\n              swap2\n              pop\n                /* \"#utility.yul\":9882:9957   */\n              tag_229\n                /* \"#utility.yul\":9953:9956   */\n              dup3\n                /* \"#utility.yul\":9944:9950   */\n              dup9\n                /* \"#utility.yul\":9882:9957   */\n              tag_105\n              jump\t// in\n            tag_229:\n                /* \"#utility.yul\":9982:9984   */\n              0x14\n                /* \"#utility.yul\":9977:9980   */\n              dup3\n                /* \"#utility.yul\":9973:9985   */\n              add\n                /* \"#utility.yul\":9966:9985   */\n              swap2\n              pop\n                /* \"#utility.yul\":9995:10070   */\n              tag_230\n                /* \"#utility.yul\":10066:10069   */\n              dup3\n                /* \"#utility.yul\":10057:10063   */\n              dup8\n                /* \"#utility.yul\":9995:10070   */\n              tag_107\n              jump\t// in\n            tag_230:\n                /* \"#utility.yul\":10095:10097   */\n              0x20\n                /* \"#utility.yul\":10090:10093   */\n              dup3\n                /* \"#utility.yul\":10086:10098   */\n              add\n                /* \"#utility.yul\":10079:10098   */\n              swap2\n              pop\n                /* \"#utility.yul\":10108:10183   */\n              tag_231\n                /* \"#utility.yul\":10179:10182   */\n              dup3\n                /* \"#utility.yul\":10170:10176   */\n              dup7\n                /* \"#utility.yul\":10108:10183   */\n              tag_107\n              jump\t// in\n            tag_231:\n                /* \"#utility.yul\":10208:10210   */\n              0x20\n                /* \"#utility.yul\":10203:10206   */\n              dup3\n                /* \"#utility.yul\":10199:10211   */\n              add\n                /* \"#utility.yul\":10192:10211   */\n              swap2\n              pop\n                /* \"#utility.yul\":10221:10296   */\n              tag_232\n                /* \"#utility.yul\":10292:10295   */\n              dup3\n                /* \"#utility.yul\":10283:10289   */\n              dup6\n                /* \"#utility.yul\":10221:10296   */\n              tag_107\n              jump\t// in\n            tag_232:\n                /* \"#utility.yul\":10321:10323   */\n              0x20\n                /* \"#utility.yul\":10316:10319   */\n              dup3\n                /* \"#utility.yul\":10312:10324   */\n              add\n                /* \"#utility.yul\":10305:10324   */\n              swap2\n              pop\n                /* \"#utility.yul\":10334:10409   */\n              tag_233\n                /* \"#utility.yul\":10405:10408   */\n              dup3\n                /* \"#utility.yul\":10396:10402   */\n              dup5\n                /* \"#utility.yul\":10334:10409   */\n              tag_107\n              jump\t// in\n            tag_233:\n                /* \"#utility.yul\":10434:10436   */\n              0x20\n                /* \"#utility.yul\":10429:10432   */\n              dup3\n                /* \"#utility.yul\":10425:10437   */\n              add\n                /* \"#utility.yul\":10418:10437   */\n              swap2\n              pop\n                /* \"#utility.yul\":10454:10457   */\n              dup2\n                /* \"#utility.yul\":10447:10457   */\n              swap1\n              pop\n                /* \"#utility.yul\":9502:10463   */\n              swap8\n              swap7\n              pop\n              pop\n              pop\n              pop\n              pop\n              pop\n              pop\n              jump\t// out\n                /* \"#utility.yul\":10469:10638   */\n            tag_108:\n                /* \"#utility.yul\":10609:10630   */\n              0x4f7264657220686173206265656e207573656400000000000000000000000000\n                /* \"#utility.yul\":10605:10606   */\n              0x00\n                /* \"#utility.yul\":10597:10603   */\n              dup3\n                /* \"#utility.yul\":10593:10607   */\n              add\n                /* \"#utility.yul\":10586:10631   */\n              mstore\n                /* \"#utility.yul\":10469:10638   */\n              pop\n              jump\t// out\n                /* \"#utility.yul\":10644:11010   */\n            tag_109:\n                /* \"#utility.yul\":10786:10789   */\n              0x00\n                /* \"#utility.yul\":10807:10874   */\n              tag_236\n                /* \"#utility.yul\":10871:10873   */\n              0x13\n                /* \"#utility.yul\":10866:10869   */\n              dup4\n                /* \"#utility.yul\":10807:10874   */\n              tag_99\n              jump\t// in\n            tag_236:\n                /* \"#utility.yul\":10800:10874   */\n              swap2\n              pop\n                /* \"#utility.yul\":10883:10976   */\n              tag_237\n                /* \"#utility.yul\":10972:10975   */\n              dup3\n                /* \"#utility.yul\":10883:10976   */\n              tag_108\n              jump\t// in\n            tag_237:\n                /* \"#utility.yul\":11001:11003   */\n              0x20\n                /* \"#utility.yul\":10996:10999   */\n              dup3\n                /* \"#utility.yul\":10992:11004   */\n              add\n                /* \"#utility.yul\":10985:11004   */\n              swap1\n              pop\n                /* \"#utility.yul\":10644:11010   */\n              swap2\n              swap1\n              pop\n              jump\t// out\n                /* \"#utility.yul\":11016:11435   */\n            tag_41:\n                /* \"#utility.yul\":11182:11186   */\n              0x00\n                /* \"#utility.yul\":11220:11222   */\n              0x20\n                /* \"#utility.yul\":11209:11218   */\n              dup3\n                /* \"#utility.yul\":11205:11223   */\n              add\n                /* \"#utility.yul\":11197:11223   */\n              swap1\n              pop\n                /* \"#utility.yul\":11269:11278   */\n              dup2\n                /* \"#utility.yul\":11263:11267   */\n              dup2\n                /* \"#utility.yul\":11259:11279   */\n              sub\n                /* \"#utility.yul\":11255:11256   */\n              0x00\n                /* \"#utility.yul\":11244:11253   */\n              dup4\n                /* \"#utility.yul\":11240:11257   */\n              add\n                /* \"#utility.yul\":11233:11280   */\n              mstore\n                /* \"#utility.yul\":11297:11428   */\n              tag_239\n                /* \"#utility.yul\":11423:11427   */\n              dup2\n                /* \"#utility.yul\":11297:11428   */\n              tag_109\n              jump\t// in\n            tag_239:\n                /* \"#utility.yul\":11289:11428   */\n              swap1\n              pop\n                /* \"#utility.yul\":11016:11435   */\n              swap2\n              swap1\n              pop\n              jump\t// out\n                /* \"#utility.yul\":11441:11559   */\n            tag_110:\n                /* \"#utility.yul\":11528:11552   */\n              tag_241\n                /* \"#utility.yul\":11546:11551   */\n              dup2\n                /* \"#utility.yul\":11528:11552   */\n              tag_86\n              jump\t// in\n            tag_241:\n                /* \"#utility.yul\":11523:11526   */\n              dup3\n                /* \"#utility.yul\":11516:11553   */\n              mstore\n                /* \"#utility.yul\":11441:11559   */\n              pop\n              pop\n              jump\t// out\n                /* \"#utility.yul\":11565:11683   */\n            tag_111:\n                /* \"#utility.yul\":11652:11676   */\n              tag_243\n                /* \"#utility.yul\":11670:11675   */\n              dup2\n                /* \"#utility.yul\":11652:11676   */\n              tag_89\n              jump\t// in\n            tag_243:\n                /* \"#utility.yul\":11647:11650   */\n              dup3\n                /* \"#utility.yul\":11640:11677   */\n              mstore\n                /* \"#utility.yul\":11565:11683   */\n              pop\n              pop\n              jump\t// out\n                /* \"#utility.yul\":11689:12131   */\n            tag_46:\n                /* \"#utility.yul\":11838:11842   */\n              0x00\n                /* \"#utility.yul\":11876:11878   */\n              0x60\n                /* \"#utility.yul\":11865:11874   */\n              dup3\n                /* \"#utility.yul\":11861:11879   */\n              add\n                /* \"#utility.yul\":11853:11879   */\n              swap1\n              pop\n                /* \"#utility.yul\":11889:11960   */\n              tag_245\n                /* \"#utility.yul\":11957:11958   */\n              0x00\n                /* \"#utility.yul\":11946:11955   */\n              dup4\n                /* \"#utility.yul\":11942:11959   */\n              add\n                /* \"#utility.yul\":11933:11939   */\n              dup7\n                /* \"#utility.yul\":11889:11960   */\n              tag_110\n              jump\t// in\n            tag_245:\n                /* \"#utility.yul\":11970:12042   */\n              tag_246\n                /* \"#utility.yul\":12038:12040   */\n              0x20\n                /* \"#utility.yul\":12027:12036   */\n              dup4\n                /* \"#utility.yul\":12023:12041   */\n              add\n                /* \"#utility.yul\":12014:12020   */\n              dup6\n                /* \"#utility.yul\":11970:12042   */\n              tag_110\n              jump\t// in\n            tag_246:\n                /* \"#utility.yul\":12052:12124   */\n              tag_247\n                /* \"#utility.yul\":12120:12122   */\n              0x40\n                /* \"#utility.yul\":12109:12118   */\n              dup4\n                /* \"#utility.yul\":12105:12123   */\n              add\n                /* \"#utility.yul\":12096:12102   */\n              dup5\n                /* \"#utility.yul\":12052:12124   */\n              tag_111\n              jump\t// in\n            tag_247:\n                /* \"#utility.yul\":11689:12131   */\n              swap5\n              swap4\n              pop\n              pop\n              pop\n              pop\n              jump\t// out\n                /* \"#utility.yul\":12137:12285   */\n            tag_112:\n                /* \"#utility.yul\":12239:12250   */\n              0x00\n                /* \"#utility.yul\":12276:12279   */\n              dup2\n                /* \"#utility.yul\":12261:12279   */\n              swap1\n              pop\n                /* \"#utility.yul\":12137:12285   */\n              swap3\n              swap2\n              pop\n              pop\n              jump\t// out\n                /* \"#utility.yul\":12291:12505   */\n            tag_113:\n                /* \"#utility.yul\":12431:12497   */\n              0x19457468657265756d205369676e6564204d6573736167653a0a333200000000\n                /* \"#utility.yul\":12427:12428   */\n              0x00\n                /* \"#utility.yul\":12419:12425   */\n              dup3\n                /* \"#utility.yul\":12415:12429   */\n              add\n                /* \"#utility.yul\":12408:12498   */\n              mstore\n                /* \"#utility.yul\":12291:12505   */\n              pop\n              jump\t// out\n                /* \"#utility.yul\":12511:12913   */\n            tag_114:\n                /* \"#utility.yul\":12671:12674   */\n              0x00\n                /* \"#utility.yul\":12692:12777   */\n              tag_251\n                /* \"#utility.yul\":12774:12776   */\n              0x1c\n                /* \"#utility.yul\":12769:12772   */\n              dup4\n                /* \"#utility.yul\":12692:12777   */\n              tag_112\n              jump\t// in\n            tag_251:\n                /* \"#utility.yul\":12685:12777   */\n              swap2\n              pop\n                /* \"#utility.yul\":12786:12879   */\n              tag_252\n                /* \"#utility.yul\":12875:12878   */\n              dup3\n                /* \"#utility.yul\":12786:12879   */\n              tag_113\n              jump\t// in\n            tag_252:\n                /* \"#utility.yul\":12904:12906   */\n              0x1c\n                /* \"#utility.yul\":12899:12902   */\n              dup3\n                /* \"#utility.yul\":12895:12907   */\n              add\n                /* \"#utility.yul\":12888:12907   */\n              swap1\n              pop\n                /* \"#utility.yul\":12511:12913   */\n              swap2\n              swap1\n              pop\n              jump\t// out\n                /* \"#utility.yul\":12919:12998   */\n            tag_115:\n                /* \"#utility.yul\":12958:12965   */\n              0x00\n                /* \"#utility.yul\":12987:12992   */\n              dup2\n                /* \"#utility.yul\":12976:12992   */\n              swap1\n              pop\n                /* \"#utility.yul\":12919:12998   */\n              swap2\n              swap1\n              pop\n              jump\t// out\n                /* \"#utility.yul\":13004:13161   */\n            tag_116:\n                /* \"#utility.yul\":13109:13154   */\n              tag_255\n                /* \"#utility.yul\":13129:13153   */\n              tag_256\n                /* \"#utility.yul\":13147:13152   */\n              dup3\n                /* \"#utility.yul\":13129:13153   */\n              tag_74\n              jump\t// in\n            tag_256:\n                /* \"#utility.yul\":13109:13154   */\n              tag_115\n              jump\t// in\n            tag_255:\n                /* \"#utility.yul\":13104:13107   */\n              dup3\n                /* \"#utility.yul\":13097:13155   */\n              mstore\n                /* \"#utility.yul\":13004:13161   */\n              pop\n              pop\n              jump\t// out\n                /* \"#utility.yul\":13167:13689   */\n            tag_59:\n                /* \"#utility.yul\":13380:13383   */\n              0x00\n                /* \"#utility.yul\":13402:13550   */\n              tag_258\n                /* \"#utility.yul\":13546:13549   */\n              dup3\n                /* \"#utility.yul\":13402:13550   */\n              tag_114\n              jump\t// in\n            tag_258:\n                /* \"#utility.yul\":13395:13550   */\n              swap2\n              pop\n                /* \"#utility.yul\":13560:13635   */\n              tag_259\n                /* \"#utility.yul\":13631:13634   */\n              dup3\n                /* \"#utility.yul\":13622:13628   */\n              dup5\n                /* \"#utility.yul\":13560:13635   */\n              tag_116\n              jump\t// in\n            tag_259:\n                /* \"#utility.yul\":13660:13662   */\n              0x20\n                /* \"#utility.yul\":13655:13658   */\n              dup3\n                /* \"#utility.yul\":13651:13663   */\n              add\n                /* \"#utility.yul\":13644:13663   */\n              swap2\n              pop\n                /* \"#utility.yul\":13680:13683   */\n              dup2\n                /* \"#utility.yul\":13673:13683   */\n              swap1\n              pop\n                /* \"#utility.yul\":13167:13689   */\n              swap3\n              swap2\n              pop\n              pop\n              jump\t// out\n                /* \"#utility.yul\":13695:13781   */\n            tag_117:\n                /* \"#utility.yul\":13730:13737   */\n              0x00\n                /* \"#utility.yul\":13770:13774   */\n              0xff\n                /* \"#utility.yul\":13763:13768   */\n              dup3\n                /* \"#utility.yul\":13759:13775   */\n              and\n                /* \"#utility.yul\":13748:13775   */\n              swap1\n              pop\n                /* \"#utility.yul\":13695:13781   */\n              swap2\n              swap1\n              pop\n              jump\t// out\n                /* \"#utility.yul\":13787:13967   */\n            tag_118:\n                /* \"#utility.yul\":13835:13912   */\n              0x4e487b7100000000000000000000000000000000000000000000000000000000\n                /* \"#utility.yul\":13832:13833   */\n              0x00\n                /* \"#utility.yul\":13825:13913   */\n              mstore\n                /* \"#utility.yul\":13932:13936   */\n              0x11\n                /* \"#utility.yul\":13929:13930   */\n              0x04\n                /* \"#utility.yul\":13922:13937   */\n              mstore\n                /* \"#utility.yul\":13956:13960   */\n              0x24\n                /* \"#utility.yul\":13953:13954   */\n              0x00\n                /* \"#utility.yul\":13946:13961   */\n              revert\n                /* \"#utility.yul\":13973:14161   */\n            tag_66:\n                /* \"#utility.yul\":14011:14014   */\n              0x00\n                /* \"#utility.yul\":14030:14048   */\n              tag_263\n                /* \"#utility.yul\":14046:14047   */\n              dup3\n                /* \"#utility.yul\":14030:14048   */\n              tag_117\n              jump\t// in\n            tag_263:\n                /* \"#utility.yul\":14025:14048   */\n              swap2\n              pop\n                /* \"#utility.yul\":14062:14080   */\n              tag_264\n                /* \"#utility.yul\":14078:14079   */\n              dup4\n                /* \"#utility.yul\":14062:14080   */\n              tag_117\n              jump\t// in\n            tag_264:\n                /* \"#utility.yul\":14057:14080   */\n              swap3\n              pop\n                /* \"#utility.yul\":14103:14104   */\n              dup3\n                /* \"#utility.yul\":14100:14101   */\n              dup3\n                /* \"#utility.yul\":14096:14105   */\n              add\n                /* \"#utility.yul\":14089:14105   */\n              swap1\n              pop\n                /* \"#utility.yul\":14126:14130   */\n              0xff\n                /* \"#utility.yul\":14121:14124   */\n              dup2\n                /* \"#utility.yul\":14118:14131   */\n              gt\n                /* \"#utility.yul\":14115:14154   */\n              iszero\n              tag_265\n              jumpi\n                /* \"#utility.yul\":14134:14152   */\n              tag_266\n              tag_118\n              jump\t// in\n            tag_266:\n                /* \"#utility.yul\":14115:14154   */\n            tag_265:\n                /* \"#utility.yul\":13973:14161   */\n              swap3\n              swap2\n              pop\n              pop\n              jump\t// out\n                /* \"#utility.yul\":14167:14285   */\n            tag_119:\n                /* \"#utility.yul\":14254:14278   */\n              tag_268\n                /* \"#utility.yul\":14272:14277   */\n              dup2\n                /* \"#utility.yul\":14254:14278   */\n              tag_74\n              jump\t// in\n            tag_268:\n                /* \"#utility.yul\":14249:14252   */\n              dup3\n                /* \"#utility.yul\":14242:14279   */\n              mstore\n                /* \"#utility.yul\":14167:14285   */\n              pop\n              pop\n              jump\t// out\n                /* \"#utility.yul\":14291:14403   */\n            tag_120:\n                /* \"#utility.yul\":14374:14396   */\n              tag_270\n                /* \"#utility.yul\":14390:14395   */\n              dup2\n                /* \"#utility.yul\":14374:14396   */\n              tag_117\n              jump\t// in\n            tag_270:\n                /* \"#utility.yul\":14369:14372   */\n              dup3\n                /* \"#utility.yul\":14362:14397   */\n              mstore\n                /* \"#utility.yul\":14291:14403   */\n              pop\n              pop\n              jump\t// out\n                /* \"#utility.yul\":14409:14954   */\n            tag_68:\n                /* \"#utility.yul\":14582:14586   */\n              0x00\n                /* \"#utility.yul\":14620:14623   */\n              0x80\n                /* \"#utility.yul\":14609:14618   */\n              dup3\n                /* \"#utility.yul\":14605:14624   */\n              add\n                /* \"#utility.yul\":14597:14624   */\n              swap1\n              pop\n                /* \"#utility.yul\":14634:14705   */\n              tag_272\n                /* \"#utility.yul\":14702:14703   */\n              0x00\n                /* \"#utility.yul\":14691:14700   */\n              dup4\n                /* \"#utility.yul\":14687:14704   */\n              add\n                /* \"#utility.yul\":14678:14684   */\n              dup8\n                /* \"#utility.yul\":14634:14705   */\n              tag_119\n              jump\t// in\n            tag_272:\n                /* \"#utility.yul\":14715:14783   */\n              tag_273\n                /* \"#utility.yul\":14779:14781   */\n              0x20\n                /* \"#utility.yul\":14768:14777   */\n              dup4\n                /* \"#utility.yul\":14764:14782   */\n              add\n                /* \"#utility.yul\":14755:14761   */\n              dup7\n                /* \"#utility.yul\":14715:14783   */\n              tag_120\n              jump\t// in\n            tag_273:\n                /* \"#utility.yul\":14793:14865   */\n              tag_274\n                /* \"#utility.yul\":14861:14863   */\n              0x40\n                /* \"#utility.yul\":14850:14859   */\n              dup4\n                /* \"#utility.yul\":14846:14864   */\n              add\n                /* \"#utility.yul\":14837:14843   */\n              dup6\n                /* \"#utility.yul\":14793:14865   */\n              tag_119\n              jump\t// in\n            tag_274:\n                /* \"#utility.yul\":14875:14947   */\n              tag_275\n                /* \"#utility.yul\":14943:14945   */\n              0x60\n                /* \"#utility.yul\":14932:14941   */\n              dup4\n                /* \"#utility.yul\":14928:14946   */\n              add\n                /* \"#utility.yul\":14919:14925   */\n              dup5\n                /* \"#utility.yul\":14875:14947   */\n              tag_119\n              jump\t// in\n            tag_275:\n                /* \"#utility.yul\":14409:14954   */\n              swap6\n              swap5\n              pop\n              pop\n              pop\n              pop\n              pop\n              jump\t// out\n\n            auxdata: 0xa2646970667358221220ab72ef69deae48b0758f3602ff2914bc002da651fb9ecb18dc9b9bcd1b7ade3264736f6c63430008120033\n        }\n    }\n\n    auxdata: 0xa2646970667358221220f357e0632ccadde2e61a38bc1ae22d87a55deff1cc59701e68d4fe4971f9d3dd64736f6c63430008120033\n}\n",
				"bytecode": {
					"linkReferences": {},
					"object": "608060405260028055604051620036753803806200367583398181016040528101906200002d9190620000df565b80600360006101000a81548173ffffffffffffffffffffffffffffffffffffffff021916908373ffffffffffffffffffffffffffffffffffffffff1602179055505062000111565b600080fd5b600073ffffffffffffffffffffffffffffffffffffffff82169050919050565b6000620000a7826200007a565b9050919050565b620000b9816200009a565b8114620000c557600080fd5b50565b600081519050620000d981620000ae565b92915050565b600060208284031215620000f857620000f762000075565b5b60006200010884828501620000c8565b91505092915050565b61355480620001216000396000f3fe6080604052600436106200007a5760003560e01c80637b84fda511620000555780637b84fda514620000fb57806384e5eed01462000129578063c2a1d6c91462000159578063c465db0a1462000173576200007a565b806307e4ac72146200007f578063171ab66214620000ad57806359be136214620000cd575b600080fd5b3480156200008c57600080fd5b50620000ab6004803603810190620000a59190620016fc565b620001b7565b005b620000cb6004803603810190620000c5919062001910565b6200028e565b005b348015620000da57600080fd5b50620000f96004803603810190620000f3919062001ad2565b62000b99565b005b3480156200010857600080fd5b5062000127600480360381019062000121919062001b23565b62000c1e565b005b3480156200013657600080fd5b506200014162000cfe565b60405162000150919062001b66565b60405180910390f35b3480156200016657600080fd5b506200017162000d08565b005b3480156200018057600080fd5b506200019f600480360381019062000199919062001b83565b62000ef1565b604051620001ae919062001bc6565b60405180910390f35b600360009054906101000a900473ffffffffffffffffffffffffffffffffffffffff1673ffffffffffffffffffffffffffffffffffffffff163373ffffffffffffffffffffffffffffffffffffffff16146200024a576040517f08c379a0000000000000000000000000000000000000000000000000000000008152600401620002419062001c44565b60405180910390fd5b80600160006101000a81548173ffffffffffffffffffffffffffffffffffffffff021916908373ffffffffffffffffffffffffffffffffffffffff16021790555050565b60006040518060e001604052808973ffffffffffffffffffffffffffffffffffffffff1681526020018873ffffffffffffffffffffffffffffffffffffffff168152602001878152602001868152602001858152602001848152602001838152509050600034905060006200032860646200031960025486606001516200110490919063ffffffff16565b6200111c90919063ffffffff16565b905062000357836000015184602001518560400151866060015187608001518860a001518960c0015162001134565b62000399576040517f08c379a0000000000000000000000000000000000000000000000000000000008152600401620003909062001cb6565b60405180910390fd5b600060046000856000015173ffffffffffffffffffffffffffffffffffffffff1673ffffffffffffffffffffffffffffffffffffffff16815260200190815260200160002060009054906101000a900473ffffffffffffffffffffffffffffffffffffffff169050600073ffffffffffffffffffffffffffffffffffffffff168173ffffffffffffffffffffffffffffffffffffffff160362000473576040517f08c379a00000000000000000000000000000000000000000000000000000000081526004016200046a9062001d28565b60405180910390fd5b836000015173ffffffffffffffffffffffffffffffffffffffff16846020015173ffffffffffffffffffffffffffffffffffffffff16636352211e86604001516040518263ffffffff1660e01b8152600401620004d1919062001b66565b602060405180830381865afa158015620004ef573d6000803e3d6000fd5b505050506040513d601f19601f8201168201806040525081019062000515919062001d61565b73ffffffffffffffffffffffffffffffffffffffff16146200056e576040517f08c379a0000000000000000000000000000000000000000000000000000000008152600401620005659062001e09565b60405180910390fd5b600084600001518560200151866040015187606001518860a001518960c00151604051602001620005a59695949392919062001ea0565b6040516020818303038152906040528051906020012090508460a001514211156200065557620005d585620011e2565b846020015173ffffffffffffffffffffffffffffffffffffffff16856000015173ffffffffffffffffffffffffffffffffffffffff167f68138f0ee854a322025bc4fdf83bf151264d42cbc5930a3afc396a82980028d68388604001516040516200064292919062001f37565b60405180910390a3505050505062000b90565b6000808373ffffffffffffffffffffffffffffffffffffffff168360405160240162000682919062001f64565b6040516020818303038152906040527feb41850d000000000000000000000000000000000000000000000000000000007bffffffffffffffffffffffffffffffffffffffffffffffffffffffff19166020820180517bffffffffffffffffffffffffffffffffffffffffffffffffffffffff83818316178352505050506040516200070e919062001ffa565b6000604051808303816000865af19150503d80600081146200074d576040519150601f19603f3d011682016040523d82523d6000602084013e62000752565b606091505b50915091506000818060200190518101906200076f919062002050565b90508280156200077d575080155b620007bf576040517f08c379a0000000000000000000000000000000000000000000000000000000008152600401620007b690620020d2565b60405180910390fd5b87606001518688620007d2919062002123565b1062000b4a576000808673ffffffffffffffffffffffffffffffffffffffff168a33604051602401620008079291906200227c565b6040516020818303038152906040527fc04d75dd000000000000000000000000000000000000000000000000000000007bffffffffffffffffffffffffffffffffffffffffffffffffffffffff19166020820180517bffffffffffffffffffffffffffffffffffffffffffffffffffffffff838183161783525050505060405162000893919062001ffa565b6000604051808303816000865af19150503d8060008114620008d2576040519150601f19603f3d011682016040523d82523d6000602084013e620008d7565b606091505b50915091503373ffffffffffffffffffffffffffffffffffffffff168a6020015173ffffffffffffffffffffffffffffffffffffffff16636352211e8c604001516040518263ffffffff1660e01b815260040162000936919062001b66565b602060405180830381865afa15801562000954573d6000803e3d6000fd5b505050506040513d601f19601f820116820180604052508101906200097a919062001d61565b73ffffffffffffffffffffffffffffffffffffffff160362000afa57620009a18a62001411565b600160009054906101000a900473ffffffffffffffffffffffffffffffffffffffff1673ffffffffffffffffffffffffffffffffffffffff166108fc899081150290604051600060405180830381858888f1935050505015801562000a0a573d6000803e3d6000fd5b50896000015173ffffffffffffffffffffffffffffffffffffffff166108fc898b62000a37919062002123565b9081150290604051600060405180830381858888f1935050505062000af4573373ffffffffffffffffffffffffffffffffffffffff166108fc898b62000a7e919062002123565b9081150290604051600060405180830381858888f1935050505015801562000aaa573d6000803e3d6000fd5b503373ffffffffffffffffffffffffffffffffffffffff166108fc899081150290604051600060405180830381858888f1935050505015801562000af2573d6000803e3d6000fd5b505b62000b42565b62000b058a620014f6565b6040517f08c379a000000000000000000000000000000000000000000000000000000000815260040162000b399062002300565b60405180910390fd5b505062000b87565b6040517f08c379a000000000000000000000000000000000000000000000000000000000815260040162000b7e9062002372565b60405180910390fd5b50505050505050505b50505050505050565b80600001518073ffffffffffffffffffffffffffffffffffffffff163373ffffffffffffffffffffffffffffffffffffffff161462000c0f576040517f08c379a000000000000000000000000000000000000000000000000000000000815260040162000c06906200240a565b60405180910390fd5b62000c1a82620011e2565b5050565b600360009054906101000a900473ffffffffffffffffffffffffffffffffffffffff1673ffffffffffffffffffffffffffffffffffffffff163373ffffffffffffffffffffffffffffffffffffffff161462000cb1576040517f08c379a000000000000000000000000000000000000000000000000000000000815260040162000ca89062001c44565b60405180910390fd5b60006002549050816002819055507f8d10d6dd6545b059182e4bf9534308bf75d7de65cdd8a68c12b7b74f139e58ae818360405162000cf29291906200242c565b60405180910390a15050565b6000600254905090565b600073ffffffffffffffffffffffffffffffffffffffff16600460003373ffffffffffffffffffffffffffffffffffffffff1673ffffffffffffffffffffffffffffffffffffffff16815260200190815260200160002060009054906101000a900473ffffffffffffffffffffffffffffffffffffffff1673ffffffffffffffffffffffffffffffffffffffff161462000dd9576040517f08c379a000000000000000000000000000000000000000000000000000000000815260040162000dd090620024a9565b60405180910390fd5b3360405162000de89062001675565b62000df4919062001bc6565b604051809103906000f08015801562000e11573d6000803e3d6000fd5b506000806101000a81548173ffffffffffffffffffffffffffffffffffffffff021916908373ffffffffffffffffffffffffffffffffffffffff16021790555060008054906101000a900473ffffffffffffffffffffffffffffffffffffffff16600460003373ffffffffffffffffffffffffffffffffffffffff1673ffffffffffffffffffffffffffffffffffffffff16815260200190815260200160002060006101000a81548173ffffffffffffffffffffffffffffffffffffffff021916908373ffffffffffffffffffffffffffffffffffffffff160217905550565b60008073ffffffffffffffffffffffffffffffffffffffff16600460008473ffffffffffffffffffffffffffffffffffffffff1673ffffffffffffffffffffffffffffffffffffffff16815260200190815260200160002060009054906101000a900473ffffffffffffffffffffffffffffffffffffffff1673ffffffffffffffffffffffffffffffffffffffff16036200109d578160405162000f959062001675565b62000fa1919062001bc6565b604051809103906000f08015801562000fbe573d6000803e3d6000fd5b506000806101000a81548173ffffffffffffffffffffffffffffffffffffffff021916908373ffffffffffffffffffffffffffffffffffffffff16021790555060008054906101000a900473ffffffffffffffffffffffffffffffffffffffff16600460008473ffffffffffffffffffffffffffffffffffffffff1673ffffffffffffffffffffffffffffffffffffffff16815260200190815260200160002060006101000a81548173ffffffffffffffffffffffffffffffffffffffff021916908373ffffffffffffffffffffffffffffffffffffffff1602179055505b600460008373ffffffffffffffffffffffffffffffffffffffff1673ffffffffffffffffffffffffffffffffffffffff16815260200190815260200160002060009054906101000a900473ffffffffffffffffffffffffffffffffffffffff169050919050565b60008183620011149190620024cb565b905092915050565b600081836200112c919062002545565b905092915050565b600080888888888787604051602001620011549695949392919062001ea0565b604051602081830303815290604052805190602001209050600081604051602001620011819190620025fd565b6040516020818303038152906040528051906020012090508973ffffffffffffffffffffffffffffffffffffffff16620011bc8288620015db565b73ffffffffffffffffffffffffffffffffffffffff161492505050979650505050505050565b60008060046000846000015173ffffffffffffffffffffffffffffffffffffffff1673ffffffffffffffffffffffffffffffffffffffff16815260200190815260200160002060009054906101000a900473ffffffffffffffffffffffffffffffffffffffff1673ffffffffffffffffffffffffffffffffffffffff168360405160240162001272919062002627565b6040516020818303038152906040527f9b3f3f1a000000000000000000000000000000000000000000000000000000007bffffffffffffffffffffffffffffffffffffffffffffffffffffffff19166020820180517bffffffffffffffffffffffffffffffffffffffffffffffffffffffff8381831617835250505050604051620012fe919062001ffa565b6000604051808303816000865af19150503d80600081146200133d576040519150601f19603f3d011682016040523d82523d6000602084013e62001342565b606091505b5091509150600083600001518460200151856040015186606001518760a001518860c001516040516020016200137e9695949392919062001ea0565b604051602081830303815290604052805190602001209050836020015173ffffffffffffffffffffffffffffffffffffffff16846000015173ffffffffffffffffffffffffffffffffffffffff167f9b3260990101a9c5eb670b44ba2f4ec1048ddaf533a012abff3841ef15307fec8387604001516040516200140392919062001f37565b60405180910390a350505050565b600081600001518260200151836040015184606001518560a001518660c00151604051602001620014489695949392919062001ea0565b604051602081830303815290604052805190602001209050816020015173ffffffffffffffffffffffffffffffffffffffff163373ffffffffffffffffffffffffffffffffffffffff16836000015173ffffffffffffffffffffffffffffffffffffffff167f467f50bd8d1547cf60e60dba76ab3ff7f8b3a07ceba26c2268e160a7df30230e8560400151858760600151604051620014ea939291906200264b565b60405180910390a45050565b600081600001518260200151836040015184606001518560a001518660c001516040516020016200152d9695949392919062001ea0565b604051602081830303815290604052805190602001209050816020015173ffffffffffffffffffffffffffffffffffffffff163373ffffffffffffffffffffffffffffffffffffffff16836000015173ffffffffffffffffffffffffffffffffffffffff167f9bd8cc9f795935d6f423445d18dd997edfeec3d962973fadffeac5740e876b5f8560400151858760600151604051620015cf939291906200264b565b60405180910390a45050565b6000806000806020850151925060408501519150606085015160001a9050601b8160ff1610156200161857601b8162001615919062002695565b90505b600186828585604051600081526020016040526040516200163d9493929190620026e2565b6020604051602081039080840390855afa15801562001660573d6000803e3d6000fd5b50505060206040510351935050505092915050565b610def806200273083390190565b6000604051905090565b600080fd5b600080fd5b600073ffffffffffffffffffffffffffffffffffffffff82169050919050565b6000620016c48262001697565b9050919050565b620016d681620016b7565b8114620016e257600080fd5b50565b600081359050620016f681620016cb565b92915050565b6000602082840312156200171557620017146200168d565b5b60006200172584828501620016e5565b91505092915050565b60006200173b8262001697565b9050919050565b6200174d816200172e565b81146200175957600080fd5b50565b6000813590506200176d8162001742565b92915050565b6000819050919050565b620017888162001773565b81146200179457600080fd5b50565b600081359050620017a8816200177d565b92915050565b600080fd5b600080fd5b6000601f19601f8301169050919050565b7f4e487b7100000000000000000000000000000000000000000000000000000000600052604160045260246000fd5b6200180382620017b8565b810181811067ffffffffffffffff82111715620018255762001824620017c9565b5b80604052505050565b60006200183a62001683565b9050620018488282620017f8565b919050565b600067ffffffffffffffff8211156200186b576200186a620017c9565b5b6200187682620017b8565b9050602081019050919050565b82818337600083830152505050565b6000620018a9620018a3846200184d565b6200182e565b905082815260208101848484011115620018c857620018c7620017b3565b5b620018d584828562001883565b509392505050565b600082601f830112620018f557620018f4620017ae565b5b81356200190784826020860162001892565b91505092915050565b600080600080600080600060e0888a0312156200193257620019316200168d565b5b6000620019428a828b016200175c565b9750506020620019558a828b016200175c565b9650506040620019688a828b0162001797565b95505060606200197b8a828b0162001797565b945050608088013567ffffffffffffffff8111156200199f576200199e62001692565b5b620019ad8a828b01620018dd565b93505060a0620019c08a828b0162001797565b92505060c0620019d38a828b0162001797565b91505092959891949750929550565b600080fd5b600080fd5b600060e0828403121562001a055762001a04620019e2565b5b62001a1160e06200182e565b9050600062001a23848285016200175c565b600083015250602062001a39848285016200175c565b602083015250604062001a4f8482850162001797565b604083015250606062001a658482850162001797565b606083015250608082013567ffffffffffffffff81111562001a8c5762001a8b620019e7565b5b62001a9a84828501620018dd565b60808301525060a062001ab08482850162001797565b60a08301525060c062001ac68482850162001797565b60c08301525092915050565b60006020828403121562001aeb5762001aea6200168d565b5b600082013567ffffffffffffffff81111562001b0c5762001b0b62001692565b5b62001b1a84828501620019ec565b91505092915050565b60006020828403121562001b3c5762001b3b6200168d565b5b600062001b4c8482850162001797565b91505092915050565b62001b608162001773565b82525050565b600060208201905062001b7d600083018462001b55565b92915050565b60006020828403121562001b9c5762001b9b6200168d565b5b600062001bac848285016200175c565b91505092915050565b62001bc0816200172e565b82525050565b600060208201905062001bdd600083018462001bb5565b92915050565b600082825260208201905092915050565b7f6f6e6c79206f776e65722063616e2063616c6c20746869730000000000000000600082015250565b600062001c2c60188362001be3565b915062001c398262001bf4565b602082019050919050565b6000602082019050818103600083015262001c5f8162001c1d565b9050919050565b7f496e76616c6964207369676e6174757265000000000000000000000000000000600082015250565b600062001c9e60118362001be3565b915062001cab8262001c66565b602082019050919050565b6000602082019050818103600083015262001cd18162001c8f565b9050919050565b7f50726f78792077616c6c6574206e6f7420666f756e6400000000000000000000600082015250565b600062001d1060168362001be3565b915062001d1d8262001cd8565b602082019050919050565b6000602082019050818103600083015262001d438162001d01565b9050919050565b60008151905062001d5b8162001742565b92915050565b60006020828403121562001d7a5762001d796200168d565b5b600062001d8a8482850162001d4a565b91505092915050565b7f53656c6c6572206973206e6f7420746865206f776e6572206f6620746869732060008201527f746f6b656e000000000000000000000000000000000000000000000000000000602082015250565b600062001df160258362001be3565b915062001dfe8262001d93565b604082019050919050565b6000602082019050818103600083015262001e248162001de2565b9050919050565b60008160601b9050919050565b600062001e458262001e2b565b9050919050565b600062001e598262001e38565b9050919050565b62001e7562001e6f826200172e565b62001e4c565b82525050565b6000819050919050565b62001e9a62001e948262001773565b62001e7b565b82525050565b600062001eae828962001e60565b60148201915062001ec0828862001e60565b60148201915062001ed2828762001e85565b60208201915062001ee4828662001e85565b60208201915062001ef6828562001e85565b60208201915062001f08828462001e85565b602082019150819050979650505050505050565b6000819050919050565b62001f318162001f1c565b82525050565b600060408201905062001f4e600083018562001f26565b62001f5d602083018462001b55565b9392505050565b600060208201905062001f7b600083018462001f26565b92915050565b600081519050919050565b600081905092915050565b60005b8381101562001fb757808201518184015260208101905062001f9a565b60008484015250505050565b600062001fd08262001f81565b62001fdc818562001f8c565b935062001fee81856020860162001f97565b80840191505092915050565b600062002008828462001fc3565b915081905092915050565b60008115159050919050565b6200202a8162002013565b81146200203657600080fd5b50565b6000815190506200204a816200201f565b92915050565b6000602082840312156200206957620020686200168d565b5b6000620020798482850162002039565b91505092915050565b7f4f72646572206973206e6f742076616c69640000000000000000000000000000600082015250565b6000620020ba60128362001be3565b9150620020c78262002082565b602082019050919050565b60006020820190508181036000830152620020ed81620020ab565b9050919050565b7f4e487b7100000000000000000000000000000000000000000000000000000000600052601160045260246000fd5b6000620021308262001773565b91506200213d8362001773565b9250828203905081811115620021585762002157620020f4565b5b92915050565b62002169816200172e565b82525050565b6200217a8162001773565b82525050565b600082825260208201905092915050565b60006200219e8262001f81565b620021aa818562002180565b9350620021bc81856020860162001f97565b620021c781620017b8565b840191505092915050565b600060e083016000830151620021ec60008601826200215e565b5060208301516200220160208601826200215e565b5060408301516200221660408601826200216f565b5060608301516200222b60608601826200216f565b506080830151848203608086015262002245828262002191565b91505060a08301516200225c60a08601826200216f565b5060c08301516200227160c08601826200216f565b508091505092915050565b60006040820190508181036000830152620022988185620021d2565b9050620022a9602083018462001bb5565b9392505050565b7f6d617463686661696c0000000000000000000000000000000000000000000000600082015250565b6000620022e860098362001be3565b9150620022f582620022b0565b602082019050919050565b600060208201905081810360008301526200231b81620022d9565b9050919050565b7f496e73756666696369656e74207061796d656e74000000000000000000000000600082015250565b60006200235a60148362001be3565b9150620023678262002322565b602082019050919050565b600060208201905081810360008301526200238d816200234b565b9050919050565b7f4f6e6c792073656c6c65722063616e2063616c6c20746869732066756e63746960008201527f6f6e000000000000000000000000000000000000000000000000000000000000602082015250565b6000620023f260228362001be3565b9150620023ff8262002394565b604082019050919050565b600060208201905081810360008301526200242581620023e3565b9050919050565b600060408201905062002443600083018562001b55565b62002452602083018462001b55565b9392505050565b7f50726f78792077616c6c657420616c7265616479206578697374730000000000600082015250565b600062002491601b8362001be3565b91506200249e8262002459565b602082019050919050565b60006020820190508181036000830152620024c48162002482565b9050919050565b6000620024d88262001773565b9150620024e58362001773565b9250828202620024f58162001773565b915082820484148315176200250f576200250e620020f4565b5b5092915050565b7f4e487b7100000000000000000000000000000000000000000000000000000000600052601260045260246000fd5b6000620025528262001773565b91506200255f8362001773565b92508262002572576200257162002516565b5b828204905092915050565b600081905092915050565b7f19457468657265756d205369676e6564204d6573736167653a0a333200000000600082015250565b6000620025c0601c836200257d565b9150620025cd8262002588565b601c82019050919050565b6000819050919050565b620025f7620025f18262001f1c565b620025d8565b82525050565b60006200260a82620025b1565b9150620026188284620025e2565b60208201915081905092915050565b60006020820190508181036000830152620026438184620021d2565b905092915050565b600060608201905062002662600083018662001b55565b62002671602083018562001f26565b62002680604083018462001b55565b949350505050565b600060ff82169050919050565b6000620026a28262002688565b9150620026af8362002688565b9250828201905060ff811115620026cb57620026ca620020f4565b5b92915050565b620026dc8162002688565b82525050565b6000608082019050620026f9600083018762001f26565b620027086020830186620026d1565b62002717604083018562001f26565b62002726606083018462001f26565b9594505050505056fe6080604052604051610def380380610def833981810160405281019061002591906100ce565b806000806101000a81548173ffffffffffffffffffffffffffffffffffffffff021916908373ffffffffffffffffffffffffffffffffffffffff160217905550506100fb565b600080fd5b600073ffffffffffffffffffffffffffffffffffffffff82169050919050565b600061009b82610070565b9050919050565b6100ab81610090565b81146100b657600080fd5b50565b6000815190506100c8816100a2565b92915050565b6000602082840312156100e4576100e361006b565b5b60006100f2848285016100b9565b91505092915050565b610ce58061010a6000396000f3fe60806040526004361061003f5760003560e01c80638eb6a489146100445780639b3f3f1a14610081578063c04d75dd146100aa578063eb41850d146100c6575b600080fd5b34801561005057600080fd5b5061006b6004803603810190610066919061056a565b610103565b60405161007891906105b2565b60405180910390f35b34801561008d57600080fd5b506100a860048036038101906100a39190610881565b610123565b005b6100c460048036038101906100bf91906108ca565b6101e7565b005b3480156100d257600080fd5b506100ed60048036038101906100e8919061056a565b61038c565b6040516100fa91906105b2565b60405180910390f35b60016020528060005260406000206000915054906101000a900460ff1681565b61014e816000015182602001518360400151846060015185608001518660a001518760c001516103b6565b61018d576040517f08c379a000000000000000000000000000000000000000000000000000000000815260040161018490610983565b60405180910390fd5b600081600001518260200151836040015184606001518560a001518660c001516040516020016101c296959493929190610a0c565b6040516020818303038152906040528051906020012090506101e38161045e565b5050565b600082600001518360200151846040015185606001518660a001518760c0015160405160200161021c96959493929190610a0c565b6040516020818303038152906040528051906020012090506001600082815260200190815260200160002060009054906101000a900460ff1615610295576040517f08c379a000000000000000000000000000000000000000000000000000000000815260040161028c90610ac8565b60405180910390fd5b6102c0836000015184602001518560400151866060015187608001518860a001518960c001516103b6565b6102ff576040517f08c379a00000000000000000000000000000000000000000000000000000000081526004016102f690610983565b60405180910390fd5b826020015173ffffffffffffffffffffffffffffffffffffffff166323b872dd84600001518486604001516040518463ffffffff1660e01b815260040161034893929190610b06565b600060405180830381600087803b15801561036257600080fd5b505af1925050508015610373575060015b61037d5750610388565b6103868161045e565b505b5050565b60006001600083815260200190815260200160002060009054906101000a900460ff169050919050565b6000808888888887876040516020016103d496959493929190610a0c565b6040516020818303038152906040528051906020012090506000816040516020016103ff9190610bb5565b6040516020818303038152906040528051906020012090508973ffffffffffffffffffffffffffffffffffffffff16610438828861048c565b73ffffffffffffffffffffffffffffffffffffffff161492505050979650505050505050565b600180600083815260200190815260200160002060006101000a81548160ff02191690831515021790555050565b6000806000806020850151925060408501519150606085015160001a9050601b8160ff1610156104c657601b816104c39190610c17565b90505b600186828585604051600081526020016040526040516104e99493929190610c6a565b6020604051602081039080840390855afa15801561050b573d6000803e3d6000fd5b50505060206040510351935050505092915050565b6000604051905090565b600080fd5b600080fd5b6000819050919050565b61054781610534565b811461055257600080fd5b50565b6000813590506105648161053e565b92915050565b6000602082840312156105805761057f61052a565b5b600061058e84828501610555565b91505092915050565b60008115159050919050565b6105ac81610597565b82525050565b60006020820190506105c760008301846105a3565b92915050565b600080fd5b6000601f19601f8301169050919050565b7f4e487b7100000000000000000000000000000000000000000000000000000000600052604160045260246000fd5b61061b826105d2565b810181811067ffffffffffffffff8211171561063a576106396105e3565b5b80604052505050565b600061064d610520565b90506106598282610612565b919050565b600080fd5b600073ffffffffffffffffffffffffffffffffffffffff82169050919050565b600061068e82610663565b9050919050565b61069e81610683565b81146106a957600080fd5b50565b6000813590506106bb81610695565b92915050565b6000819050919050565b6106d4816106c1565b81146106df57600080fd5b50565b6000813590506106f1816106cb565b92915050565b600080fd5b600080fd5b600067ffffffffffffffff82111561071c5761071b6105e3565b5b610725826105d2565b9050602081019050919050565b82818337600083830152505050565b600061075461074f84610701565b610643565b9050828152602081018484840111156107705761076f6106fc565b5b61077b848285610732565b509392505050565b600082601f830112610798576107976106f7565b5b81356107a8848260208601610741565b91505092915050565b600060e082840312156107c7576107c66105cd565b5b6107d160e0610643565b905060006107e1848285016106ac565b60008301525060206107f5848285016106ac565b6020830152506040610809848285016106e2565b604083015250606061081d848285016106e2565b606083015250608082013567ffffffffffffffff8111156108415761084061065e565b5b61084d84828501610783565b60808301525060a0610861848285016106e2565b60a08301525060c0610875848285016106e2565b60c08301525092915050565b6000602082840312156108975761089661052a565b5b600082013567ffffffffffffffff8111156108b5576108b461052f565b5b6108c1848285016107b1565b91505092915050565b600080604083850312156108e1576108e061052a565b5b600083013567ffffffffffffffff8111156108ff576108fe61052f565b5b61090b858286016107b1565b925050602061091c858286016106ac565b9150509250929050565b600082825260208201905092915050565b7f496e76616c6964207369676e6174757265000000000000000000000000000000600082015250565b600061096d601183610926565b915061097882610937565b602082019050919050565b6000602082019050818103600083015261099c81610960565b9050919050565b60008160601b9050919050565b60006109bb826109a3565b9050919050565b60006109cd826109b0565b9050919050565b6109e56109e082610683565b6109c2565b82525050565b6000819050919050565b610a06610a01826106c1565b6109eb565b82525050565b6000610a1882896109d4565b601482019150610a2882886109d4565b601482019150610a3882876109f5565b602082019150610a4882866109f5565b602082019150610a5882856109f5565b602082019150610a6882846109f5565b602082019150819050979650505050505050565b7f4f7264657220686173206265656e207573656400000000000000000000000000600082015250565b6000610ab2601383610926565b9150610abd82610a7c565b602082019050919050565b60006020820190508181036000830152610ae181610aa5565b9050919050565b610af181610683565b82525050565b610b00816106c1565b82525050565b6000606082019050610b1b6000830186610ae8565b610b286020830185610ae8565b610b356040830184610af7565b949350505050565b600081905092915050565b7f19457468657265756d205369676e6564204d6573736167653a0a333200000000600082015250565b6000610b7e601c83610b3d565b9150610b8982610b48565b601c82019050919050565b6000819050919050565b610baf610baa82610534565b610b94565b82525050565b6000610bc082610b71565b9150610bcc8284610b9e565b60208201915081905092915050565b600060ff82169050919050565b7f4e487b7100000000000000000000000000000000000000000000000000000000600052601160045260246000fd5b6000610c2282610bdb565b9150610c2d83610bdb565b9250828201905060ff811115610c4657610c45610be8565b5b92915050565b610c5581610534565b82525050565b610c6481610bdb565b82525050565b6000608082019050610c7f6000830187610c4c565b610c8c6020830186610c5b565b610c996040830185610c4c565b610ca66060830184610c4c565b9594505050505056fea2646970667358221220ab72ef69deae48b0758f3602ff2914bc002da651fb9ecb18dc9b9bcd1b7ade3264736f6c63430008120033a2646970667358221220f357e0632ccadde2e61a38bc1ae22d87a55deff1cc59701e68d4fe4971f9d3dd64736f6c63430008120033",
					"opcodes": "PUSH1 0x80 PUSH1 0x40 MSTORE PUSH1 0x2 DUP1 SSTORE PUSH1 0x40 MLOAD PUSH3 0x3675 CODESIZE SUB DUP1 PUSH3 0x3675 DUP4 CODECOPY DUP2 DUP2 ADD PUSH1 0x40 MSTORE DUP2 ADD SWAP1 PUSH3 0x2D SWAP2 SWAP1 PUSH3 0xDF JUMP JUMPDEST DUP1 PUSH1 0x3 PUSH1 0x0 PUSH2 0x100 EXP DUP2 SLOAD DUP2 PUSH20 0xFFFFFFFFFFFFFFFFFFFFFFFFFFFFFFFFFFFFFFFF MUL NOT AND SWAP1 DUP4 PUSH20 0xFFFFFFFFFFFFFFFFFFFFFFFFFFFFFFFFFFFFFFFF AND MUL OR SWAP1 SSTORE POP POP PUSH3 0x111 JUMP JUMPDEST PUSH1 0x0 DUP1 REVERT JUMPDEST PUSH1 0x0 PUSH20 0xFFFFFFFFFFFFFFFFFFFFFFFFFFFFFFFFFFFFFFFF DUP3 AND SWAP1 POP SWAP2 SWAP1 POP JUMP JUMPDEST PUSH1 0x0 PUSH3 0xA7 DUP3 PUSH3 0x7A JUMP JUMPDEST SWAP1 POP SWAP2 SWAP1 POP JUMP JUMPDEST PUSH3 0xB9 DUP2 PUSH3 0x9A JUMP JUMPDEST DUP2 EQ PUSH3 0xC5 JUMPI PUSH1 0x0 DUP1 REVERT JUMPDEST POP JUMP JUMPDEST PUSH1 0x0 DUP2 MLOAD SWAP1 POP PUSH3 0xD9 DUP2 PUSH3 0xAE JUMP JUMPDEST SWAP3 SWAP2 POP POP JUMP JUMPDEST PUSH1 0x0 PUSH1 0x20 DUP3 DUP5 SUB SLT ISZERO PUSH3 0xF8 JUMPI PUSH3 0xF7 PUSH3 0x75 JUMP JUMPDEST JUMPDEST PUSH1 0x0 PUSH3 0x108 DUP5 DUP3 DUP6 ADD PUSH3 0xC8 JUMP JUMPDEST SWAP2 POP POP SWAP3 SWAP2 POP POP JUMP JUMPDEST PUSH2 0x3554 DUP1 PUSH3 0x121 PUSH1 0x0 CODECOPY PUSH1 0x0 RETURN INVALID PUSH1 0x80 PUSH1 0x40 MSTORE PUSH1 0x4 CALLDATASIZE LT PUSH3 0x7A JUMPI PUSH1 0x0 CALLDATALOAD PUSH1 0xE0 SHR DUP1 PUSH4 0x7B84FDA5 GT PUSH3 0x55 JUMPI DUP1 PUSH4 0x7B84FDA5 EQ PUSH3 0xFB JUMPI DUP1 PUSH4 0x84E5EED0 EQ PUSH3 0x129 JUMPI DUP1 PUSH4 0xC2A1D6C9 EQ PUSH3 0x159 JUMPI DUP1 PUSH4 0xC465DB0A EQ PUSH3 0x173 JUMPI PUSH3 0x7A JUMP JUMPDEST DUP1 PUSH4 0x7E4AC72 EQ PUSH3 0x7F JUMPI DUP1 PUSH4 0x171AB662 EQ PUSH3 0xAD JUMPI DUP1 PUSH4 0x59BE1362 EQ PUSH3 0xCD JUMPI JUMPDEST PUSH1 0x0 DUP1 REVERT JUMPDEST CALLVALUE DUP1 ISZERO PUSH3 0x8C JUMPI PUSH1 0x0 DUP1 REVERT JUMPDEST POP PUSH3 0xAB PUSH1 0x4 DUP1 CALLDATASIZE SUB DUP2 ADD SWAP1 PUSH3 0xA5 SWAP2 SWAP1 PUSH3 0x16FC JUMP JUMPDEST PUSH3 0x1B7 JUMP JUMPDEST STOP JUMPDEST PUSH3 0xCB PUSH1 0x4 DUP1 CALLDATASIZE SUB DUP2 ADD SWAP1 PUSH3 0xC5 SWAP2 SWAP1 PUSH3 0x1910 JUMP JUMPDEST PUSH3 0x28E JUMP JUMPDEST STOP JUMPDEST CALLVALUE DUP1 ISZERO PUSH3 0xDA JUMPI PUSH1 0x0 DUP1 REVERT JUMPDEST POP PUSH3 0xF9 PUSH1 0x4 DUP1 CALLDATASIZE SUB DUP2 ADD SWAP1 PUSH3 0xF3 SWAP2 SWAP1 PUSH3 0x1AD2 JUMP JUMPDEST PUSH3 0xB99 JUMP JUMPDEST STOP JUMPDEST CALLVALUE DUP1 ISZERO PUSH3 0x108 JUMPI PUSH1 0x0 DUP1 REVERT JUMPDEST POP PUSH3 0x127 PUSH1 0x4 DUP1 CALLDATASIZE SUB DUP2 ADD SWAP1 PUSH3 0x121 SWAP2 SWAP1 PUSH3 0x1B23 JUMP JUMPDEST PUSH3 0xC1E JUMP JUMPDEST STOP JUMPDEST CALLVALUE DUP1 ISZERO PUSH3 0x136 JUMPI PUSH1 0x0 DUP1 REVERT JUMPDEST POP PUSH3 0x141 PUSH3 0xCFE JUMP JUMPDEST PUSH1 0x40 MLOAD PUSH3 0x150 SWAP2 SWAP1 PUSH3 0x1B66 JUMP JUMPDEST PUSH1 0x40 MLOAD DUP1 SWAP2 SUB SWAP1 RETURN JUMPDEST CALLVALUE DUP1 ISZERO PUSH3 0x166 JUMPI PUSH1 0x0 DUP1 REVERT JUMPDEST POP PUSH3 0x171 PUSH3 0xD08 JUMP JUMPDEST STOP JUMPDEST CALLVALUE DUP1 ISZERO PUSH3 0x180 JUMPI PUSH1 0x0 DUP1 REVERT JUMPDEST POP PUSH3 0x19F PUSH1 0x4 DUP1 CALLDATASIZE SUB DUP2 ADD SWAP1 PUSH3 0x199 SWAP2 SWAP1 PUSH3 0x1B83 JUMP JUMPDEST PUSH3 0xEF1 JUMP JUMPDEST PUSH1 0x40 MLOAD PUSH3 0x1AE SWAP2 SWAP1 PUSH3 0x1BC6 JUMP JUMPDEST PUSH1 0x40 MLOAD DUP1 SWAP2 SUB SWAP1 RETURN JUMPDEST PUSH1 0x3 PUSH1 0x0 SWAP1 SLOAD SWAP1 PUSH2 0x100 EXP SWAP1 DIV PUSH20 0xFFFFFFFFFFFFFFFFFFFFFFFFFFFFFFFFFFFFFFFF AND PUSH20 0xFFFFFFFFFFFFFFFFFFFFFFFFFFFFFFFFFFFFFFFF AND CALLER PUSH20 0xFFFFFFFFFFFFFFFFFFFFFFFFFFFFFFFFFFFFFFFF AND EQ PUSH3 0x24A JUMPI PUSH1 0x40 MLOAD PUSH32 0x8C379A000000000000000000000000000000000000000000000000000000000 DUP2 MSTORE PUSH1 0x4 ADD PUSH3 0x241 SWAP1 PUSH3 0x1C44 JUMP JUMPDEST PUSH1 0x40 MLOAD DUP1 SWAP2 SUB SWAP1 REVERT JUMPDEST DUP1 PUSH1 0x1 PUSH1 0x0 PUSH2 0x100 EXP DUP2 SLOAD DUP2 PUSH20 0xFFFFFFFFFFFFFFFFFFFFFFFFFFFFFFFFFFFFFFFF MUL NOT AND SWAP1 DUP4 PUSH20 0xFFFFFFFFFFFFFFFFFFFFFFFFFFFFFFFFFFFFFFFF AND MUL OR SWAP1 SSTORE POP POP JUMP JUMPDEST PUSH1 0x0 PUSH1 0x40 MLOAD DUP1 PUSH1 0xE0 ADD PUSH1 0x40 MSTORE DUP1 DUP10 PUSH20 0xFFFFFFFFFFFFFFFFFFFFFFFFFFFFFFFFFFFFFFFF AND DUP2 MSTORE PUSH1 0x20 ADD DUP9 PUSH20 0xFFFFFFFFFFFFFFFFFFFFFFFFFFFFFFFFFFFFFFFF AND DUP2 MSTORE PUSH1 0x20 ADD DUP8 DUP2 MSTORE PUSH1 0x20 ADD DUP7 DUP2 MSTORE PUSH1 0x20 ADD DUP6 DUP2 MSTORE PUSH1 0x20 ADD DUP5 DUP2 MSTORE PUSH1 0x20 ADD DUP4 DUP2 MSTORE POP SWAP1 POP PUSH1 0x0 CALLVALUE SWAP1 POP PUSH1 0x0 PUSH3 0x328 PUSH1 0x64 PUSH3 0x319 PUSH1 0x2 SLOAD DUP7 PUSH1 0x60 ADD MLOAD PUSH3 0x1104 SWAP1 SWAP2 SWAP1 PUSH4 0xFFFFFFFF AND JUMP JUMPDEST PUSH3 0x111C SWAP1 SWAP2 SWAP1 PUSH4 0xFFFFFFFF AND JUMP JUMPDEST SWAP1 POP PUSH3 0x357 DUP4 PUSH1 0x0 ADD MLOAD DUP5 PUSH1 0x20 ADD MLOAD DUP6 PUSH1 0x40 ADD MLOAD DUP7 PUSH1 0x60 ADD MLOAD DUP8 PUSH1 0x80 ADD MLOAD DUP9 PUSH1 0xA0 ADD MLOAD DUP10 PUSH1 0xC0 ADD MLOAD PUSH3 0x1134 JUMP JUMPDEST PUSH3 0x399 JUMPI PUSH1 0x40 MLOAD PUSH32 0x8C379A000000000000000000000000000000000000000000000000000000000 DUP2 MSTORE PUSH1 0x4 ADD PUSH3 0x390 SWAP1 PUSH3 0x1CB6 JUMP JUMPDEST PUSH1 0x40 MLOAD DUP1 SWAP2 SUB SWAP1 REVERT JUMPDEST PUSH1 0x0 PUSH1 0x4 PUSH1 0x0 DUP6 PUSH1 0x0 ADD MLOAD PUSH20 0xFFFFFFFFFFFFFFFFFFFFFFFFFFFFFFFFFFFFFFFF AND PUSH20 0xFFFFFFFFFFFFFFFFFFFFFFFFFFFFFFFFFFFFFFFF AND DUP2 MSTORE PUSH1 0x20 ADD SWAP1 DUP2 MSTORE PUSH1 0x20 ADD PUSH1 0x0 KECCAK256 PUSH1 0x0 SWAP1 SLOAD SWAP1 PUSH2 0x100 EXP SWAP1 DIV PUSH20 0xFFFFFFFFFFFFFFFFFFFFFFFFFFFFFFFFFFFFFFFF AND SWAP1 POP PUSH1 0x0 PUSH20 0xFFFFFFFFFFFFFFFFFFFFFFFFFFFFFFFFFFFFFFFF AND DUP2 PUSH20 0xFFFFFFFFFFFFFFFFFFFFFFFFFFFFFFFFFFFFFFFF AND SUB PUSH3 0x473 JUMPI PUSH1 0x40 MLOAD PUSH32 0x8C379A000000000000000000000000000000000000000000000000000000000 DUP2 MSTORE PUSH1 0x4 ADD PUSH3 0x46A SWAP1 PUSH3 0x1D28 JUMP JUMPDEST PUSH1 0x40 MLOAD DUP1 SWAP2 SUB SWAP1 REVERT JUMPDEST DUP4 PUSH1 0x0 ADD MLOAD PUSH20 0xFFFFFFFFFFFFFFFFFFFFFFFFFFFFFFFFFFFFFFFF AND DUP5 PUSH1 0x20 ADD MLOAD PUSH20 0xFFFFFFFFFFFFFFFFFFFFFFFFFFFFFFFFFFFFFFFF AND PUSH4 0x6352211E DUP7 PUSH1 0x40 ADD MLOAD PUSH1 0x40 MLOAD DUP3 PUSH4 0xFFFFFFFF AND PUSH1 0xE0 SHL DUP2 MSTORE PUSH1 0x4 ADD PUSH3 0x4D1 SWAP2 SWAP1 PUSH3 0x1B66 JUMP JUMPDEST PUSH1 0x20 PUSH1 0x40 MLOAD DUP1 DUP4 SUB DUP2 DUP7 GAS STATICCALL ISZERO DUP1 ISZERO PUSH3 0x4EF JUMPI RETURNDATASIZE PUSH1 0x0 DUP1 RETURNDATACOPY RETURNDATASIZE PUSH1 0x0 REVERT JUMPDEST POP POP POP POP PUSH1 0x40 MLOAD RETURNDATASIZE PUSH1 0x1F NOT PUSH1 0x1F DUP3 ADD AND DUP3 ADD DUP1 PUSH1 0x40 MSTORE POP DUP2 ADD SWAP1 PUSH3 0x515 SWAP2 SWAP1 PUSH3 0x1D61 JUMP JUMPDEST PUSH20 0xFFFFFFFFFFFFFFFFFFFFFFFFFFFFFFFFFFFFFFFF AND EQ PUSH3 0x56E JUMPI PUSH1 0x40 MLOAD PUSH32 0x8C379A000000000000000000000000000000000000000000000000000000000 DUP2 MSTORE PUSH1 0x4 ADD PUSH3 0x565 SWAP1 PUSH3 0x1E09 JUMP JUMPDEST PUSH1 0x40 MLOAD DUP1 SWAP2 SUB SWAP1 REVERT JUMPDEST PUSH1 0x0 DUP5 PUSH1 0x0 ADD MLOAD DUP6 PUSH1 0x20 ADD MLOAD DUP7 PUSH1 0x40 ADD MLOAD DUP8 PUSH1 0x60 ADD MLOAD DUP9 PUSH1 0xA0 ADD MLOAD DUP10 PUSH1 0xC0 ADD MLOAD PUSH1 0x40 MLOAD PUSH1 0x20 ADD PUSH3 0x5A5 SWAP7 SWAP6 SWAP5 SWAP4 SWAP3 SWAP2 SWAP1 PUSH3 0x1EA0 JUMP JUMPDEST PUSH1 0x40 MLOAD PUSH1 0x20 DUP2 DUP4 SUB SUB DUP2 MSTORE SWAP1 PUSH1 0x40 MSTORE DUP1 MLOAD SWAP1 PUSH1 0x20 ADD KECCAK256 SWAP1 POP DUP5 PUSH1 0xA0 ADD MLOAD TIMESTAMP GT ISZERO PUSH3 0x655 JUMPI PUSH3 0x5D5 DUP6 PUSH3 0x11E2 JUMP JUMPDEST DUP5 PUSH1 0x20 ADD MLOAD PUSH20 0xFFFFFFFFFFFFFFFFFFFFFFFFFFFFFFFFFFFFFFFF AND DUP6 PUSH1 0x0 ADD MLOAD PUSH20 0xFFFFFFFFFFFFFFFFFFFFFFFFFFFFFFFFFFFFFFFF AND PUSH32 0x68138F0EE854A322025BC4FDF83BF151264D42CBC5930A3AFC396A82980028D6 DUP4 DUP9 PUSH1 0x40 ADD MLOAD PUSH1 0x40 MLOAD PUSH3 0x642 SWAP3 SWAP2 SWAP1 PUSH3 0x1F37 JUMP JUMPDEST PUSH1 0x40 MLOAD DUP1 SWAP2 SUB SWAP1 LOG3 POP POP POP POP POP PUSH3 0xB90 JUMP JUMPDEST PUSH1 0x0 DUP1 DUP4 PUSH20 0xFFFFFFFFFFFFFFFFFFFFFFFFFFFFFFFFFFFFFFFF AND DUP4 PUSH1 0x40 MLOAD PUSH1 0x24 ADD PUSH3 0x682 SWAP2 SWAP1 PUSH3 0x1F64 JUMP JUMPDEST PUSH1 0x40 MLOAD PUSH1 0x20 DUP2 DUP4 SUB SUB DUP2 MSTORE SWAP1 PUSH1 0x40 MSTORE PUSH32 0xEB41850D00000000000000000000000000000000000000000000000000000000 PUSH28 0xFFFFFFFFFFFFFFFFFFFFFFFFFFFFFFFFFFFFFFFFFFFFFFFFFFFFFFFF NOT AND PUSH1 0x20 DUP3 ADD DUP1 MLOAD PUSH28 0xFFFFFFFFFFFFFFFFFFFFFFFFFFFFFFFFFFFFFFFFFFFFFFFFFFFFFFFF DUP4 DUP2 DUP4 AND OR DUP4 MSTORE POP POP POP POP PUSH1 0x40 MLOAD PUSH3 0x70E SWAP2 SWAP1 PUSH3 0x1FFA JUMP JUMPDEST PUSH1 0x0 PUSH1 0x40 MLOAD DUP1 DUP4 SUB DUP2 PUSH1 0x0 DUP7 GAS CALL SWAP2 POP POP RETURNDATASIZE DUP1 PUSH1 0x0 DUP2 EQ PUSH3 0x74D JUMPI PUSH1 0x40 MLOAD SWAP2 POP PUSH1 0x1F NOT PUSH1 0x3F RETURNDATASIZE ADD AND DUP3 ADD PUSH1 0x40 MSTORE RETURNDATASIZE DUP3 MSTORE RETURNDATASIZE PUSH1 0x0 PUSH1 0x20 DUP5 ADD RETURNDATACOPY PUSH3 0x752 JUMP JUMPDEST PUSH1 0x60 SWAP2 POP JUMPDEST POP SWAP2 POP SWAP2 POP PUSH1 0x0 DUP2 DUP1 PUSH1 0x20 ADD SWAP1 MLOAD DUP2 ADD SWAP1 PUSH3 0x76F SWAP2 SWAP1 PUSH3 0x2050 JUMP JUMPDEST SWAP1 POP DUP3 DUP1 ISZERO PUSH3 0x77D JUMPI POP DUP1 ISZERO JUMPDEST PUSH3 0x7BF JUMPI PUSH1 0x40 MLOAD PUSH32 0x8C379A000000000000000000000000000000000000000000000000000000000 DUP2 MSTORE PUSH1 0x4 ADD PUSH3 0x7B6 SWAP1 PUSH3 0x20D2 JUMP JUMPDEST PUSH1 0x40 MLOAD DUP1 SWAP2 SUB SWAP1 REVERT JUMPDEST DUP8 PUSH1 0x60 ADD MLOAD DUP7 DUP9 PUSH3 0x7D2 SWAP2 SWAP1 PUSH3 0x2123 JUMP JUMPDEST LT PUSH3 0xB4A JUMPI PUSH1 0x0 DUP1 DUP7 PUSH20 0xFFFFFFFFFFFFFFFFFFFFFFFFFFFFFFFFFFFFFFFF AND DUP11 CALLER PUSH1 0x40 MLOAD PUSH1 0x24 ADD PUSH3 0x807 SWAP3 SWAP2 SWAP1 PUSH3 0x227C JUMP JUMPDEST PUSH1 0x40 MLOAD PUSH1 0x20 DUP2 DUP4 SUB SUB DUP2 MSTORE SWAP1 PUSH1 0x40 MSTORE PUSH32 0xC04D75DD00000000000000000000000000000000000000000000000000000000 PUSH28 0xFFFFFFFFFFFFFFFFFFFFFFFFFFFFFFFFFFFFFFFFFFFFFFFFFFFFFFFF NOT AND PUSH1 0x20 DUP3 ADD DUP1 MLOAD PUSH28 0xFFFFFFFFFFFFFFFFFFFFFFFFFFFFFFFFFFFFFFFFFFFFFFFFFFFFFFFF DUP4 DUP2 DUP4 AND OR DUP4 MSTORE POP POP POP POP PUSH1 0x40 MLOAD PUSH3 0x893 SWAP2 SWAP1 PUSH3 0x1FFA JUMP JUMPDEST PUSH1 0x0 PUSH1 0x40 MLOAD DUP1 DUP4 SUB DUP2 PUSH1 0x0 DUP7 GAS CALL SWAP2 POP POP RETURNDATASIZE DUP1 PUSH1 0x0 DUP2 EQ PUSH3 0x8D2 JUMPI PUSH1 0x40 MLOAD SWAP2 POP PUSH1 0x1F NOT PUSH1 0x3F RETURNDATASIZE ADD AND DUP3 ADD PUSH1 0x40 MSTORE RETURNDATASIZE DUP3 MSTORE RETURNDATASIZE PUSH1 0x0 PUSH1 0x20 DUP5 ADD RETURNDATACOPY PUSH3 0x8D7 JUMP JUMPDEST PUSH1 0x60 SWAP2 POP JUMPDEST POP SWAP2 POP SWAP2 POP CALLER PUSH20 0xFFFFFFFFFFFFFFFFFFFFFFFFFFFFFFFFFFFFFFFF AND DUP11 PUSH1 0x20 ADD MLOAD PUSH20 0xFFFFFFFFFFFFFFFFFFFFFFFFFFFFFFFFFFFFFFFF AND PUSH4 0x6352211E DUP13 PUSH1 0x40 ADD MLOAD PUSH1 0x40 MLOAD DUP3 PUSH4 0xFFFFFFFF AND PUSH1 0xE0 SHL DUP2 MSTORE PUSH1 0x4 ADD PUSH3 0x936 SWAP2 SWAP1 PUSH3 0x1B66 JUMP JUMPDEST PUSH1 0x20 PUSH1 0x40 MLOAD DUP1 DUP4 SUB DUP2 DUP7 GAS STATICCALL ISZERO DUP1 ISZERO PUSH3 0x954 JUMPI RETURNDATASIZE PUSH1 0x0 DUP1 RETURNDATACOPY RETURNDATASIZE PUSH1 0x0 REVERT JUMPDEST POP POP POP POP PUSH1 0x40 MLOAD RETURNDATASIZE PUSH1 0x1F NOT PUSH1 0x1F DUP3 ADD AND DUP3 ADD DUP1 PUSH1 0x40 MSTORE POP DUP2 ADD SWAP1 PUSH3 0x97A SWAP2 SWAP1 PUSH3 0x1D61 JUMP JUMPDEST PUSH20 0xFFFFFFFFFFFFFFFFFFFFFFFFFFFFFFFFFFFFFFFF AND SUB PUSH3 0xAFA JUMPI PUSH3 0x9A1 DUP11 PUSH3 0x1411 JUMP JUMPDEST PUSH1 0x1 PUSH1 0x0 SWAP1 SLOAD SWAP1 PUSH2 0x100 EXP SWAP1 DIV PUSH20 0xFFFFFFFFFFFFFFFFFFFFFFFFFFFFFFFFFFFFFFFF AND PUSH20 0xFFFFFFFFFFFFFFFFFFFFFFFFFFFFFFFFFFFFFFFF AND PUSH2 0x8FC DUP10 SWAP1 DUP2 ISZERO MUL SWAP1 PUSH1 0x40 MLOAD PUSH1 0x0 PUSH1 0x40 MLOAD DUP1 DUP4 SUB DUP2 DUP6 DUP9 DUP9 CALL SWAP4 POP POP POP POP ISZERO DUP1 ISZERO PUSH3 0xA0A JUMPI RETURNDATASIZE PUSH1 0x0 DUP1 RETURNDATACOPY RETURNDATASIZE PUSH1 0x0 REVERT JUMPDEST POP DUP10 PUSH1 0x0 ADD MLOAD PUSH20 0xFFFFFFFFFFFFFFFFFFFFFFFFFFFFFFFFFFFFFFFF AND PUSH2 0x8FC DUP10 DUP12 PUSH3 0xA37 SWAP2 SWAP1 PUSH3 0x2123 JUMP JUMPDEST SWAP1 DUP2 ISZERO MUL SWAP1 PUSH1 0x40 MLOAD PUSH1 0x0 PUSH1 0x40 MLOAD DUP1 DUP4 SUB DUP2 DUP6 DUP9 DUP9 CALL SWAP4 POP POP POP POP PUSH3 0xAF4 JUMPI CALLER PUSH20 0xFFFFFFFFFFFFFFFFFFFFFFFFFFFFFFFFFFFFFFFF AND PUSH2 0x8FC DUP10 DUP12 PUSH3 0xA7E SWAP2 SWAP1 PUSH3 0x2123 JUMP JUMPDEST SWAP1 DUP2 ISZERO MUL SWAP1 PUSH1 0x40 MLOAD PUSH1 0x0 PUSH1 0x40 MLOAD DUP1 DUP4 SUB DUP2 DUP6 DUP9 DUP9 CALL SWAP4 POP POP POP POP ISZERO DUP1 ISZERO PUSH3 0xAAA JUMPI RETURNDATASIZE PUSH1 0x0 DUP1 RETURNDATACOPY RETURNDATASIZE PUSH1 0x0 REVERT JUMPDEST POP CALLER PUSH20 0xFFFFFFFFFFFFFFFFFFFFFFFFFFFFFFFFFFFFFFFF AND PUSH2 0x8FC DUP10 SWAP1 DUP2 ISZERO MUL SWAP1 PUSH1 0x40 MLOAD PUSH1 0x0 PUSH1 0x40 MLOAD DUP1 DUP4 SUB DUP2 DUP6 DUP9 DUP9 CALL SWAP4 POP POP POP POP ISZERO DUP1 ISZERO PUSH3 0xAF2 JUMPI RETURNDATASIZE PUSH1 0x0 DUP1 RETURNDATACOPY RETURNDATASIZE PUSH1 0x0 REVERT JUMPDEST POP JUMPDEST PUSH3 0xB42 JUMP JUMPDEST PUSH3 0xB05 DUP11 PUSH3 0x14F6 JUMP JUMPDEST PUSH1 0x40 MLOAD PUSH32 0x8C379A000000000000000000000000000000000000000000000000000000000 DUP2 MSTORE PUSH1 0x4 ADD PUSH3 0xB39 SWAP1 PUSH3 0x2300 JUMP JUMPDEST PUSH1 0x40 MLOAD DUP1 SWAP2 SUB SWAP1 REVERT JUMPDEST POP POP PUSH3 0xB87 JUMP JUMPDEST PUSH1 0x40 MLOAD PUSH32 0x8C379A000000000000000000000000000000000000000000000000000000000 DUP2 MSTORE PUSH1 0x4 ADD PUSH3 0xB7E SWAP1 PUSH3 0x2372 JUMP JUMPDEST PUSH1 0x40 MLOAD DUP1 SWAP2 SUB SWAP1 REVERT JUMPDEST POP POP POP POP POP POP POP POP JUMPDEST POP POP POP POP POP POP POP JUMP JUMPDEST DUP1 PUSH1 0x0 ADD MLOAD DUP1 PUSH20 0xFFFFFFFFFFFFFFFFFFFFFFFFFFFFFFFFFFFFFFFF AND CALLER PUSH20 0xFFFFFFFFFFFFFFFFFFFFFFFFFFFFFFFFFFFFFFFF AND EQ PUSH3 0xC0F JUMPI PUSH1 0x40 MLOAD PUSH32 0x8C379A000000000000000000000000000000000000000000000000000000000 DUP2 MSTORE PUSH1 0x4 ADD PUSH3 0xC06 SWAP1 PUSH3 0x240A JUMP JUMPDEST PUSH1 0x40 MLOAD DUP1 SWAP2 SUB SWAP1 REVERT JUMPDEST PUSH3 0xC1A DUP3 PUSH3 0x11E2 JUMP JUMPDEST POP POP JUMP JUMPDEST PUSH1 0x3 PUSH1 0x0 SWAP1 SLOAD SWAP1 PUSH2 0x100 EXP SWAP1 DIV PUSH20 0xFFFFFFFFFFFFFFFFFFFFFFFFFFFFFFFFFFFFFFFF AND PUSH20 0xFFFFFFFFFFFFFFFFFFFFFFFFFFFFFFFFFFFFFFFF AND CALLER PUSH20 0xFFFFFFFFFFFFFFFFFFFFFFFFFFFFFFFFFFFFFFFF AND EQ PUSH3 0xCB1 JUMPI PUSH1 0x40 MLOAD PUSH32 0x8C379A000000000000000000000000000000000000000000000000000000000 DUP2 MSTORE PUSH1 0x4 ADD PUSH3 0xCA8 SWAP1 PUSH3 0x1C44 JUMP JUMPDEST PUSH1 0x40 MLOAD DUP1 SWAP2 SUB SWAP1 REVERT JUMPDEST PUSH1 0x0 PUSH1 0x2 SLOAD SWAP1 POP DUP2 PUSH1 0x2 DUP2 SWAP1 SSTORE POP PUSH32 0x8D10D6DD6545B059182E4BF9534308BF75D7DE65CDD8A68C12B7B74F139E58AE DUP2 DUP4 PUSH1 0x40 MLOAD PUSH3 0xCF2 SWAP3 SWAP2 SWAP1 PUSH3 0x242C JUMP JUMPDEST PUSH1 0x40 MLOAD DUP1 SWAP2 SUB SWAP1 LOG1 POP POP JUMP JUMPDEST PUSH1 0x0 PUSH1 0x2 SLOAD SWAP1 POP SWAP1 JUMP JUMPDEST PUSH1 0x0 PUSH20 0xFFFFFFFFFFFFFFFFFFFFFFFFFFFFFFFFFFFFFFFF AND PUSH1 0x4 PUSH1 0x0 CALLER PUSH20 0xFFFFFFFFFFFFFFFFFFFFFFFFFFFFFFFFFFFFFFFF AND PUSH20 0xFFFFFFFFFFFFFFFFFFFFFFFFFFFFFFFFFFFFFFFF AND DUP2 MSTORE PUSH1 0x20 ADD SWAP1 DUP2 MSTORE PUSH1 0x20 ADD PUSH1 0x0 KECCAK256 PUSH1 0x0 SWAP1 SLOAD SWAP1 PUSH2 0x100 EXP SWAP1 DIV PUSH20 0xFFFFFFFFFFFFFFFFFFFFFFFFFFFFFFFFFFFFFFFF AND PUSH20 0xFFFFFFFFFFFFFFFFFFFFFFFFFFFFFFFFFFFFFFFF AND EQ PUSH3 0xDD9 JUMPI PUSH1 0x40 MLOAD PUSH32 0x8C379A000000000000000000000000000000000000000000000000000000000 DUP2 MSTORE PUSH1 0x4 ADD PUSH3 0xDD0 SWAP1 PUSH3 0x24A9 JUMP JUMPDEST PUSH1 0x40 MLOAD DUP1 SWAP2 SUB SWAP1 REVERT JUMPDEST CALLER PUSH1 0x40 MLOAD PUSH3 0xDE8 SWAP1 PUSH3 0x1675 JUMP JUMPDEST PUSH3 0xDF4 SWAP2 SWAP1 PUSH3 0x1BC6 JUMP JUMPDEST PUSH1 0x40 MLOAD DUP1 SWAP2 SUB SWAP1 PUSH1 0x0 CREATE DUP1 ISZERO DUP1 ISZERO PUSH3 0xE11 JUMPI RETURNDATASIZE PUSH1 0x0 DUP1 RETURNDATACOPY RETURNDATASIZE PUSH1 0x0 REVERT JUMPDEST POP PUSH1 0x0 DUP1 PUSH2 0x100 EXP DUP2 SLOAD DUP2 PUSH20 0xFFFFFFFFFFFFFFFFFFFFFFFFFFFFFFFFFFFFFFFF MUL NOT AND SWAP1 DUP4 PUSH20 0xFFFFFFFFFFFFFFFFFFFFFFFFFFFFFFFFFFFFFFFF AND MUL OR SWAP1 SSTORE POP PUSH1 0x0 DUP1 SLOAD SWAP1 PUSH2 0x100 EXP SWAP1 DIV PUSH20 0xFFFFFFFFFFFFFFFFFFFFFFFFFFFFFFFFFFFFFFFF AND PUSH1 0x4 PUSH1 0x0 CALLER PUSH20 0xFFFFFFFFFFFFFFFFFFFFFFFFFFFFFFFFFFFFFFFF AND PUSH20 0xFFFFFFFFFFFFFFFFFFFFFFFFFFFFFFFFFFFFFFFF AND DUP2 MSTORE PUSH1 0x20 ADD SWAP1 DUP2 MSTORE PUSH1 0x20 ADD PUSH1 0x0 KECCAK256 PUSH1 0x0 PUSH2 0x100 EXP DUP2 SLOAD DUP2 PUSH20 0xFFFFFFFFFFFFFFFFFFFFFFFFFFFFFFFFFFFFFFFF MUL NOT AND SWAP1 DUP4 PUSH20 0xFFFFFFFFFFFFFFFFFFFFFFFFFFFFFFFFFFFFFFFF AND MUL OR SWAP1 SSTORE POP JUMP JUMPDEST PUSH1 0x0 DUP1 PUSH20 0xFFFFFFFFFFFFFFFFFFFFFFFFFFFFFFFFFFFFFFFF AND PUSH1 0x4 PUSH1 0x0 DUP5 PUSH20 0xFFFFFFFFFFFFFFFFFFFFFFFFFFFFFFFFFFFFFFFF AND PUSH20 0xFFFFFFFFFFFFFFFFFFFFFFFFFFFFFFFFFFFFFFFF AND DUP2 MSTORE PUSH1 0x20 ADD SWAP1 DUP2 MSTORE PUSH1 0x20 ADD PUSH1 0x0 KECCAK256 PUSH1 0x0 SWAP1 SLOAD SWAP1 PUSH2 0x100 EXP SWAP1 DIV PUSH20 0xFFFFFFFFFFFFFFFFFFFFFFFFFFFFFFFFFFFFFFFF AND PUSH20 0xFFFFFFFFFFFFFFFFFFFFFFFFFFFFFFFFFFFFFFFF AND SUB PUSH3 0x109D JUMPI DUP2 PUSH1 0x40 MLOAD PUSH3 0xF95 SWAP1 PUSH3 0x1675 JUMP JUMPDEST PUSH3 0xFA1 SWAP2 SWAP1 PUSH3 0x1BC6 JUMP JUMPDEST PUSH1 0x40 MLOAD DUP1 SWAP2 SUB SWAP1 PUSH1 0x0 CREATE DUP1 ISZERO DUP1 ISZERO PUSH3 0xFBE JUMPI RETURNDATASIZE PUSH1 0x0 DUP1 RETURNDATACOPY RETURNDATASIZE PUSH1 0x0 REVERT JUMPDEST POP PUSH1 0x0 DUP1 PUSH2 0x100 EXP DUP2 SLOAD DUP2 PUSH20 0xFFFFFFFFFFFFFFFFFFFFFFFFFFFFFFFFFFFFFFFF MUL NOT AND SWAP1 DUP4 PUSH20 0xFFFFFFFFFFFFFFFFFFFFFFFFFFFFFFFFFFFFFFFF AND MUL OR SWAP1 SSTORE POP PUSH1 0x0 DUP1 SLOAD SWAP1 PUSH2 0x100 EXP SWAP1 DIV PUSH20 0xFFFFFFFFFFFFFFFFFFFFFFFFFFFFFFFFFFFFFFFF AND PUSH1 0x4 PUSH1 0x0 DUP5 PUSH20 0xFFFFFFFFFFFFFFFFFFFFFFFFFFFFFFFFFFFFFFFF AND PUSH20 0xFFFFFFFFFFFFFFFFFFFFFFFFFFFFFFFFFFFFFFFF AND DUP2 MSTORE PUSH1 0x20 ADD SWAP1 DUP2 MSTORE PUSH1 0x20 ADD PUSH1 0x0 KECCAK256 PUSH1 0x0 PUSH2 0x100 EXP DUP2 SLOAD DUP2 PUSH20 0xFFFFFFFFFFFFFFFFFFFFFFFFFFFFFFFFFFFFFFFF MUL NOT AND SWAP1 DUP4 PUSH20 0xFFFFFFFFFFFFFFFFFFFFFFFFFFFFFFFFFFFFFFFF AND MUL OR SWAP1 SSTORE POP JUMPDEST PUSH1 0x4 PUSH1 0x0 DUP4 PUSH20 0xFFFFFFFFFFFFFFFFFFFFFFFFFFFFFFFFFFFFFFFF AND PUSH20 0xFFFFFFFFFFFFFFFFFFFFFFFFFFFFFFFFFFFFFFFF AND DUP2 MSTORE PUSH1 0x20 ADD SWAP1 DUP2 MSTORE PUSH1 0x20 ADD PUSH1 0x0 KECCAK256 PUSH1 0x0 SWAP1 SLOAD SWAP1 PUSH2 0x100 EXP SWAP1 DIV PUSH20 0xFFFFFFFFFFFFFFFFFFFFFFFFFFFFFFFFFFFFFFFF AND SWAP1 POP SWAP2 SWAP1 POP JUMP JUMPDEST PUSH1 0x0 DUP2 DUP4 PUSH3 0x1114 SWAP2 SWAP1 PUSH3 0x24CB JUMP JUMPDEST SWAP1 POP SWAP3 SWAP2 POP POP JUMP JUMPDEST PUSH1 0x0 DUP2 DUP4 PUSH3 0x112C SWAP2 SWAP1 PUSH3 0x2545 JUMP JUMPDEST SWAP1 POP SWAP3 SWAP2 POP POP JUMP JUMPDEST PUSH1 0x0 DUP1 DUP9 DUP9 DUP9 DUP9 DUP8 DUP8 PUSH1 0x40 MLOAD PUSH1 0x20 ADD PUSH3 0x1154 SWAP7 SWAP6 SWAP5 SWAP4 SWAP3 SWAP2 SWAP1 PUSH3 0x1EA0 JUMP JUMPDEST PUSH1 0x40 MLOAD PUSH1 0x20 DUP2 DUP4 SUB SUB DUP2 MSTORE SWAP1 PUSH1 0x40 MSTORE DUP1 MLOAD SWAP1 PUSH1 0x20 ADD KECCAK256 SWAP1 POP PUSH1 0x0 DUP2 PUSH1 0x40 MLOAD PUSH1 0x20 ADD PUSH3 0x1181 SWAP2 SWAP1 PUSH3 0x25FD JUMP JUMPDEST PUSH1 0x40 MLOAD PUSH1 0x20 DUP2 DUP4 SUB SUB DUP2 MSTORE SWAP1 PUSH1 0x40 MSTORE DUP1 MLOAD SWAP1 PUSH1 0x20 ADD KECCAK256 SWAP1 POP DUP10 PUSH20 0xFFFFFFFFFFFFFFFFFFFFFFFFFFFFFFFFFFFFFFFF AND PUSH3 0x11BC DUP3 DUP9 PUSH3 0x15DB JUMP JUMPDEST PUSH20 0xFFFFFFFFFFFFFFFFFFFFFFFFFFFFFFFFFFFFFFFF AND EQ SWAP3 POP POP POP SWAP8 SWAP7 POP POP POP POP POP POP POP JUMP JUMPDEST PUSH1 0x0 DUP1 PUSH1 0x4 PUSH1 0x0 DUP5 PUSH1 0x0 ADD MLOAD PUSH20 0xFFFFFFFFFFFFFFFFFFFFFFFFFFFFFFFFFFFFFFFF AND PUSH20 0xFFFFFFFFFFFFFFFFFFFFFFFFFFFFFFFFFFFFFFFF AND DUP2 MSTORE PUSH1 0x20 ADD SWAP1 DUP2 MSTORE PUSH1 0x20 ADD PUSH1 0x0 KECCAK256 PUSH1 0x0 SWAP1 SLOAD SWAP1 PUSH2 0x100 EXP SWAP1 DIV PUSH20 0xFFFFFFFFFFFFFFFFFFFFFFFFFFFFFFFFFFFFFFFF AND PUSH20 0xFFFFFFFFFFFFFFFFFFFFFFFFFFFFFFFFFFFFFFFF AND DUP4 PUSH1 0x40 MLOAD PUSH1 0x24 ADD PUSH3 0x1272 SWAP2 SWAP1 PUSH3 0x2627 JUMP JUMPDEST PUSH1 0x40 MLOAD PUSH1 0x20 DUP2 DUP4 SUB SUB DUP2 MSTORE SWAP1 PUSH1 0x40 MSTORE PUSH32 0x9B3F3F1A00000000000000000000000000000000000000000000000000000000 PUSH28 0xFFFFFFFFFFFFFFFFFFFFFFFFFFFFFFFFFFFFFFFFFFFFFFFFFFFFFFFF NOT AND PUSH1 0x20 DUP3 ADD DUP1 MLOAD PUSH28 0xFFFFFFFFFFFFFFFFFFFFFFFFFFFFFFFFFFFFFFFFFFFFFFFFFFFFFFFF DUP4 DUP2 DUP4 AND OR DUP4 MSTORE POP POP POP POP PUSH1 0x40 MLOAD PUSH3 0x12FE SWAP2 SWAP1 PUSH3 0x1FFA JUMP JUMPDEST PUSH1 0x0 PUSH1 0x40 MLOAD DUP1 DUP4 SUB DUP2 PUSH1 0x0 DUP7 GAS CALL SWAP2 POP POP RETURNDATASIZE DUP1 PUSH1 0x0 DUP2 EQ PUSH3 0x133D JUMPI PUSH1 0x40 MLOAD SWAP2 POP PUSH1 0x1F NOT PUSH1 0x3F RETURNDATASIZE ADD AND DUP3 ADD PUSH1 0x40 MSTORE RETURNDATASIZE DUP3 MSTORE RETURNDATASIZE PUSH1 0x0 PUSH1 0x20 DUP5 ADD RETURNDATACOPY PUSH3 0x1342 JUMP JUMPDEST PUSH1 0x60 SWAP2 POP JUMPDEST POP SWAP2 POP SWAP2 POP PUSH1 0x0 DUP4 PUSH1 0x0 ADD MLOAD DUP5 PUSH1 0x20 ADD MLOAD DUP6 PUSH1 0x40 ADD MLOAD DUP7 PUSH1 0x60 ADD MLOAD DUP8 PUSH1 0xA0 ADD MLOAD DUP9 PUSH1 0xC0 ADD MLOAD PUSH1 0x40 MLOAD PUSH1 0x20 ADD PUSH3 0x137E SWAP7 SWAP6 SWAP5 SWAP4 SWAP3 SWAP2 SWAP1 PUSH3 0x1EA0 JUMP JUMPDEST PUSH1 0x40 MLOAD PUSH1 0x20 DUP2 DUP4 SUB SUB DUP2 MSTORE SWAP1 PUSH1 0x40 MSTORE DUP1 MLOAD SWAP1 PUSH1 0x20 ADD KECCAK256 SWAP1 POP DUP4 PUSH1 0x20 ADD MLOAD PUSH20 0xFFFFFFFFFFFFFFFFFFFFFFFFFFFFFFFFFFFFFFFF AND DUP5 PUSH1 0x0 ADD MLOAD PUSH20 0xFFFFFFFFFFFFFFFFFFFFFFFFFFFFFFFFFFFFFFFF AND PUSH32 0x9B3260990101A9C5EB670B44BA2F4EC1048DDAF533A012ABFF3841EF15307FEC DUP4 DUP8 PUSH1 0x40 ADD MLOAD PUSH1 0x40 MLOAD PUSH3 0x1403 SWAP3 SWAP2 SWAP1 PUSH3 0x1F37 JUMP JUMPDEST PUSH1 0x40 MLOAD DUP1 SWAP2 SUB SWAP1 LOG3 POP POP POP POP JUMP JUMPDEST PUSH1 0x0 DUP2 PUSH1 0x0 ADD MLOAD DUP3 PUSH1 0x20 ADD MLOAD DUP4 PUSH1 0x40 ADD MLOAD DUP5 PUSH1 0x60 ADD MLOAD DUP6 PUSH1 0xA0 ADD MLOAD DUP7 PUSH1 0xC0 ADD MLOAD PUSH1 0x40 MLOAD PUSH1 0x20 ADD PUSH3 0x1448 SWAP7 SWAP6 SWAP5 SWAP4 SWAP3 SWAP2 SWAP1 PUSH3 0x1EA0 JUMP JUMPDEST PUSH1 0x40 MLOAD PUSH1 0x20 DUP2 DUP4 SUB SUB DUP2 MSTORE SWAP1 PUSH1 0x40 MSTORE DUP1 MLOAD SWAP1 PUSH1 0x20 ADD KECCAK256 SWAP1 POP DUP2 PUSH1 0x20 ADD MLOAD PUSH20 0xFFFFFFFFFFFFFFFFFFFFFFFFFFFFFFFFFFFFFFFF AND CALLER PUSH20 0xFFFFFFFFFFFFFFFFFFFFFFFFFFFFFFFFFFFFFFFF AND DUP4 PUSH1 0x0 ADD MLOAD PUSH20 0xFFFFFFFFFFFFFFFFFFFFFFFFFFFFFFFFFFFFFFFF AND PUSH32 0x467F50BD8D1547CF60E60DBA76AB3FF7F8B3A07CEBA26C2268E160A7DF30230E DUP6 PUSH1 0x40 ADD MLOAD DUP6 DUP8 PUSH1 0x60 ADD MLOAD PUSH1 0x40 MLOAD PUSH3 0x14EA SWAP4 SWAP3 SWAP2 SWAP1 PUSH3 0x264B JUMP JUMPDEST PUSH1 0x40 MLOAD DUP1 SWAP2 SUB SWAP1 LOG4 POP POP JUMP JUMPDEST PUSH1 0x0 DUP2 PUSH1 0x0 ADD MLOAD DUP3 PUSH1 0x20 ADD MLOAD DUP4 PUSH1 0x40 ADD MLOAD DUP5 PUSH1 0x60 ADD MLOAD DUP6 PUSH1 0xA0 ADD MLOAD DUP7 PUSH1 0xC0 ADD MLOAD PUSH1 0x40 MLOAD PUSH1 0x20 ADD PUSH3 0x152D SWAP7 SWAP6 SWAP5 SWAP4 SWAP3 SWAP2 SWAP1 PUSH3 0x1EA0 JUMP JUMPDEST PUSH1 0x40 MLOAD PUSH1 0x20 DUP2 DUP4 SUB SUB DUP2 MSTORE SWAP1 PUSH1 0x40 MSTORE DUP1 MLOAD SWAP1 PUSH1 0x20 ADD KECCAK256 SWAP1 POP DUP2 PUSH1 0x20 ADD MLOAD PUSH20 0xFFFFFFFFFFFFFFFFFFFFFFFFFFFFFFFFFFFFFFFF AND CALLER PUSH20 0xFFFFFFFFFFFFFFFFFFFFFFFFFFFFFFFFFFFFFFFF AND DUP4 PUSH1 0x0 ADD MLOAD PUSH20 0xFFFFFFFFFFFFFFFFFFFFFFFFFFFFFFFFFFFFFFFF AND PUSH32 0x9BD8CC9F795935D6F423445D18DD997EDFEEC3D962973FADFFEAC5740E876B5F DUP6 PUSH1 0x40 ADD MLOAD DUP6 DUP8 PUSH1 0x60 ADD MLOAD PUSH1 0x40 MLOAD PUSH3 0x15CF SWAP4 SWAP3 SWAP2 SWAP1 PUSH3 0x264B JUMP JUMPDEST PUSH1 0x40 MLOAD DUP1 SWAP2 SUB SWAP1 LOG4 POP POP JUMP JUMPDEST PUSH1 0x0 DUP1 PUSH1 0x0 DUP1 PUSH1 0x20 DUP6 ADD MLOAD SWAP3 POP PUSH1 0x40 DUP6 ADD MLOAD SWAP2 POP PUSH1 0x60 DUP6 ADD MLOAD PUSH1 0x0 BYTE SWAP1 POP PUSH1 0x1B DUP2 PUSH1 0xFF AND LT ISZERO PUSH3 0x1618 JUMPI PUSH1 0x1B DUP2 PUSH3 0x1615 SWAP2 SWAP1 PUSH3 0x2695 JUMP JUMPDEST SWAP1 POP JUMPDEST PUSH1 0x1 DUP7 DUP3 DUP6 DUP6 PUSH1 0x40 MLOAD PUSH1 0x0 DUP2 MSTORE PUSH1 0x20 ADD PUSH1 0x40 MSTORE PUSH1 0x40 MLOAD PUSH3 0x163D SWAP5 SWAP4 SWAP3 SWAP2 SWAP1 PUSH3 0x26E2 JUMP JUMPDEST PUSH1 0x20 PUSH1 0x40 MLOAD PUSH1 0x20 DUP2 SUB SWAP1 DUP1 DUP5 SUB SWAP1 DUP6 GAS STATICCALL ISZERO DUP1 ISZERO PUSH3 0x1660 JUMPI RETURNDATASIZE PUSH1 0x0 DUP1 RETURNDATACOPY RETURNDATASIZE PUSH1 0x0 REVERT JUMPDEST POP POP POP PUSH1 0x20 PUSH1 0x40 MLOAD SUB MLOAD SWAP4 POP POP POP POP SWAP3 SWAP2 POP POP JUMP JUMPDEST PUSH2 0xDEF DUP1 PUSH3 0x2730 DUP4 CODECOPY ADD SWAP1 JUMP JUMPDEST PUSH1 0x0 PUSH1 0x40 MLOAD SWAP1 POP SWAP1 JUMP JUMPDEST PUSH1 0x0 DUP1 REVERT JUMPDEST PUSH1 0x0 DUP1 REVERT JUMPDEST PUSH1 0x0 PUSH20 0xFFFFFFFFFFFFFFFFFFFFFFFFFFFFFFFFFFFFFFFF DUP3 AND SWAP1 POP SWAP2 SWAP1 POP JUMP JUMPDEST PUSH1 0x0 PUSH3 0x16C4 DUP3 PUSH3 0x1697 JUMP JUMPDEST SWAP1 POP SWAP2 SWAP1 POP JUMP JUMPDEST PUSH3 0x16D6 DUP2 PUSH3 0x16B7 JUMP JUMPDEST DUP2 EQ PUSH3 0x16E2 JUMPI PUSH1 0x0 DUP1 REVERT JUMPDEST POP JUMP JUMPDEST PUSH1 0x0 DUP2 CALLDATALOAD SWAP1 POP PUSH3 0x16F6 DUP2 PUSH3 0x16CB JUMP JUMPDEST SWAP3 SWAP2 POP POP JUMP JUMPDEST PUSH1 0x0 PUSH1 0x20 DUP3 DUP5 SUB SLT ISZERO PUSH3 0x1715 JUMPI PUSH3 0x1714 PUSH3 0x168D JUMP JUMPDEST JUMPDEST PUSH1 0x0 PUSH3 0x1725 DUP5 DUP3 DUP6 ADD PUSH3 0x16E5 JUMP JUMPDEST SWAP2 POP POP SWAP3 SWAP2 POP POP JUMP JUMPDEST PUSH1 0x0 PUSH3 0x173B DUP3 PUSH3 0x1697 JUMP JUMPDEST SWAP1 POP SWAP2 SWAP1 POP JUMP JUMPDEST PUSH3 0x174D DUP2 PUSH3 0x172E JUMP JUMPDEST DUP2 EQ PUSH3 0x1759 JUMPI PUSH1 0x0 DUP1 REVERT JUMPDEST POP JUMP JUMPDEST PUSH1 0x0 DUP2 CALLDATALOAD SWAP1 POP PUSH3 0x176D DUP2 PUSH3 0x1742 JUMP JUMPDEST SWAP3 SWAP2 POP POP JUMP JUMPDEST PUSH1 0x0 DUP2 SWAP1 POP SWAP2 SWAP1 POP JUMP JUMPDEST PUSH3 0x1788 DUP2 PUSH3 0x1773 JUMP JUMPDEST DUP2 EQ PUSH3 0x1794 JUMPI PUSH1 0x0 DUP1 REVERT JUMPDEST POP JUMP JUMPDEST PUSH1 0x0 DUP2 CALLDATALOAD SWAP1 POP PUSH3 0x17A8 DUP2 PUSH3 0x177D JUMP JUMPDEST SWAP3 SWAP2 POP POP JUMP JUMPDEST PUSH1 0x0 DUP1 REVERT JUMPDEST PUSH1 0x0 DUP1 REVERT JUMPDEST PUSH1 0x0 PUSH1 0x1F NOT PUSH1 0x1F DUP4 ADD AND SWAP1 POP SWAP2 SWAP1 POP JUMP JUMPDEST PUSH32 0x4E487B7100000000000000000000000000000000000000000000000000000000 PUSH1 0x0 MSTORE PUSH1 0x41 PUSH1 0x4 MSTORE PUSH1 0x24 PUSH1 0x0 REVERT JUMPDEST PUSH3 0x1803 DUP3 PUSH3 0x17B8 JUMP JUMPDEST DUP2 ADD DUP2 DUP2 LT PUSH8 0xFFFFFFFFFFFFFFFF DUP3 GT OR ISZERO PUSH3 0x1825 JUMPI PUSH3 0x1824 PUSH3 0x17C9 JUMP JUMPDEST JUMPDEST DUP1 PUSH1 0x40 MSTORE POP POP POP JUMP JUMPDEST PUSH1 0x0 PUSH3 0x183A PUSH3 0x1683 JUMP JUMPDEST SWAP1 POP PUSH3 0x1848 DUP3 DUP3 PUSH3 0x17F8 JUMP JUMPDEST SWAP2 SWAP1 POP JUMP JUMPDEST PUSH1 0x0 PUSH8 0xFFFFFFFFFFFFFFFF DUP3 GT ISZERO PUSH3 0x186B JUMPI PUSH3 0x186A PUSH3 0x17C9 JUMP JUMPDEST JUMPDEST PUSH3 0x1876 DUP3 PUSH3 0x17B8 JUMP JUMPDEST SWAP1 POP PUSH1 0x20 DUP2 ADD SWAP1 POP SWAP2 SWAP1 POP JUMP JUMPDEST DUP3 DUP2 DUP4 CALLDATACOPY PUSH1 0x0 DUP4 DUP4 ADD MSTORE POP POP POP JUMP JUMPDEST PUSH1 0x0 PUSH3 0x18A9 PUSH3 0x18A3 DUP5 PUSH3 0x184D JUMP JUMPDEST PUSH3 0x182E JUMP JUMPDEST SWAP1 POP DUP3 DUP2 MSTORE PUSH1 0x20 DUP2 ADD DUP5 DUP5 DUP5 ADD GT ISZERO PUSH3 0x18C8 JUMPI PUSH3 0x18C7 PUSH3 0x17B3 JUMP JUMPDEST JUMPDEST PUSH3 0x18D5 DUP5 DUP3 DUP6 PUSH3 0x1883 JUMP JUMPDEST POP SWAP4 SWAP3 POP POP POP JUMP JUMPDEST PUSH1 0x0 DUP3 PUSH1 0x1F DUP4 ADD SLT PUSH3 0x18F5 JUMPI PUSH3 0x18F4 PUSH3 0x17AE JUMP JUMPDEST JUMPDEST DUP2 CALLDATALOAD PUSH3 0x1907 DUP5 DUP3 PUSH1 0x20 DUP7 ADD PUSH3 0x1892 JUMP JUMPDEST SWAP2 POP POP SWAP3 SWAP2 POP POP JUMP JUMPDEST PUSH1 0x0 DUP1 PUSH1 0x0 DUP1 PUSH1 0x0 DUP1 PUSH1 0x0 PUSH1 0xE0 DUP9 DUP11 SUB SLT ISZERO PUSH3 0x1932 JUMPI PUSH3 0x1931 PUSH3 0x168D JUMP JUMPDEST JUMPDEST PUSH1 0x0 PUSH3 0x1942 DUP11 DUP3 DUP12 ADD PUSH3 0x175C JUMP JUMPDEST SWAP8 POP POP PUSH1 0x20 PUSH3 0x1955 DUP11 DUP3 DUP12 ADD PUSH3 0x175C JUMP JUMPDEST SWAP7 POP POP PUSH1 0x40 PUSH3 0x1968 DUP11 DUP3 DUP12 ADD PUSH3 0x1797 JUMP JUMPDEST SWAP6 POP POP PUSH1 0x60 PUSH3 0x197B DUP11 DUP3 DUP12 ADD PUSH3 0x1797 JUMP JUMPDEST SWAP5 POP POP PUSH1 0x80 DUP9 ADD CALLDATALOAD PUSH8 0xFFFFFFFFFFFFFFFF DUP2 GT ISZERO PUSH3 0x199F JUMPI PUSH3 0x199E PUSH3 0x1692 JUMP JUMPDEST JUMPDEST PUSH3 0x19AD DUP11 DUP3 DUP12 ADD PUSH3 0x18DD JUMP JUMPDEST SWAP4 POP POP PUSH1 0xA0 PUSH3 0x19C0 DUP11 DUP3 DUP12 ADD PUSH3 0x1797 JUMP JUMPDEST SWAP3 POP POP PUSH1 0xC0 PUSH3 0x19D3 DUP11 DUP3 DUP12 ADD PUSH3 0x1797 JUMP JUMPDEST SWAP2 POP POP SWAP3 SWAP6 SWAP9 SWAP2 SWAP5 SWAP8 POP SWAP3 SWAP6 POP JUMP JUMPDEST PUSH1 0x0 DUP1 REVERT JUMPDEST PUSH1 0x0 DUP1 REVERT JUMPDEST PUSH1 0x0 PUSH1 0xE0 DUP3 DUP5 SUB SLT ISZERO PUSH3 0x1A05 JUMPI PUSH3 0x1A04 PUSH3 0x19E2 JUMP JUMPDEST JUMPDEST PUSH3 0x1A11 PUSH1 0xE0 PUSH3 0x182E JUMP JUMPDEST SWAP1 POP PUSH1 0x0 PUSH3 0x1A23 DUP5 DUP3 DUP6 ADD PUSH3 0x175C JUMP JUMPDEST PUSH1 0x0 DUP4 ADD MSTORE POP PUSH1 0x20 PUSH3 0x1A39 DUP5 DUP3 DUP6 ADD PUSH3 0x175C JUMP JUMPDEST PUSH1 0x20 DUP4 ADD MSTORE POP PUSH1 0x40 PUSH3 0x1A4F DUP5 DUP3 DUP6 ADD PUSH3 0x1797 JUMP JUMPDEST PUSH1 0x40 DUP4 ADD MSTORE POP PUSH1 0x60 PUSH3 0x1A65 DUP5 DUP3 DUP6 ADD PUSH3 0x1797 JUMP JUMPDEST PUSH1 0x60 DUP4 ADD MSTORE POP PUSH1 0x80 DUP3 ADD CALLDATALOAD PUSH8 0xFFFFFFFFFFFFFFFF DUP2 GT ISZERO PUSH3 0x1A8C JUMPI PUSH3 0x1A8B PUSH3 0x19E7 JUMP JUMPDEST JUMPDEST PUSH3 0x1A9A DUP5 DUP3 DUP6 ADD PUSH3 0x18DD JUMP JUMPDEST PUSH1 0x80 DUP4 ADD MSTORE POP PUSH1 0xA0 PUSH3 0x1AB0 DUP5 DUP3 DUP6 ADD PUSH3 0x1797 JUMP JUMPDEST PUSH1 0xA0 DUP4 ADD MSTORE POP PUSH1 0xC0 PUSH3 0x1AC6 DUP5 DUP3 DUP6 ADD PUSH3 0x1797 JUMP JUMPDEST PUSH1 0xC0 DUP4 ADD MSTORE POP SWAP3 SWAP2 POP POP JUMP JUMPDEST PUSH1 0x0 PUSH1 0x20 DUP3 DUP5 SUB SLT ISZERO PUSH3 0x1AEB JUMPI PUSH3 0x1AEA PUSH3 0x168D JUMP JUMPDEST JUMPDEST PUSH1 0x0 DUP3 ADD CALLDATALOAD PUSH8 0xFFFFFFFFFFFFFFFF DUP2 GT ISZERO PUSH3 0x1B0C JUMPI PUSH3 0x1B0B PUSH3 0x1692 JUMP JUMPDEST JUMPDEST PUSH3 0x1B1A DUP5 DUP3 DUP6 ADD PUSH3 0x19EC JUMP JUMPDEST SWAP2 POP POP SWAP3 SWAP2 POP POP JUMP JUMPDEST PUSH1 0x0 PUSH1 0x20 DUP3 DUP5 SUB SLT ISZERO PUSH3 0x1B3C JUMPI PUSH3 0x1B3B PUSH3 0x168D JUMP JUMPDEST JUMPDEST PUSH1 0x0 PUSH3 0x1B4C DUP5 DUP3 DUP6 ADD PUSH3 0x1797 JUMP JUMPDEST SWAP2 POP POP SWAP3 SWAP2 POP POP JUMP JUMPDEST PUSH3 0x1B60 DUP2 PUSH3 0x1773 JUMP JUMPDEST DUP3 MSTORE POP POP JUMP JUMPDEST PUSH1 0x0 PUSH1 0x20 DUP3 ADD SWAP1 POP PUSH3 0x1B7D PUSH1 0x0 DUP4 ADD DUP5 PUSH3 0x1B55 JUMP JUMPDEST SWAP3 SWAP2 POP POP JUMP JUMPDEST PUSH1 0x0 PUSH1 0x20 DUP3 DUP5 SUB SLT ISZERO PUSH3 0x1B9C JUMPI PUSH3 0x1B9B PUSH3 0x168D JUMP JUMPDEST JUMPDEST PUSH1 0x0 PUSH3 0x1BAC DUP5 DUP3 DUP6 ADD PUSH3 0x175C JUMP JUMPDEST SWAP2 POP POP SWAP3 SWAP2 POP POP JUMP JUMPDEST PUSH3 0x1BC0 DUP2 PUSH3 0x172E JUMP JUMPDEST DUP3 MSTORE POP POP JUMP JUMPDEST PUSH1 0x0 PUSH1 0x20 DUP3 ADD SWAP1 POP PUSH3 0x1BDD PUSH1 0x0 DUP4 ADD DUP5 PUSH3 0x1BB5 JUMP JUMPDEST SWAP3 SWAP2 POP POP JUMP JUMPDEST PUSH1 0x0 DUP3 DUP3 MSTORE PUSH1 0x20 DUP3 ADD SWAP1 POP SWAP3 SWAP2 POP POP JUMP JUMPDEST PUSH32 0x6F6E6C79206F776E65722063616E2063616C6C20746869730000000000000000 PUSH1 0x0 DUP3 ADD MSTORE POP JUMP JUMPDEST PUSH1 0x0 PUSH3 0x1C2C PUSH1 0x18 DUP4 PUSH3 0x1BE3 JUMP JUMPDEST SWAP2 POP PUSH3 0x1C39 DUP3 PUSH3 0x1BF4 JUMP JUMPDEST PUSH1 0x20 DUP3 ADD SWAP1 POP SWAP2 SWAP1 POP JUMP JUMPDEST PUSH1 0x0 PUSH1 0x20 DUP3 ADD SWAP1 POP DUP2 DUP2 SUB PUSH1 0x0 DUP4 ADD MSTORE PUSH3 0x1C5F DUP2 PUSH3 0x1C1D JUMP JUMPDEST SWAP1 POP SWAP2 SWAP1 POP JUMP JUMPDEST PUSH32 0x496E76616C6964207369676E6174757265000000000000000000000000000000 PUSH1 0x0 DUP3 ADD MSTORE POP JUMP JUMPDEST PUSH1 0x0 PUSH3 0x1C9E PUSH1 0x11 DUP4 PUSH3 0x1BE3 JUMP JUMPDEST SWAP2 POP PUSH3 0x1CAB DUP3 PUSH3 0x1C66 JUMP JUMPDEST PUSH1 0x20 DUP3 ADD SWAP1 POP SWAP2 SWAP1 POP JUMP JUMPDEST PUSH1 0x0 PUSH1 0x20 DUP3 ADD SWAP1 POP DUP2 DUP2 SUB PUSH1 0x0 DUP4 ADD MSTORE PUSH3 0x1CD1 DUP2 PUSH3 0x1C8F JUMP JUMPDEST SWAP1 POP SWAP2 SWAP1 POP JUMP JUMPDEST PUSH32 0x50726F78792077616C6C6574206E6F7420666F756E6400000000000000000000 PUSH1 0x0 DUP3 ADD MSTORE POP JUMP JUMPDEST PUSH1 0x0 PUSH3 0x1D10 PUSH1 0x16 DUP4 PUSH3 0x1BE3 JUMP JUMPDEST SWAP2 POP PUSH3 0x1D1D DUP3 PUSH3 0x1CD8 JUMP JUMPDEST PUSH1 0x20 DUP3 ADD SWAP1 POP SWAP2 SWAP1 POP JUMP JUMPDEST PUSH1 0x0 PUSH1 0x20 DUP3 ADD SWAP1 POP DUP2 DUP2 SUB PUSH1 0x0 DUP4 ADD MSTORE PUSH3 0x1D43 DUP2 PUSH3 0x1D01 JUMP JUMPDEST SWAP1 POP SWAP2 SWAP1 POP JUMP JUMPDEST PUSH1 0x0 DUP2 MLOAD SWAP1 POP PUSH3 0x1D5B DUP2 PUSH3 0x1742 JUMP JUMPDEST SWAP3 SWAP2 POP POP JUMP JUMPDEST PUSH1 0x0 PUSH1 0x20 DUP3 DUP5 SUB SLT ISZERO PUSH3 0x1D7A JUMPI PUSH3 0x1D79 PUSH3 0x168D JUMP JUMPDEST JUMPDEST PUSH1 0x0 PUSH3 0x1D8A DUP5 DUP3 DUP6 ADD PUSH3 0x1D4A JUMP JUMPDEST SWAP2 POP POP SWAP3 SWAP2 POP POP JUMP JUMPDEST PUSH32 0x53656C6C6572206973206E6F7420746865206F776E6572206F66207468697320 PUSH1 0x0 DUP3 ADD MSTORE PUSH32 0x746F6B656E000000000000000000000000000000000000000000000000000000 PUSH1 0x20 DUP3 ADD MSTORE POP JUMP JUMPDEST PUSH1 0x0 PUSH3 0x1DF1 PUSH1 0x25 DUP4 PUSH3 0x1BE3 JUMP JUMPDEST SWAP2 POP PUSH3 0x1DFE DUP3 PUSH3 0x1D93 JUMP JUMPDEST PUSH1 0x40 DUP3 ADD SWAP1 POP SWAP2 SWAP1 POP JUMP JUMPDEST PUSH1 0x0 PUSH1 0x20 DUP3 ADD SWAP1 POP DUP2 DUP2 SUB PUSH1 0x0 DUP4 ADD MSTORE PUSH3 0x1E24 DUP2 PUSH3 0x1DE2 JUMP JUMPDEST SWAP1 POP SWAP2 SWAP1 POP JUMP JUMPDEST PUSH1 0x0 DUP2 PUSH1 0x60 SHL SWAP1 POP SWAP2 SWAP1 POP JUMP JUMPDEST PUSH1 0x0 PUSH3 0x1E45 DUP3 PUSH3 0x1E2B JUMP JUMPDEST SWAP1 POP SWAP2 SWAP1 POP JUMP JUMPDEST PUSH1 0x0 PUSH3 0x1E59 DUP3 PUSH3 0x1E38 JUMP JUMPDEST SWAP1 POP SWAP2 SWAP1 POP JUMP JUMPDEST PUSH3 0x1E75 PUSH3 0x1E6F DUP3 PUSH3 0x172E JUMP JUMPDEST PUSH3 0x1E4C JUMP JUMPDEST DUP3 MSTORE POP POP JUMP JUMPDEST PUSH1 0x0 DUP2 SWAP1 POP SWAP2 SWAP1 POP JUMP JUMPDEST PUSH3 0x1E9A PUSH3 0x1E94 DUP3 PUSH3 0x1773 JUMP JUMPDEST PUSH3 0x1E7B JUMP JUMPDEST DUP3 MSTORE POP POP JUMP JUMPDEST PUSH1 0x0 PUSH3 0x1EAE DUP3 DUP10 PUSH3 0x1E60 JUMP JUMPDEST PUSH1 0x14 DUP3 ADD SWAP2 POP PUSH3 0x1EC0 DUP3 DUP9 PUSH3 0x1E60 JUMP JUMPDEST PUSH1 0x14 DUP3 ADD SWAP2 POP PUSH3 0x1ED2 DUP3 DUP8 PUSH3 0x1E85 JUMP JUMPDEST PUSH1 0x20 DUP3 ADD SWAP2 POP PUSH3 0x1EE4 DUP3 DUP7 PUSH3 0x1E85 JUMP JUMPDEST PUSH1 0x20 DUP3 ADD SWAP2 POP PUSH3 0x1EF6 DUP3 DUP6 PUSH3 0x1E85 JUMP JUMPDEST PUSH1 0x20 DUP3 ADD SWAP2 POP PUSH3 0x1F08 DUP3 DUP5 PUSH3 0x1E85 JUMP JUMPDEST PUSH1 0x20 DUP3 ADD SWAP2 POP DUP2 SWAP1 POP SWAP8 SWAP7 POP POP POP POP POP POP POP JUMP JUMPDEST PUSH1 0x0 DUP2 SWAP1 POP SWAP2 SWAP1 POP JUMP JUMPDEST PUSH3 0x1F31 DUP2 PUSH3 0x1F1C JUMP JUMPDEST DUP3 MSTORE POP POP JUMP JUMPDEST PUSH1 0x0 PUSH1 0x40 DUP3 ADD SWAP1 POP PUSH3 0x1F4E PUSH1 0x0 DUP4 ADD DUP6 PUSH3 0x1F26 JUMP JUMPDEST PUSH3 0x1F5D PUSH1 0x20 DUP4 ADD DUP5 PUSH3 0x1B55 JUMP JUMPDEST SWAP4 SWAP3 POP POP POP JUMP JUMPDEST PUSH1 0x0 PUSH1 0x20 DUP3 ADD SWAP1 POP PUSH3 0x1F7B PUSH1 0x0 DUP4 ADD DUP5 PUSH3 0x1F26 JUMP JUMPDEST SWAP3 SWAP2 POP POP JUMP JUMPDEST PUSH1 0x0 DUP2 MLOAD SWAP1 POP SWAP2 SWAP1 POP JUMP JUMPDEST PUSH1 0x0 DUP2 SWAP1 POP SWAP3 SWAP2 POP POP JUMP JUMPDEST PUSH1 0x0 JUMPDEST DUP4 DUP2 LT ISZERO PUSH3 0x1FB7 JUMPI DUP1 DUP3 ADD MLOAD DUP2 DUP5 ADD MSTORE PUSH1 0x20 DUP2 ADD SWAP1 POP PUSH3 0x1F9A JUMP JUMPDEST PUSH1 0x0 DUP5 DUP5 ADD MSTORE POP POP POP POP JUMP JUMPDEST PUSH1 0x0 PUSH3 0x1FD0 DUP3 PUSH3 0x1F81 JUMP JUMPDEST PUSH3 0x1FDC DUP2 DUP6 PUSH3 0x1F8C JUMP JUMPDEST SWAP4 POP PUSH3 0x1FEE DUP2 DUP6 PUSH1 0x20 DUP7 ADD PUSH3 0x1F97 JUMP JUMPDEST DUP1 DUP5 ADD SWAP2 POP POP SWAP3 SWAP2 POP POP JUMP JUMPDEST PUSH1 0x0 PUSH3 0x2008 DUP3 DUP5 PUSH3 0x1FC3 JUMP JUMPDEST SWAP2 POP DUP2 SWAP1 POP SWAP3 SWAP2 POP POP JUMP JUMPDEST PUSH1 0x0 DUP2 ISZERO ISZERO SWAP1 POP SWAP2 SWAP1 POP JUMP JUMPDEST PUSH3 0x202A DUP2 PUSH3 0x2013 JUMP JUMPDEST DUP2 EQ PUSH3 0x2036 JUMPI PUSH1 0x0 DUP1 REVERT JUMPDEST POP JUMP JUMPDEST PUSH1 0x0 DUP2 MLOAD SWAP1 POP PUSH3 0x204A DUP2 PUSH3 0x201F JUMP JUMPDEST SWAP3 SWAP2 POP POP JUMP JUMPDEST PUSH1 0x0 PUSH1 0x20 DUP3 DUP5 SUB SLT ISZERO PUSH3 0x2069 JUMPI PUSH3 0x2068 PUSH3 0x168D JUMP JUMPDEST JUMPDEST PUSH1 0x0 PUSH3 0x2079 DUP5 DUP3 DUP6 ADD PUSH3 0x2039 JUMP JUMPDEST SWAP2 POP POP SWAP3 SWAP2 POP POP JUMP JUMPDEST PUSH32 0x4F72646572206973206E6F742076616C69640000000000000000000000000000 PUSH1 0x0 DUP3 ADD MSTORE POP JUMP JUMPDEST PUSH1 0x0 PUSH3 0x20BA PUSH1 0x12 DUP4 PUSH3 0x1BE3 JUMP JUMPDEST SWAP2 POP PUSH3 0x20C7 DUP3 PUSH3 0x2082 JUMP JUMPDEST PUSH1 0x20 DUP3 ADD SWAP1 POP SWAP2 SWAP1 POP JUMP JUMPDEST PUSH1 0x0 PUSH1 0x20 DUP3 ADD SWAP1 POP DUP2 DUP2 SUB PUSH1 0x0 DUP4 ADD MSTORE PUSH3 0x20ED DUP2 PUSH3 0x20AB JUMP JUMPDEST SWAP1 POP SWAP2 SWAP1 POP JUMP JUMPDEST PUSH32 0x4E487B7100000000000000000000000000000000000000000000000000000000 PUSH1 0x0 MSTORE PUSH1 0x11 PUSH1 0x4 MSTORE PUSH1 0x24 PUSH1 0x0 REVERT JUMPDEST PUSH1 0x0 PUSH3 0x2130 DUP3 PUSH3 0x1773 JUMP JUMPDEST SWAP2 POP PUSH3 0x213D DUP4 PUSH3 0x1773 JUMP JUMPDEST SWAP3 POP DUP3 DUP3 SUB SWAP1 POP DUP2 DUP2 GT ISZERO PUSH3 0x2158 JUMPI PUSH3 0x2157 PUSH3 0x20F4 JUMP JUMPDEST JUMPDEST SWAP3 SWAP2 POP POP JUMP JUMPDEST PUSH3 0x2169 DUP2 PUSH3 0x172E JUMP JUMPDEST DUP3 MSTORE POP POP JUMP JUMPDEST PUSH3 0x217A DUP2 PUSH3 0x1773 JUMP JUMPDEST DUP3 MSTORE POP POP JUMP JUMPDEST PUSH1 0x0 DUP3 DUP3 MSTORE PUSH1 0x20 DUP3 ADD SWAP1 POP SWAP3 SWAP2 POP POP JUMP JUMPDEST PUSH1 0x0 PUSH3 0x219E DUP3 PUSH3 0x1F81 JUMP JUMPDEST PUSH3 0x21AA DUP2 DUP6 PUSH3 0x2180 JUMP JUMPDEST SWAP4 POP PUSH3 0x21BC DUP2 DUP6 PUSH1 0x20 DUP7 ADD PUSH3 0x1F97 JUMP JUMPDEST PUSH3 0x21C7 DUP2 PUSH3 0x17B8 JUMP JUMPDEST DUP5 ADD SWAP2 POP POP SWAP3 SWAP2 POP POP JUMP JUMPDEST PUSH1 0x0 PUSH1 0xE0 DUP4 ADD PUSH1 0x0 DUP4 ADD MLOAD PUSH3 0x21EC PUSH1 0x0 DUP7 ADD DUP3 PUSH3 0x215E JUMP JUMPDEST POP PUSH1 0x20 DUP4 ADD MLOAD PUSH3 0x2201 PUSH1 0x20 DUP7 ADD DUP3 PUSH3 0x215E JUMP JUMPDEST POP PUSH1 0x40 DUP4 ADD MLOAD PUSH3 0x2216 PUSH1 0x40 DUP7 ADD DUP3 PUSH3 0x216F JUMP JUMPDEST POP PUSH1 0x60 DUP4 ADD MLOAD PUSH3 0x222B PUSH1 0x60 DUP7 ADD DUP3 PUSH3 0x216F JUMP JUMPDEST POP PUSH1 0x80 DUP4 ADD MLOAD DUP5 DUP3 SUB PUSH1 0x80 DUP7 ADD MSTORE PUSH3 0x2245 DUP3 DUP3 PUSH3 0x2191 JUMP JUMPDEST SWAP2 POP POP PUSH1 0xA0 DUP4 ADD MLOAD PUSH3 0x225C PUSH1 0xA0 DUP7 ADD DUP3 PUSH3 0x216F JUMP JUMPDEST POP PUSH1 0xC0 DUP4 ADD MLOAD PUSH3 0x2271 PUSH1 0xC0 DUP7 ADD DUP3 PUSH3 0x216F JUMP JUMPDEST POP DUP1 SWAP2 POP POP SWAP3 SWAP2 POP POP JUMP JUMPDEST PUSH1 0x0 PUSH1 0x40 DUP3 ADD SWAP1 POP DUP2 DUP2 SUB PUSH1 0x0 DUP4 ADD MSTORE PUSH3 0x2298 DUP2 DUP6 PUSH3 0x21D2 JUMP JUMPDEST SWAP1 POP PUSH3 0x22A9 PUSH1 0x20 DUP4 ADD DUP5 PUSH3 0x1BB5 JUMP JUMPDEST SWAP4 SWAP3 POP POP POP JUMP JUMPDEST PUSH32 0x6D617463686661696C0000000000000000000000000000000000000000000000 PUSH1 0x0 DUP3 ADD MSTORE POP JUMP JUMPDEST PUSH1 0x0 PUSH3 0x22E8 PUSH1 0x9 DUP4 PUSH3 0x1BE3 JUMP JUMPDEST SWAP2 POP PUSH3 0x22F5 DUP3 PUSH3 0x22B0 JUMP JUMPDEST PUSH1 0x20 DUP3 ADD SWAP1 POP SWAP2 SWAP1 POP JUMP JUMPDEST PUSH1 0x0 PUSH1 0x20 DUP3 ADD SWAP1 POP DUP2 DUP2 SUB PUSH1 0x0 DUP4 ADD MSTORE PUSH3 0x231B DUP2 PUSH3 0x22D9 JUMP JUMPDEST SWAP1 POP SWAP2 SWAP1 POP JUMP JUMPDEST PUSH32 0x496E73756666696369656E74207061796D656E74000000000000000000000000 PUSH1 0x0 DUP3 ADD MSTORE POP JUMP JUMPDEST PUSH1 0x0 PUSH3 0x235A PUSH1 0x14 DUP4 PUSH3 0x1BE3 JUMP JUMPDEST SWAP2 POP PUSH3 0x2367 DUP3 PUSH3 0x2322 JUMP JUMPDEST PUSH1 0x20 DUP3 ADD SWAP1 POP SWAP2 SWAP1 POP JUMP JUMPDEST PUSH1 0x0 PUSH1 0x20 DUP3 ADD SWAP1 POP DUP2 DUP2 SUB PUSH1 0x0 DUP4 ADD MSTORE PUSH3 0x238D DUP2 PUSH3 0x234B JUMP JUMPDEST SWAP1 POP SWAP2 SWAP1 POP JUMP JUMPDEST PUSH32 0x4F6E6C792073656C6C65722063616E2063616C6C20746869732066756E637469 PUSH1 0x0 DUP3 ADD MSTORE PUSH32 0x6F6E000000000000000000000000000000000000000000000000000000000000 PUSH1 0x20 DUP3 ADD MSTORE POP JUMP JUMPDEST PUSH1 0x0 PUSH3 0x23F2 PUSH1 0x22 DUP4 PUSH3 0x1BE3 JUMP JUMPDEST SWAP2 POP PUSH3 0x23FF DUP3 PUSH3 0x2394 JUMP JUMPDEST PUSH1 0x40 DUP3 ADD SWAP1 POP SWAP2 SWAP1 POP JUMP JUMPDEST PUSH1 0x0 PUSH1 0x20 DUP3 ADD SWAP1 POP DUP2 DUP2 SUB PUSH1 0x0 DUP4 ADD MSTORE PUSH3 0x2425 DUP2 PUSH3 0x23E3 JUMP JUMPDEST SWAP1 POP SWAP2 SWAP1 POP JUMP JUMPDEST PUSH1 0x0 PUSH1 0x40 DUP3 ADD SWAP1 POP PUSH3 0x2443 PUSH1 0x0 DUP4 ADD DUP6 PUSH3 0x1B55 JUMP JUMPDEST PUSH3 0x2452 PUSH1 0x20 DUP4 ADD DUP5 PUSH3 0x1B55 JUMP JUMPDEST SWAP4 SWAP3 POP POP POP JUMP JUMPDEST PUSH32 0x50726F78792077616C6C657420616C7265616479206578697374730000000000 PUSH1 0x0 DUP3 ADD MSTORE POP JUMP JUMPDEST PUSH1 0x0 PUSH3 0x2491 PUSH1 0x1B DUP4 PUSH3 0x1BE3 JUMP JUMPDEST SWAP2 POP PUSH3 0x249E DUP3 PUSH3 0x2459 JUMP JUMPDEST PUSH1 0x20 DUP3 ADD SWAP1 POP SWAP2 SWAP1 POP JUMP JUMPDEST PUSH1 0x0 PUSH1 0x20 DUP3 ADD SWAP1 POP DUP2 DUP2 SUB PUSH1 0x0 DUP4 ADD MSTORE PUSH3 0x24C4 DUP2 PUSH3 0x2482 JUMP JUMPDEST SWAP1 POP SWAP2 SWAP1 POP JUMP JUMPDEST PUSH1 0x0 PUSH3 0x24D8 DUP3 PUSH3 0x1773 JUMP JUMPDEST SWAP2 POP PUSH3 0x24E5 DUP4 PUSH3 0x1773 JUMP JUMPDEST SWAP3 POP DUP3 DUP3 MUL PUSH3 0x24F5 DUP2 PUSH3 0x1773 JUMP JUMPDEST SWAP2 POP DUP3 DUP3 DIV DUP5 EQ DUP4 ISZERO OR PUSH3 0x250F JUMPI PUSH3 0x250E PUSH3 0x20F4 JUMP JUMPDEST JUMPDEST POP SWAP3 SWAP2 POP POP JUMP JUMPDEST PUSH32 0x4E487B7100000000000000000000000000000000000000000000000000000000 PUSH1 0x0 MSTORE PUSH1 0x12 PUSH1 0x4 MSTORE PUSH1 0x24 PUSH1 0x0 REVERT JUMPDEST PUSH1 0x0 PUSH3 0x2552 DUP3 PUSH3 0x1773 JUMP JUMPDEST SWAP2 POP PUSH3 0x255F DUP4 PUSH3 0x1773 JUMP JUMPDEST SWAP3 POP DUP3 PUSH3 0x2572 JUMPI PUSH3 0x2571 PUSH3 0x2516 JUMP JUMPDEST JUMPDEST DUP3 DUP3 DIV SWAP1 POP SWAP3 SWAP2 POP POP JUMP JUMPDEST PUSH1 0x0 DUP2 SWAP1 POP SWAP3 SWAP2 POP POP JUMP JUMPDEST PUSH32 0x19457468657265756D205369676E6564204D6573736167653A0A333200000000 PUSH1 0x0 DUP3 ADD MSTORE POP JUMP JUMPDEST PUSH1 0x0 PUSH3 0x25C0 PUSH1 0x1C DUP4 PUSH3 0x257D JUMP JUMPDEST SWAP2 POP PUSH3 0x25CD DUP3 PUSH3 0x2588 JUMP JUMPDEST PUSH1 0x1C DUP3 ADD SWAP1 POP SWAP2 SWAP1 POP JUMP JUMPDEST PUSH1 0x0 DUP2 SWAP1 POP SWAP2 SWAP1 POP JUMP JUMPDEST PUSH3 0x25F7 PUSH3 0x25F1 DUP3 PUSH3 0x1F1C JUMP JUMPDEST PUSH3 0x25D8 JUMP JUMPDEST DUP3 MSTORE POP POP JUMP JUMPDEST PUSH1 0x0 PUSH3 0x260A DUP3 PUSH3 0x25B1 JUMP JUMPDEST SWAP2 POP PUSH3 0x2618 DUP3 DUP5 PUSH3 0x25E2 JUMP JUMPDEST PUSH1 0x20 DUP3 ADD SWAP2 POP DUP2 SWAP1 POP SWAP3 SWAP2 POP POP JUMP JUMPDEST PUSH1 0x0 PUSH1 0x20 DUP3 ADD SWAP1 POP DUP2 DUP2 SUB PUSH1 0x0 DUP4 ADD MSTORE PUSH3 0x2643 DUP2 DUP5 PUSH3 0x21D2 JUMP JUMPDEST SWAP1 POP SWAP3 SWAP2 POP POP JUMP JUMPDEST PUSH1 0x0 PUSH1 0x60 DUP3 ADD SWAP1 POP PUSH3 0x2662 PUSH1 0x0 DUP4 ADD DUP7 PUSH3 0x1B55 JUMP JUMPDEST PUSH3 0x2671 PUSH1 0x20 DUP4 ADD DUP6 PUSH3 0x1F26 JUMP JUMPDEST PUSH3 0x2680 PUSH1 0x40 DUP4 ADD DUP5 PUSH3 0x1B55 JUMP JUMPDEST SWAP5 SWAP4 POP POP POP POP JUMP JUMPDEST PUSH1 0x0 PUSH1 0xFF DUP3 AND SWAP1 POP SWAP2 SWAP1 POP JUMP JUMPDEST PUSH1 0x0 PUSH3 0x26A2 DUP3 PUSH3 0x2688 JUMP JUMPDEST SWAP2 POP PUSH3 0x26AF DUP4 PUSH3 0x2688 JUMP JUMPDEST SWAP3 POP DUP3 DUP3 ADD SWAP1 POP PUSH1 0xFF DUP2 GT ISZERO PUSH3 0x26CB JUMPI PUSH3 0x26CA PUSH3 0x20F4 JUMP JUMPDEST JUMPDEST SWAP3 SWAP2 POP POP JUMP JUMPDEST PUSH3 0x26DC DUP2 PUSH3 0x2688 JUMP JUMPDEST DUP3 MSTORE POP POP JUMP JUMPDEST PUSH1 0x0 PUSH1 0x80 DUP3 ADD SWAP1 POP PUSH3 0x26F9 PUSH1 0x0 DUP4 ADD DUP8 PUSH3 0x1F26 JUMP JUMPDEST PUSH3 0x2708 PUSH1 0x20 DUP4 ADD DUP7 PUSH3 0x26D1 JUMP JUMPDEST PUSH3 0x2717 PUSH1 0x40 DUP4 ADD DUP6 PUSH3 0x1F26 JUMP JUMPDEST PUSH3 0x2726 PUSH1 0x60 DUP4 ADD DUP5 PUSH3 0x1F26 JUMP JUMPDEST SWAP6 SWAP5 POP POP POP POP POP JUMP INVALID PUSH1 0x80 PUSH1 0x40 MSTORE PUSH1 0x40 MLOAD PUSH2 0xDEF CODESIZE SUB DUP1 PUSH2 0xDEF DUP4 CODECOPY DUP2 DUP2 ADD PUSH1 0x40 MSTORE DUP2 ADD SWAP1 PUSH2 0x25 SWAP2 SWAP1 PUSH2 0xCE JUMP JUMPDEST DUP1 PUSH1 0x0 DUP1 PUSH2 0x100 EXP DUP2 SLOAD DUP2 PUSH20 0xFFFFFFFFFFFFFFFFFFFFFFFFFFFFFFFFFFFFFFFF MUL NOT AND SWAP1 DUP4 PUSH20 0xFFFFFFFFFFFFFFFFFFFFFFFFFFFFFFFFFFFFFFFF AND MUL OR SWAP1 SSTORE POP POP PUSH2 0xFB JUMP JUMPDEST PUSH1 0x0 DUP1 REVERT JUMPDEST PUSH1 0x0 PUSH20 0xFFFFFFFFFFFFFFFFFFFFFFFFFFFFFFFFFFFFFFFF DUP3 AND SWAP1 POP SWAP2 SWAP1 POP JUMP JUMPDEST PUSH1 0x0 PUSH2 0x9B DUP3 PUSH2 0x70 JUMP JUMPDEST SWAP1 POP SWAP2 SWAP1 POP JUMP JUMPDEST PUSH2 0xAB DUP2 PUSH2 0x90 JUMP JUMPDEST DUP2 EQ PUSH2 0xB6 JUMPI PUSH1 0x0 DUP1 REVERT JUMPDEST POP JUMP JUMPDEST PUSH1 0x0 DUP2 MLOAD SWAP1 POP PUSH2 0xC8 DUP2 PUSH2 0xA2 JUMP JUMPDEST SWAP3 SWAP2 POP POP JUMP JUMPDEST PUSH1 0x0 PUSH1 0x20 DUP3 DUP5 SUB SLT ISZERO PUSH2 0xE4 JUMPI PUSH2 0xE3 PUSH2 0x6B JUMP JUMPDEST JUMPDEST PUSH1 0x0 PUSH2 0xF2 DUP5 DUP3 DUP6 ADD PUSH2 0xB9 JUMP JUMPDEST SWAP2 POP POP SWAP3 SWAP2 POP POP JUMP JUMPDEST PUSH2 0xCE5 DUP1 PUSH2 0x10A PUSH1 0x0 CODECOPY PUSH1 0x0 RETURN INVALID PUSH1 0x80 PUSH1 0x40 MSTORE PUSH1 0x4 CALLDATASIZE LT PUSH2 0x3F JUMPI PUSH1 0x0 CALLDATALOAD PUSH1 0xE0 SHR DUP1 PUSH4 0x8EB6A489 EQ PUSH2 0x44 JUMPI DUP1 PUSH4 0x9B3F3F1A EQ PUSH2 0x81 JUMPI DUP1 PUSH4 0xC04D75DD EQ PUSH2 0xAA JUMPI DUP1 PUSH4 0xEB41850D EQ PUSH2 0xC6 JUMPI JUMPDEST PUSH1 0x0 DUP1 REVERT JUMPDEST CALLVALUE DUP1 ISZERO PUSH2 0x50 JUMPI PUSH1 0x0 DUP1 REVERT JUMPDEST POP PUSH2 0x6B PUSH1 0x4 DUP1 CALLDATASIZE SUB DUP2 ADD SWAP1 PUSH2 0x66 SWAP2 SWAP1 PUSH2 0x56A JUMP JUMPDEST PUSH2 0x103 JUMP JUMPDEST PUSH1 0x40 MLOAD PUSH2 0x78 SWAP2 SWAP1 PUSH2 0x5B2 JUMP JUMPDEST PUSH1 0x40 MLOAD DUP1 SWAP2 SUB SWAP1 RETURN JUMPDEST CALLVALUE DUP1 ISZERO PUSH2 0x8D JUMPI PUSH1 0x0 DUP1 REVERT JUMPDEST POP PUSH2 0xA8 PUSH1 0x4 DUP1 CALLDATASIZE SUB DUP2 ADD SWAP1 PUSH2 0xA3 SWAP2 SWAP1 PUSH2 0x881 JUMP JUMPDEST PUSH2 0x123 JUMP JUMPDEST STOP JUMPDEST PUSH2 0xC4 PUSH1 0x4 DUP1 CALLDATASIZE SUB DUP2 ADD SWAP1 PUSH2 0xBF SWAP2 SWAP1 PUSH2 0x8CA JUMP JUMPDEST PUSH2 0x1E7 JUMP JUMPDEST STOP JUMPDEST CALLVALUE DUP1 ISZERO PUSH2 0xD2 JUMPI PUSH1 0x0 DUP1 REVERT JUMPDEST POP PUSH2 0xED PUSH1 0x4 DUP1 CALLDATASIZE SUB DUP2 ADD SWAP1 PUSH2 0xE8 SWAP2 SWAP1 PUSH2 0x56A JUMP JUMPDEST PUSH2 0x38C JUMP JUMPDEST PUSH1 0x40 MLOAD PUSH2 0xFA SWAP2 SWAP1 PUSH2 0x5B2 JUMP JUMPDEST PUSH1 0x40 MLOAD DUP1 SWAP2 SUB SWAP1 RETURN JUMPDEST PUSH1 0x1 PUSH1 0x20 MSTORE DUP1 PUSH1 0x0 MSTORE PUSH1 0x40 PUSH1 0x0 KECCAK256 PUSH1 0x0 SWAP2 POP SLOAD SWAP1 PUSH2 0x100 EXP SWAP1 DIV PUSH1 0xFF AND DUP2 JUMP JUMPDEST PUSH2 0x14E DUP2 PUSH1 0x0 ADD MLOAD DUP3 PUSH1 0x20 ADD MLOAD DUP4 PUSH1 0x40 ADD MLOAD DUP5 PUSH1 0x60 ADD MLOAD DUP6 PUSH1 0x80 ADD MLOAD DUP7 PUSH1 0xA0 ADD MLOAD DUP8 PUSH1 0xC0 ADD MLOAD PUSH2 0x3B6 JUMP JUMPDEST PUSH2 0x18D JUMPI PUSH1 0x40 MLOAD PUSH32 0x8C379A000000000000000000000000000000000000000000000000000000000 DUP2 MSTORE PUSH1 0x4 ADD PUSH2 0x184 SWAP1 PUSH2 0x983 JUMP JUMPDEST PUSH1 0x40 MLOAD DUP1 SWAP2 SUB SWAP1 REVERT JUMPDEST PUSH1 0x0 DUP2 PUSH1 0x0 ADD MLOAD DUP3 PUSH1 0x20 ADD MLOAD DUP4 PUSH1 0x40 ADD MLOAD DUP5 PUSH1 0x60 ADD MLOAD DUP6 PUSH1 0xA0 ADD MLOAD DUP7 PUSH1 0xC0 ADD MLOAD PUSH1 0x40 MLOAD PUSH1 0x20 ADD PUSH2 0x1C2 SWAP7 SWAP6 SWAP5 SWAP4 SWAP3 SWAP2 SWAP1 PUSH2 0xA0C JUMP JUMPDEST PUSH1 0x40 MLOAD PUSH1 0x20 DUP2 DUP4 SUB SUB DUP2 MSTORE SWAP1 PUSH1 0x40 MSTORE DUP1 MLOAD SWAP1 PUSH1 0x20 ADD KECCAK256 SWAP1 POP PUSH2 0x1E3 DUP2 PUSH2 0x45E JUMP JUMPDEST POP POP JUMP JUMPDEST PUSH1 0x0 DUP3 PUSH1 0x0 ADD MLOAD DUP4 PUSH1 0x20 ADD MLOAD DUP5 PUSH1 0x40 ADD MLOAD DUP6 PUSH1 0x60 ADD MLOAD DUP7 PUSH1 0xA0 ADD MLOAD DUP8 PUSH1 0xC0 ADD MLOAD PUSH1 0x40 MLOAD PUSH1 0x20 ADD PUSH2 0x21C SWAP7 SWAP6 SWAP5 SWAP4 SWAP3 SWAP2 SWAP1 PUSH2 0xA0C JUMP JUMPDEST PUSH1 0x40 MLOAD PUSH1 0x20 DUP2 DUP4 SUB SUB DUP2 MSTORE SWAP1 PUSH1 0x40 MSTORE DUP1 MLOAD SWAP1 PUSH1 0x20 ADD KECCAK256 SWAP1 POP PUSH1 0x1 PUSH1 0x0 DUP3 DUP2 MSTORE PUSH1 0x20 ADD SWAP1 DUP2 MSTORE PUSH1 0x20 ADD PUSH1 0x0 KECCAK256 PUSH1 0x0 SWAP1 SLOAD SWAP1 PUSH2 0x100 EXP SWAP1 DIV PUSH1 0xFF AND ISZERO PUSH2 0x295 JUMPI PUSH1 0x40 MLOAD PUSH32 0x8C379A000000000000000000000000000000000000000000000000000000000 DUP2 MSTORE PUSH1 0x4 ADD PUSH2 0x28C SWAP1 PUSH2 0xAC8 JUMP JUMPDEST PUSH1 0x40 MLOAD DUP1 SWAP2 SUB SWAP1 REVERT JUMPDEST PUSH2 0x2C0 DUP4 PUSH1 0x0 ADD MLOAD DUP5 PUSH1 0x20 ADD MLOAD DUP6 PUSH1 0x40 ADD MLOAD DUP7 PUSH1 0x60 ADD MLOAD DUP8 PUSH1 0x80 ADD MLOAD DUP9 PUSH1 0xA0 ADD MLOAD DUP10 PUSH1 0xC0 ADD MLOAD PUSH2 0x3B6 JUMP JUMPDEST PUSH2 0x2FF JUMPI PUSH1 0x40 MLOAD PUSH32 0x8C379A000000000000000000000000000000000000000000000000000000000 DUP2 MSTORE PUSH1 0x4 ADD PUSH2 0x2F6 SWAP1 PUSH2 0x983 JUMP JUMPDEST PUSH1 0x40 MLOAD DUP1 SWAP2 SUB SWAP1 REVERT JUMPDEST DUP3 PUSH1 0x20 ADD MLOAD PUSH20 0xFFFFFFFFFFFFFFFFFFFFFFFFFFFFFFFFFFFFFFFF AND PUSH4 0x23B872DD DUP5 PUSH1 0x0 ADD MLOAD DUP5 DUP7 PUSH1 0x40 ADD MLOAD PUSH1 0x40 MLOAD DUP5 PUSH4 0xFFFFFFFF AND PUSH1 0xE0 SHL DUP2 MSTORE PUSH1 0x4 ADD PUSH2 0x348 SWAP4 SWAP3 SWAP2 SWAP1 PUSH2 0xB06 JUMP JUMPDEST PUSH1 0x0 PUSH1 0x40 MLOAD DUP1 DUP4 SUB DUP2 PUSH1 0x0 DUP8 DUP1 EXTCODESIZE ISZERO DUP1 ISZERO PUSH2 0x362 JUMPI PUSH1 0x0 DUP1 REVERT JUMPDEST POP GAS CALL SWAP3 POP POP POP DUP1 ISZERO PUSH2 0x373 JUMPI POP PUSH1 0x1 JUMPDEST PUSH2 0x37D JUMPI POP PUSH2 0x388 JUMP JUMPDEST PUSH2 0x386 DUP2 PUSH2 0x45E JUMP JUMPDEST POP JUMPDEST POP POP JUMP JUMPDEST PUSH1 0x0 PUSH1 0x1 PUSH1 0x0 DUP4 DUP2 MSTORE PUSH1 0x20 ADD SWAP1 DUP2 MSTORE PUSH1 0x20 ADD PUSH1 0x0 KECCAK256 PUSH1 0x0 SWAP1 SLOAD SWAP1 PUSH2 0x100 EXP SWAP1 DIV PUSH1 0xFF AND SWAP1 POP SWAP2 SWAP1 POP JUMP JUMPDEST PUSH1 0x0 DUP1 DUP9 DUP9 DUP9 DUP9 DUP8 DUP8 PUSH1 0x40 MLOAD PUSH1 0x20 ADD PUSH2 0x3D4 SWAP7 SWAP6 SWAP5 SWAP4 SWAP3 SWAP2 SWAP1 PUSH2 0xA0C JUMP JUMPDEST PUSH1 0x40 MLOAD PUSH1 0x20 DUP2 DUP4 SUB SUB DUP2 MSTORE SWAP1 PUSH1 0x40 MSTORE DUP1 MLOAD SWAP1 PUSH1 0x20 ADD KECCAK256 SWAP1 POP PUSH1 0x0 DUP2 PUSH1 0x40 MLOAD PUSH1 0x20 ADD PUSH2 0x3FF SWAP2 SWAP1 PUSH2 0xBB5 JUMP JUMPDEST PUSH1 0x40 MLOAD PUSH1 0x20 DUP2 DUP4 SUB SUB DUP2 MSTORE SWAP1 PUSH1 0x40 MSTORE DUP1 MLOAD SWAP1 PUSH1 0x20 ADD KECCAK256 SWAP1 POP DUP10 PUSH20 0xFFFFFFFFFFFFFFFFFFFFFFFFFFFFFFFFFFFFFFFF AND PUSH2 0x438 DUP3 DUP9 PUSH2 0x48C JUMP JUMPDEST PUSH20 0xFFFFFFFFFFFFFFFFFFFFFFFFFFFFFFFFFFFFFFFF AND EQ SWAP3 POP POP POP SWAP8 SWAP7 POP POP POP POP POP POP POP JUMP JUMPDEST PUSH1 0x1 DUP1 PUSH1 0x0 DUP4 DUP2 MSTORE PUSH1 0x20 ADD SWAP1 DUP2 MSTORE PUSH1 0x20 ADD PUSH1 0x0 KECCAK256 PUSH1 0x0 PUSH2 0x100 EXP DUP2 SLOAD DUP2 PUSH1 0xFF MUL NOT AND SWAP1 DUP4 ISZERO ISZERO MUL OR SWAP1 SSTORE POP POP JUMP JUMPDEST PUSH1 0x0 DUP1 PUSH1 0x0 DUP1 PUSH1 0x20 DUP6 ADD MLOAD SWAP3 POP PUSH1 0x40 DUP6 ADD MLOAD SWAP2 POP PUSH1 0x60 DUP6 ADD MLOAD PUSH1 0x0 BYTE SWAP1 POP PUSH1 0x1B DUP2 PUSH1 0xFF AND LT ISZERO PUSH2 0x4C6 JUMPI PUSH1 0x1B DUP2 PUSH2 0x4C3 SWAP2 SWAP1 PUSH2 0xC17 JUMP JUMPDEST SWAP1 POP JUMPDEST PUSH1 0x1 DUP7 DUP3 DUP6 DUP6 PUSH1 0x40 MLOAD PUSH1 0x0 DUP2 MSTORE PUSH1 0x20 ADD PUSH1 0x40 MSTORE PUSH1 0x40 MLOAD PUSH2 0x4E9 SWAP5 SWAP4 SWAP3 SWAP2 SWAP1 PUSH2 0xC6A JUMP JUMPDEST PUSH1 0x20 PUSH1 0x40 MLOAD PUSH1 0x20 DUP2 SUB SWAP1 DUP1 DUP5 SUB SWAP1 DUP6 GAS STATICCALL ISZERO DUP1 ISZERO PUSH2 0x50B JUMPI RETURNDATASIZE PUSH1 0x0 DUP1 RETURNDATACOPY RETURNDATASIZE PUSH1 0x0 REVERT JUMPDEST POP POP POP PUSH1 0x20 PUSH1 0x40 MLOAD SUB MLOAD SWAP4 POP POP POP POP SWAP3 SWAP2 POP POP JUMP JUMPDEST PUSH1 0x0 PUSH1 0x40 MLOAD SWAP1 POP SWAP1 JUMP JUMPDEST PUSH1 0x0 DUP1 REVERT JUMPDEST PUSH1 0x0 DUP1 REVERT JUMPDEST PUSH1 0x0 DUP2 SWAP1 POP SWAP2 SWAP1 POP JUMP JUMPDEST PUSH2 0x547 DUP2 PUSH2 0x534 JUMP JUMPDEST DUP2 EQ PUSH2 0x552 JUMPI PUSH1 0x0 DUP1 REVERT JUMPDEST POP JUMP JUMPDEST PUSH1 0x0 DUP2 CALLDATALOAD SWAP1 POP PUSH2 0x564 DUP2 PUSH2 0x53E JUMP JUMPDEST SWAP3 SWAP2 POP POP JUMP JUMPDEST PUSH1 0x0 PUSH1 0x20 DUP3 DUP5 SUB SLT ISZERO PUSH2 0x580 JUMPI PUSH2 0x57F PUSH2 0x52A JUMP JUMPDEST JUMPDEST PUSH1 0x0 PUSH2 0x58E DUP5 DUP3 DUP6 ADD PUSH2 0x555 JUMP JUMPDEST SWAP2 POP POP SWAP3 SWAP2 POP POP JUMP JUMPDEST PUSH1 0x0 DUP2 ISZERO ISZERO SWAP1 POP SWAP2 SWAP1 POP JUMP JUMPDEST PUSH2 0x5AC DUP2 PUSH2 0x597 JUMP JUMPDEST DUP3 MSTORE POP POP JUMP JUMPDEST PUSH1 0x0 PUSH1 0x20 DUP3 ADD SWAP1 POP PUSH2 0x5C7 PUSH1 0x0 DUP4 ADD DUP5 PUSH2 0x5A3 JUMP JUMPDEST SWAP3 SWAP2 POP POP JUMP JUMPDEST PUSH1 0x0 DUP1 REVERT JUMPDEST PUSH1 0x0 PUSH1 0x1F NOT PUSH1 0x1F DUP4 ADD AND SWAP1 POP SWAP2 SWAP1 POP JUMP JUMPDEST PUSH32 0x4E487B7100000000000000000000000000000000000000000000000000000000 PUSH1 0x0 MSTORE PUSH1 0x41 PUSH1 0x4 MSTORE PUSH1 0x24 PUSH1 0x0 REVERT JUMPDEST PUSH2 0x61B DUP3 PUSH2 0x5D2 JUMP JUMPDEST DUP2 ADD DUP2 DUP2 LT PUSH8 0xFFFFFFFFFFFFFFFF DUP3 GT OR ISZERO PUSH2 0x63A JUMPI PUSH2 0x639 PUSH2 0x5E3 JUMP JUMPDEST JUMPDEST DUP1 PUSH1 0x40 MSTORE POP POP POP JUMP JUMPDEST PUSH1 0x0 PUSH2 0x64D PUSH2 0x520 JUMP JUMPDEST SWAP1 POP PUSH2 0x659 DUP3 DUP3 PUSH2 0x612 JUMP JUMPDEST SWAP2 SWAP1 POP JUMP JUMPDEST PUSH1 0x0 DUP1 REVERT JUMPDEST PUSH1 0x0 PUSH20 0xFFFFFFFFFFFFFFFFFFFFFFFFFFFFFFFFFFFFFFFF DUP3 AND SWAP1 POP SWAP2 SWAP1 POP JUMP JUMPDEST PUSH1 0x0 PUSH2 0x68E DUP3 PUSH2 0x663 JUMP JUMPDEST SWAP1 POP SWAP2 SWAP1 POP JUMP JUMPDEST PUSH2 0x69E DUP2 PUSH2 0x683 JUMP JUMPDEST DUP2 EQ PUSH2 0x6A9 JUMPI PUSH1 0x0 DUP1 REVERT JUMPDEST POP JUMP JUMPDEST PUSH1 0x0 DUP2 CALLDATALOAD SWAP1 POP PUSH2 0x6BB DUP2 PUSH2 0x695 JUMP JUMPDEST SWAP3 SWAP2 POP POP JUMP JUMPDEST PUSH1 0x0 DUP2 SWAP1 POP SWAP2 SWAP1 POP JUMP JUMPDEST PUSH2 0x6D4 DUP2 PUSH2 0x6C1 JUMP JUMPDEST DUP2 EQ PUSH2 0x6DF JUMPI PUSH1 0x0 DUP1 REVERT JUMPDEST POP JUMP JUMPDEST PUSH1 0x0 DUP2 CALLDATALOAD SWAP1 POP PUSH2 0x6F1 DUP2 PUSH2 0x6CB JUMP JUMPDEST SWAP3 SWAP2 POP POP JUMP JUMPDEST PUSH1 0x0 DUP1 REVERT JUMPDEST PUSH1 0x0 DUP1 REVERT JUMPDEST PUSH1 0x0 PUSH8 0xFFFFFFFFFFFFFFFF DUP3 GT ISZERO PUSH2 0x71C JUMPI PUSH2 0x71B PUSH2 0x5E3 JUMP JUMPDEST JUMPDEST PUSH2 0x725 DUP3 PUSH2 0x5D2 JUMP JUMPDEST SWAP1 POP PUSH1 0x20 DUP2 ADD SWAP1 POP SWAP2 SWAP1 POP JUMP JUMPDEST DUP3 DUP2 DUP4 CALLDATACOPY PUSH1 0x0 DUP4 DUP4 ADD MSTORE POP POP POP JUMP JUMPDEST PUSH1 0x0 PUSH2 0x754 PUSH2 0x74F DUP5 PUSH2 0x701 JUMP JUMPDEST PUSH2 0x643 JUMP JUMPDEST SWAP1 POP DUP3 DUP2 MSTORE PUSH1 0x20 DUP2 ADD DUP5 DUP5 DUP5 ADD GT ISZERO PUSH2 0x770 JUMPI PUSH2 0x76F PUSH2 0x6FC JUMP JUMPDEST JUMPDEST PUSH2 0x77B DUP5 DUP3 DUP6 PUSH2 0x732 JUMP JUMPDEST POP SWAP4 SWAP3 POP POP POP JUMP JUMPDEST PUSH1 0x0 DUP3 PUSH1 0x1F DUP4 ADD SLT PUSH2 0x798 JUMPI PUSH2 0x797 PUSH2 0x6F7 JUMP JUMPDEST JUMPDEST DUP2 CALLDATALOAD PUSH2 0x7A8 DUP5 DUP3 PUSH1 0x20 DUP7 ADD PUSH2 0x741 JUMP JUMPDEST SWAP2 POP POP SWAP3 SWAP2 POP POP JUMP JUMPDEST PUSH1 0x0 PUSH1 0xE0 DUP3 DUP5 SUB SLT ISZERO PUSH2 0x7C7 JUMPI PUSH2 0x7C6 PUSH2 0x5CD JUMP JUMPDEST JUMPDEST PUSH2 0x7D1 PUSH1 0xE0 PUSH2 0x643 JUMP JUMPDEST SWAP1 POP PUSH1 0x0 PUSH2 0x7E1 DUP5 DUP3 DUP6 ADD PUSH2 0x6AC JUMP JUMPDEST PUSH1 0x0 DUP4 ADD MSTORE POP PUSH1 0x20 PUSH2 0x7F5 DUP5 DUP3 DUP6 ADD PUSH2 0x6AC JUMP JUMPDEST PUSH1 0x20 DUP4 ADD MSTORE POP PUSH1 0x40 PUSH2 0x809 DUP5 DUP3 DUP6 ADD PUSH2 0x6E2 JUMP JUMPDEST PUSH1 0x40 DUP4 ADD MSTORE POP PUSH1 0x60 PUSH2 0x81D DUP5 DUP3 DUP6 ADD PUSH2 0x6E2 JUMP JUMPDEST PUSH1 0x60 DUP4 ADD MSTORE POP PUSH1 0x80 DUP3 ADD CALLDATALOAD PUSH8 0xFFFFFFFFFFFFFFFF DUP2 GT ISZERO PUSH2 0x841 JUMPI PUSH2 0x840 PUSH2 0x65E JUMP JUMPDEST JUMPDEST PUSH2 0x84D DUP5 DUP3 DUP6 ADD PUSH2 0x783 JUMP JUMPDEST PUSH1 0x80 DUP4 ADD MSTORE POP PUSH1 0xA0 PUSH2 0x861 DUP5 DUP3 DUP6 ADD PUSH2 0x6E2 JUMP JUMPDEST PUSH1 0xA0 DUP4 ADD MSTORE POP PUSH1 0xC0 PUSH2 0x875 DUP5 DUP3 DUP6 ADD PUSH2 0x6E2 JUMP JUMPDEST PUSH1 0xC0 DUP4 ADD MSTORE POP SWAP3 SWAP2 POP POP JUMP JUMPDEST PUSH1 0x0 PUSH1 0x20 DUP3 DUP5 SUB SLT ISZERO PUSH2 0x897 JUMPI PUSH2 0x896 PUSH2 0x52A JUMP JUMPDEST JUMPDEST PUSH1 0x0 DUP3 ADD CALLDATALOAD PUSH8 0xFFFFFFFFFFFFFFFF DUP2 GT ISZERO PUSH2 0x8B5 JUMPI PUSH2 0x8B4 PUSH2 0x52F JUMP JUMPDEST JUMPDEST PUSH2 0x8C1 DUP5 DUP3 DUP6 ADD PUSH2 0x7B1 JUMP JUMPDEST SWAP2 POP POP SWAP3 SWAP2 POP POP JUMP JUMPDEST PUSH1 0x0 DUP1 PUSH1 0x40 DUP4 DUP6 SUB SLT ISZERO PUSH2 0x8E1 JUMPI PUSH2 0x8E0 PUSH2 0x52A JUMP JUMPDEST JUMPDEST PUSH1 0x0 DUP4 ADD CALLDATALOAD PUSH8 0xFFFFFFFFFFFFFFFF DUP2 GT ISZERO PUSH2 0x8FF JUMPI PUSH2 0x8FE PUSH2 0x52F JUMP JUMPDEST JUMPDEST PUSH2 0x90B DUP6 DUP3 DUP7 ADD PUSH2 0x7B1 JUMP JUMPDEST SWAP3 POP POP PUSH1 0x20 PUSH2 0x91C DUP6 DUP3 DUP7 ADD PUSH2 0x6AC JUMP JUMPDEST SWAP2 POP POP SWAP3 POP SWAP3 SWAP1 POP JUMP JUMPDEST PUSH1 0x0 DUP3 DUP3 MSTORE PUSH1 0x20 DUP3 ADD SWAP1 POP SWAP3 SWAP2 POP POP JUMP JUMPDEST PUSH32 0x496E76616C6964207369676E6174757265000000000000000000000000000000 PUSH1 0x0 DUP3 ADD MSTORE POP JUMP JUMPDEST PUSH1 0x0 PUSH2 0x96D PUSH1 0x11 DUP4 PUSH2 0x926 JUMP JUMPDEST SWAP2 POP PUSH2 0x978 DUP3 PUSH2 0x937 JUMP JUMPDEST PUSH1 0x20 DUP3 ADD SWAP1 POP SWAP2 SWAP1 POP JUMP JUMPDEST PUSH1 0x0 PUSH1 0x20 DUP3 ADD SWAP1 POP DUP2 DUP2 SUB PUSH1 0x0 DUP4 ADD MSTORE PUSH2 0x99C DUP2 PUSH2 0x960 JUMP JUMPDEST SWAP1 POP SWAP2 SWAP1 POP JUMP JUMPDEST PUSH1 0x0 DUP2 PUSH1 0x60 SHL SWAP1 POP SWAP2 SWAP1 POP JUMP JUMPDEST PUSH1 0x0 PUSH2 0x9BB DUP3 PUSH2 0x9A3 JUMP JUMPDEST SWAP1 POP SWAP2 SWAP1 POP JUMP JUMPDEST PUSH1 0x0 PUSH2 0x9CD DUP3 PUSH2 0x9B0 JUMP JUMPDEST SWAP1 POP SWAP2 SWAP1 POP JUMP JUMPDEST PUSH2 0x9E5 PUSH2 0x9E0 DUP3 PUSH2 0x683 JUMP JUMPDEST PUSH2 0x9C2 JUMP JUMPDEST DUP3 MSTORE POP POP JUMP JUMPDEST PUSH1 0x0 DUP2 SWAP1 POP SWAP2 SWAP1 POP JUMP JUMPDEST PUSH2 0xA06 PUSH2 0xA01 DUP3 PUSH2 0x6C1 JUMP JUMPDEST PUSH2 0x9EB JUMP JUMPDEST DUP3 MSTORE POP POP JUMP JUMPDEST PUSH1 0x0 PUSH2 0xA18 DUP3 DUP10 PUSH2 0x9D4 JUMP JUMPDEST PUSH1 0x14 DUP3 ADD SWAP2 POP PUSH2 0xA28 DUP3 DUP9 PUSH2 0x9D4 JUMP JUMPDEST PUSH1 0x14 DUP3 ADD SWAP2 POP PUSH2 0xA38 DUP3 DUP8 PUSH2 0x9F5 JUMP JUMPDEST PUSH1 0x20 DUP3 ADD SWAP2 POP PUSH2 0xA48 DUP3 DUP7 PUSH2 0x9F5 JUMP JUMPDEST PUSH1 0x20 DUP3 ADD SWAP2 POP PUSH2 0xA58 DUP3 DUP6 PUSH2 0x9F5 JUMP JUMPDEST PUSH1 0x20 DUP3 ADD SWAP2 POP PUSH2 0xA68 DUP3 DUP5 PUSH2 0x9F5 JUMP JUMPDEST PUSH1 0x20 DUP3 ADD SWAP2 POP DUP2 SWAP1 POP SWAP8 SWAP7 POP POP POP POP POP POP POP JUMP JUMPDEST PUSH32 0x4F7264657220686173206265656E207573656400000000000000000000000000 PUSH1 0x0 DUP3 ADD MSTORE POP JUMP JUMPDEST PUSH1 0x0 PUSH2 0xAB2 PUSH1 0x13 DUP4 PUSH2 0x926 JUMP JUMPDEST SWAP2 POP PUSH2 0xABD DUP3 PUSH2 0xA7C JUMP JUMPDEST PUSH1 0x20 DUP3 ADD SWAP1 POP SWAP2 SWAP1 POP JUMP JUMPDEST PUSH1 0x0 PUSH1 0x20 DUP3 ADD SWAP1 POP DUP2 DUP2 SUB PUSH1 0x0 DUP4 ADD MSTORE PUSH2 0xAE1 DUP2 PUSH2 0xAA5 JUMP JUMPDEST SWAP1 POP SWAP2 SWAP1 POP JUMP JUMPDEST PUSH2 0xAF1 DUP2 PUSH2 0x683 JUMP JUMPDEST DUP3 MSTORE POP POP JUMP JUMPDEST PUSH2 0xB00 DUP2 PUSH2 0x6C1 JUMP JUMPDEST DUP3 MSTORE POP POP JUMP JUMPDEST PUSH1 0x0 PUSH1 0x60 DUP3 ADD SWAP1 POP PUSH2 0xB1B PUSH1 0x0 DUP4 ADD DUP7 PUSH2 0xAE8 JUMP JUMPDEST PUSH2 0xB28 PUSH1 0x20 DUP4 ADD DUP6 PUSH2 0xAE8 JUMP JUMPDEST PUSH2 0xB35 PUSH1 0x40 DUP4 ADD DUP5 PUSH2 0xAF7 JUMP JUMPDEST SWAP5 SWAP4 POP POP POP POP JUMP JUMPDEST PUSH1 0x0 DUP2 SWAP1 POP SWAP3 SWAP2 POP POP JUMP JUMPDEST PUSH32 0x19457468657265756D205369676E6564204D6573736167653A0A333200000000 PUSH1 0x0 DUP3 ADD MSTORE POP JUMP JUMPDEST PUSH1 0x0 PUSH2 0xB7E PUSH1 0x1C DUP4 PUSH2 0xB3D JUMP JUMPDEST SWAP2 POP PUSH2 0xB89 DUP3 PUSH2 0xB48 JUMP JUMPDEST PUSH1 0x1C DUP3 ADD SWAP1 POP SWAP2 SWAP1 POP JUMP JUMPDEST PUSH1 0x0 DUP2 SWAP1 POP SWAP2 SWAP1 POP JUMP JUMPDEST PUSH2 0xBAF PUSH2 0xBAA DUP3 PUSH2 0x534 JUMP JUMPDEST PUSH2 0xB94 JUMP JUMPDEST DUP3 MSTORE POP POP JUMP JUMPDEST PUSH1 0x0 PUSH2 0xBC0 DUP3 PUSH2 0xB71 JUMP JUMPDEST SWAP2 POP PUSH2 0xBCC DUP3 DUP5 PUSH2 0xB9E JUMP JUMPDEST PUSH1 0x20 DUP3 ADD SWAP2 POP DUP2 SWAP1 POP SWAP3 SWAP2 POP POP JUMP JUMPDEST PUSH1 0x0 PUSH1 0xFF DUP3 AND SWAP1 POP SWAP2 SWAP1 POP JUMP JUMPDEST PUSH32 0x4E487B7100000000000000000000000000000000000000000000000000000000 PUSH1 0x0 MSTORE PUSH1 0x11 PUSH1 0x4 MSTORE PUSH1 0x24 PUSH1 0x0 REVERT JUMPDEST PUSH1 0x0 PUSH2 0xC22 DUP3 PUSH2 0xBDB JUMP JUMPDEST SWAP2 POP PUSH2 0xC2D DUP4 PUSH2 0xBDB JUMP JUMPDEST SWAP3 POP DUP3 DUP3 ADD SWAP1 POP PUSH1 0xFF DUP2 GT ISZERO PUSH2 0xC46 JUMPI PUSH2 0xC45 PUSH2 0xBE8 JUMP JUMPDEST JUMPDEST SWAP3 SWAP2 POP POP JUMP JUMPDEST PUSH2 0xC55 DUP2 PUSH2 0x534 JUMP JUMPDEST DUP3 MSTORE POP POP JUMP JUMPDEST PUSH2 0xC64 DUP2 PUSH2 0xBDB JUMP JUMPDEST DUP3 MSTORE POP POP JUMP JUMPDEST PUSH1 0x0 PUSH1 0x80 DUP3 ADD SWAP1 POP PUSH2 0xC7F PUSH1 0x0 DUP4 ADD DUP8 PUSH2 0xC4C JUMP JUMPDEST PUSH2 0xC8C PUSH1 0x20 DUP4 ADD DUP7 PUSH2 0xC5B JUMP JUMPDEST PUSH2 0xC99 PUSH1 0x40 DUP4 ADD DUP6 PUSH2 0xC4C JUMP JUMPDEST PUSH2 0xCA6 PUSH1 0x60 DUP4 ADD DUP5 PUSH2 0xC4C JUMP JUMPDEST SWAP6 SWAP5 POP POP POP POP POP JUMP INVALID LOG2 PUSH5 0x6970667358 0x22 SLT KECCAK256 0xAB PUSH19 0xEF69DEAE48B0758F3602FF2914BC002DA651FB SWAP15 0xCB XOR 0xDC SWAP12 SWAP12 0xCD SHL PUSH27 0xDE3264736F6C63430008120033A2646970667358221220F357E063 0x2C 0xCA 0xDD 0xE2 0xE6 BYTE CODESIZE 0xBC BYTE 0xE2 0x2D DUP8 0xA5 0x5D 0xEF CALL 0xCC MSIZE PUSH17 0x1E68D4FE4971F9D3DD64736F6C63430008 SLT STOP CALLER "
				},
				"gasEstimates": {
					"creation": {
						"codeDepositCost": "2730400",
						"executionCost": "infinite",
						"totalCost": "infinite"
					},
					"external": {
						"CancelSellOrder((address,address,uint256,uint256,bytes,uint256,uint256))": "infinite",
						"createProxyWallet()": "infinite",
						"getFeeRate()": "2459",
						"getProxyWallet(address)": "infinite",
						"matchOrder(address,address,uint256,uint256,bytes,uint256,uint256)": "infinite",
						"setMall(address)": "26893",
						"updateFeeRate(uint256)": "infinite"
					},
					"internal": {
						"_cancelSellOrder(struct MarketContract.SellOrder memory)": "infinite",
						"matchfail(struct MarketContract.SellOrder memory)": "infinite",
						"matchsuccess(struct MarketContract.SellOrder memory)": "infinite",
						"recoverSigner(bytes32,bytes memory)": "infinite",
						"verifySignature(address,address,uint256,uint256,bytes memory,uint256,uint256)": "infinite"
					}
				},
				"methodIdentifiers": {
					"CancelSellOrder((address,address,uint256,uint256,bytes,uint256,uint256))": "59be1362",
					"createProxyWallet()": "c2a1d6c9",
					"getFeeRate()": "84e5eed0",
					"getProxyWallet(address)": "c465db0a",
					"matchOrder(address,address,uint256,uint256,bytes,uint256,uint256)": "171ab662",
					"setMall(address)": "07e4ac72",
					"updateFeeRate(uint256)": "7b84fda5"
				}
			},
			"storageLayout": {
				"storage": [
					{
						"astId": 598,
						"contract": "NFT_market_contract.sol:MarketContract",
						"label": "proxyWalletContract",
						"offset": 0,
						"slot": "0",
						"type": "t_address"
					},
					{
						"astId": 600,
						"contract": "NFT_market_contract.sol:MarketContract",
						"label": "mall",
						"offset": 0,
						"slot": "1",
						"type": "t_address"
					},
					{
						"astId": 603,
						"contract": "NFT_market_contract.sol:MarketContract",
						"label": "feeRate",
						"offset": 0,
						"slot": "2",
						"type": "t_uint256"
					},
					{
						"astId": 605,
						"contract": "NFT_market_contract.sol:MarketContract",
						"label": "owner",
						"offset": 0,
						"slot": "3",
						"type": "t_address"
					},
					{
						"astId": 609,
						"contract": "NFT_market_contract.sol:MarketContract",
						"label": "userToProxyWallet",
						"offset": 0,
						"slot": "4",
						"type": "t_mapping(t_address,t_address)"
					}
				],
				"types": {
					"t_address": {
						"encoding": "inplace",
						"label": "address",
						"numberOfBytes": "20"
					},
					"t_mapping(t_address,t_address)": {
						"encoding": "mapping",
						"key": "t_address",
						"label": "mapping(address => address)",
						"numberOfBytes": "32",
						"value": "t_address"
					},
					"t_uint256": {
						"encoding": "inplace",
						"label": "uint256",
						"numberOfBytes": "32"
					}
				}
			},
			"userdoc": {
				"kind": "user",
				"methods": {},
				"version": 1
			}
		}
	}
}