{
	"NFT_market_contract.sol": {
		"ProxyWallet": {
			"abi": [
				{
					"inputs": [
						{
							"internalType": "address",
							"name": "_owner",
							"type": "address"
						}
					],
					"stateMutability": "payable",
					"type": "constructor"
				},
				{
					"inputs": [
						{
							"components": [
								{
									"internalType": "address",
									"name": "seller",
									"type": "address"
								},
								{
									"internalType": "address",
									"name": "contractID",
									"type": "address"
								},
								{
									"internalType": "uint256",
									"name": "tokenID",
									"type": "uint256"
								},
								{
									"internalType": "uint256",
									"name": "price",
									"type": "uint256"
								},
								{
									"internalType": "bytes",
									"name": "signature",
									"type": "bytes"
								},
								{
									"internalType": "uint256",
									"name": "expirationTime",
									"type": "uint256"
								},
								{
									"internalType": "uint256",
									"name": "nonce",
									"type": "uint256"
								}
							],
							"internalType": "struct ProxyWallet.SellOrder",
							"name": "sellOrder",
							"type": "tuple"
						},
						{
							"internalType": "address",
							"name": "buyer",
							"type": "address"
						}
					],
					"name": "AtomicTx",
					"outputs": [],
					"stateMutability": "payable",
					"type": "function"
				},
				{
					"inputs": [
						{
							"internalType": "bytes32",
							"name": "",
							"type": "bytes32"
						}
					],
					"name": "IsInvalid",
					"outputs": [
						{
							"internalType": "bool",
							"name": "",
							"type": "bool"
						}
					],
					"stateMutability": "view",
					"type": "function"
				},
				{
					"inputs": [
						{
							"components": [
								{
									"internalType": "address",
									"name": "seller",
									"type": "address"
								},
								{
									"internalType": "address",
									"name": "contractID",
									"type": "address"
								},
								{
									"internalType": "uint256",
									"name": "tokenID",
									"type": "uint256"
								},
								{
									"internalType": "uint256",
									"name": "price",
									"type": "uint256"
								},
								{
									"internalType": "bytes",
									"name": "signature",
									"type": "bytes"
								},
								{
									"internalType": "uint256",
									"name": "expirationTime",
									"type": "uint256"
								},
								{
									"internalType": "uint256",
									"name": "nonce",
									"type": "uint256"
								}
							],
							"internalType": "struct ProxyWallet.SellOrder",
							"name": "sellOrder",
							"type": "tuple"
						}
					],
					"name": "cancelOrder",
					"outputs": [],
					"stateMutability": "nonpayable",
					"type": "function"
				},
				{
					"inputs": [
						{
							"internalType": "bytes32",
							"name": "orderHash",
							"type": "bytes32"
						}
					],
					"name": "isOrderInvalid",
					"outputs": [
						{
							"internalType": "bool",
							"name": "",
							"type": "bool"
						}
					],
					"stateMutability": "view",
					"type": "function"
				}
			],
			"devdoc": {
				"kind": "dev",
				"methods": {},
				"version": 1
			},
			"evm": {
				"assembly": "    /* \"NFT_market_contract.sol\":10240:14535  contract ProxyWallet {... */\n  mstore(0x40, 0x80)\n    /* \"NFT_market_contract.sol\":10751:10820  constructor(address _owner) payable {... */\n  mload(0x40)\n  sub(codesize, bytecodeSize)\n  dup1\n  bytecodeSize\n  dup4\n  codecopy\n  dup2\n  dup2\n  add\n  0x40\n  mstore\n  dup2\n  add\n  swap1\n  tag_1\n  swap2\n  swap1\n  tag_2\n  jump\t// in\ntag_1:\n    /* \"NFT_market_contract.sol\":10806:10812  _owner */\n  dup1\n    /* \"NFT_market_contract.sol\":10798:10803  owner */\n  0x00\n  dup1\n    /* \"NFT_market_contract.sol\":10798:10812  owner = _owner */\n  0x0100\n  exp\n  dup2\n  sload\n  dup2\n  0xffffffffffffffffffffffffffffffffffffffff\n  mul\n  not\n  and\n  swap1\n  dup4\n  0xffffffffffffffffffffffffffffffffffffffff\n  and\n  mul\n  or\n  swap1\n  sstore\n  pop\n    /* \"NFT_market_contract.sol\":10751:10820  constructor(address _owner) payable {... */\n  pop\n    /* \"NFT_market_contract.sol\":10240:14535  contract ProxyWallet {... */\n  jump(tag_5)\n    /* \"#utility.yul\":88:205   */\ntag_7:\n    /* \"#utility.yul\":197:198   */\n  0x00\n    /* \"#utility.yul\":194:195   */\n  dup1\n    /* \"#utility.yul\":187:199   */\n  revert\n    /* \"#utility.yul\":334:460   */\ntag_9:\n    /* \"#utility.yul\":371:378   */\n  0x00\n    /* \"#utility.yul\":411:453   */\n  0xffffffffffffffffffffffffffffffffffffffff\n    /* \"#utility.yul\":404:409   */\n  dup3\n    /* \"#utility.yul\":400:454   */\n  and\n    /* \"#utility.yul\":389:454   */\n  swap1\n  pop\n    /* \"#utility.yul\":334:460   */\n  swap2\n  swap1\n  pop\n  jump\t// out\n    /* \"#utility.yul\":466:562   */\ntag_10:\n    /* \"#utility.yul\":503:510   */\n  0x00\n    /* \"#utility.yul\":532:556   */\n  tag_19\n    /* \"#utility.yul\":550:555   */\n  dup3\n    /* \"#utility.yul\":532:556   */\n  tag_9\n  jump\t// in\ntag_19:\n    /* \"#utility.yul\":521:556   */\n  swap1\n  pop\n    /* \"#utility.yul\":466:562   */\n  swap2\n  swap1\n  pop\n  jump\t// out\n    /* \"#utility.yul\":568:690   */\ntag_11:\n    /* \"#utility.yul\":641:665   */\n  tag_21\n    /* \"#utility.yul\":659:664   */\n  dup2\n    /* \"#utility.yul\":641:665   */\n  tag_10\n  jump\t// in\ntag_21:\n    /* \"#utility.yul\":634:639   */\n  dup2\n    /* \"#utility.yul\":631:666   */\n  eq\n    /* \"#utility.yul\":621:684   */\n  tag_22\n  jumpi\n    /* \"#utility.yul\":680:681   */\n  0x00\n    /* \"#utility.yul\":677:678   */\n  dup1\n    /* \"#utility.yul\":670:682   */\n  revert\n    /* \"#utility.yul\":621:684   */\ntag_22:\n    /* \"#utility.yul\":568:690   */\n  pop\n  jump\t// out\n    /* \"#utility.yul\":696:839   */\ntag_12:\n    /* \"#utility.yul\":753:758   */\n  0x00\n    /* \"#utility.yul\":784:790   */\n  dup2\n    /* \"#utility.yul\":778:791   */\n  mload\n    /* \"#utility.yul\":769:791   */\n  swap1\n  pop\n    /* \"#utility.yul\":800:833   */\n  tag_24\n    /* \"#utility.yul\":827:832   */\n  dup2\n    /* \"#utility.yul\":800:833   */\n  tag_11\n  jump\t// in\ntag_24:\n    /* \"#utility.yul\":696:839   */\n  swap3\n  swap2\n  pop\n  pop\n  jump\t// out\n    /* \"#utility.yul\":845:1196   */\ntag_2:\n    /* \"#utility.yul\":915:921   */\n  0x00\n    /* \"#utility.yul\":964:966   */\n  0x20\n    /* \"#utility.yul\":952:961   */\n  dup3\n    /* \"#utility.yul\":943:950   */\n  dup5\n    /* \"#utility.yul\":939:962   */\n  sub\n    /* \"#utility.yul\":935:967   */\n  slt\n    /* \"#utility.yul\":932:1051   */\n  iszero\n  tag_26\n  jumpi\n    /* \"#utility.yul\":970:1049   */\n  tag_27\n  tag_7\n  jump\t// in\ntag_27:\n    /* \"#utility.yul\":932:1051   */\ntag_26:\n    /* \"#utility.yul\":1090:1091   */\n  0x00\n    /* \"#utility.yul\":1115:1179   */\n  tag_28\n    /* \"#utility.yul\":1171:1178   */\n  dup5\n    /* \"#utility.yul\":1162:1168   */\n  dup3\n    /* \"#utility.yul\":1151:1160   */\n  dup6\n    /* \"#utility.yul\":1147:1169   */\n  add\n    /* \"#utility.yul\":1115:1179   */\n  tag_12\n  jump\t// in\ntag_28:\n    /* \"#utility.yul\":1105:1179   */\n  swap2\n  pop\n    /* \"#utility.yul\":1061:1189   */\n  pop\n    /* \"#utility.yul\":845:1196   */\n  swap3\n  swap2\n  pop\n  pop\n  jump\t// out\n    /* \"NFT_market_contract.sol\":10240:14535  contract ProxyWallet {... */\ntag_5:\n  dataSize(sub_0)\n  dup1\n  dataOffset(sub_0)\n  0x00\n  codecopy\n  0x00\n  return\nstop\n\nsub_0: assembly {\n        /* \"NFT_market_contract.sol\":10240:14535  contract ProxyWallet {... */\n      mstore(0x40, 0x80)\n      jumpi(tag_1, lt(calldatasize, 0x04))\n      shr(0xe0, calldataload(0x00))\n      dup1\n      0x8eb6a489\n      eq\n      tag_2\n      jumpi\n      dup1\n      0x9b3f3f1a\n      eq\n      tag_3\n      jumpi\n      dup1\n      0xc04d75dd\n      eq\n      tag_4\n      jumpi\n      dup1\n      0xeb41850d\n      eq\n      tag_5\n      jumpi\n    tag_1:\n      0x00\n      dup1\n      revert\n        /* \"NFT_market_contract.sol\":10376:10417  mapping(bytes32 => bool) public IsInvalid */\n    tag_2:\n      callvalue\n      dup1\n      iszero\n      tag_6\n      jumpi\n      0x00\n      dup1\n      revert\n    tag_6:\n      pop\n      tag_7\n      0x04\n      dup1\n      calldatasize\n      sub\n      dup2\n      add\n      swap1\n      tag_8\n      swap2\n      swap1\n      tag_9\n      jump\t// in\n    tag_8:\n      tag_10\n      jump\t// in\n    tag_7:\n      mload(0x40)\n      tag_11\n      swap2\n      swap1\n      tag_12\n      jump\t// in\n    tag_11:\n      mload(0x40)\n      dup1\n      swap2\n      sub\n      swap1\n      return\n        /* \"NFT_market_contract.sol\":12469:13312  function cancelOrder(SellOrder memory sellOrder) public {... */\n    tag_3:\n      callvalue\n      dup1\n      iszero\n      tag_13\n      jumpi\n      0x00\n      dup1\n      revert\n    tag_13:\n      pop\n      tag_14\n      0x04\n      dup1\n      calldatasize\n      sub\n      dup2\n      add\n      swap1\n      tag_15\n      swap2\n      swap1\n      tag_16\n      jump\t// in\n    tag_15:\n      tag_17\n      jump\t// in\n    tag_14:\n      stop\n        /* \"NFT_market_contract.sol\":11155:12441  function AtomicTx(... */\n    tag_4:\n      tag_18\n      0x04\n      dup1\n      calldatasize\n      sub\n      dup2\n      add\n      swap1\n      tag_19\n      swap2\n      swap1\n      tag_20\n      jump\t// in\n    tag_19:\n      tag_21\n      jump\t// in\n    tag_18:\n      stop\n        /* \"NFT_market_contract.sol\":11031:11147  function isOrderInvalid(bytes32 orderHash) public view returns (bool) {... */\n    tag_5:\n      callvalue\n      dup1\n      iszero\n      tag_22\n      jumpi\n      0x00\n      dup1\n      revert\n    tag_22:\n      pop\n      tag_23\n      0x04\n      dup1\n      calldatasize\n      sub\n      dup2\n      add\n      swap1\n      tag_24\n      swap2\n      swap1\n      tag_9\n      jump\t// in\n    tag_24:\n      tag_25\n      jump\t// in\n    tag_23:\n      mload(0x40)\n      tag_26\n      swap2\n      swap1\n      tag_12\n      jump\t// in\n    tag_26:\n      mload(0x40)\n      dup1\n      swap2\n      sub\n      swap1\n      return\n        /* \"NFT_market_contract.sol\":10376:10417  mapping(bytes32 => bool) public IsInvalid */\n    tag_10:\n      mstore(0x20, 0x01)\n      dup1\n      0x00\n      mstore\n      keccak256(0x00, 0x40)\n      0x00\n      swap2\n      pop\n      sload\n      swap1\n      0x0100\n      exp\n      swap1\n      div\n      0xff\n      and\n      dup2\n      jump\t// out\n        /* \"NFT_market_contract.sol\":12469:13312  function cancelOrder(SellOrder memory sellOrder) public {... */\n    tag_17:\n        /* \"NFT_market_contract.sol\":12583:12872  verifySignature(... */\n      tag_28\n        /* \"NFT_market_contract.sol\":12617:12626  sellOrder */\n      dup2\n        /* \"NFT_market_contract.sol\":12617:12633  sellOrder.seller */\n      0x00\n      add\n      mload\n        /* \"NFT_market_contract.sol\":12652:12661  sellOrder */\n      dup3\n        /* \"NFT_market_contract.sol\":12652:12672  sellOrder.contractID */\n      0x20\n      add\n      mload\n        /* \"NFT_market_contract.sol\":12691:12700  sellOrder */\n      dup4\n        /* \"NFT_market_contract.sol\":12691:12708  sellOrder.tokenID */\n      0x40\n      add\n      mload\n        /* \"NFT_market_contract.sol\":12727:12736  sellOrder */\n      dup5\n        /* \"NFT_market_contract.sol\":12727:12742  sellOrder.price */\n      0x60\n      add\n      mload\n        /* \"NFT_market_contract.sol\":12761:12770  sellOrder */\n      dup6\n        /* \"NFT_market_contract.sol\":12761:12780  sellOrder.signature */\n      0x80\n      add\n      mload\n        /* \"NFT_market_contract.sol\":12799:12808  sellOrder */\n      dup7\n        /* \"NFT_market_contract.sol\":12799:12823  sellOrder.expirationTime */\n      0xa0\n      add\n      mload\n        /* \"NFT_market_contract.sol\":12842:12851  sellOrder */\n      dup8\n        /* \"NFT_market_contract.sol\":12842:12857  sellOrder.nonce */\n      0xc0\n      add\n      mload\n        /* \"NFT_market_contract.sol\":12583:12598  verifySignature */\n      tag_29\n        /* \"NFT_market_contract.sol\":12583:12872  verifySignature(... */\n      jump\t// in\n    tag_28:\n        /* \"NFT_market_contract.sol\":12561:12917  require(... */\n      tag_30\n      jumpi\n      mload(0x40)\n      0x08c379a000000000000000000000000000000000000000000000000000000000\n      dup2\n      mstore\n      0x04\n      add\n      tag_31\n      swap1\n      tag_32\n      jump\t// in\n    tag_31:\n      mload(0x40)\n      dup1\n      swap2\n      sub\n      swap1\n      revert\n    tag_30:\n        /* \"NFT_market_contract.sol\":12928:12940  bytes32 Hash */\n      0x00\n        /* \"NFT_market_contract.sol\":13002:13011  sellOrder */\n      dup2\n        /* \"NFT_market_contract.sol\":13002:13018  sellOrder.seller */\n      0x00\n      add\n      mload\n        /* \"NFT_market_contract.sol\":13037:13046  sellOrder */\n      dup3\n        /* \"NFT_market_contract.sol\":13037:13057  sellOrder.contractID */\n      0x20\n      add\n      mload\n        /* \"NFT_market_contract.sol\":13076:13085  sellOrder */\n      dup4\n        /* \"NFT_market_contract.sol\":13076:13093  sellOrder.tokenID */\n      0x40\n      add\n      mload\n        /* \"NFT_market_contract.sol\":13112:13121  sellOrder */\n      dup5\n        /* \"NFT_market_contract.sol\":13112:13127  sellOrder.price */\n      0x60\n      add\n      mload\n        /* \"NFT_market_contract.sol\":13146:13155  sellOrder */\n      dup6\n        /* \"NFT_market_contract.sol\":13146:13170  sellOrder.expirationTime */\n      0xa0\n      add\n      mload\n        /* \"NFT_market_contract.sol\":13189:13198  sellOrder */\n      dup7\n        /* \"NFT_market_contract.sol\":13189:13204  sellOrder.nonce */\n      0xc0\n      add\n      mload\n        /* \"NFT_market_contract.sol\":12967:13219  abi.encodePacked(... */\n      add(0x20, mload(0x40))\n      tag_33\n      swap7\n      swap6\n      swap5\n      swap4\n      swap3\n      swap2\n      swap1\n      tag_34\n      jump\t// in\n    tag_33:\n      mload(0x40)\n      0x20\n      dup2\n      dup4\n      sub\n      sub\n      dup2\n      mstore\n      swap1\n      0x40\n      mstore\n        /* \"NFT_market_contract.sol\":12943:13230  keccak256(... */\n      dup1\n      mload\n      swap1\n      0x20\n      add\n      keccak256\n        /* \"NFT_market_contract.sol\":12928:13230  bytes32 Hash = keccak256(... */\n      swap1\n      pop\n        /* \"NFT_market_contract.sol\":13280:13304  markOrderCancelled(Hash) */\n      tag_35\n        /* \"NFT_market_contract.sol\":13299:13303  Hash */\n      dup2\n        /* \"NFT_market_contract.sol\":13280:13298  markOrderCancelled */\n      tag_36\n        /* \"NFT_market_contract.sol\":13280:13304  markOrderCancelled(Hash) */\n      jump\t// in\n    tag_35:\n        /* \"NFT_market_contract.sol\":12525:13312  {... */\n      pop\n        /* \"NFT_market_contract.sol\":12469:13312  function cancelOrder(SellOrder memory sellOrder) public {... */\n      pop\n      jump\t// out\n        /* \"NFT_market_contract.sol\":11155:12441  function AtomicTx(... */\n    tag_21:\n        /* \"NFT_market_contract.sol\":11267:11279  bytes32 Hash */\n      0x00\n        /* \"NFT_market_contract.sol\":11341:11350  sellOrder */\n      dup3\n        /* \"NFT_market_contract.sol\":11341:11357  sellOrder.seller */\n      0x00\n      add\n      mload\n        /* \"NFT_market_contract.sol\":11376:11385  sellOrder */\n      dup4\n        /* \"NFT_market_contract.sol\":11376:11396  sellOrder.contractID */\n      0x20\n      add\n      mload\n        /* \"NFT_market_contract.sol\":11415:11424  sellOrder */\n      dup5\n        /* \"NFT_market_contract.sol\":11415:11432  sellOrder.tokenID */\n      0x40\n      add\n      mload\n        /* \"NFT_market_contract.sol\":11451:11460  sellOrder */\n      dup6\n        /* \"NFT_market_contract.sol\":11451:11466  sellOrder.price */\n      0x60\n      add\n      mload\n        /* \"NFT_market_contract.sol\":11485:11494  sellOrder */\n      dup7\n        /* \"NFT_market_contract.sol\":11485:11509  sellOrder.expirationTime */\n      0xa0\n      add\n      mload\n        /* \"NFT_market_contract.sol\":11528:11537  sellOrder */\n      dup8\n        /* \"NFT_market_contract.sol\":11528:11543  sellOrder.nonce */\n      0xc0\n      add\n      mload\n        /* \"NFT_market_contract.sol\":11306:11558  abi.encodePacked(... */\n      add(0x20, mload(0x40))\n      tag_38\n      swap7\n      swap6\n      swap5\n      swap4\n      swap3\n      swap2\n      swap1\n      tag_34\n      jump\t// in\n    tag_38:\n      mload(0x40)\n      0x20\n      dup2\n      dup4\n      sub\n      sub\n      dup2\n      mstore\n      swap1\n      0x40\n      mstore\n        /* \"NFT_market_contract.sol\":11282:11569  keccak256(... */\n      dup1\n      mload\n      swap1\n      0x20\n      add\n      keccak256\n        /* \"NFT_market_contract.sol\":11267:11569  bytes32 Hash = keccak256(... */\n      swap1\n      pop\n        /* \"NFT_market_contract.sol\":11633:11642  IsInvalid */\n      0x01\n        /* \"NFT_market_contract.sol\":11633:11648  IsInvalid[Hash] */\n      0x00\n        /* \"NFT_market_contract.sol\":11643:11647  Hash */\n      dup3\n        /* \"NFT_market_contract.sol\":11633:11648  IsInvalid[Hash] */\n      dup2\n      mstore\n      0x20\n      add\n      swap1\n      dup2\n      mstore\n      0x20\n      add\n      0x00\n      keccak256\n      0x00\n      swap1\n      sload\n      swap1\n      0x0100\n      exp\n      swap1\n      div\n      0xff\n      and\n        /* \"NFT_market_contract.sol\":11632:11648  !IsInvalid[Hash] */\n      iszero\n        /* \"NFT_market_contract.sol\":11624:11672  require(!IsInvalid[Hash], \"Order has been used\") */\n      tag_39\n      jumpi\n      mload(0x40)\n      0x08c379a000000000000000000000000000000000000000000000000000000000\n      dup2\n      mstore\n      0x04\n      add\n      tag_40\n      swap1\n      tag_41\n      jump\t// in\n    tag_40:\n      mload(0x40)\n      dup1\n      swap2\n      sub\n      swap1\n      revert\n    tag_39:\n        /* \"NFT_market_contract.sol\":11731:12020  verifySignature(... */\n      tag_42\n        /* \"NFT_market_contract.sol\":11765:11774  sellOrder */\n      dup4\n        /* \"NFT_market_contract.sol\":11765:11781  sellOrder.seller */\n      0x00\n      add\n      mload\n        /* \"NFT_market_contract.sol\":11800:11809  sellOrder */\n      dup5\n        /* \"NFT_market_contract.sol\":11800:11820  sellOrder.contractID */\n      0x20\n      add\n      mload\n        /* \"NFT_market_contract.sol\":11839:11848  sellOrder */\n      dup6\n        /* \"NFT_market_contract.sol\":11839:11856  sellOrder.tokenID */\n      0x40\n      add\n      mload\n        /* \"NFT_market_contract.sol\":11875:11884  sellOrder */\n      dup7\n        /* \"NFT_market_contract.sol\":11875:11890  sellOrder.price */\n      0x60\n      add\n      mload\n        /* \"NFT_market_contract.sol\":11909:11918  sellOrder */\n      dup8\n        /* \"NFT_market_contract.sol\":11909:11928  sellOrder.signature */\n      0x80\n      add\n      mload\n        /* \"NFT_market_contract.sol\":11947:11956  sellOrder */\n      dup9\n        /* \"NFT_market_contract.sol\":11947:11971  sellOrder.expirationTime */\n      0xa0\n      add\n      mload\n        /* \"NFT_market_contract.sol\":11990:11999  sellOrder */\n      dup10\n        /* \"NFT_market_contract.sol\":11990:12005  sellOrder.nonce */\n      0xc0\n      add\n      mload\n        /* \"NFT_market_contract.sol\":11731:11746  verifySignature */\n      tag_29\n        /* \"NFT_market_contract.sol\":11731:12020  verifySignature(... */\n      jump\t// in\n    tag_42:\n        /* \"NFT_market_contract.sol\":11709:12065  require(... */\n      tag_43\n      jumpi\n      mload(0x40)\n      0x08c379a000000000000000000000000000000000000000000000000000000000\n      dup2\n      mstore\n      0x04\n      add\n      tag_44\n      swap1\n      tag_32\n      jump\t// in\n    tag_44:\n      mload(0x40)\n      dup1\n      swap2\n      sub\n      swap1\n      revert\n    tag_43:\n        /* \"NFT_market_contract.sol\":12168:12177  sellOrder */\n      dup3\n        /* \"NFT_market_contract.sol\":12168:12188  sellOrder.contractID */\n      0x20\n      add\n      mload\n        /* \"NFT_market_contract.sol\":12160:12202  IERC721(sellOrder.contractID).transferFrom */\n      0xffffffffffffffffffffffffffffffffffffffff\n      and\n      0x23b872dd\n        /* \"NFT_market_contract.sol\":12221:12230  sellOrder */\n      dup5\n        /* \"NFT_market_contract.sol\":12221:12237  sellOrder.seller */\n      0x00\n      add\n      mload\n        /* \"NFT_market_contract.sol\":12256:12261  buyer */\n      dup5\n        /* \"NFT_market_contract.sol\":12280:12289  sellOrder */\n      dup7\n        /* \"NFT_market_contract.sol\":12280:12297  sellOrder.tokenID */\n      0x40\n      add\n      mload\n        /* \"NFT_market_contract.sol\":12160:12312  IERC721(sellOrder.contractID).transferFrom(... */\n      mload(0x40)\n      dup5\n      0xffffffff\n      and\n      0xe0\n      shl\n      dup2\n      mstore\n      0x04\n      add\n      tag_45\n      swap4\n      swap3\n      swap2\n      swap1\n      tag_46\n      jump\t// in\n    tag_45:\n      0x00\n      mload(0x40)\n      dup1\n      dup4\n      sub\n      dup2\n      0x00\n      dup8\n      dup1\n      extcodesize\n      iszero\n      dup1\n      iszero\n      tag_47\n      jumpi\n      0x00\n      dup1\n      revert\n    tag_47:\n      pop\n      gas\n      call\n      swap3\n      pop\n      pop\n      pop\n      dup1\n      iszero\n      tag_48\n      jumpi\n      pop\n      0x01\n    tag_48:\n        /* \"NFT_market_contract.sol\":12143:12434  try... */\n      tag_49\n      jumpi\n        /* \"NFT_market_contract.sol\":12416:12423  return; */\n      pop\n      jump(tag_37)\n        /* \"NFT_market_contract.sol\":12143:12434  try... */\n    tag_49:\n        /* \"NFT_market_contract.sol\":12337:12361  markOrderCancelled(Hash) */\n      tag_54\n        /* \"NFT_market_contract.sol\":12356:12360  Hash */\n      dup2\n        /* \"NFT_market_contract.sol\":12337:12355  markOrderCancelled */\n      tag_36\n        /* \"NFT_market_contract.sol\":12337:12361  markOrderCancelled(Hash) */\n      jump\t// in\n    tag_54:\n        /* \"NFT_market_contract.sol\":12376:12383  return; */\n      pop\n        /* \"NFT_market_contract.sol\":11155:12441  function AtomicTx(... */\n    tag_37:\n      pop\n      pop\n      jump\t// out\n        /* \"NFT_market_contract.sol\":11031:11147  function isOrderInvalid(bytes32 orderHash) public view returns (bool) {... */\n    tag_25:\n        /* \"NFT_market_contract.sol\":11095:11099  bool */\n      0x00\n        /* \"NFT_market_contract.sol\":11119:11128  IsInvalid */\n      0x01\n        /* \"NFT_market_contract.sol\":11119:11139  IsInvalid[orderHash] */\n      0x00\n        /* \"NFT_market_contract.sol\":11129:11138  orderHash */\n      dup4\n        /* \"NFT_market_contract.sol\":11119:11139  IsInvalid[orderHash] */\n      dup2\n      mstore\n      0x20\n      add\n      swap1\n      dup2\n      mstore\n      0x20\n      add\n      0x00\n      keccak256\n      0x00\n      swap1\n      sload\n      swap1\n      0x0100\n      exp\n      swap1\n      div\n      0xff\n      and\n        /* \"NFT_market_contract.sol\":11112:11139  return IsInvalid[orderHash] */\n      swap1\n      pop\n        /* \"NFT_market_contract.sol\":11031:11147  function isOrderInvalid(bytes32 orderHash) public view returns (bool) {... */\n      swap2\n      swap1\n      pop\n      jump\t// out\n        /* \"NFT_market_contract.sol\":13361:14064  function verifySignature(... */\n    tag_29:\n        /* \"NFT_market_contract.sol\":13610:13614  bool */\n      0x00\n        /* \"NFT_market_contract.sol\":13627:13639  bytes32 hash */\n      dup1\n        /* \"NFT_market_contract.sol\":13701:13707  seller */\n      dup9\n        /* \"NFT_market_contract.sol\":13726:13736  contractID */\n      dup9\n        /* \"NFT_market_contract.sol\":13755:13762  tokenID */\n      dup9\n        /* \"NFT_market_contract.sol\":13781:13786  price */\n      dup9\n        /* \"NFT_market_contract.sol\":13805:13819  expirationTime */\n      dup8\n        /* \"NFT_market_contract.sol\":13838:13843  nonce */\n      dup8\n        /* \"NFT_market_contract.sol\":13666:13858  abi.encodePacked(... */\n      add(0x20, mload(0x40))\n      tag_57\n      swap7\n      swap6\n      swap5\n      swap4\n      swap3\n      swap2\n      swap1\n      tag_34\n      jump\t// in\n    tag_57:\n      mload(0x40)\n      0x20\n      dup2\n      dup4\n      sub\n      sub\n      dup2\n      mstore\n      swap1\n      0x40\n      mstore\n        /* \"NFT_market_contract.sol\":13642:13869  keccak256(... */\n      dup1\n      mload\n      swap1\n      0x20\n      add\n      keccak256\n        /* \"NFT_market_contract.sol\":13627:13869  bytes32 hash = keccak256(... */\n      swap1\n      pop\n        /* \"NFT_market_contract.sol\":13880:13897  bytes32 OrderHash */\n      0x00\n        /* \"NFT_market_contract.sol\":13977:13981  hash */\n      dup2\n        /* \"NFT_market_contract.sol\":13924:13982  abi.encodePacked(\"\\x19Ethereum Signed Message:\\n32\", hash) */\n      add(0x20, mload(0x40))\n      tag_58\n      swap2\n      swap1\n      tag_59\n      jump\t// in\n    tag_58:\n      mload(0x40)\n      0x20\n      dup2\n      dup4\n      sub\n      sub\n      dup2\n      mstore\n      swap1\n      0x40\n      mstore\n        /* \"NFT_market_contract.sol\":13900:13993  keccak256(... */\n      dup1\n      mload\n      swap1\n      0x20\n      add\n      keccak256\n        /* \"NFT_market_contract.sol\":13880:13993  bytes32 OrderHash = keccak256(... */\n      swap1\n      pop\n        /* \"NFT_market_contract.sol\":14050:14056  seller */\n      dup10\n        /* \"NFT_market_contract.sol\":14011:14056  recoverSigner(OrderHash, signature) == seller */\n      0xffffffffffffffffffffffffffffffffffffffff\n      and\n        /* \"NFT_market_contract.sol\":14011:14046  recoverSigner(OrderHash, signature) */\n      tag_60\n        /* \"NFT_market_contract.sol\":14025:14034  OrderHash */\n      dup3\n        /* \"NFT_market_contract.sol\":14036:14045  signature */\n      dup9\n        /* \"NFT_market_contract.sol\":14011:14024  recoverSigner */\n      tag_61\n        /* \"NFT_market_contract.sol\":14011:14046  recoverSigner(OrderHash, signature) */\n      jump\t// in\n    tag_60:\n        /* \"NFT_market_contract.sol\":14011:14056  recoverSigner(OrderHash, signature) == seller */\n      0xffffffffffffffffffffffffffffffffffffffff\n      and\n      eq\n        /* \"NFT_market_contract.sol\":14004:14056  return recoverSigner(OrderHash, signature) == seller */\n      swap3\n      pop\n      pop\n      pop\n        /* \"NFT_market_contract.sol\":13361:14064  function verifySignature(... */\n      swap8\n      swap7\n      pop\n      pop\n      pop\n      pop\n      pop\n      pop\n      pop\n      jump\t// out\n        /* \"NFT_market_contract.sol\":10828:10967  function markOrderCancelled(bytes32 orderHash) internal {... */\n    tag_36:\n        /* \"NFT_market_contract.sol\":10955:10959  true */\n      0x01\n        /* \"NFT_market_contract.sol\":10932:10941  IsInvalid */\n      dup1\n        /* \"NFT_market_contract.sol\":10932:10952  IsInvalid[orderHash] */\n      0x00\n        /* \"NFT_market_contract.sol\":10942:10951  orderHash */\n      dup4\n        /* \"NFT_market_contract.sol\":10932:10952  IsInvalid[orderHash] */\n      dup2\n      mstore\n      0x20\n      add\n      swap1\n      dup2\n      mstore\n      0x20\n      add\n      0x00\n      keccak256\n      0x00\n        /* \"NFT_market_contract.sol\":10932:10959  IsInvalid[orderHash] = true */\n      0x0100\n      exp\n      dup2\n      sload\n      dup2\n      0xff\n      mul\n      not\n      and\n      swap1\n      dup4\n      iszero\n      iszero\n      mul\n      or\n      swap1\n      sstore\n      pop\n        /* \"NFT_market_contract.sol\":10828:10967  function markOrderCancelled(bytes32 orderHash) internal {... */\n      pop\n      jump\t// out\n        /* \"NFT_market_contract.sol\":14072:14532  function recoverSigner(... */\n    tag_61:\n        /* \"NFT_market_contract.sol\":14181:14188  address */\n      0x00\n        /* \"NFT_market_contract.sol\":14201:14210  bytes32 r */\n      dup1\n        /* \"NFT_market_contract.sol\":14221:14230  bytes32 s */\n      0x00\n        /* \"NFT_market_contract.sol\":14241:14248  uint8 v */\n      dup1\n        /* \"NFT_market_contract.sol\":14311:14313  32 */\n      0x20\n        /* \"NFT_market_contract.sol\":14300:14309  signature */\n      dup6\n        /* \"NFT_market_contract.sol\":14296:14314  add(signature, 32) */\n      add\n        /* \"NFT_market_contract.sol\":14290:14315  mload(add(signature, 32)) */\n      mload\n        /* \"NFT_market_contract.sol\":14285:14315  r := mload(add(signature, 32)) */\n      swap3\n      pop\n        /* \"NFT_market_contract.sol\":14355:14357  64 */\n      0x40\n        /* \"NFT_market_contract.sol\":14344:14353  signature */\n      dup6\n        /* \"NFT_market_contract.sol\":14340:14358  add(signature, 64) */\n      add\n        /* \"NFT_market_contract.sol\":14334:14359  mload(add(signature, 64)) */\n      mload\n        /* \"NFT_market_contract.sol\":14329:14359  s := mload(add(signature, 64)) */\n      swap2\n      pop\n        /* \"NFT_market_contract.sol\":14407:14409  96 */\n      0x60\n        /* \"NFT_market_contract.sol\":14396:14405  signature */\n      dup6\n        /* \"NFT_market_contract.sol\":14392:14410  add(signature, 96) */\n      add\n        /* \"NFT_market_contract.sol\":14386:14411  mload(add(signature, 96)) */\n      mload\n        /* \"NFT_market_contract.sol\":14383:14384  0 */\n      0x00\n        /* \"NFT_market_contract.sol\":14378:14412  byte(0, mload(add(signature, 96))) */\n      byte\n        /* \"NFT_market_contract.sol\":14373:14412  v := byte(0, mload(add(signature, 96))) */\n      swap1\n      pop\n        /* \"NFT_market_contract.sol\":14443:14445  27 */\n      0x1b\n        /* \"NFT_market_contract.sol\":14439:14440  v */\n      dup2\n        /* \"NFT_market_contract.sol\":14439:14445  v < 27 */\n      0xff\n      and\n      lt\n        /* \"NFT_market_contract.sol\":14435:14481  if (v < 27) {... */\n      iszero\n      tag_64\n      jumpi\n        /* \"NFT_market_contract.sol\":14467:14469  27 */\n      0x1b\n        /* \"NFT_market_contract.sol\":14462:14469  v += 27 */\n      dup2\n      tag_65\n      swap2\n      swap1\n      tag_66\n      jump\t// in\n    tag_65:\n      swap1\n      pop\n        /* \"NFT_market_contract.sol\":14435:14481  if (v < 27) {... */\n    tag_64:\n        /* \"NFT_market_contract.sol\":14500:14524  ecrecover(hash, v, r, s) */\n      0x01\n        /* \"NFT_market_contract.sol\":14510:14514  hash */\n      dup7\n        /* \"NFT_market_contract.sol\":14516:14517  v */\n      dup3\n        /* \"NFT_market_contract.sol\":14519:14520  r */\n      dup6\n        /* \"NFT_market_contract.sol\":14522:14523  s */\n      dup6\n        /* \"NFT_market_contract.sol\":14500:14524  ecrecover(hash, v, r, s) */\n      mload(0x40)\n      0x00\n      dup2\n      mstore\n      0x20\n      add\n      0x40\n      mstore\n      mload(0x40)\n      tag_67\n      swap5\n      swap4\n      swap3\n      swap2\n      swap1\n      tag_68\n      jump\t// in\n    tag_67:\n      0x20\n      mload(0x40)\n      0x20\n      dup2\n      sub\n      swap1\n      dup1\n      dup5\n      sub\n      swap1\n      dup6\n      gas\n      staticcall\n      iszero\n      dup1\n      iszero\n      tag_70\n      jumpi\n      returndatasize\n      0x00\n      dup1\n      returndatacopy\n      revert(0x00, returndatasize)\n    tag_70:\n      pop\n      pop\n      pop\n      mload(sub(mload(0x40), 0x20))\n        /* \"NFT_market_contract.sol\":14493:14524  return ecrecover(hash, v, r, s) */\n      swap4\n      pop\n      pop\n      pop\n      pop\n        /* \"NFT_market_contract.sol\":14072:14532  function recoverSigner(... */\n      swap3\n      swap2\n      pop\n      pop\n      jump\t// out\n        /* \"#utility.yul\":7:82   */\n    tag_71:\n        /* \"#utility.yul\":40:46   */\n      0x00\n        /* \"#utility.yul\":73:75   */\n      0x40\n        /* \"#utility.yul\":67:76   */\n      mload\n        /* \"#utility.yul\":57:76   */\n      swap1\n      pop\n        /* \"#utility.yul\":7:82   */\n      swap1\n      jump\t// out\n        /* \"#utility.yul\":88:205   */\n    tag_72:\n        /* \"#utility.yul\":197:198   */\n      0x00\n        /* \"#utility.yul\":194:195   */\n      dup1\n        /* \"#utility.yul\":187:199   */\n      revert\n        /* \"#utility.yul\":211:328   */\n    tag_73:\n        /* \"#utility.yul\":320:321   */\n      0x00\n        /* \"#utility.yul\":317:318   */\n      dup1\n        /* \"#utility.yul\":310:322   */\n      revert\n        /* \"#utility.yul\":334:411   */\n    tag_74:\n        /* \"#utility.yul\":371:378   */\n      0x00\n        /* \"#utility.yul\":400:405   */\n      dup2\n        /* \"#utility.yul\":389:405   */\n      swap1\n      pop\n        /* \"#utility.yul\":334:411   */\n      swap2\n      swap1\n      pop\n      jump\t// out\n        /* \"#utility.yul\":417:539   */\n    tag_75:\n        /* \"#utility.yul\":490:514   */\n      tag_127\n        /* \"#utility.yul\":508:513   */\n      dup2\n        /* \"#utility.yul\":490:514   */\n      tag_74\n      jump\t// in\n    tag_127:\n        /* \"#utility.yul\":483:488   */\n      dup2\n        /* \"#utility.yul\":480:515   */\n      eq\n        /* \"#utility.yul\":470:533   */\n      tag_128\n      jumpi\n        /* \"#utility.yul\":529:530   */\n      0x00\n        /* \"#utility.yul\":526:527   */\n      dup1\n        /* \"#utility.yul\":519:531   */\n      revert\n        /* \"#utility.yul\":470:533   */\n    tag_128:\n        /* \"#utility.yul\":417:539   */\n      pop\n      jump\t// out\n        /* \"#utility.yul\":545:684   */\n    tag_76:\n        /* \"#utility.yul\":591:596   */\n      0x00\n        /* \"#utility.yul\":629:635   */\n      dup2\n        /* \"#utility.yul\":616:636   */\n      calldataload\n        /* \"#utility.yul\":607:636   */\n      swap1\n      pop\n        /* \"#utility.yul\":645:678   */\n      tag_130\n        /* \"#utility.yul\":672:677   */\n      dup2\n        /* \"#utility.yul\":645:678   */\n      tag_75\n      jump\t// in\n    tag_130:\n        /* \"#utility.yul\":545:684   */\n      swap3\n      swap2\n      pop\n      pop\n      jump\t// out\n        /* \"#utility.yul\":690:1019   */\n    tag_9:\n        /* \"#utility.yul\":749:755   */\n      0x00\n        /* \"#utility.yul\":798:800   */\n      0x20\n        /* \"#utility.yul\":786:795   */\n      dup3\n        /* \"#utility.yul\":777:784   */\n      dup5\n        /* \"#utility.yul\":773:796   */\n      sub\n        /* \"#utility.yul\":769:801   */\n      slt\n        /* \"#utility.yul\":766:885   */\n      iszero\n      tag_132\n      jumpi\n        /* \"#utility.yul\":804:883   */\n      tag_133\n      tag_72\n      jump\t// in\n    tag_133:\n        /* \"#utility.yul\":766:885   */\n    tag_132:\n        /* \"#utility.yul\":924:925   */\n      0x00\n        /* \"#utility.yul\":949:1002   */\n      tag_134\n        /* \"#utility.yul\":994:1001   */\n      dup5\n        /* \"#utility.yul\":985:991   */\n      dup3\n        /* \"#utility.yul\":974:983   */\n      dup6\n        /* \"#utility.yul\":970:992   */\n      add\n        /* \"#utility.yul\":949:1002   */\n      tag_76\n      jump\t// in\n    tag_134:\n        /* \"#utility.yul\":939:1002   */\n      swap2\n      pop\n        /* \"#utility.yul\":895:1012   */\n      pop\n        /* \"#utility.yul\":690:1019   */\n      swap3\n      swap2\n      pop\n      pop\n      jump\t// out\n        /* \"#utility.yul\":1025:1115   */\n    tag_77:\n        /* \"#utility.yul\":1059:1066   */\n      0x00\n        /* \"#utility.yul\":1102:1107   */\n      dup2\n        /* \"#utility.yul\":1095:1108   */\n      iszero\n        /* \"#utility.yul\":1088:1109   */\n      iszero\n        /* \"#utility.yul\":1077:1109   */\n      swap1\n      pop\n        /* \"#utility.yul\":1025:1115   */\n      swap2\n      swap1\n      pop\n      jump\t// out\n        /* \"#utility.yul\":1121:1230   */\n    tag_78:\n        /* \"#utility.yul\":1202:1223   */\n      tag_137\n        /* \"#utility.yul\":1217:1222   */\n      dup2\n        /* \"#utility.yul\":1202:1223   */\n      tag_77\n      jump\t// in\n    tag_137:\n        /* \"#utility.yul\":1197:1200   */\n      dup3\n        /* \"#utility.yul\":1190:1224   */\n      mstore\n        /* \"#utility.yul\":1121:1230   */\n      pop\n      pop\n      jump\t// out\n        /* \"#utility.yul\":1236:1446   */\n    tag_12:\n        /* \"#utility.yul\":1323:1327   */\n      0x00\n        /* \"#utility.yul\":1361:1363   */\n      0x20\n        /* \"#utility.yul\":1350:1359   */\n      dup3\n        /* \"#utility.yul\":1346:1364   */\n      add\n        /* \"#utility.yul\":1338:1364   */\n      swap1\n      pop\n        /* \"#utility.yul\":1374:1439   */\n      tag_139\n        /* \"#utility.yul\":1436:1437   */\n      0x00\n        /* \"#utility.yul\":1425:1434   */\n      dup4\n        /* \"#utility.yul\":1421:1438   */\n      add\n        /* \"#utility.yul\":1412:1418   */\n      dup5\n        /* \"#utility.yul\":1374:1439   */\n      tag_78\n      jump\t// in\n    tag_139:\n        /* \"#utility.yul\":1236:1446   */\n      swap3\n      swap2\n      pop\n      pop\n      jump\t// out\n        /* \"#utility.yul\":1452:1569   */\n    tag_79:\n        /* \"#utility.yul\":1561:1562   */\n      0x00\n        /* \"#utility.yul\":1558:1559   */\n      dup1\n        /* \"#utility.yul\":1551:1563   */\n      revert\n        /* \"#utility.yul\":1575:1677   */\n    tag_80:\n        /* \"#utility.yul\":1616:1622   */\n      0x00\n        /* \"#utility.yul\":1667:1669   */\n      0x1f\n        /* \"#utility.yul\":1663:1670   */\n      not\n        /* \"#utility.yul\":1658:1660   */\n      0x1f\n        /* \"#utility.yul\":1651:1656   */\n      dup4\n        /* \"#utility.yul\":1647:1661   */\n      add\n        /* \"#utility.yul\":1643:1671   */\n      and\n        /* \"#utility.yul\":1633:1671   */\n      swap1\n      pop\n        /* \"#utility.yul\":1575:1677   */\n      swap2\n      swap1\n      pop\n      jump\t// out\n        /* \"#utility.yul\":1683:1863   */\n    tag_81:\n        /* \"#utility.yul\":1731:1808   */\n      0x4e487b7100000000000000000000000000000000000000000000000000000000\n        /* \"#utility.yul\":1728:1729   */\n      0x00\n        /* \"#utility.yul\":1721:1809   */\n      mstore\n        /* \"#utility.yul\":1828:1832   */\n      0x41\n        /* \"#utility.yul\":1825:1826   */\n      0x04\n        /* \"#utility.yul\":1818:1833   */\n      mstore\n        /* \"#utility.yul\":1852:1856   */\n      0x24\n        /* \"#utility.yul\":1849:1850   */\n      0x00\n        /* \"#utility.yul\":1842:1857   */\n      revert\n        /* \"#utility.yul\":1869:2150   */\n    tag_82:\n        /* \"#utility.yul\":1952:1979   */\n      tag_144\n        /* \"#utility.yul\":1974:1978   */\n      dup3\n        /* \"#utility.yul\":1952:1979   */\n      tag_80\n      jump\t// in\n    tag_144:\n        /* \"#utility.yul\":1944:1950   */\n      dup2\n        /* \"#utility.yul\":1940:1980   */\n      add\n        /* \"#utility.yul\":2082:2088   */\n      dup2\n        /* \"#utility.yul\":2070:2080   */\n      dup2\n        /* \"#utility.yul\":2067:2089   */\n      lt\n        /* \"#utility.yul\":2046:2064   */\n      0xffffffffffffffff\n        /* \"#utility.yul\":2034:2044   */\n      dup3\n        /* \"#utility.yul\":2031:2065   */\n      gt\n        /* \"#utility.yul\":2028:2090   */\n      or\n        /* \"#utility.yul\":2025:2113   */\n      iszero\n      tag_145\n      jumpi\n        /* \"#utility.yul\":2093:2111   */\n      tag_146\n      tag_81\n      jump\t// in\n    tag_146:\n        /* \"#utility.yul\":2025:2113   */\n    tag_145:\n        /* \"#utility.yul\":2133:2143   */\n      dup1\n        /* \"#utility.yul\":2129:2131   */\n      0x40\n        /* \"#utility.yul\":2122:2144   */\n      mstore\n        /* \"#utility.yul\":1912:2150   */\n      pop\n        /* \"#utility.yul\":1869:2150   */\n      pop\n      pop\n      jump\t// out\n        /* \"#utility.yul\":2156:2285   */\n    tag_83:\n        /* \"#utility.yul\":2190:2196   */\n      0x00\n        /* \"#utility.yul\":2217:2237   */\n      tag_148\n      tag_71\n      jump\t// in\n    tag_148:\n        /* \"#utility.yul\":2207:2237   */\n      swap1\n      pop\n        /* \"#utility.yul\":2246:2279   */\n      tag_149\n        /* \"#utility.yul\":2274:2278   */\n      dup3\n        /* \"#utility.yul\":2266:2272   */\n      dup3\n        /* \"#utility.yul\":2246:2279   */\n      tag_82\n      jump\t// in\n    tag_149:\n        /* \"#utility.yul\":2156:2285   */\n      swap2\n      swap1\n      pop\n      jump\t// out\n        /* \"#utility.yul\":2291:2408   */\n    tag_84:\n        /* \"#utility.yul\":2400:2401   */\n      0x00\n        /* \"#utility.yul\":2397:2398   */\n      dup1\n        /* \"#utility.yul\":2390:2402   */\n      revert\n        /* \"#utility.yul\":2414:2540   */\n    tag_85:\n        /* \"#utility.yul\":2451:2458   */\n      0x00\n        /* \"#utility.yul\":2491:2533   */\n      0xffffffffffffffffffffffffffffffffffffffff\n        /* \"#utility.yul\":2484:2489   */\n      dup3\n        /* \"#utility.yul\":2480:2534   */\n      and\n        /* \"#utility.yul\":2469:2534   */\n      swap1\n      pop\n        /* \"#utility.yul\":2414:2540   */\n      swap2\n      swap1\n      pop\n      jump\t// out\n        /* \"#utility.yul\":2546:2642   */\n    tag_86:\n        /* \"#utility.yul\":2583:2590   */\n      0x00\n        /* \"#utility.yul\":2612:2636   */\n      tag_153\n        /* \"#utility.yul\":2630:2635   */\n      dup3\n        /* \"#utility.yul\":2612:2636   */\n      tag_85\n      jump\t// in\n    tag_153:\n        /* \"#utility.yul\":2601:2636   */\n      swap1\n      pop\n        /* \"#utility.yul\":2546:2642   */\n      swap2\n      swap1\n      pop\n      jump\t// out\n        /* \"#utility.yul\":2648:2770   */\n    tag_87:\n        /* \"#utility.yul\":2721:2745   */\n      tag_155\n        /* \"#utility.yul\":2739:2744   */\n      dup2\n        /* \"#utility.yul\":2721:2745   */\n      tag_86\n      jump\t// in\n    tag_155:\n        /* \"#utility.yul\":2714:2719   */\n      dup2\n        /* \"#utility.yul\":2711:2746   */\n      eq\n        /* \"#utility.yul\":2701:2764   */\n      tag_156\n      jumpi\n        /* \"#utility.yul\":2760:2761   */\n      0x00\n        /* \"#utility.yul\":2757:2758   */\n      dup1\n        /* \"#utility.yul\":2750:2762   */\n      revert\n        /* \"#utility.yul\":2701:2764   */\n    tag_156:\n        /* \"#utility.yul\":2648:2770   */\n      pop\n      jump\t// out\n        /* \"#utility.yul\":2776:2915   */\n    tag_88:\n        /* \"#utility.yul\":2822:2827   */\n      0x00\n        /* \"#utility.yul\":2860:2866   */\n      dup2\n        /* \"#utility.yul\":2847:2867   */\n      calldataload\n        /* \"#utility.yul\":2838:2867   */\n      swap1\n      pop\n        /* \"#utility.yul\":2876:2909   */\n      tag_158\n        /* \"#utility.yul\":2903:2908   */\n      dup2\n        /* \"#utility.yul\":2876:2909   */\n      tag_87\n      jump\t// in\n    tag_158:\n        /* \"#utility.yul\":2776:2915   */\n      swap3\n      swap2\n      pop\n      pop\n      jump\t// out\n        /* \"#utility.yul\":2921:2998   */\n    tag_89:\n        /* \"#utility.yul\":2958:2965   */\n      0x00\n        /* \"#utility.yul\":2987:2992   */\n      dup2\n        /* \"#utility.yul\":2976:2992   */\n      swap1\n      pop\n        /* \"#utility.yul\":2921:2998   */\n      swap2\n      swap1\n      pop\n      jump\t// out\n        /* \"#utility.yul\":3004:3126   */\n    tag_90:\n        /* \"#utility.yul\":3077:3101   */\n      tag_161\n        /* \"#utility.yul\":3095:3100   */\n      dup2\n        /* \"#utility.yul\":3077:3101   */\n      tag_89\n      jump\t// in\n    tag_161:\n        /* \"#utility.yul\":3070:3075   */\n      dup2\n        /* \"#utility.yul\":3067:3102   */\n      eq\n        /* \"#utility.yul\":3057:3120   */\n      tag_162\n      jumpi\n        /* \"#utility.yul\":3116:3117   */\n      0x00\n        /* \"#utility.yul\":3113:3114   */\n      dup1\n        /* \"#utility.yul\":3106:3118   */\n      revert\n        /* \"#utility.yul\":3057:3120   */\n    tag_162:\n        /* \"#utility.yul\":3004:3126   */\n      pop\n      jump\t// out\n        /* \"#utility.yul\":3132:3271   */\n    tag_91:\n        /* \"#utility.yul\":3178:3183   */\n      0x00\n        /* \"#utility.yul\":3216:3222   */\n      dup2\n        /* \"#utility.yul\":3203:3223   */\n      calldataload\n        /* \"#utility.yul\":3194:3223   */\n      swap1\n      pop\n        /* \"#utility.yul\":3232:3265   */\n      tag_164\n        /* \"#utility.yul\":3259:3264   */\n      dup2\n        /* \"#utility.yul\":3232:3265   */\n      tag_90\n      jump\t// in\n    tag_164:\n        /* \"#utility.yul\":3132:3271   */\n      swap3\n      swap2\n      pop\n      pop\n      jump\t// out\n        /* \"#utility.yul\":3277:3394   */\n    tag_92:\n        /* \"#utility.yul\":3386:3387   */\n      0x00\n        /* \"#utility.yul\":3383:3384   */\n      dup1\n        /* \"#utility.yul\":3376:3388   */\n      revert\n        /* \"#utility.yul\":3400:3517   */\n    tag_93:\n        /* \"#utility.yul\":3509:3510   */\n      0x00\n        /* \"#utility.yul\":3506:3507   */\n      dup1\n        /* \"#utility.yul\":3499:3511   */\n      revert\n        /* \"#utility.yul\":3523:3830   */\n    tag_94:\n        /* \"#utility.yul\":3584:3588   */\n      0x00\n        /* \"#utility.yul\":3674:3692   */\n      0xffffffffffffffff\n        /* \"#utility.yul\":3666:3672   */\n      dup3\n        /* \"#utility.yul\":3663:3693   */\n      gt\n        /* \"#utility.yul\":3660:3716   */\n      iszero\n      tag_168\n      jumpi\n        /* \"#utility.yul\":3696:3714   */\n      tag_169\n      tag_81\n      jump\t// in\n    tag_169:\n        /* \"#utility.yul\":3660:3716   */\n    tag_168:\n        /* \"#utility.yul\":3734:3763   */\n      tag_170\n        /* \"#utility.yul\":3756:3762   */\n      dup3\n        /* \"#utility.yul\":3734:3763   */\n      tag_80\n      jump\t// in\n    tag_170:\n        /* \"#utility.yul\":3726:3763   */\n      swap1\n      pop\n        /* \"#utility.yul\":3818:3822   */\n      0x20\n        /* \"#utility.yul\":3812:3816   */\n      dup2\n        /* \"#utility.yul\":3808:3823   */\n      add\n        /* \"#utility.yul\":3800:3823   */\n      swap1\n      pop\n        /* \"#utility.yul\":3523:3830   */\n      swap2\n      swap1\n      pop\n      jump\t// out\n        /* \"#utility.yul\":3836:3982   */\n    tag_95:\n        /* \"#utility.yul\":3933:3939   */\n      dup3\n        /* \"#utility.yul\":3928:3931   */\n      dup2\n        /* \"#utility.yul\":3923:3926   */\n      dup4\n        /* \"#utility.yul\":3910:3940   */\n      calldatacopy\n        /* \"#utility.yul\":3974:3975   */\n      0x00\n        /* \"#utility.yul\":3965:3971   */\n      dup4\n        /* \"#utility.yul\":3960:3963   */\n      dup4\n        /* \"#utility.yul\":3956:3972   */\n      add\n        /* \"#utility.yul\":3949:3976   */\n      mstore\n        /* \"#utility.yul\":3836:3982   */\n      pop\n      pop\n      pop\n      jump\t// out\n        /* \"#utility.yul\":3988:4411   */\n    tag_96:\n        /* \"#utility.yul\":4065:4070   */\n      0x00\n        /* \"#utility.yul\":4090:4155   */\n      tag_173\n        /* \"#utility.yul\":4106:4154   */\n      tag_174\n        /* \"#utility.yul\":4147:4153   */\n      dup5\n        /* \"#utility.yul\":4106:4154   */\n      tag_94\n      jump\t// in\n    tag_174:\n        /* \"#utility.yul\":4090:4155   */\n      tag_83\n      jump\t// in\n    tag_173:\n        /* \"#utility.yul\":4081:4155   */\n      swap1\n      pop\n        /* \"#utility.yul\":4178:4184   */\n      dup3\n        /* \"#utility.yul\":4171:4176   */\n      dup2\n        /* \"#utility.yul\":4164:4185   */\n      mstore\n        /* \"#utility.yul\":4216:4220   */\n      0x20\n        /* \"#utility.yul\":4209:4214   */\n      dup2\n        /* \"#utility.yul\":4205:4221   */\n      add\n        /* \"#utility.yul\":4254:4257   */\n      dup5\n        /* \"#utility.yul\":4245:4251   */\n      dup5\n        /* \"#utility.yul\":4240:4243   */\n      dup5\n        /* \"#utility.yul\":4236:4252   */\n      add\n        /* \"#utility.yul\":4233:4258   */\n      gt\n        /* \"#utility.yul\":4230:4342   */\n      iszero\n      tag_175\n      jumpi\n        /* \"#utility.yul\":4261:4340   */\n      tag_176\n      tag_93\n      jump\t// in\n    tag_176:\n        /* \"#utility.yul\":4230:4342   */\n    tag_175:\n        /* \"#utility.yul\":4351:4405   */\n      tag_177\n        /* \"#utility.yul\":4398:4404   */\n      dup5\n        /* \"#utility.yul\":4393:4396   */\n      dup3\n        /* \"#utility.yul\":4388:4391   */\n      dup6\n        /* \"#utility.yul\":4351:4405   */\n      tag_95\n      jump\t// in\n    tag_177:\n        /* \"#utility.yul\":4071:4411   */\n      pop\n        /* \"#utility.yul\":3988:4411   */\n      swap4\n      swap3\n      pop\n      pop\n      pop\n      jump\t// out\n        /* \"#utility.yul\":4430:4768   */\n    tag_97:\n        /* \"#utility.yul\":4485:4490   */\n      0x00\n        /* \"#utility.yul\":4534:4537   */\n      dup3\n        /* \"#utility.yul\":4527:4531   */\n      0x1f\n        /* \"#utility.yul\":4519:4525   */\n      dup4\n        /* \"#utility.yul\":4515:4532   */\n      add\n        /* \"#utility.yul\":4511:4538   */\n      slt\n        /* \"#utility.yul\":4501:4623   */\n      tag_179\n      jumpi\n        /* \"#utility.yul\":4542:4621   */\n      tag_180\n      tag_92\n      jump\t// in\n    tag_180:\n        /* \"#utility.yul\":4501:4623   */\n    tag_179:\n        /* \"#utility.yul\":4659:4665   */\n      dup2\n        /* \"#utility.yul\":4646:4666   */\n      calldataload\n        /* \"#utility.yul\":4684:4762   */\n      tag_181\n        /* \"#utility.yul\":4758:4761   */\n      dup5\n        /* \"#utility.yul\":4750:4756   */\n      dup3\n        /* \"#utility.yul\":4743:4747   */\n      0x20\n        /* \"#utility.yul\":4735:4741   */\n      dup7\n        /* \"#utility.yul\":4731:4748   */\n      add\n        /* \"#utility.yul\":4684:4762   */\n      tag_96\n      jump\t// in\n    tag_181:\n        /* \"#utility.yul\":4675:4762   */\n      swap2\n      pop\n        /* \"#utility.yul\":4491:4768   */\n      pop\n        /* \"#utility.yul\":4430:4768   */\n      swap3\n      swap2\n      pop\n      pop\n      jump\t// out\n        /* \"#utility.yul\":4810:6391   */\n    tag_98:\n        /* \"#utility.yul\":4886:4891   */\n      0x00\n        /* \"#utility.yul\":4930:4934   */\n      0xe0\n        /* \"#utility.yul\":4918:4927   */\n      dup3\n        /* \"#utility.yul\":4913:4916   */\n      dup5\n        /* \"#utility.yul\":4909:4928   */\n      sub\n        /* \"#utility.yul\":4905:4935   */\n      slt\n        /* \"#utility.yul\":4902:5019   */\n      iszero\n      tag_183\n      jumpi\n        /* \"#utility.yul\":4938:5017   */\n      tag_184\n      tag_79\n      jump\t// in\n    tag_184:\n        /* \"#utility.yul\":4902:5019   */\n    tag_183:\n        /* \"#utility.yul\":5037:5058   */\n      tag_185\n        /* \"#utility.yul\":5053:5057   */\n      0xe0\n        /* \"#utility.yul\":5037:5058   */\n      tag_83\n      jump\t// in\n    tag_185:\n        /* \"#utility.yul\":5028:5058   */\n      swap1\n      pop\n        /* \"#utility.yul\":5119:5120   */\n      0x00\n        /* \"#utility.yul\":5159:5208   */\n      tag_186\n        /* \"#utility.yul\":5204:5207   */\n      dup5\n        /* \"#utility.yul\":5195:5201   */\n      dup3\n        /* \"#utility.yul\":5184:5193   */\n      dup6\n        /* \"#utility.yul\":5180:5202   */\n      add\n        /* \"#utility.yul\":5159:5208   */\n      tag_88\n      jump\t// in\n    tag_186:\n        /* \"#utility.yul\":5152:5156   */\n      0x00\n        /* \"#utility.yul\":5145:5150   */\n      dup4\n        /* \"#utility.yul\":5141:5157   */\n      add\n        /* \"#utility.yul\":5134:5209   */\n      mstore\n        /* \"#utility.yul\":5068:5220   */\n      pop\n        /* \"#utility.yul\":5285:5287   */\n      0x20\n        /* \"#utility.yul\":5326:5375   */\n      tag_187\n        /* \"#utility.yul\":5371:5374   */\n      dup5\n        /* \"#utility.yul\":5362:5368   */\n      dup3\n        /* \"#utility.yul\":5351:5360   */\n      dup6\n        /* \"#utility.yul\":5347:5369   */\n      add\n        /* \"#utility.yul\":5326:5375   */\n      tag_88\n      jump\t// in\n    tag_187:\n        /* \"#utility.yul\":5319:5323   */\n      0x20\n        /* \"#utility.yul\":5312:5317   */\n      dup4\n        /* \"#utility.yul\":5308:5324   */\n      add\n        /* \"#utility.yul\":5301:5376   */\n      mstore\n        /* \"#utility.yul\":5230:5387   */\n      pop\n        /* \"#utility.yul\":5449:5451   */\n      0x40\n        /* \"#utility.yul\":5490:5539   */\n      tag_188\n        /* \"#utility.yul\":5535:5538   */\n      dup5\n        /* \"#utility.yul\":5526:5532   */\n      dup3\n        /* \"#utility.yul\":5515:5524   */\n      dup6\n        /* \"#utility.yul\":5511:5533   */\n      add\n        /* \"#utility.yul\":5490:5539   */\n      tag_91\n      jump\t// in\n    tag_188:\n        /* \"#utility.yul\":5483:5487   */\n      0x40\n        /* \"#utility.yul\":5476:5481   */\n      dup4\n        /* \"#utility.yul\":5472:5488   */\n      add\n        /* \"#utility.yul\":5465:5540   */\n      mstore\n        /* \"#utility.yul\":5397:5551   */\n      pop\n        /* \"#utility.yul\":5611:5613   */\n      0x60\n        /* \"#utility.yul\":5652:5701   */\n      tag_189\n        /* \"#utility.yul\":5697:5700   */\n      dup5\n        /* \"#utility.yul\":5688:5694   */\n      dup3\n        /* \"#utility.yul\":5677:5686   */\n      dup6\n        /* \"#utility.yul\":5673:5695   */\n      add\n        /* \"#utility.yul\":5652:5701   */\n      tag_91\n      jump\t// in\n    tag_189:\n        /* \"#utility.yul\":5645:5649   */\n      0x60\n        /* \"#utility.yul\":5638:5643   */\n      dup4\n        /* \"#utility.yul\":5634:5650   */\n      add\n        /* \"#utility.yul\":5627:5702   */\n      mstore\n        /* \"#utility.yul\":5561:5713   */\n      pop\n        /* \"#utility.yul\":5805:5808   */\n      0x80\n        /* \"#utility.yul\":5794:5803   */\n      dup3\n        /* \"#utility.yul\":5790:5809   */\n      add\n        /* \"#utility.yul\":5777:5810   */\n      calldataload\n        /* \"#utility.yul\":5837:5855   */\n      0xffffffffffffffff\n        /* \"#utility.yul\":5829:5835   */\n      dup2\n        /* \"#utility.yul\":5826:5856   */\n      gt\n        /* \"#utility.yul\":5823:5940   */\n      iszero\n      tag_190\n      jumpi\n        /* \"#utility.yul\":5859:5938   */\n      tag_191\n      tag_84\n      jump\t// in\n    tag_191:\n        /* \"#utility.yul\":5823:5940   */\n    tag_190:\n        /* \"#utility.yul\":5979:6037   */\n      tag_192\n        /* \"#utility.yul\":6033:6036   */\n      dup5\n        /* \"#utility.yul\":6024:6030   */\n      dup3\n        /* \"#utility.yul\":6013:6022   */\n      dup6\n        /* \"#utility.yul\":6009:6031   */\n      add\n        /* \"#utility.yul\":5979:6037   */\n      tag_97\n      jump\t// in\n    tag_192:\n        /* \"#utility.yul\":5972:5976   */\n      0x80\n        /* \"#utility.yul\":5965:5970   */\n      dup4\n        /* \"#utility.yul\":5961:5977   */\n      add\n        /* \"#utility.yul\":5954:6038   */\n      mstore\n        /* \"#utility.yul\":5723:6049   */\n      pop\n        /* \"#utility.yul\":6118:6121   */\n      0xa0\n        /* \"#utility.yul\":6160:6209   */\n      tag_193\n        /* \"#utility.yul\":6205:6208   */\n      dup5\n        /* \"#utility.yul\":6196:6202   */\n      dup3\n        /* \"#utility.yul\":6185:6194   */\n      dup6\n        /* \"#utility.yul\":6181:6203   */\n      add\n        /* \"#utility.yul\":6160:6209   */\n      tag_91\n      jump\t// in\n    tag_193:\n        /* \"#utility.yul\":6153:6157   */\n      0xa0\n        /* \"#utility.yul\":6146:6151   */\n      dup4\n        /* \"#utility.yul\":6142:6158   */\n      add\n        /* \"#utility.yul\":6135:6210   */\n      mstore\n        /* \"#utility.yul\":6059:6221   */\n      pop\n        /* \"#utility.yul\":6281:6284   */\n      0xc0\n        /* \"#utility.yul\":6323:6372   */\n      tag_194\n        /* \"#utility.yul\":6368:6371   */\n      dup5\n        /* \"#utility.yul\":6359:6365   */\n      dup3\n        /* \"#utility.yul\":6348:6357   */\n      dup6\n        /* \"#utility.yul\":6344:6366   */\n      add\n        /* \"#utility.yul\":6323:6372   */\n      tag_91\n      jump\t// in\n    tag_194:\n        /* \"#utility.yul\":6316:6320   */\n      0xc0\n        /* \"#utility.yul\":6309:6314   */\n      dup4\n        /* \"#utility.yul\":6305:6321   */\n      add\n        /* \"#utility.yul\":6298:6373   */\n      mstore\n        /* \"#utility.yul\":6231:6384   */\n      pop\n        /* \"#utility.yul\":4810:6391   */\n      swap3\n      swap2\n      pop\n      pop\n      jump\t// out\n        /* \"#utility.yul\":6397:6940   */\n    tag_16:\n        /* \"#utility.yul\":6483:6489   */\n      0x00\n        /* \"#utility.yul\":6532:6534   */\n      0x20\n        /* \"#utility.yul\":6520:6529   */\n      dup3\n        /* \"#utility.yul\":6511:6518   */\n      dup5\n        /* \"#utility.yul\":6507:6530   */\n      sub\n        /* \"#utility.yul\":6503:6535   */\n      slt\n        /* \"#utility.yul\":6500:6619   */\n      iszero\n      tag_196\n      jumpi\n        /* \"#utility.yul\":6538:6617   */\n      tag_197\n      tag_72\n      jump\t// in\n    tag_197:\n        /* \"#utility.yul\":6500:6619   */\n    tag_196:\n        /* \"#utility.yul\":6686:6687   */\n      0x00\n        /* \"#utility.yul\":6675:6684   */\n      dup3\n        /* \"#utility.yul\":6671:6688   */\n      add\n        /* \"#utility.yul\":6658:6689   */\n      calldataload\n        /* \"#utility.yul\":6716:6734   */\n      0xffffffffffffffff\n        /* \"#utility.yul\":6708:6714   */\n      dup2\n        /* \"#utility.yul\":6705:6735   */\n      gt\n        /* \"#utility.yul\":6702:6819   */\n      iszero\n      tag_198\n      jumpi\n        /* \"#utility.yul\":6738:6817   */\n      tag_199\n      tag_73\n      jump\t// in\n    tag_199:\n        /* \"#utility.yul\":6702:6819   */\n    tag_198:\n        /* \"#utility.yul\":6843:6923   */\n      tag_200\n        /* \"#utility.yul\":6915:6922   */\n      dup5\n        /* \"#utility.yul\":6906:6912   */\n      dup3\n        /* \"#utility.yul\":6895:6904   */\n      dup6\n        /* \"#utility.yul\":6891:6913   */\n      add\n        /* \"#utility.yul\":6843:6923   */\n      tag_98\n      jump\t// in\n    tag_200:\n        /* \"#utility.yul\":6833:6923   */\n      swap2\n      pop\n        /* \"#utility.yul\":6629:6933   */\n      pop\n        /* \"#utility.yul\":6397:6940   */\n      swap3\n      swap2\n      pop\n      pop\n      jump\t// out\n        /* \"#utility.yul\":6946:7634   */\n    tag_20:\n        /* \"#utility.yul\":7041:7047   */\n      0x00\n        /* \"#utility.yul\":7049:7055   */\n      dup1\n        /* \"#utility.yul\":7098:7100   */\n      0x40\n        /* \"#utility.yul\":7086:7095   */\n      dup4\n        /* \"#utility.yul\":7077:7084   */\n      dup6\n        /* \"#utility.yul\":7073:7096   */\n      sub\n        /* \"#utility.yul\":7069:7101   */\n      slt\n        /* \"#utility.yul\":7066:7185   */\n      iszero\n      tag_202\n      jumpi\n        /* \"#utility.yul\":7104:7183   */\n      tag_203\n      tag_72\n      jump\t// in\n    tag_203:\n        /* \"#utility.yul\":7066:7185   */\n    tag_202:\n        /* \"#utility.yul\":7252:7253   */\n      0x00\n        /* \"#utility.yul\":7241:7250   */\n      dup4\n        /* \"#utility.yul\":7237:7254   */\n      add\n        /* \"#utility.yul\":7224:7255   */\n      calldataload\n        /* \"#utility.yul\":7282:7300   */\n      0xffffffffffffffff\n        /* \"#utility.yul\":7274:7280   */\n      dup2\n        /* \"#utility.yul\":7271:7301   */\n      gt\n        /* \"#utility.yul\":7268:7385   */\n      iszero\n      tag_204\n      jumpi\n        /* \"#utility.yul\":7304:7383   */\n      tag_205\n      tag_73\n      jump\t// in\n    tag_205:\n        /* \"#utility.yul\":7268:7385   */\n    tag_204:\n        /* \"#utility.yul\":7409:7489   */\n      tag_206\n        /* \"#utility.yul\":7481:7488   */\n      dup6\n        /* \"#utility.yul\":7472:7478   */\n      dup3\n        /* \"#utility.yul\":7461:7470   */\n      dup7\n        /* \"#utility.yul\":7457:7479   */\n      add\n        /* \"#utility.yul\":7409:7489   */\n      tag_98\n      jump\t// in\n    tag_206:\n        /* \"#utility.yul\":7399:7489   */\n      swap3\n      pop\n        /* \"#utility.yul\":7195:7499   */\n      pop\n        /* \"#utility.yul\":7538:7540   */\n      0x20\n        /* \"#utility.yul\":7564:7617   */\n      tag_207\n        /* \"#utility.yul\":7609:7616   */\n      dup6\n        /* \"#utility.yul\":7600:7606   */\n      dup3\n        /* \"#utility.yul\":7589:7598   */\n      dup7\n        /* \"#utility.yul\":7585:7607   */\n      add\n        /* \"#utility.yul\":7564:7617   */\n      tag_88\n      jump\t// in\n    tag_207:\n        /* \"#utility.yul\":7554:7617   */\n      swap2\n      pop\n        /* \"#utility.yul\":7509:7627   */\n      pop\n        /* \"#utility.yul\":6946:7634   */\n      swap3\n      pop\n      swap3\n      swap1\n      pop\n      jump\t// out\n        /* \"#utility.yul\":7640:7809   */\n    tag_99:\n        /* \"#utility.yul\":7724:7735   */\n      0x00\n        /* \"#utility.yul\":7758:7764   */\n      dup3\n        /* \"#utility.yul\":7753:7756   */\n      dup3\n        /* \"#utility.yul\":7746:7765   */\n      mstore\n        /* \"#utility.yul\":7798:7802   */\n      0x20\n        /* \"#utility.yul\":7793:7796   */\n      dup3\n        /* \"#utility.yul\":7789:7803   */\n      add\n        /* \"#utility.yul\":7774:7803   */\n      swap1\n      pop\n        /* \"#utility.yul\":7640:7809   */\n      swap3\n      swap2\n      pop\n      pop\n      jump\t// out\n        /* \"#utility.yul\":7815:7982   */\n    tag_100:\n        /* \"#utility.yul\":7955:7974   */\n      0x496e76616c6964207369676e6174757265000000000000000000000000000000\n        /* \"#utility.yul\":7951:7952   */\n      0x00\n        /* \"#utility.yul\":7943:7949   */\n      dup3\n        /* \"#utility.yul\":7939:7953   */\n      add\n        /* \"#utility.yul\":7932:7975   */\n      mstore\n        /* \"#utility.yul\":7815:7982   */\n      pop\n      jump\t// out\n        /* \"#utility.yul\":7988:8354   */\n    tag_101:\n        /* \"#utility.yul\":8130:8133   */\n      0x00\n        /* \"#utility.yul\":8151:8218   */\n      tag_211\n        /* \"#utility.yul\":8215:8217   */\n      0x11\n        /* \"#utility.yul\":8210:8213   */\n      dup4\n        /* \"#utility.yul\":8151:8218   */\n      tag_99\n      jump\t// in\n    tag_211:\n        /* \"#utility.yul\":8144:8218   */\n      swap2\n      pop\n        /* \"#utility.yul\":8227:8320   */\n      tag_212\n        /* \"#utility.yul\":8316:8319   */\n      dup3\n        /* \"#utility.yul\":8227:8320   */\n      tag_100\n      jump\t// in\n    tag_212:\n        /* \"#utility.yul\":8345:8347   */\n      0x20\n        /* \"#utility.yul\":8340:8343   */\n      dup3\n        /* \"#utility.yul\":8336:8348   */\n      add\n        /* \"#utility.yul\":8329:8348   */\n      swap1\n      pop\n        /* \"#utility.yul\":7988:8354   */\n      swap2\n      swap1\n      pop\n      jump\t// out\n        /* \"#utility.yul\":8360:8779   */\n    tag_32:\n        /* \"#utility.yul\":8526:8530   */\n      0x00\n        /* \"#utility.yul\":8564:8566   */\n      0x20\n        /* \"#utility.yul\":8553:8562   */\n      dup3\n        /* \"#utility.yul\":8549:8567   */\n      add\n        /* \"#utility.yul\":8541:8567   */\n      swap1\n      pop\n        /* \"#utility.yul\":8613:8622   */\n      dup2\n        /* \"#utility.yul\":8607:8611   */\n      dup2\n        /* \"#utility.yul\":8603:8623   */\n      sub\n        /* \"#utility.yul\":8599:8600   */\n      0x00\n        /* \"#utility.yul\":8588:8597   */\n      dup4\n        /* \"#utility.yul\":8584:8601   */\n      add\n        /* \"#utility.yul\":8577:8624   */\n      mstore\n        /* \"#utility.yul\":8641:8772   */\n      tag_214\n        /* \"#utility.yul\":8767:8771   */\n      dup2\n        /* \"#utility.yul\":8641:8772   */\n      tag_101\n      jump\t// in\n    tag_214:\n        /* \"#utility.yul\":8633:8772   */\n      swap1\n      pop\n        /* \"#utility.yul\":8360:8779   */\n      swap2\n      swap1\n      pop\n      jump\t// out\n        /* \"#utility.yul\":8785:8879   */\n    tag_102:\n        /* \"#utility.yul\":8818:8826   */\n      0x00\n        /* \"#utility.yul\":8866:8871   */\n      dup2\n        /* \"#utility.yul\":8862:8864   */\n      0x60\n        /* \"#utility.yul\":8858:8872   */\n      shl\n        /* \"#utility.yul\":8837:8872   */\n      swap1\n      pop\n        /* \"#utility.yul\":8785:8879   */\n      swap2\n      swap1\n      pop\n      jump\t// out\n        /* \"#utility.yul\":8885:8979   */\n    tag_103:\n        /* \"#utility.yul\":8924:8931   */\n      0x00\n        /* \"#utility.yul\":8953:8973   */\n      tag_217\n        /* \"#utility.yul\":8967:8972   */\n      dup3\n        /* \"#utility.yul\":8953:8973   */\n      tag_102\n      jump\t// in\n    tag_217:\n        /* \"#utility.yul\":8942:8973   */\n      swap1\n      pop\n        /* \"#utility.yul\":8885:8979   */\n      swap2\n      swap1\n      pop\n      jump\t// out\n        /* \"#utility.yul\":8985:9085   */\n    tag_104:\n        /* \"#utility.yul\":9024:9031   */\n      0x00\n        /* \"#utility.yul\":9053:9079   */\n      tag_219\n        /* \"#utility.yul\":9073:9078   */\n      dup3\n        /* \"#utility.yul\":9053:9079   */\n      tag_103\n      jump\t// in\n    tag_219:\n        /* \"#utility.yul\":9042:9079   */\n      swap1\n      pop\n        /* \"#utility.yul\":8985:9085   */\n      swap2\n      swap1\n      pop\n      jump\t// out\n        /* \"#utility.yul\":9091:9248   */\n    tag_105:\n        /* \"#utility.yul\":9196:9241   */\n      tag_221\n        /* \"#utility.yul\":9216:9240   */\n      tag_222\n        /* \"#utility.yul\":9234:9239   */\n      dup3\n        /* \"#utility.yul\":9216:9240   */\n      tag_86\n      jump\t// in\n    tag_222:\n        /* \"#utility.yul\":9196:9241   */\n      tag_104\n      jump\t// in\n    tag_221:\n        /* \"#utility.yul\":9191:9194   */\n      dup3\n        /* \"#utility.yul\":9184:9242   */\n      mstore\n        /* \"#utility.yul\":9091:9248   */\n      pop\n      pop\n      jump\t// out\n        /* \"#utility.yul\":9254:9333   */\n    tag_106:\n        /* \"#utility.yul\":9293:9300   */\n      0x00\n        /* \"#utility.yul\":9322:9327   */\n      dup2\n        /* \"#utility.yul\":9311:9327   */\n      swap1\n      pop\n        /* \"#utility.yul\":9254:9333   */\n      swap2\n      swap1\n      pop\n      jump\t// out\n        /* \"#utility.yul\":9339:9496   */\n    tag_107:\n        /* \"#utility.yul\":9444:9489   */\n      tag_225\n        /* \"#utility.yul\":9464:9488   */\n      tag_226\n        /* \"#utility.yul\":9482:9487   */\n      dup3\n        /* \"#utility.yul\":9464:9488   */\n      tag_89\n      jump\t// in\n    tag_226:\n        /* \"#utility.yul\":9444:9489   */\n      tag_106\n      jump\t// in\n    tag_225:\n        /* \"#utility.yul\":9439:9442   */\n      dup3\n        /* \"#utility.yul\":9432:9490   */\n      mstore\n        /* \"#utility.yul\":9339:9496   */\n      pop\n      pop\n      jump\t// out\n        /* \"#utility.yul\":9502:10463   */\n    tag_34:\n        /* \"#utility.yul\":9754:9757   */\n      0x00\n        /* \"#utility.yul\":9769:9844   */\n      tag_228\n        /* \"#utility.yul\":9840:9843   */\n      dup3\n        /* \"#utility.yul\":9831:9837   */\n      dup10\n        /* \"#utility.yul\":9769:9844   */\n      tag_105\n      jump\t// in\n    tag_228:\n        /* \"#utility.yul\":9869:9871   */\n      0x14\n        /* \"#utility.yul\":9864:9867   */\n      dup3\n        /* \"#utility.yul\":9860:9872   */\n      add\n        /* \"#utility.yul\":9853:9872   */\n      swap2\n      pop\n        /* \"#utility.yul\":9882:9957   */\n      tag_229\n        /* \"#utility.yul\":9953:9956   */\n      dup3\n        /* \"#utility.yul\":9944:9950   */\n      dup9\n        /* \"#utility.yul\":9882:9957   */\n      tag_105\n      jump\t// in\n    tag_229:\n        /* \"#utility.yul\":9982:9984   */\n      0x14\n        /* \"#utility.yul\":9977:9980   */\n      dup3\n        /* \"#utility.yul\":9973:9985   */\n      add\n        /* \"#utility.yul\":9966:9985   */\n      swap2\n      pop\n        /* \"#utility.yul\":9995:10070   */\n      tag_230\n        /* \"#utility.yul\":10066:10069   */\n      dup3\n        /* \"#utility.yul\":10057:10063   */\n      dup8\n        /* \"#utility.yul\":9995:10070   */\n      tag_107\n      jump\t// in\n    tag_230:\n        /* \"#utility.yul\":10095:10097   */\n      0x20\n        /* \"#utility.yul\":10090:10093   */\n      dup3\n        /* \"#utility.yul\":10086:10098   */\n      add\n        /* \"#utility.yul\":10079:10098   */\n      swap2\n      pop\n        /* \"#utility.yul\":10108:10183   */\n      tag_231\n        /* \"#utility.yul\":10179:10182   */\n      dup3\n        /* \"#utility.yul\":10170:10176   */\n      dup7\n        /* \"#utility.yul\":10108:10183   */\n      tag_107\n      jump\t// in\n    tag_231:\n        /* \"#utility.yul\":10208:10210   */\n      0x20\n        /* \"#utility.yul\":10203:10206   */\n      dup3\n        /* \"#utility.yul\":10199:10211   */\n      add\n        /* \"#utility.yul\":10192:10211   */\n      swap2\n      pop\n        /* \"#utility.yul\":10221:10296   */\n      tag_232\n        /* \"#utility.yul\":10292:10295   */\n      dup3\n        /* \"#utility.yul\":10283:10289   */\n      dup6\n        /* \"#utility.yul\":10221:10296   */\n      tag_107\n      jump\t// in\n    tag_232:\n        /* \"#utility.yul\":10321:10323   */\n      0x20\n        /* \"#utility.yul\":10316:10319   */\n      dup3\n        /* \"#utility.yul\":10312:10324   */\n      add\n        /* \"#utility.yul\":10305:10324   */\n      swap2\n      pop\n        /* \"#utility.yul\":10334:10409   */\n      tag_233\n        /* \"#utility.yul\":10405:10408   */\n      dup3\n        /* \"#utility.yul\":10396:10402   */\n      dup5\n        /* \"#utility.yul\":10334:10409   */\n      tag_107\n      jump\t// in\n    tag_233:\n        /* \"#utility.yul\":10434:10436   */\n      0x20\n        /* \"#utility.yul\":10429:10432   */\n      dup3\n        /* \"#utility.yul\":10425:10437   */\n      add\n        /* \"#utility.yul\":10418:10437   */\n      swap2\n      pop\n        /* \"#utility.yul\":10454:10457   */\n      dup2\n        /* \"#utility.yul\":10447:10457   */\n      swap1\n      pop\n        /* \"#utility.yul\":9502:10463   */\n      swap8\n      swap7\n      pop\n      pop\n      pop\n      pop\n      pop\n      pop\n      pop\n      jump\t// out\n        /* \"#utility.yul\":10469:10638   */\n    tag_108:\n        /* \"#utility.yul\":10609:10630   */\n      0x4f7264657220686173206265656e207573656400000000000000000000000000\n        /* \"#utility.yul\":10605:10606   */\n      0x00\n        /* \"#utility.yul\":10597:10603   */\n      dup3\n        /* \"#utility.yul\":10593:10607   */\n      add\n        /* \"#utility.yul\":10586:10631   */\n      mstore\n        /* \"#utility.yul\":10469:10638   */\n      pop\n      jump\t// out\n        /* \"#utility.yul\":10644:11010   */\n    tag_109:\n        /* \"#utility.yul\":10786:10789   */\n      0x00\n        /* \"#utility.yul\":10807:10874   */\n      tag_236\n        /* \"#utility.yul\":10871:10873   */\n      0x13\n        /* \"#utility.yul\":10866:10869   */\n      dup4\n        /* \"#utility.yul\":10807:10874   */\n      tag_99\n      jump\t// in\n    tag_236:\n        /* \"#utility.yul\":10800:10874   */\n      swap2\n      pop\n        /* \"#utility.yul\":10883:10976   */\n      tag_237\n        /* \"#utility.yul\":10972:10975   */\n      dup3\n        /* \"#utility.yul\":10883:10976   */\n      tag_108\n      jump\t// in\n    tag_237:\n        /* \"#utility.yul\":11001:11003   */\n      0x20\n        /* \"#utility.yul\":10996:10999   */\n      dup3\n        /* \"#utility.yul\":10992:11004   */\n      add\n        /* \"#utility.yul\":10985:11004   */\n      swap1\n      pop\n        /* \"#utility.yul\":10644:11010   */\n      swap2\n      swap1\n      pop\n      jump\t// out\n        /* \"#utility.yul\":11016:11435   */\n    tag_41:\n        /* \"#utility.yul\":11182:11186   */\n      0x00\n        /* \"#utility.yul\":11220:11222   */\n      0x20\n        /* \"#utility.yul\":11209:11218   */\n      dup3\n        /* \"#utility.yul\":11205:11223   */\n      add\n        /* \"#utility.yul\":11197:11223   */\n      swap1\n      pop\n        /* \"#utility.yul\":11269:11278   */\n      dup2\n        /* \"#utility.yul\":11263:11267   */\n      dup2\n        /* \"#utility.yul\":11259:11279   */\n      sub\n        /* \"#utility.yul\":11255:11256   */\n      0x00\n        /* \"#utility.yul\":11244:11253   */\n      dup4\n        /* \"#utility.yul\":11240:11257   */\n      add\n        /* \"#utility.yul\":11233:11280   */\n      mstore\n        /* \"#utility.yul\":11297:11428   */\n      tag_239\n        /* \"#utility.yul\":11423:11427   */\n      dup2\n        /* \"#utility.yul\":11297:11428   */\n      tag_109\n      jump\t// in\n    tag_239:\n        /* \"#utility.yul\":11289:11428   */\n      swap1\n      pop\n        /* \"#utility.yul\":11016:11435   */\n      swap2\n      swap1\n      pop\n      jump\t// out\n        /* \"#utility.yul\":11441:11559   */\n    tag_110:\n        /* \"#utility.yul\":11528:11552   */\n      tag_241\n        /* \"#utility.yul\":11546:11551   */\n      dup2\n        /* \"#utility.yul\":11528:11552   */\n      tag_86\n      jump\t// in\n    tag_241:\n        /* \"#utility.yul\":11523:11526   */\n      dup3\n        /* \"#utility.yul\":11516:11553   */\n      mstore\n        /* \"#utility.yul\":11441:11559   */\n      pop\n      pop\n      jump\t// out\n        /* \"#utility.yul\":11565:11683   */\n    tag_111:\n        /* \"#utility.yul\":11652:11676   */\n      tag_243\n        /* \"#utility.yul\":11670:11675   */\n      dup2\n        /* \"#utility.yul\":11652:11676   */\n      tag_89\n      jump\t// in\n    tag_243:\n        /* \"#utility.yul\":11647:11650   */\n      dup3\n        /* \"#utility.yul\":11640:11677   */\n      mstore\n        /* \"#utility.yul\":11565:11683   */\n      pop\n      pop\n      jump\t// out\n        /* \"#utility.yul\":11689:12131   */\n    tag_46:\n        /* \"#utility.yul\":11838:11842   */\n      0x00\n        /* \"#utility.yul\":11876:11878   */\n      0x60\n        /* \"#utility.yul\":11865:11874   */\n      dup3\n        /* \"#utility.yul\":11861:11879   */\n      add\n        /* \"#utility.yul\":11853:11879   */\n      swap1\n      pop\n        /* \"#utility.yul\":11889:11960   */\n      tag_245\n        /* \"#utility.yul\":11957:11958   */\n      0x00\n        /* \"#utility.yul\":11946:11955   */\n      dup4\n        /* \"#utility.yul\":11942:11959   */\n      add\n        /* \"#utility.yul\":11933:11939   */\n      dup7\n        /* \"#utility.yul\":11889:11960   */\n      tag_110\n      jump\t// in\n    tag_245:\n        /* \"#utility.yul\":11970:12042   */\n      tag_246\n        /* \"#utility.yul\":12038:12040   */\n      0x20\n        /* \"#utility.yul\":12027:12036   */\n      dup4\n        /* \"#utility.yul\":12023:12041   */\n      add\n        /* \"#utility.yul\":12014:12020   */\n      dup6\n        /* \"#utility.yul\":11970:12042   */\n      tag_110\n      jump\t// in\n    tag_246:\n        /* \"#utility.yul\":12052:12124   */\n      tag_247\n        /* \"#utility.yul\":12120:12122   */\n      0x40\n        /* \"#utility.yul\":12109:12118   */\n      dup4\n        /* \"#utility.yul\":12105:12123   */\n      add\n        /* \"#utility.yul\":12096:12102   */\n      dup5\n        /* \"#utility.yul\":12052:12124   */\n      tag_111\n      jump\t// in\n    tag_247:\n        /* \"#utility.yul\":11689:12131   */\n      swap5\n      swap4\n      pop\n      pop\n      pop\n      pop\n      jump\t// out\n        /* \"#utility.yul\":12137:12285   */\n    tag_112:\n        /* \"#utility.yul\":12239:12250   */\n      0x00\n        /* \"#utility.yul\":12276:12279   */\n      dup2\n        /* \"#utility.yul\":12261:12279   */\n      swap1\n      pop\n        /* \"#utility.yul\":12137:12285   */\n      swap3\n      swap2\n      pop\n      pop\n      jump\t// out\n        /* \"#utility.yul\":12291:12505   */\n    tag_113:\n        /* \"#utility.yul\":12431:12497   */\n      0x19457468657265756d205369676e6564204d6573736167653a0a333200000000\n        /* \"#utility.yul\":12427:12428   */\n      0x00\n        /* \"#utility.yul\":12419:12425   */\n      dup3\n        /* \"#utility.yul\":12415:12429   */\n      add\n        /* \"#utility.yul\":12408:12498   */\n      mstore\n        /* \"#utility.yul\":12291:12505   */\n      pop\n      jump\t// out\n        /* \"#utility.yul\":12511:12913   */\n    tag_114:\n        /* \"#utility.yul\":12671:12674   */\n      0x00\n        /* \"#utility.yul\":12692:12777   */\n      tag_251\n        /* \"#utility.yul\":12774:12776   */\n      0x1c\n        /* \"#utility.yul\":12769:12772   */\n      dup4\n        /* \"#utility.yul\":12692:12777   */\n      tag_112\n      jump\t// in\n    tag_251:\n        /* \"#utility.yul\":12685:12777   */\n      swap2\n      pop\n        /* \"#utility.yul\":12786:12879   */\n      tag_252\n        /* \"#utility.yul\":12875:12878   */\n      dup3\n        /* \"#utility.yul\":12786:12879   */\n      tag_113\n      jump\t// in\n    tag_252:\n        /* \"#utility.yul\":12904:12906   */\n      0x1c\n        /* \"#utility.yul\":12899:12902   */\n      dup3\n        /* \"#utility.yul\":12895:12907   */\n      add\n        /* \"#utility.yul\":12888:12907   */\n      swap1\n      pop\n        /* \"#utility.yul\":12511:12913   */\n      swap2\n      swap1\n      pop\n      jump\t// out\n        /* \"#utility.yul\":12919:12998   */\n    tag_115:\n        /* \"#utility.yul\":12958:12965   */\n      0x00\n        /* \"#utility.yul\":12987:12992   */\n      dup2\n        /* \"#utility.yul\":12976:12992   */\n      swap1\n      pop\n        /* \"#utility.yul\":12919:12998   */\n      swap2\n      swap1\n      pop\n      jump\t// out\n        /* \"#utility.yul\":13004:13161   */\n    tag_116:\n        /* \"#utility.yul\":13109:13154   */\n      tag_255\n        /* \"#utility.yul\":13129:13153   */\n      tag_256\n        /* \"#utility.yul\":13147:13152   */\n      dup3\n        /* \"#utility.yul\":13129:13153   */\n      tag_74\n      jump\t// in\n    tag_256:\n        /* \"#utility.yul\":13109:13154   */\n      tag_115\n      jump\t// in\n    tag_255:\n        /* \"#utility.yul\":13104:13107   */\n      dup3\n        /* \"#utility.yul\":13097:13155   */\n      mstore\n        /* \"#utility.yul\":13004:13161   */\n      pop\n      pop\n      jump\t// out\n        /* \"#utility.yul\":13167:13689   */\n    tag_59:\n        /* \"#utility.yul\":13380:13383   */\n      0x00\n        /* \"#utility.yul\":13402:13550   */\n      tag_258\n        /* \"#utility.yul\":13546:13549   */\n      dup3\n        /* \"#utility.yul\":13402:13550   */\n      tag_114\n      jump\t// in\n    tag_258:\n        /* \"#utility.yul\":13395:13550   */\n      swap2\n      pop\n        /* \"#utility.yul\":13560:13635   */\n      tag_259\n        /* \"#utility.yul\":13631:13634   */\n      dup3\n        /* \"#utility.yul\":13622:13628   */\n      dup5\n        /* \"#utility.yul\":13560:13635   */\n      tag_116\n      jump\t// in\n    tag_259:\n        /* \"#utility.yul\":13660:13662   */\n      0x20\n        /* \"#utility.yul\":13655:13658   */\n      dup3\n        /* \"#utility.yul\":13651:13663   */\n      add\n        /* \"#utility.yul\":13644:13663   */\n      swap2\n      pop\n        /* \"#utility.yul\":13680:13683   */\n      dup2\n        /* \"#utility.yul\":13673:13683   */\n      swap1\n      pop\n        /* \"#utility.yul\":13167:13689   */\n      swap3\n      swap2\n      pop\n      pop\n      jump\t// out\n        /* \"#utility.yul\":13695:13781   */\n    tag_117:\n        /* \"#utility.yul\":13730:13737   */\n      0x00\n        /* \"#utility.yul\":13770:13774   */\n      0xff\n        /* \"#utility.yul\":13763:13768   */\n      dup3\n        /* \"#utility.yul\":13759:13775   */\n      and\n        /* \"#utility.yul\":13748:13775   */\n      swap1\n      pop\n        /* \"#utility.yul\":13695:13781   */\n      swap2\n      swap1\n      pop\n      jump\t// out\n        /* \"#utility.yul\":13787:13967   */\n    tag_118:\n        /* \"#utility.yul\":13835:13912   */\n      0x4e487b7100000000000000000000000000000000000000000000000000000000\n        /* \"#utility.yul\":13832:13833   */\n      0x00\n        /* \"#utility.yul\":13825:13913   */\n      mstore\n        /* \"#utility.yul\":13932:13936   */\n      0x11\n        /* \"#utility.yul\":13929:13930   */\n      0x04\n        /* \"#utility.yul\":13922:13937   */\n      mstore\n        /* \"#utility.yul\":13956:13960   */\n      0x24\n        /* \"#utility.yul\":13953:13954   */\n      0x00\n        /* \"#utility.yul\":13946:13961   */\n      revert\n        /* \"#utility.yul\":13973:14161   */\n    tag_66:\n        /* \"#utility.yul\":14011:14014   */\n      0x00\n        /* \"#utility.yul\":14030:14048   */\n      tag_263\n        /* \"#utility.yul\":14046:14047   */\n      dup3\n        /* \"#utility.yul\":14030:14048   */\n      tag_117\n      jump\t// in\n    tag_263:\n        /* \"#utility.yul\":14025:14048   */\n      swap2\n      pop\n        /* \"#utility.yul\":14062:14080   */\n      tag_264\n        /* \"#utility.yul\":14078:14079   */\n      dup4\n        /* \"#utility.yul\":14062:14080   */\n      tag_117\n      jump\t// in\n    tag_264:\n        /* \"#utility.yul\":14057:14080   */\n      swap3\n      pop\n        /* \"#utility.yul\":14103:14104   */\n      dup3\n        /* \"#utility.yul\":14100:14101   */\n      dup3\n        /* \"#utility.yul\":14096:14105   */\n      add\n        /* \"#utility.yul\":14089:14105   */\n      swap1\n      pop\n        /* \"#utility.yul\":14126:14130   */\n      0xff\n        /* \"#utility.yul\":14121:14124   */\n      dup2\n        /* \"#utility.yul\":14118:14131   */\n      gt\n        /* \"#utility.yul\":14115:14154   */\n      iszero\n      tag_265\n      jumpi\n        /* \"#utility.yul\":14134:14152   */\n      tag_266\n      tag_118\n      jump\t// in\n    tag_266:\n        /* \"#utility.yul\":14115:14154   */\n    tag_265:\n        /* \"#utility.yul\":13973:14161   */\n      swap3\n      swap2\n      pop\n      pop\n      jump\t// out\n        /* \"#utility.yul\":14167:14285   */\n    tag_119:\n        /* \"#utility.yul\":14254:14278   */\n      tag_268\n        /* \"#utility.yul\":14272:14277   */\n      dup2\n        /* \"#utility.yul\":14254:14278   */\n      tag_74\n      jump\t// in\n    tag_268:\n        /* \"#utility.yul\":14249:14252   */\n      dup3\n        /* \"#utility.yul\":14242:14279   */\n      mstore\n        /* \"#utility.yul\":14167:14285   */\n      pop\n      pop\n      jump\t// out\n        /* \"#utility.yul\":14291:14403   */\n    tag_120:\n        /* \"#utility.yul\":14374:14396   */\n      tag_270\n        /* \"#utility.yul\":14390:14395   */\n      dup2\n        /* \"#utility.yul\":14374:14396   */\n      tag_117\n      jump\t// in\n    tag_270:\n        /* \"#utility.yul\":14369:14372   */\n      dup3\n        /* \"#utility.yul\":14362:14397   */\n      mstore\n        /* \"#utility.yul\":14291:14403   */\n      pop\n      pop\n      jump\t// out\n        /* \"#utility.yul\":14409:14954   */\n    tag_68:\n        /* \"#utility.yul\":14582:14586   */\n      0x00\n        /* \"#utility.yul\":14620:14623   */\n      0x80\n        /* \"#utility.yul\":14609:14618   */\n      dup3\n        /* \"#utility.yul\":14605:14624   */\n      add\n        /* \"#utility.yul\":14597:14624   */\n      swap1\n      pop\n        /* \"#utility.yul\":14634:14705   */\n      tag_272\n        /* \"#utility.yul\":14702:14703   */\n      0x00\n        /* \"#utility.yul\":14691:14700   */\n      dup4\n        /* \"#utility.yul\":14687:14704   */\n      add\n        /* \"#utility.yul\":14678:14684   */\n      dup8\n        /* \"#utility.yul\":14634:14705   */\n      tag_119\n      jump\t// in\n    tag_272:\n        /* \"#utility.yul\":14715:14783   */\n      tag_273\n        /* \"#utility.yul\":14779:14781   */\n      0x20\n        /* \"#utility.yul\":14768:14777   */\n      dup4\n        /* \"#utility.yul\":14764:14782   */\n      add\n        /* \"#utility.yul\":14755:14761   */\n      dup7\n        /* \"#utility.yul\":14715:14783   */\n      tag_120\n      jump\t// in\n    tag_273:\n        /* \"#utility.yul\":14793:14865   */\n      tag_274\n        /* \"#utility.yul\":14861:14863   */\n      0x40\n        /* \"#utility.yul\":14850:14859   */\n      dup4\n        /* \"#utility.yul\":14846:14864   */\n      add\n        /* \"#utility.yul\":14837:14843   */\n      dup6\n        /* \"#utility.yul\":14793:14865   */\n      tag_119\n      jump\t// in\n    tag_274:\n        /* \"#utility.yul\":14875:14947   */\n      tag_275\n        /* \"#utility.yul\":14943:14945   */\n      0x60\n        /* \"#utility.yul\":14932:14941   */\n      dup4\n        /* \"#utility.yul\":14928:14946   */\n      add\n        /* \"#utility.yul\":14919:14925   */\n      dup5\n        /* \"#utility.yul\":14875:14947   */\n      tag_119\n      jump\t// in\n    tag_275:\n        /* \"#utility.yul\":14409:14954   */\n      swap6\n      swap5\n      pop\n      pop\n      pop\n      pop\n      pop\n      jump\t// out\n\n    auxdata: 0xa2646970667358221220ab72ef69deae48b0758f3602ff2914bc002da651fb9ecb18dc9b9bcd1b7ade3264736f6c63430008120033\n}\n",
				"bytecode": {
					"linkReferences": {},
					"object": "6080604052604051610def380380610def833981810160405281019061002591906100ce565b806000806101000a81548173ffffffffffffffffffffffffffffffffffffffff021916908373ffffffffffffffffffffffffffffffffffffffff160217905550506100fb565b600080fd5b600073ffffffffffffffffffffffffffffffffffffffff82169050919050565b600061009b82610070565b9050919050565b6100ab81610090565b81146100b657600080fd5b50565b6000815190506100c8816100a2565b92915050565b6000602082840312156100e4576100e361006b565b5b60006100f2848285016100b9565b91505092915050565b610ce58061010a6000396000f3fe60806040526004361061003f5760003560e01c80638eb6a489146100445780639b3f3f1a14610081578063c04d75dd146100aa578063eb41850d146100c6575b600080fd5b34801561005057600080fd5b5061006b6004803603810190610066919061056a565b610103565b60405161007891906105b2565b60405180910390f35b34801561008d57600080fd5b506100a860048036038101906100a39190610881565b610123565b005b6100c460048036038101906100bf91906108ca565b6101e7565b005b3480156100d257600080fd5b506100ed60048036038101906100e8919061056a565b61038c565b6040516100fa91906105b2565b60405180910390f35b60016020528060005260406000206000915054906101000a900460ff1681565b61014e816000015182602001518360400151846060015185608001518660a001518760c001516103b6565b61018d576040517f08c379a000000000000000000000000000000000000000000000000000000000815260040161018490610983565b60405180910390fd5b600081600001518260200151836040015184606001518560a001518660c001516040516020016101c296959493929190610a0c565b6040516020818303038152906040528051906020012090506101e38161045e565b5050565b600082600001518360200151846040015185606001518660a001518760c0015160405160200161021c96959493929190610a0c565b6040516020818303038152906040528051906020012090506001600082815260200190815260200160002060009054906101000a900460ff1615610295576040517f08c379a000000000000000000000000000000000000000000000000000000000815260040161028c90610ac8565b60405180910390fd5b6102c0836000015184602001518560400151866060015187608001518860a001518960c001516103b6565b6102ff576040517f08c379a00000000000000000000000000000000000000000000000000000000081526004016102f690610983565b60405180910390fd5b826020015173ffffffffffffffffffffffffffffffffffffffff166323b872dd84600001518486604001516040518463ffffffff1660e01b815260040161034893929190610b06565b600060405180830381600087803b15801561036257600080fd5b505af1925050508015610373575060015b61037d5750610388565b6103868161045e565b505b5050565b60006001600083815260200190815260200160002060009054906101000a900460ff169050919050565b6000808888888887876040516020016103d496959493929190610a0c565b6040516020818303038152906040528051906020012090506000816040516020016103ff9190610bb5565b6040516020818303038152906040528051906020012090508973ffffffffffffffffffffffffffffffffffffffff16610438828861048c565b73ffffffffffffffffffffffffffffffffffffffff161492505050979650505050505050565b600180600083815260200190815260200160002060006101000a81548160ff02191690831515021790555050565b6000806000806020850151925060408501519150606085015160001a9050601b8160ff1610156104c657601b816104c39190610c17565b90505b600186828585604051600081526020016040526040516104e99493929190610c6a565b6020604051602081039080840390855afa15801561050b573d6000803e3d6000fd5b50505060206040510351935050505092915050565b6000604051905090565b600080fd5b600080fd5b6000819050919050565b61054781610534565b811461055257600080fd5b50565b6000813590506105648161053e565b92915050565b6000602082840312156105805761057f61052a565b5b600061058e84828501610555565b91505092915050565b60008115159050919050565b6105ac81610597565b82525050565b60006020820190506105c760008301846105a3565b92915050565b600080fd5b6000601f19601f8301169050919050565b7f4e487b7100000000000000000000000000000000000000000000000000000000600052604160045260246000fd5b61061b826105d2565b810181811067ffffffffffffffff8211171561063a576106396105e3565b5b80604052505050565b600061064d610520565b90506106598282610612565b919050565b600080fd5b600073ffffffffffffffffffffffffffffffffffffffff82169050919050565b600061068e82610663565b9050919050565b61069e81610683565b81146106a957600080fd5b50565b6000813590506106bb81610695565b92915050565b6000819050919050565b6106d4816106c1565b81146106df57600080fd5b50565b6000813590506106f1816106cb565b92915050565b600080fd5b600080fd5b600067ffffffffffffffff82111561071c5761071b6105e3565b5b610725826105d2565b9050602081019050919050565b82818337600083830152505050565b600061075461074f84610701565b610643565b9050828152602081018484840111156107705761076f6106fc565b5b61077b848285610732565b509392505050565b600082601f830112610798576107976106f7565b5b81356107a8848260208601610741565b91505092915050565b600060e082840312156107c7576107c66105cd565b5b6107d160e0610643565b905060006107e1848285016106ac565b60008301525060206107f5848285016106ac565b6020830152506040610809848285016106e2565b604083015250606061081d848285016106e2565b606083015250608082013567ffffffffffffffff8111156108415761084061065e565b5b61084d84828501610783565b60808301525060a0610861848285016106e2565b60a08301525060c0610875848285016106e2565b60c08301525092915050565b6000602082840312156108975761089661052a565b5b600082013567ffffffffffffffff8111156108b5576108b461052f565b5b6108c1848285016107b1565b91505092915050565b600080604083850312156108e1576108e061052a565b5b600083013567ffffffffffffffff8111156108ff576108fe61052f565b5b61090b858286016107b1565b925050602061091c858286016106ac565b9150509250929050565b600082825260208201905092915050565b7f496e76616c6964207369676e6174757265000000000000000000000000000000600082015250565b600061096d601183610926565b915061097882610937565b602082019050919050565b6000602082019050818103600083015261099c81610960565b9050919050565b60008160601b9050919050565b60006109bb826109a3565b9050919050565b60006109cd826109b0565b9050919050565b6109e56109e082610683565b6109c2565b82525050565b6000819050919050565b610a06610a01826106c1565b6109eb565b82525050565b6000610a1882896109d4565b601482019150610a2882886109d4565b601482019150610a3882876109f5565b602082019150610a4882866109f5565b602082019150610a5882856109f5565b602082019150610a6882846109f5565b602082019150819050979650505050505050565b7f4f7264657220686173206265656e207573656400000000000000000000000000600082015250565b6000610ab2601383610926565b9150610abd82610a7c565b602082019050919050565b60006020820190508181036000830152610ae181610aa5565b9050919050565b610af181610683565b82525050565b610b00816106c1565b82525050565b6000606082019050610b1b6000830186610ae8565b610b286020830185610ae8565b610b356040830184610af7565b949350505050565b600081905092915050565b7f19457468657265756d205369676e6564204d6573736167653a0a333200000000600082015250565b6000610b7e601c83610b3d565b9150610b8982610b48565b601c82019050919050565b6000819050919050565b610baf610baa82610534565b610b94565b82525050565b6000610bc082610b71565b9150610bcc8284610b9e565b60208201915081905092915050565b600060ff82169050919050565b7f4e487b7100000000000000000000000000000000000000000000000000000000600052601160045260246000fd5b6000610c2282610bdb565b9150610c2d83610bdb565b9250828201905060ff811115610c4657610c45610be8565b5b92915050565b610c5581610534565b82525050565b610c6481610bdb565b82525050565b6000608082019050610c7f6000830187610c4c565b610c8c6020830186610c5b565b610c996040830185610c4c565b610ca66060830184610c4c565b9594505050505056fea2646970667358221220ab72ef69deae48b0758f3602ff2914bc002da651fb9ecb18dc9b9bcd1b7ade3264736f6c63430008120033",
					"opcodes": "PUSH1 0x80 PUSH1 0x40 MSTORE PUSH1 0x40 MLOAD PUSH2 0xDEF CODESIZE SUB DUP1 PUSH2 0xDEF DUP4 CODECOPY DUP2 DUP2 ADD PUSH1 0x40 MSTORE DUP2 ADD SWAP1 PUSH2 0x25 SWAP2 SWAP1 PUSH2 0xCE JUMP JUMPDEST DUP1 PUSH1 0x0 DUP1 PUSH2 0x100 EXP DUP2 SLOAD DUP2 PUSH20 0xFFFFFFFFFFFFFFFFFFFFFFFFFFFFFFFFFFFFFFFF MUL NOT AND SWAP1 DUP4 PUSH20 0xFFFFFFFFFFFFFFFFFFFFFFFFFFFFFFFFFFFFFFFF AND MUL OR SWAP1 SSTORE POP POP PUSH2 0xFB JUMP JUMPDEST PUSH1 0x0 DUP1 REVERT JUMPDEST PUSH1 0x0 PUSH20 0xFFFFFFFFFFFFFFFFFFFFFFFFFFFFFFFFFFFFFFFF DUP3 AND SWAP1 POP SWAP2 SWAP1 POP JUMP JUMPDEST PUSH1 0x0 PUSH2 0x9B DUP3 PUSH2 0x70 JUMP JUMPDEST SWAP1 POP SWAP2 SWAP1 POP JUMP JUMPDEST PUSH2 0xAB DUP2 PUSH2 0x90 JUMP JUMPDEST DUP2 EQ PUSH2 0xB6 JUMPI PUSH1 0x0 DUP1 REVERT JUMPDEST POP JUMP JUMPDEST PUSH1 0x0 DUP2 MLOAD SWAP1 POP PUSH2 0xC8 DUP2 PUSH2 0xA2 JUMP JUMPDEST SWAP3 SWAP2 POP POP JUMP JUMPDEST PUSH1 0x0 PUSH1 0x20 DUP3 DUP5 SUB SLT ISZERO PUSH2 0xE4 JUMPI PUSH2 0xE3 PUSH2 0x6B JUMP JUMPDEST JUMPDEST PUSH1 0x0 PUSH2 0xF2 DUP5 DUP3 DUP6 ADD PUSH2 0xB9 JUMP JUMPDEST SWAP2 POP POP SWAP3 SWAP2 POP POP JUMP JUMPDEST PUSH2 0xCE5 DUP1 PUSH2 0x10A PUSH1 0x0 CODECOPY PUSH1 0x0 RETURN INVALID PUSH1 0x80 PUSH1 0x40 MSTORE PUSH1 0x4 CALLDATASIZE LT PUSH2 0x3F JUMPI PUSH1 0x0 CALLDATALOAD PUSH1 0xE0 SHR DUP1 PUSH4 0x8EB6A489 EQ PUSH2 0x44 JUMPI DUP1 PUSH4 0x9B3F3F1A EQ PUSH2 0x81 JUMPI DUP1 PUSH4 0xC04D75DD EQ PUSH2 0xAA JUMPI DUP1 PUSH4 0xEB41850D EQ PUSH2 0xC6 JUMPI JUMPDEST PUSH1 0x0 DUP1 REVERT JUMPDEST CALLVALUE DUP1 ISZERO PUSH2 0x50 JUMPI PUSH1 0x0 DUP1 REVERT JUMPDEST POP PUSH2 0x6B PUSH1 0x4 DUP1 CALLDATASIZE SUB DUP2 ADD SWAP1 PUSH2 0x66 SWAP2 SWAP1 PUSH2 0x56A JUMP JUMPDEST PUSH2 0x103 JUMP JUMPDEST PUSH1 0x40 MLOAD PUSH2 0x78 SWAP2 SWAP1 PUSH2 0x5B2 JUMP JUMPDEST PUSH1 0x40 MLOAD DUP1 SWAP2 SUB SWAP1 RETURN JUMPDEST CALLVALUE DUP1 ISZERO PUSH2 0x8D JUMPI PUSH1 0x0 DUP1 REVERT JUMPDEST POP PUSH2 0xA8 PUSH1 0x4 DUP1 CALLDATASIZE SUB DUP2 ADD SWAP1 PUSH2 0xA3 SWAP2 SWAP1 PUSH2 0x881 JUMP JUMPDEST PUSH2 0x123 JUMP JUMPDEST STOP JUMPDEST PUSH2 0xC4 PUSH1 0x4 DUP1 CALLDATASIZE SUB DUP2 ADD SWAP1 PUSH2 0xBF SWAP2 SWAP1 PUSH2 0x8CA JUMP JUMPDEST PUSH2 0x1E7 JUMP JUMPDEST STOP JUMPDEST CALLVALUE DUP1 ISZERO PUSH2 0xD2 JUMPI PUSH1 0x0 DUP1 REVERT JUMPDEST POP PUSH2 0xED PUSH1 0x4 DUP1 CALLDATASIZE SUB DUP2 ADD SWAP1 PUSH2 0xE8 SWAP2 SWAP1 PUSH2 0x56A JUMP JUMPDEST PUSH2 0x38C JUMP JUMPDEST PUSH1 0x40 MLOAD PUSH2 0xFA SWAP2 SWAP1 PUSH2 0x5B2 JUMP JUMPDEST PUSH1 0x40 MLOAD DUP1 SWAP2 SUB SWAP1 RETURN JUMPDEST PUSH1 0x1 PUSH1 0x20 MSTORE DUP1 PUSH1 0x0 MSTORE PUSH1 0x40 PUSH1 0x0 KECCAK256 PUSH1 0x0 SWAP2 POP SLOAD SWAP1 PUSH2 0x100 EXP SWAP1 DIV PUSH1 0xFF AND DUP2 JUMP JUMPDEST PUSH2 0x14E DUP2 PUSH1 0x0 ADD MLOAD DUP3 PUSH1 0x20 ADD MLOAD DUP4 PUSH1 0x40 ADD MLOAD DUP5 PUSH1 0x60 ADD MLOAD DUP6 PUSH1 0x80 ADD MLOAD DUP7 PUSH1 0xA0 ADD MLOAD DUP8 PUSH1 0xC0 ADD MLOAD PUSH2 0x3B6 JUMP JUMPDEST PUSH2 0x18D JUMPI PUSH1 0x40 MLOAD PUSH32 0x8C379A000000000000000000000000000000000000000000000000000000000 DUP2 MSTORE PUSH1 0x4 ADD PUSH2 0x184 SWAP1 PUSH2 0x983 JUMP JUMPDEST PUSH1 0x40 MLOAD DUP1 SWAP2 SUB SWAP1 REVERT JUMPDEST PUSH1 0x0 DUP2 PUSH1 0x0 ADD MLOAD DUP3 PUSH1 0x20 ADD MLOAD DUP4 PUSH1 0x40 ADD MLOAD DUP5 PUSH1 0x60 ADD MLOAD DUP6 PUSH1 0xA0 ADD MLOAD DUP7 PUSH1 0xC0 ADD MLOAD PUSH1 0x40 MLOAD PUSH1 0x20 ADD PUSH2 0x1C2 SWAP7 SWAP6 SWAP5 SWAP4 SWAP3 SWAP2 SWAP1 PUSH2 0xA0C JUMP JUMPDEST PUSH1 0x40 MLOAD PUSH1 0x20 DUP2 DUP4 SUB SUB DUP2 MSTORE SWAP1 PUSH1 0x40 MSTORE DUP1 MLOAD SWAP1 PUSH1 0x20 ADD KECCAK256 SWAP1 POP PUSH2 0x1E3 DUP2 PUSH2 0x45E JUMP JUMPDEST POP POP JUMP JUMPDEST PUSH1 0x0 DUP3 PUSH1 0x0 ADD MLOAD DUP4 PUSH1 0x20 ADD MLOAD DUP5 PUSH1 0x40 ADD MLOAD DUP6 PUSH1 0x60 ADD MLOAD DUP7 PUSH1 0xA0 ADD MLOAD DUP8 PUSH1 0xC0 ADD MLOAD PUSH1 0x40 MLOAD PUSH1 0x20 ADD PUSH2 0x21C SWAP7 SWAP6 SWAP5 SWAP4 SWAP3 SWAP2 SWAP1 PUSH2 0xA0C JUMP JUMPDEST PUSH1 0x40 MLOAD PUSH1 0x20 DUP2 DUP4 SUB SUB DUP2 MSTORE SWAP1 PUSH1 0x40 MSTORE DUP1 MLOAD SWAP1 PUSH1 0x20 ADD KECCAK256 SWAP1 POP PUSH1 0x1 PUSH1 0x0 DUP3 DUP2 MSTORE PUSH1 0x20 ADD SWAP1 DUP2 MSTORE PUSH1 0x20 ADD PUSH1 0x0 KECCAK256 PUSH1 0x0 SWAP1 SLOAD SWAP1 PUSH2 0x100 EXP SWAP1 DIV PUSH1 0xFF AND ISZERO PUSH2 0x295 JUMPI PUSH1 0x40 MLOAD PUSH32 0x8C379A000000000000000000000000000000000000000000000000000000000 DUP2 MSTORE PUSH1 0x4 ADD PUSH2 0x28C SWAP1 PUSH2 0xAC8 JUMP JUMPDEST PUSH1 0x40 MLOAD DUP1 SWAP2 SUB SWAP1 REVERT JUMPDEST PUSH2 0x2C0 DUP4 PUSH1 0x0 ADD MLOAD DUP5 PUSH1 0x20 ADD MLOAD DUP6 PUSH1 0x40 ADD MLOAD DUP7 PUSH1 0x60 ADD MLOAD DUP8 PUSH1 0x80 ADD MLOAD DUP9 PUSH1 0xA0 ADD MLOAD DUP10 PUSH1 0xC0 ADD MLOAD PUSH2 0x3B6 JUMP JUMPDEST PUSH2 0x2FF JUMPI PUSH1 0x40 MLOAD PUSH32 0x8C379A000000000000000000000000000000000000000000000000000000000 DUP2 MSTORE PUSH1 0x4 ADD PUSH2 0x2F6 SWAP1 PUSH2 0x983 JUMP JUMPDEST PUSH1 0x40 MLOAD DUP1 SWAP2 SUB SWAP1 REVERT JUMPDEST DUP3 PUSH1 0x20 ADD MLOAD PUSH20 0xFFFFFFFFFFFFFFFFFFFFFFFFFFFFFFFFFFFFFFFF AND PUSH4 0x23B872DD DUP5 PUSH1 0x0 ADD MLOAD DUP5 DUP7 PUSH1 0x40 ADD MLOAD PUSH1 0x40 MLOAD DUP5 PUSH4 0xFFFFFFFF AND PUSH1 0xE0 SHL DUP2 MSTORE PUSH1 0x4 ADD PUSH2 0x348 SWAP4 SWAP3 SWAP2 SWAP1 PUSH2 0xB06 JUMP JUMPDEST PUSH1 0x0 PUSH1 0x40 MLOAD DUP1 DUP4 SUB DUP2 PUSH1 0x0 DUP8 DUP1 EXTCODESIZE ISZERO DUP1 ISZERO PUSH2 0x362 JUMPI PUSH1 0x0 DUP1 REVERT JUMPDEST POP GAS CALL SWAP3 POP POP POP DUP1 ISZERO PUSH2 0x373 JUMPI POP PUSH1 0x1 JUMPDEST PUSH2 0x37D JUMPI POP PUSH2 0x388 JUMP JUMPDEST PUSH2 0x386 DUP2 PUSH2 0x45E JUMP JUMPDEST POP JUMPDEST POP POP JUMP JUMPDEST PUSH1 0x0 PUSH1 0x1 PUSH1 0x0 DUP4 DUP2 MSTORE PUSH1 0x20 ADD SWAP1 DUP2 MSTORE PUSH1 0x20 ADD PUSH1 0x0 KECCAK256 PUSH1 0x0 SWAP1 SLOAD SWAP1 PUSH2 0x100 EXP SWAP1 DIV PUSH1 0xFF AND SWAP1 POP SWAP2 SWAP1 POP JUMP JUMPDEST PUSH1 0x0 DUP1 DUP9 DUP9 DUP9 DUP9 DUP8 DUP8 PUSH1 0x40 MLOAD PUSH1 0x20 ADD PUSH2 0x3D4 SWAP7 SWAP6 SWAP5 SWAP4 SWAP3 SWAP2 SWAP1 PUSH2 0xA0C JUMP JUMPDEST PUSH1 0x40 MLOAD PUSH1 0x20 DUP2 DUP4 SUB SUB DUP2 MSTORE SWAP1 PUSH1 0x40 MSTORE DUP1 MLOAD SWAP1 PUSH1 0x20 ADD KECCAK256 SWAP1 POP PUSH1 0x0 DUP2 PUSH1 0x40 MLOAD PUSH1 0x20 ADD PUSH2 0x3FF SWAP2 SWAP1 PUSH2 0xBB5 JUMP JUMPDEST PUSH1 0x40 MLOAD PUSH1 0x20 DUP2 DUP4 SUB SUB DUP2 MSTORE SWAP1 PUSH1 0x40 MSTORE DUP1 MLOAD SWAP1 PUSH1 0x20 ADD KECCAK256 SWAP1 POP DUP10 PUSH20 0xFFFFFFFFFFFFFFFFFFFFFFFFFFFFFFFFFFFFFFFF AND PUSH2 0x438 DUP3 DUP9 PUSH2 0x48C JUMP JUMPDEST PUSH20 0xFFFFFFFFFFFFFFFFFFFFFFFFFFFFFFFFFFFFFFFF AND EQ SWAP3 POP POP POP SWAP8 SWAP7 POP POP POP POP POP POP POP JUMP JUMPDEST PUSH1 0x1 DUP1 PUSH1 0x0 DUP4 DUP2 MSTORE PUSH1 0x20 ADD SWAP1 DUP2 MSTORE PUSH1 0x20 ADD PUSH1 0x0 KECCAK256 PUSH1 0x0 PUSH2 0x100 EXP DUP2 SLOAD DUP2 PUSH1 0xFF MUL NOT AND SWAP1 DUP4 ISZERO ISZERO MUL OR SWAP1 SSTORE POP POP JUMP JUMPDEST PUSH1 0x0 DUP1 PUSH1 0x0 DUP1 PUSH1 0x20 DUP6 ADD MLOAD SWAP3 POP PUSH1 0x40 DUP6 ADD MLOAD SWAP2 POP PUSH1 0x60 DUP6 ADD MLOAD PUSH1 0x0 BYTE SWAP1 POP PUSH1 0x1B DUP2 PUSH1 0xFF AND LT ISZERO PUSH2 0x4C6 JUMPI PUSH1 0x1B DUP2 PUSH2 0x4C3 SWAP2 SWAP1 PUSH2 0xC17 JUMP JUMPDEST SWAP1 POP JUMPDEST PUSH1 0x1 DUP7 DUP3 DUP6 DUP6 PUSH1 0x40 MLOAD PUSH1 0x0 DUP2 MSTORE PUSH1 0x20 ADD PUSH1 0x40 MSTORE PUSH1 0x40 MLOAD PUSH2 0x4E9 SWAP5 SWAP4 SWAP3 SWAP2 SWAP1 PUSH2 0xC6A JUMP JUMPDEST PUSH1 0x20 PUSH1 0x40 MLOAD PUSH1 0x20 DUP2 SUB SWAP1 DUP1 DUP5 SUB SWAP1 DUP6 GAS STATICCALL ISZERO DUP1 ISZERO PUSH2 0x50B JUMPI RETURNDATASIZE PUSH1 0x0 DUP1 RETURNDATACOPY RETURNDATASIZE PUSH1 0x0 REVERT JUMPDEST POP POP POP PUSH1 0x20 PUSH1 0x40 MLOAD SUB MLOAD SWAP4 POP POP POP POP SWAP3 SWAP2 POP POP JUMP JUMPDEST PUSH1 0x0 PUSH1 0x40 MLOAD SWAP1 POP SWAP1 JUMP JUMPDEST PUSH1 0x0 DUP1 REVERT JUMPDEST PUSH1 0x0 DUP1 REVERT JUMPDEST PUSH1 0x0 DUP2 SWAP1 POP SWAP2 SWAP1 POP JUMP JUMPDEST PUSH2 0x547 DUP2 PUSH2 0x534 JUMP JUMPDEST DUP2 EQ PUSH2 0x552 JUMPI PUSH1 0x0 DUP1 REVERT JUMPDEST POP JUMP JUMPDEST PUSH1 0x0 DUP2 CALLDATALOAD SWAP1 POP PUSH2 0x564 DUP2 PUSH2 0x53E JUMP JUMPDEST SWAP3 SWAP2 POP POP JUMP JUMPDEST PUSH1 0x0 PUSH1 0x20 DUP3 DUP5 SUB SLT ISZERO PUSH2 0x580 JUMPI PUSH2 0x57F PUSH2 0x52A JUMP JUMPDEST JUMPDEST PUSH1 0x0 PUSH2 0x58E DUP5 DUP3 DUP6 ADD PUSH2 0x555 JUMP JUMPDEST SWAP2 POP POP SWAP3 SWAP2 POP POP JUMP JUMPDEST PUSH1 0x0 DUP2 ISZERO ISZERO SWAP1 POP SWAP2 SWAP1 POP JUMP JUMPDEST PUSH2 0x5AC DUP2 PUSH2 0x597 JUMP JUMPDEST DUP3 MSTORE POP POP JUMP JUMPDEST PUSH1 0x0 PUSH1 0x20 DUP3 ADD SWAP1 POP PUSH2 0x5C7 PUSH1 0x0 DUP4 ADD DUP5 PUSH2 0x5A3 JUMP JUMPDEST SWAP3 SWAP2 POP POP JUMP JUMPDEST PUSH1 0x0 DUP1 REVERT JUMPDEST PUSH1 0x0 PUSH1 0x1F NOT PUSH1 0x1F DUP4 ADD AND SWAP1 POP SWAP2 SWAP1 POP JUMP JUMPDEST PUSH32 0x4E487B7100000000000000000000000000000000000000000000000000000000 PUSH1 0x0 MSTORE PUSH1 0x41 PUSH1 0x4 MSTORE PUSH1 0x24 PUSH1 0x0 REVERT JUMPDEST PUSH2 0x61B DUP3 PUSH2 0x5D2 JUMP JUMPDEST DUP2 ADD DUP2 DUP2 LT PUSH8 0xFFFFFFFFFFFFFFFF DUP3 GT OR ISZERO PUSH2 0x63A JUMPI PUSH2 0x639 PUSH2 0x5E3 JUMP JUMPDEST JUMPDEST DUP1 PUSH1 0x40 MSTORE POP POP POP JUMP JUMPDEST PUSH1 0x0 PUSH2 0x64D PUSH2 0x520 JUMP JUMPDEST SWAP1 POP PUSH2 0x659 DUP3 DUP3 PUSH2 0x612 JUMP JUMPDEST SWAP2 SWAP1 POP JUMP JUMPDEST PUSH1 0x0 DUP1 REVERT JUMPDEST PUSH1 0x0 PUSH20 0xFFFFFFFFFFFFFFFFFFFFFFFFFFFFFFFFFFFFFFFF DUP3 AND SWAP1 POP SWAP2 SWAP1 POP JUMP JUMPDEST PUSH1 0x0 PUSH2 0x68E DUP3 PUSH2 0x663 JUMP JUMPDEST SWAP1 POP SWAP2 SWAP1 POP JUMP JUMPDEST PUSH2 0x69E DUP2 PUSH2 0x683 JUMP JUMPDEST DUP2 EQ PUSH2 0x6A9 JUMPI PUSH1 0x0 DUP1 REVERT JUMPDEST POP JUMP JUMPDEST PUSH1 0x0 DUP2 CALLDATALOAD SWAP1 POP PUSH2 0x6BB DUP2 PUSH2 0x695 JUMP JUMPDEST SWAP3 SWAP2 POP POP JUMP JUMPDEST PUSH1 0x0 DUP2 SWAP1 POP SWAP2 SWAP1 POP JUMP JUMPDEST PUSH2 0x6D4 DUP2 PUSH2 0x6C1 JUMP JUMPDEST DUP2 EQ PUSH2 0x6DF JUMPI PUSH1 0x0 DUP1 REVERT JUMPDEST POP JUMP JUMPDEST PUSH1 0x0 DUP2 CALLDATALOAD SWAP1 POP PUSH2 0x6F1 DUP2 PUSH2 0x6CB JUMP JUMPDEST SWAP3 SWAP2 POP POP JUMP JUMPDEST PUSH1 0x0 DUP1 REVERT JUMPDEST PUSH1 0x0 DUP1 REVERT JUMPDEST PUSH1 0x0 PUSH8 0xFFFFFFFFFFFFFFFF DUP3 GT ISZERO PUSH2 0x71C JUMPI PUSH2 0x71B PUSH2 0x5E3 JUMP JUMPDEST JUMPDEST PUSH2 0x725 DUP3 PUSH2 0x5D2 JUMP JUMPDEST SWAP1 POP PUSH1 0x20 DUP2 ADD SWAP1 POP SWAP2 SWAP1 POP JUMP JUMPDEST DUP3 DUP2 DUP4 CALLDATACOPY PUSH1 0x0 DUP4 DUP4 ADD MSTORE POP POP POP JUMP JUMPDEST PUSH1 0x0 PUSH2 0x754 PUSH2 0x74F DUP5 PUSH2 0x701 JUMP JUMPDEST PUSH2 0x643 JUMP JUMPDEST SWAP1 POP DUP3 DUP2 MSTORE PUSH1 0x20 DUP2 ADD DUP5 DUP5 DUP5 ADD GT ISZERO PUSH2 0x770 JUMPI PUSH2 0x76F PUSH2 0x6FC JUMP JUMPDEST JUMPDEST PUSH2 0x77B DUP5 DUP3 DUP6 PUSH2 0x732 JUMP JUMPDEST POP SWAP4 SWAP3 POP POP POP JUMP JUMPDEST PUSH1 0x0 DUP3 PUSH1 0x1F DUP4 ADD SLT PUSH2 0x798 JUMPI PUSH2 0x797 PUSH2 0x6F7 JUMP JUMPDEST JUMPDEST DUP2 CALLDATALOAD PUSH2 0x7A8 DUP5 DUP3 PUSH1 0x20 DUP7 ADD PUSH2 0x741 JUMP JUMPDEST SWAP2 POP POP SWAP3 SWAP2 POP POP JUMP JUMPDEST PUSH1 0x0 PUSH1 0xE0 DUP3 DUP5 SUB SLT ISZERO PUSH2 0x7C7 JUMPI PUSH2 0x7C6 PUSH2 0x5CD JUMP JUMPDEST JUMPDEST PUSH2 0x7D1 PUSH1 0xE0 PUSH2 0x643 JUMP JUMPDEST SWAP1 POP PUSH1 0x0 PUSH2 0x7E1 DUP5 DUP3 DUP6 ADD PUSH2 0x6AC JUMP JUMPDEST PUSH1 0x0 DUP4 ADD MSTORE POP PUSH1 0x20 PUSH2 0x7F5 DUP5 DUP3 DUP6 ADD PUSH2 0x6AC JUMP JUMPDEST PUSH1 0x20 DUP4 ADD MSTORE POP PUSH1 0x40 PUSH2 0x809 DUP5 DUP3 DUP6 ADD PUSH2 0x6E2 JUMP JUMPDEST PUSH1 0x40 DUP4 ADD MSTORE POP PUSH1 0x60 PUSH2 0x81D DUP5 DUP3 DUP6 ADD PUSH2 0x6E2 JUMP JUMPDEST PUSH1 0x60 DUP4 ADD MSTORE POP PUSH1 0x80 DUP3 ADD CALLDATALOAD PUSH8 0xFFFFFFFFFFFFFFFF DUP2 GT ISZERO PUSH2 0x841 JUMPI PUSH2 0x840 PUSH2 0x65E JUMP JUMPDEST JUMPDEST PUSH2 0x84D DUP5 DUP3 DUP6 ADD PUSH2 0x783 JUMP JUMPDEST PUSH1 0x80 DUP4 ADD MSTORE POP PUSH1 0xA0 PUSH2 0x861 DUP5 DUP3 DUP6 ADD PUSH2 0x6E2 JUMP JUMPDEST PUSH1 0xA0 DUP4 ADD MSTORE POP PUSH1 0xC0 PUSH2 0x875 DUP5 DUP3 DUP6 ADD PUSH2 0x6E2 JUMP JUMPDEST PUSH1 0xC0 DUP4 ADD MSTORE POP SWAP3 SWAP2 POP POP JUMP JUMPDEST PUSH1 0x0 PUSH1 0x20 DUP3 DUP5 SUB SLT ISZERO PUSH2 0x897 JUMPI PUSH2 0x896 PUSH2 0x52A JUMP JUMPDEST JUMPDEST PUSH1 0x0 DUP3 ADD CALLDATALOAD PUSH8 0xFFFFFFFFFFFFFFFF DUP2 GT ISZERO PUSH2 0x8B5 JUMPI PUSH2 0x8B4 PUSH2 0x52F JUMP JUMPDEST JUMPDEST PUSH2 0x8C1 DUP5 DUP3 DUP6 ADD PUSH2 0x7B1 JUMP JUMPDEST SWAP2 POP POP SWAP3 SWAP2 POP POP JUMP JUMPDEST PUSH1 0x0 DUP1 PUSH1 0x40 DUP4 DUP6 SUB SLT ISZERO PUSH2 0x8E1 JUMPI PUSH2 0x8E0 PUSH2 0x52A JUMP JUMPDEST JUMPDEST PUSH1 0x0 DUP4 ADD CALLDATALOAD PUSH8 0xFFFFFFFFFFFFFFFF DUP2 GT ISZERO PUSH2 0x8FF JUMPI PUSH2 0x8FE PUSH2 0x52F JUMP JUMPDEST JUMPDEST PUSH2 0x90B DUP6 DUP3 DUP7 ADD PUSH2 0x7B1 JUMP JUMPDEST SWAP3 POP POP PUSH1 0x20 PUSH2 0x91C DUP6 DUP3 DUP7 ADD PUSH2 0x6AC JUMP JUMPDEST SWAP2 POP POP SWAP3 POP SWAP3 SWAP1 POP JUMP JUMPDEST PUSH1 0x0 DUP3 DUP3 MSTORE PUSH1 0x20 DUP3 ADD SWAP1 POP SWAP3 SWAP2 POP POP JUMP JUMPDEST PUSH32 0x496E76616C6964207369676E6174757265000000000000000000000000000000 PUSH1 0x0 DUP3 ADD MSTORE POP JUMP JUMPDEST PUSH1 0x0 PUSH2 0x96D PUSH1 0x11 DUP4 PUSH2 0x926 JUMP JUMPDEST SWAP2 POP PUSH2 0x978 DUP3 PUSH2 0x937 JUMP JUMPDEST PUSH1 0x20 DUP3 ADD SWAP1 POP SWAP2 SWAP1 POP JUMP JUMPDEST PUSH1 0x0 PUSH1 0x20 DUP3 ADD SWAP1 POP DUP2 DUP2 SUB PUSH1 0x0 DUP4 ADD MSTORE PUSH2 0x99C DUP2 PUSH2 0x960 JUMP JUMPDEST SWAP1 POP SWAP2 SWAP1 POP JUMP JUMPDEST PUSH1 0x0 DUP2 PUSH1 0x60 SHL SWAP1 POP SWAP2 SWAP1 POP JUMP JUMPDEST PUSH1 0x0 PUSH2 0x9BB DUP3 PUSH2 0x9A3 JUMP JUMPDEST SWAP1 POP SWAP2 SWAP1 POP JUMP JUMPDEST PUSH1 0x0 PUSH2 0x9CD DUP3 PUSH2 0x9B0 JUMP JUMPDEST SWAP1 POP SWAP2 SWAP1 POP JUMP JUMPDEST PUSH2 0x9E5 PUSH2 0x9E0 DUP3 PUSH2 0x683 JUMP JUMPDEST PUSH2 0x9C2 JUMP JUMPDEST DUP3 MSTORE POP POP JUMP JUMPDEST PUSH1 0x0 DUP2 SWAP1 POP SWAP2 SWAP1 POP JUMP JUMPDEST PUSH2 0xA06 PUSH2 0xA01 DUP3 PUSH2 0x6C1 JUMP JUMPDEST PUSH2 0x9EB JUMP JUMPDEST DUP3 MSTORE POP POP JUMP JUMPDEST PUSH1 0x0 PUSH2 0xA18 DUP3 DUP10 PUSH2 0x9D4 JUMP JUMPDEST PUSH1 0x14 DUP3 ADD SWAP2 POP PUSH2 0xA28 DUP3 DUP9 PUSH2 0x9D4 JUMP JUMPDEST PUSH1 0x14 DUP3 ADD SWAP2 POP PUSH2 0xA38 DUP3 DUP8 PUSH2 0x9F5 JUMP JUMPDEST PUSH1 0x20 DUP3 ADD SWAP2 POP PUSH2 0xA48 DUP3 DUP7 PUSH2 0x9F5 JUMP JUMPDEST PUSH1 0x20 DUP3 ADD SWAP2 POP PUSH2 0xA58 DUP3 DUP6 PUSH2 0x9F5 JUMP JUMPDEST PUSH1 0x20 DUP3 ADD SWAP2 POP PUSH2 0xA68 DUP3 DUP5 PUSH2 0x9F5 JUMP JUMPDEST PUSH1 0x20 DUP3 ADD SWAP2 POP DUP2 SWAP1 POP SWAP8 SWAP7 POP POP POP POP POP POP POP JUMP JUMPDEST PUSH32 0x4F7264657220686173206265656E207573656400000000000000000000000000 PUSH1 0x0 DUP3 ADD MSTORE POP JUMP JUMPDEST PUSH1 0x0 PUSH2 0xAB2 PUSH1 0x13 DUP4 PUSH2 0x926 JUMP JUMPDEST SWAP2 POP PUSH2 0xABD DUP3 PUSH2 0xA7C JUMP JUMPDEST PUSH1 0x20 DUP3 ADD SWAP1 POP SWAP2 SWAP1 POP JUMP JUMPDEST PUSH1 0x0 PUSH1 0x20 DUP3 ADD SWAP1 POP DUP2 DUP2 SUB PUSH1 0x0 DUP4 ADD MSTORE PUSH2 0xAE1 DUP2 PUSH2 0xAA5 JUMP JUMPDEST SWAP1 POP SWAP2 SWAP1 POP JUMP JUMPDEST PUSH2 0xAF1 DUP2 PUSH2 0x683 JUMP JUMPDEST DUP3 MSTORE POP POP JUMP JUMPDEST PUSH2 0xB00 DUP2 PUSH2 0x6C1 JUMP JUMPDEST DUP3 MSTORE POP POP JUMP JUMPDEST PUSH1 0x0 PUSH1 0x60 DUP3 ADD SWAP1 POP PUSH2 0xB1B PUSH1 0x0 DUP4 ADD DUP7 PUSH2 0xAE8 JUMP JUMPDEST PUSH2 0xB28 PUSH1 0x20 DUP4 ADD DUP6 PUSH2 0xAE8 JUMP JUMPDEST PUSH2 0xB35 PUSH1 0x40 DUP4 ADD DUP5 PUSH2 0xAF7 JUMP JUMPDEST SWAP5 SWAP4 POP POP POP POP JUMP JUMPDEST PUSH1 0x0 DUP2 SWAP1 POP SWAP3 SWAP2 POP POP JUMP JUMPDEST PUSH32 0x19457468657265756D205369676E6564204D6573736167653A0A333200000000 PUSH1 0x0 DUP3 ADD MSTORE POP JUMP JUMPDEST PUSH1 0x0 PUSH2 0xB7E PUSH1 0x1C DUP4 PUSH2 0xB3D JUMP JUMPDEST SWAP2 POP PUSH2 0xB89 DUP3 PUSH2 0xB48 JUMP JUMPDEST PUSH1 0x1C DUP3 ADD SWAP1 POP SWAP2 SWAP1 POP JUMP JUMPDEST PUSH1 0x0 DUP2 SWAP1 POP SWAP2 SWAP1 POP JUMP JUMPDEST PUSH2 0xBAF PUSH2 0xBAA DUP3 PUSH2 0x534 JUMP JUMPDEST PUSH2 0xB94 JUMP JUMPDEST DUP3 MSTORE POP POP JUMP JUMPDEST PUSH1 0x0 PUSH2 0xBC0 DUP3 PUSH2 0xB71 JUMP JUMPDEST SWAP2 POP PUSH2 0xBCC DUP3 DUP5 PUSH2 0xB9E JUMP JUMPDEST PUSH1 0x20 DUP3 ADD SWAP2 POP DUP2 SWAP1 POP SWAP3 SWAP2 POP POP JUMP JUMPDEST PUSH1 0x0 PUSH1 0xFF DUP3 AND SWAP1 POP SWAP2 SWAP1 POP JUMP JUMPDEST PUSH32 0x4E487B7100000000000000000000000000000000000000000000000000000000 PUSH1 0x0 MSTORE PUSH1 0x11 PUSH1 0x4 MSTORE PUSH1 0x24 PUSH1 0x0 REVERT JUMPDEST PUSH1 0x0 PUSH2 0xC22 DUP3 PUSH2 0xBDB JUMP JUMPDEST SWAP2 POP PUSH2 0xC2D DUP4 PUSH2 0xBDB JUMP JUMPDEST SWAP3 POP DUP3 DUP3 ADD SWAP1 POP PUSH1 0xFF DUP2 GT ISZERO PUSH2 0xC46 JUMPI PUSH2 0xC45 PUSH2 0xBE8 JUMP JUMPDEST JUMPDEST SWAP3 SWAP2 POP POP JUMP JUMPDEST PUSH2 0xC55 DUP2 PUSH2 0x534 JUMP JUMPDEST DUP3 MSTORE POP POP JUMP JUMPDEST PUSH2 0xC64 DUP2 PUSH2 0xBDB JUMP JUMPDEST DUP3 MSTORE POP POP JUMP JUMPDEST PUSH1 0x0 PUSH1 0x80 DUP3 ADD SWAP1 POP PUSH2 0xC7F PUSH1 0x0 DUP4 ADD DUP8 PUSH2 0xC4C JUMP JUMPDEST PUSH2 0xC8C PUSH1 0x20 DUP4 ADD DUP7 PUSH2 0xC5B JUMP JUMPDEST PUSH2 0xC99 PUSH1 0x40 DUP4 ADD DUP6 PUSH2 0xC4C JUMP JUMPDEST PUSH2 0xCA6 PUSH1 0x60 DUP4 ADD DUP5 PUSH2 0xC4C JUMP JUMPDEST SWAP6 SWAP5 POP POP POP POP POP JUMP INVALID LOG2 PUSH5 0x6970667358 0x22 SLT KECCAK256 0xAB PUSH19 0xEF69DEAE48B0758F3602FF2914BC002DA651FB SWAP15 0xCB XOR 0xDC SWAP12 SWAP12 0xCD SHL PUSH27 0xDE3264736F6C634300081200330000000000000000000000000000 "
				},
				"gasEstimates": {
					"creation": {
						"codeDepositCost": "660200",
						"executionCost": "infinite",
						"totalCost": "infinite"
					},
					"external": {
						"AtomicTx((address,address,uint256,uint256,bytes,uint256,uint256),address)": "infinite",
						"IsInvalid(bytes32)": "2774",
						"cancelOrder((address,address,uint256,uint256,bytes,uint256,uint256))": "infinite",
						"isOrderInvalid(bytes32)": "2866"
					},
					"internal": {
						"markOrderCancelled(bytes32)": "24362",
						"recoverSigner(bytes32,bytes memory)": "infinite",
						"verifySignature(address,address,uint256,uint256,bytes memory,uint256,uint256)": "infinite"
					}
				},
				"methodIdentifiers": {
					"AtomicTx((address,address,uint256,uint256,bytes,uint256,uint256),address)": "c04d75dd",
					"IsInvalid(bytes32)": "8eb6a489",
					"cancelOrder((address,address,uint256,uint256,bytes,uint256,uint256))": "9b3f3f1a",
					"isOrderInvalid(bytes32)": "eb41850d"
				}
			},
			"storageLayout": {
				"storage": [
					{
						"astId": 1268,
						"contract": "NFT_market_contract.sol:ProxyWallet",
						"label": "owner",
						"offset": 0,
						"slot": "0",
						"type": "t_address"
					},
					{
						"astId": 1272,
						"contract": "NFT_market_contract.sol:ProxyWallet",
						"label": "IsInvalid",
						"offset": 0,
						"slot": "1",
						"type": "t_mapping(t_bytes32,t_bool)"
					}
				],
				"types": {
					"t_address": {
						"encoding": "inplace",
						"label": "address",
						"numberOfBytes": "20"
					},
					"t_bool": {
						"encoding": "inplace",
						"label": "bool",
						"numberOfBytes": "1"
					},
					"t_bytes32": {
						"encoding": "inplace",
						"label": "bytes32",
						"numberOfBytes": "32"
					},
					"t_mapping(t_bytes32,t_bool)": {
						"encoding": "mapping",
						"key": "t_bytes32",
						"label": "mapping(bytes32 => bool)",
						"numberOfBytes": "32",
						"value": "t_bool"
					}
				}
			},
			"userdoc": {
				"kind": "user",
				"methods": {},
				"version": 1
			}
		}
	}
}