{
	"NFT_market_contract.sol": {
		"MarketContract": {
			"abi": [
				{
					"inputs": [
						{
							"internalType": "address",
							"name": "_owner",
							"type": "address"
						}
					],
					"stateMutability": "payable",
					"type": "constructor"
				},
				{
					"anonymous": false,
					"inputs": [
						{
							"indexed": true,
							"internalType": "address",
							"name": "seller",
							"type": "address"
						},
						{
							"indexed": true,
							"internalType": "address",
							"name": "buyer",
							"type": "address"
						},
						{
							"indexed": true,
							"internalType": "address",
							"name": "contractID",
							"type": "address"
						},
						{
							"indexed": false,
							"internalType": "uint256",
							"name": "tokenID",
							"type": "uint256"
						},
						{
							"indexed": false,
							"internalType": "bytes32",
							"name": "orderID",
							"type": "bytes32"
						},
						{
							"indexed": false,
							"internalType": "uint256",
							"name": "price",
							"type": "uint256"
						}
					],
					"name": "MatchFail",
					"type": "event"
				},
				{
					"anonymous": false,
					"inputs": [
						{
							"indexed": true,
							"internalType": "address",
							"name": "seller",
							"type": "address"
						},
						{
							"indexed": true,
							"internalType": "address",
							"name": "buyer",
							"type": "address"
						},
						{
							"indexed": true,
							"internalType": "address",
							"name": "contractID",
							"type": "address"
						},
						{
							"indexed": false,
							"internalType": "uint256",
							"name": "tokenID",
							"type": "uint256"
						},
						{
							"indexed": false,
							"internalType": "bytes32",
							"name": "orderID",
							"type": "bytes32"
						},
						{
							"indexed": false,
							"internalType": "uint256",
							"name": "price",
							"type": "uint256"
						}
					],
					"name": "MatchSuccess",
					"type": "event"
				},
				{
					"anonymous": false,
					"inputs": [
						{
							"indexed": true,
							"internalType": "address",
							"name": "seller",
							"type": "address"
						},
						{
							"indexed": true,
							"internalType": "address",
							"name": "contractID",
							"type": "address"
						},
						{
							"indexed": false,
							"internalType": "bytes32",
							"name": "orderID",
							"type": "bytes32"
						},
						{
							"indexed": false,
							"internalType": "uint256",
							"name": "tokenID",
							"type": "uint256"
						}
					],
					"name": "OrderExpired",
					"type": "event"
				},
				{
					"anonymous": false,
					"inputs": [
						{
							"indexed": true,
							"internalType": "address",
							"name": "seller",
							"type": "address"
						},
						{
							"indexed": true,
							"internalType": "address",
							"name": "contractID",
							"type": "address"
						},
						{
							"indexed": false,
							"internalType": "bytes32",
							"name": "orderID",
							"type": "bytes32"
						},
						{
							"indexed": false,
							"internalType": "uint256",
							"name": "tokenID",
							"type": "uint256"
						}
					],
					"name": "SellOrderCancelled",
					"type": "event"
				},
				{
					"anonymous": false,
					"inputs": [
						{
							"indexed": true,
							"internalType": "address",
							"name": "seller",
							"type": "address"
						},
						{
							"indexed": true,
							"internalType": "address",
							"name": "buyer",
							"type": "address"
						},
						{
							"indexed": true,
							"internalType": "address",
							"name": "contractID",
							"type": "address"
						},
						{
							"indexed": false,
							"internalType": "bytes32",
							"name": "orderID",
							"type": "bytes32"
						},
						{
							"indexed": false,
							"internalType": "uint256",
							"name": "tokenID",
							"type": "uint256"
						},
						{
							"indexed": false,
							"internalType": "uint256",
							"name": "price",
							"type": "uint256"
						}
					],
					"name": "TradeFail",
					"type": "event"
				},
				{
					"anonymous": false,
					"inputs": [
						{
							"indexed": true,
							"internalType": "address",
							"name": "seller",
							"type": "address"
						},
						{
							"indexed": true,
							"internalType": "address",
							"name": "buyer",
							"type": "address"
						},
						{
							"indexed": true,
							"internalType": "address",
							"name": "contractID",
							"type": "address"
						},
						{
							"indexed": false,
							"internalType": "bytes32",
							"name": "orderID",
							"type": "bytes32"
						},
						{
							"indexed": false,
							"internalType": "uint256",
							"name": "tokenID",
							"type": "uint256"
						},
						{
							"indexed": false,
							"internalType": "uint256",
							"name": "price",
							"type": "uint256"
						}
					],
					"name": "TradeSuccess",
					"type": "event"
				},
				{
					"anonymous": false,
					"inputs": [
						{
							"indexed": false,
							"internalType": "uint256",
							"name": "oldFeeRate",
							"type": "uint256"
						},
						{
							"indexed": false,
							"internalType": "uint256",
							"name": "newFeeRate",
							"type": "uint256"
						}
					],
					"name": "UpdateFeeRate",
					"type": "event"
				},
				{
					"inputs": [
						{
							"components": [
								{
									"internalType": "address",
									"name": "seller",
									"type": "address"
								},
								{
									"internalType": "address",
									"name": "contractID",
									"type": "address"
								},
								{
									"internalType": "uint256",
									"name": "tokenID",
									"type": "uint256"
								},
								{
									"internalType": "uint256",
									"name": "price",
									"type": "uint256"
								},
								{
									"internalType": "bytes",
									"name": "signature",
									"type": "bytes"
								},
								{
									"internalType": "uint256",
									"name": "expirationTime",
									"type": "uint256"
								},
								{
									"internalType": "bytes32",
									"name": "orderID",
									"type": "bytes32"
								}
							],
							"internalType": "struct MarketContract.SellOrder",
							"name": "sellOrder",
							"type": "tuple"
						}
					],
					"name": "CancelSellOrder",
					"outputs": [],
					"stateMutability": "nonpayable",
					"type": "function"
				},
				{
					"inputs": [
						{
							"internalType": "address",
							"name": "collectionAddress",
							"type": "address"
						}
					],
					"name": "approveCollection",
					"outputs": [],
					"stateMutability": "nonpayable",
					"type": "function"
				},
				{
					"inputs": [],
					"name": "createProxyWallet",
					"outputs": [],
					"stateMutability": "nonpayable",
					"type": "function"
				},
				{
					"inputs": [],
					"name": "getFeeRate",
					"outputs": [
						{
							"internalType": "uint256",
							"name": "",
							"type": "uint256"
						}
					],
					"stateMutability": "view",
					"type": "function"
				},
				{
					"inputs": [
						{
							"internalType": "address",
							"name": "user",
							"type": "address"
						}
					],
					"name": "getProxyWallet",
					"outputs": [
						{
							"internalType": "address",
							"name": "",
							"type": "address"
						}
					],
					"stateMutability": "view",
					"type": "function"
				},
				{
					"inputs": [
						{
							"internalType": "address",
							"name": "seller",
							"type": "address"
						},
						{
							"internalType": "address",
							"name": "contractID",
							"type": "address"
						},
						{
							"internalType": "uint256",
							"name": "tokenID",
							"type": "uint256"
						},
						{
							"internalType": "uint256",
							"name": "price",
							"type": "uint256"
						},
						{
							"internalType": "bytes",
							"name": "signature",
							"type": "bytes"
						},
						{
							"internalType": "uint256",
							"name": "expirationTime",
							"type": "uint256"
						},
						{
							"internalType": "bytes32",
							"name": "orderID",
							"type": "bytes32"
						}
					],
					"name": "matchOrder",
					"outputs": [],
					"stateMutability": "payable",
					"type": "function"
				},
				{
					"inputs": [
						{
							"internalType": "address payable",
							"name": "_mall",
							"type": "address"
						}
					],
					"name": "setMall",
					"outputs": [],
					"stateMutability": "nonpayable",
					"type": "function"
				},
				{
					"inputs": [
						{
							"internalType": "uint256",
							"name": "newFeeRate",
							"type": "uint256"
						}
					],
					"name": "updateFeeRate",
					"outputs": [],
					"stateMutability": "nonpayable",
					"type": "function"
				}
			],
			"devdoc": {
				"kind": "dev",
				"methods": {},
				"version": 1
			},
			"evm": {
				"assembly": "    /* \"NFT_market_contract.sol\":345:9481  contract MarketContract is Imarket {... */\n  mstore(0x40, 0x80)\n    /* \"NFT_market_contract.sol\":928:929  2 */\n  0x02\n    /* \"NFT_market_contract.sol\":902:929  uint256 private feeRate = 2 */\n  dup1\n  sstore\n    /* \"NFT_market_contract.sol\":1109:1178  constructor(address _owner) payable {... */\n  mload(0x40)\n  sub(codesize, bytecodeSize)\n  dup1\n  bytecodeSize\n  dup4\n  codecopy\n  dup2\n  dup2\n  add\n  0x40\n  mstore\n  dup2\n  add\n  swap1\n  tag_1\n  swap2\n  swap1\n  tag_2\n  jump\t// in\ntag_1:\n    /* \"NFT_market_contract.sol\":1164:1170  _owner */\n  dup1\n    /* \"NFT_market_contract.sol\":1156:1161  owner */\n  0x03\n  0x00\n    /* \"NFT_market_contract.sol\":1156:1170  owner = _owner */\n  0x0100\n  exp\n  dup2\n  sload\n  dup2\n  0xffffffffffffffffffffffffffffffffffffffff\n  mul\n  not\n  and\n  swap1\n  dup4\n  0xffffffffffffffffffffffffffffffffffffffff\n  and\n  mul\n  or\n  swap1\n  sstore\n  pop\n    /* \"NFT_market_contract.sol\":1109:1178  constructor(address _owner) payable {... */\n  pop\n    /* \"NFT_market_contract.sol\":345:9481  contract MarketContract is Imarket {... */\n  jump(tag_5)\n    /* \"#utility.yul\":88:205   */\ntag_7:\n    /* \"#utility.yul\":197:198   */\n  0x00\n    /* \"#utility.yul\":194:195   */\n  dup1\n    /* \"#utility.yul\":187:199   */\n  revert\n    /* \"#utility.yul\":334:460   */\ntag_9:\n    /* \"#utility.yul\":371:378   */\n  0x00\n    /* \"#utility.yul\":411:453   */\n  0xffffffffffffffffffffffffffffffffffffffff\n    /* \"#utility.yul\":404:409   */\n  dup3\n    /* \"#utility.yul\":400:454   */\n  and\n    /* \"#utility.yul\":389:454   */\n  swap1\n  pop\n    /* \"#utility.yul\":334:460   */\n  swap2\n  swap1\n  pop\n  jump\t// out\n    /* \"#utility.yul\":466:562   */\ntag_10:\n    /* \"#utility.yul\":503:510   */\n  0x00\n    /* \"#utility.yul\":532:556   */\n  tag_19\n    /* \"#utility.yul\":550:555   */\n  dup3\n    /* \"#utility.yul\":532:556   */\n  tag_9\n  jump\t// in\ntag_19:\n    /* \"#utility.yul\":521:556   */\n  swap1\n  pop\n    /* \"#utility.yul\":466:562   */\n  swap2\n  swap1\n  pop\n  jump\t// out\n    /* \"#utility.yul\":568:690   */\ntag_11:\n    /* \"#utility.yul\":641:665   */\n  tag_21\n    /* \"#utility.yul\":659:664   */\n  dup2\n    /* \"#utility.yul\":641:665   */\n  tag_10\n  jump\t// in\ntag_21:\n    /* \"#utility.yul\":634:639   */\n  dup2\n    /* \"#utility.yul\":631:666   */\n  eq\n    /* \"#utility.yul\":621:684   */\n  tag_22\n  jumpi\n    /* \"#utility.yul\":680:681   */\n  0x00\n    /* \"#utility.yul\":677:678   */\n  dup1\n    /* \"#utility.yul\":670:682   */\n  revert\n    /* \"#utility.yul\":621:684   */\ntag_22:\n    /* \"#utility.yul\":568:690   */\n  pop\n  jump\t// out\n    /* \"#utility.yul\":696:839   */\ntag_12:\n    /* \"#utility.yul\":753:758   */\n  0x00\n    /* \"#utility.yul\":784:790   */\n  dup2\n    /* \"#utility.yul\":778:791   */\n  mload\n    /* \"#utility.yul\":769:791   */\n  swap1\n  pop\n    /* \"#utility.yul\":800:833   */\n  tag_24\n    /* \"#utility.yul\":827:832   */\n  dup2\n    /* \"#utility.yul\":800:833   */\n  tag_11\n  jump\t// in\ntag_24:\n    /* \"#utility.yul\":696:839   */\n  swap3\n  swap2\n  pop\n  pop\n  jump\t// out\n    /* \"#utility.yul\":845:1196   */\ntag_2:\n    /* \"#utility.yul\":915:921   */\n  0x00\n    /* \"#utility.yul\":964:966   */\n  0x20\n    /* \"#utility.yul\":952:961   */\n  dup3\n    /* \"#utility.yul\":943:950   */\n  dup5\n    /* \"#utility.yul\":939:962   */\n  sub\n    /* \"#utility.yul\":935:967   */\n  slt\n    /* \"#utility.yul\":932:1051   */\n  iszero\n  tag_26\n  jumpi\n    /* \"#utility.yul\":970:1049   */\n  tag_27\n  tag_7\n  jump\t// in\ntag_27:\n    /* \"#utility.yul\":932:1051   */\ntag_26:\n    /* \"#utility.yul\":1090:1091   */\n  0x00\n    /* \"#utility.yul\":1115:1179   */\n  tag_28\n    /* \"#utility.yul\":1171:1178   */\n  dup5\n    /* \"#utility.yul\":1162:1168   */\n  dup3\n    /* \"#utility.yul\":1151:1160   */\n  dup6\n    /* \"#utility.yul\":1147:1169   */\n  add\n    /* \"#utility.yul\":1115:1179   */\n  tag_12\n  jump\t// in\ntag_28:\n    /* \"#utility.yul\":1105:1179   */\n  swap2\n  pop\n    /* \"#utility.yul\":1061:1189   */\n  pop\n    /* \"#utility.yul\":845:1196   */\n  swap3\n  swap2\n  pop\n  pop\n  jump\t// out\n    /* \"NFT_market_contract.sol\":345:9481  contract MarketContract is Imarket {... */\ntag_5:\n  dataSize(sub_0)\n  dup1\n  dataOffset(sub_0)\n  0x00\n  codecopy\n  0x00\n  return\nstop\n\nsub_0: assembly {\n        /* \"NFT_market_contract.sol\":345:9481  contract MarketContract is Imarket {... */\n      mstore(0x40, 0x80)\n      jumpi(tag_1, lt(calldatasize, 0x04))\n      shr(0xe0, calldataload(0x00))\n      dup1\n      0x7b84fda5\n      gt\n      tag_10\n      jumpi\n      dup1\n      0x7b84fda5\n      eq\n      tag_6\n      jumpi\n      dup1\n      0x84e5eed0\n      eq\n      tag_7\n      jumpi\n      dup1\n      0xc2a1d6c9\n      eq\n      tag_8\n      jumpi\n      dup1\n      0xc465db0a\n      eq\n      tag_9\n      jumpi\n      jump(tag_1)\n    tag_10:\n      dup1\n      0x07e4ac72\n      eq\n      tag_2\n      jumpi\n      dup1\n      0x1b5ea502\n      eq\n      tag_3\n      jumpi\n      dup1\n      0x38813781\n      eq\n      tag_4\n      jumpi\n      dup1\n      0x6aae5cda\n      eq\n      tag_5\n      jumpi\n    tag_1:\n      0x00\n      dup1\n      revert\n        /* \"NFT_market_contract.sol\":2139:2284  function setMall(address payable _mall) public {... */\n    tag_2:\n      callvalue\n      dup1\n      iszero\n      tag_11\n      jumpi\n      0x00\n      dup1\n      revert\n    tag_11:\n      pop\n      tag_12\n      0x04\n      dup1\n      calldatasize\n      sub\n      dup2\n      add\n      swap1\n      tag_13\n      swap2\n      swap1\n      tag_14\n      jump\t// in\n    tag_13:\n      tag_15\n      jump\t// in\n    tag_12:\n      stop\n        /* \"NFT_market_contract.sol\":2627:2778  function CancelSellOrder(... */\n    tag_3:\n      callvalue\n      dup1\n      iszero\n      tag_16\n      jumpi\n      0x00\n      dup1\n      revert\n    tag_16:\n      pop\n      tag_17\n      0x04\n      dup1\n      calldatasize\n      sub\n      dup2\n      add\n      swap1\n      tag_18\n      swap2\n      swap1\n      tag_19\n      jump\t// in\n    tag_18:\n      tag_20\n      jump\t// in\n    tag_17:\n      stop\n        /* \"NFT_market_contract.sol\":3520:7328  function matchOrder(... */\n    tag_4:\n      tag_21\n      0x04\n      dup1\n      calldatasize\n      sub\n      dup2\n      add\n      swap1\n      tag_22\n      swap2\n      swap1\n      tag_23\n      jump\t// in\n    tag_22:\n      tag_24\n      jump\t// in\n    tag_21:\n      stop\n        /* \"NFT_market_contract.sol\":8005:8420  function approveCollection(address collectionAddress) public {... */\n    tag_5:\n      callvalue\n      dup1\n      iszero\n      tag_25\n      jumpi\n      0x00\n      dup1\n      revert\n    tag_25:\n      pop\n      tag_26\n      0x04\n      dup1\n      calldatasize\n      sub\n      dup2\n      add\n      swap1\n      tag_27\n      swap2\n      swap1\n      tag_28\n      jump\t// in\n    tag_27:\n      tag_29\n      jump\t// in\n    tag_26:\n      stop\n        /* \"NFT_market_contract.sol\":1718:1966  function updateFeeRate(uint256 newFeeRate) public {... */\n    tag_6:\n      callvalue\n      dup1\n      iszero\n      tag_30\n      jumpi\n      0x00\n      dup1\n      revert\n    tag_30:\n      pop\n      tag_31\n      0x04\n      dup1\n      calldatasize\n      sub\n      dup2\n      add\n      swap1\n      tag_32\n      swap2\n      swap1\n      tag_33\n      jump\t// in\n    tag_32:\n      tag_34\n      jump\t// in\n    tag_31:\n      stop\n        /* \"NFT_market_contract.sol\":1994:2079  function getFeeRate() public view returns (uint256) {... */\n    tag_7:\n      callvalue\n      dup1\n      iszero\n      tag_35\n      jumpi\n      0x00\n      dup1\n      revert\n    tag_35:\n      pop\n      tag_36\n      tag_37\n      jump\t// in\n    tag_36:\n      mload(0x40)\n      tag_38\n      swap2\n      swap1\n      tag_39\n      jump\t// in\n    tag_38:\n      mload(0x40)\n      dup1\n      swap2\n      sub\n      swap1\n      return\n        /* \"NFT_market_contract.sol\":1213:1676  function createProxyWallet() public {... */\n    tag_8:\n      callvalue\n      dup1\n      iszero\n      tag_40\n      jumpi\n      0x00\n      dup1\n      revert\n    tag_40:\n      pop\n      tag_41\n      tag_42\n      jump\t// in\n    tag_41:\n      stop\n        /* \"NFT_market_contract.sol\":2334:2451  function getProxyWallet(address user) public view returns (address) {... */\n    tag_9:\n      callvalue\n      dup1\n      iszero\n      tag_43\n      jumpi\n      0x00\n      dup1\n      revert\n    tag_43:\n      pop\n      tag_44\n      0x04\n      dup1\n      calldatasize\n      sub\n      dup2\n      add\n      swap1\n      tag_45\n      swap2\n      swap1\n      tag_28\n      jump\t// in\n    tag_45:\n      tag_46\n      jump\t// in\n    tag_44:\n      mload(0x40)\n      tag_47\n      swap2\n      swap1\n      tag_48\n      jump\t// in\n    tag_47:\n      mload(0x40)\n      dup1\n      swap2\n      sub\n      swap1\n      return\n        /* \"NFT_market_contract.sol\":2139:2284  function setMall(address payable _mall) public {... */\n    tag_15:\n        /* \"NFT_market_contract.sol\":2219:2224  owner */\n      0x03\n      0x00\n      swap1\n      sload\n      swap1\n      0x0100\n      exp\n      swap1\n      div\n      0xffffffffffffffffffffffffffffffffffffffff\n      and\n        /* \"NFT_market_contract.sol\":2205:2224  msg.sender == owner */\n      0xffffffffffffffffffffffffffffffffffffffff\n      and\n        /* \"NFT_market_contract.sol\":2205:2215  msg.sender */\n      caller\n        /* \"NFT_market_contract.sol\":2205:2224  msg.sender == owner */\n      0xffffffffffffffffffffffffffffffffffffffff\n      and\n      eq\n        /* \"NFT_market_contract.sol\":2197:2253  require(msg.sender == owner, \"only owner can call this\") */\n      tag_50\n      jumpi\n      mload(0x40)\n      0x08c379a000000000000000000000000000000000000000000000000000000000\n      dup2\n      mstore\n      0x04\n      add\n      tag_51\n      swap1\n      tag_52\n      jump\t// in\n    tag_51:\n      mload(0x40)\n      dup1\n      swap2\n      sub\n      swap1\n      revert\n    tag_50:\n        /* \"NFT_market_contract.sol\":2271:2276  _mall */\n      dup1\n        /* \"NFT_market_contract.sol\":2264:2268  mall */\n      0x01\n      0x00\n        /* \"NFT_market_contract.sol\":2264:2276  mall = _mall */\n      0x0100\n      exp\n      dup2\n      sload\n      dup2\n      0xffffffffffffffffffffffffffffffffffffffff\n      mul\n      not\n      and\n      swap1\n      dup4\n      0xffffffffffffffffffffffffffffffffffffffff\n      and\n      mul\n      or\n      swap1\n      sstore\n      pop\n        /* \"NFT_market_contract.sol\":2139:2284  function setMall(address payable _mall) public {... */\n      pop\n      jump\t// out\n        /* \"NFT_market_contract.sol\":2627:2778  function CancelSellOrder(... */\n    tag_20:\n        /* \"NFT_market_contract.sol\":2714:2723  sellOrder */\n      dup1\n        /* \"NFT_market_contract.sol\":2714:2730  sellOrder.seller */\n      0x00\n      add\n      mload\n        /* \"NFT_market_contract.sol\":2554:2560  seller */\n      dup1\n        /* \"NFT_market_contract.sol\":2540:2560  msg.sender == seller */\n      0xffffffffffffffffffffffffffffffffffffffff\n      and\n        /* \"NFT_market_contract.sol\":2540:2550  msg.sender */\n      caller\n        /* \"NFT_market_contract.sol\":2540:2560  msg.sender == seller */\n      0xffffffffffffffffffffffffffffffffffffffff\n      and\n      eq\n        /* \"NFT_market_contract.sol\":2532:2599  require(msg.sender == seller, \"Only seller can call this function\") */\n      tag_54\n      jumpi\n      mload(0x40)\n      0x08c379a000000000000000000000000000000000000000000000000000000000\n      dup2\n      mstore\n      0x04\n      add\n      tag_55\n      swap1\n      tag_56\n      jump\t// in\n    tag_55:\n      mload(0x40)\n      dup1\n      swap2\n      sub\n      swap1\n      revert\n    tag_54:\n        /* \"NFT_market_contract.sol\":2743:2770  _cancelSellOrder(sellOrder) */\n      tag_58\n        /* \"NFT_market_contract.sol\":2760:2769  sellOrder */\n      dup3\n        /* \"NFT_market_contract.sol\":2743:2759  _cancelSellOrder */\n      tag_59\n        /* \"NFT_market_contract.sol\":2743:2770  _cancelSellOrder(sellOrder) */\n      jump\t// in\n    tag_58:\n        /* \"NFT_market_contract.sol\":2627:2778  function CancelSellOrder(... */\n      pop\n      pop\n      jump\t// out\n        /* \"NFT_market_contract.sol\":3520:7328  function matchOrder(... */\n    tag_24:\n        /* \"NFT_market_contract.sol\":3911:3937  SellOrder memory sellOrder */\n      0x00\n        /* \"NFT_market_contract.sol\":3940:4123  SellOrder(... */\n      mload(0x40)\n      dup1\n      0xe0\n      add\n      0x40\n      mstore\n      dup1\n        /* \"NFT_market_contract.sol\":3964:3970  seller */\n      dup10\n        /* \"NFT_market_contract.sol\":3940:4123  SellOrder(... */\n      0xffffffffffffffffffffffffffffffffffffffff\n      and\n      dup2\n      mstore\n      0x20\n      add\n        /* \"NFT_market_contract.sol\":3985:3995  contractID */\n      dup9\n        /* \"NFT_market_contract.sol\":3940:4123  SellOrder(... */\n      0xffffffffffffffffffffffffffffffffffffffff\n      and\n      dup2\n      mstore\n      0x20\n      add\n        /* \"NFT_market_contract.sol\":4010:4017  tokenID */\n      dup8\n        /* \"NFT_market_contract.sol\":3940:4123  SellOrder(... */\n      dup2\n      mstore\n      0x20\n      add\n        /* \"NFT_market_contract.sol\":4032:4037  price */\n      dup7\n        /* \"NFT_market_contract.sol\":3940:4123  SellOrder(... */\n      dup2\n      mstore\n      0x20\n      add\n        /* \"NFT_market_contract.sol\":4052:4061  signature */\n      dup6\n        /* \"NFT_market_contract.sol\":3940:4123  SellOrder(... */\n      dup2\n      mstore\n      0x20\n      add\n        /* \"NFT_market_contract.sol\":4076:4090  expirationTime */\n      dup5\n        /* \"NFT_market_contract.sol\":3940:4123  SellOrder(... */\n      dup2\n      mstore\n      0x20\n      add\n        /* \"NFT_market_contract.sol\":4105:4112  orderID */\n      dup4\n        /* \"NFT_market_contract.sol\":3940:4123  SellOrder(... */\n      dup2\n      mstore\n      pop\n        /* \"NFT_market_contract.sol\":3911:4123  SellOrder memory sellOrder = SellOrder(... */\n      swap1\n      pop\n        /* \"NFT_market_contract.sol\":4134:4148  uint256 _value */\n      0x00\n        /* \"NFT_market_contract.sol\":4151:4160  msg.value */\n      callvalue\n        /* \"NFT_market_contract.sol\":4134:4160  uint256 _value = msg.value */\n      swap1\n      pop\n        /* \"NFT_market_contract.sol\":4171:4182  uint256 fee */\n      0x00\n        /* \"NFT_market_contract.sol\":4185:4222  sellOrder.price.mul(feeRate).div(100) */\n      tag_61\n        /* \"NFT_market_contract.sol\":4218:4221  100 */\n      0x64\n        /* \"NFT_market_contract.sol\":4185:4213  sellOrder.price.mul(feeRate) */\n      tag_62\n        /* \"NFT_market_contract.sol\":4205:4212  feeRate */\n      sload(0x02)\n        /* \"NFT_market_contract.sol\":4185:4194  sellOrder */\n      dup7\n        /* \"NFT_market_contract.sol\":4185:4200  sellOrder.price */\n      0x60\n      add\n      mload\n        /* \"NFT_market_contract.sol\":4185:4204  sellOrder.price.mul */\n      tag_63\n      swap1\n        /* \"NFT_market_contract.sol\":4185:4213  sellOrder.price.mul(feeRate) */\n      swap2\n      swap1\n      0xffffffff\n      and\n      jump\t// in\n    tag_62:\n        /* \"NFT_market_contract.sol\":4185:4217  sellOrder.price.mul(feeRate).div */\n      tag_64\n      swap1\n        /* \"NFT_market_contract.sol\":4185:4222  sellOrder.price.mul(feeRate).div(100) */\n      swap2\n      swap1\n      0xffffffff\n      and\n      jump\t// in\n    tag_61:\n        /* \"NFT_market_contract.sol\":4171:4222  uint256 fee = sellOrder.price.mul(feeRate).div(100) */\n      swap1\n      pop\n        /* \"NFT_market_contract.sol\":4305:4560  verifySignature(... */\n      tag_65\n        /* \"NFT_market_contract.sol\":4339:4348  sellOrder */\n      dup4\n        /* \"NFT_market_contract.sol\":4339:4355  sellOrder.seller */\n      0x00\n      add\n      mload\n        /* \"NFT_market_contract.sol\":4374:4383  sellOrder */\n      dup5\n        /* \"NFT_market_contract.sol\":4374:4394  sellOrder.contractID */\n      0x20\n      add\n      mload\n        /* \"NFT_market_contract.sol\":4413:4422  sellOrder */\n      dup6\n        /* \"NFT_market_contract.sol\":4413:4430  sellOrder.tokenID */\n      0x40\n      add\n      mload\n        /* \"NFT_market_contract.sol\":4449:4458  sellOrder */\n      dup7\n        /* \"NFT_market_contract.sol\":4449:4464  sellOrder.price */\n      0x60\n      add\n      mload\n        /* \"NFT_market_contract.sol\":4483:4492  sellOrder */\n      dup8\n        /* \"NFT_market_contract.sol\":4483:4502  sellOrder.signature */\n      0x80\n      add\n      mload\n        /* \"NFT_market_contract.sol\":4521:4530  sellOrder */\n      dup9\n        /* \"NFT_market_contract.sol\":4521:4545  sellOrder.expirationTime */\n      0xa0\n      add\n      mload\n        /* \"NFT_market_contract.sol\":4305:4320  verifySignature */\n      tag_66\n        /* \"NFT_market_contract.sol\":4305:4560  verifySignature(... */\n      jump\t// in\n    tag_65:\n        /* \"NFT_market_contract.sol\":4283:4605  require(... */\n      tag_67\n      jumpi\n      mload(0x40)\n      0x08c379a000000000000000000000000000000000000000000000000000000000\n      dup2\n      mstore\n      0x04\n      add\n      tag_68\n      swap1\n      tag_69\n      jump\t// in\n    tag_68:\n      mload(0x40)\n      dup1\n      swap2\n      sub\n      swap1\n      revert\n    tag_67:\n        /* \"NFT_market_contract.sol\":4662:4685  address proxyWallet_Buy */\n      0x00\n        /* \"NFT_market_contract.sol\":4688:4705  userToProxyWallet */\n      0x04\n        /* \"NFT_market_contract.sol\":4688:4717  userToProxyWallet[msg.sender] */\n      0x00\n        /* \"NFT_market_contract.sol\":4706:4716  msg.sender */\n      caller\n        /* \"NFT_market_contract.sol\":4688:4717  userToProxyWallet[msg.sender] */\n      0xffffffffffffffffffffffffffffffffffffffff\n      and\n      0xffffffffffffffffffffffffffffffffffffffff\n      and\n      dup2\n      mstore\n      0x20\n      add\n      swap1\n      dup2\n      mstore\n      0x20\n      add\n      0x00\n      keccak256\n      0x00\n      swap1\n      sload\n      swap1\n      0x0100\n      exp\n      swap1\n      div\n      0xffffffffffffffffffffffffffffffffffffffff\n      and\n        /* \"NFT_market_contract.sol\":4662:4717  address proxyWallet_Buy = userToProxyWallet[msg.sender] */\n      swap1\n      pop\n        /* \"NFT_market_contract.sol\":4728:4752  address proxyWallet_Sell */\n      0x00\n        /* \"NFT_market_contract.sol\":4755:4772  userToProxyWallet */\n      0x04\n        /* \"NFT_market_contract.sol\":4755:4790  userToProxyWallet[sellOrder.seller] */\n      0x00\n        /* \"NFT_market_contract.sol\":4773:4782  sellOrder */\n      dup7\n        /* \"NFT_market_contract.sol\":4773:4789  sellOrder.seller */\n      0x00\n      add\n      mload\n        /* \"NFT_market_contract.sol\":4755:4790  userToProxyWallet[sellOrder.seller] */\n      0xffffffffffffffffffffffffffffffffffffffff\n      and\n      0xffffffffffffffffffffffffffffffffffffffff\n      and\n      dup2\n      mstore\n      0x20\n      add\n      swap1\n      dup2\n      mstore\n      0x20\n      add\n      0x00\n      keccak256\n      0x00\n      swap1\n      sload\n      swap1\n      0x0100\n      exp\n      swap1\n      div\n      0xffffffffffffffffffffffffffffffffffffffff\n      and\n        /* \"NFT_market_contract.sol\":4728:4790  address proxyWallet_Sell = userToProxyWallet[sellOrder.seller] */\n      swap1\n      pop\n        /* \"NFT_market_contract.sol\":4866:4867  0 */\n      0x00\n        /* \"NFT_market_contract.sol\":4825:4868  userToProxyWallet[msg.sender] != address(0) */\n      0xffffffffffffffffffffffffffffffffffffffff\n      and\n        /* \"NFT_market_contract.sol\":4825:4842  userToProxyWallet */\n      0x04\n        /* \"NFT_market_contract.sol\":4825:4854  userToProxyWallet[msg.sender] */\n      0x00\n        /* \"NFT_market_contract.sol\":4843:4853  msg.sender */\n      caller\n        /* \"NFT_market_contract.sol\":4825:4854  userToProxyWallet[msg.sender] */\n      0xffffffffffffffffffffffffffffffffffffffff\n      and\n      0xffffffffffffffffffffffffffffffffffffffff\n      and\n      dup2\n      mstore\n      0x20\n      add\n      swap1\n      dup2\n      mstore\n      0x20\n      add\n      0x00\n      keccak256\n      0x00\n      swap1\n      sload\n      swap1\n      0x0100\n      exp\n      swap1\n      div\n      0xffffffffffffffffffffffffffffffffffffffff\n      and\n        /* \"NFT_market_contract.sol\":4825:4868  userToProxyWallet[msg.sender] != address(0) */\n      0xffffffffffffffffffffffffffffffffffffffff\n      and\n      sub\n        /* \"NFT_market_contract.sol\":4803:4918  require(... */\n      tag_70\n      jumpi\n      mload(0x40)\n      0x08c379a000000000000000000000000000000000000000000000000000000000\n      dup2\n      mstore\n      0x04\n      add\n      tag_71\n      swap1\n      tag_72\n      jump\t// in\n    tag_71:\n      mload(0x40)\n      dup1\n      swap2\n      sub\n      swap1\n      revert\n    tag_70:\n        /* \"NFT_market_contract.sol\":4998:4999  0 */\n      0x00\n        /* \"NFT_market_contract.sol\":4951:5000  userToProxyWallet[sellOrder.seller] != address(0) */\n      0xffffffffffffffffffffffffffffffffffffffff\n      and\n        /* \"NFT_market_contract.sol\":4951:4968  userToProxyWallet */\n      0x04\n        /* \"NFT_market_contract.sol\":4951:4986  userToProxyWallet[sellOrder.seller] */\n      0x00\n        /* \"NFT_market_contract.sol\":4969:4978  sellOrder */\n      dup8\n        /* \"NFT_market_contract.sol\":4969:4985  sellOrder.seller */\n      0x00\n      add\n      mload\n        /* \"NFT_market_contract.sol\":4951:4986  userToProxyWallet[sellOrder.seller] */\n      0xffffffffffffffffffffffffffffffffffffffff\n      and\n      0xffffffffffffffffffffffffffffffffffffffff\n      and\n      dup2\n      mstore\n      0x20\n      add\n      swap1\n      dup2\n      mstore\n      0x20\n      add\n      0x00\n      keccak256\n      0x00\n      swap1\n      sload\n      swap1\n      0x0100\n      exp\n      swap1\n      div\n      0xffffffffffffffffffffffffffffffffffffffff\n      and\n        /* \"NFT_market_contract.sol\":4951:5000  userToProxyWallet[sellOrder.seller] != address(0) */\n      0xffffffffffffffffffffffffffffffffffffffff\n      and\n      sub\n        /* \"NFT_market_contract.sol\":4929:5050  require(... */\n      tag_73\n      jumpi\n      mload(0x40)\n      0x08c379a000000000000000000000000000000000000000000000000000000000\n      dup2\n      mstore\n      0x04\n      add\n      tag_74\n      swap1\n      tag_72\n      jump\t// in\n    tag_74:\n      mload(0x40)\n      dup1\n      swap2\n      sub\n      swap1\n      revert\n    tag_73:\n        /* \"NFT_market_contract.sol\":5218:5227  sellOrder */\n      dup5\n        /* \"NFT_market_contract.sol\":5218:5234  sellOrder.seller */\n      0x00\n      add\n      mload\n        /* \"NFT_market_contract.sol\":5141:5234  IERC721(sellOrder.contractID).ownerOf(sellOrder.tokenID) ==... */\n      0xffffffffffffffffffffffffffffffffffffffff\n      and\n        /* \"NFT_market_contract.sol\":5149:5158  sellOrder */\n      dup6\n        /* \"NFT_market_contract.sol\":5149:5169  sellOrder.contractID */\n      0x20\n      add\n      mload\n        /* \"NFT_market_contract.sol\":5141:5178  IERC721(sellOrder.contractID).ownerOf */\n      0xffffffffffffffffffffffffffffffffffffffff\n      and\n      0x6352211e\n        /* \"NFT_market_contract.sol\":5179:5188  sellOrder */\n      dup8\n        /* \"NFT_market_contract.sol\":5179:5196  sellOrder.tokenID */\n      0x40\n      add\n      mload\n        /* \"NFT_market_contract.sol\":5141:5197  IERC721(sellOrder.contractID).ownerOf(sellOrder.tokenID) */\n      mload(0x40)\n      dup3\n      0xffffffff\n      and\n      0xe0\n      shl\n      dup2\n      mstore\n      0x04\n      add\n      tag_75\n      swap2\n      swap1\n      tag_39\n      jump\t// in\n    tag_75:\n      0x20\n      mload(0x40)\n      dup1\n      dup4\n      sub\n      dup2\n      dup7\n      gas\n      staticcall\n      iszero\n      dup1\n      iszero\n      tag_77\n      jumpi\n      returndatasize\n      0x00\n      dup1\n      returndatacopy\n      revert(0x00, returndatasize)\n    tag_77:\n      pop\n      pop\n      pop\n      pop\n      mload(0x40)\n      returndatasize\n      not(0x1f)\n      0x1f\n      dup3\n      add\n      and\n      dup3\n      add\n      dup1\n      0x40\n      mstore\n      pop\n      dup2\n      add\n      swap1\n      tag_78\n      swap2\n      swap1\n      tag_79\n      jump\t// in\n    tag_78:\n        /* \"NFT_market_contract.sol\":5141:5234  IERC721(sellOrder.contractID).ownerOf(sellOrder.tokenID) ==... */\n      0xffffffffffffffffffffffffffffffffffffffff\n      and\n      eq\n        /* \"NFT_market_contract.sol\":5119:5299  require(... */\n      tag_80\n      jumpi\n      mload(0x40)\n      0x08c379a000000000000000000000000000000000000000000000000000000000\n      dup2\n      mstore\n      0x04\n      add\n      tag_81\n      swap1\n      tag_82\n      jump\t// in\n    tag_81:\n      mload(0x40)\n      dup1\n      swap2\n      sub\n      swap1\n      revert\n    tag_80:\n        /* \"NFT_market_contract.sol\":5370:5379  sellOrder */\n      dup5\n        /* \"NFT_market_contract.sol\":5370:5394  sellOrder.expirationTime */\n      0xa0\n      add\n      mload\n        /* \"NFT_market_contract.sol\":5352:5367  block.timestamp */\n      timestamp\n        /* \"NFT_market_contract.sol\":5352:5394  block.timestamp > sellOrder.expirationTime */\n      gt\n        /* \"NFT_market_contract.sol\":5348:5664  if (block.timestamp > sellOrder.expirationTime) {... */\n      iszero\n      tag_83\n      jumpi\n        /* \"NFT_market_contract.sol\":5411:5438  _cancelSellOrder(sellOrder) */\n      tag_84\n        /* \"NFT_market_contract.sol\":5428:5437  sellOrder */\n      dup6\n        /* \"NFT_market_contract.sol\":5411:5427  _cancelSellOrder */\n      tag_59\n        /* \"NFT_market_contract.sol\":5411:5438  _cancelSellOrder(sellOrder) */\n      jump\t// in\n    tag_84:\n        /* \"NFT_market_contract.sol\":5524:5533  sellOrder */\n      dup5\n        /* \"NFT_market_contract.sol\":5524:5544  sellOrder.contractID */\n      0x20\n      add\n      mload\n        /* \"NFT_market_contract.sol\":5458:5631  OrderExpired(... */\n      0xffffffffffffffffffffffffffffffffffffffff\n      and\n        /* \"NFT_market_contract.sol\":5489:5498  sellOrder */\n      dup6\n        /* \"NFT_market_contract.sol\":5489:5505  sellOrder.seller */\n      0x00\n      add\n      mload\n        /* \"NFT_market_contract.sol\":5458:5631  OrderExpired(... */\n      0xffffffffffffffffffffffffffffffffffffffff\n      and\n      0x68138f0ee854a322025bc4fdf83bf151264d42cbc5930a3afc396a82980028d6\n        /* \"NFT_market_contract.sol\":5563:5572  sellOrder */\n      dup8\n        /* \"NFT_market_contract.sol\":5563:5580  sellOrder.orderID */\n      0xc0\n      add\n      mload\n        /* \"NFT_market_contract.sol\":5599:5608  sellOrder */\n      dup9\n        /* \"NFT_market_contract.sol\":5599:5616  sellOrder.tokenID */\n      0x40\n      add\n      mload\n        /* \"NFT_market_contract.sol\":5458:5631  OrderExpired(... */\n      mload(0x40)\n      tag_85\n      swap3\n      swap2\n      swap1\n      tag_86\n      jump\t// in\n    tag_85:\n      mload(0x40)\n      dup1\n      swap2\n      sub\n      swap1\n      log3\n        /* \"NFT_market_contract.sol\":5646:5653  return; */\n      pop\n      pop\n      pop\n      pop\n      pop\n      jump(tag_60)\n        /* \"NFT_market_contract.sol\":5348:5664  if (block.timestamp > sellOrder.expirationTime) {... */\n    tag_83:\n        /* \"NFT_market_contract.sol\":5752:5764  bytes32 Hash */\n      0x00\n        /* \"NFT_market_contract.sol\":5826:5835  sellOrder */\n      dup6\n        /* \"NFT_market_contract.sol\":5826:5846  sellOrder.contractID */\n      0x20\n      add\n      mload\n        /* \"NFT_market_contract.sol\":5865:5874  sellOrder */\n      dup7\n        /* \"NFT_market_contract.sol\":5865:5882  sellOrder.tokenID */\n      0x40\n      add\n      mload\n        /* \"NFT_market_contract.sol\":5901:5910  sellOrder */\n      dup8\n        /* \"NFT_market_contract.sol\":5901:5916  sellOrder.price */\n      0x60\n      add\n      mload\n        /* \"NFT_market_contract.sol\":5935:5944  sellOrder */\n      dup9\n        /* \"NFT_market_contract.sol\":5935:5959  sellOrder.expirationTime */\n      0xa0\n      add\n      mload\n        /* \"NFT_market_contract.sol\":5978:5987  sellOrder */\n      dup10\n        /* \"NFT_market_contract.sol\":5978:5997  sellOrder.signature */\n      0x80\n      add\n      mload\n        /* \"NFT_market_contract.sol\":5791:6012  abi.encodePacked(... */\n      add(0x20, mload(0x40))\n      tag_87\n      swap6\n      swap5\n      swap4\n      swap3\n      swap2\n      swap1\n      tag_88\n      jump\t// in\n    tag_87:\n      mload(0x40)\n      0x20\n      dup2\n      dup4\n      sub\n      sub\n      dup2\n      mstore\n      swap1\n      0x40\n      mstore\n        /* \"NFT_market_contract.sol\":5767:6023  keccak256(... */\n      dup1\n      mload\n      swap1\n      0x20\n      add\n      keccak256\n        /* \"NFT_market_contract.sol\":5752:6023  bytes32 Hash = keccak256(... */\n      swap1\n      pop\n        /* \"NFT_market_contract.sol\":6035:6047  bool isValid */\n      0x00\n        /* \"NFT_market_contract.sol\":6049:6067  bytes memory datas */\n      dup1\n        /* \"NFT_market_contract.sol\":6071:6087  proxyWallet_Sell */\n      dup4\n        /* \"NFT_market_contract.sol\":6071:6092  proxyWallet_Sell.call */\n      0xffffffffffffffffffffffffffffffffffffffff\n      and\n        /* \"NFT_market_contract.sol\":6158:6162  Hash */\n      dup4\n        /* \"NFT_market_contract.sol\":6107:6163  abi.encodeWithSignature(\"isOrderInvalid(bytes32)\", Hash) */\n      add(0x24, mload(0x40))\n      tag_89\n      swap2\n      swap1\n      tag_90\n      jump\t// in\n    tag_89:\n      mload(0x40)\n      0x20\n      dup2\n      dup4\n      sub\n      sub\n      dup2\n      mstore\n      swap1\n      0x40\n      mstore\n      and(not(0xffffffffffffffffffffffffffffffffffffffffffffffffffffffff), 0xeb41850d00000000000000000000000000000000000000000000000000000000)\n      0x20\n      dup3\n      add\n      dup1\n      mload\n      0xffffffffffffffffffffffffffffffffffffffffffffffffffffffff\n      dup4\n      dup2\n      dup4\n      and\n      or\n      dup4\n      mstore\n      pop\n      pop\n      pop\n      pop\n        /* \"NFT_market_contract.sol\":6071:6174  proxyWallet_Sell.call(... */\n      mload(0x40)\n      tag_91\n      swap2\n      swap1\n      tag_92\n      jump\t// in\n    tag_91:\n      0x00\n      mload(0x40)\n      dup1\n      dup4\n      sub\n      dup2\n      0x00\n      dup7\n      gas\n      call\n      swap2\n      pop\n      pop\n      returndatasize\n      dup1\n      0x00\n      dup2\n      eq\n      tag_95\n      jumpi\n      mload(0x40)\n      swap2\n      pop\n      and(add(returndatasize, 0x3f), not(0x1f))\n      dup3\n      add\n      0x40\n      mstore\n      returndatasize\n      dup3\n      mstore\n      returndatasize\n      0x00\n      0x20\n      dup5\n      add\n      returndatacopy\n      jump(tag_94)\n    tag_95:\n      0x60\n      swap2\n      pop\n    tag_94:\n      pop\n        /* \"NFT_market_contract.sol\":6034:6174  (bool isValid, bytes memory datas) = proxyWallet_Sell.call(... */\n      swap2\n      pop\n      swap2\n      pop\n        /* \"NFT_market_contract.sol\":6220:6237  bool isOrderValid */\n      0x00\n        /* \"NFT_market_contract.sol\":6251:6256  datas */\n      dup2\n        /* \"NFT_market_contract.sol\":6240:6265  abi.decode(datas, (bool)) */\n      dup1\n      0x20\n      add\n      swap1\n      mload\n      dup2\n      add\n      swap1\n      tag_96\n      swap2\n      swap1\n      tag_97\n      jump\t// in\n    tag_96:\n        /* \"NFT_market_contract.sol\":6220:6265  bool isOrderValid = abi.decode(datas, (bool)) */\n      swap1\n      pop\n        /* \"NFT_market_contract.sol\":6284:6291  isValid */\n      dup3\n        /* \"NFT_market_contract.sol\":6284:6308  isValid && !isOrderValid */\n      dup1\n      iszero\n      tag_98\n      jumpi\n      pop\n        /* \"NFT_market_contract.sol\":6296:6308  isOrderValid */\n      dup1\n        /* \"NFT_market_contract.sol\":6295:6308  !isOrderValid */\n      iszero\n        /* \"NFT_market_contract.sol\":6284:6308  isValid && !isOrderValid */\n    tag_98:\n        /* \"NFT_market_contract.sol\":6276:6331  require(isValid && !isOrderValid, \"Order is not valid\") */\n      tag_99\n      jumpi\n      mload(0x40)\n      0x08c379a000000000000000000000000000000000000000000000000000000000\n      dup2\n      mstore\n      0x04\n      add\n      tag_100\n      swap1\n      tag_101\n      jump\t// in\n    tag_100:\n      mload(0x40)\n      dup1\n      swap2\n      sub\n      swap1\n      revert\n    tag_99:\n        /* \"NFT_market_contract.sol\":6407:6419  bool success */\n      0x00\n        /* \"NFT_market_contract.sol\":6421:6438  bytes memory data */\n      dup1\n        /* \"NFT_market_contract.sol\":6442:6458  proxyWallet_Sell */\n      dup7\n        /* \"NFT_market_contract.sol\":6442:6463  proxyWallet_Sell.call */\n      0xffffffffffffffffffffffffffffffffffffffff\n      and\n        /* \"NFT_market_contract.sol\":6622:6631  sellOrder */\n      dup12\n        /* \"NFT_market_contract.sol\":6659:6662  fee */\n      dup11\n        /* \"NFT_market_contract.sol\":6650:6656  _value */\n      dup13\n        /* \"NFT_market_contract.sol\":6650:6662  _value - fee */\n      tag_102\n      swap2\n      swap1\n      tag_103\n      jump\t// in\n    tag_102:\n        /* \"NFT_market_contract.sol\":6681:6691  msg.sender */\n      caller\n        /* \"NFT_market_contract.sol\":6478:6706  abi.encodeWithSignature(... */\n      add(0x24, mload(0x40))\n      tag_104\n      swap4\n      swap3\n      swap2\n      swap1\n      tag_105\n      jump\t// in\n    tag_104:\n      mload(0x40)\n      0x20\n      dup2\n      dup4\n      sub\n      sub\n      dup2\n      mstore\n      swap1\n      0x40\n      mstore\n      and(not(0xffffffffffffffffffffffffffffffffffffffffffffffffffffffff), 0x08ac144e00000000000000000000000000000000000000000000000000000000)\n      0x20\n      dup3\n      add\n      dup1\n      mload\n      0xffffffffffffffffffffffffffffffffffffffffffffffffffffffff\n      dup4\n      dup2\n      dup4\n      and\n      or\n      dup4\n      mstore\n      pop\n      pop\n      pop\n      pop\n        /* \"NFT_market_contract.sol\":6442:6717  proxyWallet_Sell.call(... */\n      mload(0x40)\n      tag_106\n      swap2\n      swap1\n      tag_92\n      jump\t// in\n    tag_106:\n      0x00\n      mload(0x40)\n      dup1\n      dup4\n      sub\n      dup2\n      0x00\n      dup7\n      gas\n      call\n      swap2\n      pop\n      pop\n      returndatasize\n      dup1\n      0x00\n      dup2\n      eq\n      tag_109\n      jumpi\n      mload(0x40)\n      swap2\n      pop\n      and(add(returndatasize, 0x3f), not(0x1f))\n      dup3\n      add\n      0x40\n      mstore\n      returndatasize\n      dup3\n      mstore\n      returndatasize\n      0x00\n      0x20\n      dup5\n      add\n      returndatacopy\n      jump(tag_108)\n    tag_109:\n      0x60\n      swap2\n      pop\n    tag_108:\n      pop\n        /* \"NFT_market_contract.sol\":6406:6717  (bool success, bytes memory data) = proxyWallet_Sell.call(... */\n      swap2\n      pop\n      swap2\n      pop\n        /* \"NFT_market_contract.sol\":6832:6842  msg.sender */\n      caller\n        /* \"NFT_market_contract.sol\":6773:6842  IERC721(sellOrder.contractID).ownerOf(sellOrder.tokenID) ==msg.sender */\n      0xffffffffffffffffffffffffffffffffffffffff\n      and\n        /* \"NFT_market_contract.sol\":6781:6790  sellOrder */\n      dup12\n        /* \"NFT_market_contract.sol\":6781:6801  sellOrder.contractID */\n      0x20\n      add\n      mload\n        /* \"NFT_market_contract.sol\":6773:6810  IERC721(sellOrder.contractID).ownerOf */\n      0xffffffffffffffffffffffffffffffffffffffff\n      and\n      0x6352211e\n        /* \"NFT_market_contract.sol\":6811:6820  sellOrder */\n      dup14\n        /* \"NFT_market_contract.sol\":6811:6828  sellOrder.tokenID */\n      0x40\n      add\n      mload\n        /* \"NFT_market_contract.sol\":6773:6829  IERC721(sellOrder.contractID).ownerOf(sellOrder.tokenID) */\n      mload(0x40)\n      dup3\n      0xffffffff\n      and\n      0xe0\n      shl\n      dup2\n      mstore\n      0x04\n      add\n      tag_110\n      swap2\n      swap1\n      tag_39\n      jump\t// in\n    tag_110:\n      0x20\n      mload(0x40)\n      dup1\n      dup4\n      sub\n      dup2\n      dup7\n      gas\n      staticcall\n      iszero\n      dup1\n      iszero\n      tag_112\n      jumpi\n      returndatasize\n      0x00\n      dup1\n      returndatacopy\n      revert(0x00, returndatasize)\n    tag_112:\n      pop\n      pop\n      pop\n      pop\n      mload(0x40)\n      returndatasize\n      not(0x1f)\n      0x1f\n      dup3\n      add\n      and\n      dup3\n      add\n      dup1\n      0x40\n      mstore\n      pop\n      dup2\n      add\n      swap1\n      tag_113\n      swap2\n      swap1\n      tag_79\n      jump\t// in\n    tag_113:\n        /* \"NFT_market_contract.sol\":6773:6842  IERC721(sellOrder.contractID).ownerOf(sellOrder.tokenID) ==msg.sender */\n      0xffffffffffffffffffffffffffffffffffffffff\n      and\n      sub\n        /* \"NFT_market_contract.sol\":6770:7321  if(IERC721(sellOrder.contractID).ownerOf(sellOrder.tokenID) ==msg.sender)... */\n      tag_114\n      jumpi\n        /* \"NFT_market_contract.sol\":6896:6919  matchsuccess(sellOrder) */\n      tag_115\n        /* \"NFT_market_contract.sol\":6909:6918  sellOrder */\n      dup12\n        /* \"NFT_market_contract.sol\":6896:6908  matchsuccess */\n      tag_116\n        /* \"NFT_market_contract.sol\":6896:6919  matchsuccess(sellOrder) */\n      jump\t// in\n    tag_115:\n        /* \"NFT_market_contract.sol\":6943:6947  mall */\n      0x01\n      0x00\n      swap1\n      sload\n      swap1\n      0x0100\n      exp\n      swap1\n      div\n      0xffffffffffffffffffffffffffffffffffffffff\n      and\n        /* \"NFT_market_contract.sol\":6935:6957  payable(mall).transfer */\n      0xffffffffffffffffffffffffffffffffffffffff\n      and\n        /* \"NFT_market_contract.sol\":6935:6962  payable(mall).transfer(fee) */\n      0x08fc\n        /* \"NFT_market_contract.sol\":6958:6961  fee */\n      dup11\n        /* \"NFT_market_contract.sol\":6935:6962  payable(mall).transfer(fee) */\n      swap1\n      dup2\n      iszero\n      mul\n      swap1\n      mload(0x40)\n      0x00\n      mload(0x40)\n      dup1\n      dup4\n      sub\n      dup2\n      dup6\n      dup9\n      dup9\n      call\n      swap4\n      pop\n      pop\n      pop\n      pop\n      iszero\n      dup1\n      iszero\n      tag_118\n      jumpi\n      returndatasize\n      0x00\n      dup1\n      returndatacopy\n      revert(0x00, returndatasize)\n    tag_118:\n      pop\n        /* \"NFT_market_contract.sol\":7058:7067  sellOrder */\n      dup11\n        /* \"NFT_market_contract.sol\":7058:7074  sellOrder.seller */\n      0x00\n      add\n      mload\n        /* \"NFT_market_contract.sol\":7050:7080  payable(sellOrder.seller).send */\n      0xffffffffffffffffffffffffffffffffffffffff\n      and\n        /* \"NFT_market_contract.sol\":7050:7094  payable(sellOrder.seller).send(_value - fee) */\n      0x08fc\n        /* \"NFT_market_contract.sol\":7090:7093  fee */\n      dup11\n        /* \"NFT_market_contract.sol\":7081:7087  _value */\n      dup13\n        /* \"NFT_market_contract.sol\":7081:7093  _value - fee */\n      tag_119\n      swap2\n      swap1\n      tag_103\n      jump\t// in\n    tag_119:\n        /* \"NFT_market_contract.sol\":7050:7094  payable(sellOrder.seller).send(_value - fee) */\n      swap1\n      dup2\n      iszero\n      mul\n      swap1\n      mload(0x40)\n      0x00\n      mload(0x40)\n      dup1\n      dup4\n      sub\n      dup2\n      dup6\n      dup9\n      dup9\n      call\n      swap4\n      pop\n      pop\n      pop\n      pop\n        /* \"NFT_market_contract.sol\":7045:7225  if (!payable(sellOrder.seller).send(_value - fee)) {... */\n      tag_121\n      jumpi\n        /* \"NFT_market_contract.sol\":7123:7133  msg.sender */\n      caller\n        /* \"NFT_market_contract.sol\":7115:7143  payable(msg.sender).transfer */\n      0xffffffffffffffffffffffffffffffffffffffff\n      and\n        /* \"NFT_market_contract.sol\":7115:7157  payable(msg.sender).transfer(_value - fee) */\n      0x08fc\n        /* \"NFT_market_contract.sol\":7153:7156  fee */\n      dup11\n        /* \"NFT_market_contract.sol\":7144:7150  _value */\n      dup13\n        /* \"NFT_market_contract.sol\":7144:7156  _value - fee */\n      tag_122\n      swap2\n      swap1\n      tag_103\n      jump\t// in\n    tag_122:\n        /* \"NFT_market_contract.sol\":7115:7157  payable(msg.sender).transfer(_value - fee) */\n      swap1\n      dup2\n      iszero\n      mul\n      swap1\n      mload(0x40)\n      0x00\n      mload(0x40)\n      dup1\n      dup4\n      sub\n      dup2\n      dup6\n      dup9\n      dup9\n      call\n      swap4\n      pop\n      pop\n      pop\n      pop\n      iszero\n      dup1\n      iszero\n      tag_124\n      jumpi\n      returndatasize\n      0x00\n      dup1\n      returndatacopy\n      revert(0x00, returndatasize)\n    tag_124:\n      pop\n        /* \"NFT_market_contract.sol\":7184:7194  msg.sender */\n      caller\n        /* \"NFT_market_contract.sol\":7176:7204  payable(msg.sender).transfer */\n      0xffffffffffffffffffffffffffffffffffffffff\n      and\n        /* \"NFT_market_contract.sol\":7176:7209  payable(msg.sender).transfer(fee) */\n      0x08fc\n        /* \"NFT_market_contract.sol\":7205:7208  fee */\n      dup11\n        /* \"NFT_market_contract.sol\":7176:7209  payable(msg.sender).transfer(fee) */\n      swap1\n      dup2\n      iszero\n      mul\n      swap1\n      mload(0x40)\n      0x00\n      mload(0x40)\n      dup1\n      dup4\n      sub\n      dup2\n      dup6\n      dup9\n      dup9\n      call\n      swap4\n      pop\n      pop\n      pop\n      pop\n      iszero\n      dup1\n      iszero\n      tag_126\n      jumpi\n      returndatasize\n      0x00\n      dup1\n      returndatacopy\n      revert(0x00, returndatasize)\n    tag_126:\n      pop\n        /* \"NFT_market_contract.sol\":7045:7225  if (!payable(sellOrder.seller).send(_value - fee)) {... */\n    tag_121:\n        /* \"NFT_market_contract.sol\":6770:7321  if(IERC721(sellOrder.contractID).ownerOf(sellOrder.tokenID) ==msg.sender)... */\n      jump(tag_127)\n    tag_114:\n        /* \"NFT_market_contract.sol\":7255:7275  matchfail(sellOrder) */\n      tag_128\n        /* \"NFT_market_contract.sol\":7265:7274  sellOrder */\n      dup12\n        /* \"NFT_market_contract.sol\":7255:7264  matchfail */\n      tag_129\n        /* \"NFT_market_contract.sol\":7255:7275  matchfail(sellOrder) */\n      jump\t// in\n    tag_128:\n        /* \"NFT_market_contract.sol\":7290:7309  revert(\"matchfail\") */\n      mload(0x40)\n      0x08c379a000000000000000000000000000000000000000000000000000000000\n      dup2\n      mstore\n      0x04\n      add\n      tag_130\n      swap1\n      tag_131\n      jump\t// in\n    tag_130:\n      mload(0x40)\n      dup1\n      swap2\n      sub\n      swap1\n      revert\n        /* \"NFT_market_contract.sol\":6770:7321  if(IERC721(sellOrder.contractID).ownerOf(sellOrder.tokenID) ==msg.sender)... */\n    tag_127:\n        /* \"NFT_market_contract.sol\":3867:7328  {... */\n      pop\n      pop\n      pop\n      pop\n      pop\n      pop\n      pop\n      pop\n      pop\n      pop\n      pop\n        /* \"NFT_market_contract.sol\":3520:7328  function matchOrder(... */\n    tag_60:\n      pop\n      pop\n      pop\n      pop\n      pop\n      pop\n      pop\n      jump\t// out\n        /* \"NFT_market_contract.sol\":8005:8420  function approveCollection(address collectionAddress) public {... */\n    tag_29:\n        /* \"NFT_market_contract.sol\":8126:8127  0 */\n      0x00\n        /* \"NFT_market_contract.sol\":8085:8128  userToProxyWallet[msg.sender] != address(0) */\n      0xffffffffffffffffffffffffffffffffffffffff\n      and\n        /* \"NFT_market_contract.sol\":8085:8102  userToProxyWallet */\n      0x04\n        /* \"NFT_market_contract.sol\":8085:8114  userToProxyWallet[msg.sender] */\n      0x00\n        /* \"NFT_market_contract.sol\":8103:8113  msg.sender */\n      caller\n        /* \"NFT_market_contract.sol\":8085:8114  userToProxyWallet[msg.sender] */\n      0xffffffffffffffffffffffffffffffffffffffff\n      and\n      0xffffffffffffffffffffffffffffffffffffffff\n      and\n      dup2\n      mstore\n      0x20\n      add\n      swap1\n      dup2\n      mstore\n      0x20\n      add\n      0x00\n      keccak256\n      0x00\n      swap1\n      sload\n      swap1\n      0x0100\n      exp\n      swap1\n      div\n      0xffffffffffffffffffffffffffffffffffffffff\n      and\n        /* \"NFT_market_contract.sol\":8085:8128  userToProxyWallet[msg.sender] != address(0) */\n      0xffffffffffffffffffffffffffffffffffffffff\n      and\n      sub\n        /* \"NFT_market_contract.sol\":8077:8148  require(userToProxyWallet[msg.sender] != address(0), \"no proxy wallet\") */\n      tag_133\n      jumpi\n      mload(0x40)\n      0x08c379a000000000000000000000000000000000000000000000000000000000\n      dup2\n      mstore\n      0x04\n      add\n      tag_134\n      swap1\n      tag_135\n      jump\t// in\n    tag_134:\n      mload(0x40)\n      dup1\n      swap2\n      sub\n      swap1\n      revert\n    tag_133:\n        /* \"NFT_market_contract.sol\":8160:8172  bool success */\n      0x00\n        /* \"NFT_market_contract.sol\":8174:8191  bytes memory data */\n      dup1\n        /* \"NFT_market_contract.sol\":8195:8212  collectionAddress */\n      dup3\n        /* \"NFT_market_contract.sol\":8195:8225  collectionAddress.delegatecall */\n      0xffffffffffffffffffffffffffffffffffffffff\n      and\n        /* \"NFT_market_contract.sol\":8334:8351  userToProxyWallet */\n      0x04\n        /* \"NFT_market_contract.sol\":8334:8363  userToProxyWallet[msg.sender] */\n      0x00\n        /* \"NFT_market_contract.sol\":8352:8362  msg.sender */\n      caller\n        /* \"NFT_market_contract.sol\":8334:8363  userToProxyWallet[msg.sender] */\n      0xffffffffffffffffffffffffffffffffffffffff\n      and\n      0xffffffffffffffffffffffffffffffffffffffff\n      and\n      dup2\n      mstore\n      0x20\n      add\n      swap1\n      dup2\n      mstore\n      0x20\n      add\n      0x00\n      keccak256\n      0x00\n      swap1\n      sload\n      swap1\n      0x0100\n      exp\n      swap1\n      div\n      0xffffffffffffffffffffffffffffffffffffffff\n      and\n        /* \"NFT_market_contract.sol\":8382:8386  true */\n      0x01\n        /* \"NFT_market_contract.sol\":8240:8401  abi.encodeWithSignature(... */\n      add(0x24, mload(0x40))\n      tag_136\n      swap3\n      swap2\n      swap1\n      tag_137\n      jump\t// in\n    tag_136:\n      mload(0x40)\n      0x20\n      dup2\n      dup4\n      sub\n      sub\n      dup2\n      mstore\n      swap1\n      0x40\n      mstore\n      and(not(0xffffffffffffffffffffffffffffffffffffffffffffffffffffffff), 0xa22cb46500000000000000000000000000000000000000000000000000000000)\n      0x20\n      dup3\n      add\n      dup1\n      mload\n      0xffffffffffffffffffffffffffffffffffffffffffffffffffffffff\n      dup4\n      dup2\n      dup4\n      and\n      or\n      dup4\n      mstore\n      pop\n      pop\n      pop\n      pop\n        /* \"NFT_market_contract.sol\":8195:8412  collectionAddress.delegatecall(... */\n      mload(0x40)\n      tag_138\n      swap2\n      swap1\n      tag_92\n      jump\t// in\n    tag_138:\n      0x00\n      mload(0x40)\n      dup1\n      dup4\n      sub\n      dup2\n      dup6\n      gas\n      delegatecall\n      swap2\n      pop\n      pop\n      returndatasize\n      dup1\n      0x00\n      dup2\n      eq\n      tag_141\n      jumpi\n      mload(0x40)\n      swap2\n      pop\n      and(add(returndatasize, 0x3f), not(0x1f))\n      dup3\n      add\n      0x40\n      mstore\n      returndatasize\n      dup3\n      mstore\n      returndatasize\n      0x00\n      0x20\n      dup5\n      add\n      returndatacopy\n      jump(tag_140)\n    tag_141:\n      0x60\n      swap2\n      pop\n    tag_140:\n      pop\n        /* \"NFT_market_contract.sol\":8159:8412  (bool success, bytes memory data) = collectionAddress.delegatecall(... */\n      swap2\n      pop\n      swap2\n      pop\n        /* \"NFT_market_contract.sol\":8066:8420  {... */\n      pop\n      pop\n        /* \"NFT_market_contract.sol\":8005:8420  function approveCollection(address collectionAddress) public {... */\n      pop\n      jump\t// out\n        /* \"NFT_market_contract.sol\":1718:1966  function updateFeeRate(uint256 newFeeRate) public {... */\n    tag_34:\n        /* \"NFT_market_contract.sol\":1801:1806  owner */\n      0x03\n      0x00\n      swap1\n      sload\n      swap1\n      0x0100\n      exp\n      swap1\n      div\n      0xffffffffffffffffffffffffffffffffffffffff\n      and\n        /* \"NFT_market_contract.sol\":1787:1806  msg.sender == owner */\n      0xffffffffffffffffffffffffffffffffffffffff\n      and\n        /* \"NFT_market_contract.sol\":1787:1797  msg.sender */\n      caller\n        /* \"NFT_market_contract.sol\":1787:1806  msg.sender == owner */\n      0xffffffffffffffffffffffffffffffffffffffff\n      and\n      eq\n        /* \"NFT_market_contract.sol\":1779:1835  require(msg.sender == owner, \"only owner can call this\") */\n      tag_143\n      jumpi\n      mload(0x40)\n      0x08c379a000000000000000000000000000000000000000000000000000000000\n      dup2\n      mstore\n      0x04\n      add\n      tag_144\n      swap1\n      tag_52\n      jump\t// in\n    tag_144:\n      mload(0x40)\n      dup1\n      swap2\n      sub\n      swap1\n      revert\n    tag_143:\n        /* \"NFT_market_contract.sol\":1846:1864  uint256 oldFeeRate */\n      0x00\n        /* \"NFT_market_contract.sol\":1867:1874  feeRate */\n      sload(0x02)\n        /* \"NFT_market_contract.sol\":1846:1874  uint256 oldFeeRate = feeRate */\n      swap1\n      pop\n        /* \"NFT_market_contract.sol\":1895:1905  newFeeRate */\n      dup2\n        /* \"NFT_market_contract.sol\":1885:1892  feeRate */\n      0x02\n        /* \"NFT_market_contract.sol\":1885:1905  feeRate = newFeeRate */\n      dup2\n      swap1\n      sstore\n      pop\n        /* \"NFT_market_contract.sol\":1921:1958  UpdateFeeRate(oldFeeRate, newFeeRate) */\n      0x8d10d6dd6545b059182e4bf9534308bf75d7de65cdd8a68c12b7b74f139e58ae\n        /* \"NFT_market_contract.sol\":1935:1945  oldFeeRate */\n      dup2\n        /* \"NFT_market_contract.sol\":1947:1957  newFeeRate */\n      dup4\n        /* \"NFT_market_contract.sol\":1921:1958  UpdateFeeRate(oldFeeRate, newFeeRate) */\n      mload(0x40)\n      tag_145\n      swap3\n      swap2\n      swap1\n      tag_146\n      jump\t// in\n    tag_145:\n      mload(0x40)\n      dup1\n      swap2\n      sub\n      swap1\n      log1\n        /* \"NFT_market_contract.sol\":1768:1966  {... */\n      pop\n        /* \"NFT_market_contract.sol\":1718:1966  function updateFeeRate(uint256 newFeeRate) public {... */\n      pop\n      jump\t// out\n        /* \"NFT_market_contract.sol\":1994:2079  function getFeeRate() public view returns (uint256) {... */\n    tag_37:\n        /* \"NFT_market_contract.sol\":2037:2044  uint256 */\n      0x00\n        /* \"NFT_market_contract.sol\":2064:2071  feeRate */\n      sload(0x02)\n        /* \"NFT_market_contract.sol\":2057:2071  return feeRate */\n      swap1\n      pop\n        /* \"NFT_market_contract.sol\":1994:2079  function getFeeRate() public view returns (uint256) {... */\n      swap1\n      jump\t// out\n        /* \"NFT_market_contract.sol\":1213:1676  function createProxyWallet() public {... */\n    tag_42:\n        /* \"NFT_market_contract.sol\":1372:1373  0 */\n      0x00\n        /* \"NFT_market_contract.sol\":1331:1374  userToProxyWallet[msg.sender] == address(0) */\n      0xffffffffffffffffffffffffffffffffffffffff\n      and\n        /* \"NFT_market_contract.sol\":1331:1348  userToProxyWallet */\n      0x04\n        /* \"NFT_market_contract.sol\":1331:1360  userToProxyWallet[msg.sender] */\n      0x00\n        /* \"NFT_market_contract.sol\":1349:1359  msg.sender */\n      caller\n        /* \"NFT_market_contract.sol\":1331:1360  userToProxyWallet[msg.sender] */\n      0xffffffffffffffffffffffffffffffffffffffff\n      and\n      0xffffffffffffffffffffffffffffffffffffffff\n      and\n      dup2\n      mstore\n      0x20\n      add\n      swap1\n      dup2\n      mstore\n      0x20\n      add\n      0x00\n      keccak256\n      0x00\n      swap1\n      sload\n      swap1\n      0x0100\n      exp\n      swap1\n      div\n      0xffffffffffffffffffffffffffffffffffffffff\n      and\n        /* \"NFT_market_contract.sol\":1331:1374  userToProxyWallet[msg.sender] == address(0) */\n      0xffffffffffffffffffffffffffffffffffffffff\n      and\n      eq\n        /* \"NFT_market_contract.sol\":1309:1429  require(... */\n      tag_149\n      jumpi\n      mload(0x40)\n      0x08c379a000000000000000000000000000000000000000000000000000000000\n      dup2\n      mstore\n      0x04\n      add\n      tag_150\n      swap1\n      tag_151\n      jump\t// in\n    tag_150:\n      mload(0x40)\n      dup1\n      swap2\n      sub\n      swap1\n      revert\n    tag_149:\n        /* \"NFT_market_contract.sol\":1525:1535  msg.sender */\n      caller\n        /* \"NFT_market_contract.sol\":1509:1536  new ProxyWallet(msg.sender) */\n      mload(0x40)\n      tag_152\n      swap1\n      tag_153\n      jump\t// in\n    tag_152:\n      tag_154\n      swap2\n      swap1\n      tag_48\n      jump\t// in\n    tag_154:\n      mload(0x40)\n      dup1\n      swap2\n      sub\n      swap1\n      0x00\n      create\n      dup1\n      iszero\n      dup1\n      iszero\n      tag_155\n      jumpi\n      returndatasize\n      0x00\n      dup1\n      returndatacopy\n      revert(0x00, returndatasize)\n    tag_155:\n      pop\n        /* \"NFT_market_contract.sol\":1479:1498  proxyWalletContract */\n      0x00\n      dup1\n        /* \"NFT_market_contract.sol\":1479:1537  proxyWalletContract = address(new ProxyWallet(msg.sender)) */\n      0x0100\n      exp\n      dup2\n      sload\n      dup2\n      0xffffffffffffffffffffffffffffffffffffffff\n      mul\n      not\n      and\n      swap1\n      dup4\n      0xffffffffffffffffffffffffffffffffffffffff\n      and\n      mul\n      or\n      swap1\n      sstore\n      pop\n        /* \"NFT_market_contract.sol\":1649:1668  proxyWalletContract */\n      0x00\n      dup1\n      sload\n      swap1\n      0x0100\n      exp\n      swap1\n      div\n      0xffffffffffffffffffffffffffffffffffffffff\n      and\n        /* \"NFT_market_contract.sol\":1617:1634  userToProxyWallet */\n      0x04\n        /* \"NFT_market_contract.sol\":1617:1646  userToProxyWallet[msg.sender] */\n      0x00\n        /* \"NFT_market_contract.sol\":1635:1645  msg.sender */\n      caller\n        /* \"NFT_market_contract.sol\":1617:1646  userToProxyWallet[msg.sender] */\n      0xffffffffffffffffffffffffffffffffffffffff\n      and\n      0xffffffffffffffffffffffffffffffffffffffff\n      and\n      dup2\n      mstore\n      0x20\n      add\n      swap1\n      dup2\n      mstore\n      0x20\n      add\n      0x00\n      keccak256\n      0x00\n        /* \"NFT_market_contract.sol\":1617:1668  userToProxyWallet[msg.sender] = proxyWalletContract */\n      0x0100\n      exp\n      dup2\n      sload\n      dup2\n      0xffffffffffffffffffffffffffffffffffffffff\n      mul\n      not\n      and\n      swap1\n      dup4\n      0xffffffffffffffffffffffffffffffffffffffff\n      and\n      mul\n      or\n      swap1\n      sstore\n      pop\n        /* \"NFT_market_contract.sol\":1213:1676  function createProxyWallet() public {... */\n      jump\t// out\n        /* \"NFT_market_contract.sol\":2334:2451  function getProxyWallet(address user) public view returns (address) {... */\n    tag_46:\n        /* \"NFT_market_contract.sol\":2393:2400  address */\n      0x00\n        /* \"NFT_market_contract.sol\":2420:2437  userToProxyWallet */\n      0x04\n        /* \"NFT_market_contract.sol\":2420:2443  userToProxyWallet[user] */\n      0x00\n        /* \"NFT_market_contract.sol\":2438:2442  user */\n      dup4\n        /* \"NFT_market_contract.sol\":2420:2443  userToProxyWallet[user] */\n      0xffffffffffffffffffffffffffffffffffffffff\n      and\n      0xffffffffffffffffffffffffffffffffffffffff\n      and\n      dup2\n      mstore\n      0x20\n      add\n      swap1\n      dup2\n      mstore\n      0x20\n      add\n      0x00\n      keccak256\n      0x00\n      swap1\n      sload\n      swap1\n      0x0100\n      exp\n      swap1\n      div\n      0xffffffffffffffffffffffffffffffffffffffff\n      and\n        /* \"NFT_market_contract.sol\":2413:2443  return userToProxyWallet[user] */\n      swap1\n      pop\n        /* \"NFT_market_contract.sol\":2334:2451  function getProxyWallet(address user) public view returns (address) {... */\n      swap2\n      swap1\n      pop\n      jump\t// out\n        /* \"NFT_market_contract.sol\":2806:3512  function _cancelSellOrder(SellOrder memory sellOrder) internal {... */\n    tag_59:\n        /* \"NFT_market_contract.sol\":2953:2966  bool success1 */\n      0x00\n        /* \"NFT_market_contract.sol\":2968:2985  bytes memory data */\n      dup1\n        /* \"NFT_market_contract.sol\":2989:3006  userToProxyWallet */\n      0x04\n        /* \"NFT_market_contract.sol\":2989:3024  userToProxyWallet[sellOrder.seller] */\n      0x00\n        /* \"NFT_market_contract.sol\":3007:3016  sellOrder */\n      dup5\n        /* \"NFT_market_contract.sol\":3007:3023  sellOrder.seller */\n      0x00\n      add\n      mload\n        /* \"NFT_market_contract.sol\":2989:3024  userToProxyWallet[sellOrder.seller] */\n      0xffffffffffffffffffffffffffffffffffffffff\n      and\n      0xffffffffffffffffffffffffffffffffffffffff\n      and\n      dup2\n      mstore\n      0x20\n      add\n      swap1\n      dup2\n      mstore\n      0x20\n      add\n      0x00\n      keccak256\n      0x00\n      swap1\n      sload\n      swap1\n      0x0100\n      exp\n      swap1\n      div\n      0xffffffffffffffffffffffffffffffffffffffff\n      and\n        /* \"NFT_market_contract.sol\":2989:3043  userToProxyWallet[sellOrder.seller]... */\n      0xffffffffffffffffffffffffffffffffffffffff\n      and\n        /* \"NFT_market_contract.sol\":3202:3211  sellOrder */\n      dup4\n        /* \"NFT_market_contract.sol\":3062:3234  abi.encodeWithSignature(... */\n      add(0x24, mload(0x40))\n      tag_158\n      swap2\n      swap1\n      tag_159\n      jump\t// in\n    tag_158:\n      mload(0x40)\n      0x20\n      dup2\n      dup4\n      sub\n      sub\n      dup2\n      mstore\n      swap1\n      0x40\n      mstore\n      and(not(0xffffffffffffffffffffffffffffffffffffffffffffffffffffffff), 0xdd30410400000000000000000000000000000000000000000000000000000000)\n      0x20\n      dup3\n      add\n      dup1\n      mload\n      0xffffffffffffffffffffffffffffffffffffffffffffffffffffffff\n      dup4\n      dup2\n      dup4\n      and\n      or\n      dup4\n      mstore\n      pop\n      pop\n      pop\n      pop\n        /* \"NFT_market_contract.sol\":2989:3249  userToProxyWallet[sellOrder.seller]... */\n      mload(0x40)\n      tag_160\n      swap2\n      swap1\n      tag_92\n      jump\t// in\n    tag_160:\n      0x00\n      mload(0x40)\n      dup1\n      dup4\n      sub\n      dup2\n      0x00\n      dup7\n      gas\n      call\n      swap2\n      pop\n      pop\n      returndatasize\n      dup1\n      0x00\n      dup2\n      eq\n      tag_163\n      jumpi\n      mload(0x40)\n      swap2\n      pop\n      and(add(returndatasize, 0x3f), not(0x1f))\n      dup3\n      add\n      0x40\n      mstore\n      returndatasize\n      dup3\n      mstore\n      returndatasize\n      0x00\n      0x20\n      dup5\n      add\n      returndatacopy\n      jump(tag_162)\n    tag_163:\n      0x60\n      swap2\n      pop\n    tag_162:\n      pop\n        /* \"NFT_market_contract.sol\":2952:3249  (bool success1, bytes memory data) = userToProxyWallet[sellOrder.seller]... */\n      swap2\n      pop\n      swap2\n      pop\n        /* \"NFT_market_contract.sol\":3268:3276  success1 */\n      dup2\n        /* \"NFT_market_contract.sol\":3260:3305  require(success1, \"Cancel sell order failed\") */\n      tag_164\n      jumpi\n      mload(0x40)\n      0x08c379a000000000000000000000000000000000000000000000000000000000\n      dup2\n      mstore\n      0x04\n      add\n      tag_165\n      swap1\n      tag_166\n      jump\t// in\n    tag_165:\n      mload(0x40)\n      dup1\n      swap2\n      sub\n      swap1\n      revert\n    tag_164:\n        /* \"NFT_market_contract.sol\":3409:3418  sellOrder */\n      dup3\n        /* \"NFT_market_contract.sol\":3409:3429  sellOrder.contractID */\n      0x20\n      add\n      mload\n        /* \"NFT_market_contract.sol\":3345:3504  SellOrderCancelled(... */\n      0xffffffffffffffffffffffffffffffffffffffff\n      and\n        /* \"NFT_market_contract.sol\":3378:3387  sellOrder */\n      dup4\n        /* \"NFT_market_contract.sol\":3378:3394  sellOrder.seller */\n      0x00\n      add\n      mload\n        /* \"NFT_market_contract.sol\":3345:3504  SellOrderCancelled(... */\n      0xffffffffffffffffffffffffffffffffffffffff\n      and\n      0x9b3260990101a9c5eb670b44ba2f4ec1048ddaf533a012abff3841ef15307fec\n        /* \"NFT_market_contract.sol\":3444:3453  sellOrder */\n      dup6\n        /* \"NFT_market_contract.sol\":3444:3461  sellOrder.orderID */\n      0xc0\n      add\n      mload\n        /* \"NFT_market_contract.sol\":3476:3485  sellOrder */\n      dup7\n        /* \"NFT_market_contract.sol\":3476:3493  sellOrder.tokenID */\n      0x40\n      add\n      mload\n        /* \"NFT_market_contract.sol\":3345:3504  SellOrderCancelled(... */\n      mload(0x40)\n      tag_167\n      swap3\n      swap2\n      swap1\n      tag_86\n      jump\t// in\n    tag_167:\n      mload(0x40)\n      dup1\n      swap2\n      sub\n      swap1\n      log3\n        /* \"NFT_market_contract.sol\":2869:3512  {... */\n      pop\n      pop\n        /* \"NFT_market_contract.sol\":2806:3512  function _cancelSellOrder(SellOrder memory sellOrder) internal {... */\n      pop\n      jump\t// out\n        /* \"@openzeppelin/contracts/utils/math/SafeMath.sol\":3465:3561  function mul(uint256 a, uint256 b) internal pure returns (uint256) {... */\n    tag_63:\n        /* \"@openzeppelin/contracts/utils/math/SafeMath.sol\":3523:3530  uint256 */\n      0x00\n        /* \"@openzeppelin/contracts/utils/math/SafeMath.sol\":3553:3554  b */\n      dup2\n        /* \"@openzeppelin/contracts/utils/math/SafeMath.sol\":3549:3550  a */\n      dup4\n        /* \"@openzeppelin/contracts/utils/math/SafeMath.sol\":3549:3554  a * b */\n      tag_169\n      swap2\n      swap1\n      tag_170\n      jump\t// in\n    tag_169:\n        /* \"@openzeppelin/contracts/utils/math/SafeMath.sol\":3542:3554  return a * b */\n      swap1\n      pop\n        /* \"@openzeppelin/contracts/utils/math/SafeMath.sol\":3465:3561  function mul(uint256 a, uint256 b) internal pure returns (uint256) {... */\n      swap3\n      swap2\n      pop\n      pop\n      jump\t// out\n        /* \"@openzeppelin/contracts/utils/math/SafeMath.sol\":3850:3946  function div(uint256 a, uint256 b) internal pure returns (uint256) {... */\n    tag_64:\n        /* \"@openzeppelin/contracts/utils/math/SafeMath.sol\":3908:3915  uint256 */\n      0x00\n        /* \"@openzeppelin/contracts/utils/math/SafeMath.sol\":3938:3939  b */\n      dup2\n        /* \"@openzeppelin/contracts/utils/math/SafeMath.sol\":3934:3935  a */\n      dup4\n        /* \"@openzeppelin/contracts/utils/math/SafeMath.sol\":3934:3939  a / b */\n      tag_172\n      swap2\n      swap1\n      tag_173\n      jump\t// in\n    tag_172:\n        /* \"@openzeppelin/contracts/utils/math/SafeMath.sol\":3927:3939  return a / b */\n      swap1\n      pop\n        /* \"@openzeppelin/contracts/utils/math/SafeMath.sol\":3850:3946  function div(uint256 a, uint256 b) internal pure returns (uint256) {... */\n      swap3\n      swap2\n      pop\n      pop\n      jump\t// out\n        /* \"NFT_market_contract.sol\":8449:8998  function verifySignature(... */\n    tag_66:\n        /* \"NFT_market_contract.sol\":8674:8678  bool */\n      0x00\n        /* \"NFT_market_contract.sol\":8691:8703  bytes32 hash */\n      dup1\n        /* \"NFT_market_contract.sol\":8747:8757  contractID */\n      dup7\n        /* \"NFT_market_contract.sol\":8759:8766  tokenID */\n      dup7\n        /* \"NFT_market_contract.sol\":8768:8773  price */\n      dup7\n        /* \"NFT_market_contract.sol\":8775:8789  expirationTime */\n      dup6\n        /* \"NFT_market_contract.sol\":8730:8790  abi.encodePacked(contractID, tokenID, price, expirationTime) */\n      add(0x20, mload(0x40))\n      tag_175\n      swap5\n      swap4\n      swap3\n      swap2\n      swap1\n      tag_176\n      jump\t// in\n    tag_175:\n      mload(0x40)\n      0x20\n      dup2\n      dup4\n      sub\n      sub\n      dup2\n      mstore\n      swap1\n      0x40\n      mstore\n        /* \"NFT_market_contract.sol\":8706:8801  keccak256(... */\n      dup1\n      mload\n      swap1\n      0x20\n      add\n      keccak256\n        /* \"NFT_market_contract.sol\":8691:8801  bytes32 hash = keccak256(... */\n      swap1\n      pop\n        /* \"NFT_market_contract.sol\":8812:8829  bytes32 OrderHash */\n      0x00\n        /* \"NFT_market_contract.sol\":8909:8913  hash */\n      dup2\n        /* \"NFT_market_contract.sol\":8856:8914  abi.encodePacked(\"\\x19Ethereum Signed Message:\\n32\", hash) */\n      add(0x20, mload(0x40))\n      tag_177\n      swap2\n      swap1\n      tag_178\n      jump\t// in\n    tag_177:\n      mload(0x40)\n      0x20\n      dup2\n      dup4\n      sub\n      sub\n      dup2\n      mstore\n      swap1\n      0x40\n      mstore\n        /* \"NFT_market_contract.sol\":8832:8925  keccak256(... */\n      dup1\n      mload\n      swap1\n      0x20\n      add\n      keccak256\n        /* \"NFT_market_contract.sol\":8812:8925  bytes32 OrderHash = keccak256(... */\n      swap1\n      pop\n        /* \"NFT_market_contract.sol\":8984:8990  seller */\n      dup9\n        /* \"NFT_market_contract.sol\":8945:8990  recoverSigner(OrderHash, signature) == seller */\n      0xffffffffffffffffffffffffffffffffffffffff\n      and\n        /* \"NFT_market_contract.sol\":8945:8980  recoverSigner(OrderHash, signature) */\n      tag_179\n        /* \"NFT_market_contract.sol\":8959:8968  OrderHash */\n      dup3\n        /* \"NFT_market_contract.sol\":8970:8979  signature */\n      dup8\n        /* \"NFT_market_contract.sol\":8945:8958  recoverSigner */\n      tag_180\n        /* \"NFT_market_contract.sol\":8945:8980  recoverSigner(OrderHash, signature) */\n      jump\t// in\n    tag_179:\n        /* \"NFT_market_contract.sol\":8945:8990  recoverSigner(OrderHash, signature) == seller */\n      0xffffffffffffffffffffffffffffffffffffffff\n      and\n      eq\n        /* \"NFT_market_contract.sol\":8938:8990  return recoverSigner(OrderHash, signature) == seller */\n      swap3\n      pop\n      pop\n      pop\n        /* \"NFT_market_contract.sol\":8449:8998  function verifySignature(... */\n      swap7\n      swap6\n      pop\n      pop\n      pop\n      pop\n      pop\n      pop\n      jump\t// out\n        /* \"NFT_market_contract.sol\":7336:7666  function matchsuccess(SellOrder memory sellOrder) internal {... */\n    tag_116:\n        /* \"NFT_market_contract.sol\":7533:7542  sellOrder */\n      dup1\n        /* \"NFT_market_contract.sol\":7533:7553  sellOrder.contractID */\n      0x20\n      add\n      mload\n        /* \"NFT_market_contract.sol\":7450:7658  MatchSuccess(... */\n      0xffffffffffffffffffffffffffffffffffffffff\n      and\n        /* \"NFT_market_contract.sol\":7508:7518  msg.sender */\n      caller\n        /* \"NFT_market_contract.sol\":7450:7658  MatchSuccess(... */\n      0xffffffffffffffffffffffffffffffffffffffff\n      and\n        /* \"NFT_market_contract.sol\":7477:7486  sellOrder */\n      dup3\n        /* \"NFT_market_contract.sol\":7477:7493  sellOrder.seller */\n      0x00\n      add\n      mload\n        /* \"NFT_market_contract.sol\":7450:7658  MatchSuccess(... */\n      0xffffffffffffffffffffffffffffffffffffffff\n      and\n      0x467f50bd8d1547cf60e60dba76ab3ff7f8b3a07ceba26c2268e160a7df30230e\n        /* \"NFT_market_contract.sol\":7568:7577  sellOrder */\n      dup5\n        /* \"NFT_market_contract.sol\":7568:7585  sellOrder.tokenID */\n      0x40\n      add\n      mload\n        /* \"NFT_market_contract.sol\":7600:7609  sellOrder */\n      dup6\n        /* \"NFT_market_contract.sol\":7600:7617  sellOrder.orderID */\n      0xc0\n      add\n      mload\n        /* \"NFT_market_contract.sol\":7632:7641  sellOrder */\n      dup7\n        /* \"NFT_market_contract.sol\":7632:7647  sellOrder.price */\n      0x60\n      add\n      mload\n        /* \"NFT_market_contract.sol\":7450:7658  MatchSuccess(... */\n      mload(0x40)\n      tag_182\n      swap4\n      swap3\n      swap2\n      swap1\n      tag_183\n      jump\t// in\n    tag_182:\n      mload(0x40)\n      dup1\n      swap2\n      sub\n      swap1\n      log4\n        /* \"NFT_market_contract.sol\":7336:7666  function matchsuccess(SellOrder memory sellOrder) internal {... */\n      pop\n      jump\t// out\n        /* \"NFT_market_contract.sol\":7674:7959  function matchfail(SellOrder memory sellOrder) internal {... */\n    tag_129:\n        /* \"NFT_market_contract.sol\":7826:7835  sellOrder */\n      dup1\n        /* \"NFT_market_contract.sol\":7826:7846  sellOrder.contractID */\n      0x20\n      add\n      mload\n        /* \"NFT_market_contract.sol\":7746:7951  MatchFail(... */\n      0xffffffffffffffffffffffffffffffffffffffff\n      and\n        /* \"NFT_market_contract.sol\":7801:7811  msg.sender */\n      caller\n        /* \"NFT_market_contract.sol\":7746:7951  MatchFail(... */\n      0xffffffffffffffffffffffffffffffffffffffff\n      and\n        /* \"NFT_market_contract.sol\":7770:7779  sellOrder */\n      dup3\n        /* \"NFT_market_contract.sol\":7770:7786  sellOrder.seller */\n      0x00\n      add\n      mload\n        /* \"NFT_market_contract.sol\":7746:7951  MatchFail(... */\n      0xffffffffffffffffffffffffffffffffffffffff\n      and\n      0x9bd8cc9f795935d6f423445d18dd997edfeec3d962973fadffeac5740e876b5f\n        /* \"NFT_market_contract.sol\":7861:7870  sellOrder */\n      dup5\n        /* \"NFT_market_contract.sol\":7861:7878  sellOrder.tokenID */\n      0x40\n      add\n      mload\n        /* \"NFT_market_contract.sol\":7893:7902  sellOrder */\n      dup6\n        /* \"NFT_market_contract.sol\":7893:7910  sellOrder.orderID */\n      0xc0\n      add\n      mload\n        /* \"NFT_market_contract.sol\":7925:7934  sellOrder */\n      dup7\n        /* \"NFT_market_contract.sol\":7925:7940  sellOrder.price */\n      0x60\n      add\n      mload\n        /* \"NFT_market_contract.sol\":7746:7951  MatchFail(... */\n      mload(0x40)\n      tag_185\n      swap4\n      swap3\n      swap2\n      swap1\n      tag_183\n      jump\t// in\n    tag_185:\n      mload(0x40)\n      dup1\n      swap2\n      sub\n      swap1\n      log4\n        /* \"NFT_market_contract.sol\":7674:7959  function matchfail(SellOrder memory sellOrder) internal {... */\n      pop\n      jump\t// out\n        /* \"NFT_market_contract.sol\":9006:9472  function recoverSigner(... */\n    tag_180:\n        /* \"NFT_market_contract.sol\":9115:9122  address */\n      0x00\n        /* \"NFT_market_contract.sol\":9135:9144  bytes32 r */\n      dup1\n        /* \"NFT_market_contract.sol\":9155:9164  bytes32 s */\n      0x00\n        /* \"NFT_market_contract.sol\":9175:9182  uint8 v */\n      dup1\n        /* \"NFT_market_contract.sol\":9245:9249  0x20 */\n      0x20\n        /* \"NFT_market_contract.sol\":9234:9243  signature */\n      dup6\n        /* \"NFT_market_contract.sol\":9230:9250  add(signature, 0x20) */\n      add\n        /* \"NFT_market_contract.sol\":9224:9251  mload(add(signature, 0x20)) */\n      mload\n        /* \"NFT_market_contract.sol\":9219:9251  r := mload(add(signature, 0x20)) */\n      swap3\n      pop\n        /* \"NFT_market_contract.sol\":9291:9295  0x40 */\n      0x40\n        /* \"NFT_market_contract.sol\":9280:9289  signature */\n      dup6\n        /* \"NFT_market_contract.sol\":9276:9296  add(signature, 0x40) */\n      add\n        /* \"NFT_market_contract.sol\":9270:9297  mload(add(signature, 0x40)) */\n      mload\n        /* \"NFT_market_contract.sol\":9265:9297  s := mload(add(signature, 0x40)) */\n      swap2\n      pop\n        /* \"NFT_market_contract.sol\":9345:9349  0x60 */\n      0x60\n        /* \"NFT_market_contract.sol\":9334:9343  signature */\n      dup6\n        /* \"NFT_market_contract.sol\":9330:9350  add(signature, 0x60) */\n      add\n        /* \"NFT_market_contract.sol\":9324:9351  mload(add(signature, 0x60)) */\n      mload\n        /* \"NFT_market_contract.sol\":9321:9322  0 */\n      0x00\n        /* \"NFT_market_contract.sol\":9316:9352  byte(0, mload(add(signature, 0x60))) */\n      byte\n        /* \"NFT_market_contract.sol\":9311:9352  v := byte(0, mload(add(signature, 0x60))) */\n      swap1\n      pop\n        /* \"NFT_market_contract.sol\":9383:9385  27 */\n      0x1b\n        /* \"NFT_market_contract.sol\":9379:9380  v */\n      dup2\n        /* \"NFT_market_contract.sol\":9379:9385  v < 27 */\n      0xff\n      and\n      lt\n        /* \"NFT_market_contract.sol\":9375:9421  if (v < 27) {... */\n      iszero\n      tag_187\n      jumpi\n        /* \"NFT_market_contract.sol\":9407:9409  27 */\n      0x1b\n        /* \"NFT_market_contract.sol\":9402:9409  v += 27 */\n      dup2\n      tag_188\n      swap2\n      swap1\n      tag_189\n      jump\t// in\n    tag_188:\n      swap1\n      pop\n        /* \"NFT_market_contract.sol\":9375:9421  if (v < 27) {... */\n    tag_187:\n        /* \"NFT_market_contract.sol\":9440:9464  ecrecover(hash, v, r, s) */\n      0x01\n        /* \"NFT_market_contract.sol\":9450:9454  hash */\n      dup7\n        /* \"NFT_market_contract.sol\":9456:9457  v */\n      dup3\n        /* \"NFT_market_contract.sol\":9459:9460  r */\n      dup6\n        /* \"NFT_market_contract.sol\":9462:9463  s */\n      dup6\n        /* \"NFT_market_contract.sol\":9440:9464  ecrecover(hash, v, r, s) */\n      mload(0x40)\n      0x00\n      dup2\n      mstore\n      0x20\n      add\n      0x40\n      mstore\n      mload(0x40)\n      tag_190\n      swap5\n      swap4\n      swap3\n      swap2\n      swap1\n      tag_191\n      jump\t// in\n    tag_190:\n      0x20\n      mload(0x40)\n      0x20\n      dup2\n      sub\n      swap1\n      dup1\n      dup5\n      sub\n      swap1\n      dup6\n      gas\n      staticcall\n      iszero\n      dup1\n      iszero\n      tag_193\n      jumpi\n      returndatasize\n      0x00\n      dup1\n      returndatacopy\n      revert(0x00, returndatasize)\n    tag_193:\n      pop\n      pop\n      pop\n      mload(sub(mload(0x40), 0x20))\n        /* \"NFT_market_contract.sol\":9433:9464  return ecrecover(hash, v, r, s) */\n      swap4\n      pop\n      pop\n      pop\n      pop\n        /* \"NFT_market_contract.sol\":9006:9472  function recoverSigner(... */\n      swap3\n      swap2\n      pop\n      pop\n      jump\t// out\n    tag_153:\n      dataSize(sub_0)\n      dup1\n      dataOffset(sub_0)\n      dup4\n      codecopy\n      add\n      swap1\n      jump\t// out\n        /* \"#utility.yul\":7:82   */\n    tag_194:\n        /* \"#utility.yul\":40:46   */\n      0x00\n        /* \"#utility.yul\":73:75   */\n      0x40\n        /* \"#utility.yul\":67:76   */\n      mload\n        /* \"#utility.yul\":57:76   */\n      swap1\n      pop\n        /* \"#utility.yul\":7:82   */\n      swap1\n      jump\t// out\n        /* \"#utility.yul\":88:205   */\n    tag_195:\n        /* \"#utility.yul\":197:198   */\n      0x00\n        /* \"#utility.yul\":194:195   */\n      dup1\n        /* \"#utility.yul\":187:199   */\n      revert\n        /* \"#utility.yul\":211:328   */\n    tag_196:\n        /* \"#utility.yul\":320:321   */\n      0x00\n        /* \"#utility.yul\":317:318   */\n      dup1\n        /* \"#utility.yul\":310:322   */\n      revert\n        /* \"#utility.yul\":334:460   */\n    tag_197:\n        /* \"#utility.yul\":371:378   */\n      0x00\n        /* \"#utility.yul\":411:453   */\n      0xffffffffffffffffffffffffffffffffffffffff\n        /* \"#utility.yul\":404:409   */\n      dup3\n        /* \"#utility.yul\":400:454   */\n      and\n        /* \"#utility.yul\":389:454   */\n      swap1\n      pop\n        /* \"#utility.yul\":334:460   */\n      swap2\n      swap1\n      pop\n      jump\t// out\n        /* \"#utility.yul\":466:570   */\n    tag_198:\n        /* \"#utility.yul\":511:518   */\n      0x00\n        /* \"#utility.yul\":540:564   */\n      tag_283\n        /* \"#utility.yul\":558:563   */\n      dup3\n        /* \"#utility.yul\":540:564   */\n      tag_197\n      jump\t// in\n    tag_283:\n        /* \"#utility.yul\":529:564   */\n      swap1\n      pop\n        /* \"#utility.yul\":466:570   */\n      swap2\n      swap1\n      pop\n      jump\t// out\n        /* \"#utility.yul\":576:714   */\n    tag_199:\n        /* \"#utility.yul\":657:689   */\n      tag_285\n        /* \"#utility.yul\":683:688   */\n      dup2\n        /* \"#utility.yul\":657:689   */\n      tag_198\n      jump\t// in\n    tag_285:\n        /* \"#utility.yul\":650:655   */\n      dup2\n        /* \"#utility.yul\":647:690   */\n      eq\n        /* \"#utility.yul\":637:708   */\n      tag_286\n      jumpi\n        /* \"#utility.yul\":704:705   */\n      0x00\n        /* \"#utility.yul\":701:702   */\n      dup1\n        /* \"#utility.yul\":694:706   */\n      revert\n        /* \"#utility.yul\":637:708   */\n    tag_286:\n        /* \"#utility.yul\":576:714   */\n      pop\n      jump\t// out\n        /* \"#utility.yul\":720:875   */\n    tag_200:\n        /* \"#utility.yul\":774:779   */\n      0x00\n        /* \"#utility.yul\":812:818   */\n      dup2\n        /* \"#utility.yul\":799:819   */\n      calldataload\n        /* \"#utility.yul\":790:819   */\n      swap1\n      pop\n        /* \"#utility.yul\":828:869   */\n      tag_288\n        /* \"#utility.yul\":863:868   */\n      dup2\n        /* \"#utility.yul\":828:869   */\n      tag_199\n      jump\t// in\n    tag_288:\n        /* \"#utility.yul\":720:875   */\n      swap3\n      swap2\n      pop\n      pop\n      jump\t// out\n        /* \"#utility.yul\":881:1226   */\n    tag_14:\n        /* \"#utility.yul\":948:954   */\n      0x00\n        /* \"#utility.yul\":997:999   */\n      0x20\n        /* \"#utility.yul\":985:994   */\n      dup3\n        /* \"#utility.yul\":976:983   */\n      dup5\n        /* \"#utility.yul\":972:995   */\n      sub\n        /* \"#utility.yul\":968:1000   */\n      slt\n        /* \"#utility.yul\":965:1084   */\n      iszero\n      tag_290\n      jumpi\n        /* \"#utility.yul\":1003:1082   */\n      tag_291\n      tag_195\n      jump\t// in\n    tag_291:\n        /* \"#utility.yul\":965:1084   */\n    tag_290:\n        /* \"#utility.yul\":1123:1124   */\n      0x00\n        /* \"#utility.yul\":1148:1209   */\n      tag_292\n        /* \"#utility.yul\":1201:1208   */\n      dup5\n        /* \"#utility.yul\":1192:1198   */\n      dup3\n        /* \"#utility.yul\":1181:1190   */\n      dup6\n        /* \"#utility.yul\":1177:1199   */\n      add\n        /* \"#utility.yul\":1148:1209   */\n      tag_200\n      jump\t// in\n    tag_292:\n        /* \"#utility.yul\":1138:1209   */\n      swap2\n      pop\n        /* \"#utility.yul\":1094:1219   */\n      pop\n        /* \"#utility.yul\":881:1226   */\n      swap3\n      swap2\n      pop\n      pop\n      jump\t// out\n        /* \"#utility.yul\":1232:1349   */\n    tag_201:\n        /* \"#utility.yul\":1341:1342   */\n      0x00\n        /* \"#utility.yul\":1338:1339   */\n      dup1\n        /* \"#utility.yul\":1331:1343   */\n      revert\n        /* \"#utility.yul\":1355:1457   */\n    tag_202:\n        /* \"#utility.yul\":1396:1402   */\n      0x00\n        /* \"#utility.yul\":1447:1449   */\n      0x1f\n        /* \"#utility.yul\":1443:1450   */\n      not\n        /* \"#utility.yul\":1438:1440   */\n      0x1f\n        /* \"#utility.yul\":1431:1436   */\n      dup4\n        /* \"#utility.yul\":1427:1441   */\n      add\n        /* \"#utility.yul\":1423:1451   */\n      and\n        /* \"#utility.yul\":1413:1451   */\n      swap1\n      pop\n        /* \"#utility.yul\":1355:1457   */\n      swap2\n      swap1\n      pop\n      jump\t// out\n        /* \"#utility.yul\":1463:1643   */\n    tag_203:\n        /* \"#utility.yul\":1511:1588   */\n      0x4e487b7100000000000000000000000000000000000000000000000000000000\n        /* \"#utility.yul\":1508:1509   */\n      0x00\n        /* \"#utility.yul\":1501:1589   */\n      mstore\n        /* \"#utility.yul\":1608:1612   */\n      0x41\n        /* \"#utility.yul\":1605:1606   */\n      0x04\n        /* \"#utility.yul\":1598:1613   */\n      mstore\n        /* \"#utility.yul\":1632:1636   */\n      0x24\n        /* \"#utility.yul\":1629:1630   */\n      0x00\n        /* \"#utility.yul\":1622:1637   */\n      revert\n        /* \"#utility.yul\":1649:1930   */\n    tag_204:\n        /* \"#utility.yul\":1732:1759   */\n      tag_297\n        /* \"#utility.yul\":1754:1758   */\n      dup3\n        /* \"#utility.yul\":1732:1759   */\n      tag_202\n      jump\t// in\n    tag_297:\n        /* \"#utility.yul\":1724:1730   */\n      dup2\n        /* \"#utility.yul\":1720:1760   */\n      add\n        /* \"#utility.yul\":1862:1868   */\n      dup2\n        /* \"#utility.yul\":1850:1860   */\n      dup2\n        /* \"#utility.yul\":1847:1869   */\n      lt\n        /* \"#utility.yul\":1826:1844   */\n      0xffffffffffffffff\n        /* \"#utility.yul\":1814:1824   */\n      dup3\n        /* \"#utility.yul\":1811:1845   */\n      gt\n        /* \"#utility.yul\":1808:1870   */\n      or\n        /* \"#utility.yul\":1805:1893   */\n      iszero\n      tag_298\n      jumpi\n        /* \"#utility.yul\":1873:1891   */\n      tag_299\n      tag_203\n      jump\t// in\n    tag_299:\n        /* \"#utility.yul\":1805:1893   */\n    tag_298:\n        /* \"#utility.yul\":1913:1923   */\n      dup1\n        /* \"#utility.yul\":1909:1911   */\n      0x40\n        /* \"#utility.yul\":1902:1924   */\n      mstore\n        /* \"#utility.yul\":1692:1930   */\n      pop\n        /* \"#utility.yul\":1649:1930   */\n      pop\n      pop\n      jump\t// out\n        /* \"#utility.yul\":1936:2065   */\n    tag_205:\n        /* \"#utility.yul\":1970:1976   */\n      0x00\n        /* \"#utility.yul\":1997:2017   */\n      tag_301\n      tag_194\n      jump\t// in\n    tag_301:\n        /* \"#utility.yul\":1987:2017   */\n      swap1\n      pop\n        /* \"#utility.yul\":2026:2059   */\n      tag_302\n        /* \"#utility.yul\":2054:2058   */\n      dup3\n        /* \"#utility.yul\":2046:2052   */\n      dup3\n        /* \"#utility.yul\":2026:2059   */\n      tag_204\n      jump\t// in\n    tag_302:\n        /* \"#utility.yul\":1936:2065   */\n      swap2\n      swap1\n      pop\n      jump\t// out\n        /* \"#utility.yul\":2071:2188   */\n    tag_206:\n        /* \"#utility.yul\":2180:2181   */\n      0x00\n        /* \"#utility.yul\":2177:2178   */\n      dup1\n        /* \"#utility.yul\":2170:2182   */\n      revert\n        /* \"#utility.yul\":2194:2290   */\n    tag_207:\n        /* \"#utility.yul\":2231:2238   */\n      0x00\n        /* \"#utility.yul\":2260:2284   */\n      tag_305\n        /* \"#utility.yul\":2278:2283   */\n      dup3\n        /* \"#utility.yul\":2260:2284   */\n      tag_197\n      jump\t// in\n    tag_305:\n        /* \"#utility.yul\":2249:2284   */\n      swap1\n      pop\n        /* \"#utility.yul\":2194:2290   */\n      swap2\n      swap1\n      pop\n      jump\t// out\n        /* \"#utility.yul\":2296:2418   */\n    tag_208:\n        /* \"#utility.yul\":2369:2393   */\n      tag_307\n        /* \"#utility.yul\":2387:2392   */\n      dup2\n        /* \"#utility.yul\":2369:2393   */\n      tag_207\n      jump\t// in\n    tag_307:\n        /* \"#utility.yul\":2362:2367   */\n      dup2\n        /* \"#utility.yul\":2359:2394   */\n      eq\n        /* \"#utility.yul\":2349:2412   */\n      tag_308\n      jumpi\n        /* \"#utility.yul\":2408:2409   */\n      0x00\n        /* \"#utility.yul\":2405:2406   */\n      dup1\n        /* \"#utility.yul\":2398:2410   */\n      revert\n        /* \"#utility.yul\":2349:2412   */\n    tag_308:\n        /* \"#utility.yul\":2296:2418   */\n      pop\n      jump\t// out\n        /* \"#utility.yul\":2424:2563   */\n    tag_209:\n        /* \"#utility.yul\":2470:2475   */\n      0x00\n        /* \"#utility.yul\":2508:2514   */\n      dup2\n        /* \"#utility.yul\":2495:2515   */\n      calldataload\n        /* \"#utility.yul\":2486:2515   */\n      swap1\n      pop\n        /* \"#utility.yul\":2524:2557   */\n      tag_310\n        /* \"#utility.yul\":2551:2556   */\n      dup2\n        /* \"#utility.yul\":2524:2557   */\n      tag_208\n      jump\t// in\n    tag_310:\n        /* \"#utility.yul\":2424:2563   */\n      swap3\n      swap2\n      pop\n      pop\n      jump\t// out\n        /* \"#utility.yul\":2569:2646   */\n    tag_210:\n        /* \"#utility.yul\":2606:2613   */\n      0x00\n        /* \"#utility.yul\":2635:2640   */\n      dup2\n        /* \"#utility.yul\":2624:2640   */\n      swap1\n      pop\n        /* \"#utility.yul\":2569:2646   */\n      swap2\n      swap1\n      pop\n      jump\t// out\n        /* \"#utility.yul\":2652:2774   */\n    tag_211:\n        /* \"#utility.yul\":2725:2749   */\n      tag_313\n        /* \"#utility.yul\":2743:2748   */\n      dup2\n        /* \"#utility.yul\":2725:2749   */\n      tag_210\n      jump\t// in\n    tag_313:\n        /* \"#utility.yul\":2718:2723   */\n      dup2\n        /* \"#utility.yul\":2715:2750   */\n      eq\n        /* \"#utility.yul\":2705:2768   */\n      tag_314\n      jumpi\n        /* \"#utility.yul\":2764:2765   */\n      0x00\n        /* \"#utility.yul\":2761:2762   */\n      dup1\n        /* \"#utility.yul\":2754:2766   */\n      revert\n        /* \"#utility.yul\":2705:2768   */\n    tag_314:\n        /* \"#utility.yul\":2652:2774   */\n      pop\n      jump\t// out\n        /* \"#utility.yul\":2780:2919   */\n    tag_212:\n        /* \"#utility.yul\":2826:2831   */\n      0x00\n        /* \"#utility.yul\":2864:2870   */\n      dup2\n        /* \"#utility.yul\":2851:2871   */\n      calldataload\n        /* \"#utility.yul\":2842:2871   */\n      swap1\n      pop\n        /* \"#utility.yul\":2880:2913   */\n      tag_316\n        /* \"#utility.yul\":2907:2912   */\n      dup2\n        /* \"#utility.yul\":2880:2913   */\n      tag_211\n      jump\t// in\n    tag_316:\n        /* \"#utility.yul\":2780:2919   */\n      swap3\n      swap2\n      pop\n      pop\n      jump\t// out\n        /* \"#utility.yul\":2925:3042   */\n    tag_213:\n        /* \"#utility.yul\":3034:3035   */\n      0x00\n        /* \"#utility.yul\":3031:3032   */\n      dup1\n        /* \"#utility.yul\":3024:3036   */\n      revert\n        /* \"#utility.yul\":3048:3165   */\n    tag_214:\n        /* \"#utility.yul\":3157:3158   */\n      0x00\n        /* \"#utility.yul\":3154:3155   */\n      dup1\n        /* \"#utility.yul\":3147:3159   */\n      revert\n        /* \"#utility.yul\":3171:3478   */\n    tag_215:\n        /* \"#utility.yul\":3232:3236   */\n      0x00\n        /* \"#utility.yul\":3322:3340   */\n      0xffffffffffffffff\n        /* \"#utility.yul\":3314:3320   */\n      dup3\n        /* \"#utility.yul\":3311:3341   */\n      gt\n        /* \"#utility.yul\":3308:3364   */\n      iszero\n      tag_320\n      jumpi\n        /* \"#utility.yul\":3344:3362   */\n      tag_321\n      tag_203\n      jump\t// in\n    tag_321:\n        /* \"#utility.yul\":3308:3364   */\n    tag_320:\n        /* \"#utility.yul\":3382:3411   */\n      tag_322\n        /* \"#utility.yul\":3404:3410   */\n      dup3\n        /* \"#utility.yul\":3382:3411   */\n      tag_202\n      jump\t// in\n    tag_322:\n        /* \"#utility.yul\":3374:3411   */\n      swap1\n      pop\n        /* \"#utility.yul\":3466:3470   */\n      0x20\n        /* \"#utility.yul\":3460:3464   */\n      dup2\n        /* \"#utility.yul\":3456:3471   */\n      add\n        /* \"#utility.yul\":3448:3471   */\n      swap1\n      pop\n        /* \"#utility.yul\":3171:3478   */\n      swap2\n      swap1\n      pop\n      jump\t// out\n        /* \"#utility.yul\":3484:3630   */\n    tag_216:\n        /* \"#utility.yul\":3581:3587   */\n      dup3\n        /* \"#utility.yul\":3576:3579   */\n      dup2\n        /* \"#utility.yul\":3571:3574   */\n      dup4\n        /* \"#utility.yul\":3558:3588   */\n      calldatacopy\n        /* \"#utility.yul\":3622:3623   */\n      0x00\n        /* \"#utility.yul\":3613:3619   */\n      dup4\n        /* \"#utility.yul\":3608:3611   */\n      dup4\n        /* \"#utility.yul\":3604:3620   */\n      add\n        /* \"#utility.yul\":3597:3624   */\n      mstore\n        /* \"#utility.yul\":3484:3630   */\n      pop\n      pop\n      pop\n      jump\t// out\n        /* \"#utility.yul\":3636:4059   */\n    tag_217:\n        /* \"#utility.yul\":3713:3718   */\n      0x00\n        /* \"#utility.yul\":3738:3803   */\n      tag_325\n        /* \"#utility.yul\":3754:3802   */\n      tag_326\n        /* \"#utility.yul\":3795:3801   */\n      dup5\n        /* \"#utility.yul\":3754:3802   */\n      tag_215\n      jump\t// in\n    tag_326:\n        /* \"#utility.yul\":3738:3803   */\n      tag_205\n      jump\t// in\n    tag_325:\n        /* \"#utility.yul\":3729:3803   */\n      swap1\n      pop\n        /* \"#utility.yul\":3826:3832   */\n      dup3\n        /* \"#utility.yul\":3819:3824   */\n      dup2\n        /* \"#utility.yul\":3812:3833   */\n      mstore\n        /* \"#utility.yul\":3864:3868   */\n      0x20\n        /* \"#utility.yul\":3857:3862   */\n      dup2\n        /* \"#utility.yul\":3853:3869   */\n      add\n        /* \"#utility.yul\":3902:3905   */\n      dup5\n        /* \"#utility.yul\":3893:3899   */\n      dup5\n        /* \"#utility.yul\":3888:3891   */\n      dup5\n        /* \"#utility.yul\":3884:3900   */\n      add\n        /* \"#utility.yul\":3881:3906   */\n      gt\n        /* \"#utility.yul\":3878:3990   */\n      iszero\n      tag_327\n      jumpi\n        /* \"#utility.yul\":3909:3988   */\n      tag_328\n      tag_214\n      jump\t// in\n    tag_328:\n        /* \"#utility.yul\":3878:3990   */\n    tag_327:\n        /* \"#utility.yul\":3999:4053   */\n      tag_329\n        /* \"#utility.yul\":4046:4052   */\n      dup5\n        /* \"#utility.yul\":4041:4044   */\n      dup3\n        /* \"#utility.yul\":4036:4039   */\n      dup6\n        /* \"#utility.yul\":3999:4053   */\n      tag_216\n      jump\t// in\n    tag_329:\n        /* \"#utility.yul\":3719:4059   */\n      pop\n        /* \"#utility.yul\":3636:4059   */\n      swap4\n      swap3\n      pop\n      pop\n      pop\n      jump\t// out\n        /* \"#utility.yul\":4078:4416   */\n    tag_218:\n        /* \"#utility.yul\":4133:4138   */\n      0x00\n        /* \"#utility.yul\":4182:4185   */\n      dup3\n        /* \"#utility.yul\":4175:4179   */\n      0x1f\n        /* \"#utility.yul\":4167:4173   */\n      dup4\n        /* \"#utility.yul\":4163:4180   */\n      add\n        /* \"#utility.yul\":4159:4186   */\n      slt\n        /* \"#utility.yul\":4149:4271   */\n      tag_331\n      jumpi\n        /* \"#utility.yul\":4190:4269   */\n      tag_332\n      tag_213\n      jump\t// in\n    tag_332:\n        /* \"#utility.yul\":4149:4271   */\n    tag_331:\n        /* \"#utility.yul\":4307:4313   */\n      dup2\n        /* \"#utility.yul\":4294:4314   */\n      calldataload\n        /* \"#utility.yul\":4332:4410   */\n      tag_333\n        /* \"#utility.yul\":4406:4409   */\n      dup5\n        /* \"#utility.yul\":4398:4404   */\n      dup3\n        /* \"#utility.yul\":4391:4395   */\n      0x20\n        /* \"#utility.yul\":4383:4389   */\n      dup7\n        /* \"#utility.yul\":4379:4396   */\n      add\n        /* \"#utility.yul\":4332:4410   */\n      tag_217\n      jump\t// in\n    tag_333:\n        /* \"#utility.yul\":4323:4410   */\n      swap2\n      pop\n        /* \"#utility.yul\":4139:4416   */\n      pop\n        /* \"#utility.yul\":4078:4416   */\n      swap3\n      swap2\n      pop\n      pop\n      jump\t// out\n        /* \"#utility.yul\":4422:4499   */\n    tag_219:\n        /* \"#utility.yul\":4459:4466   */\n      0x00\n        /* \"#utility.yul\":4488:4493   */\n      dup2\n        /* \"#utility.yul\":4477:4493   */\n      swap1\n      pop\n        /* \"#utility.yul\":4422:4499   */\n      swap2\n      swap1\n      pop\n      jump\t// out\n        /* \"#utility.yul\":4505:4627   */\n    tag_220:\n        /* \"#utility.yul\":4578:4602   */\n      tag_336\n        /* \"#utility.yul\":4596:4601   */\n      dup2\n        /* \"#utility.yul\":4578:4602   */\n      tag_219\n      jump\t// in\n    tag_336:\n        /* \"#utility.yul\":4571:4576   */\n      dup2\n        /* \"#utility.yul\":4568:4603   */\n      eq\n        /* \"#utility.yul\":4558:4621   */\n      tag_337\n      jumpi\n        /* \"#utility.yul\":4617:4618   */\n      0x00\n        /* \"#utility.yul\":4614:4615   */\n      dup1\n        /* \"#utility.yul\":4607:4619   */\n      revert\n        /* \"#utility.yul\":4558:4621   */\n    tag_337:\n        /* \"#utility.yul\":4505:4627   */\n      pop\n      jump\t// out\n        /* \"#utility.yul\":4633:4772   */\n    tag_221:\n        /* \"#utility.yul\":4679:4684   */\n      0x00\n        /* \"#utility.yul\":4717:4723   */\n      dup2\n        /* \"#utility.yul\":4704:4724   */\n      calldataload\n        /* \"#utility.yul\":4695:4724   */\n      swap1\n      pop\n        /* \"#utility.yul\":4733:4766   */\n      tag_339\n        /* \"#utility.yul\":4760:4765   */\n      dup2\n        /* \"#utility.yul\":4733:4766   */\n      tag_220\n      jump\t// in\n    tag_339:\n        /* \"#utility.yul\":4633:4772   */\n      swap3\n      swap2\n      pop\n      pop\n      jump\t// out\n        /* \"#utility.yul\":4817:6399   */\n    tag_222:\n        /* \"#utility.yul\":4892:4897   */\n      0x00\n        /* \"#utility.yul\":4936:4940   */\n      0xe0\n        /* \"#utility.yul\":4924:4933   */\n      dup3\n        /* \"#utility.yul\":4919:4922   */\n      dup5\n        /* \"#utility.yul\":4915:4934   */\n      sub\n        /* \"#utility.yul\":4911:4941   */\n      slt\n        /* \"#utility.yul\":4908:5025   */\n      iszero\n      tag_341\n      jumpi\n        /* \"#utility.yul\":4944:5023   */\n      tag_342\n      tag_201\n      jump\t// in\n    tag_342:\n        /* \"#utility.yul\":4908:5025   */\n    tag_341:\n        /* \"#utility.yul\":5043:5064   */\n      tag_343\n        /* \"#utility.yul\":5059:5063   */\n      0xe0\n        /* \"#utility.yul\":5043:5064   */\n      tag_205\n      jump\t// in\n    tag_343:\n        /* \"#utility.yul\":5034:5064   */\n      swap1\n      pop\n        /* \"#utility.yul\":5125:5126   */\n      0x00\n        /* \"#utility.yul\":5165:5214   */\n      tag_344\n        /* \"#utility.yul\":5210:5213   */\n      dup5\n        /* \"#utility.yul\":5201:5207   */\n      dup3\n        /* \"#utility.yul\":5190:5199   */\n      dup6\n        /* \"#utility.yul\":5186:5208   */\n      add\n        /* \"#utility.yul\":5165:5214   */\n      tag_209\n      jump\t// in\n    tag_344:\n        /* \"#utility.yul\":5158:5162   */\n      0x00\n        /* \"#utility.yul\":5151:5156   */\n      dup4\n        /* \"#utility.yul\":5147:5163   */\n      add\n        /* \"#utility.yul\":5140:5215   */\n      mstore\n        /* \"#utility.yul\":5074:5226   */\n      pop\n        /* \"#utility.yul\":5291:5293   */\n      0x20\n        /* \"#utility.yul\":5332:5381   */\n      tag_345\n        /* \"#utility.yul\":5377:5380   */\n      dup5\n        /* \"#utility.yul\":5368:5374   */\n      dup3\n        /* \"#utility.yul\":5357:5366   */\n      dup6\n        /* \"#utility.yul\":5353:5375   */\n      add\n        /* \"#utility.yul\":5332:5381   */\n      tag_209\n      jump\t// in\n    tag_345:\n        /* \"#utility.yul\":5325:5329   */\n      0x20\n        /* \"#utility.yul\":5318:5323   */\n      dup4\n        /* \"#utility.yul\":5314:5330   */\n      add\n        /* \"#utility.yul\":5307:5382   */\n      mstore\n        /* \"#utility.yul\":5236:5393   */\n      pop\n        /* \"#utility.yul\":5455:5457   */\n      0x40\n        /* \"#utility.yul\":5496:5545   */\n      tag_346\n        /* \"#utility.yul\":5541:5544   */\n      dup5\n        /* \"#utility.yul\":5532:5538   */\n      dup3\n        /* \"#utility.yul\":5521:5530   */\n      dup6\n        /* \"#utility.yul\":5517:5539   */\n      add\n        /* \"#utility.yul\":5496:5545   */\n      tag_212\n      jump\t// in\n    tag_346:\n        /* \"#utility.yul\":5489:5493   */\n      0x40\n        /* \"#utility.yul\":5482:5487   */\n      dup4\n        /* \"#utility.yul\":5478:5494   */\n      add\n        /* \"#utility.yul\":5471:5546   */\n      mstore\n        /* \"#utility.yul\":5403:5557   */\n      pop\n        /* \"#utility.yul\":5617:5619   */\n      0x60\n        /* \"#utility.yul\":5658:5707   */\n      tag_347\n        /* \"#utility.yul\":5703:5706   */\n      dup5\n        /* \"#utility.yul\":5694:5700   */\n      dup3\n        /* \"#utility.yul\":5683:5692   */\n      dup6\n        /* \"#utility.yul\":5679:5701   */\n      add\n        /* \"#utility.yul\":5658:5707   */\n      tag_212\n      jump\t// in\n    tag_347:\n        /* \"#utility.yul\":5651:5655   */\n      0x60\n        /* \"#utility.yul\":5644:5649   */\n      dup4\n        /* \"#utility.yul\":5640:5656   */\n      add\n        /* \"#utility.yul\":5633:5708   */\n      mstore\n        /* \"#utility.yul\":5567:5719   */\n      pop\n        /* \"#utility.yul\":5811:5814   */\n      0x80\n        /* \"#utility.yul\":5800:5809   */\n      dup3\n        /* \"#utility.yul\":5796:5815   */\n      add\n        /* \"#utility.yul\":5783:5816   */\n      calldataload\n        /* \"#utility.yul\":5843:5861   */\n      0xffffffffffffffff\n        /* \"#utility.yul\":5835:5841   */\n      dup2\n        /* \"#utility.yul\":5832:5862   */\n      gt\n        /* \"#utility.yul\":5829:5946   */\n      iszero\n      tag_348\n      jumpi\n        /* \"#utility.yul\":5865:5944   */\n      tag_349\n      tag_206\n      jump\t// in\n    tag_349:\n        /* \"#utility.yul\":5829:5946   */\n    tag_348:\n        /* \"#utility.yul\":5985:6043   */\n      tag_350\n        /* \"#utility.yul\":6039:6042   */\n      dup5\n        /* \"#utility.yul\":6030:6036   */\n      dup3\n        /* \"#utility.yul\":6019:6028   */\n      dup6\n        /* \"#utility.yul\":6015:6037   */\n      add\n        /* \"#utility.yul\":5985:6043   */\n      tag_218\n      jump\t// in\n    tag_350:\n        /* \"#utility.yul\":5978:5982   */\n      0x80\n        /* \"#utility.yul\":5971:5976   */\n      dup4\n        /* \"#utility.yul\":5967:5983   */\n      add\n        /* \"#utility.yul\":5960:6044   */\n      mstore\n        /* \"#utility.yul\":5729:6055   */\n      pop\n        /* \"#utility.yul\":6124:6127   */\n      0xa0\n        /* \"#utility.yul\":6166:6215   */\n      tag_351\n        /* \"#utility.yul\":6211:6214   */\n      dup5\n        /* \"#utility.yul\":6202:6208   */\n      dup3\n        /* \"#utility.yul\":6191:6200   */\n      dup6\n        /* \"#utility.yul\":6187:6209   */\n      add\n        /* \"#utility.yul\":6166:6215   */\n      tag_212\n      jump\t// in\n    tag_351:\n        /* \"#utility.yul\":6159:6163   */\n      0xa0\n        /* \"#utility.yul\":6152:6157   */\n      dup4\n        /* \"#utility.yul\":6148:6164   */\n      add\n        /* \"#utility.yul\":6141:6216   */\n      mstore\n        /* \"#utility.yul\":6065:6227   */\n      pop\n        /* \"#utility.yul\":6289:6292   */\n      0xc0\n        /* \"#utility.yul\":6331:6380   */\n      tag_352\n        /* \"#utility.yul\":6376:6379   */\n      dup5\n        /* \"#utility.yul\":6367:6373   */\n      dup3\n        /* \"#utility.yul\":6356:6365   */\n      dup6\n        /* \"#utility.yul\":6352:6374   */\n      add\n        /* \"#utility.yul\":6331:6380   */\n      tag_221\n      jump\t// in\n    tag_352:\n        /* \"#utility.yul\":6324:6328   */\n      0xc0\n        /* \"#utility.yul\":6317:6322   */\n      dup4\n        /* \"#utility.yul\":6313:6329   */\n      add\n        /* \"#utility.yul\":6306:6381   */\n      mstore\n        /* \"#utility.yul\":6237:6392   */\n      pop\n        /* \"#utility.yul\":4817:6399   */\n      swap3\n      swap2\n      pop\n      pop\n      jump\t// out\n        /* \"#utility.yul\":6405:6946   */\n    tag_19:\n        /* \"#utility.yul\":6490:6496   */\n      0x00\n        /* \"#utility.yul\":6539:6541   */\n      0x20\n        /* \"#utility.yul\":6527:6536   */\n      dup3\n        /* \"#utility.yul\":6518:6525   */\n      dup5\n        /* \"#utility.yul\":6514:6537   */\n      sub\n        /* \"#utility.yul\":6510:6542   */\n      slt\n        /* \"#utility.yul\":6507:6626   */\n      iszero\n      tag_354\n      jumpi\n        /* \"#utility.yul\":6545:6624   */\n      tag_355\n      tag_195\n      jump\t// in\n    tag_355:\n        /* \"#utility.yul\":6507:6626   */\n    tag_354:\n        /* \"#utility.yul\":6693:6694   */\n      0x00\n        /* \"#utility.yul\":6682:6691   */\n      dup3\n        /* \"#utility.yul\":6678:6695   */\n      add\n        /* \"#utility.yul\":6665:6696   */\n      calldataload\n        /* \"#utility.yul\":6723:6741   */\n      0xffffffffffffffff\n        /* \"#utility.yul\":6715:6721   */\n      dup2\n        /* \"#utility.yul\":6712:6742   */\n      gt\n        /* \"#utility.yul\":6709:6826   */\n      iszero\n      tag_356\n      jumpi\n        /* \"#utility.yul\":6745:6824   */\n      tag_357\n      tag_196\n      jump\t// in\n    tag_357:\n        /* \"#utility.yul\":6709:6826   */\n    tag_356:\n        /* \"#utility.yul\":6850:6929   */\n      tag_358\n        /* \"#utility.yul\":6921:6928   */\n      dup5\n        /* \"#utility.yul\":6912:6918   */\n      dup3\n        /* \"#utility.yul\":6901:6910   */\n      dup6\n        /* \"#utility.yul\":6897:6919   */\n      add\n        /* \"#utility.yul\":6850:6929   */\n      tag_222\n      jump\t// in\n    tag_358:\n        /* \"#utility.yul\":6840:6929   */\n      swap2\n      pop\n        /* \"#utility.yul\":6636:6939   */\n      pop\n        /* \"#utility.yul\":6405:6946   */\n      swap3\n      swap2\n      pop\n      pop\n      jump\t// out\n        /* \"#utility.yul\":6952:8333   */\n    tag_23:\n        /* \"#utility.yul\":7074:7080   */\n      0x00\n        /* \"#utility.yul\":7082:7088   */\n      dup1\n        /* \"#utility.yul\":7090:7096   */\n      0x00\n        /* \"#utility.yul\":7098:7104   */\n      dup1\n        /* \"#utility.yul\":7106:7112   */\n      0x00\n        /* \"#utility.yul\":7114:7120   */\n      dup1\n        /* \"#utility.yul\":7122:7128   */\n      0x00\n        /* \"#utility.yul\":7171:7174   */\n      0xe0\n        /* \"#utility.yul\":7159:7168   */\n      dup9\n        /* \"#utility.yul\":7150:7157   */\n      dup11\n        /* \"#utility.yul\":7146:7169   */\n      sub\n        /* \"#utility.yul\":7142:7175   */\n      slt\n        /* \"#utility.yul\":7139:7259   */\n      iszero\n      tag_360\n      jumpi\n        /* \"#utility.yul\":7178:7257   */\n      tag_361\n      tag_195\n      jump\t// in\n    tag_361:\n        /* \"#utility.yul\":7139:7259   */\n    tag_360:\n        /* \"#utility.yul\":7298:7299   */\n      0x00\n        /* \"#utility.yul\":7323:7376   */\n      tag_362\n        /* \"#utility.yul\":7368:7375   */\n      dup11\n        /* \"#utility.yul\":7359:7365   */\n      dup3\n        /* \"#utility.yul\":7348:7357   */\n      dup12\n        /* \"#utility.yul\":7344:7366   */\n      add\n        /* \"#utility.yul\":7323:7376   */\n      tag_209\n      jump\t// in\n    tag_362:\n        /* \"#utility.yul\":7313:7376   */\n      swap8\n      pop\n        /* \"#utility.yul\":7269:7386   */\n      pop\n        /* \"#utility.yul\":7425:7427   */\n      0x20\n        /* \"#utility.yul\":7451:7504   */\n      tag_363\n        /* \"#utility.yul\":7496:7503   */\n      dup11\n        /* \"#utility.yul\":7487:7493   */\n      dup3\n        /* \"#utility.yul\":7476:7485   */\n      dup12\n        /* \"#utility.yul\":7472:7494   */\n      add\n        /* \"#utility.yul\":7451:7504   */\n      tag_209\n      jump\t// in\n    tag_363:\n        /* \"#utility.yul\":7441:7504   */\n      swap7\n      pop\n        /* \"#utility.yul\":7396:7514   */\n      pop\n        /* \"#utility.yul\":7553:7555   */\n      0x40\n        /* \"#utility.yul\":7579:7632   */\n      tag_364\n        /* \"#utility.yul\":7624:7631   */\n      dup11\n        /* \"#utility.yul\":7615:7621   */\n      dup3\n        /* \"#utility.yul\":7604:7613   */\n      dup12\n        /* \"#utility.yul\":7600:7622   */\n      add\n        /* \"#utility.yul\":7579:7632   */\n      tag_212\n      jump\t// in\n    tag_364:\n        /* \"#utility.yul\":7569:7632   */\n      swap6\n      pop\n        /* \"#utility.yul\":7524:7642   */\n      pop\n        /* \"#utility.yul\":7681:7683   */\n      0x60\n        /* \"#utility.yul\":7707:7760   */\n      tag_365\n        /* \"#utility.yul\":7752:7759   */\n      dup11\n        /* \"#utility.yul\":7743:7749   */\n      dup3\n        /* \"#utility.yul\":7732:7741   */\n      dup12\n        /* \"#utility.yul\":7728:7750   */\n      add\n        /* \"#utility.yul\":7707:7760   */\n      tag_212\n      jump\t// in\n    tag_365:\n        /* \"#utility.yul\":7697:7760   */\n      swap5\n      pop\n        /* \"#utility.yul\":7652:7770   */\n      pop\n        /* \"#utility.yul\":7837:7840   */\n      0x80\n        /* \"#utility.yul\":7826:7835   */\n      dup9\n        /* \"#utility.yul\":7822:7841   */\n      add\n        /* \"#utility.yul\":7809:7842   */\n      calldataload\n        /* \"#utility.yul\":7869:7887   */\n      0xffffffffffffffff\n        /* \"#utility.yul\":7861:7867   */\n      dup2\n        /* \"#utility.yul\":7858:7888   */\n      gt\n        /* \"#utility.yul\":7855:7972   */\n      iszero\n      tag_366\n      jumpi\n        /* \"#utility.yul\":7891:7970   */\n      tag_367\n      tag_196\n      jump\t// in\n    tag_367:\n        /* \"#utility.yul\":7855:7972   */\n    tag_366:\n        /* \"#utility.yul\":7996:8058   */\n      tag_368\n        /* \"#utility.yul\":8050:8057   */\n      dup11\n        /* \"#utility.yul\":8041:8047   */\n      dup3\n        /* \"#utility.yul\":8030:8039   */\n      dup12\n        /* \"#utility.yul\":8026:8048   */\n      add\n        /* \"#utility.yul\":7996:8058   */\n      tag_218\n      jump\t// in\n    tag_368:\n        /* \"#utility.yul\":7986:8058   */\n      swap4\n      pop\n        /* \"#utility.yul\":7780:8068   */\n      pop\n        /* \"#utility.yul\":8107:8110   */\n      0xa0\n        /* \"#utility.yul\":8134:8187   */\n      tag_369\n        /* \"#utility.yul\":8179:8186   */\n      dup11\n        /* \"#utility.yul\":8170:8176   */\n      dup3\n        /* \"#utility.yul\":8159:8168   */\n      dup12\n        /* \"#utility.yul\":8155:8177   */\n      add\n        /* \"#utility.yul\":8134:8187   */\n      tag_212\n      jump\t// in\n    tag_369:\n        /* \"#utility.yul\":8124:8187   */\n      swap3\n      pop\n        /* \"#utility.yul\":8078:8197   */\n      pop\n        /* \"#utility.yul\":8236:8239   */\n      0xc0\n        /* \"#utility.yul\":8263:8316   */\n      tag_370\n        /* \"#utility.yul\":8308:8315   */\n      dup11\n        /* \"#utility.yul\":8299:8305   */\n      dup3\n        /* \"#utility.yul\":8288:8297   */\n      dup12\n        /* \"#utility.yul\":8284:8306   */\n      add\n        /* \"#utility.yul\":8263:8316   */\n      tag_221\n      jump\t// in\n    tag_370:\n        /* \"#utility.yul\":8253:8316   */\n      swap2\n      pop\n        /* \"#utility.yul\":8207:8326   */\n      pop\n        /* \"#utility.yul\":6952:8333   */\n      swap3\n      swap6\n      swap9\n      swap2\n      swap5\n      swap8\n      pop\n      swap3\n      swap6\n      pop\n      jump\t// out\n        /* \"#utility.yul\":8339:8668   */\n    tag_28:\n        /* \"#utility.yul\":8398:8404   */\n      0x00\n        /* \"#utility.yul\":8447:8449   */\n      0x20\n        /* \"#utility.yul\":8435:8444   */\n      dup3\n        /* \"#utility.yul\":8426:8433   */\n      dup5\n        /* \"#utility.yul\":8422:8445   */\n      sub\n        /* \"#utility.yul\":8418:8450   */\n      slt\n        /* \"#utility.yul\":8415:8534   */\n      iszero\n      tag_372\n      jumpi\n        /* \"#utility.yul\":8453:8532   */\n      tag_373\n      tag_195\n      jump\t// in\n    tag_373:\n        /* \"#utility.yul\":8415:8534   */\n    tag_372:\n        /* \"#utility.yul\":8573:8574   */\n      0x00\n        /* \"#utility.yul\":8598:8651   */\n      tag_374\n        /* \"#utility.yul\":8643:8650   */\n      dup5\n        /* \"#utility.yul\":8634:8640   */\n      dup3\n        /* \"#utility.yul\":8623:8632   */\n      dup6\n        /* \"#utility.yul\":8619:8641   */\n      add\n        /* \"#utility.yul\":8598:8651   */\n      tag_209\n      jump\t// in\n    tag_374:\n        /* \"#utility.yul\":8588:8651   */\n      swap2\n      pop\n        /* \"#utility.yul\":8544:8661   */\n      pop\n        /* \"#utility.yul\":8339:8668   */\n      swap3\n      swap2\n      pop\n      pop\n      jump\t// out\n        /* \"#utility.yul\":8674:9003   */\n    tag_33:\n        /* \"#utility.yul\":8733:8739   */\n      0x00\n        /* \"#utility.yul\":8782:8784   */\n      0x20\n        /* \"#utility.yul\":8770:8779   */\n      dup3\n        /* \"#utility.yul\":8761:8768   */\n      dup5\n        /* \"#utility.yul\":8757:8780   */\n      sub\n        /* \"#utility.yul\":8753:8785   */\n      slt\n        /* \"#utility.yul\":8750:8869   */\n      iszero\n      tag_376\n      jumpi\n        /* \"#utility.yul\":8788:8867   */\n      tag_377\n      tag_195\n      jump\t// in\n    tag_377:\n        /* \"#utility.yul\":8750:8869   */\n    tag_376:\n        /* \"#utility.yul\":8908:8909   */\n      0x00\n        /* \"#utility.yul\":8933:8986   */\n      tag_378\n        /* \"#utility.yul\":8978:8985   */\n      dup5\n        /* \"#utility.yul\":8969:8975   */\n      dup3\n        /* \"#utility.yul\":8958:8967   */\n      dup6\n        /* \"#utility.yul\":8954:8976   */\n      add\n        /* \"#utility.yul\":8933:8986   */\n      tag_212\n      jump\t// in\n    tag_378:\n        /* \"#utility.yul\":8923:8986   */\n      swap2\n      pop\n        /* \"#utility.yul\":8879:8996   */\n      pop\n        /* \"#utility.yul\":8674:9003   */\n      swap3\n      swap2\n      pop\n      pop\n      jump\t// out\n        /* \"#utility.yul\":9009:9127   */\n    tag_223:\n        /* \"#utility.yul\":9096:9120   */\n      tag_380\n        /* \"#utility.yul\":9114:9119   */\n      dup2\n        /* \"#utility.yul\":9096:9120   */\n      tag_210\n      jump\t// in\n    tag_380:\n        /* \"#utility.yul\":9091:9094   */\n      dup3\n        /* \"#utility.yul\":9084:9121   */\n      mstore\n        /* \"#utility.yul\":9009:9127   */\n      pop\n      pop\n      jump\t// out\n        /* \"#utility.yul\":9133:9355   */\n    tag_39:\n        /* \"#utility.yul\":9226:9230   */\n      0x00\n        /* \"#utility.yul\":9264:9266   */\n      0x20\n        /* \"#utility.yul\":9253:9262   */\n      dup3\n        /* \"#utility.yul\":9249:9267   */\n      add\n        /* \"#utility.yul\":9241:9267   */\n      swap1\n      pop\n        /* \"#utility.yul\":9277:9348   */\n      tag_382\n        /* \"#utility.yul\":9345:9346   */\n      0x00\n        /* \"#utility.yul\":9334:9343   */\n      dup4\n        /* \"#utility.yul\":9330:9347   */\n      add\n        /* \"#utility.yul\":9321:9327   */\n      dup5\n        /* \"#utility.yul\":9277:9348   */\n      tag_223\n      jump\t// in\n    tag_382:\n        /* \"#utility.yul\":9133:9355   */\n      swap3\n      swap2\n      pop\n      pop\n      jump\t// out\n        /* \"#utility.yul\":9361:9479   */\n    tag_224:\n        /* \"#utility.yul\":9448:9472   */\n      tag_384\n        /* \"#utility.yul\":9466:9471   */\n      dup2\n        /* \"#utility.yul\":9448:9472   */\n      tag_207\n      jump\t// in\n    tag_384:\n        /* \"#utility.yul\":9443:9446   */\n      dup3\n        /* \"#utility.yul\":9436:9473   */\n      mstore\n        /* \"#utility.yul\":9361:9479   */\n      pop\n      pop\n      jump\t// out\n        /* \"#utility.yul\":9485:9707   */\n    tag_48:\n        /* \"#utility.yul\":9578:9582   */\n      0x00\n        /* \"#utility.yul\":9616:9618   */\n      0x20\n        /* \"#utility.yul\":9605:9614   */\n      dup3\n        /* \"#utility.yul\":9601:9619   */\n      add\n        /* \"#utility.yul\":9593:9619   */\n      swap1\n      pop\n        /* \"#utility.yul\":9629:9700   */\n      tag_386\n        /* \"#utility.yul\":9697:9698   */\n      0x00\n        /* \"#utility.yul\":9686:9695   */\n      dup4\n        /* \"#utility.yul\":9682:9699   */\n      add\n        /* \"#utility.yul\":9673:9679   */\n      dup5\n        /* \"#utility.yul\":9629:9700   */\n      tag_224\n      jump\t// in\n    tag_386:\n        /* \"#utility.yul\":9485:9707   */\n      swap3\n      swap2\n      pop\n      pop\n      jump\t// out\n        /* \"#utility.yul\":9713:9882   */\n    tag_225:\n        /* \"#utility.yul\":9797:9808   */\n      0x00\n        /* \"#utility.yul\":9831:9837   */\n      dup3\n        /* \"#utility.yul\":9826:9829   */\n      dup3\n        /* \"#utility.yul\":9819:9838   */\n      mstore\n        /* \"#utility.yul\":9871:9875   */\n      0x20\n        /* \"#utility.yul\":9866:9869   */\n      dup3\n        /* \"#utility.yul\":9862:9876   */\n      add\n        /* \"#utility.yul\":9847:9876   */\n      swap1\n      pop\n        /* \"#utility.yul\":9713:9882   */\n      swap3\n      swap2\n      pop\n      pop\n      jump\t// out\n        /* \"#utility.yul\":9888:10062   */\n    tag_226:\n        /* \"#utility.yul\":10028:10054   */\n      0x6f6e6c79206f776e65722063616e2063616c6c20746869730000000000000000\n        /* \"#utility.yul\":10024:10025   */\n      0x00\n        /* \"#utility.yul\":10016:10022   */\n      dup3\n        /* \"#utility.yul\":10012:10026   */\n      add\n        /* \"#utility.yul\":10005:10055   */\n      mstore\n        /* \"#utility.yul\":9888:10062   */\n      pop\n      jump\t// out\n        /* \"#utility.yul\":10068:10434   */\n    tag_227:\n        /* \"#utility.yul\":10210:10213   */\n      0x00\n        /* \"#utility.yul\":10231:10298   */\n      tag_390\n        /* \"#utility.yul\":10295:10297   */\n      0x18\n        /* \"#utility.yul\":10290:10293   */\n      dup4\n        /* \"#utility.yul\":10231:10298   */\n      tag_225\n      jump\t// in\n    tag_390:\n        /* \"#utility.yul\":10224:10298   */\n      swap2\n      pop\n        /* \"#utility.yul\":10307:10400   */\n      tag_391\n        /* \"#utility.yul\":10396:10399   */\n      dup3\n        /* \"#utility.yul\":10307:10400   */\n      tag_226\n      jump\t// in\n    tag_391:\n        /* \"#utility.yul\":10425:10427   */\n      0x20\n        /* \"#utility.yul\":10420:10423   */\n      dup3\n        /* \"#utility.yul\":10416:10428   */\n      add\n        /* \"#utility.yul\":10409:10428   */\n      swap1\n      pop\n        /* \"#utility.yul\":10068:10434   */\n      swap2\n      swap1\n      pop\n      jump\t// out\n        /* \"#utility.yul\":10440:10859   */\n    tag_52:\n        /* \"#utility.yul\":10606:10610   */\n      0x00\n        /* \"#utility.yul\":10644:10646   */\n      0x20\n        /* \"#utility.yul\":10633:10642   */\n      dup3\n        /* \"#utility.yul\":10629:10647   */\n      add\n        /* \"#utility.yul\":10621:10647   */\n      swap1\n      pop\n        /* \"#utility.yul\":10693:10702   */\n      dup2\n        /* \"#utility.yul\":10687:10691   */\n      dup2\n        /* \"#utility.yul\":10683:10703   */\n      sub\n        /* \"#utility.yul\":10679:10680   */\n      0x00\n        /* \"#utility.yul\":10668:10677   */\n      dup4\n        /* \"#utility.yul\":10664:10681   */\n      add\n        /* \"#utility.yul\":10657:10704   */\n      mstore\n        /* \"#utility.yul\":10721:10852   */\n      tag_393\n        /* \"#utility.yul\":10847:10851   */\n      dup2\n        /* \"#utility.yul\":10721:10852   */\n      tag_227\n      jump\t// in\n    tag_393:\n        /* \"#utility.yul\":10713:10852   */\n      swap1\n      pop\n        /* \"#utility.yul\":10440:10859   */\n      swap2\n      swap1\n      pop\n      jump\t// out\n        /* \"#utility.yul\":10865:11086   */\n    tag_228:\n        /* \"#utility.yul\":11005:11039   */\n      0x4f6e6c792073656c6c65722063616e2063616c6c20746869732066756e637469\n        /* \"#utility.yul\":11001:11002   */\n      0x00\n        /* \"#utility.yul\":10993:10999   */\n      dup3\n        /* \"#utility.yul\":10989:11003   */\n      add\n        /* \"#utility.yul\":10982:11040   */\n      mstore\n        /* \"#utility.yul\":11074:11078   */\n      0x6f6e000000000000000000000000000000000000000000000000000000000000\n        /* \"#utility.yul\":11069:11071   */\n      0x20\n        /* \"#utility.yul\":11061:11067   */\n      dup3\n        /* \"#utility.yul\":11057:11072   */\n      add\n        /* \"#utility.yul\":11050:11079   */\n      mstore\n        /* \"#utility.yul\":10865:11086   */\n      pop\n      jump\t// out\n        /* \"#utility.yul\":11092:11458   */\n    tag_229:\n        /* \"#utility.yul\":11234:11237   */\n      0x00\n        /* \"#utility.yul\":11255:11322   */\n      tag_396\n        /* \"#utility.yul\":11319:11321   */\n      0x22\n        /* \"#utility.yul\":11314:11317   */\n      dup4\n        /* \"#utility.yul\":11255:11322   */\n      tag_225\n      jump\t// in\n    tag_396:\n        /* \"#utility.yul\":11248:11322   */\n      swap2\n      pop\n        /* \"#utility.yul\":11331:11424   */\n      tag_397\n        /* \"#utility.yul\":11420:11423   */\n      dup3\n        /* \"#utility.yul\":11331:11424   */\n      tag_228\n      jump\t// in\n    tag_397:\n        /* \"#utility.yul\":11449:11451   */\n      0x40\n        /* \"#utility.yul\":11444:11447   */\n      dup3\n        /* \"#utility.yul\":11440:11452   */\n      add\n        /* \"#utility.yul\":11433:11452   */\n      swap1\n      pop\n        /* \"#utility.yul\":11092:11458   */\n      swap2\n      swap1\n      pop\n      jump\t// out\n        /* \"#utility.yul\":11464:11883   */\n    tag_56:\n        /* \"#utility.yul\":11630:11634   */\n      0x00\n        /* \"#utility.yul\":11668:11670   */\n      0x20\n        /* \"#utility.yul\":11657:11666   */\n      dup3\n        /* \"#utility.yul\":11653:11671   */\n      add\n        /* \"#utility.yul\":11645:11671   */\n      swap1\n      pop\n        /* \"#utility.yul\":11717:11726   */\n      dup2\n        /* \"#utility.yul\":11711:11715   */\n      dup2\n        /* \"#utility.yul\":11707:11727   */\n      sub\n        /* \"#utility.yul\":11703:11704   */\n      0x00\n        /* \"#utility.yul\":11692:11701   */\n      dup4\n        /* \"#utility.yul\":11688:11705   */\n      add\n        /* \"#utility.yul\":11681:11728   */\n      mstore\n        /* \"#utility.yul\":11745:11876   */\n      tag_399\n        /* \"#utility.yul\":11871:11875   */\n      dup2\n        /* \"#utility.yul\":11745:11876   */\n      tag_229\n      jump\t// in\n    tag_399:\n        /* \"#utility.yul\":11737:11876   */\n      swap1\n      pop\n        /* \"#utility.yul\":11464:11883   */\n      swap2\n      swap1\n      pop\n      jump\t// out\n        /* \"#utility.yul\":11889:12056   */\n    tag_230:\n        /* \"#utility.yul\":12029:12048   */\n      0x496e76616c6964207369676e6174757265000000000000000000000000000000\n        /* \"#utility.yul\":12025:12026   */\n      0x00\n        /* \"#utility.yul\":12017:12023   */\n      dup3\n        /* \"#utility.yul\":12013:12027   */\n      add\n        /* \"#utility.yul\":12006:12049   */\n      mstore\n        /* \"#utility.yul\":11889:12056   */\n      pop\n      jump\t// out\n        /* \"#utility.yul\":12062:12428   */\n    tag_231:\n        /* \"#utility.yul\":12204:12207   */\n      0x00\n        /* \"#utility.yul\":12225:12292   */\n      tag_402\n        /* \"#utility.yul\":12289:12291   */\n      0x11\n        /* \"#utility.yul\":12284:12287   */\n      dup4\n        /* \"#utility.yul\":12225:12292   */\n      tag_225\n      jump\t// in\n    tag_402:\n        /* \"#utility.yul\":12218:12292   */\n      swap2\n      pop\n        /* \"#utility.yul\":12301:12394   */\n      tag_403\n        /* \"#utility.yul\":12390:12393   */\n      dup3\n        /* \"#utility.yul\":12301:12394   */\n      tag_230\n      jump\t// in\n    tag_403:\n        /* \"#utility.yul\":12419:12421   */\n      0x20\n        /* \"#utility.yul\":12414:12417   */\n      dup3\n        /* \"#utility.yul\":12410:12422   */\n      add\n        /* \"#utility.yul\":12403:12422   */\n      swap1\n      pop\n        /* \"#utility.yul\":12062:12428   */\n      swap2\n      swap1\n      pop\n      jump\t// out\n        /* \"#utility.yul\":12434:12853   */\n    tag_69:\n        /* \"#utility.yul\":12600:12604   */\n      0x00\n        /* \"#utility.yul\":12638:12640   */\n      0x20\n        /* \"#utility.yul\":12627:12636   */\n      dup3\n        /* \"#utility.yul\":12623:12641   */\n      add\n        /* \"#utility.yul\":12615:12641   */\n      swap1\n      pop\n        /* \"#utility.yul\":12687:12696   */\n      dup2\n        /* \"#utility.yul\":12681:12685   */\n      dup2\n        /* \"#utility.yul\":12677:12697   */\n      sub\n        /* \"#utility.yul\":12673:12674   */\n      0x00\n        /* \"#utility.yul\":12662:12671   */\n      dup4\n        /* \"#utility.yul\":12658:12675   */\n      add\n        /* \"#utility.yul\":12651:12698   */\n      mstore\n        /* \"#utility.yul\":12715:12846   */\n      tag_405\n        /* \"#utility.yul\":12841:12845   */\n      dup2\n        /* \"#utility.yul\":12715:12846   */\n      tag_231\n      jump\t// in\n    tag_405:\n        /* \"#utility.yul\":12707:12846   */\n      swap1\n      pop\n        /* \"#utility.yul\":12434:12853   */\n      swap2\n      swap1\n      pop\n      jump\t// out\n        /* \"#utility.yul\":12859:13031   */\n    tag_232:\n        /* \"#utility.yul\":12999:13023   */\n      0x50726f78792077616c6c6574206e6f7420666f756e6400000000000000000000\n        /* \"#utility.yul\":12995:12996   */\n      0x00\n        /* \"#utility.yul\":12987:12993   */\n      dup3\n        /* \"#utility.yul\":12983:12997   */\n      add\n        /* \"#utility.yul\":12976:13024   */\n      mstore\n        /* \"#utility.yul\":12859:13031   */\n      pop\n      jump\t// out\n        /* \"#utility.yul\":13037:13403   */\n    tag_233:\n        /* \"#utility.yul\":13179:13182   */\n      0x00\n        /* \"#utility.yul\":13200:13267   */\n      tag_408\n        /* \"#utility.yul\":13264:13266   */\n      0x16\n        /* \"#utility.yul\":13259:13262   */\n      dup4\n        /* \"#utility.yul\":13200:13267   */\n      tag_225\n      jump\t// in\n    tag_408:\n        /* \"#utility.yul\":13193:13267   */\n      swap2\n      pop\n        /* \"#utility.yul\":13276:13369   */\n      tag_409\n        /* \"#utility.yul\":13365:13368   */\n      dup3\n        /* \"#utility.yul\":13276:13369   */\n      tag_232\n      jump\t// in\n    tag_409:\n        /* \"#utility.yul\":13394:13396   */\n      0x20\n        /* \"#utility.yul\":13389:13392   */\n      dup3\n        /* \"#utility.yul\":13385:13397   */\n      add\n        /* \"#utility.yul\":13378:13397   */\n      swap1\n      pop\n        /* \"#utility.yul\":13037:13403   */\n      swap2\n      swap1\n      pop\n      jump\t// out\n        /* \"#utility.yul\":13409:13828   */\n    tag_72:\n        /* \"#utility.yul\":13575:13579   */\n      0x00\n        /* \"#utility.yul\":13613:13615   */\n      0x20\n        /* \"#utility.yul\":13602:13611   */\n      dup3\n        /* \"#utility.yul\":13598:13616   */\n      add\n        /* \"#utility.yul\":13590:13616   */\n      swap1\n      pop\n        /* \"#utility.yul\":13662:13671   */\n      dup2\n        /* \"#utility.yul\":13656:13660   */\n      dup2\n        /* \"#utility.yul\":13652:13672   */\n      sub\n        /* \"#utility.yul\":13648:13649   */\n      0x00\n        /* \"#utility.yul\":13637:13646   */\n      dup4\n        /* \"#utility.yul\":13633:13650   */\n      add\n        /* \"#utility.yul\":13626:13673   */\n      mstore\n        /* \"#utility.yul\":13690:13821   */\n      tag_411\n        /* \"#utility.yul\":13816:13820   */\n      dup2\n        /* \"#utility.yul\":13690:13821   */\n      tag_233\n      jump\t// in\n    tag_411:\n        /* \"#utility.yul\":13682:13821   */\n      swap1\n      pop\n        /* \"#utility.yul\":13409:13828   */\n      swap2\n      swap1\n      pop\n      jump\t// out\n        /* \"#utility.yul\":13834:13977   */\n    tag_234:\n        /* \"#utility.yul\":13891:13896   */\n      0x00\n        /* \"#utility.yul\":13922:13928   */\n      dup2\n        /* \"#utility.yul\":13916:13929   */\n      mload\n        /* \"#utility.yul\":13907:13929   */\n      swap1\n      pop\n        /* \"#utility.yul\":13938:13971   */\n      tag_413\n        /* \"#utility.yul\":13965:13970   */\n      dup2\n        /* \"#utility.yul\":13938:13971   */\n      tag_208\n      jump\t// in\n    tag_413:\n        /* \"#utility.yul\":13834:13977   */\n      swap3\n      swap2\n      pop\n      pop\n      jump\t// out\n        /* \"#utility.yul\":13983:14334   */\n    tag_79:\n        /* \"#utility.yul\":14053:14059   */\n      0x00\n        /* \"#utility.yul\":14102:14104   */\n      0x20\n        /* \"#utility.yul\":14090:14099   */\n      dup3\n        /* \"#utility.yul\":14081:14088   */\n      dup5\n        /* \"#utility.yul\":14077:14100   */\n      sub\n        /* \"#utility.yul\":14073:14105   */\n      slt\n        /* \"#utility.yul\":14070:14189   */\n      iszero\n      tag_415\n      jumpi\n        /* \"#utility.yul\":14108:14187   */\n      tag_416\n      tag_195\n      jump\t// in\n    tag_416:\n        /* \"#utility.yul\":14070:14189   */\n    tag_415:\n        /* \"#utility.yul\":14228:14229   */\n      0x00\n        /* \"#utility.yul\":14253:14317   */\n      tag_417\n        /* \"#utility.yul\":14309:14316   */\n      dup5\n        /* \"#utility.yul\":14300:14306   */\n      dup3\n        /* \"#utility.yul\":14289:14298   */\n      dup6\n        /* \"#utility.yul\":14285:14307   */\n      add\n        /* \"#utility.yul\":14253:14317   */\n      tag_234\n      jump\t// in\n    tag_417:\n        /* \"#utility.yul\":14243:14317   */\n      swap2\n      pop\n        /* \"#utility.yul\":14199:14327   */\n      pop\n        /* \"#utility.yul\":13983:14334   */\n      swap3\n      swap2\n      pop\n      pop\n      jump\t// out\n        /* \"#utility.yul\":14340:14564   */\n    tag_235:\n        /* \"#utility.yul\":14480:14514   */\n      0x53656c6c6572206973206e6f7420746865206f776e6572206f66207468697320\n        /* \"#utility.yul\":14476:14477   */\n      0x00\n        /* \"#utility.yul\":14468:14474   */\n      dup3\n        /* \"#utility.yul\":14464:14478   */\n      add\n        /* \"#utility.yul\":14457:14515   */\n      mstore\n        /* \"#utility.yul\":14549:14556   */\n      0x746f6b656e000000000000000000000000000000000000000000000000000000\n        /* \"#utility.yul\":14544:14546   */\n      0x20\n        /* \"#utility.yul\":14536:14542   */\n      dup3\n        /* \"#utility.yul\":14532:14547   */\n      add\n        /* \"#utility.yul\":14525:14557   */\n      mstore\n        /* \"#utility.yul\":14340:14564   */\n      pop\n      jump\t// out\n        /* \"#utility.yul\":14570:14936   */\n    tag_236:\n        /* \"#utility.yul\":14712:14715   */\n      0x00\n        /* \"#utility.yul\":14733:14800   */\n      tag_420\n        /* \"#utility.yul\":14797:14799   */\n      0x25\n        /* \"#utility.yul\":14792:14795   */\n      dup4\n        /* \"#utility.yul\":14733:14800   */\n      tag_225\n      jump\t// in\n    tag_420:\n        /* \"#utility.yul\":14726:14800   */\n      swap2\n      pop\n        /* \"#utility.yul\":14809:14902   */\n      tag_421\n        /* \"#utility.yul\":14898:14901   */\n      dup3\n        /* \"#utility.yul\":14809:14902   */\n      tag_235\n      jump\t// in\n    tag_421:\n        /* \"#utility.yul\":14927:14929   */\n      0x40\n        /* \"#utility.yul\":14922:14925   */\n      dup3\n        /* \"#utility.yul\":14918:14930   */\n      add\n        /* \"#utility.yul\":14911:14930   */\n      swap1\n      pop\n        /* \"#utility.yul\":14570:14936   */\n      swap2\n      swap1\n      pop\n      jump\t// out\n        /* \"#utility.yul\":14942:15361   */\n    tag_82:\n        /* \"#utility.yul\":15108:15112   */\n      0x00\n        /* \"#utility.yul\":15146:15148   */\n      0x20\n        /* \"#utility.yul\":15135:15144   */\n      dup3\n        /* \"#utility.yul\":15131:15149   */\n      add\n        /* \"#utility.yul\":15123:15149   */\n      swap1\n      pop\n        /* \"#utility.yul\":15195:15204   */\n      dup2\n        /* \"#utility.yul\":15189:15193   */\n      dup2\n        /* \"#utility.yul\":15185:15205   */\n      sub\n        /* \"#utility.yul\":15181:15182   */\n      0x00\n        /* \"#utility.yul\":15170:15179   */\n      dup4\n        /* \"#utility.yul\":15166:15183   */\n      add\n        /* \"#utility.yul\":15159:15206   */\n      mstore\n        /* \"#utility.yul\":15223:15354   */\n      tag_423\n        /* \"#utility.yul\":15349:15353   */\n      dup2\n        /* \"#utility.yul\":15223:15354   */\n      tag_236\n      jump\t// in\n    tag_423:\n        /* \"#utility.yul\":15215:15354   */\n      swap1\n      pop\n        /* \"#utility.yul\":14942:15361   */\n      swap2\n      swap1\n      pop\n      jump\t// out\n        /* \"#utility.yul\":15367:15485   */\n    tag_237:\n        /* \"#utility.yul\":15454:15478   */\n      tag_425\n        /* \"#utility.yul\":15472:15477   */\n      dup2\n        /* \"#utility.yul\":15454:15478   */\n      tag_219\n      jump\t// in\n    tag_425:\n        /* \"#utility.yul\":15449:15452   */\n      dup3\n        /* \"#utility.yul\":15442:15479   */\n      mstore\n        /* \"#utility.yul\":15367:15485   */\n      pop\n      pop\n      jump\t// out\n        /* \"#utility.yul\":15491:15823   */\n    tag_86:\n        /* \"#utility.yul\":15612:15616   */\n      0x00\n        /* \"#utility.yul\":15650:15652   */\n      0x40\n        /* \"#utility.yul\":15639:15648   */\n      dup3\n        /* \"#utility.yul\":15635:15653   */\n      add\n        /* \"#utility.yul\":15627:15653   */\n      swap1\n      pop\n        /* \"#utility.yul\":15663:15734   */\n      tag_427\n        /* \"#utility.yul\":15731:15732   */\n      0x00\n        /* \"#utility.yul\":15720:15729   */\n      dup4\n        /* \"#utility.yul\":15716:15733   */\n      add\n        /* \"#utility.yul\":15707:15713   */\n      dup6\n        /* \"#utility.yul\":15663:15734   */\n      tag_237\n      jump\t// in\n    tag_427:\n        /* \"#utility.yul\":15744:15816   */\n      tag_428\n        /* \"#utility.yul\":15812:15814   */\n      0x20\n        /* \"#utility.yul\":15801:15810   */\n      dup4\n        /* \"#utility.yul\":15797:15815   */\n      add\n        /* \"#utility.yul\":15788:15794   */\n      dup5\n        /* \"#utility.yul\":15744:15816   */\n      tag_223\n      jump\t// in\n    tag_428:\n        /* \"#utility.yul\":15491:15823   */\n      swap4\n      swap3\n      pop\n      pop\n      pop\n      jump\t// out\n        /* \"#utility.yul\":15829:15923   */\n    tag_238:\n        /* \"#utility.yul\":15862:15870   */\n      0x00\n        /* \"#utility.yul\":15910:15915   */\n      dup2\n        /* \"#utility.yul\":15906:15908   */\n      0x60\n        /* \"#utility.yul\":15902:15916   */\n      shl\n        /* \"#utility.yul\":15881:15916   */\n      swap1\n      pop\n        /* \"#utility.yul\":15829:15923   */\n      swap2\n      swap1\n      pop\n      jump\t// out\n        /* \"#utility.yul\":15929:16023   */\n    tag_239:\n        /* \"#utility.yul\":15968:15975   */\n      0x00\n        /* \"#utility.yul\":15997:16017   */\n      tag_431\n        /* \"#utility.yul\":16011:16016   */\n      dup3\n        /* \"#utility.yul\":15997:16017   */\n      tag_238\n      jump\t// in\n    tag_431:\n        /* \"#utility.yul\":15986:16017   */\n      swap1\n      pop\n        /* \"#utility.yul\":15929:16023   */\n      swap2\n      swap1\n      pop\n      jump\t// out\n        /* \"#utility.yul\":16029:16129   */\n    tag_240:\n        /* \"#utility.yul\":16068:16075   */\n      0x00\n        /* \"#utility.yul\":16097:16123   */\n      tag_433\n        /* \"#utility.yul\":16117:16122   */\n      dup3\n        /* \"#utility.yul\":16097:16123   */\n      tag_239\n      jump\t// in\n    tag_433:\n        /* \"#utility.yul\":16086:16123   */\n      swap1\n      pop\n        /* \"#utility.yul\":16029:16129   */\n      swap2\n      swap1\n      pop\n      jump\t// out\n        /* \"#utility.yul\":16135:16292   */\n    tag_241:\n        /* \"#utility.yul\":16240:16285   */\n      tag_435\n        /* \"#utility.yul\":16260:16284   */\n      tag_436\n        /* \"#utility.yul\":16278:16283   */\n      dup3\n        /* \"#utility.yul\":16260:16284   */\n      tag_207\n      jump\t// in\n    tag_436:\n        /* \"#utility.yul\":16240:16285   */\n      tag_240\n      jump\t// in\n    tag_435:\n        /* \"#utility.yul\":16235:16238   */\n      dup3\n        /* \"#utility.yul\":16228:16286   */\n      mstore\n        /* \"#utility.yul\":16135:16292   */\n      pop\n      pop\n      jump\t// out\n        /* \"#utility.yul\":16298:16377   */\n    tag_242:\n        /* \"#utility.yul\":16337:16344   */\n      0x00\n        /* \"#utility.yul\":16366:16371   */\n      dup2\n        /* \"#utility.yul\":16355:16371   */\n      swap1\n      pop\n        /* \"#utility.yul\":16298:16377   */\n      swap2\n      swap1\n      pop\n      jump\t// out\n        /* \"#utility.yul\":16383:16540   */\n    tag_243:\n        /* \"#utility.yul\":16488:16533   */\n      tag_439\n        /* \"#utility.yul\":16508:16532   */\n      tag_440\n        /* \"#utility.yul\":16526:16531   */\n      dup3\n        /* \"#utility.yul\":16508:16532   */\n      tag_210\n      jump\t// in\n    tag_440:\n        /* \"#utility.yul\":16488:16533   */\n      tag_242\n      jump\t// in\n    tag_439:\n        /* \"#utility.yul\":16483:16486   */\n      dup3\n        /* \"#utility.yul\":16476:16534   */\n      mstore\n        /* \"#utility.yul\":16383:16540   */\n      pop\n      pop\n      jump\t// out\n        /* \"#utility.yul\":16546:16644   */\n    tag_244:\n        /* \"#utility.yul\":16597:16603   */\n      0x00\n        /* \"#utility.yul\":16631:16636   */\n      dup2\n        /* \"#utility.yul\":16625:16637   */\n      mload\n        /* \"#utility.yul\":16615:16637   */\n      swap1\n      pop\n        /* \"#utility.yul\":16546:16644   */\n      swap2\n      swap1\n      pop\n      jump\t// out\n        /* \"#utility.yul\":16650:16797   */\n    tag_245:\n        /* \"#utility.yul\":16751:16762   */\n      0x00\n        /* \"#utility.yul\":16788:16791   */\n      dup2\n        /* \"#utility.yul\":16773:16791   */\n      swap1\n      pop\n        /* \"#utility.yul\":16650:16797   */\n      swap3\n      swap2\n      pop\n      pop\n      jump\t// out\n        /* \"#utility.yul\":16803:17049   */\n    tag_246:\n        /* \"#utility.yul\":16884:16885   */\n      0x00\n        /* \"#utility.yul\":16894:17007   */\n    tag_444:\n        /* \"#utility.yul\":16908:16914   */\n      dup4\n        /* \"#utility.yul\":16905:16906   */\n      dup2\n        /* \"#utility.yul\":16902:16915   */\n      lt\n        /* \"#utility.yul\":16894:17007   */\n      iszero\n      tag_446\n      jumpi\n        /* \"#utility.yul\":16993:16994   */\n      dup1\n        /* \"#utility.yul\":16988:16991   */\n      dup3\n        /* \"#utility.yul\":16984:16995   */\n      add\n        /* \"#utility.yul\":16978:16996   */\n      mload\n        /* \"#utility.yul\":16974:16975   */\n      dup2\n        /* \"#utility.yul\":16969:16972   */\n      dup5\n        /* \"#utility.yul\":16965:16976   */\n      add\n        /* \"#utility.yul\":16958:16997   */\n      mstore\n        /* \"#utility.yul\":16930:16932   */\n      0x20\n        /* \"#utility.yul\":16927:16928   */\n      dup2\n        /* \"#utility.yul\":16923:16933   */\n      add\n        /* \"#utility.yul\":16918:16933   */\n      swap1\n      pop\n        /* \"#utility.yul\":16894:17007   */\n      jump(tag_444)\n    tag_446:\n        /* \"#utility.yul\":17041:17042   */\n      0x00\n        /* \"#utility.yul\":17032:17038   */\n      dup5\n        /* \"#utility.yul\":17027:17030   */\n      dup5\n        /* \"#utility.yul\":17023:17039   */\n      add\n        /* \"#utility.yul\":17016:17043   */\n      mstore\n        /* \"#utility.yul\":16865:17049   */\n      pop\n        /* \"#utility.yul\":16803:17049   */\n      pop\n      pop\n      pop\n      jump\t// out\n        /* \"#utility.yul\":17055:17441   */\n    tag_247:\n        /* \"#utility.yul\":17159:17162   */\n      0x00\n        /* \"#utility.yul\":17187:17225   */\n      tag_448\n        /* \"#utility.yul\":17219:17224   */\n      dup3\n        /* \"#utility.yul\":17187:17225   */\n      tag_244\n      jump\t// in\n    tag_448:\n        /* \"#utility.yul\":17241:17329   */\n      tag_449\n        /* \"#utility.yul\":17322:17328   */\n      dup2\n        /* \"#utility.yul\":17317:17320   */\n      dup6\n        /* \"#utility.yul\":17241:17329   */\n      tag_245\n      jump\t// in\n    tag_449:\n        /* \"#utility.yul\":17234:17329   */\n      swap4\n      pop\n        /* \"#utility.yul\":17338:17403   */\n      tag_450\n        /* \"#utility.yul\":17396:17402   */\n      dup2\n        /* \"#utility.yul\":17391:17394   */\n      dup6\n        /* \"#utility.yul\":17384:17388   */\n      0x20\n        /* \"#utility.yul\":17377:17382   */\n      dup7\n        /* \"#utility.yul\":17373:17389   */\n      add\n        /* \"#utility.yul\":17338:17403   */\n      tag_246\n      jump\t// in\n    tag_450:\n        /* \"#utility.yul\":17428:17434   */\n      dup1\n        /* \"#utility.yul\":17423:17426   */\n      dup5\n        /* \"#utility.yul\":17419:17435   */\n      add\n        /* \"#utility.yul\":17412:17435   */\n      swap2\n      pop\n        /* \"#utility.yul\":17163:17441   */\n      pop\n        /* \"#utility.yul\":17055:17441   */\n      swap3\n      swap2\n      pop\n      pop\n      jump\t// out\n        /* \"#utility.yul\":17447:18282   */\n    tag_88:\n        /* \"#utility.yul\":17689:17692   */\n      0x00\n        /* \"#utility.yul\":17704:17779   */\n      tag_452\n        /* \"#utility.yul\":17775:17778   */\n      dup3\n        /* \"#utility.yul\":17766:17772   */\n      dup9\n        /* \"#utility.yul\":17704:17779   */\n      tag_241\n      jump\t// in\n    tag_452:\n        /* \"#utility.yul\":17804:17806   */\n      0x14\n        /* \"#utility.yul\":17799:17802   */\n      dup3\n        /* \"#utility.yul\":17795:17807   */\n      add\n        /* \"#utility.yul\":17788:17807   */\n      swap2\n      pop\n        /* \"#utility.yul\":17817:17892   */\n      tag_453\n        /* \"#utility.yul\":17888:17891   */\n      dup3\n        /* \"#utility.yul\":17879:17885   */\n      dup8\n        /* \"#utility.yul\":17817:17892   */\n      tag_243\n      jump\t// in\n    tag_453:\n        /* \"#utility.yul\":17917:17919   */\n      0x20\n        /* \"#utility.yul\":17912:17915   */\n      dup3\n        /* \"#utility.yul\":17908:17920   */\n      add\n        /* \"#utility.yul\":17901:17920   */\n      swap2\n      pop\n        /* \"#utility.yul\":17930:18005   */\n      tag_454\n        /* \"#utility.yul\":18001:18004   */\n      dup3\n        /* \"#utility.yul\":17992:17998   */\n      dup7\n        /* \"#utility.yul\":17930:18005   */\n      tag_243\n      jump\t// in\n    tag_454:\n        /* \"#utility.yul\":18030:18032   */\n      0x20\n        /* \"#utility.yul\":18025:18028   */\n      dup3\n        /* \"#utility.yul\":18021:18033   */\n      add\n        /* \"#utility.yul\":18014:18033   */\n      swap2\n      pop\n        /* \"#utility.yul\":18043:18118   */\n      tag_455\n        /* \"#utility.yul\":18114:18117   */\n      dup3\n        /* \"#utility.yul\":18105:18111   */\n      dup6\n        /* \"#utility.yul\":18043:18118   */\n      tag_243\n      jump\t// in\n    tag_455:\n        /* \"#utility.yul\":18143:18145   */\n      0x20\n        /* \"#utility.yul\":18138:18141   */\n      dup3\n        /* \"#utility.yul\":18134:18146   */\n      add\n        /* \"#utility.yul\":18127:18146   */\n      swap2\n      pop\n        /* \"#utility.yul\":18163:18256   */\n      tag_456\n        /* \"#utility.yul\":18252:18255   */\n      dup3\n        /* \"#utility.yul\":18243:18249   */\n      dup5\n        /* \"#utility.yul\":18163:18256   */\n      tag_247\n      jump\t// in\n    tag_456:\n        /* \"#utility.yul\":18156:18256   */\n      swap2\n      pop\n        /* \"#utility.yul\":18273:18276   */\n      dup2\n        /* \"#utility.yul\":18266:18276   */\n      swap1\n      pop\n        /* \"#utility.yul\":17447:18282   */\n      swap7\n      swap6\n      pop\n      pop\n      pop\n      pop\n      pop\n      pop\n      jump\t// out\n        /* \"#utility.yul\":18288:18510   */\n    tag_90:\n        /* \"#utility.yul\":18381:18385   */\n      0x00\n        /* \"#utility.yul\":18419:18421   */\n      0x20\n        /* \"#utility.yul\":18408:18417   */\n      dup3\n        /* \"#utility.yul\":18404:18422   */\n      add\n        /* \"#utility.yul\":18396:18422   */\n      swap1\n      pop\n        /* \"#utility.yul\":18432:18503   */\n      tag_458\n        /* \"#utility.yul\":18500:18501   */\n      0x00\n        /* \"#utility.yul\":18489:18498   */\n      dup4\n        /* \"#utility.yul\":18485:18502   */\n      add\n        /* \"#utility.yul\":18476:18482   */\n      dup5\n        /* \"#utility.yul\":18432:18503   */\n      tag_237\n      jump\t// in\n    tag_458:\n        /* \"#utility.yul\":18288:18510   */\n      swap3\n      swap2\n      pop\n      pop\n      jump\t// out\n        /* \"#utility.yul\":18516:18787   */\n    tag_92:\n        /* \"#utility.yul\":18646:18649   */\n      0x00\n        /* \"#utility.yul\":18668:18761   */\n      tag_460\n        /* \"#utility.yul\":18757:18760   */\n      dup3\n        /* \"#utility.yul\":18748:18754   */\n      dup5\n        /* \"#utility.yul\":18668:18761   */\n      tag_247\n      jump\t// in\n    tag_460:\n        /* \"#utility.yul\":18661:18761   */\n      swap2\n      pop\n        /* \"#utility.yul\":18778:18781   */\n      dup2\n        /* \"#utility.yul\":18771:18781   */\n      swap1\n      pop\n        /* \"#utility.yul\":18516:18787   */\n      swap3\n      swap2\n      pop\n      pop\n      jump\t// out\n        /* \"#utility.yul\":18793:18883   */\n    tag_248:\n        /* \"#utility.yul\":18827:18834   */\n      0x00\n        /* \"#utility.yul\":18870:18875   */\n      dup2\n        /* \"#utility.yul\":18863:18876   */\n      iszero\n        /* \"#utility.yul\":18856:18877   */\n      iszero\n        /* \"#utility.yul\":18845:18877   */\n      swap1\n      pop\n        /* \"#utility.yul\":18793:18883   */\n      swap2\n      swap1\n      pop\n      jump\t// out\n        /* \"#utility.yul\":18889:19005   */\n    tag_249:\n        /* \"#utility.yul\":18959:18980   */\n      tag_463\n        /* \"#utility.yul\":18974:18979   */\n      dup2\n        /* \"#utility.yul\":18959:18980   */\n      tag_248\n      jump\t// in\n    tag_463:\n        /* \"#utility.yul\":18952:18957   */\n      dup2\n        /* \"#utility.yul\":18949:18981   */\n      eq\n        /* \"#utility.yul\":18939:18999   */\n      tag_464\n      jumpi\n        /* \"#utility.yul\":18995:18996   */\n      0x00\n        /* \"#utility.yul\":18992:18993   */\n      dup1\n        /* \"#utility.yul\":18985:18997   */\n      revert\n        /* \"#utility.yul\":18939:18999   */\n    tag_464:\n        /* \"#utility.yul\":18889:19005   */\n      pop\n      jump\t// out\n        /* \"#utility.yul\":19011:19148   */\n    tag_250:\n        /* \"#utility.yul\":19065:19070   */\n      0x00\n        /* \"#utility.yul\":19096:19102   */\n      dup2\n        /* \"#utility.yul\":19090:19103   */\n      mload\n        /* \"#utility.yul\":19081:19103   */\n      swap1\n      pop\n        /* \"#utility.yul\":19112:19142   */\n      tag_466\n        /* \"#utility.yul\":19136:19141   */\n      dup2\n        /* \"#utility.yul\":19112:19142   */\n      tag_249\n      jump\t// in\n    tag_466:\n        /* \"#utility.yul\":19011:19148   */\n      swap3\n      swap2\n      pop\n      pop\n      jump\t// out\n        /* \"#utility.yul\":19154:19499   */\n    tag_97:\n        /* \"#utility.yul\":19221:19227   */\n      0x00\n        /* \"#utility.yul\":19270:19272   */\n      0x20\n        /* \"#utility.yul\":19258:19267   */\n      dup3\n        /* \"#utility.yul\":19249:19256   */\n      dup5\n        /* \"#utility.yul\":19245:19268   */\n      sub\n        /* \"#utility.yul\":19241:19273   */\n      slt\n        /* \"#utility.yul\":19238:19357   */\n      iszero\n      tag_468\n      jumpi\n        /* \"#utility.yul\":19276:19355   */\n      tag_469\n      tag_195\n      jump\t// in\n    tag_469:\n        /* \"#utility.yul\":19238:19357   */\n    tag_468:\n        /* \"#utility.yul\":19396:19397   */\n      0x00\n        /* \"#utility.yul\":19421:19482   */\n      tag_470\n        /* \"#utility.yul\":19474:19481   */\n      dup5\n        /* \"#utility.yul\":19465:19471   */\n      dup3\n        /* \"#utility.yul\":19454:19463   */\n      dup6\n        /* \"#utility.yul\":19450:19472   */\n      add\n        /* \"#utility.yul\":19421:19482   */\n      tag_250\n      jump\t// in\n    tag_470:\n        /* \"#utility.yul\":19411:19482   */\n      swap2\n      pop\n        /* \"#utility.yul\":19367:19492   */\n      pop\n        /* \"#utility.yul\":19154:19499   */\n      swap3\n      swap2\n      pop\n      pop\n      jump\t// out\n        /* \"#utility.yul\":19505:19673   */\n    tag_251:\n        /* \"#utility.yul\":19645:19665   */\n      0x4f72646572206973206e6f742076616c69640000000000000000000000000000\n        /* \"#utility.yul\":19641:19642   */\n      0x00\n        /* \"#utility.yul\":19633:19639   */\n      dup3\n        /* \"#utility.yul\":19629:19643   */\n      add\n        /* \"#utility.yul\":19622:19666   */\n      mstore\n        /* \"#utility.yul\":19505:19673   */\n      pop\n      jump\t// out\n        /* \"#utility.yul\":19679:20045   */\n    tag_252:\n        /* \"#utility.yul\":19821:19824   */\n      0x00\n        /* \"#utility.yul\":19842:19909   */\n      tag_473\n        /* \"#utility.yul\":19906:19908   */\n      0x12\n        /* \"#utility.yul\":19901:19904   */\n      dup4\n        /* \"#utility.yul\":19842:19909   */\n      tag_225\n      jump\t// in\n    tag_473:\n        /* \"#utility.yul\":19835:19909   */\n      swap2\n      pop\n        /* \"#utility.yul\":19918:20011   */\n      tag_474\n        /* \"#utility.yul\":20007:20010   */\n      dup3\n        /* \"#utility.yul\":19918:20011   */\n      tag_251\n      jump\t// in\n    tag_474:\n        /* \"#utility.yul\":20036:20038   */\n      0x20\n        /* \"#utility.yul\":20031:20034   */\n      dup3\n        /* \"#utility.yul\":20027:20039   */\n      add\n        /* \"#utility.yul\":20020:20039   */\n      swap1\n      pop\n        /* \"#utility.yul\":19679:20045   */\n      swap2\n      swap1\n      pop\n      jump\t// out\n        /* \"#utility.yul\":20051:20470   */\n    tag_101:\n        /* \"#utility.yul\":20217:20221   */\n      0x00\n        /* \"#utility.yul\":20255:20257   */\n      0x20\n        /* \"#utility.yul\":20244:20253   */\n      dup3\n        /* \"#utility.yul\":20240:20258   */\n      add\n        /* \"#utility.yul\":20232:20258   */\n      swap1\n      pop\n        /* \"#utility.yul\":20304:20313   */\n      dup2\n        /* \"#utility.yul\":20298:20302   */\n      dup2\n        /* \"#utility.yul\":20294:20314   */\n      sub\n        /* \"#utility.yul\":20290:20291   */\n      0x00\n        /* \"#utility.yul\":20279:20288   */\n      dup4\n        /* \"#utility.yul\":20275:20292   */\n      add\n        /* \"#utility.yul\":20268:20315   */\n      mstore\n        /* \"#utility.yul\":20332:20463   */\n      tag_476\n        /* \"#utility.yul\":20458:20462   */\n      dup2\n        /* \"#utility.yul\":20332:20463   */\n      tag_252\n      jump\t// in\n    tag_476:\n        /* \"#utility.yul\":20324:20463   */\n      swap1\n      pop\n        /* \"#utility.yul\":20051:20470   */\n      swap2\n      swap1\n      pop\n      jump\t// out\n        /* \"#utility.yul\":20476:20656   */\n    tag_253:\n        /* \"#utility.yul\":20524:20601   */\n      0x4e487b7100000000000000000000000000000000000000000000000000000000\n        /* \"#utility.yul\":20521:20522   */\n      0x00\n        /* \"#utility.yul\":20514:20602   */\n      mstore\n        /* \"#utility.yul\":20621:20625   */\n      0x11\n        /* \"#utility.yul\":20618:20619   */\n      0x04\n        /* \"#utility.yul\":20611:20626   */\n      mstore\n        /* \"#utility.yul\":20645:20649   */\n      0x24\n        /* \"#utility.yul\":20642:20643   */\n      0x00\n        /* \"#utility.yul\":20635:20650   */\n      revert\n        /* \"#utility.yul\":20662:20856   */\n    tag_103:\n        /* \"#utility.yul\":20702:20706   */\n      0x00\n        /* \"#utility.yul\":20722:20742   */\n      tag_479\n        /* \"#utility.yul\":20740:20741   */\n      dup3\n        /* \"#utility.yul\":20722:20742   */\n      tag_210\n      jump\t// in\n    tag_479:\n        /* \"#utility.yul\":20717:20742   */\n      swap2\n      pop\n        /* \"#utility.yul\":20756:20776   */\n      tag_480\n        /* \"#utility.yul\":20774:20775   */\n      dup4\n        /* \"#utility.yul\":20756:20776   */\n      tag_210\n      jump\t// in\n    tag_480:\n        /* \"#utility.yul\":20751:20776   */\n      swap3\n      pop\n        /* \"#utility.yul\":20800:20801   */\n      dup3\n        /* \"#utility.yul\":20797:20798   */\n      dup3\n        /* \"#utility.yul\":20793:20802   */\n      sub\n        /* \"#utility.yul\":20785:20802   */\n      swap1\n      pop\n        /* \"#utility.yul\":20824:20825   */\n      dup2\n        /* \"#utility.yul\":20818:20822   */\n      dup2\n        /* \"#utility.yul\":20815:20826   */\n      gt\n        /* \"#utility.yul\":20812:20849   */\n      iszero\n      tag_481\n      jumpi\n        /* \"#utility.yul\":20829:20847   */\n      tag_482\n      tag_253\n      jump\t// in\n    tag_482:\n        /* \"#utility.yul\":20812:20849   */\n    tag_481:\n        /* \"#utility.yul\":20662:20856   */\n      swap3\n      swap2\n      pop\n      pop\n      jump\t// out\n        /* \"#utility.yul\":20862:20970   */\n    tag_254:\n        /* \"#utility.yul\":20939:20963   */\n      tag_484\n        /* \"#utility.yul\":20957:20962   */\n      dup2\n        /* \"#utility.yul\":20939:20963   */\n      tag_207\n      jump\t// in\n    tag_484:\n        /* \"#utility.yul\":20934:20937   */\n      dup3\n        /* \"#utility.yul\":20927:20964   */\n      mstore\n        /* \"#utility.yul\":20862:20970   */\n      pop\n      pop\n      jump\t// out\n        /* \"#utility.yul\":20976:21084   */\n    tag_255:\n        /* \"#utility.yul\":21053:21077   */\n      tag_486\n        /* \"#utility.yul\":21071:21076   */\n      dup2\n        /* \"#utility.yul\":21053:21077   */\n      tag_210\n      jump\t// in\n    tag_486:\n        /* \"#utility.yul\":21048:21051   */\n      dup3\n        /* \"#utility.yul\":21041:21078   */\n      mstore\n        /* \"#utility.yul\":20976:21084   */\n      pop\n      pop\n      jump\t// out\n        /* \"#utility.yul\":21090:21248   */\n    tag_256:\n        /* \"#utility.yul\":21163:21174   */\n      0x00\n        /* \"#utility.yul\":21197:21203   */\n      dup3\n        /* \"#utility.yul\":21192:21195   */\n      dup3\n        /* \"#utility.yul\":21185:21204   */\n      mstore\n        /* \"#utility.yul\":21237:21241   */\n      0x20\n        /* \"#utility.yul\":21232:21235   */\n      dup3\n        /* \"#utility.yul\":21228:21242   */\n      add\n        /* \"#utility.yul\":21213:21242   */\n      swap1\n      pop\n        /* \"#utility.yul\":21090:21248   */\n      swap3\n      swap2\n      pop\n      pop\n      jump\t// out\n        /* \"#utility.yul\":21254:21607   */\n    tag_257:\n        /* \"#utility.yul\":21330:21333   */\n      0x00\n        /* \"#utility.yul\":21358:21396   */\n      tag_489\n        /* \"#utility.yul\":21390:21395   */\n      dup3\n        /* \"#utility.yul\":21358:21396   */\n      tag_244\n      jump\t// in\n    tag_489:\n        /* \"#utility.yul\":21412:21472   */\n      tag_490\n        /* \"#utility.yul\":21465:21471   */\n      dup2\n        /* \"#utility.yul\":21460:21463   */\n      dup6\n        /* \"#utility.yul\":21412:21472   */\n      tag_256\n      jump\t// in\n    tag_490:\n        /* \"#utility.yul\":21405:21472   */\n      swap4\n      pop\n        /* \"#utility.yul\":21481:21546   */\n      tag_491\n        /* \"#utility.yul\":21539:21545   */\n      dup2\n        /* \"#utility.yul\":21534:21537   */\n      dup6\n        /* \"#utility.yul\":21527:21531   */\n      0x20\n        /* \"#utility.yul\":21520:21525   */\n      dup7\n        /* \"#utility.yul\":21516:21532   */\n      add\n        /* \"#utility.yul\":21481:21546   */\n      tag_246\n      jump\t// in\n    tag_491:\n        /* \"#utility.yul\":21571:21600   */\n      tag_492\n        /* \"#utility.yul\":21593:21599   */\n      dup2\n        /* \"#utility.yul\":21571:21600   */\n      tag_202\n      jump\t// in\n    tag_492:\n        /* \"#utility.yul\":21566:21569   */\n      dup5\n        /* \"#utility.yul\":21562:21601   */\n      add\n        /* \"#utility.yul\":21555:21601   */\n      swap2\n      pop\n        /* \"#utility.yul\":21334:21607   */\n      pop\n        /* \"#utility.yul\":21254:21607   */\n      swap3\n      swap2\n      pop\n      pop\n      jump\t// out\n        /* \"#utility.yul\":21613:21721   */\n    tag_258:\n        /* \"#utility.yul\":21690:21714   */\n      tag_494\n        /* \"#utility.yul\":21708:21713   */\n      dup2\n        /* \"#utility.yul\":21690:21714   */\n      tag_219\n      jump\t// in\n    tag_494:\n        /* \"#utility.yul\":21685:21688   */\n      dup3\n        /* \"#utility.yul\":21678:21715   */\n      mstore\n        /* \"#utility.yul\":21613:21721   */\n      pop\n      pop\n      jump\t// out\n        /* \"#utility.yul\":21801:23307   */\n    tag_259:\n        /* \"#utility.yul\":21922:21925   */\n      0x00\n        /* \"#utility.yul\":21958:21962   */\n      0xe0\n        /* \"#utility.yul\":21953:21956   */\n      dup4\n        /* \"#utility.yul\":21949:21963   */\n      add\n        /* \"#utility.yul\":22047:22051   */\n      0x00\n        /* \"#utility.yul\":22040:22045   */\n      dup4\n        /* \"#utility.yul\":22036:22052   */\n      add\n        /* \"#utility.yul\":22030:22053   */\n      mload\n        /* \"#utility.yul\":22066:22129   */\n      tag_496\n        /* \"#utility.yul\":22123:22127   */\n      0x00\n        /* \"#utility.yul\":22118:22121   */\n      dup7\n        /* \"#utility.yul\":22114:22128   */\n      add\n        /* \"#utility.yul\":22100:22112   */\n      dup3\n        /* \"#utility.yul\":22066:22129   */\n      tag_254\n      jump\t// in\n    tag_496:\n        /* \"#utility.yul\":21973:22139   */\n      pop\n        /* \"#utility.yul\":22227:22231   */\n      0x20\n        /* \"#utility.yul\":22220:22225   */\n      dup4\n        /* \"#utility.yul\":22216:22232   */\n      add\n        /* \"#utility.yul\":22210:22233   */\n      mload\n        /* \"#utility.yul\":22246:22309   */\n      tag_497\n        /* \"#utility.yul\":22303:22307   */\n      0x20\n        /* \"#utility.yul\":22298:22301   */\n      dup7\n        /* \"#utility.yul\":22294:22308   */\n      add\n        /* \"#utility.yul\":22280:22292   */\n      dup3\n        /* \"#utility.yul\":22246:22309   */\n      tag_254\n      jump\t// in\n    tag_497:\n        /* \"#utility.yul\":22149:22319   */\n      pop\n        /* \"#utility.yul\":22404:22408   */\n      0x40\n        /* \"#utility.yul\":22397:22402   */\n      dup4\n        /* \"#utility.yul\":22393:22409   */\n      add\n        /* \"#utility.yul\":22387:22410   */\n      mload\n        /* \"#utility.yul\":22423:22486   */\n      tag_498\n        /* \"#utility.yul\":22480:22484   */\n      0x40\n        /* \"#utility.yul\":22475:22478   */\n      dup7\n        /* \"#utility.yul\":22471:22485   */\n      add\n        /* \"#utility.yul\":22457:22469   */\n      dup3\n        /* \"#utility.yul\":22423:22486   */\n      tag_255\n      jump\t// in\n    tag_498:\n        /* \"#utility.yul\":22329:22496   */\n      pop\n        /* \"#utility.yul\":22579:22583   */\n      0x60\n        /* \"#utility.yul\":22572:22577   */\n      dup4\n        /* \"#utility.yul\":22568:22584   */\n      add\n        /* \"#utility.yul\":22562:22585   */\n      mload\n        /* \"#utility.yul\":22598:22661   */\n      tag_499\n        /* \"#utility.yul\":22655:22659   */\n      0x60\n        /* \"#utility.yul\":22650:22653   */\n      dup7\n        /* \"#utility.yul\":22646:22660   */\n      add\n        /* \"#utility.yul\":22632:22644   */\n      dup3\n        /* \"#utility.yul\":22598:22661   */\n      tag_255\n      jump\t// in\n    tag_499:\n        /* \"#utility.yul\":22506:22671   */\n      pop\n        /* \"#utility.yul\":22758:22762   */\n      0x80\n        /* \"#utility.yul\":22751:22756   */\n      dup4\n        /* \"#utility.yul\":22747:22763   */\n      add\n        /* \"#utility.yul\":22741:22764   */\n      mload\n        /* \"#utility.yul\":22811:22814   */\n      dup5\n        /* \"#utility.yul\":22805:22809   */\n      dup3\n        /* \"#utility.yul\":22801:22815   */\n      sub\n        /* \"#utility.yul\":22794:22798   */\n      0x80\n        /* \"#utility.yul\":22789:22792   */\n      dup7\n        /* \"#utility.yul\":22785:22799   */\n      add\n        /* \"#utility.yul\":22778:22816   */\n      mstore\n        /* \"#utility.yul\":22837:22908   */\n      tag_500\n        /* \"#utility.yul\":22903:22907   */\n      dup3\n        /* \"#utility.yul\":22889:22901   */\n      dup3\n        /* \"#utility.yul\":22837:22908   */\n      tag_257\n      jump\t// in\n    tag_500:\n        /* \"#utility.yul\":22829:22908   */\n      swap2\n      pop\n        /* \"#utility.yul\":22681:22919   */\n      pop\n        /* \"#utility.yul\":23011:23015   */\n      0xa0\n        /* \"#utility.yul\":23004:23009   */\n      dup4\n        /* \"#utility.yul\":23000:23016   */\n      add\n        /* \"#utility.yul\":22994:23017   */\n      mload\n        /* \"#utility.yul\":23030:23093   */\n      tag_501\n        /* \"#utility.yul\":23087:23091   */\n      0xa0\n        /* \"#utility.yul\":23082:23085   */\n      dup7\n        /* \"#utility.yul\":23078:23092   */\n      add\n        /* \"#utility.yul\":23064:23076   */\n      dup3\n        /* \"#utility.yul\":23030:23093   */\n      tag_255\n      jump\t// in\n    tag_501:\n        /* \"#utility.yul\":22929:23103   */\n      pop\n        /* \"#utility.yul\":23188:23192   */\n      0xc0\n        /* \"#utility.yul\":23181:23186   */\n      dup4\n        /* \"#utility.yul\":23177:23193   */\n      add\n        /* \"#utility.yul\":23171:23194   */\n      mload\n        /* \"#utility.yul\":23207:23270   */\n      tag_502\n        /* \"#utility.yul\":23264:23268   */\n      0xc0\n        /* \"#utility.yul\":23259:23262   */\n      dup7\n        /* \"#utility.yul\":23255:23269   */\n      add\n        /* \"#utility.yul\":23241:23253   */\n      dup3\n        /* \"#utility.yul\":23207:23270   */\n      tag_258\n      jump\t// in\n    tag_502:\n        /* \"#utility.yul\":23113:23280   */\n      pop\n        /* \"#utility.yul\":23297:23301   */\n      dup1\n        /* \"#utility.yul\":23290:23301   */\n      swap2\n      pop\n        /* \"#utility.yul\":21927:23307   */\n      pop\n        /* \"#utility.yul\":21801:23307   */\n      swap3\n      swap2\n      pop\n      pop\n      jump\t// out\n        /* \"#utility.yul\":23313:23910   */\n    tag_105:\n        /* \"#utility.yul\":23514:23518   */\n      0x00\n        /* \"#utility.yul\":23552:23554   */\n      0x60\n        /* \"#utility.yul\":23541:23550   */\n      dup3\n        /* \"#utility.yul\":23537:23555   */\n      add\n        /* \"#utility.yul\":23529:23555   */\n      swap1\n      pop\n        /* \"#utility.yul\":23601:23610   */\n      dup2\n        /* \"#utility.yul\":23595:23599   */\n      dup2\n        /* \"#utility.yul\":23591:23611   */\n      sub\n        /* \"#utility.yul\":23587:23588   */\n      0x00\n        /* \"#utility.yul\":23576:23585   */\n      dup4\n        /* \"#utility.yul\":23572:23589   */\n      add\n        /* \"#utility.yul\":23565:23612   */\n      mstore\n        /* \"#utility.yul\":23629:23739   */\n      tag_504\n        /* \"#utility.yul\":23734:23738   */\n      dup2\n        /* \"#utility.yul\":23725:23731   */\n      dup7\n        /* \"#utility.yul\":23629:23739   */\n      tag_259\n      jump\t// in\n    tag_504:\n        /* \"#utility.yul\":23621:23739   */\n      swap1\n      pop\n        /* \"#utility.yul\":23749:23821   */\n      tag_505\n        /* \"#utility.yul\":23817:23819   */\n      0x20\n        /* \"#utility.yul\":23806:23815   */\n      dup4\n        /* \"#utility.yul\":23802:23820   */\n      add\n        /* \"#utility.yul\":23793:23799   */\n      dup6\n        /* \"#utility.yul\":23749:23821   */\n      tag_223\n      jump\t// in\n    tag_505:\n        /* \"#utility.yul\":23831:23903   */\n      tag_506\n        /* \"#utility.yul\":23899:23901   */\n      0x40\n        /* \"#utility.yul\":23888:23897   */\n      dup4\n        /* \"#utility.yul\":23884:23902   */\n      add\n        /* \"#utility.yul\":23875:23881   */\n      dup5\n        /* \"#utility.yul\":23831:23903   */\n      tag_224\n      jump\t// in\n    tag_506:\n        /* \"#utility.yul\":23313:23910   */\n      swap5\n      swap4\n      pop\n      pop\n      pop\n      pop\n      jump\t// out\n        /* \"#utility.yul\":23916:24075   */\n    tag_260:\n        /* \"#utility.yul\":24056:24067   */\n      0x6d617463686661696c0000000000000000000000000000000000000000000000\n        /* \"#utility.yul\":24052:24053   */\n      0x00\n        /* \"#utility.yul\":24044:24050   */\n      dup3\n        /* \"#utility.yul\":24040:24054   */\n      add\n        /* \"#utility.yul\":24033:24068   */\n      mstore\n        /* \"#utility.yul\":23916:24075   */\n      pop\n      jump\t// out\n        /* \"#utility.yul\":24081:24446   */\n    tag_261:\n        /* \"#utility.yul\":24223:24226   */\n      0x00\n        /* \"#utility.yul\":24244:24310   */\n      tag_509\n        /* \"#utility.yul\":24308:24309   */\n      0x09\n        /* \"#utility.yul\":24303:24306   */\n      dup4\n        /* \"#utility.yul\":24244:24310   */\n      tag_225\n      jump\t// in\n    tag_509:\n        /* \"#utility.yul\":24237:24310   */\n      swap2\n      pop\n        /* \"#utility.yul\":24319:24412   */\n      tag_510\n        /* \"#utility.yul\":24408:24411   */\n      dup3\n        /* \"#utility.yul\":24319:24412   */\n      tag_260\n      jump\t// in\n    tag_510:\n        /* \"#utility.yul\":24437:24439   */\n      0x20\n        /* \"#utility.yul\":24432:24435   */\n      dup3\n        /* \"#utility.yul\":24428:24440   */\n      add\n        /* \"#utility.yul\":24421:24440   */\n      swap1\n      pop\n        /* \"#utility.yul\":24081:24446   */\n      swap2\n      swap1\n      pop\n      jump\t// out\n        /* \"#utility.yul\":24452:24871   */\n    tag_131:\n        /* \"#utility.yul\":24618:24622   */\n      0x00\n        /* \"#utility.yul\":24656:24658   */\n      0x20\n        /* \"#utility.yul\":24645:24654   */\n      dup3\n        /* \"#utility.yul\":24641:24659   */\n      add\n        /* \"#utility.yul\":24633:24659   */\n      swap1\n      pop\n        /* \"#utility.yul\":24705:24714   */\n      dup2\n        /* \"#utility.yul\":24699:24703   */\n      dup2\n        /* \"#utility.yul\":24695:24715   */\n      sub\n        /* \"#utility.yul\":24691:24692   */\n      0x00\n        /* \"#utility.yul\":24680:24689   */\n      dup4\n        /* \"#utility.yul\":24676:24693   */\n      add\n        /* \"#utility.yul\":24669:24716   */\n      mstore\n        /* \"#utility.yul\":24733:24864   */\n      tag_512\n        /* \"#utility.yul\":24859:24863   */\n      dup2\n        /* \"#utility.yul\":24733:24864   */\n      tag_261\n      jump\t// in\n    tag_512:\n        /* \"#utility.yul\":24725:24864   */\n      swap1\n      pop\n        /* \"#utility.yul\":24452:24871   */\n      swap2\n      swap1\n      pop\n      jump\t// out\n        /* \"#utility.yul\":24877:25042   */\n    tag_262:\n        /* \"#utility.yul\":25017:25034   */\n      0x6e6f2070726f78792077616c6c65740000000000000000000000000000000000\n        /* \"#utility.yul\":25013:25014   */\n      0x00\n        /* \"#utility.yul\":25005:25011   */\n      dup3\n        /* \"#utility.yul\":25001:25015   */\n      add\n        /* \"#utility.yul\":24994:25035   */\n      mstore\n        /* \"#utility.yul\":24877:25042   */\n      pop\n      jump\t// out\n        /* \"#utility.yul\":25048:25414   */\n    tag_263:\n        /* \"#utility.yul\":25190:25193   */\n      0x00\n        /* \"#utility.yul\":25211:25278   */\n      tag_515\n        /* \"#utility.yul\":25275:25277   */\n      0x0f\n        /* \"#utility.yul\":25270:25273   */\n      dup4\n        /* \"#utility.yul\":25211:25278   */\n      tag_225\n      jump\t// in\n    tag_515:\n        /* \"#utility.yul\":25204:25278   */\n      swap2\n      pop\n        /* \"#utility.yul\":25287:25380   */\n      tag_516\n        /* \"#utility.yul\":25376:25379   */\n      dup3\n        /* \"#utility.yul\":25287:25380   */\n      tag_262\n      jump\t// in\n    tag_516:\n        /* \"#utility.yul\":25405:25407   */\n      0x20\n        /* \"#utility.yul\":25400:25403   */\n      dup3\n        /* \"#utility.yul\":25396:25408   */\n      add\n        /* \"#utility.yul\":25389:25408   */\n      swap1\n      pop\n        /* \"#utility.yul\":25048:25414   */\n      swap2\n      swap1\n      pop\n      jump\t// out\n        /* \"#utility.yul\":25420:25839   */\n    tag_135:\n        /* \"#utility.yul\":25586:25590   */\n      0x00\n        /* \"#utility.yul\":25624:25626   */\n      0x20\n        /* \"#utility.yul\":25613:25622   */\n      dup3\n        /* \"#utility.yul\":25609:25627   */\n      add\n        /* \"#utility.yul\":25601:25627   */\n      swap1\n      pop\n        /* \"#utility.yul\":25673:25682   */\n      dup2\n        /* \"#utility.yul\":25667:25671   */\n      dup2\n        /* \"#utility.yul\":25663:25683   */\n      sub\n        /* \"#utility.yul\":25659:25660   */\n      0x00\n        /* \"#utility.yul\":25648:25657   */\n      dup4\n        /* \"#utility.yul\":25644:25661   */\n      add\n        /* \"#utility.yul\":25637:25684   */\n      mstore\n        /* \"#utility.yul\":25701:25832   */\n      tag_518\n        /* \"#utility.yul\":25827:25831   */\n      dup2\n        /* \"#utility.yul\":25701:25832   */\n      tag_263\n      jump\t// in\n    tag_518:\n        /* \"#utility.yul\":25693:25832   */\n      swap1\n      pop\n        /* \"#utility.yul\":25420:25839   */\n      swap2\n      swap1\n      pop\n      jump\t// out\n        /* \"#utility.yul\":25845:25954   */\n    tag_264:\n        /* \"#utility.yul\":25926:25947   */\n      tag_520\n        /* \"#utility.yul\":25941:25946   */\n      dup2\n        /* \"#utility.yul\":25926:25947   */\n      tag_248\n      jump\t// in\n    tag_520:\n        /* \"#utility.yul\":25921:25924   */\n      dup3\n        /* \"#utility.yul\":25914:25948   */\n      mstore\n        /* \"#utility.yul\":25845:25954   */\n      pop\n      pop\n      jump\t// out\n        /* \"#utility.yul\":25960:26280   */\n    tag_137:\n        /* \"#utility.yul\":26075:26079   */\n      0x00\n        /* \"#utility.yul\":26113:26115   */\n      0x40\n        /* \"#utility.yul\":26102:26111   */\n      dup3\n        /* \"#utility.yul\":26098:26116   */\n      add\n        /* \"#utility.yul\":26090:26116   */\n      swap1\n      pop\n        /* \"#utility.yul\":26126:26197   */\n      tag_522\n        /* \"#utility.yul\":26194:26195   */\n      0x00\n        /* \"#utility.yul\":26183:26192   */\n      dup4\n        /* \"#utility.yul\":26179:26196   */\n      add\n        /* \"#utility.yul\":26170:26176   */\n      dup6\n        /* \"#utility.yul\":26126:26197   */\n      tag_224\n      jump\t// in\n    tag_522:\n        /* \"#utility.yul\":26207:26273   */\n      tag_523\n        /* \"#utility.yul\":26269:26271   */\n      0x20\n        /* \"#utility.yul\":26258:26267   */\n      dup4\n        /* \"#utility.yul\":26254:26272   */\n      add\n        /* \"#utility.yul\":26245:26251   */\n      dup5\n        /* \"#utility.yul\":26207:26273   */\n      tag_264\n      jump\t// in\n    tag_523:\n        /* \"#utility.yul\":25960:26280   */\n      swap4\n      swap3\n      pop\n      pop\n      pop\n      jump\t// out\n        /* \"#utility.yul\":26286:26618   */\n    tag_146:\n        /* \"#utility.yul\":26407:26411   */\n      0x00\n        /* \"#utility.yul\":26445:26447   */\n      0x40\n        /* \"#utility.yul\":26434:26443   */\n      dup3\n        /* \"#utility.yul\":26430:26448   */\n      add\n        /* \"#utility.yul\":26422:26448   */\n      swap1\n      pop\n        /* \"#utility.yul\":26458:26529   */\n      tag_525\n        /* \"#utility.yul\":26526:26527   */\n      0x00\n        /* \"#utility.yul\":26515:26524   */\n      dup4\n        /* \"#utility.yul\":26511:26528   */\n      add\n        /* \"#utility.yul\":26502:26508   */\n      dup6\n        /* \"#utility.yul\":26458:26529   */\n      tag_223\n      jump\t// in\n    tag_525:\n        /* \"#utility.yul\":26539:26611   */\n      tag_526\n        /* \"#utility.yul\":26607:26609   */\n      0x20\n        /* \"#utility.yul\":26596:26605   */\n      dup4\n        /* \"#utility.yul\":26592:26610   */\n      add\n        /* \"#utility.yul\":26583:26589   */\n      dup5\n        /* \"#utility.yul\":26539:26611   */\n      tag_223\n      jump\t// in\n    tag_526:\n        /* \"#utility.yul\":26286:26618   */\n      swap4\n      swap3\n      pop\n      pop\n      pop\n      jump\t// out\n        /* \"#utility.yul\":26624:26801   */\n    tag_265:\n        /* \"#utility.yul\":26764:26793   */\n      0x50726f78792077616c6c657420616c7265616479206578697374730000000000\n        /* \"#utility.yul\":26760:26761   */\n      0x00\n        /* \"#utility.yul\":26752:26758   */\n      dup3\n        /* \"#utility.yul\":26748:26762   */\n      add\n        /* \"#utility.yul\":26741:26794   */\n      mstore\n        /* \"#utility.yul\":26624:26801   */\n      pop\n      jump\t// out\n        /* \"#utility.yul\":26807:27173   */\n    tag_266:\n        /* \"#utility.yul\":26949:26952   */\n      0x00\n        /* \"#utility.yul\":26970:27037   */\n      tag_529\n        /* \"#utility.yul\":27034:27036   */\n      0x1b\n        /* \"#utility.yul\":27029:27032   */\n      dup4\n        /* \"#utility.yul\":26970:27037   */\n      tag_225\n      jump\t// in\n    tag_529:\n        /* \"#utility.yul\":26963:27037   */\n      swap2\n      pop\n        /* \"#utility.yul\":27046:27139   */\n      tag_530\n        /* \"#utility.yul\":27135:27138   */\n      dup3\n        /* \"#utility.yul\":27046:27139   */\n      tag_265\n      jump\t// in\n    tag_530:\n        /* \"#utility.yul\":27164:27166   */\n      0x20\n        /* \"#utility.yul\":27159:27162   */\n      dup3\n        /* \"#utility.yul\":27155:27167   */\n      add\n        /* \"#utility.yul\":27148:27167   */\n      swap1\n      pop\n        /* \"#utility.yul\":26807:27173   */\n      swap2\n      swap1\n      pop\n      jump\t// out\n        /* \"#utility.yul\":27179:27598   */\n    tag_151:\n        /* \"#utility.yul\":27345:27349   */\n      0x00\n        /* \"#utility.yul\":27383:27385   */\n      0x20\n        /* \"#utility.yul\":27372:27381   */\n      dup3\n        /* \"#utility.yul\":27368:27386   */\n      add\n        /* \"#utility.yul\":27360:27386   */\n      swap1\n      pop\n        /* \"#utility.yul\":27432:27441   */\n      dup2\n        /* \"#utility.yul\":27426:27430   */\n      dup2\n        /* \"#utility.yul\":27422:27442   */\n      sub\n        /* \"#utility.yul\":27418:27419   */\n      0x00\n        /* \"#utility.yul\":27407:27416   */\n      dup4\n        /* \"#utility.yul\":27403:27420   */\n      add\n        /* \"#utility.yul\":27396:27443   */\n      mstore\n        /* \"#utility.yul\":27460:27591   */\n      tag_532\n        /* \"#utility.yul\":27586:27590   */\n      dup2\n        /* \"#utility.yul\":27460:27591   */\n      tag_266\n      jump\t// in\n    tag_532:\n        /* \"#utility.yul\":27452:27591   */\n      swap1\n      pop\n        /* \"#utility.yul\":27179:27598   */\n      swap2\n      swap1\n      pop\n      jump\t// out\n        /* \"#utility.yul\":27604:27981   */\n    tag_159:\n        /* \"#utility.yul\":27749:27753   */\n      0x00\n        /* \"#utility.yul\":27787:27789   */\n      0x20\n        /* \"#utility.yul\":27776:27785   */\n      dup3\n        /* \"#utility.yul\":27772:27790   */\n      add\n        /* \"#utility.yul\":27764:27790   */\n      swap1\n      pop\n        /* \"#utility.yul\":27836:27845   */\n      dup2\n        /* \"#utility.yul\":27830:27834   */\n      dup2\n        /* \"#utility.yul\":27826:27846   */\n      sub\n        /* \"#utility.yul\":27822:27823   */\n      0x00\n        /* \"#utility.yul\":27811:27820   */\n      dup4\n        /* \"#utility.yul\":27807:27824   */\n      add\n        /* \"#utility.yul\":27800:27847   */\n      mstore\n        /* \"#utility.yul\":27864:27974   */\n      tag_534\n        /* \"#utility.yul\":27969:27973   */\n      dup2\n        /* \"#utility.yul\":27960:27966   */\n      dup5\n        /* \"#utility.yul\":27864:27974   */\n      tag_259\n      jump\t// in\n    tag_534:\n        /* \"#utility.yul\":27856:27974   */\n      swap1\n      pop\n        /* \"#utility.yul\":27604:27981   */\n      swap3\n      swap2\n      pop\n      pop\n      jump\t// out\n        /* \"#utility.yul\":27987:28161   */\n    tag_267:\n        /* \"#utility.yul\":28127:28153   */\n      0x43616e63656c2073656c6c206f72646572206661696c65640000000000000000\n        /* \"#utility.yul\":28123:28124   */\n      0x00\n        /* \"#utility.yul\":28115:28121   */\n      dup3\n        /* \"#utility.yul\":28111:28125   */\n      add\n        /* \"#utility.yul\":28104:28154   */\n      mstore\n        /* \"#utility.yul\":27987:28161   */\n      pop\n      jump\t// out\n        /* \"#utility.yul\":28167:28533   */\n    tag_268:\n        /* \"#utility.yul\":28309:28312   */\n      0x00\n        /* \"#utility.yul\":28330:28397   */\n      tag_537\n        /* \"#utility.yul\":28394:28396   */\n      0x18\n        /* \"#utility.yul\":28389:28392   */\n      dup4\n        /* \"#utility.yul\":28330:28397   */\n      tag_225\n      jump\t// in\n    tag_537:\n        /* \"#utility.yul\":28323:28397   */\n      swap2\n      pop\n        /* \"#utility.yul\":28406:28499   */\n      tag_538\n        /* \"#utility.yul\":28495:28498   */\n      dup3\n        /* \"#utility.yul\":28406:28499   */\n      tag_267\n      jump\t// in\n    tag_538:\n        /* \"#utility.yul\":28524:28526   */\n      0x20\n        /* \"#utility.yul\":28519:28522   */\n      dup3\n        /* \"#utility.yul\":28515:28527   */\n      add\n        /* \"#utility.yul\":28508:28527   */\n      swap1\n      pop\n        /* \"#utility.yul\":28167:28533   */\n      swap2\n      swap1\n      pop\n      jump\t// out\n        /* \"#utility.yul\":28539:28958   */\n    tag_166:\n        /* \"#utility.yul\":28705:28709   */\n      0x00\n        /* \"#utility.yul\":28743:28745   */\n      0x20\n        /* \"#utility.yul\":28732:28741   */\n      dup3\n        /* \"#utility.yul\":28728:28746   */\n      add\n        /* \"#utility.yul\":28720:28746   */\n      swap1\n      pop\n        /* \"#utility.yul\":28792:28801   */\n      dup2\n        /* \"#utility.yul\":28786:28790   */\n      dup2\n        /* \"#utility.yul\":28782:28802   */\n      sub\n        /* \"#utility.yul\":28778:28779   */\n      0x00\n        /* \"#utility.yul\":28767:28776   */\n      dup4\n        /* \"#utility.yul\":28763:28780   */\n      add\n        /* \"#utility.yul\":28756:28803   */\n      mstore\n        /* \"#utility.yul\":28820:28951   */\n      tag_540\n        /* \"#utility.yul\":28946:28950   */\n      dup2\n        /* \"#utility.yul\":28820:28951   */\n      tag_268\n      jump\t// in\n    tag_540:\n        /* \"#utility.yul\":28812:28951   */\n      swap1\n      pop\n        /* \"#utility.yul\":28539:28958   */\n      swap2\n      swap1\n      pop\n      jump\t// out\n        /* \"#utility.yul\":28964:29374   */\n    tag_170:\n        /* \"#utility.yul\":29004:29011   */\n      0x00\n        /* \"#utility.yul\":29027:29047   */\n      tag_542\n        /* \"#utility.yul\":29045:29046   */\n      dup3\n        /* \"#utility.yul\":29027:29047   */\n      tag_210\n      jump\t// in\n    tag_542:\n        /* \"#utility.yul\":29022:29047   */\n      swap2\n      pop\n        /* \"#utility.yul\":29061:29081   */\n      tag_543\n        /* \"#utility.yul\":29079:29080   */\n      dup4\n        /* \"#utility.yul\":29061:29081   */\n      tag_210\n      jump\t// in\n    tag_543:\n        /* \"#utility.yul\":29056:29081   */\n      swap3\n      pop\n        /* \"#utility.yul\":29116:29117   */\n      dup3\n        /* \"#utility.yul\":29113:29114   */\n      dup3\n        /* \"#utility.yul\":29109:29118   */\n      mul\n        /* \"#utility.yul\":29138:29168   */\n      tag_544\n        /* \"#utility.yul\":29156:29167   */\n      dup2\n        /* \"#utility.yul\":29138:29168   */\n      tag_210\n      jump\t// in\n    tag_544:\n        /* \"#utility.yul\":29127:29168   */\n      swap2\n      pop\n        /* \"#utility.yul\":29317:29318   */\n      dup3\n        /* \"#utility.yul\":29308:29315   */\n      dup3\n        /* \"#utility.yul\":29304:29319   */\n      div\n        /* \"#utility.yul\":29301:29302   */\n      dup5\n        /* \"#utility.yul\":29298:29320   */\n      eq\n        /* \"#utility.yul\":29278:29279   */\n      dup4\n        /* \"#utility.yul\":29271:29280   */\n      iszero\n        /* \"#utility.yul\":29251:29334   */\n      or\n        /* \"#utility.yul\":29228:29367   */\n      tag_545\n      jumpi\n        /* \"#utility.yul\":29347:29365   */\n      tag_546\n      tag_253\n      jump\t// in\n    tag_546:\n        /* \"#utility.yul\":29228:29367   */\n    tag_545:\n        /* \"#utility.yul\":29012:29374   */\n      pop\n        /* \"#utility.yul\":28964:29374   */\n      swap3\n      swap2\n      pop\n      pop\n      jump\t// out\n        /* \"#utility.yul\":29380:29560   */\n    tag_269:\n        /* \"#utility.yul\":29428:29505   */\n      0x4e487b7100000000000000000000000000000000000000000000000000000000\n        /* \"#utility.yul\":29425:29426   */\n      0x00\n        /* \"#utility.yul\":29418:29506   */\n      mstore\n        /* \"#utility.yul\":29525:29529   */\n      0x12\n        /* \"#utility.yul\":29522:29523   */\n      0x04\n        /* \"#utility.yul\":29515:29530   */\n      mstore\n        /* \"#utility.yul\":29549:29553   */\n      0x24\n        /* \"#utility.yul\":29546:29547   */\n      0x00\n        /* \"#utility.yul\":29539:29554   */\n      revert\n        /* \"#utility.yul\":29566:29751   */\n    tag_173:\n        /* \"#utility.yul\":29606:29607   */\n      0x00\n        /* \"#utility.yul\":29623:29643   */\n      tag_549\n        /* \"#utility.yul\":29641:29642   */\n      dup3\n        /* \"#utility.yul\":29623:29643   */\n      tag_210\n      jump\t// in\n    tag_549:\n        /* \"#utility.yul\":29618:29643   */\n      swap2\n      pop\n        /* \"#utility.yul\":29657:29677   */\n      tag_550\n        /* \"#utility.yul\":29675:29676   */\n      dup4\n        /* \"#utility.yul\":29657:29677   */\n      tag_210\n      jump\t// in\n    tag_550:\n        /* \"#utility.yul\":29652:29677   */\n      swap3\n      pop\n        /* \"#utility.yul\":29696:29697   */\n      dup3\n        /* \"#utility.yul\":29686:29721   */\n      tag_551\n      jumpi\n        /* \"#utility.yul\":29701:29719   */\n      tag_552\n      tag_269\n      jump\t// in\n    tag_552:\n        /* \"#utility.yul\":29686:29721   */\n    tag_551:\n        /* \"#utility.yul\":29743:29744   */\n      dup3\n        /* \"#utility.yul\":29740:29741   */\n      dup3\n        /* \"#utility.yul\":29736:29745   */\n      div\n        /* \"#utility.yul\":29731:29745   */\n      swap1\n      pop\n        /* \"#utility.yul\":29566:29751   */\n      swap3\n      swap2\n      pop\n      pop\n      jump\t// out\n        /* \"#utility.yul\":29757:30436   */\n    tag_176:\n        /* \"#utility.yul\":29953:29956   */\n      0x00\n        /* \"#utility.yul\":29968:30043   */\n      tag_554\n        /* \"#utility.yul\":30039:30042   */\n      dup3\n        /* \"#utility.yul\":30030:30036   */\n      dup8\n        /* \"#utility.yul\":29968:30043   */\n      tag_241\n      jump\t// in\n    tag_554:\n        /* \"#utility.yul\":30068:30070   */\n      0x14\n        /* \"#utility.yul\":30063:30066   */\n      dup3\n        /* \"#utility.yul\":30059:30071   */\n      add\n        /* \"#utility.yul\":30052:30071   */\n      swap2\n      pop\n        /* \"#utility.yul\":30081:30156   */\n      tag_555\n        /* \"#utility.yul\":30152:30155   */\n      dup3\n        /* \"#utility.yul\":30143:30149   */\n      dup7\n        /* \"#utility.yul\":30081:30156   */\n      tag_243\n      jump\t// in\n    tag_555:\n        /* \"#utility.yul\":30181:30183   */\n      0x20\n        /* \"#utility.yul\":30176:30179   */\n      dup3\n        /* \"#utility.yul\":30172:30184   */\n      add\n        /* \"#utility.yul\":30165:30184   */\n      swap2\n      pop\n        /* \"#utility.yul\":30194:30269   */\n      tag_556\n        /* \"#utility.yul\":30265:30268   */\n      dup3\n        /* \"#utility.yul\":30256:30262   */\n      dup6\n        /* \"#utility.yul\":30194:30269   */\n      tag_243\n      jump\t// in\n    tag_556:\n        /* \"#utility.yul\":30294:30296   */\n      0x20\n        /* \"#utility.yul\":30289:30292   */\n      dup3\n        /* \"#utility.yul\":30285:30297   */\n      add\n        /* \"#utility.yul\":30278:30297   */\n      swap2\n      pop\n        /* \"#utility.yul\":30307:30382   */\n      tag_557\n        /* \"#utility.yul\":30378:30381   */\n      dup3\n        /* \"#utility.yul\":30369:30375   */\n      dup5\n        /* \"#utility.yul\":30307:30382   */\n      tag_243\n      jump\t// in\n    tag_557:\n        /* \"#utility.yul\":30407:30409   */\n      0x20\n        /* \"#utility.yul\":30402:30405   */\n      dup3\n        /* \"#utility.yul\":30398:30410   */\n      add\n        /* \"#utility.yul\":30391:30410   */\n      swap2\n      pop\n        /* \"#utility.yul\":30427:30430   */\n      dup2\n        /* \"#utility.yul\":30420:30430   */\n      swap1\n      pop\n        /* \"#utility.yul\":29757:30436   */\n      swap6\n      swap5\n      pop\n      pop\n      pop\n      pop\n      pop\n      jump\t// out\n        /* \"#utility.yul\":30442:30590   */\n    tag_270:\n        /* \"#utility.yul\":30544:30555   */\n      0x00\n        /* \"#utility.yul\":30581:30584   */\n      dup2\n        /* \"#utility.yul\":30566:30584   */\n      swap1\n      pop\n        /* \"#utility.yul\":30442:30590   */\n      swap3\n      swap2\n      pop\n      pop\n      jump\t// out\n        /* \"#utility.yul\":30596:30810   */\n    tag_271:\n        /* \"#utility.yul\":30736:30802   */\n      0x19457468657265756d205369676e6564204d6573736167653a0a333200000000\n        /* \"#utility.yul\":30732:30733   */\n      0x00\n        /* \"#utility.yul\":30724:30730   */\n      dup3\n        /* \"#utility.yul\":30720:30734   */\n      add\n        /* \"#utility.yul\":30713:30803   */\n      mstore\n        /* \"#utility.yul\":30596:30810   */\n      pop\n      jump\t// out\n        /* \"#utility.yul\":30816:31218   */\n    tag_272:\n        /* \"#utility.yul\":30976:30979   */\n      0x00\n        /* \"#utility.yul\":30997:31082   */\n      tag_561\n        /* \"#utility.yul\":31079:31081   */\n      0x1c\n        /* \"#utility.yul\":31074:31077   */\n      dup4\n        /* \"#utility.yul\":30997:31082   */\n      tag_270\n      jump\t// in\n    tag_561:\n        /* \"#utility.yul\":30990:31082   */\n      swap2\n      pop\n        /* \"#utility.yul\":31091:31184   */\n      tag_562\n        /* \"#utility.yul\":31180:31183   */\n      dup3\n        /* \"#utility.yul\":31091:31184   */\n      tag_271\n      jump\t// in\n    tag_562:\n        /* \"#utility.yul\":31209:31211   */\n      0x1c\n        /* \"#utility.yul\":31204:31207   */\n      dup3\n        /* \"#utility.yul\":31200:31212   */\n      add\n        /* \"#utility.yul\":31193:31212   */\n      swap1\n      pop\n        /* \"#utility.yul\":30816:31218   */\n      swap2\n      swap1\n      pop\n      jump\t// out\n        /* \"#utility.yul\":31224:31303   */\n    tag_273:\n        /* \"#utility.yul\":31263:31270   */\n      0x00\n        /* \"#utility.yul\":31292:31297   */\n      dup2\n        /* \"#utility.yul\":31281:31297   */\n      swap1\n      pop\n        /* \"#utility.yul\":31224:31303   */\n      swap2\n      swap1\n      pop\n      jump\t// out\n        /* \"#utility.yul\":31309:31466   */\n    tag_274:\n        /* \"#utility.yul\":31414:31459   */\n      tag_565\n        /* \"#utility.yul\":31434:31458   */\n      tag_566\n        /* \"#utility.yul\":31452:31457   */\n      dup3\n        /* \"#utility.yul\":31434:31458   */\n      tag_219\n      jump\t// in\n    tag_566:\n        /* \"#utility.yul\":31414:31459   */\n      tag_273\n      jump\t// in\n    tag_565:\n        /* \"#utility.yul\":31409:31412   */\n      dup3\n        /* \"#utility.yul\":31402:31460   */\n      mstore\n        /* \"#utility.yul\":31309:31466   */\n      pop\n      pop\n      jump\t// out\n        /* \"#utility.yul\":31472:31994   */\n    tag_178:\n        /* \"#utility.yul\":31685:31688   */\n      0x00\n        /* \"#utility.yul\":31707:31855   */\n      tag_568\n        /* \"#utility.yul\":31851:31854   */\n      dup3\n        /* \"#utility.yul\":31707:31855   */\n      tag_272\n      jump\t// in\n    tag_568:\n        /* \"#utility.yul\":31700:31855   */\n      swap2\n      pop\n        /* \"#utility.yul\":31865:31940   */\n      tag_569\n        /* \"#utility.yul\":31936:31939   */\n      dup3\n        /* \"#utility.yul\":31927:31933   */\n      dup5\n        /* \"#utility.yul\":31865:31940   */\n      tag_274\n      jump\t// in\n    tag_569:\n        /* \"#utility.yul\":31965:31967   */\n      0x20\n        /* \"#utility.yul\":31960:31963   */\n      dup3\n        /* \"#utility.yul\":31956:31968   */\n      add\n        /* \"#utility.yul\":31949:31968   */\n      swap2\n      pop\n        /* \"#utility.yul\":31985:31988   */\n      dup2\n        /* \"#utility.yul\":31978:31988   */\n      swap1\n      pop\n        /* \"#utility.yul\":31472:31994   */\n      swap3\n      swap2\n      pop\n      pop\n      jump\t// out\n        /* \"#utility.yul\":32000:32442   */\n    tag_183:\n        /* \"#utility.yul\":32149:32153   */\n      0x00\n        /* \"#utility.yul\":32187:32189   */\n      0x60\n        /* \"#utility.yul\":32176:32185   */\n      dup3\n        /* \"#utility.yul\":32172:32190   */\n      add\n        /* \"#utility.yul\":32164:32190   */\n      swap1\n      pop\n        /* \"#utility.yul\":32200:32271   */\n      tag_571\n        /* \"#utility.yul\":32268:32269   */\n      0x00\n        /* \"#utility.yul\":32257:32266   */\n      dup4\n        /* \"#utility.yul\":32253:32270   */\n      add\n        /* \"#utility.yul\":32244:32250   */\n      dup7\n        /* \"#utility.yul\":32200:32271   */\n      tag_223\n      jump\t// in\n    tag_571:\n        /* \"#utility.yul\":32281:32353   */\n      tag_572\n        /* \"#utility.yul\":32349:32351   */\n      0x20\n        /* \"#utility.yul\":32338:32347   */\n      dup4\n        /* \"#utility.yul\":32334:32352   */\n      add\n        /* \"#utility.yul\":32325:32331   */\n      dup6\n        /* \"#utility.yul\":32281:32353   */\n      tag_237\n      jump\t// in\n    tag_572:\n        /* \"#utility.yul\":32363:32435   */\n      tag_573\n        /* \"#utility.yul\":32431:32433   */\n      0x40\n        /* \"#utility.yul\":32420:32429   */\n      dup4\n        /* \"#utility.yul\":32416:32434   */\n      add\n        /* \"#utility.yul\":32407:32413   */\n      dup5\n        /* \"#utility.yul\":32363:32435   */\n      tag_223\n      jump\t// in\n    tag_573:\n        /* \"#utility.yul\":32000:32442   */\n      swap5\n      swap4\n      pop\n      pop\n      pop\n      pop\n      jump\t// out\n        /* \"#utility.yul\":32448:32534   */\n    tag_275:\n        /* \"#utility.yul\":32483:32490   */\n      0x00\n        /* \"#utility.yul\":32523:32527   */\n      0xff\n        /* \"#utility.yul\":32516:32521   */\n      dup3\n        /* \"#utility.yul\":32512:32528   */\n      and\n        /* \"#utility.yul\":32501:32528   */\n      swap1\n      pop\n        /* \"#utility.yul\":32448:32534   */\n      swap2\n      swap1\n      pop\n      jump\t// out\n        /* \"#utility.yul\":32540:32728   */\n    tag_189:\n        /* \"#utility.yul\":32578:32581   */\n      0x00\n        /* \"#utility.yul\":32597:32615   */\n      tag_576\n        /* \"#utility.yul\":32613:32614   */\n      dup3\n        /* \"#utility.yul\":32597:32615   */\n      tag_275\n      jump\t// in\n    tag_576:\n        /* \"#utility.yul\":32592:32615   */\n      swap2\n      pop\n        /* \"#utility.yul\":32629:32647   */\n      tag_577\n        /* \"#utility.yul\":32645:32646   */\n      dup4\n        /* \"#utility.yul\":32629:32647   */\n      tag_275\n      jump\t// in\n    tag_577:\n        /* \"#utility.yul\":32624:32647   */\n      swap3\n      pop\n        /* \"#utility.yul\":32670:32671   */\n      dup3\n        /* \"#utility.yul\":32667:32668   */\n      dup3\n        /* \"#utility.yul\":32663:32672   */\n      add\n        /* \"#utility.yul\":32656:32672   */\n      swap1\n      pop\n        /* \"#utility.yul\":32693:32697   */\n      0xff\n        /* \"#utility.yul\":32688:32691   */\n      dup2\n        /* \"#utility.yul\":32685:32698   */\n      gt\n        /* \"#utility.yul\":32682:32721   */\n      iszero\n      tag_578\n      jumpi\n        /* \"#utility.yul\":32701:32719   */\n      tag_579\n      tag_253\n      jump\t// in\n    tag_579:\n        /* \"#utility.yul\":32682:32721   */\n    tag_578:\n        /* \"#utility.yul\":32540:32728   */\n      swap3\n      swap2\n      pop\n      pop\n      jump\t// out\n        /* \"#utility.yul\":32734:32846   */\n    tag_276:\n        /* \"#utility.yul\":32817:32839   */\n      tag_581\n        /* \"#utility.yul\":32833:32838   */\n      dup2\n        /* \"#utility.yul\":32817:32839   */\n      tag_275\n      jump\t// in\n    tag_581:\n        /* \"#utility.yul\":32812:32815   */\n      dup3\n        /* \"#utility.yul\":32805:32840   */\n      mstore\n        /* \"#utility.yul\":32734:32846   */\n      pop\n      pop\n      jump\t// out\n        /* \"#utility.yul\":32852:33397   */\n    tag_191:\n        /* \"#utility.yul\":33025:33029   */\n      0x00\n        /* \"#utility.yul\":33063:33066   */\n      0x80\n        /* \"#utility.yul\":33052:33061   */\n      dup3\n        /* \"#utility.yul\":33048:33067   */\n      add\n        /* \"#utility.yul\":33040:33067   */\n      swap1\n      pop\n        /* \"#utility.yul\":33077:33148   */\n      tag_583\n        /* \"#utility.yul\":33145:33146   */\n      0x00\n        /* \"#utility.yul\":33134:33143   */\n      dup4\n        /* \"#utility.yul\":33130:33147   */\n      add\n        /* \"#utility.yul\":33121:33127   */\n      dup8\n        /* \"#utility.yul\":33077:33148   */\n      tag_237\n      jump\t// in\n    tag_583:\n        /* \"#utility.yul\":33158:33226   */\n      tag_584\n        /* \"#utility.yul\":33222:33224   */\n      0x20\n        /* \"#utility.yul\":33211:33220   */\n      dup4\n        /* \"#utility.yul\":33207:33225   */\n      add\n        /* \"#utility.yul\":33198:33204   */\n      dup7\n        /* \"#utility.yul\":33158:33226   */\n      tag_276\n      jump\t// in\n    tag_584:\n        /* \"#utility.yul\":33236:33308   */\n      tag_585\n        /* \"#utility.yul\":33304:33306   */\n      0x40\n        /* \"#utility.yul\":33293:33302   */\n      dup4\n        /* \"#utility.yul\":33289:33307   */\n      add\n        /* \"#utility.yul\":33280:33286   */\n      dup6\n        /* \"#utility.yul\":33236:33308   */\n      tag_237\n      jump\t// in\n    tag_585:\n        /* \"#utility.yul\":33318:33390   */\n      tag_586\n        /* \"#utility.yul\":33386:33388   */\n      0x60\n        /* \"#utility.yul\":33375:33384   */\n      dup4\n        /* \"#utility.yul\":33371:33389   */\n      add\n        /* \"#utility.yul\":33362:33368   */\n      dup5\n        /* \"#utility.yul\":33318:33390   */\n      tag_237\n      jump\t// in\n    tag_586:\n        /* \"#utility.yul\":32852:33397   */\n      swap6\n      swap5\n      pop\n      pop\n      pop\n      pop\n      pop\n      jump\t// out\n    stop\n\n    sub_0: assembly {\n            /* \"NFT_market_contract.sol\":9483:13938  contract ProxyWallet  {... */\n          mstore(0x40, 0x80)\n            /* \"NFT_market_contract.sol\":10001:10074  constructor(address _owner) payable     {... */\n          mload(0x40)\n          sub(codesize, bytecodeSize)\n          dup1\n          bytecodeSize\n          dup4\n          codecopy\n          dup2\n          dup2\n          add\n          0x40\n          mstore\n          dup2\n          add\n          swap1\n          tag_1\n          swap2\n          swap1\n          tag_2\n          jump\t// in\n        tag_1:\n            /* \"NFT_market_contract.sol\":10060:10066  _owner */\n          dup1\n            /* \"NFT_market_contract.sol\":10052:10057  owner */\n          0x00\n          dup1\n            /* \"NFT_market_contract.sol\":10052:10066  owner = _owner */\n          0x0100\n          exp\n          dup2\n          sload\n          dup2\n          0xffffffffffffffffffffffffffffffffffffffff\n          mul\n          not\n          and\n          swap1\n          dup4\n          0xffffffffffffffffffffffffffffffffffffffff\n          and\n          mul\n          or\n          swap1\n          sstore\n          pop\n            /* \"NFT_market_contract.sol\":10001:10074  constructor(address _owner) payable     {... */\n          pop\n            /* \"NFT_market_contract.sol\":9483:13938  contract ProxyWallet  {... */\n          jump(tag_5)\n            /* \"#utility.yul\":88:205   */\n        tag_7:\n            /* \"#utility.yul\":197:198   */\n          0x00\n            /* \"#utility.yul\":194:195   */\n          dup1\n            /* \"#utility.yul\":187:199   */\n          revert\n            /* \"#utility.yul\":334:460   */\n        tag_9:\n            /* \"#utility.yul\":371:378   */\n          0x00\n            /* \"#utility.yul\":411:453   */\n          0xffffffffffffffffffffffffffffffffffffffff\n            /* \"#utility.yul\":404:409   */\n          dup3\n            /* \"#utility.yul\":400:454   */\n          and\n            /* \"#utility.yul\":389:454   */\n          swap1\n          pop\n            /* \"#utility.yul\":334:460   */\n          swap2\n          swap1\n          pop\n          jump\t// out\n            /* \"#utility.yul\":466:562   */\n        tag_10:\n            /* \"#utility.yul\":503:510   */\n          0x00\n            /* \"#utility.yul\":532:556   */\n          tag_19\n            /* \"#utility.yul\":550:555   */\n          dup3\n            /* \"#utility.yul\":532:556   */\n          tag_9\n          jump\t// in\n        tag_19:\n            /* \"#utility.yul\":521:556   */\n          swap1\n          pop\n            /* \"#utility.yul\":466:562   */\n          swap2\n          swap1\n          pop\n          jump\t// out\n            /* \"#utility.yul\":568:690   */\n        tag_11:\n            /* \"#utility.yul\":641:665   */\n          tag_21\n            /* \"#utility.yul\":659:664   */\n          dup2\n            /* \"#utility.yul\":641:665   */\n          tag_10\n          jump\t// in\n        tag_21:\n            /* \"#utility.yul\":634:639   */\n          dup2\n            /* \"#utility.yul\":631:666   */\n          eq\n            /* \"#utility.yul\":621:684   */\n          tag_22\n          jumpi\n            /* \"#utility.yul\":680:681   */\n          0x00\n            /* \"#utility.yul\":677:678   */\n          dup1\n            /* \"#utility.yul\":670:682   */\n          revert\n            /* \"#utility.yul\":621:684   */\n        tag_22:\n            /* \"#utility.yul\":568:690   */\n          pop\n          jump\t// out\n            /* \"#utility.yul\":696:839   */\n        tag_12:\n            /* \"#utility.yul\":753:758   */\n          0x00\n            /* \"#utility.yul\":784:790   */\n          dup2\n            /* \"#utility.yul\":778:791   */\n          mload\n            /* \"#utility.yul\":769:791   */\n          swap1\n          pop\n            /* \"#utility.yul\":800:833   */\n          tag_24\n            /* \"#utility.yul\":827:832   */\n          dup2\n            /* \"#utility.yul\":800:833   */\n          tag_11\n          jump\t// in\n        tag_24:\n            /* \"#utility.yul\":696:839   */\n          swap3\n          swap2\n          pop\n          pop\n          jump\t// out\n            /* \"#utility.yul\":845:1196   */\n        tag_2:\n            /* \"#utility.yul\":915:921   */\n          0x00\n            /* \"#utility.yul\":964:966   */\n          0x20\n            /* \"#utility.yul\":952:961   */\n          dup3\n            /* \"#utility.yul\":943:950   */\n          dup5\n            /* \"#utility.yul\":939:962   */\n          sub\n            /* \"#utility.yul\":935:967   */\n          slt\n            /* \"#utility.yul\":932:1051   */\n          iszero\n          tag_26\n          jumpi\n            /* \"#utility.yul\":970:1049   */\n          tag_27\n          tag_7\n          jump\t// in\n        tag_27:\n            /* \"#utility.yul\":932:1051   */\n        tag_26:\n            /* \"#utility.yul\":1090:1091   */\n          0x00\n            /* \"#utility.yul\":1115:1179   */\n          tag_28\n            /* \"#utility.yul\":1171:1178   */\n          dup5\n            /* \"#utility.yul\":1162:1168   */\n          dup3\n            /* \"#utility.yul\":1151:1160   */\n          dup6\n            /* \"#utility.yul\":1147:1169   */\n          add\n            /* \"#utility.yul\":1115:1179   */\n          tag_12\n          jump\t// in\n        tag_28:\n            /* \"#utility.yul\":1105:1179   */\n          swap2\n          pop\n            /* \"#utility.yul\":1061:1189   */\n          pop\n            /* \"#utility.yul\":845:1196   */\n          swap3\n          swap2\n          pop\n          pop\n          jump\t// out\n            /* \"NFT_market_contract.sol\":9483:13938  contract ProxyWallet  {... */\n        tag_5:\n          dataSize(sub_0)\n          dup1\n          dataOffset(sub_0)\n          0x00\n          codecopy\n          0x00\n          return\n        stop\n\n        sub_0: assembly {\n                /* \"NFT_market_contract.sol\":9483:13938  contract ProxyWallet  {... */\n              mstore(0x40, 0x80)\n              jumpi(tag_1, lt(calldatasize, 0x04))\n              shr(0xe0, calldataload(0x00))\n              dup1\n              0x08ac144e\n              eq\n              tag_2\n              jumpi\n              dup1\n              0x8eb6a489\n              eq\n              tag_3\n              jumpi\n              dup1\n              0xdd304104\n              eq\n              tag_4\n              jumpi\n              dup1\n              0xeb41850d\n              eq\n              tag_5\n              jumpi\n            tag_1:\n              0x00\n              dup1\n              revert\n                /* \"NFT_market_contract.sol\":10409:12052  function AtomicTx(... */\n            tag_2:\n              tag_6\n              0x04\n              dup1\n              calldatasize\n              sub\n              dup2\n              add\n              swap1\n              tag_7\n              swap2\n              swap1\n              tag_8\n              jump\t// in\n            tag_7:\n              tag_9\n              jump\t// in\n            tag_6:\n              stop\n                /* \"NFT_market_contract.sol\":9620:9661  mapping(bytes32 => bool) public IsInvalid */\n            tag_3:\n              callvalue\n              dup1\n              iszero\n              tag_10\n              jumpi\n              0x00\n              dup1\n              revert\n            tag_10:\n              pop\n              tag_11\n              0x04\n              dup1\n              calldatasize\n              sub\n              dup2\n              add\n              swap1\n              tag_12\n              swap2\n              swap1\n              tag_13\n              jump\t// in\n            tag_12:\n              tag_14\n              jump\t// in\n            tag_11:\n              mload(0x40)\n              tag_15\n              swap2\n              swap1\n              tag_16\n              jump\t// in\n            tag_15:\n              mload(0x40)\n              dup1\n              swap2\n              sub\n              swap1\n              return\n                /* \"NFT_market_contract.sol\":12080:12884  function cancelOrder(SellOrder memory sellOrder) public {... */\n            tag_4:\n              callvalue\n              dup1\n              iszero\n              tag_17\n              jumpi\n              0x00\n              dup1\n              revert\n            tag_17:\n              pop\n              tag_18\n              0x04\n              dup1\n              calldatasize\n              sub\n              dup2\n              add\n              swap1\n              tag_19\n              swap2\n              swap1\n              tag_20\n              jump\t// in\n            tag_19:\n              tag_21\n              jump\t// in\n            tag_18:\n              stop\n                /* \"NFT_market_contract.sol\":10285:10401  function isOrderInvalid(bytes32 orderHash) public view returns (bool) {... */\n            tag_5:\n              callvalue\n              dup1\n              iszero\n              tag_22\n              jumpi\n              0x00\n              dup1\n              revert\n            tag_22:\n              pop\n              tag_23\n              0x04\n              dup1\n              calldatasize\n              sub\n              dup2\n              add\n              swap1\n              tag_24\n              swap2\n              swap1\n              tag_13\n              jump\t// in\n            tag_24:\n              tag_25\n              jump\t// in\n            tag_23:\n              mload(0x40)\n              tag_26\n              swap2\n              swap1\n              tag_16\n              jump\t// in\n            tag_26:\n              mload(0x40)\n              dup1\n              swap2\n              sub\n              swap1\n              return\n                /* \"NFT_market_contract.sol\":10409:12052  function AtomicTx(... */\n            tag_9:\n                /* \"NFT_market_contract.sol\":10627:10639  bytes32 Hash */\n              0x00\n                /* \"NFT_market_contract.sol\":10701:10710  sellOrder */\n              dup4\n                /* \"NFT_market_contract.sol\":10701:10721  sellOrder.contractID */\n              0x20\n              add\n              mload\n                /* \"NFT_market_contract.sol\":10740:10749  sellOrder */\n              dup5\n                /* \"NFT_market_contract.sol\":10740:10757  sellOrder.tokenID */\n              0x40\n              add\n              mload\n                /* \"NFT_market_contract.sol\":10776:10785  sellOrder */\n              dup6\n                /* \"NFT_market_contract.sol\":10776:10791  sellOrder.price */\n              0x60\n              add\n              mload\n                /* \"NFT_market_contract.sol\":10810:10819  sellOrder */\n              dup7\n                /* \"NFT_market_contract.sol\":10810:10834  sellOrder.expirationTime */\n              0xa0\n              add\n              mload\n                /* \"NFT_market_contract.sol\":10853:10862  sellOrder */\n              dup8\n                /* \"NFT_market_contract.sol\":10853:10872  sellOrder.signature */\n              0x80\n              add\n              mload\n                /* \"NFT_market_contract.sol\":10666:10887  abi.encodePacked(... */\n              add(0x20, mload(0x40))\n              tag_28\n              swap6\n              swap5\n              swap4\n              swap3\n              swap2\n              swap1\n              tag_29\n              jump\t// in\n            tag_28:\n              mload(0x40)\n              0x20\n              dup2\n              dup4\n              sub\n              sub\n              dup2\n              mstore\n              swap1\n              0x40\n              mstore\n                /* \"NFT_market_contract.sol\":10642:10898  keccak256(... */\n              dup1\n              mload\n              swap1\n              0x20\n              add\n              keccak256\n                /* \"NFT_market_contract.sol\":10627:10898  bytes32 Hash = keccak256(... */\n              swap1\n              pop\n                /* \"NFT_market_contract.sol\":10982:10997  block.timestamp */\n              timestamp\n                /* \"NFT_market_contract.sol\":10955:10964  sellOrder */\n              dup5\n                /* \"NFT_market_contract.sol\":10955:10979  sellOrder.expirationTime */\n              0xa0\n              add\n              mload\n                /* \"NFT_market_contract.sol\":10955:10997  sellOrder.expirationTime < block.timestamp */\n              lt\n                /* \"NFT_market_contract.sol\":10951:11071  if (sellOrder.expirationTime < block.timestamp) {... */\n              iszero\n              tag_30\n              jumpi\n                /* \"NFT_market_contract.sol\":11014:11038  markOrderCancelled(Hash) */\n              tag_31\n                /* \"NFT_market_contract.sol\":11033:11037  Hash */\n              dup2\n                /* \"NFT_market_contract.sol\":11014:11032  markOrderCancelled */\n              tag_32\n                /* \"NFT_market_contract.sol\":11014:11038  markOrderCancelled(Hash) */\n              jump\t// in\n            tag_31:\n                /* \"NFT_market_contract.sol\":11053:11060  return; */\n              pop\n              jump(tag_27)\n                /* \"NFT_market_contract.sol\":10951:11071  if (sellOrder.expirationTime < block.timestamp) {... */\n            tag_30:\n                /* \"NFT_market_contract.sol\":11135:11144  IsInvalid */\n              0x01\n                /* \"NFT_market_contract.sol\":11135:11150  IsInvalid[Hash] */\n              0x00\n                /* \"NFT_market_contract.sol\":11145:11149  Hash */\n              dup3\n                /* \"NFT_market_contract.sol\":11135:11150  IsInvalid[Hash] */\n              dup2\n              mstore\n              0x20\n              add\n              swap1\n              dup2\n              mstore\n              0x20\n              add\n              0x00\n              keccak256\n              0x00\n              swap1\n              sload\n              swap1\n              0x0100\n              exp\n              swap1\n              div\n              0xff\n              and\n                /* \"NFT_market_contract.sol\":11134:11150  !IsInvalid[Hash] */\n              iszero\n                /* \"NFT_market_contract.sol\":11126:11174  require(!IsInvalid[Hash], \"Order has been used\") */\n              tag_33\n              jumpi\n              mload(0x40)\n              0x08c379a000000000000000000000000000000000000000000000000000000000\n              dup2\n              mstore\n              0x04\n              add\n              tag_34\n              swap1\n              tag_35\n              jump\t// in\n            tag_34:\n              mload(0x40)\n              dup1\n              swap2\n              sub\n              swap1\n              revert\n            tag_33:\n                /* \"NFT_market_contract.sol\":11234:11489  verifySignature(... */\n              tag_36\n                /* \"NFT_market_contract.sol\":11268:11277  sellOrder */\n              dup5\n                /* \"NFT_market_contract.sol\":11268:11284  sellOrder.seller */\n              0x00\n              add\n              mload\n                /* \"NFT_market_contract.sol\":11303:11312  sellOrder */\n              dup6\n                /* \"NFT_market_contract.sol\":11303:11323  sellOrder.contractID */\n              0x20\n              add\n              mload\n                /* \"NFT_market_contract.sol\":11342:11351  sellOrder */\n              dup7\n                /* \"NFT_market_contract.sol\":11342:11359  sellOrder.tokenID */\n              0x40\n              add\n              mload\n                /* \"NFT_market_contract.sol\":11378:11387  sellOrder */\n              dup8\n                /* \"NFT_market_contract.sol\":11378:11393  sellOrder.price */\n              0x60\n              add\n              mload\n                /* \"NFT_market_contract.sol\":11412:11421  sellOrder */\n              dup9\n                /* \"NFT_market_contract.sol\":11412:11431  sellOrder.signature */\n              0x80\n              add\n              mload\n                /* \"NFT_market_contract.sol\":11450:11459  sellOrder */\n              dup10\n                /* \"NFT_market_contract.sol\":11450:11474  sellOrder.expirationTime */\n              0xa0\n              add\n              mload\n                /* \"NFT_market_contract.sol\":11234:11249  verifySignature */\n              tag_37\n                /* \"NFT_market_contract.sol\":11234:11489  verifySignature(... */\n              jump\t// in\n            tag_36:\n                /* \"NFT_market_contract.sol\":11212:11534  require(... */\n              tag_38\n              jumpi\n              mload(0x40)\n              0x08c379a000000000000000000000000000000000000000000000000000000000\n              dup2\n              mstore\n              0x04\n              add\n              tag_39\n              swap1\n              tag_40\n              jump\t// in\n            tag_39:\n              mload(0x40)\n              dup1\n              swap2\n              sub\n              swap1\n              revert\n            tag_38:\n                /* \"NFT_market_contract.sol\":11561:11570  sellOrder */\n              dup4\n                /* \"NFT_market_contract.sol\":11561:11576  sellOrder.price */\n              0x60\n              add\n              mload\n                /* \"NFT_market_contract.sol\":11551:11557  _value */\n              dup4\n                /* \"NFT_market_contract.sol\":11551:11576  _value >= sellOrder.price */\n              lt\n                /* \"NFT_market_contract.sol\":11547:12045  if (_value >= sellOrder.price) {... */\n              tag_41\n              jumpi\n                /* \"NFT_market_contract.sol\":11691:11700  sellOrder */\n              dup4\n                /* \"NFT_market_contract.sol\":11691:11711  sellOrder.contractID */\n              0x20\n              add\n              mload\n                /* \"NFT_market_contract.sol\":11683:11725  IERC721(sellOrder.contractID).transferFrom */\n              0xffffffffffffffffffffffffffffffffffffffff\n              and\n              0x23b872dd\n                /* \"NFT_market_contract.sol\":11748:11757  sellOrder */\n              dup6\n                /* \"NFT_market_contract.sol\":11748:11764  sellOrder.seller */\n              0x00\n              add\n              mload\n                /* \"NFT_market_contract.sol\":11787:11792  buyer */\n              dup5\n                /* \"NFT_market_contract.sol\":11815:11824  sellOrder */\n              dup8\n                /* \"NFT_market_contract.sol\":11815:11832  sellOrder.tokenID */\n              0x40\n              add\n              mload\n                /* \"NFT_market_contract.sol\":11683:11851  IERC721(sellOrder.contractID).transferFrom(... */\n              mload(0x40)\n              dup5\n              0xffffffff\n              and\n              0xe0\n              shl\n              dup2\n              mstore\n              0x04\n              add\n              tag_42\n              swap4\n              swap3\n              swap2\n              swap1\n              tag_43\n              jump\t// in\n            tag_42:\n              0x00\n              mload(0x40)\n              dup1\n              dup4\n              sub\n              dup2\n              0x00\n              dup8\n              dup1\n              extcodesize\n              iszero\n              dup1\n              iszero\n              tag_44\n              jumpi\n              0x00\n              dup1\n              revert\n            tag_44:\n              pop\n              gas\n              call\n              swap3\n              pop\n              pop\n              pop\n              dup1\n              iszero\n              tag_45\n              jumpi\n              pop\n              0x01\n            tag_45:\n                /* \"NFT_market_contract.sol\":11662:11996  try... */\n              tag_46\n              jumpi\n                /* \"NFT_market_contract.sol\":11974:11981  return; */\n              pop\n              jump(tag_27)\n                /* \"NFT_market_contract.sol\":11662:11996  try... */\n            tag_46:\n                /* \"NFT_market_contract.sol\":11884:11908  markOrderCancelled(Hash) */\n              tag_51\n                /* \"NFT_market_contract.sol\":11903:11907  Hash */\n              dup2\n                /* \"NFT_market_contract.sol\":11884:11902  markOrderCancelled */\n              tag_32\n                /* \"NFT_market_contract.sol\":11884:11908  markOrderCancelled(Hash) */\n              jump\t// in\n            tag_51:\n                /* \"NFT_market_contract.sol\":11926:11933  return; */\n              pop\n              jump(tag_27)\n                /* \"NFT_market_contract.sol\":11547:12045  if (_value >= sellOrder.price) {... */\n            tag_41:\n                /* \"NFT_market_contract.sol\":12027:12034  return; */\n              pop\n                /* \"NFT_market_contract.sol\":10409:12052  function AtomicTx(... */\n            tag_27:\n              pop\n              pop\n              pop\n              jump\t// out\n                /* \"NFT_market_contract.sol\":9620:9661  mapping(bytes32 => bool) public IsInvalid */\n            tag_14:\n              mstore(0x20, 0x01)\n              dup1\n              0x00\n              mstore\n              keccak256(0x00, 0x40)\n              0x00\n              swap2\n              pop\n              sload\n              swap1\n              0x0100\n              exp\n              swap1\n              div\n              0xff\n              and\n              dup2\n              jump\t// out\n                /* \"NFT_market_contract.sol\":12080:12884  function cancelOrder(SellOrder memory sellOrder) public {... */\n            tag_21:\n                /* \"NFT_market_contract.sol\":12194:12449  verifySignature(... */\n              tag_54\n                /* \"NFT_market_contract.sol\":12228:12237  sellOrder */\n              dup2\n                /* \"NFT_market_contract.sol\":12228:12244  sellOrder.seller */\n              0x00\n              add\n              mload\n                /* \"NFT_market_contract.sol\":12263:12272  sellOrder */\n              dup3\n                /* \"NFT_market_contract.sol\":12263:12283  sellOrder.contractID */\n              0x20\n              add\n              mload\n                /* \"NFT_market_contract.sol\":12302:12311  sellOrder */\n              dup4\n                /* \"NFT_market_contract.sol\":12302:12319  sellOrder.tokenID */\n              0x40\n              add\n              mload\n                /* \"NFT_market_contract.sol\":12338:12347  sellOrder */\n              dup5\n                /* \"NFT_market_contract.sol\":12338:12353  sellOrder.price */\n              0x60\n              add\n              mload\n                /* \"NFT_market_contract.sol\":12372:12381  sellOrder */\n              dup6\n                /* \"NFT_market_contract.sol\":12372:12391  sellOrder.signature */\n              0x80\n              add\n              mload\n                /* \"NFT_market_contract.sol\":12410:12419  sellOrder */\n              dup7\n                /* \"NFT_market_contract.sol\":12410:12434  sellOrder.expirationTime */\n              0xa0\n              add\n              mload\n                /* \"NFT_market_contract.sol\":12194:12209  verifySignature */\n              tag_37\n                /* \"NFT_market_contract.sol\":12194:12449  verifySignature(... */\n              jump\t// in\n            tag_54:\n                /* \"NFT_market_contract.sol\":12172:12494  require(... */\n              tag_55\n              jumpi\n              mload(0x40)\n              0x08c379a000000000000000000000000000000000000000000000000000000000\n              dup2\n              mstore\n              0x04\n              add\n              tag_56\n              swap1\n              tag_40\n              jump\t// in\n            tag_56:\n              mload(0x40)\n              dup1\n              swap2\n              sub\n              swap1\n              revert\n            tag_55:\n                /* \"NFT_market_contract.sol\":12531:12543  bytes32 Hash */\n              0x00\n                /* \"NFT_market_contract.sol\":12605:12614  sellOrder */\n              dup2\n                /* \"NFT_market_contract.sol\":12605:12625  sellOrder.contractID */\n              0x20\n              add\n              mload\n                /* \"NFT_market_contract.sol\":12644:12653  sellOrder */\n              dup3\n                /* \"NFT_market_contract.sol\":12644:12661  sellOrder.tokenID */\n              0x40\n              add\n              mload\n                /* \"NFT_market_contract.sol\":12680:12689  sellOrder */\n              dup4\n                /* \"NFT_market_contract.sol\":12680:12695  sellOrder.price */\n              0x60\n              add\n              mload\n                /* \"NFT_market_contract.sol\":12714:12723  sellOrder */\n              dup5\n                /* \"NFT_market_contract.sol\":12714:12738  sellOrder.expirationTime */\n              0xa0\n              add\n              mload\n                /* \"NFT_market_contract.sol\":12757:12766  sellOrder */\n              dup6\n                /* \"NFT_market_contract.sol\":12757:12776  sellOrder.signature */\n              0x80\n              add\n              mload\n                /* \"NFT_market_contract.sol\":12570:12791  abi.encodePacked(... */\n              add(0x20, mload(0x40))\n              tag_57\n              swap6\n              swap5\n              swap4\n              swap3\n              swap2\n              swap1\n              tag_29\n              jump\t// in\n            tag_57:\n              mload(0x40)\n              0x20\n              dup2\n              dup4\n              sub\n              sub\n              dup2\n              mstore\n              swap1\n              0x40\n              mstore\n                /* \"NFT_market_contract.sol\":12546:12802  keccak256(... */\n              dup1\n              mload\n              swap1\n              0x20\n              add\n              keccak256\n                /* \"NFT_market_contract.sol\":12531:12802  bytes32 Hash = keccak256(... */\n              swap1\n              pop\n                /* \"NFT_market_contract.sol\":12852:12876  markOrderCancelled(Hash) */\n              tag_58\n                /* \"NFT_market_contract.sol\":12871:12875  Hash */\n              dup2\n                /* \"NFT_market_contract.sol\":12852:12870  markOrderCancelled */\n              tag_32\n                /* \"NFT_market_contract.sol\":12852:12876  markOrderCancelled(Hash) */\n              jump\t// in\n            tag_58:\n                /* \"NFT_market_contract.sol\":12136:12884  {... */\n              pop\n                /* \"NFT_market_contract.sol\":12080:12884  function cancelOrder(SellOrder memory sellOrder) public {... */\n              pop\n              jump\t// out\n                /* \"NFT_market_contract.sol\":10285:10401  function isOrderInvalid(bytes32 orderHash) public view returns (bool) {... */\n            tag_25:\n                /* \"NFT_market_contract.sol\":10349:10353  bool */\n              0x00\n                /* \"NFT_market_contract.sol\":10373:10382  IsInvalid */\n              0x01\n                /* \"NFT_market_contract.sol\":10373:10393  IsInvalid[orderHash] */\n              0x00\n                /* \"NFT_market_contract.sol\":10383:10392  orderHash */\n              dup4\n                /* \"NFT_market_contract.sol\":10373:10393  IsInvalid[orderHash] */\n              dup2\n              mstore\n              0x20\n              add\n              swap1\n              dup2\n              mstore\n              0x20\n              add\n              0x00\n              keccak256\n              0x00\n              swap1\n              sload\n              swap1\n              0x0100\n              exp\n              swap1\n              div\n              0xff\n              and\n                /* \"NFT_market_contract.sol\":10366:10393  return IsInvalid[orderHash] */\n              swap1\n              pop\n                /* \"NFT_market_contract.sol\":10285:10401  function isOrderInvalid(bytes32 orderHash) public view returns (bool) {... */\n              swap2\n              swap1\n              pop\n              jump\t// out\n                /* \"NFT_market_contract.sol\":10082:10221  function markOrderCancelled(bytes32 orderHash) internal {... */\n            tag_32:\n                /* \"NFT_market_contract.sol\":10209:10213  true */\n              0x01\n                /* \"NFT_market_contract.sol\":10186:10195  IsInvalid */\n              dup1\n                /* \"NFT_market_contract.sol\":10186:10206  IsInvalid[orderHash] */\n              0x00\n                /* \"NFT_market_contract.sol\":10196:10205  orderHash */\n              dup4\n                /* \"NFT_market_contract.sol\":10186:10206  IsInvalid[orderHash] */\n              dup2\n              mstore\n              0x20\n              add\n              swap1\n              dup2\n              mstore\n              0x20\n              add\n              0x00\n              keccak256\n              0x00\n                /* \"NFT_market_contract.sol\":10186:10213  IsInvalid[orderHash] = true */\n              0x0100\n              exp\n              dup2\n              sload\n              dup2\n              0xff\n              mul\n              not\n              and\n              swap1\n              dup4\n              iszero\n              iszero\n              mul\n              or\n              swap1\n              sstore\n              pop\n                /* \"NFT_market_contract.sol\":10082:10221  function markOrderCancelled(bytes32 orderHash) internal {... */\n              pop\n              jump\t// out\n                /* \"NFT_market_contract.sol\":12912:13461  function verifySignature(... */\n            tag_37:\n                /* \"NFT_market_contract.sol\":13137:13141  bool */\n              0x00\n                /* \"NFT_market_contract.sol\":13154:13166  bytes32 hash */\n              dup1\n                /* \"NFT_market_contract.sol\":13210:13220  contractID */\n              dup7\n                /* \"NFT_market_contract.sol\":13222:13229  tokenID */\n              dup7\n                /* \"NFT_market_contract.sol\":13231:13236  price */\n              dup7\n                /* \"NFT_market_contract.sol\":13238:13252  expirationTime */\n              dup6\n                /* \"NFT_market_contract.sol\":13193:13253  abi.encodePacked(contractID, tokenID, price, expirationTime) */\n              add(0x20, mload(0x40))\n              tag_62\n              swap5\n              swap4\n              swap3\n              swap2\n              swap1\n              tag_63\n              jump\t// in\n            tag_62:\n              mload(0x40)\n              0x20\n              dup2\n              dup4\n              sub\n              sub\n              dup2\n              mstore\n              swap1\n              0x40\n              mstore\n                /* \"NFT_market_contract.sol\":13169:13264  keccak256(... */\n              dup1\n              mload\n              swap1\n              0x20\n              add\n              keccak256\n                /* \"NFT_market_contract.sol\":13154:13264  bytes32 hash = keccak256(... */\n              swap1\n              pop\n                /* \"NFT_market_contract.sol\":13275:13292  bytes32 OrderHash */\n              0x00\n                /* \"NFT_market_contract.sol\":13372:13376  hash */\n              dup2\n                /* \"NFT_market_contract.sol\":13319:13377  abi.encodePacked(\"\\x19Ethereum Signed Message:\\n32\", hash) */\n              add(0x20, mload(0x40))\n              tag_64\n              swap2\n              swap1\n              tag_65\n              jump\t// in\n            tag_64:\n              mload(0x40)\n              0x20\n              dup2\n              dup4\n              sub\n              sub\n              dup2\n              mstore\n              swap1\n              0x40\n              mstore\n                /* \"NFT_market_contract.sol\":13295:13388  keccak256(... */\n              dup1\n              mload\n              swap1\n              0x20\n              add\n              keccak256\n                /* \"NFT_market_contract.sol\":13275:13388  bytes32 OrderHash = keccak256(... */\n              swap1\n              pop\n                /* \"NFT_market_contract.sol\":13447:13453  seller */\n              dup9\n                /* \"NFT_market_contract.sol\":13408:13453  recoverSigner(OrderHash, signature) == seller */\n              0xffffffffffffffffffffffffffffffffffffffff\n              and\n                /* \"NFT_market_contract.sol\":13408:13443  recoverSigner(OrderHash, signature) */\n              tag_66\n                /* \"NFT_market_contract.sol\":13422:13431  OrderHash */\n              dup3\n                /* \"NFT_market_contract.sol\":13433:13442  signature */\n              dup8\n                /* \"NFT_market_contract.sol\":13408:13421  recoverSigner */\n              tag_67\n                /* \"NFT_market_contract.sol\":13408:13443  recoverSigner(OrderHash, signature) */\n              jump\t// in\n            tag_66:\n                /* \"NFT_market_contract.sol\":13408:13453  recoverSigner(OrderHash, signature) == seller */\n              0xffffffffffffffffffffffffffffffffffffffff\n              and\n              eq\n                /* \"NFT_market_contract.sol\":13401:13453  return recoverSigner(OrderHash, signature) == seller */\n              swap3\n              pop\n              pop\n              pop\n                /* \"NFT_market_contract.sol\":12912:13461  function verifySignature(... */\n              swap7\n              swap6\n              pop\n              pop\n              pop\n              pop\n              pop\n              pop\n              jump\t// out\n                /* \"NFT_market_contract.sol\":13469:13929  function recoverSigner(... */\n            tag_67:\n                /* \"NFT_market_contract.sol\":13578:13585  address */\n              0x00\n                /* \"NFT_market_contract.sol\":13598:13607  bytes32 r */\n              dup1\n                /* \"NFT_market_contract.sol\":13618:13627  bytes32 s */\n              0x00\n                /* \"NFT_market_contract.sol\":13638:13645  uint8 v */\n              dup1\n                /* \"NFT_market_contract.sol\":13708:13710  32 */\n              0x20\n                /* \"NFT_market_contract.sol\":13697:13706  signature */\n              dup6\n                /* \"NFT_market_contract.sol\":13693:13711  add(signature, 32) */\n              add\n                /* \"NFT_market_contract.sol\":13687:13712  mload(add(signature, 32)) */\n              mload\n                /* \"NFT_market_contract.sol\":13682:13712  r := mload(add(signature, 32)) */\n              swap3\n              pop\n                /* \"NFT_market_contract.sol\":13752:13754  64 */\n              0x40\n                /* \"NFT_market_contract.sol\":13741:13750  signature */\n              dup6\n                /* \"NFT_market_contract.sol\":13737:13755  add(signature, 64) */\n              add\n                /* \"NFT_market_contract.sol\":13731:13756  mload(add(signature, 64)) */\n              mload\n                /* \"NFT_market_contract.sol\":13726:13756  s := mload(add(signature, 64)) */\n              swap2\n              pop\n                /* \"NFT_market_contract.sol\":13804:13806  96 */\n              0x60\n                /* \"NFT_market_contract.sol\":13793:13802  signature */\n              dup6\n                /* \"NFT_market_contract.sol\":13789:13807  add(signature, 96) */\n              add\n                /* \"NFT_market_contract.sol\":13783:13808  mload(add(signature, 96)) */\n              mload\n                /* \"NFT_market_contract.sol\":13780:13781  0 */\n              0x00\n                /* \"NFT_market_contract.sol\":13775:13809  byte(0, mload(add(signature, 96))) */\n              byte\n                /* \"NFT_market_contract.sol\":13770:13809  v := byte(0, mload(add(signature, 96))) */\n              swap1\n              pop\n                /* \"NFT_market_contract.sol\":13840:13842  27 */\n              0x1b\n                /* \"NFT_market_contract.sol\":13836:13837  v */\n              dup2\n                /* \"NFT_market_contract.sol\":13836:13842  v < 27 */\n              0xff\n              and\n              lt\n                /* \"NFT_market_contract.sol\":13832:13878  if (v < 27) {... */\n              iszero\n              tag_69\n              jumpi\n                /* \"NFT_market_contract.sol\":13864:13866  27 */\n              0x1b\n                /* \"NFT_market_contract.sol\":13859:13866  v += 27 */\n              dup2\n              tag_70\n              swap2\n              swap1\n              tag_71\n              jump\t// in\n            tag_70:\n              swap1\n              pop\n                /* \"NFT_market_contract.sol\":13832:13878  if (v < 27) {... */\n            tag_69:\n                /* \"NFT_market_contract.sol\":13897:13921  ecrecover(hash, v, r, s) */\n              0x01\n                /* \"NFT_market_contract.sol\":13907:13911  hash */\n              dup7\n                /* \"NFT_market_contract.sol\":13913:13914  v */\n              dup3\n                /* \"NFT_market_contract.sol\":13916:13917  r */\n              dup6\n                /* \"NFT_market_contract.sol\":13919:13920  s */\n              dup6\n                /* \"NFT_market_contract.sol\":13897:13921  ecrecover(hash, v, r, s) */\n              mload(0x40)\n              0x00\n              dup2\n              mstore\n              0x20\n              add\n              0x40\n              mstore\n              mload(0x40)\n              tag_72\n              swap5\n              swap4\n              swap3\n              swap2\n              swap1\n              tag_73\n              jump\t// in\n            tag_72:\n              0x20\n              mload(0x40)\n              0x20\n              dup2\n              sub\n              swap1\n              dup1\n              dup5\n              sub\n              swap1\n              dup6\n              gas\n              staticcall\n              iszero\n              dup1\n              iszero\n              tag_75\n              jumpi\n              returndatasize\n              0x00\n              dup1\n              returndatacopy\n              revert(0x00, returndatasize)\n            tag_75:\n              pop\n              pop\n              pop\n              mload(sub(mload(0x40), 0x20))\n                /* \"NFT_market_contract.sol\":13890:13921  return ecrecover(hash, v, r, s) */\n              swap4\n              pop\n              pop\n              pop\n              pop\n                /* \"NFT_market_contract.sol\":13469:13929  function recoverSigner(... */\n              swap3\n              swap2\n              pop\n              pop\n              jump\t// out\n                /* \"#utility.yul\":7:82   */\n            tag_76:\n                /* \"#utility.yul\":40:46   */\n              0x00\n                /* \"#utility.yul\":73:75   */\n              0x40\n                /* \"#utility.yul\":67:76   */\n              mload\n                /* \"#utility.yul\":57:76   */\n              swap1\n              pop\n                /* \"#utility.yul\":7:82   */\n              swap1\n              jump\t// out\n                /* \"#utility.yul\":88:205   */\n            tag_77:\n                /* \"#utility.yul\":197:198   */\n              0x00\n                /* \"#utility.yul\":194:195   */\n              dup1\n                /* \"#utility.yul\":187:199   */\n              revert\n                /* \"#utility.yul\":211:328   */\n            tag_78:\n                /* \"#utility.yul\":320:321   */\n              0x00\n                /* \"#utility.yul\":317:318   */\n              dup1\n                /* \"#utility.yul\":310:322   */\n              revert\n                /* \"#utility.yul\":334:451   */\n            tag_79:\n                /* \"#utility.yul\":443:444   */\n              0x00\n                /* \"#utility.yul\":440:441   */\n              dup1\n                /* \"#utility.yul\":433:445   */\n              revert\n                /* \"#utility.yul\":457:559   */\n            tag_80:\n                /* \"#utility.yul\":498:504   */\n              0x00\n                /* \"#utility.yul\":549:551   */\n              0x1f\n                /* \"#utility.yul\":545:552   */\n              not\n                /* \"#utility.yul\":540:542   */\n              0x1f\n                /* \"#utility.yul\":533:538   */\n              dup4\n                /* \"#utility.yul\":529:543   */\n              add\n                /* \"#utility.yul\":525:553   */\n              and\n                /* \"#utility.yul\":515:553   */\n              swap1\n              pop\n                /* \"#utility.yul\":457:559   */\n              swap2\n              swap1\n              pop\n              jump\t// out\n                /* \"#utility.yul\":565:745   */\n            tag_81:\n                /* \"#utility.yul\":613:690   */\n              0x4e487b7100000000000000000000000000000000000000000000000000000000\n                /* \"#utility.yul\":610:611   */\n              0x00\n                /* \"#utility.yul\":603:691   */\n              mstore\n                /* \"#utility.yul\":710:714   */\n              0x41\n                /* \"#utility.yul\":707:708   */\n              0x04\n                /* \"#utility.yul\":700:715   */\n              mstore\n                /* \"#utility.yul\":734:738   */\n              0x24\n                /* \"#utility.yul\":731:732   */\n              0x00\n                /* \"#utility.yul\":724:739   */\n              revert\n                /* \"#utility.yul\":751:1032   */\n            tag_82:\n                /* \"#utility.yul\":834:861   */\n              tag_138\n                /* \"#utility.yul\":856:860   */\n              dup3\n                /* \"#utility.yul\":834:861   */\n              tag_80\n              jump\t// in\n            tag_138:\n                /* \"#utility.yul\":826:832   */\n              dup2\n                /* \"#utility.yul\":822:862   */\n              add\n                /* \"#utility.yul\":964:970   */\n              dup2\n                /* \"#utility.yul\":952:962   */\n              dup2\n                /* \"#utility.yul\":949:971   */\n              lt\n                /* \"#utility.yul\":928:946   */\n              0xffffffffffffffff\n                /* \"#utility.yul\":916:926   */\n              dup3\n                /* \"#utility.yul\":913:947   */\n              gt\n                /* \"#utility.yul\":910:972   */\n              or\n                /* \"#utility.yul\":907:995   */\n              iszero\n              tag_139\n              jumpi\n                /* \"#utility.yul\":975:993   */\n              tag_140\n              tag_81\n              jump\t// in\n            tag_140:\n                /* \"#utility.yul\":907:995   */\n            tag_139:\n                /* \"#utility.yul\":1015:1025   */\n              dup1\n                /* \"#utility.yul\":1011:1013   */\n              0x40\n                /* \"#utility.yul\":1004:1026   */\n              mstore\n                /* \"#utility.yul\":794:1032   */\n              pop\n                /* \"#utility.yul\":751:1032   */\n              pop\n              pop\n              jump\t// out\n                /* \"#utility.yul\":1038:1167   */\n            tag_83:\n                /* \"#utility.yul\":1072:1078   */\n              0x00\n                /* \"#utility.yul\":1099:1119   */\n              tag_142\n              tag_76\n              jump\t// in\n            tag_142:\n                /* \"#utility.yul\":1089:1119   */\n              swap1\n              pop\n                /* \"#utility.yul\":1128:1161   */\n              tag_143\n                /* \"#utility.yul\":1156:1160   */\n              dup3\n                /* \"#utility.yul\":1148:1154   */\n              dup3\n                /* \"#utility.yul\":1128:1161   */\n              tag_82\n              jump\t// in\n            tag_143:\n                /* \"#utility.yul\":1038:1167   */\n              swap2\n              swap1\n              pop\n              jump\t// out\n                /* \"#utility.yul\":1173:1290   */\n            tag_84:\n                /* \"#utility.yul\":1282:1283   */\n              0x00\n                /* \"#utility.yul\":1279:1280   */\n              dup1\n                /* \"#utility.yul\":1272:1284   */\n              revert\n                /* \"#utility.yul\":1296:1422   */\n            tag_85:\n                /* \"#utility.yul\":1333:1340   */\n              0x00\n                /* \"#utility.yul\":1373:1415   */\n              0xffffffffffffffffffffffffffffffffffffffff\n                /* \"#utility.yul\":1366:1371   */\n              dup3\n                /* \"#utility.yul\":1362:1416   */\n              and\n                /* \"#utility.yul\":1351:1416   */\n              swap1\n              pop\n                /* \"#utility.yul\":1296:1422   */\n              swap2\n              swap1\n              pop\n              jump\t// out\n                /* \"#utility.yul\":1428:1524   */\n            tag_86:\n                /* \"#utility.yul\":1465:1472   */\n              0x00\n                /* \"#utility.yul\":1494:1518   */\n              tag_147\n                /* \"#utility.yul\":1512:1517   */\n              dup3\n                /* \"#utility.yul\":1494:1518   */\n              tag_85\n              jump\t// in\n            tag_147:\n                /* \"#utility.yul\":1483:1518   */\n              swap1\n              pop\n                /* \"#utility.yul\":1428:1524   */\n              swap2\n              swap1\n              pop\n              jump\t// out\n                /* \"#utility.yul\":1530:1652   */\n            tag_87:\n                /* \"#utility.yul\":1603:1627   */\n              tag_149\n                /* \"#utility.yul\":1621:1626   */\n              dup2\n                /* \"#utility.yul\":1603:1627   */\n              tag_86\n              jump\t// in\n            tag_149:\n                /* \"#utility.yul\":1596:1601   */\n              dup2\n                /* \"#utility.yul\":1593:1628   */\n              eq\n                /* \"#utility.yul\":1583:1646   */\n              tag_150\n              jumpi\n                /* \"#utility.yul\":1642:1643   */\n              0x00\n                /* \"#utility.yul\":1639:1640   */\n              dup1\n                /* \"#utility.yul\":1632:1644   */\n              revert\n                /* \"#utility.yul\":1583:1646   */\n            tag_150:\n                /* \"#utility.yul\":1530:1652   */\n              pop\n              jump\t// out\n                /* \"#utility.yul\":1658:1797   */\n            tag_88:\n                /* \"#utility.yul\":1704:1709   */\n              0x00\n                /* \"#utility.yul\":1742:1748   */\n              dup2\n                /* \"#utility.yul\":1729:1749   */\n              calldataload\n                /* \"#utility.yul\":1720:1749   */\n              swap1\n              pop\n                /* \"#utility.yul\":1758:1791   */\n              tag_152\n                /* \"#utility.yul\":1785:1790   */\n              dup2\n                /* \"#utility.yul\":1758:1791   */\n              tag_87\n              jump\t// in\n            tag_152:\n                /* \"#utility.yul\":1658:1797   */\n              swap3\n              swap2\n              pop\n              pop\n              jump\t// out\n                /* \"#utility.yul\":1803:1880   */\n            tag_89:\n                /* \"#utility.yul\":1840:1847   */\n              0x00\n                /* \"#utility.yul\":1869:1874   */\n              dup2\n                /* \"#utility.yul\":1858:1874   */\n              swap1\n              pop\n                /* \"#utility.yul\":1803:1880   */\n              swap2\n              swap1\n              pop\n              jump\t// out\n                /* \"#utility.yul\":1886:2008   */\n            tag_90:\n                /* \"#utility.yul\":1959:1983   */\n              tag_155\n                /* \"#utility.yul\":1977:1982   */\n              dup2\n                /* \"#utility.yul\":1959:1983   */\n              tag_89\n              jump\t// in\n            tag_155:\n                /* \"#utility.yul\":1952:1957   */\n              dup2\n                /* \"#utility.yul\":1949:1984   */\n              eq\n                /* \"#utility.yul\":1939:2002   */\n              tag_156\n              jumpi\n                /* \"#utility.yul\":1998:1999   */\n              0x00\n                /* \"#utility.yul\":1995:1996   */\n              dup1\n                /* \"#utility.yul\":1988:2000   */\n              revert\n                /* \"#utility.yul\":1939:2002   */\n            tag_156:\n                /* \"#utility.yul\":1886:2008   */\n              pop\n              jump\t// out\n                /* \"#utility.yul\":2014:2153   */\n            tag_91:\n                /* \"#utility.yul\":2060:2065   */\n              0x00\n                /* \"#utility.yul\":2098:2104   */\n              dup2\n                /* \"#utility.yul\":2085:2105   */\n              calldataload\n                /* \"#utility.yul\":2076:2105   */\n              swap1\n              pop\n                /* \"#utility.yul\":2114:2147   */\n              tag_158\n                /* \"#utility.yul\":2141:2146   */\n              dup2\n                /* \"#utility.yul\":2114:2147   */\n              tag_90\n              jump\t// in\n            tag_158:\n                /* \"#utility.yul\":2014:2153   */\n              swap3\n              swap2\n              pop\n              pop\n              jump\t// out\n                /* \"#utility.yul\":2159:2276   */\n            tag_92:\n                /* \"#utility.yul\":2268:2269   */\n              0x00\n                /* \"#utility.yul\":2265:2266   */\n              dup1\n                /* \"#utility.yul\":2258:2270   */\n              revert\n                /* \"#utility.yul\":2282:2399   */\n            tag_93:\n                /* \"#utility.yul\":2391:2392   */\n              0x00\n                /* \"#utility.yul\":2388:2389   */\n              dup1\n                /* \"#utility.yul\":2381:2393   */\n              revert\n                /* \"#utility.yul\":2405:2712   */\n            tag_94:\n                /* \"#utility.yul\":2466:2470   */\n              0x00\n                /* \"#utility.yul\":2556:2574   */\n              0xffffffffffffffff\n                /* \"#utility.yul\":2548:2554   */\n              dup3\n                /* \"#utility.yul\":2545:2575   */\n              gt\n                /* \"#utility.yul\":2542:2598   */\n              iszero\n              tag_162\n              jumpi\n                /* \"#utility.yul\":2578:2596   */\n              tag_163\n              tag_81\n              jump\t// in\n            tag_163:\n                /* \"#utility.yul\":2542:2598   */\n            tag_162:\n                /* \"#utility.yul\":2616:2645   */\n              tag_164\n                /* \"#utility.yul\":2638:2644   */\n              dup3\n                /* \"#utility.yul\":2616:2645   */\n              tag_80\n              jump\t// in\n            tag_164:\n                /* \"#utility.yul\":2608:2645   */\n              swap1\n              pop\n                /* \"#utility.yul\":2700:2704   */\n              0x20\n                /* \"#utility.yul\":2694:2698   */\n              dup2\n                /* \"#utility.yul\":2690:2705   */\n              add\n                /* \"#utility.yul\":2682:2705   */\n              swap1\n              pop\n                /* \"#utility.yul\":2405:2712   */\n              swap2\n              swap1\n              pop\n              jump\t// out\n                /* \"#utility.yul\":2718:2864   */\n            tag_95:\n                /* \"#utility.yul\":2815:2821   */\n              dup3\n                /* \"#utility.yul\":2810:2813   */\n              dup2\n                /* \"#utility.yul\":2805:2808   */\n              dup4\n                /* \"#utility.yul\":2792:2822   */\n              calldatacopy\n                /* \"#utility.yul\":2856:2857   */\n              0x00\n                /* \"#utility.yul\":2847:2853   */\n              dup4\n                /* \"#utility.yul\":2842:2845   */\n              dup4\n                /* \"#utility.yul\":2838:2854   */\n              add\n                /* \"#utility.yul\":2831:2858   */\n              mstore\n                /* \"#utility.yul\":2718:2864   */\n              pop\n              pop\n              pop\n              jump\t// out\n                /* \"#utility.yul\":2870:3293   */\n            tag_96:\n                /* \"#utility.yul\":2947:2952   */\n              0x00\n                /* \"#utility.yul\":2972:3037   */\n              tag_167\n                /* \"#utility.yul\":2988:3036   */\n              tag_168\n                /* \"#utility.yul\":3029:3035   */\n              dup5\n                /* \"#utility.yul\":2988:3036   */\n              tag_94\n              jump\t// in\n            tag_168:\n                /* \"#utility.yul\":2972:3037   */\n              tag_83\n              jump\t// in\n            tag_167:\n                /* \"#utility.yul\":2963:3037   */\n              swap1\n              pop\n                /* \"#utility.yul\":3060:3066   */\n              dup3\n                /* \"#utility.yul\":3053:3058   */\n              dup2\n                /* \"#utility.yul\":3046:3067   */\n              mstore\n                /* \"#utility.yul\":3098:3102   */\n              0x20\n                /* \"#utility.yul\":3091:3096   */\n              dup2\n                /* \"#utility.yul\":3087:3103   */\n              add\n                /* \"#utility.yul\":3136:3139   */\n              dup5\n                /* \"#utility.yul\":3127:3133   */\n              dup5\n                /* \"#utility.yul\":3122:3125   */\n              dup5\n                /* \"#utility.yul\":3118:3134   */\n              add\n                /* \"#utility.yul\":3115:3140   */\n              gt\n                /* \"#utility.yul\":3112:3224   */\n              iszero\n              tag_169\n              jumpi\n                /* \"#utility.yul\":3143:3222   */\n              tag_170\n              tag_93\n              jump\t// in\n            tag_170:\n                /* \"#utility.yul\":3112:3224   */\n            tag_169:\n                /* \"#utility.yul\":3233:3287   */\n              tag_171\n                /* \"#utility.yul\":3280:3286   */\n              dup5\n                /* \"#utility.yul\":3275:3278   */\n              dup3\n                /* \"#utility.yul\":3270:3273   */\n              dup6\n                /* \"#utility.yul\":3233:3287   */\n              tag_95\n              jump\t// in\n            tag_171:\n                /* \"#utility.yul\":2953:3293   */\n              pop\n                /* \"#utility.yul\":2870:3293   */\n              swap4\n              swap3\n              pop\n              pop\n              pop\n              jump\t// out\n                /* \"#utility.yul\":3312:3650   */\n            tag_97:\n                /* \"#utility.yul\":3367:3372   */\n              0x00\n                /* \"#utility.yul\":3416:3419   */\n              dup3\n                /* \"#utility.yul\":3409:3413   */\n              0x1f\n                /* \"#utility.yul\":3401:3407   */\n              dup4\n                /* \"#utility.yul\":3397:3414   */\n              add\n                /* \"#utility.yul\":3393:3420   */\n              slt\n                /* \"#utility.yul\":3383:3505   */\n              tag_173\n              jumpi\n                /* \"#utility.yul\":3424:3503   */\n              tag_174\n              tag_92\n              jump\t// in\n            tag_174:\n                /* \"#utility.yul\":3383:3505   */\n            tag_173:\n                /* \"#utility.yul\":3541:3547   */\n              dup2\n                /* \"#utility.yul\":3528:3548   */\n              calldataload\n                /* \"#utility.yul\":3566:3644   */\n              tag_175\n                /* \"#utility.yul\":3640:3643   */\n              dup5\n                /* \"#utility.yul\":3632:3638   */\n              dup3\n                /* \"#utility.yul\":3625:3629   */\n              0x20\n                /* \"#utility.yul\":3617:3623   */\n              dup7\n                /* \"#utility.yul\":3613:3630   */\n              add\n                /* \"#utility.yul\":3566:3644   */\n              tag_96\n              jump\t// in\n            tag_175:\n                /* \"#utility.yul\":3557:3644   */\n              swap2\n              pop\n                /* \"#utility.yul\":3373:3650   */\n              pop\n                /* \"#utility.yul\":3312:3650   */\n              swap3\n              swap2\n              pop\n              pop\n              jump\t// out\n                /* \"#utility.yul\":3656:3733   */\n            tag_98:\n                /* \"#utility.yul\":3693:3700   */\n              0x00\n                /* \"#utility.yul\":3722:3727   */\n              dup2\n                /* \"#utility.yul\":3711:3727   */\n              swap1\n              pop\n                /* \"#utility.yul\":3656:3733   */\n              swap2\n              swap1\n              pop\n              jump\t// out\n                /* \"#utility.yul\":3739:3861   */\n            tag_99:\n                /* \"#utility.yul\":3812:3836   */\n              tag_178\n                /* \"#utility.yul\":3830:3835   */\n              dup2\n                /* \"#utility.yul\":3812:3836   */\n              tag_98\n              jump\t// in\n            tag_178:\n                /* \"#utility.yul\":3805:3810   */\n              dup2\n                /* \"#utility.yul\":3802:3837   */\n              eq\n                /* \"#utility.yul\":3792:3855   */\n              tag_179\n              jumpi\n                /* \"#utility.yul\":3851:3852   */\n              0x00\n                /* \"#utility.yul\":3848:3849   */\n              dup1\n                /* \"#utility.yul\":3841:3853   */\n              revert\n                /* \"#utility.yul\":3792:3855   */\n            tag_179:\n                /* \"#utility.yul\":3739:3861   */\n              pop\n              jump\t// out\n                /* \"#utility.yul\":3867:4006   */\n            tag_100:\n                /* \"#utility.yul\":3913:3918   */\n              0x00\n                /* \"#utility.yul\":3951:3957   */\n              dup2\n                /* \"#utility.yul\":3938:3958   */\n              calldataload\n                /* \"#utility.yul\":3929:3958   */\n              swap1\n              pop\n                /* \"#utility.yul\":3967:4000   */\n              tag_181\n                /* \"#utility.yul\":3994:3999   */\n              dup2\n                /* \"#utility.yul\":3967:4000   */\n              tag_99\n              jump\t// in\n            tag_181:\n                /* \"#utility.yul\":3867:4006   */\n              swap3\n              swap2\n              pop\n              pop\n              jump\t// out\n                /* \"#utility.yul\":4048:5631   */\n            tag_101:\n                /* \"#utility.yul\":4124:4129   */\n              0x00\n                /* \"#utility.yul\":4168:4172   */\n              0xe0\n                /* \"#utility.yul\":4156:4165   */\n              dup3\n                /* \"#utility.yul\":4151:4154   */\n              dup5\n                /* \"#utility.yul\":4147:4166   */\n              sub\n                /* \"#utility.yul\":4143:4173   */\n              slt\n                /* \"#utility.yul\":4140:4257   */\n              iszero\n              tag_183\n              jumpi\n                /* \"#utility.yul\":4176:4255   */\n              tag_184\n              tag_79\n              jump\t// in\n            tag_184:\n                /* \"#utility.yul\":4140:4257   */\n            tag_183:\n                /* \"#utility.yul\":4275:4296   */\n              tag_185\n                /* \"#utility.yul\":4291:4295   */\n              0xe0\n                /* \"#utility.yul\":4275:4296   */\n              tag_83\n              jump\t// in\n            tag_185:\n                /* \"#utility.yul\":4266:4296   */\n              swap1\n              pop\n                /* \"#utility.yul\":4357:4358   */\n              0x00\n                /* \"#utility.yul\":4397:4446   */\n              tag_186\n                /* \"#utility.yul\":4442:4445   */\n              dup5\n                /* \"#utility.yul\":4433:4439   */\n              dup3\n                /* \"#utility.yul\":4422:4431   */\n              dup6\n                /* \"#utility.yul\":4418:4440   */\n              add\n                /* \"#utility.yul\":4397:4446   */\n              tag_88\n              jump\t// in\n            tag_186:\n                /* \"#utility.yul\":4390:4394   */\n              0x00\n                /* \"#utility.yul\":4383:4388   */\n              dup4\n                /* \"#utility.yul\":4379:4395   */\n              add\n                /* \"#utility.yul\":4372:4447   */\n              mstore\n                /* \"#utility.yul\":4306:4458   */\n              pop\n                /* \"#utility.yul\":4523:4525   */\n              0x20\n                /* \"#utility.yul\":4564:4613   */\n              tag_187\n                /* \"#utility.yul\":4609:4612   */\n              dup5\n                /* \"#utility.yul\":4600:4606   */\n              dup3\n                /* \"#utility.yul\":4589:4598   */\n              dup6\n                /* \"#utility.yul\":4585:4607   */\n              add\n                /* \"#utility.yul\":4564:4613   */\n              tag_88\n              jump\t// in\n            tag_187:\n                /* \"#utility.yul\":4557:4561   */\n              0x20\n                /* \"#utility.yul\":4550:4555   */\n              dup4\n                /* \"#utility.yul\":4546:4562   */\n              add\n                /* \"#utility.yul\":4539:4614   */\n              mstore\n                /* \"#utility.yul\":4468:4625   */\n              pop\n                /* \"#utility.yul\":4687:4689   */\n              0x40\n                /* \"#utility.yul\":4728:4777   */\n              tag_188\n                /* \"#utility.yul\":4773:4776   */\n              dup5\n                /* \"#utility.yul\":4764:4770   */\n              dup3\n                /* \"#utility.yul\":4753:4762   */\n              dup6\n                /* \"#utility.yul\":4749:4771   */\n              add\n                /* \"#utility.yul\":4728:4777   */\n              tag_91\n              jump\t// in\n            tag_188:\n                /* \"#utility.yul\":4721:4725   */\n              0x40\n                /* \"#utility.yul\":4714:4719   */\n              dup4\n                /* \"#utility.yul\":4710:4726   */\n              add\n                /* \"#utility.yul\":4703:4778   */\n              mstore\n                /* \"#utility.yul\":4635:4789   */\n              pop\n                /* \"#utility.yul\":4849:4851   */\n              0x60\n                /* \"#utility.yul\":4890:4939   */\n              tag_189\n                /* \"#utility.yul\":4935:4938   */\n              dup5\n                /* \"#utility.yul\":4926:4932   */\n              dup3\n                /* \"#utility.yul\":4915:4924   */\n              dup6\n                /* \"#utility.yul\":4911:4933   */\n              add\n                /* \"#utility.yul\":4890:4939   */\n              tag_91\n              jump\t// in\n            tag_189:\n                /* \"#utility.yul\":4883:4887   */\n              0x60\n                /* \"#utility.yul\":4876:4881   */\n              dup4\n                /* \"#utility.yul\":4872:4888   */\n              add\n                /* \"#utility.yul\":4865:4940   */\n              mstore\n                /* \"#utility.yul\":4799:4951   */\n              pop\n                /* \"#utility.yul\":5043:5046   */\n              0x80\n                /* \"#utility.yul\":5032:5041   */\n              dup3\n                /* \"#utility.yul\":5028:5047   */\n              add\n                /* \"#utility.yul\":5015:5048   */\n              calldataload\n                /* \"#utility.yul\":5075:5093   */\n              0xffffffffffffffff\n                /* \"#utility.yul\":5067:5073   */\n              dup2\n                /* \"#utility.yul\":5064:5094   */\n              gt\n                /* \"#utility.yul\":5061:5178   */\n              iszero\n              tag_190\n              jumpi\n                /* \"#utility.yul\":5097:5176   */\n              tag_191\n              tag_84\n              jump\t// in\n            tag_191:\n                /* \"#utility.yul\":5061:5178   */\n            tag_190:\n                /* \"#utility.yul\":5217:5275   */\n              tag_192\n                /* \"#utility.yul\":5271:5274   */\n              dup5\n                /* \"#utility.yul\":5262:5268   */\n              dup3\n                /* \"#utility.yul\":5251:5260   */\n              dup6\n                /* \"#utility.yul\":5247:5269   */\n              add\n                /* \"#utility.yul\":5217:5275   */\n              tag_97\n              jump\t// in\n            tag_192:\n                /* \"#utility.yul\":5210:5214   */\n              0x80\n                /* \"#utility.yul\":5203:5208   */\n              dup4\n                /* \"#utility.yul\":5199:5215   */\n              add\n                /* \"#utility.yul\":5192:5276   */\n              mstore\n                /* \"#utility.yul\":4961:5287   */\n              pop\n                /* \"#utility.yul\":5356:5359   */\n              0xa0\n                /* \"#utility.yul\":5398:5447   */\n              tag_193\n                /* \"#utility.yul\":5443:5446   */\n              dup5\n                /* \"#utility.yul\":5434:5440   */\n              dup3\n                /* \"#utility.yul\":5423:5432   */\n              dup6\n                /* \"#utility.yul\":5419:5441   */\n              add\n                /* \"#utility.yul\":5398:5447   */\n              tag_91\n              jump\t// in\n            tag_193:\n                /* \"#utility.yul\":5391:5395   */\n              0xa0\n                /* \"#utility.yul\":5384:5389   */\n              dup4\n                /* \"#utility.yul\":5380:5396   */\n              add\n                /* \"#utility.yul\":5373:5448   */\n              mstore\n                /* \"#utility.yul\":5297:5459   */\n              pop\n                /* \"#utility.yul\":5521:5524   */\n              0xc0\n                /* \"#utility.yul\":5563:5612   */\n              tag_194\n                /* \"#utility.yul\":5608:5611   */\n              dup5\n                /* \"#utility.yul\":5599:5605   */\n              dup3\n                /* \"#utility.yul\":5588:5597   */\n              dup6\n                /* \"#utility.yul\":5584:5606   */\n              add\n                /* \"#utility.yul\":5563:5612   */\n              tag_100\n              jump\t// in\n            tag_194:\n                /* \"#utility.yul\":5556:5560   */\n              0xc0\n                /* \"#utility.yul\":5549:5554   */\n              dup4\n                /* \"#utility.yul\":5545:5561   */\n              add\n                /* \"#utility.yul\":5538:5613   */\n              mstore\n                /* \"#utility.yul\":5469:5624   */\n              pop\n                /* \"#utility.yul\":4048:5631   */\n              swap3\n              swap2\n              pop\n              pop\n              jump\t// out\n                /* \"#utility.yul\":5637:6470   */\n            tag_8:\n                /* \"#utility.yul\":5741:5747   */\n              0x00\n                /* \"#utility.yul\":5749:5755   */\n              dup1\n                /* \"#utility.yul\":5757:5763   */\n              0x00\n                /* \"#utility.yul\":5806:5808   */\n              0x60\n                /* \"#utility.yul\":5794:5803   */\n              dup5\n                /* \"#utility.yul\":5785:5792   */\n              dup7\n                /* \"#utility.yul\":5781:5804   */\n              sub\n                /* \"#utility.yul\":5777:5809   */\n              slt\n                /* \"#utility.yul\":5774:5893   */\n              iszero\n              tag_196\n              jumpi\n                /* \"#utility.yul\":5812:5891   */\n              tag_197\n              tag_77\n              jump\t// in\n            tag_197:\n                /* \"#utility.yul\":5774:5893   */\n            tag_196:\n                /* \"#utility.yul\":5960:5961   */\n              0x00\n                /* \"#utility.yul\":5949:5958   */\n              dup5\n                /* \"#utility.yul\":5945:5962   */\n              add\n                /* \"#utility.yul\":5932:5963   */\n              calldataload\n                /* \"#utility.yul\":5990:6008   */\n              0xffffffffffffffff\n                /* \"#utility.yul\":5982:5988   */\n              dup2\n                /* \"#utility.yul\":5979:6009   */\n              gt\n                /* \"#utility.yul\":5976:6093   */\n              iszero\n              tag_198\n              jumpi\n                /* \"#utility.yul\":6012:6091   */\n              tag_199\n              tag_78\n              jump\t// in\n            tag_199:\n                /* \"#utility.yul\":5976:6093   */\n            tag_198:\n                /* \"#utility.yul\":6117:6197   */\n              tag_200\n                /* \"#utility.yul\":6189:6196   */\n              dup7\n                /* \"#utility.yul\":6180:6186   */\n              dup3\n                /* \"#utility.yul\":6169:6178   */\n              dup8\n                /* \"#utility.yul\":6165:6187   */\n              add\n                /* \"#utility.yul\":6117:6197   */\n              tag_101\n              jump\t// in\n            tag_200:\n                /* \"#utility.yul\":6107:6197   */\n              swap4\n              pop\n                /* \"#utility.yul\":5903:6207   */\n              pop\n                /* \"#utility.yul\":6246:6248   */\n              0x20\n                /* \"#utility.yul\":6272:6325   */\n              tag_201\n                /* \"#utility.yul\":6317:6324   */\n              dup7\n                /* \"#utility.yul\":6308:6314   */\n              dup3\n                /* \"#utility.yul\":6297:6306   */\n              dup8\n                /* \"#utility.yul\":6293:6315   */\n              add\n                /* \"#utility.yul\":6272:6325   */\n              tag_91\n              jump\t// in\n            tag_201:\n                /* \"#utility.yul\":6262:6325   */\n              swap3\n              pop\n                /* \"#utility.yul\":6217:6335   */\n              pop\n                /* \"#utility.yul\":6374:6376   */\n              0x40\n                /* \"#utility.yul\":6400:6453   */\n              tag_202\n                /* \"#utility.yul\":6445:6452   */\n              dup7\n                /* \"#utility.yul\":6436:6442   */\n              dup3\n                /* \"#utility.yul\":6425:6434   */\n              dup8\n                /* \"#utility.yul\":6421:6443   */\n              add\n                /* \"#utility.yul\":6400:6453   */\n              tag_88\n              jump\t// in\n            tag_202:\n                /* \"#utility.yul\":6390:6453   */\n              swap2\n              pop\n                /* \"#utility.yul\":6345:6463   */\n              pop\n                /* \"#utility.yul\":5637:6470   */\n              swap3\n              pop\n              swap3\n              pop\n              swap3\n              jump\t// out\n                /* \"#utility.yul\":6476:6805   */\n            tag_13:\n                /* \"#utility.yul\":6535:6541   */\n              0x00\n                /* \"#utility.yul\":6584:6586   */\n              0x20\n                /* \"#utility.yul\":6572:6581   */\n              dup3\n                /* \"#utility.yul\":6563:6570   */\n              dup5\n                /* \"#utility.yul\":6559:6582   */\n              sub\n                /* \"#utility.yul\":6555:6587   */\n              slt\n                /* \"#utility.yul\":6552:6671   */\n              iszero\n              tag_204\n              jumpi\n                /* \"#utility.yul\":6590:6669   */\n              tag_205\n              tag_77\n              jump\t// in\n            tag_205:\n                /* \"#utility.yul\":6552:6671   */\n            tag_204:\n                /* \"#utility.yul\":6710:6711   */\n              0x00\n                /* \"#utility.yul\":6735:6788   */\n              tag_206\n                /* \"#utility.yul\":6780:6787   */\n              dup5\n                /* \"#utility.yul\":6771:6777   */\n              dup3\n                /* \"#utility.yul\":6760:6769   */\n              dup6\n                /* \"#utility.yul\":6756:6778   */\n              add\n                /* \"#utility.yul\":6735:6788   */\n              tag_100\n              jump\t// in\n            tag_206:\n                /* \"#utility.yul\":6725:6788   */\n              swap2\n              pop\n                /* \"#utility.yul\":6681:6798   */\n              pop\n                /* \"#utility.yul\":6476:6805   */\n              swap3\n              swap2\n              pop\n              pop\n              jump\t// out\n                /* \"#utility.yul\":6811:6901   */\n            tag_102:\n                /* \"#utility.yul\":6845:6852   */\n              0x00\n                /* \"#utility.yul\":6888:6893   */\n              dup2\n                /* \"#utility.yul\":6881:6894   */\n              iszero\n                /* \"#utility.yul\":6874:6895   */\n              iszero\n                /* \"#utility.yul\":6863:6895   */\n              swap1\n              pop\n                /* \"#utility.yul\":6811:6901   */\n              swap2\n              swap1\n              pop\n              jump\t// out\n                /* \"#utility.yul\":6907:7016   */\n            tag_103:\n                /* \"#utility.yul\":6988:7009   */\n              tag_209\n                /* \"#utility.yul\":7003:7008   */\n              dup2\n                /* \"#utility.yul\":6988:7009   */\n              tag_102\n              jump\t// in\n            tag_209:\n                /* \"#utility.yul\":6983:6986   */\n              dup3\n                /* \"#utility.yul\":6976:7010   */\n              mstore\n                /* \"#utility.yul\":6907:7016   */\n              pop\n              pop\n              jump\t// out\n                /* \"#utility.yul\":7022:7232   */\n            tag_16:\n                /* \"#utility.yul\":7109:7113   */\n              0x00\n                /* \"#utility.yul\":7147:7149   */\n              0x20\n                /* \"#utility.yul\":7136:7145   */\n              dup3\n                /* \"#utility.yul\":7132:7150   */\n              add\n                /* \"#utility.yul\":7124:7150   */\n              swap1\n              pop\n                /* \"#utility.yul\":7160:7225   */\n              tag_211\n                /* \"#utility.yul\":7222:7223   */\n              0x00\n                /* \"#utility.yul\":7211:7220   */\n              dup4\n                /* \"#utility.yul\":7207:7224   */\n              add\n                /* \"#utility.yul\":7198:7204   */\n              dup5\n                /* \"#utility.yul\":7160:7225   */\n              tag_103\n              jump\t// in\n            tag_211:\n                /* \"#utility.yul\":7022:7232   */\n              swap3\n              swap2\n              pop\n              pop\n              jump\t// out\n                /* \"#utility.yul\":7238:7781   */\n            tag_20:\n                /* \"#utility.yul\":7324:7330   */\n              0x00\n                /* \"#utility.yul\":7373:7375   */\n              0x20\n                /* \"#utility.yul\":7361:7370   */\n              dup3\n                /* \"#utility.yul\":7352:7359   */\n              dup5\n                /* \"#utility.yul\":7348:7371   */\n              sub\n                /* \"#utility.yul\":7344:7376   */\n              slt\n                /* \"#utility.yul\":7341:7460   */\n              iszero\n              tag_213\n              jumpi\n                /* \"#utility.yul\":7379:7458   */\n              tag_214\n              tag_77\n              jump\t// in\n            tag_214:\n                /* \"#utility.yul\":7341:7460   */\n            tag_213:\n                /* \"#utility.yul\":7527:7528   */\n              0x00\n                /* \"#utility.yul\":7516:7525   */\n              dup3\n                /* \"#utility.yul\":7512:7529   */\n              add\n                /* \"#utility.yul\":7499:7530   */\n              calldataload\n                /* \"#utility.yul\":7557:7575   */\n              0xffffffffffffffff\n                /* \"#utility.yul\":7549:7555   */\n              dup2\n                /* \"#utility.yul\":7546:7576   */\n              gt\n                /* \"#utility.yul\":7543:7660   */\n              iszero\n              tag_215\n              jumpi\n                /* \"#utility.yul\":7579:7658   */\n              tag_216\n              tag_78\n              jump\t// in\n            tag_216:\n                /* \"#utility.yul\":7543:7660   */\n            tag_215:\n                /* \"#utility.yul\":7684:7764   */\n              tag_217\n                /* \"#utility.yul\":7756:7763   */\n              dup5\n                /* \"#utility.yul\":7747:7753   */\n              dup3\n                /* \"#utility.yul\":7736:7745   */\n              dup6\n                /* \"#utility.yul\":7732:7754   */\n              add\n                /* \"#utility.yul\":7684:7764   */\n              tag_101\n              jump\t// in\n            tag_217:\n                /* \"#utility.yul\":7674:7764   */\n              swap2\n              pop\n                /* \"#utility.yul\":7470:7774   */\n              pop\n                /* \"#utility.yul\":7238:7781   */\n              swap3\n              swap2\n              pop\n              pop\n              jump\t// out\n                /* \"#utility.yul\":7787:7881   */\n            tag_104:\n                /* \"#utility.yul\":7820:7828   */\n              0x00\n                /* \"#utility.yul\":7868:7873   */\n              dup2\n                /* \"#utility.yul\":7864:7866   */\n              0x60\n                /* \"#utility.yul\":7860:7874   */\n              shl\n                /* \"#utility.yul\":7839:7874   */\n              swap1\n              pop\n                /* \"#utility.yul\":7787:7881   */\n              swap2\n              swap1\n              pop\n              jump\t// out\n                /* \"#utility.yul\":7887:7981   */\n            tag_105:\n                /* \"#utility.yul\":7926:7933   */\n              0x00\n                /* \"#utility.yul\":7955:7975   */\n              tag_220\n                /* \"#utility.yul\":7969:7974   */\n              dup3\n                /* \"#utility.yul\":7955:7975   */\n              tag_104\n              jump\t// in\n            tag_220:\n                /* \"#utility.yul\":7944:7975   */\n              swap1\n              pop\n                /* \"#utility.yul\":7887:7981   */\n              swap2\n              swap1\n              pop\n              jump\t// out\n                /* \"#utility.yul\":7987:8087   */\n            tag_106:\n                /* \"#utility.yul\":8026:8033   */\n              0x00\n                /* \"#utility.yul\":8055:8081   */\n              tag_222\n                /* \"#utility.yul\":8075:8080   */\n              dup3\n                /* \"#utility.yul\":8055:8081   */\n              tag_105\n              jump\t// in\n            tag_222:\n                /* \"#utility.yul\":8044:8081   */\n              swap1\n              pop\n                /* \"#utility.yul\":7987:8087   */\n              swap2\n              swap1\n              pop\n              jump\t// out\n                /* \"#utility.yul\":8093:8250   */\n            tag_107:\n                /* \"#utility.yul\":8198:8243   */\n              tag_224\n                /* \"#utility.yul\":8218:8242   */\n              tag_225\n                /* \"#utility.yul\":8236:8241   */\n              dup3\n                /* \"#utility.yul\":8218:8242   */\n              tag_86\n              jump\t// in\n            tag_225:\n                /* \"#utility.yul\":8198:8243   */\n              tag_106\n              jump\t// in\n            tag_224:\n                /* \"#utility.yul\":8193:8196   */\n              dup3\n                /* \"#utility.yul\":8186:8244   */\n              mstore\n                /* \"#utility.yul\":8093:8250   */\n              pop\n              pop\n              jump\t// out\n                /* \"#utility.yul\":8256:8335   */\n            tag_108:\n                /* \"#utility.yul\":8295:8302   */\n              0x00\n                /* \"#utility.yul\":8324:8329   */\n              dup2\n                /* \"#utility.yul\":8313:8329   */\n              swap1\n              pop\n                /* \"#utility.yul\":8256:8335   */\n              swap2\n              swap1\n              pop\n              jump\t// out\n                /* \"#utility.yul\":8341:8498   */\n            tag_109:\n                /* \"#utility.yul\":8446:8491   */\n              tag_228\n                /* \"#utility.yul\":8466:8490   */\n              tag_229\n                /* \"#utility.yul\":8484:8489   */\n              dup3\n                /* \"#utility.yul\":8466:8490   */\n              tag_89\n              jump\t// in\n            tag_229:\n                /* \"#utility.yul\":8446:8491   */\n              tag_108\n              jump\t// in\n            tag_228:\n                /* \"#utility.yul\":8441:8444   */\n              dup3\n                /* \"#utility.yul\":8434:8492   */\n              mstore\n                /* \"#utility.yul\":8341:8498   */\n              pop\n              pop\n              jump\t// out\n                /* \"#utility.yul\":8504:8602   */\n            tag_110:\n                /* \"#utility.yul\":8555:8561   */\n              0x00\n                /* \"#utility.yul\":8589:8594   */\n              dup2\n                /* \"#utility.yul\":8583:8595   */\n              mload\n                /* \"#utility.yul\":8573:8595   */\n              swap1\n              pop\n                /* \"#utility.yul\":8504:8602   */\n              swap2\n              swap1\n              pop\n              jump\t// out\n                /* \"#utility.yul\":8608:8755   */\n            tag_111:\n                /* \"#utility.yul\":8709:8720   */\n              0x00\n                /* \"#utility.yul\":8746:8749   */\n              dup2\n                /* \"#utility.yul\":8731:8749   */\n              swap1\n              pop\n                /* \"#utility.yul\":8608:8755   */\n              swap3\n              swap2\n              pop\n              pop\n              jump\t// out\n                /* \"#utility.yul\":8761:9007   */\n            tag_112:\n                /* \"#utility.yul\":8842:8843   */\n              0x00\n                /* \"#utility.yul\":8852:8965   */\n            tag_233:\n                /* \"#utility.yul\":8866:8872   */\n              dup4\n                /* \"#utility.yul\":8863:8864   */\n              dup2\n                /* \"#utility.yul\":8860:8873   */\n              lt\n                /* \"#utility.yul\":8852:8965   */\n              iszero\n              tag_235\n              jumpi\n                /* \"#utility.yul\":8951:8952   */\n              dup1\n                /* \"#utility.yul\":8946:8949   */\n              dup3\n                /* \"#utility.yul\":8942:8953   */\n              add\n                /* \"#utility.yul\":8936:8954   */\n              mload\n                /* \"#utility.yul\":8932:8933   */\n              dup2\n                /* \"#utility.yul\":8927:8930   */\n              dup5\n                /* \"#utility.yul\":8923:8934   */\n              add\n                /* \"#utility.yul\":8916:8955   */\n              mstore\n                /* \"#utility.yul\":8888:8890   */\n              0x20\n                /* \"#utility.yul\":8885:8886   */\n              dup2\n                /* \"#utility.yul\":8881:8891   */\n              add\n                /* \"#utility.yul\":8876:8891   */\n              swap1\n              pop\n                /* \"#utility.yul\":8852:8965   */\n              jump(tag_233)\n            tag_235:\n                /* \"#utility.yul\":8999:9000   */\n              0x00\n                /* \"#utility.yul\":8990:8996   */\n              dup5\n                /* \"#utility.yul\":8985:8988   */\n              dup5\n                /* \"#utility.yul\":8981:8997   */\n              add\n                /* \"#utility.yul\":8974:9001   */\n              mstore\n                /* \"#utility.yul\":8823:9007   */\n              pop\n                /* \"#utility.yul\":8761:9007   */\n              pop\n              pop\n              pop\n              jump\t// out\n                /* \"#utility.yul\":9013:9399   */\n            tag_113:\n                /* \"#utility.yul\":9117:9120   */\n              0x00\n                /* \"#utility.yul\":9145:9183   */\n              tag_237\n                /* \"#utility.yul\":9177:9182   */\n              dup3\n                /* \"#utility.yul\":9145:9183   */\n              tag_110\n              jump\t// in\n            tag_237:\n                /* \"#utility.yul\":9199:9287   */\n              tag_238\n                /* \"#utility.yul\":9280:9286   */\n              dup2\n                /* \"#utility.yul\":9275:9278   */\n              dup6\n                /* \"#utility.yul\":9199:9287   */\n              tag_111\n              jump\t// in\n            tag_238:\n                /* \"#utility.yul\":9192:9287   */\n              swap4\n              pop\n                /* \"#utility.yul\":9296:9361   */\n              tag_239\n                /* \"#utility.yul\":9354:9360   */\n              dup2\n                /* \"#utility.yul\":9349:9352   */\n              dup6\n                /* \"#utility.yul\":9342:9346   */\n              0x20\n                /* \"#utility.yul\":9335:9340   */\n              dup7\n                /* \"#utility.yul\":9331:9347   */\n              add\n                /* \"#utility.yul\":9296:9361   */\n              tag_112\n              jump\t// in\n            tag_239:\n                /* \"#utility.yul\":9386:9392   */\n              dup1\n                /* \"#utility.yul\":9381:9384   */\n              dup5\n                /* \"#utility.yul\":9377:9393   */\n              add\n                /* \"#utility.yul\":9370:9393   */\n              swap2\n              pop\n                /* \"#utility.yul\":9121:9399   */\n              pop\n                /* \"#utility.yul\":9013:9399   */\n              swap3\n              swap2\n              pop\n              pop\n              jump\t// out\n                /* \"#utility.yul\":9405:10240   */\n            tag_29:\n                /* \"#utility.yul\":9647:9650   */\n              0x00\n                /* \"#utility.yul\":9662:9737   */\n              tag_241\n                /* \"#utility.yul\":9733:9736   */\n              dup3\n                /* \"#utility.yul\":9724:9730   */\n              dup9\n                /* \"#utility.yul\":9662:9737   */\n              tag_107\n              jump\t// in\n            tag_241:\n                /* \"#utility.yul\":9762:9764   */\n              0x14\n                /* \"#utility.yul\":9757:9760   */\n              dup3\n                /* \"#utility.yul\":9753:9765   */\n              add\n                /* \"#utility.yul\":9746:9765   */\n              swap2\n              pop\n                /* \"#utility.yul\":9775:9850   */\n              tag_242\n                /* \"#utility.yul\":9846:9849   */\n              dup3\n                /* \"#utility.yul\":9837:9843   */\n              dup8\n                /* \"#utility.yul\":9775:9850   */\n              tag_109\n              jump\t// in\n            tag_242:\n                /* \"#utility.yul\":9875:9877   */\n              0x20\n                /* \"#utility.yul\":9870:9873   */\n              dup3\n                /* \"#utility.yul\":9866:9878   */\n              add\n                /* \"#utility.yul\":9859:9878   */\n              swap2\n              pop\n                /* \"#utility.yul\":9888:9963   */\n              tag_243\n                /* \"#utility.yul\":9959:9962   */\n              dup3\n                /* \"#utility.yul\":9950:9956   */\n              dup7\n                /* \"#utility.yul\":9888:9963   */\n              tag_109\n              jump\t// in\n            tag_243:\n                /* \"#utility.yul\":9988:9990   */\n              0x20\n                /* \"#utility.yul\":9983:9986   */\n              dup3\n                /* \"#utility.yul\":9979:9991   */\n              add\n                /* \"#utility.yul\":9972:9991   */\n              swap2\n              pop\n                /* \"#utility.yul\":10001:10076   */\n              tag_244\n                /* \"#utility.yul\":10072:10075   */\n              dup3\n                /* \"#utility.yul\":10063:10069   */\n              dup6\n                /* \"#utility.yul\":10001:10076   */\n              tag_109\n              jump\t// in\n            tag_244:\n                /* \"#utility.yul\":10101:10103   */\n              0x20\n                /* \"#utility.yul\":10096:10099   */\n              dup3\n                /* \"#utility.yul\":10092:10104   */\n              add\n                /* \"#utility.yul\":10085:10104   */\n              swap2\n              pop\n                /* \"#utility.yul\":10121:10214   */\n              tag_245\n                /* \"#utility.yul\":10210:10213   */\n              dup3\n                /* \"#utility.yul\":10201:10207   */\n              dup5\n                /* \"#utility.yul\":10121:10214   */\n              tag_113\n              jump\t// in\n            tag_245:\n                /* \"#utility.yul\":10114:10214   */\n              swap2\n              pop\n                /* \"#utility.yul\":10231:10234   */\n              dup2\n                /* \"#utility.yul\":10224:10234   */\n              swap1\n              pop\n                /* \"#utility.yul\":9405:10240   */\n              swap7\n              swap6\n              pop\n              pop\n              pop\n              pop\n              pop\n              pop\n              jump\t// out\n                /* \"#utility.yul\":10246:10415   */\n            tag_114:\n                /* \"#utility.yul\":10330:10341   */\n              0x00\n                /* \"#utility.yul\":10364:10370   */\n              dup3\n                /* \"#utility.yul\":10359:10362   */\n              dup3\n                /* \"#utility.yul\":10352:10371   */\n              mstore\n                /* \"#utility.yul\":10404:10408   */\n              0x20\n                /* \"#utility.yul\":10399:10402   */\n              dup3\n                /* \"#utility.yul\":10395:10409   */\n              add\n                /* \"#utility.yul\":10380:10409   */\n              swap1\n              pop\n                /* \"#utility.yul\":10246:10415   */\n              swap3\n              swap2\n              pop\n              pop\n              jump\t// out\n                /* \"#utility.yul\":10421:10590   */\n            tag_115:\n                /* \"#utility.yul\":10561:10582   */\n              0x4f7264657220686173206265656e207573656400000000000000000000000000\n                /* \"#utility.yul\":10557:10558   */\n              0x00\n                /* \"#utility.yul\":10549:10555   */\n              dup3\n                /* \"#utility.yul\":10545:10559   */\n              add\n                /* \"#utility.yul\":10538:10583   */\n              mstore\n                /* \"#utility.yul\":10421:10590   */\n              pop\n              jump\t// out\n                /* \"#utility.yul\":10596:10962   */\n            tag_116:\n                /* \"#utility.yul\":10738:10741   */\n              0x00\n                /* \"#utility.yul\":10759:10826   */\n              tag_249\n                /* \"#utility.yul\":10823:10825   */\n              0x13\n                /* \"#utility.yul\":10818:10821   */\n              dup4\n                /* \"#utility.yul\":10759:10826   */\n              tag_114\n              jump\t// in\n            tag_249:\n                /* \"#utility.yul\":10752:10826   */\n              swap2\n              pop\n                /* \"#utility.yul\":10835:10928   */\n              tag_250\n                /* \"#utility.yul\":10924:10927   */\n              dup3\n                /* \"#utility.yul\":10835:10928   */\n              tag_115\n              jump\t// in\n            tag_250:\n                /* \"#utility.yul\":10953:10955   */\n              0x20\n                /* \"#utility.yul\":10948:10951   */\n              dup3\n                /* \"#utility.yul\":10944:10956   */\n              add\n                /* \"#utility.yul\":10937:10956   */\n              swap1\n              pop\n                /* \"#utility.yul\":10596:10962   */\n              swap2\n              swap1\n              pop\n              jump\t// out\n                /* \"#utility.yul\":10968:11387   */\n            tag_35:\n                /* \"#utility.yul\":11134:11138   */\n              0x00\n                /* \"#utility.yul\":11172:11174   */\n              0x20\n                /* \"#utility.yul\":11161:11170   */\n              dup3\n                /* \"#utility.yul\":11157:11175   */\n              add\n                /* \"#utility.yul\":11149:11175   */\n              swap1\n              pop\n                /* \"#utility.yul\":11221:11230   */\n              dup2\n                /* \"#utility.yul\":11215:11219   */\n              dup2\n                /* \"#utility.yul\":11211:11231   */\n              sub\n                /* \"#utility.yul\":11207:11208   */\n              0x00\n                /* \"#utility.yul\":11196:11205   */\n              dup4\n                /* \"#utility.yul\":11192:11209   */\n              add\n                /* \"#utility.yul\":11185:11232   */\n              mstore\n                /* \"#utility.yul\":11249:11380   */\n              tag_252\n                /* \"#utility.yul\":11375:11379   */\n              dup2\n                /* \"#utility.yul\":11249:11380   */\n              tag_116\n              jump\t// in\n            tag_252:\n                /* \"#utility.yul\":11241:11380   */\n              swap1\n              pop\n                /* \"#utility.yul\":10968:11387   */\n              swap2\n              swap1\n              pop\n              jump\t// out\n                /* \"#utility.yul\":11393:11560   */\n            tag_117:\n                /* \"#utility.yul\":11533:11552   */\n              0x496e76616c6964207369676e6174757265000000000000000000000000000000\n                /* \"#utility.yul\":11529:11530   */\n              0x00\n                /* \"#utility.yul\":11521:11527   */\n              dup3\n                /* \"#utility.yul\":11517:11531   */\n              add\n                /* \"#utility.yul\":11510:11553   */\n              mstore\n                /* \"#utility.yul\":11393:11560   */\n              pop\n              jump\t// out\n                /* \"#utility.yul\":11566:11932   */\n            tag_118:\n                /* \"#utility.yul\":11708:11711   */\n              0x00\n                /* \"#utility.yul\":11729:11796   */\n              tag_255\n                /* \"#utility.yul\":11793:11795   */\n              0x11\n                /* \"#utility.yul\":11788:11791   */\n              dup4\n                /* \"#utility.yul\":11729:11796   */\n              tag_114\n              jump\t// in\n            tag_255:\n                /* \"#utility.yul\":11722:11796   */\n              swap2\n              pop\n                /* \"#utility.yul\":11805:11898   */\n              tag_256\n                /* \"#utility.yul\":11894:11897   */\n              dup3\n                /* \"#utility.yul\":11805:11898   */\n              tag_117\n              jump\t// in\n            tag_256:\n                /* \"#utility.yul\":11923:11925   */\n              0x20\n                /* \"#utility.yul\":11918:11921   */\n              dup3\n                /* \"#utility.yul\":11914:11926   */\n              add\n                /* \"#utility.yul\":11907:11926   */\n              swap1\n              pop\n                /* \"#utility.yul\":11566:11932   */\n              swap2\n              swap1\n              pop\n              jump\t// out\n                /* \"#utility.yul\":11938:12357   */\n            tag_40:\n                /* \"#utility.yul\":12104:12108   */\n              0x00\n                /* \"#utility.yul\":12142:12144   */\n              0x20\n                /* \"#utility.yul\":12131:12140   */\n              dup3\n                /* \"#utility.yul\":12127:12145   */\n              add\n                /* \"#utility.yul\":12119:12145   */\n              swap1\n              pop\n                /* \"#utility.yul\":12191:12200   */\n              dup2\n                /* \"#utility.yul\":12185:12189   */\n              dup2\n                /* \"#utility.yul\":12181:12201   */\n              sub\n                /* \"#utility.yul\":12177:12178   */\n              0x00\n                /* \"#utility.yul\":12166:12175   */\n              dup4\n                /* \"#utility.yul\":12162:12179   */\n              add\n                /* \"#utility.yul\":12155:12202   */\n              mstore\n                /* \"#utility.yul\":12219:12350   */\n              tag_258\n                /* \"#utility.yul\":12345:12349   */\n              dup2\n                /* \"#utility.yul\":12219:12350   */\n              tag_118\n              jump\t// in\n            tag_258:\n                /* \"#utility.yul\":12211:12350   */\n              swap1\n              pop\n                /* \"#utility.yul\":11938:12357   */\n              swap2\n              swap1\n              pop\n              jump\t// out\n                /* \"#utility.yul\":12363:12481   */\n            tag_119:\n                /* \"#utility.yul\":12450:12474   */\n              tag_260\n                /* \"#utility.yul\":12468:12473   */\n              dup2\n                /* \"#utility.yul\":12450:12474   */\n              tag_86\n              jump\t// in\n            tag_260:\n                /* \"#utility.yul\":12445:12448   */\n              dup3\n                /* \"#utility.yul\":12438:12475   */\n              mstore\n                /* \"#utility.yul\":12363:12481   */\n              pop\n              pop\n              jump\t// out\n                /* \"#utility.yul\":12487:12605   */\n            tag_120:\n                /* \"#utility.yul\":12574:12598   */\n              tag_262\n                /* \"#utility.yul\":12592:12597   */\n              dup2\n                /* \"#utility.yul\":12574:12598   */\n              tag_89\n              jump\t// in\n            tag_262:\n                /* \"#utility.yul\":12569:12572   */\n              dup3\n                /* \"#utility.yul\":12562:12599   */\n              mstore\n                /* \"#utility.yul\":12487:12605   */\n              pop\n              pop\n              jump\t// out\n                /* \"#utility.yul\":12611:13053   */\n            tag_43:\n                /* \"#utility.yul\":12760:12764   */\n              0x00\n                /* \"#utility.yul\":12798:12800   */\n              0x60\n                /* \"#utility.yul\":12787:12796   */\n              dup3\n                /* \"#utility.yul\":12783:12801   */\n              add\n                /* \"#utility.yul\":12775:12801   */\n              swap1\n              pop\n                /* \"#utility.yul\":12811:12882   */\n              tag_264\n                /* \"#utility.yul\":12879:12880   */\n              0x00\n                /* \"#utility.yul\":12868:12877   */\n              dup4\n                /* \"#utility.yul\":12864:12881   */\n              add\n                /* \"#utility.yul\":12855:12861   */\n              dup7\n                /* \"#utility.yul\":12811:12882   */\n              tag_119\n              jump\t// in\n            tag_264:\n                /* \"#utility.yul\":12892:12964   */\n              tag_265\n                /* \"#utility.yul\":12960:12962   */\n              0x20\n                /* \"#utility.yul\":12949:12958   */\n              dup4\n                /* \"#utility.yul\":12945:12963   */\n              add\n                /* \"#utility.yul\":12936:12942   */\n              dup6\n                /* \"#utility.yul\":12892:12964   */\n              tag_119\n              jump\t// in\n            tag_265:\n                /* \"#utility.yul\":12974:13046   */\n              tag_266\n                /* \"#utility.yul\":13042:13044   */\n              0x40\n                /* \"#utility.yul\":13031:13040   */\n              dup4\n                /* \"#utility.yul\":13027:13045   */\n              add\n                /* \"#utility.yul\":13018:13024   */\n              dup5\n                /* \"#utility.yul\":12974:13046   */\n              tag_120\n              jump\t// in\n            tag_266:\n                /* \"#utility.yul\":12611:13053   */\n              swap5\n              swap4\n              pop\n              pop\n              pop\n              pop\n              jump\t// out\n                /* \"#utility.yul\":13059:13738   */\n            tag_63:\n                /* \"#utility.yul\":13255:13258   */\n              0x00\n                /* \"#utility.yul\":13270:13345   */\n              tag_268\n                /* \"#utility.yul\":13341:13344   */\n              dup3\n                /* \"#utility.yul\":13332:13338   */\n              dup8\n                /* \"#utility.yul\":13270:13345   */\n              tag_107\n              jump\t// in\n            tag_268:\n                /* \"#utility.yul\":13370:13372   */\n              0x14\n                /* \"#utility.yul\":13365:13368   */\n              dup3\n                /* \"#utility.yul\":13361:13373   */\n              add\n                /* \"#utility.yul\":13354:13373   */\n              swap2\n              pop\n                /* \"#utility.yul\":13383:13458   */\n              tag_269\n                /* \"#utility.yul\":13454:13457   */\n              dup3\n                /* \"#utility.yul\":13445:13451   */\n              dup7\n                /* \"#utility.yul\":13383:13458   */\n              tag_109\n              jump\t// in\n            tag_269:\n                /* \"#utility.yul\":13483:13485   */\n              0x20\n                /* \"#utility.yul\":13478:13481   */\n              dup3\n                /* \"#utility.yul\":13474:13486   */\n              add\n                /* \"#utility.yul\":13467:13486   */\n              swap2\n              pop\n                /* \"#utility.yul\":13496:13571   */\n              tag_270\n                /* \"#utility.yul\":13567:13570   */\n              dup3\n                /* \"#utility.yul\":13558:13564   */\n              dup6\n                /* \"#utility.yul\":13496:13571   */\n              tag_109\n              jump\t// in\n            tag_270:\n                /* \"#utility.yul\":13596:13598   */\n              0x20\n                /* \"#utility.yul\":13591:13594   */\n              dup3\n                /* \"#utility.yul\":13587:13599   */\n              add\n                /* \"#utility.yul\":13580:13599   */\n              swap2\n              pop\n                /* \"#utility.yul\":13609:13684   */\n              tag_271\n                /* \"#utility.yul\":13680:13683   */\n              dup3\n                /* \"#utility.yul\":13671:13677   */\n              dup5\n                /* \"#utility.yul\":13609:13684   */\n              tag_109\n              jump\t// in\n            tag_271:\n                /* \"#utility.yul\":13709:13711   */\n              0x20\n                /* \"#utility.yul\":13704:13707   */\n              dup3\n                /* \"#utility.yul\":13700:13712   */\n              add\n                /* \"#utility.yul\":13693:13712   */\n              swap2\n              pop\n                /* \"#utility.yul\":13729:13732   */\n              dup2\n                /* \"#utility.yul\":13722:13732   */\n              swap1\n              pop\n                /* \"#utility.yul\":13059:13738   */\n              swap6\n              swap5\n              pop\n              pop\n              pop\n              pop\n              pop\n              jump\t// out\n                /* \"#utility.yul\":13744:13892   */\n            tag_121:\n                /* \"#utility.yul\":13846:13857   */\n              0x00\n                /* \"#utility.yul\":13883:13886   */\n              dup2\n                /* \"#utility.yul\":13868:13886   */\n              swap1\n              pop\n                /* \"#utility.yul\":13744:13892   */\n              swap3\n              swap2\n              pop\n              pop\n              jump\t// out\n                /* \"#utility.yul\":13898:14112   */\n            tag_122:\n                /* \"#utility.yul\":14038:14104   */\n              0x19457468657265756d205369676e6564204d6573736167653a0a333200000000\n                /* \"#utility.yul\":14034:14035   */\n              0x00\n                /* \"#utility.yul\":14026:14032   */\n              dup3\n                /* \"#utility.yul\":14022:14036   */\n              add\n                /* \"#utility.yul\":14015:14105   */\n              mstore\n                /* \"#utility.yul\":13898:14112   */\n              pop\n              jump\t// out\n                /* \"#utility.yul\":14118:14520   */\n            tag_123:\n                /* \"#utility.yul\":14278:14281   */\n              0x00\n                /* \"#utility.yul\":14299:14384   */\n              tag_275\n                /* \"#utility.yul\":14381:14383   */\n              0x1c\n                /* \"#utility.yul\":14376:14379   */\n              dup4\n                /* \"#utility.yul\":14299:14384   */\n              tag_121\n              jump\t// in\n            tag_275:\n                /* \"#utility.yul\":14292:14384   */\n              swap2\n              pop\n                /* \"#utility.yul\":14393:14486   */\n              tag_276\n                /* \"#utility.yul\":14482:14485   */\n              dup3\n                /* \"#utility.yul\":14393:14486   */\n              tag_122\n              jump\t// in\n            tag_276:\n                /* \"#utility.yul\":14511:14513   */\n              0x1c\n                /* \"#utility.yul\":14506:14509   */\n              dup3\n                /* \"#utility.yul\":14502:14514   */\n              add\n                /* \"#utility.yul\":14495:14514   */\n              swap1\n              pop\n                /* \"#utility.yul\":14118:14520   */\n              swap2\n              swap1\n              pop\n              jump\t// out\n                /* \"#utility.yul\":14526:14605   */\n            tag_124:\n                /* \"#utility.yul\":14565:14572   */\n              0x00\n                /* \"#utility.yul\":14594:14599   */\n              dup2\n                /* \"#utility.yul\":14583:14599   */\n              swap1\n              pop\n                /* \"#utility.yul\":14526:14605   */\n              swap2\n              swap1\n              pop\n              jump\t// out\n                /* \"#utility.yul\":14611:14768   */\n            tag_125:\n                /* \"#utility.yul\":14716:14761   */\n              tag_279\n                /* \"#utility.yul\":14736:14760   */\n              tag_280\n                /* \"#utility.yul\":14754:14759   */\n              dup3\n                /* \"#utility.yul\":14736:14760   */\n              tag_98\n              jump\t// in\n            tag_280:\n                /* \"#utility.yul\":14716:14761   */\n              tag_124\n              jump\t// in\n            tag_279:\n                /* \"#utility.yul\":14711:14714   */\n              dup3\n                /* \"#utility.yul\":14704:14762   */\n              mstore\n                /* \"#utility.yul\":14611:14768   */\n              pop\n              pop\n              jump\t// out\n                /* \"#utility.yul\":14774:15296   */\n            tag_65:\n                /* \"#utility.yul\":14987:14990   */\n              0x00\n                /* \"#utility.yul\":15009:15157   */\n              tag_282\n                /* \"#utility.yul\":15153:15156   */\n              dup3\n                /* \"#utility.yul\":15009:15157   */\n              tag_123\n              jump\t// in\n            tag_282:\n                /* \"#utility.yul\":15002:15157   */\n              swap2\n              pop\n                /* \"#utility.yul\":15167:15242   */\n              tag_283\n                /* \"#utility.yul\":15238:15241   */\n              dup3\n                /* \"#utility.yul\":15229:15235   */\n              dup5\n                /* \"#utility.yul\":15167:15242   */\n              tag_125\n              jump\t// in\n            tag_283:\n                /* \"#utility.yul\":15267:15269   */\n              0x20\n                /* \"#utility.yul\":15262:15265   */\n              dup3\n                /* \"#utility.yul\":15258:15270   */\n              add\n                /* \"#utility.yul\":15251:15270   */\n              swap2\n              pop\n                /* \"#utility.yul\":15287:15290   */\n              dup2\n                /* \"#utility.yul\":15280:15290   */\n              swap1\n              pop\n                /* \"#utility.yul\":14774:15296   */\n              swap3\n              swap2\n              pop\n              pop\n              jump\t// out\n                /* \"#utility.yul\":15302:15388   */\n            tag_126:\n                /* \"#utility.yul\":15337:15344   */\n              0x00\n                /* \"#utility.yul\":15377:15381   */\n              0xff\n                /* \"#utility.yul\":15370:15375   */\n              dup3\n                /* \"#utility.yul\":15366:15382   */\n              and\n                /* \"#utility.yul\":15355:15382   */\n              swap1\n              pop\n                /* \"#utility.yul\":15302:15388   */\n              swap2\n              swap1\n              pop\n              jump\t// out\n                /* \"#utility.yul\":15394:15574   */\n            tag_127:\n                /* \"#utility.yul\":15442:15519   */\n              0x4e487b7100000000000000000000000000000000000000000000000000000000\n                /* \"#utility.yul\":15439:15440   */\n              0x00\n                /* \"#utility.yul\":15432:15520   */\n              mstore\n                /* \"#utility.yul\":15539:15543   */\n              0x11\n                /* \"#utility.yul\":15536:15537   */\n              0x04\n                /* \"#utility.yul\":15529:15544   */\n              mstore\n                /* \"#utility.yul\":15563:15567   */\n              0x24\n                /* \"#utility.yul\":15560:15561   */\n              0x00\n                /* \"#utility.yul\":15553:15568   */\n              revert\n                /* \"#utility.yul\":15580:15768   */\n            tag_71:\n                /* \"#utility.yul\":15618:15621   */\n              0x00\n                /* \"#utility.yul\":15637:15655   */\n              tag_287\n                /* \"#utility.yul\":15653:15654   */\n              dup3\n                /* \"#utility.yul\":15637:15655   */\n              tag_126\n              jump\t// in\n            tag_287:\n                /* \"#utility.yul\":15632:15655   */\n              swap2\n              pop\n                /* \"#utility.yul\":15669:15687   */\n              tag_288\n                /* \"#utility.yul\":15685:15686   */\n              dup4\n                /* \"#utility.yul\":15669:15687   */\n              tag_126\n              jump\t// in\n            tag_288:\n                /* \"#utility.yul\":15664:15687   */\n              swap3\n              pop\n                /* \"#utility.yul\":15710:15711   */\n              dup3\n                /* \"#utility.yul\":15707:15708   */\n              dup3\n                /* \"#utility.yul\":15703:15712   */\n              add\n                /* \"#utility.yul\":15696:15712   */\n              swap1\n              pop\n                /* \"#utility.yul\":15733:15737   */\n              0xff\n                /* \"#utility.yul\":15728:15731   */\n              dup2\n                /* \"#utility.yul\":15725:15738   */\n              gt\n                /* \"#utility.yul\":15722:15761   */\n              iszero\n              tag_289\n              jumpi\n                /* \"#utility.yul\":15741:15759   */\n              tag_290\n              tag_127\n              jump\t// in\n            tag_290:\n                /* \"#utility.yul\":15722:15761   */\n            tag_289:\n                /* \"#utility.yul\":15580:15768   */\n              swap3\n              swap2\n              pop\n              pop\n              jump\t// out\n                /* \"#utility.yul\":15774:15892   */\n            tag_128:\n                /* \"#utility.yul\":15861:15885   */\n              tag_292\n                /* \"#utility.yul\":15879:15884   */\n              dup2\n                /* \"#utility.yul\":15861:15885   */\n              tag_98\n              jump\t// in\n            tag_292:\n                /* \"#utility.yul\":15856:15859   */\n              dup3\n                /* \"#utility.yul\":15849:15886   */\n              mstore\n                /* \"#utility.yul\":15774:15892   */\n              pop\n              pop\n              jump\t// out\n                /* \"#utility.yul\":15898:16010   */\n            tag_129:\n                /* \"#utility.yul\":15981:16003   */\n              tag_294\n                /* \"#utility.yul\":15997:16002   */\n              dup2\n                /* \"#utility.yul\":15981:16003   */\n              tag_126\n              jump\t// in\n            tag_294:\n                /* \"#utility.yul\":15976:15979   */\n              dup3\n                /* \"#utility.yul\":15969:16004   */\n              mstore\n                /* \"#utility.yul\":15898:16010   */\n              pop\n              pop\n              jump\t// out\n                /* \"#utility.yul\":16016:16561   */\n            tag_73:\n                /* \"#utility.yul\":16189:16193   */\n              0x00\n                /* \"#utility.yul\":16227:16230   */\n              0x80\n                /* \"#utility.yul\":16216:16225   */\n              dup3\n                /* \"#utility.yul\":16212:16231   */\n              add\n                /* \"#utility.yul\":16204:16231   */\n              swap1\n              pop\n                /* \"#utility.yul\":16241:16312   */\n              tag_296\n                /* \"#utility.yul\":16309:16310   */\n              0x00\n                /* \"#utility.yul\":16298:16307   */\n              dup4\n                /* \"#utility.yul\":16294:16311   */\n              add\n                /* \"#utility.yul\":16285:16291   */\n              dup8\n                /* \"#utility.yul\":16241:16312   */\n              tag_128\n              jump\t// in\n            tag_296:\n                /* \"#utility.yul\":16322:16390   */\n              tag_297\n                /* \"#utility.yul\":16386:16388   */\n              0x20\n                /* \"#utility.yul\":16375:16384   */\n              dup4\n                /* \"#utility.yul\":16371:16389   */\n              add\n                /* \"#utility.yul\":16362:16368   */\n              dup7\n                /* \"#utility.yul\":16322:16390   */\n              tag_129\n              jump\t// in\n            tag_297:\n                /* \"#utility.yul\":16400:16472   */\n              tag_298\n                /* \"#utility.yul\":16468:16470   */\n              0x40\n                /* \"#utility.yul\":16457:16466   */\n              dup4\n                /* \"#utility.yul\":16453:16471   */\n              add\n                /* \"#utility.yul\":16444:16450   */\n              dup6\n                /* \"#utility.yul\":16400:16472   */\n              tag_128\n              jump\t// in\n            tag_298:\n                /* \"#utility.yul\":16482:16554   */\n              tag_299\n                /* \"#utility.yul\":16550:16552   */\n              0x60\n                /* \"#utility.yul\":16539:16548   */\n              dup4\n                /* \"#utility.yul\":16535:16553   */\n              add\n                /* \"#utility.yul\":16526:16532   */\n              dup5\n                /* \"#utility.yul\":16482:16554   */\n              tag_128\n              jump\t// in\n            tag_299:\n                /* \"#utility.yul\":16016:16561   */\n              swap6\n              swap5\n              pop\n              pop\n              pop\n              pop\n              pop\n              jump\t// out\n\n            auxdata: 0xa2646970667358221220a10921b15774974fb709bacf4fb2366a376daa89110c8fffea29118460844d7764736f6c63430008120033\n        }\n    }\n\n    auxdata: 0xa264697066735822122047d923807d6c64c88d7a3f95c22d0fb4947a00190d6eebd7e0da6c7312b6942564736f6c63430008120033\n}\n",
				"bytecode": {
					"linkReferences": {},
					"object": "608060405260028055604051620039ec380380620039ec83398181016040528101906200002d9190620000df565b80600360006101000a81548173ffffffffffffffffffffffffffffffffffffffff021916908373ffffffffffffffffffffffffffffffffffffffff1602179055505062000111565b600080fd5b600073ffffffffffffffffffffffffffffffffffffffff82169050919050565b6000620000a7826200007a565b9050919050565b620000b9816200009a565b8114620000c557600080fd5b50565b600081519050620000d981620000ae565b92915050565b600060208284031215620000f857620000f762000075565b5b60006200010884828501620000c8565b91505092915050565b6138cb80620001216000396000f3fe608060405260043610620000865760003560e01c80637b84fda511620000555780637b84fda5146200013557806384e5eed01462000163578063c2a1d6c91462000193578063c465db0a14620001ad5762000086565b806307e4ac72146200008b5780631b5ea50214620000b95780633881378114620000e75780636aae5cda1462000107575b600080fd5b3480156200009857600080fd5b50620000b76004803603810190620000b1919062001863565b620001f1565b005b348015620000c657600080fd5b50620000e56004803603810190620000df919062001ba2565b620002c8565b005b620001056004803603810190620000ff919062001bf3565b6200034d565b005b3480156200011457600080fd5b506200013360048036038101906200012d919062001cc5565b62000d9d565b005b3480156200014257600080fd5b506200016160048036038101906200015b919062001cf7565b62000fd5565b005b3480156200017057600080fd5b506200017b620010b5565b6040516200018a919062001d3a565b60405180910390f35b348015620001a057600080fd5b50620001ab620010bf565b005b348015620001ba57600080fd5b50620001d96004803603810190620001d3919062001cc5565b620012a8565b604051620001e8919062001d68565b60405180910390f35b600360009054906101000a900473ffffffffffffffffffffffffffffffffffffffff1673ffffffffffffffffffffffffffffffffffffffff163373ffffffffffffffffffffffffffffffffffffffff161462000284576040517f08c379a00000000000000000000000000000000000000000000000000000000081526004016200027b9062001de6565b60405180910390fd5b80600160006101000a81548173ffffffffffffffffffffffffffffffffffffffff021916908373ffffffffffffffffffffffffffffffffffffffff16021790555050565b80600001518073ffffffffffffffffffffffffffffffffffffffff163373ffffffffffffffffffffffffffffffffffffffff16146200033e576040517f08c379a0000000000000000000000000000000000000000000000000000000008152600401620003359062001e7e565b60405180910390fd5b620003498262001311565b5050565b60006040518060e001604052808973ffffffffffffffffffffffffffffffffffffffff1681526020018873ffffffffffffffffffffffffffffffffffffffff16815260200187815260200186815260200185815260200184815260200183815250905060003490506000620003e76064620003d860025486606001516200153790919063ffffffff16565b6200154f90919063ffffffff16565b905062000411836000015184602001518560400151866060015187608001518860a0015162001567565b62000453576040517f08c379a00000000000000000000000000000000000000000000000000000000081526004016200044a9062001ef0565b60405180910390fd5b6000600460003373ffffffffffffffffffffffffffffffffffffffff1673ffffffffffffffffffffffffffffffffffffffff16815260200190815260200160002060009054906101000a900473ffffffffffffffffffffffffffffffffffffffff169050600060046000866000015173ffffffffffffffffffffffffffffffffffffffff1673ffffffffffffffffffffffffffffffffffffffff16815260200190815260200160002060009054906101000a900473ffffffffffffffffffffffffffffffffffffffff169050600073ffffffffffffffffffffffffffffffffffffffff16600460003373ffffffffffffffffffffffffffffffffffffffff1673ffffffffffffffffffffffffffffffffffffffff16815260200190815260200160002060009054906101000a900473ffffffffffffffffffffffffffffffffffffffff1673ffffffffffffffffffffffffffffffffffffffff1603620005f0576040517f08c379a0000000000000000000000000000000000000000000000000000000008152600401620005e79062001f62565b60405180910390fd5b600073ffffffffffffffffffffffffffffffffffffffff1660046000876000015173ffffffffffffffffffffffffffffffffffffffff1673ffffffffffffffffffffffffffffffffffffffff16815260200190815260200160002060009054906101000a900473ffffffffffffffffffffffffffffffffffffffff1673ffffffffffffffffffffffffffffffffffffffff1603620006c5576040517f08c379a0000000000000000000000000000000000000000000000000000000008152600401620006bc9062001f62565b60405180910390fd5b846000015173ffffffffffffffffffffffffffffffffffffffff16856020015173ffffffffffffffffffffffffffffffffffffffff16636352211e87604001516040518263ffffffff1660e01b815260040162000723919062001d3a565b602060405180830381865afa15801562000741573d6000803e3d6000fd5b505050506040513d601f19601f8201168201806040525081019062000767919062001f9b565b73ffffffffffffffffffffffffffffffffffffffff1614620007c0576040517f08c379a0000000000000000000000000000000000000000000000000000000008152600401620007b79062002043565b60405180910390fd5b8460a001514211156200085c57620007d88562001311565b846020015173ffffffffffffffffffffffffffffffffffffffff16856000015173ffffffffffffffffffffffffffffffffffffffff167f68138f0ee854a322025bc4fdf83bf151264d42cbc5930a3afc396a82980028d68760c0015188604001516040516200084992919062002076565b60405180910390a3505050505062000d94565b60008560200151866040015187606001518860a0015189608001516040516020016200088d95949392919062002191565b6040516020818303038152906040528051906020012090506000808373ffffffffffffffffffffffffffffffffffffffff1683604051602401620008d29190620021f6565b6040516020818303038152906040527feb41850d000000000000000000000000000000000000000000000000000000007bffffffffffffffffffffffffffffffffffffffffffffffffffffffff19166020820180517bffffffffffffffffffffffffffffffffffffffffffffffffffffffff83818316178352505050506040516200095e919062002213565b6000604051808303816000865af19150503d80600081146200099d576040519150601f19603f3d011682016040523d82523d6000602084013e620009a2565b606091505b5091509150600081806020019051810190620009bf919062002269565b9050828015620009cd575080155b62000a0f576040517f08c379a000000000000000000000000000000000000000000000000000000000815260040162000a0690620022eb565b60405180910390fd5b6000808673ffffffffffffffffffffffffffffffffffffffff168b8a8c62000a3891906200233c565b3360405160240162000a4d93929190620024a6565b6040516020818303038152906040527f08ac144e000000000000000000000000000000000000000000000000000000007bffffffffffffffffffffffffffffffffffffffffffffffffffffffff19166020820180517bffffffffffffffffffffffffffffffffffffffffffffffffffffffff838183161783525050505060405162000ad9919062002213565b6000604051808303816000865af19150503d806000811462000b18576040519150601f19603f3d011682016040523d82523d6000602084013e62000b1d565b606091505b50915091503373ffffffffffffffffffffffffffffffffffffffff168b6020015173ffffffffffffffffffffffffffffffffffffffff16636352211e8d604001516040518263ffffffff1660e01b815260040162000b7c919062001d3a565b602060405180830381865afa15801562000b9a573d6000803e3d6000fd5b505050506040513d601f19601f8201168201806040525081019062000bc0919062001f9b565b73ffffffffffffffffffffffffffffffffffffffff160362000d405762000be78b62001610565b600160009054906101000a900473ffffffffffffffffffffffffffffffffffffffff1673ffffffffffffffffffffffffffffffffffffffff166108fc8a9081150290604051600060405180830381858888f1935050505015801562000c50573d6000803e3d6000fd5b508a6000015173ffffffffffffffffffffffffffffffffffffffff166108fc8a8c62000c7d91906200233c565b9081150290604051600060405180830381858888f1935050505062000d3a573373ffffffffffffffffffffffffffffffffffffffff166108fc8a8c62000cc491906200233c565b9081150290604051600060405180830381858888f1935050505015801562000cf0573d6000803e3d6000fd5b503373ffffffffffffffffffffffffffffffffffffffff166108fc8a9081150290604051600060405180830381858888f1935050505015801562000d38573d6000803e3d6000fd5b505b62000d88565b62000d4b8b620016a9565b6040517f08c379a000000000000000000000000000000000000000000000000000000000815260040162000d7f906200253a565b60405180910390fd5b50505050505050505050505b50505050505050565b600073ffffffffffffffffffffffffffffffffffffffff16600460003373ffffffffffffffffffffffffffffffffffffffff1673ffffffffffffffffffffffffffffffffffffffff16815260200190815260200160002060009054906101000a900473ffffffffffffffffffffffffffffffffffffffff1673ffffffffffffffffffffffffffffffffffffffff160362000e6e576040517f08c379a000000000000000000000000000000000000000000000000000000000815260040162000e6590620025ac565b60405180910390fd5b6000808273ffffffffffffffffffffffffffffffffffffffff16600460003373ffffffffffffffffffffffffffffffffffffffff1673ffffffffffffffffffffffffffffffffffffffff16815260200190815260200160002060009054906101000a900473ffffffffffffffffffffffffffffffffffffffff16600160405160240162000efd929190620025df565b6040516020818303038152906040527fa22cb465000000000000000000000000000000000000000000000000000000007bffffffffffffffffffffffffffffffffffffffffffffffffffffffff19166020820180517bffffffffffffffffffffffffffffffffffffffffffffffffffffffff838183161783525050505060405162000f89919062002213565b600060405180830381855af49150503d806000811462000fc6576040519150601f19603f3d011682016040523d82523d6000602084013e62000fcb565b606091505b5091509150505050565b600360009054906101000a900473ffffffffffffffffffffffffffffffffffffffff1673ffffffffffffffffffffffffffffffffffffffff163373ffffffffffffffffffffffffffffffffffffffff161462001068576040517f08c379a00000000000000000000000000000000000000000000000000000000081526004016200105f9062001de6565b60405180910390fd5b60006002549050816002819055507f8d10d6dd6545b059182e4bf9534308bf75d7de65cdd8a68c12b7b74f139e58ae8183604051620010a99291906200260c565b60405180910390a15050565b6000600254905090565b600073ffffffffffffffffffffffffffffffffffffffff16600460003373ffffffffffffffffffffffffffffffffffffffff1673ffffffffffffffffffffffffffffffffffffffff16815260200190815260200160002060009054906101000a900473ffffffffffffffffffffffffffffffffffffffff1673ffffffffffffffffffffffffffffffffffffffff161462001190576040517f08c379a0000000000000000000000000000000000000000000000000000000008152600401620011879062002689565b60405180910390fd5b336040516200119f90620017dc565b620011ab919062001d68565b604051809103906000f080158015620011c8573d6000803e3d6000fd5b506000806101000a81548173ffffffffffffffffffffffffffffffffffffffff021916908373ffffffffffffffffffffffffffffffffffffffff16021790555060008054906101000a900473ffffffffffffffffffffffffffffffffffffffff16600460003373ffffffffffffffffffffffffffffffffffffffff1673ffffffffffffffffffffffffffffffffffffffff16815260200190815260200160002060006101000a81548173ffffffffffffffffffffffffffffffffffffffff021916908373ffffffffffffffffffffffffffffffffffffffff160217905550565b6000600460008373ffffffffffffffffffffffffffffffffffffffff1673ffffffffffffffffffffffffffffffffffffffff16815260200190815260200160002060009054906101000a900473ffffffffffffffffffffffffffffffffffffffff169050919050565b60008060046000846000015173ffffffffffffffffffffffffffffffffffffffff1673ffffffffffffffffffffffffffffffffffffffff16815260200190815260200160002060009054906101000a900473ffffffffffffffffffffffffffffffffffffffff1673ffffffffffffffffffffffffffffffffffffffff1683604051602401620013a19190620026ab565b6040516020818303038152906040527fdd304104000000000000000000000000000000000000000000000000000000007bffffffffffffffffffffffffffffffffffffffffffffffffffffffff19166020820180517bffffffffffffffffffffffffffffffffffffffffffffffffffffffff83818316178352505050506040516200142d919062002213565b6000604051808303816000865af19150503d80600081146200146c576040519150601f19603f3d011682016040523d82523d6000602084013e62001471565b606091505b509150915081620014b9576040517f08c379a0000000000000000000000000000000000000000000000000000000008152600401620014b0906200271f565b60405180910390fd5b826020015173ffffffffffffffffffffffffffffffffffffffff16836000015173ffffffffffffffffffffffffffffffffffffffff167f9b3260990101a9c5eb670b44ba2f4ec1048ddaf533a012abff3841ef15307fec8560c0015186604001516040516200152a92919062002076565b60405180910390a3505050565b6000818362001547919062002741565b905092915050565b600081836200155f9190620027bb565b905092915050565b60008086868685604051602001620015839493929190620027f3565b604051602081830303815290604052805190602001209050600081604051602001620015b09190620028c9565b6040516020818303038152906040528051906020012090508873ffffffffffffffffffffffffffffffffffffffff16620015eb828762001742565b73ffffffffffffffffffffffffffffffffffffffff1614925050509695505050505050565b806020015173ffffffffffffffffffffffffffffffffffffffff163373ffffffffffffffffffffffffffffffffffffffff16826000015173ffffffffffffffffffffffffffffffffffffffff167f467f50bd8d1547cf60e60dba76ab3ff7f8b3a07ceba26c2268e160a7df30230e84604001518560c0015186606001516040516200169e93929190620028f3565b60405180910390a450565b806020015173ffffffffffffffffffffffffffffffffffffffff163373ffffffffffffffffffffffffffffffffffffffff16826000015173ffffffffffffffffffffffffffffffffffffffff167f9bd8cc9f795935d6f423445d18dd997edfeec3d962973fadffeac5740e876b5f84604001518560c0015186606001516040516200173793929190620028f3565b60405180910390a450565b6000806000806020850151925060408501519150606085015160001a9050601b8160ff1610156200177f57601b816200177c91906200293d565b90505b60018682858560405160008152602001604052604051620017a494939291906200298a565b6020604051602081039080840390855afa158015620017c7573d6000803e3d6000fd5b50505060206040510351935050505092915050565b610ebe80620029d883390190565b6000604051905090565b600080fd5b600080fd5b600073ffffffffffffffffffffffffffffffffffffffff82169050919050565b60006200182b82620017fe565b9050919050565b6200183d816200181e565b81146200184957600080fd5b50565b6000813590506200185d8162001832565b92915050565b6000602082840312156200187c576200187b620017f4565b5b60006200188c848285016200184c565b91505092915050565b600080fd5b6000601f19601f8301169050919050565b7f4e487b7100000000000000000000000000000000000000000000000000000000600052604160045260246000fd5b620018e5826200189a565b810181811067ffffffffffffffff82111715620019075762001906620018ab565b5b80604052505050565b60006200191c620017ea565b90506200192a8282620018da565b919050565b600080fd5b60006200194182620017fe565b9050919050565b620019538162001934565b81146200195f57600080fd5b50565b600081359050620019738162001948565b92915050565b6000819050919050565b6200198e8162001979565b81146200199a57600080fd5b50565b600081359050620019ae8162001983565b92915050565b600080fd5b600080fd5b600067ffffffffffffffff821115620019dc57620019db620018ab565b5b620019e7826200189a565b9050602081019050919050565b82818337600083830152505050565b600062001a1a62001a1484620019be565b62001910565b90508281526020810184848401111562001a395762001a38620019b9565b5b62001a46848285620019f4565b509392505050565b600082601f83011262001a665762001a65620019b4565b5b813562001a7884826020860162001a03565b91505092915050565b6000819050919050565b62001a968162001a81565b811462001aa257600080fd5b50565b60008135905062001ab68162001a8b565b92915050565b600060e0828403121562001ad55762001ad462001895565b5b62001ae160e062001910565b9050600062001af38482850162001962565b600083015250602062001b098482850162001962565b602083015250604062001b1f848285016200199d565b604083015250606062001b35848285016200199d565b606083015250608082013567ffffffffffffffff81111562001b5c5762001b5b6200192f565b5b62001b6a8482850162001a4e565b60808301525060a062001b80848285016200199d565b60a08301525060c062001b968482850162001aa5565b60c08301525092915050565b60006020828403121562001bbb5762001bba620017f4565b5b600082013567ffffffffffffffff81111562001bdc5762001bdb620017f9565b5b62001bea8482850162001abc565b91505092915050565b600080600080600080600060e0888a03121562001c155762001c14620017f4565b5b600062001c258a828b0162001962565b975050602062001c388a828b0162001962565b965050604062001c4b8a828b016200199d565b955050606062001c5e8a828b016200199d565b945050608088013567ffffffffffffffff81111562001c825762001c81620017f9565b5b62001c908a828b0162001a4e565b93505060a062001ca38a828b016200199d565b92505060c062001cb68a828b0162001aa5565b91505092959891949750929550565b60006020828403121562001cde5762001cdd620017f4565b5b600062001cee8482850162001962565b91505092915050565b60006020828403121562001d105762001d0f620017f4565b5b600062001d20848285016200199d565b91505092915050565b62001d348162001979565b82525050565b600060208201905062001d51600083018462001d29565b92915050565b62001d628162001934565b82525050565b600060208201905062001d7f600083018462001d57565b92915050565b600082825260208201905092915050565b7f6f6e6c79206f776e65722063616e2063616c6c20746869730000000000000000600082015250565b600062001dce60188362001d85565b915062001ddb8262001d96565b602082019050919050565b6000602082019050818103600083015262001e018162001dbf565b9050919050565b7f4f6e6c792073656c6c65722063616e2063616c6c20746869732066756e63746960008201527f6f6e000000000000000000000000000000000000000000000000000000000000602082015250565b600062001e6660228362001d85565b915062001e738262001e08565b604082019050919050565b6000602082019050818103600083015262001e998162001e57565b9050919050565b7f496e76616c6964207369676e6174757265000000000000000000000000000000600082015250565b600062001ed860118362001d85565b915062001ee58262001ea0565b602082019050919050565b6000602082019050818103600083015262001f0b8162001ec9565b9050919050565b7f50726f78792077616c6c6574206e6f7420666f756e6400000000000000000000600082015250565b600062001f4a60168362001d85565b915062001f578262001f12565b602082019050919050565b6000602082019050818103600083015262001f7d8162001f3b565b9050919050565b60008151905062001f958162001948565b92915050565b60006020828403121562001fb45762001fb3620017f4565b5b600062001fc48482850162001f84565b91505092915050565b7f53656c6c6572206973206e6f7420746865206f776e6572206f6620746869732060008201527f746f6b656e000000000000000000000000000000000000000000000000000000602082015250565b60006200202b60258362001d85565b9150620020388262001fcd565b604082019050919050565b600060208201905081810360008301526200205e816200201c565b9050919050565b620020708162001a81565b82525050565b60006040820190506200208d600083018562002065565b6200209c602083018462001d29565b9392505050565b60008160601b9050919050565b6000620020bd82620020a3565b9050919050565b6000620020d182620020b0565b9050919050565b620020ed620020e78262001934565b620020c4565b82525050565b6000819050919050565b620021126200210c8262001979565b620020f3565b82525050565b600081519050919050565b600081905092915050565b60005b838110156200214e57808201518184015260208101905062002131565b60008484015250505050565b6000620021678262002118565b62002173818562002123565b9350620021858185602086016200212e565b80840191505092915050565b60006200219f8288620020d8565b601482019150620021b18287620020fd565b602082019150620021c38286620020fd565b602082019150620021d58285620020fd565b602082019150620021e782846200215a565b91508190509695505050505050565b60006020820190506200220d600083018462002065565b92915050565b60006200222182846200215a565b915081905092915050565b60008115159050919050565b62002243816200222c565b81146200224f57600080fd5b50565b600081519050620022638162002238565b92915050565b600060208284031215620022825762002281620017f4565b5b6000620022928482850162002252565b91505092915050565b7f4f72646572206973206e6f742076616c69640000000000000000000000000000600082015250565b6000620022d360128362001d85565b9150620022e0826200229b565b602082019050919050565b600060208201905081810360008301526200230681620022c4565b9050919050565b7f4e487b7100000000000000000000000000000000000000000000000000000000600052601160045260246000fd5b6000620023498262001979565b9150620023568362001979565b92508282039050818111156200237157620023706200230d565b5b92915050565b620023828162001934565b82525050565b620023938162001979565b82525050565b600082825260208201905092915050565b6000620023b78262002118565b620023c3818562002399565b9350620023d58185602086016200212e565b620023e0816200189a565b840191505092915050565b620023f68162001a81565b82525050565b600060e08301600083015162002416600086018262002377565b5060208301516200242b602086018262002377565b50604083015162002440604086018262002388565b50606083015162002455606086018262002388565b50608083015184820360808601526200246f8282620023aa565b91505060a08301516200248660a086018262002388565b5060c08301516200249b60c0860182620023eb565b508091505092915050565b60006060820190508181036000830152620024c28186620023fc565b9050620024d3602083018562001d29565b620024e2604083018462001d57565b949350505050565b7f6d617463686661696c0000000000000000000000000000000000000000000000600082015250565b60006200252260098362001d85565b91506200252f82620024ea565b602082019050919050565b60006020820190508181036000830152620025558162002513565b9050919050565b7f6e6f2070726f78792077616c6c65740000000000000000000000000000000000600082015250565b600062002594600f8362001d85565b9150620025a1826200255c565b602082019050919050565b60006020820190508181036000830152620025c78162002585565b9050919050565b620025d9816200222c565b82525050565b6000604082019050620025f6600083018562001d57565b620026056020830184620025ce565b9392505050565b600060408201905062002623600083018562001d29565b62002632602083018462001d29565b9392505050565b7f50726f78792077616c6c657420616c7265616479206578697374730000000000600082015250565b600062002671601b8362001d85565b91506200267e8262002639565b602082019050919050565b60006020820190508181036000830152620026a48162002662565b9050919050565b60006020820190508181036000830152620026c78184620023fc565b905092915050565b7f43616e63656c2073656c6c206f72646572206661696c65640000000000000000600082015250565b60006200270760188362001d85565b91506200271482620026cf565b602082019050919050565b600060208201905081810360008301526200273a81620026f8565b9050919050565b60006200274e8262001979565b91506200275b8362001979565b92508282026200276b8162001979565b915082820484148315176200278557620027846200230d565b5b5092915050565b7f4e487b7100000000000000000000000000000000000000000000000000000000600052601260045260246000fd5b6000620027c88262001979565b9150620027d58362001979565b925082620027e857620027e76200278c565b5b828204905092915050565b6000620028018287620020d8565b601482019150620028138286620020fd565b602082019150620028258285620020fd565b602082019150620028378284620020fd565b60208201915081905095945050505050565b600081905092915050565b7f19457468657265756d205369676e6564204d6573736167653a0a333200000000600082015250565b60006200288c601c8362002849565b9150620028998262002854565b601c82019050919050565b6000819050919050565b620028c3620028bd8262001a81565b620028a4565b82525050565b6000620028d6826200287d565b9150620028e48284620028ae565b60208201915081905092915050565b60006060820190506200290a600083018662001d29565b62002919602083018562002065565b62002928604083018462001d29565b949350505050565b600060ff82169050919050565b60006200294a8262002930565b9150620029578362002930565b9250828201905060ff8111156200297357620029726200230d565b5b92915050565b620029848162002930565b82525050565b6000608082019050620029a1600083018762002065565b620029b0602083018662002979565b620029bf604083018562002065565b620029ce606083018462002065565b9594505050505056fe6080604052604051610ebe380380610ebe833981810160405281019061002591906100ce565b806000806101000a81548173ffffffffffffffffffffffffffffffffffffffff021916908373ffffffffffffffffffffffffffffffffffffffff160217905550506100fb565b600080fd5b600073ffffffffffffffffffffffffffffffffffffffff82169050919050565b600061009b82610070565b9050919050565b6100ab81610090565b81146100b657600080fd5b50565b6000815190506100c8816100a2565b92915050565b6000602082840312156100e4576100e361006b565b5b60006100f2848285016100b9565b91505092915050565b610db48061010a6000396000f3fe60806040526004361061003f5760003560e01c806308ac144e146100445780638eb6a48914610060578063dd3041041461009d578063eb41850d146100c6575b600080fd5b61005e60048036038101906100599190610830565b610103565b005b34801561006c57600080fd5b506100876004803603810190610082919061089f565b6102ca565b60405161009491906108e7565b60405180910390f35b3480156100a957600080fd5b506100c460048036038101906100bf9190610902565b6102ea565b005b3480156100d257600080fd5b506100ed60048036038101906100e8919061089f565b6103a3565b6040516100fa91906108e7565b60405180910390f35b60008360200151846040015185606001518660a001518760800151604051602001610132959493929190610a25565b604051602081830303815290604052805190602001209050428460a0015110156101655761015f816103cd565b506102c5565b6001600082815260200190815260200160002060009054906101000a900460ff16156101c6576040517f08c379a00000000000000000000000000000000000000000000000000000000081526004016101bd90610add565b60405180910390fd5b6101ec846000015185602001518660400151876060015188608001518960a001516103fb565b61022b576040517f08c379a000000000000000000000000000000000000000000000000000000000815260040161022290610b49565b60405180910390fd5b836060015183106102c357836020015173ffffffffffffffffffffffffffffffffffffffff166323b872dd85600001518487604001516040518463ffffffff1660e01b815260040161027f93929190610b87565b600060405180830381600087803b15801561029957600080fd5b505af19250505080156102aa575060015b6102b457506102c5565b6102bd816103cd565b506102c5565b505b505050565b60016020528060005260406000206000915054906101000a900460ff1681565b610310816000015182602001518360400151846060015185608001518660a001516103fb565b61034f576040517f08c379a000000000000000000000000000000000000000000000000000000000815260040161034690610b49565b60405180910390fd5b60008160200151826040015183606001518460a00151856080015160405160200161037e959493929190610a25565b60405160208183030381529060405280519060200120905061039f816103cd565b5050565b60006001600083815260200190815260200160002060009054906101000a900460ff169050919050565b600180600083815260200190815260200160002060006101000a81548160ff02191690831515021790555050565b600080868686856040516020016104159493929190610bbe565b6040516020818303038152906040528051906020012090506000816040516020016104409190610c84565b6040516020818303038152906040528051906020012090508873ffffffffffffffffffffffffffffffffffffffff16610479828761049e565b73ffffffffffffffffffffffffffffffffffffffff1614925050509695505050505050565b6000806000806020850151925060408501519150606085015160001a9050601b8160ff1610156104d857601b816104d59190610ce6565b90505b600186828585604051600081526020016040526040516104fb9493929190610d39565b6020604051602081039080840390855afa15801561051d573d6000803e3d6000fd5b50505060206040510351935050505092915050565b6000604051905090565b600080fd5b600080fd5b600080fd5b6000601f19601f8301169050919050565b7f4e487b7100000000000000000000000000000000000000000000000000000000600052604160045260246000fd5b6105948261054b565b810181811067ffffffffffffffff821117156105b3576105b261055c565b5b80604052505050565b60006105c6610532565b90506105d2828261058b565b919050565b600080fd5b600073ffffffffffffffffffffffffffffffffffffffff82169050919050565b6000610607826105dc565b9050919050565b610617816105fc565b811461062257600080fd5b50565b6000813590506106348161060e565b92915050565b6000819050919050565b61064d8161063a565b811461065857600080fd5b50565b60008135905061066a81610644565b92915050565b600080fd5b600080fd5b600067ffffffffffffffff8211156106955761069461055c565b5b61069e8261054b565b9050602081019050919050565b82818337600083830152505050565b60006106cd6106c88461067a565b6105bc565b9050828152602081018484840111156106e9576106e8610675565b5b6106f48482856106ab565b509392505050565b600082601f83011261071157610710610670565b5b81356107218482602086016106ba565b91505092915050565b6000819050919050565b61073d8161072a565b811461074857600080fd5b50565b60008135905061075a81610734565b92915050565b600060e0828403121561077657610775610546565b5b61078060e06105bc565b9050600061079084828501610625565b60008301525060206107a484828501610625565b60208301525060406107b88482850161065b565b60408301525060606107cc8482850161065b565b606083015250608082013567ffffffffffffffff8111156107f0576107ef6105d7565b5b6107fc848285016106fc565b60808301525060a06108108482850161065b565b60a08301525060c06108248482850161074b565b60c08301525092915050565b6000806000606084860312156108495761084861053c565b5b600084013567ffffffffffffffff81111561086757610866610541565b5b61087386828701610760565b93505060206108848682870161065b565b925050604061089586828701610625565b9150509250925092565b6000602082840312156108b5576108b461053c565b5b60006108c38482850161074b565b91505092915050565b60008115159050919050565b6108e1816108cc565b82525050565b60006020820190506108fc60008301846108d8565b92915050565b6000602082840312156109185761091761053c565b5b600082013567ffffffffffffffff81111561093657610935610541565b5b61094284828501610760565b91505092915050565b60008160601b9050919050565b60006109638261094b565b9050919050565b600061097582610958565b9050919050565b61098d610988826105fc565b61096a565b82525050565b6000819050919050565b6109ae6109a98261063a565b610993565b82525050565b600081519050919050565b600081905092915050565b60005b838110156109e85780820151818401526020810190506109cd565b60008484015250505050565b60006109ff826109b4565b610a0981856109bf565b9350610a198185602086016109ca565b80840191505092915050565b6000610a31828861097c565b601482019150610a41828761099d565b602082019150610a51828661099d565b602082019150610a61828561099d565b602082019150610a7182846109f4565b91508190509695505050505050565b600082825260208201905092915050565b7f4f7264657220686173206265656e207573656400000000000000000000000000600082015250565b6000610ac7601383610a80565b9150610ad282610a91565b602082019050919050565b60006020820190508181036000830152610af681610aba565b9050919050565b7f496e76616c6964207369676e6174757265000000000000000000000000000000600082015250565b6000610b33601183610a80565b9150610b3e82610afd565b602082019050919050565b60006020820190508181036000830152610b6281610b26565b9050919050565b610b72816105fc565b82525050565b610b818161063a565b82525050565b6000606082019050610b9c6000830186610b69565b610ba96020830185610b69565b610bb66040830184610b78565b949350505050565b6000610bca828761097c565b601482019150610bda828661099d565b602082019150610bea828561099d565b602082019150610bfa828461099d565b60208201915081905095945050505050565b600081905092915050565b7f19457468657265756d205369676e6564204d6573736167653a0a333200000000600082015250565b6000610c4d601c83610c0c565b9150610c5882610c17565b601c82019050919050565b6000819050919050565b610c7e610c798261072a565b610c63565b82525050565b6000610c8f82610c40565b9150610c9b8284610c6d565b60208201915081905092915050565b600060ff82169050919050565b7f4e487b7100000000000000000000000000000000000000000000000000000000600052601160045260246000fd5b6000610cf182610caa565b9150610cfc83610caa565b9250828201905060ff811115610d1557610d14610cb7565b5b92915050565b610d248161072a565b82525050565b610d3381610caa565b82525050565b6000608082019050610d4e6000830187610d1b565b610d5b6020830186610d2a565b610d686040830185610d1b565b610d756060830184610d1b565b9594505050505056fea2646970667358221220a10921b15774974fb709bacf4fb2366a376daa89110c8fffea29118460844d7764736f6c63430008120033a264697066735822122047d923807d6c64c88d7a3f95c22d0fb4947a00190d6eebd7e0da6c7312b6942564736f6c63430008120033",
					"opcodes": "PUSH1 0x80 PUSH1 0x40 MSTORE PUSH1 0x2 DUP1 SSTORE PUSH1 0x40 MLOAD PUSH3 0x39EC CODESIZE SUB DUP1 PUSH3 0x39EC DUP4 CODECOPY DUP2 DUP2 ADD PUSH1 0x40 MSTORE DUP2 ADD SWAP1 PUSH3 0x2D SWAP2 SWAP1 PUSH3 0xDF JUMP JUMPDEST DUP1 PUSH1 0x3 PUSH1 0x0 PUSH2 0x100 EXP DUP2 SLOAD DUP2 PUSH20 0xFFFFFFFFFFFFFFFFFFFFFFFFFFFFFFFFFFFFFFFF MUL NOT AND SWAP1 DUP4 PUSH20 0xFFFFFFFFFFFFFFFFFFFFFFFFFFFFFFFFFFFFFFFF AND MUL OR SWAP1 SSTORE POP POP PUSH3 0x111 JUMP JUMPDEST PUSH1 0x0 DUP1 REVERT JUMPDEST PUSH1 0x0 PUSH20 0xFFFFFFFFFFFFFFFFFFFFFFFFFFFFFFFFFFFFFFFF DUP3 AND SWAP1 POP SWAP2 SWAP1 POP JUMP JUMPDEST PUSH1 0x0 PUSH3 0xA7 DUP3 PUSH3 0x7A JUMP JUMPDEST SWAP1 POP SWAP2 SWAP1 POP JUMP JUMPDEST PUSH3 0xB9 DUP2 PUSH3 0x9A JUMP JUMPDEST DUP2 EQ PUSH3 0xC5 JUMPI PUSH1 0x0 DUP1 REVERT JUMPDEST POP JUMP JUMPDEST PUSH1 0x0 DUP2 MLOAD SWAP1 POP PUSH3 0xD9 DUP2 PUSH3 0xAE JUMP JUMPDEST SWAP3 SWAP2 POP POP JUMP JUMPDEST PUSH1 0x0 PUSH1 0x20 DUP3 DUP5 SUB SLT ISZERO PUSH3 0xF8 JUMPI PUSH3 0xF7 PUSH3 0x75 JUMP JUMPDEST JUMPDEST PUSH1 0x0 PUSH3 0x108 DUP5 DUP3 DUP6 ADD PUSH3 0xC8 JUMP JUMPDEST SWAP2 POP POP SWAP3 SWAP2 POP POP JUMP JUMPDEST PUSH2 0x38CB DUP1 PUSH3 0x121 PUSH1 0x0 CODECOPY PUSH1 0x0 RETURN INVALID PUSH1 0x80 PUSH1 0x40 MSTORE PUSH1 0x4 CALLDATASIZE LT PUSH3 0x86 JUMPI PUSH1 0x0 CALLDATALOAD PUSH1 0xE0 SHR DUP1 PUSH4 0x7B84FDA5 GT PUSH3 0x55 JUMPI DUP1 PUSH4 0x7B84FDA5 EQ PUSH3 0x135 JUMPI DUP1 PUSH4 0x84E5EED0 EQ PUSH3 0x163 JUMPI DUP1 PUSH4 0xC2A1D6C9 EQ PUSH3 0x193 JUMPI DUP1 PUSH4 0xC465DB0A EQ PUSH3 0x1AD JUMPI PUSH3 0x86 JUMP JUMPDEST DUP1 PUSH4 0x7E4AC72 EQ PUSH3 0x8B JUMPI DUP1 PUSH4 0x1B5EA502 EQ PUSH3 0xB9 JUMPI DUP1 PUSH4 0x38813781 EQ PUSH3 0xE7 JUMPI DUP1 PUSH4 0x6AAE5CDA EQ PUSH3 0x107 JUMPI JUMPDEST PUSH1 0x0 DUP1 REVERT JUMPDEST CALLVALUE DUP1 ISZERO PUSH3 0x98 JUMPI PUSH1 0x0 DUP1 REVERT JUMPDEST POP PUSH3 0xB7 PUSH1 0x4 DUP1 CALLDATASIZE SUB DUP2 ADD SWAP1 PUSH3 0xB1 SWAP2 SWAP1 PUSH3 0x1863 JUMP JUMPDEST PUSH3 0x1F1 JUMP JUMPDEST STOP JUMPDEST CALLVALUE DUP1 ISZERO PUSH3 0xC6 JUMPI PUSH1 0x0 DUP1 REVERT JUMPDEST POP PUSH3 0xE5 PUSH1 0x4 DUP1 CALLDATASIZE SUB DUP2 ADD SWAP1 PUSH3 0xDF SWAP2 SWAP1 PUSH3 0x1BA2 JUMP JUMPDEST PUSH3 0x2C8 JUMP JUMPDEST STOP JUMPDEST PUSH3 0x105 PUSH1 0x4 DUP1 CALLDATASIZE SUB DUP2 ADD SWAP1 PUSH3 0xFF SWAP2 SWAP1 PUSH3 0x1BF3 JUMP JUMPDEST PUSH3 0x34D JUMP JUMPDEST STOP JUMPDEST CALLVALUE DUP1 ISZERO PUSH3 0x114 JUMPI PUSH1 0x0 DUP1 REVERT JUMPDEST POP PUSH3 0x133 PUSH1 0x4 DUP1 CALLDATASIZE SUB DUP2 ADD SWAP1 PUSH3 0x12D SWAP2 SWAP1 PUSH3 0x1CC5 JUMP JUMPDEST PUSH3 0xD9D JUMP JUMPDEST STOP JUMPDEST CALLVALUE DUP1 ISZERO PUSH3 0x142 JUMPI PUSH1 0x0 DUP1 REVERT JUMPDEST POP PUSH3 0x161 PUSH1 0x4 DUP1 CALLDATASIZE SUB DUP2 ADD SWAP1 PUSH3 0x15B SWAP2 SWAP1 PUSH3 0x1CF7 JUMP JUMPDEST PUSH3 0xFD5 JUMP JUMPDEST STOP JUMPDEST CALLVALUE DUP1 ISZERO PUSH3 0x170 JUMPI PUSH1 0x0 DUP1 REVERT JUMPDEST POP PUSH3 0x17B PUSH3 0x10B5 JUMP JUMPDEST PUSH1 0x40 MLOAD PUSH3 0x18A SWAP2 SWAP1 PUSH3 0x1D3A JUMP JUMPDEST PUSH1 0x40 MLOAD DUP1 SWAP2 SUB SWAP1 RETURN JUMPDEST CALLVALUE DUP1 ISZERO PUSH3 0x1A0 JUMPI PUSH1 0x0 DUP1 REVERT JUMPDEST POP PUSH3 0x1AB PUSH3 0x10BF JUMP JUMPDEST STOP JUMPDEST CALLVALUE DUP1 ISZERO PUSH3 0x1BA JUMPI PUSH1 0x0 DUP1 REVERT JUMPDEST POP PUSH3 0x1D9 PUSH1 0x4 DUP1 CALLDATASIZE SUB DUP2 ADD SWAP1 PUSH3 0x1D3 SWAP2 SWAP1 PUSH3 0x1CC5 JUMP JUMPDEST PUSH3 0x12A8 JUMP JUMPDEST PUSH1 0x40 MLOAD PUSH3 0x1E8 SWAP2 SWAP1 PUSH3 0x1D68 JUMP JUMPDEST PUSH1 0x40 MLOAD DUP1 SWAP2 SUB SWAP1 RETURN JUMPDEST PUSH1 0x3 PUSH1 0x0 SWAP1 SLOAD SWAP1 PUSH2 0x100 EXP SWAP1 DIV PUSH20 0xFFFFFFFFFFFFFFFFFFFFFFFFFFFFFFFFFFFFFFFF AND PUSH20 0xFFFFFFFFFFFFFFFFFFFFFFFFFFFFFFFFFFFFFFFF AND CALLER PUSH20 0xFFFFFFFFFFFFFFFFFFFFFFFFFFFFFFFFFFFFFFFF AND EQ PUSH3 0x284 JUMPI PUSH1 0x40 MLOAD PUSH32 0x8C379A000000000000000000000000000000000000000000000000000000000 DUP2 MSTORE PUSH1 0x4 ADD PUSH3 0x27B SWAP1 PUSH3 0x1DE6 JUMP JUMPDEST PUSH1 0x40 MLOAD DUP1 SWAP2 SUB SWAP1 REVERT JUMPDEST DUP1 PUSH1 0x1 PUSH1 0x0 PUSH2 0x100 EXP DUP2 SLOAD DUP2 PUSH20 0xFFFFFFFFFFFFFFFFFFFFFFFFFFFFFFFFFFFFFFFF MUL NOT AND SWAP1 DUP4 PUSH20 0xFFFFFFFFFFFFFFFFFFFFFFFFFFFFFFFFFFFFFFFF AND MUL OR SWAP1 SSTORE POP POP JUMP JUMPDEST DUP1 PUSH1 0x0 ADD MLOAD DUP1 PUSH20 0xFFFFFFFFFFFFFFFFFFFFFFFFFFFFFFFFFFFFFFFF AND CALLER PUSH20 0xFFFFFFFFFFFFFFFFFFFFFFFFFFFFFFFFFFFFFFFF AND EQ PUSH3 0x33E JUMPI PUSH1 0x40 MLOAD PUSH32 0x8C379A000000000000000000000000000000000000000000000000000000000 DUP2 MSTORE PUSH1 0x4 ADD PUSH3 0x335 SWAP1 PUSH3 0x1E7E JUMP JUMPDEST PUSH1 0x40 MLOAD DUP1 SWAP2 SUB SWAP1 REVERT JUMPDEST PUSH3 0x349 DUP3 PUSH3 0x1311 JUMP JUMPDEST POP POP JUMP JUMPDEST PUSH1 0x0 PUSH1 0x40 MLOAD DUP1 PUSH1 0xE0 ADD PUSH1 0x40 MSTORE DUP1 DUP10 PUSH20 0xFFFFFFFFFFFFFFFFFFFFFFFFFFFFFFFFFFFFFFFF AND DUP2 MSTORE PUSH1 0x20 ADD DUP9 PUSH20 0xFFFFFFFFFFFFFFFFFFFFFFFFFFFFFFFFFFFFFFFF AND DUP2 MSTORE PUSH1 0x20 ADD DUP8 DUP2 MSTORE PUSH1 0x20 ADD DUP7 DUP2 MSTORE PUSH1 0x20 ADD DUP6 DUP2 MSTORE PUSH1 0x20 ADD DUP5 DUP2 MSTORE PUSH1 0x20 ADD DUP4 DUP2 MSTORE POP SWAP1 POP PUSH1 0x0 CALLVALUE SWAP1 POP PUSH1 0x0 PUSH3 0x3E7 PUSH1 0x64 PUSH3 0x3D8 PUSH1 0x2 SLOAD DUP7 PUSH1 0x60 ADD MLOAD PUSH3 0x1537 SWAP1 SWAP2 SWAP1 PUSH4 0xFFFFFFFF AND JUMP JUMPDEST PUSH3 0x154F SWAP1 SWAP2 SWAP1 PUSH4 0xFFFFFFFF AND JUMP JUMPDEST SWAP1 POP PUSH3 0x411 DUP4 PUSH1 0x0 ADD MLOAD DUP5 PUSH1 0x20 ADD MLOAD DUP6 PUSH1 0x40 ADD MLOAD DUP7 PUSH1 0x60 ADD MLOAD DUP8 PUSH1 0x80 ADD MLOAD DUP9 PUSH1 0xA0 ADD MLOAD PUSH3 0x1567 JUMP JUMPDEST PUSH3 0x453 JUMPI PUSH1 0x40 MLOAD PUSH32 0x8C379A000000000000000000000000000000000000000000000000000000000 DUP2 MSTORE PUSH1 0x4 ADD PUSH3 0x44A SWAP1 PUSH3 0x1EF0 JUMP JUMPDEST PUSH1 0x40 MLOAD DUP1 SWAP2 SUB SWAP1 REVERT JUMPDEST PUSH1 0x0 PUSH1 0x4 PUSH1 0x0 CALLER PUSH20 0xFFFFFFFFFFFFFFFFFFFFFFFFFFFFFFFFFFFFFFFF AND PUSH20 0xFFFFFFFFFFFFFFFFFFFFFFFFFFFFFFFFFFFFFFFF AND DUP2 MSTORE PUSH1 0x20 ADD SWAP1 DUP2 MSTORE PUSH1 0x20 ADD PUSH1 0x0 KECCAK256 PUSH1 0x0 SWAP1 SLOAD SWAP1 PUSH2 0x100 EXP SWAP1 DIV PUSH20 0xFFFFFFFFFFFFFFFFFFFFFFFFFFFFFFFFFFFFFFFF AND SWAP1 POP PUSH1 0x0 PUSH1 0x4 PUSH1 0x0 DUP7 PUSH1 0x0 ADD MLOAD PUSH20 0xFFFFFFFFFFFFFFFFFFFFFFFFFFFFFFFFFFFFFFFF AND PUSH20 0xFFFFFFFFFFFFFFFFFFFFFFFFFFFFFFFFFFFFFFFF AND DUP2 MSTORE PUSH1 0x20 ADD SWAP1 DUP2 MSTORE PUSH1 0x20 ADD PUSH1 0x0 KECCAK256 PUSH1 0x0 SWAP1 SLOAD SWAP1 PUSH2 0x100 EXP SWAP1 DIV PUSH20 0xFFFFFFFFFFFFFFFFFFFFFFFFFFFFFFFFFFFFFFFF AND SWAP1 POP PUSH1 0x0 PUSH20 0xFFFFFFFFFFFFFFFFFFFFFFFFFFFFFFFFFFFFFFFF AND PUSH1 0x4 PUSH1 0x0 CALLER PUSH20 0xFFFFFFFFFFFFFFFFFFFFFFFFFFFFFFFFFFFFFFFF AND PUSH20 0xFFFFFFFFFFFFFFFFFFFFFFFFFFFFFFFFFFFFFFFF AND DUP2 MSTORE PUSH1 0x20 ADD SWAP1 DUP2 MSTORE PUSH1 0x20 ADD PUSH1 0x0 KECCAK256 PUSH1 0x0 SWAP1 SLOAD SWAP1 PUSH2 0x100 EXP SWAP1 DIV PUSH20 0xFFFFFFFFFFFFFFFFFFFFFFFFFFFFFFFFFFFFFFFF AND PUSH20 0xFFFFFFFFFFFFFFFFFFFFFFFFFFFFFFFFFFFFFFFF AND SUB PUSH3 0x5F0 JUMPI PUSH1 0x40 MLOAD PUSH32 0x8C379A000000000000000000000000000000000000000000000000000000000 DUP2 MSTORE PUSH1 0x4 ADD PUSH3 0x5E7 SWAP1 PUSH3 0x1F62 JUMP JUMPDEST PUSH1 0x40 MLOAD DUP1 SWAP2 SUB SWAP1 REVERT JUMPDEST PUSH1 0x0 PUSH20 0xFFFFFFFFFFFFFFFFFFFFFFFFFFFFFFFFFFFFFFFF AND PUSH1 0x4 PUSH1 0x0 DUP8 PUSH1 0x0 ADD MLOAD PUSH20 0xFFFFFFFFFFFFFFFFFFFFFFFFFFFFFFFFFFFFFFFF AND PUSH20 0xFFFFFFFFFFFFFFFFFFFFFFFFFFFFFFFFFFFFFFFF AND DUP2 MSTORE PUSH1 0x20 ADD SWAP1 DUP2 MSTORE PUSH1 0x20 ADD PUSH1 0x0 KECCAK256 PUSH1 0x0 SWAP1 SLOAD SWAP1 PUSH2 0x100 EXP SWAP1 DIV PUSH20 0xFFFFFFFFFFFFFFFFFFFFFFFFFFFFFFFFFFFFFFFF AND PUSH20 0xFFFFFFFFFFFFFFFFFFFFFFFFFFFFFFFFFFFFFFFF AND SUB PUSH3 0x6C5 JUMPI PUSH1 0x40 MLOAD PUSH32 0x8C379A000000000000000000000000000000000000000000000000000000000 DUP2 MSTORE PUSH1 0x4 ADD PUSH3 0x6BC SWAP1 PUSH3 0x1F62 JUMP JUMPDEST PUSH1 0x40 MLOAD DUP1 SWAP2 SUB SWAP1 REVERT JUMPDEST DUP5 PUSH1 0x0 ADD MLOAD PUSH20 0xFFFFFFFFFFFFFFFFFFFFFFFFFFFFFFFFFFFFFFFF AND DUP6 PUSH1 0x20 ADD MLOAD PUSH20 0xFFFFFFFFFFFFFFFFFFFFFFFFFFFFFFFFFFFFFFFF AND PUSH4 0x6352211E DUP8 PUSH1 0x40 ADD MLOAD PUSH1 0x40 MLOAD DUP3 PUSH4 0xFFFFFFFF AND PUSH1 0xE0 SHL DUP2 MSTORE PUSH1 0x4 ADD PUSH3 0x723 SWAP2 SWAP1 PUSH3 0x1D3A JUMP JUMPDEST PUSH1 0x20 PUSH1 0x40 MLOAD DUP1 DUP4 SUB DUP2 DUP7 GAS STATICCALL ISZERO DUP1 ISZERO PUSH3 0x741 JUMPI RETURNDATASIZE PUSH1 0x0 DUP1 RETURNDATACOPY RETURNDATASIZE PUSH1 0x0 REVERT JUMPDEST POP POP POP POP PUSH1 0x40 MLOAD RETURNDATASIZE PUSH1 0x1F NOT PUSH1 0x1F DUP3 ADD AND DUP3 ADD DUP1 PUSH1 0x40 MSTORE POP DUP2 ADD SWAP1 PUSH3 0x767 SWAP2 SWAP1 PUSH3 0x1F9B JUMP JUMPDEST PUSH20 0xFFFFFFFFFFFFFFFFFFFFFFFFFFFFFFFFFFFFFFFF AND EQ PUSH3 0x7C0 JUMPI PUSH1 0x40 MLOAD PUSH32 0x8C379A000000000000000000000000000000000000000000000000000000000 DUP2 MSTORE PUSH1 0x4 ADD PUSH3 0x7B7 SWAP1 PUSH3 0x2043 JUMP JUMPDEST PUSH1 0x40 MLOAD DUP1 SWAP2 SUB SWAP1 REVERT JUMPDEST DUP5 PUSH1 0xA0 ADD MLOAD TIMESTAMP GT ISZERO PUSH3 0x85C JUMPI PUSH3 0x7D8 DUP6 PUSH3 0x1311 JUMP JUMPDEST DUP5 PUSH1 0x20 ADD MLOAD PUSH20 0xFFFFFFFFFFFFFFFFFFFFFFFFFFFFFFFFFFFFFFFF AND DUP6 PUSH1 0x0 ADD MLOAD PUSH20 0xFFFFFFFFFFFFFFFFFFFFFFFFFFFFFFFFFFFFFFFF AND PUSH32 0x68138F0EE854A322025BC4FDF83BF151264D42CBC5930A3AFC396A82980028D6 DUP8 PUSH1 0xC0 ADD MLOAD DUP9 PUSH1 0x40 ADD MLOAD PUSH1 0x40 MLOAD PUSH3 0x849 SWAP3 SWAP2 SWAP1 PUSH3 0x2076 JUMP JUMPDEST PUSH1 0x40 MLOAD DUP1 SWAP2 SUB SWAP1 LOG3 POP POP POP POP POP PUSH3 0xD94 JUMP JUMPDEST PUSH1 0x0 DUP6 PUSH1 0x20 ADD MLOAD DUP7 PUSH1 0x40 ADD MLOAD DUP8 PUSH1 0x60 ADD MLOAD DUP9 PUSH1 0xA0 ADD MLOAD DUP10 PUSH1 0x80 ADD MLOAD PUSH1 0x40 MLOAD PUSH1 0x20 ADD PUSH3 0x88D SWAP6 SWAP5 SWAP4 SWAP3 SWAP2 SWAP1 PUSH3 0x2191 JUMP JUMPDEST PUSH1 0x40 MLOAD PUSH1 0x20 DUP2 DUP4 SUB SUB DUP2 MSTORE SWAP1 PUSH1 0x40 MSTORE DUP1 MLOAD SWAP1 PUSH1 0x20 ADD KECCAK256 SWAP1 POP PUSH1 0x0 DUP1 DUP4 PUSH20 0xFFFFFFFFFFFFFFFFFFFFFFFFFFFFFFFFFFFFFFFF AND DUP4 PUSH1 0x40 MLOAD PUSH1 0x24 ADD PUSH3 0x8D2 SWAP2 SWAP1 PUSH3 0x21F6 JUMP JUMPDEST PUSH1 0x40 MLOAD PUSH1 0x20 DUP2 DUP4 SUB SUB DUP2 MSTORE SWAP1 PUSH1 0x40 MSTORE PUSH32 0xEB41850D00000000000000000000000000000000000000000000000000000000 PUSH28 0xFFFFFFFFFFFFFFFFFFFFFFFFFFFFFFFFFFFFFFFFFFFFFFFFFFFFFFFF NOT AND PUSH1 0x20 DUP3 ADD DUP1 MLOAD PUSH28 0xFFFFFFFFFFFFFFFFFFFFFFFFFFFFFFFFFFFFFFFFFFFFFFFFFFFFFFFF DUP4 DUP2 DUP4 AND OR DUP4 MSTORE POP POP POP POP PUSH1 0x40 MLOAD PUSH3 0x95E SWAP2 SWAP1 PUSH3 0x2213 JUMP JUMPDEST PUSH1 0x0 PUSH1 0x40 MLOAD DUP1 DUP4 SUB DUP2 PUSH1 0x0 DUP7 GAS CALL SWAP2 POP POP RETURNDATASIZE DUP1 PUSH1 0x0 DUP2 EQ PUSH3 0x99D JUMPI PUSH1 0x40 MLOAD SWAP2 POP PUSH1 0x1F NOT PUSH1 0x3F RETURNDATASIZE ADD AND DUP3 ADD PUSH1 0x40 MSTORE RETURNDATASIZE DUP3 MSTORE RETURNDATASIZE PUSH1 0x0 PUSH1 0x20 DUP5 ADD RETURNDATACOPY PUSH3 0x9A2 JUMP JUMPDEST PUSH1 0x60 SWAP2 POP JUMPDEST POP SWAP2 POP SWAP2 POP PUSH1 0x0 DUP2 DUP1 PUSH1 0x20 ADD SWAP1 MLOAD DUP2 ADD SWAP1 PUSH3 0x9BF SWAP2 SWAP1 PUSH3 0x2269 JUMP JUMPDEST SWAP1 POP DUP3 DUP1 ISZERO PUSH3 0x9CD JUMPI POP DUP1 ISZERO JUMPDEST PUSH3 0xA0F JUMPI PUSH1 0x40 MLOAD PUSH32 0x8C379A000000000000000000000000000000000000000000000000000000000 DUP2 MSTORE PUSH1 0x4 ADD PUSH3 0xA06 SWAP1 PUSH3 0x22EB JUMP JUMPDEST PUSH1 0x40 MLOAD DUP1 SWAP2 SUB SWAP1 REVERT JUMPDEST PUSH1 0x0 DUP1 DUP7 PUSH20 0xFFFFFFFFFFFFFFFFFFFFFFFFFFFFFFFFFFFFFFFF AND DUP12 DUP11 DUP13 PUSH3 0xA38 SWAP2 SWAP1 PUSH3 0x233C JUMP JUMPDEST CALLER PUSH1 0x40 MLOAD PUSH1 0x24 ADD PUSH3 0xA4D SWAP4 SWAP3 SWAP2 SWAP1 PUSH3 0x24A6 JUMP JUMPDEST PUSH1 0x40 MLOAD PUSH1 0x20 DUP2 DUP4 SUB SUB DUP2 MSTORE SWAP1 PUSH1 0x40 MSTORE PUSH32 0x8AC144E00000000000000000000000000000000000000000000000000000000 PUSH28 0xFFFFFFFFFFFFFFFFFFFFFFFFFFFFFFFFFFFFFFFFFFFFFFFFFFFFFFFF NOT AND PUSH1 0x20 DUP3 ADD DUP1 MLOAD PUSH28 0xFFFFFFFFFFFFFFFFFFFFFFFFFFFFFFFFFFFFFFFFFFFFFFFFFFFFFFFF DUP4 DUP2 DUP4 AND OR DUP4 MSTORE POP POP POP POP PUSH1 0x40 MLOAD PUSH3 0xAD9 SWAP2 SWAP1 PUSH3 0x2213 JUMP JUMPDEST PUSH1 0x0 PUSH1 0x40 MLOAD DUP1 DUP4 SUB DUP2 PUSH1 0x0 DUP7 GAS CALL SWAP2 POP POP RETURNDATASIZE DUP1 PUSH1 0x0 DUP2 EQ PUSH3 0xB18 JUMPI PUSH1 0x40 MLOAD SWAP2 POP PUSH1 0x1F NOT PUSH1 0x3F RETURNDATASIZE ADD AND DUP3 ADD PUSH1 0x40 MSTORE RETURNDATASIZE DUP3 MSTORE RETURNDATASIZE PUSH1 0x0 PUSH1 0x20 DUP5 ADD RETURNDATACOPY PUSH3 0xB1D JUMP JUMPDEST PUSH1 0x60 SWAP2 POP JUMPDEST POP SWAP2 POP SWAP2 POP CALLER PUSH20 0xFFFFFFFFFFFFFFFFFFFFFFFFFFFFFFFFFFFFFFFF AND DUP12 PUSH1 0x20 ADD MLOAD PUSH20 0xFFFFFFFFFFFFFFFFFFFFFFFFFFFFFFFFFFFFFFFF AND PUSH4 0x6352211E DUP14 PUSH1 0x40 ADD MLOAD PUSH1 0x40 MLOAD DUP3 PUSH4 0xFFFFFFFF AND PUSH1 0xE0 SHL DUP2 MSTORE PUSH1 0x4 ADD PUSH3 0xB7C SWAP2 SWAP1 PUSH3 0x1D3A JUMP JUMPDEST PUSH1 0x20 PUSH1 0x40 MLOAD DUP1 DUP4 SUB DUP2 DUP7 GAS STATICCALL ISZERO DUP1 ISZERO PUSH3 0xB9A JUMPI RETURNDATASIZE PUSH1 0x0 DUP1 RETURNDATACOPY RETURNDATASIZE PUSH1 0x0 REVERT JUMPDEST POP POP POP POP PUSH1 0x40 MLOAD RETURNDATASIZE PUSH1 0x1F NOT PUSH1 0x1F DUP3 ADD AND DUP3 ADD DUP1 PUSH1 0x40 MSTORE POP DUP2 ADD SWAP1 PUSH3 0xBC0 SWAP2 SWAP1 PUSH3 0x1F9B JUMP JUMPDEST PUSH20 0xFFFFFFFFFFFFFFFFFFFFFFFFFFFFFFFFFFFFFFFF AND SUB PUSH3 0xD40 JUMPI PUSH3 0xBE7 DUP12 PUSH3 0x1610 JUMP JUMPDEST PUSH1 0x1 PUSH1 0x0 SWAP1 SLOAD SWAP1 PUSH2 0x100 EXP SWAP1 DIV PUSH20 0xFFFFFFFFFFFFFFFFFFFFFFFFFFFFFFFFFFFFFFFF AND PUSH20 0xFFFFFFFFFFFFFFFFFFFFFFFFFFFFFFFFFFFFFFFF AND PUSH2 0x8FC DUP11 SWAP1 DUP2 ISZERO MUL SWAP1 PUSH1 0x40 MLOAD PUSH1 0x0 PUSH1 0x40 MLOAD DUP1 DUP4 SUB DUP2 DUP6 DUP9 DUP9 CALL SWAP4 POP POP POP POP ISZERO DUP1 ISZERO PUSH3 0xC50 JUMPI RETURNDATASIZE PUSH1 0x0 DUP1 RETURNDATACOPY RETURNDATASIZE PUSH1 0x0 REVERT JUMPDEST POP DUP11 PUSH1 0x0 ADD MLOAD PUSH20 0xFFFFFFFFFFFFFFFFFFFFFFFFFFFFFFFFFFFFFFFF AND PUSH2 0x8FC DUP11 DUP13 PUSH3 0xC7D SWAP2 SWAP1 PUSH3 0x233C JUMP JUMPDEST SWAP1 DUP2 ISZERO MUL SWAP1 PUSH1 0x40 MLOAD PUSH1 0x0 PUSH1 0x40 MLOAD DUP1 DUP4 SUB DUP2 DUP6 DUP9 DUP9 CALL SWAP4 POP POP POP POP PUSH3 0xD3A JUMPI CALLER PUSH20 0xFFFFFFFFFFFFFFFFFFFFFFFFFFFFFFFFFFFFFFFF AND PUSH2 0x8FC DUP11 DUP13 PUSH3 0xCC4 SWAP2 SWAP1 PUSH3 0x233C JUMP JUMPDEST SWAP1 DUP2 ISZERO MUL SWAP1 PUSH1 0x40 MLOAD PUSH1 0x0 PUSH1 0x40 MLOAD DUP1 DUP4 SUB DUP2 DUP6 DUP9 DUP9 CALL SWAP4 POP POP POP POP ISZERO DUP1 ISZERO PUSH3 0xCF0 JUMPI RETURNDATASIZE PUSH1 0x0 DUP1 RETURNDATACOPY RETURNDATASIZE PUSH1 0x0 REVERT JUMPDEST POP CALLER PUSH20 0xFFFFFFFFFFFFFFFFFFFFFFFFFFFFFFFFFFFFFFFF AND PUSH2 0x8FC DUP11 SWAP1 DUP2 ISZERO MUL SWAP1 PUSH1 0x40 MLOAD PUSH1 0x0 PUSH1 0x40 MLOAD DUP1 DUP4 SUB DUP2 DUP6 DUP9 DUP9 CALL SWAP4 POP POP POP POP ISZERO DUP1 ISZERO PUSH3 0xD38 JUMPI RETURNDATASIZE PUSH1 0x0 DUP1 RETURNDATACOPY RETURNDATASIZE PUSH1 0x0 REVERT JUMPDEST POP JUMPDEST PUSH3 0xD88 JUMP JUMPDEST PUSH3 0xD4B DUP12 PUSH3 0x16A9 JUMP JUMPDEST PUSH1 0x40 MLOAD PUSH32 0x8C379A000000000000000000000000000000000000000000000000000000000 DUP2 MSTORE PUSH1 0x4 ADD PUSH3 0xD7F SWAP1 PUSH3 0x253A JUMP JUMPDEST PUSH1 0x40 MLOAD DUP1 SWAP2 SUB SWAP1 REVERT JUMPDEST POP POP POP POP POP POP POP POP POP POP POP JUMPDEST POP POP POP POP POP POP POP JUMP JUMPDEST PUSH1 0x0 PUSH20 0xFFFFFFFFFFFFFFFFFFFFFFFFFFFFFFFFFFFFFFFF AND PUSH1 0x4 PUSH1 0x0 CALLER PUSH20 0xFFFFFFFFFFFFFFFFFFFFFFFFFFFFFFFFFFFFFFFF AND PUSH20 0xFFFFFFFFFFFFFFFFFFFFFFFFFFFFFFFFFFFFFFFF AND DUP2 MSTORE PUSH1 0x20 ADD SWAP1 DUP2 MSTORE PUSH1 0x20 ADD PUSH1 0x0 KECCAK256 PUSH1 0x0 SWAP1 SLOAD SWAP1 PUSH2 0x100 EXP SWAP1 DIV PUSH20 0xFFFFFFFFFFFFFFFFFFFFFFFFFFFFFFFFFFFFFFFF AND PUSH20 0xFFFFFFFFFFFFFFFFFFFFFFFFFFFFFFFFFFFFFFFF AND SUB PUSH3 0xE6E JUMPI PUSH1 0x40 MLOAD PUSH32 0x8C379A000000000000000000000000000000000000000000000000000000000 DUP2 MSTORE PUSH1 0x4 ADD PUSH3 0xE65 SWAP1 PUSH3 0x25AC JUMP JUMPDEST PUSH1 0x40 MLOAD DUP1 SWAP2 SUB SWAP1 REVERT JUMPDEST PUSH1 0x0 DUP1 DUP3 PUSH20 0xFFFFFFFFFFFFFFFFFFFFFFFFFFFFFFFFFFFFFFFF AND PUSH1 0x4 PUSH1 0x0 CALLER PUSH20 0xFFFFFFFFFFFFFFFFFFFFFFFFFFFFFFFFFFFFFFFF AND PUSH20 0xFFFFFFFFFFFFFFFFFFFFFFFFFFFFFFFFFFFFFFFF AND DUP2 MSTORE PUSH1 0x20 ADD SWAP1 DUP2 MSTORE PUSH1 0x20 ADD PUSH1 0x0 KECCAK256 PUSH1 0x0 SWAP1 SLOAD SWAP1 PUSH2 0x100 EXP SWAP1 DIV PUSH20 0xFFFFFFFFFFFFFFFFFFFFFFFFFFFFFFFFFFFFFFFF AND PUSH1 0x1 PUSH1 0x40 MLOAD PUSH1 0x24 ADD PUSH3 0xEFD SWAP3 SWAP2 SWAP1 PUSH3 0x25DF JUMP JUMPDEST PUSH1 0x40 MLOAD PUSH1 0x20 DUP2 DUP4 SUB SUB DUP2 MSTORE SWAP1 PUSH1 0x40 MSTORE PUSH32 0xA22CB46500000000000000000000000000000000000000000000000000000000 PUSH28 0xFFFFFFFFFFFFFFFFFFFFFFFFFFFFFFFFFFFFFFFFFFFFFFFFFFFFFFFF NOT AND PUSH1 0x20 DUP3 ADD DUP1 MLOAD PUSH28 0xFFFFFFFFFFFFFFFFFFFFFFFFFFFFFFFFFFFFFFFFFFFFFFFFFFFFFFFF DUP4 DUP2 DUP4 AND OR DUP4 MSTORE POP POP POP POP PUSH1 0x40 MLOAD PUSH3 0xF89 SWAP2 SWAP1 PUSH3 0x2213 JUMP JUMPDEST PUSH1 0x0 PUSH1 0x40 MLOAD DUP1 DUP4 SUB DUP2 DUP6 GAS DELEGATECALL SWAP2 POP POP RETURNDATASIZE DUP1 PUSH1 0x0 DUP2 EQ PUSH3 0xFC6 JUMPI PUSH1 0x40 MLOAD SWAP2 POP PUSH1 0x1F NOT PUSH1 0x3F RETURNDATASIZE ADD AND DUP3 ADD PUSH1 0x40 MSTORE RETURNDATASIZE DUP3 MSTORE RETURNDATASIZE PUSH1 0x0 PUSH1 0x20 DUP5 ADD RETURNDATACOPY PUSH3 0xFCB JUMP JUMPDEST PUSH1 0x60 SWAP2 POP JUMPDEST POP SWAP2 POP SWAP2 POP POP POP POP JUMP JUMPDEST PUSH1 0x3 PUSH1 0x0 SWAP1 SLOAD SWAP1 PUSH2 0x100 EXP SWAP1 DIV PUSH20 0xFFFFFFFFFFFFFFFFFFFFFFFFFFFFFFFFFFFFFFFF AND PUSH20 0xFFFFFFFFFFFFFFFFFFFFFFFFFFFFFFFFFFFFFFFF AND CALLER PUSH20 0xFFFFFFFFFFFFFFFFFFFFFFFFFFFFFFFFFFFFFFFF AND EQ PUSH3 0x1068 JUMPI PUSH1 0x40 MLOAD PUSH32 0x8C379A000000000000000000000000000000000000000000000000000000000 DUP2 MSTORE PUSH1 0x4 ADD PUSH3 0x105F SWAP1 PUSH3 0x1DE6 JUMP JUMPDEST PUSH1 0x40 MLOAD DUP1 SWAP2 SUB SWAP1 REVERT JUMPDEST PUSH1 0x0 PUSH1 0x2 SLOAD SWAP1 POP DUP2 PUSH1 0x2 DUP2 SWAP1 SSTORE POP PUSH32 0x8D10D6DD6545B059182E4BF9534308BF75D7DE65CDD8A68C12B7B74F139E58AE DUP2 DUP4 PUSH1 0x40 MLOAD PUSH3 0x10A9 SWAP3 SWAP2 SWAP1 PUSH3 0x260C JUMP JUMPDEST PUSH1 0x40 MLOAD DUP1 SWAP2 SUB SWAP1 LOG1 POP POP JUMP JUMPDEST PUSH1 0x0 PUSH1 0x2 SLOAD SWAP1 POP SWAP1 JUMP JUMPDEST PUSH1 0x0 PUSH20 0xFFFFFFFFFFFFFFFFFFFFFFFFFFFFFFFFFFFFFFFF AND PUSH1 0x4 PUSH1 0x0 CALLER PUSH20 0xFFFFFFFFFFFFFFFFFFFFFFFFFFFFFFFFFFFFFFFF AND PUSH20 0xFFFFFFFFFFFFFFFFFFFFFFFFFFFFFFFFFFFFFFFF AND DUP2 MSTORE PUSH1 0x20 ADD SWAP1 DUP2 MSTORE PUSH1 0x20 ADD PUSH1 0x0 KECCAK256 PUSH1 0x0 SWAP1 SLOAD SWAP1 PUSH2 0x100 EXP SWAP1 DIV PUSH20 0xFFFFFFFFFFFFFFFFFFFFFFFFFFFFFFFFFFFFFFFF AND PUSH20 0xFFFFFFFFFFFFFFFFFFFFFFFFFFFFFFFFFFFFFFFF AND EQ PUSH3 0x1190 JUMPI PUSH1 0x40 MLOAD PUSH32 0x8C379A000000000000000000000000000000000000000000000000000000000 DUP2 MSTORE PUSH1 0x4 ADD PUSH3 0x1187 SWAP1 PUSH3 0x2689 JUMP JUMPDEST PUSH1 0x40 MLOAD DUP1 SWAP2 SUB SWAP1 REVERT JUMPDEST CALLER PUSH1 0x40 MLOAD PUSH3 0x119F SWAP1 PUSH3 0x17DC JUMP JUMPDEST PUSH3 0x11AB SWAP2 SWAP1 PUSH3 0x1D68 JUMP JUMPDEST PUSH1 0x40 MLOAD DUP1 SWAP2 SUB SWAP1 PUSH1 0x0 CREATE DUP1 ISZERO DUP1 ISZERO PUSH3 0x11C8 JUMPI RETURNDATASIZE PUSH1 0x0 DUP1 RETURNDATACOPY RETURNDATASIZE PUSH1 0x0 REVERT JUMPDEST POP PUSH1 0x0 DUP1 PUSH2 0x100 EXP DUP2 SLOAD DUP2 PUSH20 0xFFFFFFFFFFFFFFFFFFFFFFFFFFFFFFFFFFFFFFFF MUL NOT AND SWAP1 DUP4 PUSH20 0xFFFFFFFFFFFFFFFFFFFFFFFFFFFFFFFFFFFFFFFF AND MUL OR SWAP1 SSTORE POP PUSH1 0x0 DUP1 SLOAD SWAP1 PUSH2 0x100 EXP SWAP1 DIV PUSH20 0xFFFFFFFFFFFFFFFFFFFFFFFFFFFFFFFFFFFFFFFF AND PUSH1 0x4 PUSH1 0x0 CALLER PUSH20 0xFFFFFFFFFFFFFFFFFFFFFFFFFFFFFFFFFFFFFFFF AND PUSH20 0xFFFFFFFFFFFFFFFFFFFFFFFFFFFFFFFFFFFFFFFF AND DUP2 MSTORE PUSH1 0x20 ADD SWAP1 DUP2 MSTORE PUSH1 0x20 ADD PUSH1 0x0 KECCAK256 PUSH1 0x0 PUSH2 0x100 EXP DUP2 SLOAD DUP2 PUSH20 0xFFFFFFFFFFFFFFFFFFFFFFFFFFFFFFFFFFFFFFFF MUL NOT AND SWAP1 DUP4 PUSH20 0xFFFFFFFFFFFFFFFFFFFFFFFFFFFFFFFFFFFFFFFF AND MUL OR SWAP1 SSTORE POP JUMP JUMPDEST PUSH1 0x0 PUSH1 0x4 PUSH1 0x0 DUP4 PUSH20 0xFFFFFFFFFFFFFFFFFFFFFFFFFFFFFFFFFFFFFFFF AND PUSH20 0xFFFFFFFFFFFFFFFFFFFFFFFFFFFFFFFFFFFFFFFF AND DUP2 MSTORE PUSH1 0x20 ADD SWAP1 DUP2 MSTORE PUSH1 0x20 ADD PUSH1 0x0 KECCAK256 PUSH1 0x0 SWAP1 SLOAD SWAP1 PUSH2 0x100 EXP SWAP1 DIV PUSH20 0xFFFFFFFFFFFFFFFFFFFFFFFFFFFFFFFFFFFFFFFF AND SWAP1 POP SWAP2 SWAP1 POP JUMP JUMPDEST PUSH1 0x0 DUP1 PUSH1 0x4 PUSH1 0x0 DUP5 PUSH1 0x0 ADD MLOAD PUSH20 0xFFFFFFFFFFFFFFFFFFFFFFFFFFFFFFFFFFFFFFFF AND PUSH20 0xFFFFFFFFFFFFFFFFFFFFFFFFFFFFFFFFFFFFFFFF AND DUP2 MSTORE PUSH1 0x20 ADD SWAP1 DUP2 MSTORE PUSH1 0x20 ADD PUSH1 0x0 KECCAK256 PUSH1 0x0 SWAP1 SLOAD SWAP1 PUSH2 0x100 EXP SWAP1 DIV PUSH20 0xFFFFFFFFFFFFFFFFFFFFFFFFFFFFFFFFFFFFFFFF AND PUSH20 0xFFFFFFFFFFFFFFFFFFFFFFFFFFFFFFFFFFFFFFFF AND DUP4 PUSH1 0x40 MLOAD PUSH1 0x24 ADD PUSH3 0x13A1 SWAP2 SWAP1 PUSH3 0x26AB JUMP JUMPDEST PUSH1 0x40 MLOAD PUSH1 0x20 DUP2 DUP4 SUB SUB DUP2 MSTORE SWAP1 PUSH1 0x40 MSTORE PUSH32 0xDD30410400000000000000000000000000000000000000000000000000000000 PUSH28 0xFFFFFFFFFFFFFFFFFFFFFFFFFFFFFFFFFFFFFFFFFFFFFFFFFFFFFFFF NOT AND PUSH1 0x20 DUP3 ADD DUP1 MLOAD PUSH28 0xFFFFFFFFFFFFFFFFFFFFFFFFFFFFFFFFFFFFFFFFFFFFFFFFFFFFFFFF DUP4 DUP2 DUP4 AND OR DUP4 MSTORE POP POP POP POP PUSH1 0x40 MLOAD PUSH3 0x142D SWAP2 SWAP1 PUSH3 0x2213 JUMP JUMPDEST PUSH1 0x0 PUSH1 0x40 MLOAD DUP1 DUP4 SUB DUP2 PUSH1 0x0 DUP7 GAS CALL SWAP2 POP POP RETURNDATASIZE DUP1 PUSH1 0x0 DUP2 EQ PUSH3 0x146C JUMPI PUSH1 0x40 MLOAD SWAP2 POP PUSH1 0x1F NOT PUSH1 0x3F RETURNDATASIZE ADD AND DUP3 ADD PUSH1 0x40 MSTORE RETURNDATASIZE DUP3 MSTORE RETURNDATASIZE PUSH1 0x0 PUSH1 0x20 DUP5 ADD RETURNDATACOPY PUSH3 0x1471 JUMP JUMPDEST PUSH1 0x60 SWAP2 POP JUMPDEST POP SWAP2 POP SWAP2 POP DUP2 PUSH3 0x14B9 JUMPI PUSH1 0x40 MLOAD PUSH32 0x8C379A000000000000000000000000000000000000000000000000000000000 DUP2 MSTORE PUSH1 0x4 ADD PUSH3 0x14B0 SWAP1 PUSH3 0x271F JUMP JUMPDEST PUSH1 0x40 MLOAD DUP1 SWAP2 SUB SWAP1 REVERT JUMPDEST DUP3 PUSH1 0x20 ADD MLOAD PUSH20 0xFFFFFFFFFFFFFFFFFFFFFFFFFFFFFFFFFFFFFFFF AND DUP4 PUSH1 0x0 ADD MLOAD PUSH20 0xFFFFFFFFFFFFFFFFFFFFFFFFFFFFFFFFFFFFFFFF AND PUSH32 0x9B3260990101A9C5EB670B44BA2F4EC1048DDAF533A012ABFF3841EF15307FEC DUP6 PUSH1 0xC0 ADD MLOAD DUP7 PUSH1 0x40 ADD MLOAD PUSH1 0x40 MLOAD PUSH3 0x152A SWAP3 SWAP2 SWAP1 PUSH3 0x2076 JUMP JUMPDEST PUSH1 0x40 MLOAD DUP1 SWAP2 SUB SWAP1 LOG3 POP POP POP JUMP JUMPDEST PUSH1 0x0 DUP2 DUP4 PUSH3 0x1547 SWAP2 SWAP1 PUSH3 0x2741 JUMP JUMPDEST SWAP1 POP SWAP3 SWAP2 POP POP JUMP JUMPDEST PUSH1 0x0 DUP2 DUP4 PUSH3 0x155F SWAP2 SWAP1 PUSH3 0x27BB JUMP JUMPDEST SWAP1 POP SWAP3 SWAP2 POP POP JUMP JUMPDEST PUSH1 0x0 DUP1 DUP7 DUP7 DUP7 DUP6 PUSH1 0x40 MLOAD PUSH1 0x20 ADD PUSH3 0x1583 SWAP5 SWAP4 SWAP3 SWAP2 SWAP1 PUSH3 0x27F3 JUMP JUMPDEST PUSH1 0x40 MLOAD PUSH1 0x20 DUP2 DUP4 SUB SUB DUP2 MSTORE SWAP1 PUSH1 0x40 MSTORE DUP1 MLOAD SWAP1 PUSH1 0x20 ADD KECCAK256 SWAP1 POP PUSH1 0x0 DUP2 PUSH1 0x40 MLOAD PUSH1 0x20 ADD PUSH3 0x15B0 SWAP2 SWAP1 PUSH3 0x28C9 JUMP JUMPDEST PUSH1 0x40 MLOAD PUSH1 0x20 DUP2 DUP4 SUB SUB DUP2 MSTORE SWAP1 PUSH1 0x40 MSTORE DUP1 MLOAD SWAP1 PUSH1 0x20 ADD KECCAK256 SWAP1 POP DUP9 PUSH20 0xFFFFFFFFFFFFFFFFFFFFFFFFFFFFFFFFFFFFFFFF AND PUSH3 0x15EB DUP3 DUP8 PUSH3 0x1742 JUMP JUMPDEST PUSH20 0xFFFFFFFFFFFFFFFFFFFFFFFFFFFFFFFFFFFFFFFF AND EQ SWAP3 POP POP POP SWAP7 SWAP6 POP POP POP POP POP POP JUMP JUMPDEST DUP1 PUSH1 0x20 ADD MLOAD PUSH20 0xFFFFFFFFFFFFFFFFFFFFFFFFFFFFFFFFFFFFFFFF AND CALLER PUSH20 0xFFFFFFFFFFFFFFFFFFFFFFFFFFFFFFFFFFFFFFFF AND DUP3 PUSH1 0x0 ADD MLOAD PUSH20 0xFFFFFFFFFFFFFFFFFFFFFFFFFFFFFFFFFFFFFFFF AND PUSH32 0x467F50BD8D1547CF60E60DBA76AB3FF7F8B3A07CEBA26C2268E160A7DF30230E DUP5 PUSH1 0x40 ADD MLOAD DUP6 PUSH1 0xC0 ADD MLOAD DUP7 PUSH1 0x60 ADD MLOAD PUSH1 0x40 MLOAD PUSH3 0x169E SWAP4 SWAP3 SWAP2 SWAP1 PUSH3 0x28F3 JUMP JUMPDEST PUSH1 0x40 MLOAD DUP1 SWAP2 SUB SWAP1 LOG4 POP JUMP JUMPDEST DUP1 PUSH1 0x20 ADD MLOAD PUSH20 0xFFFFFFFFFFFFFFFFFFFFFFFFFFFFFFFFFFFFFFFF AND CALLER PUSH20 0xFFFFFFFFFFFFFFFFFFFFFFFFFFFFFFFFFFFFFFFF AND DUP3 PUSH1 0x0 ADD MLOAD PUSH20 0xFFFFFFFFFFFFFFFFFFFFFFFFFFFFFFFFFFFFFFFF AND PUSH32 0x9BD8CC9F795935D6F423445D18DD997EDFEEC3D962973FADFFEAC5740E876B5F DUP5 PUSH1 0x40 ADD MLOAD DUP6 PUSH1 0xC0 ADD MLOAD DUP7 PUSH1 0x60 ADD MLOAD PUSH1 0x40 MLOAD PUSH3 0x1737 SWAP4 SWAP3 SWAP2 SWAP1 PUSH3 0x28F3 JUMP JUMPDEST PUSH1 0x40 MLOAD DUP1 SWAP2 SUB SWAP1 LOG4 POP JUMP JUMPDEST PUSH1 0x0 DUP1 PUSH1 0x0 DUP1 PUSH1 0x20 DUP6 ADD MLOAD SWAP3 POP PUSH1 0x40 DUP6 ADD MLOAD SWAP2 POP PUSH1 0x60 DUP6 ADD MLOAD PUSH1 0x0 BYTE SWAP1 POP PUSH1 0x1B DUP2 PUSH1 0xFF AND LT ISZERO PUSH3 0x177F JUMPI PUSH1 0x1B DUP2 PUSH3 0x177C SWAP2 SWAP1 PUSH3 0x293D JUMP JUMPDEST SWAP1 POP JUMPDEST PUSH1 0x1 DUP7 DUP3 DUP6 DUP6 PUSH1 0x40 MLOAD PUSH1 0x0 DUP2 MSTORE PUSH1 0x20 ADD PUSH1 0x40 MSTORE PUSH1 0x40 MLOAD PUSH3 0x17A4 SWAP5 SWAP4 SWAP3 SWAP2 SWAP1 PUSH3 0x298A JUMP JUMPDEST PUSH1 0x20 PUSH1 0x40 MLOAD PUSH1 0x20 DUP2 SUB SWAP1 DUP1 DUP5 SUB SWAP1 DUP6 GAS STATICCALL ISZERO DUP1 ISZERO PUSH3 0x17C7 JUMPI RETURNDATASIZE PUSH1 0x0 DUP1 RETURNDATACOPY RETURNDATASIZE PUSH1 0x0 REVERT JUMPDEST POP POP POP PUSH1 0x20 PUSH1 0x40 MLOAD SUB MLOAD SWAP4 POP POP POP POP SWAP3 SWAP2 POP POP JUMP JUMPDEST PUSH2 0xEBE DUP1 PUSH3 0x29D8 DUP4 CODECOPY ADD SWAP1 JUMP JUMPDEST PUSH1 0x0 PUSH1 0x40 MLOAD SWAP1 POP SWAP1 JUMP JUMPDEST PUSH1 0x0 DUP1 REVERT JUMPDEST PUSH1 0x0 DUP1 REVERT JUMPDEST PUSH1 0x0 PUSH20 0xFFFFFFFFFFFFFFFFFFFFFFFFFFFFFFFFFFFFFFFF DUP3 AND SWAP1 POP SWAP2 SWAP1 POP JUMP JUMPDEST PUSH1 0x0 PUSH3 0x182B DUP3 PUSH3 0x17FE JUMP JUMPDEST SWAP1 POP SWAP2 SWAP1 POP JUMP JUMPDEST PUSH3 0x183D DUP2 PUSH3 0x181E JUMP JUMPDEST DUP2 EQ PUSH3 0x1849 JUMPI PUSH1 0x0 DUP1 REVERT JUMPDEST POP JUMP JUMPDEST PUSH1 0x0 DUP2 CALLDATALOAD SWAP1 POP PUSH3 0x185D DUP2 PUSH3 0x1832 JUMP JUMPDEST SWAP3 SWAP2 POP POP JUMP JUMPDEST PUSH1 0x0 PUSH1 0x20 DUP3 DUP5 SUB SLT ISZERO PUSH3 0x187C JUMPI PUSH3 0x187B PUSH3 0x17F4 JUMP JUMPDEST JUMPDEST PUSH1 0x0 PUSH3 0x188C DUP5 DUP3 DUP6 ADD PUSH3 0x184C JUMP JUMPDEST SWAP2 POP POP SWAP3 SWAP2 POP POP JUMP JUMPDEST PUSH1 0x0 DUP1 REVERT JUMPDEST PUSH1 0x0 PUSH1 0x1F NOT PUSH1 0x1F DUP4 ADD AND SWAP1 POP SWAP2 SWAP1 POP JUMP JUMPDEST PUSH32 0x4E487B7100000000000000000000000000000000000000000000000000000000 PUSH1 0x0 MSTORE PUSH1 0x41 PUSH1 0x4 MSTORE PUSH1 0x24 PUSH1 0x0 REVERT JUMPDEST PUSH3 0x18E5 DUP3 PUSH3 0x189A JUMP JUMPDEST DUP2 ADD DUP2 DUP2 LT PUSH8 0xFFFFFFFFFFFFFFFF DUP3 GT OR ISZERO PUSH3 0x1907 JUMPI PUSH3 0x1906 PUSH3 0x18AB JUMP JUMPDEST JUMPDEST DUP1 PUSH1 0x40 MSTORE POP POP POP JUMP JUMPDEST PUSH1 0x0 PUSH3 0x191C PUSH3 0x17EA JUMP JUMPDEST SWAP1 POP PUSH3 0x192A DUP3 DUP3 PUSH3 0x18DA JUMP JUMPDEST SWAP2 SWAP1 POP JUMP JUMPDEST PUSH1 0x0 DUP1 REVERT JUMPDEST PUSH1 0x0 PUSH3 0x1941 DUP3 PUSH3 0x17FE JUMP JUMPDEST SWAP1 POP SWAP2 SWAP1 POP JUMP JUMPDEST PUSH3 0x1953 DUP2 PUSH3 0x1934 JUMP JUMPDEST DUP2 EQ PUSH3 0x195F JUMPI PUSH1 0x0 DUP1 REVERT JUMPDEST POP JUMP JUMPDEST PUSH1 0x0 DUP2 CALLDATALOAD SWAP1 POP PUSH3 0x1973 DUP2 PUSH3 0x1948 JUMP JUMPDEST SWAP3 SWAP2 POP POP JUMP JUMPDEST PUSH1 0x0 DUP2 SWAP1 POP SWAP2 SWAP1 POP JUMP JUMPDEST PUSH3 0x198E DUP2 PUSH3 0x1979 JUMP JUMPDEST DUP2 EQ PUSH3 0x199A JUMPI PUSH1 0x0 DUP1 REVERT JUMPDEST POP JUMP JUMPDEST PUSH1 0x0 DUP2 CALLDATALOAD SWAP1 POP PUSH3 0x19AE DUP2 PUSH3 0x1983 JUMP JUMPDEST SWAP3 SWAP2 POP POP JUMP JUMPDEST PUSH1 0x0 DUP1 REVERT JUMPDEST PUSH1 0x0 DUP1 REVERT JUMPDEST PUSH1 0x0 PUSH8 0xFFFFFFFFFFFFFFFF DUP3 GT ISZERO PUSH3 0x19DC JUMPI PUSH3 0x19DB PUSH3 0x18AB JUMP JUMPDEST JUMPDEST PUSH3 0x19E7 DUP3 PUSH3 0x189A JUMP JUMPDEST SWAP1 POP PUSH1 0x20 DUP2 ADD SWAP1 POP SWAP2 SWAP1 POP JUMP JUMPDEST DUP3 DUP2 DUP4 CALLDATACOPY PUSH1 0x0 DUP4 DUP4 ADD MSTORE POP POP POP JUMP JUMPDEST PUSH1 0x0 PUSH3 0x1A1A PUSH3 0x1A14 DUP5 PUSH3 0x19BE JUMP JUMPDEST PUSH3 0x1910 JUMP JUMPDEST SWAP1 POP DUP3 DUP2 MSTORE PUSH1 0x20 DUP2 ADD DUP5 DUP5 DUP5 ADD GT ISZERO PUSH3 0x1A39 JUMPI PUSH3 0x1A38 PUSH3 0x19B9 JUMP JUMPDEST JUMPDEST PUSH3 0x1A46 DUP5 DUP3 DUP6 PUSH3 0x19F4 JUMP JUMPDEST POP SWAP4 SWAP3 POP POP POP JUMP JUMPDEST PUSH1 0x0 DUP3 PUSH1 0x1F DUP4 ADD SLT PUSH3 0x1A66 JUMPI PUSH3 0x1A65 PUSH3 0x19B4 JUMP JUMPDEST JUMPDEST DUP2 CALLDATALOAD PUSH3 0x1A78 DUP5 DUP3 PUSH1 0x20 DUP7 ADD PUSH3 0x1A03 JUMP JUMPDEST SWAP2 POP POP SWAP3 SWAP2 POP POP JUMP JUMPDEST PUSH1 0x0 DUP2 SWAP1 POP SWAP2 SWAP1 POP JUMP JUMPDEST PUSH3 0x1A96 DUP2 PUSH3 0x1A81 JUMP JUMPDEST DUP2 EQ PUSH3 0x1AA2 JUMPI PUSH1 0x0 DUP1 REVERT JUMPDEST POP JUMP JUMPDEST PUSH1 0x0 DUP2 CALLDATALOAD SWAP1 POP PUSH3 0x1AB6 DUP2 PUSH3 0x1A8B JUMP JUMPDEST SWAP3 SWAP2 POP POP JUMP JUMPDEST PUSH1 0x0 PUSH1 0xE0 DUP3 DUP5 SUB SLT ISZERO PUSH3 0x1AD5 JUMPI PUSH3 0x1AD4 PUSH3 0x1895 JUMP JUMPDEST JUMPDEST PUSH3 0x1AE1 PUSH1 0xE0 PUSH3 0x1910 JUMP JUMPDEST SWAP1 POP PUSH1 0x0 PUSH3 0x1AF3 DUP5 DUP3 DUP6 ADD PUSH3 0x1962 JUMP JUMPDEST PUSH1 0x0 DUP4 ADD MSTORE POP PUSH1 0x20 PUSH3 0x1B09 DUP5 DUP3 DUP6 ADD PUSH3 0x1962 JUMP JUMPDEST PUSH1 0x20 DUP4 ADD MSTORE POP PUSH1 0x40 PUSH3 0x1B1F DUP5 DUP3 DUP6 ADD PUSH3 0x199D JUMP JUMPDEST PUSH1 0x40 DUP4 ADD MSTORE POP PUSH1 0x60 PUSH3 0x1B35 DUP5 DUP3 DUP6 ADD PUSH3 0x199D JUMP JUMPDEST PUSH1 0x60 DUP4 ADD MSTORE POP PUSH1 0x80 DUP3 ADD CALLDATALOAD PUSH8 0xFFFFFFFFFFFFFFFF DUP2 GT ISZERO PUSH3 0x1B5C JUMPI PUSH3 0x1B5B PUSH3 0x192F JUMP JUMPDEST JUMPDEST PUSH3 0x1B6A DUP5 DUP3 DUP6 ADD PUSH3 0x1A4E JUMP JUMPDEST PUSH1 0x80 DUP4 ADD MSTORE POP PUSH1 0xA0 PUSH3 0x1B80 DUP5 DUP3 DUP6 ADD PUSH3 0x199D JUMP JUMPDEST PUSH1 0xA0 DUP4 ADD MSTORE POP PUSH1 0xC0 PUSH3 0x1B96 DUP5 DUP3 DUP6 ADD PUSH3 0x1AA5 JUMP JUMPDEST PUSH1 0xC0 DUP4 ADD MSTORE POP SWAP3 SWAP2 POP POP JUMP JUMPDEST PUSH1 0x0 PUSH1 0x20 DUP3 DUP5 SUB SLT ISZERO PUSH3 0x1BBB JUMPI PUSH3 0x1BBA PUSH3 0x17F4 JUMP JUMPDEST JUMPDEST PUSH1 0x0 DUP3 ADD CALLDATALOAD PUSH8 0xFFFFFFFFFFFFFFFF DUP2 GT ISZERO PUSH3 0x1BDC JUMPI PUSH3 0x1BDB PUSH3 0x17F9 JUMP JUMPDEST JUMPDEST PUSH3 0x1BEA DUP5 DUP3 DUP6 ADD PUSH3 0x1ABC JUMP JUMPDEST SWAP2 POP POP SWAP3 SWAP2 POP POP JUMP JUMPDEST PUSH1 0x0 DUP1 PUSH1 0x0 DUP1 PUSH1 0x0 DUP1 PUSH1 0x0 PUSH1 0xE0 DUP9 DUP11 SUB SLT ISZERO PUSH3 0x1C15 JUMPI PUSH3 0x1C14 PUSH3 0x17F4 JUMP JUMPDEST JUMPDEST PUSH1 0x0 PUSH3 0x1C25 DUP11 DUP3 DUP12 ADD PUSH3 0x1962 JUMP JUMPDEST SWAP8 POP POP PUSH1 0x20 PUSH3 0x1C38 DUP11 DUP3 DUP12 ADD PUSH3 0x1962 JUMP JUMPDEST SWAP7 POP POP PUSH1 0x40 PUSH3 0x1C4B DUP11 DUP3 DUP12 ADD PUSH3 0x199D JUMP JUMPDEST SWAP6 POP POP PUSH1 0x60 PUSH3 0x1C5E DUP11 DUP3 DUP12 ADD PUSH3 0x199D JUMP JUMPDEST SWAP5 POP POP PUSH1 0x80 DUP9 ADD CALLDATALOAD PUSH8 0xFFFFFFFFFFFFFFFF DUP2 GT ISZERO PUSH3 0x1C82 JUMPI PUSH3 0x1C81 PUSH3 0x17F9 JUMP JUMPDEST JUMPDEST PUSH3 0x1C90 DUP11 DUP3 DUP12 ADD PUSH3 0x1A4E JUMP JUMPDEST SWAP4 POP POP PUSH1 0xA0 PUSH3 0x1CA3 DUP11 DUP3 DUP12 ADD PUSH3 0x199D JUMP JUMPDEST SWAP3 POP POP PUSH1 0xC0 PUSH3 0x1CB6 DUP11 DUP3 DUP12 ADD PUSH3 0x1AA5 JUMP JUMPDEST SWAP2 POP POP SWAP3 SWAP6 SWAP9 SWAP2 SWAP5 SWAP8 POP SWAP3 SWAP6 POP JUMP JUMPDEST PUSH1 0x0 PUSH1 0x20 DUP3 DUP5 SUB SLT ISZERO PUSH3 0x1CDE JUMPI PUSH3 0x1CDD PUSH3 0x17F4 JUMP JUMPDEST JUMPDEST PUSH1 0x0 PUSH3 0x1CEE DUP5 DUP3 DUP6 ADD PUSH3 0x1962 JUMP JUMPDEST SWAP2 POP POP SWAP3 SWAP2 POP POP JUMP JUMPDEST PUSH1 0x0 PUSH1 0x20 DUP3 DUP5 SUB SLT ISZERO PUSH3 0x1D10 JUMPI PUSH3 0x1D0F PUSH3 0x17F4 JUMP JUMPDEST JUMPDEST PUSH1 0x0 PUSH3 0x1D20 DUP5 DUP3 DUP6 ADD PUSH3 0x199D JUMP JUMPDEST SWAP2 POP POP SWAP3 SWAP2 POP POP JUMP JUMPDEST PUSH3 0x1D34 DUP2 PUSH3 0x1979 JUMP JUMPDEST DUP3 MSTORE POP POP JUMP JUMPDEST PUSH1 0x0 PUSH1 0x20 DUP3 ADD SWAP1 POP PUSH3 0x1D51 PUSH1 0x0 DUP4 ADD DUP5 PUSH3 0x1D29 JUMP JUMPDEST SWAP3 SWAP2 POP POP JUMP JUMPDEST PUSH3 0x1D62 DUP2 PUSH3 0x1934 JUMP JUMPDEST DUP3 MSTORE POP POP JUMP JUMPDEST PUSH1 0x0 PUSH1 0x20 DUP3 ADD SWAP1 POP PUSH3 0x1D7F PUSH1 0x0 DUP4 ADD DUP5 PUSH3 0x1D57 JUMP JUMPDEST SWAP3 SWAP2 POP POP JUMP JUMPDEST PUSH1 0x0 DUP3 DUP3 MSTORE PUSH1 0x20 DUP3 ADD SWAP1 POP SWAP3 SWAP2 POP POP JUMP JUMPDEST PUSH32 0x6F6E6C79206F776E65722063616E2063616C6C20746869730000000000000000 PUSH1 0x0 DUP3 ADD MSTORE POP JUMP JUMPDEST PUSH1 0x0 PUSH3 0x1DCE PUSH1 0x18 DUP4 PUSH3 0x1D85 JUMP JUMPDEST SWAP2 POP PUSH3 0x1DDB DUP3 PUSH3 0x1D96 JUMP JUMPDEST PUSH1 0x20 DUP3 ADD SWAP1 POP SWAP2 SWAP1 POP JUMP JUMPDEST PUSH1 0x0 PUSH1 0x20 DUP3 ADD SWAP1 POP DUP2 DUP2 SUB PUSH1 0x0 DUP4 ADD MSTORE PUSH3 0x1E01 DUP2 PUSH3 0x1DBF JUMP JUMPDEST SWAP1 POP SWAP2 SWAP1 POP JUMP JUMPDEST PUSH32 0x4F6E6C792073656C6C65722063616E2063616C6C20746869732066756E637469 PUSH1 0x0 DUP3 ADD MSTORE PUSH32 0x6F6E000000000000000000000000000000000000000000000000000000000000 PUSH1 0x20 DUP3 ADD MSTORE POP JUMP JUMPDEST PUSH1 0x0 PUSH3 0x1E66 PUSH1 0x22 DUP4 PUSH3 0x1D85 JUMP JUMPDEST SWAP2 POP PUSH3 0x1E73 DUP3 PUSH3 0x1E08 JUMP JUMPDEST PUSH1 0x40 DUP3 ADD SWAP1 POP SWAP2 SWAP1 POP JUMP JUMPDEST PUSH1 0x0 PUSH1 0x20 DUP3 ADD SWAP1 POP DUP2 DUP2 SUB PUSH1 0x0 DUP4 ADD MSTORE PUSH3 0x1E99 DUP2 PUSH3 0x1E57 JUMP JUMPDEST SWAP1 POP SWAP2 SWAP1 POP JUMP JUMPDEST PUSH32 0x496E76616C6964207369676E6174757265000000000000000000000000000000 PUSH1 0x0 DUP3 ADD MSTORE POP JUMP JUMPDEST PUSH1 0x0 PUSH3 0x1ED8 PUSH1 0x11 DUP4 PUSH3 0x1D85 JUMP JUMPDEST SWAP2 POP PUSH3 0x1EE5 DUP3 PUSH3 0x1EA0 JUMP JUMPDEST PUSH1 0x20 DUP3 ADD SWAP1 POP SWAP2 SWAP1 POP JUMP JUMPDEST PUSH1 0x0 PUSH1 0x20 DUP3 ADD SWAP1 POP DUP2 DUP2 SUB PUSH1 0x0 DUP4 ADD MSTORE PUSH3 0x1F0B DUP2 PUSH3 0x1EC9 JUMP JUMPDEST SWAP1 POP SWAP2 SWAP1 POP JUMP JUMPDEST PUSH32 0x50726F78792077616C6C6574206E6F7420666F756E6400000000000000000000 PUSH1 0x0 DUP3 ADD MSTORE POP JUMP JUMPDEST PUSH1 0x0 PUSH3 0x1F4A PUSH1 0x16 DUP4 PUSH3 0x1D85 JUMP JUMPDEST SWAP2 POP PUSH3 0x1F57 DUP3 PUSH3 0x1F12 JUMP JUMPDEST PUSH1 0x20 DUP3 ADD SWAP1 POP SWAP2 SWAP1 POP JUMP JUMPDEST PUSH1 0x0 PUSH1 0x20 DUP3 ADD SWAP1 POP DUP2 DUP2 SUB PUSH1 0x0 DUP4 ADD MSTORE PUSH3 0x1F7D DUP2 PUSH3 0x1F3B JUMP JUMPDEST SWAP1 POP SWAP2 SWAP1 POP JUMP JUMPDEST PUSH1 0x0 DUP2 MLOAD SWAP1 POP PUSH3 0x1F95 DUP2 PUSH3 0x1948 JUMP JUMPDEST SWAP3 SWAP2 POP POP JUMP JUMPDEST PUSH1 0x0 PUSH1 0x20 DUP3 DUP5 SUB SLT ISZERO PUSH3 0x1FB4 JUMPI PUSH3 0x1FB3 PUSH3 0x17F4 JUMP JUMPDEST JUMPDEST PUSH1 0x0 PUSH3 0x1FC4 DUP5 DUP3 DUP6 ADD PUSH3 0x1F84 JUMP JUMPDEST SWAP2 POP POP SWAP3 SWAP2 POP POP JUMP JUMPDEST PUSH32 0x53656C6C6572206973206E6F7420746865206F776E6572206F66207468697320 PUSH1 0x0 DUP3 ADD MSTORE PUSH32 0x746F6B656E000000000000000000000000000000000000000000000000000000 PUSH1 0x20 DUP3 ADD MSTORE POP JUMP JUMPDEST PUSH1 0x0 PUSH3 0x202B PUSH1 0x25 DUP4 PUSH3 0x1D85 JUMP JUMPDEST SWAP2 POP PUSH3 0x2038 DUP3 PUSH3 0x1FCD JUMP JUMPDEST PUSH1 0x40 DUP3 ADD SWAP1 POP SWAP2 SWAP1 POP JUMP JUMPDEST PUSH1 0x0 PUSH1 0x20 DUP3 ADD SWAP1 POP DUP2 DUP2 SUB PUSH1 0x0 DUP4 ADD MSTORE PUSH3 0x205E DUP2 PUSH3 0x201C JUMP JUMPDEST SWAP1 POP SWAP2 SWAP1 POP JUMP JUMPDEST PUSH3 0x2070 DUP2 PUSH3 0x1A81 JUMP JUMPDEST DUP3 MSTORE POP POP JUMP JUMPDEST PUSH1 0x0 PUSH1 0x40 DUP3 ADD SWAP1 POP PUSH3 0x208D PUSH1 0x0 DUP4 ADD DUP6 PUSH3 0x2065 JUMP JUMPDEST PUSH3 0x209C PUSH1 0x20 DUP4 ADD DUP5 PUSH3 0x1D29 JUMP JUMPDEST SWAP4 SWAP3 POP POP POP JUMP JUMPDEST PUSH1 0x0 DUP2 PUSH1 0x60 SHL SWAP1 POP SWAP2 SWAP1 POP JUMP JUMPDEST PUSH1 0x0 PUSH3 0x20BD DUP3 PUSH3 0x20A3 JUMP JUMPDEST SWAP1 POP SWAP2 SWAP1 POP JUMP JUMPDEST PUSH1 0x0 PUSH3 0x20D1 DUP3 PUSH3 0x20B0 JUMP JUMPDEST SWAP1 POP SWAP2 SWAP1 POP JUMP JUMPDEST PUSH3 0x20ED PUSH3 0x20E7 DUP3 PUSH3 0x1934 JUMP JUMPDEST PUSH3 0x20C4 JUMP JUMPDEST DUP3 MSTORE POP POP JUMP JUMPDEST PUSH1 0x0 DUP2 SWAP1 POP SWAP2 SWAP1 POP JUMP JUMPDEST PUSH3 0x2112 PUSH3 0x210C DUP3 PUSH3 0x1979 JUMP JUMPDEST PUSH3 0x20F3 JUMP JUMPDEST DUP3 MSTORE POP POP JUMP JUMPDEST PUSH1 0x0 DUP2 MLOAD SWAP1 POP SWAP2 SWAP1 POP JUMP JUMPDEST PUSH1 0x0 DUP2 SWAP1 POP SWAP3 SWAP2 POP POP JUMP JUMPDEST PUSH1 0x0 JUMPDEST DUP4 DUP2 LT ISZERO PUSH3 0x214E JUMPI DUP1 DUP3 ADD MLOAD DUP2 DUP5 ADD MSTORE PUSH1 0x20 DUP2 ADD SWAP1 POP PUSH3 0x2131 JUMP JUMPDEST PUSH1 0x0 DUP5 DUP5 ADD MSTORE POP POP POP POP JUMP JUMPDEST PUSH1 0x0 PUSH3 0x2167 DUP3 PUSH3 0x2118 JUMP JUMPDEST PUSH3 0x2173 DUP2 DUP6 PUSH3 0x2123 JUMP JUMPDEST SWAP4 POP PUSH3 0x2185 DUP2 DUP6 PUSH1 0x20 DUP7 ADD PUSH3 0x212E JUMP JUMPDEST DUP1 DUP5 ADD SWAP2 POP POP SWAP3 SWAP2 POP POP JUMP JUMPDEST PUSH1 0x0 PUSH3 0x219F DUP3 DUP9 PUSH3 0x20D8 JUMP JUMPDEST PUSH1 0x14 DUP3 ADD SWAP2 POP PUSH3 0x21B1 DUP3 DUP8 PUSH3 0x20FD JUMP JUMPDEST PUSH1 0x20 DUP3 ADD SWAP2 POP PUSH3 0x21C3 DUP3 DUP7 PUSH3 0x20FD JUMP JUMPDEST PUSH1 0x20 DUP3 ADD SWAP2 POP PUSH3 0x21D5 DUP3 DUP6 PUSH3 0x20FD JUMP JUMPDEST PUSH1 0x20 DUP3 ADD SWAP2 POP PUSH3 0x21E7 DUP3 DUP5 PUSH3 0x215A JUMP JUMPDEST SWAP2 POP DUP2 SWAP1 POP SWAP7 SWAP6 POP POP POP POP POP POP JUMP JUMPDEST PUSH1 0x0 PUSH1 0x20 DUP3 ADD SWAP1 POP PUSH3 0x220D PUSH1 0x0 DUP4 ADD DUP5 PUSH3 0x2065 JUMP JUMPDEST SWAP3 SWAP2 POP POP JUMP JUMPDEST PUSH1 0x0 PUSH3 0x2221 DUP3 DUP5 PUSH3 0x215A JUMP JUMPDEST SWAP2 POP DUP2 SWAP1 POP SWAP3 SWAP2 POP POP JUMP JUMPDEST PUSH1 0x0 DUP2 ISZERO ISZERO SWAP1 POP SWAP2 SWAP1 POP JUMP JUMPDEST PUSH3 0x2243 DUP2 PUSH3 0x222C JUMP JUMPDEST DUP2 EQ PUSH3 0x224F JUMPI PUSH1 0x0 DUP1 REVERT JUMPDEST POP JUMP JUMPDEST PUSH1 0x0 DUP2 MLOAD SWAP1 POP PUSH3 0x2263 DUP2 PUSH3 0x2238 JUMP JUMPDEST SWAP3 SWAP2 POP POP JUMP JUMPDEST PUSH1 0x0 PUSH1 0x20 DUP3 DUP5 SUB SLT ISZERO PUSH3 0x2282 JUMPI PUSH3 0x2281 PUSH3 0x17F4 JUMP JUMPDEST JUMPDEST PUSH1 0x0 PUSH3 0x2292 DUP5 DUP3 DUP6 ADD PUSH3 0x2252 JUMP JUMPDEST SWAP2 POP POP SWAP3 SWAP2 POP POP JUMP JUMPDEST PUSH32 0x4F72646572206973206E6F742076616C69640000000000000000000000000000 PUSH1 0x0 DUP3 ADD MSTORE POP JUMP JUMPDEST PUSH1 0x0 PUSH3 0x22D3 PUSH1 0x12 DUP4 PUSH3 0x1D85 JUMP JUMPDEST SWAP2 POP PUSH3 0x22E0 DUP3 PUSH3 0x229B JUMP JUMPDEST PUSH1 0x20 DUP3 ADD SWAP1 POP SWAP2 SWAP1 POP JUMP JUMPDEST PUSH1 0x0 PUSH1 0x20 DUP3 ADD SWAP1 POP DUP2 DUP2 SUB PUSH1 0x0 DUP4 ADD MSTORE PUSH3 0x2306 DUP2 PUSH3 0x22C4 JUMP JUMPDEST SWAP1 POP SWAP2 SWAP1 POP JUMP JUMPDEST PUSH32 0x4E487B7100000000000000000000000000000000000000000000000000000000 PUSH1 0x0 MSTORE PUSH1 0x11 PUSH1 0x4 MSTORE PUSH1 0x24 PUSH1 0x0 REVERT JUMPDEST PUSH1 0x0 PUSH3 0x2349 DUP3 PUSH3 0x1979 JUMP JUMPDEST SWAP2 POP PUSH3 0x2356 DUP4 PUSH3 0x1979 JUMP JUMPDEST SWAP3 POP DUP3 DUP3 SUB SWAP1 POP DUP2 DUP2 GT ISZERO PUSH3 0x2371 JUMPI PUSH3 0x2370 PUSH3 0x230D JUMP JUMPDEST JUMPDEST SWAP3 SWAP2 POP POP JUMP JUMPDEST PUSH3 0x2382 DUP2 PUSH3 0x1934 JUMP JUMPDEST DUP3 MSTORE POP POP JUMP JUMPDEST PUSH3 0x2393 DUP2 PUSH3 0x1979 JUMP JUMPDEST DUP3 MSTORE POP POP JUMP JUMPDEST PUSH1 0x0 DUP3 DUP3 MSTORE PUSH1 0x20 DUP3 ADD SWAP1 POP SWAP3 SWAP2 POP POP JUMP JUMPDEST PUSH1 0x0 PUSH3 0x23B7 DUP3 PUSH3 0x2118 JUMP JUMPDEST PUSH3 0x23C3 DUP2 DUP6 PUSH3 0x2399 JUMP JUMPDEST SWAP4 POP PUSH3 0x23D5 DUP2 DUP6 PUSH1 0x20 DUP7 ADD PUSH3 0x212E JUMP JUMPDEST PUSH3 0x23E0 DUP2 PUSH3 0x189A JUMP JUMPDEST DUP5 ADD SWAP2 POP POP SWAP3 SWAP2 POP POP JUMP JUMPDEST PUSH3 0x23F6 DUP2 PUSH3 0x1A81 JUMP JUMPDEST DUP3 MSTORE POP POP JUMP JUMPDEST PUSH1 0x0 PUSH1 0xE0 DUP4 ADD PUSH1 0x0 DUP4 ADD MLOAD PUSH3 0x2416 PUSH1 0x0 DUP7 ADD DUP3 PUSH3 0x2377 JUMP JUMPDEST POP PUSH1 0x20 DUP4 ADD MLOAD PUSH3 0x242B PUSH1 0x20 DUP7 ADD DUP3 PUSH3 0x2377 JUMP JUMPDEST POP PUSH1 0x40 DUP4 ADD MLOAD PUSH3 0x2440 PUSH1 0x40 DUP7 ADD DUP3 PUSH3 0x2388 JUMP JUMPDEST POP PUSH1 0x60 DUP4 ADD MLOAD PUSH3 0x2455 PUSH1 0x60 DUP7 ADD DUP3 PUSH3 0x2388 JUMP JUMPDEST POP PUSH1 0x80 DUP4 ADD MLOAD DUP5 DUP3 SUB PUSH1 0x80 DUP7 ADD MSTORE PUSH3 0x246F DUP3 DUP3 PUSH3 0x23AA JUMP JUMPDEST SWAP2 POP POP PUSH1 0xA0 DUP4 ADD MLOAD PUSH3 0x2486 PUSH1 0xA0 DUP7 ADD DUP3 PUSH3 0x2388 JUMP JUMPDEST POP PUSH1 0xC0 DUP4 ADD MLOAD PUSH3 0x249B PUSH1 0xC0 DUP7 ADD DUP3 PUSH3 0x23EB JUMP JUMPDEST POP DUP1 SWAP2 POP POP SWAP3 SWAP2 POP POP JUMP JUMPDEST PUSH1 0x0 PUSH1 0x60 DUP3 ADD SWAP1 POP DUP2 DUP2 SUB PUSH1 0x0 DUP4 ADD MSTORE PUSH3 0x24C2 DUP2 DUP7 PUSH3 0x23FC JUMP JUMPDEST SWAP1 POP PUSH3 0x24D3 PUSH1 0x20 DUP4 ADD DUP6 PUSH3 0x1D29 JUMP JUMPDEST PUSH3 0x24E2 PUSH1 0x40 DUP4 ADD DUP5 PUSH3 0x1D57 JUMP JUMPDEST SWAP5 SWAP4 POP POP POP POP JUMP JUMPDEST PUSH32 0x6D617463686661696C0000000000000000000000000000000000000000000000 PUSH1 0x0 DUP3 ADD MSTORE POP JUMP JUMPDEST PUSH1 0x0 PUSH3 0x2522 PUSH1 0x9 DUP4 PUSH3 0x1D85 JUMP JUMPDEST SWAP2 POP PUSH3 0x252F DUP3 PUSH3 0x24EA JUMP JUMPDEST PUSH1 0x20 DUP3 ADD SWAP1 POP SWAP2 SWAP1 POP JUMP JUMPDEST PUSH1 0x0 PUSH1 0x20 DUP3 ADD SWAP1 POP DUP2 DUP2 SUB PUSH1 0x0 DUP4 ADD MSTORE PUSH3 0x2555 DUP2 PUSH3 0x2513 JUMP JUMPDEST SWAP1 POP SWAP2 SWAP1 POP JUMP JUMPDEST PUSH32 0x6E6F2070726F78792077616C6C65740000000000000000000000000000000000 PUSH1 0x0 DUP3 ADD MSTORE POP JUMP JUMPDEST PUSH1 0x0 PUSH3 0x2594 PUSH1 0xF DUP4 PUSH3 0x1D85 JUMP JUMPDEST SWAP2 POP PUSH3 0x25A1 DUP3 PUSH3 0x255C JUMP JUMPDEST PUSH1 0x20 DUP3 ADD SWAP1 POP SWAP2 SWAP1 POP JUMP JUMPDEST PUSH1 0x0 PUSH1 0x20 DUP3 ADD SWAP1 POP DUP2 DUP2 SUB PUSH1 0x0 DUP4 ADD MSTORE PUSH3 0x25C7 DUP2 PUSH3 0x2585 JUMP JUMPDEST SWAP1 POP SWAP2 SWAP1 POP JUMP JUMPDEST PUSH3 0x25D9 DUP2 PUSH3 0x222C JUMP JUMPDEST DUP3 MSTORE POP POP JUMP JUMPDEST PUSH1 0x0 PUSH1 0x40 DUP3 ADD SWAP1 POP PUSH3 0x25F6 PUSH1 0x0 DUP4 ADD DUP6 PUSH3 0x1D57 JUMP JUMPDEST PUSH3 0x2605 PUSH1 0x20 DUP4 ADD DUP5 PUSH3 0x25CE JUMP JUMPDEST SWAP4 SWAP3 POP POP POP JUMP JUMPDEST PUSH1 0x0 PUSH1 0x40 DUP3 ADD SWAP1 POP PUSH3 0x2623 PUSH1 0x0 DUP4 ADD DUP6 PUSH3 0x1D29 JUMP JUMPDEST PUSH3 0x2632 PUSH1 0x20 DUP4 ADD DUP5 PUSH3 0x1D29 JUMP JUMPDEST SWAP4 SWAP3 POP POP POP JUMP JUMPDEST PUSH32 0x50726F78792077616C6C657420616C7265616479206578697374730000000000 PUSH1 0x0 DUP3 ADD MSTORE POP JUMP JUMPDEST PUSH1 0x0 PUSH3 0x2671 PUSH1 0x1B DUP4 PUSH3 0x1D85 JUMP JUMPDEST SWAP2 POP PUSH3 0x267E DUP3 PUSH3 0x2639 JUMP JUMPDEST PUSH1 0x20 DUP3 ADD SWAP1 POP SWAP2 SWAP1 POP JUMP JUMPDEST PUSH1 0x0 PUSH1 0x20 DUP3 ADD SWAP1 POP DUP2 DUP2 SUB PUSH1 0x0 DUP4 ADD MSTORE PUSH3 0x26A4 DUP2 PUSH3 0x2662 JUMP JUMPDEST SWAP1 POP SWAP2 SWAP1 POP JUMP JUMPDEST PUSH1 0x0 PUSH1 0x20 DUP3 ADD SWAP1 POP DUP2 DUP2 SUB PUSH1 0x0 DUP4 ADD MSTORE PUSH3 0x26C7 DUP2 DUP5 PUSH3 0x23FC JUMP JUMPDEST SWAP1 POP SWAP3 SWAP2 POP POP JUMP JUMPDEST PUSH32 0x43616E63656C2073656C6C206F72646572206661696C65640000000000000000 PUSH1 0x0 DUP3 ADD MSTORE POP JUMP JUMPDEST PUSH1 0x0 PUSH3 0x2707 PUSH1 0x18 DUP4 PUSH3 0x1D85 JUMP JUMPDEST SWAP2 POP PUSH3 0x2714 DUP3 PUSH3 0x26CF JUMP JUMPDEST PUSH1 0x20 DUP3 ADD SWAP1 POP SWAP2 SWAP1 POP JUMP JUMPDEST PUSH1 0x0 PUSH1 0x20 DUP3 ADD SWAP1 POP DUP2 DUP2 SUB PUSH1 0x0 DUP4 ADD MSTORE PUSH3 0x273A DUP2 PUSH3 0x26F8 JUMP JUMPDEST SWAP1 POP SWAP2 SWAP1 POP JUMP JUMPDEST PUSH1 0x0 PUSH3 0x274E DUP3 PUSH3 0x1979 JUMP JUMPDEST SWAP2 POP PUSH3 0x275B DUP4 PUSH3 0x1979 JUMP JUMPDEST SWAP3 POP DUP3 DUP3 MUL PUSH3 0x276B DUP2 PUSH3 0x1979 JUMP JUMPDEST SWAP2 POP DUP3 DUP3 DIV DUP5 EQ DUP4 ISZERO OR PUSH3 0x2785 JUMPI PUSH3 0x2784 PUSH3 0x230D JUMP JUMPDEST JUMPDEST POP SWAP3 SWAP2 POP POP JUMP JUMPDEST PUSH32 0x4E487B7100000000000000000000000000000000000000000000000000000000 PUSH1 0x0 MSTORE PUSH1 0x12 PUSH1 0x4 MSTORE PUSH1 0x24 PUSH1 0x0 REVERT JUMPDEST PUSH1 0x0 PUSH3 0x27C8 DUP3 PUSH3 0x1979 JUMP JUMPDEST SWAP2 POP PUSH3 0x27D5 DUP4 PUSH3 0x1979 JUMP JUMPDEST SWAP3 POP DUP3 PUSH3 0x27E8 JUMPI PUSH3 0x27E7 PUSH3 0x278C JUMP JUMPDEST JUMPDEST DUP3 DUP3 DIV SWAP1 POP SWAP3 SWAP2 POP POP JUMP JUMPDEST PUSH1 0x0 PUSH3 0x2801 DUP3 DUP8 PUSH3 0x20D8 JUMP JUMPDEST PUSH1 0x14 DUP3 ADD SWAP2 POP PUSH3 0x2813 DUP3 DUP7 PUSH3 0x20FD JUMP JUMPDEST PUSH1 0x20 DUP3 ADD SWAP2 POP PUSH3 0x2825 DUP3 DUP6 PUSH3 0x20FD JUMP JUMPDEST PUSH1 0x20 DUP3 ADD SWAP2 POP PUSH3 0x2837 DUP3 DUP5 PUSH3 0x20FD JUMP JUMPDEST PUSH1 0x20 DUP3 ADD SWAP2 POP DUP2 SWAP1 POP SWAP6 SWAP5 POP POP POP POP POP JUMP JUMPDEST PUSH1 0x0 DUP2 SWAP1 POP SWAP3 SWAP2 POP POP JUMP JUMPDEST PUSH32 0x19457468657265756D205369676E6564204D6573736167653A0A333200000000 PUSH1 0x0 DUP3 ADD MSTORE POP JUMP JUMPDEST PUSH1 0x0 PUSH3 0x288C PUSH1 0x1C DUP4 PUSH3 0x2849 JUMP JUMPDEST SWAP2 POP PUSH3 0x2899 DUP3 PUSH3 0x2854 JUMP JUMPDEST PUSH1 0x1C DUP3 ADD SWAP1 POP SWAP2 SWAP1 POP JUMP JUMPDEST PUSH1 0x0 DUP2 SWAP1 POP SWAP2 SWAP1 POP JUMP JUMPDEST PUSH3 0x28C3 PUSH3 0x28BD DUP3 PUSH3 0x1A81 JUMP JUMPDEST PUSH3 0x28A4 JUMP JUMPDEST DUP3 MSTORE POP POP JUMP JUMPDEST PUSH1 0x0 PUSH3 0x28D6 DUP3 PUSH3 0x287D JUMP JUMPDEST SWAP2 POP PUSH3 0x28E4 DUP3 DUP5 PUSH3 0x28AE JUMP JUMPDEST PUSH1 0x20 DUP3 ADD SWAP2 POP DUP2 SWAP1 POP SWAP3 SWAP2 POP POP JUMP JUMPDEST PUSH1 0x0 PUSH1 0x60 DUP3 ADD SWAP1 POP PUSH3 0x290A PUSH1 0x0 DUP4 ADD DUP7 PUSH3 0x1D29 JUMP JUMPDEST PUSH3 0x2919 PUSH1 0x20 DUP4 ADD DUP6 PUSH3 0x2065 JUMP JUMPDEST PUSH3 0x2928 PUSH1 0x40 DUP4 ADD DUP5 PUSH3 0x1D29 JUMP JUMPDEST SWAP5 SWAP4 POP POP POP POP JUMP JUMPDEST PUSH1 0x0 PUSH1 0xFF DUP3 AND SWAP1 POP SWAP2 SWAP1 POP JUMP JUMPDEST PUSH1 0x0 PUSH3 0x294A DUP3 PUSH3 0x2930 JUMP JUMPDEST SWAP2 POP PUSH3 0x2957 DUP4 PUSH3 0x2930 JUMP JUMPDEST SWAP3 POP DUP3 DUP3 ADD SWAP1 POP PUSH1 0xFF DUP2 GT ISZERO PUSH3 0x2973 JUMPI PUSH3 0x2972 PUSH3 0x230D JUMP JUMPDEST JUMPDEST SWAP3 SWAP2 POP POP JUMP JUMPDEST PUSH3 0x2984 DUP2 PUSH3 0x2930 JUMP JUMPDEST DUP3 MSTORE POP POP JUMP JUMPDEST PUSH1 0x0 PUSH1 0x80 DUP3 ADD SWAP1 POP PUSH3 0x29A1 PUSH1 0x0 DUP4 ADD DUP8 PUSH3 0x2065 JUMP JUMPDEST PUSH3 0x29B0 PUSH1 0x20 DUP4 ADD DUP7 PUSH3 0x2979 JUMP JUMPDEST PUSH3 0x29BF PUSH1 0x40 DUP4 ADD DUP6 PUSH3 0x2065 JUMP JUMPDEST PUSH3 0x29CE PUSH1 0x60 DUP4 ADD DUP5 PUSH3 0x2065 JUMP JUMPDEST SWAP6 SWAP5 POP POP POP POP POP JUMP INVALID PUSH1 0x80 PUSH1 0x40 MSTORE PUSH1 0x40 MLOAD PUSH2 0xEBE CODESIZE SUB DUP1 PUSH2 0xEBE DUP4 CODECOPY DUP2 DUP2 ADD PUSH1 0x40 MSTORE DUP2 ADD SWAP1 PUSH2 0x25 SWAP2 SWAP1 PUSH2 0xCE JUMP JUMPDEST DUP1 PUSH1 0x0 DUP1 PUSH2 0x100 EXP DUP2 SLOAD DUP2 PUSH20 0xFFFFFFFFFFFFFFFFFFFFFFFFFFFFFFFFFFFFFFFF MUL NOT AND SWAP1 DUP4 PUSH20 0xFFFFFFFFFFFFFFFFFFFFFFFFFFFFFFFFFFFFFFFF AND MUL OR SWAP1 SSTORE POP POP PUSH2 0xFB JUMP JUMPDEST PUSH1 0x0 DUP1 REVERT JUMPDEST PUSH1 0x0 PUSH20 0xFFFFFFFFFFFFFFFFFFFFFFFFFFFFFFFFFFFFFFFF DUP3 AND SWAP1 POP SWAP2 SWAP1 POP JUMP JUMPDEST PUSH1 0x0 PUSH2 0x9B DUP3 PUSH2 0x70 JUMP JUMPDEST SWAP1 POP SWAP2 SWAP1 POP JUMP JUMPDEST PUSH2 0xAB DUP2 PUSH2 0x90 JUMP JUMPDEST DUP2 EQ PUSH2 0xB6 JUMPI PUSH1 0x0 DUP1 REVERT JUMPDEST POP JUMP JUMPDEST PUSH1 0x0 DUP2 MLOAD SWAP1 POP PUSH2 0xC8 DUP2 PUSH2 0xA2 JUMP JUMPDEST SWAP3 SWAP2 POP POP JUMP JUMPDEST PUSH1 0x0 PUSH1 0x20 DUP3 DUP5 SUB SLT ISZERO PUSH2 0xE4 JUMPI PUSH2 0xE3 PUSH2 0x6B JUMP JUMPDEST JUMPDEST PUSH1 0x0 PUSH2 0xF2 DUP5 DUP3 DUP6 ADD PUSH2 0xB9 JUMP JUMPDEST SWAP2 POP POP SWAP3 SWAP2 POP POP JUMP JUMPDEST PUSH2 0xDB4 DUP1 PUSH2 0x10A PUSH1 0x0 CODECOPY PUSH1 0x0 RETURN INVALID PUSH1 0x80 PUSH1 0x40 MSTORE PUSH1 0x4 CALLDATASIZE LT PUSH2 0x3F JUMPI PUSH1 0x0 CALLDATALOAD PUSH1 0xE0 SHR DUP1 PUSH4 0x8AC144E EQ PUSH2 0x44 JUMPI DUP1 PUSH4 0x8EB6A489 EQ PUSH2 0x60 JUMPI DUP1 PUSH4 0xDD304104 EQ PUSH2 0x9D JUMPI DUP1 PUSH4 0xEB41850D EQ PUSH2 0xC6 JUMPI JUMPDEST PUSH1 0x0 DUP1 REVERT JUMPDEST PUSH2 0x5E PUSH1 0x4 DUP1 CALLDATASIZE SUB DUP2 ADD SWAP1 PUSH2 0x59 SWAP2 SWAP1 PUSH2 0x830 JUMP JUMPDEST PUSH2 0x103 JUMP JUMPDEST STOP JUMPDEST CALLVALUE DUP1 ISZERO PUSH2 0x6C JUMPI PUSH1 0x0 DUP1 REVERT JUMPDEST POP PUSH2 0x87 PUSH1 0x4 DUP1 CALLDATASIZE SUB DUP2 ADD SWAP1 PUSH2 0x82 SWAP2 SWAP1 PUSH2 0x89F JUMP JUMPDEST PUSH2 0x2CA JUMP JUMPDEST PUSH1 0x40 MLOAD PUSH2 0x94 SWAP2 SWAP1 PUSH2 0x8E7 JUMP JUMPDEST PUSH1 0x40 MLOAD DUP1 SWAP2 SUB SWAP1 RETURN JUMPDEST CALLVALUE DUP1 ISZERO PUSH2 0xA9 JUMPI PUSH1 0x0 DUP1 REVERT JUMPDEST POP PUSH2 0xC4 PUSH1 0x4 DUP1 CALLDATASIZE SUB DUP2 ADD SWAP1 PUSH2 0xBF SWAP2 SWAP1 PUSH2 0x902 JUMP JUMPDEST PUSH2 0x2EA JUMP JUMPDEST STOP JUMPDEST CALLVALUE DUP1 ISZERO PUSH2 0xD2 JUMPI PUSH1 0x0 DUP1 REVERT JUMPDEST POP PUSH2 0xED PUSH1 0x4 DUP1 CALLDATASIZE SUB DUP2 ADD SWAP1 PUSH2 0xE8 SWAP2 SWAP1 PUSH2 0x89F JUMP JUMPDEST PUSH2 0x3A3 JUMP JUMPDEST PUSH1 0x40 MLOAD PUSH2 0xFA SWAP2 SWAP1 PUSH2 0x8E7 JUMP JUMPDEST PUSH1 0x40 MLOAD DUP1 SWAP2 SUB SWAP1 RETURN JUMPDEST PUSH1 0x0 DUP4 PUSH1 0x20 ADD MLOAD DUP5 PUSH1 0x40 ADD MLOAD DUP6 PUSH1 0x60 ADD MLOAD DUP7 PUSH1 0xA0 ADD MLOAD DUP8 PUSH1 0x80 ADD MLOAD PUSH1 0x40 MLOAD PUSH1 0x20 ADD PUSH2 0x132 SWAP6 SWAP5 SWAP4 SWAP3 SWAP2 SWAP1 PUSH2 0xA25 JUMP JUMPDEST PUSH1 0x40 MLOAD PUSH1 0x20 DUP2 DUP4 SUB SUB DUP2 MSTORE SWAP1 PUSH1 0x40 MSTORE DUP1 MLOAD SWAP1 PUSH1 0x20 ADD KECCAK256 SWAP1 POP TIMESTAMP DUP5 PUSH1 0xA0 ADD MLOAD LT ISZERO PUSH2 0x165 JUMPI PUSH2 0x15F DUP2 PUSH2 0x3CD JUMP JUMPDEST POP PUSH2 0x2C5 JUMP JUMPDEST PUSH1 0x1 PUSH1 0x0 DUP3 DUP2 MSTORE PUSH1 0x20 ADD SWAP1 DUP2 MSTORE PUSH1 0x20 ADD PUSH1 0x0 KECCAK256 PUSH1 0x0 SWAP1 SLOAD SWAP1 PUSH2 0x100 EXP SWAP1 DIV PUSH1 0xFF AND ISZERO PUSH2 0x1C6 JUMPI PUSH1 0x40 MLOAD PUSH32 0x8C379A000000000000000000000000000000000000000000000000000000000 DUP2 MSTORE PUSH1 0x4 ADD PUSH2 0x1BD SWAP1 PUSH2 0xADD JUMP JUMPDEST PUSH1 0x40 MLOAD DUP1 SWAP2 SUB SWAP1 REVERT JUMPDEST PUSH2 0x1EC DUP5 PUSH1 0x0 ADD MLOAD DUP6 PUSH1 0x20 ADD MLOAD DUP7 PUSH1 0x40 ADD MLOAD DUP8 PUSH1 0x60 ADD MLOAD DUP9 PUSH1 0x80 ADD MLOAD DUP10 PUSH1 0xA0 ADD MLOAD PUSH2 0x3FB JUMP JUMPDEST PUSH2 0x22B JUMPI PUSH1 0x40 MLOAD PUSH32 0x8C379A000000000000000000000000000000000000000000000000000000000 DUP2 MSTORE PUSH1 0x4 ADD PUSH2 0x222 SWAP1 PUSH2 0xB49 JUMP JUMPDEST PUSH1 0x40 MLOAD DUP1 SWAP2 SUB SWAP1 REVERT JUMPDEST DUP4 PUSH1 0x60 ADD MLOAD DUP4 LT PUSH2 0x2C3 JUMPI DUP4 PUSH1 0x20 ADD MLOAD PUSH20 0xFFFFFFFFFFFFFFFFFFFFFFFFFFFFFFFFFFFFFFFF AND PUSH4 0x23B872DD DUP6 PUSH1 0x0 ADD MLOAD DUP5 DUP8 PUSH1 0x40 ADD MLOAD PUSH1 0x40 MLOAD DUP5 PUSH4 0xFFFFFFFF AND PUSH1 0xE0 SHL DUP2 MSTORE PUSH1 0x4 ADD PUSH2 0x27F SWAP4 SWAP3 SWAP2 SWAP1 PUSH2 0xB87 JUMP JUMPDEST PUSH1 0x0 PUSH1 0x40 MLOAD DUP1 DUP4 SUB DUP2 PUSH1 0x0 DUP8 DUP1 EXTCODESIZE ISZERO DUP1 ISZERO PUSH2 0x299 JUMPI PUSH1 0x0 DUP1 REVERT JUMPDEST POP GAS CALL SWAP3 POP POP POP DUP1 ISZERO PUSH2 0x2AA JUMPI POP PUSH1 0x1 JUMPDEST PUSH2 0x2B4 JUMPI POP PUSH2 0x2C5 JUMP JUMPDEST PUSH2 0x2BD DUP2 PUSH2 0x3CD JUMP JUMPDEST POP PUSH2 0x2C5 JUMP JUMPDEST POP JUMPDEST POP POP POP JUMP JUMPDEST PUSH1 0x1 PUSH1 0x20 MSTORE DUP1 PUSH1 0x0 MSTORE PUSH1 0x40 PUSH1 0x0 KECCAK256 PUSH1 0x0 SWAP2 POP SLOAD SWAP1 PUSH2 0x100 EXP SWAP1 DIV PUSH1 0xFF AND DUP2 JUMP JUMPDEST PUSH2 0x310 DUP2 PUSH1 0x0 ADD MLOAD DUP3 PUSH1 0x20 ADD MLOAD DUP4 PUSH1 0x40 ADD MLOAD DUP5 PUSH1 0x60 ADD MLOAD DUP6 PUSH1 0x80 ADD MLOAD DUP7 PUSH1 0xA0 ADD MLOAD PUSH2 0x3FB JUMP JUMPDEST PUSH2 0x34F JUMPI PUSH1 0x40 MLOAD PUSH32 0x8C379A000000000000000000000000000000000000000000000000000000000 DUP2 MSTORE PUSH1 0x4 ADD PUSH2 0x346 SWAP1 PUSH2 0xB49 JUMP JUMPDEST PUSH1 0x40 MLOAD DUP1 SWAP2 SUB SWAP1 REVERT JUMPDEST PUSH1 0x0 DUP2 PUSH1 0x20 ADD MLOAD DUP3 PUSH1 0x40 ADD MLOAD DUP4 PUSH1 0x60 ADD MLOAD DUP5 PUSH1 0xA0 ADD MLOAD DUP6 PUSH1 0x80 ADD MLOAD PUSH1 0x40 MLOAD PUSH1 0x20 ADD PUSH2 0x37E SWAP6 SWAP5 SWAP4 SWAP3 SWAP2 SWAP1 PUSH2 0xA25 JUMP JUMPDEST PUSH1 0x40 MLOAD PUSH1 0x20 DUP2 DUP4 SUB SUB DUP2 MSTORE SWAP1 PUSH1 0x40 MSTORE DUP1 MLOAD SWAP1 PUSH1 0x20 ADD KECCAK256 SWAP1 POP PUSH2 0x39F DUP2 PUSH2 0x3CD JUMP JUMPDEST POP POP JUMP JUMPDEST PUSH1 0x0 PUSH1 0x1 PUSH1 0x0 DUP4 DUP2 MSTORE PUSH1 0x20 ADD SWAP1 DUP2 MSTORE PUSH1 0x20 ADD PUSH1 0x0 KECCAK256 PUSH1 0x0 SWAP1 SLOAD SWAP1 PUSH2 0x100 EXP SWAP1 DIV PUSH1 0xFF AND SWAP1 POP SWAP2 SWAP1 POP JUMP JUMPDEST PUSH1 0x1 DUP1 PUSH1 0x0 DUP4 DUP2 MSTORE PUSH1 0x20 ADD SWAP1 DUP2 MSTORE PUSH1 0x20 ADD PUSH1 0x0 KECCAK256 PUSH1 0x0 PUSH2 0x100 EXP DUP2 SLOAD DUP2 PUSH1 0xFF MUL NOT AND SWAP1 DUP4 ISZERO ISZERO MUL OR SWAP1 SSTORE POP POP JUMP JUMPDEST PUSH1 0x0 DUP1 DUP7 DUP7 DUP7 DUP6 PUSH1 0x40 MLOAD PUSH1 0x20 ADD PUSH2 0x415 SWAP5 SWAP4 SWAP3 SWAP2 SWAP1 PUSH2 0xBBE JUMP JUMPDEST PUSH1 0x40 MLOAD PUSH1 0x20 DUP2 DUP4 SUB SUB DUP2 MSTORE SWAP1 PUSH1 0x40 MSTORE DUP1 MLOAD SWAP1 PUSH1 0x20 ADD KECCAK256 SWAP1 POP PUSH1 0x0 DUP2 PUSH1 0x40 MLOAD PUSH1 0x20 ADD PUSH2 0x440 SWAP2 SWAP1 PUSH2 0xC84 JUMP JUMPDEST PUSH1 0x40 MLOAD PUSH1 0x20 DUP2 DUP4 SUB SUB DUP2 MSTORE SWAP1 PUSH1 0x40 MSTORE DUP1 MLOAD SWAP1 PUSH1 0x20 ADD KECCAK256 SWAP1 POP DUP9 PUSH20 0xFFFFFFFFFFFFFFFFFFFFFFFFFFFFFFFFFFFFFFFF AND PUSH2 0x479 DUP3 DUP8 PUSH2 0x49E JUMP JUMPDEST PUSH20 0xFFFFFFFFFFFFFFFFFFFFFFFFFFFFFFFFFFFFFFFF AND EQ SWAP3 POP POP POP SWAP7 SWAP6 POP POP POP POP POP POP JUMP JUMPDEST PUSH1 0x0 DUP1 PUSH1 0x0 DUP1 PUSH1 0x20 DUP6 ADD MLOAD SWAP3 POP PUSH1 0x40 DUP6 ADD MLOAD SWAP2 POP PUSH1 0x60 DUP6 ADD MLOAD PUSH1 0x0 BYTE SWAP1 POP PUSH1 0x1B DUP2 PUSH1 0xFF AND LT ISZERO PUSH2 0x4D8 JUMPI PUSH1 0x1B DUP2 PUSH2 0x4D5 SWAP2 SWAP1 PUSH2 0xCE6 JUMP JUMPDEST SWAP1 POP JUMPDEST PUSH1 0x1 DUP7 DUP3 DUP6 DUP6 PUSH1 0x40 MLOAD PUSH1 0x0 DUP2 MSTORE PUSH1 0x20 ADD PUSH1 0x40 MSTORE PUSH1 0x40 MLOAD PUSH2 0x4FB SWAP5 SWAP4 SWAP3 SWAP2 SWAP1 PUSH2 0xD39 JUMP JUMPDEST PUSH1 0x20 PUSH1 0x40 MLOAD PUSH1 0x20 DUP2 SUB SWAP1 DUP1 DUP5 SUB SWAP1 DUP6 GAS STATICCALL ISZERO DUP1 ISZERO PUSH2 0x51D JUMPI RETURNDATASIZE PUSH1 0x0 DUP1 RETURNDATACOPY RETURNDATASIZE PUSH1 0x0 REVERT JUMPDEST POP POP POP PUSH1 0x20 PUSH1 0x40 MLOAD SUB MLOAD SWAP4 POP POP POP POP SWAP3 SWAP2 POP POP JUMP JUMPDEST PUSH1 0x0 PUSH1 0x40 MLOAD SWAP1 POP SWAP1 JUMP JUMPDEST PUSH1 0x0 DUP1 REVERT JUMPDEST PUSH1 0x0 DUP1 REVERT JUMPDEST PUSH1 0x0 DUP1 REVERT JUMPDEST PUSH1 0x0 PUSH1 0x1F NOT PUSH1 0x1F DUP4 ADD AND SWAP1 POP SWAP2 SWAP1 POP JUMP JUMPDEST PUSH32 0x4E487B7100000000000000000000000000000000000000000000000000000000 PUSH1 0x0 MSTORE PUSH1 0x41 PUSH1 0x4 MSTORE PUSH1 0x24 PUSH1 0x0 REVERT JUMPDEST PUSH2 0x594 DUP3 PUSH2 0x54B JUMP JUMPDEST DUP2 ADD DUP2 DUP2 LT PUSH8 0xFFFFFFFFFFFFFFFF DUP3 GT OR ISZERO PUSH2 0x5B3 JUMPI PUSH2 0x5B2 PUSH2 0x55C JUMP JUMPDEST JUMPDEST DUP1 PUSH1 0x40 MSTORE POP POP POP JUMP JUMPDEST PUSH1 0x0 PUSH2 0x5C6 PUSH2 0x532 JUMP JUMPDEST SWAP1 POP PUSH2 0x5D2 DUP3 DUP3 PUSH2 0x58B JUMP JUMPDEST SWAP2 SWAP1 POP JUMP JUMPDEST PUSH1 0x0 DUP1 REVERT JUMPDEST PUSH1 0x0 PUSH20 0xFFFFFFFFFFFFFFFFFFFFFFFFFFFFFFFFFFFFFFFF DUP3 AND SWAP1 POP SWAP2 SWAP1 POP JUMP JUMPDEST PUSH1 0x0 PUSH2 0x607 DUP3 PUSH2 0x5DC JUMP JUMPDEST SWAP1 POP SWAP2 SWAP1 POP JUMP JUMPDEST PUSH2 0x617 DUP2 PUSH2 0x5FC JUMP JUMPDEST DUP2 EQ PUSH2 0x622 JUMPI PUSH1 0x0 DUP1 REVERT JUMPDEST POP JUMP JUMPDEST PUSH1 0x0 DUP2 CALLDATALOAD SWAP1 POP PUSH2 0x634 DUP2 PUSH2 0x60E JUMP JUMPDEST SWAP3 SWAP2 POP POP JUMP JUMPDEST PUSH1 0x0 DUP2 SWAP1 POP SWAP2 SWAP1 POP JUMP JUMPDEST PUSH2 0x64D DUP2 PUSH2 0x63A JUMP JUMPDEST DUP2 EQ PUSH2 0x658 JUMPI PUSH1 0x0 DUP1 REVERT JUMPDEST POP JUMP JUMPDEST PUSH1 0x0 DUP2 CALLDATALOAD SWAP1 POP PUSH2 0x66A DUP2 PUSH2 0x644 JUMP JUMPDEST SWAP3 SWAP2 POP POP JUMP JUMPDEST PUSH1 0x0 DUP1 REVERT JUMPDEST PUSH1 0x0 DUP1 REVERT JUMPDEST PUSH1 0x0 PUSH8 0xFFFFFFFFFFFFFFFF DUP3 GT ISZERO PUSH2 0x695 JUMPI PUSH2 0x694 PUSH2 0x55C JUMP JUMPDEST JUMPDEST PUSH2 0x69E DUP3 PUSH2 0x54B JUMP JUMPDEST SWAP1 POP PUSH1 0x20 DUP2 ADD SWAP1 POP SWAP2 SWAP1 POP JUMP JUMPDEST DUP3 DUP2 DUP4 CALLDATACOPY PUSH1 0x0 DUP4 DUP4 ADD MSTORE POP POP POP JUMP JUMPDEST PUSH1 0x0 PUSH2 0x6CD PUSH2 0x6C8 DUP5 PUSH2 0x67A JUMP JUMPDEST PUSH2 0x5BC JUMP JUMPDEST SWAP1 POP DUP3 DUP2 MSTORE PUSH1 0x20 DUP2 ADD DUP5 DUP5 DUP5 ADD GT ISZERO PUSH2 0x6E9 JUMPI PUSH2 0x6E8 PUSH2 0x675 JUMP JUMPDEST JUMPDEST PUSH2 0x6F4 DUP5 DUP3 DUP6 PUSH2 0x6AB JUMP JUMPDEST POP SWAP4 SWAP3 POP POP POP JUMP JUMPDEST PUSH1 0x0 DUP3 PUSH1 0x1F DUP4 ADD SLT PUSH2 0x711 JUMPI PUSH2 0x710 PUSH2 0x670 JUMP JUMPDEST JUMPDEST DUP2 CALLDATALOAD PUSH2 0x721 DUP5 DUP3 PUSH1 0x20 DUP7 ADD PUSH2 0x6BA JUMP JUMPDEST SWAP2 POP POP SWAP3 SWAP2 POP POP JUMP JUMPDEST PUSH1 0x0 DUP2 SWAP1 POP SWAP2 SWAP1 POP JUMP JUMPDEST PUSH2 0x73D DUP2 PUSH2 0x72A JUMP JUMPDEST DUP2 EQ PUSH2 0x748 JUMPI PUSH1 0x0 DUP1 REVERT JUMPDEST POP JUMP JUMPDEST PUSH1 0x0 DUP2 CALLDATALOAD SWAP1 POP PUSH2 0x75A DUP2 PUSH2 0x734 JUMP JUMPDEST SWAP3 SWAP2 POP POP JUMP JUMPDEST PUSH1 0x0 PUSH1 0xE0 DUP3 DUP5 SUB SLT ISZERO PUSH2 0x776 JUMPI PUSH2 0x775 PUSH2 0x546 JUMP JUMPDEST JUMPDEST PUSH2 0x780 PUSH1 0xE0 PUSH2 0x5BC JUMP JUMPDEST SWAP1 POP PUSH1 0x0 PUSH2 0x790 DUP5 DUP3 DUP6 ADD PUSH2 0x625 JUMP JUMPDEST PUSH1 0x0 DUP4 ADD MSTORE POP PUSH1 0x20 PUSH2 0x7A4 DUP5 DUP3 DUP6 ADD PUSH2 0x625 JUMP JUMPDEST PUSH1 0x20 DUP4 ADD MSTORE POP PUSH1 0x40 PUSH2 0x7B8 DUP5 DUP3 DUP6 ADD PUSH2 0x65B JUMP JUMPDEST PUSH1 0x40 DUP4 ADD MSTORE POP PUSH1 0x60 PUSH2 0x7CC DUP5 DUP3 DUP6 ADD PUSH2 0x65B JUMP JUMPDEST PUSH1 0x60 DUP4 ADD MSTORE POP PUSH1 0x80 DUP3 ADD CALLDATALOAD PUSH8 0xFFFFFFFFFFFFFFFF DUP2 GT ISZERO PUSH2 0x7F0 JUMPI PUSH2 0x7EF PUSH2 0x5D7 JUMP JUMPDEST JUMPDEST PUSH2 0x7FC DUP5 DUP3 DUP6 ADD PUSH2 0x6FC JUMP JUMPDEST PUSH1 0x80 DUP4 ADD MSTORE POP PUSH1 0xA0 PUSH2 0x810 DUP5 DUP3 DUP6 ADD PUSH2 0x65B JUMP JUMPDEST PUSH1 0xA0 DUP4 ADD MSTORE POP PUSH1 0xC0 PUSH2 0x824 DUP5 DUP3 DUP6 ADD PUSH2 0x74B JUMP JUMPDEST PUSH1 0xC0 DUP4 ADD MSTORE POP SWAP3 SWAP2 POP POP JUMP JUMPDEST PUSH1 0x0 DUP1 PUSH1 0x0 PUSH1 0x60 DUP5 DUP7 SUB SLT ISZERO PUSH2 0x849 JUMPI PUSH2 0x848 PUSH2 0x53C JUMP JUMPDEST JUMPDEST PUSH1 0x0 DUP5 ADD CALLDATALOAD PUSH8 0xFFFFFFFFFFFFFFFF DUP2 GT ISZERO PUSH2 0x867 JUMPI PUSH2 0x866 PUSH2 0x541 JUMP JUMPDEST JUMPDEST PUSH2 0x873 DUP7 DUP3 DUP8 ADD PUSH2 0x760 JUMP JUMPDEST SWAP4 POP POP PUSH1 0x20 PUSH2 0x884 DUP7 DUP3 DUP8 ADD PUSH2 0x65B JUMP JUMPDEST SWAP3 POP POP PUSH1 0x40 PUSH2 0x895 DUP7 DUP3 DUP8 ADD PUSH2 0x625 JUMP JUMPDEST SWAP2 POP POP SWAP3 POP SWAP3 POP SWAP3 JUMP JUMPDEST PUSH1 0x0 PUSH1 0x20 DUP3 DUP5 SUB SLT ISZERO PUSH2 0x8B5 JUMPI PUSH2 0x8B4 PUSH2 0x53C JUMP JUMPDEST JUMPDEST PUSH1 0x0 PUSH2 0x8C3 DUP5 DUP3 DUP6 ADD PUSH2 0x74B JUMP JUMPDEST SWAP2 POP POP SWAP3 SWAP2 POP POP JUMP JUMPDEST PUSH1 0x0 DUP2 ISZERO ISZERO SWAP1 POP SWAP2 SWAP1 POP JUMP JUMPDEST PUSH2 0x8E1 DUP2 PUSH2 0x8CC JUMP JUMPDEST DUP3 MSTORE POP POP JUMP JUMPDEST PUSH1 0x0 PUSH1 0x20 DUP3 ADD SWAP1 POP PUSH2 0x8FC PUSH1 0x0 DUP4 ADD DUP5 PUSH2 0x8D8 JUMP JUMPDEST SWAP3 SWAP2 POP POP JUMP JUMPDEST PUSH1 0x0 PUSH1 0x20 DUP3 DUP5 SUB SLT ISZERO PUSH2 0x918 JUMPI PUSH2 0x917 PUSH2 0x53C JUMP JUMPDEST JUMPDEST PUSH1 0x0 DUP3 ADD CALLDATALOAD PUSH8 0xFFFFFFFFFFFFFFFF DUP2 GT ISZERO PUSH2 0x936 JUMPI PUSH2 0x935 PUSH2 0x541 JUMP JUMPDEST JUMPDEST PUSH2 0x942 DUP5 DUP3 DUP6 ADD PUSH2 0x760 JUMP JUMPDEST SWAP2 POP POP SWAP3 SWAP2 POP POP JUMP JUMPDEST PUSH1 0x0 DUP2 PUSH1 0x60 SHL SWAP1 POP SWAP2 SWAP1 POP JUMP JUMPDEST PUSH1 0x0 PUSH2 0x963 DUP3 PUSH2 0x94B JUMP JUMPDEST SWAP1 POP SWAP2 SWAP1 POP JUMP JUMPDEST PUSH1 0x0 PUSH2 0x975 DUP3 PUSH2 0x958 JUMP JUMPDEST SWAP1 POP SWAP2 SWAP1 POP JUMP JUMPDEST PUSH2 0x98D PUSH2 0x988 DUP3 PUSH2 0x5FC JUMP JUMPDEST PUSH2 0x96A JUMP JUMPDEST DUP3 MSTORE POP POP JUMP JUMPDEST PUSH1 0x0 DUP2 SWAP1 POP SWAP2 SWAP1 POP JUMP JUMPDEST PUSH2 0x9AE PUSH2 0x9A9 DUP3 PUSH2 0x63A JUMP JUMPDEST PUSH2 0x993 JUMP JUMPDEST DUP3 MSTORE POP POP JUMP JUMPDEST PUSH1 0x0 DUP2 MLOAD SWAP1 POP SWAP2 SWAP1 POP JUMP JUMPDEST PUSH1 0x0 DUP2 SWAP1 POP SWAP3 SWAP2 POP POP JUMP JUMPDEST PUSH1 0x0 JUMPDEST DUP4 DUP2 LT ISZERO PUSH2 0x9E8 JUMPI DUP1 DUP3 ADD MLOAD DUP2 DUP5 ADD MSTORE PUSH1 0x20 DUP2 ADD SWAP1 POP PUSH2 0x9CD JUMP JUMPDEST PUSH1 0x0 DUP5 DUP5 ADD MSTORE POP POP POP POP JUMP JUMPDEST PUSH1 0x0 PUSH2 0x9FF DUP3 PUSH2 0x9B4 JUMP JUMPDEST PUSH2 0xA09 DUP2 DUP6 PUSH2 0x9BF JUMP JUMPDEST SWAP4 POP PUSH2 0xA19 DUP2 DUP6 PUSH1 0x20 DUP7 ADD PUSH2 0x9CA JUMP JUMPDEST DUP1 DUP5 ADD SWAP2 POP POP SWAP3 SWAP2 POP POP JUMP JUMPDEST PUSH1 0x0 PUSH2 0xA31 DUP3 DUP9 PUSH2 0x97C JUMP JUMPDEST PUSH1 0x14 DUP3 ADD SWAP2 POP PUSH2 0xA41 DUP3 DUP8 PUSH2 0x99D JUMP JUMPDEST PUSH1 0x20 DUP3 ADD SWAP2 POP PUSH2 0xA51 DUP3 DUP7 PUSH2 0x99D JUMP JUMPDEST PUSH1 0x20 DUP3 ADD SWAP2 POP PUSH2 0xA61 DUP3 DUP6 PUSH2 0x99D JUMP JUMPDEST PUSH1 0x20 DUP3 ADD SWAP2 POP PUSH2 0xA71 DUP3 DUP5 PUSH2 0x9F4 JUMP JUMPDEST SWAP2 POP DUP2 SWAP1 POP SWAP7 SWAP6 POP POP POP POP POP POP JUMP JUMPDEST PUSH1 0x0 DUP3 DUP3 MSTORE PUSH1 0x20 DUP3 ADD SWAP1 POP SWAP3 SWAP2 POP POP JUMP JUMPDEST PUSH32 0x4F7264657220686173206265656E207573656400000000000000000000000000 PUSH1 0x0 DUP3 ADD MSTORE POP JUMP JUMPDEST PUSH1 0x0 PUSH2 0xAC7 PUSH1 0x13 DUP4 PUSH2 0xA80 JUMP JUMPDEST SWAP2 POP PUSH2 0xAD2 DUP3 PUSH2 0xA91 JUMP JUMPDEST PUSH1 0x20 DUP3 ADD SWAP1 POP SWAP2 SWAP1 POP JUMP JUMPDEST PUSH1 0x0 PUSH1 0x20 DUP3 ADD SWAP1 POP DUP2 DUP2 SUB PUSH1 0x0 DUP4 ADD MSTORE PUSH2 0xAF6 DUP2 PUSH2 0xABA JUMP JUMPDEST SWAP1 POP SWAP2 SWAP1 POP JUMP JUMPDEST PUSH32 0x496E76616C6964207369676E6174757265000000000000000000000000000000 PUSH1 0x0 DUP3 ADD MSTORE POP JUMP JUMPDEST PUSH1 0x0 PUSH2 0xB33 PUSH1 0x11 DUP4 PUSH2 0xA80 JUMP JUMPDEST SWAP2 POP PUSH2 0xB3E DUP3 PUSH2 0xAFD JUMP JUMPDEST PUSH1 0x20 DUP3 ADD SWAP1 POP SWAP2 SWAP1 POP JUMP JUMPDEST PUSH1 0x0 PUSH1 0x20 DUP3 ADD SWAP1 POP DUP2 DUP2 SUB PUSH1 0x0 DUP4 ADD MSTORE PUSH2 0xB62 DUP2 PUSH2 0xB26 JUMP JUMPDEST SWAP1 POP SWAP2 SWAP1 POP JUMP JUMPDEST PUSH2 0xB72 DUP2 PUSH2 0x5FC JUMP JUMPDEST DUP3 MSTORE POP POP JUMP JUMPDEST PUSH2 0xB81 DUP2 PUSH2 0x63A JUMP JUMPDEST DUP3 MSTORE POP POP JUMP JUMPDEST PUSH1 0x0 PUSH1 0x60 DUP3 ADD SWAP1 POP PUSH2 0xB9C PUSH1 0x0 DUP4 ADD DUP7 PUSH2 0xB69 JUMP JUMPDEST PUSH2 0xBA9 PUSH1 0x20 DUP4 ADD DUP6 PUSH2 0xB69 JUMP JUMPDEST PUSH2 0xBB6 PUSH1 0x40 DUP4 ADD DUP5 PUSH2 0xB78 JUMP JUMPDEST SWAP5 SWAP4 POP POP POP POP JUMP JUMPDEST PUSH1 0x0 PUSH2 0xBCA DUP3 DUP8 PUSH2 0x97C JUMP JUMPDEST PUSH1 0x14 DUP3 ADD SWAP2 POP PUSH2 0xBDA DUP3 DUP7 PUSH2 0x99D JUMP JUMPDEST PUSH1 0x20 DUP3 ADD SWAP2 POP PUSH2 0xBEA DUP3 DUP6 PUSH2 0x99D JUMP JUMPDEST PUSH1 0x20 DUP3 ADD SWAP2 POP PUSH2 0xBFA DUP3 DUP5 PUSH2 0x99D JUMP JUMPDEST PUSH1 0x20 DUP3 ADD SWAP2 POP DUP2 SWAP1 POP SWAP6 SWAP5 POP POP POP POP POP JUMP JUMPDEST PUSH1 0x0 DUP2 SWAP1 POP SWAP3 SWAP2 POP POP JUMP JUMPDEST PUSH32 0x19457468657265756D205369676E6564204D6573736167653A0A333200000000 PUSH1 0x0 DUP3 ADD MSTORE POP JUMP JUMPDEST PUSH1 0x0 PUSH2 0xC4D PUSH1 0x1C DUP4 PUSH2 0xC0C JUMP JUMPDEST SWAP2 POP PUSH2 0xC58 DUP3 PUSH2 0xC17 JUMP JUMPDEST PUSH1 0x1C DUP3 ADD SWAP1 POP SWAP2 SWAP1 POP JUMP JUMPDEST PUSH1 0x0 DUP2 SWAP1 POP SWAP2 SWAP1 POP JUMP JUMPDEST PUSH2 0xC7E PUSH2 0xC79 DUP3 PUSH2 0x72A JUMP JUMPDEST PUSH2 0xC63 JUMP JUMPDEST DUP3 MSTORE POP POP JUMP JUMPDEST PUSH1 0x0 PUSH2 0xC8F DUP3 PUSH2 0xC40 JUMP JUMPDEST SWAP2 POP PUSH2 0xC9B DUP3 DUP5 PUSH2 0xC6D JUMP JUMPDEST PUSH1 0x20 DUP3 ADD SWAP2 POP DUP2 SWAP1 POP SWAP3 SWAP2 POP POP JUMP JUMPDEST PUSH1 0x0 PUSH1 0xFF DUP3 AND SWAP1 POP SWAP2 SWAP1 POP JUMP JUMPDEST PUSH32 0x4E487B7100000000000000000000000000000000000000000000000000000000 PUSH1 0x0 MSTORE PUSH1 0x11 PUSH1 0x4 MSTORE PUSH1 0x24 PUSH1 0x0 REVERT JUMPDEST PUSH1 0x0 PUSH2 0xCF1 DUP3 PUSH2 0xCAA JUMP JUMPDEST SWAP2 POP PUSH2 0xCFC DUP4 PUSH2 0xCAA JUMP JUMPDEST SWAP3 POP DUP3 DUP3 ADD SWAP1 POP PUSH1 0xFF DUP2 GT ISZERO PUSH2 0xD15 JUMPI PUSH2 0xD14 PUSH2 0xCB7 JUMP JUMPDEST JUMPDEST SWAP3 SWAP2 POP POP JUMP JUMPDEST PUSH2 0xD24 DUP2 PUSH2 0x72A JUMP JUMPDEST DUP3 MSTORE POP POP JUMP JUMPDEST PUSH2 0xD33 DUP2 PUSH2 0xCAA JUMP JUMPDEST DUP3 MSTORE POP POP JUMP JUMPDEST PUSH1 0x0 PUSH1 0x80 DUP3 ADD SWAP1 POP PUSH2 0xD4E PUSH1 0x0 DUP4 ADD DUP8 PUSH2 0xD1B JUMP JUMPDEST PUSH2 0xD5B PUSH1 0x20 DUP4 ADD DUP7 PUSH2 0xD2A JUMP JUMPDEST PUSH2 0xD68 PUSH1 0x40 DUP4 ADD DUP6 PUSH2 0xD1B JUMP JUMPDEST PUSH2 0xD75 PUSH1 0x60 DUP4 ADD DUP5 PUSH2 0xD1B JUMP JUMPDEST SWAP6 SWAP5 POP POP POP POP POP JUMP INVALID LOG2 PUSH5 0x6970667358 0x22 SLT KECCAK256 LOG1 MULMOD 0x21 0xB1 JUMPI PUSH21 0x974FB709BACF4FB2366A376DAA89110C8FFFEA2911 DUP5 PUSH1 0x84 0x4D PUSH24 0x64736F6C63430008120033A264697066735822122047D923 DUP1 PUSH30 0x6C64C88D7A3F95C22D0FB4947A00190D6EEBD7E0DA6C7312B6942564736F PUSH13 0x63430008120033000000000000 "
				},
				"gasEstimates": {
					"creation": {
						"codeDepositCost": "2907800",
						"executionCost": "infinite",
						"totalCost": "infinite"
					},
					"external": {
						"CancelSellOrder((address,address,uint256,uint256,bytes,uint256,bytes32))": "infinite",
						"approveCollection(address)": "infinite",
						"createProxyWallet()": "infinite",
						"getFeeRate()": "2459",
						"getProxyWallet(address)": "infinite",
						"matchOrder(address,address,uint256,uint256,bytes,uint256,bytes32)": "infinite",
						"setMall(address)": "26893",
						"updateFeeRate(uint256)": "infinite"
					},
					"internal": {
						"_cancelSellOrder(struct MarketContract.SellOrder memory)": "infinite",
						"matchfail(struct MarketContract.SellOrder memory)": "infinite",
						"matchsuccess(struct MarketContract.SellOrder memory)": "infinite",
						"recoverSigner(bytes32,bytes memory)": "infinite",
						"verifySignature(address,address,uint256,uint256,bytes memory,uint256)": "infinite"
					}
				},
				"methodIdentifiers": {
					"CancelSellOrder((address,address,uint256,uint256,bytes,uint256,bytes32))": "1b5ea502",
					"approveCollection(address)": "6aae5cda",
					"createProxyWallet()": "c2a1d6c9",
					"getFeeRate()": "84e5eed0",
					"getProxyWallet(address)": "c465db0a",
					"matchOrder(address,address,uint256,uint256,bytes,uint256,bytes32)": "38813781",
					"setMall(address)": "07e4ac72",
					"updateFeeRate(uint256)": "7b84fda5"
				}
			},
			"storageLayout": {
				"storage": [
					{
						"astId": 598,
						"contract": "NFT_market_contract.sol:MarketContract",
						"label": "proxyWalletContract",
						"offset": 0,
						"slot": "0",
						"type": "t_address"
					},
					{
						"astId": 600,
						"contract": "NFT_market_contract.sol:MarketContract",
						"label": "mall",
						"offset": 0,
						"slot": "1",
						"type": "t_address"
					},
					{
						"astId": 603,
						"contract": "NFT_market_contract.sol:MarketContract",
						"label": "feeRate",
						"offset": 0,
						"slot": "2",
						"type": "t_uint256"
					},
					{
						"astId": 605,
						"contract": "NFT_market_contract.sol:MarketContract",
						"label": "owner",
						"offset": 0,
						"slot": "3",
						"type": "t_address"
					},
					{
						"astId": 609,
						"contract": "NFT_market_contract.sol:MarketContract",
						"label": "userToProxyWallet",
						"offset": 0,
						"slot": "4",
						"type": "t_mapping(t_address,t_address)"
					}
				],
				"types": {
					"t_address": {
						"encoding": "inplace",
						"label": "address",
						"numberOfBytes": "20"
					},
					"t_mapping(t_address,t_address)": {
						"encoding": "mapping",
						"key": "t_address",
						"label": "mapping(address => address)",
						"numberOfBytes": "32",
						"value": "t_address"
					},
					"t_uint256": {
						"encoding": "inplace",
						"label": "uint256",
						"numberOfBytes": "32"
					}
				}
			},
			"userdoc": {
				"kind": "user",
				"methods": {},
				"version": 1
			}
		}
	}
}