{
	"data": {
		"bytecode": {
			"linkReferences": {},
			"object": "608060405260028055604051620039ec380380620039ec83398181016040528101906200002d9190620000df565b80600360006101000a81548173ffffffffffffffffffffffffffffffffffffffff021916908373ffffffffffffffffffffffffffffffffffffffff1602179055505062000111565b600080fd5b600073ffffffffffffffffffffffffffffffffffffffff82169050919050565b6000620000a7826200007a565b9050919050565b620000b9816200009a565b8114620000c557600080fd5b50565b600081519050620000d981620000ae565b92915050565b600060208284031215620000f857620000f762000075565b5b60006200010884828501620000c8565b91505092915050565b6138cb80620001216000396000f3fe608060405260043610620000865760003560e01c80637b84fda511620000555780637b84fda5146200013557806384e5eed01462000163578063c2a1d6c91462000193578063c465db0a14620001ad5762000086565b806307e4ac72146200008b5780631b5ea50214620000b95780633881378114620000e75780636aae5cda1462000107575b600080fd5b3480156200009857600080fd5b50620000b76004803603810190620000b1919062001863565b620001f1565b005b348015620000c657600080fd5b50620000e56004803603810190620000df919062001ba2565b620002c8565b005b620001056004803603810190620000ff919062001bf3565b6200034d565b005b3480156200011457600080fd5b506200013360048036038101906200012d919062001cc5565b62000d9d565b005b3480156200014257600080fd5b506200016160048036038101906200015b919062001cf7565b62000fd5565b005b3480156200017057600080fd5b506200017b620010b5565b6040516200018a919062001d3a565b60405180910390f35b348015620001a057600080fd5b50620001ab620010bf565b005b348015620001ba57600080fd5b50620001d96004803603810190620001d3919062001cc5565b620012a8565b604051620001e8919062001d68565b60405180910390f35b600360009054906101000a900473ffffffffffffffffffffffffffffffffffffffff1673ffffffffffffffffffffffffffffffffffffffff163373ffffffffffffffffffffffffffffffffffffffff161462000284576040517f08c379a00000000000000000000000000000000000000000000000000000000081526004016200027b9062001de6565b60405180910390fd5b80600160006101000a81548173ffffffffffffffffffffffffffffffffffffffff021916908373ffffffffffffffffffffffffffffffffffffffff16021790555050565b80600001518073ffffffffffffffffffffffffffffffffffffffff163373ffffffffffffffffffffffffffffffffffffffff16146200033e576040517f08c379a0000000000000000000000000000000000000000000000000000000008152600401620003359062001e7e565b60405180910390fd5b620003498262001311565b5050565b60006040518060e001604052808973ffffffffffffffffffffffffffffffffffffffff1681526020018873ffffffffffffffffffffffffffffffffffffffff16815260200187815260200186815260200185815260200184815260200183815250905060003490506000620003e76064620003d860025486606001516200153790919063ffffffff16565b6200154f90919063ffffffff16565b905062000411836000015184602001518560400151866060015187608001518860a0015162001567565b62000453576040517f08c379a00000000000000000000000000000000000000000000000000000000081526004016200044a9062001ef0565b60405180910390fd5b6000600460003373ffffffffffffffffffffffffffffffffffffffff1673ffffffffffffffffffffffffffffffffffffffff16815260200190815260200160002060009054906101000a900473ffffffffffffffffffffffffffffffffffffffff169050600060046000866000015173ffffffffffffffffffffffffffffffffffffffff1673ffffffffffffffffffffffffffffffffffffffff16815260200190815260200160002060009054906101000a900473ffffffffffffffffffffffffffffffffffffffff169050600073ffffffffffffffffffffffffffffffffffffffff16600460003373ffffffffffffffffffffffffffffffffffffffff1673ffffffffffffffffffffffffffffffffffffffff16815260200190815260200160002060009054906101000a900473ffffffffffffffffffffffffffffffffffffffff1673ffffffffffffffffffffffffffffffffffffffff1603620005f0576040517f08c379a0000000000000000000000000000000000000000000000000000000008152600401620005e79062001f62565b60405180910390fd5b600073ffffffffffffffffffffffffffffffffffffffff1660046000876000015173ffffffffffffffffffffffffffffffffffffffff1673ffffffffffffffffffffffffffffffffffffffff16815260200190815260200160002060009054906101000a900473ffffffffffffffffffffffffffffffffffffffff1673ffffffffffffffffffffffffffffffffffffffff1603620006c5576040517f08c379a0000000000000000000000000000000000000000000000000000000008152600401620006bc9062001f62565b60405180910390fd5b846000015173ffffffffffffffffffffffffffffffffffffffff16856020015173ffffffffffffffffffffffffffffffffffffffff16636352211e87604001516040518263ffffffff1660e01b815260040162000723919062001d3a565b602060405180830381865afa15801562000741573d6000803e3d6000fd5b505050506040513d601f19601f8201168201806040525081019062000767919062001f9b565b73ffffffffffffffffffffffffffffffffffffffff1614620007c0576040517f08c379a0000000000000000000000000000000000000000000000000000000008152600401620007b79062002043565b60405180910390fd5b8460a001514211156200085c57620007d88562001311565b846020015173ffffffffffffffffffffffffffffffffffffffff16856000015173ffffffffffffffffffffffffffffffffffffffff167f68138f0ee854a322025bc4fdf83bf151264d42cbc5930a3afc396a82980028d68760c0015188604001516040516200084992919062002076565b60405180910390a3505050505062000d94565b60008560200151866040015187606001518860a0015189608001516040516020016200088d95949392919062002191565b6040516020818303038152906040528051906020012090506000808373ffffffffffffffffffffffffffffffffffffffff1683604051602401620008d29190620021f6565b6040516020818303038152906040527feb41850d000000000000000000000000000000000000000000000000000000007bffffffffffffffffffffffffffffffffffffffffffffffffffffffff19166020820180517bffffffffffffffffffffffffffffffffffffffffffffffffffffffff83818316178352505050506040516200095e919062002213565b6000604051808303816000865af19150503d80600081146200099d576040519150601f19603f3d011682016040523d82523d6000602084013e620009a2565b606091505b5091509150600081806020019051810190620009bf919062002269565b9050828015620009cd575080155b62000a0f576040517f08c379a000000000000000000000000000000000000000000000000000000000815260040162000a0690620022eb565b60405180910390fd5b6000808673ffffffffffffffffffffffffffffffffffffffff168b8a8c62000a3891906200233c565b3360405160240162000a4d93929190620024a6565b6040516020818303038152906040527f08ac144e000000000000000000000000000000000000000000000000000000007bffffffffffffffffffffffffffffffffffffffffffffffffffffffff19166020820180517bffffffffffffffffffffffffffffffffffffffffffffffffffffffff838183161783525050505060405162000ad9919062002213565b6000604051808303816000865af19150503d806000811462000b18576040519150601f19603f3d011682016040523d82523d6000602084013e62000b1d565b606091505b50915091503373ffffffffffffffffffffffffffffffffffffffff168b6020015173ffffffffffffffffffffffffffffffffffffffff16636352211e8d604001516040518263ffffffff1660e01b815260040162000b7c919062001d3a565b602060405180830381865afa15801562000b9a573d6000803e3d6000fd5b505050506040513d601f19601f8201168201806040525081019062000bc0919062001f9b565b73ffffffffffffffffffffffffffffffffffffffff160362000d405762000be78b62001610565b600160009054906101000a900473ffffffffffffffffffffffffffffffffffffffff1673ffffffffffffffffffffffffffffffffffffffff166108fc8a9081150290604051600060405180830381858888f1935050505015801562000c50573d6000803e3d6000fd5b508a6000015173ffffffffffffffffffffffffffffffffffffffff166108fc8a8c62000c7d91906200233c565b9081150290604051600060405180830381858888f1935050505062000d3a573373ffffffffffffffffffffffffffffffffffffffff166108fc8a8c62000cc491906200233c565b9081150290604051600060405180830381858888f1935050505015801562000cf0573d6000803e3d6000fd5b503373ffffffffffffffffffffffffffffffffffffffff166108fc8a9081150290604051600060405180830381858888f1935050505015801562000d38573d6000803e3d6000fd5b505b62000d88565b62000d4b8b620016a9565b6040517f08c379a000000000000000000000000000000000000000000000000000000000815260040162000d7f906200253a565b60405180910390fd5b50505050505050505050505b50505050505050565b600073ffffffffffffffffffffffffffffffffffffffff16600460003373ffffffffffffffffffffffffffffffffffffffff1673ffffffffffffffffffffffffffffffffffffffff16815260200190815260200160002060009054906101000a900473ffffffffffffffffffffffffffffffffffffffff1673ffffffffffffffffffffffffffffffffffffffff160362000e6e576040517f08c379a000000000000000000000000000000000000000000000000000000000815260040162000e6590620025ac565b60405180910390fd5b6000808273ffffffffffffffffffffffffffffffffffffffff16600460003373ffffffffffffffffffffffffffffffffffffffff1673ffffffffffffffffffffffffffffffffffffffff16815260200190815260200160002060009054906101000a900473ffffffffffffffffffffffffffffffffffffffff16600160405160240162000efd929190620025df565b6040516020818303038152906040527fa22cb465000000000000000000000000000000000000000000000000000000007bffffffffffffffffffffffffffffffffffffffffffffffffffffffff19166020820180517bffffffffffffffffffffffffffffffffffffffffffffffffffffffff838183161783525050505060405162000f89919062002213565b600060405180830381855af49150503d806000811462000fc6576040519150601f19603f3d011682016040523d82523d6000602084013e62000fcb565b606091505b5091509150505050565b600360009054906101000a900473ffffffffffffffffffffffffffffffffffffffff1673ffffffffffffffffffffffffffffffffffffffff163373ffffffffffffffffffffffffffffffffffffffff161462001068576040517f08c379a00000000000000000000000000000000000000000000000000000000081526004016200105f9062001de6565b60405180910390fd5b60006002549050816002819055507f8d10d6dd6545b059182e4bf9534308bf75d7de65cdd8a68c12b7b74f139e58ae8183604051620010a99291906200260c565b60405180910390a15050565b6000600254905090565b600073ffffffffffffffffffffffffffffffffffffffff16600460003373ffffffffffffffffffffffffffffffffffffffff1673ffffffffffffffffffffffffffffffffffffffff16815260200190815260200160002060009054906101000a900473ffffffffffffffffffffffffffffffffffffffff1673ffffffffffffffffffffffffffffffffffffffff161462001190576040517f08c379a0000000000000000000000000000000000000000000000000000000008152600401620011879062002689565b60405180910390fd5b336040516200119f90620017dc565b620011ab919062001d68565b604051809103906000f080158015620011c8573d6000803e3d6000fd5b506000806101000a81548173ffffffffffffffffffffffffffffffffffffffff021916908373ffffffffffffffffffffffffffffffffffffffff16021790555060008054906101000a900473ffffffffffffffffffffffffffffffffffffffff16600460003373ffffffffffffffffffffffffffffffffffffffff1673ffffffffffffffffffffffffffffffffffffffff16815260200190815260200160002060006101000a81548173ffffffffffffffffffffffffffffffffffffffff021916908373ffffffffffffffffffffffffffffffffffffffff160217905550565b6000600460008373ffffffffffffffffffffffffffffffffffffffff1673ffffffffffffffffffffffffffffffffffffffff16815260200190815260200160002060009054906101000a900473ffffffffffffffffffffffffffffffffffffffff169050919050565b60008060046000846000015173ffffffffffffffffffffffffffffffffffffffff1673ffffffffffffffffffffffffffffffffffffffff16815260200190815260200160002060009054906101000a900473ffffffffffffffffffffffffffffffffffffffff1673ffffffffffffffffffffffffffffffffffffffff1683604051602401620013a19190620026ab565b6040516020818303038152906040527fdd304104000000000000000000000000000000000000000000000000000000007bffffffffffffffffffffffffffffffffffffffffffffffffffffffff19166020820180517bffffffffffffffffffffffffffffffffffffffffffffffffffffffff83818316178352505050506040516200142d919062002213565b6000604051808303816000865af19150503d80600081146200146c576040519150601f19603f3d011682016040523d82523d6000602084013e62001471565b606091505b509150915081620014b9576040517f08c379a0000000000000000000000000000000000000000000000000000000008152600401620014b0906200271f565b60405180910390fd5b826020015173ffffffffffffffffffffffffffffffffffffffff16836000015173ffffffffffffffffffffffffffffffffffffffff167f9b3260990101a9c5eb670b44ba2f4ec1048ddaf533a012abff3841ef15307fec8560c0015186604001516040516200152a92919062002076565b60405180910390a3505050565b6000818362001547919062002741565b905092915050565b600081836200155f9190620027bb565b905092915050565b60008086868685604051602001620015839493929190620027f3565b604051602081830303815290604052805190602001209050600081604051602001620015b09190620028c9565b6040516020818303038152906040528051906020012090508873ffffffffffffffffffffffffffffffffffffffff16620015eb828762001742565b73ffffffffffffffffffffffffffffffffffffffff1614925050509695505050505050565b806020015173ffffffffffffffffffffffffffffffffffffffff163373ffffffffffffffffffffffffffffffffffffffff16826000015173ffffffffffffffffffffffffffffffffffffffff167f467f50bd8d1547cf60e60dba76ab3ff7f8b3a07ceba26c2268e160a7df30230e84604001518560c0015186606001516040516200169e93929190620028f3565b60405180910390a450565b806020015173ffffffffffffffffffffffffffffffffffffffff163373ffffffffffffffffffffffffffffffffffffffff16826000015173ffffffffffffffffffffffffffffffffffffffff167f9bd8cc9f795935d6f423445d18dd997edfeec3d962973fadffeac5740e876b5f84604001518560c0015186606001516040516200173793929190620028f3565b60405180910390a450565b6000806000806020850151925060408501519150606085015160001a9050601b8160ff1610156200177f57601b816200177c91906200293d565b90505b60018682858560405160008152602001604052604051620017a494939291906200298a565b6020604051602081039080840390855afa158015620017c7573d6000803e3d6000fd5b50505060206040510351935050505092915050565b610ebe80620029d883390190565b6000604051905090565b600080fd5b600080fd5b600073ffffffffffffffffffffffffffffffffffffffff82169050919050565b60006200182b82620017fe565b9050919050565b6200183d816200181e565b81146200184957600080fd5b50565b6000813590506200185d8162001832565b92915050565b6000602082840312156200187c576200187b620017f4565b5b60006200188c848285016200184c565b91505092915050565b600080fd5b6000601f19601f8301169050919050565b7f4e487b7100000000000000000000000000000000000000000000000000000000600052604160045260246000fd5b620018e5826200189a565b810181811067ffffffffffffffff82111715620019075762001906620018ab565b5b80604052505050565b60006200191c620017ea565b90506200192a8282620018da565b919050565b600080fd5b60006200194182620017fe565b9050919050565b620019538162001934565b81146200195f57600080fd5b50565b600081359050620019738162001948565b92915050565b6000819050919050565b6200198e8162001979565b81146200199a57600080fd5b50565b600081359050620019ae8162001983565b92915050565b600080fd5b600080fd5b600067ffffffffffffffff821115620019dc57620019db620018ab565b5b620019e7826200189a565b9050602081019050919050565b82818337600083830152505050565b600062001a1a62001a1484620019be565b62001910565b90508281526020810184848401111562001a395762001a38620019b9565b5b62001a46848285620019f4565b509392505050565b600082601f83011262001a665762001a65620019b4565b5b813562001a7884826020860162001a03565b91505092915050565b6000819050919050565b62001a968162001a81565b811462001aa257600080fd5b50565b60008135905062001ab68162001a8b565b92915050565b600060e0828403121562001ad55762001ad462001895565b5b62001ae160e062001910565b9050600062001af38482850162001962565b600083015250602062001b098482850162001962565b602083015250604062001b1f848285016200199d565b604083015250606062001b35848285016200199d565b606083015250608082013567ffffffffffffffff81111562001b5c5762001b5b6200192f565b5b62001b6a8482850162001a4e565b60808301525060a062001b80848285016200199d565b60a08301525060c062001b968482850162001aa5565b60c08301525092915050565b60006020828403121562001bbb5762001bba620017f4565b5b600082013567ffffffffffffffff81111562001bdc5762001bdb620017f9565b5b62001bea8482850162001abc565b91505092915050565b600080600080600080600060e0888a03121562001c155762001c14620017f4565b5b600062001c258a828b0162001962565b975050602062001c388a828b0162001962565b965050604062001c4b8a828b016200199d565b955050606062001c5e8a828b016200199d565b945050608088013567ffffffffffffffff81111562001c825762001c81620017f9565b5b62001c908a828b0162001a4e565b93505060a062001ca38a828b016200199d565b92505060c062001cb68a828b0162001aa5565b91505092959891949750929550565b60006020828403121562001cde5762001cdd620017f4565b5b600062001cee8482850162001962565b91505092915050565b60006020828403121562001d105762001d0f620017f4565b5b600062001d20848285016200199d565b91505092915050565b62001d348162001979565b82525050565b600060208201905062001d51600083018462001d29565b92915050565b62001d628162001934565b82525050565b600060208201905062001d7f600083018462001d57565b92915050565b600082825260208201905092915050565b7f6f6e6c79206f776e65722063616e2063616c6c20746869730000000000000000600082015250565b600062001dce60188362001d85565b915062001ddb8262001d96565b602082019050919050565b6000602082019050818103600083015262001e018162001dbf565b9050919050565b7f4f6e6c792073656c6c65722063616e2063616c6c20746869732066756e63746960008201527f6f6e000000000000000000000000000000000000000000000000000000000000602082015250565b600062001e6660228362001d85565b915062001e738262001e08565b604082019050919050565b6000602082019050818103600083015262001e998162001e57565b9050919050565b7f496e76616c6964207369676e6174757265000000000000000000000000000000600082015250565b600062001ed860118362001d85565b915062001ee58262001ea0565b602082019050919050565b6000602082019050818103600083015262001f0b8162001ec9565b9050919050565b7f50726f78792077616c6c6574206e6f7420666f756e6400000000000000000000600082015250565b600062001f4a60168362001d85565b915062001f578262001f12565b602082019050919050565b6000602082019050818103600083015262001f7d8162001f3b565b9050919050565b60008151905062001f958162001948565b92915050565b60006020828403121562001fb45762001fb3620017f4565b5b600062001fc48482850162001f84565b91505092915050565b7f53656c6c6572206973206e6f7420746865206f776e6572206f6620746869732060008201527f746f6b656e000000000000000000000000000000000000000000000000000000602082015250565b60006200202b60258362001d85565b9150620020388262001fcd565b604082019050919050565b600060208201905081810360008301526200205e816200201c565b9050919050565b620020708162001a81565b82525050565b60006040820190506200208d600083018562002065565b6200209c602083018462001d29565b9392505050565b60008160601b9050919050565b6000620020bd82620020a3565b9050919050565b6000620020d182620020b0565b9050919050565b620020ed620020e78262001934565b620020c4565b82525050565b6000819050919050565b620021126200210c8262001979565b620020f3565b82525050565b600081519050919050565b600081905092915050565b60005b838110156200214e57808201518184015260208101905062002131565b60008484015250505050565b6000620021678262002118565b62002173818562002123565b9350620021858185602086016200212e565b80840191505092915050565b60006200219f8288620020d8565b601482019150620021b18287620020fd565b602082019150620021c38286620020fd565b602082019150620021d58285620020fd565b602082019150620021e782846200215a565b91508190509695505050505050565b60006020820190506200220d600083018462002065565b92915050565b60006200222182846200215a565b915081905092915050565b60008115159050919050565b62002243816200222c565b81146200224f57600080fd5b50565b600081519050620022638162002238565b92915050565b600060208284031215620022825762002281620017f4565b5b6000620022928482850162002252565b91505092915050565b7f4f72646572206973206e6f742076616c69640000000000000000000000000000600082015250565b6000620022d360128362001d85565b9150620022e0826200229b565b602082019050919050565b600060208201905081810360008301526200230681620022c4565b9050919050565b7f4e487b7100000000000000000000000000000000000000000000000000000000600052601160045260246000fd5b6000620023498262001979565b9150620023568362001979565b92508282039050818111156200237157620023706200230d565b5b92915050565b620023828162001934565b82525050565b620023938162001979565b82525050565b600082825260208201905092915050565b6000620023b78262002118565b620023c3818562002399565b9350620023d58185602086016200212e565b620023e0816200189a565b840191505092915050565b620023f68162001a81565b82525050565b600060e08301600083015162002416600086018262002377565b5060208301516200242b602086018262002377565b50604083015162002440604086018262002388565b50606083015162002455606086018262002388565b50608083015184820360808601526200246f8282620023aa565b91505060a08301516200248660a086018262002388565b5060c08301516200249b60c0860182620023eb565b508091505092915050565b60006060820190508181036000830152620024c28186620023fc565b9050620024d3602083018562001d29565b620024e2604083018462001d57565b949350505050565b7f6d617463686661696c0000000000000000000000000000000000000000000000600082015250565b60006200252260098362001d85565b91506200252f82620024ea565b602082019050919050565b60006020820190508181036000830152620025558162002513565b9050919050565b7f6e6f2070726f78792077616c6c65740000000000000000000000000000000000600082015250565b600062002594600f8362001d85565b9150620025a1826200255c565b602082019050919050565b60006020820190508181036000830152620025c78162002585565b9050919050565b620025d9816200222c565b82525050565b6000604082019050620025f6600083018562001d57565b620026056020830184620025ce565b9392505050565b600060408201905062002623600083018562001d29565b62002632602083018462001d29565b9392505050565b7f50726f78792077616c6c657420616c7265616479206578697374730000000000600082015250565b600062002671601b8362001d85565b91506200267e8262002639565b602082019050919050565b60006020820190508181036000830152620026a48162002662565b9050919050565b60006020820190508181036000830152620026c78184620023fc565b905092915050565b7f43616e63656c2073656c6c206f72646572206661696c65640000000000000000600082015250565b60006200270760188362001d85565b91506200271482620026cf565b602082019050919050565b600060208201905081810360008301526200273a81620026f8565b9050919050565b60006200274e8262001979565b91506200275b8362001979565b92508282026200276b8162001979565b915082820484148315176200278557620027846200230d565b5b5092915050565b7f4e487b7100000000000000000000000000000000000000000000000000000000600052601260045260246000fd5b6000620027c88262001979565b9150620027d58362001979565b925082620027e857620027e76200278c565b5b828204905092915050565b6000620028018287620020d8565b601482019150620028138286620020fd565b602082019150620028258285620020fd565b602082019150620028378284620020fd565b60208201915081905095945050505050565b600081905092915050565b7f19457468657265756d205369676e6564204d6573736167653a0a333200000000600082015250565b60006200288c601c8362002849565b9150620028998262002854565b601c82019050919050565b6000819050919050565b620028c3620028bd8262001a81565b620028a4565b82525050565b6000620028d6826200287d565b9150620028e48284620028ae565b60208201915081905092915050565b60006060820190506200290a600083018662001d29565b62002919602083018562002065565b62002928604083018462001d29565b949350505050565b600060ff82169050919050565b60006200294a8262002930565b9150620029578362002930565b9250828201905060ff8111156200297357620029726200230d565b5b92915050565b620029848162002930565b82525050565b6000608082019050620029a1600083018762002065565b620029b0602083018662002979565b620029bf604083018562002065565b620029ce606083018462002065565b9594505050505056fe6080604052604051610ebe380380610ebe833981810160405281019061002591906100ce565b806000806101000a81548173ffffffffffffffffffffffffffffffffffffffff021916908373ffffffffffffffffffffffffffffffffffffffff160217905550506100fb565b600080fd5b600073ffffffffffffffffffffffffffffffffffffffff82169050919050565b600061009b82610070565b9050919050565b6100ab81610090565b81146100b657600080fd5b50565b6000815190506100c8816100a2565b92915050565b6000602082840312156100e4576100e361006b565b5b60006100f2848285016100b9565b91505092915050565b610db48061010a6000396000f3fe60806040526004361061003f5760003560e01c806308ac144e146100445780638eb6a48914610060578063dd3041041461009d578063eb41850d146100c6575b600080fd5b61005e60048036038101906100599190610830565b610103565b005b34801561006c57600080fd5b506100876004803603810190610082919061089f565b6102ca565b60405161009491906108e7565b60405180910390f35b3480156100a957600080fd5b506100c460048036038101906100bf9190610902565b6102ea565b005b3480156100d257600080fd5b506100ed60048036038101906100e8919061089f565b6103a3565b6040516100fa91906108e7565b60405180910390f35b60008360200151846040015185606001518660a001518760800151604051602001610132959493929190610a25565b604051602081830303815290604052805190602001209050428460a0015110156101655761015f816103cd565b506102c5565b6001600082815260200190815260200160002060009054906101000a900460ff16156101c6576040517f08c379a00000000000000000000000000000000000000000000000000000000081526004016101bd90610add565b60405180910390fd5b6101ec846000015185602001518660400151876060015188608001518960a001516103fb565b61022b576040517f08c379a000000000000000000000000000000000000000000000000000000000815260040161022290610b49565b60405180910390fd5b836060015183106102c357836020015173ffffffffffffffffffffffffffffffffffffffff166323b872dd85600001518487604001516040518463ffffffff1660e01b815260040161027f93929190610b87565b600060405180830381600087803b15801561029957600080fd5b505af19250505080156102aa575060015b6102b457506102c5565b6102bd816103cd565b506102c5565b505b505050565b60016020528060005260406000206000915054906101000a900460ff1681565b610310816000015182602001518360400151846060015185608001518660a001516103fb565b61034f576040517f08c379a000000000000000000000000000000000000000000000000000000000815260040161034690610b49565b60405180910390fd5b60008160200151826040015183606001518460a00151856080015160405160200161037e959493929190610a25565b60405160208183030381529060405280519060200120905061039f816103cd565b5050565b60006001600083815260200190815260200160002060009054906101000a900460ff169050919050565b600180600083815260200190815260200160002060006101000a81548160ff02191690831515021790555050565b600080868686856040516020016104159493929190610bbe565b6040516020818303038152906040528051906020012090506000816040516020016104409190610c84565b6040516020818303038152906040528051906020012090508873ffffffffffffffffffffffffffffffffffffffff16610479828761049e565b73ffffffffffffffffffffffffffffffffffffffff1614925050509695505050505050565b6000806000806020850151925060408501519150606085015160001a9050601b8160ff1610156104d857601b816104d59190610ce6565b90505b600186828585604051600081526020016040526040516104fb9493929190610d39565b6020604051602081039080840390855afa15801561051d573d6000803e3d6000fd5b50505060206040510351935050505092915050565b6000604051905090565b600080fd5b600080fd5b600080fd5b6000601f19601f8301169050919050565b7f4e487b7100000000000000000000000000000000000000000000000000000000600052604160045260246000fd5b6105948261054b565b810181811067ffffffffffffffff821117156105b3576105b261055c565b5b80604052505050565b60006105c6610532565b90506105d2828261058b565b919050565b600080fd5b600073ffffffffffffffffffffffffffffffffffffffff82169050919050565b6000610607826105dc565b9050919050565b610617816105fc565b811461062257600080fd5b50565b6000813590506106348161060e565b92915050565b6000819050919050565b61064d8161063a565b811461065857600080fd5b50565b60008135905061066a81610644565b92915050565b600080fd5b600080fd5b600067ffffffffffffffff8211156106955761069461055c565b5b61069e8261054b565b9050602081019050919050565b82818337600083830152505050565b60006106cd6106c88461067a565b6105bc565b9050828152602081018484840111156106e9576106e8610675565b5b6106f48482856106ab565b509392505050565b600082601f83011261071157610710610670565b5b81356107218482602086016106ba565b91505092915050565b6000819050919050565b61073d8161072a565b811461074857600080fd5b50565b60008135905061075a81610734565b92915050565b600060e0828403121561077657610775610546565b5b61078060e06105bc565b9050600061079084828501610625565b60008301525060206107a484828501610625565b60208301525060406107b88482850161065b565b60408301525060606107cc8482850161065b565b606083015250608082013567ffffffffffffffff8111156107f0576107ef6105d7565b5b6107fc848285016106fc565b60808301525060a06108108482850161065b565b60a08301525060c06108248482850161074b565b60c08301525092915050565b6000806000606084860312156108495761084861053c565b5b600084013567ffffffffffffffff81111561086757610866610541565b5b61087386828701610760565b93505060206108848682870161065b565b925050604061089586828701610625565b9150509250925092565b6000602082840312156108b5576108b461053c565b5b60006108c38482850161074b565b91505092915050565b60008115159050919050565b6108e1816108cc565b82525050565b60006020820190506108fc60008301846108d8565b92915050565b6000602082840312156109185761091761053c565b5b600082013567ffffffffffffffff81111561093657610935610541565b5b61094284828501610760565b91505092915050565b60008160601b9050919050565b60006109638261094b565b9050919050565b600061097582610958565b9050919050565b61098d610988826105fc565b61096a565b82525050565b6000819050919050565b6109ae6109a98261063a565b610993565b82525050565b600081519050919050565b600081905092915050565b60005b838110156109e85780820151818401526020810190506109cd565b60008484015250505050565b60006109ff826109b4565b610a0981856109bf565b9350610a198185602086016109ca565b80840191505092915050565b6000610a31828861097c565b601482019150610a41828761099d565b602082019150610a51828661099d565b602082019150610a61828561099d565b602082019150610a7182846109f4565b91508190509695505050505050565b600082825260208201905092915050565b7f4f7264657220686173206265656e207573656400000000000000000000000000600082015250565b6000610ac7601383610a80565b9150610ad282610a91565b602082019050919050565b60006020820190508181036000830152610af681610aba565b9050919050565b7f496e76616c6964207369676e6174757265000000000000000000000000000000600082015250565b6000610b33601183610a80565b9150610b3e82610afd565b602082019050919050565b60006020820190508181036000830152610b6281610b26565b9050919050565b610b72816105fc565b82525050565b610b818161063a565b82525050565b6000606082019050610b9c6000830186610b69565b610ba96020830185610b69565b610bb66040830184610b78565b949350505050565b6000610bca828761097c565b601482019150610bda828661099d565b602082019150610bea828561099d565b602082019150610bfa828461099d565b60208201915081905095945050505050565b600081905092915050565b7f19457468657265756d205369676e6564204d6573736167653a0a333200000000600082015250565b6000610c4d601c83610c0c565b9150610c5882610c17565b601c82019050919050565b6000819050919050565b610c7e610c798261072a565b610c63565b82525050565b6000610c8f82610c40565b9150610c9b8284610c6d565b60208201915081905092915050565b600060ff82169050919050565b7f4e487b7100000000000000000000000000000000000000000000000000000000600052601160045260246000fd5b6000610cf182610caa565b9150610cfc83610caa565b9250828201905060ff811115610d1557610d14610cb7565b5b92915050565b610d248161072a565b82525050565b610d3381610caa565b82525050565b6000608082019050610d4e6000830187610d1b565b610d5b6020830186610d2a565b610d686040830185610d1b565b610d756060830184610d1b565b9594505050505056fea2646970667358221220a10921b15774974fb709bacf4fb2366a376daa89110c8fffea29118460844d7764736f6c63430008120033a264697066735822122047d923807d6c64c88d7a3f95c22d0fb4947a00190d6eebd7e0da6c7312b6942564736f6c63430008120033",
			"opcodes": "PUSH1 0x80 PUSH1 0x40 MSTORE PUSH1 0x2 DUP1 SSTORE PUSH1 0x40 MLOAD PUSH3 0x39EC CODESIZE SUB DUP1 PUSH3 0x39EC DUP4 CODECOPY DUP2 DUP2 ADD PUSH1 0x40 MSTORE DUP2 ADD SWAP1 PUSH3 0x2D SWAP2 SWAP1 PUSH3 0xDF JUMP JUMPDEST DUP1 PUSH1 0x3 PUSH1 0x0 PUSH2 0x100 EXP DUP2 SLOAD DUP2 PUSH20 0xFFFFFFFFFFFFFFFFFFFFFFFFFFFFFFFFFFFFFFFF MUL NOT AND SWAP1 DUP4 PUSH20 0xFFFFFFFFFFFFFFFFFFFFFFFFFFFFFFFFFFFFFFFF AND MUL OR SWAP1 SSTORE POP POP PUSH3 0x111 JUMP JUMPDEST PUSH1 0x0 DUP1 REVERT JUMPDEST PUSH1 0x0 PUSH20 0xFFFFFFFFFFFFFFFFFFFFFFFFFFFFFFFFFFFFFFFF DUP3 AND SWAP1 POP SWAP2 SWAP1 POP JUMP JUMPDEST PUSH1 0x0 PUSH3 0xA7 DUP3 PUSH3 0x7A JUMP JUMPDEST SWAP1 POP SWAP2 SWAP1 POP JUMP JUMPDEST PUSH3 0xB9 DUP2 PUSH3 0x9A JUMP JUMPDEST DUP2 EQ PUSH3 0xC5 JUMPI PUSH1 0x0 DUP1 REVERT JUMPDEST POP JUMP JUMPDEST PUSH1 0x0 DUP2 MLOAD SWAP1 POP PUSH3 0xD9 DUP2 PUSH3 0xAE JUMP JUMPDEST SWAP3 SWAP2 POP POP JUMP JUMPDEST PUSH1 0x0 PUSH1 0x20 DUP3 DUP5 SUB SLT ISZERO PUSH3 0xF8 JUMPI PUSH3 0xF7 PUSH3 0x75 JUMP JUMPDEST JUMPDEST PUSH1 0x0 PUSH3 0x108 DUP5 DUP3 DUP6 ADD PUSH3 0xC8 JUMP JUMPDEST SWAP2 POP POP SWAP3 SWAP2 POP POP JUMP JUMPDEST PUSH2 0x38CB DUP1 PUSH3 0x121 PUSH1 0x0 CODECOPY PUSH1 0x0 RETURN INVALID PUSH1 0x80 PUSH1 0x40 MSTORE PUSH1 0x4 CALLDATASIZE LT PUSH3 0x86 JUMPI PUSH1 0x0 CALLDATALOAD PUSH1 0xE0 SHR DUP1 PUSH4 0x7B84FDA5 GT PUSH3 0x55 JUMPI DUP1 PUSH4 0x7B84FDA5 EQ PUSH3 0x135 JUMPI DUP1 PUSH4 0x84E5EED0 EQ PUSH3 0x163 JUMPI DUP1 PUSH4 0xC2A1D6C9 EQ PUSH3 0x193 JUMPI DUP1 PUSH4 0xC465DB0A EQ PUSH3 0x1AD JUMPI PUSH3 0x86 JUMP JUMPDEST DUP1 PUSH4 0x7E4AC72 EQ PUSH3 0x8B JUMPI DUP1 PUSH4 0x1B5EA502 EQ PUSH3 0xB9 JUMPI DUP1 PUSH4 0x38813781 EQ PUSH3 0xE7 JUMPI DUP1 PUSH4 0x6AAE5CDA EQ PUSH3 0x107 JUMPI JUMPDEST PUSH1 0x0 DUP1 REVERT JUMPDEST CALLVALUE DUP1 ISZERO PUSH3 0x98 JUMPI PUSH1 0x0 DUP1 REVERT JUMPDEST POP PUSH3 0xB7 PUSH1 0x4 DUP1 CALLDATASIZE SUB DUP2 ADD SWAP1 PUSH3 0xB1 SWAP2 SWAP1 PUSH3 0x1863 JUMP JUMPDEST PUSH3 0x1F1 JUMP JUMPDEST STOP JUMPDEST CALLVALUE DUP1 ISZERO PUSH3 0xC6 JUMPI PUSH1 0x0 DUP1 REVERT JUMPDEST POP PUSH3 0xE5 PUSH1 0x4 DUP1 CALLDATASIZE SUB DUP2 ADD SWAP1 PUSH3 0xDF SWAP2 SWAP1 PUSH3 0x1BA2 JUMP JUMPDEST PUSH3 0x2C8 JUMP JUMPDEST STOP JUMPDEST PUSH3 0x105 PUSH1 0x4 DUP1 CALLDATASIZE SUB DUP2 ADD SWAP1 PUSH3 0xFF SWAP2 SWAP1 PUSH3 0x1BF3 JUMP JUMPDEST PUSH3 0x34D JUMP JUMPDEST STOP JUMPDEST CALLVALUE DUP1 ISZERO PUSH3 0x114 JUMPI PUSH1 0x0 DUP1 REVERT JUMPDEST POP PUSH3 0x133 PUSH1 0x4 DUP1 CALLDATASIZE SUB DUP2 ADD SWAP1 PUSH3 0x12D SWAP2 SWAP1 PUSH3 0x1CC5 JUMP JUMPDEST PUSH3 0xD9D JUMP JUMPDEST STOP JUMPDEST CALLVALUE DUP1 ISZERO PUSH3 0x142 JUMPI PUSH1 0x0 DUP1 REVERT JUMPDEST POP PUSH3 0x161 PUSH1 0x4 DUP1 CALLDATASIZE SUB DUP2 ADD SWAP1 PUSH3 0x15B SWAP2 SWAP1 PUSH3 0x1CF7 JUMP JUMPDEST PUSH3 0xFD5 JUMP JUMPDEST STOP JUMPDEST CALLVALUE DUP1 ISZERO PUSH3 0x170 JUMPI PUSH1 0x0 DUP1 REVERT JUMPDEST POP PUSH3 0x17B PUSH3 0x10B5 JUMP JUMPDEST PUSH1 0x40 MLOAD PUSH3 0x18A SWAP2 SWAP1 PUSH3 0x1D3A JUMP JUMPDEST PUSH1 0x40 MLOAD DUP1 SWAP2 SUB SWAP1 RETURN JUMPDEST CALLVALUE DUP1 ISZERO PUSH3 0x1A0 JUMPI PUSH1 0x0 DUP1 REVERT JUMPDEST POP PUSH3 0x1AB PUSH3 0x10BF JUMP JUMPDEST STOP JUMPDEST CALLVALUE DUP1 ISZERO PUSH3 0x1BA JUMPI PUSH1 0x0 DUP1 REVERT JUMPDEST POP PUSH3 0x1D9 PUSH1 0x4 DUP1 CALLDATASIZE SUB DUP2 ADD SWAP1 PUSH3 0x1D3 SWAP2 SWAP1 PUSH3 0x1CC5 JUMP JUMPDEST PUSH3 0x12A8 JUMP JUMPDEST PUSH1 0x40 MLOAD PUSH3 0x1E8 SWAP2 SWAP1 PUSH3 0x1D68 JUMP JUMPDEST PUSH1 0x40 MLOAD DUP1 SWAP2 SUB SWAP1 RETURN JUMPDEST PUSH1 0x3 PUSH1 0x0 SWAP1 SLOAD SWAP1 PUSH2 0x100 EXP SWAP1 DIV PUSH20 0xFFFFFFFFFFFFFFFFFFFFFFFFFFFFFFFFFFFFFFFF AND PUSH20 0xFFFFFFFFFFFFFFFFFFFFFFFFFFFFFFFFFFFFFFFF AND CALLER PUSH20 0xFFFFFFFFFFFFFFFFFFFFFFFFFFFFFFFFFFFFFFFF AND EQ PUSH3 0x284 JUMPI PUSH1 0x40 MLOAD PUSH32 0x8C379A000000000000000000000000000000000000000000000000000000000 DUP2 MSTORE PUSH1 0x4 ADD PUSH3 0x27B SWAP1 PUSH3 0x1DE6 JUMP JUMPDEST PUSH1 0x40 MLOAD DUP1 SWAP2 SUB SWAP1 REVERT JUMPDEST DUP1 PUSH1 0x1 PUSH1 0x0 PUSH2 0x100 EXP DUP2 SLOAD DUP2 PUSH20 0xFFFFFFFFFFFFFFFFFFFFFFFFFFFFFFFFFFFFFFFF MUL NOT AND SWAP1 DUP4 PUSH20 0xFFFFFFFFFFFFFFFFFFFFFFFFFFFFFFFFFFFFFFFF AND MUL OR SWAP1 SSTORE POP POP JUMP JUMPDEST DUP1 PUSH1 0x0 ADD MLOAD DUP1 PUSH20 0xFFFFFFFFFFFFFFFFFFFFFFFFFFFFFFFFFFFFFFFF AND CALLER PUSH20 0xFFFFFFFFFFFFFFFFFFFFFFFFFFFFFFFFFFFFFFFF AND EQ PUSH3 0x33E JUMPI PUSH1 0x40 MLOAD PUSH32 0x8C379A000000000000000000000000000000000000000000000000000000000 DUP2 MSTORE PUSH1 0x4 ADD PUSH3 0x335 SWAP1 PUSH3 0x1E7E JUMP JUMPDEST PUSH1 0x40 MLOAD DUP1 SWAP2 SUB SWAP1 REVERT JUMPDEST PUSH3 0x349 DUP3 PUSH3 0x1311 JUMP JUMPDEST POP POP JUMP JUMPDEST PUSH1 0x0 PUSH1 0x40 MLOAD DUP1 PUSH1 0xE0 ADD PUSH1 0x40 MSTORE DUP1 DUP10 PUSH20 0xFFFFFFFFFFFFFFFFFFFFFFFFFFFFFFFFFFFFFFFF AND DUP2 MSTORE PUSH1 0x20 ADD DUP9 PUSH20 0xFFFFFFFFFFFFFFFFFFFFFFFFFFFFFFFFFFFFFFFF AND DUP2 MSTORE PUSH1 0x20 ADD DUP8 DUP2 MSTORE PUSH1 0x20 ADD DUP7 DUP2 MSTORE PUSH1 0x20 ADD DUP6 DUP2 MSTORE PUSH1 0x20 ADD DUP5 DUP2 MSTORE PUSH1 0x20 ADD DUP4 DUP2 MSTORE POP SWAP1 POP PUSH1 0x0 CALLVALUE SWAP1 POP PUSH1 0x0 PUSH3 0x3E7 PUSH1 0x64 PUSH3 0x3D8 PUSH1 0x2 SLOAD DUP7 PUSH1 0x60 ADD MLOAD PUSH3 0x1537 SWAP1 SWAP2 SWAP1 PUSH4 0xFFFFFFFF AND JUMP JUMPDEST PUSH3 0x154F SWAP1 SWAP2 SWAP1 PUSH4 0xFFFFFFFF AND JUMP JUMPDEST SWAP1 POP PUSH3 0x411 DUP4 PUSH1 0x0 ADD MLOAD DUP5 PUSH1 0x20 ADD MLOAD DUP6 PUSH1 0x40 ADD MLOAD DUP7 PUSH1 0x60 ADD MLOAD DUP8 PUSH1 0x80 ADD MLOAD DUP9 PUSH1 0xA0 ADD MLOAD PUSH3 0x1567 JUMP JUMPDEST PUSH3 0x453 JUMPI PUSH1 0x40 MLOAD PUSH32 0x8C379A000000000000000000000000000000000000000000000000000000000 DUP2 MSTORE PUSH1 0x4 ADD PUSH3 0x44A SWAP1 PUSH3 0x1EF0 JUMP JUMPDEST PUSH1 0x40 MLOAD DUP1 SWAP2 SUB SWAP1 REVERT JUMPDEST PUSH1 0x0 PUSH1 0x4 PUSH1 0x0 CALLER PUSH20 0xFFFFFFFFFFFFFFFFFFFFFFFFFFFFFFFFFFFFFFFF AND PUSH20 0xFFFFFFFFFFFFFFFFFFFFFFFFFFFFFFFFFFFFFFFF AND DUP2 MSTORE PUSH1 0x20 ADD SWAP1 DUP2 MSTORE PUSH1 0x20 ADD PUSH1 0x0 KECCAK256 PUSH1 0x0 SWAP1 SLOAD SWAP1 PUSH2 0x100 EXP SWAP1 DIV PUSH20 0xFFFFFFFFFFFFFFFFFFFFFFFFFFFFFFFFFFFFFFFF AND SWAP1 POP PUSH1 0x0 PUSH1 0x4 PUSH1 0x0 DUP7 PUSH1 0x0 ADD MLOAD PUSH20 0xFFFFFFFFFFFFFFFFFFFFFFFFFFFFFFFFFFFFFFFF AND PUSH20 0xFFFFFFFFFFFFFFFFFFFFFFFFFFFFFFFFFFFFFFFF AND DUP2 MSTORE PUSH1 0x20 ADD SWAP1 DUP2 MSTORE PUSH1 0x20 ADD PUSH1 0x0 KECCAK256 PUSH1 0x0 SWAP1 SLOAD SWAP1 PUSH2 0x100 EXP SWAP1 DIV PUSH20 0xFFFFFFFFFFFFFFFFFFFFFFFFFFFFFFFFFFFFFFFF AND SWAP1 POP PUSH1 0x0 PUSH20 0xFFFFFFFFFFFFFFFFFFFFFFFFFFFFFFFFFFFFFFFF AND PUSH1 0x4 PUSH1 0x0 CALLER PUSH20 0xFFFFFFFFFFFFFFFFFFFFFFFFFFFFFFFFFFFFFFFF AND PUSH20 0xFFFFFFFFFFFFFFFFFFFFFFFFFFFFFFFFFFFFFFFF AND DUP2 MSTORE PUSH1 0x20 ADD SWAP1 DUP2 MSTORE PUSH1 0x20 ADD PUSH1 0x0 KECCAK256 PUSH1 0x0 SWAP1 SLOAD SWAP1 PUSH2 0x100 EXP SWAP1 DIV PUSH20 0xFFFFFFFFFFFFFFFFFFFFFFFFFFFFFFFFFFFFFFFF AND PUSH20 0xFFFFFFFFFFFFFFFFFFFFFFFFFFFFFFFFFFFFFFFF AND SUB PUSH3 0x5F0 JUMPI PUSH1 0x40 MLOAD PUSH32 0x8C379A000000000000000000000000000000000000000000000000000000000 DUP2 MSTORE PUSH1 0x4 ADD PUSH3 0x5E7 SWAP1 PUSH3 0x1F62 JUMP JUMPDEST PUSH1 0x40 MLOAD DUP1 SWAP2 SUB SWAP1 REVERT JUMPDEST PUSH1 0x0 PUSH20 0xFFFFFFFFFFFFFFFFFFFFFFFFFFFFFFFFFFFFFFFF AND PUSH1 0x4 PUSH1 0x0 DUP8 PUSH1 0x0 ADD MLOAD PUSH20 0xFFFFFFFFFFFFFFFFFFFFFFFFFFFFFFFFFFFFFFFF AND PUSH20 0xFFFFFFFFFFFFFFFFFFFFFFFFFFFFFFFFFFFFFFFF AND DUP2 MSTORE PUSH1 0x20 ADD SWAP1 DUP2 MSTORE PUSH1 0x20 ADD PUSH1 0x0 KECCAK256 PUSH1 0x0 SWAP1 SLOAD SWAP1 PUSH2 0x100 EXP SWAP1 DIV PUSH20 0xFFFFFFFFFFFFFFFFFFFFFFFFFFFFFFFFFFFFFFFF AND PUSH20 0xFFFFFFFFFFFFFFFFFFFFFFFFFFFFFFFFFFFFFFFF AND SUB PUSH3 0x6C5 JUMPI PUSH1 0x40 MLOAD PUSH32 0x8C379A000000000000000000000000000000000000000000000000000000000 DUP2 MSTORE PUSH1 0x4 ADD PUSH3 0x6BC SWAP1 PUSH3 0x1F62 JUMP JUMPDEST PUSH1 0x40 MLOAD DUP1 SWAP2 SUB SWAP1 REVERT JUMPDEST DUP5 PUSH1 0x0 ADD MLOAD PUSH20 0xFFFFFFFFFFFFFFFFFFFFFFFFFFFFFFFFFFFFFFFF AND DUP6 PUSH1 0x20 ADD MLOAD PUSH20 0xFFFFFFFFFFFFFFFFFFFFFFFFFFFFFFFFFFFFFFFF AND PUSH4 0x6352211E DUP8 PUSH1 0x40 ADD MLOAD PUSH1 0x40 MLOAD DUP3 PUSH4 0xFFFFFFFF AND PUSH1 0xE0 SHL DUP2 MSTORE PUSH1 0x4 ADD PUSH3 0x723 SWAP2 SWAP1 PUSH3 0x1D3A JUMP JUMPDEST PUSH1 0x20 PUSH1 0x40 MLOAD DUP1 DUP4 SUB DUP2 DUP7 GAS STATICCALL ISZERO DUP1 ISZERO PUSH3 0x741 JUMPI RETURNDATASIZE PUSH1 0x0 DUP1 RETURNDATACOPY RETURNDATASIZE PUSH1 0x0 REVERT JUMPDEST POP POP POP POP PUSH1 0x40 MLOAD RETURNDATASIZE PUSH1 0x1F NOT PUSH1 0x1F DUP3 ADD AND DUP3 ADD DUP1 PUSH1 0x40 MSTORE POP DUP2 ADD SWAP1 PUSH3 0x767 SWAP2 SWAP1 PUSH3 0x1F9B JUMP JUMPDEST PUSH20 0xFFFFFFFFFFFFFFFFFFFFFFFFFFFFFFFFFFFFFFFF AND EQ PUSH3 0x7C0 JUMPI PUSH1 0x40 MLOAD PUSH32 0x8C379A000000000000000000000000000000000000000000000000000000000 DUP2 MSTORE PUSH1 0x4 ADD PUSH3 0x7B7 SWAP1 PUSH3 0x2043 JUMP JUMPDEST PUSH1 0x40 MLOAD DUP1 SWAP2 SUB SWAP1 REVERT JUMPDEST DUP5 PUSH1 0xA0 ADD MLOAD TIMESTAMP GT ISZERO PUSH3 0x85C JUMPI PUSH3 0x7D8 DUP6 PUSH3 0x1311 JUMP JUMPDEST DUP5 PUSH1 0x20 ADD MLOAD PUSH20 0xFFFFFFFFFFFFFFFFFFFFFFFFFFFFFFFFFFFFFFFF AND DUP6 PUSH1 0x0 ADD MLOAD PUSH20 0xFFFFFFFFFFFFFFFFFFFFFFFFFFFFFFFFFFFFFFFF AND PUSH32 0x68138F0EE854A322025BC4FDF83BF151264D42CBC5930A3AFC396A82980028D6 DUP8 PUSH1 0xC0 ADD MLOAD DUP9 PUSH1 0x40 ADD MLOAD PUSH1 0x40 MLOAD PUSH3 0x849 SWAP3 SWAP2 SWAP1 PUSH3 0x2076 JUMP JUMPDEST PUSH1 0x40 MLOAD DUP1 SWAP2 SUB SWAP1 LOG3 POP POP POP POP POP PUSH3 0xD94 JUMP JUMPDEST PUSH1 0x0 DUP6 PUSH1 0x20 ADD MLOAD DUP7 PUSH1 0x40 ADD MLOAD DUP8 PUSH1 0x60 ADD MLOAD DUP9 PUSH1 0xA0 ADD MLOAD DUP10 PUSH1 0x80 ADD MLOAD PUSH1 0x40 MLOAD PUSH1 0x20 ADD PUSH3 0x88D SWAP6 SWAP5 SWAP4 SWAP3 SWAP2 SWAP1 PUSH3 0x2191 JUMP JUMPDEST PUSH1 0x40 MLOAD PUSH1 0x20 DUP2 DUP4 SUB SUB DUP2 MSTORE SWAP1 PUSH1 0x40 MSTORE DUP1 MLOAD SWAP1 PUSH1 0x20 ADD KECCAK256 SWAP1 POP PUSH1 0x0 DUP1 DUP4 PUSH20 0xFFFFFFFFFFFFFFFFFFFFFFFFFFFFFFFFFFFFFFFF AND DUP4 PUSH1 0x40 MLOAD PUSH1 0x24 ADD PUSH3 0x8D2 SWAP2 SWAP1 PUSH3 0x21F6 JUMP JUMPDEST PUSH1 0x40 MLOAD PUSH1 0x20 DUP2 DUP4 SUB SUB DUP2 MSTORE SWAP1 PUSH1 0x40 MSTORE PUSH32 0xEB41850D00000000000000000000000000000000000000000000000000000000 PUSH28 0xFFFFFFFFFFFFFFFFFFFFFFFFFFFFFFFFFFFFFFFFFFFFFFFFFFFFFFFF NOT AND PUSH1 0x20 DUP3 ADD DUP1 MLOAD PUSH28 0xFFFFFFFFFFFFFFFFFFFFFFFFFFFFFFFFFFFFFFFFFFFFFFFFFFFFFFFF DUP4 DUP2 DUP4 AND OR DUP4 MSTORE POP POP POP POP PUSH1 0x40 MLOAD PUSH3 0x95E SWAP2 SWAP1 PUSH3 0x2213 JUMP JUMPDEST PUSH1 0x0 PUSH1 0x40 MLOAD DUP1 DUP4 SUB DUP2 PUSH1 0x0 DUP7 GAS CALL SWAP2 POP POP RETURNDATASIZE DUP1 PUSH1 0x0 DUP2 EQ PUSH3 0x99D JUMPI PUSH1 0x40 MLOAD SWAP2 POP PUSH1 0x1F NOT PUSH1 0x3F RETURNDATASIZE ADD AND DUP3 ADD PUSH1 0x40 MSTORE RETURNDATASIZE DUP3 MSTORE RETURNDATASIZE PUSH1 0x0 PUSH1 0x20 DUP5 ADD RETURNDATACOPY PUSH3 0x9A2 JUMP JUMPDEST PUSH1 0x60 SWAP2 POP JUMPDEST POP SWAP2 POP SWAP2 POP PUSH1 0x0 DUP2 DUP1 PUSH1 0x20 ADD SWAP1 MLOAD DUP2 ADD SWAP1 PUSH3 0x9BF SWAP2 SWAP1 PUSH3 0x2269 JUMP JUMPDEST SWAP1 POP DUP3 DUP1 ISZERO PUSH3 0x9CD JUMPI POP DUP1 ISZERO JUMPDEST PUSH3 0xA0F JUMPI PUSH1 0x40 MLOAD PUSH32 0x8C379A000000000000000000000000000000000000000000000000000000000 DUP2 MSTORE PUSH1 0x4 ADD PUSH3 0xA06 SWAP1 PUSH3 0x22EB JUMP JUMPDEST PUSH1 0x40 MLOAD DUP1 SWAP2 SUB SWAP1 REVERT JUMPDEST PUSH1 0x0 DUP1 DUP7 PUSH20 0xFFFFFFFFFFFFFFFFFFFFFFFFFFFFFFFFFFFFFFFF AND DUP12 DUP11 DUP13 PUSH3 0xA38 SWAP2 SWAP1 PUSH3 0x233C JUMP JUMPDEST CALLER PUSH1 0x40 MLOAD PUSH1 0x24 ADD PUSH3 0xA4D SWAP4 SWAP3 SWAP2 SWAP1 PUSH3 0x24A6 JUMP JUMPDEST PUSH1 0x40 MLOAD PUSH1 0x20 DUP2 DUP4 SUB SUB DUP2 MSTORE SWAP1 PUSH1 0x40 MSTORE PUSH32 0x8AC144E00000000000000000000000000000000000000000000000000000000 PUSH28 0xFFFFFFFFFFFFFFFFFFFFFFFFFFFFFFFFFFFFFFFFFFFFFFFFFFFFFFFF NOT AND PUSH1 0x20 DUP3 ADD DUP1 MLOAD PUSH28 0xFFFFFFFFFFFFFFFFFFFFFFFFFFFFFFFFFFFFFFFFFFFFFFFFFFFFFFFF DUP4 DUP2 DUP4 AND OR DUP4 MSTORE POP POP POP POP PUSH1 0x40 MLOAD PUSH3 0xAD9 SWAP2 SWAP1 PUSH3 0x2213 JUMP JUMPDEST PUSH1 0x0 PUSH1 0x40 MLOAD DUP1 DUP4 SUB DUP2 PUSH1 0x0 DUP7 GAS CALL SWAP2 POP POP RETURNDATASIZE DUP1 PUSH1 0x0 DUP2 EQ PUSH3 0xB18 JUMPI PUSH1 0x40 MLOAD SWAP2 POP PUSH1 0x1F NOT PUSH1 0x3F RETURNDATASIZE ADD AND DUP3 ADD PUSH1 0x40 MSTORE RETURNDATASIZE DUP3 MSTORE RETURNDATASIZE PUSH1 0x0 PUSH1 0x20 DUP5 ADD RETURNDATACOPY PUSH3 0xB1D JUMP JUMPDEST PUSH1 0x60 SWAP2 POP JUMPDEST POP SWAP2 POP SWAP2 POP CALLER PUSH20 0xFFFFFFFFFFFFFFFFFFFFFFFFFFFFFFFFFFFFFFFF AND DUP12 PUSH1 0x20 ADD MLOAD PUSH20 0xFFFFFFFFFFFFFFFFFFFFFFFFFFFFFFFFFFFFFFFF AND PUSH4 0x6352211E DUP14 PUSH1 0x40 ADD MLOAD PUSH1 0x40 MLOAD DUP3 PUSH4 0xFFFFFFFF AND PUSH1 0xE0 SHL DUP2 MSTORE PUSH1 0x4 ADD PUSH3 0xB7C SWAP2 SWAP1 PUSH3 0x1D3A JUMP JUMPDEST PUSH1 0x20 PUSH1 0x40 MLOAD DUP1 DUP4 SUB DUP2 DUP7 GAS STATICCALL ISZERO DUP1 ISZERO PUSH3 0xB9A JUMPI RETURNDATASIZE PUSH1 0x0 DUP1 RETURNDATACOPY RETURNDATASIZE PUSH1 0x0 REVERT JUMPDEST POP POP POP POP PUSH1 0x40 MLOAD RETURNDATASIZE PUSH1 0x1F NOT PUSH1 0x1F DUP3 ADD AND DUP3 ADD DUP1 PUSH1 0x40 MSTORE POP DUP2 ADD SWAP1 PUSH3 0xBC0 SWAP2 SWAP1 PUSH3 0x1F9B JUMP JUMPDEST PUSH20 0xFFFFFFFFFFFFFFFFFFFFFFFFFFFFFFFFFFFFFFFF AND SUB PUSH3 0xD40 JUMPI PUSH3 0xBE7 DUP12 PUSH3 0x1610 JUMP JUMPDEST PUSH1 0x1 PUSH1 0x0 SWAP1 SLOAD SWAP1 PUSH2 0x100 EXP SWAP1 DIV PUSH20 0xFFFFFFFFFFFFFFFFFFFFFFFFFFFFFFFFFFFFFFFF AND PUSH20 0xFFFFFFFFFFFFFFFFFFFFFFFFFFFFFFFFFFFFFFFF AND PUSH2 0x8FC DUP11 SWAP1 DUP2 ISZERO MUL SWAP1 PUSH1 0x40 MLOAD PUSH1 0x0 PUSH1 0x40 MLOAD DUP1 DUP4 SUB DUP2 DUP6 DUP9 DUP9 CALL SWAP4 POP POP POP POP ISZERO DUP1 ISZERO PUSH3 0xC50 JUMPI RETURNDATASIZE PUSH1 0x0 DUP1 RETURNDATACOPY RETURNDATASIZE PUSH1 0x0 REVERT JUMPDEST POP DUP11 PUSH1 0x0 ADD MLOAD PUSH20 0xFFFFFFFFFFFFFFFFFFFFFFFFFFFFFFFFFFFFFFFF AND PUSH2 0x8FC DUP11 DUP13 PUSH3 0xC7D SWAP2 SWAP1 PUSH3 0x233C JUMP JUMPDEST SWAP1 DUP2 ISZERO MUL SWAP1 PUSH1 0x40 MLOAD PUSH1 0x0 PUSH1 0x40 MLOAD DUP1 DUP4 SUB DUP2 DUP6 DUP9 DUP9 CALL SWAP4 POP POP POP POP PUSH3 0xD3A JUMPI CALLER PUSH20 0xFFFFFFFFFFFFFFFFFFFFFFFFFFFFFFFFFFFFFFFF AND PUSH2 0x8FC DUP11 DUP13 PUSH3 0xCC4 SWAP2 SWAP1 PUSH3 0x233C JUMP JUMPDEST SWAP1 DUP2 ISZERO MUL SWAP1 PUSH1 0x40 MLOAD PUSH1 0x0 PUSH1 0x40 MLOAD DUP1 DUP4 SUB DUP2 DUP6 DUP9 DUP9 CALL SWAP4 POP POP POP POP ISZERO DUP1 ISZERO PUSH3 0xCF0 JUMPI RETURNDATASIZE PUSH1 0x0 DUP1 RETURNDATACOPY RETURNDATASIZE PUSH1 0x0 REVERT JUMPDEST POP CALLER PUSH20 0xFFFFFFFFFFFFFFFFFFFFFFFFFFFFFFFFFFFFFFFF AND PUSH2 0x8FC DUP11 SWAP1 DUP2 ISZERO MUL SWAP1 PUSH1 0x40 MLOAD PUSH1 0x0 PUSH1 0x40 MLOAD DUP1 DUP4 SUB DUP2 DUP6 DUP9 DUP9 CALL SWAP4 POP POP POP POP ISZERO DUP1 ISZERO PUSH3 0xD38 JUMPI RETURNDATASIZE PUSH1 0x0 DUP1 RETURNDATACOPY RETURNDATASIZE PUSH1 0x0 REVERT JUMPDEST POP JUMPDEST PUSH3 0xD88 JUMP JUMPDEST PUSH3 0xD4B DUP12 PUSH3 0x16A9 JUMP JUMPDEST PUSH1 0x40 MLOAD PUSH32 0x8C379A000000000000000000000000000000000000000000000000000000000 DUP2 MSTORE PUSH1 0x4 ADD PUSH3 0xD7F SWAP1 PUSH3 0x253A JUMP JUMPDEST PUSH1 0x40 MLOAD DUP1 SWAP2 SUB SWAP1 REVERT JUMPDEST POP POP POP POP POP POP POP POP POP POP POP JUMPDEST POP POP POP POP POP POP POP JUMP JUMPDEST PUSH1 0x0 PUSH20 0xFFFFFFFFFFFFFFFFFFFFFFFFFFFFFFFFFFFFFFFF AND PUSH1 0x4 PUSH1 0x0 CALLER PUSH20 0xFFFFFFFFFFFFFFFFFFFFFFFFFFFFFFFFFFFFFFFF AND PUSH20 0xFFFFFFFFFFFFFFFFFFFFFFFFFFFFFFFFFFFFFFFF AND DUP2 MSTORE PUSH1 0x20 ADD SWAP1 DUP2 MSTORE PUSH1 0x20 ADD PUSH1 0x0 KECCAK256 PUSH1 0x0 SWAP1 SLOAD SWAP1 PUSH2 0x100 EXP SWAP1 DIV PUSH20 0xFFFFFFFFFFFFFFFFFFFFFFFFFFFFFFFFFFFFFFFF AND PUSH20 0xFFFFFFFFFFFFFFFFFFFFFFFFFFFFFFFFFFFFFFFF AND SUB PUSH3 0xE6E JUMPI PUSH1 0x40 MLOAD PUSH32 0x8C379A000000000000000000000000000000000000000000000000000000000 DUP2 MSTORE PUSH1 0x4 ADD PUSH3 0xE65 SWAP1 PUSH3 0x25AC JUMP JUMPDEST PUSH1 0x40 MLOAD DUP1 SWAP2 SUB SWAP1 REVERT JUMPDEST PUSH1 0x0 DUP1 DUP3 PUSH20 0xFFFFFFFFFFFFFFFFFFFFFFFFFFFFFFFFFFFFFFFF AND PUSH1 0x4 PUSH1 0x0 CALLER PUSH20 0xFFFFFFFFFFFFFFFFFFFFFFFFFFFFFFFFFFFFFFFF AND PUSH20 0xFFFFFFFFFFFFFFFFFFFFFFFFFFFFFFFFFFFFFFFF AND DUP2 MSTORE PUSH1 0x20 ADD SWAP1 DUP2 MSTORE PUSH1 0x20 ADD PUSH1 0x0 KECCAK256 PUSH1 0x0 SWAP1 SLOAD SWAP1 PUSH2 0x100 EXP SWAP1 DIV PUSH20 0xFFFFFFFFFFFFFFFFFFFFFFFFFFFFFFFFFFFFFFFF AND PUSH1 0x1 PUSH1 0x40 MLOAD PUSH1 0x24 ADD PUSH3 0xEFD SWAP3 SWAP2 SWAP1 PUSH3 0x25DF JUMP JUMPDEST PUSH1 0x40 MLOAD PUSH1 0x20 DUP2 DUP4 SUB SUB DUP2 MSTORE SWAP1 PUSH1 0x40 MSTORE PUSH32 0xA22CB46500000000000000000000000000000000000000000000000000000000 PUSH28 0xFFFFFFFFFFFFFFFFFFFFFFFFFFFFFFFFFFFFFFFFFFFFFFFFFFFFFFFF NOT AND PUSH1 0x20 DUP3 ADD DUP1 MLOAD PUSH28 0xFFFFFFFFFFFFFFFFFFFFFFFFFFFFFFFFFFFFFFFFFFFFFFFFFFFFFFFF DUP4 DUP2 DUP4 AND OR DUP4 MSTORE POP POP POP POP PUSH1 0x40 MLOAD PUSH3 0xF89 SWAP2 SWAP1 PUSH3 0x2213 JUMP JUMPDEST PUSH1 0x0 PUSH1 0x40 MLOAD DUP1 DUP4 SUB DUP2 DUP6 GAS DELEGATECALL SWAP2 POP POP RETURNDATASIZE DUP1 PUSH1 0x0 DUP2 EQ PUSH3 0xFC6 JUMPI PUSH1 0x40 MLOAD SWAP2 POP PUSH1 0x1F NOT PUSH1 0x3F RETURNDATASIZE ADD AND DUP3 ADD PUSH1 0x40 MSTORE RETURNDATASIZE DUP3 MSTORE RETURNDATASIZE PUSH1 0x0 PUSH1 0x20 DUP5 ADD RETURNDATACOPY PUSH3 0xFCB JUMP JUMPDEST PUSH1 0x60 SWAP2 POP JUMPDEST POP SWAP2 POP SWAP2 POP POP POP POP JUMP JUMPDEST PUSH1 0x3 PUSH1 0x0 SWAP1 SLOAD SWAP1 PUSH2 0x100 EXP SWAP1 DIV PUSH20 0xFFFFFFFFFFFFFFFFFFFFFFFFFFFFFFFFFFFFFFFF AND PUSH20 0xFFFFFFFFFFFFFFFFFFFFFFFFFFFFFFFFFFFFFFFF AND CALLER PUSH20 0xFFFFFFFFFFFFFFFFFFFFFFFFFFFFFFFFFFFFFFFF AND EQ PUSH3 0x1068 JUMPI PUSH1 0x40 MLOAD PUSH32 0x8C379A000000000000000000000000000000000000000000000000000000000 DUP2 MSTORE PUSH1 0x4 ADD PUSH3 0x105F SWAP1 PUSH3 0x1DE6 JUMP JUMPDEST PUSH1 0x40 MLOAD DUP1 SWAP2 SUB SWAP1 REVERT JUMPDEST PUSH1 0x0 PUSH1 0x2 SLOAD SWAP1 POP DUP2 PUSH1 0x2 DUP2 SWAP1 SSTORE POP PUSH32 0x8D10D6DD6545B059182E4BF9534308BF75D7DE65CDD8A68C12B7B74F139E58AE DUP2 DUP4 PUSH1 0x40 MLOAD PUSH3 0x10A9 SWAP3 SWAP2 SWAP1 PUSH3 0x260C JUMP JUMPDEST PUSH1 0x40 MLOAD DUP1 SWAP2 SUB SWAP1 LOG1 POP POP JUMP JUMPDEST PUSH1 0x0 PUSH1 0x2 SLOAD SWAP1 POP SWAP1 JUMP JUMPDEST PUSH1 0x0 PUSH20 0xFFFFFFFFFFFFFFFFFFFFFFFFFFFFFFFFFFFFFFFF AND PUSH1 0x4 PUSH1 0x0 CALLER PUSH20 0xFFFFFFFFFFFFFFFFFFFFFFFFFFFFFFFFFFFFFFFF AND PUSH20 0xFFFFFFFFFFFFFFFFFFFFFFFFFFFFFFFFFFFFFFFF AND DUP2 MSTORE PUSH1 0x20 ADD SWAP1 DUP2 MSTORE PUSH1 0x20 ADD PUSH1 0x0 KECCAK256 PUSH1 0x0 SWAP1 SLOAD SWAP1 PUSH2 0x100 EXP SWAP1 DIV PUSH20 0xFFFFFFFFFFFFFFFFFFFFFFFFFFFFFFFFFFFFFFFF AND PUSH20 0xFFFFFFFFFFFFFFFFFFFFFFFFFFFFFFFFFFFFFFFF AND EQ PUSH3 0x1190 JUMPI PUSH1 0x40 MLOAD PUSH32 0x8C379A000000000000000000000000000000000000000000000000000000000 DUP2 MSTORE PUSH1 0x4 ADD PUSH3 0x1187 SWAP1 PUSH3 0x2689 JUMP JUMPDEST PUSH1 0x40 MLOAD DUP1 SWAP2 SUB SWAP1 REVERT JUMPDEST CALLER PUSH1 0x40 MLOAD PUSH3 0x119F SWAP1 PUSH3 0x17DC JUMP JUMPDEST PUSH3 0x11AB SWAP2 SWAP1 PUSH3 0x1D68 JUMP JUMPDEST PUSH1 0x40 MLOAD DUP1 SWAP2 SUB SWAP1 PUSH1 0x0 CREATE DUP1 ISZERO DUP1 ISZERO PUSH3 0x11C8 JUMPI RETURNDATASIZE PUSH1 0x0 DUP1 RETURNDATACOPY RETURNDATASIZE PUSH1 0x0 REVERT JUMPDEST POP PUSH1 0x0 DUP1 PUSH2 0x100 EXP DUP2 SLOAD DUP2 PUSH20 0xFFFFFFFFFFFFFFFFFFFFFFFFFFFFFFFFFFFFFFFF MUL NOT AND SWAP1 DUP4 PUSH20 0xFFFFFFFFFFFFFFFFFFFFFFFFFFFFFFFFFFFFFFFF AND MUL OR SWAP1 SSTORE POP PUSH1 0x0 DUP1 SLOAD SWAP1 PUSH2 0x100 EXP SWAP1 DIV PUSH20 0xFFFFFFFFFFFFFFFFFFFFFFFFFFFFFFFFFFFFFFFF AND PUSH1 0x4 PUSH1 0x0 CALLER PUSH20 0xFFFFFFFFFFFFFFFFFFFFFFFFFFFFFFFFFFFFFFFF AND PUSH20 0xFFFFFFFFFFFFFFFFFFFFFFFFFFFFFFFFFFFFFFFF AND DUP2 MSTORE PUSH1 0x20 ADD SWAP1 DUP2 MSTORE PUSH1 0x20 ADD PUSH1 0x0 KECCAK256 PUSH1 0x0 PUSH2 0x100 EXP DUP2 SLOAD DUP2 PUSH20 0xFFFFFFFFFFFFFFFFFFFFFFFFFFFFFFFFFFFFFFFF MUL NOT AND SWAP1 DUP4 PUSH20 0xFFFFFFFFFFFFFFFFFFFFFFFFFFFFFFFFFFFFFFFF AND MUL OR SWAP1 SSTORE POP JUMP JUMPDEST PUSH1 0x0 PUSH1 0x4 PUSH1 0x0 DUP4 PUSH20 0xFFFFFFFFFFFFFFFFFFFFFFFFFFFFFFFFFFFFFFFF AND PUSH20 0xFFFFFFFFFFFFFFFFFFFFFFFFFFFFFFFFFFFFFFFF AND DUP2 MSTORE PUSH1 0x20 ADD SWAP1 DUP2 MSTORE PUSH1 0x20 ADD PUSH1 0x0 KECCAK256 PUSH1 0x0 SWAP1 SLOAD SWAP1 PUSH2 0x100 EXP SWAP1 DIV PUSH20 0xFFFFFFFFFFFFFFFFFFFFFFFFFFFFFFFFFFFFFFFF AND SWAP1 POP SWAP2 SWAP1 POP JUMP JUMPDEST PUSH1 0x0 DUP1 PUSH1 0x4 PUSH1 0x0 DUP5 PUSH1 0x0 ADD MLOAD PUSH20 0xFFFFFFFFFFFFFFFFFFFFFFFFFFFFFFFFFFFFFFFF AND PUSH20 0xFFFFFFFFFFFFFFFFFFFFFFFFFFFFFFFFFFFFFFFF AND DUP2 MSTORE PUSH1 0x20 ADD SWAP1 DUP2 MSTORE PUSH1 0x20 ADD PUSH1 0x0 KECCAK256 PUSH1 0x0 SWAP1 SLOAD SWAP1 PUSH2 0x100 EXP SWAP1 DIV PUSH20 0xFFFFFFFFFFFFFFFFFFFFFFFFFFFFFFFFFFFFFFFF AND PUSH20 0xFFFFFFFFFFFFFFFFFFFFFFFFFFFFFFFFFFFFFFFF AND DUP4 PUSH1 0x40 MLOAD PUSH1 0x24 ADD PUSH3 0x13A1 SWAP2 SWAP1 PUSH3 0x26AB JUMP JUMPDEST PUSH1 0x40 MLOAD PUSH1 0x20 DUP2 DUP4 SUB SUB DUP2 MSTORE SWAP1 PUSH1 0x40 MSTORE PUSH32 0xDD30410400000000000000000000000000000000000000000000000000000000 PUSH28 0xFFFFFFFFFFFFFFFFFFFFFFFFFFFFFFFFFFFFFFFFFFFFFFFFFFFFFFFF NOT AND PUSH1 0x20 DUP3 ADD DUP1 MLOAD PUSH28 0xFFFFFFFFFFFFFFFFFFFFFFFFFFFFFFFFFFFFFFFFFFFFFFFFFFFFFFFF DUP4 DUP2 DUP4 AND OR DUP4 MSTORE POP POP POP POP PUSH1 0x40 MLOAD PUSH3 0x142D SWAP2 SWAP1 PUSH3 0x2213 JUMP JUMPDEST PUSH1 0x0 PUSH1 0x40 MLOAD DUP1 DUP4 SUB DUP2 PUSH1 0x0 DUP7 GAS CALL SWAP2 POP POP RETURNDATASIZE DUP1 PUSH1 0x0 DUP2 EQ PUSH3 0x146C JUMPI PUSH1 0x40 MLOAD SWAP2 POP PUSH1 0x1F NOT PUSH1 0x3F RETURNDATASIZE ADD AND DUP3 ADD PUSH1 0x40 MSTORE RETURNDATASIZE DUP3 MSTORE RETURNDATASIZE PUSH1 0x0 PUSH1 0x20 DUP5 ADD RETURNDATACOPY PUSH3 0x1471 JUMP JUMPDEST PUSH1 0x60 SWAP2 POP JUMPDEST POP SWAP2 POP SWAP2 POP DUP2 PUSH3 0x14B9 JUMPI PUSH1 0x40 MLOAD PUSH32 0x8C379A000000000000000000000000000000000000000000000000000000000 DUP2 MSTORE PUSH1 0x4 ADD PUSH3 0x14B0 SWAP1 PUSH3 0x271F JUMP JUMPDEST PUSH1 0x40 MLOAD DUP1 SWAP2 SUB SWAP1 REVERT JUMPDEST DUP3 PUSH1 0x20 ADD MLOAD PUSH20 0xFFFFFFFFFFFFFFFFFFFFFFFFFFFFFFFFFFFFFFFF AND DUP4 PUSH1 0x0 ADD MLOAD PUSH20 0xFFFFFFFFFFFFFFFFFFFFFFFFFFFFFFFFFFFFFFFF AND PUSH32 0x9B3260990101A9C5EB670B44BA2F4EC1048DDAF533A012ABFF3841EF15307FEC DUP6 PUSH1 0xC0 ADD MLOAD DUP7 PUSH1 0x40 ADD MLOAD PUSH1 0x40 MLOAD PUSH3 0x152A SWAP3 SWAP2 SWAP1 PUSH3 0x2076 JUMP JUMPDEST PUSH1 0x40 MLOAD DUP1 SWAP2 SUB SWAP1 LOG3 POP POP POP JUMP JUMPDEST PUSH1 0x0 DUP2 DUP4 PUSH3 0x1547 SWAP2 SWAP1 PUSH3 0x2741 JUMP JUMPDEST SWAP1 POP SWAP3 SWAP2 POP POP JUMP JUMPDEST PUSH1 0x0 DUP2 DUP4 PUSH3 0x155F SWAP2 SWAP1 PUSH3 0x27BB JUMP JUMPDEST SWAP1 POP SWAP3 SWAP2 POP POP JUMP JUMPDEST PUSH1 0x0 DUP1 DUP7 DUP7 DUP7 DUP6 PUSH1 0x40 MLOAD PUSH1 0x20 ADD PUSH3 0x1583 SWAP5 SWAP4 SWAP3 SWAP2 SWAP1 PUSH3 0x27F3 JUMP JUMPDEST PUSH1 0x40 MLOAD PUSH1 0x20 DUP2 DUP4 SUB SUB DUP2 MSTORE SWAP1 PUSH1 0x40 MSTORE DUP1 MLOAD SWAP1 PUSH1 0x20 ADD KECCAK256 SWAP1 POP PUSH1 0x0 DUP2 PUSH1 0x40 MLOAD PUSH1 0x20 ADD PUSH3 0x15B0 SWAP2 SWAP1 PUSH3 0x28C9 JUMP JUMPDEST PUSH1 0x40 MLOAD PUSH1 0x20 DUP2 DUP4 SUB SUB DUP2 MSTORE SWAP1 PUSH1 0x40 MSTORE DUP1 MLOAD SWAP1 PUSH1 0x20 ADD KECCAK256 SWAP1 POP DUP9 PUSH20 0xFFFFFFFFFFFFFFFFFFFFFFFFFFFFFFFFFFFFFFFF AND PUSH3 0x15EB DUP3 DUP8 PUSH3 0x1742 JUMP JUMPDEST PUSH20 0xFFFFFFFFFFFFFFFFFFFFFFFFFFFFFFFFFFFFFFFF AND EQ SWAP3 POP POP POP SWAP7 SWAP6 POP POP POP POP POP POP JUMP JUMPDEST DUP1 PUSH1 0x20 ADD MLOAD PUSH20 0xFFFFFFFFFFFFFFFFFFFFFFFFFFFFFFFFFFFFFFFF AND CALLER PUSH20 0xFFFFFFFFFFFFFFFFFFFFFFFFFFFFFFFFFFFFFFFF AND DUP3 PUSH1 0x0 ADD MLOAD PUSH20 0xFFFFFFFFFFFFFFFFFFFFFFFFFFFFFFFFFFFFFFFF AND PUSH32 0x467F50BD8D1547CF60E60DBA76AB3FF7F8B3A07CEBA26C2268E160A7DF30230E DUP5 PUSH1 0x40 ADD MLOAD DUP6 PUSH1 0xC0 ADD MLOAD DUP7 PUSH1 0x60 ADD MLOAD PUSH1 0x40 MLOAD PUSH3 0x169E SWAP4 SWAP3 SWAP2 SWAP1 PUSH3 0x28F3 JUMP JUMPDEST PUSH1 0x40 MLOAD DUP1 SWAP2 SUB SWAP1 LOG4 POP JUMP JUMPDEST DUP1 PUSH1 0x20 ADD MLOAD PUSH20 0xFFFFFFFFFFFFFFFFFFFFFFFFFFFFFFFFFFFFFFFF AND CALLER PUSH20 0xFFFFFFFFFFFFFFFFFFFFFFFFFFFFFFFFFFFFFFFF AND DUP3 PUSH1 0x0 ADD MLOAD PUSH20 0xFFFFFFFFFFFFFFFFFFFFFFFFFFFFFFFFFFFFFFFF AND PUSH32 0x9BD8CC9F795935D6F423445D18DD997EDFEEC3D962973FADFFEAC5740E876B5F DUP5 PUSH1 0x40 ADD MLOAD DUP6 PUSH1 0xC0 ADD MLOAD DUP7 PUSH1 0x60 ADD MLOAD PUSH1 0x40 MLOAD PUSH3 0x1737 SWAP4 SWAP3 SWAP2 SWAP1 PUSH3 0x28F3 JUMP JUMPDEST PUSH1 0x40 MLOAD DUP1 SWAP2 SUB SWAP1 LOG4 POP JUMP JUMPDEST PUSH1 0x0 DUP1 PUSH1 0x0 DUP1 PUSH1 0x20 DUP6 ADD MLOAD SWAP3 POP PUSH1 0x40 DUP6 ADD MLOAD SWAP2 POP PUSH1 0x60 DUP6 ADD MLOAD PUSH1 0x0 BYTE SWAP1 POP PUSH1 0x1B DUP2 PUSH1 0xFF AND LT ISZERO PUSH3 0x177F JUMPI PUSH1 0x1B DUP2 PUSH3 0x177C SWAP2 SWAP1 PUSH3 0x293D JUMP JUMPDEST SWAP1 POP JUMPDEST PUSH1 0x1 DUP7 DUP3 DUP6 DUP6 PUSH1 0x40 MLOAD PUSH1 0x0 DUP2 MSTORE PUSH1 0x20 ADD PUSH1 0x40 MSTORE PUSH1 0x40 MLOAD PUSH3 0x17A4 SWAP5 SWAP4 SWAP3 SWAP2 SWAP1 PUSH3 0x298A JUMP JUMPDEST PUSH1 0x20 PUSH1 0x40 MLOAD PUSH1 0x20 DUP2 SUB SWAP1 DUP1 DUP5 SUB SWAP1 DUP6 GAS STATICCALL ISZERO DUP1 ISZERO PUSH3 0x17C7 JUMPI RETURNDATASIZE PUSH1 0x0 DUP1 RETURNDATACOPY RETURNDATASIZE PUSH1 0x0 REVERT JUMPDEST POP POP POP PUSH1 0x20 PUSH1 0x40 MLOAD SUB MLOAD SWAP4 POP POP POP POP SWAP3 SWAP2 POP POP JUMP JUMPDEST PUSH2 0xEBE DUP1 PUSH3 0x29D8 DUP4 CODECOPY ADD SWAP1 JUMP JUMPDEST PUSH1 0x0 PUSH1 0x40 MLOAD SWAP1 POP SWAP1 JUMP JUMPDEST PUSH1 0x0 DUP1 REVERT JUMPDEST PUSH1 0x0 DUP1 REVERT JUMPDEST PUSH1 0x0 PUSH20 0xFFFFFFFFFFFFFFFFFFFFFFFFFFFFFFFFFFFFFFFF DUP3 AND SWAP1 POP SWAP2 SWAP1 POP JUMP JUMPDEST PUSH1 0x0 PUSH3 0x182B DUP3 PUSH3 0x17FE JUMP JUMPDEST SWAP1 POP SWAP2 SWAP1 POP JUMP JUMPDEST PUSH3 0x183D DUP2 PUSH3 0x181E JUMP JUMPDEST DUP2 EQ PUSH3 0x1849 JUMPI PUSH1 0x0 DUP1 REVERT JUMPDEST POP JUMP JUMPDEST PUSH1 0x0 DUP2 CALLDATALOAD SWAP1 POP PUSH3 0x185D DUP2 PUSH3 0x1832 JUMP JUMPDEST SWAP3 SWAP2 POP POP JUMP JUMPDEST PUSH1 0x0 PUSH1 0x20 DUP3 DUP5 SUB SLT ISZERO PUSH3 0x187C JUMPI PUSH3 0x187B PUSH3 0x17F4 JUMP JUMPDEST JUMPDEST PUSH1 0x0 PUSH3 0x188C DUP5 DUP3 DUP6 ADD PUSH3 0x184C JUMP JUMPDEST SWAP2 POP POP SWAP3 SWAP2 POP POP JUMP JUMPDEST PUSH1 0x0 DUP1 REVERT JUMPDEST PUSH1 0x0 PUSH1 0x1F NOT PUSH1 0x1F DUP4 ADD AND SWAP1 POP SWAP2 SWAP1 POP JUMP JUMPDEST PUSH32 0x4E487B7100000000000000000000000000000000000000000000000000000000 PUSH1 0x0 MSTORE PUSH1 0x41 PUSH1 0x4 MSTORE PUSH1 0x24 PUSH1 0x0 REVERT JUMPDEST PUSH3 0x18E5 DUP3 PUSH3 0x189A JUMP JUMPDEST DUP2 ADD DUP2 DUP2 LT PUSH8 0xFFFFFFFFFFFFFFFF DUP3 GT OR ISZERO PUSH3 0x1907 JUMPI PUSH3 0x1906 PUSH3 0x18AB JUMP JUMPDEST JUMPDEST DUP1 PUSH1 0x40 MSTORE POP POP POP JUMP JUMPDEST PUSH1 0x0 PUSH3 0x191C PUSH3 0x17EA JUMP JUMPDEST SWAP1 POP PUSH3 0x192A DUP3 DUP3 PUSH3 0x18DA JUMP JUMPDEST SWAP2 SWAP1 POP JUMP JUMPDEST PUSH1 0x0 DUP1 REVERT JUMPDEST PUSH1 0x0 PUSH3 0x1941 DUP3 PUSH3 0x17FE JUMP JUMPDEST SWAP1 POP SWAP2 SWAP1 POP JUMP JUMPDEST PUSH3 0x1953 DUP2 PUSH3 0x1934 JUMP JUMPDEST DUP2 EQ PUSH3 0x195F JUMPI PUSH1 0x0 DUP1 REVERT JUMPDEST POP JUMP JUMPDEST PUSH1 0x0 DUP2 CALLDATALOAD SWAP1 POP PUSH3 0x1973 DUP2 PUSH3 0x1948 JUMP JUMPDEST SWAP3 SWAP2 POP POP JUMP JUMPDEST PUSH1 0x0 DUP2 SWAP1 POP SWAP2 SWAP1 POP JUMP JUMPDEST PUSH3 0x198E DUP2 PUSH3 0x1979 JUMP JUMPDEST DUP2 EQ PUSH3 0x199A JUMPI PUSH1 0x0 DUP1 REVERT JUMPDEST POP JUMP JUMPDEST PUSH1 0x0 DUP2 CALLDATALOAD SWAP1 POP PUSH3 0x19AE DUP2 PUSH3 0x1983 JUMP JUMPDEST SWAP3 SWAP2 POP POP JUMP JUMPDEST PUSH1 0x0 DUP1 REVERT JUMPDEST PUSH1 0x0 DUP1 REVERT JUMPDEST PUSH1 0x0 PUSH8 0xFFFFFFFFFFFFFFFF DUP3 GT ISZERO PUSH3 0x19DC JUMPI PUSH3 0x19DB PUSH3 0x18AB JUMP JUMPDEST JUMPDEST PUSH3 0x19E7 DUP3 PUSH3 0x189A JUMP JUMPDEST SWAP1 POP PUSH1 0x20 DUP2 ADD SWAP1 POP SWAP2 SWAP1 POP JUMP JUMPDEST DUP3 DUP2 DUP4 CALLDATACOPY PUSH1 0x0 DUP4 DUP4 ADD MSTORE POP POP POP JUMP JUMPDEST PUSH1 0x0 PUSH3 0x1A1A PUSH3 0x1A14 DUP5 PUSH3 0x19BE JUMP JUMPDEST PUSH3 0x1910 JUMP JUMPDEST SWAP1 POP DUP3 DUP2 MSTORE PUSH1 0x20 DUP2 ADD DUP5 DUP5 DUP5 ADD GT ISZERO PUSH3 0x1A39 JUMPI PUSH3 0x1A38 PUSH3 0x19B9 JUMP JUMPDEST JUMPDEST PUSH3 0x1A46 DUP5 DUP3 DUP6 PUSH3 0x19F4 JUMP JUMPDEST POP SWAP4 SWAP3 POP POP POP JUMP JUMPDEST PUSH1 0x0 DUP3 PUSH1 0x1F DUP4 ADD SLT PUSH3 0x1A66 JUMPI PUSH3 0x1A65 PUSH3 0x19B4 JUMP JUMPDEST JUMPDEST DUP2 CALLDATALOAD PUSH3 0x1A78 DUP5 DUP3 PUSH1 0x20 DUP7 ADD PUSH3 0x1A03 JUMP JUMPDEST SWAP2 POP POP SWAP3 SWAP2 POP POP JUMP JUMPDEST PUSH1 0x0 DUP2 SWAP1 POP SWAP2 SWAP1 POP JUMP JUMPDEST PUSH3 0x1A96 DUP2 PUSH3 0x1A81 JUMP JUMPDEST DUP2 EQ PUSH3 0x1AA2 JUMPI PUSH1 0x0 DUP1 REVERT JUMPDEST POP JUMP JUMPDEST PUSH1 0x0 DUP2 CALLDATALOAD SWAP1 POP PUSH3 0x1AB6 DUP2 PUSH3 0x1A8B JUMP JUMPDEST SWAP3 SWAP2 POP POP JUMP JUMPDEST PUSH1 0x0 PUSH1 0xE0 DUP3 DUP5 SUB SLT ISZERO PUSH3 0x1AD5 JUMPI PUSH3 0x1AD4 PUSH3 0x1895 JUMP JUMPDEST JUMPDEST PUSH3 0x1AE1 PUSH1 0xE0 PUSH3 0x1910 JUMP JUMPDEST SWAP1 POP PUSH1 0x0 PUSH3 0x1AF3 DUP5 DUP3 DUP6 ADD PUSH3 0x1962 JUMP JUMPDEST PUSH1 0x0 DUP4 ADD MSTORE POP PUSH1 0x20 PUSH3 0x1B09 DUP5 DUP3 DUP6 ADD PUSH3 0x1962 JUMP JUMPDEST PUSH1 0x20 DUP4 ADD MSTORE POP PUSH1 0x40 PUSH3 0x1B1F DUP5 DUP3 DUP6 ADD PUSH3 0x199D JUMP JUMPDEST PUSH1 0x40 DUP4 ADD MSTORE POP PUSH1 0x60 PUSH3 0x1B35 DUP5 DUP3 DUP6 ADD PUSH3 0x199D JUMP JUMPDEST PUSH1 0x60 DUP4 ADD MSTORE POP PUSH1 0x80 DUP3 ADD CALLDATALOAD PUSH8 0xFFFFFFFFFFFFFFFF DUP2 GT ISZERO PUSH3 0x1B5C JUMPI PUSH3 0x1B5B PUSH3 0x192F JUMP JUMPDEST JUMPDEST PUSH3 0x1B6A DUP5 DUP3 DUP6 ADD PUSH3 0x1A4E JUMP JUMPDEST PUSH1 0x80 DUP4 ADD MSTORE POP PUSH1 0xA0 PUSH3 0x1B80 DUP5 DUP3 DUP6 ADD PUSH3 0x199D JUMP JUMPDEST PUSH1 0xA0 DUP4 ADD MSTORE POP PUSH1 0xC0 PUSH3 0x1B96 DUP5 DUP3 DUP6 ADD PUSH3 0x1AA5 JUMP JUMPDEST PUSH1 0xC0 DUP4 ADD MSTORE POP SWAP3 SWAP2 POP POP JUMP JUMPDEST PUSH1 0x0 PUSH1 0x20 DUP3 DUP5 SUB SLT ISZERO PUSH3 0x1BBB JUMPI PUSH3 0x1BBA PUSH3 0x17F4 JUMP JUMPDEST JUMPDEST PUSH1 0x0 DUP3 ADD CALLDATALOAD PUSH8 0xFFFFFFFFFFFFFFFF DUP2 GT ISZERO PUSH3 0x1BDC JUMPI PUSH3 0x1BDB PUSH3 0x17F9 JUMP JUMPDEST JUMPDEST PUSH3 0x1BEA DUP5 DUP3 DUP6 ADD PUSH3 0x1ABC JUMP JUMPDEST SWAP2 POP POP SWAP3 SWAP2 POP POP JUMP JUMPDEST PUSH1 0x0 DUP1 PUSH1 0x0 DUP1 PUSH1 0x0 DUP1 PUSH1 0x0 PUSH1 0xE0 DUP9 DUP11 SUB SLT ISZERO PUSH3 0x1C15 JUMPI PUSH3 0x1C14 PUSH3 0x17F4 JUMP JUMPDEST JUMPDEST PUSH1 0x0 PUSH3 0x1C25 DUP11 DUP3 DUP12 ADD PUSH3 0x1962 JUMP JUMPDEST SWAP8 POP POP PUSH1 0x20 PUSH3 0x1C38 DUP11 DUP3 DUP12 ADD PUSH3 0x1962 JUMP JUMPDEST SWAP7 POP POP PUSH1 0x40 PUSH3 0x1C4B DUP11 DUP3 DUP12 ADD PUSH3 0x199D JUMP JUMPDEST SWAP6 POP POP PUSH1 0x60 PUSH3 0x1C5E DUP11 DUP3 DUP12 ADD PUSH3 0x199D JUMP JUMPDEST SWAP5 POP POP PUSH1 0x80 DUP9 ADD CALLDATALOAD PUSH8 0xFFFFFFFFFFFFFFFF DUP2 GT ISZERO PUSH3 0x1C82 JUMPI PUSH3 0x1C81 PUSH3 0x17F9 JUMP JUMPDEST JUMPDEST PUSH3 0x1C90 DUP11 DUP3 DUP12 ADD PUSH3 0x1A4E JUMP JUMPDEST SWAP4 POP POP PUSH1 0xA0 PUSH3 0x1CA3 DUP11 DUP3 DUP12 ADD PUSH3 0x199D JUMP JUMPDEST SWAP3 POP POP PUSH1 0xC0 PUSH3 0x1CB6 DUP11 DUP3 DUP12 ADD PUSH3 0x1AA5 JUMP JUMPDEST SWAP2 POP POP SWAP3 SWAP6 SWAP9 SWAP2 SWAP5 SWAP8 POP SWAP3 SWAP6 POP JUMP JUMPDEST PUSH1 0x0 PUSH1 0x20 DUP3 DUP5 SUB SLT ISZERO PUSH3 0x1CDE JUMPI PUSH3 0x1CDD PUSH3 0x17F4 JUMP JUMPDEST JUMPDEST PUSH1 0x0 PUSH3 0x1CEE DUP5 DUP3 DUP6 ADD PUSH3 0x1962 JUMP JUMPDEST SWAP2 POP POP SWAP3 SWAP2 POP POP JUMP JUMPDEST PUSH1 0x0 PUSH1 0x20 DUP3 DUP5 SUB SLT ISZERO PUSH3 0x1D10 JUMPI PUSH3 0x1D0F PUSH3 0x17F4 JUMP JUMPDEST JUMPDEST PUSH1 0x0 PUSH3 0x1D20 DUP5 DUP3 DUP6 ADD PUSH3 0x199D JUMP JUMPDEST SWAP2 POP POP SWAP3 SWAP2 POP POP JUMP JUMPDEST PUSH3 0x1D34 DUP2 PUSH3 0x1979 JUMP JUMPDEST DUP3 MSTORE POP POP JUMP JUMPDEST PUSH1 0x0 PUSH1 0x20 DUP3 ADD SWAP1 POP PUSH3 0x1D51 PUSH1 0x0 DUP4 ADD DUP5 PUSH3 0x1D29 JUMP JUMPDEST SWAP3 SWAP2 POP POP JUMP JUMPDEST PUSH3 0x1D62 DUP2 PUSH3 0x1934 JUMP JUMPDEST DUP3 MSTORE POP POP JUMP JUMPDEST PUSH1 0x0 PUSH1 0x20 DUP3 ADD SWAP1 POP PUSH3 0x1D7F PUSH1 0x0 DUP4 ADD DUP5 PUSH3 0x1D57 JUMP JUMPDEST SWAP3 SWAP2 POP POP JUMP JUMPDEST PUSH1 0x0 DUP3 DUP3 MSTORE PUSH1 0x20 DUP3 ADD SWAP1 POP SWAP3 SWAP2 POP POP JUMP JUMPDEST PUSH32 0x6F6E6C79206F776E65722063616E2063616C6C20746869730000000000000000 PUSH1 0x0 DUP3 ADD MSTORE POP JUMP JUMPDEST PUSH1 0x0 PUSH3 0x1DCE PUSH1 0x18 DUP4 PUSH3 0x1D85 JUMP JUMPDEST SWAP2 POP PUSH3 0x1DDB DUP3 PUSH3 0x1D96 JUMP JUMPDEST PUSH1 0x20 DUP3 ADD SWAP1 POP SWAP2 SWAP1 POP JUMP JUMPDEST PUSH1 0x0 PUSH1 0x20 DUP3 ADD SWAP1 POP DUP2 DUP2 SUB PUSH1 0x0 DUP4 ADD MSTORE PUSH3 0x1E01 DUP2 PUSH3 0x1DBF JUMP JUMPDEST SWAP1 POP SWAP2 SWAP1 POP JUMP JUMPDEST PUSH32 0x4F6E6C792073656C6C65722063616E2063616C6C20746869732066756E637469 PUSH1 0x0 DUP3 ADD MSTORE PUSH32 0x6F6E000000000000000000000000000000000000000000000000000000000000 PUSH1 0x20 DUP3 ADD MSTORE POP JUMP JUMPDEST PUSH1 0x0 PUSH3 0x1E66 PUSH1 0x22 DUP4 PUSH3 0x1D85 JUMP JUMPDEST SWAP2 POP PUSH3 0x1E73 DUP3 PUSH3 0x1E08 JUMP JUMPDEST PUSH1 0x40 DUP3 ADD SWAP1 POP SWAP2 SWAP1 POP JUMP JUMPDEST PUSH1 0x0 PUSH1 0x20 DUP3 ADD SWAP1 POP DUP2 DUP2 SUB PUSH1 0x0 DUP4 ADD MSTORE PUSH3 0x1E99 DUP2 PUSH3 0x1E57 JUMP JUMPDEST SWAP1 POP SWAP2 SWAP1 POP JUMP JUMPDEST PUSH32 0x496E76616C6964207369676E6174757265000000000000000000000000000000 PUSH1 0x0 DUP3 ADD MSTORE POP JUMP JUMPDEST PUSH1 0x0 PUSH3 0x1ED8 PUSH1 0x11 DUP4 PUSH3 0x1D85 JUMP JUMPDEST SWAP2 POP PUSH3 0x1EE5 DUP3 PUSH3 0x1EA0 JUMP JUMPDEST PUSH1 0x20 DUP3 ADD SWAP1 POP SWAP2 SWAP1 POP JUMP JUMPDEST PUSH1 0x0 PUSH1 0x20 DUP3 ADD SWAP1 POP DUP2 DUP2 SUB PUSH1 0x0 DUP4 ADD MSTORE PUSH3 0x1F0B DUP2 PUSH3 0x1EC9 JUMP JUMPDEST SWAP1 POP SWAP2 SWAP1 POP JUMP JUMPDEST PUSH32 0x50726F78792077616C6C6574206E6F7420666F756E6400000000000000000000 PUSH1 0x0 DUP3 ADD MSTORE POP JUMP JUMPDEST PUSH1 0x0 PUSH3 0x1F4A PUSH1 0x16 DUP4 PUSH3 0x1D85 JUMP JUMPDEST SWAP2 POP PUSH3 0x1F57 DUP3 PUSH3 0x1F12 JUMP JUMPDEST PUSH1 0x20 DUP3 ADD SWAP1 POP SWAP2 SWAP1 POP JUMP JUMPDEST PUSH1 0x0 PUSH1 0x20 DUP3 ADD SWAP1 POP DUP2 DUP2 SUB PUSH1 0x0 DUP4 ADD MSTORE PUSH3 0x1F7D DUP2 PUSH3 0x1F3B JUMP JUMPDEST SWAP1 POP SWAP2 SWAP1 POP JUMP JUMPDEST PUSH1 0x0 DUP2 MLOAD SWAP1 POP PUSH3 0x1F95 DUP2 PUSH3 0x1948 JUMP JUMPDEST SWAP3 SWAP2 POP POP JUMP JUMPDEST PUSH1 0x0 PUSH1 0x20 DUP3 DUP5 SUB SLT ISZERO PUSH3 0x1FB4 JUMPI PUSH3 0x1FB3 PUSH3 0x17F4 JUMP JUMPDEST JUMPDEST PUSH1 0x0 PUSH3 0x1FC4 DUP5 DUP3 DUP6 ADD PUSH3 0x1F84 JUMP JUMPDEST SWAP2 POP POP SWAP3 SWAP2 POP POP JUMP JUMPDEST PUSH32 0x53656C6C6572206973206E6F7420746865206F776E6572206F66207468697320 PUSH1 0x0 DUP3 ADD MSTORE PUSH32 0x746F6B656E000000000000000000000000000000000000000000000000000000 PUSH1 0x20 DUP3 ADD MSTORE POP JUMP JUMPDEST PUSH1 0x0 PUSH3 0x202B PUSH1 0x25 DUP4 PUSH3 0x1D85 JUMP JUMPDEST SWAP2 POP PUSH3 0x2038 DUP3 PUSH3 0x1FCD JUMP JUMPDEST PUSH1 0x40 DUP3 ADD SWAP1 POP SWAP2 SWAP1 POP JUMP JUMPDEST PUSH1 0x0 PUSH1 0x20 DUP3 ADD SWAP1 POP DUP2 DUP2 SUB PUSH1 0x0 DUP4 ADD MSTORE PUSH3 0x205E DUP2 PUSH3 0x201C JUMP JUMPDEST SWAP1 POP SWAP2 SWAP1 POP JUMP JUMPDEST PUSH3 0x2070 DUP2 PUSH3 0x1A81 JUMP JUMPDEST DUP3 MSTORE POP POP JUMP JUMPDEST PUSH1 0x0 PUSH1 0x40 DUP3 ADD SWAP1 POP PUSH3 0x208D PUSH1 0x0 DUP4 ADD DUP6 PUSH3 0x2065 JUMP JUMPDEST PUSH3 0x209C PUSH1 0x20 DUP4 ADD DUP5 PUSH3 0x1D29 JUMP JUMPDEST SWAP4 SWAP3 POP POP POP JUMP JUMPDEST PUSH1 0x0 DUP2 PUSH1 0x60 SHL SWAP1 POP SWAP2 SWAP1 POP JUMP JUMPDEST PUSH1 0x0 PUSH3 0x20BD DUP3 PUSH3 0x20A3 JUMP JUMPDEST SWAP1 POP SWAP2 SWAP1 POP JUMP JUMPDEST PUSH1 0x0 PUSH3 0x20D1 DUP3 PUSH3 0x20B0 JUMP JUMPDEST SWAP1 POP SWAP2 SWAP1 POP JUMP JUMPDEST PUSH3 0x20ED PUSH3 0x20E7 DUP3 PUSH3 0x1934 JUMP JUMPDEST PUSH3 0x20C4 JUMP JUMPDEST DUP3 MSTORE POP POP JUMP JUMPDEST PUSH1 0x0 DUP2 SWAP1 POP SWAP2 SWAP1 POP JUMP JUMPDEST PUSH3 0x2112 PUSH3 0x210C DUP3 PUSH3 0x1979 JUMP JUMPDEST PUSH3 0x20F3 JUMP JUMPDEST DUP3 MSTORE POP POP JUMP JUMPDEST PUSH1 0x0 DUP2 MLOAD SWAP1 POP SWAP2 SWAP1 POP JUMP JUMPDEST PUSH1 0x0 DUP2 SWAP1 POP SWAP3 SWAP2 POP POP JUMP JUMPDEST PUSH1 0x0 JUMPDEST DUP4 DUP2 LT ISZERO PUSH3 0x214E JUMPI DUP1 DUP3 ADD MLOAD DUP2 DUP5 ADD MSTORE PUSH1 0x20 DUP2 ADD SWAP1 POP PUSH3 0x2131 JUMP JUMPDEST PUSH1 0x0 DUP5 DUP5 ADD MSTORE POP POP POP POP JUMP JUMPDEST PUSH1 0x0 PUSH3 0x2167 DUP3 PUSH3 0x2118 JUMP JUMPDEST PUSH3 0x2173 DUP2 DUP6 PUSH3 0x2123 JUMP JUMPDEST SWAP4 POP PUSH3 0x2185 DUP2 DUP6 PUSH1 0x20 DUP7 ADD PUSH3 0x212E JUMP JUMPDEST DUP1 DUP5 ADD SWAP2 POP POP SWAP3 SWAP2 POP POP JUMP JUMPDEST PUSH1 0x0 PUSH3 0x219F DUP3 DUP9 PUSH3 0x20D8 JUMP JUMPDEST PUSH1 0x14 DUP3 ADD SWAP2 POP PUSH3 0x21B1 DUP3 DUP8 PUSH3 0x20FD JUMP JUMPDEST PUSH1 0x20 DUP3 ADD SWAP2 POP PUSH3 0x21C3 DUP3 DUP7 PUSH3 0x20FD JUMP JUMPDEST PUSH1 0x20 DUP3 ADD SWAP2 POP PUSH3 0x21D5 DUP3 DUP6 PUSH3 0x20FD JUMP JUMPDEST PUSH1 0x20 DUP3 ADD SWAP2 POP PUSH3 0x21E7 DUP3 DUP5 PUSH3 0x215A JUMP JUMPDEST SWAP2 POP DUP2 SWAP1 POP SWAP7 SWAP6 POP POP POP POP POP POP JUMP JUMPDEST PUSH1 0x0 PUSH1 0x20 DUP3 ADD SWAP1 POP PUSH3 0x220D PUSH1 0x0 DUP4 ADD DUP5 PUSH3 0x2065 JUMP JUMPDEST SWAP3 SWAP2 POP POP JUMP JUMPDEST PUSH1 0x0 PUSH3 0x2221 DUP3 DUP5 PUSH3 0x215A JUMP JUMPDEST SWAP2 POP DUP2 SWAP1 POP SWAP3 SWAP2 POP POP JUMP JUMPDEST PUSH1 0x0 DUP2 ISZERO ISZERO SWAP1 POP SWAP2 SWAP1 POP JUMP JUMPDEST PUSH3 0x2243 DUP2 PUSH3 0x222C JUMP JUMPDEST DUP2 EQ PUSH3 0x224F JUMPI PUSH1 0x0 DUP1 REVERT JUMPDEST POP JUMP JUMPDEST PUSH1 0x0 DUP2 MLOAD SWAP1 POP PUSH3 0x2263 DUP2 PUSH3 0x2238 JUMP JUMPDEST SWAP3 SWAP2 POP POP JUMP JUMPDEST PUSH1 0x0 PUSH1 0x20 DUP3 DUP5 SUB SLT ISZERO PUSH3 0x2282 JUMPI PUSH3 0x2281 PUSH3 0x17F4 JUMP JUMPDEST JUMPDEST PUSH1 0x0 PUSH3 0x2292 DUP5 DUP3 DUP6 ADD PUSH3 0x2252 JUMP JUMPDEST SWAP2 POP POP SWAP3 SWAP2 POP POP JUMP JUMPDEST PUSH32 0x4F72646572206973206E6F742076616C69640000000000000000000000000000 PUSH1 0x0 DUP3 ADD MSTORE POP JUMP JUMPDEST PUSH1 0x0 PUSH3 0x22D3 PUSH1 0x12 DUP4 PUSH3 0x1D85 JUMP JUMPDEST SWAP2 POP PUSH3 0x22E0 DUP3 PUSH3 0x229B JUMP JUMPDEST PUSH1 0x20 DUP3 ADD SWAP1 POP SWAP2 SWAP1 POP JUMP JUMPDEST PUSH1 0x0 PUSH1 0x20 DUP3 ADD SWAP1 POP DUP2 DUP2 SUB PUSH1 0x0 DUP4 ADD MSTORE PUSH3 0x2306 DUP2 PUSH3 0x22C4 JUMP JUMPDEST SWAP1 POP SWAP2 SWAP1 POP JUMP JUMPDEST PUSH32 0x4E487B7100000000000000000000000000000000000000000000000000000000 PUSH1 0x0 MSTORE PUSH1 0x11 PUSH1 0x4 MSTORE PUSH1 0x24 PUSH1 0x0 REVERT JUMPDEST PUSH1 0x0 PUSH3 0x2349 DUP3 PUSH3 0x1979 JUMP JUMPDEST SWAP2 POP PUSH3 0x2356 DUP4 PUSH3 0x1979 JUMP JUMPDEST SWAP3 POP DUP3 DUP3 SUB SWAP1 POP DUP2 DUP2 GT ISZERO PUSH3 0x2371 JUMPI PUSH3 0x2370 PUSH3 0x230D JUMP JUMPDEST JUMPDEST SWAP3 SWAP2 POP POP JUMP JUMPDEST PUSH3 0x2382 DUP2 PUSH3 0x1934 JUMP JUMPDEST DUP3 MSTORE POP POP JUMP JUMPDEST PUSH3 0x2393 DUP2 PUSH3 0x1979 JUMP JUMPDEST DUP3 MSTORE POP POP JUMP JUMPDEST PUSH1 0x0 DUP3 DUP3 MSTORE PUSH1 0x20 DUP3 ADD SWAP1 POP SWAP3 SWAP2 POP POP JUMP JUMPDEST PUSH1 0x0 PUSH3 0x23B7 DUP3 PUSH3 0x2118 JUMP JUMPDEST PUSH3 0x23C3 DUP2 DUP6 PUSH3 0x2399 JUMP JUMPDEST SWAP4 POP PUSH3 0x23D5 DUP2 DUP6 PUSH1 0x20 DUP7 ADD PUSH3 0x212E JUMP JUMPDEST PUSH3 0x23E0 DUP2 PUSH3 0x189A JUMP JUMPDEST DUP5 ADD SWAP2 POP POP SWAP3 SWAP2 POP POP JUMP JUMPDEST PUSH3 0x23F6 DUP2 PUSH3 0x1A81 JUMP JUMPDEST DUP3 MSTORE POP POP JUMP JUMPDEST PUSH1 0x0 PUSH1 0xE0 DUP4 ADD PUSH1 0x0 DUP4 ADD MLOAD PUSH3 0x2416 PUSH1 0x0 DUP7 ADD DUP3 PUSH3 0x2377 JUMP JUMPDEST POP PUSH1 0x20 DUP4 ADD MLOAD PUSH3 0x242B PUSH1 0x20 DUP7 ADD DUP3 PUSH3 0x2377 JUMP JUMPDEST POP PUSH1 0x40 DUP4 ADD MLOAD PUSH3 0x2440 PUSH1 0x40 DUP7 ADD DUP3 PUSH3 0x2388 JUMP JUMPDEST POP PUSH1 0x60 DUP4 ADD MLOAD PUSH3 0x2455 PUSH1 0x60 DUP7 ADD DUP3 PUSH3 0x2388 JUMP JUMPDEST POP PUSH1 0x80 DUP4 ADD MLOAD DUP5 DUP3 SUB PUSH1 0x80 DUP7 ADD MSTORE PUSH3 0x246F DUP3 DUP3 PUSH3 0x23AA JUMP JUMPDEST SWAP2 POP POP PUSH1 0xA0 DUP4 ADD MLOAD PUSH3 0x2486 PUSH1 0xA0 DUP7 ADD DUP3 PUSH3 0x2388 JUMP JUMPDEST POP PUSH1 0xC0 DUP4 ADD MLOAD PUSH3 0x249B PUSH1 0xC0 DUP7 ADD DUP3 PUSH3 0x23EB JUMP JUMPDEST POP DUP1 SWAP2 POP POP SWAP3 SWAP2 POP POP JUMP JUMPDEST PUSH1 0x0 PUSH1 0x60 DUP3 ADD SWAP1 POP DUP2 DUP2 SUB PUSH1 0x0 DUP4 ADD MSTORE PUSH3 0x24C2 DUP2 DUP7 PUSH3 0x23FC JUMP JUMPDEST SWAP1 POP PUSH3 0x24D3 PUSH1 0x20 DUP4 ADD DUP6 PUSH3 0x1D29 JUMP JUMPDEST PUSH3 0x24E2 PUSH1 0x40 DUP4 ADD DUP5 PUSH3 0x1D57 JUMP JUMPDEST SWAP5 SWAP4 POP POP POP POP JUMP JUMPDEST PUSH32 0x6D617463686661696C0000000000000000000000000000000000000000000000 PUSH1 0x0 DUP3 ADD MSTORE POP JUMP JUMPDEST PUSH1 0x0 PUSH3 0x2522 PUSH1 0x9 DUP4 PUSH3 0x1D85 JUMP JUMPDEST SWAP2 POP PUSH3 0x252F DUP3 PUSH3 0x24EA JUMP JUMPDEST PUSH1 0x20 DUP3 ADD SWAP1 POP SWAP2 SWAP1 POP JUMP JUMPDEST PUSH1 0x0 PUSH1 0x20 DUP3 ADD SWAP1 POP DUP2 DUP2 SUB PUSH1 0x0 DUP4 ADD MSTORE PUSH3 0x2555 DUP2 PUSH3 0x2513 JUMP JUMPDEST SWAP1 POP SWAP2 SWAP1 POP JUMP JUMPDEST PUSH32 0x6E6F2070726F78792077616C6C65740000000000000000000000000000000000 PUSH1 0x0 DUP3 ADD MSTORE POP JUMP JUMPDEST PUSH1 0x0 PUSH3 0x2594 PUSH1 0xF DUP4 PUSH3 0x1D85 JUMP JUMPDEST SWAP2 POP PUSH3 0x25A1 DUP3 PUSH3 0x255C JUMP JUMPDEST PUSH1 0x20 DUP3 ADD SWAP1 POP SWAP2 SWAP1 POP JUMP JUMPDEST PUSH1 0x0 PUSH1 0x20 DUP3 ADD SWAP1 POP DUP2 DUP2 SUB PUSH1 0x0 DUP4 ADD MSTORE PUSH3 0x25C7 DUP2 PUSH3 0x2585 JUMP JUMPDEST SWAP1 POP SWAP2 SWAP1 POP JUMP JUMPDEST PUSH3 0x25D9 DUP2 PUSH3 0x222C JUMP JUMPDEST DUP3 MSTORE POP POP JUMP JUMPDEST PUSH1 0x0 PUSH1 0x40 DUP3 ADD SWAP1 POP PUSH3 0x25F6 PUSH1 0x0 DUP4 ADD DUP6 PUSH3 0x1D57 JUMP JUMPDEST PUSH3 0x2605 PUSH1 0x20 DUP4 ADD DUP5 PUSH3 0x25CE JUMP JUMPDEST SWAP4 SWAP3 POP POP POP JUMP JUMPDEST PUSH1 0x0 PUSH1 0x40 DUP3 ADD SWAP1 POP PUSH3 0x2623 PUSH1 0x0 DUP4 ADD DUP6 PUSH3 0x1D29 JUMP JUMPDEST PUSH3 0x2632 PUSH1 0x20 DUP4 ADD DUP5 PUSH3 0x1D29 JUMP JUMPDEST SWAP4 SWAP3 POP POP POP JUMP JUMPDEST PUSH32 0x50726F78792077616C6C657420616C7265616479206578697374730000000000 PUSH1 0x0 DUP3 ADD MSTORE POP JUMP JUMPDEST PUSH1 0x0 PUSH3 0x2671 PUSH1 0x1B DUP4 PUSH3 0x1D85 JUMP JUMPDEST SWAP2 POP PUSH3 0x267E DUP3 PUSH3 0x2639 JUMP JUMPDEST PUSH1 0x20 DUP3 ADD SWAP1 POP SWAP2 SWAP1 POP JUMP JUMPDEST PUSH1 0x0 PUSH1 0x20 DUP3 ADD SWAP1 POP DUP2 DUP2 SUB PUSH1 0x0 DUP4 ADD MSTORE PUSH3 0x26A4 DUP2 PUSH3 0x2662 JUMP JUMPDEST SWAP1 POP SWAP2 SWAP1 POP JUMP JUMPDEST PUSH1 0x0 PUSH1 0x20 DUP3 ADD SWAP1 POP DUP2 DUP2 SUB PUSH1 0x0 DUP4 ADD MSTORE PUSH3 0x26C7 DUP2 DUP5 PUSH3 0x23FC JUMP JUMPDEST SWAP1 POP SWAP3 SWAP2 POP POP JUMP JUMPDEST PUSH32 0x43616E63656C2073656C6C206F72646572206661696C65640000000000000000 PUSH1 0x0 DUP3 ADD MSTORE POP JUMP JUMPDEST PUSH1 0x0 PUSH3 0x2707 PUSH1 0x18 DUP4 PUSH3 0x1D85 JUMP JUMPDEST SWAP2 POP PUSH3 0x2714 DUP3 PUSH3 0x26CF JUMP JUMPDEST PUSH1 0x20 DUP3 ADD SWAP1 POP SWAP2 SWAP1 POP JUMP JUMPDEST PUSH1 0x0 PUSH1 0x20 DUP3 ADD SWAP1 POP DUP2 DUP2 SUB PUSH1 0x0 DUP4 ADD MSTORE PUSH3 0x273A DUP2 PUSH3 0x26F8 JUMP JUMPDEST SWAP1 POP SWAP2 SWAP1 POP JUMP JUMPDEST PUSH1 0x0 PUSH3 0x274E DUP3 PUSH3 0x1979 JUMP JUMPDEST SWAP2 POP PUSH3 0x275B DUP4 PUSH3 0x1979 JUMP JUMPDEST SWAP3 POP DUP3 DUP3 MUL PUSH3 0x276B DUP2 PUSH3 0x1979 JUMP JUMPDEST SWAP2 POP DUP3 DUP3 DIV DUP5 EQ DUP4 ISZERO OR PUSH3 0x2785 JUMPI PUSH3 0x2784 PUSH3 0x230D JUMP JUMPDEST JUMPDEST POP SWAP3 SWAP2 POP POP JUMP JUMPDEST PUSH32 0x4E487B7100000000000000000000000000000000000000000000000000000000 PUSH1 0x0 MSTORE PUSH1 0x12 PUSH1 0x4 MSTORE PUSH1 0x24 PUSH1 0x0 REVERT JUMPDEST PUSH1 0x0 PUSH3 0x27C8 DUP3 PUSH3 0x1979 JUMP JUMPDEST SWAP2 POP PUSH3 0x27D5 DUP4 PUSH3 0x1979 JUMP JUMPDEST SWAP3 POP DUP3 PUSH3 0x27E8 JUMPI PUSH3 0x27E7 PUSH3 0x278C JUMP JUMPDEST JUMPDEST DUP3 DUP3 DIV SWAP1 POP SWAP3 SWAP2 POP POP JUMP JUMPDEST PUSH1 0x0 PUSH3 0x2801 DUP3 DUP8 PUSH3 0x20D8 JUMP JUMPDEST PUSH1 0x14 DUP3 ADD SWAP2 POP PUSH3 0x2813 DUP3 DUP7 PUSH3 0x20FD JUMP JUMPDEST PUSH1 0x20 DUP3 ADD SWAP2 POP PUSH3 0x2825 DUP3 DUP6 PUSH3 0x20FD JUMP JUMPDEST PUSH1 0x20 DUP3 ADD SWAP2 POP PUSH3 0x2837 DUP3 DUP5 PUSH3 0x20FD JUMP JUMPDEST PUSH1 0x20 DUP3 ADD SWAP2 POP DUP2 SWAP1 POP SWAP6 SWAP5 POP POP POP POP POP JUMP JUMPDEST PUSH1 0x0 DUP2 SWAP1 POP SWAP3 SWAP2 POP POP JUMP JUMPDEST PUSH32 0x19457468657265756D205369676E6564204D6573736167653A0A333200000000 PUSH1 0x0 DUP3 ADD MSTORE POP JUMP JUMPDEST PUSH1 0x0 PUSH3 0x288C PUSH1 0x1C DUP4 PUSH3 0x2849 JUMP JUMPDEST SWAP2 POP PUSH3 0x2899 DUP3 PUSH3 0x2854 JUMP JUMPDEST PUSH1 0x1C DUP3 ADD SWAP1 POP SWAP2 SWAP1 POP JUMP JUMPDEST PUSH1 0x0 DUP2 SWAP1 POP SWAP2 SWAP1 POP JUMP JUMPDEST PUSH3 0x28C3 PUSH3 0x28BD DUP3 PUSH3 0x1A81 JUMP JUMPDEST PUSH3 0x28A4 JUMP JUMPDEST DUP3 MSTORE POP POP JUMP JUMPDEST PUSH1 0x0 PUSH3 0x28D6 DUP3 PUSH3 0x287D JUMP JUMPDEST SWAP2 POP PUSH3 0x28E4 DUP3 DUP5 PUSH3 0x28AE JUMP JUMPDEST PUSH1 0x20 DUP3 ADD SWAP2 POP DUP2 SWAP1 POP SWAP3 SWAP2 POP POP JUMP JUMPDEST PUSH1 0x0 PUSH1 0x60 DUP3 ADD SWAP1 POP PUSH3 0x290A PUSH1 0x0 DUP4 ADD DUP7 PUSH3 0x1D29 JUMP JUMPDEST PUSH3 0x2919 PUSH1 0x20 DUP4 ADD DUP6 PUSH3 0x2065 JUMP JUMPDEST PUSH3 0x2928 PUSH1 0x40 DUP4 ADD DUP5 PUSH3 0x1D29 JUMP JUMPDEST SWAP5 SWAP4 POP POP POP POP JUMP JUMPDEST PUSH1 0x0 PUSH1 0xFF DUP3 AND SWAP1 POP SWAP2 SWAP1 POP JUMP JUMPDEST PUSH1 0x0 PUSH3 0x294A DUP3 PUSH3 0x2930 JUMP JUMPDEST SWAP2 POP PUSH3 0x2957 DUP4 PUSH3 0x2930 JUMP JUMPDEST SWAP3 POP DUP3 DUP3 ADD SWAP1 POP PUSH1 0xFF DUP2 GT ISZERO PUSH3 0x2973 JUMPI PUSH3 0x2972 PUSH3 0x230D JUMP JUMPDEST JUMPDEST SWAP3 SWAP2 POP POP JUMP JUMPDEST PUSH3 0x2984 DUP2 PUSH3 0x2930 JUMP JUMPDEST DUP3 MSTORE POP POP JUMP JUMPDEST PUSH1 0x0 PUSH1 0x80 DUP3 ADD SWAP1 POP PUSH3 0x29A1 PUSH1 0x0 DUP4 ADD DUP8 PUSH3 0x2065 JUMP JUMPDEST PUSH3 0x29B0 PUSH1 0x20 DUP4 ADD DUP7 PUSH3 0x2979 JUMP JUMPDEST PUSH3 0x29BF PUSH1 0x40 DUP4 ADD DUP6 PUSH3 0x2065 JUMP JUMPDEST PUSH3 0x29CE PUSH1 0x60 DUP4 ADD DUP5 PUSH3 0x2065 JUMP JUMPDEST SWAP6 SWAP5 POP POP POP POP POP JUMP INVALID PUSH1 0x80 PUSH1 0x40 MSTORE PUSH1 0x40 MLOAD PUSH2 0xEBE CODESIZE SUB DUP1 PUSH2 0xEBE DUP4 CODECOPY DUP2 DUP2 ADD PUSH1 0x40 MSTORE DUP2 ADD SWAP1 PUSH2 0x25 SWAP2 SWAP1 PUSH2 0xCE JUMP JUMPDEST DUP1 PUSH1 0x0 DUP1 PUSH2 0x100 EXP DUP2 SLOAD DUP2 PUSH20 0xFFFFFFFFFFFFFFFFFFFFFFFFFFFFFFFFFFFFFFFF MUL NOT AND SWAP1 DUP4 PUSH20 0xFFFFFFFFFFFFFFFFFFFFFFFFFFFFFFFFFFFFFFFF AND MUL OR SWAP1 SSTORE POP POP PUSH2 0xFB JUMP JUMPDEST PUSH1 0x0 DUP1 REVERT JUMPDEST PUSH1 0x0 PUSH20 0xFFFFFFFFFFFFFFFFFFFFFFFFFFFFFFFFFFFFFFFF DUP3 AND SWAP1 POP SWAP2 SWAP1 POP JUMP JUMPDEST PUSH1 0x0 PUSH2 0x9B DUP3 PUSH2 0x70 JUMP JUMPDEST SWAP1 POP SWAP2 SWAP1 POP JUMP JUMPDEST PUSH2 0xAB DUP2 PUSH2 0x90 JUMP JUMPDEST DUP2 EQ PUSH2 0xB6 JUMPI PUSH1 0x0 DUP1 REVERT JUMPDEST POP JUMP JUMPDEST PUSH1 0x0 DUP2 MLOAD SWAP1 POP PUSH2 0xC8 DUP2 PUSH2 0xA2 JUMP JUMPDEST SWAP3 SWAP2 POP POP JUMP JUMPDEST PUSH1 0x0 PUSH1 0x20 DUP3 DUP5 SUB SLT ISZERO PUSH2 0xE4 JUMPI PUSH2 0xE3 PUSH2 0x6B JUMP JUMPDEST JUMPDEST PUSH1 0x0 PUSH2 0xF2 DUP5 DUP3 DUP6 ADD PUSH2 0xB9 JUMP JUMPDEST SWAP2 POP POP SWAP3 SWAP2 POP POP JUMP JUMPDEST PUSH2 0xDB4 DUP1 PUSH2 0x10A PUSH1 0x0 CODECOPY PUSH1 0x0 RETURN INVALID PUSH1 0x80 PUSH1 0x40 MSTORE PUSH1 0x4 CALLDATASIZE LT PUSH2 0x3F JUMPI PUSH1 0x0 CALLDATALOAD PUSH1 0xE0 SHR DUP1 PUSH4 0x8AC144E EQ PUSH2 0x44 JUMPI DUP1 PUSH4 0x8EB6A489 EQ PUSH2 0x60 JUMPI DUP1 PUSH4 0xDD304104 EQ PUSH2 0x9D JUMPI DUP1 PUSH4 0xEB41850D EQ PUSH2 0xC6 JUMPI JUMPDEST PUSH1 0x0 DUP1 REVERT JUMPDEST PUSH2 0x5E PUSH1 0x4 DUP1 CALLDATASIZE SUB DUP2 ADD SWAP1 PUSH2 0x59 SWAP2 SWAP1 PUSH2 0x830 JUMP JUMPDEST PUSH2 0x103 JUMP JUMPDEST STOP JUMPDEST CALLVALUE DUP1 ISZERO PUSH2 0x6C JUMPI PUSH1 0x0 DUP1 REVERT JUMPDEST POP PUSH2 0x87 PUSH1 0x4 DUP1 CALLDATASIZE SUB DUP2 ADD SWAP1 PUSH2 0x82 SWAP2 SWAP1 PUSH2 0x89F JUMP JUMPDEST PUSH2 0x2CA JUMP JUMPDEST PUSH1 0x40 MLOAD PUSH2 0x94 SWAP2 SWAP1 PUSH2 0x8E7 JUMP JUMPDEST PUSH1 0x40 MLOAD DUP1 SWAP2 SUB SWAP1 RETURN JUMPDEST CALLVALUE DUP1 ISZERO PUSH2 0xA9 JUMPI PUSH1 0x0 DUP1 REVERT JUMPDEST POP PUSH2 0xC4 PUSH1 0x4 DUP1 CALLDATASIZE SUB DUP2 ADD SWAP1 PUSH2 0xBF SWAP2 SWAP1 PUSH2 0x902 JUMP JUMPDEST PUSH2 0x2EA JUMP JUMPDEST STOP JUMPDEST CALLVALUE DUP1 ISZERO PUSH2 0xD2 JUMPI PUSH1 0x0 DUP1 REVERT JUMPDEST POP PUSH2 0xED PUSH1 0x4 DUP1 CALLDATASIZE SUB DUP2 ADD SWAP1 PUSH2 0xE8 SWAP2 SWAP1 PUSH2 0x89F JUMP JUMPDEST PUSH2 0x3A3 JUMP JUMPDEST PUSH1 0x40 MLOAD PUSH2 0xFA SWAP2 SWAP1 PUSH2 0x8E7 JUMP JUMPDEST PUSH1 0x40 MLOAD DUP1 SWAP2 SUB SWAP1 RETURN JUMPDEST PUSH1 0x0 DUP4 PUSH1 0x20 ADD MLOAD DUP5 PUSH1 0x40 ADD MLOAD DUP6 PUSH1 0x60 ADD MLOAD DUP7 PUSH1 0xA0 ADD MLOAD DUP8 PUSH1 0x80 ADD MLOAD PUSH1 0x40 MLOAD PUSH1 0x20 ADD PUSH2 0x132 SWAP6 SWAP5 SWAP4 SWAP3 SWAP2 SWAP1 PUSH2 0xA25 JUMP JUMPDEST PUSH1 0x40 MLOAD PUSH1 0x20 DUP2 DUP4 SUB SUB DUP2 MSTORE SWAP1 PUSH1 0x40 MSTORE DUP1 MLOAD SWAP1 PUSH1 0x20 ADD KECCAK256 SWAP1 POP TIMESTAMP DUP5 PUSH1 0xA0 ADD MLOAD LT ISZERO PUSH2 0x165 JUMPI PUSH2 0x15F DUP2 PUSH2 0x3CD JUMP JUMPDEST POP PUSH2 0x2C5 JUMP JUMPDEST PUSH1 0x1 PUSH1 0x0 DUP3 DUP2 MSTORE PUSH1 0x20 ADD SWAP1 DUP2 MSTORE PUSH1 0x20 ADD PUSH1 0x0 KECCAK256 PUSH1 0x0 SWAP1 SLOAD SWAP1 PUSH2 0x100 EXP SWAP1 DIV PUSH1 0xFF AND ISZERO PUSH2 0x1C6 JUMPI PUSH1 0x40 MLOAD PUSH32 0x8C379A000000000000000000000000000000000000000000000000000000000 DUP2 MSTORE PUSH1 0x4 ADD PUSH2 0x1BD SWAP1 PUSH2 0xADD JUMP JUMPDEST PUSH1 0x40 MLOAD DUP1 SWAP2 SUB SWAP1 REVERT JUMPDEST PUSH2 0x1EC DUP5 PUSH1 0x0 ADD MLOAD DUP6 PUSH1 0x20 ADD MLOAD DUP7 PUSH1 0x40 ADD MLOAD DUP8 PUSH1 0x60 ADD MLOAD DUP9 PUSH1 0x80 ADD MLOAD DUP10 PUSH1 0xA0 ADD MLOAD PUSH2 0x3FB JUMP JUMPDEST PUSH2 0x22B JUMPI PUSH1 0x40 MLOAD PUSH32 0x8C379A000000000000000000000000000000000000000000000000000000000 DUP2 MSTORE PUSH1 0x4 ADD PUSH2 0x222 SWAP1 PUSH2 0xB49 JUMP JUMPDEST PUSH1 0x40 MLOAD DUP1 SWAP2 SUB SWAP1 REVERT JUMPDEST DUP4 PUSH1 0x60 ADD MLOAD DUP4 LT PUSH2 0x2C3 JUMPI DUP4 PUSH1 0x20 ADD MLOAD PUSH20 0xFFFFFFFFFFFFFFFFFFFFFFFFFFFFFFFFFFFFFFFF AND PUSH4 0x23B872DD DUP6 PUSH1 0x0 ADD MLOAD DUP5 DUP8 PUSH1 0x40 ADD MLOAD PUSH1 0x40 MLOAD DUP5 PUSH4 0xFFFFFFFF AND PUSH1 0xE0 SHL DUP2 MSTORE PUSH1 0x4 ADD PUSH2 0x27F SWAP4 SWAP3 SWAP2 SWAP1 PUSH2 0xB87 JUMP JUMPDEST PUSH1 0x0 PUSH1 0x40 MLOAD DUP1 DUP4 SUB DUP2 PUSH1 0x0 DUP8 DUP1 EXTCODESIZE ISZERO DUP1 ISZERO PUSH2 0x299 JUMPI PUSH1 0x0 DUP1 REVERT JUMPDEST POP GAS CALL SWAP3 POP POP POP DUP1 ISZERO PUSH2 0x2AA JUMPI POP PUSH1 0x1 JUMPDEST PUSH2 0x2B4 JUMPI POP PUSH2 0x2C5 JUMP JUMPDEST PUSH2 0x2BD DUP2 PUSH2 0x3CD JUMP JUMPDEST POP PUSH2 0x2C5 JUMP JUMPDEST POP JUMPDEST POP POP POP JUMP JUMPDEST PUSH1 0x1 PUSH1 0x20 MSTORE DUP1 PUSH1 0x0 MSTORE PUSH1 0x40 PUSH1 0x0 KECCAK256 PUSH1 0x0 SWAP2 POP SLOAD SWAP1 PUSH2 0x100 EXP SWAP1 DIV PUSH1 0xFF AND DUP2 JUMP JUMPDEST PUSH2 0x310 DUP2 PUSH1 0x0 ADD MLOAD DUP3 PUSH1 0x20 ADD MLOAD DUP4 PUSH1 0x40 ADD MLOAD DUP5 PUSH1 0x60 ADD MLOAD DUP6 PUSH1 0x80 ADD MLOAD DUP7 PUSH1 0xA0 ADD MLOAD PUSH2 0x3FB JUMP JUMPDEST PUSH2 0x34F JUMPI PUSH1 0x40 MLOAD PUSH32 0x8C379A000000000000000000000000000000000000000000000000000000000 DUP2 MSTORE PUSH1 0x4 ADD PUSH2 0x346 SWAP1 PUSH2 0xB49 JUMP JUMPDEST PUSH1 0x40 MLOAD DUP1 SWAP2 SUB SWAP1 REVERT JUMPDEST PUSH1 0x0 DUP2 PUSH1 0x20 ADD MLOAD DUP3 PUSH1 0x40 ADD MLOAD DUP4 PUSH1 0x60 ADD MLOAD DUP5 PUSH1 0xA0 ADD MLOAD DUP6 PUSH1 0x80 ADD MLOAD PUSH1 0x40 MLOAD PUSH1 0x20 ADD PUSH2 0x37E SWAP6 SWAP5 SWAP4 SWAP3 SWAP2 SWAP1 PUSH2 0xA25 JUMP JUMPDEST PUSH1 0x40 MLOAD PUSH1 0x20 DUP2 DUP4 SUB SUB DUP2 MSTORE SWAP1 PUSH1 0x40 MSTORE DUP1 MLOAD SWAP1 PUSH1 0x20 ADD KECCAK256 SWAP1 POP PUSH2 0x39F DUP2 PUSH2 0x3CD JUMP JUMPDEST POP POP JUMP JUMPDEST PUSH1 0x0 PUSH1 0x1 PUSH1 0x0 DUP4 DUP2 MSTORE PUSH1 0x20 ADD SWAP1 DUP2 MSTORE PUSH1 0x20 ADD PUSH1 0x0 KECCAK256 PUSH1 0x0 SWAP1 SLOAD SWAP1 PUSH2 0x100 EXP SWAP1 DIV PUSH1 0xFF AND SWAP1 POP SWAP2 SWAP1 POP JUMP JUMPDEST PUSH1 0x1 DUP1 PUSH1 0x0 DUP4 DUP2 MSTORE PUSH1 0x20 ADD SWAP1 DUP2 MSTORE PUSH1 0x20 ADD PUSH1 0x0 KECCAK256 PUSH1 0x0 PUSH2 0x100 EXP DUP2 SLOAD DUP2 PUSH1 0xFF MUL NOT AND SWAP1 DUP4 ISZERO ISZERO MUL OR SWAP1 SSTORE POP POP JUMP JUMPDEST PUSH1 0x0 DUP1 DUP7 DUP7 DUP7 DUP6 PUSH1 0x40 MLOAD PUSH1 0x20 ADD PUSH2 0x415 SWAP5 SWAP4 SWAP3 SWAP2 SWAP1 PUSH2 0xBBE JUMP JUMPDEST PUSH1 0x40 MLOAD PUSH1 0x20 DUP2 DUP4 SUB SUB DUP2 MSTORE SWAP1 PUSH1 0x40 MSTORE DUP1 MLOAD SWAP1 PUSH1 0x20 ADD KECCAK256 SWAP1 POP PUSH1 0x0 DUP2 PUSH1 0x40 MLOAD PUSH1 0x20 ADD PUSH2 0x440 SWAP2 SWAP1 PUSH2 0xC84 JUMP JUMPDEST PUSH1 0x40 MLOAD PUSH1 0x20 DUP2 DUP4 SUB SUB DUP2 MSTORE SWAP1 PUSH1 0x40 MSTORE DUP1 MLOAD SWAP1 PUSH1 0x20 ADD KECCAK256 SWAP1 POP DUP9 PUSH20 0xFFFFFFFFFFFFFFFFFFFFFFFFFFFFFFFFFFFFFFFF AND PUSH2 0x479 DUP3 DUP8 PUSH2 0x49E JUMP JUMPDEST PUSH20 0xFFFFFFFFFFFFFFFFFFFFFFFFFFFFFFFFFFFFFFFF AND EQ SWAP3 POP POP POP SWAP7 SWAP6 POP POP POP POP POP POP JUMP JUMPDEST PUSH1 0x0 DUP1 PUSH1 0x0 DUP1 PUSH1 0x20 DUP6 ADD MLOAD SWAP3 POP PUSH1 0x40 DUP6 ADD MLOAD SWAP2 POP PUSH1 0x60 DUP6 ADD MLOAD PUSH1 0x0 BYTE SWAP1 POP PUSH1 0x1B DUP2 PUSH1 0xFF AND LT ISZERO PUSH2 0x4D8 JUMPI PUSH1 0x1B DUP2 PUSH2 0x4D5 SWAP2 SWAP1 PUSH2 0xCE6 JUMP JUMPDEST SWAP1 POP JUMPDEST PUSH1 0x1 DUP7 DUP3 DUP6 DUP6 PUSH1 0x40 MLOAD PUSH1 0x0 DUP2 MSTORE PUSH1 0x20 ADD PUSH1 0x40 MSTORE PUSH1 0x40 MLOAD PUSH2 0x4FB SWAP5 SWAP4 SWAP3 SWAP2 SWAP1 PUSH2 0xD39 JUMP JUMPDEST PUSH1 0x20 PUSH1 0x40 MLOAD PUSH1 0x20 DUP2 SUB SWAP1 DUP1 DUP5 SUB SWAP1 DUP6 GAS STATICCALL ISZERO DUP1 ISZERO PUSH2 0x51D JUMPI RETURNDATASIZE PUSH1 0x0 DUP1 RETURNDATACOPY RETURNDATASIZE PUSH1 0x0 REVERT JUMPDEST POP POP POP PUSH1 0x20 PUSH1 0x40 MLOAD SUB MLOAD SWAP4 POP POP POP POP SWAP3 SWAP2 POP POP JUMP JUMPDEST PUSH1 0x0 PUSH1 0x40 MLOAD SWAP1 POP SWAP1 JUMP JUMPDEST PUSH1 0x0 DUP1 REVERT JUMPDEST PUSH1 0x0 DUP1 REVERT JUMPDEST PUSH1 0x0 DUP1 REVERT JUMPDEST PUSH1 0x0 PUSH1 0x1F NOT PUSH1 0x1F DUP4 ADD AND SWAP1 POP SWAP2 SWAP1 POP JUMP JUMPDEST PUSH32 0x4E487B7100000000000000000000000000000000000000000000000000000000 PUSH1 0x0 MSTORE PUSH1 0x41 PUSH1 0x4 MSTORE PUSH1 0x24 PUSH1 0x0 REVERT JUMPDEST PUSH2 0x594 DUP3 PUSH2 0x54B JUMP JUMPDEST DUP2 ADD DUP2 DUP2 LT PUSH8 0xFFFFFFFFFFFFFFFF DUP3 GT OR ISZERO PUSH2 0x5B3 JUMPI PUSH2 0x5B2 PUSH2 0x55C JUMP JUMPDEST JUMPDEST DUP1 PUSH1 0x40 MSTORE POP POP POP JUMP JUMPDEST PUSH1 0x0 PUSH2 0x5C6 PUSH2 0x532 JUMP JUMPDEST SWAP1 POP PUSH2 0x5D2 DUP3 DUP3 PUSH2 0x58B JUMP JUMPDEST SWAP2 SWAP1 POP JUMP JUMPDEST PUSH1 0x0 DUP1 REVERT JUMPDEST PUSH1 0x0 PUSH20 0xFFFFFFFFFFFFFFFFFFFFFFFFFFFFFFFFFFFFFFFF DUP3 AND SWAP1 POP SWAP2 SWAP1 POP JUMP JUMPDEST PUSH1 0x0 PUSH2 0x607 DUP3 PUSH2 0x5DC JUMP JUMPDEST SWAP1 POP SWAP2 SWAP1 POP JUMP JUMPDEST PUSH2 0x617 DUP2 PUSH2 0x5FC JUMP JUMPDEST DUP2 EQ PUSH2 0x622 JUMPI PUSH1 0x0 DUP1 REVERT JUMPDEST POP JUMP JUMPDEST PUSH1 0x0 DUP2 CALLDATALOAD SWAP1 POP PUSH2 0x634 DUP2 PUSH2 0x60E JUMP JUMPDEST SWAP3 SWAP2 POP POP JUMP JUMPDEST PUSH1 0x0 DUP2 SWAP1 POP SWAP2 SWAP1 POP JUMP JUMPDEST PUSH2 0x64D DUP2 PUSH2 0x63A JUMP JUMPDEST DUP2 EQ PUSH2 0x658 JUMPI PUSH1 0x0 DUP1 REVERT JUMPDEST POP JUMP JUMPDEST PUSH1 0x0 DUP2 CALLDATALOAD SWAP1 POP PUSH2 0x66A DUP2 PUSH2 0x644 JUMP JUMPDEST SWAP3 SWAP2 POP POP JUMP JUMPDEST PUSH1 0x0 DUP1 REVERT JUMPDEST PUSH1 0x0 DUP1 REVERT JUMPDEST PUSH1 0x0 PUSH8 0xFFFFFFFFFFFFFFFF DUP3 GT ISZERO PUSH2 0x695 JUMPI PUSH2 0x694 PUSH2 0x55C JUMP JUMPDEST JUMPDEST PUSH2 0x69E DUP3 PUSH2 0x54B JUMP JUMPDEST SWAP1 POP PUSH1 0x20 DUP2 ADD SWAP1 POP SWAP2 SWAP1 POP JUMP JUMPDEST DUP3 DUP2 DUP4 CALLDATACOPY PUSH1 0x0 DUP4 DUP4 ADD MSTORE POP POP POP JUMP JUMPDEST PUSH1 0x0 PUSH2 0x6CD PUSH2 0x6C8 DUP5 PUSH2 0x67A JUMP JUMPDEST PUSH2 0x5BC JUMP JUMPDEST SWAP1 POP DUP3 DUP2 MSTORE PUSH1 0x20 DUP2 ADD DUP5 DUP5 DUP5 ADD GT ISZERO PUSH2 0x6E9 JUMPI PUSH2 0x6E8 PUSH2 0x675 JUMP JUMPDEST JUMPDEST PUSH2 0x6F4 DUP5 DUP3 DUP6 PUSH2 0x6AB JUMP JUMPDEST POP SWAP4 SWAP3 POP POP POP JUMP JUMPDEST PUSH1 0x0 DUP3 PUSH1 0x1F DUP4 ADD SLT PUSH2 0x711 JUMPI PUSH2 0x710 PUSH2 0x670 JUMP JUMPDEST JUMPDEST DUP2 CALLDATALOAD PUSH2 0x721 DUP5 DUP3 PUSH1 0x20 DUP7 ADD PUSH2 0x6BA JUMP JUMPDEST SWAP2 POP POP SWAP3 SWAP2 POP POP JUMP JUMPDEST PUSH1 0x0 DUP2 SWAP1 POP SWAP2 SWAP1 POP JUMP JUMPDEST PUSH2 0x73D DUP2 PUSH2 0x72A JUMP JUMPDEST DUP2 EQ PUSH2 0x748 JUMPI PUSH1 0x0 DUP1 REVERT JUMPDEST POP JUMP JUMPDEST PUSH1 0x0 DUP2 CALLDATALOAD SWAP1 POP PUSH2 0x75A DUP2 PUSH2 0x734 JUMP JUMPDEST SWAP3 SWAP2 POP POP JUMP JUMPDEST PUSH1 0x0 PUSH1 0xE0 DUP3 DUP5 SUB SLT ISZERO PUSH2 0x776 JUMPI PUSH2 0x775 PUSH2 0x546 JUMP JUMPDEST JUMPDEST PUSH2 0x780 PUSH1 0xE0 PUSH2 0x5BC JUMP JUMPDEST SWAP1 POP PUSH1 0x0 PUSH2 0x790 DUP5 DUP3 DUP6 ADD PUSH2 0x625 JUMP JUMPDEST PUSH1 0x0 DUP4 ADD MSTORE POP PUSH1 0x20 PUSH2 0x7A4 DUP5 DUP3 DUP6 ADD PUSH2 0x625 JUMP JUMPDEST PUSH1 0x20 DUP4 ADD MSTORE POP PUSH1 0x40 PUSH2 0x7B8 DUP5 DUP3 DUP6 ADD PUSH2 0x65B JUMP JUMPDEST PUSH1 0x40 DUP4 ADD MSTORE POP PUSH1 0x60 PUSH2 0x7CC DUP5 DUP3 DUP6 ADD PUSH2 0x65B JUMP JUMPDEST PUSH1 0x60 DUP4 ADD MSTORE POP PUSH1 0x80 DUP3 ADD CALLDATALOAD PUSH8 0xFFFFFFFFFFFFFFFF DUP2 GT ISZERO PUSH2 0x7F0 JUMPI PUSH2 0x7EF PUSH2 0x5D7 JUMP JUMPDEST JUMPDEST PUSH2 0x7FC DUP5 DUP3 DUP6 ADD PUSH2 0x6FC JUMP JUMPDEST PUSH1 0x80 DUP4 ADD MSTORE POP PUSH1 0xA0 PUSH2 0x810 DUP5 DUP3 DUP6 ADD PUSH2 0x65B JUMP JUMPDEST PUSH1 0xA0 DUP4 ADD MSTORE POP PUSH1 0xC0 PUSH2 0x824 DUP5 DUP3 DUP6 ADD PUSH2 0x74B JUMP JUMPDEST PUSH1 0xC0 DUP4 ADD MSTORE POP SWAP3 SWAP2 POP POP JUMP JUMPDEST PUSH1 0x0 DUP1 PUSH1 0x0 PUSH1 0x60 DUP5 DUP7 SUB SLT ISZERO PUSH2 0x849 JUMPI PUSH2 0x848 PUSH2 0x53C JUMP JUMPDEST JUMPDEST PUSH1 0x0 DUP5 ADD CALLDATALOAD PUSH8 0xFFFFFFFFFFFFFFFF DUP2 GT ISZERO PUSH2 0x867 JUMPI PUSH2 0x866 PUSH2 0x541 JUMP JUMPDEST JUMPDEST PUSH2 0x873 DUP7 DUP3 DUP8 ADD PUSH2 0x760 JUMP JUMPDEST SWAP4 POP POP PUSH1 0x20 PUSH2 0x884 DUP7 DUP3 DUP8 ADD PUSH2 0x65B JUMP JUMPDEST SWAP3 POP POP PUSH1 0x40 PUSH2 0x895 DUP7 DUP3 DUP8 ADD PUSH2 0x625 JUMP JUMPDEST SWAP2 POP POP SWAP3 POP SWAP3 POP SWAP3 JUMP JUMPDEST PUSH1 0x0 PUSH1 0x20 DUP3 DUP5 SUB SLT ISZERO PUSH2 0x8B5 JUMPI PUSH2 0x8B4 PUSH2 0x53C JUMP JUMPDEST JUMPDEST PUSH1 0x0 PUSH2 0x8C3 DUP5 DUP3 DUP6 ADD PUSH2 0x74B JUMP JUMPDEST SWAP2 POP POP SWAP3 SWAP2 POP POP JUMP JUMPDEST PUSH1 0x0 DUP2 ISZERO ISZERO SWAP1 POP SWAP2 SWAP1 POP JUMP JUMPDEST PUSH2 0x8E1 DUP2 PUSH2 0x8CC JUMP JUMPDEST DUP3 MSTORE POP POP JUMP JUMPDEST PUSH1 0x0 PUSH1 0x20 DUP3 ADD SWAP1 POP PUSH2 0x8FC PUSH1 0x0 DUP4 ADD DUP5 PUSH2 0x8D8 JUMP JUMPDEST SWAP3 SWAP2 POP POP JUMP JUMPDEST PUSH1 0x0 PUSH1 0x20 DUP3 DUP5 SUB SLT ISZERO PUSH2 0x918 JUMPI PUSH2 0x917 PUSH2 0x53C JUMP JUMPDEST JUMPDEST PUSH1 0x0 DUP3 ADD CALLDATALOAD PUSH8 0xFFFFFFFFFFFFFFFF DUP2 GT ISZERO PUSH2 0x936 JUMPI PUSH2 0x935 PUSH2 0x541 JUMP JUMPDEST JUMPDEST PUSH2 0x942 DUP5 DUP3 DUP6 ADD PUSH2 0x760 JUMP JUMPDEST SWAP2 POP POP SWAP3 SWAP2 POP POP JUMP JUMPDEST PUSH1 0x0 DUP2 PUSH1 0x60 SHL SWAP1 POP SWAP2 SWAP1 POP JUMP JUMPDEST PUSH1 0x0 PUSH2 0x963 DUP3 PUSH2 0x94B JUMP JUMPDEST SWAP1 POP SWAP2 SWAP1 POP JUMP JUMPDEST PUSH1 0x0 PUSH2 0x975 DUP3 PUSH2 0x958 JUMP JUMPDEST SWAP1 POP SWAP2 SWAP1 POP JUMP JUMPDEST PUSH2 0x98D PUSH2 0x988 DUP3 PUSH2 0x5FC JUMP JUMPDEST PUSH2 0x96A JUMP JUMPDEST DUP3 MSTORE POP POP JUMP JUMPDEST PUSH1 0x0 DUP2 SWAP1 POP SWAP2 SWAP1 POP JUMP JUMPDEST PUSH2 0x9AE PUSH2 0x9A9 DUP3 PUSH2 0x63A JUMP JUMPDEST PUSH2 0x993 JUMP JUMPDEST DUP3 MSTORE POP POP JUMP JUMPDEST PUSH1 0x0 DUP2 MLOAD SWAP1 POP SWAP2 SWAP1 POP JUMP JUMPDEST PUSH1 0x0 DUP2 SWAP1 POP SWAP3 SWAP2 POP POP JUMP JUMPDEST PUSH1 0x0 JUMPDEST DUP4 DUP2 LT ISZERO PUSH2 0x9E8 JUMPI DUP1 DUP3 ADD MLOAD DUP2 DUP5 ADD MSTORE PUSH1 0x20 DUP2 ADD SWAP1 POP PUSH2 0x9CD JUMP JUMPDEST PUSH1 0x0 DUP5 DUP5 ADD MSTORE POP POP POP POP JUMP JUMPDEST PUSH1 0x0 PUSH2 0x9FF DUP3 PUSH2 0x9B4 JUMP JUMPDEST PUSH2 0xA09 DUP2 DUP6 PUSH2 0x9BF JUMP JUMPDEST SWAP4 POP PUSH2 0xA19 DUP2 DUP6 PUSH1 0x20 DUP7 ADD PUSH2 0x9CA JUMP JUMPDEST DUP1 DUP5 ADD SWAP2 POP POP SWAP3 SWAP2 POP POP JUMP JUMPDEST PUSH1 0x0 PUSH2 0xA31 DUP3 DUP9 PUSH2 0x97C JUMP JUMPDEST PUSH1 0x14 DUP3 ADD SWAP2 POP PUSH2 0xA41 DUP3 DUP8 PUSH2 0x99D JUMP JUMPDEST PUSH1 0x20 DUP3 ADD SWAP2 POP PUSH2 0xA51 DUP3 DUP7 PUSH2 0x99D JUMP JUMPDEST PUSH1 0x20 DUP3 ADD SWAP2 POP PUSH2 0xA61 DUP3 DUP6 PUSH2 0x99D JUMP JUMPDEST PUSH1 0x20 DUP3 ADD SWAP2 POP PUSH2 0xA71 DUP3 DUP5 PUSH2 0x9F4 JUMP JUMPDEST SWAP2 POP DUP2 SWAP1 POP SWAP7 SWAP6 POP POP POP POP POP POP JUMP JUMPDEST PUSH1 0x0 DUP3 DUP3 MSTORE PUSH1 0x20 DUP3 ADD SWAP1 POP SWAP3 SWAP2 POP POP JUMP JUMPDEST PUSH32 0x4F7264657220686173206265656E207573656400000000000000000000000000 PUSH1 0x0 DUP3 ADD MSTORE POP JUMP JUMPDEST PUSH1 0x0 PUSH2 0xAC7 PUSH1 0x13 DUP4 PUSH2 0xA80 JUMP JUMPDEST SWAP2 POP PUSH2 0xAD2 DUP3 PUSH2 0xA91 JUMP JUMPDEST PUSH1 0x20 DUP3 ADD SWAP1 POP SWAP2 SWAP1 POP JUMP JUMPDEST PUSH1 0x0 PUSH1 0x20 DUP3 ADD SWAP1 POP DUP2 DUP2 SUB PUSH1 0x0 DUP4 ADD MSTORE PUSH2 0xAF6 DUP2 PUSH2 0xABA JUMP JUMPDEST SWAP1 POP SWAP2 SWAP1 POP JUMP JUMPDEST PUSH32 0x496E76616C6964207369676E6174757265000000000000000000000000000000 PUSH1 0x0 DUP3 ADD MSTORE POP JUMP JUMPDEST PUSH1 0x0 PUSH2 0xB33 PUSH1 0x11 DUP4 PUSH2 0xA80 JUMP JUMPDEST SWAP2 POP PUSH2 0xB3E DUP3 PUSH2 0xAFD JUMP JUMPDEST PUSH1 0x20 DUP3 ADD SWAP1 POP SWAP2 SWAP1 POP JUMP JUMPDEST PUSH1 0x0 PUSH1 0x20 DUP3 ADD SWAP1 POP DUP2 DUP2 SUB PUSH1 0x0 DUP4 ADD MSTORE PUSH2 0xB62 DUP2 PUSH2 0xB26 JUMP JUMPDEST SWAP1 POP SWAP2 SWAP1 POP JUMP JUMPDEST PUSH2 0xB72 DUP2 PUSH2 0x5FC JUMP JUMPDEST DUP3 MSTORE POP POP JUMP JUMPDEST PUSH2 0xB81 DUP2 PUSH2 0x63A JUMP JUMPDEST DUP3 MSTORE POP POP JUMP JUMPDEST PUSH1 0x0 PUSH1 0x60 DUP3 ADD SWAP1 POP PUSH2 0xB9C PUSH1 0x0 DUP4 ADD DUP7 PUSH2 0xB69 JUMP JUMPDEST PUSH2 0xBA9 PUSH1 0x20 DUP4 ADD DUP6 PUSH2 0xB69 JUMP JUMPDEST PUSH2 0xBB6 PUSH1 0x40 DUP4 ADD DUP5 PUSH2 0xB78 JUMP JUMPDEST SWAP5 SWAP4 POP POP POP POP JUMP JUMPDEST PUSH1 0x0 PUSH2 0xBCA DUP3 DUP8 PUSH2 0x97C JUMP JUMPDEST PUSH1 0x14 DUP3 ADD SWAP2 POP PUSH2 0xBDA DUP3 DUP7 PUSH2 0x99D JUMP JUMPDEST PUSH1 0x20 DUP3 ADD SWAP2 POP PUSH2 0xBEA DUP3 DUP6 PUSH2 0x99D JUMP JUMPDEST PUSH1 0x20 DUP3 ADD SWAP2 POP PUSH2 0xBFA DUP3 DUP5 PUSH2 0x99D JUMP JUMPDEST PUSH1 0x20 DUP3 ADD SWAP2 POP DUP2 SWAP1 POP SWAP6 SWAP5 POP POP POP POP POP JUMP JUMPDEST PUSH1 0x0 DUP2 SWAP1 POP SWAP3 SWAP2 POP POP JUMP JUMPDEST PUSH32 0x19457468657265756D205369676E6564204D6573736167653A0A333200000000 PUSH1 0x0 DUP3 ADD MSTORE POP JUMP JUMPDEST PUSH1 0x0 PUSH2 0xC4D PUSH1 0x1C DUP4 PUSH2 0xC0C JUMP JUMPDEST SWAP2 POP PUSH2 0xC58 DUP3 PUSH2 0xC17 JUMP JUMPDEST PUSH1 0x1C DUP3 ADD SWAP1 POP SWAP2 SWAP1 POP JUMP JUMPDEST PUSH1 0x0 DUP2 SWAP1 POP SWAP2 SWAP1 POP JUMP JUMPDEST PUSH2 0xC7E PUSH2 0xC79 DUP3 PUSH2 0x72A JUMP JUMPDEST PUSH2 0xC63 JUMP JUMPDEST DUP3 MSTORE POP POP JUMP JUMPDEST PUSH1 0x0 PUSH2 0xC8F DUP3 PUSH2 0xC40 JUMP JUMPDEST SWAP2 POP PUSH2 0xC9B DUP3 DUP5 PUSH2 0xC6D JUMP JUMPDEST PUSH1 0x20 DUP3 ADD SWAP2 POP DUP2 SWAP1 POP SWAP3 SWAP2 POP POP JUMP JUMPDEST PUSH1 0x0 PUSH1 0xFF DUP3 AND SWAP1 POP SWAP2 SWAP1 POP JUMP JUMPDEST PUSH32 0x4E487B7100000000000000000000000000000000000000000000000000000000 PUSH1 0x0 MSTORE PUSH1 0x11 PUSH1 0x4 MSTORE PUSH1 0x24 PUSH1 0x0 REVERT JUMPDEST PUSH1 0x0 PUSH2 0xCF1 DUP3 PUSH2 0xCAA JUMP JUMPDEST SWAP2 POP PUSH2 0xCFC DUP4 PUSH2 0xCAA JUMP JUMPDEST SWAP3 POP DUP3 DUP3 ADD SWAP1 POP PUSH1 0xFF DUP2 GT ISZERO PUSH2 0xD15 JUMPI PUSH2 0xD14 PUSH2 0xCB7 JUMP JUMPDEST JUMPDEST SWAP3 SWAP2 POP POP JUMP JUMPDEST PUSH2 0xD24 DUP2 PUSH2 0x72A JUMP JUMPDEST DUP3 MSTORE POP POP JUMP JUMPDEST PUSH2 0xD33 DUP2 PUSH2 0xCAA JUMP JUMPDEST DUP3 MSTORE POP POP JUMP JUMPDEST PUSH1 0x0 PUSH1 0x80 DUP3 ADD SWAP1 POP PUSH2 0xD4E PUSH1 0x0 DUP4 ADD DUP8 PUSH2 0xD1B JUMP JUMPDEST PUSH2 0xD5B PUSH1 0x20 DUP4 ADD DUP7 PUSH2 0xD2A JUMP JUMPDEST PUSH2 0xD68 PUSH1 0x40 DUP4 ADD DUP6 PUSH2 0xD1B JUMP JUMPDEST PUSH2 0xD75 PUSH1 0x60 DUP4 ADD DUP5 PUSH2 0xD1B JUMP JUMPDEST SWAP6 SWAP5 POP POP POP POP POP JUMP INVALID LOG2 PUSH5 0x6970667358 0x22 SLT KECCAK256 LOG1 MULMOD 0x21 0xB1 JUMPI PUSH21 0x974FB709BACF4FB2366A376DAA89110C8FFFEA2911 DUP5 PUSH1 0x84 0x4D PUSH24 0x64736F6C63430008120033A264697066735822122047D923 DUP1 PUSH30 0x6C64C88D7A3F95C22D0FB4947A00190D6EEBD7E0DA6C7312B6942564736F PUSH13 0x63430008120033000000000000 "
		},
		"gasEstimates": {
			"creation": {
				"codeDepositCost": "2907800",
				"executionCost": "infinite",
				"totalCost": "infinite"
			},
			"external": {
				"CancelSellOrder((address,address,uint256,uint256,bytes,uint256,bytes32))": "infinite",
				"approveCollection(address)": "infinite",
				"createProxyWallet()": "infinite",
				"getFeeRate()": "2459",
				"getProxyWallet(address)": "infinite",
				"matchOrder(address,address,uint256,uint256,bytes,uint256,bytes32)": "infinite",
				"setMall(address)": "26893",
				"updateFeeRate(uint256)": "infinite"
			},
			"internal": {
				"_cancelSellOrder(struct MarketContract.SellOrder memory)": "infinite",
				"matchfail(struct MarketContract.SellOrder memory)": "infinite",
				"matchsuccess(struct MarketContract.SellOrder memory)": "infinite",
				"recoverSigner(bytes32,bytes memory)": "infinite",
				"verifySignature(address,address,uint256,uint256,bytes memory,uint256)": "infinite"
			}
		},
		"methodIdentifiers": {
			"CancelSellOrder((address,address,uint256,uint256,bytes,uint256,bytes32))": "1b5ea502",
			"approveCollection(address)": "6aae5cda",
			"createProxyWallet()": "c2a1d6c9",
			"getFeeRate()": "84e5eed0",
			"getProxyWallet(address)": "c465db0a",
			"matchOrder(address,address,uint256,uint256,bytes,uint256,bytes32)": "38813781",
			"setMall(address)": "07e4ac72",
			"updateFeeRate(uint256)": "7b84fda5"
		}
	},
	"abi": [
		{
			"inputs": [
				{
					"internalType": "address",
					"name": "_owner",
					"type": "address"
				}
			],
			"stateMutability": "payable",
			"type": "constructor"
		},
		{
			"anonymous": false,
			"inputs": [
				{
					"indexed": true,
					"internalType": "address",
					"name": "seller",
					"type": "address"
				},
				{
					"indexed": true,
					"internalType": "address",
					"name": "buyer",
					"type": "address"
				},
				{
					"indexed": true,
					"internalType": "address",
					"name": "contractID",
					"type": "address"
				},
				{
					"indexed": false,
					"internalType": "uint256",
					"name": "tokenID",
					"type": "uint256"
				},
				{
					"indexed": false,
					"internalType": "bytes32",
					"name": "orderID",
					"type": "bytes32"
				},
				{
					"indexed": false,
					"internalType": "uint256",
					"name": "price",
					"type": "uint256"
				}
			],
			"name": "MatchFail",
			"type": "event"
		},
		{
			"anonymous": false,
			"inputs": [
				{
					"indexed": true,
					"internalType": "address",
					"name": "seller",
					"type": "address"
				},
				{
					"indexed": true,
					"internalType": "address",
					"name": "buyer",
					"type": "address"
				},
				{
					"indexed": true,
					"internalType": "address",
					"name": "contractID",
					"type": "address"
				},
				{
					"indexed": false,
					"internalType": "uint256",
					"name": "tokenID",
					"type": "uint256"
				},
				{
					"indexed": false,
					"internalType": "bytes32",
					"name": "orderID",
					"type": "bytes32"
				},
				{
					"indexed": false,
					"internalType": "uint256",
					"name": "price",
					"type": "uint256"
				}
			],
			"name": "MatchSuccess",
			"type": "event"
		},
		{
			"anonymous": false,
			"inputs": [
				{
					"indexed": true,
					"internalType": "address",
					"name": "seller",
					"type": "address"
				},
				{
					"indexed": true,
					"internalType": "address",
					"name": "contractID",
					"type": "address"
				},
				{
					"indexed": false,
					"internalType": "bytes32",
					"name": "orderID",
					"type": "bytes32"
				},
				{
					"indexed": false,
					"internalType": "uint256",
					"name": "tokenID",
					"type": "uint256"
				}
			],
			"name": "OrderExpired",
			"type": "event"
		},
		{
			"anonymous": false,
			"inputs": [
				{
					"indexed": true,
					"internalType": "address",
					"name": "seller",
					"type": "address"
				},
				{
					"indexed": true,
					"internalType": "address",
					"name": "contractID",
					"type": "address"
				},
				{
					"indexed": false,
					"internalType": "bytes32",
					"name": "orderID",
					"type": "bytes32"
				},
				{
					"indexed": false,
					"internalType": "uint256",
					"name": "tokenID",
					"type": "uint256"
				}
			],
			"name": "SellOrderCancelled",
			"type": "event"
		},
		{
			"anonymous": false,
			"inputs": [
				{
					"indexed": true,
					"internalType": "address",
					"name": "seller",
					"type": "address"
				},
				{
					"indexed": true,
					"internalType": "address",
					"name": "buyer",
					"type": "address"
				},
				{
					"indexed": true,
					"internalType": "address",
					"name": "contractID",
					"type": "address"
				},
				{
					"indexed": false,
					"internalType": "bytes32",
					"name": "orderID",
					"type": "bytes32"
				},
				{
					"indexed": false,
					"internalType": "uint256",
					"name": "tokenID",
					"type": "uint256"
				},
				{
					"indexed": false,
					"internalType": "uint256",
					"name": "price",
					"type": "uint256"
				}
			],
			"name": "TradeFail",
			"type": "event"
		},
		{
			"anonymous": false,
			"inputs": [
				{
					"indexed": true,
					"internalType": "address",
					"name": "seller",
					"type": "address"
				},
				{
					"indexed": true,
					"internalType": "address",
					"name": "buyer",
					"type": "address"
				},
				{
					"indexed": true,
					"internalType": "address",
					"name": "contractID",
					"type": "address"
				},
				{
					"indexed": false,
					"internalType": "bytes32",
					"name": "orderID",
					"type": "bytes32"
				},
				{
					"indexed": false,
					"internalType": "uint256",
					"name": "tokenID",
					"type": "uint256"
				},
				{
					"indexed": false,
					"internalType": "uint256",
					"name": "price",
					"type": "uint256"
				}
			],
			"name": "TradeSuccess",
			"type": "event"
		},
		{
			"anonymous": false,
			"inputs": [
				{
					"indexed": false,
					"internalType": "uint256",
					"name": "oldFeeRate",
					"type": "uint256"
				},
				{
					"indexed": false,
					"internalType": "uint256",
					"name": "newFeeRate",
					"type": "uint256"
				}
			],
			"name": "UpdateFeeRate",
			"type": "event"
		},
		{
			"inputs": [
				{
					"components": [
						{
							"internalType": "address",
							"name": "seller",
							"type": "address"
						},
						{
							"internalType": "address",
							"name": "contractID",
							"type": "address"
						},
						{
							"internalType": "uint256",
							"name": "tokenID",
							"type": "uint256"
						},
						{
							"internalType": "uint256",
							"name": "price",
							"type": "uint256"
						},
						{
							"internalType": "bytes",
							"name": "signature",
							"type": "bytes"
						},
						{
							"internalType": "uint256",
							"name": "expirationTime",
							"type": "uint256"
						},
						{
							"internalType": "bytes32",
							"name": "orderID",
							"type": "bytes32"
						}
					],
					"internalType": "struct MarketContract.SellOrder",
					"name": "sellOrder",
					"type": "tuple"
				}
			],
			"name": "CancelSellOrder",
			"outputs": [],
			"stateMutability": "nonpayable",
			"type": "function"
		},
		{
			"inputs": [
				{
					"internalType": "address",
					"name": "collectionAddress",
					"type": "address"
				}
			],
			"name": "approveCollection",
			"outputs": [],
			"stateMutability": "nonpayable",
			"type": "function"
		},
		{
			"inputs": [],
			"name": "createProxyWallet",
			"outputs": [],
			"stateMutability": "nonpayable",
			"type": "function"
		},
		{
			"inputs": [],
			"name": "getFeeRate",
			"outputs": [
				{
					"internalType": "uint256",
					"name": "",
					"type": "uint256"
				}
			],
			"stateMutability": "view",
			"type": "function"
		},
		{
			"inputs": [
				{
					"internalType": "address",
					"name": "user",
					"type": "address"
				}
			],
			"name": "getProxyWallet",
			"outputs": [
				{
					"internalType": "address",
					"name": "",
					"type": "address"
				}
			],
			"stateMutability": "view",
			"type": "function"
		},
		{
			"inputs": [
				{
					"internalType": "address",
					"name": "seller",
					"type": "address"
				},
				{
					"internalType": "address",
					"name": "contractID",
					"type": "address"
				},
				{
					"internalType": "uint256",
					"name": "tokenID",
					"type": "uint256"
				},
				{
					"internalType": "uint256",
					"name": "price",
					"type": "uint256"
				},
				{
					"internalType": "bytes",
					"name": "signature",
					"type": "bytes"
				},
				{
					"internalType": "uint256",
					"name": "expirationTime",
					"type": "uint256"
				},
				{
					"internalType": "bytes32",
					"name": "orderID",
					"type": "bytes32"
				}
			],
			"name": "matchOrder",
			"outputs": [],
			"stateMutability": "payable",
			"type": "function"
		},
		{
			"inputs": [
				{
					"internalType": "address payable",
					"name": "_mall",
					"type": "address"
				}
			],
			"name": "setMall",
			"outputs": [],
			"stateMutability": "nonpayable",
			"type": "function"
		},
		{
			"inputs": [
				{
					"internalType": "uint256",
					"name": "newFeeRate",
					"type": "uint256"
				}
			],
			"name": "updateFeeRate",
			"outputs": [],
			"stateMutability": "nonpayable",
			"type": "function"
		}
	]
}