{
	"data": {
		"bytecode": {
			"linkReferences": {},
			"object": "6080604052604051610ebe380380610ebe833981810160405281019061002591906100ce565b806000806101000a81548173ffffffffffffffffffffffffffffffffffffffff021916908373ffffffffffffffffffffffffffffffffffffffff160217905550506100fb565b600080fd5b600073ffffffffffffffffffffffffffffffffffffffff82169050919050565b600061009b82610070565b9050919050565b6100ab81610090565b81146100b657600080fd5b50565b6000815190506100c8816100a2565b92915050565b6000602082840312156100e4576100e361006b565b5b60006100f2848285016100b9565b91505092915050565b610db48061010a6000396000f3fe60806040526004361061003f5760003560e01c806308ac144e146100445780638eb6a48914610060578063dd3041041461009d578063eb41850d146100c6575b600080fd5b61005e60048036038101906100599190610830565b610103565b005b34801561006c57600080fd5b506100876004803603810190610082919061089f565b6102ca565b60405161009491906108e7565b60405180910390f35b3480156100a957600080fd5b506100c460048036038101906100bf9190610902565b6102ea565b005b3480156100d257600080fd5b506100ed60048036038101906100e8919061089f565b6103a3565b6040516100fa91906108e7565b60405180910390f35b60008360200151846040015185606001518660a001518760800151604051602001610132959493929190610a25565b604051602081830303815290604052805190602001209050428460a0015110156101655761015f816103cd565b506102c5565b6001600082815260200190815260200160002060009054906101000a900460ff16156101c6576040517f08c379a00000000000000000000000000000000000000000000000000000000081526004016101bd90610add565b60405180910390fd5b6101ec846000015185602001518660400151876060015188608001518960a001516103fb565b61022b576040517f08c379a000000000000000000000000000000000000000000000000000000000815260040161022290610b49565b60405180910390fd5b836060015183106102c357836020015173ffffffffffffffffffffffffffffffffffffffff166323b872dd85600001518487604001516040518463ffffffff1660e01b815260040161027f93929190610b87565b600060405180830381600087803b15801561029957600080fd5b505af19250505080156102aa575060015b6102b457506102c5565b6102bd816103cd565b506102c5565b505b505050565b60016020528060005260406000206000915054906101000a900460ff1681565b610310816000015182602001518360400151846060015185608001518660a001516103fb565b61034f576040517f08c379a000000000000000000000000000000000000000000000000000000000815260040161034690610b49565b60405180910390fd5b60008160200151826040015183606001518460a00151856080015160405160200161037e959493929190610a25565b60405160208183030381529060405280519060200120905061039f816103cd565b5050565b60006001600083815260200190815260200160002060009054906101000a900460ff169050919050565b600180600083815260200190815260200160002060006101000a81548160ff02191690831515021790555050565b600080868686856040516020016104159493929190610bbe565b6040516020818303038152906040528051906020012090506000816040516020016104409190610c84565b6040516020818303038152906040528051906020012090508873ffffffffffffffffffffffffffffffffffffffff16610479828761049e565b73ffffffffffffffffffffffffffffffffffffffff1614925050509695505050505050565b6000806000806020850151925060408501519150606085015160001a9050601b8160ff1610156104d857601b816104d59190610ce6565b90505b600186828585604051600081526020016040526040516104fb9493929190610d39565b6020604051602081039080840390855afa15801561051d573d6000803e3d6000fd5b50505060206040510351935050505092915050565b6000604051905090565b600080fd5b600080fd5b600080fd5b6000601f19601f8301169050919050565b7f4e487b7100000000000000000000000000000000000000000000000000000000600052604160045260246000fd5b6105948261054b565b810181811067ffffffffffffffff821117156105b3576105b261055c565b5b80604052505050565b60006105c6610532565b90506105d2828261058b565b919050565b600080fd5b600073ffffffffffffffffffffffffffffffffffffffff82169050919050565b6000610607826105dc565b9050919050565b610617816105fc565b811461062257600080fd5b50565b6000813590506106348161060e565b92915050565b6000819050919050565b61064d8161063a565b811461065857600080fd5b50565b60008135905061066a81610644565b92915050565b600080fd5b600080fd5b600067ffffffffffffffff8211156106955761069461055c565b5b61069e8261054b565b9050602081019050919050565b82818337600083830152505050565b60006106cd6106c88461067a565b6105bc565b9050828152602081018484840111156106e9576106e8610675565b5b6106f48482856106ab565b509392505050565b600082601f83011261071157610710610670565b5b81356107218482602086016106ba565b91505092915050565b6000819050919050565b61073d8161072a565b811461074857600080fd5b50565b60008135905061075a81610734565b92915050565b600060e0828403121561077657610775610546565b5b61078060e06105bc565b9050600061079084828501610625565b60008301525060206107a484828501610625565b60208301525060406107b88482850161065b565b60408301525060606107cc8482850161065b565b606083015250608082013567ffffffffffffffff8111156107f0576107ef6105d7565b5b6107fc848285016106fc565b60808301525060a06108108482850161065b565b60a08301525060c06108248482850161074b565b60c08301525092915050565b6000806000606084860312156108495761084861053c565b5b600084013567ffffffffffffffff81111561086757610866610541565b5b61087386828701610760565b93505060206108848682870161065b565b925050604061089586828701610625565b9150509250925092565b6000602082840312156108b5576108b461053c565b5b60006108c38482850161074b565b91505092915050565b60008115159050919050565b6108e1816108cc565b82525050565b60006020820190506108fc60008301846108d8565b92915050565b6000602082840312156109185761091761053c565b5b600082013567ffffffffffffffff81111561093657610935610541565b5b61094284828501610760565b91505092915050565b60008160601b9050919050565b60006109638261094b565b9050919050565b600061097582610958565b9050919050565b61098d610988826105fc565b61096a565b82525050565b6000819050919050565b6109ae6109a98261063a565b610993565b82525050565b600081519050919050565b600081905092915050565b60005b838110156109e85780820151818401526020810190506109cd565b60008484015250505050565b60006109ff826109b4565b610a0981856109bf565b9350610a198185602086016109ca565b80840191505092915050565b6000610a31828861097c565b601482019150610a41828761099d565b602082019150610a51828661099d565b602082019150610a61828561099d565b602082019150610a7182846109f4565b91508190509695505050505050565b600082825260208201905092915050565b7f4f7264657220686173206265656e207573656400000000000000000000000000600082015250565b6000610ac7601383610a80565b9150610ad282610a91565b602082019050919050565b60006020820190508181036000830152610af681610aba565b9050919050565b7f496e76616c6964207369676e6174757265000000000000000000000000000000600082015250565b6000610b33601183610a80565b9150610b3e82610afd565b602082019050919050565b60006020820190508181036000830152610b6281610b26565b9050919050565b610b72816105fc565b82525050565b610b818161063a565b82525050565b6000606082019050610b9c6000830186610b69565b610ba96020830185610b69565b610bb66040830184610b78565b949350505050565b6000610bca828761097c565b601482019150610bda828661099d565b602082019150610bea828561099d565b602082019150610bfa828461099d565b60208201915081905095945050505050565b600081905092915050565b7f19457468657265756d205369676e6564204d6573736167653a0a333200000000600082015250565b6000610c4d601c83610c0c565b9150610c5882610c17565b601c82019050919050565b6000819050919050565b610c7e610c798261072a565b610c63565b82525050565b6000610c8f82610c40565b9150610c9b8284610c6d565b60208201915081905092915050565b600060ff82169050919050565b7f4e487b7100000000000000000000000000000000000000000000000000000000600052601160045260246000fd5b6000610cf182610caa565b9150610cfc83610caa565b9250828201905060ff811115610d1557610d14610cb7565b5b92915050565b610d248161072a565b82525050565b610d3381610caa565b82525050565b6000608082019050610d4e6000830187610d1b565b610d5b6020830186610d2a565b610d686040830185610d1b565b610d756060830184610d1b565b9594505050505056fea2646970667358221220a10921b15774974fb709bacf4fb2366a376daa89110c8fffea29118460844d7764736f6c63430008120033",
			"opcodes": "PUSH1 0x80 PUSH1 0x40 MSTORE PUSH1 0x40 MLOAD PUSH2 0xEBE CODESIZE SUB DUP1 PUSH2 0xEBE DUP4 CODECOPY DUP2 DUP2 ADD PUSH1 0x40 MSTORE DUP2 ADD SWAP1 PUSH2 0x25 SWAP2 SWAP1 PUSH2 0xCE JUMP JUMPDEST DUP1 PUSH1 0x0 DUP1 PUSH2 0x100 EXP DUP2 SLOAD DUP2 PUSH20 0xFFFFFFFFFFFFFFFFFFFFFFFFFFFFFFFFFFFFFFFF MUL NOT AND SWAP1 DUP4 PUSH20 0xFFFFFFFFFFFFFFFFFFFFFFFFFFFFFFFFFFFFFFFF AND MUL OR SWAP1 SSTORE POP POP PUSH2 0xFB JUMP JUMPDEST PUSH1 0x0 DUP1 REVERT JUMPDEST PUSH1 0x0 PUSH20 0xFFFFFFFFFFFFFFFFFFFFFFFFFFFFFFFFFFFFFFFF DUP3 AND SWAP1 POP SWAP2 SWAP1 POP JUMP JUMPDEST PUSH1 0x0 PUSH2 0x9B DUP3 PUSH2 0x70 JUMP JUMPDEST SWAP1 POP SWAP2 SWAP1 POP JUMP JUMPDEST PUSH2 0xAB DUP2 PUSH2 0x90 JUMP JUMPDEST DUP2 EQ PUSH2 0xB6 JUMPI PUSH1 0x0 DUP1 REVERT JUMPDEST POP JUMP JUMPDEST PUSH1 0x0 DUP2 MLOAD SWAP1 POP PUSH2 0xC8 DUP2 PUSH2 0xA2 JUMP JUMPDEST SWAP3 SWAP2 POP POP JUMP JUMPDEST PUSH1 0x0 PUSH1 0x20 DUP3 DUP5 SUB SLT ISZERO PUSH2 0xE4 JUMPI PUSH2 0xE3 PUSH2 0x6B JUMP JUMPDEST JUMPDEST PUSH1 0x0 PUSH2 0xF2 DUP5 DUP3 DUP6 ADD PUSH2 0xB9 JUMP JUMPDEST SWAP2 POP POP SWAP3 SWAP2 POP POP JUMP JUMPDEST PUSH2 0xDB4 DUP1 PUSH2 0x10A PUSH1 0x0 CODECOPY PUSH1 0x0 RETURN INVALID PUSH1 0x80 PUSH1 0x40 MSTORE PUSH1 0x4 CALLDATASIZE LT PUSH2 0x3F JUMPI PUSH1 0x0 CALLDATALOAD PUSH1 0xE0 SHR DUP1 PUSH4 0x8AC144E EQ PUSH2 0x44 JUMPI DUP1 PUSH4 0x8EB6A489 EQ PUSH2 0x60 JUMPI DUP1 PUSH4 0xDD304104 EQ PUSH2 0x9D JUMPI DUP1 PUSH4 0xEB41850D EQ PUSH2 0xC6 JUMPI JUMPDEST PUSH1 0x0 DUP1 REVERT JUMPDEST PUSH2 0x5E PUSH1 0x4 DUP1 CALLDATASIZE SUB DUP2 ADD SWAP1 PUSH2 0x59 SWAP2 SWAP1 PUSH2 0x830 JUMP JUMPDEST PUSH2 0x103 JUMP JUMPDEST STOP JUMPDEST CALLVALUE DUP1 ISZERO PUSH2 0x6C JUMPI PUSH1 0x0 DUP1 REVERT JUMPDEST POP PUSH2 0x87 PUSH1 0x4 DUP1 CALLDATASIZE SUB DUP2 ADD SWAP1 PUSH2 0x82 SWAP2 SWAP1 PUSH2 0x89F JUMP JUMPDEST PUSH2 0x2CA JUMP JUMPDEST PUSH1 0x40 MLOAD PUSH2 0x94 SWAP2 SWAP1 PUSH2 0x8E7 JUMP JUMPDEST PUSH1 0x40 MLOAD DUP1 SWAP2 SUB SWAP1 RETURN JUMPDEST CALLVALUE DUP1 ISZERO PUSH2 0xA9 JUMPI PUSH1 0x0 DUP1 REVERT JUMPDEST POP PUSH2 0xC4 PUSH1 0x4 DUP1 CALLDATASIZE SUB DUP2 ADD SWAP1 PUSH2 0xBF SWAP2 SWAP1 PUSH2 0x902 JUMP JUMPDEST PUSH2 0x2EA JUMP JUMPDEST STOP JUMPDEST CALLVALUE DUP1 ISZERO PUSH2 0xD2 JUMPI PUSH1 0x0 DUP1 REVERT JUMPDEST POP PUSH2 0xED PUSH1 0x4 DUP1 CALLDATASIZE SUB DUP2 ADD SWAP1 PUSH2 0xE8 SWAP2 SWAP1 PUSH2 0x89F JUMP JUMPDEST PUSH2 0x3A3 JUMP JUMPDEST PUSH1 0x40 MLOAD PUSH2 0xFA SWAP2 SWAP1 PUSH2 0x8E7 JUMP JUMPDEST PUSH1 0x40 MLOAD DUP1 SWAP2 SUB SWAP1 RETURN JUMPDEST PUSH1 0x0 DUP4 PUSH1 0x20 ADD MLOAD DUP5 PUSH1 0x40 ADD MLOAD DUP6 PUSH1 0x60 ADD MLOAD DUP7 PUSH1 0xA0 ADD MLOAD DUP8 PUSH1 0x80 ADD MLOAD PUSH1 0x40 MLOAD PUSH1 0x20 ADD PUSH2 0x132 SWAP6 SWAP5 SWAP4 SWAP3 SWAP2 SWAP1 PUSH2 0xA25 JUMP JUMPDEST PUSH1 0x40 MLOAD PUSH1 0x20 DUP2 DUP4 SUB SUB DUP2 MSTORE SWAP1 PUSH1 0x40 MSTORE DUP1 MLOAD SWAP1 PUSH1 0x20 ADD KECCAK256 SWAP1 POP TIMESTAMP DUP5 PUSH1 0xA0 ADD MLOAD LT ISZERO PUSH2 0x165 JUMPI PUSH2 0x15F DUP2 PUSH2 0x3CD JUMP JUMPDEST POP PUSH2 0x2C5 JUMP JUMPDEST PUSH1 0x1 PUSH1 0x0 DUP3 DUP2 MSTORE PUSH1 0x20 ADD SWAP1 DUP2 MSTORE PUSH1 0x20 ADD PUSH1 0x0 KECCAK256 PUSH1 0x0 SWAP1 SLOAD SWAP1 PUSH2 0x100 EXP SWAP1 DIV PUSH1 0xFF AND ISZERO PUSH2 0x1C6 JUMPI PUSH1 0x40 MLOAD PUSH32 0x8C379A000000000000000000000000000000000000000000000000000000000 DUP2 MSTORE PUSH1 0x4 ADD PUSH2 0x1BD SWAP1 PUSH2 0xADD JUMP JUMPDEST PUSH1 0x40 MLOAD DUP1 SWAP2 SUB SWAP1 REVERT JUMPDEST PUSH2 0x1EC DUP5 PUSH1 0x0 ADD MLOAD DUP6 PUSH1 0x20 ADD MLOAD DUP7 PUSH1 0x40 ADD MLOAD DUP8 PUSH1 0x60 ADD MLOAD DUP9 PUSH1 0x80 ADD MLOAD DUP10 PUSH1 0xA0 ADD MLOAD PUSH2 0x3FB JUMP JUMPDEST PUSH2 0x22B JUMPI PUSH1 0x40 MLOAD PUSH32 0x8C379A000000000000000000000000000000000000000000000000000000000 DUP2 MSTORE PUSH1 0x4 ADD PUSH2 0x222 SWAP1 PUSH2 0xB49 JUMP JUMPDEST PUSH1 0x40 MLOAD DUP1 SWAP2 SUB SWAP1 REVERT JUMPDEST DUP4 PUSH1 0x60 ADD MLOAD DUP4 LT PUSH2 0x2C3 JUMPI DUP4 PUSH1 0x20 ADD MLOAD PUSH20 0xFFFFFFFFFFFFFFFFFFFFFFFFFFFFFFFFFFFFFFFF AND PUSH4 0x23B872DD DUP6 PUSH1 0x0 ADD MLOAD DUP5 DUP8 PUSH1 0x40 ADD MLOAD PUSH1 0x40 MLOAD DUP5 PUSH4 0xFFFFFFFF AND PUSH1 0xE0 SHL DUP2 MSTORE PUSH1 0x4 ADD PUSH2 0x27F SWAP4 SWAP3 SWAP2 SWAP1 PUSH2 0xB87 JUMP JUMPDEST PUSH1 0x0 PUSH1 0x40 MLOAD DUP1 DUP4 SUB DUP2 PUSH1 0x0 DUP8 DUP1 EXTCODESIZE ISZERO DUP1 ISZERO PUSH2 0x299 JUMPI PUSH1 0x0 DUP1 REVERT JUMPDEST POP GAS CALL SWAP3 POP POP POP DUP1 ISZERO PUSH2 0x2AA JUMPI POP PUSH1 0x1 JUMPDEST PUSH2 0x2B4 JUMPI POP PUSH2 0x2C5 JUMP JUMPDEST PUSH2 0x2BD DUP2 PUSH2 0x3CD JUMP JUMPDEST POP PUSH2 0x2C5 JUMP JUMPDEST POP JUMPDEST POP POP POP JUMP JUMPDEST PUSH1 0x1 PUSH1 0x20 MSTORE DUP1 PUSH1 0x0 MSTORE PUSH1 0x40 PUSH1 0x0 KECCAK256 PUSH1 0x0 SWAP2 POP SLOAD SWAP1 PUSH2 0x100 EXP SWAP1 DIV PUSH1 0xFF AND DUP2 JUMP JUMPDEST PUSH2 0x310 DUP2 PUSH1 0x0 ADD MLOAD DUP3 PUSH1 0x20 ADD MLOAD DUP4 PUSH1 0x40 ADD MLOAD DUP5 PUSH1 0x60 ADD MLOAD DUP6 PUSH1 0x80 ADD MLOAD DUP7 PUSH1 0xA0 ADD MLOAD PUSH2 0x3FB JUMP JUMPDEST PUSH2 0x34F JUMPI PUSH1 0x40 MLOAD PUSH32 0x8C379A000000000000000000000000000000000000000000000000000000000 DUP2 MSTORE PUSH1 0x4 ADD PUSH2 0x346 SWAP1 PUSH2 0xB49 JUMP JUMPDEST PUSH1 0x40 MLOAD DUP1 SWAP2 SUB SWAP1 REVERT JUMPDEST PUSH1 0x0 DUP2 PUSH1 0x20 ADD MLOAD DUP3 PUSH1 0x40 ADD MLOAD DUP4 PUSH1 0x60 ADD MLOAD DUP5 PUSH1 0xA0 ADD MLOAD DUP6 PUSH1 0x80 ADD MLOAD PUSH1 0x40 MLOAD PUSH1 0x20 ADD PUSH2 0x37E SWAP6 SWAP5 SWAP4 SWAP3 SWAP2 SWAP1 PUSH2 0xA25 JUMP JUMPDEST PUSH1 0x40 MLOAD PUSH1 0x20 DUP2 DUP4 SUB SUB DUP2 MSTORE SWAP1 PUSH1 0x40 MSTORE DUP1 MLOAD SWAP1 PUSH1 0x20 ADD KECCAK256 SWAP1 POP PUSH2 0x39F DUP2 PUSH2 0x3CD JUMP JUMPDEST POP POP JUMP JUMPDEST PUSH1 0x0 PUSH1 0x1 PUSH1 0x0 DUP4 DUP2 MSTORE PUSH1 0x20 ADD SWAP1 DUP2 MSTORE PUSH1 0x20 ADD PUSH1 0x0 KECCAK256 PUSH1 0x0 SWAP1 SLOAD SWAP1 PUSH2 0x100 EXP SWAP1 DIV PUSH1 0xFF AND SWAP1 POP SWAP2 SWAP1 POP JUMP JUMPDEST PUSH1 0x1 DUP1 PUSH1 0x0 DUP4 DUP2 MSTORE PUSH1 0x20 ADD SWAP1 DUP2 MSTORE PUSH1 0x20 ADD PUSH1 0x0 KECCAK256 PUSH1 0x0 PUSH2 0x100 EXP DUP2 SLOAD DUP2 PUSH1 0xFF MUL NOT AND SWAP1 DUP4 ISZERO ISZERO MUL OR SWAP1 SSTORE POP POP JUMP JUMPDEST PUSH1 0x0 DUP1 DUP7 DUP7 DUP7 DUP6 PUSH1 0x40 MLOAD PUSH1 0x20 ADD PUSH2 0x415 SWAP5 SWAP4 SWAP3 SWAP2 SWAP1 PUSH2 0xBBE JUMP JUMPDEST PUSH1 0x40 MLOAD PUSH1 0x20 DUP2 DUP4 SUB SUB DUP2 MSTORE SWAP1 PUSH1 0x40 MSTORE DUP1 MLOAD SWAP1 PUSH1 0x20 ADD KECCAK256 SWAP1 POP PUSH1 0x0 DUP2 PUSH1 0x40 MLOAD PUSH1 0x20 ADD PUSH2 0x440 SWAP2 SWAP1 PUSH2 0xC84 JUMP JUMPDEST PUSH1 0x40 MLOAD PUSH1 0x20 DUP2 DUP4 SUB SUB DUP2 MSTORE SWAP1 PUSH1 0x40 MSTORE DUP1 MLOAD SWAP1 PUSH1 0x20 ADD KECCAK256 SWAP1 POP DUP9 PUSH20 0xFFFFFFFFFFFFFFFFFFFFFFFFFFFFFFFFFFFFFFFF AND PUSH2 0x479 DUP3 DUP8 PUSH2 0x49E JUMP JUMPDEST PUSH20 0xFFFFFFFFFFFFFFFFFFFFFFFFFFFFFFFFFFFFFFFF AND EQ SWAP3 POP POP POP SWAP7 SWAP6 POP POP POP POP POP POP JUMP JUMPDEST PUSH1 0x0 DUP1 PUSH1 0x0 DUP1 PUSH1 0x20 DUP6 ADD MLOAD SWAP3 POP PUSH1 0x40 DUP6 ADD MLOAD SWAP2 POP PUSH1 0x60 DUP6 ADD MLOAD PUSH1 0x0 BYTE SWAP1 POP PUSH1 0x1B DUP2 PUSH1 0xFF AND LT ISZERO PUSH2 0x4D8 JUMPI PUSH1 0x1B DUP2 PUSH2 0x4D5 SWAP2 SWAP1 PUSH2 0xCE6 JUMP JUMPDEST SWAP1 POP JUMPDEST PUSH1 0x1 DUP7 DUP3 DUP6 DUP6 PUSH1 0x40 MLOAD PUSH1 0x0 DUP2 MSTORE PUSH1 0x20 ADD PUSH1 0x40 MSTORE PUSH1 0x40 MLOAD PUSH2 0x4FB SWAP5 SWAP4 SWAP3 SWAP2 SWAP1 PUSH2 0xD39 JUMP JUMPDEST PUSH1 0x20 PUSH1 0x40 MLOAD PUSH1 0x20 DUP2 SUB SWAP1 DUP1 DUP5 SUB SWAP1 DUP6 GAS STATICCALL ISZERO DUP1 ISZERO PUSH2 0x51D JUMPI RETURNDATASIZE PUSH1 0x0 DUP1 RETURNDATACOPY RETURNDATASIZE PUSH1 0x0 REVERT JUMPDEST POP POP POP PUSH1 0x20 PUSH1 0x40 MLOAD SUB MLOAD SWAP4 POP POP POP POP SWAP3 SWAP2 POP POP JUMP JUMPDEST PUSH1 0x0 PUSH1 0x40 MLOAD SWAP1 POP SWAP1 JUMP JUMPDEST PUSH1 0x0 DUP1 REVERT JUMPDEST PUSH1 0x0 DUP1 REVERT JUMPDEST PUSH1 0x0 DUP1 REVERT JUMPDEST PUSH1 0x0 PUSH1 0x1F NOT PUSH1 0x1F DUP4 ADD AND SWAP1 POP SWAP2 SWAP1 POP JUMP JUMPDEST PUSH32 0x4E487B7100000000000000000000000000000000000000000000000000000000 PUSH1 0x0 MSTORE PUSH1 0x41 PUSH1 0x4 MSTORE PUSH1 0x24 PUSH1 0x0 REVERT JUMPDEST PUSH2 0x594 DUP3 PUSH2 0x54B JUMP JUMPDEST DUP2 ADD DUP2 DUP2 LT PUSH8 0xFFFFFFFFFFFFFFFF DUP3 GT OR ISZERO PUSH2 0x5B3 JUMPI PUSH2 0x5B2 PUSH2 0x55C JUMP JUMPDEST JUMPDEST DUP1 PUSH1 0x40 MSTORE POP POP POP JUMP JUMPDEST PUSH1 0x0 PUSH2 0x5C6 PUSH2 0x532 JUMP JUMPDEST SWAP1 POP PUSH2 0x5D2 DUP3 DUP3 PUSH2 0x58B JUMP JUMPDEST SWAP2 SWAP1 POP JUMP JUMPDEST PUSH1 0x0 DUP1 REVERT JUMPDEST PUSH1 0x0 PUSH20 0xFFFFFFFFFFFFFFFFFFFFFFFFFFFFFFFFFFFFFFFF DUP3 AND SWAP1 POP SWAP2 SWAP1 POP JUMP JUMPDEST PUSH1 0x0 PUSH2 0x607 DUP3 PUSH2 0x5DC JUMP JUMPDEST SWAP1 POP SWAP2 SWAP1 POP JUMP JUMPDEST PUSH2 0x617 DUP2 PUSH2 0x5FC JUMP JUMPDEST DUP2 EQ PUSH2 0x622 JUMPI PUSH1 0x0 DUP1 REVERT JUMPDEST POP JUMP JUMPDEST PUSH1 0x0 DUP2 CALLDATALOAD SWAP1 POP PUSH2 0x634 DUP2 PUSH2 0x60E JUMP JUMPDEST SWAP3 SWAP2 POP POP JUMP JUMPDEST PUSH1 0x0 DUP2 SWAP1 POP SWAP2 SWAP1 POP JUMP JUMPDEST PUSH2 0x64D DUP2 PUSH2 0x63A JUMP JUMPDEST DUP2 EQ PUSH2 0x658 JUMPI PUSH1 0x0 DUP1 REVERT JUMPDEST POP JUMP JUMPDEST PUSH1 0x0 DUP2 CALLDATALOAD SWAP1 POP PUSH2 0x66A DUP2 PUSH2 0x644 JUMP JUMPDEST SWAP3 SWAP2 POP POP JUMP JUMPDEST PUSH1 0x0 DUP1 REVERT JUMPDEST PUSH1 0x0 DUP1 REVERT JUMPDEST PUSH1 0x0 PUSH8 0xFFFFFFFFFFFFFFFF DUP3 GT ISZERO PUSH2 0x695 JUMPI PUSH2 0x694 PUSH2 0x55C JUMP JUMPDEST JUMPDEST PUSH2 0x69E DUP3 PUSH2 0x54B JUMP JUMPDEST SWAP1 POP PUSH1 0x20 DUP2 ADD SWAP1 POP SWAP2 SWAP1 POP JUMP JUMPDEST DUP3 DUP2 DUP4 CALLDATACOPY PUSH1 0x0 DUP4 DUP4 ADD MSTORE POP POP POP JUMP JUMPDEST PUSH1 0x0 PUSH2 0x6CD PUSH2 0x6C8 DUP5 PUSH2 0x67A JUMP JUMPDEST PUSH2 0x5BC JUMP JUMPDEST SWAP1 POP DUP3 DUP2 MSTORE PUSH1 0x20 DUP2 ADD DUP5 DUP5 DUP5 ADD GT ISZERO PUSH2 0x6E9 JUMPI PUSH2 0x6E8 PUSH2 0x675 JUMP JUMPDEST JUMPDEST PUSH2 0x6F4 DUP5 DUP3 DUP6 PUSH2 0x6AB JUMP JUMPDEST POP SWAP4 SWAP3 POP POP POP JUMP JUMPDEST PUSH1 0x0 DUP3 PUSH1 0x1F DUP4 ADD SLT PUSH2 0x711 JUMPI PUSH2 0x710 PUSH2 0x670 JUMP JUMPDEST JUMPDEST DUP2 CALLDATALOAD PUSH2 0x721 DUP5 DUP3 PUSH1 0x20 DUP7 ADD PUSH2 0x6BA JUMP JUMPDEST SWAP2 POP POP SWAP3 SWAP2 POP POP JUMP JUMPDEST PUSH1 0x0 DUP2 SWAP1 POP SWAP2 SWAP1 POP JUMP JUMPDEST PUSH2 0x73D DUP2 PUSH2 0x72A JUMP JUMPDEST DUP2 EQ PUSH2 0x748 JUMPI PUSH1 0x0 DUP1 REVERT JUMPDEST POP JUMP JUMPDEST PUSH1 0x0 DUP2 CALLDATALOAD SWAP1 POP PUSH2 0x75A DUP2 PUSH2 0x734 JUMP JUMPDEST SWAP3 SWAP2 POP POP JUMP JUMPDEST PUSH1 0x0 PUSH1 0xE0 DUP3 DUP5 SUB SLT ISZERO PUSH2 0x776 JUMPI PUSH2 0x775 PUSH2 0x546 JUMP JUMPDEST JUMPDEST PUSH2 0x780 PUSH1 0xE0 PUSH2 0x5BC JUMP JUMPDEST SWAP1 POP PUSH1 0x0 PUSH2 0x790 DUP5 DUP3 DUP6 ADD PUSH2 0x625 JUMP JUMPDEST PUSH1 0x0 DUP4 ADD MSTORE POP PUSH1 0x20 PUSH2 0x7A4 DUP5 DUP3 DUP6 ADD PUSH2 0x625 JUMP JUMPDEST PUSH1 0x20 DUP4 ADD MSTORE POP PUSH1 0x40 PUSH2 0x7B8 DUP5 DUP3 DUP6 ADD PUSH2 0x65B JUMP JUMPDEST PUSH1 0x40 DUP4 ADD MSTORE POP PUSH1 0x60 PUSH2 0x7CC DUP5 DUP3 DUP6 ADD PUSH2 0x65B JUMP JUMPDEST PUSH1 0x60 DUP4 ADD MSTORE POP PUSH1 0x80 DUP3 ADD CALLDATALOAD PUSH8 0xFFFFFFFFFFFFFFFF DUP2 GT ISZERO PUSH2 0x7F0 JUMPI PUSH2 0x7EF PUSH2 0x5D7 JUMP JUMPDEST JUMPDEST PUSH2 0x7FC DUP5 DUP3 DUP6 ADD PUSH2 0x6FC JUMP JUMPDEST PUSH1 0x80 DUP4 ADD MSTORE POP PUSH1 0xA0 PUSH2 0x810 DUP5 DUP3 DUP6 ADD PUSH2 0x65B JUMP JUMPDEST PUSH1 0xA0 DUP4 ADD MSTORE POP PUSH1 0xC0 PUSH2 0x824 DUP5 DUP3 DUP6 ADD PUSH2 0x74B JUMP JUMPDEST PUSH1 0xC0 DUP4 ADD MSTORE POP SWAP3 SWAP2 POP POP JUMP JUMPDEST PUSH1 0x0 DUP1 PUSH1 0x0 PUSH1 0x60 DUP5 DUP7 SUB SLT ISZERO PUSH2 0x849 JUMPI PUSH2 0x848 PUSH2 0x53C JUMP JUMPDEST JUMPDEST PUSH1 0x0 DUP5 ADD CALLDATALOAD PUSH8 0xFFFFFFFFFFFFFFFF DUP2 GT ISZERO PUSH2 0x867 JUMPI PUSH2 0x866 PUSH2 0x541 JUMP JUMPDEST JUMPDEST PUSH2 0x873 DUP7 DUP3 DUP8 ADD PUSH2 0x760 JUMP JUMPDEST SWAP4 POP POP PUSH1 0x20 PUSH2 0x884 DUP7 DUP3 DUP8 ADD PUSH2 0x65B JUMP JUMPDEST SWAP3 POP POP PUSH1 0x40 PUSH2 0x895 DUP7 DUP3 DUP8 ADD PUSH2 0x625 JUMP JUMPDEST SWAP2 POP POP SWAP3 POP SWAP3 POP SWAP3 JUMP JUMPDEST PUSH1 0x0 PUSH1 0x20 DUP3 DUP5 SUB SLT ISZERO PUSH2 0x8B5 JUMPI PUSH2 0x8B4 PUSH2 0x53C JUMP JUMPDEST JUMPDEST PUSH1 0x0 PUSH2 0x8C3 DUP5 DUP3 DUP6 ADD PUSH2 0x74B JUMP JUMPDEST SWAP2 POP POP SWAP3 SWAP2 POP POP JUMP JUMPDEST PUSH1 0x0 DUP2 ISZERO ISZERO SWAP1 POP SWAP2 SWAP1 POP JUMP JUMPDEST PUSH2 0x8E1 DUP2 PUSH2 0x8CC JUMP JUMPDEST DUP3 MSTORE POP POP JUMP JUMPDEST PUSH1 0x0 PUSH1 0x20 DUP3 ADD SWAP1 POP PUSH2 0x8FC PUSH1 0x0 DUP4 ADD DUP5 PUSH2 0x8D8 JUMP JUMPDEST SWAP3 SWAP2 POP POP JUMP JUMPDEST PUSH1 0x0 PUSH1 0x20 DUP3 DUP5 SUB SLT ISZERO PUSH2 0x918 JUMPI PUSH2 0x917 PUSH2 0x53C JUMP JUMPDEST JUMPDEST PUSH1 0x0 DUP3 ADD CALLDATALOAD PUSH8 0xFFFFFFFFFFFFFFFF DUP2 GT ISZERO PUSH2 0x936 JUMPI PUSH2 0x935 PUSH2 0x541 JUMP JUMPDEST JUMPDEST PUSH2 0x942 DUP5 DUP3 DUP6 ADD PUSH2 0x760 JUMP JUMPDEST SWAP2 POP POP SWAP3 SWAP2 POP POP JUMP JUMPDEST PUSH1 0x0 DUP2 PUSH1 0x60 SHL SWAP1 POP SWAP2 SWAP1 POP JUMP JUMPDEST PUSH1 0x0 PUSH2 0x963 DUP3 PUSH2 0x94B JUMP JUMPDEST SWAP1 POP SWAP2 SWAP1 POP JUMP JUMPDEST PUSH1 0x0 PUSH2 0x975 DUP3 PUSH2 0x958 JUMP JUMPDEST SWAP1 POP SWAP2 SWAP1 POP JUMP JUMPDEST PUSH2 0x98D PUSH2 0x988 DUP3 PUSH2 0x5FC JUMP JUMPDEST PUSH2 0x96A JUMP JUMPDEST DUP3 MSTORE POP POP JUMP JUMPDEST PUSH1 0x0 DUP2 SWAP1 POP SWAP2 SWAP1 POP JUMP JUMPDEST PUSH2 0x9AE PUSH2 0x9A9 DUP3 PUSH2 0x63A JUMP JUMPDEST PUSH2 0x993 JUMP JUMPDEST DUP3 MSTORE POP POP JUMP JUMPDEST PUSH1 0x0 DUP2 MLOAD SWAP1 POP SWAP2 SWAP1 POP JUMP JUMPDEST PUSH1 0x0 DUP2 SWAP1 POP SWAP3 SWAP2 POP POP JUMP JUMPDEST PUSH1 0x0 JUMPDEST DUP4 DUP2 LT ISZERO PUSH2 0x9E8 JUMPI DUP1 DUP3 ADD MLOAD DUP2 DUP5 ADD MSTORE PUSH1 0x20 DUP2 ADD SWAP1 POP PUSH2 0x9CD JUMP JUMPDEST PUSH1 0x0 DUP5 DUP5 ADD MSTORE POP POP POP POP JUMP JUMPDEST PUSH1 0x0 PUSH2 0x9FF DUP3 PUSH2 0x9B4 JUMP JUMPDEST PUSH2 0xA09 DUP2 DUP6 PUSH2 0x9BF JUMP JUMPDEST SWAP4 POP PUSH2 0xA19 DUP2 DUP6 PUSH1 0x20 DUP7 ADD PUSH2 0x9CA JUMP JUMPDEST DUP1 DUP5 ADD SWAP2 POP POP SWAP3 SWAP2 POP POP JUMP JUMPDEST PUSH1 0x0 PUSH2 0xA31 DUP3 DUP9 PUSH2 0x97C JUMP JUMPDEST PUSH1 0x14 DUP3 ADD SWAP2 POP PUSH2 0xA41 DUP3 DUP8 PUSH2 0x99D JUMP JUMPDEST PUSH1 0x20 DUP3 ADD SWAP2 POP PUSH2 0xA51 DUP3 DUP7 PUSH2 0x99D JUMP JUMPDEST PUSH1 0x20 DUP3 ADD SWAP2 POP PUSH2 0xA61 DUP3 DUP6 PUSH2 0x99D JUMP JUMPDEST PUSH1 0x20 DUP3 ADD SWAP2 POP PUSH2 0xA71 DUP3 DUP5 PUSH2 0x9F4 JUMP JUMPDEST SWAP2 POP DUP2 SWAP1 POP SWAP7 SWAP6 POP POP POP POP POP POP JUMP JUMPDEST PUSH1 0x0 DUP3 DUP3 MSTORE PUSH1 0x20 DUP3 ADD SWAP1 POP SWAP3 SWAP2 POP POP JUMP JUMPDEST PUSH32 0x4F7264657220686173206265656E207573656400000000000000000000000000 PUSH1 0x0 DUP3 ADD MSTORE POP JUMP JUMPDEST PUSH1 0x0 PUSH2 0xAC7 PUSH1 0x13 DUP4 PUSH2 0xA80 JUMP JUMPDEST SWAP2 POP PUSH2 0xAD2 DUP3 PUSH2 0xA91 JUMP JUMPDEST PUSH1 0x20 DUP3 ADD SWAP1 POP SWAP2 SWAP1 POP JUMP JUMPDEST PUSH1 0x0 PUSH1 0x20 DUP3 ADD SWAP1 POP DUP2 DUP2 SUB PUSH1 0x0 DUP4 ADD MSTORE PUSH2 0xAF6 DUP2 PUSH2 0xABA JUMP JUMPDEST SWAP1 POP SWAP2 SWAP1 POP JUMP JUMPDEST PUSH32 0x496E76616C6964207369676E6174757265000000000000000000000000000000 PUSH1 0x0 DUP3 ADD MSTORE POP JUMP JUMPDEST PUSH1 0x0 PUSH2 0xB33 PUSH1 0x11 DUP4 PUSH2 0xA80 JUMP JUMPDEST SWAP2 POP PUSH2 0xB3E DUP3 PUSH2 0xAFD JUMP JUMPDEST PUSH1 0x20 DUP3 ADD SWAP1 POP SWAP2 SWAP1 POP JUMP JUMPDEST PUSH1 0x0 PUSH1 0x20 DUP3 ADD SWAP1 POP DUP2 DUP2 SUB PUSH1 0x0 DUP4 ADD MSTORE PUSH2 0xB62 DUP2 PUSH2 0xB26 JUMP JUMPDEST SWAP1 POP SWAP2 SWAP1 POP JUMP JUMPDEST PUSH2 0xB72 DUP2 PUSH2 0x5FC JUMP JUMPDEST DUP3 MSTORE POP POP JUMP JUMPDEST PUSH2 0xB81 DUP2 PUSH2 0x63A JUMP JUMPDEST DUP3 MSTORE POP POP JUMP JUMPDEST PUSH1 0x0 PUSH1 0x60 DUP3 ADD SWAP1 POP PUSH2 0xB9C PUSH1 0x0 DUP4 ADD DUP7 PUSH2 0xB69 JUMP JUMPDEST PUSH2 0xBA9 PUSH1 0x20 DUP4 ADD DUP6 PUSH2 0xB69 JUMP JUMPDEST PUSH2 0xBB6 PUSH1 0x40 DUP4 ADD DUP5 PUSH2 0xB78 JUMP JUMPDEST SWAP5 SWAP4 POP POP POP POP JUMP JUMPDEST PUSH1 0x0 PUSH2 0xBCA DUP3 DUP8 PUSH2 0x97C JUMP JUMPDEST PUSH1 0x14 DUP3 ADD SWAP2 POP PUSH2 0xBDA DUP3 DUP7 PUSH2 0x99D JUMP JUMPDEST PUSH1 0x20 DUP3 ADD SWAP2 POP PUSH2 0xBEA DUP3 DUP6 PUSH2 0x99D JUMP JUMPDEST PUSH1 0x20 DUP3 ADD SWAP2 POP PUSH2 0xBFA DUP3 DUP5 PUSH2 0x99D JUMP JUMPDEST PUSH1 0x20 DUP3 ADD SWAP2 POP DUP2 SWAP1 POP SWAP6 SWAP5 POP POP POP POP POP JUMP JUMPDEST PUSH1 0x0 DUP2 SWAP1 POP SWAP3 SWAP2 POP POP JUMP JUMPDEST PUSH32 0x19457468657265756D205369676E6564204D6573736167653A0A333200000000 PUSH1 0x0 DUP3 ADD MSTORE POP JUMP JUMPDEST PUSH1 0x0 PUSH2 0xC4D PUSH1 0x1C DUP4 PUSH2 0xC0C JUMP JUMPDEST SWAP2 POP PUSH2 0xC58 DUP3 PUSH2 0xC17 JUMP JUMPDEST PUSH1 0x1C DUP3 ADD SWAP1 POP SWAP2 SWAP1 POP JUMP JUMPDEST PUSH1 0x0 DUP2 SWAP1 POP SWAP2 SWAP1 POP JUMP JUMPDEST PUSH2 0xC7E PUSH2 0xC79 DUP3 PUSH2 0x72A JUMP JUMPDEST PUSH2 0xC63 JUMP JUMPDEST DUP3 MSTORE POP POP JUMP JUMPDEST PUSH1 0x0 PUSH2 0xC8F DUP3 PUSH2 0xC40 JUMP JUMPDEST SWAP2 POP PUSH2 0xC9B DUP3 DUP5 PUSH2 0xC6D JUMP JUMPDEST PUSH1 0x20 DUP3 ADD SWAP2 POP DUP2 SWAP1 POP SWAP3 SWAP2 POP POP JUMP JUMPDEST PUSH1 0x0 PUSH1 0xFF DUP3 AND SWAP1 POP SWAP2 SWAP1 POP JUMP JUMPDEST PUSH32 0x4E487B7100000000000000000000000000000000000000000000000000000000 PUSH1 0x0 MSTORE PUSH1 0x11 PUSH1 0x4 MSTORE PUSH1 0x24 PUSH1 0x0 REVERT JUMPDEST PUSH1 0x0 PUSH2 0xCF1 DUP3 PUSH2 0xCAA JUMP JUMPDEST SWAP2 POP PUSH2 0xCFC DUP4 PUSH2 0xCAA JUMP JUMPDEST SWAP3 POP DUP3 DUP3 ADD SWAP1 POP PUSH1 0xFF DUP2 GT ISZERO PUSH2 0xD15 JUMPI PUSH2 0xD14 PUSH2 0xCB7 JUMP JUMPDEST JUMPDEST SWAP3 SWAP2 POP POP JUMP JUMPDEST PUSH2 0xD24 DUP2 PUSH2 0x72A JUMP JUMPDEST DUP3 MSTORE POP POP JUMP JUMPDEST PUSH2 0xD33 DUP2 PUSH2 0xCAA JUMP JUMPDEST DUP3 MSTORE POP POP JUMP JUMPDEST PUSH1 0x0 PUSH1 0x80 DUP3 ADD SWAP1 POP PUSH2 0xD4E PUSH1 0x0 DUP4 ADD DUP8 PUSH2 0xD1B JUMP JUMPDEST PUSH2 0xD5B PUSH1 0x20 DUP4 ADD DUP7 PUSH2 0xD2A JUMP JUMPDEST PUSH2 0xD68 PUSH1 0x40 DUP4 ADD DUP6 PUSH2 0xD1B JUMP JUMPDEST PUSH2 0xD75 PUSH1 0x60 DUP4 ADD DUP5 PUSH2 0xD1B JUMP JUMPDEST SWAP6 SWAP5 POP POP POP POP POP JUMP INVALID LOG2 PUSH5 0x6970667358 0x22 SLT KECCAK256 LOG1 MULMOD 0x21 0xB1 JUMPI PUSH21 0x974FB709BACF4FB2366A376DAA89110C8FFFEA2911 DUP5 PUSH1 0x84 0x4D PUSH24 0x64736F6C6343000812003300000000000000000000000000 "
		},
		"gasEstimates": {
			"creation": {
				"codeDepositCost": "701600",
				"executionCost": "infinite",
				"totalCost": "infinite"
			},
			"external": {
				"AtomicTx((address,address,uint256,uint256,bytes,uint256,bytes32),uint256,address)": "infinite",
				"IsInvalid(bytes32)": "2796",
				"cancelOrder((address,address,uint256,uint256,bytes,uint256,bytes32))": "infinite",
				"isOrderInvalid(bytes32)": "2866"
			},
			"internal": {
				"markOrderCancelled(bytes32)": "24362",
				"recoverSigner(bytes32,bytes memory)": "infinite",
				"verifySignature(address,address,uint256,uint256,bytes memory,uint256)": "infinite"
			}
		},
		"methodIdentifiers": {
			"AtomicTx((address,address,uint256,uint256,bytes,uint256,bytes32),uint256,address)": "08ac144e",
			"IsInvalid(bytes32)": "8eb6a489",
			"cancelOrder((address,address,uint256,uint256,bytes,uint256,bytes32))": "dd304104",
			"isOrderInvalid(bytes32)": "eb41850d"
		}
	},
	"abi": [
		{
			"inputs": [
				{
					"internalType": "address",
					"name": "_owner",
					"type": "address"
				}
			],
			"stateMutability": "payable",
			"type": "constructor"
		},
		{
			"inputs": [
				{
					"components": [
						{
							"internalType": "address",
							"name": "seller",
							"type": "address"
						},
						{
							"internalType": "address",
							"name": "contractID",
							"type": "address"
						},
						{
							"internalType": "uint256",
							"name": "tokenID",
							"type": "uint256"
						},
						{
							"internalType": "uint256",
							"name": "price",
							"type": "uint256"
						},
						{
							"internalType": "bytes",
							"name": "signature",
							"type": "bytes"
						},
						{
							"internalType": "uint256",
							"name": "expirationTime",
							"type": "uint256"
						},
						{
							"internalType": "bytes32",
							"name": "orderID",
							"type": "bytes32"
						}
					],
					"internalType": "struct ProxyWallet.SellOrder",
					"name": "sellOrder",
					"type": "tuple"
				},
				{
					"internalType": "uint256",
					"name": "_value",
					"type": "uint256"
				},
				{
					"internalType": "address",
					"name": "buyer",
					"type": "address"
				}
			],
			"name": "AtomicTx",
			"outputs": [],
			"stateMutability": "payable",
			"type": "function"
		},
		{
			"inputs": [
				{
					"internalType": "bytes32",
					"name": "",
					"type": "bytes32"
				}
			],
			"name": "IsInvalid",
			"outputs": [
				{
					"internalType": "bool",
					"name": "",
					"type": "bool"
				}
			],
			"stateMutability": "view",
			"type": "function"
		},
		{
			"inputs": [
				{
					"components": [
						{
							"internalType": "address",
							"name": "seller",
							"type": "address"
						},
						{
							"internalType": "address",
							"name": "contractID",
							"type": "address"
						},
						{
							"internalType": "uint256",
							"name": "tokenID",
							"type": "uint256"
						},
						{
							"internalType": "uint256",
							"name": "price",
							"type": "uint256"
						},
						{
							"internalType": "bytes",
							"name": "signature",
							"type": "bytes"
						},
						{
							"internalType": "uint256",
							"name": "expirationTime",
							"type": "uint256"
						},
						{
							"internalType": "bytes32",
							"name": "orderID",
							"type": "bytes32"
						}
					],
					"internalType": "struct ProxyWallet.SellOrder",
					"name": "sellOrder",
					"type": "tuple"
				}
			],
			"name": "cancelOrder",
			"outputs": [],
			"stateMutability": "nonpayable",
			"type": "function"
		},
		{
			"inputs": [
				{
					"internalType": "bytes32",
					"name": "orderHash",
					"type": "bytes32"
				}
			],
			"name": "isOrderInvalid",
			"outputs": [
				{
					"internalType": "bool",
					"name": "",
					"type": "bool"
				}
			],
			"stateMutability": "view",
			"type": "function"
		}
	]
}